{
	"contracts/cover/CoverNFT.sol": {
		"CoverNFT": {
			"abi": [
				{
					"inputs": [
						{
							"internalType": "string",
							"name": "_name",
							"type": "string"
						},
						{
							"internalType": "string",
							"name": "_symbol",
							"type": "string"
						},
						{
							"internalType": "address",
							"name": "_operator",
							"type": "address"
						},
						{
							"internalType": "address",
							"name": "_nftDescriptor",
							"type": "address"
						}
					],
					"stateMutability": "nonpayable",
					"type": "constructor"
				},
				{
					"inputs": [],
					"name": "AlreadyMinted",
					"type": "error"
				},
				{
					"inputs": [],
					"name": "InvalidNewNFTDescriptorAddress",
					"type": "error"
				},
				{
					"inputs": [],
					"name": "InvalidNewOperatorAddress",
					"type": "error"
				},
				{
					"inputs": [],
					"name": "InvalidRecipient",
					"type": "error"
				},
				{
					"inputs": [],
					"name": "NotAuthorized",
					"type": "error"
				},
				{
					"inputs": [],
					"name": "NotMinted",
					"type": "error"
				},
				{
					"inputs": [],
					"name": "NotOperator",
					"type": "error"
				},
				{
					"inputs": [],
					"name": "UnsafeRecipient",
					"type": "error"
				},
				{
					"inputs": [],
					"name": "WrongFrom",
					"type": "error"
				},
				{
					"anonymous": false,
					"inputs": [
						{
							"indexed": true,
							"internalType": "address",
							"name": "owner",
							"type": "address"
						},
						{
							"indexed": true,
							"internalType": "address",
							"name": "approved",
							"type": "address"
						},
						{
							"indexed": true,
							"internalType": "uint256",
							"name": "tokenId",
							"type": "uint256"
						}
					],
					"name": "Approval",
					"type": "event"
				},
				{
					"anonymous": false,
					"inputs": [
						{
							"indexed": true,
							"internalType": "address",
							"name": "owner",
							"type": "address"
						},
						{
							"indexed": true,
							"internalType": "address",
							"name": "operator",
							"type": "address"
						},
						{
							"indexed": false,
							"internalType": "bool",
							"name": "approved",
							"type": "bool"
						}
					],
					"name": "ApprovalForAll",
					"type": "event"
				},
				{
					"anonymous": false,
					"inputs": [
						{
							"indexed": true,
							"internalType": "address",
							"name": "from",
							"type": "address"
						},
						{
							"indexed": true,
							"internalType": "address",
							"name": "to",
							"type": "address"
						},
						{
							"indexed": true,
							"internalType": "uint256",
							"name": "tokenId",
							"type": "uint256"
						}
					],
					"name": "Transfer",
					"type": "event"
				},
				{
					"inputs": [
						{
							"internalType": "address",
							"name": "spender",
							"type": "address"
						},
						{
							"internalType": "uint256",
							"name": "id",
							"type": "uint256"
						}
					],
					"name": "approve",
					"outputs": [],
					"stateMutability": "nonpayable",
					"type": "function"
				},
				{
					"inputs": [
						{
							"internalType": "address",
							"name": "owner",
							"type": "address"
						}
					],
					"name": "balanceOf",
					"outputs": [
						{
							"internalType": "uint256",
							"name": "",
							"type": "uint256"
						}
					],
					"stateMutability": "view",
					"type": "function"
				},
				{
					"inputs": [
						{
							"internalType": "address",
							"name": "_newNFTDescriptor",
							"type": "address"
						}
					],
					"name": "changeNFTDescriptor",
					"outputs": [],
					"stateMutability": "nonpayable",
					"type": "function"
				},
				{
					"inputs": [
						{
							"internalType": "address",
							"name": "_newOperator",
							"type": "address"
						}
					],
					"name": "changeOperator",
					"outputs": [],
					"stateMutability": "nonpayable",
					"type": "function"
				},
				{
					"inputs": [
						{
							"internalType": "uint256",
							"name": "",
							"type": "uint256"
						}
					],
					"name": "getApproved",
					"outputs": [
						{
							"internalType": "address",
							"name": "",
							"type": "address"
						}
					],
					"stateMutability": "view",
					"type": "function"
				},
				{
					"inputs": [
						{
							"internalType": "address",
							"name": "",
							"type": "address"
						},
						{
							"internalType": "address",
							"name": "",
							"type": "address"
						}
					],
					"name": "isApprovedForAll",
					"outputs": [
						{
							"internalType": "bool",
							"name": "",
							"type": "bool"
						}
					],
					"stateMutability": "view",
					"type": "function"
				},
				{
					"inputs": [
						{
							"internalType": "address",
							"name": "spender",
							"type": "address"
						},
						{
							"internalType": "uint256",
							"name": "tokenId",
							"type": "uint256"
						}
					],
					"name": "isApprovedOrOwner",
					"outputs": [
						{
							"internalType": "bool",
							"name": "",
							"type": "bool"
						}
					],
					"stateMutability": "view",
					"type": "function"
				},
				{
					"inputs": [
						{
							"internalType": "address",
							"name": "to",
							"type": "address"
						}
					],
					"name": "mint",
					"outputs": [
						{
							"internalType": "uint256",
							"name": "id",
							"type": "uint256"
						}
					],
					"stateMutability": "nonpayable",
					"type": "function"
				},
				{
					"inputs": [],
					"name": "name",
					"outputs": [
						{
							"internalType": "string",
							"name": "",
							"type": "string"
						}
					],
					"stateMutability": "view",
					"type": "function"
				},
				{
					"inputs": [],
					"name": "nftDescriptor",
					"outputs": [
						{
							"internalType": "address",
							"name": "",
							"type": "address"
						}
					],
					"stateMutability": "view",
					"type": "function"
				},
				{
					"inputs": [],
					"name": "operator",
					"outputs": [
						{
							"internalType": "address",
							"name": "",
							"type": "address"
						}
					],
					"stateMutability": "view",
					"type": "function"
				},
				{
					"inputs": [
						{
							"internalType": "uint256",
							"name": "id",
							"type": "uint256"
						}
					],
					"name": "ownerOf",
					"outputs": [
						{
							"internalType": "address",
							"name": "owner",
							"type": "address"
						}
					],
					"stateMutability": "view",
					"type": "function"
				},
				{
					"inputs": [
						{
							"internalType": "address",
							"name": "from",
							"type": "address"
						},
						{
							"internalType": "address",
							"name": "to",
							"type": "address"
						},
						{
							"internalType": "uint256",
							"name": "id",
							"type": "uint256"
						}
					],
					"name": "safeTransferFrom",
					"outputs": [],
					"stateMutability": "nonpayable",
					"type": "function"
				},
				{
					"inputs": [
						{
							"internalType": "address",
							"name": "from",
							"type": "address"
						},
						{
							"internalType": "address",
							"name": "to",
							"type": "address"
						},
						{
							"internalType": "uint256",
							"name": "id",
							"type": "uint256"
						},
						{
							"internalType": "bytes",
							"name": "data",
							"type": "bytes"
						}
					],
					"name": "safeTransferFrom",
					"outputs": [],
					"stateMutability": "nonpayable",
					"type": "function"
				},
				{
					"inputs": [
						{
							"internalType": "address",
							"name": "spender",
							"type": "address"
						},
						{
							"internalType": "bool",
							"name": "approved",
							"type": "bool"
						}
					],
					"name": "setApprovalForAll",
					"outputs": [],
					"stateMutability": "nonpayable",
					"type": "function"
				},
				{
					"inputs": [
						{
							"internalType": "bytes4",
							"name": "interfaceId",
							"type": "bytes4"
						}
					],
					"name": "supportsInterface",
					"outputs": [
						{
							"internalType": "bool",
							"name": "",
							"type": "bool"
						}
					],
					"stateMutability": "pure",
					"type": "function"
				},
				{
					"inputs": [],
					"name": "symbol",
					"outputs": [
						{
							"internalType": "string",
							"name": "",
							"type": "string"
						}
					],
					"stateMutability": "view",
					"type": "function"
				},
				{
					"inputs": [
						{
							"internalType": "uint256",
							"name": "id",
							"type": "uint256"
						}
					],
					"name": "tokenURI",
					"outputs": [
						{
							"internalType": "string",
							"name": "uri",
							"type": "string"
						}
					],
					"stateMutability": "view",
					"type": "function"
				},
				{
					"inputs": [],
					"name": "totalSupply",
					"outputs": [
						{
							"internalType": "uint256",
							"name": "",
							"type": "uint256"
						}
					],
					"stateMutability": "view",
					"type": "function"
				},
				{
					"inputs": [
						{
							"internalType": "address",
							"name": "from",
							"type": "address"
						},
						{
							"internalType": "address",
							"name": "to",
							"type": "address"
						},
						{
							"internalType": "uint256",
							"name": "id",
							"type": "uint256"
						}
					],
					"name": "transferFrom",
					"outputs": [],
					"stateMutability": "nonpayable",
					"type": "function"
				}
			],
			"devdoc": {
				"details": "Based on Solmate https://github.com/transmissions11/solmate/blob/main/src/tokens/ERC721.sol",
				"events": {
					"Approval(address,address,uint256)": {
						"details": "Emitted when `owner` enables `approved` to manage the `tokenId` token."
					},
					"ApprovalForAll(address,address,bool)": {
						"details": "Emitted when `owner` enables or disables (`approved`) `operator` to manage all of its assets."
					},
					"Transfer(address,address,uint256)": {
						"details": "Emitted when `tokenId` token is transferred from `from` to `to`."
					}
				},
				"kind": "dev",
				"methods": {
					"balanceOf(address)": {
						"details": "Returns the number of tokens in ``owner``'s account."
					},
					"isApprovedOrOwner(address,uint256)": {
						"details": "`ownerOf` and `getApproved` throw if the token doesn't exist as per ERC721 specas a consequence this function will throw as well in that case"
					},
					"supportsInterface(bytes4)": {
						"details": "Returns true if this contract implements the interface defined by `interfaceId`. See the corresponding https://eips.ethereum.org/EIPS/eip-165#how-interfaces-are-identified[EIP section] to learn more about how these ids are created. This function call must use less than 30 000 gas."
					}
				},
				"stateVariables": {
					"getApproved": {
						"details": "Returns the account approved for `tokenId` token. Requirements: - `tokenId` must exist."
					},
					"isApprovedForAll": {
						"details": "Returns if the `operator` is allowed to manage all of the assets of `owner`. See {setApprovalForAll}"
					}
				},
				"version": 1
			},
			"evm": {
				"assembly": "    /* \"contracts/cover/CoverNFT.sol\":257:4725  contract CoverNFT is ICoverNFT {... */\n  mstore(0x40, 0x80)\n    /* \"contracts/cover/CoverNFT.sol\":738:964  constructor(... */\n  callvalue\n  dup1\n  iszero\n  tag_1\n  jumpi\n  0x00\n  dup1\n  revert\ntag_1:\n  pop\n  mload(0x40)\n  sub(codesize, bytecodeSize)\n  dup1\n  bytecodeSize\n  dup4\n  codecopy\n  dup2\n  dup2\n  add\n  0x40\n  mstore\n  dup2\n  add\n  swap1\n  tag_2\n  swap2\n  swap1\n  tag_3\n  jump\t// in\ntag_2:\n    /* \"contracts/cover/CoverNFT.sol\":870:875  _name */\n  dup4\n    /* \"contracts/cover/CoverNFT.sol\":863:867  name */\n  0x00\n    /* \"contracts/cover/CoverNFT.sol\":863:875  name = _name */\n  swap1\n  dup2\n  tag_6\n  swap2\n  swap1\n  tag_7\n  jump\t// in\ntag_6:\n  pop\n    /* \"contracts/cover/CoverNFT.sol\":890:897  _symbol */\n  dup3\n    /* \"contracts/cover/CoverNFT.sol\":881:887  symbol */\n  0x01\n    /* \"contracts/cover/CoverNFT.sol\":881:897  symbol = _symbol */\n  swap1\n  dup2\n  tag_8\n  swap2\n  swap1\n  tag_7\n  jump\t// in\ntag_8:\n  pop\n    /* \"contracts/cover/CoverNFT.sol\":914:923  _operator */\n  dup2\n    /* \"contracts/cover/CoverNFT.sol\":903:911  operator */\n  0x06\n  0x0c\n    /* \"contracts/cover/CoverNFT.sol\":903:923  operator = _operator */\n  0x0100\n  exp\n  dup2\n  sload\n  dup2\n  0xffffffffffffffffffffffffffffffffffffffff\n  mul\n  not\n  and\n  swap1\n  dup4\n  0xffffffffffffffffffffffffffffffffffffffff\n  and\n  mul\n  or\n  swap1\n  sstore\n  pop\n    /* \"contracts/cover/CoverNFT.sol\":945:959  _nftDescriptor */\n  dup1\n    /* \"contracts/cover/CoverNFT.sol\":929:942  nftDescriptor */\n  0x07\n  0x00\n    /* \"contracts/cover/CoverNFT.sol\":929:959  nftDescriptor = _nftDescriptor */\n  0x0100\n  exp\n  dup2\n  sload\n  dup2\n  0xffffffffffffffffffffffffffffffffffffffff\n  mul\n  not\n  and\n  swap1\n  dup4\n  0xffffffffffffffffffffffffffffffffffffffff\n  and\n  mul\n  or\n  swap1\n  sstore\n  pop\n    /* \"contracts/cover/CoverNFT.sol\":738:964  constructor(... */\n  pop\n  pop\n  pop\n  pop\n    /* \"contracts/cover/CoverNFT.sol\":257:4725  contract CoverNFT is ICoverNFT {... */\n  jump(tag_9)\n    /* \"#utility.yul\":7:82   */\ntag_10:\n    /* \"#utility.yul\":40:46   */\n  0x00\n    /* \"#utility.yul\":73:75   */\n  0x40\n    /* \"#utility.yul\":67:76   */\n  mload\n    /* \"#utility.yul\":57:76   */\n  swap1\n  pop\n    /* \"#utility.yul\":7:82   */\n  swap1\n  jump\t// out\n    /* \"#utility.yul\":88:205   */\ntag_11:\n    /* \"#utility.yul\":197:198   */\n  0x00\n    /* \"#utility.yul\":194:195   */\n  dup1\n    /* \"#utility.yul\":187:199   */\n  revert\n    /* \"#utility.yul\":211:328   */\ntag_12:\n    /* \"#utility.yul\":320:321   */\n  0x00\n    /* \"#utility.yul\":317:318   */\n  dup1\n    /* \"#utility.yul\":310:322   */\n  revert\n    /* \"#utility.yul\":334:451   */\ntag_13:\n    /* \"#utility.yul\":443:444   */\n  0x00\n    /* \"#utility.yul\":440:441   */\n  dup1\n    /* \"#utility.yul\":433:445   */\n  revert\n    /* \"#utility.yul\":457:574   */\ntag_14:\n    /* \"#utility.yul\":566:567   */\n  0x00\n    /* \"#utility.yul\":563:564   */\n  dup1\n    /* \"#utility.yul\":556:568   */\n  revert\n    /* \"#utility.yul\":580:682   */\ntag_15:\n    /* \"#utility.yul\":621:627   */\n  0x00\n    /* \"#utility.yul\":672:674   */\n  0x1f\n    /* \"#utility.yul\":668:675   */\n  not\n    /* \"#utility.yul\":663:665   */\n  0x1f\n    /* \"#utility.yul\":656:661   */\n  dup4\n    /* \"#utility.yul\":652:666   */\n  add\n    /* \"#utility.yul\":648:676   */\n  and\n    /* \"#utility.yul\":638:676   */\n  swap1\n  pop\n    /* \"#utility.yul\":580:682   */\n  swap2\n  swap1\n  pop\n  jump\t// out\n    /* \"#utility.yul\":688:868   */\ntag_16:\n    /* \"#utility.yul\":736:813   */\n  0x4e487b7100000000000000000000000000000000000000000000000000000000\n    /* \"#utility.yul\":733:734   */\n  0x00\n    /* \"#utility.yul\":726:814   */\n  mstore\n    /* \"#utility.yul\":833:837   */\n  0x41\n    /* \"#utility.yul\":830:831   */\n  0x04\n    /* \"#utility.yul\":823:838   */\n  mstore\n    /* \"#utility.yul\":857:861   */\n  0x24\n    /* \"#utility.yul\":854:855   */\n  0x00\n    /* \"#utility.yul\":847:862   */\n  revert\n    /* \"#utility.yul\":874:1155   */\ntag_17:\n    /* \"#utility.yul\":957:984   */\n  tag_55\n    /* \"#utility.yul\":979:983   */\n  dup3\n    /* \"#utility.yul\":957:984   */\n  tag_15\n  jump\t// in\ntag_55:\n    /* \"#utility.yul\":949:955   */\n  dup2\n    /* \"#utility.yul\":945:985   */\n  add\n    /* \"#utility.yul\":1087:1093   */\n  dup2\n    /* \"#utility.yul\":1075:1085   */\n  dup2\n    /* \"#utility.yul\":1072:1094   */\n  lt\n    /* \"#utility.yul\":1051:1069   */\n  0xffffffffffffffff\n    /* \"#utility.yul\":1039:1049   */\n  dup3\n    /* \"#utility.yul\":1036:1070   */\n  gt\n    /* \"#utility.yul\":1033:1095   */\n  or\n    /* \"#utility.yul\":1030:1118   */\n  iszero\n  tag_56\n  jumpi\n    /* \"#utility.yul\":1098:1116   */\n  tag_57\n  tag_16\n  jump\t// in\ntag_57:\n    /* \"#utility.yul\":1030:1118   */\ntag_56:\n    /* \"#utility.yul\":1138:1148   */\n  dup1\n    /* \"#utility.yul\":1134:1136   */\n  0x40\n    /* \"#utility.yul\":1127:1149   */\n  mstore\n    /* \"#utility.yul\":917:1155   */\n  pop\n    /* \"#utility.yul\":874:1155   */\n  pop\n  pop\n  jump\t// out\n    /* \"#utility.yul\":1161:1290   */\ntag_18:\n    /* \"#utility.yul\":1195:1201   */\n  0x00\n    /* \"#utility.yul\":1222:1242   */\n  tag_59\n  tag_10\n  jump\t// in\ntag_59:\n    /* \"#utility.yul\":1212:1242   */\n  swap1\n  pop\n    /* \"#utility.yul\":1251:1284   */\n  tag_60\n    /* \"#utility.yul\":1279:1283   */\n  dup3\n    /* \"#utility.yul\":1271:1277   */\n  dup3\n    /* \"#utility.yul\":1251:1284   */\n  tag_17\n  jump\t// in\ntag_60:\n    /* \"#utility.yul\":1161:1290   */\n  swap2\n  swap1\n  pop\n  jump\t// out\n    /* \"#utility.yul\":1296:1604   */\ntag_19:\n    /* \"#utility.yul\":1358:1362   */\n  0x00\n    /* \"#utility.yul\":1448:1466   */\n  0xffffffffffffffff\n    /* \"#utility.yul\":1440:1446   */\n  dup3\n    /* \"#utility.yul\":1437:1467   */\n  gt\n    /* \"#utility.yul\":1434:1490   */\n  iszero\n  tag_62\n  jumpi\n    /* \"#utility.yul\":1470:1488   */\n  tag_63\n  tag_16\n  jump\t// in\ntag_63:\n    /* \"#utility.yul\":1434:1490   */\ntag_62:\n    /* \"#utility.yul\":1508:1537   */\n  tag_64\n    /* \"#utility.yul\":1530:1536   */\n  dup3\n    /* \"#utility.yul\":1508:1537   */\n  tag_15\n  jump\t// in\ntag_64:\n    /* \"#utility.yul\":1500:1537   */\n  swap1\n  pop\n    /* \"#utility.yul\":1592:1596   */\n  0x20\n    /* \"#utility.yul\":1586:1590   */\n  dup2\n    /* \"#utility.yul\":1582:1597   */\n  add\n    /* \"#utility.yul\":1574:1597   */\n  swap1\n  pop\n    /* \"#utility.yul\":1296:1604   */\n  swap2\n  swap1\n  pop\n  jump\t// out\n    /* \"#utility.yul\":1610:1856   */\ntag_20:\n    /* \"#utility.yul\":1691:1692   */\n  0x00\n    /* \"#utility.yul\":1701:1814   */\ntag_66:\n    /* \"#utility.yul\":1715:1721   */\n  dup4\n    /* \"#utility.yul\":1712:1713   */\n  dup2\n    /* \"#utility.yul\":1709:1722   */\n  lt\n    /* \"#utility.yul\":1701:1814   */\n  iszero\n  tag_68\n  jumpi\n    /* \"#utility.yul\":1800:1801   */\n  dup1\n    /* \"#utility.yul\":1795:1798   */\n  dup3\n    /* \"#utility.yul\":1791:1802   */\n  add\n    /* \"#utility.yul\":1785:1803   */\n  mload\n    /* \"#utility.yul\":1781:1782   */\n  dup2\n    /* \"#utility.yul\":1776:1779   */\n  dup5\n    /* \"#utility.yul\":1772:1783   */\n  add\n    /* \"#utility.yul\":1765:1804   */\n  mstore\n    /* \"#utility.yul\":1737:1739   */\n  0x20\n    /* \"#utility.yul\":1734:1735   */\n  dup2\n    /* \"#utility.yul\":1730:1740   */\n  add\n    /* \"#utility.yul\":1725:1740   */\n  swap1\n  pop\n    /* \"#utility.yul\":1701:1814   */\n  jump(tag_66)\ntag_68:\n    /* \"#utility.yul\":1848:1849   */\n  0x00\n    /* \"#utility.yul\":1839:1845   */\n  dup5\n    /* \"#utility.yul\":1834:1837   */\n  dup5\n    /* \"#utility.yul\":1830:1846   */\n  add\n    /* \"#utility.yul\":1823:1850   */\n  mstore\n    /* \"#utility.yul\":1672:1856   */\n  pop\n    /* \"#utility.yul\":1610:1856   */\n  pop\n  pop\n  pop\n  jump\t// out\n    /* \"#utility.yul\":1862:2296   */\ntag_21:\n    /* \"#utility.yul\":1951:1956   */\n  0x00\n    /* \"#utility.yul\":1976:2042   */\n  tag_70\n    /* \"#utility.yul\":1992:2041   */\n  tag_71\n    /* \"#utility.yul\":2034:2040   */\n  dup5\n    /* \"#utility.yul\":1992:2041   */\n  tag_19\n  jump\t// in\ntag_71:\n    /* \"#utility.yul\":1976:2042   */\n  tag_18\n  jump\t// in\ntag_70:\n    /* \"#utility.yul\":1967:2042   */\n  swap1\n  pop\n    /* \"#utility.yul\":2065:2071   */\n  dup3\n    /* \"#utility.yul\":2058:2063   */\n  dup2\n    /* \"#utility.yul\":2051:2072   */\n  mstore\n    /* \"#utility.yul\":2103:2107   */\n  0x20\n    /* \"#utility.yul\":2096:2101   */\n  dup2\n    /* \"#utility.yul\":2092:2108   */\n  add\n    /* \"#utility.yul\":2141:2144   */\n  dup5\n    /* \"#utility.yul\":2132:2138   */\n  dup5\n    /* \"#utility.yul\":2127:2130   */\n  dup5\n    /* \"#utility.yul\":2123:2139   */\n  add\n    /* \"#utility.yul\":2120:2145   */\n  gt\n    /* \"#utility.yul\":2117:2229   */\n  iszero\n  tag_72\n  jumpi\n    /* \"#utility.yul\":2148:2227   */\n  tag_73\n  tag_14\n  jump\t// in\ntag_73:\n    /* \"#utility.yul\":2117:2229   */\ntag_72:\n    /* \"#utility.yul\":2238:2290   */\n  tag_74\n    /* \"#utility.yul\":2283:2289   */\n  dup5\n    /* \"#utility.yul\":2278:2281   */\n  dup3\n    /* \"#utility.yul\":2273:2276   */\n  dup6\n    /* \"#utility.yul\":2238:2290   */\n  tag_20\n  jump\t// in\ntag_74:\n    /* \"#utility.yul\":1957:2296   */\n  pop\n    /* \"#utility.yul\":1862:2296   */\n  swap4\n  swap3\n  pop\n  pop\n  pop\n  jump\t// out\n    /* \"#utility.yul\":2316:2671   */\ntag_22:\n    /* \"#utility.yul\":2383:2388   */\n  0x00\n    /* \"#utility.yul\":2432:2435   */\n  dup3\n    /* \"#utility.yul\":2425:2429   */\n  0x1f\n    /* \"#utility.yul\":2417:2423   */\n  dup4\n    /* \"#utility.yul\":2413:2430   */\n  add\n    /* \"#utility.yul\":2409:2436   */\n  slt\n    /* \"#utility.yul\":2399:2521   */\n  tag_76\n  jumpi\n    /* \"#utility.yul\":2440:2519   */\n  tag_77\n  tag_13\n  jump\t// in\ntag_77:\n    /* \"#utility.yul\":2399:2521   */\ntag_76:\n    /* \"#utility.yul\":2550:2556   */\n  dup2\n    /* \"#utility.yul\":2544:2557   */\n  mload\n    /* \"#utility.yul\":2575:2665   */\n  tag_78\n    /* \"#utility.yul\":2661:2664   */\n  dup5\n    /* \"#utility.yul\":2653:2659   */\n  dup3\n    /* \"#utility.yul\":2646:2650   */\n  0x20\n    /* \"#utility.yul\":2638:2644   */\n  dup7\n    /* \"#utility.yul\":2634:2651   */\n  add\n    /* \"#utility.yul\":2575:2665   */\n  tag_21\n  jump\t// in\ntag_78:\n    /* \"#utility.yul\":2566:2665   */\n  swap2\n  pop\n    /* \"#utility.yul\":2389:2671   */\n  pop\n    /* \"#utility.yul\":2316:2671   */\n  swap3\n  swap2\n  pop\n  pop\n  jump\t// out\n    /* \"#utility.yul\":2677:2803   */\ntag_23:\n    /* \"#utility.yul\":2714:2721   */\n  0x00\n    /* \"#utility.yul\":2754:2796   */\n  0xffffffffffffffffffffffffffffffffffffffff\n    /* \"#utility.yul\":2747:2752   */\n  dup3\n    /* \"#utility.yul\":2743:2797   */\n  and\n    /* \"#utility.yul\":2732:2797   */\n  swap1\n  pop\n    /* \"#utility.yul\":2677:2803   */\n  swap2\n  swap1\n  pop\n  jump\t// out\n    /* \"#utility.yul\":2809:2905   */\ntag_24:\n    /* \"#utility.yul\":2846:2853   */\n  0x00\n    /* \"#utility.yul\":2875:2899   */\n  tag_81\n    /* \"#utility.yul\":2893:2898   */\n  dup3\n    /* \"#utility.yul\":2875:2899   */\n  tag_23\n  jump\t// in\ntag_81:\n    /* \"#utility.yul\":2864:2899   */\n  swap1\n  pop\n    /* \"#utility.yul\":2809:2905   */\n  swap2\n  swap1\n  pop\n  jump\t// out\n    /* \"#utility.yul\":2911:3033   */\ntag_25:\n    /* \"#utility.yul\":2984:3008   */\n  tag_83\n    /* \"#utility.yul\":3002:3007   */\n  dup2\n    /* \"#utility.yul\":2984:3008   */\n  tag_24\n  jump\t// in\ntag_83:\n    /* \"#utility.yul\":2977:2982   */\n  dup2\n    /* \"#utility.yul\":2974:3009   */\n  eq\n    /* \"#utility.yul\":2964:3027   */\n  tag_84\n  jumpi\n    /* \"#utility.yul\":3023:3024   */\n  0x00\n    /* \"#utility.yul\":3020:3021   */\n  dup1\n    /* \"#utility.yul\":3013:3025   */\n  revert\n    /* \"#utility.yul\":2964:3027   */\ntag_84:\n    /* \"#utility.yul\":2911:3033   */\n  pop\n  jump\t// out\n    /* \"#utility.yul\":3039:3182   */\ntag_26:\n    /* \"#utility.yul\":3096:3101   */\n  0x00\n    /* \"#utility.yul\":3127:3133   */\n  dup2\n    /* \"#utility.yul\":3121:3134   */\n  mload\n    /* \"#utility.yul\":3112:3134   */\n  swap1\n  pop\n    /* \"#utility.yul\":3143:3176   */\n  tag_86\n    /* \"#utility.yul\":3170:3175   */\n  dup2\n    /* \"#utility.yul\":3143:3176   */\n  tag_25\n  jump\t// in\ntag_86:\n    /* \"#utility.yul\":3039:3182   */\n  swap3\n  swap2\n  pop\n  pop\n  jump\t// out\n    /* \"#utility.yul\":3188:4354   */\ntag_3:\n    /* \"#utility.yul\":3305:3311   */\n  0x00\n    /* \"#utility.yul\":3313:3319   */\n  dup1\n    /* \"#utility.yul\":3321:3327   */\n  0x00\n    /* \"#utility.yul\":3329:3335   */\n  dup1\n    /* \"#utility.yul\":3378:3381   */\n  0x80\n    /* \"#utility.yul\":3366:3375   */\n  dup6\n    /* \"#utility.yul\":3357:3364   */\n  dup8\n    /* \"#utility.yul\":3353:3376   */\n  sub\n    /* \"#utility.yul\":3349:3382   */\n  slt\n    /* \"#utility.yul\":3346:3466   */\n  iszero\n  tag_88\n  jumpi\n    /* \"#utility.yul\":3385:3464   */\n  tag_89\n  tag_11\n  jump\t// in\ntag_89:\n    /* \"#utility.yul\":3346:3466   */\ntag_88:\n    /* \"#utility.yul\":3526:3527   */\n  0x00\n    /* \"#utility.yul\":3515:3524   */\n  dup6\n    /* \"#utility.yul\":3511:3528   */\n  add\n    /* \"#utility.yul\":3505:3529   */\n  mload\n    /* \"#utility.yul\":3556:3574   */\n  0xffffffffffffffff\n    /* \"#utility.yul\":3548:3554   */\n  dup2\n    /* \"#utility.yul\":3545:3575   */\n  gt\n    /* \"#utility.yul\":3542:3659   */\n  iszero\n  tag_90\n  jumpi\n    /* \"#utility.yul\":3578:3657   */\n  tag_91\n  tag_12\n  jump\t// in\ntag_91:\n    /* \"#utility.yul\":3542:3659   */\ntag_90:\n    /* \"#utility.yul\":3683:3757   */\n  tag_92\n    /* \"#utility.yul\":3749:3756   */\n  dup8\n    /* \"#utility.yul\":3740:3746   */\n  dup3\n    /* \"#utility.yul\":3729:3738   */\n  dup9\n    /* \"#utility.yul\":3725:3747   */\n  add\n    /* \"#utility.yul\":3683:3757   */\n  tag_22\n  jump\t// in\ntag_92:\n    /* \"#utility.yul\":3673:3757   */\n  swap5\n  pop\n    /* \"#utility.yul\":3476:3767   */\n  pop\n    /* \"#utility.yul\":3827:3829   */\n  0x20\n    /* \"#utility.yul\":3816:3825   */\n  dup6\n    /* \"#utility.yul\":3812:3830   */\n  add\n    /* \"#utility.yul\":3806:3831   */\n  mload\n    /* \"#utility.yul\":3858:3876   */\n  0xffffffffffffffff\n    /* \"#utility.yul\":3850:3856   */\n  dup2\n    /* \"#utility.yul\":3847:3877   */\n  gt\n    /* \"#utility.yul\":3844:3961   */\n  iszero\n  tag_93\n  jumpi\n    /* \"#utility.yul\":3880:3959   */\n  tag_94\n  tag_12\n  jump\t// in\ntag_94:\n    /* \"#utility.yul\":3844:3961   */\ntag_93:\n    /* \"#utility.yul\":3985:4059   */\n  tag_95\n    /* \"#utility.yul\":4051:4058   */\n  dup8\n    /* \"#utility.yul\":4042:4048   */\n  dup3\n    /* \"#utility.yul\":4031:4040   */\n  dup9\n    /* \"#utility.yul\":4027:4049   */\n  add\n    /* \"#utility.yul\":3985:4059   */\n  tag_22\n  jump\t// in\ntag_95:\n    /* \"#utility.yul\":3975:4059   */\n  swap4\n  pop\n    /* \"#utility.yul\":3777:4069   */\n  pop\n    /* \"#utility.yul\":4108:4110   */\n  0x40\n    /* \"#utility.yul\":4134:4198   */\n  tag_96\n    /* \"#utility.yul\":4190:4197   */\n  dup8\n    /* \"#utility.yul\":4181:4187   */\n  dup3\n    /* \"#utility.yul\":4170:4179   */\n  dup9\n    /* \"#utility.yul\":4166:4188   */\n  add\n    /* \"#utility.yul\":4134:4198   */\n  tag_26\n  jump\t// in\ntag_96:\n    /* \"#utility.yul\":4124:4198   */\n  swap3\n  pop\n    /* \"#utility.yul\":4079:4208   */\n  pop\n    /* \"#utility.yul\":4247:4249   */\n  0x60\n    /* \"#utility.yul\":4273:4337   */\n  tag_97\n    /* \"#utility.yul\":4329:4336   */\n  dup8\n    /* \"#utility.yul\":4320:4326   */\n  dup3\n    /* \"#utility.yul\":4309:4318   */\n  dup9\n    /* \"#utility.yul\":4305:4327   */\n  add\n    /* \"#utility.yul\":4273:4337   */\n  tag_26\n  jump\t// in\ntag_97:\n    /* \"#utility.yul\":4263:4337   */\n  swap2\n  pop\n    /* \"#utility.yul\":4218:4347   */\n  pop\n    /* \"#utility.yul\":3188:4354   */\n  swap3\n  swap6\n  swap2\n  swap5\n  pop\n  swap3\n  pop\n  jump\t// out\n    /* \"#utility.yul\":4360:4459   */\ntag_27:\n    /* \"#utility.yul\":4412:4418   */\n  0x00\n    /* \"#utility.yul\":4446:4451   */\n  dup2\n    /* \"#utility.yul\":4440:4452   */\n  mload\n    /* \"#utility.yul\":4430:4452   */\n  swap1\n  pop\n    /* \"#utility.yul\":4360:4459   */\n  swap2\n  swap1\n  pop\n  jump\t// out\n    /* \"#utility.yul\":4465:4645   */\ntag_28:\n    /* \"#utility.yul\":4513:4590   */\n  0x4e487b7100000000000000000000000000000000000000000000000000000000\n    /* \"#utility.yul\":4510:4511   */\n  0x00\n    /* \"#utility.yul\":4503:4591   */\n  mstore\n    /* \"#utility.yul\":4610:4614   */\n  0x22\n    /* \"#utility.yul\":4607:4608   */\n  0x04\n    /* \"#utility.yul\":4600:4615   */\n  mstore\n    /* \"#utility.yul\":4634:4638   */\n  0x24\n    /* \"#utility.yul\":4631:4632   */\n  0x00\n    /* \"#utility.yul\":4624:4639   */\n  revert\n    /* \"#utility.yul\":4651:4971   */\ntag_29:\n    /* \"#utility.yul\":4695:4701   */\n  0x00\n    /* \"#utility.yul\":4732:4733   */\n  0x02\n    /* \"#utility.yul\":4726:4730   */\n  dup3\n    /* \"#utility.yul\":4722:4734   */\n  div\n    /* \"#utility.yul\":4712:4734   */\n  swap1\n  pop\n    /* \"#utility.yul\":4779:4780   */\n  0x01\n    /* \"#utility.yul\":4773:4777   */\n  dup3\n    /* \"#utility.yul\":4769:4781   */\n  and\n    /* \"#utility.yul\":4800:4818   */\n  dup1\n    /* \"#utility.yul\":4790:4871   */\n  tag_101\n  jumpi\n    /* \"#utility.yul\":4856:4860   */\n  0x7f\n    /* \"#utility.yul\":4848:4854   */\n  dup3\n    /* \"#utility.yul\":4844:4861   */\n  and\n    /* \"#utility.yul\":4834:4861   */\n  swap2\n  pop\n    /* \"#utility.yul\":4790:4871   */\ntag_101:\n    /* \"#utility.yul\":4918:4920   */\n  0x20\n    /* \"#utility.yul\":4910:4916   */\n  dup3\n    /* \"#utility.yul\":4907:4921   */\n  lt\n    /* \"#utility.yul\":4887:4905   */\n  dup2\n    /* \"#utility.yul\":4884:4922   */\n  sub\n    /* \"#utility.yul\":4881:4965   */\n  tag_102\n  jumpi\n    /* \"#utility.yul\":4937:4955   */\n  tag_103\n  tag_28\n  jump\t// in\ntag_103:\n    /* \"#utility.yul\":4881:4965   */\ntag_102:\n    /* \"#utility.yul\":4702:4971   */\n  pop\n    /* \"#utility.yul\":4651:4971   */\n  swap2\n  swap1\n  pop\n  jump\t// out\n    /* \"#utility.yul\":4977:5118   */\ntag_30:\n    /* \"#utility.yul\":5026:5030   */\n  0x00\n    /* \"#utility.yul\":5049:5052   */\n  dup2\n    /* \"#utility.yul\":5041:5052   */\n  swap1\n  pop\n    /* \"#utility.yul\":5072:5075   */\n  dup2\n    /* \"#utility.yul\":5069:5070   */\n  0x00\n    /* \"#utility.yul\":5062:5076   */\n  mstore\n    /* \"#utility.yul\":5106:5110   */\n  0x20\n    /* \"#utility.yul\":5103:5104   */\n  0x00\n    /* \"#utility.yul\":5093:5111   */\n  keccak256\n    /* \"#utility.yul\":5085:5111   */\n  swap1\n  pop\n    /* \"#utility.yul\":4977:5118   */\n  swap2\n  swap1\n  pop\n  jump\t// out\n    /* \"#utility.yul\":5124:5217   */\ntag_31:\n    /* \"#utility.yul\":5161:5167   */\n  0x00\n    /* \"#utility.yul\":5208:5210   */\n  0x20\n    /* \"#utility.yul\":5203:5205   */\n  0x1f\n    /* \"#utility.yul\":5196:5201   */\n  dup4\n    /* \"#utility.yul\":5192:5206   */\n  add\n    /* \"#utility.yul\":5188:5211   */\n  div\n    /* \"#utility.yul\":5178:5211   */\n  swap1\n  pop\n    /* \"#utility.yul\":5124:5217   */\n  swap2\n  swap1\n  pop\n  jump\t// out\n    /* \"#utility.yul\":5223:5330   */\ntag_32:\n    /* \"#utility.yul\":5267:5275   */\n  0x00\n    /* \"#utility.yul\":5317:5322   */\n  dup3\n    /* \"#utility.yul\":5311:5315   */\n  dup3\n    /* \"#utility.yul\":5307:5323   */\n  shl\n    /* \"#utility.yul\":5286:5323   */\n  swap1\n  pop\n    /* \"#utility.yul\":5223:5330   */\n  swap3\n  swap2\n  pop\n  pop\n  jump\t// out\n    /* \"#utility.yul\":5336:5729   */\ntag_33:\n    /* \"#utility.yul\":5405:5411   */\n  0x00\n    /* \"#utility.yul\":5455:5456   */\n  0x08\n    /* \"#utility.yul\":5443:5453   */\n  dup4\n    /* \"#utility.yul\":5439:5457   */\n  mul\n    /* \"#utility.yul\":5478:5575   */\n  tag_108\n    /* \"#utility.yul\":5508:5574   */\n  0xffffffffffffffffffffffffffffffffffffffffffffffffffffffffffffffff\n    /* \"#utility.yul\":5497:5506   */\n  dup3\n    /* \"#utility.yul\":5478:5575   */\n  tag_32\n  jump\t// in\ntag_108:\n    /* \"#utility.yul\":5596:5635   */\n  tag_109\n    /* \"#utility.yul\":5626:5634   */\n  dup7\n    /* \"#utility.yul\":5615:5624   */\n  dup4\n    /* \"#utility.yul\":5596:5635   */\n  tag_32\n  jump\t// in\ntag_109:\n    /* \"#utility.yul\":5584:5635   */\n  swap6\n  pop\n    /* \"#utility.yul\":5668:5672   */\n  dup1\n    /* \"#utility.yul\":5664:5673   */\n  not\n    /* \"#utility.yul\":5657:5662   */\n  dup5\n    /* \"#utility.yul\":5653:5674   */\n  and\n    /* \"#utility.yul\":5644:5674   */\n  swap4\n  pop\n    /* \"#utility.yul\":5717:5721   */\n  dup1\n    /* \"#utility.yul\":5707:5715   */\n  dup7\n    /* \"#utility.yul\":5703:5722   */\n  and\n    /* \"#utility.yul\":5696:5701   */\n  dup5\n    /* \"#utility.yul\":5693:5723   */\n  or\n    /* \"#utility.yul\":5683:5723   */\n  swap3\n  pop\n    /* \"#utility.yul\":5412:5729   */\n  pop\n  pop\n    /* \"#utility.yul\":5336:5729   */\n  swap4\n  swap3\n  pop\n  pop\n  pop\n  jump\t// out\n    /* \"#utility.yul\":5735:5812   */\ntag_34:\n    /* \"#utility.yul\":5772:5779   */\n  0x00\n    /* \"#utility.yul\":5801:5806   */\n  dup2\n    /* \"#utility.yul\":5790:5806   */\n  swap1\n  pop\n    /* \"#utility.yul\":5735:5812   */\n  swap2\n  swap1\n  pop\n  jump\t// out\n    /* \"#utility.yul\":5818:5878   */\ntag_35:\n    /* \"#utility.yul\":5846:5849   */\n  0x00\n    /* \"#utility.yul\":5867:5872   */\n  dup2\n    /* \"#utility.yul\":5860:5872   */\n  swap1\n  pop\n    /* \"#utility.yul\":5818:5878   */\n  swap2\n  swap1\n  pop\n  jump\t// out\n    /* \"#utility.yul\":5884:6026   */\ntag_36:\n    /* \"#utility.yul\":5934:5943   */\n  0x00\n    /* \"#utility.yul\":5967:6020   */\n  tag_113\n    /* \"#utility.yul\":5985:6019   */\n  tag_114\n    /* \"#utility.yul\":5994:6018   */\n  tag_115\n    /* \"#utility.yul\":6012:6017   */\n  dup5\n    /* \"#utility.yul\":5994:6018   */\n  tag_34\n  jump\t// in\ntag_115:\n    /* \"#utility.yul\":5985:6019   */\n  tag_35\n  jump\t// in\ntag_114:\n    /* \"#utility.yul\":5967:6020   */\n  tag_34\n  jump\t// in\ntag_113:\n    /* \"#utility.yul\":5954:6020   */\n  swap1\n  pop\n    /* \"#utility.yul\":5884:6026   */\n  swap2\n  swap1\n  pop\n  jump\t// out\n    /* \"#utility.yul\":6032:6107   */\ntag_37:\n    /* \"#utility.yul\":6075:6078   */\n  0x00\n    /* \"#utility.yul\":6096:6101   */\n  dup2\n    /* \"#utility.yul\":6089:6101   */\n  swap1\n  pop\n    /* \"#utility.yul\":6032:6107   */\n  swap2\n  swap1\n  pop\n  jump\t// out\n    /* \"#utility.yul\":6113:6382   */\ntag_38:\n    /* \"#utility.yul\":6223:6262   */\n  tag_118\n    /* \"#utility.yul\":6254:6261   */\n  dup4\n    /* \"#utility.yul\":6223:6262   */\n  tag_36\n  jump\t// in\ntag_118:\n    /* \"#utility.yul\":6284:6375   */\n  tag_119\n    /* \"#utility.yul\":6333:6374   */\n  tag_120\n    /* \"#utility.yul\":6357:6373   */\n  dup3\n    /* \"#utility.yul\":6333:6374   */\n  tag_37\n  jump\t// in\ntag_120:\n    /* \"#utility.yul\":6325:6331   */\n  dup5\n    /* \"#utility.yul\":6318:6322   */\n  dup5\n    /* \"#utility.yul\":6312:6323   */\n  sload\n    /* \"#utility.yul\":6284:6375   */\n  tag_33\n  jump\t// in\ntag_119:\n    /* \"#utility.yul\":6278:6282   */\n  dup3\n    /* \"#utility.yul\":6271:6376   */\n  sstore\n    /* \"#utility.yul\":6189:6382   */\n  pop\n    /* \"#utility.yul\":6113:6382   */\n  pop\n  pop\n  pop\n  jump\t// out\n    /* \"#utility.yul\":6388:6461   */\ntag_39:\n    /* \"#utility.yul\":6433:6436   */\n  0x00\n    /* \"#utility.yul\":6388:6461   */\n  swap1\n  jump\t// out\n    /* \"#utility.yul\":6467:6656   */\ntag_40:\n    /* \"#utility.yul\":6544:6576   */\n  tag_123\n  tag_39\n  jump\t// in\ntag_123:\n    /* \"#utility.yul\":6585:6650   */\n  tag_124\n    /* \"#utility.yul\":6643:6649   */\n  dup2\n    /* \"#utility.yul\":6635:6641   */\n  dup5\n    /* \"#utility.yul\":6629:6633   */\n  dup5\n    /* \"#utility.yul\":6585:6650   */\n  tag_38\n  jump\t// in\ntag_124:\n    /* \"#utility.yul\":6520:6656   */\n  pop\n    /* \"#utility.yul\":6467:6656   */\n  pop\n  pop\n  jump\t// out\n    /* \"#utility.yul\":6662:6848   */\ntag_41:\n    /* \"#utility.yul\":6722:6842   */\ntag_126:\n    /* \"#utility.yul\":6739:6742   */\n  dup2\n    /* \"#utility.yul\":6732:6737   */\n  dup2\n    /* \"#utility.yul\":6729:6743   */\n  lt\n    /* \"#utility.yul\":6722:6842   */\n  iszero\n  tag_128\n  jumpi\n    /* \"#utility.yul\":6793:6832   */\n  tag_129\n    /* \"#utility.yul\":6830:6831   */\n  0x00\n    /* \"#utility.yul\":6823:6828   */\n  dup3\n    /* \"#utility.yul\":6793:6832   */\n  tag_40\n  jump\t// in\ntag_129:\n    /* \"#utility.yul\":6766:6767   */\n  0x01\n    /* \"#utility.yul\":6759:6764   */\n  dup2\n    /* \"#utility.yul\":6755:6768   */\n  add\n    /* \"#utility.yul\":6746:6768   */\n  swap1\n  pop\n    /* \"#utility.yul\":6722:6842   */\n  jump(tag_126)\ntag_128:\n    /* \"#utility.yul\":6662:6848   */\n  pop\n  pop\n  jump\t// out\n    /* \"#utility.yul\":6854:7397   */\ntag_42:\n    /* \"#utility.yul\":6955:6957   */\n  0x1f\n    /* \"#utility.yul\":6950:6953   */\n  dup3\n    /* \"#utility.yul\":6947:6958   */\n  gt\n    /* \"#utility.yul\":6944:7390   */\n  iszero\n  tag_131\n  jumpi\n    /* \"#utility.yul\":6989:7027   */\n  tag_132\n    /* \"#utility.yul\":7021:7026   */\n  dup2\n    /* \"#utility.yul\":6989:7027   */\n  tag_30\n  jump\t// in\ntag_132:\n    /* \"#utility.yul\":7073:7102   */\n  tag_133\n    /* \"#utility.yul\":7091:7101   */\n  dup5\n    /* \"#utility.yul\":7073:7102   */\n  tag_31\n  jump\t// in\ntag_133:\n    /* \"#utility.yul\":7063:7071   */\n  dup2\n    /* \"#utility.yul\":7059:7103   */\n  add\n    /* \"#utility.yul\":7256:7258   */\n  0x20\n    /* \"#utility.yul\":7244:7254   */\n  dup6\n    /* \"#utility.yul\":7241:7259   */\n  lt\n    /* \"#utility.yul\":7238:7287   */\n  iszero\n  tag_134\n  jumpi\n    /* \"#utility.yul\":7277:7285   */\n  dup2\n    /* \"#utility.yul\":7262:7285   */\n  swap1\n  pop\n    /* \"#utility.yul\":7238:7287   */\ntag_134:\n    /* \"#utility.yul\":7300:7380   */\n  tag_135\n    /* \"#utility.yul\":7356:7378   */\n  tag_136\n    /* \"#utility.yul\":7374:7377   */\n  dup6\n    /* \"#utility.yul\":7356:7378   */\n  tag_31\n  jump\t// in\ntag_136:\n    /* \"#utility.yul\":7346:7354   */\n  dup4\n    /* \"#utility.yul\":7342:7379   */\n  add\n    /* \"#utility.yul\":7329:7340   */\n  dup3\n    /* \"#utility.yul\":7300:7380   */\n  tag_41\n  jump\t// in\ntag_135:\n    /* \"#utility.yul\":6959:7390   */\n  pop\n  pop\n    /* \"#utility.yul\":6944:7390   */\ntag_131:\n    /* \"#utility.yul\":6854:7397   */\n  pop\n  pop\n  pop\n  jump\t// out\n    /* \"#utility.yul\":7403:7520   */\ntag_43:\n    /* \"#utility.yul\":7457:7465   */\n  0x00\n    /* \"#utility.yul\":7507:7512   */\n  dup3\n    /* \"#utility.yul\":7501:7505   */\n  dup3\n    /* \"#utility.yul\":7497:7513   */\n  shr\n    /* \"#utility.yul\":7476:7513   */\n  swap1\n  pop\n    /* \"#utility.yul\":7403:7520   */\n  swap3\n  swap2\n  pop\n  pop\n  jump\t// out\n    /* \"#utility.yul\":7526:7695   */\ntag_44:\n    /* \"#utility.yul\":7570:7576   */\n  0x00\n    /* \"#utility.yul\":7603:7654   */\n  tag_139\n    /* \"#utility.yul\":7651:7652   */\n  0x00\n    /* \"#utility.yul\":7647:7653   */\n  not\n    /* \"#utility.yul\":7639:7644   */\n  dup5\n    /* \"#utility.yul\":7636:7637   */\n  0x08\n    /* \"#utility.yul\":7632:7645   */\n  mul\n    /* \"#utility.yul\":7603:7654   */\n  tag_43\n  jump\t// in\ntag_139:\n    /* \"#utility.yul\":7599:7655   */\n  not\n    /* \"#utility.yul\":7684:7688   */\n  dup1\n    /* \"#utility.yul\":7678:7682   */\n  dup4\n    /* \"#utility.yul\":7674:7689   */\n  and\n    /* \"#utility.yul\":7664:7689   */\n  swap2\n  pop\n    /* \"#utility.yul\":7577:7695   */\n  pop\n    /* \"#utility.yul\":7526:7695   */\n  swap3\n  swap2\n  pop\n  pop\n  jump\t// out\n    /* \"#utility.yul\":7700:7995   */\ntag_45:\n    /* \"#utility.yul\":7776:7780   */\n  0x00\n    /* \"#utility.yul\":7922:7951   */\n  tag_141\n    /* \"#utility.yul\":7947:7950   */\n  dup4\n    /* \"#utility.yul\":7941:7945   */\n  dup4\n    /* \"#utility.yul\":7922:7951   */\n  tag_44\n  jump\t// in\ntag_141:\n    /* \"#utility.yul\":7914:7951   */\n  swap2\n  pop\n    /* \"#utility.yul\":7984:7987   */\n  dup3\n    /* \"#utility.yul\":7981:7982   */\n  0x02\n    /* \"#utility.yul\":7977:7988   */\n  mul\n    /* \"#utility.yul\":7971:7975   */\n  dup3\n    /* \"#utility.yul\":7968:7989   */\n  or\n    /* \"#utility.yul\":7960:7989   */\n  swap1\n  pop\n    /* \"#utility.yul\":7700:7995   */\n  swap3\n  swap2\n  pop\n  pop\n  jump\t// out\n    /* \"#utility.yul\":8000:9395   */\ntag_7:\n    /* \"#utility.yul\":8117:8154   */\n  tag_143\n    /* \"#utility.yul\":8150:8153   */\n  dup3\n    /* \"#utility.yul\":8117:8154   */\n  tag_27\n  jump\t// in\ntag_143:\n    /* \"#utility.yul\":8219:8237   */\n  0xffffffffffffffff\n    /* \"#utility.yul\":8211:8217   */\n  dup2\n    /* \"#utility.yul\":8208:8238   */\n  gt\n    /* \"#utility.yul\":8205:8261   */\n  iszero\n  tag_144\n  jumpi\n    /* \"#utility.yul\":8241:8259   */\n  tag_145\n  tag_16\n  jump\t// in\ntag_145:\n    /* \"#utility.yul\":8205:8261   */\ntag_144:\n    /* \"#utility.yul\":8285:8323   */\n  tag_146\n    /* \"#utility.yul\":8317:8321   */\n  dup3\n    /* \"#utility.yul\":8311:8322   */\n  sload\n    /* \"#utility.yul\":8285:8323   */\n  tag_29\n  jump\t// in\ntag_146:\n    /* \"#utility.yul\":8370:8437   */\n  tag_147\n    /* \"#utility.yul\":8430:8436   */\n  dup3\n    /* \"#utility.yul\":8422:8428   */\n  dup3\n    /* \"#utility.yul\":8416:8420   */\n  dup6\n    /* \"#utility.yul\":8370:8437   */\n  tag_42\n  jump\t// in\ntag_147:\n    /* \"#utility.yul\":8464:8465   */\n  0x00\n    /* \"#utility.yul\":8488:8492   */\n  0x20\n    /* \"#utility.yul\":8475:8492   */\n  swap1\n  pop\n    /* \"#utility.yul\":8520:8522   */\n  0x1f\n    /* \"#utility.yul\":8512:8518   */\n  dup4\n    /* \"#utility.yul\":8509:8523   */\n  gt\n    /* \"#utility.yul\":8537:8538   */\n  0x01\n    /* \"#utility.yul\":8532:9150   */\n  dup2\n  eq\n  tag_149\n  jumpi\n    /* \"#utility.yul\":9194:9195   */\n  0x00\n    /* \"#utility.yul\":9211:9217   */\n  dup5\n    /* \"#utility.yul\":9208:9285   */\n  iszero\n  tag_150\n  jumpi\n    /* \"#utility.yul\":9260:9269   */\n  dup3\n    /* \"#utility.yul\":9255:9258   */\n  dup8\n    /* \"#utility.yul\":9251:9270   */\n  add\n    /* \"#utility.yul\":9245:9271   */\n  mload\n    /* \"#utility.yul\":9236:9271   */\n  swap1\n  pop\n    /* \"#utility.yul\":9208:9285   */\ntag_150:\n    /* \"#utility.yul\":9311:9378   */\n  tag_151\n    /* \"#utility.yul\":9371:9377   */\n  dup6\n    /* \"#utility.yul\":9364:9369   */\n  dup3\n    /* \"#utility.yul\":9311:9378   */\n  tag_45\n  jump\t// in\ntag_151:\n    /* \"#utility.yul\":9305:9309   */\n  dup7\n    /* \"#utility.yul\":9298:9379   */\n  sstore\n    /* \"#utility.yul\":9167:9389   */\n  pop\n    /* \"#utility.yul\":8502:9389   */\n  jump(tag_148)\n    /* \"#utility.yul\":8532:9150   */\ntag_149:\n    /* \"#utility.yul\":8584:8588   */\n  0x1f\n    /* \"#utility.yul\":8580:8589   */\n  not\n    /* \"#utility.yul\":8572:8578   */\n  dup5\n    /* \"#utility.yul\":8568:8590   */\n  and\n    /* \"#utility.yul\":8618:8655   */\n  tag_152\n    /* \"#utility.yul\":8650:8654   */\n  dup7\n    /* \"#utility.yul\":8618:8655   */\n  tag_30\n  jump\t// in\ntag_152:\n    /* \"#utility.yul\":8677:8678   */\n  0x00\n    /* \"#utility.yul\":8691:8899   */\ntag_153:\n    /* \"#utility.yul\":8705:8712   */\n  dup3\n    /* \"#utility.yul\":8702:8703   */\n  dup2\n    /* \"#utility.yul\":8699:8713   */\n  lt\n    /* \"#utility.yul\":8691:8899   */\n  iszero\n  tag_155\n  jumpi\n    /* \"#utility.yul\":8784:8793   */\n  dup5\n    /* \"#utility.yul\":8779:8782   */\n  dup10\n    /* \"#utility.yul\":8775:8794   */\n  add\n    /* \"#utility.yul\":8769:8795   */\n  mload\n    /* \"#utility.yul\":8761:8767   */\n  dup3\n    /* \"#utility.yul\":8754:8796   */\n  sstore\n    /* \"#utility.yul\":8835:8836   */\n  0x01\n    /* \"#utility.yul\":8827:8833   */\n  dup3\n    /* \"#utility.yul\":8823:8837   */\n  add\n    /* \"#utility.yul\":8813:8837   */\n  swap2\n  pop\n    /* \"#utility.yul\":8882:8884   */\n  0x20\n    /* \"#utility.yul\":8871:8880   */\n  dup6\n    /* \"#utility.yul\":8867:8885   */\n  add\n    /* \"#utility.yul\":8854:8885   */\n  swap5\n  pop\n    /* \"#utility.yul\":8728:8732   */\n  0x20\n    /* \"#utility.yul\":8725:8726   */\n  dup2\n    /* \"#utility.yul\":8721:8733   */\n  add\n    /* \"#utility.yul\":8716:8733   */\n  swap1\n  pop\n    /* \"#utility.yul\":8691:8899   */\n  jump(tag_153)\ntag_155:\n    /* \"#utility.yul\":8927:8933   */\n  dup7\n    /* \"#utility.yul\":8918:8925   */\n  dup4\n    /* \"#utility.yul\":8915:8934   */\n  lt\n    /* \"#utility.yul\":8912:9091   */\n  iszero\n  tag_156\n  jumpi\n    /* \"#utility.yul\":8985:8994   */\n  dup5\n    /* \"#utility.yul\":8980:8983   */\n  dup10\n    /* \"#utility.yul\":8976:8995   */\n  add\n    /* \"#utility.yul\":8970:8996   */\n  mload\n    /* \"#utility.yul\":9028:9076   */\n  tag_157\n    /* \"#utility.yul\":9070:9074   */\n  0x1f\n    /* \"#utility.yul\":9062:9068   */\n  dup10\n    /* \"#utility.yul\":9058:9075   */\n  and\n    /* \"#utility.yul\":9047:9056   */\n  dup3\n    /* \"#utility.yul\":9028:9076   */\n  tag_44\n  jump\t// in\ntag_157:\n    /* \"#utility.yul\":9020:9026   */\n  dup4\n    /* \"#utility.yul\":9013:9077   */\n  sstore\n    /* \"#utility.yul\":8935:9091   */\n  pop\n    /* \"#utility.yul\":8912:9091   */\ntag_156:\n    /* \"#utility.yul\":9137:9138   */\n  0x01\n    /* \"#utility.yul\":9133:9134   */\n  0x02\n    /* \"#utility.yul\":9125:9131   */\n  dup9\n    /* \"#utility.yul\":9121:9135   */\n  mul\n    /* \"#utility.yul\":9117:9139   */\n  add\n    /* \"#utility.yul\":9111:9115   */\n  dup9\n    /* \"#utility.yul\":9104:9140   */\n  sstore\n    /* \"#utility.yul\":8539:9150   */\n  pop\n  pop\n  pop\n    /* \"#utility.yul\":8502:9389   */\ntag_148:\n  pop\n    /* \"#utility.yul\":8092:9395   */\n  pop\n  pop\n  pop\n    /* \"#utility.yul\":8000:9395   */\n  pop\n  pop\n  jump\t// out\n    /* \"contracts/cover/CoverNFT.sol\":257:4725  contract CoverNFT is ICoverNFT {... */\ntag_9:\n  dataSize(sub_0)\n  dup1\n  dataOffset(sub_0)\n  0x00\n  codecopy\n  0x00\n  return\nstop\n\nsub_0: assembly {\n        /* \"contracts/cover/CoverNFT.sol\":257:4725  contract CoverNFT is ICoverNFT {... */\n      mstore(0x40, 0x80)\n      callvalue\n      dup1\n      iszero\n      tag_1\n      jumpi\n      0x00\n      dup1\n      revert\n    tag_1:\n      pop\n      jumpi(tag_2, lt(calldatasize, 0x04))\n      shr(0xe0, calldataload(0x00))\n      dup1\n      0x570ca735\n      gt\n      tag_23\n      jumpi\n      dup1\n      0x9d8168eb\n      gt\n      tag_24\n      jumpi\n      dup1\n      0x9d8168eb\n      eq\n      tag_18\n      jumpi\n      dup1\n      0xa22cb465\n      eq\n      tag_19\n      jumpi\n      dup1\n      0xb88d4fde\n      eq\n      tag_20\n      jumpi\n      dup1\n      0xc87b56dd\n      eq\n      tag_21\n      jumpi\n      dup1\n      0xe985e9c5\n      eq\n      tag_22\n      jumpi\n      jump(tag_2)\n    tag_24:\n      dup1\n      0x570ca735\n      eq\n      tag_13\n      jumpi\n      dup1\n      0x6352211e\n      eq\n      tag_14\n      jumpi\n      dup1\n      0x6a627842\n      eq\n      tag_15\n      jumpi\n      dup1\n      0x70a08231\n      eq\n      tag_16\n      jumpi\n      dup1\n      0x95d89b41\n      eq\n      tag_17\n      jumpi\n      jump(tag_2)\n    tag_23:\n      dup1\n      0x18160ddd\n      gt\n      tag_25\n      jumpi\n      dup1\n      0x18160ddd\n      eq\n      tag_8\n      jumpi\n      dup1\n      0x23b872dd\n      eq\n      tag_9\n      jumpi\n      dup1\n      0x42842e0e\n      eq\n      tag_10\n      jumpi\n      dup1\n      0x430c2081\n      eq\n      tag_11\n      jumpi\n      dup1\n      0x44267570\n      eq\n      tag_12\n      jumpi\n      jump(tag_2)\n    tag_25:\n      dup1\n      0x01ffc9a7\n      eq\n      tag_3\n      jumpi\n      dup1\n      0x06394c9b\n      eq\n      tag_4\n      jumpi\n      dup1\n      0x06fdde03\n      eq\n      tag_5\n      jumpi\n      dup1\n      0x081812fc\n      eq\n      tag_6\n      jumpi\n      dup1\n      0x095ea7b3\n      eq\n      tag_7\n      jumpi\n    tag_2:\n      0x00\n      dup1\n      revert\n        /* \"contracts/cover/CoverNFT.sol\":1814:2117  function supportsInterface(bytes4 interfaceId) public pure returns (bool) {... */\n    tag_3:\n      tag_26\n      0x04\n      dup1\n      calldatasize\n      sub\n      dup2\n      add\n      swap1\n      tag_27\n      swap2\n      swap1\n      tag_28\n      jump\t// in\n    tag_27:\n      tag_29\n      jump\t// in\n    tag_26:\n      mload(0x40)\n      tag_30\n      swap2\n      swap1\n      tag_31\n      jump\t// in\n    tag_30:\n      mload(0x40)\n      dup1\n      swap2\n      sub\n      swap1\n      return\n        /* \"contracts/cover/CoverNFT.sol\":993:1165  function changeOperator(address _newOperator) public onlyOperator {... */\n    tag_4:\n      tag_32\n      0x04\n      dup1\n      calldatasize\n      sub\n      dup2\n      add\n      swap1\n      tag_33\n      swap2\n      swap1\n      tag_34\n      jump\t// in\n    tag_33:\n      tag_35\n      jump\t// in\n    tag_32:\n      stop\n        /* \"contracts/cover/CoverNFT.sol\":293:311  string public name */\n    tag_5:\n      tag_36\n      tag_37\n      jump\t// in\n    tag_36:\n      mload(0x40)\n      tag_38\n      swap2\n      swap1\n      tag_39\n      jump\t// in\n    tag_38:\n      mload(0x40)\n      dup1\n      swap2\n      sub\n      swap1\n      return\n        /* \"contracts/cover/CoverNFT.sol\":434:477  mapping(uint => address) public getApproved */\n    tag_6:\n      tag_40\n      0x04\n      dup1\n      calldatasize\n      sub\n      dup2\n      add\n      swap1\n      tag_41\n      swap2\n      swap1\n      tag_42\n      jump\t// in\n    tag_41:\n      tag_43\n      jump\t// in\n    tag_40:\n      mload(0x40)\n      tag_44\n      swap2\n      swap1\n      tag_45\n      jump\t// in\n    tag_44:\n      mload(0x40)\n      dup1\n      swap2\n      sub\n      swap1\n      return\n        /* \"contracts/cover/CoverNFT.sol\":2620:2872  function approve(address spender, uint id) public {... */\n    tag_7:\n      tag_46\n      0x04\n      dup1\n      calldatasize\n      sub\n      dup2\n      add\n      swap1\n      tag_47\n      swap2\n      swap1\n      tag_48\n      jump\t// in\n    tag_47:\n      tag_49\n      jump\t// in\n    tag_46:\n      stop\n        /* \"contracts/cover/CoverNFT.sol\":1717:1797  function totalSupply() public view returns (uint) {... */\n    tag_8:\n      tag_50\n      tag_51\n      jump\t// in\n    tag_50:\n      mload(0x40)\n      tag_52\n      swap2\n      swap1\n      tag_53\n      jump\t// in\n    tag_52:\n      mload(0x40)\n      dup1\n      swap2\n      sub\n      swap1\n      return\n        /* \"contracts/cover/CoverNFT.sol\":3460:4086  function transferFrom(address from, address to, uint id) public {... */\n    tag_9:\n      tag_54\n      0x04\n      dup1\n      calldatasize\n      sub\n      dup2\n      add\n      swap1\n      tag_55\n      swap2\n      swap1\n      tag_56\n      jump\t// in\n    tag_55:\n      tag_57\n      jump\t// in\n    tag_54:\n      stop\n        /* \"contracts/cover/CoverNFT.sol\":4090:4383  function safeTransferFrom(address from, address to, uint id) public {... */\n    tag_10:\n      tag_58\n      0x04\n      dup1\n      calldatasize\n      sub\n      dup2\n      add\n      swap1\n      tag_59\n      swap2\n      swap1\n      tag_56\n      jump\t// in\n    tag_59:\n      tag_60\n      jump\t// in\n    tag_58:\n      stop\n        /* \"contracts/cover/CoverNFT.sol\":3226:3456  function isApprovedOrOwner(address spender, uint tokenId) external view returns (bool) {... */\n    tag_11:\n      tag_61\n      0x04\n      dup1\n      calldatasize\n      sub\n      dup2\n      add\n      swap1\n      tag_62\n      swap2\n      swap1\n      tag_48\n      jump\t// in\n    tag_62:\n      tag_63\n      jump\t// in\n    tag_61:\n      mload(0x40)\n      tag_64\n      swap2\n      swap1\n      tag_31\n      jump\t// in\n    tag_64:\n      mload(0x40)\n      dup1\n      swap2\n      sub\n      swap1\n      return\n        /* \"contracts/cover/CoverNFT.sol\":613:641  address public nftDescriptor */\n    tag_12:\n      tag_65\n      tag_66\n      jump\t// in\n    tag_65:\n      mload(0x40)\n      tag_67\n      swap2\n      swap1\n      tag_45\n      jump\t// in\n    tag_67:\n      mload(0x40)\n      dup1\n      swap2\n      sub\n      swap1\n      return\n        /* \"contracts/cover/CoverNFT.sol\":586:609  address public operator */\n    tag_13:\n      tag_68\n      tag_69\n      jump\t// in\n    tag_68:\n      mload(0x40)\n      tag_70\n      swap2\n      swap1\n      tag_45\n      jump\t// in\n    tag_70:\n      mload(0x40)\n      dup1\n      swap2\n      sub\n      swap1\n      return\n        /* \"contracts/cover/CoverNFT.sol\":2334:2467  function ownerOf(uint id) public view returns (address owner) {... */\n    tag_14:\n      tag_71\n      0x04\n      dup1\n      calldatasize\n      sub\n      dup2\n      add\n      swap1\n      tag_72\n      swap2\n      swap1\n      tag_42\n      jump\t// in\n    tag_72:\n      tag_73\n      jump\t// in\n    tag_71:\n      mload(0x40)\n      tag_74\n      swap2\n      swap1\n      tag_45\n      jump\t// in\n    tag_74:\n      mload(0x40)\n      dup1\n      swap2\n      sub\n      swap1\n      return\n        /* \"contracts/cover/CoverNFT.sol\":1400:1713  function mint(address to) external onlyOperator returns (uint id) {... */\n    tag_15:\n      tag_75\n      0x04\n      dup1\n      calldatasize\n      sub\n      dup2\n      add\n      swap1\n      tag_76\n      swap2\n      swap1\n      tag_34\n      jump\t// in\n    tag_76:\n      tag_77\n      jump\t// in\n    tag_75:\n      mload(0x40)\n      tag_78\n      swap2\n      swap1\n      tag_53\n      jump\t// in\n    tag_78:\n      mload(0x40)\n      dup1\n      swap2\n      sub\n      swap1\n      return\n        /* \"contracts/cover/CoverNFT.sol\":2471:2616  function balanceOf(address owner) public view returns (uint) {... */\n    tag_16:\n      tag_79\n      0x04\n      dup1\n      calldatasize\n      sub\n      dup2\n      add\n      swap1\n      tag_80\n      swap2\n      swap1\n      tag_34\n      jump\t// in\n    tag_80:\n      tag_81\n      jump\t// in\n    tag_79:\n      mload(0x40)\n      tag_82\n      swap2\n      swap1\n      tag_53\n      jump\t// in\n    tag_82:\n      mload(0x40)\n      dup1\n      swap2\n      sub\n      swap1\n      return\n        /* \"contracts/cover/CoverNFT.sol\":315:335  string public symbol */\n    tag_17:\n      tag_83\n      tag_84\n      jump\t// in\n    tag_83:\n      mload(0x40)\n      tag_85\n      swap2\n      swap1\n      tag_39\n      jump\t// in\n    tag_85:\n      mload(0x40)\n      dup1\n      swap2\n      sub\n      swap1\n      return\n        /* \"contracts/cover/CoverNFT.sol\":1169:1371  function changeNFTDescriptor(address _newNFTDescriptor) public onlyOperator {... */\n    tag_18:\n      tag_86\n      0x04\n      dup1\n      calldatasize\n      sub\n      dup2\n      add\n      swap1\n      tag_87\n      swap2\n      swap1\n      tag_34\n      jump\t// in\n    tag_87:\n      tag_88\n      jump\t// in\n    tag_86:\n      stop\n        /* \"contracts/cover/CoverNFT.sol\":2876:3057  function setApprovalForAll(address spender, bool approved) public {... */\n    tag_19:\n      tag_89\n      0x04\n      dup1\n      calldatasize\n      sub\n      dup2\n      add\n      swap1\n      tag_90\n      swap2\n      swap1\n      tag_91\n      jump\t// in\n    tag_90:\n      tag_92\n      jump\t// in\n    tag_89:\n      stop\n        /* \"contracts/cover/CoverNFT.sol\":4387:4723  function safeTransferFrom(... */\n    tag_20:\n      tag_93\n      0x04\n      dup1\n      calldatasize\n      sub\n      dup2\n      add\n      swap1\n      tag_94\n      swap2\n      swap1\n      tag_95\n      jump\t// in\n    tag_94:\n      tag_96\n      jump\t// in\n    tag_93:\n      stop\n        /* \"contracts/cover/CoverNFT.sol\":2134:2330  function tokenURI(uint id) public view virtual returns (string memory uri) {... */\n    tag_21:\n      tag_97\n      0x04\n      dup1\n      calldatasize\n      sub\n      dup2\n      add\n      swap1\n      tag_98\n      swap2\n      swap1\n      tag_42\n      jump\t// in\n    tag_98:\n      tag_99\n      jump\t// in\n    tag_97:\n      mload(0x40)\n      tag_100\n      swap2\n      swap1\n      tag_39\n      jump\t// in\n    tag_100:\n      mload(0x40)\n      dup1\n      swap2\n      sub\n      swap1\n      return\n        /* \"contracts/cover/CoverNFT.sol\":481:549  mapping(address => mapping(address => bool)) public isApprovedForAll */\n    tag_22:\n      tag_101\n      0x04\n      dup1\n      calldatasize\n      sub\n      dup2\n      add\n      swap1\n      tag_102\n      swap2\n      swap1\n      tag_103\n      jump\t// in\n    tag_102:\n      tag_104\n      jump\t// in\n    tag_101:\n      mload(0x40)\n      tag_105\n      swap2\n      swap1\n      tag_31\n      jump\t// in\n    tag_105:\n      mload(0x40)\n      dup1\n      swap2\n      sub\n      swap1\n      return\n        /* \"contracts/cover/CoverNFT.sol\":1814:2117  function supportsInterface(bytes4 interfaceId) public pure returns (bool) {... */\n    tag_29:\n        /* \"contracts/cover/CoverNFT.sol\":1882:1886  bool */\n      0x00\n        /* \"contracts/cover/CoverNFT.sol\":1922:1932  0x01ffc9a7 */\n      0x01ffc9a7\n        /* \"contracts/cover/CoverNFT.sol\":1907:1932  interfaceId == 0x01ffc9a7 */\n      0xe0\n      shl\n        /* \"contracts/cover/CoverNFT.sol\":1907:1918  interfaceId */\n      dup3\n        /* \"contracts/cover/CoverNFT.sol\":1907:1932  interfaceId == 0x01ffc9a7 */\n      not(0xffffffffffffffffffffffffffffffffffffffffffffffffffffffff)\n      and\n      eq\n        /* \"contracts/cover/CoverNFT.sol\":1907:2001  interfaceId == 0x01ffc9a7 || // ERC165 Interface ID for ERC165... */\n      dup1\n      tag_107\n      jumpi\n      pop\n        /* \"contracts/cover/CoverNFT.sol\":1991:2001  0x80ac58cd */\n      0x80ac58cd\n        /* \"contracts/cover/CoverNFT.sol\":1976:2001  interfaceId == 0x80ac58cd */\n      0xe0\n      shl\n        /* \"contracts/cover/CoverNFT.sol\":1976:1987  interfaceId */\n      dup3\n        /* \"contracts/cover/CoverNFT.sol\":1976:2001  interfaceId == 0x80ac58cd */\n      not(0xffffffffffffffffffffffffffffffffffffffffffffffffffffffff)\n      and\n      eq\n        /* \"contracts/cover/CoverNFT.sol\":1907:2001  interfaceId == 0x01ffc9a7 || // ERC165 Interface ID for ERC165... */\n    tag_107:\n        /* \"contracts/cover/CoverNFT.sol\":1907:2070  interfaceId == 0x01ffc9a7 || // ERC165 Interface ID for ERC165... */\n      dup1\n      tag_108\n      jumpi\n      pop\n        /* \"contracts/cover/CoverNFT.sol\":2060:2070  0x5b5e139f */\n      0x5b5e139f\n        /* \"contracts/cover/CoverNFT.sol\":2045:2070  interfaceId == 0x5b5e139f */\n      0xe0\n      shl\n        /* \"contracts/cover/CoverNFT.sol\":2045:2056  interfaceId */\n      dup3\n        /* \"contracts/cover/CoverNFT.sol\":2045:2070  interfaceId == 0x5b5e139f */\n      not(0xffffffffffffffffffffffffffffffffffffffffffffffffffffffff)\n      and\n      eq\n        /* \"contracts/cover/CoverNFT.sol\":1907:2070  interfaceId == 0x01ffc9a7 || // ERC165 Interface ID for ERC165... */\n    tag_108:\n        /* \"contracts/cover/CoverNFT.sol\":1894:2070  return... */\n      swap1\n      pop\n        /* \"contracts/cover/CoverNFT.sol\":1814:2117  function supportsInterface(bytes4 interfaceId) public pure returns (bool) {... */\n      swap2\n      swap1\n      pop\n      jump\t// out\n        /* \"contracts/cover/CoverNFT.sol\":993:1165  function changeOperator(address _newOperator) public onlyOperator {... */\n    tag_35:\n        /* \"contracts/cover/CoverNFT.sol\":692:700  operator */\n      0x06\n      0x0c\n      swap1\n      sload\n      swap1\n      0x0100\n      exp\n      swap1\n      div\n      0xffffffffffffffffffffffffffffffffffffffff\n      and\n        /* \"contracts/cover/CoverNFT.sol\":678:700  msg.sender != operator */\n      0xffffffffffffffffffffffffffffffffffffffff\n      and\n        /* \"contracts/cover/CoverNFT.sol\":678:688  msg.sender */\n      caller\n        /* \"contracts/cover/CoverNFT.sol\":678:700  msg.sender != operator */\n      0xffffffffffffffffffffffffffffffffffffffff\n      and\n      eq\n        /* \"contracts/cover/CoverNFT.sol\":674:722  if (msg.sender != operator) revert NotOperator() */\n      tag_110\n      jumpi\n        /* \"contracts/cover/CoverNFT.sol\":709:722  NotOperator() */\n      mload(0x40)\n      0x7c214f0400000000000000000000000000000000000000000000000000000000\n      dup2\n      mstore\n      0x04\n      add\n      mload(0x40)\n      dup1\n      swap2\n      sub\n      swap1\n      revert\n        /* \"contracts/cover/CoverNFT.sol\":674:722  if (msg.sender != operator) revert NotOperator() */\n    tag_110:\n        /* \"contracts/cover/CoverNFT.sol\":1093:1094  0 */\n      0x00\n        /* \"contracts/cover/CoverNFT.sol\":1069:1095  _newOperator == address(0) */\n      0xffffffffffffffffffffffffffffffffffffffff\n      and\n        /* \"contracts/cover/CoverNFT.sol\":1069:1081  _newOperator */\n      dup2\n        /* \"contracts/cover/CoverNFT.sol\":1069:1095  _newOperator == address(0) */\n      0xffffffffffffffffffffffffffffffffffffffff\n      and\n      sub\n        /* \"contracts/cover/CoverNFT.sol\":1065:1131  if (_newOperator == address(0)) revert InvalidNewOperatorAddress() */\n      tag_112\n      jumpi\n        /* \"contracts/cover/CoverNFT.sol\":1104:1131  InvalidNewOperatorAddress() */\n      mload(0x40)\n      0x0ae7cb0400000000000000000000000000000000000000000000000000000000\n      dup2\n      mstore\n      0x04\n      add\n      mload(0x40)\n      dup1\n      swap2\n      sub\n      swap1\n      revert\n        /* \"contracts/cover/CoverNFT.sol\":1065:1131  if (_newOperator == address(0)) revert InvalidNewOperatorAddress() */\n    tag_112:\n        /* \"contracts/cover/CoverNFT.sol\":1148:1160  _newOperator */\n      dup1\n        /* \"contracts/cover/CoverNFT.sol\":1137:1145  operator */\n      0x06\n      0x0c\n        /* \"contracts/cover/CoverNFT.sol\":1137:1160  operator = _newOperator */\n      0x0100\n      exp\n      dup2\n      sload\n      dup2\n      0xffffffffffffffffffffffffffffffffffffffff\n      mul\n      not\n      and\n      swap1\n      dup4\n      0xffffffffffffffffffffffffffffffffffffffff\n      and\n      mul\n      or\n      swap1\n      sstore\n      pop\n        /* \"contracts/cover/CoverNFT.sol\":993:1165  function changeOperator(address _newOperator) public onlyOperator {... */\n      pop\n      jump\t// out\n        /* \"contracts/cover/CoverNFT.sol\":293:311  string public name */\n    tag_37:\n      0x00\n      dup1\n      sload\n      tag_113\n      swap1\n      tag_114\n      jump\t// in\n    tag_113:\n      dup1\n      0x1f\n      add\n      0x20\n      dup1\n      swap2\n      div\n      mul\n      0x20\n      add\n      mload(0x40)\n      swap1\n      dup2\n      add\n      0x40\n      mstore\n      dup1\n      swap3\n      swap2\n      swap1\n      dup2\n      dup2\n      mstore\n      0x20\n      add\n      dup3\n      dup1\n      sload\n      tag_115\n      swap1\n      tag_114\n      jump\t// in\n    tag_115:\n      dup1\n      iszero\n      tag_116\n      jumpi\n      dup1\n      0x1f\n      lt\n      tag_117\n      jumpi\n      0x0100\n      dup1\n      dup4\n      sload\n      div\n      mul\n      dup4\n      mstore\n      swap2\n      0x20\n      add\n      swap2\n      jump(tag_116)\n    tag_117:\n      dup3\n      add\n      swap2\n      swap1\n      0x00\n      mstore\n      keccak256(0x00, 0x20)\n      swap1\n    tag_118:\n      dup2\n      sload\n      dup2\n      mstore\n      swap1\n      0x01\n      add\n      swap1\n      0x20\n      add\n      dup1\n      dup4\n      gt\n      tag_118\n      jumpi\n      dup3\n      swap1\n      sub\n      0x1f\n      and\n      dup3\n      add\n      swap2\n    tag_116:\n      pop\n      pop\n      pop\n      pop\n      pop\n      dup2\n      jump\t// out\n        /* \"contracts/cover/CoverNFT.sol\":434:477  mapping(uint => address) public getApproved */\n    tag_43:\n      mstore(0x20, 0x04)\n      dup1\n      0x00\n      mstore\n      keccak256(0x00, 0x40)\n      0x00\n      swap2\n      pop\n      sload\n      swap1\n      0x0100\n      exp\n      swap1\n      div\n      0xffffffffffffffffffffffffffffffffffffffff\n      and\n      dup2\n      jump\t// out\n        /* \"contracts/cover/CoverNFT.sol\":2620:2872  function approve(address spender, uint id) public {... */\n    tag_49:\n        /* \"contracts/cover/CoverNFT.sol\":2676:2689  address owner */\n      0x00\n        /* \"contracts/cover/CoverNFT.sol\":2692:2700  _ownerOf */\n      0x02\n        /* \"contracts/cover/CoverNFT.sol\":2692:2704  _ownerOf[id] */\n      0x00\n        /* \"contracts/cover/CoverNFT.sol\":2701:2703  id */\n      dup4\n        /* \"contracts/cover/CoverNFT.sol\":2692:2704  _ownerOf[id] */\n      dup2\n      mstore\n      0x20\n      add\n      swap1\n      dup2\n      mstore\n      0x20\n      add\n      0x00\n      keccak256\n      0x00\n      swap1\n      sload\n      swap1\n      0x0100\n      exp\n      swap1\n      div\n      0xffffffffffffffffffffffffffffffffffffffff\n      and\n        /* \"contracts/cover/CoverNFT.sol\":2676:2704  address owner = _ownerOf[id] */\n      swap1\n      pop\n        /* \"contracts/cover/CoverNFT.sol\":2728:2733  owner */\n      dup1\n        /* \"contracts/cover/CoverNFT.sol\":2714:2733  msg.sender != owner */\n      0xffffffffffffffffffffffffffffffffffffffff\n      and\n        /* \"contracts/cover/CoverNFT.sol\":2714:2724  msg.sender */\n      caller\n        /* \"contracts/cover/CoverNFT.sol\":2714:2733  msg.sender != owner */\n      0xffffffffffffffffffffffffffffffffffffffff\n      and\n      eq\n      iszero\n        /* \"contracts/cover/CoverNFT.sol\":2714:2773  msg.sender != owner && !isApprovedForAll[owner][msg.sender] */\n      dup1\n      iszero\n      tag_120\n      jumpi\n      pop\n        /* \"contracts/cover/CoverNFT.sol\":2738:2754  isApprovedForAll */\n      0x05\n        /* \"contracts/cover/CoverNFT.sol\":2738:2761  isApprovedForAll[owner] */\n      0x00\n        /* \"contracts/cover/CoverNFT.sol\":2755:2760  owner */\n      dup3\n        /* \"contracts/cover/CoverNFT.sol\":2738:2761  isApprovedForAll[owner] */\n      0xffffffffffffffffffffffffffffffffffffffff\n      and\n      0xffffffffffffffffffffffffffffffffffffffff\n      and\n      dup2\n      mstore\n      0x20\n      add\n      swap1\n      dup2\n      mstore\n      0x20\n      add\n      0x00\n      keccak256\n        /* \"contracts/cover/CoverNFT.sol\":2738:2773  isApprovedForAll[owner][msg.sender] */\n      0x00\n        /* \"contracts/cover/CoverNFT.sol\":2762:2772  msg.sender */\n      caller\n        /* \"contracts/cover/CoverNFT.sol\":2738:2773  isApprovedForAll[owner][msg.sender] */\n      0xffffffffffffffffffffffffffffffffffffffff\n      and\n      0xffffffffffffffffffffffffffffffffffffffff\n      and\n      dup2\n      mstore\n      0x20\n      add\n      swap1\n      dup2\n      mstore\n      0x20\n      add\n      0x00\n      keccak256\n      0x00\n      swap1\n      sload\n      swap1\n      0x0100\n      exp\n      swap1\n      div\n      0xff\n      and\n        /* \"contracts/cover/CoverNFT.sol\":2737:2773  !isApprovedForAll[owner][msg.sender] */\n      iszero\n        /* \"contracts/cover/CoverNFT.sol\":2714:2773  msg.sender != owner && !isApprovedForAll[owner][msg.sender] */\n    tag_120:\n        /* \"contracts/cover/CoverNFT.sol\":2710:2797  if (msg.sender != owner && !isApprovedForAll[owner][msg.sender]) revert NotAuthorized() */\n      iszero\n      tag_121\n      jumpi\n        /* \"contracts/cover/CoverNFT.sol\":2782:2797  NotAuthorized() */\n      mload(0x40)\n      0xea8e4eb500000000000000000000000000000000000000000000000000000000\n      dup2\n      mstore\n      0x04\n      add\n      mload(0x40)\n      dup1\n      swap2\n      sub\n      swap1\n      revert\n        /* \"contracts/cover/CoverNFT.sol\":2710:2797  if (msg.sender != owner && !isApprovedForAll[owner][msg.sender]) revert NotAuthorized() */\n    tag_121:\n        /* \"contracts/cover/CoverNFT.sol\":2821:2828  spender */\n      dup3\n        /* \"contracts/cover/CoverNFT.sol\":2803:2814  getApproved */\n      0x04\n        /* \"contracts/cover/CoverNFT.sol\":2803:2818  getApproved[id] */\n      0x00\n        /* \"contracts/cover/CoverNFT.sol\":2815:2817  id */\n      dup5\n        /* \"contracts/cover/CoverNFT.sol\":2803:2818  getApproved[id] */\n      dup2\n      mstore\n      0x20\n      add\n      swap1\n      dup2\n      mstore\n      0x20\n      add\n      0x00\n      keccak256\n      0x00\n        /* \"contracts/cover/CoverNFT.sol\":2803:2828  getApproved[id] = spender */\n      0x0100\n      exp\n      dup2\n      sload\n      dup2\n      0xffffffffffffffffffffffffffffffffffffffff\n      mul\n      not\n      and\n      swap1\n      dup4\n      0xffffffffffffffffffffffffffffffffffffffff\n      and\n      mul\n      or\n      swap1\n      sstore\n      pop\n        /* \"contracts/cover/CoverNFT.sol\":2864:2866  id */\n      dup2\n        /* \"contracts/cover/CoverNFT.sol\":2855:2862  spender */\n      dup4\n        /* \"contracts/cover/CoverNFT.sol\":2839:2867  Approval(owner, spender, id) */\n      0xffffffffffffffffffffffffffffffffffffffff\n      and\n        /* \"contracts/cover/CoverNFT.sol\":2848:2853  owner */\n      dup3\n        /* \"contracts/cover/CoverNFT.sol\":2839:2867  Approval(owner, spender, id) */\n      0xffffffffffffffffffffffffffffffffffffffff\n      and\n      0x8c5be1e5ebec7d5bd14f71427d1e84f3dd0314c0f7b2291e5b200ac8c7c3b925\n      mload(0x40)\n      mload(0x40)\n      dup1\n      swap2\n      sub\n      swap1\n      log4\n        /* \"contracts/cover/CoverNFT.sol\":2670:2872  {... */\n      pop\n        /* \"contracts/cover/CoverNFT.sol\":2620:2872  function approve(address spender, uint id) public {... */\n      pop\n      pop\n      jump\t// out\n        /* \"contracts/cover/CoverNFT.sol\":1717:1797  function totalSupply() public view returns (uint) {... */\n    tag_51:\n        /* \"contracts/cover/CoverNFT.sol\":1761:1765  uint */\n      0x00\n        /* \"contracts/cover/CoverNFT.sol\":1780:1792  _totalSupply */\n      0x06\n      0x00\n      swap1\n      sload\n      swap1\n      0x0100\n      exp\n      swap1\n      div\n      0xffffffffffffffffffffffff\n      and\n        /* \"contracts/cover/CoverNFT.sol\":1773:1792  return _totalSupply */\n      0xffffffffffffffffffffffff\n      and\n      swap1\n      pop\n        /* \"contracts/cover/CoverNFT.sol\":1717:1797  function totalSupply() public view returns (uint) {... */\n      swap1\n      jump\t// out\n        /* \"contracts/cover/CoverNFT.sol\":3460:4086  function transferFrom(address from, address to, uint id) public {... */\n    tag_57:\n        /* \"contracts/cover/CoverNFT.sol\":3542:3550  _ownerOf */\n      0x02\n        /* \"contracts/cover/CoverNFT.sol\":3542:3554  _ownerOf[id] */\n      0x00\n        /* \"contracts/cover/CoverNFT.sol\":3551:3553  id */\n      dup3\n        /* \"contracts/cover/CoverNFT.sol\":3542:3554  _ownerOf[id] */\n      dup2\n      mstore\n      0x20\n      add\n      swap1\n      dup2\n      mstore\n      0x20\n      add\n      0x00\n      keccak256\n      0x00\n      swap1\n      sload\n      swap1\n      0x0100\n      exp\n      swap1\n      div\n      0xffffffffffffffffffffffffffffffffffffffff\n      and\n        /* \"contracts/cover/CoverNFT.sol\":3534:3554  from != _ownerOf[id] */\n      0xffffffffffffffffffffffffffffffffffffffff\n      and\n        /* \"contracts/cover/CoverNFT.sol\":3534:3538  from */\n      dup4\n        /* \"contracts/cover/CoverNFT.sol\":3534:3554  from != _ownerOf[id] */\n      0xffffffffffffffffffffffffffffffffffffffff\n      and\n      eq\n        /* \"contracts/cover/CoverNFT.sol\":3530:3574  if (from != _ownerOf[id]) revert WrongFrom() */\n      tag_124\n      jumpi\n        /* \"contracts/cover/CoverNFT.sol\":3563:3574  WrongFrom() */\n      mload(0x40)\n      0xc6de3f2500000000000000000000000000000000000000000000000000000000\n      dup2\n      mstore\n      0x04\n      add\n      mload(0x40)\n      dup1\n      swap2\n      sub\n      swap1\n      revert\n        /* \"contracts/cover/CoverNFT.sol\":3530:3574  if (from != _ownerOf[id]) revert WrongFrom() */\n    tag_124:\n        /* \"contracts/cover/CoverNFT.sol\":3598:3599  0 */\n      0x00\n        /* \"contracts/cover/CoverNFT.sol\":3584:3600  to == address(0) */\n      0xffffffffffffffffffffffffffffffffffffffff\n      and\n        /* \"contracts/cover/CoverNFT.sol\":3584:3586  to */\n      dup3\n        /* \"contracts/cover/CoverNFT.sol\":3584:3600  to == address(0) */\n      0xffffffffffffffffffffffffffffffffffffffff\n      and\n      sub\n        /* \"contracts/cover/CoverNFT.sol\":3580:3627  if (to == address(0)) revert InvalidRecipient() */\n      tag_125\n      jumpi\n        /* \"contracts/cover/CoverNFT.sol\":3609:3627  InvalidRecipient() */\n      mload(0x40)\n      0x9c8d2cd200000000000000000000000000000000000000000000000000000000\n      dup2\n      mstore\n      0x04\n      add\n      mload(0x40)\n      dup1\n      swap2\n      sub\n      swap1\n      revert\n        /* \"contracts/cover/CoverNFT.sol\":3580:3627  if (to == address(0)) revert InvalidRecipient() */\n    tag_125:\n        /* \"contracts/cover/CoverNFT.sol\":3652:3656  from */\n      dup3\n        /* \"contracts/cover/CoverNFT.sol\":3638:3656  msg.sender != from */\n      0xffffffffffffffffffffffffffffffffffffffff\n      and\n        /* \"contracts/cover/CoverNFT.sol\":3638:3648  msg.sender */\n      caller\n        /* \"contracts/cover/CoverNFT.sol\":3638:3656  msg.sender != from */\n      0xffffffffffffffffffffffffffffffffffffffff\n      and\n      eq\n      iszero\n        /* \"contracts/cover/CoverNFT.sol\":3638:3695  msg.sender != from && !isApprovedForAll[from][msg.sender] */\n      dup1\n      iszero\n      tag_126\n      jumpi\n      pop\n        /* \"contracts/cover/CoverNFT.sol\":3661:3677  isApprovedForAll */\n      0x05\n        /* \"contracts/cover/CoverNFT.sol\":3661:3683  isApprovedForAll[from] */\n      0x00\n        /* \"contracts/cover/CoverNFT.sol\":3678:3682  from */\n      dup5\n        /* \"contracts/cover/CoverNFT.sol\":3661:3683  isApprovedForAll[from] */\n      0xffffffffffffffffffffffffffffffffffffffff\n      and\n      0xffffffffffffffffffffffffffffffffffffffff\n      and\n      dup2\n      mstore\n      0x20\n      add\n      swap1\n      dup2\n      mstore\n      0x20\n      add\n      0x00\n      keccak256\n        /* \"contracts/cover/CoverNFT.sol\":3661:3695  isApprovedForAll[from][msg.sender] */\n      0x00\n        /* \"contracts/cover/CoverNFT.sol\":3684:3694  msg.sender */\n      caller\n        /* \"contracts/cover/CoverNFT.sol\":3661:3695  isApprovedForAll[from][msg.sender] */\n      0xffffffffffffffffffffffffffffffffffffffff\n      and\n      0xffffffffffffffffffffffffffffffffffffffff\n      and\n      dup2\n      mstore\n      0x20\n      add\n      swap1\n      dup2\n      mstore\n      0x20\n      add\n      0x00\n      keccak256\n      0x00\n      swap1\n      sload\n      swap1\n      0x0100\n      exp\n      swap1\n      div\n      0xff\n      and\n        /* \"contracts/cover/CoverNFT.sol\":3660:3695  !isApprovedForAll[from][msg.sender] */\n      iszero\n        /* \"contracts/cover/CoverNFT.sol\":3638:3695  msg.sender != from && !isApprovedForAll[from][msg.sender] */\n    tag_126:\n        /* \"contracts/cover/CoverNFT.sol\":3638:3728  msg.sender != from && !isApprovedForAll[from][msg.sender] && msg.sender != getApproved[id] */\n      dup1\n      iszero\n      tag_127\n      jumpi\n      pop\n        /* \"contracts/cover/CoverNFT.sol\":3713:3724  getApproved */\n      0x04\n        /* \"contracts/cover/CoverNFT.sol\":3713:3728  getApproved[id] */\n      0x00\n        /* \"contracts/cover/CoverNFT.sol\":3725:3727  id */\n      dup3\n        /* \"contracts/cover/CoverNFT.sol\":3713:3728  getApproved[id] */\n      dup2\n      mstore\n      0x20\n      add\n      swap1\n      dup2\n      mstore\n      0x20\n      add\n      0x00\n      keccak256\n      0x00\n      swap1\n      sload\n      swap1\n      0x0100\n      exp\n      swap1\n      div\n      0xffffffffffffffffffffffffffffffffffffffff\n      and\n        /* \"contracts/cover/CoverNFT.sol\":3699:3728  msg.sender != getApproved[id] */\n      0xffffffffffffffffffffffffffffffffffffffff\n      and\n        /* \"contracts/cover/CoverNFT.sol\":3699:3709  msg.sender */\n      caller\n        /* \"contracts/cover/CoverNFT.sol\":3699:3728  msg.sender != getApproved[id] */\n      0xffffffffffffffffffffffffffffffffffffffff\n      and\n      eq\n      iszero\n        /* \"contracts/cover/CoverNFT.sol\":3638:3728  msg.sender != from && !isApprovedForAll[from][msg.sender] && msg.sender != getApproved[id] */\n    tag_127:\n        /* \"contracts/cover/CoverNFT.sol\":3634:3767  if (msg.sender != from && !isApprovedForAll[from][msg.sender] && msg.sender != getApproved[id]) {... */\n      iszero\n      tag_128\n      jumpi\n        /* \"contracts/cover/CoverNFT.sol\":3745:3760  NotAuthorized() */\n      mload(0x40)\n      0xea8e4eb500000000000000000000000000000000000000000000000000000000\n      dup2\n      mstore\n      0x04\n      add\n      mload(0x40)\n      dup1\n      swap2\n      sub\n      swap1\n      revert\n        /* \"contracts/cover/CoverNFT.sol\":3634:3767  if (msg.sender != from && !isApprovedForAll[from][msg.sender] && msg.sender != getApproved[id]) {... */\n    tag_128:\n        /* \"contracts/cover/CoverNFT.sol\":3947:3957  _balanceOf */\n      0x03\n        /* \"contracts/cover/CoverNFT.sol\":3947:3963  _balanceOf[from] */\n      0x00\n        /* \"contracts/cover/CoverNFT.sol\":3958:3962  from */\n      dup5\n        /* \"contracts/cover/CoverNFT.sol\":3947:3963  _balanceOf[from] */\n      0xffffffffffffffffffffffffffffffffffffffff\n      and\n      0xffffffffffffffffffffffffffffffffffffffff\n      and\n      dup2\n      mstore\n      0x20\n      add\n      swap1\n      dup2\n      mstore\n      0x20\n      add\n      0x00\n      keccak256\n      0x00\n        /* \"contracts/cover/CoverNFT.sol\":3947:3965  _balanceOf[from]-- */\n      dup2\n      sload\n      dup1\n      swap3\n      swap2\n      swap1\n      0x01\n      swap1\n      sub\n      swap2\n      swap1\n      pop\n      sstore\n      pop\n        /* \"contracts/cover/CoverNFT.sol\":3973:3983  _balanceOf */\n      0x03\n        /* \"contracts/cover/CoverNFT.sol\":3973:3987  _balanceOf[to] */\n      0x00\n        /* \"contracts/cover/CoverNFT.sol\":3984:3986  to */\n      dup4\n        /* \"contracts/cover/CoverNFT.sol\":3973:3987  _balanceOf[to] */\n      0xffffffffffffffffffffffffffffffffffffffff\n      and\n      0xffffffffffffffffffffffffffffffffffffffff\n      and\n      dup2\n      mstore\n      0x20\n      add\n      swap1\n      dup2\n      mstore\n      0x20\n      add\n      0x00\n      keccak256\n      0x00\n        /* \"contracts/cover/CoverNFT.sol\":3973:3989  _balanceOf[to]++ */\n      dup2\n      sload\n      dup1\n      swap3\n      swap2\n      swap1\n      0x01\n      add\n      swap2\n      swap1\n      pop\n      sstore\n      pop\n        /* \"contracts/cover/CoverNFT.sol\":4017:4019  to */\n      dup2\n        /* \"contracts/cover/CoverNFT.sol\":4002:4010  _ownerOf */\n      0x02\n        /* \"contracts/cover/CoverNFT.sol\":4002:4014  _ownerOf[id] */\n      0x00\n        /* \"contracts/cover/CoverNFT.sol\":4011:4013  id */\n      dup4\n        /* \"contracts/cover/CoverNFT.sol\":4002:4014  _ownerOf[id] */\n      dup2\n      mstore\n      0x20\n      add\n      swap1\n      dup2\n      mstore\n      0x20\n      add\n      0x00\n      keccak256\n      0x00\n        /* \"contracts/cover/CoverNFT.sol\":4002:4019  _ownerOf[id] = to */\n      0x0100\n      exp\n      dup2\n      sload\n      dup2\n      0xffffffffffffffffffffffffffffffffffffffff\n      mul\n      not\n      and\n      swap1\n      dup4\n      0xffffffffffffffffffffffffffffffffffffffff\n      and\n      mul\n      or\n      swap1\n      sstore\n      pop\n        /* \"contracts/cover/CoverNFT.sol\":4032:4043  getApproved */\n      0x04\n        /* \"contracts/cover/CoverNFT.sol\":4032:4047  getApproved[id] */\n      0x00\n        /* \"contracts/cover/CoverNFT.sol\":4044:4046  id */\n      dup3\n        /* \"contracts/cover/CoverNFT.sol\":4032:4047  getApproved[id] */\n      dup2\n      mstore\n      0x20\n      add\n      swap1\n      dup2\n      mstore\n      0x20\n      add\n      0x00\n      keccak256\n      0x00\n        /* \"contracts/cover/CoverNFT.sol\":4025:4047  delete getApproved[id] */\n      0x0100\n      exp\n      dup2\n      sload\n      swap1\n      0xffffffffffffffffffffffffffffffffffffffff\n      mul\n      not\n      and\n      swap1\n      sstore\n        /* \"contracts/cover/CoverNFT.sol\":4078:4080  id */\n      dup1\n        /* \"contracts/cover/CoverNFT.sol\":4074:4076  to */\n      dup3\n        /* \"contracts/cover/CoverNFT.sol\":4059:4081  Transfer(from, to, id) */\n      0xffffffffffffffffffffffffffffffffffffffff\n      and\n        /* \"contracts/cover/CoverNFT.sol\":4068:4072  from */\n      dup5\n        /* \"contracts/cover/CoverNFT.sol\":4059:4081  Transfer(from, to, id) */\n      0xffffffffffffffffffffffffffffffffffffffff\n      and\n      0xddf252ad1be2c89b69c2b068fc378daa952ba7f163c4a11628f55a4df523b3ef\n      mload(0x40)\n      mload(0x40)\n      dup1\n      swap2\n      sub\n      swap1\n      log4\n        /* \"contracts/cover/CoverNFT.sol\":3460:4086  function transferFrom(address from, address to, uint id) public {... */\n      pop\n      pop\n      pop\n      jump\t// out\n        /* \"contracts/cover/CoverNFT.sol\":4090:4383  function safeTransferFrom(address from, address to, uint id) public {... */\n    tag_60:\n        /* \"contracts/cover/CoverNFT.sol\":4164:4190  transferFrom(from, to, id) */\n      tag_130\n        /* \"contracts/cover/CoverNFT.sol\":4177:4181  from */\n      dup4\n        /* \"contracts/cover/CoverNFT.sol\":4183:4185  to */\n      dup4\n        /* \"contracts/cover/CoverNFT.sol\":4187:4189  id */\n      dup4\n        /* \"contracts/cover/CoverNFT.sol\":4164:4176  transferFrom */\n      tag_57\n        /* \"contracts/cover/CoverNFT.sol\":4164:4190  transferFrom(from, to, id) */\n      jump\t// in\n    tag_130:\n        /* \"contracts/cover/CoverNFT.sol\":4218:4219  0 */\n      0x00\n        /* \"contracts/cover/CoverNFT.sol\":4200:4202  to */\n      dup3\n        /* \"contracts/cover/CoverNFT.sol\":4200:4214  to.code.length */\n      0xffffffffffffffffffffffffffffffffffffffff\n      and\n      extcodesize\n        /* \"contracts/cover/CoverNFT.sol\":4200:4219  to.code.length != 0 */\n      eq\n      iszero\n        /* \"contracts/cover/CoverNFT.sol\":4200:4338  to.code.length != 0 && ERC721TokenReceiver(to).onERC721Received(msg.sender, from, id, \"\") != ERC721TokenReceiver.onERC721Received.selector */\n      dup1\n      iszero\n      tag_131\n      jumpi\n      pop\n        /* \"contracts/cover/CoverNFT.sol\":4293:4338  ERC721TokenReceiver.onERC721Received.selector */\n      shl(0xe0, 0x150b7a02)\n        /* \"contracts/cover/CoverNFT.sol\":4223:4338  ERC721TokenReceiver(to).onERC721Received(msg.sender, from, id, \"\") != ERC721TokenReceiver.onERC721Received.selector */\n      not(0xffffffffffffffffffffffffffffffffffffffffffffffffffffffff)\n      and\n        /* \"contracts/cover/CoverNFT.sol\":4243:4245  to */\n      dup3\n        /* \"contracts/cover/CoverNFT.sol\":4223:4263  ERC721TokenReceiver(to).onERC721Received */\n      0xffffffffffffffffffffffffffffffffffffffff\n      and\n      0x150b7a02\n        /* \"contracts/cover/CoverNFT.sol\":4264:4274  msg.sender */\n      caller\n        /* \"contracts/cover/CoverNFT.sol\":4276:4280  from */\n      dup7\n        /* \"contracts/cover/CoverNFT.sol\":4282:4284  id */\n      dup6\n        /* \"contracts/cover/CoverNFT.sol\":4223:4289  ERC721TokenReceiver(to).onERC721Received(msg.sender, from, id, \"\") */\n      mload(0x40)\n      dup5\n      0xffffffff\n      and\n      0xe0\n      shl\n      dup2\n      mstore\n      0x04\n      add\n      tag_132\n      swap4\n      swap3\n      swap2\n      swap1\n      tag_133\n      jump\t// in\n    tag_132:\n      0x20\n      mload(0x40)\n      dup1\n      dup4\n      sub\n      dup2\n      0x00\n      dup8\n      gas\n      call\n      iszero\n      dup1\n      iszero\n      tag_135\n      jumpi\n      returndatasize\n      0x00\n      dup1\n      returndatacopy\n      revert(0x00, returndatasize)\n    tag_135:\n      pop\n      pop\n      pop\n      pop\n      mload(0x40)\n      returndatasize\n      not(0x1f)\n      0x1f\n      dup3\n      add\n      and\n      dup3\n      add\n      dup1\n      0x40\n      mstore\n      pop\n      dup2\n      add\n      swap1\n      tag_136\n      swap2\n      swap1\n      tag_137\n      jump\t// in\n    tag_136:\n        /* \"contracts/cover/CoverNFT.sol\":4223:4338  ERC721TokenReceiver(to).onERC721Received(msg.sender, from, id, \"\") != ERC721TokenReceiver.onERC721Received.selector */\n      not(0xffffffffffffffffffffffffffffffffffffffffffffffffffffffff)\n      and\n      eq\n      iszero\n        /* \"contracts/cover/CoverNFT.sol\":4200:4338  to.code.length != 0 && ERC721TokenReceiver(to).onERC721Received(msg.sender, from, id, \"\") != ERC721TokenReceiver.onERC721Received.selector */\n    tag_131:\n        /* \"contracts/cover/CoverNFT.sol\":4196:4379  if (to.code.length != 0 && ERC721TokenReceiver(to).onERC721Received(msg.sender, from, id, \"\") != ERC721TokenReceiver.onERC721Received.selector) {... */\n      iszero\n      tag_138\n      jumpi\n        /* \"contracts/cover/CoverNFT.sol\":4355:4372  UnsafeRecipient() */\n      mload(0x40)\n      0x3da6393100000000000000000000000000000000000000000000000000000000\n      dup2\n      mstore\n      0x04\n      add\n      mload(0x40)\n      dup1\n      swap2\n      sub\n      swap1\n      revert\n        /* \"contracts/cover/CoverNFT.sol\":4196:4379  if (to.code.length != 0 && ERC721TokenReceiver(to).onERC721Received(msg.sender, from, id, \"\") != ERC721TokenReceiver.onERC721Received.selector) {... */\n    tag_138:\n        /* \"contracts/cover/CoverNFT.sol\":4090:4383  function safeTransferFrom(address from, address to, uint id) public {... */\n      pop\n      pop\n      pop\n      jump\t// out\n        /* \"contracts/cover/CoverNFT.sol\":3226:3456  function isApprovedOrOwner(address spender, uint tokenId) external view returns (bool) {... */\n    tag_63:\n        /* \"contracts/cover/CoverNFT.sol\":3307:3311  bool */\n      0x00\n        /* \"contracts/cover/CoverNFT.sol\":3319:3332  address owner */\n      dup1\n        /* \"contracts/cover/CoverNFT.sol\":3335:3351  ownerOf(tokenId) */\n      tag_140\n        /* \"contracts/cover/CoverNFT.sol\":3343:3350  tokenId */\n      dup4\n        /* \"contracts/cover/CoverNFT.sol\":3335:3342  ownerOf */\n      tag_73\n        /* \"contracts/cover/CoverNFT.sol\":3335:3351  ownerOf(tokenId) */\n      jump\t// in\n    tag_140:\n        /* \"contracts/cover/CoverNFT.sol\":3319:3351  address owner = ownerOf(tokenId) */\n      swap1\n      pop\n        /* \"contracts/cover/CoverNFT.sol\":3375:3380  owner */\n      dup1\n        /* \"contracts/cover/CoverNFT.sol\":3364:3380  spender == owner */\n      0xffffffffffffffffffffffffffffffffffffffff\n      and\n        /* \"contracts/cover/CoverNFT.sol\":3364:3371  spender */\n      dup5\n        /* \"contracts/cover/CoverNFT.sol\":3364:3380  spender == owner */\n      0xffffffffffffffffffffffffffffffffffffffff\n      and\n      eq\n        /* \"contracts/cover/CoverNFT.sol\":3364:3416  spender == owner || isApprovedForAll[owner][spender] */\n      dup1\n      tag_141\n      jumpi\n      pop\n        /* \"contracts/cover/CoverNFT.sol\":3384:3400  isApprovedForAll */\n      0x05\n        /* \"contracts/cover/CoverNFT.sol\":3384:3407  isApprovedForAll[owner] */\n      0x00\n        /* \"contracts/cover/CoverNFT.sol\":3401:3406  owner */\n      dup3\n        /* \"contracts/cover/CoverNFT.sol\":3384:3407  isApprovedForAll[owner] */\n      0xffffffffffffffffffffffffffffffffffffffff\n      and\n      0xffffffffffffffffffffffffffffffffffffffff\n      and\n      dup2\n      mstore\n      0x20\n      add\n      swap1\n      dup2\n      mstore\n      0x20\n      add\n      0x00\n      keccak256\n        /* \"contracts/cover/CoverNFT.sol\":3384:3416  isApprovedForAll[owner][spender] */\n      0x00\n        /* \"contracts/cover/CoverNFT.sol\":3408:3415  spender */\n      dup6\n        /* \"contracts/cover/CoverNFT.sol\":3384:3416  isApprovedForAll[owner][spender] */\n      0xffffffffffffffffffffffffffffffffffffffff\n      and\n      0xffffffffffffffffffffffffffffffffffffffff\n      and\n      dup2\n      mstore\n      0x20\n      add\n      swap1\n      dup2\n      mstore\n      0x20\n      add\n      0x00\n      keccak256\n      0x00\n      swap1\n      sload\n      swap1\n      0x0100\n      exp\n      swap1\n      div\n      0xff\n      and\n        /* \"contracts/cover/CoverNFT.sol\":3364:3416  spender == owner || isApprovedForAll[owner][spender] */\n    tag_141:\n        /* \"contracts/cover/CoverNFT.sol\":3364:3451  spender == owner || isApprovedForAll[owner][spender] || spender == getApproved[tokenId] */\n      dup1\n      tag_142\n      jumpi\n      pop\n        /* \"contracts/cover/CoverNFT.sol\":3431:3442  getApproved */\n      0x04\n        /* \"contracts/cover/CoverNFT.sol\":3431:3451  getApproved[tokenId] */\n      0x00\n        /* \"contracts/cover/CoverNFT.sol\":3443:3450  tokenId */\n      dup5\n        /* \"contracts/cover/CoverNFT.sol\":3431:3451  getApproved[tokenId] */\n      dup2\n      mstore\n      0x20\n      add\n      swap1\n      dup2\n      mstore\n      0x20\n      add\n      0x00\n      keccak256\n      0x00\n      swap1\n      sload\n      swap1\n      0x0100\n      exp\n      swap1\n      div\n      0xffffffffffffffffffffffffffffffffffffffff\n      and\n        /* \"contracts/cover/CoverNFT.sol\":3420:3451  spender == getApproved[tokenId] */\n      0xffffffffffffffffffffffffffffffffffffffff\n      and\n        /* \"contracts/cover/CoverNFT.sol\":3420:3427  spender */\n      dup5\n        /* \"contracts/cover/CoverNFT.sol\":3420:3451  spender == getApproved[tokenId] */\n      0xffffffffffffffffffffffffffffffffffffffff\n      and\n      eq\n        /* \"contracts/cover/CoverNFT.sol\":3364:3451  spender == owner || isApprovedForAll[owner][spender] || spender == getApproved[tokenId] */\n    tag_142:\n        /* \"contracts/cover/CoverNFT.sol\":3357:3451  return spender == owner || isApprovedForAll[owner][spender] || spender == getApproved[tokenId] */\n      swap2\n      pop\n      pop\n        /* \"contracts/cover/CoverNFT.sol\":3226:3456  function isApprovedOrOwner(address spender, uint tokenId) external view returns (bool) {... */\n      swap3\n      swap2\n      pop\n      pop\n      jump\t// out\n        /* \"contracts/cover/CoverNFT.sol\":613:641  address public nftDescriptor */\n    tag_66:\n      0x07\n      0x00\n      swap1\n      sload\n      swap1\n      0x0100\n      exp\n      swap1\n      div\n      0xffffffffffffffffffffffffffffffffffffffff\n      and\n      dup2\n      jump\t// out\n        /* \"contracts/cover/CoverNFT.sol\":586:609  address public operator */\n    tag_69:\n      0x06\n      0x0c\n      swap1\n      sload\n      swap1\n      0x0100\n      exp\n      swap1\n      div\n      0xffffffffffffffffffffffffffffffffffffffff\n      and\n      dup2\n      jump\t// out\n        /* \"contracts/cover/CoverNFT.sol\":2334:2467  function ownerOf(uint id) public view returns (address owner) {... */\n    tag_73:\n        /* \"contracts/cover/CoverNFT.sol\":2381:2394  address owner */\n      0x00\n        /* \"contracts/cover/CoverNFT.sol\":2440:2441  0 */\n      dup1\n        /* \"contracts/cover/CoverNFT.sol\":2406:2442  (owner = _ownerOf[id]) == address(0) */\n      0xffffffffffffffffffffffffffffffffffffffff\n      and\n        /* \"contracts/cover/CoverNFT.sol\":2415:2423  _ownerOf */\n      0x02\n        /* \"contracts/cover/CoverNFT.sol\":2415:2427  _ownerOf[id] */\n      0x00\n        /* \"contracts/cover/CoverNFT.sol\":2424:2426  id */\n      dup5\n        /* \"contracts/cover/CoverNFT.sol\":2415:2427  _ownerOf[id] */\n      dup2\n      mstore\n      0x20\n      add\n      swap1\n      dup2\n      mstore\n      0x20\n      add\n      0x00\n      keccak256\n      0x00\n      swap1\n      sload\n      swap1\n      0x0100\n      exp\n      swap1\n      div\n      0xffffffffffffffffffffffffffffffffffffffff\n      and\n        /* \"contracts/cover/CoverNFT.sol\":2407:2427  owner = _ownerOf[id] */\n      swap2\n      pop\n      dup2\n        /* \"contracts/cover/CoverNFT.sol\":2406:2442  (owner = _ownerOf[id]) == address(0) */\n      0xffffffffffffffffffffffffffffffffffffffff\n      and\n      sub\n        /* \"contracts/cover/CoverNFT.sol\":2402:2462  if ((owner = _ownerOf[id]) == address(0)) revert NotMinted() */\n      tag_144\n      jumpi\n        /* \"contracts/cover/CoverNFT.sol\":2451:2462  NotMinted() */\n      mload(0x40)\n      0x4d5e5fb300000000000000000000000000000000000000000000000000000000\n      dup2\n      mstore\n      0x04\n      add\n      mload(0x40)\n      dup1\n      swap2\n      sub\n      swap1\n      revert\n        /* \"contracts/cover/CoverNFT.sol\":2402:2462  if ((owner = _ownerOf[id]) == address(0)) revert NotMinted() */\n    tag_144:\n        /* \"contracts/cover/CoverNFT.sol\":2334:2467  function ownerOf(uint id) public view returns (address owner) {... */\n      swap2\n      swap1\n      pop\n      jump\t// out\n        /* \"contracts/cover/CoverNFT.sol\":1400:1713  function mint(address to) external onlyOperator returns (uint id) {... */\n    tag_77:\n        /* \"contracts/cover/CoverNFT.sol\":1457:1464  uint id */\n      0x00\n        /* \"contracts/cover/CoverNFT.sol\":692:700  operator */\n      0x06\n      0x0c\n      swap1\n      sload\n      swap1\n      0x0100\n      exp\n      swap1\n      div\n      0xffffffffffffffffffffffffffffffffffffffff\n      and\n        /* \"contracts/cover/CoverNFT.sol\":678:700  msg.sender != operator */\n      0xffffffffffffffffffffffffffffffffffffffff\n      and\n        /* \"contracts/cover/CoverNFT.sol\":678:688  msg.sender */\n      caller\n        /* \"contracts/cover/CoverNFT.sol\":678:700  msg.sender != operator */\n      0xffffffffffffffffffffffffffffffffffffffff\n      and\n      eq\n        /* \"contracts/cover/CoverNFT.sol\":674:722  if (msg.sender != operator) revert NotOperator() */\n      tag_146\n      jumpi\n        /* \"contracts/cover/CoverNFT.sol\":709:722  NotOperator() */\n      mload(0x40)\n      0x7c214f0400000000000000000000000000000000000000000000000000000000\n      dup2\n      mstore\n      0x04\n      add\n      mload(0x40)\n      dup1\n      swap2\n      sub\n      swap1\n      revert\n        /* \"contracts/cover/CoverNFT.sol\":674:722  if (msg.sender != operator) revert NotOperator() */\n    tag_146:\n        /* \"contracts/cover/CoverNFT.sol\":1491:1492  0 */\n      0x00\n        /* \"contracts/cover/CoverNFT.sol\":1477:1493  to == address(0) */\n      0xffffffffffffffffffffffffffffffffffffffff\n      and\n        /* \"contracts/cover/CoverNFT.sol\":1477:1479  to */\n      dup3\n        /* \"contracts/cover/CoverNFT.sol\":1477:1493  to == address(0) */\n      0xffffffffffffffffffffffffffffffffffffffff\n      and\n      sub\n        /* \"contracts/cover/CoverNFT.sol\":1473:1520  if (to == address(0)) revert InvalidRecipient() */\n      tag_148\n      jumpi\n        /* \"contracts/cover/CoverNFT.sol\":1502:1520  InvalidRecipient() */\n      mload(0x40)\n      0x9c8d2cd200000000000000000000000000000000000000000000000000000000\n      dup2\n      mstore\n      0x04\n      add\n      mload(0x40)\n      dup1\n      swap2\n      sub\n      swap1\n      revert\n        /* \"contracts/cover/CoverNFT.sol\":1473:1520  if (to == address(0)) revert InvalidRecipient() */\n    tag_148:\n        /* \"contracts/cover/CoverNFT.sol\":1602:1614  _totalSupply */\n      0x06\n      0x00\n        /* \"contracts/cover/CoverNFT.sol\":1600:1614  ++_totalSupply */\n      dup2\n      dup2\n      swap1\n      sload\n      swap1\n      0x0100\n      exp\n      swap1\n      div\n      0xffffffffffffffffffffffff\n      and\n      0x01\n      add\n      swap2\n      swap1\n      0x0100\n      exp\n      dup2\n      sload\n      dup2\n      0xffffffffffffffffffffffff\n      mul\n      not\n      and\n      swap1\n      dup4\n      0xffffffffffffffffffffffff\n      and\n      mul\n      or\n      swap1\n      sstore\n        /* \"contracts/cover/CoverNFT.sol\":1595:1614  id = ++_totalSupply */\n      0xffffffffffffffffffffffff\n      and\n      swap1\n      pop\n        /* \"contracts/cover/CoverNFT.sol\":1622:1632  _balanceOf */\n      0x03\n        /* \"contracts/cover/CoverNFT.sol\":1622:1636  _balanceOf[to] */\n      0x00\n        /* \"contracts/cover/CoverNFT.sol\":1633:1635  to */\n      dup4\n        /* \"contracts/cover/CoverNFT.sol\":1622:1636  _balanceOf[to] */\n      0xffffffffffffffffffffffffffffffffffffffff\n      and\n      0xffffffffffffffffffffffffffffffffffffffff\n      and\n      dup2\n      mstore\n      0x20\n      add\n      swap1\n      dup2\n      mstore\n      0x20\n      add\n      0x00\n      keccak256\n      0x00\n        /* \"contracts/cover/CoverNFT.sol\":1622:1638  _balanceOf[to]++ */\n      dup2\n      sload\n      dup1\n      swap3\n      swap2\n      swap1\n      0x01\n      add\n      swap2\n      swap1\n      pop\n      sstore\n      pop\n        /* \"contracts/cover/CoverNFT.sol\":1666:1668  to */\n      dup2\n        /* \"contracts/cover/CoverNFT.sol\":1651:1659  _ownerOf */\n      0x02\n        /* \"contracts/cover/CoverNFT.sol\":1651:1663  _ownerOf[id] */\n      0x00\n        /* \"contracts/cover/CoverNFT.sol\":1660:1662  id */\n      dup4\n        /* \"contracts/cover/CoverNFT.sol\":1651:1663  _ownerOf[id] */\n      dup2\n      mstore\n      0x20\n      add\n      swap1\n      dup2\n      mstore\n      0x20\n      add\n      0x00\n      keccak256\n      0x00\n        /* \"contracts/cover/CoverNFT.sol\":1651:1668  _ownerOf[id] = to */\n      0x0100\n      exp\n      dup2\n      sload\n      dup2\n      0xffffffffffffffffffffffffffffffffffffffff\n      mul\n      not\n      and\n      swap1\n      dup4\n      0xffffffffffffffffffffffffffffffffffffffff\n      and\n      mul\n      or\n      swap1\n      sstore\n      pop\n        /* \"contracts/cover/CoverNFT.sol\":1705:1707  id */\n      dup1\n        /* \"contracts/cover/CoverNFT.sol\":1701:1703  to */\n      dup3\n        /* \"contracts/cover/CoverNFT.sol\":1680:1708  Transfer(address(0), to, id) */\n      0xffffffffffffffffffffffffffffffffffffffff\n      and\n        /* \"contracts/cover/CoverNFT.sol\":1697:1698  0 */\n      0x00\n        /* \"contracts/cover/CoverNFT.sol\":1680:1708  Transfer(address(0), to, id) */\n      0xffffffffffffffffffffffffffffffffffffffff\n      and\n      0xddf252ad1be2c89b69c2b068fc378daa952ba7f163c4a11628f55a4df523b3ef\n      mload(0x40)\n      mload(0x40)\n      dup1\n      swap2\n      sub\n      swap1\n      log4\n        /* \"contracts/cover/CoverNFT.sol\":1400:1713  function mint(address to) external onlyOperator returns (uint id) {... */\n      swap2\n      swap1\n      pop\n      jump\t// out\n        /* \"contracts/cover/CoverNFT.sol\":2471:2616  function balanceOf(address owner) public view returns (uint) {... */\n    tag_81:\n        /* \"contracts/cover/CoverNFT.sol\":2526:2530  uint */\n      0x00\n        /* \"contracts/cover/CoverNFT.sol\":2559:2560  0 */\n      dup1\n        /* \"contracts/cover/CoverNFT.sol\":2542:2561  owner == address(0) */\n      0xffffffffffffffffffffffffffffffffffffffff\n      and\n        /* \"contracts/cover/CoverNFT.sol\":2542:2547  owner */\n      dup3\n        /* \"contracts/cover/CoverNFT.sol\":2542:2561  owner == address(0) */\n      0xffffffffffffffffffffffffffffffffffffffff\n      and\n      sub\n        /* \"contracts/cover/CoverNFT.sol\":2538:2581  if (owner == address(0)) revert NotMinted() */\n      tag_150\n      jumpi\n        /* \"contracts/cover/CoverNFT.sol\":2570:2581  NotMinted() */\n      mload(0x40)\n      0x4d5e5fb300000000000000000000000000000000000000000000000000000000\n      dup2\n      mstore\n      0x04\n      add\n      mload(0x40)\n      dup1\n      swap2\n      sub\n      swap1\n      revert\n        /* \"contracts/cover/CoverNFT.sol\":2538:2581  if (owner == address(0)) revert NotMinted() */\n    tag_150:\n        /* \"contracts/cover/CoverNFT.sol\":2594:2604  _balanceOf */\n      0x03\n        /* \"contracts/cover/CoverNFT.sol\":2594:2611  _balanceOf[owner] */\n      0x00\n        /* \"contracts/cover/CoverNFT.sol\":2605:2610  owner */\n      dup4\n        /* \"contracts/cover/CoverNFT.sol\":2594:2611  _balanceOf[owner] */\n      0xffffffffffffffffffffffffffffffffffffffff\n      and\n      0xffffffffffffffffffffffffffffffffffffffff\n      and\n      dup2\n      mstore\n      0x20\n      add\n      swap1\n      dup2\n      mstore\n      0x20\n      add\n      0x00\n      keccak256\n      sload\n        /* \"contracts/cover/CoverNFT.sol\":2587:2611  return _balanceOf[owner] */\n      swap1\n      pop\n        /* \"contracts/cover/CoverNFT.sol\":2471:2616  function balanceOf(address owner) public view returns (uint) {... */\n      swap2\n      swap1\n      pop\n      jump\t// out\n        /* \"contracts/cover/CoverNFT.sol\":315:335  string public symbol */\n    tag_84:\n      0x01\n      dup1\n      sload\n      tag_151\n      swap1\n      tag_114\n      jump\t// in\n    tag_151:\n      dup1\n      0x1f\n      add\n      0x20\n      dup1\n      swap2\n      div\n      mul\n      0x20\n      add\n      mload(0x40)\n      swap1\n      dup2\n      add\n      0x40\n      mstore\n      dup1\n      swap3\n      swap2\n      swap1\n      dup2\n      dup2\n      mstore\n      0x20\n      add\n      dup3\n      dup1\n      sload\n      tag_152\n      swap1\n      tag_114\n      jump\t// in\n    tag_152:\n      dup1\n      iszero\n      tag_153\n      jumpi\n      dup1\n      0x1f\n      lt\n      tag_154\n      jumpi\n      0x0100\n      dup1\n      dup4\n      sload\n      div\n      mul\n      dup4\n      mstore\n      swap2\n      0x20\n      add\n      swap2\n      jump(tag_153)\n    tag_154:\n      dup3\n      add\n      swap2\n      swap1\n      0x00\n      mstore\n      keccak256(0x00, 0x20)\n      swap1\n    tag_155:\n      dup2\n      sload\n      dup2\n      mstore\n      swap1\n      0x01\n      add\n      swap1\n      0x20\n      add\n      dup1\n      dup4\n      gt\n      tag_155\n      jumpi\n      dup3\n      swap1\n      sub\n      0x1f\n      and\n      dup3\n      add\n      swap2\n    tag_153:\n      pop\n      pop\n      pop\n      pop\n      pop\n      dup2\n      jump\t// out\n        /* \"contracts/cover/CoverNFT.sol\":1169:1371  function changeNFTDescriptor(address _newNFTDescriptor) public onlyOperator {... */\n    tag_88:\n        /* \"contracts/cover/CoverNFT.sol\":692:700  operator */\n      0x06\n      0x0c\n      swap1\n      sload\n      swap1\n      0x0100\n      exp\n      swap1\n      div\n      0xffffffffffffffffffffffffffffffffffffffff\n      and\n        /* \"contracts/cover/CoverNFT.sol\":678:700  msg.sender != operator */\n      0xffffffffffffffffffffffffffffffffffffffff\n      and\n        /* \"contracts/cover/CoverNFT.sol\":678:688  msg.sender */\n      caller\n        /* \"contracts/cover/CoverNFT.sol\":678:700  msg.sender != operator */\n      0xffffffffffffffffffffffffffffffffffffffff\n      and\n      eq\n        /* \"contracts/cover/CoverNFT.sol\":674:722  if (msg.sender != operator) revert NotOperator() */\n      tag_157\n      jumpi\n        /* \"contracts/cover/CoverNFT.sol\":709:722  NotOperator() */\n      mload(0x40)\n      0x7c214f0400000000000000000000000000000000000000000000000000000000\n      dup2\n      mstore\n      0x04\n      add\n      mload(0x40)\n      dup1\n      swap2\n      sub\n      swap1\n      revert\n        /* \"contracts/cover/CoverNFT.sol\":674:722  if (msg.sender != operator) revert NotOperator() */\n    tag_157:\n        /* \"contracts/cover/CoverNFT.sol\":1284:1285  0 */\n      0x00\n        /* \"contracts/cover/CoverNFT.sol\":1255:1286  _newNFTDescriptor == address(0) */\n      0xffffffffffffffffffffffffffffffffffffffff\n      and\n        /* \"contracts/cover/CoverNFT.sol\":1255:1272  _newNFTDescriptor */\n      dup2\n        /* \"contracts/cover/CoverNFT.sol\":1255:1286  _newNFTDescriptor == address(0) */\n      0xffffffffffffffffffffffffffffffffffffffff\n      and\n      sub\n        /* \"contracts/cover/CoverNFT.sol\":1251:1327  if (_newNFTDescriptor == address(0)) revert InvalidNewNFTDescriptorAddress() */\n      tag_159\n      jumpi\n        /* \"contracts/cover/CoverNFT.sol\":1295:1327  InvalidNewNFTDescriptorAddress() */\n      mload(0x40)\n      0xedb7f57100000000000000000000000000000000000000000000000000000000\n      dup2\n      mstore\n      0x04\n      add\n      mload(0x40)\n      dup1\n      swap2\n      sub\n      swap1\n      revert\n        /* \"contracts/cover/CoverNFT.sol\":1251:1327  if (_newNFTDescriptor == address(0)) revert InvalidNewNFTDescriptorAddress() */\n    tag_159:\n        /* \"contracts/cover/CoverNFT.sol\":1349:1366  _newNFTDescriptor */\n      dup1\n        /* \"contracts/cover/CoverNFT.sol\":1333:1346  nftDescriptor */\n      0x07\n      0x00\n        /* \"contracts/cover/CoverNFT.sol\":1333:1366  nftDescriptor = _newNFTDescriptor */\n      0x0100\n      exp\n      dup2\n      sload\n      dup2\n      0xffffffffffffffffffffffffffffffffffffffff\n      mul\n      not\n      and\n      swap1\n      dup4\n      0xffffffffffffffffffffffffffffffffffffffff\n      and\n      mul\n      or\n      swap1\n      sstore\n      pop\n        /* \"contracts/cover/CoverNFT.sol\":1169:1371  function changeNFTDescriptor(address _newNFTDescriptor) public onlyOperator {... */\n      pop\n      jump\t// out\n        /* \"contracts/cover/CoverNFT.sol\":2876:3057  function setApprovalForAll(address spender, bool approved) public {... */\n    tag_92:\n        /* \"contracts/cover/CoverNFT.sol\":2988:2996  approved */\n      dup1\n        /* \"contracts/cover/CoverNFT.sol\":2948:2964  isApprovedForAll */\n      0x05\n        /* \"contracts/cover/CoverNFT.sol\":2948:2976  isApprovedForAll[msg.sender] */\n      0x00\n        /* \"contracts/cover/CoverNFT.sol\":2965:2975  msg.sender */\n      caller\n        /* \"contracts/cover/CoverNFT.sol\":2948:2976  isApprovedForAll[msg.sender] */\n      0xffffffffffffffffffffffffffffffffffffffff\n      and\n      0xffffffffffffffffffffffffffffffffffffffff\n      and\n      dup2\n      mstore\n      0x20\n      add\n      swap1\n      dup2\n      mstore\n      0x20\n      add\n      0x00\n      keccak256\n        /* \"contracts/cover/CoverNFT.sol\":2948:2985  isApprovedForAll[msg.sender][spender] */\n      0x00\n        /* \"contracts/cover/CoverNFT.sol\":2977:2984  spender */\n      dup5\n        /* \"contracts/cover/CoverNFT.sol\":2948:2985  isApprovedForAll[msg.sender][spender] */\n      0xffffffffffffffffffffffffffffffffffffffff\n      and\n      0xffffffffffffffffffffffffffffffffffffffff\n      and\n      dup2\n      mstore\n      0x20\n      add\n      swap1\n      dup2\n      mstore\n      0x20\n      add\n      0x00\n      keccak256\n      0x00\n        /* \"contracts/cover/CoverNFT.sol\":2948:2996  isApprovedForAll[msg.sender][spender] = approved */\n      0x0100\n      exp\n      dup2\n      sload\n      dup2\n      0xff\n      mul\n      not\n      and\n      swap1\n      dup4\n      iszero\n      iszero\n      mul\n      or\n      swap1\n      sstore\n      pop\n        /* \"contracts/cover/CoverNFT.sol\":3034:3041  spender */\n      dup2\n        /* \"contracts/cover/CoverNFT.sol\":3007:3052  ApprovalForAll(msg.sender, spender, approved) */\n      0xffffffffffffffffffffffffffffffffffffffff\n      and\n        /* \"contracts/cover/CoverNFT.sol\":3022:3032  msg.sender */\n      caller\n        /* \"contracts/cover/CoverNFT.sol\":3007:3052  ApprovalForAll(msg.sender, spender, approved) */\n      0xffffffffffffffffffffffffffffffffffffffff\n      and\n      0x17307eab39ab6107e8899845ad3d59bd9653f200f220920489ca2b5937696c31\n        /* \"contracts/cover/CoverNFT.sol\":3043:3051  approved */\n      dup4\n        /* \"contracts/cover/CoverNFT.sol\":3007:3052  ApprovalForAll(msg.sender, spender, approved) */\n      mload(0x40)\n      tag_161\n      swap2\n      swap1\n      tag_31\n      jump\t// in\n    tag_161:\n      mload(0x40)\n      dup1\n      swap2\n      sub\n      swap1\n      log3\n        /* \"contracts/cover/CoverNFT.sol\":2876:3057  function setApprovalForAll(address spender, bool approved) public {... */\n      pop\n      pop\n      jump\t// out\n        /* \"contracts/cover/CoverNFT.sol\":4387:4723  function safeTransferFrom(... */\n    tag_96:\n        /* \"contracts/cover/CoverNFT.sol\":4502:4528  transferFrom(from, to, id) */\n      tag_163\n        /* \"contracts/cover/CoverNFT.sol\":4515:4519  from */\n      dup6\n        /* \"contracts/cover/CoverNFT.sol\":4521:4523  to */\n      dup6\n        /* \"contracts/cover/CoverNFT.sol\":4525:4527  id */\n      dup6\n        /* \"contracts/cover/CoverNFT.sol\":4502:4514  transferFrom */\n      tag_57\n        /* \"contracts/cover/CoverNFT.sol\":4502:4528  transferFrom(from, to, id) */\n      jump\t// in\n    tag_163:\n        /* \"contracts/cover/CoverNFT.sol\":4556:4557  0 */\n      0x00\n        /* \"contracts/cover/CoverNFT.sol\":4538:4540  to */\n      dup5\n        /* \"contracts/cover/CoverNFT.sol\":4538:4552  to.code.length */\n      0xffffffffffffffffffffffffffffffffffffffff\n      and\n      extcodesize\n        /* \"contracts/cover/CoverNFT.sol\":4538:4557  to.code.length != 0 */\n      eq\n      iszero\n        /* \"contracts/cover/CoverNFT.sol\":4538:4678  to.code.length != 0 && ERC721TokenReceiver(to).onERC721Received(msg.sender, from, id, data) != ERC721TokenReceiver.onERC721Received.selector */\n      dup1\n      iszero\n      tag_164\n      jumpi\n      pop\n        /* \"contracts/cover/CoverNFT.sol\":4633:4678  ERC721TokenReceiver.onERC721Received.selector */\n      shl(0xe0, 0x150b7a02)\n        /* \"contracts/cover/CoverNFT.sol\":4561:4678  ERC721TokenReceiver(to).onERC721Received(msg.sender, from, id, data) != ERC721TokenReceiver.onERC721Received.selector */\n      not(0xffffffffffffffffffffffffffffffffffffffffffffffffffffffff)\n      and\n        /* \"contracts/cover/CoverNFT.sol\":4581:4583  to */\n      dup5\n        /* \"contracts/cover/CoverNFT.sol\":4561:4601  ERC721TokenReceiver(to).onERC721Received */\n      0xffffffffffffffffffffffffffffffffffffffff\n      and\n      0x150b7a02\n        /* \"contracts/cover/CoverNFT.sol\":4602:4612  msg.sender */\n      caller\n        /* \"contracts/cover/CoverNFT.sol\":4614:4618  from */\n      dup9\n        /* \"contracts/cover/CoverNFT.sol\":4620:4622  id */\n      dup8\n        /* \"contracts/cover/CoverNFT.sol\":4624:4628  data */\n      dup8\n      dup8\n        /* \"contracts/cover/CoverNFT.sol\":4561:4629  ERC721TokenReceiver(to).onERC721Received(msg.sender, from, id, data) */\n      mload(0x40)\n      dup7\n      0xffffffff\n      and\n      0xe0\n      shl\n      dup2\n      mstore\n      0x04\n      add\n      tag_165\n      swap6\n      swap5\n      swap4\n      swap3\n      swap2\n      swap1\n      tag_166\n      jump\t// in\n    tag_165:\n      0x20\n      mload(0x40)\n      dup1\n      dup4\n      sub\n      dup2\n      0x00\n      dup8\n      gas\n      call\n      iszero\n      dup1\n      iszero\n      tag_168\n      jumpi\n      returndatasize\n      0x00\n      dup1\n      returndatacopy\n      revert(0x00, returndatasize)\n    tag_168:\n      pop\n      pop\n      pop\n      pop\n      mload(0x40)\n      returndatasize\n      not(0x1f)\n      0x1f\n      dup3\n      add\n      and\n      dup3\n      add\n      dup1\n      0x40\n      mstore\n      pop\n      dup2\n      add\n      swap1\n      tag_169\n      swap2\n      swap1\n      tag_137\n      jump\t// in\n    tag_169:\n        /* \"contracts/cover/CoverNFT.sol\":4561:4678  ERC721TokenReceiver(to).onERC721Received(msg.sender, from, id, data) != ERC721TokenReceiver.onERC721Received.selector */\n      not(0xffffffffffffffffffffffffffffffffffffffffffffffffffffffff)\n      and\n      eq\n      iszero\n        /* \"contracts/cover/CoverNFT.sol\":4538:4678  to.code.length != 0 && ERC721TokenReceiver(to).onERC721Received(msg.sender, from, id, data) != ERC721TokenReceiver.onERC721Received.selector */\n    tag_164:\n        /* \"contracts/cover/CoverNFT.sol\":4534:4719  if (to.code.length != 0 && ERC721TokenReceiver(to).onERC721Received(msg.sender, from, id, data) != ERC721TokenReceiver.onERC721Received.selector) {... */\n      iszero\n      tag_170\n      jumpi\n        /* \"contracts/cover/CoverNFT.sol\":4695:4712  UnsafeRecipient() */\n      mload(0x40)\n      0x3da6393100000000000000000000000000000000000000000000000000000000\n      dup2\n      mstore\n      0x04\n      add\n      mload(0x40)\n      dup1\n      swap2\n      sub\n      swap1\n      revert\n        /* \"contracts/cover/CoverNFT.sol\":4534:4719  if (to.code.length != 0 && ERC721TokenReceiver(to).onERC721Received(msg.sender, from, id, data) != ERC721TokenReceiver.onERC721Received.selector) {... */\n    tag_170:\n        /* \"contracts/cover/CoverNFT.sol\":4387:4723  function safeTransferFrom(... */\n      pop\n      pop\n      pop\n      pop\n      pop\n      jump\t// out\n        /* \"contracts/cover/CoverNFT.sol\":2134:2330  function tokenURI(uint id) public view virtual returns (string memory uri) {... */\n    tag_99:\n        /* \"contracts/cover/CoverNFT.sol\":2190:2207  string memory uri */\n      0x60\n        /* \"contracts/cover/CoverNFT.sol\":2243:2244  0 */\n      0x00\n        /* \"contracts/cover/CoverNFT.sol\":2219:2245  _ownerOf[id] == address(0) */\n      0xffffffffffffffffffffffffffffffffffffffff\n      and\n        /* \"contracts/cover/CoverNFT.sol\":2219:2227  _ownerOf */\n      0x02\n        /* \"contracts/cover/CoverNFT.sol\":2219:2231  _ownerOf[id] */\n      0x00\n        /* \"contracts/cover/CoverNFT.sol\":2228:2230  id */\n      dup5\n        /* \"contracts/cover/CoverNFT.sol\":2219:2231  _ownerOf[id] */\n      dup2\n      mstore\n      0x20\n      add\n      swap1\n      dup2\n      mstore\n      0x20\n      add\n      0x00\n      keccak256\n      0x00\n      swap1\n      sload\n      swap1\n      0x0100\n      exp\n      swap1\n      div\n      0xffffffffffffffffffffffffffffffffffffffff\n      and\n        /* \"contracts/cover/CoverNFT.sol\":2219:2245  _ownerOf[id] == address(0) */\n      0xffffffffffffffffffffffffffffffffffffffff\n      and\n      sub\n        /* \"contracts/cover/CoverNFT.sol\":2215:2265  if (_ownerOf[id] == address(0)) revert NotMinted() */\n      tag_172\n      jumpi\n        /* \"contracts/cover/CoverNFT.sol\":2254:2265  NotMinted() */\n      mload(0x40)\n      0x4d5e5fb300000000000000000000000000000000000000000000000000000000\n      dup2\n      mstore\n      0x04\n      add\n      mload(0x40)\n      dup1\n      swap2\n      sub\n      swap1\n      revert\n        /* \"contracts/cover/CoverNFT.sol\":2215:2265  if (_ownerOf[id] == address(0)) revert NotMinted() */\n    tag_172:\n        /* \"contracts/cover/CoverNFT.sol\":2298:2311  nftDescriptor */\n      0x07\n      0x00\n      swap1\n      sload\n      swap1\n      0x0100\n      exp\n      swap1\n      div\n      0xffffffffffffffffffffffffffffffffffffffff\n      and\n        /* \"contracts/cover/CoverNFT.sol\":2278:2321  ICoverNFTDescriptor(nftDescriptor).tokenURI */\n      0xffffffffffffffffffffffffffffffffffffffff\n      and\n      0xc87b56dd\n        /* \"contracts/cover/CoverNFT.sol\":2322:2324  id */\n      dup4\n        /* \"contracts/cover/CoverNFT.sol\":2278:2325  ICoverNFTDescriptor(nftDescriptor).tokenURI(id) */\n      mload(0x40)\n      dup3\n      0xffffffff\n      and\n      0xe0\n      shl\n      dup2\n      mstore\n      0x04\n      add\n      tag_173\n      swap2\n      swap1\n      tag_53\n      jump\t// in\n    tag_173:\n      0x00\n      mload(0x40)\n      dup1\n      dup4\n      sub\n      dup2\n      dup7\n      gas\n      staticcall\n      iszero\n      dup1\n      iszero\n      tag_175\n      jumpi\n      returndatasize\n      0x00\n      dup1\n      returndatacopy\n      revert(0x00, returndatasize)\n    tag_175:\n      pop\n      pop\n      pop\n      pop\n      mload(0x40)\n      returndatasize\n      0x00\n      dup3\n      returndatacopy\n      returndatasize\n      not(0x1f)\n      0x1f\n      dup3\n      add\n      and\n      dup3\n      add\n      dup1\n      0x40\n      mstore\n      pop\n      dup2\n      add\n      swap1\n      tag_176\n      swap2\n      swap1\n      tag_177\n      jump\t// in\n    tag_176:\n        /* \"contracts/cover/CoverNFT.sol\":2271:2325  return ICoverNFTDescriptor(nftDescriptor).tokenURI(id) */\n      swap1\n      pop\n        /* \"contracts/cover/CoverNFT.sol\":2134:2330  function tokenURI(uint id) public view virtual returns (string memory uri) {... */\n      swap2\n      swap1\n      pop\n      jump\t// out\n        /* \"contracts/cover/CoverNFT.sol\":481:549  mapping(address => mapping(address => bool)) public isApprovedForAll */\n    tag_104:\n      mstore(0x20, 0x05)\n      dup2\n      0x00\n      mstore\n      mstore(0x20, keccak256(0x00, 0x40))\n      dup1\n      0x00\n      mstore\n      keccak256(0x00, 0x40)\n      0x00\n      swap2\n      pop\n      swap2\n      pop\n      swap1\n      sload\n      swap1\n      0x0100\n      exp\n      swap1\n      div\n      0xff\n      and\n      dup2\n      jump\t// out\n        /* \"#utility.yul\":7:82   */\n    tag_178:\n        /* \"#utility.yul\":40:46   */\n      0x00\n        /* \"#utility.yul\":73:75   */\n      0x40\n        /* \"#utility.yul\":67:76   */\n      mload\n        /* \"#utility.yul\":57:76   */\n      swap1\n      pop\n        /* \"#utility.yul\":7:82   */\n      swap1\n      jump\t// out\n        /* \"#utility.yul\":88:205   */\n    tag_179:\n        /* \"#utility.yul\":197:198   */\n      0x00\n        /* \"#utility.yul\":194:195   */\n      dup1\n        /* \"#utility.yul\":187:199   */\n      revert\n        /* \"#utility.yul\":211:328   */\n    tag_180:\n        /* \"#utility.yul\":320:321   */\n      0x00\n        /* \"#utility.yul\":317:318   */\n      dup1\n        /* \"#utility.yul\":310:322   */\n      revert\n        /* \"#utility.yul\":334:483   */\n    tag_181:\n        /* \"#utility.yul\":370:377   */\n      0x00\n        /* \"#utility.yul\":410:476   */\n      0xffffffff00000000000000000000000000000000000000000000000000000000\n        /* \"#utility.yul\":403:408   */\n      dup3\n        /* \"#utility.yul\":399:477   */\n      and\n        /* \"#utility.yul\":388:477   */\n      swap1\n      pop\n        /* \"#utility.yul\":334:483   */\n      swap2\n      swap1\n      pop\n      jump\t// out\n        /* \"#utility.yul\":489:609   */\n    tag_182:\n        /* \"#utility.yul\":561:584   */\n      tag_226\n        /* \"#utility.yul\":578:583   */\n      dup2\n        /* \"#utility.yul\":561:584   */\n      tag_181\n      jump\t// in\n    tag_226:\n        /* \"#utility.yul\":554:559   */\n      dup2\n        /* \"#utility.yul\":551:585   */\n      eq\n        /* \"#utility.yul\":541:603   */\n      tag_227\n      jumpi\n        /* \"#utility.yul\":599:600   */\n      0x00\n        /* \"#utility.yul\":596:597   */\n      dup1\n        /* \"#utility.yul\":589:601   */\n      revert\n        /* \"#utility.yul\":541:603   */\n    tag_227:\n        /* \"#utility.yul\":489:609   */\n      pop\n      jump\t// out\n        /* \"#utility.yul\":615:752   */\n    tag_183:\n        /* \"#utility.yul\":660:665   */\n      0x00\n        /* \"#utility.yul\":698:704   */\n      dup2\n        /* \"#utility.yul\":685:705   */\n      calldataload\n        /* \"#utility.yul\":676:705   */\n      swap1\n      pop\n        /* \"#utility.yul\":714:746   */\n      tag_229\n        /* \"#utility.yul\":740:745   */\n      dup2\n        /* \"#utility.yul\":714:746   */\n      tag_182\n      jump\t// in\n    tag_229:\n        /* \"#utility.yul\":615:752   */\n      swap3\n      swap2\n      pop\n      pop\n      jump\t// out\n        /* \"#utility.yul\":758:1085   */\n    tag_28:\n        /* \"#utility.yul\":816:822   */\n      0x00\n        /* \"#utility.yul\":865:867   */\n      0x20\n        /* \"#utility.yul\":853:862   */\n      dup3\n        /* \"#utility.yul\":844:851   */\n      dup5\n        /* \"#utility.yul\":840:863   */\n      sub\n        /* \"#utility.yul\":836:868   */\n      slt\n        /* \"#utility.yul\":833:952   */\n      iszero\n      tag_231\n      jumpi\n        /* \"#utility.yul\":871:950   */\n      tag_232\n      tag_179\n      jump\t// in\n    tag_232:\n        /* \"#utility.yul\":833:952   */\n    tag_231:\n        /* \"#utility.yul\":991:992   */\n      0x00\n        /* \"#utility.yul\":1016:1068   */\n      tag_233\n        /* \"#utility.yul\":1060:1067   */\n      dup5\n        /* \"#utility.yul\":1051:1057   */\n      dup3\n        /* \"#utility.yul\":1040:1049   */\n      dup6\n        /* \"#utility.yul\":1036:1058   */\n      add\n        /* \"#utility.yul\":1016:1068   */\n      tag_183\n      jump\t// in\n    tag_233:\n        /* \"#utility.yul\":1006:1068   */\n      swap2\n      pop\n        /* \"#utility.yul\":962:1078   */\n      pop\n        /* \"#utility.yul\":758:1085   */\n      swap3\n      swap2\n      pop\n      pop\n      jump\t// out\n        /* \"#utility.yul\":1091:1181   */\n    tag_184:\n        /* \"#utility.yul\":1125:1132   */\n      0x00\n        /* \"#utility.yul\":1168:1173   */\n      dup2\n        /* \"#utility.yul\":1161:1174   */\n      iszero\n        /* \"#utility.yul\":1154:1175   */\n      iszero\n        /* \"#utility.yul\":1143:1175   */\n      swap1\n      pop\n        /* \"#utility.yul\":1091:1181   */\n      swap2\n      swap1\n      pop\n      jump\t// out\n        /* \"#utility.yul\":1187:1296   */\n    tag_185:\n        /* \"#utility.yul\":1268:1289   */\n      tag_236\n        /* \"#utility.yul\":1283:1288   */\n      dup2\n        /* \"#utility.yul\":1268:1289   */\n      tag_184\n      jump\t// in\n    tag_236:\n        /* \"#utility.yul\":1263:1266   */\n      dup3\n        /* \"#utility.yul\":1256:1290   */\n      mstore\n        /* \"#utility.yul\":1187:1296   */\n      pop\n      pop\n      jump\t// out\n        /* \"#utility.yul\":1302:1512   */\n    tag_31:\n        /* \"#utility.yul\":1389:1393   */\n      0x00\n        /* \"#utility.yul\":1427:1429   */\n      0x20\n        /* \"#utility.yul\":1416:1425   */\n      dup3\n        /* \"#utility.yul\":1412:1430   */\n      add\n        /* \"#utility.yul\":1404:1430   */\n      swap1\n      pop\n        /* \"#utility.yul\":1440:1505   */\n      tag_238\n        /* \"#utility.yul\":1502:1503   */\n      0x00\n        /* \"#utility.yul\":1491:1500   */\n      dup4\n        /* \"#utility.yul\":1487:1504   */\n      add\n        /* \"#utility.yul\":1478:1484   */\n      dup5\n        /* \"#utility.yul\":1440:1505   */\n      tag_185\n      jump\t// in\n    tag_238:\n        /* \"#utility.yul\":1302:1512   */\n      swap3\n      swap2\n      pop\n      pop\n      jump\t// out\n        /* \"#utility.yul\":1518:1644   */\n    tag_186:\n        /* \"#utility.yul\":1555:1562   */\n      0x00\n        /* \"#utility.yul\":1595:1637   */\n      0xffffffffffffffffffffffffffffffffffffffff\n        /* \"#utility.yul\":1588:1593   */\n      dup3\n        /* \"#utility.yul\":1584:1638   */\n      and\n        /* \"#utility.yul\":1573:1638   */\n      swap1\n      pop\n        /* \"#utility.yul\":1518:1644   */\n      swap2\n      swap1\n      pop\n      jump\t// out\n        /* \"#utility.yul\":1650:1746   */\n    tag_187:\n        /* \"#utility.yul\":1687:1694   */\n      0x00\n        /* \"#utility.yul\":1716:1740   */\n      tag_241\n        /* \"#utility.yul\":1734:1739   */\n      dup3\n        /* \"#utility.yul\":1716:1740   */\n      tag_186\n      jump\t// in\n    tag_241:\n        /* \"#utility.yul\":1705:1740   */\n      swap1\n      pop\n        /* \"#utility.yul\":1650:1746   */\n      swap2\n      swap1\n      pop\n      jump\t// out\n        /* \"#utility.yul\":1752:1874   */\n    tag_188:\n        /* \"#utility.yul\":1825:1849   */\n      tag_243\n        /* \"#utility.yul\":1843:1848   */\n      dup2\n        /* \"#utility.yul\":1825:1849   */\n      tag_187\n      jump\t// in\n    tag_243:\n        /* \"#utility.yul\":1818:1823   */\n      dup2\n        /* \"#utility.yul\":1815:1850   */\n      eq\n        /* \"#utility.yul\":1805:1868   */\n      tag_244\n      jumpi\n        /* \"#utility.yul\":1864:1865   */\n      0x00\n        /* \"#utility.yul\":1861:1862   */\n      dup1\n        /* \"#utility.yul\":1854:1866   */\n      revert\n        /* \"#utility.yul\":1805:1868   */\n    tag_244:\n        /* \"#utility.yul\":1752:1874   */\n      pop\n      jump\t// out\n        /* \"#utility.yul\":1880:2019   */\n    tag_189:\n        /* \"#utility.yul\":1926:1931   */\n      0x00\n        /* \"#utility.yul\":1964:1970   */\n      dup2\n        /* \"#utility.yul\":1951:1971   */\n      calldataload\n        /* \"#utility.yul\":1942:1971   */\n      swap1\n      pop\n        /* \"#utility.yul\":1980:2013   */\n      tag_246\n        /* \"#utility.yul\":2007:2012   */\n      dup2\n        /* \"#utility.yul\":1980:2013   */\n      tag_188\n      jump\t// in\n    tag_246:\n        /* \"#utility.yul\":1880:2019   */\n      swap3\n      swap2\n      pop\n      pop\n      jump\t// out\n        /* \"#utility.yul\":2025:2354   */\n    tag_34:\n        /* \"#utility.yul\":2084:2090   */\n      0x00\n        /* \"#utility.yul\":2133:2135   */\n      0x20\n        /* \"#utility.yul\":2121:2130   */\n      dup3\n        /* \"#utility.yul\":2112:2119   */\n      dup5\n        /* \"#utility.yul\":2108:2131   */\n      sub\n        /* \"#utility.yul\":2104:2136   */\n      slt\n        /* \"#utility.yul\":2101:2220   */\n      iszero\n      tag_248\n      jumpi\n        /* \"#utility.yul\":2139:2218   */\n      tag_249\n      tag_179\n      jump\t// in\n    tag_249:\n        /* \"#utility.yul\":2101:2220   */\n    tag_248:\n        /* \"#utility.yul\":2259:2260   */\n      0x00\n        /* \"#utility.yul\":2284:2337   */\n      tag_250\n        /* \"#utility.yul\":2329:2336   */\n      dup5\n        /* \"#utility.yul\":2320:2326   */\n      dup3\n        /* \"#utility.yul\":2309:2318   */\n      dup6\n        /* \"#utility.yul\":2305:2327   */\n      add\n        /* \"#utility.yul\":2284:2337   */\n      tag_189\n      jump\t// in\n    tag_250:\n        /* \"#utility.yul\":2274:2337   */\n      swap2\n      pop\n        /* \"#utility.yul\":2230:2347   */\n      pop\n        /* \"#utility.yul\":2025:2354   */\n      swap3\n      swap2\n      pop\n      pop\n      jump\t// out\n        /* \"#utility.yul\":2360:2459   */\n    tag_190:\n        /* \"#utility.yul\":2412:2418   */\n      0x00\n        /* \"#utility.yul\":2446:2451   */\n      dup2\n        /* \"#utility.yul\":2440:2452   */\n      mload\n        /* \"#utility.yul\":2430:2452   */\n      swap1\n      pop\n        /* \"#utility.yul\":2360:2459   */\n      swap2\n      swap1\n      pop\n      jump\t// out\n        /* \"#utility.yul\":2465:2634   */\n    tag_191:\n        /* \"#utility.yul\":2549:2560   */\n      0x00\n        /* \"#utility.yul\":2583:2589   */\n      dup3\n        /* \"#utility.yul\":2578:2581   */\n      dup3\n        /* \"#utility.yul\":2571:2590   */\n      mstore\n        /* \"#utility.yul\":2623:2627   */\n      0x20\n        /* \"#utility.yul\":2618:2621   */\n      dup3\n        /* \"#utility.yul\":2614:2628   */\n      add\n        /* \"#utility.yul\":2599:2628   */\n      swap1\n      pop\n        /* \"#utility.yul\":2465:2634   */\n      swap3\n      swap2\n      pop\n      pop\n      jump\t// out\n        /* \"#utility.yul\":2640:2886   */\n    tag_192:\n        /* \"#utility.yul\":2721:2722   */\n      0x00\n        /* \"#utility.yul\":2731:2844   */\n    tag_254:\n        /* \"#utility.yul\":2745:2751   */\n      dup4\n        /* \"#utility.yul\":2742:2743   */\n      dup2\n        /* \"#utility.yul\":2739:2752   */\n      lt\n        /* \"#utility.yul\":2731:2844   */\n      iszero\n      tag_256\n      jumpi\n        /* \"#utility.yul\":2830:2831   */\n      dup1\n        /* \"#utility.yul\":2825:2828   */\n      dup3\n        /* \"#utility.yul\":2821:2832   */\n      add\n        /* \"#utility.yul\":2815:2833   */\n      mload\n        /* \"#utility.yul\":2811:2812   */\n      dup2\n        /* \"#utility.yul\":2806:2809   */\n      dup5\n        /* \"#utility.yul\":2802:2813   */\n      add\n        /* \"#utility.yul\":2795:2834   */\n      mstore\n        /* \"#utility.yul\":2767:2769   */\n      0x20\n        /* \"#utility.yul\":2764:2765   */\n      dup2\n        /* \"#utility.yul\":2760:2770   */\n      add\n        /* \"#utility.yul\":2755:2770   */\n      swap1\n      pop\n        /* \"#utility.yul\":2731:2844   */\n      jump(tag_254)\n    tag_256:\n        /* \"#utility.yul\":2878:2879   */\n      0x00\n        /* \"#utility.yul\":2869:2875   */\n      dup5\n        /* \"#utility.yul\":2864:2867   */\n      dup5\n        /* \"#utility.yul\":2860:2876   */\n      add\n        /* \"#utility.yul\":2853:2880   */\n      mstore\n        /* \"#utility.yul\":2702:2886   */\n      pop\n        /* \"#utility.yul\":2640:2886   */\n      pop\n      pop\n      pop\n      jump\t// out\n        /* \"#utility.yul\":2892:2994   */\n    tag_193:\n        /* \"#utility.yul\":2933:2939   */\n      0x00\n        /* \"#utility.yul\":2984:2986   */\n      0x1f\n        /* \"#utility.yul\":2980:2987   */\n      not\n        /* \"#utility.yul\":2975:2977   */\n      0x1f\n        /* \"#utility.yul\":2968:2973   */\n      dup4\n        /* \"#utility.yul\":2964:2978   */\n      add\n        /* \"#utility.yul\":2960:2988   */\n      and\n        /* \"#utility.yul\":2950:2988   */\n      swap1\n      pop\n        /* \"#utility.yul\":2892:2994   */\n      swap2\n      swap1\n      pop\n      jump\t// out\n        /* \"#utility.yul\":3000:3377   */\n    tag_194:\n        /* \"#utility.yul\":3088:3091   */\n      0x00\n        /* \"#utility.yul\":3116:3155   */\n      tag_259\n        /* \"#utility.yul\":3149:3154   */\n      dup3\n        /* \"#utility.yul\":3116:3155   */\n      tag_190\n      jump\t// in\n    tag_259:\n        /* \"#utility.yul\":3171:3242   */\n      tag_260\n        /* \"#utility.yul\":3235:3241   */\n      dup2\n        /* \"#utility.yul\":3230:3233   */\n      dup6\n        /* \"#utility.yul\":3171:3242   */\n      tag_191\n      jump\t// in\n    tag_260:\n        /* \"#utility.yul\":3164:3242   */\n      swap4\n      pop\n        /* \"#utility.yul\":3251:3316   */\n      tag_261\n        /* \"#utility.yul\":3309:3315   */\n      dup2\n        /* \"#utility.yul\":3304:3307   */\n      dup6\n        /* \"#utility.yul\":3297:3301   */\n      0x20\n        /* \"#utility.yul\":3290:3295   */\n      dup7\n        /* \"#utility.yul\":3286:3302   */\n      add\n        /* \"#utility.yul\":3251:3316   */\n      tag_192\n      jump\t// in\n    tag_261:\n        /* \"#utility.yul\":3341:3370   */\n      tag_262\n        /* \"#utility.yul\":3363:3369   */\n      dup2\n        /* \"#utility.yul\":3341:3370   */\n      tag_193\n      jump\t// in\n    tag_262:\n        /* \"#utility.yul\":3336:3339   */\n      dup5\n        /* \"#utility.yul\":3332:3371   */\n      add\n        /* \"#utility.yul\":3325:3371   */\n      swap2\n      pop\n        /* \"#utility.yul\":3092:3377   */\n      pop\n        /* \"#utility.yul\":3000:3377   */\n      swap3\n      swap2\n      pop\n      pop\n      jump\t// out\n        /* \"#utility.yul\":3383:3696   */\n    tag_39:\n        /* \"#utility.yul\":3496:3500   */\n      0x00\n        /* \"#utility.yul\":3534:3536   */\n      0x20\n        /* \"#utility.yul\":3523:3532   */\n      dup3\n        /* \"#utility.yul\":3519:3537   */\n      add\n        /* \"#utility.yul\":3511:3537   */\n      swap1\n      pop\n        /* \"#utility.yul\":3583:3592   */\n      dup2\n        /* \"#utility.yul\":3577:3581   */\n      dup2\n        /* \"#utility.yul\":3573:3593   */\n      sub\n        /* \"#utility.yul\":3569:3570   */\n      0x00\n        /* \"#utility.yul\":3558:3567   */\n      dup4\n        /* \"#utility.yul\":3554:3571   */\n      add\n        /* \"#utility.yul\":3547:3594   */\n      mstore\n        /* \"#utility.yul\":3611:3689   */\n      tag_264\n        /* \"#utility.yul\":3684:3688   */\n      dup2\n        /* \"#utility.yul\":3675:3681   */\n      dup5\n        /* \"#utility.yul\":3611:3689   */\n      tag_194\n      jump\t// in\n    tag_264:\n        /* \"#utility.yul\":3603:3689   */\n      swap1\n      pop\n        /* \"#utility.yul\":3383:3696   */\n      swap3\n      swap2\n      pop\n      pop\n      jump\t// out\n        /* \"#utility.yul\":3702:3779   */\n    tag_195:\n        /* \"#utility.yul\":3739:3746   */\n      0x00\n        /* \"#utility.yul\":3768:3773   */\n      dup2\n        /* \"#utility.yul\":3757:3773   */\n      swap1\n      pop\n        /* \"#utility.yul\":3702:3779   */\n      swap2\n      swap1\n      pop\n      jump\t// out\n        /* \"#utility.yul\":3785:3907   */\n    tag_196:\n        /* \"#utility.yul\":3858:3882   */\n      tag_267\n        /* \"#utility.yul\":3876:3881   */\n      dup2\n        /* \"#utility.yul\":3858:3882   */\n      tag_195\n      jump\t// in\n    tag_267:\n        /* \"#utility.yul\":3851:3856   */\n      dup2\n        /* \"#utility.yul\":3848:3883   */\n      eq\n        /* \"#utility.yul\":3838:3901   */\n      tag_268\n      jumpi\n        /* \"#utility.yul\":3897:3898   */\n      0x00\n        /* \"#utility.yul\":3894:3895   */\n      dup1\n        /* \"#utility.yul\":3887:3899   */\n      revert\n        /* \"#utility.yul\":3838:3901   */\n    tag_268:\n        /* \"#utility.yul\":3785:3907   */\n      pop\n      jump\t// out\n        /* \"#utility.yul\":3913:4052   */\n    tag_197:\n        /* \"#utility.yul\":3959:3964   */\n      0x00\n        /* \"#utility.yul\":3997:4003   */\n      dup2\n        /* \"#utility.yul\":3984:4004   */\n      calldataload\n        /* \"#utility.yul\":3975:4004   */\n      swap1\n      pop\n        /* \"#utility.yul\":4013:4046   */\n      tag_270\n        /* \"#utility.yul\":4040:4045   */\n      dup2\n        /* \"#utility.yul\":4013:4046   */\n      tag_196\n      jump\t// in\n    tag_270:\n        /* \"#utility.yul\":3913:4052   */\n      swap3\n      swap2\n      pop\n      pop\n      jump\t// out\n        /* \"#utility.yul\":4058:4387   */\n    tag_42:\n        /* \"#utility.yul\":4117:4123   */\n      0x00\n        /* \"#utility.yul\":4166:4168   */\n      0x20\n        /* \"#utility.yul\":4154:4163   */\n      dup3\n        /* \"#utility.yul\":4145:4152   */\n      dup5\n        /* \"#utility.yul\":4141:4164   */\n      sub\n        /* \"#utility.yul\":4137:4169   */\n      slt\n        /* \"#utility.yul\":4134:4253   */\n      iszero\n      tag_272\n      jumpi\n        /* \"#utility.yul\":4172:4251   */\n      tag_273\n      tag_179\n      jump\t// in\n    tag_273:\n        /* \"#utility.yul\":4134:4253   */\n    tag_272:\n        /* \"#utility.yul\":4292:4293   */\n      0x00\n        /* \"#utility.yul\":4317:4370   */\n      tag_274\n        /* \"#utility.yul\":4362:4369   */\n      dup5\n        /* \"#utility.yul\":4353:4359   */\n      dup3\n        /* \"#utility.yul\":4342:4351   */\n      dup6\n        /* \"#utility.yul\":4338:4360   */\n      add\n        /* \"#utility.yul\":4317:4370   */\n      tag_197\n      jump\t// in\n    tag_274:\n        /* \"#utility.yul\":4307:4370   */\n      swap2\n      pop\n        /* \"#utility.yul\":4263:4380   */\n      pop\n        /* \"#utility.yul\":4058:4387   */\n      swap3\n      swap2\n      pop\n      pop\n      jump\t// out\n        /* \"#utility.yul\":4393:4511   */\n    tag_198:\n        /* \"#utility.yul\":4480:4504   */\n      tag_276\n        /* \"#utility.yul\":4498:4503   */\n      dup2\n        /* \"#utility.yul\":4480:4504   */\n      tag_187\n      jump\t// in\n    tag_276:\n        /* \"#utility.yul\":4475:4478   */\n      dup3\n        /* \"#utility.yul\":4468:4505   */\n      mstore\n        /* \"#utility.yul\":4393:4511   */\n      pop\n      pop\n      jump\t// out\n        /* \"#utility.yul\":4517:4739   */\n    tag_45:\n        /* \"#utility.yul\":4610:4614   */\n      0x00\n        /* \"#utility.yul\":4648:4650   */\n      0x20\n        /* \"#utility.yul\":4637:4646   */\n      dup3\n        /* \"#utility.yul\":4633:4651   */\n      add\n        /* \"#utility.yul\":4625:4651   */\n      swap1\n      pop\n        /* \"#utility.yul\":4661:4732   */\n      tag_278\n        /* \"#utility.yul\":4729:4730   */\n      0x00\n        /* \"#utility.yul\":4718:4727   */\n      dup4\n        /* \"#utility.yul\":4714:4731   */\n      add\n        /* \"#utility.yul\":4705:4711   */\n      dup5\n        /* \"#utility.yul\":4661:4732   */\n      tag_198\n      jump\t// in\n    tag_278:\n        /* \"#utility.yul\":4517:4739   */\n      swap3\n      swap2\n      pop\n      pop\n      jump\t// out\n        /* \"#utility.yul\":4745:5219   */\n    tag_48:\n        /* \"#utility.yul\":4813:4819   */\n      0x00\n        /* \"#utility.yul\":4821:4827   */\n      dup1\n        /* \"#utility.yul\":4870:4872   */\n      0x40\n        /* \"#utility.yul\":4858:4867   */\n      dup4\n        /* \"#utility.yul\":4849:4856   */\n      dup6\n        /* \"#utility.yul\":4845:4868   */\n      sub\n        /* \"#utility.yul\":4841:4873   */\n      slt\n        /* \"#utility.yul\":4838:4957   */\n      iszero\n      tag_280\n      jumpi\n        /* \"#utility.yul\":4876:4955   */\n      tag_281\n      tag_179\n      jump\t// in\n    tag_281:\n        /* \"#utility.yul\":4838:4957   */\n    tag_280:\n        /* \"#utility.yul\":4996:4997   */\n      0x00\n        /* \"#utility.yul\":5021:5074   */\n      tag_282\n        /* \"#utility.yul\":5066:5073   */\n      dup6\n        /* \"#utility.yul\":5057:5063   */\n      dup3\n        /* \"#utility.yul\":5046:5055   */\n      dup7\n        /* \"#utility.yul\":5042:5064   */\n      add\n        /* \"#utility.yul\":5021:5074   */\n      tag_189\n      jump\t// in\n    tag_282:\n        /* \"#utility.yul\":5011:5074   */\n      swap3\n      pop\n        /* \"#utility.yul\":4967:5084   */\n      pop\n        /* \"#utility.yul\":5123:5125   */\n      0x20\n        /* \"#utility.yul\":5149:5202   */\n      tag_283\n        /* \"#utility.yul\":5194:5201   */\n      dup6\n        /* \"#utility.yul\":5185:5191   */\n      dup3\n        /* \"#utility.yul\":5174:5183   */\n      dup7\n        /* \"#utility.yul\":5170:5192   */\n      add\n        /* \"#utility.yul\":5149:5202   */\n      tag_197\n      jump\t// in\n    tag_283:\n        /* \"#utility.yul\":5139:5202   */\n      swap2\n      pop\n        /* \"#utility.yul\":5094:5212   */\n      pop\n        /* \"#utility.yul\":4745:5219   */\n      swap3\n      pop\n      swap3\n      swap1\n      pop\n      jump\t// out\n        /* \"#utility.yul\":5225:5343   */\n    tag_199:\n        /* \"#utility.yul\":5312:5336   */\n      tag_285\n        /* \"#utility.yul\":5330:5335   */\n      dup2\n        /* \"#utility.yul\":5312:5336   */\n      tag_195\n      jump\t// in\n    tag_285:\n        /* \"#utility.yul\":5307:5310   */\n      dup3\n        /* \"#utility.yul\":5300:5337   */\n      mstore\n        /* \"#utility.yul\":5225:5343   */\n      pop\n      pop\n      jump\t// out\n        /* \"#utility.yul\":5349:5571   */\n    tag_53:\n        /* \"#utility.yul\":5442:5446   */\n      0x00\n        /* \"#utility.yul\":5480:5482   */\n      0x20\n        /* \"#utility.yul\":5469:5478   */\n      dup3\n        /* \"#utility.yul\":5465:5483   */\n      add\n        /* \"#utility.yul\":5457:5483   */\n      swap1\n      pop\n        /* \"#utility.yul\":5493:5564   */\n      tag_287\n        /* \"#utility.yul\":5561:5562   */\n      0x00\n        /* \"#utility.yul\":5550:5559   */\n      dup4\n        /* \"#utility.yul\":5546:5563   */\n      add\n        /* \"#utility.yul\":5537:5543   */\n      dup5\n        /* \"#utility.yul\":5493:5564   */\n      tag_199\n      jump\t// in\n    tag_287:\n        /* \"#utility.yul\":5349:5571   */\n      swap3\n      swap2\n      pop\n      pop\n      jump\t// out\n        /* \"#utility.yul\":5577:6196   */\n    tag_56:\n        /* \"#utility.yul\":5654:5660   */\n      0x00\n        /* \"#utility.yul\":5662:5668   */\n      dup1\n        /* \"#utility.yul\":5670:5676   */\n      0x00\n        /* \"#utility.yul\":5719:5721   */\n      0x60\n        /* \"#utility.yul\":5707:5716   */\n      dup5\n        /* \"#utility.yul\":5698:5705   */\n      dup7\n        /* \"#utility.yul\":5694:5717   */\n      sub\n        /* \"#utility.yul\":5690:5722   */\n      slt\n        /* \"#utility.yul\":5687:5806   */\n      iszero\n      tag_289\n      jumpi\n        /* \"#utility.yul\":5725:5804   */\n      tag_290\n      tag_179\n      jump\t// in\n    tag_290:\n        /* \"#utility.yul\":5687:5806   */\n    tag_289:\n        /* \"#utility.yul\":5845:5846   */\n      0x00\n        /* \"#utility.yul\":5870:5923   */\n      tag_291\n        /* \"#utility.yul\":5915:5922   */\n      dup7\n        /* \"#utility.yul\":5906:5912   */\n      dup3\n        /* \"#utility.yul\":5895:5904   */\n      dup8\n        /* \"#utility.yul\":5891:5913   */\n      add\n        /* \"#utility.yul\":5870:5923   */\n      tag_189\n      jump\t// in\n    tag_291:\n        /* \"#utility.yul\":5860:5923   */\n      swap4\n      pop\n        /* \"#utility.yul\":5816:5933   */\n      pop\n        /* \"#utility.yul\":5972:5974   */\n      0x20\n        /* \"#utility.yul\":5998:6051   */\n      tag_292\n        /* \"#utility.yul\":6043:6050   */\n      dup7\n        /* \"#utility.yul\":6034:6040   */\n      dup3\n        /* \"#utility.yul\":6023:6032   */\n      dup8\n        /* \"#utility.yul\":6019:6041   */\n      add\n        /* \"#utility.yul\":5998:6051   */\n      tag_189\n      jump\t// in\n    tag_292:\n        /* \"#utility.yul\":5988:6051   */\n      swap3\n      pop\n        /* \"#utility.yul\":5943:6061   */\n      pop\n        /* \"#utility.yul\":6100:6102   */\n      0x40\n        /* \"#utility.yul\":6126:6179   */\n      tag_293\n        /* \"#utility.yul\":6171:6178   */\n      dup7\n        /* \"#utility.yul\":6162:6168   */\n      dup3\n        /* \"#utility.yul\":6151:6160   */\n      dup8\n        /* \"#utility.yul\":6147:6169   */\n      add\n        /* \"#utility.yul\":6126:6179   */\n      tag_197\n      jump\t// in\n    tag_293:\n        /* \"#utility.yul\":6116:6179   */\n      swap2\n      pop\n        /* \"#utility.yul\":6071:6189   */\n      pop\n        /* \"#utility.yul\":5577:6196   */\n      swap3\n      pop\n      swap3\n      pop\n      swap3\n      jump\t// out\n        /* \"#utility.yul\":6202:6318   */\n    tag_200:\n        /* \"#utility.yul\":6272:6293   */\n      tag_295\n        /* \"#utility.yul\":6287:6292   */\n      dup2\n        /* \"#utility.yul\":6272:6293   */\n      tag_184\n      jump\t// in\n    tag_295:\n        /* \"#utility.yul\":6265:6270   */\n      dup2\n        /* \"#utility.yul\":6262:6294   */\n      eq\n        /* \"#utility.yul\":6252:6312   */\n      tag_296\n      jumpi\n        /* \"#utility.yul\":6308:6309   */\n      0x00\n        /* \"#utility.yul\":6305:6306   */\n      dup1\n        /* \"#utility.yul\":6298:6310   */\n      revert\n        /* \"#utility.yul\":6252:6312   */\n    tag_296:\n        /* \"#utility.yul\":6202:6318   */\n      pop\n      jump\t// out\n        /* \"#utility.yul\":6324:6457   */\n    tag_201:\n        /* \"#utility.yul\":6367:6372   */\n      0x00\n        /* \"#utility.yul\":6405:6411   */\n      dup2\n        /* \"#utility.yul\":6392:6412   */\n      calldataload\n        /* \"#utility.yul\":6383:6412   */\n      swap1\n      pop\n        /* \"#utility.yul\":6421:6451   */\n      tag_298\n        /* \"#utility.yul\":6445:6450   */\n      dup2\n        /* \"#utility.yul\":6421:6451   */\n      tag_200\n      jump\t// in\n    tag_298:\n        /* \"#utility.yul\":6324:6457   */\n      swap3\n      swap2\n      pop\n      pop\n      jump\t// out\n        /* \"#utility.yul\":6463:6931   */\n    tag_91:\n        /* \"#utility.yul\":6528:6534   */\n      0x00\n        /* \"#utility.yul\":6536:6542   */\n      dup1\n        /* \"#utility.yul\":6585:6587   */\n      0x40\n        /* \"#utility.yul\":6573:6582   */\n      dup4\n        /* \"#utility.yul\":6564:6571   */\n      dup6\n        /* \"#utility.yul\":6560:6583   */\n      sub\n        /* \"#utility.yul\":6556:6588   */\n      slt\n        /* \"#utility.yul\":6553:6672   */\n      iszero\n      tag_300\n      jumpi\n        /* \"#utility.yul\":6591:6670   */\n      tag_301\n      tag_179\n      jump\t// in\n    tag_301:\n        /* \"#utility.yul\":6553:6672   */\n    tag_300:\n        /* \"#utility.yul\":6711:6712   */\n      0x00\n        /* \"#utility.yul\":6736:6789   */\n      tag_302\n        /* \"#utility.yul\":6781:6788   */\n      dup6\n        /* \"#utility.yul\":6772:6778   */\n      dup3\n        /* \"#utility.yul\":6761:6770   */\n      dup7\n        /* \"#utility.yul\":6757:6779   */\n      add\n        /* \"#utility.yul\":6736:6789   */\n      tag_189\n      jump\t// in\n    tag_302:\n        /* \"#utility.yul\":6726:6789   */\n      swap3\n      pop\n        /* \"#utility.yul\":6682:6799   */\n      pop\n        /* \"#utility.yul\":6838:6840   */\n      0x20\n        /* \"#utility.yul\":6864:6914   */\n      tag_303\n        /* \"#utility.yul\":6906:6913   */\n      dup6\n        /* \"#utility.yul\":6897:6903   */\n      dup3\n        /* \"#utility.yul\":6886:6895   */\n      dup7\n        /* \"#utility.yul\":6882:6904   */\n      add\n        /* \"#utility.yul\":6864:6914   */\n      tag_201\n      jump\t// in\n    tag_303:\n        /* \"#utility.yul\":6854:6914   */\n      swap2\n      pop\n        /* \"#utility.yul\":6809:6924   */\n      pop\n        /* \"#utility.yul\":6463:6931   */\n      swap3\n      pop\n      swap3\n      swap1\n      pop\n      jump\t// out\n        /* \"#utility.yul\":6937:7054   */\n    tag_202:\n        /* \"#utility.yul\":7046:7047   */\n      0x00\n        /* \"#utility.yul\":7043:7044   */\n      dup1\n        /* \"#utility.yul\":7036:7048   */\n      revert\n        /* \"#utility.yul\":7060:7177   */\n    tag_203:\n        /* \"#utility.yul\":7169:7170   */\n      0x00\n        /* \"#utility.yul\":7166:7167   */\n      dup1\n        /* \"#utility.yul\":7159:7171   */\n      revert\n        /* \"#utility.yul\":7183:7300   */\n    tag_204:\n        /* \"#utility.yul\":7292:7293   */\n      0x00\n        /* \"#utility.yul\":7289:7290   */\n      dup1\n        /* \"#utility.yul\":7282:7294   */\n      revert\n        /* \"#utility.yul\":7319:7871   */\n    tag_205:\n        /* \"#utility.yul\":7376:7384   */\n      0x00\n        /* \"#utility.yul\":7386:7392   */\n      dup1\n        /* \"#utility.yul\":7436:7439   */\n      dup4\n        /* \"#utility.yul\":7429:7433   */\n      0x1f\n        /* \"#utility.yul\":7421:7427   */\n      dup5\n        /* \"#utility.yul\":7417:7434   */\n      add\n        /* \"#utility.yul\":7413:7440   */\n      slt\n        /* \"#utility.yul\":7403:7525   */\n      tag_308\n      jumpi\n        /* \"#utility.yul\":7444:7523   */\n      tag_309\n      tag_202\n      jump\t// in\n    tag_309:\n        /* \"#utility.yul\":7403:7525   */\n    tag_308:\n        /* \"#utility.yul\":7557:7563   */\n      dup3\n        /* \"#utility.yul\":7544:7564   */\n      calldataload\n        /* \"#utility.yul\":7534:7564   */\n      swap1\n      pop\n        /* \"#utility.yul\":7587:7605   */\n      0xffffffffffffffff\n        /* \"#utility.yul\":7579:7585   */\n      dup2\n        /* \"#utility.yul\":7576:7606   */\n      gt\n        /* \"#utility.yul\":7573:7690   */\n      iszero\n      tag_310\n      jumpi\n        /* \"#utility.yul\":7609:7688   */\n      tag_311\n      tag_203\n      jump\t// in\n    tag_311:\n        /* \"#utility.yul\":7573:7690   */\n    tag_310:\n        /* \"#utility.yul\":7723:7727   */\n      0x20\n        /* \"#utility.yul\":7715:7721   */\n      dup4\n        /* \"#utility.yul\":7711:7728   */\n      add\n        /* \"#utility.yul\":7699:7728   */\n      swap2\n      pop\n        /* \"#utility.yul\":7777:7780   */\n      dup4\n        /* \"#utility.yul\":7769:7773   */\n      0x01\n        /* \"#utility.yul\":7761:7767   */\n      dup3\n        /* \"#utility.yul\":7757:7774   */\n      mul\n        /* \"#utility.yul\":7747:7755   */\n      dup4\n        /* \"#utility.yul\":7743:7775   */\n      add\n        /* \"#utility.yul\":7740:7781   */\n      gt\n        /* \"#utility.yul\":7737:7865   */\n      iszero\n      tag_312\n      jumpi\n        /* \"#utility.yul\":7784:7863   */\n      tag_313\n      tag_204\n      jump\t// in\n    tag_313:\n        /* \"#utility.yul\":7737:7865   */\n    tag_312:\n        /* \"#utility.yul\":7319:7871   */\n      swap3\n      pop\n      swap3\n      swap1\n      pop\n      jump\t// out\n        /* \"#utility.yul\":7877:8840   */\n    tag_95:\n        /* \"#utility.yul\":7974:7980   */\n      0x00\n        /* \"#utility.yul\":7982:7988   */\n      dup1\n        /* \"#utility.yul\":7990:7996   */\n      0x00\n        /* \"#utility.yul\":7998:8004   */\n      dup1\n        /* \"#utility.yul\":8006:8012   */\n      0x00\n        /* \"#utility.yul\":8055:8058   */\n      0x80\n        /* \"#utility.yul\":8043:8052   */\n      dup7\n        /* \"#utility.yul\":8034:8041   */\n      dup9\n        /* \"#utility.yul\":8030:8053   */\n      sub\n        /* \"#utility.yul\":8026:8059   */\n      slt\n        /* \"#utility.yul\":8023:8143   */\n      iszero\n      tag_315\n      jumpi\n        /* \"#utility.yul\":8062:8141   */\n      tag_316\n      tag_179\n      jump\t// in\n    tag_316:\n        /* \"#utility.yul\":8023:8143   */\n    tag_315:\n        /* \"#utility.yul\":8182:8183   */\n      0x00\n        /* \"#utility.yul\":8207:8260   */\n      tag_317\n        /* \"#utility.yul\":8252:8259   */\n      dup9\n        /* \"#utility.yul\":8243:8249   */\n      dup3\n        /* \"#utility.yul\":8232:8241   */\n      dup10\n        /* \"#utility.yul\":8228:8250   */\n      add\n        /* \"#utility.yul\":8207:8260   */\n      tag_189\n      jump\t// in\n    tag_317:\n        /* \"#utility.yul\":8197:8260   */\n      swap6\n      pop\n        /* \"#utility.yul\":8153:8270   */\n      pop\n        /* \"#utility.yul\":8309:8311   */\n      0x20\n        /* \"#utility.yul\":8335:8388   */\n      tag_318\n        /* \"#utility.yul\":8380:8387   */\n      dup9\n        /* \"#utility.yul\":8371:8377   */\n      dup3\n        /* \"#utility.yul\":8360:8369   */\n      dup10\n        /* \"#utility.yul\":8356:8378   */\n      add\n        /* \"#utility.yul\":8335:8388   */\n      tag_189\n      jump\t// in\n    tag_318:\n        /* \"#utility.yul\":8325:8388   */\n      swap5\n      pop\n        /* \"#utility.yul\":8280:8398   */\n      pop\n        /* \"#utility.yul\":8437:8439   */\n      0x40\n        /* \"#utility.yul\":8463:8516   */\n      tag_319\n        /* \"#utility.yul\":8508:8515   */\n      dup9\n        /* \"#utility.yul\":8499:8505   */\n      dup3\n        /* \"#utility.yul\":8488:8497   */\n      dup10\n        /* \"#utility.yul\":8484:8506   */\n      add\n        /* \"#utility.yul\":8463:8516   */\n      tag_197\n      jump\t// in\n    tag_319:\n        /* \"#utility.yul\":8453:8516   */\n      swap4\n      pop\n        /* \"#utility.yul\":8408:8526   */\n      pop\n        /* \"#utility.yul\":8593:8595   */\n      0x60\n        /* \"#utility.yul\":8582:8591   */\n      dup7\n        /* \"#utility.yul\":8578:8596   */\n      add\n        /* \"#utility.yul\":8565:8597   */\n      calldataload\n        /* \"#utility.yul\":8624:8642   */\n      0xffffffffffffffff\n        /* \"#utility.yul\":8616:8622   */\n      dup2\n        /* \"#utility.yul\":8613:8643   */\n      gt\n        /* \"#utility.yul\":8610:8727   */\n      iszero\n      tag_320\n      jumpi\n        /* \"#utility.yul\":8646:8725   */\n      tag_321\n      tag_180\n      jump\t// in\n    tag_321:\n        /* \"#utility.yul\":8610:8727   */\n    tag_320:\n        /* \"#utility.yul\":8759:8823   */\n      tag_322\n        /* \"#utility.yul\":8815:8822   */\n      dup9\n        /* \"#utility.yul\":8806:8812   */\n      dup3\n        /* \"#utility.yul\":8795:8804   */\n      dup10\n        /* \"#utility.yul\":8791:8813   */\n      add\n        /* \"#utility.yul\":8759:8823   */\n      tag_205\n      jump\t// in\n    tag_322:\n        /* \"#utility.yul\":8741:8823   */\n      swap3\n      pop\n      swap3\n      pop\n        /* \"#utility.yul\":8536:8833   */\n      pop\n        /* \"#utility.yul\":7877:8840   */\n      swap3\n      swap6\n      pop\n      swap3\n      swap6\n      swap1\n      swap4\n      pop\n      jump\t// out\n        /* \"#utility.yul\":8846:9320   */\n    tag_103:\n        /* \"#utility.yul\":8914:8920   */\n      0x00\n        /* \"#utility.yul\":8922:8928   */\n      dup1\n        /* \"#utility.yul\":8971:8973   */\n      0x40\n        /* \"#utility.yul\":8959:8968   */\n      dup4\n        /* \"#utility.yul\":8950:8957   */\n      dup6\n        /* \"#utility.yul\":8946:8969   */\n      sub\n        /* \"#utility.yul\":8942:8974   */\n      slt\n        /* \"#utility.yul\":8939:9058   */\n      iszero\n      tag_324\n      jumpi\n        /* \"#utility.yul\":8977:9056   */\n      tag_325\n      tag_179\n      jump\t// in\n    tag_325:\n        /* \"#utility.yul\":8939:9058   */\n    tag_324:\n        /* \"#utility.yul\":9097:9098   */\n      0x00\n        /* \"#utility.yul\":9122:9175   */\n      tag_326\n        /* \"#utility.yul\":9167:9174   */\n      dup6\n        /* \"#utility.yul\":9158:9164   */\n      dup3\n        /* \"#utility.yul\":9147:9156   */\n      dup7\n        /* \"#utility.yul\":9143:9165   */\n      add\n        /* \"#utility.yul\":9122:9175   */\n      tag_189\n      jump\t// in\n    tag_326:\n        /* \"#utility.yul\":9112:9175   */\n      swap3\n      pop\n        /* \"#utility.yul\":9068:9185   */\n      pop\n        /* \"#utility.yul\":9224:9226   */\n      0x20\n        /* \"#utility.yul\":9250:9303   */\n      tag_327\n        /* \"#utility.yul\":9295:9302   */\n      dup6\n        /* \"#utility.yul\":9286:9292   */\n      dup3\n        /* \"#utility.yul\":9275:9284   */\n      dup7\n        /* \"#utility.yul\":9271:9293   */\n      add\n        /* \"#utility.yul\":9250:9303   */\n      tag_189\n      jump\t// in\n    tag_327:\n        /* \"#utility.yul\":9240:9303   */\n      swap2\n      pop\n        /* \"#utility.yul\":9195:9313   */\n      pop\n        /* \"#utility.yul\":8846:9320   */\n      swap3\n      pop\n      swap3\n      swap1\n      pop\n      jump\t// out\n        /* \"#utility.yul\":9326:9506   */\n    tag_206:\n        /* \"#utility.yul\":9374:9451   */\n      0x4e487b7100000000000000000000000000000000000000000000000000000000\n        /* \"#utility.yul\":9371:9372   */\n      0x00\n        /* \"#utility.yul\":9364:9452   */\n      mstore\n        /* \"#utility.yul\":9471:9475   */\n      0x22\n        /* \"#utility.yul\":9468:9469   */\n      0x04\n        /* \"#utility.yul\":9461:9476   */\n      mstore\n        /* \"#utility.yul\":9495:9499   */\n      0x24\n        /* \"#utility.yul\":9492:9493   */\n      0x00\n        /* \"#utility.yul\":9485:9500   */\n      revert\n        /* \"#utility.yul\":9512:9832   */\n    tag_114:\n        /* \"#utility.yul\":9556:9562   */\n      0x00\n        /* \"#utility.yul\":9593:9594   */\n      0x02\n        /* \"#utility.yul\":9587:9591   */\n      dup3\n        /* \"#utility.yul\":9583:9595   */\n      div\n        /* \"#utility.yul\":9573:9595   */\n      swap1\n      pop\n        /* \"#utility.yul\":9640:9641   */\n      0x01\n        /* \"#utility.yul\":9634:9638   */\n      dup3\n        /* \"#utility.yul\":9630:9642   */\n      and\n        /* \"#utility.yul\":9661:9679   */\n      dup1\n        /* \"#utility.yul\":9651:9732   */\n      tag_330\n      jumpi\n        /* \"#utility.yul\":9717:9721   */\n      0x7f\n        /* \"#utility.yul\":9709:9715   */\n      dup3\n        /* \"#utility.yul\":9705:9722   */\n      and\n        /* \"#utility.yul\":9695:9722   */\n      swap2\n      pop\n        /* \"#utility.yul\":9651:9732   */\n    tag_330:\n        /* \"#utility.yul\":9779:9781   */\n      0x20\n        /* \"#utility.yul\":9771:9777   */\n      dup3\n        /* \"#utility.yul\":9768:9782   */\n      lt\n        /* \"#utility.yul\":9748:9766   */\n      dup2\n        /* \"#utility.yul\":9745:9783   */\n      sub\n        /* \"#utility.yul\":9742:9826   */\n      tag_331\n      jumpi\n        /* \"#utility.yul\":9798:9816   */\n      tag_332\n      tag_206\n      jump\t// in\n    tag_332:\n        /* \"#utility.yul\":9742:9826   */\n    tag_331:\n        /* \"#utility.yul\":9563:9832   */\n      pop\n        /* \"#utility.yul\":9512:9832   */\n      swap2\n      swap1\n      pop\n      jump\t// out\n        /* \"#utility.yul\":9838:10006   */\n    tag_207:\n        /* \"#utility.yul\":9921:9932   */\n      0x00\n        /* \"#utility.yul\":9955:9961   */\n      dup3\n        /* \"#utility.yul\":9950:9953   */\n      dup3\n        /* \"#utility.yul\":9943:9962   */\n      mstore\n        /* \"#utility.yul\":9995:9999   */\n      0x20\n        /* \"#utility.yul\":9990:9993   */\n      dup3\n        /* \"#utility.yul\":9986:10000   */\n      add\n        /* \"#utility.yul\":9971:10000   */\n      swap1\n      pop\n        /* \"#utility.yul\":9838:10006   */\n      swap3\n      swap2\n      pop\n      pop\n      jump\t// out\n        /* \"#utility.yul\":10012:10126   */\n    tag_208:\n      pop\n      jump\t// out\n        /* \"#utility.yul\":10132:10494   */\n    tag_209:\n        /* \"#utility.yul\":10273:10276   */\n      0x00\n        /* \"#utility.yul\":10294:10359   */\n      tag_336\n        /* \"#utility.yul\":10357:10358   */\n      0x00\n        /* \"#utility.yul\":10352:10355   */\n      dup4\n        /* \"#utility.yul\":10294:10359   */\n      tag_207\n      jump\t// in\n    tag_336:\n        /* \"#utility.yul\":10287:10359   */\n      swap2\n      pop\n        /* \"#utility.yul\":10368:10461   */\n      tag_337\n        /* \"#utility.yul\":10457:10460   */\n      dup3\n        /* \"#utility.yul\":10368:10461   */\n      tag_208\n      jump\t// in\n    tag_337:\n        /* \"#utility.yul\":10486:10487   */\n      0x00\n        /* \"#utility.yul\":10481:10484   */\n      dup3\n        /* \"#utility.yul\":10477:10488   */\n      add\n        /* \"#utility.yul\":10470:10488   */\n      swap1\n      pop\n        /* \"#utility.yul\":10132:10494   */\n      swap2\n      swap1\n      pop\n      jump\t// out\n        /* \"#utility.yul\":10500:11248   */\n    tag_133:\n        /* \"#utility.yul\":10749:10753   */\n      0x00\n        /* \"#utility.yul\":10787:10790   */\n      0x80\n        /* \"#utility.yul\":10776:10785   */\n      dup3\n        /* \"#utility.yul\":10772:10791   */\n      add\n        /* \"#utility.yul\":10764:10791   */\n      swap1\n      pop\n        /* \"#utility.yul\":10801:10872   */\n      tag_339\n        /* \"#utility.yul\":10869:10870   */\n      0x00\n        /* \"#utility.yul\":10858:10867   */\n      dup4\n        /* \"#utility.yul\":10854:10871   */\n      add\n        /* \"#utility.yul\":10845:10851   */\n      dup7\n        /* \"#utility.yul\":10801:10872   */\n      tag_198\n      jump\t// in\n    tag_339:\n        /* \"#utility.yul\":10882:10954   */\n      tag_340\n        /* \"#utility.yul\":10950:10952   */\n      0x20\n        /* \"#utility.yul\":10939:10948   */\n      dup4\n        /* \"#utility.yul\":10935:10953   */\n      add\n        /* \"#utility.yul\":10926:10932   */\n      dup6\n        /* \"#utility.yul\":10882:10954   */\n      tag_198\n      jump\t// in\n    tag_340:\n        /* \"#utility.yul\":10964:11036   */\n      tag_341\n        /* \"#utility.yul\":11032:11034   */\n      0x40\n        /* \"#utility.yul\":11021:11030   */\n      dup4\n        /* \"#utility.yul\":11017:11035   */\n      add\n        /* \"#utility.yul\":11008:11014   */\n      dup5\n        /* \"#utility.yul\":10964:11036   */\n      tag_199\n      jump\t// in\n    tag_341:\n        /* \"#utility.yul\":11083:11092   */\n      dup2\n        /* \"#utility.yul\":11077:11081   */\n      dup2\n        /* \"#utility.yul\":11073:11093   */\n      sub\n        /* \"#utility.yul\":11068:11070   */\n      0x60\n        /* \"#utility.yul\":11057:11066   */\n      dup4\n        /* \"#utility.yul\":11053:11071   */\n      add\n        /* \"#utility.yul\":11046:11094   */\n      mstore\n        /* \"#utility.yul\":11111:11241   */\n      tag_342\n        /* \"#utility.yul\":11236:11240   */\n      dup2\n        /* \"#utility.yul\":11111:11241   */\n      tag_209\n      jump\t// in\n    tag_342:\n        /* \"#utility.yul\":11103:11241   */\n      swap1\n      pop\n        /* \"#utility.yul\":10500:11248   */\n      swap5\n      swap4\n      pop\n      pop\n      pop\n      pop\n      jump\t// out\n        /* \"#utility.yul\":11254:11395   */\n    tag_210:\n        /* \"#utility.yul\":11310:11315   */\n      0x00\n        /* \"#utility.yul\":11341:11347   */\n      dup2\n        /* \"#utility.yul\":11335:11348   */\n      mload\n        /* \"#utility.yul\":11326:11348   */\n      swap1\n      pop\n        /* \"#utility.yul\":11357:11389   */\n      tag_344\n        /* \"#utility.yul\":11383:11388   */\n      dup2\n        /* \"#utility.yul\":11357:11389   */\n      tag_182\n      jump\t// in\n    tag_344:\n        /* \"#utility.yul\":11254:11395   */\n      swap3\n      swap2\n      pop\n      pop\n      jump\t// out\n        /* \"#utility.yul\":11401:11750   */\n    tag_137:\n        /* \"#utility.yul\":11470:11476   */\n      0x00\n        /* \"#utility.yul\":11519:11521   */\n      0x20\n        /* \"#utility.yul\":11507:11516   */\n      dup3\n        /* \"#utility.yul\":11498:11505   */\n      dup5\n        /* \"#utility.yul\":11494:11517   */\n      sub\n        /* \"#utility.yul\":11490:11522   */\n      slt\n        /* \"#utility.yul\":11487:11606   */\n      iszero\n      tag_346\n      jumpi\n        /* \"#utility.yul\":11525:11604   */\n      tag_347\n      tag_179\n      jump\t// in\n    tag_347:\n        /* \"#utility.yul\":11487:11606   */\n    tag_346:\n        /* \"#utility.yul\":11645:11646   */\n      0x00\n        /* \"#utility.yul\":11670:11733   */\n      tag_348\n        /* \"#utility.yul\":11725:11732   */\n      dup5\n        /* \"#utility.yul\":11716:11722   */\n      dup3\n        /* \"#utility.yul\":11705:11714   */\n      dup6\n        /* \"#utility.yul\":11701:11723   */\n      add\n        /* \"#utility.yul\":11670:11733   */\n      tag_210\n      jump\t// in\n    tag_348:\n        /* \"#utility.yul\":11660:11733   */\n      swap2\n      pop\n        /* \"#utility.yul\":11616:11743   */\n      pop\n        /* \"#utility.yul\":11401:11750   */\n      swap3\n      swap2\n      pop\n      pop\n      jump\t// out\n        /* \"#utility.yul\":11756:11902   */\n    tag_211:\n        /* \"#utility.yul\":11853:11859   */\n      dup3\n        /* \"#utility.yul\":11848:11851   */\n      dup2\n        /* \"#utility.yul\":11843:11846   */\n      dup4\n        /* \"#utility.yul\":11830:11860   */\n      calldatacopy\n        /* \"#utility.yul\":11894:11895   */\n      0x00\n        /* \"#utility.yul\":11885:11891   */\n      dup4\n        /* \"#utility.yul\":11880:11883   */\n      dup4\n        /* \"#utility.yul\":11876:11892   */\n      add\n        /* \"#utility.yul\":11869:11896   */\n      mstore\n        /* \"#utility.yul\":11756:11902   */\n      pop\n      pop\n      pop\n      jump\t// out\n        /* \"#utility.yul\":11930:12244   */\n    tag_212:\n        /* \"#utility.yul\":12026:12029   */\n      0x00\n        /* \"#utility.yul\":12047:12117   */\n      tag_351\n        /* \"#utility.yul\":12110:12116   */\n      dup4\n        /* \"#utility.yul\":12105:12108   */\n      dup6\n        /* \"#utility.yul\":12047:12117   */\n      tag_207\n      jump\t// in\n    tag_351:\n        /* \"#utility.yul\":12040:12117   */\n      swap4\n      pop\n        /* \"#utility.yul\":12127:12183   */\n      tag_352\n        /* \"#utility.yul\":12176:12182   */\n      dup4\n        /* \"#utility.yul\":12171:12174   */\n      dup6\n        /* \"#utility.yul\":12164:12169   */\n      dup5\n        /* \"#utility.yul\":12127:12183   */\n      tag_211\n      jump\t// in\n    tag_352:\n        /* \"#utility.yul\":12208:12237   */\n      tag_353\n        /* \"#utility.yul\":12230:12236   */\n      dup4\n        /* \"#utility.yul\":12208:12237   */\n      tag_193\n      jump\t// in\n    tag_353:\n        /* \"#utility.yul\":12203:12206   */\n      dup5\n        /* \"#utility.yul\":12199:12238   */\n      add\n        /* \"#utility.yul\":12192:12238   */\n      swap1\n      pop\n        /* \"#utility.yul\":11930:12244   */\n      swap4\n      swap3\n      pop\n      pop\n      pop\n      jump\t// out\n        /* \"#utility.yul\":12250:12910   */\n    tag_166:\n        /* \"#utility.yul\":12455:12459   */\n      0x00\n        /* \"#utility.yul\":12493:12496   */\n      0x80\n        /* \"#utility.yul\":12482:12491   */\n      dup3\n        /* \"#utility.yul\":12478:12497   */\n      add\n        /* \"#utility.yul\":12470:12497   */\n      swap1\n      pop\n        /* \"#utility.yul\":12507:12578   */\n      tag_355\n        /* \"#utility.yul\":12575:12576   */\n      0x00\n        /* \"#utility.yul\":12564:12573   */\n      dup4\n        /* \"#utility.yul\":12560:12577   */\n      add\n        /* \"#utility.yul\":12551:12557   */\n      dup9\n        /* \"#utility.yul\":12507:12578   */\n      tag_198\n      jump\t// in\n    tag_355:\n        /* \"#utility.yul\":12588:12660   */\n      tag_356\n        /* \"#utility.yul\":12656:12658   */\n      0x20\n        /* \"#utility.yul\":12645:12654   */\n      dup4\n        /* \"#utility.yul\":12641:12659   */\n      add\n        /* \"#utility.yul\":12632:12638   */\n      dup8\n        /* \"#utility.yul\":12588:12660   */\n      tag_198\n      jump\t// in\n    tag_356:\n        /* \"#utility.yul\":12670:12742   */\n      tag_357\n        /* \"#utility.yul\":12738:12740   */\n      0x40\n        /* \"#utility.yul\":12727:12736   */\n      dup4\n        /* \"#utility.yul\":12723:12741   */\n      add\n        /* \"#utility.yul\":12714:12720   */\n      dup7\n        /* \"#utility.yul\":12670:12742   */\n      tag_199\n      jump\t// in\n    tag_357:\n        /* \"#utility.yul\":12789:12798   */\n      dup2\n        /* \"#utility.yul\":12783:12787   */\n      dup2\n        /* \"#utility.yul\":12779:12799   */\n      sub\n        /* \"#utility.yul\":12774:12776   */\n      0x60\n        /* \"#utility.yul\":12763:12772   */\n      dup4\n        /* \"#utility.yul\":12759:12777   */\n      add\n        /* \"#utility.yul\":12752:12800   */\n      mstore\n        /* \"#utility.yul\":12817:12903   */\n      tag_358\n        /* \"#utility.yul\":12898:12902   */\n      dup2\n        /* \"#utility.yul\":12889:12895   */\n      dup5\n        /* \"#utility.yul\":12881:12887   */\n      dup7\n        /* \"#utility.yul\":12817:12903   */\n      tag_212\n      jump\t// in\n    tag_358:\n        /* \"#utility.yul\":12809:12903   */\n      swap1\n      pop\n        /* \"#utility.yul\":12250:12910   */\n      swap7\n      swap6\n      pop\n      pop\n      pop\n      pop\n      pop\n      pop\n      jump\t// out\n        /* \"#utility.yul\":12916:13033   */\n    tag_213:\n        /* \"#utility.yul\":13025:13026   */\n      0x00\n        /* \"#utility.yul\":13022:13023   */\n      dup1\n        /* \"#utility.yul\":13015:13027   */\n      revert\n        /* \"#utility.yul\":13039:13219   */\n    tag_214:\n        /* \"#utility.yul\":13087:13164   */\n      0x4e487b7100000000000000000000000000000000000000000000000000000000\n        /* \"#utility.yul\":13084:13085   */\n      0x00\n        /* \"#utility.yul\":13077:13165   */\n      mstore\n        /* \"#utility.yul\":13184:13188   */\n      0x41\n        /* \"#utility.yul\":13181:13182   */\n      0x04\n        /* \"#utility.yul\":13174:13189   */\n      mstore\n        /* \"#utility.yul\":13208:13212   */\n      0x24\n        /* \"#utility.yul\":13205:13206   */\n      0x00\n        /* \"#utility.yul\":13198:13213   */\n      revert\n        /* \"#utility.yul\":13225:13506   */\n    tag_215:\n        /* \"#utility.yul\":13308:13335   */\n      tag_362\n        /* \"#utility.yul\":13330:13334   */\n      dup3\n        /* \"#utility.yul\":13308:13335   */\n      tag_193\n      jump\t// in\n    tag_362:\n        /* \"#utility.yul\":13300:13306   */\n      dup2\n        /* \"#utility.yul\":13296:13336   */\n      add\n        /* \"#utility.yul\":13438:13444   */\n      dup2\n        /* \"#utility.yul\":13426:13436   */\n      dup2\n        /* \"#utility.yul\":13423:13445   */\n      lt\n        /* \"#utility.yul\":13402:13420   */\n      0xffffffffffffffff\n        /* \"#utility.yul\":13390:13400   */\n      dup3\n        /* \"#utility.yul\":13387:13421   */\n      gt\n        /* \"#utility.yul\":13384:13446   */\n      or\n        /* \"#utility.yul\":13381:13469   */\n      iszero\n      tag_363\n      jumpi\n        /* \"#utility.yul\":13449:13467   */\n      tag_364\n      tag_214\n      jump\t// in\n    tag_364:\n        /* \"#utility.yul\":13381:13469   */\n    tag_363:\n        /* \"#utility.yul\":13489:13499   */\n      dup1\n        /* \"#utility.yul\":13485:13487   */\n      0x40\n        /* \"#utility.yul\":13478:13500   */\n      mstore\n        /* \"#utility.yul\":13268:13506   */\n      pop\n        /* \"#utility.yul\":13225:13506   */\n      pop\n      pop\n      jump\t// out\n        /* \"#utility.yul\":13512:13641   */\n    tag_216:\n        /* \"#utility.yul\":13546:13552   */\n      0x00\n        /* \"#utility.yul\":13573:13593   */\n      tag_366\n      tag_178\n      jump\t// in\n    tag_366:\n        /* \"#utility.yul\":13563:13593   */\n      swap1\n      pop\n        /* \"#utility.yul\":13602:13635   */\n      tag_367\n        /* \"#utility.yul\":13630:13634   */\n      dup3\n        /* \"#utility.yul\":13622:13628   */\n      dup3\n        /* \"#utility.yul\":13602:13635   */\n      tag_215\n      jump\t// in\n    tag_367:\n        /* \"#utility.yul\":13512:13641   */\n      swap2\n      swap1\n      pop\n      jump\t// out\n        /* \"#utility.yul\":13647:13955   */\n    tag_217:\n        /* \"#utility.yul\":13709:13713   */\n      0x00\n        /* \"#utility.yul\":13799:13817   */\n      0xffffffffffffffff\n        /* \"#utility.yul\":13791:13797   */\n      dup3\n        /* \"#utility.yul\":13788:13818   */\n      gt\n        /* \"#utility.yul\":13785:13841   */\n      iszero\n      tag_369\n      jumpi\n        /* \"#utility.yul\":13821:13839   */\n      tag_370\n      tag_214\n      jump\t// in\n    tag_370:\n        /* \"#utility.yul\":13785:13841   */\n    tag_369:\n        /* \"#utility.yul\":13859:13888   */\n      tag_371\n        /* \"#utility.yul\":13881:13887   */\n      dup3\n        /* \"#utility.yul\":13859:13888   */\n      tag_193\n      jump\t// in\n    tag_371:\n        /* \"#utility.yul\":13851:13888   */\n      swap1\n      pop\n        /* \"#utility.yul\":13943:13947   */\n      0x20\n        /* \"#utility.yul\":13937:13941   */\n      dup2\n        /* \"#utility.yul\":13933:13948   */\n      add\n        /* \"#utility.yul\":13925:13948   */\n      swap1\n      pop\n        /* \"#utility.yul\":13647:13955   */\n      swap2\n      swap1\n      pop\n      jump\t// out\n        /* \"#utility.yul\":13961:14395   */\n    tag_218:\n        /* \"#utility.yul\":14050:14055   */\n      0x00\n        /* \"#utility.yul\":14075:14141   */\n      tag_373\n        /* \"#utility.yul\":14091:14140   */\n      tag_374\n        /* \"#utility.yul\":14133:14139   */\n      dup5\n        /* \"#utility.yul\":14091:14140   */\n      tag_217\n      jump\t// in\n    tag_374:\n        /* \"#utility.yul\":14075:14141   */\n      tag_216\n      jump\t// in\n    tag_373:\n        /* \"#utility.yul\":14066:14141   */\n      swap1\n      pop\n        /* \"#utility.yul\":14164:14170   */\n      dup3\n        /* \"#utility.yul\":14157:14162   */\n      dup2\n        /* \"#utility.yul\":14150:14171   */\n      mstore\n        /* \"#utility.yul\":14202:14206   */\n      0x20\n        /* \"#utility.yul\":14195:14200   */\n      dup2\n        /* \"#utility.yul\":14191:14207   */\n      add\n        /* \"#utility.yul\":14240:14243   */\n      dup5\n        /* \"#utility.yul\":14231:14237   */\n      dup5\n        /* \"#utility.yul\":14226:14229   */\n      dup5\n        /* \"#utility.yul\":14222:14238   */\n      add\n        /* \"#utility.yul\":14219:14244   */\n      gt\n        /* \"#utility.yul\":14216:14328   */\n      iszero\n      tag_375\n      jumpi\n        /* \"#utility.yul\":14247:14326   */\n      tag_376\n      tag_213\n      jump\t// in\n    tag_376:\n        /* \"#utility.yul\":14216:14328   */\n    tag_375:\n        /* \"#utility.yul\":14337:14389   */\n      tag_377\n        /* \"#utility.yul\":14382:14388   */\n      dup5\n        /* \"#utility.yul\":14377:14380   */\n      dup3\n        /* \"#utility.yul\":14372:14375   */\n      dup6\n        /* \"#utility.yul\":14337:14389   */\n      tag_192\n      jump\t// in\n    tag_377:\n        /* \"#utility.yul\":14056:14395   */\n      pop\n        /* \"#utility.yul\":13961:14395   */\n      swap4\n      swap3\n      pop\n      pop\n      pop\n      jump\t// out\n        /* \"#utility.yul\":14415:14770   */\n    tag_219:\n        /* \"#utility.yul\":14482:14487   */\n      0x00\n        /* \"#utility.yul\":14531:14534   */\n      dup3\n        /* \"#utility.yul\":14524:14528   */\n      0x1f\n        /* \"#utility.yul\":14516:14522   */\n      dup4\n        /* \"#utility.yul\":14512:14529   */\n      add\n        /* \"#utility.yul\":14508:14535   */\n      slt\n        /* \"#utility.yul\":14498:14620   */\n      tag_379\n      jumpi\n        /* \"#utility.yul\":14539:14618   */\n      tag_380\n      tag_202\n      jump\t// in\n    tag_380:\n        /* \"#utility.yul\":14498:14620   */\n    tag_379:\n        /* \"#utility.yul\":14649:14655   */\n      dup2\n        /* \"#utility.yul\":14643:14656   */\n      mload\n        /* \"#utility.yul\":14674:14764   */\n      tag_381\n        /* \"#utility.yul\":14760:14763   */\n      dup5\n        /* \"#utility.yul\":14752:14758   */\n      dup3\n        /* \"#utility.yul\":14745:14749   */\n      0x20\n        /* \"#utility.yul\":14737:14743   */\n      dup7\n        /* \"#utility.yul\":14733:14750   */\n      add\n        /* \"#utility.yul\":14674:14764   */\n      tag_218\n      jump\t// in\n    tag_381:\n        /* \"#utility.yul\":14665:14764   */\n      swap2\n      pop\n        /* \"#utility.yul\":14488:14770   */\n      pop\n        /* \"#utility.yul\":14415:14770   */\n      swap3\n      swap2\n      pop\n      pop\n      jump\t// out\n        /* \"#utility.yul\":14776:15300   */\n    tag_177:\n        /* \"#utility.yul\":14856:14862   */\n      0x00\n        /* \"#utility.yul\":14905:14907   */\n      0x20\n        /* \"#utility.yul\":14893:14902   */\n      dup3\n        /* \"#utility.yul\":14884:14891   */\n      dup5\n        /* \"#utility.yul\":14880:14903   */\n      sub\n        /* \"#utility.yul\":14876:14908   */\n      slt\n        /* \"#utility.yul\":14873:14992   */\n      iszero\n      tag_383\n      jumpi\n        /* \"#utility.yul\":14911:14990   */\n      tag_384\n      tag_179\n      jump\t// in\n    tag_384:\n        /* \"#utility.yul\":14873:14992   */\n    tag_383:\n        /* \"#utility.yul\":15052:15053   */\n      0x00\n        /* \"#utility.yul\":15041:15050   */\n      dup3\n        /* \"#utility.yul\":15037:15054   */\n      add\n        /* \"#utility.yul\":15031:15055   */\n      mload\n        /* \"#utility.yul\":15082:15100   */\n      0xffffffffffffffff\n        /* \"#utility.yul\":15074:15080   */\n      dup2\n        /* \"#utility.yul\":15071:15101   */\n      gt\n        /* \"#utility.yul\":15068:15185   */\n      iszero\n      tag_385\n      jumpi\n        /* \"#utility.yul\":15104:15183   */\n      tag_386\n      tag_180\n      jump\t// in\n    tag_386:\n        /* \"#utility.yul\":15068:15185   */\n    tag_385:\n        /* \"#utility.yul\":15209:15283   */\n      tag_387\n        /* \"#utility.yul\":15275:15282   */\n      dup5\n        /* \"#utility.yul\":15266:15272   */\n      dup3\n        /* \"#utility.yul\":15255:15264   */\n      dup6\n        /* \"#utility.yul\":15251:15273   */\n      add\n        /* \"#utility.yul\":15209:15283   */\n      tag_219\n      jump\t// in\n    tag_387:\n        /* \"#utility.yul\":15199:15283   */\n      swap2\n      pop\n        /* \"#utility.yul\":15002:15293   */\n      pop\n        /* \"#utility.yul\":14776:15300   */\n      swap3\n      swap2\n      pop\n      pop\n      jump\t// out\n\n    auxdata: 0xa2646970667358221220dd7e1521a1a789a83a6ad6c65cf3b9b05e99b5cc75ca62f716081f0a8450819d64736f6c63430008130033\n}\n",
				"bytecode": {
					"linkReferences": {},
					"object": "60806040523480156200001157600080fd5b506040516200275e3803806200275e8339818101604052810190620000379190620002df565b8360009081620000489190620005da565b5082600190816200005a9190620005da565b50816006600c6101000a81548173ffffffffffffffffffffffffffffffffffffffff021916908373ffffffffffffffffffffffffffffffffffffffff16021790555080600760006101000a81548173ffffffffffffffffffffffffffffffffffffffff021916908373ffffffffffffffffffffffffffffffffffffffff16021790555050505050620006c1565b6000604051905090565b600080fd5b600080fd5b600080fd5b600080fd5b6000601f19601f8301169050919050565b7f4e487b7100000000000000000000000000000000000000000000000000000000600052604160045260246000fd5b620001508262000105565b810181811067ffffffffffffffff8211171562000172576200017162000116565b5b80604052505050565b600062000187620000e7565b905062000195828262000145565b919050565b600067ffffffffffffffff821115620001b857620001b762000116565b5b620001c38262000105565b9050602081019050919050565b60005b83811015620001f0578082015181840152602081019050620001d3565b60008484015250505050565b6000620002136200020d846200019a565b6200017b565b90508281526020810184848401111562000232576200023162000100565b5b6200023f848285620001d0565b509392505050565b600082601f8301126200025f576200025e620000fb565b5b815162000271848260208601620001fc565b91505092915050565b600073ffffffffffffffffffffffffffffffffffffffff82169050919050565b6000620002a7826200027a565b9050919050565b620002b9816200029a565b8114620002c557600080fd5b50565b600081519050620002d981620002ae565b92915050565b60008060008060808587031215620002fc57620002fb620000f1565b5b600085015167ffffffffffffffff8111156200031d576200031c620000f6565b5b6200032b8782880162000247565b945050602085015167ffffffffffffffff8111156200034f576200034e620000f6565b5b6200035d8782880162000247565b93505060406200037087828801620002c8565b92505060606200038387828801620002c8565b91505092959194509250565b600081519050919050565b7f4e487b7100000000000000000000000000000000000000000000000000000000600052602260045260246000fd5b60006002820490506001821680620003e257607f821691505b602082108103620003f857620003f76200039a565b5b50919050565b60008190508160005260206000209050919050565b60006020601f8301049050919050565b600082821b905092915050565b600060088302620004627fffffffffffffffffffffffffffffffffffffffffffffffffffffffffffffffff8262000423565b6200046e868362000423565b95508019841693508086168417925050509392505050565b6000819050919050565b6000819050919050565b6000620004bb620004b5620004af8462000486565b62000490565b62000486565b9050919050565b6000819050919050565b620004d7836200049a565b620004ef620004e682620004c2565b84845462000430565b825550505050565b600090565b62000506620004f7565b62000513818484620004cc565b505050565b5b818110156200053b576200052f600082620004fc565b60018101905062000519565b5050565b601f8211156200058a576200055481620003fe565b6200055f8462000413565b810160208510156200056f578190505b620005876200057e8562000413565b83018262000518565b50505b505050565b600082821c905092915050565b6000620005af600019846008026200058f565b1980831691505092915050565b6000620005ca83836200059c565b9150826002028217905092915050565b620005e5826200038f565b67ffffffffffffffff81111562000601576200060062000116565b5b6200060d8254620003c9565b6200061a8282856200053f565b600060209050601f8311600181146200065257600084156200063d578287015190505b620006498582620005bc565b865550620006b9565b601f1984166200066286620003fe565b60005b828110156200068c5784890151825560018201915060208501945060208101905062000665565b86831015620006ac5784890151620006a8601f8916826200059c565b8355505b6001600288020188555050505b505050505050565b61208d80620006d16000396000f3fe608060405234801561001057600080fd5b506004361061012c5760003560e01c8063570ca735116100ad5780639d8168eb116100715780639d8168eb14610357578063a22cb46514610373578063b88d4fde1461038f578063c87b56dd146103ab578063e985e9c5146103db5761012c565b8063570ca7351461028b5780636352211e146102a95780636a627842146102d957806370a082311461030957806395d89b41146103395761012c565b806318160ddd116100f457806318160ddd146101e757806323b872dd1461020557806342842e0e14610221578063430c20811461023d578063442675701461026d5761012c565b806301ffc9a71461013157806306394c9b1461016157806306fdde031461017d578063081812fc1461019b578063095ea7b3146101cb575b600080fd5b61014b600480360381019061014691906118bd565b61040b565b6040516101589190611905565b60405180910390f35b61017b6004803603810190610176919061197e565b61049d565b005b6101856105ce565b6040516101929190611a3b565b60405180910390f35b6101b560048036038101906101b09190611a93565b61065c565b6040516101c29190611acf565b60405180910390f35b6101e560048036038101906101e09190611aea565b61068f565b005b6101ef610873565b6040516101fc9190611b39565b60405180910390f35b61021f600480360381019061021a9190611b54565b6108a3565b005b61023b60048036038101906102369190611b54565b610c8d565b005b61025760048036038101906102529190611aea565b610dc0565b6040516102649190611905565b60405180910390f35b610275610f00565b6040516102829190611acf565b60405180910390f35b610293610f26565b6040516102a09190611acf565b60405180910390f35b6102c360048036038101906102be9190611a93565b610f4c565b6040516102d09190611acf565b60405180910390f35b6102f360048036038101906102ee919061197e565b610fee565b6040516103009190611b39565b60405180910390f35b610323600480360381019061031e919061197e565b61123c565b6040516103309190611b39565b60405180910390f35b6103416112ea565b60405161034e9190611a3b565b60405180910390f35b610371600480360381019061036c919061197e565b611378565b005b61038d60048036038101906103889190611bd3565b6114a9565b005b6103a960048036038101906103a49190611c78565b6115a6565b005b6103c560048036038101906103c09190611a93565b6116df565b6040516103d29190611a3b565b60405180910390f35b6103f560048036038101906103f09190611d00565b611822565b6040516104029190611905565b60405180910390f35b60006301ffc9a760e01b827bffffffffffffffffffffffffffffffffffffffffffffffffffffffff1916148061046657506380ac58cd60e01b827bffffffffffffffffffffffffffffffffffffffffffffffffffffffff1916145b806104965750635b5e139f60e01b827bffffffffffffffffffffffffffffffffffffffffffffffffffffffff1916145b9050919050565b6006600c9054906101000a900473ffffffffffffffffffffffffffffffffffffffff1673ffffffffffffffffffffffffffffffffffffffff163373ffffffffffffffffffffffffffffffffffffffff1614610524576040517f7c214f0400000000000000000000000000000000000000000000000000000000815260040160405180910390fd5b600073ffffffffffffffffffffffffffffffffffffffff168173ffffffffffffffffffffffffffffffffffffffff160361058a576040517f0ae7cb0400000000000000000000000000000000000000000000000000000000815260040160405180910390fd5b806006600c6101000a81548173ffffffffffffffffffffffffffffffffffffffff021916908373ffffffffffffffffffffffffffffffffffffffff16021790555050565b600080546105db90611d6f565b80601f016020809104026020016040519081016040528092919081815260200182805461060790611d6f565b80156106545780601f1061062957610100808354040283529160200191610654565b820191906000526020600020905b81548152906001019060200180831161063757829003601f168201915b505050505081565b60046020528060005260406000206000915054906101000a900473ffffffffffffffffffffffffffffffffffffffff1681565b60006002600083815260200190815260200160002060009054906101000a900473ffffffffffffffffffffffffffffffffffffffff1690508073ffffffffffffffffffffffffffffffffffffffff163373ffffffffffffffffffffffffffffffffffffffff161415801561078a5750600560008273ffffffffffffffffffffffffffffffffffffffff1673ffffffffffffffffffffffffffffffffffffffff16815260200190815260200160002060003373ffffffffffffffffffffffffffffffffffffffff1673ffffffffffffffffffffffffffffffffffffffff16815260200190815260200160002060009054906101000a900460ff16155b156107c1576040517fea8e4eb500000000000000000000000000000000000000000000000000000000815260040160405180910390fd5b826004600084815260200190815260200160002060006101000a81548173ffffffffffffffffffffffffffffffffffffffff021916908373ffffffffffffffffffffffffffffffffffffffff160217905550818373ffffffffffffffffffffffffffffffffffffffff168273ffffffffffffffffffffffffffffffffffffffff167f8c5be1e5ebec7d5bd14f71427d1e84f3dd0314c0f7b2291e5b200ac8c7c3b92560405160405180910390a4505050565b6000600660009054906101000a90046bffffffffffffffffffffffff166bffffffffffffffffffffffff16905090565b6002600082815260200190815260200160002060009054906101000a900473ffffffffffffffffffffffffffffffffffffffff1673ffffffffffffffffffffffffffffffffffffffff168373ffffffffffffffffffffffffffffffffffffffff161461093b576040517fc6de3f2500000000000000000000000000000000000000000000000000000000815260040160405180910390fd5b600073ffffffffffffffffffffffffffffffffffffffff168273ffffffffffffffffffffffffffffffffffffffff16036109a1576040517f9c8d2cd200000000000000000000000000000000000000000000000000000000815260040160405180910390fd5b8273ffffffffffffffffffffffffffffffffffffffff163373ffffffffffffffffffffffffffffffffffffffff1614158015610a645750600560008473ffffffffffffffffffffffffffffffffffffffff1673ffffffffffffffffffffffffffffffffffffffff16815260200190815260200160002060003373ffffffffffffffffffffffffffffffffffffffff1673ffffffffffffffffffffffffffffffffffffffff16815260200190815260200160002060009054906101000a900460ff16155b8015610acf57506004600082815260200190815260200160002060009054906101000a900473ffffffffffffffffffffffffffffffffffffffff1673ffffffffffffffffffffffffffffffffffffffff163373ffffffffffffffffffffffffffffffffffffffff1614155b15610b06576040517fea8e4eb500000000000000000000000000000000000000000000000000000000815260040160405180910390fd5b600360008473ffffffffffffffffffffffffffffffffffffffff1673ffffffffffffffffffffffffffffffffffffffff1681526020019081526020016000206000815480929190600190039190505550600360008373ffffffffffffffffffffffffffffffffffffffff1673ffffffffffffffffffffffffffffffffffffffff16815260200190815260200160002060008154809291906001019190505550816002600083815260200190815260200160002060006101000a81548173ffffffffffffffffffffffffffffffffffffffff021916908373ffffffffffffffffffffffffffffffffffffffff1602179055506004600082815260200190815260200160002060006101000a81549073ffffffffffffffffffffffffffffffffffffffff0219169055808273ffffffffffffffffffffffffffffffffffffffff168473ffffffffffffffffffffffffffffffffffffffff167fddf252ad1be2c89b69c2b068fc378daa952ba7f163c4a11628f55a4df523b3ef60405160405180910390a4505050565b610c988383836108a3565b60008273ffffffffffffffffffffffffffffffffffffffff163b14158015610d84575063150b7a0260e01b7bffffffffffffffffffffffffffffffffffffffffffffffffffffffff19168273ffffffffffffffffffffffffffffffffffffffff1663150b7a023386856040518463ffffffff1660e01b8152600401610d1f93929190611dd7565b6020604051808303816000875af1158015610d3e573d6000803e3d6000fd5b505050506040513d601f19601f82011682018060405250810190610d629190611e36565b7bffffffffffffffffffffffffffffffffffffffffffffffffffffffff191614155b15610dbb576040517f3da6393100000000000000000000000000000000000000000000000000000000815260040160405180910390fd5b505050565b600080610dcc83610f4c565b90508073ffffffffffffffffffffffffffffffffffffffff168473ffffffffffffffffffffffffffffffffffffffff161480610e8e5750600560008273ffffffffffffffffffffffffffffffffffffffff1673ffffffffffffffffffffffffffffffffffffffff16815260200190815260200160002060008573ffffffffffffffffffffffffffffffffffffffff1673ffffffffffffffffffffffffffffffffffffffff16815260200190815260200160002060009054906101000a900460ff165b80610ef757506004600084815260200190815260200160002060009054906101000a900473ffffffffffffffffffffffffffffffffffffffff1673ffffffffffffffffffffffffffffffffffffffff168473ffffffffffffffffffffffffffffffffffffffff16145b91505092915050565b600760009054906101000a900473ffffffffffffffffffffffffffffffffffffffff1681565b6006600c9054906101000a900473ffffffffffffffffffffffffffffffffffffffff1681565b60008073ffffffffffffffffffffffffffffffffffffffff166002600084815260200190815260200160002060009054906101000a900473ffffffffffffffffffffffffffffffffffffffff1691508173ffffffffffffffffffffffffffffffffffffffff1603610fe9576040517f4d5e5fb300000000000000000000000000000000000000000000000000000000815260040160405180910390fd5b919050565b60006006600c9054906101000a900473ffffffffffffffffffffffffffffffffffffffff1673ffffffffffffffffffffffffffffffffffffffff163373ffffffffffffffffffffffffffffffffffffffff1614611077576040517f7c214f0400000000000000000000000000000000000000000000000000000000815260040160405180910390fd5b600073ffffffffffffffffffffffffffffffffffffffff168273ffffffffffffffffffffffffffffffffffffffff16036110dd576040517f9c8d2cd200000000000000000000000000000000000000000000000000000000815260040160405180910390fd5b6006600081819054906101000a90046bffffffffffffffffffffffff1660010191906101000a8154816bffffffffffffffffffffffff02191690836bffffffffffffffffffffffff16021790556bffffffffffffffffffffffff169050600360008373ffffffffffffffffffffffffffffffffffffffff1673ffffffffffffffffffffffffffffffffffffffff16815260200190815260200160002060008154809291906001019190505550816002600083815260200190815260200160002060006101000a81548173ffffffffffffffffffffffffffffffffffffffff021916908373ffffffffffffffffffffffffffffffffffffffff160217905550808273ffffffffffffffffffffffffffffffffffffffff16600073ffffffffffffffffffffffffffffffffffffffff167fddf252ad1be2c89b69c2b068fc378daa952ba7f163c4a11628f55a4df523b3ef60405160405180910390a4919050565b60008073ffffffffffffffffffffffffffffffffffffffff168273ffffffffffffffffffffffffffffffffffffffff16036112a3576040517f4d5e5fb300000000000000000000000000000000000000000000000000000000815260040160405180910390fd5b600360008373ffffffffffffffffffffffffffffffffffffffff1673ffffffffffffffffffffffffffffffffffffffff168152602001908152602001600020549050919050565b600180546112f790611d6f565b80601f016020809104026020016040519081016040528092919081815260200182805461132390611d6f565b80156113705780601f1061134557610100808354040283529160200191611370565b820191906000526020600020905b81548152906001019060200180831161135357829003601f168201915b505050505081565b6006600c9054906101000a900473ffffffffffffffffffffffffffffffffffffffff1673ffffffffffffffffffffffffffffffffffffffff163373ffffffffffffffffffffffffffffffffffffffff16146113ff576040517f7c214f0400000000000000000000000000000000000000000000000000000000815260040160405180910390fd5b600073ffffffffffffffffffffffffffffffffffffffff168173ffffffffffffffffffffffffffffffffffffffff1603611465576040517fedb7f57100000000000000000000000000000000000000000000000000000000815260040160405180910390fd5b80600760006101000a81548173ffffffffffffffffffffffffffffffffffffffff021916908373ffffffffffffffffffffffffffffffffffffffff16021790555050565b80600560003373ffffffffffffffffffffffffffffffffffffffff1673ffffffffffffffffffffffffffffffffffffffff16815260200190815260200160002060008473ffffffffffffffffffffffffffffffffffffffff1673ffffffffffffffffffffffffffffffffffffffff16815260200190815260200160002060006101000a81548160ff0219169083151502179055508173ffffffffffffffffffffffffffffffffffffffff163373ffffffffffffffffffffffffffffffffffffffff167f17307eab39ab6107e8899845ad3d59bd9653f200f220920489ca2b5937696c318360405161159a9190611905565b60405180910390a35050565b6115b18585856108a3565b60008473ffffffffffffffffffffffffffffffffffffffff163b141580156116a1575063150b7a0260e01b7bffffffffffffffffffffffffffffffffffffffffffffffffffffffff19168473ffffffffffffffffffffffffffffffffffffffff1663150b7a0233888787876040518663ffffffff1660e01b815260040161163c959493929190611e9f565b6020604051808303816000875af115801561165b573d6000803e3d6000fd5b505050506040513d601f19601f8201168201806040525081019061167f9190611e36565b7bffffffffffffffffffffffffffffffffffffffffffffffffffffffff191614155b156116d8576040517f3da6393100000000000000000000000000000000000000000000000000000000815260040160405180910390fd5b5050505050565b6060600073ffffffffffffffffffffffffffffffffffffffff166002600084815260200190815260200160002060009054906101000a900473ffffffffffffffffffffffffffffffffffffffff1673ffffffffffffffffffffffffffffffffffffffff160361177a576040517f4d5e5fb300000000000000000000000000000000000000000000000000000000815260040160405180910390fd5b600760009054906101000a900473ffffffffffffffffffffffffffffffffffffffff1673ffffffffffffffffffffffffffffffffffffffff1663c87b56dd836040518263ffffffff1660e01b81526004016117d59190611b39565b600060405180830381865afa1580156117f2573d6000803e3d6000fd5b505050506040513d6000823e3d601f19601f8201168201806040525081019061181b919061200e565b9050919050565b60056020528160005260406000206020528060005260406000206000915091509054906101000a900460ff1681565b6000604051905090565b600080fd5b600080fd5b60007fffffffff0000000000000000000000000000000000000000000000000000000082169050919050565b61189a81611865565b81146118a557600080fd5b50565b6000813590506118b781611891565b92915050565b6000602082840312156118d3576118d261185b565b5b60006118e1848285016118a8565b91505092915050565b60008115159050919050565b6118ff816118ea565b82525050565b600060208201905061191a60008301846118f6565b92915050565b600073ffffffffffffffffffffffffffffffffffffffff82169050919050565b600061194b82611920565b9050919050565b61195b81611940565b811461196657600080fd5b50565b60008135905061197881611952565b92915050565b6000602082840312156119945761199361185b565b5b60006119a284828501611969565b91505092915050565b600081519050919050565b600082825260208201905092915050565b60005b838110156119e55780820151818401526020810190506119ca565b60008484015250505050565b6000601f19601f8301169050919050565b6000611a0d826119ab565b611a1781856119b6565b9350611a278185602086016119c7565b611a30816119f1565b840191505092915050565b60006020820190508181036000830152611a558184611a02565b905092915050565b6000819050919050565b611a7081611a5d565b8114611a7b57600080fd5b50565b600081359050611a8d81611a67565b92915050565b600060208284031215611aa957611aa861185b565b5b6000611ab784828501611a7e565b91505092915050565b611ac981611940565b82525050565b6000602082019050611ae46000830184611ac0565b92915050565b60008060408385031215611b0157611b0061185b565b5b6000611b0f85828601611969565b9250506020611b2085828601611a7e565b9150509250929050565b611b3381611a5d565b82525050565b6000602082019050611b4e6000830184611b2a565b92915050565b600080600060608486031215611b6d57611b6c61185b565b5b6000611b7b86828701611969565b9350506020611b8c86828701611969565b9250506040611b9d86828701611a7e565b9150509250925092565b611bb0816118ea565b8114611bbb57600080fd5b50565b600081359050611bcd81611ba7565b92915050565b60008060408385031215611bea57611be961185b565b5b6000611bf885828601611969565b9250506020611c0985828601611bbe565b9150509250929050565b600080fd5b600080fd5b600080fd5b60008083601f840112611c3857611c37611c13565b5b8235905067ffffffffffffffff811115611c5557611c54611c18565b5b602083019150836001820283011115611c7157611c70611c1d565b5b9250929050565b600080600080600060808688031215611c9457611c9361185b565b5b6000611ca288828901611969565b9550506020611cb388828901611969565b9450506040611cc488828901611a7e565b935050606086013567ffffffffffffffff811115611ce557611ce4611860565b5b611cf188828901611c22565b92509250509295509295909350565b60008060408385031215611d1757611d1661185b565b5b6000611d2585828601611969565b9250506020611d3685828601611969565b9150509250929050565b7f4e487b7100000000000000000000000000000000000000000000000000000000600052602260045260246000fd5b60006002820490506001821680611d8757607f821691505b602082108103611d9a57611d99611d40565b5b50919050565b600082825260208201905092915050565b50565b6000611dc1600083611da0565b9150611dcc82611db1565b600082019050919050565b6000608082019050611dec6000830186611ac0565b611df96020830185611ac0565b611e066040830184611b2a565b8181036060830152611e1781611db4565b9050949350505050565b600081519050611e3081611891565b92915050565b600060208284031215611e4c57611e4b61185b565b5b6000611e5a84828501611e21565b91505092915050565b82818337600083830152505050565b6000611e7e8385611da0565b9350611e8b838584611e63565b611e94836119f1565b840190509392505050565b6000608082019050611eb46000830188611ac0565b611ec16020830187611ac0565b611ece6040830186611b2a565b8181036060830152611ee1818486611e72565b90509695505050505050565b600080fd5b7f4e487b7100000000000000000000000000000000000000000000000000000000600052604160045260246000fd5b611f2a826119f1565b810181811067ffffffffffffffff82111715611f4957611f48611ef2565b5b80604052505050565b6000611f5c611851565b9050611f688282611f21565b919050565b600067ffffffffffffffff821115611f8857611f87611ef2565b5b611f91826119f1565b9050602081019050919050565b6000611fb1611fac84611f6d565b611f52565b905082815260208101848484011115611fcd57611fcc611eed565b5b611fd88482856119c7565b509392505050565b600082601f830112611ff557611ff4611c13565b5b8151612005848260208601611f9e565b91505092915050565b6000602082840312156120245761202361185b565b5b600082015167ffffffffffffffff81111561204257612041611860565b5b61204e84828501611fe0565b9150509291505056fea2646970667358221220dd7e1521a1a789a83a6ad6c65cf3b9b05e99b5cc75ca62f716081f0a8450819d64736f6c63430008130033",
					"opcodes": "PUSH1 0x80 PUSH1 0x40 MSTORE CALLVALUE DUP1 ISZERO PUSH3 0x11 JUMPI PUSH1 0x0 DUP1 REVERT JUMPDEST POP PUSH1 0x40 MLOAD PUSH3 0x275E CODESIZE SUB DUP1 PUSH3 0x275E DUP4 CODECOPY DUP2 DUP2 ADD PUSH1 0x40 MSTORE DUP2 ADD SWAP1 PUSH3 0x37 SWAP2 SWAP1 PUSH3 0x2DF JUMP JUMPDEST DUP4 PUSH1 0x0 SWAP1 DUP2 PUSH3 0x48 SWAP2 SWAP1 PUSH3 0x5DA JUMP JUMPDEST POP DUP3 PUSH1 0x1 SWAP1 DUP2 PUSH3 0x5A SWAP2 SWAP1 PUSH3 0x5DA JUMP JUMPDEST POP DUP2 PUSH1 0x6 PUSH1 0xC PUSH2 0x100 EXP DUP2 SLOAD DUP2 PUSH20 0xFFFFFFFFFFFFFFFFFFFFFFFFFFFFFFFFFFFFFFFF MUL NOT AND SWAP1 DUP4 PUSH20 0xFFFFFFFFFFFFFFFFFFFFFFFFFFFFFFFFFFFFFFFF AND MUL OR SWAP1 SSTORE POP DUP1 PUSH1 0x7 PUSH1 0x0 PUSH2 0x100 EXP DUP2 SLOAD DUP2 PUSH20 0xFFFFFFFFFFFFFFFFFFFFFFFFFFFFFFFFFFFFFFFF MUL NOT AND SWAP1 DUP4 PUSH20 0xFFFFFFFFFFFFFFFFFFFFFFFFFFFFFFFFFFFFFFFF AND MUL OR SWAP1 SSTORE POP POP POP POP POP PUSH3 0x6C1 JUMP JUMPDEST PUSH1 0x0 PUSH1 0x40 MLOAD SWAP1 POP SWAP1 JUMP JUMPDEST PUSH1 0x0 DUP1 REVERT JUMPDEST PUSH1 0x0 DUP1 REVERT JUMPDEST PUSH1 0x0 DUP1 REVERT JUMPDEST PUSH1 0x0 DUP1 REVERT JUMPDEST PUSH1 0x0 PUSH1 0x1F NOT PUSH1 0x1F DUP4 ADD AND SWAP1 POP SWAP2 SWAP1 POP JUMP JUMPDEST PUSH32 0x4E487B7100000000000000000000000000000000000000000000000000000000 PUSH1 0x0 MSTORE PUSH1 0x41 PUSH1 0x4 MSTORE PUSH1 0x24 PUSH1 0x0 REVERT JUMPDEST PUSH3 0x150 DUP3 PUSH3 0x105 JUMP JUMPDEST DUP2 ADD DUP2 DUP2 LT PUSH8 0xFFFFFFFFFFFFFFFF DUP3 GT OR ISZERO PUSH3 0x172 JUMPI PUSH3 0x171 PUSH3 0x116 JUMP JUMPDEST JUMPDEST DUP1 PUSH1 0x40 MSTORE POP POP POP JUMP JUMPDEST PUSH1 0x0 PUSH3 0x187 PUSH3 0xE7 JUMP JUMPDEST SWAP1 POP PUSH3 0x195 DUP3 DUP3 PUSH3 0x145 JUMP JUMPDEST SWAP2 SWAP1 POP JUMP JUMPDEST PUSH1 0x0 PUSH8 0xFFFFFFFFFFFFFFFF DUP3 GT ISZERO PUSH3 0x1B8 JUMPI PUSH3 0x1B7 PUSH3 0x116 JUMP JUMPDEST JUMPDEST PUSH3 0x1C3 DUP3 PUSH3 0x105 JUMP JUMPDEST SWAP1 POP PUSH1 0x20 DUP2 ADD SWAP1 POP SWAP2 SWAP1 POP JUMP JUMPDEST PUSH1 0x0 JUMPDEST DUP4 DUP2 LT ISZERO PUSH3 0x1F0 JUMPI DUP1 DUP3 ADD MLOAD DUP2 DUP5 ADD MSTORE PUSH1 0x20 DUP2 ADD SWAP1 POP PUSH3 0x1D3 JUMP JUMPDEST PUSH1 0x0 DUP5 DUP5 ADD MSTORE POP POP POP POP JUMP JUMPDEST PUSH1 0x0 PUSH3 0x213 PUSH3 0x20D DUP5 PUSH3 0x19A JUMP JUMPDEST PUSH3 0x17B JUMP JUMPDEST SWAP1 POP DUP3 DUP2 MSTORE PUSH1 0x20 DUP2 ADD DUP5 DUP5 DUP5 ADD GT ISZERO PUSH3 0x232 JUMPI PUSH3 0x231 PUSH3 0x100 JUMP JUMPDEST JUMPDEST PUSH3 0x23F DUP5 DUP3 DUP6 PUSH3 0x1D0 JUMP JUMPDEST POP SWAP4 SWAP3 POP POP POP JUMP JUMPDEST PUSH1 0x0 DUP3 PUSH1 0x1F DUP4 ADD SLT PUSH3 0x25F JUMPI PUSH3 0x25E PUSH3 0xFB JUMP JUMPDEST JUMPDEST DUP2 MLOAD PUSH3 0x271 DUP5 DUP3 PUSH1 0x20 DUP7 ADD PUSH3 0x1FC JUMP JUMPDEST SWAP2 POP POP SWAP3 SWAP2 POP POP JUMP JUMPDEST PUSH1 0x0 PUSH20 0xFFFFFFFFFFFFFFFFFFFFFFFFFFFFFFFFFFFFFFFF DUP3 AND SWAP1 POP SWAP2 SWAP1 POP JUMP JUMPDEST PUSH1 0x0 PUSH3 0x2A7 DUP3 PUSH3 0x27A JUMP JUMPDEST SWAP1 POP SWAP2 SWAP1 POP JUMP JUMPDEST PUSH3 0x2B9 DUP2 PUSH3 0x29A JUMP JUMPDEST DUP2 EQ PUSH3 0x2C5 JUMPI PUSH1 0x0 DUP1 REVERT JUMPDEST POP JUMP JUMPDEST PUSH1 0x0 DUP2 MLOAD SWAP1 POP PUSH3 0x2D9 DUP2 PUSH3 0x2AE JUMP JUMPDEST SWAP3 SWAP2 POP POP JUMP JUMPDEST PUSH1 0x0 DUP1 PUSH1 0x0 DUP1 PUSH1 0x80 DUP6 DUP8 SUB SLT ISZERO PUSH3 0x2FC JUMPI PUSH3 0x2FB PUSH3 0xF1 JUMP JUMPDEST JUMPDEST PUSH1 0x0 DUP6 ADD MLOAD PUSH8 0xFFFFFFFFFFFFFFFF DUP2 GT ISZERO PUSH3 0x31D JUMPI PUSH3 0x31C PUSH3 0xF6 JUMP JUMPDEST JUMPDEST PUSH3 0x32B DUP8 DUP3 DUP9 ADD PUSH3 0x247 JUMP JUMPDEST SWAP5 POP POP PUSH1 0x20 DUP6 ADD MLOAD PUSH8 0xFFFFFFFFFFFFFFFF DUP2 GT ISZERO PUSH3 0x34F JUMPI PUSH3 0x34E PUSH3 0xF6 JUMP JUMPDEST JUMPDEST PUSH3 0x35D DUP8 DUP3 DUP9 ADD PUSH3 0x247 JUMP JUMPDEST SWAP4 POP POP PUSH1 0x40 PUSH3 0x370 DUP8 DUP3 DUP9 ADD PUSH3 0x2C8 JUMP JUMPDEST SWAP3 POP POP PUSH1 0x60 PUSH3 0x383 DUP8 DUP3 DUP9 ADD PUSH3 0x2C8 JUMP JUMPDEST SWAP2 POP POP SWAP3 SWAP6 SWAP2 SWAP5 POP SWAP3 POP JUMP JUMPDEST PUSH1 0x0 DUP2 MLOAD SWAP1 POP SWAP2 SWAP1 POP JUMP JUMPDEST PUSH32 0x4E487B7100000000000000000000000000000000000000000000000000000000 PUSH1 0x0 MSTORE PUSH1 0x22 PUSH1 0x4 MSTORE PUSH1 0x24 PUSH1 0x0 REVERT JUMPDEST PUSH1 0x0 PUSH1 0x2 DUP3 DIV SWAP1 POP PUSH1 0x1 DUP3 AND DUP1 PUSH3 0x3E2 JUMPI PUSH1 0x7F DUP3 AND SWAP2 POP JUMPDEST PUSH1 0x20 DUP3 LT DUP2 SUB PUSH3 0x3F8 JUMPI PUSH3 0x3F7 PUSH3 0x39A JUMP JUMPDEST JUMPDEST POP SWAP2 SWAP1 POP JUMP JUMPDEST PUSH1 0x0 DUP2 SWAP1 POP DUP2 PUSH1 0x0 MSTORE PUSH1 0x20 PUSH1 0x0 KECCAK256 SWAP1 POP SWAP2 SWAP1 POP JUMP JUMPDEST PUSH1 0x0 PUSH1 0x20 PUSH1 0x1F DUP4 ADD DIV SWAP1 POP SWAP2 SWAP1 POP JUMP JUMPDEST PUSH1 0x0 DUP3 DUP3 SHL SWAP1 POP SWAP3 SWAP2 POP POP JUMP JUMPDEST PUSH1 0x0 PUSH1 0x8 DUP4 MUL PUSH3 0x462 PUSH32 0xFFFFFFFFFFFFFFFFFFFFFFFFFFFFFFFFFFFFFFFFFFFFFFFFFFFFFFFFFFFFFFFF DUP3 PUSH3 0x423 JUMP JUMPDEST PUSH3 0x46E DUP7 DUP4 PUSH3 0x423 JUMP JUMPDEST SWAP6 POP DUP1 NOT DUP5 AND SWAP4 POP DUP1 DUP7 AND DUP5 OR SWAP3 POP POP POP SWAP4 SWAP3 POP POP POP JUMP JUMPDEST PUSH1 0x0 DUP2 SWAP1 POP SWAP2 SWAP1 POP JUMP JUMPDEST PUSH1 0x0 DUP2 SWAP1 POP SWAP2 SWAP1 POP JUMP JUMPDEST PUSH1 0x0 PUSH3 0x4BB PUSH3 0x4B5 PUSH3 0x4AF DUP5 PUSH3 0x486 JUMP JUMPDEST PUSH3 0x490 JUMP JUMPDEST PUSH3 0x486 JUMP JUMPDEST SWAP1 POP SWAP2 SWAP1 POP JUMP JUMPDEST PUSH1 0x0 DUP2 SWAP1 POP SWAP2 SWAP1 POP JUMP JUMPDEST PUSH3 0x4D7 DUP4 PUSH3 0x49A JUMP JUMPDEST PUSH3 0x4EF PUSH3 0x4E6 DUP3 PUSH3 0x4C2 JUMP JUMPDEST DUP5 DUP5 SLOAD PUSH3 0x430 JUMP JUMPDEST DUP3 SSTORE POP POP POP POP JUMP JUMPDEST PUSH1 0x0 SWAP1 JUMP JUMPDEST PUSH3 0x506 PUSH3 0x4F7 JUMP JUMPDEST PUSH3 0x513 DUP2 DUP5 DUP5 PUSH3 0x4CC JUMP JUMPDEST POP POP POP JUMP JUMPDEST JUMPDEST DUP2 DUP2 LT ISZERO PUSH3 0x53B JUMPI PUSH3 0x52F PUSH1 0x0 DUP3 PUSH3 0x4FC JUMP JUMPDEST PUSH1 0x1 DUP2 ADD SWAP1 POP PUSH3 0x519 JUMP JUMPDEST POP POP JUMP JUMPDEST PUSH1 0x1F DUP3 GT ISZERO PUSH3 0x58A JUMPI PUSH3 0x554 DUP2 PUSH3 0x3FE JUMP JUMPDEST PUSH3 0x55F DUP5 PUSH3 0x413 JUMP JUMPDEST DUP2 ADD PUSH1 0x20 DUP6 LT ISZERO PUSH3 0x56F JUMPI DUP2 SWAP1 POP JUMPDEST PUSH3 0x587 PUSH3 0x57E DUP6 PUSH3 0x413 JUMP JUMPDEST DUP4 ADD DUP3 PUSH3 0x518 JUMP JUMPDEST POP POP JUMPDEST POP POP POP JUMP JUMPDEST PUSH1 0x0 DUP3 DUP3 SHR SWAP1 POP SWAP3 SWAP2 POP POP JUMP JUMPDEST PUSH1 0x0 PUSH3 0x5AF PUSH1 0x0 NOT DUP5 PUSH1 0x8 MUL PUSH3 0x58F JUMP JUMPDEST NOT DUP1 DUP4 AND SWAP2 POP POP SWAP3 SWAP2 POP POP JUMP JUMPDEST PUSH1 0x0 PUSH3 0x5CA DUP4 DUP4 PUSH3 0x59C JUMP JUMPDEST SWAP2 POP DUP3 PUSH1 0x2 MUL DUP3 OR SWAP1 POP SWAP3 SWAP2 POP POP JUMP JUMPDEST PUSH3 0x5E5 DUP3 PUSH3 0x38F JUMP JUMPDEST PUSH8 0xFFFFFFFFFFFFFFFF DUP2 GT ISZERO PUSH3 0x601 JUMPI PUSH3 0x600 PUSH3 0x116 JUMP JUMPDEST JUMPDEST PUSH3 0x60D DUP3 SLOAD PUSH3 0x3C9 JUMP JUMPDEST PUSH3 0x61A DUP3 DUP3 DUP6 PUSH3 0x53F JUMP JUMPDEST PUSH1 0x0 PUSH1 0x20 SWAP1 POP PUSH1 0x1F DUP4 GT PUSH1 0x1 DUP2 EQ PUSH3 0x652 JUMPI PUSH1 0x0 DUP5 ISZERO PUSH3 0x63D JUMPI DUP3 DUP8 ADD MLOAD SWAP1 POP JUMPDEST PUSH3 0x649 DUP6 DUP3 PUSH3 0x5BC JUMP JUMPDEST DUP7 SSTORE POP PUSH3 0x6B9 JUMP JUMPDEST PUSH1 0x1F NOT DUP5 AND PUSH3 0x662 DUP7 PUSH3 0x3FE JUMP JUMPDEST PUSH1 0x0 JUMPDEST DUP3 DUP2 LT ISZERO PUSH3 0x68C JUMPI DUP5 DUP10 ADD MLOAD DUP3 SSTORE PUSH1 0x1 DUP3 ADD SWAP2 POP PUSH1 0x20 DUP6 ADD SWAP5 POP PUSH1 0x20 DUP2 ADD SWAP1 POP PUSH3 0x665 JUMP JUMPDEST DUP7 DUP4 LT ISZERO PUSH3 0x6AC JUMPI DUP5 DUP10 ADD MLOAD PUSH3 0x6A8 PUSH1 0x1F DUP10 AND DUP3 PUSH3 0x59C JUMP JUMPDEST DUP4 SSTORE POP JUMPDEST PUSH1 0x1 PUSH1 0x2 DUP9 MUL ADD DUP9 SSTORE POP POP POP JUMPDEST POP POP POP POP POP POP JUMP JUMPDEST PUSH2 0x208D DUP1 PUSH3 0x6D1 PUSH1 0x0 CODECOPY PUSH1 0x0 RETURN INVALID PUSH1 0x80 PUSH1 0x40 MSTORE CALLVALUE DUP1 ISZERO PUSH2 0x10 JUMPI PUSH1 0x0 DUP1 REVERT JUMPDEST POP PUSH1 0x4 CALLDATASIZE LT PUSH2 0x12C JUMPI PUSH1 0x0 CALLDATALOAD PUSH1 0xE0 SHR DUP1 PUSH4 0x570CA735 GT PUSH2 0xAD JUMPI DUP1 PUSH4 0x9D8168EB GT PUSH2 0x71 JUMPI DUP1 PUSH4 0x9D8168EB EQ PUSH2 0x357 JUMPI DUP1 PUSH4 0xA22CB465 EQ PUSH2 0x373 JUMPI DUP1 PUSH4 0xB88D4FDE EQ PUSH2 0x38F JUMPI DUP1 PUSH4 0xC87B56DD EQ PUSH2 0x3AB JUMPI DUP1 PUSH4 0xE985E9C5 EQ PUSH2 0x3DB JUMPI PUSH2 0x12C JUMP JUMPDEST DUP1 PUSH4 0x570CA735 EQ PUSH2 0x28B JUMPI DUP1 PUSH4 0x6352211E EQ PUSH2 0x2A9 JUMPI DUP1 PUSH4 0x6A627842 EQ PUSH2 0x2D9 JUMPI DUP1 PUSH4 0x70A08231 EQ PUSH2 0x309 JUMPI DUP1 PUSH4 0x95D89B41 EQ PUSH2 0x339 JUMPI PUSH2 0x12C JUMP JUMPDEST DUP1 PUSH4 0x18160DDD GT PUSH2 0xF4 JUMPI DUP1 PUSH4 0x18160DDD EQ PUSH2 0x1E7 JUMPI DUP1 PUSH4 0x23B872DD EQ PUSH2 0x205 JUMPI DUP1 PUSH4 0x42842E0E EQ PUSH2 0x221 JUMPI DUP1 PUSH4 0x430C2081 EQ PUSH2 0x23D JUMPI DUP1 PUSH4 0x44267570 EQ PUSH2 0x26D JUMPI PUSH2 0x12C JUMP JUMPDEST DUP1 PUSH4 0x1FFC9A7 EQ PUSH2 0x131 JUMPI DUP1 PUSH4 0x6394C9B EQ PUSH2 0x161 JUMPI DUP1 PUSH4 0x6FDDE03 EQ PUSH2 0x17D JUMPI DUP1 PUSH4 0x81812FC EQ PUSH2 0x19B JUMPI DUP1 PUSH4 0x95EA7B3 EQ PUSH2 0x1CB JUMPI JUMPDEST PUSH1 0x0 DUP1 REVERT JUMPDEST PUSH2 0x14B PUSH1 0x4 DUP1 CALLDATASIZE SUB DUP2 ADD SWAP1 PUSH2 0x146 SWAP2 SWAP1 PUSH2 0x18BD JUMP JUMPDEST PUSH2 0x40B JUMP JUMPDEST PUSH1 0x40 MLOAD PUSH2 0x158 SWAP2 SWAP1 PUSH2 0x1905 JUMP JUMPDEST PUSH1 0x40 MLOAD DUP1 SWAP2 SUB SWAP1 RETURN JUMPDEST PUSH2 0x17B PUSH1 0x4 DUP1 CALLDATASIZE SUB DUP2 ADD SWAP1 PUSH2 0x176 SWAP2 SWAP1 PUSH2 0x197E JUMP JUMPDEST PUSH2 0x49D JUMP JUMPDEST STOP JUMPDEST PUSH2 0x185 PUSH2 0x5CE JUMP JUMPDEST PUSH1 0x40 MLOAD PUSH2 0x192 SWAP2 SWAP1 PUSH2 0x1A3B JUMP JUMPDEST PUSH1 0x40 MLOAD DUP1 SWAP2 SUB SWAP1 RETURN JUMPDEST PUSH2 0x1B5 PUSH1 0x4 DUP1 CALLDATASIZE SUB DUP2 ADD SWAP1 PUSH2 0x1B0 SWAP2 SWAP1 PUSH2 0x1A93 JUMP JUMPDEST PUSH2 0x65C JUMP JUMPDEST PUSH1 0x40 MLOAD PUSH2 0x1C2 SWAP2 SWAP1 PUSH2 0x1ACF JUMP JUMPDEST PUSH1 0x40 MLOAD DUP1 SWAP2 SUB SWAP1 RETURN JUMPDEST PUSH2 0x1E5 PUSH1 0x4 DUP1 CALLDATASIZE SUB DUP2 ADD SWAP1 PUSH2 0x1E0 SWAP2 SWAP1 PUSH2 0x1AEA JUMP JUMPDEST PUSH2 0x68F JUMP JUMPDEST STOP JUMPDEST PUSH2 0x1EF PUSH2 0x873 JUMP JUMPDEST PUSH1 0x40 MLOAD PUSH2 0x1FC SWAP2 SWAP1 PUSH2 0x1B39 JUMP JUMPDEST PUSH1 0x40 MLOAD DUP1 SWAP2 SUB SWAP1 RETURN JUMPDEST PUSH2 0x21F PUSH1 0x4 DUP1 CALLDATASIZE SUB DUP2 ADD SWAP1 PUSH2 0x21A SWAP2 SWAP1 PUSH2 0x1B54 JUMP JUMPDEST PUSH2 0x8A3 JUMP JUMPDEST STOP JUMPDEST PUSH2 0x23B PUSH1 0x4 DUP1 CALLDATASIZE SUB DUP2 ADD SWAP1 PUSH2 0x236 SWAP2 SWAP1 PUSH2 0x1B54 JUMP JUMPDEST PUSH2 0xC8D JUMP JUMPDEST STOP JUMPDEST PUSH2 0x257 PUSH1 0x4 DUP1 CALLDATASIZE SUB DUP2 ADD SWAP1 PUSH2 0x252 SWAP2 SWAP1 PUSH2 0x1AEA JUMP JUMPDEST PUSH2 0xDC0 JUMP JUMPDEST PUSH1 0x40 MLOAD PUSH2 0x264 SWAP2 SWAP1 PUSH2 0x1905 JUMP JUMPDEST PUSH1 0x40 MLOAD DUP1 SWAP2 SUB SWAP1 RETURN JUMPDEST PUSH2 0x275 PUSH2 0xF00 JUMP JUMPDEST PUSH1 0x40 MLOAD PUSH2 0x282 SWAP2 SWAP1 PUSH2 0x1ACF JUMP JUMPDEST PUSH1 0x40 MLOAD DUP1 SWAP2 SUB SWAP1 RETURN JUMPDEST PUSH2 0x293 PUSH2 0xF26 JUMP JUMPDEST PUSH1 0x40 MLOAD PUSH2 0x2A0 SWAP2 SWAP1 PUSH2 0x1ACF JUMP JUMPDEST PUSH1 0x40 MLOAD DUP1 SWAP2 SUB SWAP1 RETURN JUMPDEST PUSH2 0x2C3 PUSH1 0x4 DUP1 CALLDATASIZE SUB DUP2 ADD SWAP1 PUSH2 0x2BE SWAP2 SWAP1 PUSH2 0x1A93 JUMP JUMPDEST PUSH2 0xF4C JUMP JUMPDEST PUSH1 0x40 MLOAD PUSH2 0x2D0 SWAP2 SWAP1 PUSH2 0x1ACF JUMP JUMPDEST PUSH1 0x40 MLOAD DUP1 SWAP2 SUB SWAP1 RETURN JUMPDEST PUSH2 0x2F3 PUSH1 0x4 DUP1 CALLDATASIZE SUB DUP2 ADD SWAP1 PUSH2 0x2EE SWAP2 SWAP1 PUSH2 0x197E JUMP JUMPDEST PUSH2 0xFEE JUMP JUMPDEST PUSH1 0x40 MLOAD PUSH2 0x300 SWAP2 SWAP1 PUSH2 0x1B39 JUMP JUMPDEST PUSH1 0x40 MLOAD DUP1 SWAP2 SUB SWAP1 RETURN JUMPDEST PUSH2 0x323 PUSH1 0x4 DUP1 CALLDATASIZE SUB DUP2 ADD SWAP1 PUSH2 0x31E SWAP2 SWAP1 PUSH2 0x197E JUMP JUMPDEST PUSH2 0x123C JUMP JUMPDEST PUSH1 0x40 MLOAD PUSH2 0x330 SWAP2 SWAP1 PUSH2 0x1B39 JUMP JUMPDEST PUSH1 0x40 MLOAD DUP1 SWAP2 SUB SWAP1 RETURN JUMPDEST PUSH2 0x341 PUSH2 0x12EA JUMP JUMPDEST PUSH1 0x40 MLOAD PUSH2 0x34E SWAP2 SWAP1 PUSH2 0x1A3B JUMP JUMPDEST PUSH1 0x40 MLOAD DUP1 SWAP2 SUB SWAP1 RETURN JUMPDEST PUSH2 0x371 PUSH1 0x4 DUP1 CALLDATASIZE SUB DUP2 ADD SWAP1 PUSH2 0x36C SWAP2 SWAP1 PUSH2 0x197E JUMP JUMPDEST PUSH2 0x1378 JUMP JUMPDEST STOP JUMPDEST PUSH2 0x38D PUSH1 0x4 DUP1 CALLDATASIZE SUB DUP2 ADD SWAP1 PUSH2 0x388 SWAP2 SWAP1 PUSH2 0x1BD3 JUMP JUMPDEST PUSH2 0x14A9 JUMP JUMPDEST STOP JUMPDEST PUSH2 0x3A9 PUSH1 0x4 DUP1 CALLDATASIZE SUB DUP2 ADD SWAP1 PUSH2 0x3A4 SWAP2 SWAP1 PUSH2 0x1C78 JUMP JUMPDEST PUSH2 0x15A6 JUMP JUMPDEST STOP JUMPDEST PUSH2 0x3C5 PUSH1 0x4 DUP1 CALLDATASIZE SUB DUP2 ADD SWAP1 PUSH2 0x3C0 SWAP2 SWAP1 PUSH2 0x1A93 JUMP JUMPDEST PUSH2 0x16DF JUMP JUMPDEST PUSH1 0x40 MLOAD PUSH2 0x3D2 SWAP2 SWAP1 PUSH2 0x1A3B JUMP JUMPDEST PUSH1 0x40 MLOAD DUP1 SWAP2 SUB SWAP1 RETURN JUMPDEST PUSH2 0x3F5 PUSH1 0x4 DUP1 CALLDATASIZE SUB DUP2 ADD SWAP1 PUSH2 0x3F0 SWAP2 SWAP1 PUSH2 0x1D00 JUMP JUMPDEST PUSH2 0x1822 JUMP JUMPDEST PUSH1 0x40 MLOAD PUSH2 0x402 SWAP2 SWAP1 PUSH2 0x1905 JUMP JUMPDEST PUSH1 0x40 MLOAD DUP1 SWAP2 SUB SWAP1 RETURN JUMPDEST PUSH1 0x0 PUSH4 0x1FFC9A7 PUSH1 0xE0 SHL DUP3 PUSH28 0xFFFFFFFFFFFFFFFFFFFFFFFFFFFFFFFFFFFFFFFFFFFFFFFFFFFFFFFF NOT AND EQ DUP1 PUSH2 0x466 JUMPI POP PUSH4 0x80AC58CD PUSH1 0xE0 SHL DUP3 PUSH28 0xFFFFFFFFFFFFFFFFFFFFFFFFFFFFFFFFFFFFFFFFFFFFFFFFFFFFFFFF NOT AND EQ JUMPDEST DUP1 PUSH2 0x496 JUMPI POP PUSH4 0x5B5E139F PUSH1 0xE0 SHL DUP3 PUSH28 0xFFFFFFFFFFFFFFFFFFFFFFFFFFFFFFFFFFFFFFFFFFFFFFFFFFFFFFFF NOT AND EQ JUMPDEST SWAP1 POP SWAP2 SWAP1 POP JUMP JUMPDEST PUSH1 0x6 PUSH1 0xC SWAP1 SLOAD SWAP1 PUSH2 0x100 EXP SWAP1 DIV PUSH20 0xFFFFFFFFFFFFFFFFFFFFFFFFFFFFFFFFFFFFFFFF AND PUSH20 0xFFFFFFFFFFFFFFFFFFFFFFFFFFFFFFFFFFFFFFFF AND CALLER PUSH20 0xFFFFFFFFFFFFFFFFFFFFFFFFFFFFFFFFFFFFFFFF AND EQ PUSH2 0x524 JUMPI PUSH1 0x40 MLOAD PUSH32 0x7C214F0400000000000000000000000000000000000000000000000000000000 DUP2 MSTORE PUSH1 0x4 ADD PUSH1 0x40 MLOAD DUP1 SWAP2 SUB SWAP1 REVERT JUMPDEST PUSH1 0x0 PUSH20 0xFFFFFFFFFFFFFFFFFFFFFFFFFFFFFFFFFFFFFFFF AND DUP2 PUSH20 0xFFFFFFFFFFFFFFFFFFFFFFFFFFFFFFFFFFFFFFFF AND SUB PUSH2 0x58A JUMPI PUSH1 0x40 MLOAD PUSH32 0xAE7CB0400000000000000000000000000000000000000000000000000000000 DUP2 MSTORE PUSH1 0x4 ADD PUSH1 0x40 MLOAD DUP1 SWAP2 SUB SWAP1 REVERT JUMPDEST DUP1 PUSH1 0x6 PUSH1 0xC PUSH2 0x100 EXP DUP2 SLOAD DUP2 PUSH20 0xFFFFFFFFFFFFFFFFFFFFFFFFFFFFFFFFFFFFFFFF MUL NOT AND SWAP1 DUP4 PUSH20 0xFFFFFFFFFFFFFFFFFFFFFFFFFFFFFFFFFFFFFFFF AND MUL OR SWAP1 SSTORE POP POP JUMP JUMPDEST PUSH1 0x0 DUP1 SLOAD PUSH2 0x5DB SWAP1 PUSH2 0x1D6F JUMP JUMPDEST DUP1 PUSH1 0x1F ADD PUSH1 0x20 DUP1 SWAP2 DIV MUL PUSH1 0x20 ADD PUSH1 0x40 MLOAD SWAP1 DUP2 ADD PUSH1 0x40 MSTORE DUP1 SWAP3 SWAP2 SWAP1 DUP2 DUP2 MSTORE PUSH1 0x20 ADD DUP3 DUP1 SLOAD PUSH2 0x607 SWAP1 PUSH2 0x1D6F JUMP JUMPDEST DUP1 ISZERO PUSH2 0x654 JUMPI DUP1 PUSH1 0x1F LT PUSH2 0x629 JUMPI PUSH2 0x100 DUP1 DUP4 SLOAD DIV MUL DUP4 MSTORE SWAP2 PUSH1 0x20 ADD SWAP2 PUSH2 0x654 JUMP JUMPDEST DUP3 ADD SWAP2 SWAP1 PUSH1 0x0 MSTORE PUSH1 0x20 PUSH1 0x0 KECCAK256 SWAP1 JUMPDEST DUP2 SLOAD DUP2 MSTORE SWAP1 PUSH1 0x1 ADD SWAP1 PUSH1 0x20 ADD DUP1 DUP4 GT PUSH2 0x637 JUMPI DUP3 SWAP1 SUB PUSH1 0x1F AND DUP3 ADD SWAP2 JUMPDEST POP POP POP POP POP DUP2 JUMP JUMPDEST PUSH1 0x4 PUSH1 0x20 MSTORE DUP1 PUSH1 0x0 MSTORE PUSH1 0x40 PUSH1 0x0 KECCAK256 PUSH1 0x0 SWAP2 POP SLOAD SWAP1 PUSH2 0x100 EXP SWAP1 DIV PUSH20 0xFFFFFFFFFFFFFFFFFFFFFFFFFFFFFFFFFFFFFFFF AND DUP2 JUMP JUMPDEST PUSH1 0x0 PUSH1 0x2 PUSH1 0x0 DUP4 DUP2 MSTORE PUSH1 0x20 ADD SWAP1 DUP2 MSTORE PUSH1 0x20 ADD PUSH1 0x0 KECCAK256 PUSH1 0x0 SWAP1 SLOAD SWAP1 PUSH2 0x100 EXP SWAP1 DIV PUSH20 0xFFFFFFFFFFFFFFFFFFFFFFFFFFFFFFFFFFFFFFFF AND SWAP1 POP DUP1 PUSH20 0xFFFFFFFFFFFFFFFFFFFFFFFFFFFFFFFFFFFFFFFF AND CALLER PUSH20 0xFFFFFFFFFFFFFFFFFFFFFFFFFFFFFFFFFFFFFFFF AND EQ ISZERO DUP1 ISZERO PUSH2 0x78A JUMPI POP PUSH1 0x5 PUSH1 0x0 DUP3 PUSH20 0xFFFFFFFFFFFFFFFFFFFFFFFFFFFFFFFFFFFFFFFF AND PUSH20 0xFFFFFFFFFFFFFFFFFFFFFFFFFFFFFFFFFFFFFFFF AND DUP2 MSTORE PUSH1 0x20 ADD SWAP1 DUP2 MSTORE PUSH1 0x20 ADD PUSH1 0x0 KECCAK256 PUSH1 0x0 CALLER PUSH20 0xFFFFFFFFFFFFFFFFFFFFFFFFFFFFFFFFFFFFFFFF AND PUSH20 0xFFFFFFFFFFFFFFFFFFFFFFFFFFFFFFFFFFFFFFFF AND DUP2 MSTORE PUSH1 0x20 ADD SWAP1 DUP2 MSTORE PUSH1 0x20 ADD PUSH1 0x0 KECCAK256 PUSH1 0x0 SWAP1 SLOAD SWAP1 PUSH2 0x100 EXP SWAP1 DIV PUSH1 0xFF AND ISZERO JUMPDEST ISZERO PUSH2 0x7C1 JUMPI PUSH1 0x40 MLOAD PUSH32 0xEA8E4EB500000000000000000000000000000000000000000000000000000000 DUP2 MSTORE PUSH1 0x4 ADD PUSH1 0x40 MLOAD DUP1 SWAP2 SUB SWAP1 REVERT JUMPDEST DUP3 PUSH1 0x4 PUSH1 0x0 DUP5 DUP2 MSTORE PUSH1 0x20 ADD SWAP1 DUP2 MSTORE PUSH1 0x20 ADD PUSH1 0x0 KECCAK256 PUSH1 0x0 PUSH2 0x100 EXP DUP2 SLOAD DUP2 PUSH20 0xFFFFFFFFFFFFFFFFFFFFFFFFFFFFFFFFFFFFFFFF MUL NOT AND SWAP1 DUP4 PUSH20 0xFFFFFFFFFFFFFFFFFFFFFFFFFFFFFFFFFFFFFFFF AND MUL OR SWAP1 SSTORE POP DUP2 DUP4 PUSH20 0xFFFFFFFFFFFFFFFFFFFFFFFFFFFFFFFFFFFFFFFF AND DUP3 PUSH20 0xFFFFFFFFFFFFFFFFFFFFFFFFFFFFFFFFFFFFFFFF AND PUSH32 0x8C5BE1E5EBEC7D5BD14F71427D1E84F3DD0314C0F7B2291E5B200AC8C7C3B925 PUSH1 0x40 MLOAD PUSH1 0x40 MLOAD DUP1 SWAP2 SUB SWAP1 LOG4 POP POP POP JUMP JUMPDEST PUSH1 0x0 PUSH1 0x6 PUSH1 0x0 SWAP1 SLOAD SWAP1 PUSH2 0x100 EXP SWAP1 DIV PUSH12 0xFFFFFFFFFFFFFFFFFFFFFFFF AND PUSH12 0xFFFFFFFFFFFFFFFFFFFFFFFF AND SWAP1 POP SWAP1 JUMP JUMPDEST PUSH1 0x2 PUSH1 0x0 DUP3 DUP2 MSTORE PUSH1 0x20 ADD SWAP1 DUP2 MSTORE PUSH1 0x20 ADD PUSH1 0x0 KECCAK256 PUSH1 0x0 SWAP1 SLOAD SWAP1 PUSH2 0x100 EXP SWAP1 DIV PUSH20 0xFFFFFFFFFFFFFFFFFFFFFFFFFFFFFFFFFFFFFFFF AND PUSH20 0xFFFFFFFFFFFFFFFFFFFFFFFFFFFFFFFFFFFFFFFF AND DUP4 PUSH20 0xFFFFFFFFFFFFFFFFFFFFFFFFFFFFFFFFFFFFFFFF AND EQ PUSH2 0x93B JUMPI PUSH1 0x40 MLOAD PUSH32 0xC6DE3F2500000000000000000000000000000000000000000000000000000000 DUP2 MSTORE PUSH1 0x4 ADD PUSH1 0x40 MLOAD DUP1 SWAP2 SUB SWAP1 REVERT JUMPDEST PUSH1 0x0 PUSH20 0xFFFFFFFFFFFFFFFFFFFFFFFFFFFFFFFFFFFFFFFF AND DUP3 PUSH20 0xFFFFFFFFFFFFFFFFFFFFFFFFFFFFFFFFFFFFFFFF AND SUB PUSH2 0x9A1 JUMPI PUSH1 0x40 MLOAD PUSH32 0x9C8D2CD200000000000000000000000000000000000000000000000000000000 DUP2 MSTORE PUSH1 0x4 ADD PUSH1 0x40 MLOAD DUP1 SWAP2 SUB SWAP1 REVERT JUMPDEST DUP3 PUSH20 0xFFFFFFFFFFFFFFFFFFFFFFFFFFFFFFFFFFFFFFFF AND CALLER PUSH20 0xFFFFFFFFFFFFFFFFFFFFFFFFFFFFFFFFFFFFFFFF AND EQ ISZERO DUP1 ISZERO PUSH2 0xA64 JUMPI POP PUSH1 0x5 PUSH1 0x0 DUP5 PUSH20 0xFFFFFFFFFFFFFFFFFFFFFFFFFFFFFFFFFFFFFFFF AND PUSH20 0xFFFFFFFFFFFFFFFFFFFFFFFFFFFFFFFFFFFFFFFF AND DUP2 MSTORE PUSH1 0x20 ADD SWAP1 DUP2 MSTORE PUSH1 0x20 ADD PUSH1 0x0 KECCAK256 PUSH1 0x0 CALLER PUSH20 0xFFFFFFFFFFFFFFFFFFFFFFFFFFFFFFFFFFFFFFFF AND PUSH20 0xFFFFFFFFFFFFFFFFFFFFFFFFFFFFFFFFFFFFFFFF AND DUP2 MSTORE PUSH1 0x20 ADD SWAP1 DUP2 MSTORE PUSH1 0x20 ADD PUSH1 0x0 KECCAK256 PUSH1 0x0 SWAP1 SLOAD SWAP1 PUSH2 0x100 EXP SWAP1 DIV PUSH1 0xFF AND ISZERO JUMPDEST DUP1 ISZERO PUSH2 0xACF JUMPI POP PUSH1 0x4 PUSH1 0x0 DUP3 DUP2 MSTORE PUSH1 0x20 ADD SWAP1 DUP2 MSTORE PUSH1 0x20 ADD PUSH1 0x0 KECCAK256 PUSH1 0x0 SWAP1 SLOAD SWAP1 PUSH2 0x100 EXP SWAP1 DIV PUSH20 0xFFFFFFFFFFFFFFFFFFFFFFFFFFFFFFFFFFFFFFFF AND PUSH20 0xFFFFFFFFFFFFFFFFFFFFFFFFFFFFFFFFFFFFFFFF AND CALLER PUSH20 0xFFFFFFFFFFFFFFFFFFFFFFFFFFFFFFFFFFFFFFFF AND EQ ISZERO JUMPDEST ISZERO PUSH2 0xB06 JUMPI PUSH1 0x40 MLOAD PUSH32 0xEA8E4EB500000000000000000000000000000000000000000000000000000000 DUP2 MSTORE PUSH1 0x4 ADD PUSH1 0x40 MLOAD DUP1 SWAP2 SUB SWAP1 REVERT JUMPDEST PUSH1 0x3 PUSH1 0x0 DUP5 PUSH20 0xFFFFFFFFFFFFFFFFFFFFFFFFFFFFFFFFFFFFFFFF AND PUSH20 0xFFFFFFFFFFFFFFFFFFFFFFFFFFFFFFFFFFFFFFFF AND DUP2 MSTORE PUSH1 0x20 ADD SWAP1 DUP2 MSTORE PUSH1 0x20 ADD PUSH1 0x0 KECCAK256 PUSH1 0x0 DUP2 SLOAD DUP1 SWAP3 SWAP2 SWAP1 PUSH1 0x1 SWAP1 SUB SWAP2 SWAP1 POP SSTORE POP PUSH1 0x3 PUSH1 0x0 DUP4 PUSH20 0xFFFFFFFFFFFFFFFFFFFFFFFFFFFFFFFFFFFFFFFF AND PUSH20 0xFFFFFFFFFFFFFFFFFFFFFFFFFFFFFFFFFFFFFFFF AND DUP2 MSTORE PUSH1 0x20 ADD SWAP1 DUP2 MSTORE PUSH1 0x20 ADD PUSH1 0x0 KECCAK256 PUSH1 0x0 DUP2 SLOAD DUP1 SWAP3 SWAP2 SWAP1 PUSH1 0x1 ADD SWAP2 SWAP1 POP SSTORE POP DUP2 PUSH1 0x2 PUSH1 0x0 DUP4 DUP2 MSTORE PUSH1 0x20 ADD SWAP1 DUP2 MSTORE PUSH1 0x20 ADD PUSH1 0x0 KECCAK256 PUSH1 0x0 PUSH2 0x100 EXP DUP2 SLOAD DUP2 PUSH20 0xFFFFFFFFFFFFFFFFFFFFFFFFFFFFFFFFFFFFFFFF MUL NOT AND SWAP1 DUP4 PUSH20 0xFFFFFFFFFFFFFFFFFFFFFFFFFFFFFFFFFFFFFFFF AND MUL OR SWAP1 SSTORE POP PUSH1 0x4 PUSH1 0x0 DUP3 DUP2 MSTORE PUSH1 0x20 ADD SWAP1 DUP2 MSTORE PUSH1 0x20 ADD PUSH1 0x0 KECCAK256 PUSH1 0x0 PUSH2 0x100 EXP DUP2 SLOAD SWAP1 PUSH20 0xFFFFFFFFFFFFFFFFFFFFFFFFFFFFFFFFFFFFFFFF MUL NOT AND SWAP1 SSTORE DUP1 DUP3 PUSH20 0xFFFFFFFFFFFFFFFFFFFFFFFFFFFFFFFFFFFFFFFF AND DUP5 PUSH20 0xFFFFFFFFFFFFFFFFFFFFFFFFFFFFFFFFFFFFFFFF AND PUSH32 0xDDF252AD1BE2C89B69C2B068FC378DAA952BA7F163C4A11628F55A4DF523B3EF PUSH1 0x40 MLOAD PUSH1 0x40 MLOAD DUP1 SWAP2 SUB SWAP1 LOG4 POP POP POP JUMP JUMPDEST PUSH2 0xC98 DUP4 DUP4 DUP4 PUSH2 0x8A3 JUMP JUMPDEST PUSH1 0x0 DUP3 PUSH20 0xFFFFFFFFFFFFFFFFFFFFFFFFFFFFFFFFFFFFFFFF AND EXTCODESIZE EQ ISZERO DUP1 ISZERO PUSH2 0xD84 JUMPI POP PUSH4 0x150B7A02 PUSH1 0xE0 SHL PUSH28 0xFFFFFFFFFFFFFFFFFFFFFFFFFFFFFFFFFFFFFFFFFFFFFFFFFFFFFFFF NOT AND DUP3 PUSH20 0xFFFFFFFFFFFFFFFFFFFFFFFFFFFFFFFFFFFFFFFF AND PUSH4 0x150B7A02 CALLER DUP7 DUP6 PUSH1 0x40 MLOAD DUP5 PUSH4 0xFFFFFFFF AND PUSH1 0xE0 SHL DUP2 MSTORE PUSH1 0x4 ADD PUSH2 0xD1F SWAP4 SWAP3 SWAP2 SWAP1 PUSH2 0x1DD7 JUMP JUMPDEST PUSH1 0x20 PUSH1 0x40 MLOAD DUP1 DUP4 SUB DUP2 PUSH1 0x0 DUP8 GAS CALL ISZERO DUP1 ISZERO PUSH2 0xD3E JUMPI RETURNDATASIZE PUSH1 0x0 DUP1 RETURNDATACOPY RETURNDATASIZE PUSH1 0x0 REVERT JUMPDEST POP POP POP POP PUSH1 0x40 MLOAD RETURNDATASIZE PUSH1 0x1F NOT PUSH1 0x1F DUP3 ADD AND DUP3 ADD DUP1 PUSH1 0x40 MSTORE POP DUP2 ADD SWAP1 PUSH2 0xD62 SWAP2 SWAP1 PUSH2 0x1E36 JUMP JUMPDEST PUSH28 0xFFFFFFFFFFFFFFFFFFFFFFFFFFFFFFFFFFFFFFFFFFFFFFFFFFFFFFFF NOT AND EQ ISZERO JUMPDEST ISZERO PUSH2 0xDBB JUMPI PUSH1 0x40 MLOAD PUSH32 0x3DA6393100000000000000000000000000000000000000000000000000000000 DUP2 MSTORE PUSH1 0x4 ADD PUSH1 0x40 MLOAD DUP1 SWAP2 SUB SWAP1 REVERT JUMPDEST POP POP POP JUMP JUMPDEST PUSH1 0x0 DUP1 PUSH2 0xDCC DUP4 PUSH2 0xF4C JUMP JUMPDEST SWAP1 POP DUP1 PUSH20 0xFFFFFFFFFFFFFFFFFFFFFFFFFFFFFFFFFFFFFFFF AND DUP5 PUSH20 0xFFFFFFFFFFFFFFFFFFFFFFFFFFFFFFFFFFFFFFFF AND EQ DUP1 PUSH2 0xE8E JUMPI POP PUSH1 0x5 PUSH1 0x0 DUP3 PUSH20 0xFFFFFFFFFFFFFFFFFFFFFFFFFFFFFFFFFFFFFFFF AND PUSH20 0xFFFFFFFFFFFFFFFFFFFFFFFFFFFFFFFFFFFFFFFF AND DUP2 MSTORE PUSH1 0x20 ADD SWAP1 DUP2 MSTORE PUSH1 0x20 ADD PUSH1 0x0 KECCAK256 PUSH1 0x0 DUP6 PUSH20 0xFFFFFFFFFFFFFFFFFFFFFFFFFFFFFFFFFFFFFFFF AND PUSH20 0xFFFFFFFFFFFFFFFFFFFFFFFFFFFFFFFFFFFFFFFF AND DUP2 MSTORE PUSH1 0x20 ADD SWAP1 DUP2 MSTORE PUSH1 0x20 ADD PUSH1 0x0 KECCAK256 PUSH1 0x0 SWAP1 SLOAD SWAP1 PUSH2 0x100 EXP SWAP1 DIV PUSH1 0xFF AND JUMPDEST DUP1 PUSH2 0xEF7 JUMPI POP PUSH1 0x4 PUSH1 0x0 DUP5 DUP2 MSTORE PUSH1 0x20 ADD SWAP1 DUP2 MSTORE PUSH1 0x20 ADD PUSH1 0x0 KECCAK256 PUSH1 0x0 SWAP1 SLOAD SWAP1 PUSH2 0x100 EXP SWAP1 DIV PUSH20 0xFFFFFFFFFFFFFFFFFFFFFFFFFFFFFFFFFFFFFFFF AND PUSH20 0xFFFFFFFFFFFFFFFFFFFFFFFFFFFFFFFFFFFFFFFF AND DUP5 PUSH20 0xFFFFFFFFFFFFFFFFFFFFFFFFFFFFFFFFFFFFFFFF AND EQ JUMPDEST SWAP2 POP POP SWAP3 SWAP2 POP POP JUMP JUMPDEST PUSH1 0x7 PUSH1 0x0 SWAP1 SLOAD SWAP1 PUSH2 0x100 EXP SWAP1 DIV PUSH20 0xFFFFFFFFFFFFFFFFFFFFFFFFFFFFFFFFFFFFFFFF AND DUP2 JUMP JUMPDEST PUSH1 0x6 PUSH1 0xC SWAP1 SLOAD SWAP1 PUSH2 0x100 EXP SWAP1 DIV PUSH20 0xFFFFFFFFFFFFFFFFFFFFFFFFFFFFFFFFFFFFFFFF AND DUP2 JUMP JUMPDEST PUSH1 0x0 DUP1 PUSH20 0xFFFFFFFFFFFFFFFFFFFFFFFFFFFFFFFFFFFFFFFF AND PUSH1 0x2 PUSH1 0x0 DUP5 DUP2 MSTORE PUSH1 0x20 ADD SWAP1 DUP2 MSTORE PUSH1 0x20 ADD PUSH1 0x0 KECCAK256 PUSH1 0x0 SWAP1 SLOAD SWAP1 PUSH2 0x100 EXP SWAP1 DIV PUSH20 0xFFFFFFFFFFFFFFFFFFFFFFFFFFFFFFFFFFFFFFFF AND SWAP2 POP DUP2 PUSH20 0xFFFFFFFFFFFFFFFFFFFFFFFFFFFFFFFFFFFFFFFF AND SUB PUSH2 0xFE9 JUMPI PUSH1 0x40 MLOAD PUSH32 0x4D5E5FB300000000000000000000000000000000000000000000000000000000 DUP2 MSTORE PUSH1 0x4 ADD PUSH1 0x40 MLOAD DUP1 SWAP2 SUB SWAP1 REVERT JUMPDEST SWAP2 SWAP1 POP JUMP JUMPDEST PUSH1 0x0 PUSH1 0x6 PUSH1 0xC SWAP1 SLOAD SWAP1 PUSH2 0x100 EXP SWAP1 DIV PUSH20 0xFFFFFFFFFFFFFFFFFFFFFFFFFFFFFFFFFFFFFFFF AND PUSH20 0xFFFFFFFFFFFFFFFFFFFFFFFFFFFFFFFFFFFFFFFF AND CALLER PUSH20 0xFFFFFFFFFFFFFFFFFFFFFFFFFFFFFFFFFFFFFFFF AND EQ PUSH2 0x1077 JUMPI PUSH1 0x40 MLOAD PUSH32 0x7C214F0400000000000000000000000000000000000000000000000000000000 DUP2 MSTORE PUSH1 0x4 ADD PUSH1 0x40 MLOAD DUP1 SWAP2 SUB SWAP1 REVERT JUMPDEST PUSH1 0x0 PUSH20 0xFFFFFFFFFFFFFFFFFFFFFFFFFFFFFFFFFFFFFFFF AND DUP3 PUSH20 0xFFFFFFFFFFFFFFFFFFFFFFFFFFFFFFFFFFFFFFFF AND SUB PUSH2 0x10DD JUMPI PUSH1 0x40 MLOAD PUSH32 0x9C8D2CD200000000000000000000000000000000000000000000000000000000 DUP2 MSTORE PUSH1 0x4 ADD PUSH1 0x40 MLOAD DUP1 SWAP2 SUB SWAP1 REVERT JUMPDEST PUSH1 0x6 PUSH1 0x0 DUP2 DUP2 SWAP1 SLOAD SWAP1 PUSH2 0x100 EXP SWAP1 DIV PUSH12 0xFFFFFFFFFFFFFFFFFFFFFFFF AND PUSH1 0x1 ADD SWAP2 SWAP1 PUSH2 0x100 EXP DUP2 SLOAD DUP2 PUSH12 0xFFFFFFFFFFFFFFFFFFFFFFFF MUL NOT AND SWAP1 DUP4 PUSH12 0xFFFFFFFFFFFFFFFFFFFFFFFF AND MUL OR SWAP1 SSTORE PUSH12 0xFFFFFFFFFFFFFFFFFFFFFFFF AND SWAP1 POP PUSH1 0x3 PUSH1 0x0 DUP4 PUSH20 0xFFFFFFFFFFFFFFFFFFFFFFFFFFFFFFFFFFFFFFFF AND PUSH20 0xFFFFFFFFFFFFFFFFFFFFFFFFFFFFFFFFFFFFFFFF AND DUP2 MSTORE PUSH1 0x20 ADD SWAP1 DUP2 MSTORE PUSH1 0x20 ADD PUSH1 0x0 KECCAK256 PUSH1 0x0 DUP2 SLOAD DUP1 SWAP3 SWAP2 SWAP1 PUSH1 0x1 ADD SWAP2 SWAP1 POP SSTORE POP DUP2 PUSH1 0x2 PUSH1 0x0 DUP4 DUP2 MSTORE PUSH1 0x20 ADD SWAP1 DUP2 MSTORE PUSH1 0x20 ADD PUSH1 0x0 KECCAK256 PUSH1 0x0 PUSH2 0x100 EXP DUP2 SLOAD DUP2 PUSH20 0xFFFFFFFFFFFFFFFFFFFFFFFFFFFFFFFFFFFFFFFF MUL NOT AND SWAP1 DUP4 PUSH20 0xFFFFFFFFFFFFFFFFFFFFFFFFFFFFFFFFFFFFFFFF AND MUL OR SWAP1 SSTORE POP DUP1 DUP3 PUSH20 0xFFFFFFFFFFFFFFFFFFFFFFFFFFFFFFFFFFFFFFFF AND PUSH1 0x0 PUSH20 0xFFFFFFFFFFFFFFFFFFFFFFFFFFFFFFFFFFFFFFFF AND PUSH32 0xDDF252AD1BE2C89B69C2B068FC378DAA952BA7F163C4A11628F55A4DF523B3EF PUSH1 0x40 MLOAD PUSH1 0x40 MLOAD DUP1 SWAP2 SUB SWAP1 LOG4 SWAP2 SWAP1 POP JUMP JUMPDEST PUSH1 0x0 DUP1 PUSH20 0xFFFFFFFFFFFFFFFFFFFFFFFFFFFFFFFFFFFFFFFF AND DUP3 PUSH20 0xFFFFFFFFFFFFFFFFFFFFFFFFFFFFFFFFFFFFFFFF AND SUB PUSH2 0x12A3 JUMPI PUSH1 0x40 MLOAD PUSH32 0x4D5E5FB300000000000000000000000000000000000000000000000000000000 DUP2 MSTORE PUSH1 0x4 ADD PUSH1 0x40 MLOAD DUP1 SWAP2 SUB SWAP1 REVERT JUMPDEST PUSH1 0x3 PUSH1 0x0 DUP4 PUSH20 0xFFFFFFFFFFFFFFFFFFFFFFFFFFFFFFFFFFFFFFFF AND PUSH20 0xFFFFFFFFFFFFFFFFFFFFFFFFFFFFFFFFFFFFFFFF AND DUP2 MSTORE PUSH1 0x20 ADD SWAP1 DUP2 MSTORE PUSH1 0x20 ADD PUSH1 0x0 KECCAK256 SLOAD SWAP1 POP SWAP2 SWAP1 POP JUMP JUMPDEST PUSH1 0x1 DUP1 SLOAD PUSH2 0x12F7 SWAP1 PUSH2 0x1D6F JUMP JUMPDEST DUP1 PUSH1 0x1F ADD PUSH1 0x20 DUP1 SWAP2 DIV MUL PUSH1 0x20 ADD PUSH1 0x40 MLOAD SWAP1 DUP2 ADD PUSH1 0x40 MSTORE DUP1 SWAP3 SWAP2 SWAP1 DUP2 DUP2 MSTORE PUSH1 0x20 ADD DUP3 DUP1 SLOAD PUSH2 0x1323 SWAP1 PUSH2 0x1D6F JUMP JUMPDEST DUP1 ISZERO PUSH2 0x1370 JUMPI DUP1 PUSH1 0x1F LT PUSH2 0x1345 JUMPI PUSH2 0x100 DUP1 DUP4 SLOAD DIV MUL DUP4 MSTORE SWAP2 PUSH1 0x20 ADD SWAP2 PUSH2 0x1370 JUMP JUMPDEST DUP3 ADD SWAP2 SWAP1 PUSH1 0x0 MSTORE PUSH1 0x20 PUSH1 0x0 KECCAK256 SWAP1 JUMPDEST DUP2 SLOAD DUP2 MSTORE SWAP1 PUSH1 0x1 ADD SWAP1 PUSH1 0x20 ADD DUP1 DUP4 GT PUSH2 0x1353 JUMPI DUP3 SWAP1 SUB PUSH1 0x1F AND DUP3 ADD SWAP2 JUMPDEST POP POP POP POP POP DUP2 JUMP JUMPDEST PUSH1 0x6 PUSH1 0xC SWAP1 SLOAD SWAP1 PUSH2 0x100 EXP SWAP1 DIV PUSH20 0xFFFFFFFFFFFFFFFFFFFFFFFFFFFFFFFFFFFFFFFF AND PUSH20 0xFFFFFFFFFFFFFFFFFFFFFFFFFFFFFFFFFFFFFFFF AND CALLER PUSH20 0xFFFFFFFFFFFFFFFFFFFFFFFFFFFFFFFFFFFFFFFF AND EQ PUSH2 0x13FF JUMPI PUSH1 0x40 MLOAD PUSH32 0x7C214F0400000000000000000000000000000000000000000000000000000000 DUP2 MSTORE PUSH1 0x4 ADD PUSH1 0x40 MLOAD DUP1 SWAP2 SUB SWAP1 REVERT JUMPDEST PUSH1 0x0 PUSH20 0xFFFFFFFFFFFFFFFFFFFFFFFFFFFFFFFFFFFFFFFF AND DUP2 PUSH20 0xFFFFFFFFFFFFFFFFFFFFFFFFFFFFFFFFFFFFFFFF AND SUB PUSH2 0x1465 JUMPI PUSH1 0x40 MLOAD PUSH32 0xEDB7F57100000000000000000000000000000000000000000000000000000000 DUP2 MSTORE PUSH1 0x4 ADD PUSH1 0x40 MLOAD DUP1 SWAP2 SUB SWAP1 REVERT JUMPDEST DUP1 PUSH1 0x7 PUSH1 0x0 PUSH2 0x100 EXP DUP2 SLOAD DUP2 PUSH20 0xFFFFFFFFFFFFFFFFFFFFFFFFFFFFFFFFFFFFFFFF MUL NOT AND SWAP1 DUP4 PUSH20 0xFFFFFFFFFFFFFFFFFFFFFFFFFFFFFFFFFFFFFFFF AND MUL OR SWAP1 SSTORE POP POP JUMP JUMPDEST DUP1 PUSH1 0x5 PUSH1 0x0 CALLER PUSH20 0xFFFFFFFFFFFFFFFFFFFFFFFFFFFFFFFFFFFFFFFF AND PUSH20 0xFFFFFFFFFFFFFFFFFFFFFFFFFFFFFFFFFFFFFFFF AND DUP2 MSTORE PUSH1 0x20 ADD SWAP1 DUP2 MSTORE PUSH1 0x20 ADD PUSH1 0x0 KECCAK256 PUSH1 0x0 DUP5 PUSH20 0xFFFFFFFFFFFFFFFFFFFFFFFFFFFFFFFFFFFFFFFF AND PUSH20 0xFFFFFFFFFFFFFFFFFFFFFFFFFFFFFFFFFFFFFFFF AND DUP2 MSTORE PUSH1 0x20 ADD SWAP1 DUP2 MSTORE PUSH1 0x20 ADD PUSH1 0x0 KECCAK256 PUSH1 0x0 PUSH2 0x100 EXP DUP2 SLOAD DUP2 PUSH1 0xFF MUL NOT AND SWAP1 DUP4 ISZERO ISZERO MUL OR SWAP1 SSTORE POP DUP2 PUSH20 0xFFFFFFFFFFFFFFFFFFFFFFFFFFFFFFFFFFFFFFFF AND CALLER PUSH20 0xFFFFFFFFFFFFFFFFFFFFFFFFFFFFFFFFFFFFFFFF AND PUSH32 0x17307EAB39AB6107E8899845AD3D59BD9653F200F220920489CA2B5937696C31 DUP4 PUSH1 0x40 MLOAD PUSH2 0x159A SWAP2 SWAP1 PUSH2 0x1905 JUMP JUMPDEST PUSH1 0x40 MLOAD DUP1 SWAP2 SUB SWAP1 LOG3 POP POP JUMP JUMPDEST PUSH2 0x15B1 DUP6 DUP6 DUP6 PUSH2 0x8A3 JUMP JUMPDEST PUSH1 0x0 DUP5 PUSH20 0xFFFFFFFFFFFFFFFFFFFFFFFFFFFFFFFFFFFFFFFF AND EXTCODESIZE EQ ISZERO DUP1 ISZERO PUSH2 0x16A1 JUMPI POP PUSH4 0x150B7A02 PUSH1 0xE0 SHL PUSH28 0xFFFFFFFFFFFFFFFFFFFFFFFFFFFFFFFFFFFFFFFFFFFFFFFFFFFFFFFF NOT AND DUP5 PUSH20 0xFFFFFFFFFFFFFFFFFFFFFFFFFFFFFFFFFFFFFFFF AND PUSH4 0x150B7A02 CALLER DUP9 DUP8 DUP8 DUP8 PUSH1 0x40 MLOAD DUP7 PUSH4 0xFFFFFFFF AND PUSH1 0xE0 SHL DUP2 MSTORE PUSH1 0x4 ADD PUSH2 0x163C SWAP6 SWAP5 SWAP4 SWAP3 SWAP2 SWAP1 PUSH2 0x1E9F JUMP JUMPDEST PUSH1 0x20 PUSH1 0x40 MLOAD DUP1 DUP4 SUB DUP2 PUSH1 0x0 DUP8 GAS CALL ISZERO DUP1 ISZERO PUSH2 0x165B JUMPI RETURNDATASIZE PUSH1 0x0 DUP1 RETURNDATACOPY RETURNDATASIZE PUSH1 0x0 REVERT JUMPDEST POP POP POP POP PUSH1 0x40 MLOAD RETURNDATASIZE PUSH1 0x1F NOT PUSH1 0x1F DUP3 ADD AND DUP3 ADD DUP1 PUSH1 0x40 MSTORE POP DUP2 ADD SWAP1 PUSH2 0x167F SWAP2 SWAP1 PUSH2 0x1E36 JUMP JUMPDEST PUSH28 0xFFFFFFFFFFFFFFFFFFFFFFFFFFFFFFFFFFFFFFFFFFFFFFFFFFFFFFFF NOT AND EQ ISZERO JUMPDEST ISZERO PUSH2 0x16D8 JUMPI PUSH1 0x40 MLOAD PUSH32 0x3DA6393100000000000000000000000000000000000000000000000000000000 DUP2 MSTORE PUSH1 0x4 ADD PUSH1 0x40 MLOAD DUP1 SWAP2 SUB SWAP1 REVERT JUMPDEST POP POP POP POP POP JUMP JUMPDEST PUSH1 0x60 PUSH1 0x0 PUSH20 0xFFFFFFFFFFFFFFFFFFFFFFFFFFFFFFFFFFFFFFFF AND PUSH1 0x2 PUSH1 0x0 DUP5 DUP2 MSTORE PUSH1 0x20 ADD SWAP1 DUP2 MSTORE PUSH1 0x20 ADD PUSH1 0x0 KECCAK256 PUSH1 0x0 SWAP1 SLOAD SWAP1 PUSH2 0x100 EXP SWAP1 DIV PUSH20 0xFFFFFFFFFFFFFFFFFFFFFFFFFFFFFFFFFFFFFFFF AND PUSH20 0xFFFFFFFFFFFFFFFFFFFFFFFFFFFFFFFFFFFFFFFF AND SUB PUSH2 0x177A JUMPI PUSH1 0x40 MLOAD PUSH32 0x4D5E5FB300000000000000000000000000000000000000000000000000000000 DUP2 MSTORE PUSH1 0x4 ADD PUSH1 0x40 MLOAD DUP1 SWAP2 SUB SWAP1 REVERT JUMPDEST PUSH1 0x7 PUSH1 0x0 SWAP1 SLOAD SWAP1 PUSH2 0x100 EXP SWAP1 DIV PUSH20 0xFFFFFFFFFFFFFFFFFFFFFFFFFFFFFFFFFFFFFFFF AND PUSH20 0xFFFFFFFFFFFFFFFFFFFFFFFFFFFFFFFFFFFFFFFF AND PUSH4 0xC87B56DD DUP4 PUSH1 0x40 MLOAD DUP3 PUSH4 0xFFFFFFFF AND PUSH1 0xE0 SHL DUP2 MSTORE PUSH1 0x4 ADD PUSH2 0x17D5 SWAP2 SWAP1 PUSH2 0x1B39 JUMP JUMPDEST PUSH1 0x0 PUSH1 0x40 MLOAD DUP1 DUP4 SUB DUP2 DUP7 GAS STATICCALL ISZERO DUP1 ISZERO PUSH2 0x17F2 JUMPI RETURNDATASIZE PUSH1 0x0 DUP1 RETURNDATACOPY RETURNDATASIZE PUSH1 0x0 REVERT JUMPDEST POP POP POP POP PUSH1 0x40 MLOAD RETURNDATASIZE PUSH1 0x0 DUP3 RETURNDATACOPY RETURNDATASIZE PUSH1 0x1F NOT PUSH1 0x1F DUP3 ADD AND DUP3 ADD DUP1 PUSH1 0x40 MSTORE POP DUP2 ADD SWAP1 PUSH2 0x181B SWAP2 SWAP1 PUSH2 0x200E JUMP JUMPDEST SWAP1 POP SWAP2 SWAP1 POP JUMP JUMPDEST PUSH1 0x5 PUSH1 0x20 MSTORE DUP2 PUSH1 0x0 MSTORE PUSH1 0x40 PUSH1 0x0 KECCAK256 PUSH1 0x20 MSTORE DUP1 PUSH1 0x0 MSTORE PUSH1 0x40 PUSH1 0x0 KECCAK256 PUSH1 0x0 SWAP2 POP SWAP2 POP SWAP1 SLOAD SWAP1 PUSH2 0x100 EXP SWAP1 DIV PUSH1 0xFF AND DUP2 JUMP JUMPDEST PUSH1 0x0 PUSH1 0x40 MLOAD SWAP1 POP SWAP1 JUMP JUMPDEST PUSH1 0x0 DUP1 REVERT JUMPDEST PUSH1 0x0 DUP1 REVERT JUMPDEST PUSH1 0x0 PUSH32 0xFFFFFFFF00000000000000000000000000000000000000000000000000000000 DUP3 AND SWAP1 POP SWAP2 SWAP1 POP JUMP JUMPDEST PUSH2 0x189A DUP2 PUSH2 0x1865 JUMP JUMPDEST DUP2 EQ PUSH2 0x18A5 JUMPI PUSH1 0x0 DUP1 REVERT JUMPDEST POP JUMP JUMPDEST PUSH1 0x0 DUP2 CALLDATALOAD SWAP1 POP PUSH2 0x18B7 DUP2 PUSH2 0x1891 JUMP JUMPDEST SWAP3 SWAP2 POP POP JUMP JUMPDEST PUSH1 0x0 PUSH1 0x20 DUP3 DUP5 SUB SLT ISZERO PUSH2 0x18D3 JUMPI PUSH2 0x18D2 PUSH2 0x185B JUMP JUMPDEST JUMPDEST PUSH1 0x0 PUSH2 0x18E1 DUP5 DUP3 DUP6 ADD PUSH2 0x18A8 JUMP JUMPDEST SWAP2 POP POP SWAP3 SWAP2 POP POP JUMP JUMPDEST PUSH1 0x0 DUP2 ISZERO ISZERO SWAP1 POP SWAP2 SWAP1 POP JUMP JUMPDEST PUSH2 0x18FF DUP2 PUSH2 0x18EA JUMP JUMPDEST DUP3 MSTORE POP POP JUMP JUMPDEST PUSH1 0x0 PUSH1 0x20 DUP3 ADD SWAP1 POP PUSH2 0x191A PUSH1 0x0 DUP4 ADD DUP5 PUSH2 0x18F6 JUMP JUMPDEST SWAP3 SWAP2 POP POP JUMP JUMPDEST PUSH1 0x0 PUSH20 0xFFFFFFFFFFFFFFFFFFFFFFFFFFFFFFFFFFFFFFFF DUP3 AND SWAP1 POP SWAP2 SWAP1 POP JUMP JUMPDEST PUSH1 0x0 PUSH2 0x194B DUP3 PUSH2 0x1920 JUMP JUMPDEST SWAP1 POP SWAP2 SWAP1 POP JUMP JUMPDEST PUSH2 0x195B DUP2 PUSH2 0x1940 JUMP JUMPDEST DUP2 EQ PUSH2 0x1966 JUMPI PUSH1 0x0 DUP1 REVERT JUMPDEST POP JUMP JUMPDEST PUSH1 0x0 DUP2 CALLDATALOAD SWAP1 POP PUSH2 0x1978 DUP2 PUSH2 0x1952 JUMP JUMPDEST SWAP3 SWAP2 POP POP JUMP JUMPDEST PUSH1 0x0 PUSH1 0x20 DUP3 DUP5 SUB SLT ISZERO PUSH2 0x1994 JUMPI PUSH2 0x1993 PUSH2 0x185B JUMP JUMPDEST JUMPDEST PUSH1 0x0 PUSH2 0x19A2 DUP5 DUP3 DUP6 ADD PUSH2 0x1969 JUMP JUMPDEST SWAP2 POP POP SWAP3 SWAP2 POP POP JUMP JUMPDEST PUSH1 0x0 DUP2 MLOAD SWAP1 POP SWAP2 SWAP1 POP JUMP JUMPDEST PUSH1 0x0 DUP3 DUP3 MSTORE PUSH1 0x20 DUP3 ADD SWAP1 POP SWAP3 SWAP2 POP POP JUMP JUMPDEST PUSH1 0x0 JUMPDEST DUP4 DUP2 LT ISZERO PUSH2 0x19E5 JUMPI DUP1 DUP3 ADD MLOAD DUP2 DUP5 ADD MSTORE PUSH1 0x20 DUP2 ADD SWAP1 POP PUSH2 0x19CA JUMP JUMPDEST PUSH1 0x0 DUP5 DUP5 ADD MSTORE POP POP POP POP JUMP JUMPDEST PUSH1 0x0 PUSH1 0x1F NOT PUSH1 0x1F DUP4 ADD AND SWAP1 POP SWAP2 SWAP1 POP JUMP JUMPDEST PUSH1 0x0 PUSH2 0x1A0D DUP3 PUSH2 0x19AB JUMP JUMPDEST PUSH2 0x1A17 DUP2 DUP6 PUSH2 0x19B6 JUMP JUMPDEST SWAP4 POP PUSH2 0x1A27 DUP2 DUP6 PUSH1 0x20 DUP7 ADD PUSH2 0x19C7 JUMP JUMPDEST PUSH2 0x1A30 DUP2 PUSH2 0x19F1 JUMP JUMPDEST DUP5 ADD SWAP2 POP POP SWAP3 SWAP2 POP POP JUMP JUMPDEST PUSH1 0x0 PUSH1 0x20 DUP3 ADD SWAP1 POP DUP2 DUP2 SUB PUSH1 0x0 DUP4 ADD MSTORE PUSH2 0x1A55 DUP2 DUP5 PUSH2 0x1A02 JUMP JUMPDEST SWAP1 POP SWAP3 SWAP2 POP POP JUMP JUMPDEST PUSH1 0x0 DUP2 SWAP1 POP SWAP2 SWAP1 POP JUMP JUMPDEST PUSH2 0x1A70 DUP2 PUSH2 0x1A5D JUMP JUMPDEST DUP2 EQ PUSH2 0x1A7B JUMPI PUSH1 0x0 DUP1 REVERT JUMPDEST POP JUMP JUMPDEST PUSH1 0x0 DUP2 CALLDATALOAD SWAP1 POP PUSH2 0x1A8D DUP2 PUSH2 0x1A67 JUMP JUMPDEST SWAP3 SWAP2 POP POP JUMP JUMPDEST PUSH1 0x0 PUSH1 0x20 DUP3 DUP5 SUB SLT ISZERO PUSH2 0x1AA9 JUMPI PUSH2 0x1AA8 PUSH2 0x185B JUMP JUMPDEST JUMPDEST PUSH1 0x0 PUSH2 0x1AB7 DUP5 DUP3 DUP6 ADD PUSH2 0x1A7E JUMP JUMPDEST SWAP2 POP POP SWAP3 SWAP2 POP POP JUMP JUMPDEST PUSH2 0x1AC9 DUP2 PUSH2 0x1940 JUMP JUMPDEST DUP3 MSTORE POP POP JUMP JUMPDEST PUSH1 0x0 PUSH1 0x20 DUP3 ADD SWAP1 POP PUSH2 0x1AE4 PUSH1 0x0 DUP4 ADD DUP5 PUSH2 0x1AC0 JUMP JUMPDEST SWAP3 SWAP2 POP POP JUMP JUMPDEST PUSH1 0x0 DUP1 PUSH1 0x40 DUP4 DUP6 SUB SLT ISZERO PUSH2 0x1B01 JUMPI PUSH2 0x1B00 PUSH2 0x185B JUMP JUMPDEST JUMPDEST PUSH1 0x0 PUSH2 0x1B0F DUP6 DUP3 DUP7 ADD PUSH2 0x1969 JUMP JUMPDEST SWAP3 POP POP PUSH1 0x20 PUSH2 0x1B20 DUP6 DUP3 DUP7 ADD PUSH2 0x1A7E JUMP JUMPDEST SWAP2 POP POP SWAP3 POP SWAP3 SWAP1 POP JUMP JUMPDEST PUSH2 0x1B33 DUP2 PUSH2 0x1A5D JUMP JUMPDEST DUP3 MSTORE POP POP JUMP JUMPDEST PUSH1 0x0 PUSH1 0x20 DUP3 ADD SWAP1 POP PUSH2 0x1B4E PUSH1 0x0 DUP4 ADD DUP5 PUSH2 0x1B2A JUMP JUMPDEST SWAP3 SWAP2 POP POP JUMP JUMPDEST PUSH1 0x0 DUP1 PUSH1 0x0 PUSH1 0x60 DUP5 DUP7 SUB SLT ISZERO PUSH2 0x1B6D JUMPI PUSH2 0x1B6C PUSH2 0x185B JUMP JUMPDEST JUMPDEST PUSH1 0x0 PUSH2 0x1B7B DUP7 DUP3 DUP8 ADD PUSH2 0x1969 JUMP JUMPDEST SWAP4 POP POP PUSH1 0x20 PUSH2 0x1B8C DUP7 DUP3 DUP8 ADD PUSH2 0x1969 JUMP JUMPDEST SWAP3 POP POP PUSH1 0x40 PUSH2 0x1B9D DUP7 DUP3 DUP8 ADD PUSH2 0x1A7E JUMP JUMPDEST SWAP2 POP POP SWAP3 POP SWAP3 POP SWAP3 JUMP JUMPDEST PUSH2 0x1BB0 DUP2 PUSH2 0x18EA JUMP JUMPDEST DUP2 EQ PUSH2 0x1BBB JUMPI PUSH1 0x0 DUP1 REVERT JUMPDEST POP JUMP JUMPDEST PUSH1 0x0 DUP2 CALLDATALOAD SWAP1 POP PUSH2 0x1BCD DUP2 PUSH2 0x1BA7 JUMP JUMPDEST SWAP3 SWAP2 POP POP JUMP JUMPDEST PUSH1 0x0 DUP1 PUSH1 0x40 DUP4 DUP6 SUB SLT ISZERO PUSH2 0x1BEA JUMPI PUSH2 0x1BE9 PUSH2 0x185B JUMP JUMPDEST JUMPDEST PUSH1 0x0 PUSH2 0x1BF8 DUP6 DUP3 DUP7 ADD PUSH2 0x1969 JUMP JUMPDEST SWAP3 POP POP PUSH1 0x20 PUSH2 0x1C09 DUP6 DUP3 DUP7 ADD PUSH2 0x1BBE JUMP JUMPDEST SWAP2 POP POP SWAP3 POP SWAP3 SWAP1 POP JUMP JUMPDEST PUSH1 0x0 DUP1 REVERT JUMPDEST PUSH1 0x0 DUP1 REVERT JUMPDEST PUSH1 0x0 DUP1 REVERT JUMPDEST PUSH1 0x0 DUP1 DUP4 PUSH1 0x1F DUP5 ADD SLT PUSH2 0x1C38 JUMPI PUSH2 0x1C37 PUSH2 0x1C13 JUMP JUMPDEST JUMPDEST DUP3 CALLDATALOAD SWAP1 POP PUSH8 0xFFFFFFFFFFFFFFFF DUP2 GT ISZERO PUSH2 0x1C55 JUMPI PUSH2 0x1C54 PUSH2 0x1C18 JUMP JUMPDEST JUMPDEST PUSH1 0x20 DUP4 ADD SWAP2 POP DUP4 PUSH1 0x1 DUP3 MUL DUP4 ADD GT ISZERO PUSH2 0x1C71 JUMPI PUSH2 0x1C70 PUSH2 0x1C1D JUMP JUMPDEST JUMPDEST SWAP3 POP SWAP3 SWAP1 POP JUMP JUMPDEST PUSH1 0x0 DUP1 PUSH1 0x0 DUP1 PUSH1 0x0 PUSH1 0x80 DUP7 DUP9 SUB SLT ISZERO PUSH2 0x1C94 JUMPI PUSH2 0x1C93 PUSH2 0x185B JUMP JUMPDEST JUMPDEST PUSH1 0x0 PUSH2 0x1CA2 DUP9 DUP3 DUP10 ADD PUSH2 0x1969 JUMP JUMPDEST SWAP6 POP POP PUSH1 0x20 PUSH2 0x1CB3 DUP9 DUP3 DUP10 ADD PUSH2 0x1969 JUMP JUMPDEST SWAP5 POP POP PUSH1 0x40 PUSH2 0x1CC4 DUP9 DUP3 DUP10 ADD PUSH2 0x1A7E JUMP JUMPDEST SWAP4 POP POP PUSH1 0x60 DUP7 ADD CALLDATALOAD PUSH8 0xFFFFFFFFFFFFFFFF DUP2 GT ISZERO PUSH2 0x1CE5 JUMPI PUSH2 0x1CE4 PUSH2 0x1860 JUMP JUMPDEST JUMPDEST PUSH2 0x1CF1 DUP9 DUP3 DUP10 ADD PUSH2 0x1C22 JUMP JUMPDEST SWAP3 POP SWAP3 POP POP SWAP3 SWAP6 POP SWAP3 SWAP6 SWAP1 SWAP4 POP JUMP JUMPDEST PUSH1 0x0 DUP1 PUSH1 0x40 DUP4 DUP6 SUB SLT ISZERO PUSH2 0x1D17 JUMPI PUSH2 0x1D16 PUSH2 0x185B JUMP JUMPDEST JUMPDEST PUSH1 0x0 PUSH2 0x1D25 DUP6 DUP3 DUP7 ADD PUSH2 0x1969 JUMP JUMPDEST SWAP3 POP POP PUSH1 0x20 PUSH2 0x1D36 DUP6 DUP3 DUP7 ADD PUSH2 0x1969 JUMP JUMPDEST SWAP2 POP POP SWAP3 POP SWAP3 SWAP1 POP JUMP JUMPDEST PUSH32 0x4E487B7100000000000000000000000000000000000000000000000000000000 PUSH1 0x0 MSTORE PUSH1 0x22 PUSH1 0x4 MSTORE PUSH1 0x24 PUSH1 0x0 REVERT JUMPDEST PUSH1 0x0 PUSH1 0x2 DUP3 DIV SWAP1 POP PUSH1 0x1 DUP3 AND DUP1 PUSH2 0x1D87 JUMPI PUSH1 0x7F DUP3 AND SWAP2 POP JUMPDEST PUSH1 0x20 DUP3 LT DUP2 SUB PUSH2 0x1D9A JUMPI PUSH2 0x1D99 PUSH2 0x1D40 JUMP JUMPDEST JUMPDEST POP SWAP2 SWAP1 POP JUMP JUMPDEST PUSH1 0x0 DUP3 DUP3 MSTORE PUSH1 0x20 DUP3 ADD SWAP1 POP SWAP3 SWAP2 POP POP JUMP JUMPDEST POP JUMP JUMPDEST PUSH1 0x0 PUSH2 0x1DC1 PUSH1 0x0 DUP4 PUSH2 0x1DA0 JUMP JUMPDEST SWAP2 POP PUSH2 0x1DCC DUP3 PUSH2 0x1DB1 JUMP JUMPDEST PUSH1 0x0 DUP3 ADD SWAP1 POP SWAP2 SWAP1 POP JUMP JUMPDEST PUSH1 0x0 PUSH1 0x80 DUP3 ADD SWAP1 POP PUSH2 0x1DEC PUSH1 0x0 DUP4 ADD DUP7 PUSH2 0x1AC0 JUMP JUMPDEST PUSH2 0x1DF9 PUSH1 0x20 DUP4 ADD DUP6 PUSH2 0x1AC0 JUMP JUMPDEST PUSH2 0x1E06 PUSH1 0x40 DUP4 ADD DUP5 PUSH2 0x1B2A JUMP JUMPDEST DUP2 DUP2 SUB PUSH1 0x60 DUP4 ADD MSTORE PUSH2 0x1E17 DUP2 PUSH2 0x1DB4 JUMP JUMPDEST SWAP1 POP SWAP5 SWAP4 POP POP POP POP JUMP JUMPDEST PUSH1 0x0 DUP2 MLOAD SWAP1 POP PUSH2 0x1E30 DUP2 PUSH2 0x1891 JUMP JUMPDEST SWAP3 SWAP2 POP POP JUMP JUMPDEST PUSH1 0x0 PUSH1 0x20 DUP3 DUP5 SUB SLT ISZERO PUSH2 0x1E4C JUMPI PUSH2 0x1E4B PUSH2 0x185B JUMP JUMPDEST JUMPDEST PUSH1 0x0 PUSH2 0x1E5A DUP5 DUP3 DUP6 ADD PUSH2 0x1E21 JUMP JUMPDEST SWAP2 POP POP SWAP3 SWAP2 POP POP JUMP JUMPDEST DUP3 DUP2 DUP4 CALLDATACOPY PUSH1 0x0 DUP4 DUP4 ADD MSTORE POP POP POP JUMP JUMPDEST PUSH1 0x0 PUSH2 0x1E7E DUP4 DUP6 PUSH2 0x1DA0 JUMP JUMPDEST SWAP4 POP PUSH2 0x1E8B DUP4 DUP6 DUP5 PUSH2 0x1E63 JUMP JUMPDEST PUSH2 0x1E94 DUP4 PUSH2 0x19F1 JUMP JUMPDEST DUP5 ADD SWAP1 POP SWAP4 SWAP3 POP POP POP JUMP JUMPDEST PUSH1 0x0 PUSH1 0x80 DUP3 ADD SWAP1 POP PUSH2 0x1EB4 PUSH1 0x0 DUP4 ADD DUP9 PUSH2 0x1AC0 JUMP JUMPDEST PUSH2 0x1EC1 PUSH1 0x20 DUP4 ADD DUP8 PUSH2 0x1AC0 JUMP JUMPDEST PUSH2 0x1ECE PUSH1 0x40 DUP4 ADD DUP7 PUSH2 0x1B2A JUMP JUMPDEST DUP2 DUP2 SUB PUSH1 0x60 DUP4 ADD MSTORE PUSH2 0x1EE1 DUP2 DUP5 DUP7 PUSH2 0x1E72 JUMP JUMPDEST SWAP1 POP SWAP7 SWAP6 POP POP POP POP POP POP JUMP JUMPDEST PUSH1 0x0 DUP1 REVERT JUMPDEST PUSH32 0x4E487B7100000000000000000000000000000000000000000000000000000000 PUSH1 0x0 MSTORE PUSH1 0x41 PUSH1 0x4 MSTORE PUSH1 0x24 PUSH1 0x0 REVERT JUMPDEST PUSH2 0x1F2A DUP3 PUSH2 0x19F1 JUMP JUMPDEST DUP2 ADD DUP2 DUP2 LT PUSH8 0xFFFFFFFFFFFFFFFF DUP3 GT OR ISZERO PUSH2 0x1F49 JUMPI PUSH2 0x1F48 PUSH2 0x1EF2 JUMP JUMPDEST JUMPDEST DUP1 PUSH1 0x40 MSTORE POP POP POP JUMP JUMPDEST PUSH1 0x0 PUSH2 0x1F5C PUSH2 0x1851 JUMP JUMPDEST SWAP1 POP PUSH2 0x1F68 DUP3 DUP3 PUSH2 0x1F21 JUMP JUMPDEST SWAP2 SWAP1 POP JUMP JUMPDEST PUSH1 0x0 PUSH8 0xFFFFFFFFFFFFFFFF DUP3 GT ISZERO PUSH2 0x1F88 JUMPI PUSH2 0x1F87 PUSH2 0x1EF2 JUMP JUMPDEST JUMPDEST PUSH2 0x1F91 DUP3 PUSH2 0x19F1 JUMP JUMPDEST SWAP1 POP PUSH1 0x20 DUP2 ADD SWAP1 POP SWAP2 SWAP1 POP JUMP JUMPDEST PUSH1 0x0 PUSH2 0x1FB1 PUSH2 0x1FAC DUP5 PUSH2 0x1F6D JUMP JUMPDEST PUSH2 0x1F52 JUMP JUMPDEST SWAP1 POP DUP3 DUP2 MSTORE PUSH1 0x20 DUP2 ADD DUP5 DUP5 DUP5 ADD GT ISZERO PUSH2 0x1FCD JUMPI PUSH2 0x1FCC PUSH2 0x1EED JUMP JUMPDEST JUMPDEST PUSH2 0x1FD8 DUP5 DUP3 DUP6 PUSH2 0x19C7 JUMP JUMPDEST POP SWAP4 SWAP3 POP POP POP JUMP JUMPDEST PUSH1 0x0 DUP3 PUSH1 0x1F DUP4 ADD SLT PUSH2 0x1FF5 JUMPI PUSH2 0x1FF4 PUSH2 0x1C13 JUMP JUMPDEST JUMPDEST DUP2 MLOAD PUSH2 0x2005 DUP5 DUP3 PUSH1 0x20 DUP7 ADD PUSH2 0x1F9E JUMP JUMPDEST SWAP2 POP POP SWAP3 SWAP2 POP POP JUMP JUMPDEST PUSH1 0x0 PUSH1 0x20 DUP3 DUP5 SUB SLT ISZERO PUSH2 0x2024 JUMPI PUSH2 0x2023 PUSH2 0x185B JUMP JUMPDEST JUMPDEST PUSH1 0x0 DUP3 ADD MLOAD PUSH8 0xFFFFFFFFFFFFFFFF DUP2 GT ISZERO PUSH2 0x2042 JUMPI PUSH2 0x2041 PUSH2 0x1860 JUMP JUMPDEST JUMPDEST PUSH2 0x204E DUP5 DUP3 DUP6 ADD PUSH2 0x1FE0 JUMP JUMPDEST SWAP2 POP POP SWAP3 SWAP2 POP POP JUMP INVALID LOG2 PUSH5 0x6970667358 0x22 SLT KECCAK256 0xDD PUSH31 0x1521A1A789A83A6AD6C65CF3B9B05E99B5CC75CA62F716081F0A8450819D64 PUSH20 0x6F6C634300081300330000000000000000000000 "
				},
				"gasEstimates": {
					"creation": {
						"codeDepositCost": "1666600",
						"executionCost": "infinite",
						"totalCost": "infinite"
					},
					"external": {
						"approve(address,uint256)": "31618",
						"balanceOf(address)": "2965",
						"changeNFTDescriptor(address)": "26999",
						"changeOperator(address)": "27073",
						"getApproved(uint256)": "2929",
						"isApprovedForAll(address,address)": "infinite",
						"isApprovedOrOwner(address,uint256)": "7834",
						"mint(address)": "79984",
						"name()": "infinite",
						"nftDescriptor()": "2625",
						"operator()": "2587",
						"ownerOf(uint256)": "2945",
						"safeTransferFrom(address,address,uint256)": "infinite",
						"safeTransferFrom(address,address,uint256,bytes)": "infinite",
						"setApprovalForAll(address,bool)": "infinite",
						"supportsInterface(bytes4)": "745",
						"symbol()": "infinite",
						"tokenURI(uint256)": "infinite",
						"totalSupply()": "2502",
						"transferFrom(address,address,uint256)": "infinite"
					}
				},
				"methodIdentifiers": {
					"approve(address,uint256)": "095ea7b3",
					"balanceOf(address)": "70a08231",
					"changeNFTDescriptor(address)": "9d8168eb",
					"changeOperator(address)": "06394c9b",
					"getApproved(uint256)": "081812fc",
					"isApprovedForAll(address,address)": "e985e9c5",
					"isApprovedOrOwner(address,uint256)": "430c2081",
					"mint(address)": "6a627842",
					"name()": "06fdde03",
					"nftDescriptor()": "44267570",
					"operator()": "570ca735",
					"ownerOf(uint256)": "6352211e",
					"safeTransferFrom(address,address,uint256)": "42842e0e",
					"safeTransferFrom(address,address,uint256,bytes)": "b88d4fde",
					"setApprovalForAll(address,bool)": "a22cb465",
					"supportsInterface(bytes4)": "01ffc9a7",
					"symbol()": "95d89b41",
					"tokenURI(uint256)": "c87b56dd",
					"totalSupply()": "18160ddd",
					"transferFrom(address,address,uint256)": "23b872dd"
				}
			},
			"storageLayout": {
				"storage": [
					{
						"astId": 8,
						"contract": "contracts/cover/CoverNFT.sol:CoverNFT",
						"label": "name",
						"offset": 0,
						"slot": "0",
						"type": "t_string_storage"
					},
					{
						"astId": 10,
						"contract": "contracts/cover/CoverNFT.sol:CoverNFT",
						"label": "symbol",
						"offset": 0,
						"slot": "1",
						"type": "t_string_storage"
					},
					{
						"astId": 14,
						"contract": "contracts/cover/CoverNFT.sol:CoverNFT",
						"label": "_ownerOf",
						"offset": 0,
						"slot": "2",
						"type": "t_mapping(t_uint256,t_address)"
					},
					{
						"astId": 18,
						"contract": "contracts/cover/CoverNFT.sol:CoverNFT",
						"label": "_balanceOf",
						"offset": 0,
						"slot": "3",
						"type": "t_mapping(t_address,t_uint256)"
					},
					{
						"astId": 22,
						"contract": "contracts/cover/CoverNFT.sol:CoverNFT",
						"label": "getApproved",
						"offset": 0,
						"slot": "4",
						"type": "t_mapping(t_uint256,t_address)"
					},
					{
						"astId": 28,
						"contract": "contracts/cover/CoverNFT.sol:CoverNFT",
						"label": "isApprovedForAll",
						"offset": 0,
						"slot": "5",
						"type": "t_mapping(t_address,t_mapping(t_address,t_bool))"
					},
					{
						"astId": 30,
						"contract": "contracts/cover/CoverNFT.sol:CoverNFT",
						"label": "_totalSupply",
						"offset": 0,
						"slot": "6",
						"type": "t_uint96"
					},
					{
						"astId": 32,
						"contract": "contracts/cover/CoverNFT.sol:CoverNFT",
						"label": "operator",
						"offset": 12,
						"slot": "6",
						"type": "t_address"
					},
					{
						"astId": 34,
						"contract": "contracts/cover/CoverNFT.sol:CoverNFT",
						"label": "nftDescriptor",
						"offset": 0,
						"slot": "7",
						"type": "t_address"
					}
				],
				"types": {
					"t_address": {
						"encoding": "inplace",
						"label": "address",
						"numberOfBytes": "20"
					},
					"t_bool": {
						"encoding": "inplace",
						"label": "bool",
						"numberOfBytes": "1"
					},
					"t_mapping(t_address,t_bool)": {
						"encoding": "mapping",
						"key": "t_address",
						"label": "mapping(address => bool)",
						"numberOfBytes": "32",
						"value": "t_bool"
					},
					"t_mapping(t_address,t_mapping(t_address,t_bool))": {
						"encoding": "mapping",
						"key": "t_address",
						"label": "mapping(address => mapping(address => bool))",
						"numberOfBytes": "32",
						"value": "t_mapping(t_address,t_bool)"
					},
					"t_mapping(t_address,t_uint256)": {
						"encoding": "mapping",
						"key": "t_address",
						"label": "mapping(address => uint256)",
						"numberOfBytes": "32",
						"value": "t_uint256"
					},
					"t_mapping(t_uint256,t_address)": {
						"encoding": "mapping",
						"key": "t_uint256",
						"label": "mapping(uint256 => address)",
						"numberOfBytes": "32",
						"value": "t_address"
					},
					"t_string_storage": {
						"encoding": "bytes",
						"label": "string",
						"numberOfBytes": "32"
					},
					"t_uint256": {
						"encoding": "inplace",
						"label": "uint256",
						"numberOfBytes": "32"
					},
					"t_uint96": {
						"encoding": "inplace",
						"label": "uint96",
						"numberOfBytes": "12"
					}
				}
			},
			"userdoc": {
				"kind": "user",
				"methods": {},
				"version": 1
			}
		}
	}
}