{
	"contracts/cover/CoverNFTDescriptor.sol": {
		"CoverNFTDescriptor": {
			"abi": [
				{
					"inputs": [
						{
							"internalType": "address",
							"name": "_master",
							"type": "address"
						}
					],
					"stateMutability": "nonpayable",
					"type": "constructor"
				},
				{
					"inputs": [
						{
							"internalType": "uint256",
							"name": "tokenId",
							"type": "uint256"
						}
					],
					"name": "generateDescription",
					"outputs": [
						{
							"internalType": "string",
							"name": "descriptionString",
							"type": "string"
						},
						{
							"components": [
								{
									"internalType": "uint256",
									"name": "amountPaidOut",
									"type": "uint256"
								},
								{
									"internalType": "uint256",
									"name": "totalClaimAmount",
									"type": "uint256"
								},
								{
									"internalType": "uint256",
									"name": "start",
									"type": "uint256"
								},
								{
									"internalType": "uint256",
									"name": "period",
									"type": "uint256"
								},
								{
									"internalType": "address",
									"name": "token0",
									"type": "address"
								},
								{
									"internalType": "address",
									"name": "token1",
									"type": "address"
								},
								{
									"internalType": "uint256",
									"name": "token0Qty",
									"type": "uint256"
								},
								{
									"internalType": "uint256",
									"name": "token1Qty",
									"type": "uint256"
								},
								{
									"internalType": "uint256",
									"name": "lowerBoundRatio",
									"type": "uint256"
								},
								{
									"internalType": "uint256",
									"name": "upperBoundRatio",
									"type": "uint256"
								},
								{
									"internalType": "string",
									"name": "pairStr",
									"type": "string"
								}
							],
							"internalType": "struct CoverData",
							"name": "coverData",
							"type": "tuple"
						}
					],
					"stateMutability": "view",
					"type": "function"
				},
				{
					"inputs": [
						{
							"components": [
								{
									"internalType": "uint256",
									"name": "amountPaidOut",
									"type": "uint256"
								},
								{
									"internalType": "uint256",
									"name": "totalClaimAmount",
									"type": "uint256"
								},
								{
									"internalType": "uint256",
									"name": "start",
									"type": "uint256"
								},
								{
									"internalType": "uint256",
									"name": "period",
									"type": "uint256"
								},
								{
									"internalType": "address",
									"name": "token0",
									"type": "address"
								},
								{
									"internalType": "address",
									"name": "token1",
									"type": "address"
								},
								{
									"internalType": "uint256",
									"name": "token0Qty",
									"type": "uint256"
								},
								{
									"internalType": "uint256",
									"name": "token1Qty",
									"type": "uint256"
								},
								{
									"internalType": "uint256",
									"name": "lowerBoundRatio",
									"type": "uint256"
								},
								{
									"internalType": "uint256",
									"name": "upperBoundRatio",
									"type": "uint256"
								},
								{
									"internalType": "string",
									"name": "pairStr",
									"type": "string"
								}
							],
							"internalType": "struct CoverData",
							"name": "coverData",
							"type": "tuple"
						}
					],
					"name": "generateSVGImage",
					"outputs": [
						{
							"internalType": "bytes",
							"name": "image",
							"type": "bytes"
						}
					],
					"stateMutability": "pure",
					"type": "function"
				},
				{
					"inputs": [],
					"name": "master",
					"outputs": [
						{
							"internalType": "contract Master",
							"name": "",
							"type": "address"
						}
					],
					"stateMutability": "view",
					"type": "function"
				},
				{
					"inputs": [
						{
							"internalType": "uint256",
							"name": "tokenId",
							"type": "uint256"
						}
					],
					"name": "tokenURI",
					"outputs": [
						{
							"internalType": "string",
							"name": "",
							"type": "string"
						}
					],
					"stateMutability": "view",
					"type": "function"
				}
			],
			"devdoc": {
				"kind": "dev",
				"methods": {},
				"version": 1
			},
			"evm": {
				"assembly": "    /* \"contracts/cover/CoverNFTDescriptor.sol\":203:7902  contract CoverNFTDescriptor is ICoverNFTDescriptor {... */\n  mstore(0x40, 0x80)\n    /* \"contracts/cover/CoverNFTDescriptor.sol\":282:354  constructor(... */\n  callvalue\n  dup1\n  iszero\n  tag_1\n  jumpi\n  0x00\n  dup1\n  revert\ntag_1:\n  pop\n  mload(0x40)\n  sub(codesize, bytecodeSize)\n  dup1\n  bytecodeSize\n  dup4\n  codecopy\n  dup2\n  dup2\n  add\n  0x40\n  mstore\n  dup2\n  add\n  swap1\n  tag_2\n  swap2\n  swap1\n  tag_3\n  jump\t// in\ntag_2:\n    /* \"contracts/cover/CoverNFTDescriptor.sol\":341:348  _master */\n  dup1\n    /* \"contracts/cover/CoverNFTDescriptor.sol\":325:331  master */\n  0x00\n  dup1\n    /* \"contracts/cover/CoverNFTDescriptor.sol\":325:349  master = Master(_master) */\n  0x0100\n  exp\n  dup2\n  sload\n  dup2\n  0xffffffffffffffffffffffffffffffffffffffff\n  mul\n  not\n  and\n  swap1\n  dup4\n  0xffffffffffffffffffffffffffffffffffffffff\n  and\n  mul\n  or\n  swap1\n  sstore\n  pop\n    /* \"contracts/cover/CoverNFTDescriptor.sol\":282:354  constructor(... */\n  pop\n    /* \"contracts/cover/CoverNFTDescriptor.sol\":203:7902  contract CoverNFTDescriptor is ICoverNFTDescriptor {... */\n  jump(tag_6)\n    /* \"#utility.yul\":88:205   */\ntag_8:\n    /* \"#utility.yul\":197:198   */\n  0x00\n    /* \"#utility.yul\":194:195   */\n  dup1\n    /* \"#utility.yul\":187:199   */\n  revert\n    /* \"#utility.yul\":334:460   */\ntag_10:\n    /* \"#utility.yul\":371:378   */\n  0x00\n    /* \"#utility.yul\":411:453   */\n  0xffffffffffffffffffffffffffffffffffffffff\n    /* \"#utility.yul\":404:409   */\n  dup3\n    /* \"#utility.yul\":400:454   */\n  and\n    /* \"#utility.yul\":389:454   */\n  swap1\n  pop\n    /* \"#utility.yul\":334:460   */\n  swap2\n  swap1\n  pop\n  jump\t// out\n    /* \"#utility.yul\":466:562   */\ntag_11:\n    /* \"#utility.yul\":503:510   */\n  0x00\n    /* \"#utility.yul\":532:556   */\n  tag_20\n    /* \"#utility.yul\":550:555   */\n  dup3\n    /* \"#utility.yul\":532:556   */\n  tag_10\n  jump\t// in\ntag_20:\n    /* \"#utility.yul\":521:556   */\n  swap1\n  pop\n    /* \"#utility.yul\":466:562   */\n  swap2\n  swap1\n  pop\n  jump\t// out\n    /* \"#utility.yul\":568:690   */\ntag_12:\n    /* \"#utility.yul\":641:665   */\n  tag_22\n    /* \"#utility.yul\":659:664   */\n  dup2\n    /* \"#utility.yul\":641:665   */\n  tag_11\n  jump\t// in\ntag_22:\n    /* \"#utility.yul\":634:639   */\n  dup2\n    /* \"#utility.yul\":631:666   */\n  eq\n    /* \"#utility.yul\":621:684   */\n  tag_23\n  jumpi\n    /* \"#utility.yul\":680:681   */\n  0x00\n    /* \"#utility.yul\":677:678   */\n  dup1\n    /* \"#utility.yul\":670:682   */\n  revert\n    /* \"#utility.yul\":621:684   */\ntag_23:\n    /* \"#utility.yul\":568:690   */\n  pop\n  jump\t// out\n    /* \"#utility.yul\":696:839   */\ntag_13:\n    /* \"#utility.yul\":753:758   */\n  0x00\n    /* \"#utility.yul\":784:790   */\n  dup2\n    /* \"#utility.yul\":778:791   */\n  mload\n    /* \"#utility.yul\":769:791   */\n  swap1\n  pop\n    /* \"#utility.yul\":800:833   */\n  tag_25\n    /* \"#utility.yul\":827:832   */\n  dup2\n    /* \"#utility.yul\":800:833   */\n  tag_12\n  jump\t// in\ntag_25:\n    /* \"#utility.yul\":696:839   */\n  swap3\n  swap2\n  pop\n  pop\n  jump\t// out\n    /* \"#utility.yul\":845:1196   */\ntag_3:\n    /* \"#utility.yul\":915:921   */\n  0x00\n    /* \"#utility.yul\":964:966   */\n  0x20\n    /* \"#utility.yul\":952:961   */\n  dup3\n    /* \"#utility.yul\":943:950   */\n  dup5\n    /* \"#utility.yul\":939:962   */\n  sub\n    /* \"#utility.yul\":935:967   */\n  slt\n    /* \"#utility.yul\":932:1051   */\n  iszero\n  tag_27\n  jumpi\n    /* \"#utility.yul\":970:1049   */\n  tag_28\n  tag_8\n  jump\t// in\ntag_28:\n    /* \"#utility.yul\":932:1051   */\ntag_27:\n    /* \"#utility.yul\":1090:1091   */\n  0x00\n    /* \"#utility.yul\":1115:1179   */\n  tag_29\n    /* \"#utility.yul\":1171:1178   */\n  dup5\n    /* \"#utility.yul\":1162:1168   */\n  dup3\n    /* \"#utility.yul\":1151:1160   */\n  dup6\n    /* \"#utility.yul\":1147:1169   */\n  add\n    /* \"#utility.yul\":1115:1179   */\n  tag_13\n  jump\t// in\ntag_29:\n    /* \"#utility.yul\":1105:1179   */\n  swap2\n  pop\n    /* \"#utility.yul\":1061:1189   */\n  pop\n    /* \"#utility.yul\":845:1196   */\n  swap3\n  swap2\n  pop\n  pop\n  jump\t// out\n    /* \"contracts/cover/CoverNFTDescriptor.sol\":203:7902  contract CoverNFTDescriptor is ICoverNFTDescriptor {... */\ntag_6:\n  dataSize(sub_0)\n  dup1\n  dataOffset(sub_0)\n  0x00\n  codecopy\n  0x00\n  return\nstop\n\nsub_0: assembly {\n        /* \"contracts/cover/CoverNFTDescriptor.sol\":203:7902  contract CoverNFTDescriptor is ICoverNFTDescriptor {... */\n      mstore(0x40, 0x80)\n      callvalue\n      dup1\n      iszero\n      tag_1\n      jumpi\n      0x00\n      dup1\n      revert\n    tag_1:\n      pop\n      jumpi(tag_2, lt(calldatasize, 0x04))\n      shr(0xe0, calldataload(0x00))\n      dup1\n      0x2409145e\n      eq\n      tag_3\n      jumpi\n      dup1\n      0xc87b56dd\n      eq\n      tag_4\n      jumpi\n      dup1\n      0xe2a6ab3d\n      eq\n      tag_5\n      jumpi\n      dup1\n      0xee97f7f3\n      eq\n      tag_6\n      jumpi\n    tag_2:\n      0x00\n      dup1\n      revert\n        /* \"contracts/cover/CoverNFTDescriptor.sol\":1577:2747  function generateDescription(uint tokenId) public view returns (string memory descriptionString,... */\n    tag_3:\n      tag_7\n      0x04\n      dup1\n      calldatasize\n      sub\n      dup2\n      add\n      swap1\n      tag_8\n      swap2\n      swap1\n      tag_9\n      jump\t// in\n    tag_8:\n      tag_10\n      jump\t// in\n    tag_7:\n      mload(0x40)\n      tag_11\n      swap3\n      swap2\n      swap1\n      tag_12\n      jump\t// in\n    tag_11:\n      mload(0x40)\n      dup1\n      swap2\n      sub\n      swap1\n      return\n        /* \"contracts/cover/CoverNFTDescriptor.sol\":361:1030  function tokenURI(uint tokenId) public view returns (string memory) {... */\n    tag_4:\n      tag_13\n      0x04\n      dup1\n      calldatasize\n      sub\n      dup2\n      add\n      swap1\n      tag_14\n      swap2\n      swap1\n      tag_9\n      jump\t// in\n    tag_14:\n      tag_15\n      jump\t// in\n    tag_13:\n      mload(0x40)\n      tag_16\n      swap2\n      swap1\n      tag_17\n      jump\t// in\n    tag_16:\n      mload(0x40)\n      dup1\n      swap2\n      sub\n      swap1\n      return\n        /* \"contracts/cover/CoverNFTDescriptor.sol\":2753:7900  function generateSVGImage(CoverData memory coverData) public pure returns (bytes memory image) {... */\n    tag_5:\n      tag_18\n      0x04\n      dup1\n      calldatasize\n      sub\n      dup2\n      add\n      swap1\n      tag_19\n      swap2\n      swap1\n      tag_20\n      jump\t// in\n    tag_19:\n      tag_21\n      jump\t// in\n    tag_18:\n      mload(0x40)\n      tag_22\n      swap2\n      swap1\n      tag_23\n      jump\t// in\n    tag_22:\n      mload(0x40)\n      dup1\n      swap2\n      sub\n      swap1\n      return\n        /* \"contracts/cover/CoverNFTDescriptor.sol\":258:278  Master public master */\n    tag_6:\n      tag_24\n      tag_25\n      jump\t// in\n    tag_24:\n      mload(0x40)\n      tag_26\n      swap2\n      swap1\n      tag_27\n      jump\t// in\n    tag_26:\n      mload(0x40)\n      dup1\n      swap2\n      sub\n      swap1\n      return\n        /* \"contracts/cover/CoverNFTDescriptor.sol\":1577:2747  function generateDescription(uint tokenId) public view returns (string memory descriptionString,... */\n    tag_10:\n        /* \"contracts/cover/CoverNFTDescriptor.sol\":1641:1672  string memory descriptionString */\n      0x60\n        /* \"contracts/cover/CoverNFTDescriptor.sol\":1678:1704  CoverData memory coverData */\n      tag_28\n      tag_29\n      jump\t// in\n    tag_28:\n        /* \"contracts/cover/CoverNFTDescriptor.sol\":1712:1724  ICover cover */\n      0x00\n        /* \"contracts/cover/CoverNFTDescriptor.sol\":1734:1740  master */\n      dup1\n      0x00\n      swap1\n      sload\n      swap1\n      0x0100\n      exp\n      swap1\n      div\n      0xffffffffffffffffffffffffffffffffffffffff\n      and\n        /* \"contracts/cover/CoverNFTDescriptor.sol\":1734:1753  master.CoverAddress */\n      0xffffffffffffffffffffffffffffffffffffffff\n      and\n      0xe67cdafd\n        /* \"contracts/cover/CoverNFTDescriptor.sol\":1734:1755  master.CoverAddress() */\n      mload(0x40)\n      dup2\n      0xffffffff\n      and\n      0xe0\n      shl\n      dup2\n      mstore\n      0x04\n      add\n      0x20\n      mload(0x40)\n      dup1\n      dup4\n      sub\n      dup2\n      dup7\n      gas\n      staticcall\n      iszero\n      dup1\n      iszero\n      tag_32\n      jumpi\n      returndatasize\n      0x00\n      dup1\n      returndatacopy\n      revert(0x00, returndatasize)\n    tag_32:\n      pop\n      pop\n      pop\n      pop\n      mload(0x40)\n      returndatasize\n      not(0x1f)\n      0x1f\n      dup3\n      add\n      and\n      dup3\n      add\n      dup1\n      0x40\n      mstore\n      pop\n      dup2\n      add\n      swap1\n      tag_33\n      swap2\n      swap1\n      tag_34\n      jump\t// in\n    tag_33:\n        /* \"contracts/cover/CoverNFTDescriptor.sol\":1712:1756  ICover cover = ICover(master.CoverAddress()) */\n      swap1\n      pop\n        /* \"contracts/cover/CoverNFTDescriptor.sol\":1792:1799  tokenId */\n      dup4\n        /* \"contracts/cover/CoverNFTDescriptor.sol\":1767:1772  cover */\n      dup2\n        /* \"contracts/cover/CoverNFTDescriptor.sol\":1767:1787  cover.coverDataCount */\n      0xffffffffffffffffffffffffffffffffffffffff\n      and\n      0x404730f4\n        /* \"contracts/cover/CoverNFTDescriptor.sol\":1767:1789  cover.coverDataCount() */\n      mload(0x40)\n      dup2\n      0xffffffff\n      and\n      0xe0\n      shl\n      dup2\n      mstore\n      0x04\n      add\n      0x20\n      mload(0x40)\n      dup1\n      dup4\n      sub\n      dup2\n      dup7\n      gas\n      staticcall\n      iszero\n      dup1\n      iszero\n      tag_36\n      jumpi\n      returndatasize\n      0x00\n      dup1\n      returndatacopy\n      revert(0x00, returndatasize)\n    tag_36:\n      pop\n      pop\n      pop\n      pop\n      mload(0x40)\n      returndatasize\n      not(0x1f)\n      0x1f\n      dup3\n      add\n      and\n      dup3\n      add\n      dup1\n      0x40\n      mstore\n      pop\n      dup2\n      add\n      swap1\n      tag_37\n      swap2\n      swap1\n      tag_38\n      jump\t// in\n    tag_37:\n        /* \"contracts/cover/CoverNFTDescriptor.sol\":1767:1799  cover.coverDataCount() < tokenId */\n      lt\n        /* \"contracts/cover/CoverNFTDescriptor.sol\":1763:1852  if (cover.coverDataCount() < tokenId) {... */\n      iszero\n      tag_39\n      jumpi\n        /* \"contracts/cover/CoverNFTDescriptor.sol\":1809:1845  revert( \"this token does not exist\") */\n      mload(0x40)\n      0x08c379a000000000000000000000000000000000000000000000000000000000\n      dup2\n      mstore\n      0x04\n      add\n      tag_40\n      swap1\n      tag_41\n      jump\t// in\n    tag_40:\n      mload(0x40)\n      dup1\n      swap2\n      sub\n      swap1\n      revert\n        /* \"contracts/cover/CoverNFTDescriptor.sol\":1763:1852  if (cover.coverDataCount() < tokenId) {... */\n    tag_39:\n        /* \"contracts/cover/CoverNFTDescriptor.sol\":1880:1906  CoverData memory coverData */\n      0x00\n        /* \"contracts/cover/CoverNFTDescriptor.sol\":1909:1914  cover */\n      dup2\n        /* \"contracts/cover/CoverNFTDescriptor.sol\":1909:1927  cover.getCoverData */\n      0xffffffffffffffffffffffffffffffffffffffff\n      and\n      0x407d2a\n        /* \"contracts/cover/CoverNFTDescriptor.sol\":1928:1935  tokenId */\n      dup7\n        /* \"contracts/cover/CoverNFTDescriptor.sol\":1909:1936  cover.getCoverData(tokenId) */\n      mload(0x40)\n      dup3\n      0xffffffff\n      and\n      0xe0\n      shl\n      dup2\n      mstore\n      0x04\n      add\n      tag_42\n      swap2\n      swap1\n      tag_43\n      jump\t// in\n    tag_42:\n      0x00\n      mload(0x40)\n      dup1\n      dup4\n      sub\n      dup2\n      dup7\n      gas\n      staticcall\n      iszero\n      dup1\n      iszero\n      tag_45\n      jumpi\n      returndatasize\n      0x00\n      dup1\n      returndatacopy\n      revert(0x00, returndatasize)\n    tag_45:\n      pop\n      pop\n      pop\n      pop\n      mload(0x40)\n      returndatasize\n      0x00\n      dup3\n      returndatacopy\n      returndatasize\n      not(0x1f)\n      0x1f\n      dup3\n      add\n      and\n      dup3\n      add\n      dup1\n      0x40\n      mstore\n      pop\n      dup2\n      add\n      swap1\n      tag_46\n      swap2\n      swap1\n      tag_47\n      jump\t// in\n    tag_46:\n        /* \"contracts/cover/CoverNFTDescriptor.sol\":1880:1936  CoverData memory coverData = cover.getCoverData(tokenId) */\n      swap1\n      pop\n        /* \"contracts/cover/CoverNFTDescriptor.sol\":1985:2012  string memory expiryMessage */\n      0x60\n        /* \"contracts/cover/CoverNFTDescriptor.sol\":2062:2077  block.timestamp */\n      timestamp\n        /* \"contracts/cover/CoverNFTDescriptor.sol\":2041:2050  coverData */\n      dup3\n        /* \"contracts/cover/CoverNFTDescriptor.sol\":2041:2057  coverData.period */\n      0x60\n      add\n      mload\n        /* \"contracts/cover/CoverNFTDescriptor.sol\":2023:2032  coverData */\n      dup4\n        /* \"contracts/cover/CoverNFTDescriptor.sol\":2023:2038  coverData.start */\n      0x40\n      add\n      mload\n        /* \"contracts/cover/CoverNFTDescriptor.sol\":2023:2057  coverData.start + coverData.period */\n      tag_48\n      swap2\n      swap1\n      tag_49\n      jump\t// in\n    tag_48:\n        /* \"contracts/cover/CoverNFTDescriptor.sol\":2022:2077  (coverData.start + coverData.period) <= block.timestamp */\n      gt\n        /* \"contracts/cover/CoverNFTDescriptor.sol\":2018:2146  if ((coverData.start + coverData.period) <= block.timestamp) {... */\n      tag_50\n      jumpi\n        /* \"contracts/cover/CoverNFTDescriptor.sol\":2087:2139  expiryMessage = \"This cover NFT has already expired\" */\n      mload(0x40)\n      dup1\n      0x60\n      add\n      0x40\n      mstore\n      dup1\n      0x22\n      dup2\n      mstore\n      0x20\n      add\n      data_dda5ae7c5359d643de6b77a1ceb07b82442dca061274a7b248b5faf5e88fe36e\n      0x22\n      swap2\n      codecopy\n      swap1\n      pop\n        /* \"contracts/cover/CoverNFTDescriptor.sol\":2018:2146  if ((coverData.start + coverData.period) <= block.timestamp) {... */\n    tag_50:\n        /* \"contracts/cover/CoverNFTDescriptor.sol\":2152:2172  string memory expiry */\n      0x00\n        /* \"contracts/cover/CoverNFTDescriptor.sol\":2175:2217  uint2str(coverData.start+coverData.period) */\n      tag_51\n        /* \"contracts/cover/CoverNFTDescriptor.sol\":2200:2209  coverData */\n      dup4\n        /* \"contracts/cover/CoverNFTDescriptor.sol\":2200:2216  coverData.period */\n      0x60\n      add\n      mload\n        /* \"contracts/cover/CoverNFTDescriptor.sol\":2184:2193  coverData */\n      dup5\n        /* \"contracts/cover/CoverNFTDescriptor.sol\":2184:2199  coverData.start */\n      0x40\n      add\n      mload\n        /* \"contracts/cover/CoverNFTDescriptor.sol\":2184:2216  coverData.start+coverData.period */\n      tag_52\n      swap2\n      swap1\n      tag_49\n      jump\t// in\n    tag_52:\n        /* \"contracts/cover/CoverNFTDescriptor.sol\":2175:2183  uint2str */\n      tag_53\n        /* \"contracts/cover/CoverNFTDescriptor.sol\":2175:2217  uint2str(coverData.start+coverData.period) */\n      jump\t// in\n    tag_51:\n        /* \"contracts/cover/CoverNFTDescriptor.sol\":2152:2217  string memory expiry = uint2str(coverData.start+coverData.period) */\n      swap1\n      pop\n        /* \"contracts/cover/CoverNFTDescriptor.sol\":2367:2376  coverData */\n      dup3\n        /* \"contracts/cover/CoverNFTDescriptor.sol\":2367:2384  coverData.pairStr */\n      0x0140\n      add\n      mload\n        /* \"contracts/cover/CoverNFTDescriptor.sol\":2421:2450  uint2str(coverData.token0Qty) */\n      tag_54\n        /* \"contracts/cover/CoverNFTDescriptor.sol\":2430:2439  coverData */\n      dup5\n        /* \"contracts/cover/CoverNFTDescriptor.sol\":2430:2449  coverData.token0Qty */\n      0xc0\n      add\n      mload\n        /* \"contracts/cover/CoverNFTDescriptor.sol\":2421:2429  uint2str */\n      tag_53\n        /* \"contracts/cover/CoverNFTDescriptor.sol\":2421:2450  uint2str(coverData.token0Qty) */\n      jump\t// in\n    tag_54:\n        /* \"contracts/cover/CoverNFTDescriptor.sol\":2488:2517  uint2str(coverData.token1Qty) */\n      tag_55\n        /* \"contracts/cover/CoverNFTDescriptor.sol\":2497:2506  coverData */\n      dup6\n        /* \"contracts/cover/CoverNFTDescriptor.sol\":2497:2516  coverData.token1Qty */\n      0xe0\n      add\n      mload\n        /* \"contracts/cover/CoverNFTDescriptor.sol\":2488:2496  uint2str */\n      tag_53\n        /* \"contracts/cover/CoverNFTDescriptor.sol\":2488:2517  uint2str(coverData.token1Qty) */\n      jump\t// in\n    tag_55:\n        /* \"contracts/cover/CoverNFTDescriptor.sol\":2547:2582  uint2str(coverData.lowerBoundRatio) */\n      tag_56\n        /* \"contracts/cover/CoverNFTDescriptor.sol\":2556:2565  coverData */\n      dup7\n        /* \"contracts/cover/CoverNFTDescriptor.sol\":2556:2581  coverData.lowerBoundRatio */\n      0x0100\n      add\n      mload\n        /* \"contracts/cover/CoverNFTDescriptor.sol\":2547:2555  uint2str */\n      tag_53\n        /* \"contracts/cover/CoverNFTDescriptor.sol\":2547:2582  uint2str(coverData.lowerBoundRatio) */\n      jump\t// in\n    tag_56:\n        /* \"contracts/cover/CoverNFTDescriptor.sol\":2612:2647  uint2str(coverData.upperBoundRatio) */\n      tag_57\n        /* \"contracts/cover/CoverNFTDescriptor.sol\":2621:2630  coverData */\n      dup8\n        /* \"contracts/cover/CoverNFTDescriptor.sol\":2621:2646  coverData.upperBoundRatio */\n      0x0120\n      add\n      mload\n        /* \"contracts/cover/CoverNFTDescriptor.sol\":2612:2620  uint2str */\n      tag_53\n        /* \"contracts/cover/CoverNFTDescriptor.sol\":2612:2647  uint2str(coverData.upperBoundRatio) */\n      jump\t// in\n    tag_57:\n        /* \"contracts/cover/CoverNFTDescriptor.sol\":2673:2686  expiryMessage */\n      dup7\n        /* \"contracts/cover/CoverNFTDescriptor.sol\":2290:2694  abi.encodePacked(... */\n      add(0x20, mload(0x40))\n      tag_58\n      swap7\n      swap6\n      swap5\n      swap4\n      swap3\n      swap2\n      swap1\n      tag_59\n      jump\t// in\n    tag_58:\n      mload(0x40)\n      0x20\n      dup2\n      dup4\n      sub\n      sub\n      dup2\n      mstore\n      swap1\n      0x40\n      mstore\n        /* \"contracts/cover/CoverNFTDescriptor.sol\":2256:2700  descriptionString = string(... */\n      swap6\n      pop\n        /* \"contracts/cover/CoverNFTDescriptor.sol\":2714:2731  descriptionString */\n      dup6\n        /* \"contracts/cover/CoverNFTDescriptor.sol\":2732:2741  coverData */\n      dup4\n        /* \"contracts/cover/CoverNFTDescriptor.sol\":2706:2742  return (descriptionString,coverData) */\n      swap6\n      pop\n      swap6\n      pop\n      pop\n      pop\n      pop\n      pop\n        /* \"contracts/cover/CoverNFTDescriptor.sol\":1577:2747  function generateDescription(uint tokenId) public view returns (string memory descriptionString,... */\n      swap2\n      pop\n      swap2\n      jump\t// out\n        /* \"contracts/cover/CoverNFTDescriptor.sol\":361:1030  function tokenURI(uint tokenId) public view returns (string memory) {... */\n    tag_15:\n        /* \"contracts/cover/CoverNFTDescriptor.sol\":414:427  string memory */\n      0x60\n        /* \"contracts/cover/CoverNFTDescriptor.sol\":436:467  string memory descriptionString */\n      0x00\n        /* \"contracts/cover/CoverNFTDescriptor.sol\":469:495  CoverData memory coverData */\n      dup1\n        /* \"contracts/cover/CoverNFTDescriptor.sol\":499:527  generateDescription(tokenId) */\n      tag_61\n        /* \"contracts/cover/CoverNFTDescriptor.sol\":519:526  tokenId */\n      dup5\n        /* \"contracts/cover/CoverNFTDescriptor.sol\":499:518  generateDescription */\n      tag_10\n        /* \"contracts/cover/CoverNFTDescriptor.sol\":499:527  generateDescription(tokenId) */\n      jump\t// in\n    tag_61:\n        /* \"contracts/cover/CoverNFTDescriptor.sol\":435:527  (string memory descriptionString, CoverData memory coverData) = generateDescription(tokenId) */\n      swap2\n      pop\n      swap2\n      pop\n        /* \"contracts/cover/CoverNFTDescriptor.sol\":533:552  string memory image */\n      0x00\n        /* \"contracts/cover/CoverNFTDescriptor.sol\":555:604  Base64.encode(bytes(generateSVGImage(coverData))) */\n      tag_62\n        /* \"contracts/cover/CoverNFTDescriptor.sol\":575:602  generateSVGImage(coverData) */\n      tag_63\n        /* \"contracts/cover/CoverNFTDescriptor.sol\":592:601  coverData */\n      dup4\n        /* \"contracts/cover/CoverNFTDescriptor.sol\":575:591  generateSVGImage */\n      tag_21\n        /* \"contracts/cover/CoverNFTDescriptor.sol\":575:602  generateSVGImage(coverData) */\n      jump\t// in\n    tag_63:\n        /* \"contracts/cover/CoverNFTDescriptor.sol\":555:568  Base64.encode */\n      tag_64\n        /* \"contracts/cover/CoverNFTDescriptor.sol\":555:604  Base64.encode(bytes(generateSVGImage(coverData))) */\n      jump\t// in\n    tag_62:\n        /* \"contracts/cover/CoverNFTDescriptor.sol\":533:604  string memory image = Base64.encode(bytes(generateSVGImage(coverData))) */\n      swap1\n      pop\n        /* \"contracts/cover/CoverNFTDescriptor.sol\":699:1011  Base64.encode(... */\n      tag_65\n        /* \"contracts/cover/CoverNFTDescriptor.sol\":839:856  descriptionString */\n      dup4\n        /* \"contracts/cover/CoverNFTDescriptor.sol\":950:955  image */\n      dup3\n        /* \"contracts/cover/CoverNFTDescriptor.sol\":743:989  abi.encodePacked(... */\n      add(0x20, mload(0x40))\n      tag_66\n      swap3\n      swap2\n      swap1\n      tag_67\n      jump\t// in\n    tag_66:\n      mload(0x40)\n      0x20\n      dup2\n      dup4\n      sub\n      sub\n      dup2\n      mstore\n      swap1\n      0x40\n      mstore\n        /* \"contracts/cover/CoverNFTDescriptor.sol\":699:712  Base64.encode */\n      tag_64\n        /* \"contracts/cover/CoverNFTDescriptor.sol\":699:1011  Base64.encode(... */\n      jump\t// in\n    tag_65:\n        /* \"contracts/cover/CoverNFTDescriptor.sol\":632:1019  abi.encodePacked(... */\n      add(0x20, mload(0x40))\n      tag_68\n      swap2\n      swap1\n      tag_69\n      jump\t// in\n    tag_68:\n      mload(0x40)\n      0x20\n      dup2\n      dup4\n      sub\n      sub\n      dup2\n      mstore\n      swap1\n      0x40\n      mstore\n        /* \"contracts/cover/CoverNFTDescriptor.sol\":611:1025  return string(... */\n      swap4\n      pop\n      pop\n      pop\n      pop\n        /* \"contracts/cover/CoverNFTDescriptor.sol\":361:1030  function tokenURI(uint tokenId) public view returns (string memory) {... */\n      swap2\n      swap1\n      pop\n      jump\t// out\n        /* \"contracts/cover/CoverNFTDescriptor.sol\":2753:7900  function generateSVGImage(CoverData memory coverData) public pure returns (bytes memory image) {... */\n    tag_21:\n        /* \"contracts/cover/CoverNFTDescriptor.sol\":2828:2846  bytes memory image */\n      0x60\n        /* \"contracts/cover/CoverNFTDescriptor.sol\":2855:2876  string memory svgData */\n      0x00\n        /* \"contracts/cover/CoverNFTDescriptor.sol\":2923:2932  coverData */\n      dup3\n        /* \"contracts/cover/CoverNFTDescriptor.sol\":2923:2940  coverData.pairStr */\n      0x0140\n      add\n      mload\n        /* \"contracts/cover/CoverNFTDescriptor.sol\":3036:3065  uint2str(coverData.token0Qty) */\n      tag_71\n        /* \"contracts/cover/CoverNFTDescriptor.sol\":3045:3054  coverData */\n      dup5\n        /* \"contracts/cover/CoverNFTDescriptor.sol\":3045:3064  coverData.token0Qty */\n      0xc0\n      add\n      mload\n        /* \"contracts/cover/CoverNFTDescriptor.sol\":3036:3044  uint2str */\n      tag_53\n        /* \"contracts/cover/CoverNFTDescriptor.sol\":3036:3065  uint2str(coverData.token0Qty) */\n      jump\t// in\n    tag_71:\n        /* \"contracts/cover/CoverNFTDescriptor.sol\":3071:3100  uint2str(coverData.token1Qty) */\n      tag_72\n        /* \"contracts/cover/CoverNFTDescriptor.sol\":3080:3089  coverData */\n      dup6\n        /* \"contracts/cover/CoverNFTDescriptor.sol\":3080:3099  coverData.token1Qty */\n      0xe0\n      add\n      mload\n        /* \"contracts/cover/CoverNFTDescriptor.sol\":3071:3079  uint2str */\n      tag_53\n        /* \"contracts/cover/CoverNFTDescriptor.sol\":3071:3100  uint2str(coverData.token1Qty) */\n      jump\t// in\n    tag_72:\n        /* \"contracts/cover/CoverNFTDescriptor.sol\":3141:3176  uint2str(coverData.lowerBoundRatio) */\n      tag_73\n        /* \"contracts/cover/CoverNFTDescriptor.sol\":3150:3159  coverData */\n      dup7\n        /* \"contracts/cover/CoverNFTDescriptor.sol\":3150:3175  coverData.lowerBoundRatio */\n      0x0100\n      add\n      mload\n        /* \"contracts/cover/CoverNFTDescriptor.sol\":3141:3149  uint2str */\n      tag_53\n        /* \"contracts/cover/CoverNFTDescriptor.sol\":3141:3176  uint2str(coverData.lowerBoundRatio) */\n      jump\t// in\n    tag_73:\n        /* \"contracts/cover/CoverNFTDescriptor.sol\":3182:3217  uint2str(coverData.upperBoundRatio) */\n      tag_74\n        /* \"contracts/cover/CoverNFTDescriptor.sol\":3191:3200  coverData */\n      dup8\n        /* \"contracts/cover/CoverNFTDescriptor.sol\":3191:3216  coverData.upperBoundRatio */\n      0x0120\n      add\n      mload\n        /* \"contracts/cover/CoverNFTDescriptor.sol\":3182:3190  uint2str */\n      tag_53\n        /* \"contracts/cover/CoverNFTDescriptor.sol\":3182:3217  uint2str(coverData.upperBoundRatio) */\n      jump\t// in\n    tag_74:\n        /* \"contracts/cover/CoverNFTDescriptor.sol\":3312:3356  uint2str(coverData.period + coverData.start) */\n      tag_75\n        /* \"contracts/cover/CoverNFTDescriptor.sol\":3340:3349  coverData */\n      dup9\n        /* \"contracts/cover/CoverNFTDescriptor.sol\":3340:3355  coverData.start */\n      0x40\n      add\n      mload\n        /* \"contracts/cover/CoverNFTDescriptor.sol\":3321:3330  coverData */\n      dup10\n        /* \"contracts/cover/CoverNFTDescriptor.sol\":3321:3337  coverData.period */\n      0x60\n      add\n      mload\n        /* \"contracts/cover/CoverNFTDescriptor.sol\":3321:3355  coverData.period + coverData.start */\n      tag_76\n      swap2\n      swap1\n      tag_49\n      jump\t// in\n    tag_76:\n        /* \"contracts/cover/CoverNFTDescriptor.sol\":3312:3320  uint2str */\n      tag_53\n        /* \"contracts/cover/CoverNFTDescriptor.sol\":3312:3356  uint2str(coverData.period + coverData.start) */\n      jump\t// in\n    tag_75:\n        /* \"contracts/cover/CoverNFTDescriptor.sol\":2886:3381  abi.encodePacked(... */\n      add(0x20, mload(0x40))\n      tag_77\n      swap7\n      swap6\n      swap5\n      swap4\n      swap3\n      swap2\n      swap1\n      tag_78\n      jump\t// in\n    tag_77:\n      mload(0x40)\n      0x20\n      dup2\n      dup4\n      sub\n      sub\n      dup2\n      mstore\n      swap1\n      0x40\n      mstore\n        /* \"contracts/cover/CoverNFTDescriptor.sol\":2855:3382  string memory svgData = string(abi.encodePacked(... */\n      swap1\n      pop\n        /* \"contracts/cover/CoverNFTDescriptor.sol\":7864:7871  svgData */\n      dup1\n        /* \"contracts/cover/CoverNFTDescriptor.sol\":3436:7881  abi.encodePacked(... */\n      add(0x20, mload(0x40))\n      tag_79\n      swap2\n      swap1\n      tag_80\n      jump\t// in\n    tag_79:\n      mload(0x40)\n      0x20\n      dup2\n      dup4\n      sub\n      sub\n      dup2\n      mstore\n      swap1\n      0x40\n      mstore\n        /* \"contracts/cover/CoverNFTDescriptor.sol\":3396:7895  abi.encodePacked(... */\n      add(0x20, mload(0x40))\n      tag_81\n      swap2\n      swap1\n      tag_82\n      jump\t// in\n    tag_81:\n      mload(0x40)\n      0x20\n      dup2\n      dup4\n      sub\n      sub\n      dup2\n      mstore\n      swap1\n      0x40\n      mstore\n        /* \"contracts/cover/CoverNFTDescriptor.sol\":3389:7895  return abi.encodePacked(... */\n      swap2\n      pop\n      pop\n        /* \"contracts/cover/CoverNFTDescriptor.sol\":2753:7900  function generateSVGImage(CoverData memory coverData) public pure returns (bytes memory image) {... */\n      swap2\n      swap1\n      pop\n      jump\t// out\n        /* \"contracts/cover/CoverNFTDescriptor.sol\":258:278  Master public master */\n    tag_25:\n      0x00\n      dup1\n      sload\n      swap1\n      0x0100\n      exp\n      swap1\n      div\n      0xffffffffffffffffffffffffffffffffffffffff\n      and\n      dup2\n      jump\t// out\n        /* \"contracts/cover/CoverNFTDescriptor.sol\":1035:1574  function uint2str(... */\n    tag_53:\n        /* \"contracts/cover/CoverNFTDescriptor.sol\":1110:1127  string memory str */\n      0x60\n        /* \"contracts/cover/CoverNFTDescriptor.sol\":1153:1154  0 */\n      0x00\n        /* \"contracts/cover/CoverNFTDescriptor.sol\":1147:1149  _i */\n      dup3\n        /* \"contracts/cover/CoverNFTDescriptor.sol\":1147:1154  _i == 0 */\n      sub\n        /* \"contracts/cover/CoverNFTDescriptor.sol\":1143:1199  if (_i == 0)... */\n      tag_84\n      jumpi\n        /* \"contracts/cover/CoverNFTDescriptor.sol\":1178:1188  return \"0\" */\n      mload(0x40)\n      dup1\n      0x40\n      add\n      0x40\n      mstore\n      dup1\n      0x01\n      dup2\n      mstore\n      0x20\n      add\n      0x3000000000000000000000000000000000000000000000000000000000000000\n      dup2\n      mstore\n      pop\n      swap1\n      pop\n      jump(tag_83)\n        /* \"contracts/cover/CoverNFTDescriptor.sol\":1143:1199  if (_i == 0)... */\n    tag_84:\n        /* \"contracts/cover/CoverNFTDescriptor.sol\":1208:1217  uint256 j */\n      0x00\n        /* \"contracts/cover/CoverNFTDescriptor.sol\":1220:1222  _i */\n      dup3\n        /* \"contracts/cover/CoverNFTDescriptor.sol\":1208:1222  uint256 j = _i */\n      swap1\n      pop\n        /* \"contracts/cover/CoverNFTDescriptor.sol\":1232:1246  uint256 length */\n      0x00\n        /* \"contracts/cover/CoverNFTDescriptor.sol\":1256:1333  while (j != 0)... */\n    tag_85:\n        /* \"contracts/cover/CoverNFTDescriptor.sol\":1268:1269  0 */\n      0x00\n        /* \"contracts/cover/CoverNFTDescriptor.sol\":1263:1264  j */\n      dup3\n        /* \"contracts/cover/CoverNFTDescriptor.sol\":1263:1269  j != 0 */\n      eq\n        /* \"contracts/cover/CoverNFTDescriptor.sol\":1256:1333  while (j != 0)... */\n      tag_86\n      jumpi\n        /* \"contracts/cover/CoverNFTDescriptor.sol\":1293:1301  length++ */\n      dup1\n      dup1\n      tag_87\n      swap1\n      tag_88\n      jump\t// in\n    tag_87:\n      swap2\n      pop\n      pop\n        /* \"contracts/cover/CoverNFTDescriptor.sol\":1320:1322  10 */\n      0x0a\n        /* \"contracts/cover/CoverNFTDescriptor.sol\":1315:1322  j /= 10 */\n      dup3\n      tag_89\n      swap2\n      swap1\n      tag_90\n      jump\t// in\n    tag_89:\n      swap2\n      pop\n        /* \"contracts/cover/CoverNFTDescriptor.sol\":1256:1333  while (j != 0)... */\n      jump(tag_85)\n    tag_86:\n        /* \"contracts/cover/CoverNFTDescriptor.sol\":1342:1359  bytes memory bstr */\n      0x00\n        /* \"contracts/cover/CoverNFTDescriptor.sol\":1372:1378  length */\n      dup2\n        /* \"contracts/cover/CoverNFTDescriptor.sol\":1362:1379  new bytes(length) */\n      0xffffffffffffffff\n      dup2\n      gt\n      iszero\n      tag_91\n      jumpi\n      tag_92\n      tag_93\n      jump\t// in\n    tag_92:\n    tag_91:\n      mload(0x40)\n      swap1\n      dup1\n      dup3\n      mstore\n      dup1\n      0x1f\n      add\n      not(0x1f)\n      and\n      0x20\n      add\n      dup3\n      add\n      0x40\n      mstore\n      dup1\n      iszero\n      tag_94\n      jumpi\n      dup2\n      0x20\n      add\n      0x01\n      dup3\n      mul\n      dup1\n      calldatasize\n      dup4\n      calldatacopy\n      dup1\n      dup3\n      add\n      swap2\n      pop\n      pop\n      swap1\n      pop\n    tag_94:\n      pop\n        /* \"contracts/cover/CoverNFTDescriptor.sol\":1342:1379  bytes memory bstr = new bytes(length) */\n      swap1\n      pop\n        /* \"contracts/cover/CoverNFTDescriptor.sol\":1389:1398  uint256 k */\n      0x00\n        /* \"contracts/cover/CoverNFTDescriptor.sol\":1401:1407  length */\n      dup3\n        /* \"contracts/cover/CoverNFTDescriptor.sol\":1389:1407  uint256 k = length */\n      swap1\n      pop\n        /* \"contracts/cover/CoverNFTDescriptor.sol\":1421:1423  _i */\n      dup6\n        /* \"contracts/cover/CoverNFTDescriptor.sol\":1417:1423  j = _i */\n      swap4\n      pop\n        /* \"contracts/cover/CoverNFTDescriptor.sol\":1433:1540  while (j != 0)... */\n    tag_95:\n        /* \"contracts/cover/CoverNFTDescriptor.sol\":1445:1446  0 */\n      0x00\n        /* \"contracts/cover/CoverNFTDescriptor.sol\":1440:1441  j */\n      dup5\n        /* \"contracts/cover/CoverNFTDescriptor.sol\":1440:1446  j != 0 */\n      eq\n        /* \"contracts/cover/CoverNFTDescriptor.sol\":1433:1540  while (j != 0)... */\n      tag_96\n      jumpi\n        /* \"contracts/cover/CoverNFTDescriptor.sol\":1504:1506  10 */\n      0x0a\n        /* \"contracts/cover/CoverNFTDescriptor.sol\":1500:1501  j */\n      dup5\n        /* \"contracts/cover/CoverNFTDescriptor.sol\":1500:1506  j % 10 */\n      tag_97\n      swap2\n      swap1\n      tag_98\n      jump\t// in\n    tag_97:\n        /* \"contracts/cover/CoverNFTDescriptor.sol\":1495:1497  48 */\n      0x30\n        /* \"contracts/cover/CoverNFTDescriptor.sol\":1495:1506  48 + j % 10 */\n      tag_99\n      swap2\n      swap1\n      tag_49\n      jump\t// in\n    tag_99:\n        /* \"contracts/cover/CoverNFTDescriptor.sol\":1482:1508  bytes1(uint8(48 + j % 10)) */\n      0xf8\n      shl\n        /* \"contracts/cover/CoverNFTDescriptor.sol\":1470:1474  bstr */\n      dup3\n        /* \"contracts/cover/CoverNFTDescriptor.sol\":1475:1478  --k */\n      dup3\n      tag_100\n      swap1\n      tag_101\n      jump\t// in\n    tag_100:\n      swap3\n      pop\n      dup3\n        /* \"contracts/cover/CoverNFTDescriptor.sol\":1470:1479  bstr[--k] */\n      dup2\n      mload\n      dup2\n      lt\n      tag_102\n      jumpi\n      tag_103\n      tag_104\n      jump\t// in\n    tag_103:\n    tag_102:\n      0x20\n      add\n      add\n        /* \"contracts/cover/CoverNFTDescriptor.sol\":1470:1508  bstr[--k] = bytes1(uint8(48 + j % 10)) */\n      swap1\n      not(0xffffffffffffffffffffffffffffffffffffffffffffffffffffffffffffff)\n      and\n      swap1\n      dup2\n      0x00\n      byte\n      swap1\n      mstore8\n      pop\n        /* \"contracts/cover/CoverNFTDescriptor.sol\":1527:1529  10 */\n      0x0a\n        /* \"contracts/cover/CoverNFTDescriptor.sol\":1522:1529  j /= 10 */\n      dup5\n      tag_105\n      swap2\n      swap1\n      tag_90\n      jump\t// in\n    tag_105:\n      swap4\n      pop\n        /* \"contracts/cover/CoverNFTDescriptor.sol\":1433:1540  while (j != 0)... */\n      jump(tag_95)\n    tag_96:\n        /* \"contracts/cover/CoverNFTDescriptor.sol\":1562:1566  bstr */\n      dup2\n        /* \"contracts/cover/CoverNFTDescriptor.sol\":1549:1567  str = string(bstr) */\n      swap5\n      pop\n        /* \"contracts/cover/CoverNFTDescriptor.sol\":1133:1574  {... */\n      pop\n      pop\n      pop\n      pop\n        /* \"contracts/cover/CoverNFTDescriptor.sol\":1035:1574  function uint2str(... */\n    tag_83:\n      swap2\n      swap1\n      pop\n      jump\t// out\n        /* \"contracts/utils/Base64.sol\":476:3502  function encode(bytes memory data) internal pure returns (string memory) {... */\n    tag_64:\n        /* \"contracts/utils/Base64.sol\":534:547  string memory */\n      0x60\n        /* \"contracts/utils/Base64.sol\":781:782  0 */\n      0x00\n        /* \"contracts/utils/Base64.sol\":766:770  data */\n      dup3\n        /* \"contracts/utils/Base64.sol\":766:777  data.length */\n      mload\n        /* \"contracts/utils/Base64.sol\":766:782  data.length == 0 */\n      sub\n        /* \"contracts/utils/Base64.sol\":762:793  if (data.length == 0) return \"\" */\n      tag_107\n      jumpi\n        /* \"contracts/utils/Base64.sol\":784:793  return \"\" */\n      mload(0x40)\n      dup1\n      0x20\n      add\n      0x40\n      mstore\n      dup1\n      0x00\n      dup2\n      mstore\n      pop\n      swap1\n      pop\n      jump(tag_106)\n        /* \"contracts/utils/Base64.sol\":762:793  if (data.length == 0) return \"\" */\n    tag_107:\n        /* \"contracts/utils/Base64.sol\":843:862  string memory table */\n      0x00\n        /* \"contracts/utils/Base64.sol\":865:871  _TABLE */\n      mload(0x40)\n      dup1\n      0x60\n      add\n      0x40\n      mstore\n      dup1\n      0x40\n      dup2\n      mstore\n      0x20\n      add\n      data_84d8a590de33e00cbdc16e1f28c3506f5ec15c599fab9a6a4bcd575cc2f110ce\n      0x40\n      swap2\n      codecopy\n        /* \"contracts/utils/Base64.sol\":843:871  string memory table = _TABLE */\n      swap1\n      pop\n        /* \"contracts/utils/Base64.sol\":1274:1294  string memory result */\n      0x00\n        /* \"contracts/utils/Base64.sol\":1333:1334  3 */\n      0x03\n        /* \"contracts/utils/Base64.sol\":1328:1329  2 */\n      0x02\n        /* \"contracts/utils/Base64.sol\":1314:1318  data */\n      dup6\n        /* \"contracts/utils/Base64.sol\":1314:1325  data.length */\n      mload\n        /* \"contracts/utils/Base64.sol\":1314:1329  data.length + 2 */\n      tag_108\n      swap2\n      swap1\n      tag_49\n      jump\t// in\n    tag_108:\n        /* \"contracts/utils/Base64.sol\":1313:1334  (data.length + 2) / 3 */\n      tag_109\n      swap2\n      swap1\n      tag_90\n      jump\t// in\n    tag_109:\n        /* \"contracts/utils/Base64.sol\":1308:1309  4 */\n      0x04\n        /* \"contracts/utils/Base64.sol\":1308:1335  4 * ((data.length + 2) / 3) */\n      tag_110\n      swap2\n      swap1\n      tag_111\n      jump\t// in\n    tag_110:\n        /* \"contracts/utils/Base64.sol\":1297:1336  new string(4 * ((data.length + 2) / 3)) */\n      0xffffffffffffffff\n      dup2\n      gt\n      iszero\n      tag_112\n      jumpi\n      tag_113\n      tag_93\n      jump\t// in\n    tag_113:\n    tag_112:\n      mload(0x40)\n      swap1\n      dup1\n      dup3\n      mstore\n      dup1\n      0x1f\n      add\n      not(0x1f)\n      and\n      0x20\n      add\n      dup3\n      add\n      0x40\n      mstore\n      dup1\n      iszero\n      tag_114\n      jumpi\n      dup2\n      0x20\n      add\n      0x01\n      dup3\n      mul\n      dup1\n      calldatasize\n      dup4\n      calldatacopy\n      dup1\n      dup3\n      add\n      swap2\n      pop\n      pop\n      swap1\n      pop\n    tag_114:\n      pop\n        /* \"contracts/utils/Base64.sol\":1274:1336  string memory result = new string(4 * ((data.length + 2) / 3)) */\n      swap1\n      pop\n        /* \"contracts/utils/Base64.sol\":1511:1512  1 */\n      0x01\n        /* \"contracts/utils/Base64.sol\":1504:1509  table */\n      dup3\n        /* \"contracts/utils/Base64.sol\":1500:1513  add(table, 1) */\n      add\n        /* \"contracts/utils/Base64.sol\":1612:1614  32 */\n      0x20\n        /* \"contracts/utils/Base64.sol\":1604:1610  result */\n      dup3\n        /* \"contracts/utils/Base64.sol\":1600:1615  add(result, 32) */\n      add\n        /* \"contracts/utils/Base64.sol\":1719:1723  data */\n      dup6\n        /* \"contracts/utils/Base64.sol\":1770:1774  data */\n      dup7\n        /* \"contracts/utils/Base64.sol\":1764:1775  mload(data) */\n      mload\n        /* \"contracts/utils/Base64.sol\":1758:1762  data */\n      dup8\n        /* \"contracts/utils/Base64.sol\":1754:1776  add(data, mload(data)) */\n      add\n        /* \"contracts/utils/Base64.sol\":1682:3085  for {... */\n    tag_115:\n        /* \"contracts/utils/Base64.sol\":1803:1809  endPtr */\n      dup1\n        /* \"contracts/utils/Base64.sol\":1794:1801  dataPtr */\n      dup3\n        /* \"contracts/utils/Base64.sol\":1791:1810  lt(dataPtr, endPtr) */\n      lt\n        /* \"contracts/utils/Base64.sol\":1682:3085  for {... */\n      iszero\n      tag_117\n      jumpi\n        /* \"contracts/utils/Base64.sol\":1905:1906  3 */\n      0x03\n        /* \"contracts/utils/Base64.sol\":1896:1903  dataPtr */\n      dup3\n        /* \"contracts/utils/Base64.sol\":1892:1907  add(dataPtr, 3) */\n      add\n        /* \"contracts/utils/Base64.sol\":1881:1907  dataPtr := add(dataPtr, 3) */\n      swap2\n      pop\n        /* \"contracts/utils/Base64.sol\":1943:1950  dataPtr */\n      dup2\n        /* \"contracts/utils/Base64.sol\":1937:1951  mload(dataPtr) */\n      mload\n        /* \"contracts/utils/Base64.sol\":2586:2590  0x3F */\n      0x3f\n        /* \"contracts/utils/Base64.sol\":2578:2583  input */\n      dup2\n        /* \"contracts/utils/Base64.sol\":2574:2576  18 */\n      0x12\n        /* \"contracts/utils/Base64.sol\":2570:2584  shr(18, input) */\n      shr\n        /* \"contracts/utils/Base64.sol\":2566:2591  and(shr(18, input), 0x3F) */\n      and\n        /* \"contracts/utils/Base64.sol\":2556:2564  tablePtr */\n      dup6\n        /* \"contracts/utils/Base64.sol\":2552:2592  add(tablePtr, and(shr(18, input), 0x3F)) */\n      add\n        /* \"contracts/utils/Base64.sol\":2546:2593  mload(add(tablePtr, and(shr(18, input), 0x3F))) */\n      mload\n        /* \"contracts/utils/Base64.sol\":2535:2544  resultPtr */\n      dup5\n        /* \"contracts/utils/Base64.sol\":2527:2594  mstore8(resultPtr, mload(add(tablePtr, and(shr(18, input), 0x3F)))) */\n      mstore8\n        /* \"contracts/utils/Base64.sol\":2639:2640  1 */\n      0x01\n        /* \"contracts/utils/Base64.sol\":2628:2637  resultPtr */\n      dup5\n        /* \"contracts/utils/Base64.sol\":2624:2641  add(resultPtr, 1) */\n      add\n        /* \"contracts/utils/Base64.sol\":2611:2641  resultPtr := add(resultPtr, 1) */\n      swap4\n      pop\n        /* \"contracts/utils/Base64.sol\":2729:2733  0x3F */\n      0x3f\n        /* \"contracts/utils/Base64.sol\":2721:2726  input */\n      dup2\n        /* \"contracts/utils/Base64.sol\":2717:2719  12 */\n      0x0c\n        /* \"contracts/utils/Base64.sol\":2713:2727  shr(12, input) */\n      shr\n        /* \"contracts/utils/Base64.sol\":2709:2734  and(shr(12, input), 0x3F) */\n      and\n        /* \"contracts/utils/Base64.sol\":2699:2707  tablePtr */\n      dup6\n        /* \"contracts/utils/Base64.sol\":2695:2735  add(tablePtr, and(shr(12, input), 0x3F)) */\n      add\n        /* \"contracts/utils/Base64.sol\":2689:2736  mload(add(tablePtr, and(shr(12, input), 0x3F))) */\n      mload\n        /* \"contracts/utils/Base64.sol\":2678:2687  resultPtr */\n      dup5\n        /* \"contracts/utils/Base64.sol\":2670:2737  mstore8(resultPtr, mload(add(tablePtr, and(shr(12, input), 0x3F)))) */\n      mstore8\n        /* \"contracts/utils/Base64.sol\":2782:2783  1 */\n      0x01\n        /* \"contracts/utils/Base64.sol\":2771:2780  resultPtr */\n      dup5\n        /* \"contracts/utils/Base64.sol\":2767:2784  add(resultPtr, 1) */\n      add\n        /* \"contracts/utils/Base64.sol\":2754:2784  resultPtr := add(resultPtr, 1) */\n      swap4\n      pop\n        /* \"contracts/utils/Base64.sol\":2871:2875  0x3F */\n      0x3f\n        /* \"contracts/utils/Base64.sol\":2863:2868  input */\n      dup2\n        /* \"contracts/utils/Base64.sol\":2860:2861  6 */\n      0x06\n        /* \"contracts/utils/Base64.sol\":2856:2869  shr(6, input) */\n      shr\n        /* \"contracts/utils/Base64.sol\":2852:2876  and(shr(6, input), 0x3F) */\n      and\n        /* \"contracts/utils/Base64.sol\":2842:2850  tablePtr */\n      dup6\n        /* \"contracts/utils/Base64.sol\":2838:2877  add(tablePtr, and(shr(6, input), 0x3F)) */\n      add\n        /* \"contracts/utils/Base64.sol\":2832:2878  mload(add(tablePtr, and(shr(6, input), 0x3F))) */\n      mload\n        /* \"contracts/utils/Base64.sol\":2821:2830  resultPtr */\n      dup5\n        /* \"contracts/utils/Base64.sol\":2813:2879  mstore8(resultPtr, mload(add(tablePtr, and(shr(6, input), 0x3F)))) */\n      mstore8\n        /* \"contracts/utils/Base64.sol\":2924:2925  1 */\n      0x01\n        /* \"contracts/utils/Base64.sol\":2913:2922  resultPtr */\n      dup5\n        /* \"contracts/utils/Base64.sol\":2909:2926  add(resultPtr, 1) */\n      add\n        /* \"contracts/utils/Base64.sol\":2896:2926  resultPtr := add(resultPtr, 1) */\n      swap4\n      pop\n        /* \"contracts/utils/Base64.sol\":3005:3009  0x3F */\n      0x3f\n        /* \"contracts/utils/Base64.sol\":2998:3003  input */\n      dup2\n        /* \"contracts/utils/Base64.sol\":2994:3010  and(input, 0x3F) */\n      and\n        /* \"contracts/utils/Base64.sol\":2984:2992  tablePtr */\n      dup6\n        /* \"contracts/utils/Base64.sol\":2980:3011  add(tablePtr, and(input, 0x3F)) */\n      add\n        /* \"contracts/utils/Base64.sol\":2974:3012  mload(add(tablePtr, and(input, 0x3F))) */\n      mload\n        /* \"contracts/utils/Base64.sol\":2963:2972  resultPtr */\n      dup5\n        /* \"contracts/utils/Base64.sol\":2955:3013  mstore8(resultPtr, mload(add(tablePtr, and(input, 0x3F)))) */\n      mstore8\n        /* \"contracts/utils/Base64.sol\":3058:3059  1 */\n      0x01\n        /* \"contracts/utils/Base64.sol\":3047:3056  resultPtr */\n      dup5\n        /* \"contracts/utils/Base64.sol\":3043:3060  add(resultPtr, 1) */\n      add\n        /* \"contracts/utils/Base64.sol\":3030:3060  resultPtr := add(resultPtr, 1) */\n      swap4\n      pop\n        /* \"contracts/utils/Base64.sol\":1828:3085  {... */\n      pop\n        /* \"contracts/utils/Base64.sol\":1682:3085  for {... */\n      jump(tag_115)\n    tag_117:\n        /* \"contracts/utils/Base64.sol\":1686:1790  {... */\n      pop\n      pop\n        /* \"contracts/utils/Base64.sol\":3243:3244  3 */\n      0x03\n        /* \"contracts/utils/Base64.sol\":3236:3240  data */\n      dup7\n        /* \"contracts/utils/Base64.sol\":3230:3241  mload(data) */\n      mload\n        /* \"contracts/utils/Base64.sol\":3226:3245  mod(mload(data), 3) */\n      mod\n        /* \"contracts/utils/Base64.sol\":3263:3264  1 */\n      0x01\n        /* \"contracts/utils/Base64.sol\":3258:3378  case 1 {... */\n      dup2\n      eq\n      tag_119\n      jumpi\n        /* \"contracts/utils/Base64.sol\":3396:3397  2 */\n      0x02\n        /* \"contracts/utils/Base64.sol\":3391:3462  case 2 {... */\n      dup2\n      eq\n      tag_120\n      jumpi\n        /* \"contracts/utils/Base64.sol\":3219:3462  switch mod(mload(data), 3)... */\n      jump(tag_118)\n        /* \"contracts/utils/Base64.sol\":3258:3378  case 1 {... */\n    tag_119:\n        /* \"contracts/utils/Base64.sol\":3310:3314  0x3d */\n      0x3d\n        /* \"contracts/utils/Base64.sol\":3306:3307  1 */\n      0x01\n        /* \"contracts/utils/Base64.sol\":3295:3304  resultPtr */\n      dup4\n        /* \"contracts/utils/Base64.sol\":3291:3308  sub(resultPtr, 1) */\n      sub\n        /* \"contracts/utils/Base64.sol\":3283:3315  mstore8(sub(resultPtr, 1), 0x3d) */\n      mstore8\n        /* \"contracts/utils/Base64.sol\":3359:3363  0x3d */\n      0x3d\n        /* \"contracts/utils/Base64.sol\":3355:3356  2 */\n      0x02\n        /* \"contracts/utils/Base64.sol\":3344:3353  resultPtr */\n      dup4\n        /* \"contracts/utils/Base64.sol\":3340:3357  sub(resultPtr, 2) */\n      sub\n        /* \"contracts/utils/Base64.sol\":3332:3364  mstore8(sub(resultPtr, 2), 0x3d) */\n      mstore8\n        /* \"contracts/utils/Base64.sol\":3258:3378  case 1 {... */\n      jump(tag_118)\n        /* \"contracts/utils/Base64.sol\":3391:3462  case 2 {... */\n    tag_120:\n        /* \"contracts/utils/Base64.sol\":3443:3447  0x3d */\n      0x3d\n        /* \"contracts/utils/Base64.sol\":3439:3440  1 */\n      0x01\n        /* \"contracts/utils/Base64.sol\":3428:3437  resultPtr */\n      dup4\n        /* \"contracts/utils/Base64.sol\":3424:3441  sub(resultPtr, 1) */\n      sub\n        /* \"contracts/utils/Base64.sol\":3416:3448  mstore8(sub(resultPtr, 1), 0x3d) */\n      mstore8\n        /* \"contracts/utils/Base64.sol\":3219:3462  switch mod(mload(data), 3)... */\n    tag_118:\n      pop\n        /* \"contracts/utils/Base64.sol\":1399:3472  {... */\n      pop\n      pop\n        /* \"contracts/utils/Base64.sol\":3489:3495  result */\n      dup1\n        /* \"contracts/utils/Base64.sol\":3482:3495  return result */\n      swap3\n      pop\n      pop\n      pop\n        /* \"contracts/utils/Base64.sol\":476:3502  function encode(bytes memory data) internal pure returns (string memory) {... */\n    tag_106:\n      swap2\n      swap1\n      pop\n      jump\t// out\n    tag_29:\n      mload(0x40)\n      dup1\n      0x0160\n      add\n      0x40\n      mstore\n      dup1\n      0x00\n      dup2\n      mstore\n      0x20\n      add\n      0x00\n      dup2\n      mstore\n      0x20\n      add\n      0x00\n      dup2\n      mstore\n      0x20\n      add\n      0x00\n      dup2\n      mstore\n      0x20\n      add\n      and(0xffffffffffffffffffffffffffffffffffffffff, 0x00)\n      dup2\n      mstore\n      0x20\n      add\n      and(0xffffffffffffffffffffffffffffffffffffffff, 0x00)\n      dup2\n      mstore\n      0x20\n      add\n      0x00\n      dup2\n      mstore\n      0x20\n      add\n      0x00\n      dup2\n      mstore\n      0x20\n      add\n      0x00\n      dup2\n      mstore\n      0x20\n      add\n      0x00\n      dup2\n      mstore\n      0x20\n      add\n      0x60\n      dup2\n      mstore\n      pop\n      swap1\n      jump\t// out\n        /* \"#utility.yul\":7:82   */\n    tag_121:\n        /* \"#utility.yul\":40:46   */\n      0x00\n        /* \"#utility.yul\":73:75   */\n      0x40\n        /* \"#utility.yul\":67:76   */\n      mload\n        /* \"#utility.yul\":57:76   */\n      swap1\n      pop\n        /* \"#utility.yul\":7:82   */\n      swap1\n      jump\t// out\n        /* \"#utility.yul\":88:205   */\n    tag_122:\n        /* \"#utility.yul\":197:198   */\n      0x00\n        /* \"#utility.yul\":194:195   */\n      dup1\n        /* \"#utility.yul\":187:199   */\n      revert\n        /* \"#utility.yul\":211:328   */\n    tag_123:\n        /* \"#utility.yul\":320:321   */\n      0x00\n        /* \"#utility.yul\":317:318   */\n      dup1\n        /* \"#utility.yul\":310:322   */\n      revert\n        /* \"#utility.yul\":334:411   */\n    tag_124:\n        /* \"#utility.yul\":371:378   */\n      0x00\n        /* \"#utility.yul\":400:405   */\n      dup2\n        /* \"#utility.yul\":389:405   */\n      swap1\n      pop\n        /* \"#utility.yul\":334:411   */\n      swap2\n      swap1\n      pop\n      jump\t// out\n        /* \"#utility.yul\":417:539   */\n    tag_125:\n        /* \"#utility.yul\":490:514   */\n      tag_216\n        /* \"#utility.yul\":508:513   */\n      dup2\n        /* \"#utility.yul\":490:514   */\n      tag_124\n      jump\t// in\n    tag_216:\n        /* \"#utility.yul\":483:488   */\n      dup2\n        /* \"#utility.yul\":480:515   */\n      eq\n        /* \"#utility.yul\":470:533   */\n      tag_217\n      jumpi\n        /* \"#utility.yul\":529:530   */\n      0x00\n        /* \"#utility.yul\":526:527   */\n      dup1\n        /* \"#utility.yul\":519:531   */\n      revert\n        /* \"#utility.yul\":470:533   */\n    tag_217:\n        /* \"#utility.yul\":417:539   */\n      pop\n      jump\t// out\n        /* \"#utility.yul\":545:684   */\n    tag_126:\n        /* \"#utility.yul\":591:596   */\n      0x00\n        /* \"#utility.yul\":629:635   */\n      dup2\n        /* \"#utility.yul\":616:636   */\n      calldataload\n        /* \"#utility.yul\":607:636   */\n      swap1\n      pop\n        /* \"#utility.yul\":645:678   */\n      tag_219\n        /* \"#utility.yul\":672:677   */\n      dup2\n        /* \"#utility.yul\":645:678   */\n      tag_125\n      jump\t// in\n    tag_219:\n        /* \"#utility.yul\":545:684   */\n      swap3\n      swap2\n      pop\n      pop\n      jump\t// out\n        /* \"#utility.yul\":690:1019   */\n    tag_9:\n        /* \"#utility.yul\":749:755   */\n      0x00\n        /* \"#utility.yul\":798:800   */\n      0x20\n        /* \"#utility.yul\":786:795   */\n      dup3\n        /* \"#utility.yul\":777:784   */\n      dup5\n        /* \"#utility.yul\":773:796   */\n      sub\n        /* \"#utility.yul\":769:801   */\n      slt\n        /* \"#utility.yul\":766:885   */\n      iszero\n      tag_221\n      jumpi\n        /* \"#utility.yul\":804:883   */\n      tag_222\n      tag_122\n      jump\t// in\n    tag_222:\n        /* \"#utility.yul\":766:885   */\n    tag_221:\n        /* \"#utility.yul\":924:925   */\n      0x00\n        /* \"#utility.yul\":949:1002   */\n      tag_223\n        /* \"#utility.yul\":994:1001   */\n      dup5\n        /* \"#utility.yul\":985:991   */\n      dup3\n        /* \"#utility.yul\":974:983   */\n      dup6\n        /* \"#utility.yul\":970:992   */\n      add\n        /* \"#utility.yul\":949:1002   */\n      tag_126\n      jump\t// in\n    tag_223:\n        /* \"#utility.yul\":939:1002   */\n      swap2\n      pop\n        /* \"#utility.yul\":895:1012   */\n      pop\n        /* \"#utility.yul\":690:1019   */\n      swap3\n      swap2\n      pop\n      pop\n      jump\t// out\n        /* \"#utility.yul\":1025:1124   */\n    tag_127:\n        /* \"#utility.yul\":1077:1083   */\n      0x00\n        /* \"#utility.yul\":1111:1116   */\n      dup2\n        /* \"#utility.yul\":1105:1117   */\n      mload\n        /* \"#utility.yul\":1095:1117   */\n      swap1\n      pop\n        /* \"#utility.yul\":1025:1124   */\n      swap2\n      swap1\n      pop\n      jump\t// out\n        /* \"#utility.yul\":1130:1299   */\n    tag_128:\n        /* \"#utility.yul\":1214:1225   */\n      0x00\n        /* \"#utility.yul\":1248:1254   */\n      dup3\n        /* \"#utility.yul\":1243:1246   */\n      dup3\n        /* \"#utility.yul\":1236:1255   */\n      mstore\n        /* \"#utility.yul\":1288:1292   */\n      0x20\n        /* \"#utility.yul\":1283:1286   */\n      dup3\n        /* \"#utility.yul\":1279:1293   */\n      add\n        /* \"#utility.yul\":1264:1293   */\n      swap1\n      pop\n        /* \"#utility.yul\":1130:1299   */\n      swap3\n      swap2\n      pop\n      pop\n      jump\t// out\n        /* \"#utility.yul\":1305:1551   */\n    tag_129:\n        /* \"#utility.yul\":1386:1387   */\n      0x00\n        /* \"#utility.yul\":1396:1509   */\n    tag_227:\n        /* \"#utility.yul\":1410:1416   */\n      dup4\n        /* \"#utility.yul\":1407:1408   */\n      dup2\n        /* \"#utility.yul\":1404:1417   */\n      lt\n        /* \"#utility.yul\":1396:1509   */\n      iszero\n      tag_229\n      jumpi\n        /* \"#utility.yul\":1495:1496   */\n      dup1\n        /* \"#utility.yul\":1490:1493   */\n      dup3\n        /* \"#utility.yul\":1486:1497   */\n      add\n        /* \"#utility.yul\":1480:1498   */\n      mload\n        /* \"#utility.yul\":1476:1477   */\n      dup2\n        /* \"#utility.yul\":1471:1474   */\n      dup5\n        /* \"#utility.yul\":1467:1478   */\n      add\n        /* \"#utility.yul\":1460:1499   */\n      mstore\n        /* \"#utility.yul\":1432:1434   */\n      0x20\n        /* \"#utility.yul\":1429:1430   */\n      dup2\n        /* \"#utility.yul\":1425:1435   */\n      add\n        /* \"#utility.yul\":1420:1435   */\n      swap1\n      pop\n        /* \"#utility.yul\":1396:1509   */\n      jump(tag_227)\n    tag_229:\n        /* \"#utility.yul\":1543:1544   */\n      0x00\n        /* \"#utility.yul\":1534:1540   */\n      dup5\n        /* \"#utility.yul\":1529:1532   */\n      dup5\n        /* \"#utility.yul\":1525:1541   */\n      add\n        /* \"#utility.yul\":1518:1545   */\n      mstore\n        /* \"#utility.yul\":1367:1551   */\n      pop\n        /* \"#utility.yul\":1305:1551   */\n      pop\n      pop\n      pop\n      jump\t// out\n        /* \"#utility.yul\":1557:1659   */\n    tag_130:\n        /* \"#utility.yul\":1598:1604   */\n      0x00\n        /* \"#utility.yul\":1649:1651   */\n      0x1f\n        /* \"#utility.yul\":1645:1652   */\n      not\n        /* \"#utility.yul\":1640:1642   */\n      0x1f\n        /* \"#utility.yul\":1633:1638   */\n      dup4\n        /* \"#utility.yul\":1629:1643   */\n      add\n        /* \"#utility.yul\":1625:1653   */\n      and\n        /* \"#utility.yul\":1615:1653   */\n      swap1\n      pop\n        /* \"#utility.yul\":1557:1659   */\n      swap2\n      swap1\n      pop\n      jump\t// out\n        /* \"#utility.yul\":1665:2042   */\n    tag_131:\n        /* \"#utility.yul\":1753:1756   */\n      0x00\n        /* \"#utility.yul\":1781:1820   */\n      tag_232\n        /* \"#utility.yul\":1814:1819   */\n      dup3\n        /* \"#utility.yul\":1781:1820   */\n      tag_127\n      jump\t// in\n    tag_232:\n        /* \"#utility.yul\":1836:1907   */\n      tag_233\n        /* \"#utility.yul\":1900:1906   */\n      dup2\n        /* \"#utility.yul\":1895:1898   */\n      dup6\n        /* \"#utility.yul\":1836:1907   */\n      tag_128\n      jump\t// in\n    tag_233:\n        /* \"#utility.yul\":1829:1907   */\n      swap4\n      pop\n        /* \"#utility.yul\":1916:1981   */\n      tag_234\n        /* \"#utility.yul\":1974:1980   */\n      dup2\n        /* \"#utility.yul\":1969:1972   */\n      dup6\n        /* \"#utility.yul\":1962:1966   */\n      0x20\n        /* \"#utility.yul\":1955:1960   */\n      dup7\n        /* \"#utility.yul\":1951:1967   */\n      add\n        /* \"#utility.yul\":1916:1981   */\n      tag_129\n      jump\t// in\n    tag_234:\n        /* \"#utility.yul\":2006:2035   */\n      tag_235\n        /* \"#utility.yul\":2028:2034   */\n      dup2\n        /* \"#utility.yul\":2006:2035   */\n      tag_130\n      jump\t// in\n    tag_235:\n        /* \"#utility.yul\":2001:2004   */\n      dup5\n        /* \"#utility.yul\":1997:2036   */\n      add\n        /* \"#utility.yul\":1990:2036   */\n      swap2\n      pop\n        /* \"#utility.yul\":1757:2042   */\n      pop\n        /* \"#utility.yul\":1665:2042   */\n      swap3\n      swap2\n      pop\n      pop\n      jump\t// out\n        /* \"#utility.yul\":2048:2156   */\n    tag_132:\n        /* \"#utility.yul\":2125:2149   */\n      tag_237\n        /* \"#utility.yul\":2143:2148   */\n      dup2\n        /* \"#utility.yul\":2125:2149   */\n      tag_124\n      jump\t// in\n    tag_237:\n        /* \"#utility.yul\":2120:2123   */\n      dup3\n        /* \"#utility.yul\":2113:2150   */\n      mstore\n        /* \"#utility.yul\":2048:2156   */\n      pop\n      pop\n      jump\t// out\n        /* \"#utility.yul\":2162:2288   */\n    tag_133:\n        /* \"#utility.yul\":2199:2206   */\n      0x00\n        /* \"#utility.yul\":2239:2281   */\n      0xffffffffffffffffffffffffffffffffffffffff\n        /* \"#utility.yul\":2232:2237   */\n      dup3\n        /* \"#utility.yul\":2228:2282   */\n      and\n        /* \"#utility.yul\":2217:2282   */\n      swap1\n      pop\n        /* \"#utility.yul\":2162:2288   */\n      swap2\n      swap1\n      pop\n      jump\t// out\n        /* \"#utility.yul\":2294:2390   */\n    tag_134:\n        /* \"#utility.yul\":2331:2338   */\n      0x00\n        /* \"#utility.yul\":2360:2384   */\n      tag_240\n        /* \"#utility.yul\":2378:2383   */\n      dup3\n        /* \"#utility.yul\":2360:2384   */\n      tag_133\n      jump\t// in\n    tag_240:\n        /* \"#utility.yul\":2349:2384   */\n      swap1\n      pop\n        /* \"#utility.yul\":2294:2390   */\n      swap2\n      swap1\n      pop\n      jump\t// out\n        /* \"#utility.yul\":2396:2504   */\n    tag_135:\n        /* \"#utility.yul\":2473:2497   */\n      tag_242\n        /* \"#utility.yul\":2491:2496   */\n      dup2\n        /* \"#utility.yul\":2473:2497   */\n      tag_134\n      jump\t// in\n    tag_242:\n        /* \"#utility.yul\":2468:2471   */\n      dup3\n        /* \"#utility.yul\":2461:2498   */\n      mstore\n        /* \"#utility.yul\":2396:2504   */\n      pop\n      pop\n      jump\t// out\n        /* \"#utility.yul\":2510:2669   */\n    tag_136:\n        /* \"#utility.yul\":2584:2595   */\n      0x00\n        /* \"#utility.yul\":2618:2624   */\n      dup3\n        /* \"#utility.yul\":2613:2616   */\n      dup3\n        /* \"#utility.yul\":2606:2625   */\n      mstore\n        /* \"#utility.yul\":2658:2662   */\n      0x20\n        /* \"#utility.yul\":2653:2656   */\n      dup3\n        /* \"#utility.yul\":2649:2663   */\n      add\n        /* \"#utility.yul\":2634:2663   */\n      swap1\n      pop\n        /* \"#utility.yul\":2510:2669   */\n      swap3\n      swap2\n      pop\n      pop\n      jump\t// out\n        /* \"#utility.yul\":2675:3032   */\n    tag_137:\n        /* \"#utility.yul\":2753:2756   */\n      0x00\n        /* \"#utility.yul\":2781:2820   */\n      tag_245\n        /* \"#utility.yul\":2814:2819   */\n      dup3\n        /* \"#utility.yul\":2781:2820   */\n      tag_127\n      jump\t// in\n    tag_245:\n        /* \"#utility.yul\":2836:2897   */\n      tag_246\n        /* \"#utility.yul\":2890:2896   */\n      dup2\n        /* \"#utility.yul\":2885:2888   */\n      dup6\n        /* \"#utility.yul\":2836:2897   */\n      tag_136\n      jump\t// in\n    tag_246:\n        /* \"#utility.yul\":2829:2897   */\n      swap4\n      pop\n        /* \"#utility.yul\":2906:2971   */\n      tag_247\n        /* \"#utility.yul\":2964:2970   */\n      dup2\n        /* \"#utility.yul\":2959:2962   */\n      dup6\n        /* \"#utility.yul\":2952:2956   */\n      0x20\n        /* \"#utility.yul\":2945:2950   */\n      dup7\n        /* \"#utility.yul\":2941:2957   */\n      add\n        /* \"#utility.yul\":2906:2971   */\n      tag_129\n      jump\t// in\n    tag_247:\n        /* \"#utility.yul\":2996:3025   */\n      tag_248\n        /* \"#utility.yul\":3018:3024   */\n      dup2\n        /* \"#utility.yul\":2996:3025   */\n      tag_130\n      jump\t// in\n    tag_248:\n        /* \"#utility.yul\":2991:2994   */\n      dup5\n        /* \"#utility.yul\":2987:3026   */\n      add\n        /* \"#utility.yul\":2980:3026   */\n      swap2\n      pop\n        /* \"#utility.yul\":2757:3032   */\n      pop\n        /* \"#utility.yul\":2675:3032   */\n      swap3\n      swap2\n      pop\n      pop\n      jump\t// out\n        /* \"#utility.yul\":3082:5333   */\n    tag_138:\n        /* \"#utility.yul\":3203:3206   */\n      0x00\n        /* \"#utility.yul\":3239:3245   */\n      0x0160\n        /* \"#utility.yul\":3234:3237   */\n      dup4\n        /* \"#utility.yul\":3230:3246   */\n      add\n        /* \"#utility.yul\":3337:3341   */\n      0x00\n        /* \"#utility.yul\":3330:3335   */\n      dup4\n        /* \"#utility.yul\":3326:3342   */\n      add\n        /* \"#utility.yul\":3320:3343   */\n      mload\n        /* \"#utility.yul\":3356:3419   */\n      tag_250\n        /* \"#utility.yul\":3413:3417   */\n      0x00\n        /* \"#utility.yul\":3408:3411   */\n      dup7\n        /* \"#utility.yul\":3404:3418   */\n      add\n        /* \"#utility.yul\":3390:3402   */\n      dup3\n        /* \"#utility.yul\":3356:3419   */\n      tag_132\n      jump\t// in\n    tag_250:\n        /* \"#utility.yul\":3256:3429   */\n      pop\n        /* \"#utility.yul\":3523:3527   */\n      0x20\n        /* \"#utility.yul\":3516:3521   */\n      dup4\n        /* \"#utility.yul\":3512:3528   */\n      add\n        /* \"#utility.yul\":3506:3529   */\n      mload\n        /* \"#utility.yul\":3542:3605   */\n      tag_251\n        /* \"#utility.yul\":3599:3603   */\n      0x20\n        /* \"#utility.yul\":3594:3597   */\n      dup7\n        /* \"#utility.yul\":3590:3604   */\n      add\n        /* \"#utility.yul\":3576:3588   */\n      dup3\n        /* \"#utility.yul\":3542:3605   */\n      tag_132\n      jump\t// in\n    tag_251:\n        /* \"#utility.yul\":3439:3615   */\n      pop\n        /* \"#utility.yul\":3698:3702   */\n      0x40\n        /* \"#utility.yul\":3691:3696   */\n      dup4\n        /* \"#utility.yul\":3687:3703   */\n      add\n        /* \"#utility.yul\":3681:3704   */\n      mload\n        /* \"#utility.yul\":3717:3780   */\n      tag_252\n        /* \"#utility.yul\":3774:3778   */\n      0x40\n        /* \"#utility.yul\":3769:3772   */\n      dup7\n        /* \"#utility.yul\":3765:3779   */\n      add\n        /* \"#utility.yul\":3751:3763   */\n      dup3\n        /* \"#utility.yul\":3717:3780   */\n      tag_132\n      jump\t// in\n    tag_252:\n        /* \"#utility.yul\":3625:3790   */\n      pop\n        /* \"#utility.yul\":3874:3878   */\n      0x60\n        /* \"#utility.yul\":3867:3872   */\n      dup4\n        /* \"#utility.yul\":3863:3879   */\n      add\n        /* \"#utility.yul\":3857:3880   */\n      mload\n        /* \"#utility.yul\":3893:3956   */\n      tag_253\n        /* \"#utility.yul\":3950:3954   */\n      0x60\n        /* \"#utility.yul\":3945:3948   */\n      dup7\n        /* \"#utility.yul\":3941:3955   */\n      add\n        /* \"#utility.yul\":3927:3939   */\n      dup3\n        /* \"#utility.yul\":3893:3956   */\n      tag_132\n      jump\t// in\n    tag_253:\n        /* \"#utility.yul\":3800:3966   */\n      pop\n        /* \"#utility.yul\":4050:4054   */\n      0x80\n        /* \"#utility.yul\":4043:4048   */\n      dup4\n        /* \"#utility.yul\":4039:4055   */\n      add\n        /* \"#utility.yul\":4033:4056   */\n      mload\n        /* \"#utility.yul\":4069:4132   */\n      tag_254\n        /* \"#utility.yul\":4126:4130   */\n      0x80\n        /* \"#utility.yul\":4121:4124   */\n      dup7\n        /* \"#utility.yul\":4117:4131   */\n      add\n        /* \"#utility.yul\":4103:4115   */\n      dup3\n        /* \"#utility.yul\":4069:4132   */\n      tag_135\n      jump\t// in\n    tag_254:\n        /* \"#utility.yul\":3976:4142   */\n      pop\n        /* \"#utility.yul\":4226:4230   */\n      0xa0\n        /* \"#utility.yul\":4219:4224   */\n      dup4\n        /* \"#utility.yul\":4215:4231   */\n      add\n        /* \"#utility.yul\":4209:4232   */\n      mload\n        /* \"#utility.yul\":4245:4308   */\n      tag_255\n        /* \"#utility.yul\":4302:4306   */\n      0xa0\n        /* \"#utility.yul\":4297:4300   */\n      dup7\n        /* \"#utility.yul\":4293:4307   */\n      add\n        /* \"#utility.yul\":4279:4291   */\n      dup3\n        /* \"#utility.yul\":4245:4308   */\n      tag_135\n      jump\t// in\n    tag_255:\n        /* \"#utility.yul\":4152:4318   */\n      pop\n        /* \"#utility.yul\":4405:4409   */\n      0xc0\n        /* \"#utility.yul\":4398:4403   */\n      dup4\n        /* \"#utility.yul\":4394:4410   */\n      add\n        /* \"#utility.yul\":4388:4411   */\n      mload\n        /* \"#utility.yul\":4424:4487   */\n      tag_256\n        /* \"#utility.yul\":4481:4485   */\n      0xc0\n        /* \"#utility.yul\":4476:4479   */\n      dup7\n        /* \"#utility.yul\":4472:4486   */\n      add\n        /* \"#utility.yul\":4458:4470   */\n      dup3\n        /* \"#utility.yul\":4424:4487   */\n      tag_132\n      jump\t// in\n    tag_256:\n        /* \"#utility.yul\":4328:4497   */\n      pop\n        /* \"#utility.yul\":4584:4588   */\n      0xe0\n        /* \"#utility.yul\":4577:4582   */\n      dup4\n        /* \"#utility.yul\":4573:4589   */\n      add\n        /* \"#utility.yul\":4567:4590   */\n      mload\n        /* \"#utility.yul\":4603:4666   */\n      tag_257\n        /* \"#utility.yul\":4660:4664   */\n      0xe0\n        /* \"#utility.yul\":4655:4658   */\n      dup7\n        /* \"#utility.yul\":4651:4665   */\n      add\n        /* \"#utility.yul\":4637:4649   */\n      dup3\n        /* \"#utility.yul\":4603:4666   */\n      tag_132\n      jump\t// in\n    tag_257:\n        /* \"#utility.yul\":4507:4676   */\n      pop\n        /* \"#utility.yul\":4769:4775   */\n      0x0100\n        /* \"#utility.yul\":4762:4767   */\n      dup4\n        /* \"#utility.yul\":4758:4776   */\n      add\n        /* \"#utility.yul\":4752:4777   */\n      mload\n        /* \"#utility.yul\":4790:4855   */\n      tag_258\n        /* \"#utility.yul\":4847:4853   */\n      0x0100\n        /* \"#utility.yul\":4842:4845   */\n      dup7\n        /* \"#utility.yul\":4838:4854   */\n      add\n        /* \"#utility.yul\":4824:4836   */\n      dup3\n        /* \"#utility.yul\":4790:4855   */\n      tag_132\n      jump\t// in\n    tag_258:\n        /* \"#utility.yul\":4686:4865   */\n      pop\n        /* \"#utility.yul\":4958:4964   */\n      0x0120\n        /* \"#utility.yul\":4951:4956   */\n      dup4\n        /* \"#utility.yul\":4947:4965   */\n      add\n        /* \"#utility.yul\":4941:4966   */\n      mload\n        /* \"#utility.yul\":4979:5044   */\n      tag_259\n        /* \"#utility.yul\":5036:5042   */\n      0x0120\n        /* \"#utility.yul\":5031:5034   */\n      dup7\n        /* \"#utility.yul\":5027:5043   */\n      add\n        /* \"#utility.yul\":5013:5025   */\n      dup3\n        /* \"#utility.yul\":4979:5044   */\n      tag_132\n      jump\t// in\n    tag_259:\n        /* \"#utility.yul\":4875:5054   */\n      pop\n        /* \"#utility.yul\":5139:5145   */\n      0x0140\n        /* \"#utility.yul\":5132:5137   */\n      dup4\n        /* \"#utility.yul\":5128:5146   */\n      add\n        /* \"#utility.yul\":5122:5147   */\n      mload\n        /* \"#utility.yul\":5196:5199   */\n      dup5\n        /* \"#utility.yul\":5190:5194   */\n      dup3\n        /* \"#utility.yul\":5186:5200   */\n      sub\n        /* \"#utility.yul\":5177:5183   */\n      0x0140\n        /* \"#utility.yul\":5172:5175   */\n      dup7\n        /* \"#utility.yul\":5168:5184   */\n      add\n        /* \"#utility.yul\":5161:5201   */\n      mstore\n        /* \"#utility.yul\":5222:5295   */\n      tag_260\n        /* \"#utility.yul\":5290:5294   */\n      dup3\n        /* \"#utility.yul\":5276:5288   */\n      dup3\n        /* \"#utility.yul\":5222:5295   */\n      tag_137\n      jump\t// in\n    tag_260:\n        /* \"#utility.yul\":5214:5295   */\n      swap2\n      pop\n        /* \"#utility.yul\":5064:5306   */\n      pop\n        /* \"#utility.yul\":5323:5327   */\n      dup1\n        /* \"#utility.yul\":5316:5327   */\n      swap2\n      pop\n        /* \"#utility.yul\":3208:5333   */\n      pop\n        /* \"#utility.yul\":3082:5333   */\n      swap3\n      swap2\n      pop\n      pop\n      jump\t// out\n        /* \"#utility.yul\":5339:5917   */\n    tag_12:\n        /* \"#utility.yul\":5532:5536   */\n      0x00\n        /* \"#utility.yul\":5570:5572   */\n      0x40\n        /* \"#utility.yul\":5559:5568   */\n      dup3\n        /* \"#utility.yul\":5555:5573   */\n      add\n        /* \"#utility.yul\":5547:5573   */\n      swap1\n      pop\n        /* \"#utility.yul\":5619:5628   */\n      dup2\n        /* \"#utility.yul\":5613:5617   */\n      dup2\n        /* \"#utility.yul\":5609:5629   */\n      sub\n        /* \"#utility.yul\":5605:5606   */\n      0x00\n        /* \"#utility.yul\":5594:5603   */\n      dup4\n        /* \"#utility.yul\":5590:5607   */\n      add\n        /* \"#utility.yul\":5583:5630   */\n      mstore\n        /* \"#utility.yul\":5647:5725   */\n      tag_262\n        /* \"#utility.yul\":5720:5724   */\n      dup2\n        /* \"#utility.yul\":5711:5717   */\n      dup6\n        /* \"#utility.yul\":5647:5725   */\n      tag_131\n      jump\t// in\n    tag_262:\n        /* \"#utility.yul\":5639:5725   */\n      swap1\n      pop\n        /* \"#utility.yul\":5772:5781   */\n      dup2\n        /* \"#utility.yul\":5766:5770   */\n      dup2\n        /* \"#utility.yul\":5762:5782   */\n      sub\n        /* \"#utility.yul\":5757:5759   */\n      0x20\n        /* \"#utility.yul\":5746:5755   */\n      dup4\n        /* \"#utility.yul\":5742:5760   */\n      add\n        /* \"#utility.yul\":5735:5783   */\n      mstore\n        /* \"#utility.yul\":5800:5910   */\n      tag_263\n        /* \"#utility.yul\":5905:5909   */\n      dup2\n        /* \"#utility.yul\":5896:5902   */\n      dup5\n        /* \"#utility.yul\":5800:5910   */\n      tag_138\n      jump\t// in\n    tag_263:\n        /* \"#utility.yul\":5792:5910   */\n      swap1\n      pop\n        /* \"#utility.yul\":5339:5917   */\n      swap4\n      swap3\n      pop\n      pop\n      pop\n      jump\t// out\n        /* \"#utility.yul\":5923:6236   */\n    tag_17:\n        /* \"#utility.yul\":6036:6040   */\n      0x00\n        /* \"#utility.yul\":6074:6076   */\n      0x20\n        /* \"#utility.yul\":6063:6072   */\n      dup3\n        /* \"#utility.yul\":6059:6077   */\n      add\n        /* \"#utility.yul\":6051:6077   */\n      swap1\n      pop\n        /* \"#utility.yul\":6123:6132   */\n      dup2\n        /* \"#utility.yul\":6117:6121   */\n      dup2\n        /* \"#utility.yul\":6113:6133   */\n      sub\n        /* \"#utility.yul\":6109:6110   */\n      0x00\n        /* \"#utility.yul\":6098:6107   */\n      dup4\n        /* \"#utility.yul\":6094:6111   */\n      add\n        /* \"#utility.yul\":6087:6134   */\n      mstore\n        /* \"#utility.yul\":6151:6229   */\n      tag_265\n        /* \"#utility.yul\":6224:6228   */\n      dup2\n        /* \"#utility.yul\":6215:6221   */\n      dup5\n        /* \"#utility.yul\":6151:6229   */\n      tag_131\n      jump\t// in\n    tag_265:\n        /* \"#utility.yul\":6143:6229   */\n      swap1\n      pop\n        /* \"#utility.yul\":5923:6236   */\n      swap3\n      swap2\n      pop\n      pop\n      jump\t// out\n        /* \"#utility.yul\":6242:6359   */\n    tag_139:\n        /* \"#utility.yul\":6351:6352   */\n      0x00\n        /* \"#utility.yul\":6348:6349   */\n      dup1\n        /* \"#utility.yul\":6341:6353   */\n      revert\n        /* \"#utility.yul\":6365:6545   */\n    tag_93:\n        /* \"#utility.yul\":6413:6490   */\n      0x4e487b7100000000000000000000000000000000000000000000000000000000\n        /* \"#utility.yul\":6410:6411   */\n      0x00\n        /* \"#utility.yul\":6403:6491   */\n      mstore\n        /* \"#utility.yul\":6510:6514   */\n      0x41\n        /* \"#utility.yul\":6507:6508   */\n      0x04\n        /* \"#utility.yul\":6500:6515   */\n      mstore\n        /* \"#utility.yul\":6534:6538   */\n      0x24\n        /* \"#utility.yul\":6531:6532   */\n      0x00\n        /* \"#utility.yul\":6524:6539   */\n      revert\n        /* \"#utility.yul\":6551:6832   */\n    tag_140:\n        /* \"#utility.yul\":6634:6661   */\n      tag_269\n        /* \"#utility.yul\":6656:6660   */\n      dup3\n        /* \"#utility.yul\":6634:6661   */\n      tag_130\n      jump\t// in\n    tag_269:\n        /* \"#utility.yul\":6626:6632   */\n      dup2\n        /* \"#utility.yul\":6622:6662   */\n      add\n        /* \"#utility.yul\":6764:6770   */\n      dup2\n        /* \"#utility.yul\":6752:6762   */\n      dup2\n        /* \"#utility.yul\":6749:6771   */\n      lt\n        /* \"#utility.yul\":6728:6746   */\n      0xffffffffffffffff\n        /* \"#utility.yul\":6716:6726   */\n      dup3\n        /* \"#utility.yul\":6713:6747   */\n      gt\n        /* \"#utility.yul\":6710:6772   */\n      or\n        /* \"#utility.yul\":6707:6795   */\n      iszero\n      tag_270\n      jumpi\n        /* \"#utility.yul\":6775:6793   */\n      tag_271\n      tag_93\n      jump\t// in\n    tag_271:\n        /* \"#utility.yul\":6707:6795   */\n    tag_270:\n        /* \"#utility.yul\":6815:6825   */\n      dup1\n        /* \"#utility.yul\":6811:6813   */\n      0x40\n        /* \"#utility.yul\":6804:6826   */\n      mstore\n        /* \"#utility.yul\":6594:6832   */\n      pop\n        /* \"#utility.yul\":6551:6832   */\n      pop\n      pop\n      jump\t// out\n        /* \"#utility.yul\":6838:6967   */\n    tag_141:\n        /* \"#utility.yul\":6872:6878   */\n      0x00\n        /* \"#utility.yul\":6899:6919   */\n      tag_273\n      tag_121\n      jump\t// in\n    tag_273:\n        /* \"#utility.yul\":6889:6919   */\n      swap1\n      pop\n        /* \"#utility.yul\":6928:6961   */\n      tag_274\n        /* \"#utility.yul\":6956:6960   */\n      dup3\n        /* \"#utility.yul\":6948:6954   */\n      dup3\n        /* \"#utility.yul\":6928:6961   */\n      tag_140\n      jump\t// in\n    tag_274:\n        /* \"#utility.yul\":6838:6967   */\n      swap2\n      swap1\n      pop\n      jump\t// out\n        /* \"#utility.yul\":6973:7090   */\n    tag_142:\n        /* \"#utility.yul\":7082:7083   */\n      0x00\n        /* \"#utility.yul\":7079:7080   */\n      dup1\n        /* \"#utility.yul\":7072:7084   */\n      revert\n        /* \"#utility.yul\":7096:7218   */\n    tag_143:\n        /* \"#utility.yul\":7169:7193   */\n      tag_277\n        /* \"#utility.yul\":7187:7192   */\n      dup2\n        /* \"#utility.yul\":7169:7193   */\n      tag_134\n      jump\t// in\n    tag_277:\n        /* \"#utility.yul\":7162:7167   */\n      dup2\n        /* \"#utility.yul\":7159:7194   */\n      eq\n        /* \"#utility.yul\":7149:7212   */\n      tag_278\n      jumpi\n        /* \"#utility.yul\":7208:7209   */\n      0x00\n        /* \"#utility.yul\":7205:7206   */\n      dup1\n        /* \"#utility.yul\":7198:7210   */\n      revert\n        /* \"#utility.yul\":7149:7212   */\n    tag_278:\n        /* \"#utility.yul\":7096:7218   */\n      pop\n      jump\t// out\n        /* \"#utility.yul\":7224:7363   */\n    tag_144:\n        /* \"#utility.yul\":7270:7275   */\n      0x00\n        /* \"#utility.yul\":7308:7314   */\n      dup2\n        /* \"#utility.yul\":7295:7315   */\n      calldataload\n        /* \"#utility.yul\":7286:7315   */\n      swap1\n      pop\n        /* \"#utility.yul\":7324:7357   */\n      tag_280\n        /* \"#utility.yul\":7351:7356   */\n      dup2\n        /* \"#utility.yul\":7324:7357   */\n      tag_143\n      jump\t// in\n    tag_280:\n        /* \"#utility.yul\":7224:7363   */\n      swap3\n      swap2\n      pop\n      pop\n      jump\t// out\n        /* \"#utility.yul\":7369:7486   */\n    tag_145:\n        /* \"#utility.yul\":7478:7479   */\n      0x00\n        /* \"#utility.yul\":7475:7476   */\n      dup1\n        /* \"#utility.yul\":7468:7480   */\n      revert\n        /* \"#utility.yul\":7492:7609   */\n    tag_146:\n        /* \"#utility.yul\":7601:7602   */\n      0x00\n        /* \"#utility.yul\":7598:7599   */\n      dup1\n        /* \"#utility.yul\":7591:7603   */\n      revert\n        /* \"#utility.yul\":7615:7923   */\n    tag_147:\n        /* \"#utility.yul\":7677:7681   */\n      0x00\n        /* \"#utility.yul\":7767:7785   */\n      0xffffffffffffffff\n        /* \"#utility.yul\":7759:7765   */\n      dup3\n        /* \"#utility.yul\":7756:7786   */\n      gt\n        /* \"#utility.yul\":7753:7809   */\n      iszero\n      tag_284\n      jumpi\n        /* \"#utility.yul\":7789:7807   */\n      tag_285\n      tag_93\n      jump\t// in\n    tag_285:\n        /* \"#utility.yul\":7753:7809   */\n    tag_284:\n        /* \"#utility.yul\":7827:7856   */\n      tag_286\n        /* \"#utility.yul\":7849:7855   */\n      dup3\n        /* \"#utility.yul\":7827:7856   */\n      tag_130\n      jump\t// in\n    tag_286:\n        /* \"#utility.yul\":7819:7856   */\n      swap1\n      pop\n        /* \"#utility.yul\":7911:7915   */\n      0x20\n        /* \"#utility.yul\":7905:7909   */\n      dup2\n        /* \"#utility.yul\":7901:7916   */\n      add\n        /* \"#utility.yul\":7893:7916   */\n      swap1\n      pop\n        /* \"#utility.yul\":7615:7923   */\n      swap2\n      swap1\n      pop\n      jump\t// out\n        /* \"#utility.yul\":7929:8075   */\n    tag_148:\n        /* \"#utility.yul\":8026:8032   */\n      dup3\n        /* \"#utility.yul\":8021:8024   */\n      dup2\n        /* \"#utility.yul\":8016:8019   */\n      dup4\n        /* \"#utility.yul\":8003:8033   */\n      calldatacopy\n        /* \"#utility.yul\":8067:8068   */\n      0x00\n        /* \"#utility.yul\":8058:8064   */\n      dup4\n        /* \"#utility.yul\":8053:8056   */\n      dup4\n        /* \"#utility.yul\":8049:8065   */\n      add\n        /* \"#utility.yul\":8042:8069   */\n      mstore\n        /* \"#utility.yul\":7929:8075   */\n      pop\n      pop\n      pop\n      jump\t// out\n        /* \"#utility.yul\":8081:8506   */\n    tag_149:\n        /* \"#utility.yul\":8159:8164   */\n      0x00\n        /* \"#utility.yul\":8184:8250   */\n      tag_289\n        /* \"#utility.yul\":8200:8249   */\n      tag_290\n        /* \"#utility.yul\":8242:8248   */\n      dup5\n        /* \"#utility.yul\":8200:8249   */\n      tag_147\n      jump\t// in\n    tag_290:\n        /* \"#utility.yul\":8184:8250   */\n      tag_141\n      jump\t// in\n    tag_289:\n        /* \"#utility.yul\":8175:8250   */\n      swap1\n      pop\n        /* \"#utility.yul\":8273:8279   */\n      dup3\n        /* \"#utility.yul\":8266:8271   */\n      dup2\n        /* \"#utility.yul\":8259:8280   */\n      mstore\n        /* \"#utility.yul\":8311:8315   */\n      0x20\n        /* \"#utility.yul\":8304:8309   */\n      dup2\n        /* \"#utility.yul\":8300:8316   */\n      add\n        /* \"#utility.yul\":8349:8352   */\n      dup5\n        /* \"#utility.yul\":8340:8346   */\n      dup5\n        /* \"#utility.yul\":8335:8338   */\n      dup5\n        /* \"#utility.yul\":8331:8347   */\n      add\n        /* \"#utility.yul\":8328:8353   */\n      gt\n        /* \"#utility.yul\":8325:8437   */\n      iszero\n      tag_291\n      jumpi\n        /* \"#utility.yul\":8356:8435   */\n      tag_292\n      tag_146\n      jump\t// in\n    tag_292:\n        /* \"#utility.yul\":8325:8437   */\n    tag_291:\n        /* \"#utility.yul\":8446:8500   */\n      tag_293\n        /* \"#utility.yul\":8493:8499   */\n      dup5\n        /* \"#utility.yul\":8488:8491   */\n      dup3\n        /* \"#utility.yul\":8483:8486   */\n      dup6\n        /* \"#utility.yul\":8446:8500   */\n      tag_148\n      jump\t// in\n    tag_293:\n        /* \"#utility.yul\":8165:8506   */\n      pop\n        /* \"#utility.yul\":8081:8506   */\n      swap4\n      swap3\n      pop\n      pop\n      pop\n      jump\t// out\n        /* \"#utility.yul\":8526:8866   */\n    tag_150:\n        /* \"#utility.yul\":8582:8587   */\n      0x00\n        /* \"#utility.yul\":8631:8634   */\n      dup3\n        /* \"#utility.yul\":8624:8628   */\n      0x1f\n        /* \"#utility.yul\":8616:8622   */\n      dup4\n        /* \"#utility.yul\":8612:8629   */\n      add\n        /* \"#utility.yul\":8608:8635   */\n      slt\n        /* \"#utility.yul\":8598:8720   */\n      tag_295\n      jumpi\n        /* \"#utility.yul\":8639:8718   */\n      tag_296\n      tag_145\n      jump\t// in\n    tag_296:\n        /* \"#utility.yul\":8598:8720   */\n    tag_295:\n        /* \"#utility.yul\":8756:8762   */\n      dup2\n        /* \"#utility.yul\":8743:8763   */\n      calldataload\n        /* \"#utility.yul\":8781:8860   */\n      tag_297\n        /* \"#utility.yul\":8856:8859   */\n      dup5\n        /* \"#utility.yul\":8848:8854   */\n      dup3\n        /* \"#utility.yul\":8841:8845   */\n      0x20\n        /* \"#utility.yul\":8833:8839   */\n      dup7\n        /* \"#utility.yul\":8829:8846   */\n      add\n        /* \"#utility.yul\":8781:8860   */\n      tag_149\n      jump\t// in\n    tag_297:\n        /* \"#utility.yul\":8772:8860   */\n      swap2\n      pop\n        /* \"#utility.yul\":8588:8866   */\n      pop\n        /* \"#utility.yul\":8526:8866   */\n      swap3\n      swap2\n      pop\n      pop\n      jump\t// out\n        /* \"#utility.yul\":8896:11170   */\n    tag_151:\n        /* \"#utility.yul\":8971:8976   */\n      0x00\n        /* \"#utility.yul\":9015:9021   */\n      0x0160\n        /* \"#utility.yul\":9003:9012   */\n      dup3\n        /* \"#utility.yul\":8998:9001   */\n      dup5\n        /* \"#utility.yul\":8994:9013   */\n      sub\n        /* \"#utility.yul\":8990:9022   */\n      slt\n        /* \"#utility.yul\":8987:9106   */\n      iszero\n      tag_299\n      jumpi\n        /* \"#utility.yul\":9025:9104   */\n      tag_300\n      tag_139\n      jump\t// in\n    tag_300:\n        /* \"#utility.yul\":8987:9106   */\n    tag_299:\n        /* \"#utility.yul\":9124:9147   */\n      tag_301\n        /* \"#utility.yul\":9140:9146   */\n      0x0160\n        /* \"#utility.yul\":9124:9147   */\n      tag_141\n      jump\t// in\n    tag_301:\n        /* \"#utility.yul\":9115:9147   */\n      swap1\n      pop\n        /* \"#utility.yul\":9215:9216   */\n      0x00\n        /* \"#utility.yul\":9255:9304   */\n      tag_302\n        /* \"#utility.yul\":9300:9303   */\n      dup5\n        /* \"#utility.yul\":9291:9297   */\n      dup3\n        /* \"#utility.yul\":9280:9289   */\n      dup6\n        /* \"#utility.yul\":9276:9298   */\n      add\n        /* \"#utility.yul\":9255:9304   */\n      tag_126\n      jump\t// in\n    tag_302:\n        /* \"#utility.yul\":9248:9252   */\n      0x00\n        /* \"#utility.yul\":9241:9246   */\n      dup4\n        /* \"#utility.yul\":9237:9253   */\n      add\n        /* \"#utility.yul\":9230:9305   */\n      mstore\n        /* \"#utility.yul\":9157:9316   */\n      pop\n        /* \"#utility.yul\":9387:9389   */\n      0x20\n        /* \"#utility.yul\":9428:9477   */\n      tag_303\n        /* \"#utility.yul\":9473:9476   */\n      dup5\n        /* \"#utility.yul\":9464:9470   */\n      dup3\n        /* \"#utility.yul\":9453:9462   */\n      dup6\n        /* \"#utility.yul\":9449:9471   */\n      add\n        /* \"#utility.yul\":9428:9477   */\n      tag_126\n      jump\t// in\n    tag_303:\n        /* \"#utility.yul\":9421:9425   */\n      0x20\n        /* \"#utility.yul\":9414:9419   */\n      dup4\n        /* \"#utility.yul\":9410:9426   */\n      add\n        /* \"#utility.yul\":9403:9478   */\n      mstore\n        /* \"#utility.yul\":9326:9489   */\n      pop\n        /* \"#utility.yul\":9549:9551   */\n      0x40\n        /* \"#utility.yul\":9590:9639   */\n      tag_304\n        /* \"#utility.yul\":9635:9638   */\n      dup5\n        /* \"#utility.yul\":9626:9632   */\n      dup3\n        /* \"#utility.yul\":9615:9624   */\n      dup6\n        /* \"#utility.yul\":9611:9633   */\n      add\n        /* \"#utility.yul\":9590:9639   */\n      tag_126\n      jump\t// in\n    tag_304:\n        /* \"#utility.yul\":9583:9587   */\n      0x40\n        /* \"#utility.yul\":9576:9581   */\n      dup4\n        /* \"#utility.yul\":9572:9588   */\n      add\n        /* \"#utility.yul\":9565:9640   */\n      mstore\n        /* \"#utility.yul\":9499:9651   */\n      pop\n        /* \"#utility.yul\":9712:9714   */\n      0x60\n        /* \"#utility.yul\":9753:9802   */\n      tag_305\n        /* \"#utility.yul\":9798:9801   */\n      dup5\n        /* \"#utility.yul\":9789:9795   */\n      dup3\n        /* \"#utility.yul\":9778:9787   */\n      dup6\n        /* \"#utility.yul\":9774:9796   */\n      add\n        /* \"#utility.yul\":9753:9802   */\n      tag_126\n      jump\t// in\n    tag_305:\n        /* \"#utility.yul\":9746:9750   */\n      0x60\n        /* \"#utility.yul\":9739:9744   */\n      dup4\n        /* \"#utility.yul\":9735:9751   */\n      add\n        /* \"#utility.yul\":9728:9803   */\n      mstore\n        /* \"#utility.yul\":9661:9814   */\n      pop\n        /* \"#utility.yul\":9875:9878   */\n      0x80\n        /* \"#utility.yul\":9917:9966   */\n      tag_306\n        /* \"#utility.yul\":9962:9965   */\n      dup5\n        /* \"#utility.yul\":9953:9959   */\n      dup3\n        /* \"#utility.yul\":9942:9951   */\n      dup6\n        /* \"#utility.yul\":9938:9960   */\n      add\n        /* \"#utility.yul\":9917:9966   */\n      tag_144\n      jump\t// in\n    tag_306:\n        /* \"#utility.yul\":9910:9914   */\n      0x80\n        /* \"#utility.yul\":9903:9908   */\n      dup4\n        /* \"#utility.yul\":9899:9915   */\n      add\n        /* \"#utility.yul\":9892:9967   */\n      mstore\n        /* \"#utility.yul\":9824:9978   */\n      pop\n        /* \"#utility.yul\":10039:10042   */\n      0xa0\n        /* \"#utility.yul\":10081:10130   */\n      tag_307\n        /* \"#utility.yul\":10126:10129   */\n      dup5\n        /* \"#utility.yul\":10117:10123   */\n      dup3\n        /* \"#utility.yul\":10106:10115   */\n      dup6\n        /* \"#utility.yul\":10102:10124   */\n      add\n        /* \"#utility.yul\":10081:10130   */\n      tag_144\n      jump\t// in\n    tag_307:\n        /* \"#utility.yul\":10074:10078   */\n      0xa0\n        /* \"#utility.yul\":10067:10072   */\n      dup4\n        /* \"#utility.yul\":10063:10079   */\n      add\n        /* \"#utility.yul\":10056:10131   */\n      mstore\n        /* \"#utility.yul\":9988:10142   */\n      pop\n        /* \"#utility.yul\":10206:10209   */\n      0xc0\n        /* \"#utility.yul\":10248:10297   */\n      tag_308\n        /* \"#utility.yul\":10293:10296   */\n      dup5\n        /* \"#utility.yul\":10284:10290   */\n      dup3\n        /* \"#utility.yul\":10273:10282   */\n      dup6\n        /* \"#utility.yul\":10269:10291   */\n      add\n        /* \"#utility.yul\":10248:10297   */\n      tag_126\n      jump\t// in\n    tag_308:\n        /* \"#utility.yul\":10241:10245   */\n      0xc0\n        /* \"#utility.yul\":10234:10239   */\n      dup4\n        /* \"#utility.yul\":10230:10246   */\n      add\n        /* \"#utility.yul\":10223:10298   */\n      mstore\n        /* \"#utility.yul\":10152:10309   */\n      pop\n        /* \"#utility.yul\":10373:10376   */\n      0xe0\n        /* \"#utility.yul\":10415:10464   */\n      tag_309\n        /* \"#utility.yul\":10460:10463   */\n      dup5\n        /* \"#utility.yul\":10451:10457   */\n      dup3\n        /* \"#utility.yul\":10440:10449   */\n      dup6\n        /* \"#utility.yul\":10436:10458   */\n      add\n        /* \"#utility.yul\":10415:10464   */\n      tag_126\n      jump\t// in\n    tag_309:\n        /* \"#utility.yul\":10408:10412   */\n      0xe0\n        /* \"#utility.yul\":10401:10406   */\n      dup4\n        /* \"#utility.yul\":10397:10413   */\n      add\n        /* \"#utility.yul\":10390:10465   */\n      mstore\n        /* \"#utility.yul\":10319:10476   */\n      pop\n        /* \"#utility.yul\":10546:10549   */\n      0x0100\n        /* \"#utility.yul\":10590:10639   */\n      tag_310\n        /* \"#utility.yul\":10635:10638   */\n      dup5\n        /* \"#utility.yul\":10626:10632   */\n      dup3\n        /* \"#utility.yul\":10615:10624   */\n      dup6\n        /* \"#utility.yul\":10611:10633   */\n      add\n        /* \"#utility.yul\":10590:10639   */\n      tag_126\n      jump\t// in\n    tag_310:\n        /* \"#utility.yul\":10581:10587   */\n      0x0100\n        /* \"#utility.yul\":10574:10579   */\n      dup4\n        /* \"#utility.yul\":10570:10588   */\n      add\n        /* \"#utility.yul\":10563:10640   */\n      mstore\n        /* \"#utility.yul\":10486:10651   */\n      pop\n        /* \"#utility.yul\":10721:10724   */\n      0x0120\n        /* \"#utility.yul\":10765:10814   */\n      tag_311\n        /* \"#utility.yul\":10810:10813   */\n      dup5\n        /* \"#utility.yul\":10801:10807   */\n      dup3\n        /* \"#utility.yul\":10790:10799   */\n      dup6\n        /* \"#utility.yul\":10786:10808   */\n      add\n        /* \"#utility.yul\":10765:10814   */\n      tag_126\n      jump\t// in\n    tag_311:\n        /* \"#utility.yul\":10756:10762   */\n      0x0120\n        /* \"#utility.yul\":10749:10754   */\n      dup4\n        /* \"#utility.yul\":10745:10763   */\n      add\n        /* \"#utility.yul\":10738:10815   */\n      mstore\n        /* \"#utility.yul\":10661:10826   */\n      pop\n        /* \"#utility.yul\":10916:10919   */\n      0x0140\n        /* \"#utility.yul\":10905:10914   */\n      dup3\n        /* \"#utility.yul\":10901:10920   */\n      add\n        /* \"#utility.yul\":10888:10921   */\n      calldataload\n        /* \"#utility.yul\":10948:10966   */\n      0xffffffffffffffff\n        /* \"#utility.yul\":10940:10946   */\n      dup2\n        /* \"#utility.yul\":10937:10967   */\n      gt\n        /* \"#utility.yul\":10934:11051   */\n      iszero\n      tag_312\n      jumpi\n        /* \"#utility.yul\":10970:11049   */\n      tag_313\n      tag_142\n      jump\t// in\n    tag_313:\n        /* \"#utility.yul\":10934:11051   */\n    tag_312:\n        /* \"#utility.yul\":11092:11151   */\n      tag_314\n        /* \"#utility.yul\":11147:11150   */\n      dup5\n        /* \"#utility.yul\":11138:11144   */\n      dup3\n        /* \"#utility.yul\":11127:11136   */\n      dup6\n        /* \"#utility.yul\":11123:11145   */\n      add\n        /* \"#utility.yul\":11092:11151   */\n      tag_150\n      jump\t// in\n    tag_314:\n        /* \"#utility.yul\":11083:11089   */\n      0x0140\n        /* \"#utility.yul\":11076:11081   */\n      dup4\n        /* \"#utility.yul\":11072:11090   */\n      add\n        /* \"#utility.yul\":11065:11152   */\n      mstore\n        /* \"#utility.yul\":10836:11163   */\n      pop\n        /* \"#utility.yul\":8896:11170   */\n      swap3\n      swap2\n      pop\n      pop\n      jump\t// out\n        /* \"#utility.yul\":11176:11717   */\n    tag_20:\n        /* \"#utility.yul\":11261:11267   */\n      0x00\n        /* \"#utility.yul\":11310:11312   */\n      0x20\n        /* \"#utility.yul\":11298:11307   */\n      dup3\n        /* \"#utility.yul\":11289:11296   */\n      dup5\n        /* \"#utility.yul\":11285:11308   */\n      sub\n        /* \"#utility.yul\":11281:11313   */\n      slt\n        /* \"#utility.yul\":11278:11397   */\n      iszero\n      tag_316\n      jumpi\n        /* \"#utility.yul\":11316:11395   */\n      tag_317\n      tag_122\n      jump\t// in\n    tag_317:\n        /* \"#utility.yul\":11278:11397   */\n    tag_316:\n        /* \"#utility.yul\":11464:11465   */\n      0x00\n        /* \"#utility.yul\":11453:11462   */\n      dup3\n        /* \"#utility.yul\":11449:11466   */\n      add\n        /* \"#utility.yul\":11436:11467   */\n      calldataload\n        /* \"#utility.yul\":11494:11512   */\n      0xffffffffffffffff\n        /* \"#utility.yul\":11486:11492   */\n      dup2\n        /* \"#utility.yul\":11483:11513   */\n      gt\n        /* \"#utility.yul\":11480:11597   */\n      iszero\n      tag_318\n      jumpi\n        /* \"#utility.yul\":11516:11595   */\n      tag_319\n      tag_123\n      jump\t// in\n    tag_319:\n        /* \"#utility.yul\":11480:11597   */\n    tag_318:\n        /* \"#utility.yul\":11621:11700   */\n      tag_320\n        /* \"#utility.yul\":11692:11699   */\n      dup5\n        /* \"#utility.yul\":11683:11689   */\n      dup3\n        /* \"#utility.yul\":11672:11681   */\n      dup6\n        /* \"#utility.yul\":11668:11690   */\n      add\n        /* \"#utility.yul\":11621:11700   */\n      tag_151\n      jump\t// in\n    tag_320:\n        /* \"#utility.yul\":11611:11700   */\n      swap2\n      pop\n        /* \"#utility.yul\":11407:11710   */\n      pop\n        /* \"#utility.yul\":11176:11717   */\n      swap3\n      swap2\n      pop\n      pop\n      jump\t// out\n        /* \"#utility.yul\":11723:11821   */\n    tag_152:\n        /* \"#utility.yul\":11774:11780   */\n      0x00\n        /* \"#utility.yul\":11808:11813   */\n      dup2\n        /* \"#utility.yul\":11802:11814   */\n      mload\n        /* \"#utility.yul\":11792:11814   */\n      swap1\n      pop\n        /* \"#utility.yul\":11723:11821   */\n      swap2\n      swap1\n      pop\n      jump\t// out\n        /* \"#utility.yul\":11827:11995   */\n    tag_153:\n        /* \"#utility.yul\":11910:11921   */\n      0x00\n        /* \"#utility.yul\":11944:11950   */\n      dup3\n        /* \"#utility.yul\":11939:11942   */\n      dup3\n        /* \"#utility.yul\":11932:11951   */\n      mstore\n        /* \"#utility.yul\":11984:11988   */\n      0x20\n        /* \"#utility.yul\":11979:11982   */\n      dup3\n        /* \"#utility.yul\":11975:11989   */\n      add\n        /* \"#utility.yul\":11960:11989   */\n      swap1\n      pop\n        /* \"#utility.yul\":11827:11995   */\n      swap3\n      swap2\n      pop\n      pop\n      jump\t// out\n        /* \"#utility.yul\":12001:12374   */\n    tag_154:\n        /* \"#utility.yul\":12087:12090   */\n      0x00\n        /* \"#utility.yul\":12115:12153   */\n      tag_324\n        /* \"#utility.yul\":12147:12152   */\n      dup3\n        /* \"#utility.yul\":12115:12153   */\n      tag_152\n      jump\t// in\n    tag_324:\n        /* \"#utility.yul\":12169:12239   */\n      tag_325\n        /* \"#utility.yul\":12232:12238   */\n      dup2\n        /* \"#utility.yul\":12227:12230   */\n      dup6\n        /* \"#utility.yul\":12169:12239   */\n      tag_153\n      jump\t// in\n    tag_325:\n        /* \"#utility.yul\":12162:12239   */\n      swap4\n      pop\n        /* \"#utility.yul\":12248:12313   */\n      tag_326\n        /* \"#utility.yul\":12306:12312   */\n      dup2\n        /* \"#utility.yul\":12301:12304   */\n      dup6\n        /* \"#utility.yul\":12294:12298   */\n      0x20\n        /* \"#utility.yul\":12287:12292   */\n      dup7\n        /* \"#utility.yul\":12283:12299   */\n      add\n        /* \"#utility.yul\":12248:12313   */\n      tag_129\n      jump\t// in\n    tag_326:\n        /* \"#utility.yul\":12338:12367   */\n      tag_327\n        /* \"#utility.yul\":12360:12366   */\n      dup2\n        /* \"#utility.yul\":12338:12367   */\n      tag_130\n      jump\t// in\n    tag_327:\n        /* \"#utility.yul\":12333:12336   */\n      dup5\n        /* \"#utility.yul\":12329:12368   */\n      add\n        /* \"#utility.yul\":12322:12368   */\n      swap2\n      pop\n        /* \"#utility.yul\":12091:12374   */\n      pop\n        /* \"#utility.yul\":12001:12374   */\n      swap3\n      swap2\n      pop\n      pop\n      jump\t// out\n        /* \"#utility.yul\":12380:12689   */\n    tag_23:\n        /* \"#utility.yul\":12491:12495   */\n      0x00\n        /* \"#utility.yul\":12529:12531   */\n      0x20\n        /* \"#utility.yul\":12518:12527   */\n      dup3\n        /* \"#utility.yul\":12514:12532   */\n      add\n        /* \"#utility.yul\":12506:12532   */\n      swap1\n      pop\n        /* \"#utility.yul\":12578:12587   */\n      dup2\n        /* \"#utility.yul\":12572:12576   */\n      dup2\n        /* \"#utility.yul\":12568:12588   */\n      sub\n        /* \"#utility.yul\":12564:12565   */\n      0x00\n        /* \"#utility.yul\":12553:12562   */\n      dup4\n        /* \"#utility.yul\":12549:12566   */\n      add\n        /* \"#utility.yul\":12542:12589   */\n      mstore\n        /* \"#utility.yul\":12606:12682   */\n      tag_329\n        /* \"#utility.yul\":12677:12681   */\n      dup2\n        /* \"#utility.yul\":12668:12674   */\n      dup5\n        /* \"#utility.yul\":12606:12682   */\n      tag_154\n      jump\t// in\n    tag_329:\n        /* \"#utility.yul\":12598:12682   */\n      swap1\n      pop\n        /* \"#utility.yul\":12380:12689   */\n      swap3\n      swap2\n      pop\n      pop\n      jump\t// out\n        /* \"#utility.yul\":12695:12755   */\n    tag_155:\n        /* \"#utility.yul\":12723:12726   */\n      0x00\n        /* \"#utility.yul\":12744:12749   */\n      dup2\n        /* \"#utility.yul\":12737:12749   */\n      swap1\n      pop\n        /* \"#utility.yul\":12695:12755   */\n      swap2\n      swap1\n      pop\n      jump\t// out\n        /* \"#utility.yul\":12761:12903   */\n    tag_156:\n        /* \"#utility.yul\":12811:12820   */\n      0x00\n        /* \"#utility.yul\":12844:12897   */\n      tag_332\n        /* \"#utility.yul\":12862:12896   */\n      tag_333\n        /* \"#utility.yul\":12871:12895   */\n      tag_334\n        /* \"#utility.yul\":12889:12894   */\n      dup5\n        /* \"#utility.yul\":12871:12895   */\n      tag_133\n      jump\t// in\n    tag_334:\n        /* \"#utility.yul\":12862:12896   */\n      tag_155\n      jump\t// in\n    tag_333:\n        /* \"#utility.yul\":12844:12897   */\n      tag_133\n      jump\t// in\n    tag_332:\n        /* \"#utility.yul\":12831:12897   */\n      swap1\n      pop\n        /* \"#utility.yul\":12761:12903   */\n      swap2\n      swap1\n      pop\n      jump\t// out\n        /* \"#utility.yul\":12909:13035   */\n    tag_157:\n        /* \"#utility.yul\":12959:12968   */\n      0x00\n        /* \"#utility.yul\":12992:13029   */\n      tag_336\n        /* \"#utility.yul\":13023:13028   */\n      dup3\n        /* \"#utility.yul\":12992:13029   */\n      tag_156\n      jump\t// in\n    tag_336:\n        /* \"#utility.yul\":12979:13029   */\n      swap1\n      pop\n        /* \"#utility.yul\":12909:13035   */\n      swap2\n      swap1\n      pop\n      jump\t// out\n        /* \"#utility.yul\":13041:13180   */\n    tag_158:\n        /* \"#utility.yul\":13104:13113   */\n      0x00\n        /* \"#utility.yul\":13137:13174   */\n      tag_338\n        /* \"#utility.yul\":13168:13173   */\n      dup3\n        /* \"#utility.yul\":13137:13174   */\n      tag_157\n      jump\t// in\n    tag_338:\n        /* \"#utility.yul\":13124:13174   */\n      swap1\n      pop\n        /* \"#utility.yul\":13041:13180   */\n      swap2\n      swap1\n      pop\n      jump\t// out\n        /* \"#utility.yul\":13186:13343   */\n    tag_159:\n        /* \"#utility.yul\":13286:13336   */\n      tag_340\n        /* \"#utility.yul\":13330:13335   */\n      dup2\n        /* \"#utility.yul\":13286:13336   */\n      tag_158\n      jump\t// in\n    tag_340:\n        /* \"#utility.yul\":13281:13284   */\n      dup3\n        /* \"#utility.yul\":13274:13337   */\n      mstore\n        /* \"#utility.yul\":13186:13343   */\n      pop\n      pop\n      jump\t// out\n        /* \"#utility.yul\":13349:13597   */\n    tag_27:\n        /* \"#utility.yul\":13455:13459   */\n      0x00\n        /* \"#utility.yul\":13493:13495   */\n      0x20\n        /* \"#utility.yul\":13482:13491   */\n      dup3\n        /* \"#utility.yul\":13478:13496   */\n      add\n        /* \"#utility.yul\":13470:13496   */\n      swap1\n      pop\n        /* \"#utility.yul\":13506:13590   */\n      tag_342\n        /* \"#utility.yul\":13587:13588   */\n      0x00\n        /* \"#utility.yul\":13576:13585   */\n      dup4\n        /* \"#utility.yul\":13572:13589   */\n      add\n        /* \"#utility.yul\":13563:13569   */\n      dup5\n        /* \"#utility.yul\":13506:13590   */\n      tag_159\n      jump\t// in\n    tag_342:\n        /* \"#utility.yul\":13349:13597   */\n      swap3\n      swap2\n      pop\n      pop\n      jump\t// out\n        /* \"#utility.yul\":13603:13746   */\n    tag_160:\n        /* \"#utility.yul\":13660:13665   */\n      0x00\n        /* \"#utility.yul\":13691:13697   */\n      dup2\n        /* \"#utility.yul\":13685:13698   */\n      mload\n        /* \"#utility.yul\":13676:13698   */\n      swap1\n      pop\n        /* \"#utility.yul\":13707:13740   */\n      tag_344\n        /* \"#utility.yul\":13734:13739   */\n      dup2\n        /* \"#utility.yul\":13707:13740   */\n      tag_143\n      jump\t// in\n    tag_344:\n        /* \"#utility.yul\":13603:13746   */\n      swap3\n      swap2\n      pop\n      pop\n      jump\t// out\n        /* \"#utility.yul\":13752:14103   */\n    tag_34:\n        /* \"#utility.yul\":13822:13828   */\n      0x00\n        /* \"#utility.yul\":13871:13873   */\n      0x20\n        /* \"#utility.yul\":13859:13868   */\n      dup3\n        /* \"#utility.yul\":13850:13857   */\n      dup5\n        /* \"#utility.yul\":13846:13869   */\n      sub\n        /* \"#utility.yul\":13842:13874   */\n      slt\n        /* \"#utility.yul\":13839:13958   */\n      iszero\n      tag_346\n      jumpi\n        /* \"#utility.yul\":13877:13956   */\n      tag_347\n      tag_122\n      jump\t// in\n    tag_347:\n        /* \"#utility.yul\":13839:13958   */\n    tag_346:\n        /* \"#utility.yul\":13997:13998   */\n      0x00\n        /* \"#utility.yul\":14022:14086   */\n      tag_348\n        /* \"#utility.yul\":14078:14085   */\n      dup5\n        /* \"#utility.yul\":14069:14075   */\n      dup3\n        /* \"#utility.yul\":14058:14067   */\n      dup6\n        /* \"#utility.yul\":14054:14076   */\n      add\n        /* \"#utility.yul\":14022:14086   */\n      tag_160\n      jump\t// in\n    tag_348:\n        /* \"#utility.yul\":14012:14086   */\n      swap2\n      pop\n        /* \"#utility.yul\":13968:14096   */\n      pop\n        /* \"#utility.yul\":13752:14103   */\n      swap3\n      swap2\n      pop\n      pop\n      jump\t// out\n        /* \"#utility.yul\":14109:14252   */\n    tag_161:\n        /* \"#utility.yul\":14166:14171   */\n      0x00\n        /* \"#utility.yul\":14197:14203   */\n      dup2\n        /* \"#utility.yul\":14191:14204   */\n      mload\n        /* \"#utility.yul\":14182:14204   */\n      swap1\n      pop\n        /* \"#utility.yul\":14213:14246   */\n      tag_350\n        /* \"#utility.yul\":14240:14245   */\n      dup2\n        /* \"#utility.yul\":14213:14246   */\n      tag_125\n      jump\t// in\n    tag_350:\n        /* \"#utility.yul\":14109:14252   */\n      swap3\n      swap2\n      pop\n      pop\n      jump\t// out\n        /* \"#utility.yul\":14258:14609   */\n    tag_38:\n        /* \"#utility.yul\":14328:14334   */\n      0x00\n        /* \"#utility.yul\":14377:14379   */\n      0x20\n        /* \"#utility.yul\":14365:14374   */\n      dup3\n        /* \"#utility.yul\":14356:14363   */\n      dup5\n        /* \"#utility.yul\":14352:14375   */\n      sub\n        /* \"#utility.yul\":14348:14380   */\n      slt\n        /* \"#utility.yul\":14345:14464   */\n      iszero\n      tag_352\n      jumpi\n        /* \"#utility.yul\":14383:14462   */\n      tag_353\n      tag_122\n      jump\t// in\n    tag_353:\n        /* \"#utility.yul\":14345:14464   */\n    tag_352:\n        /* \"#utility.yul\":14503:14504   */\n      0x00\n        /* \"#utility.yul\":14528:14592   */\n      tag_354\n        /* \"#utility.yul\":14584:14591   */\n      dup5\n        /* \"#utility.yul\":14575:14581   */\n      dup3\n        /* \"#utility.yul\":14564:14573   */\n      dup6\n        /* \"#utility.yul\":14560:14582   */\n      add\n        /* \"#utility.yul\":14528:14592   */\n      tag_161\n      jump\t// in\n    tag_354:\n        /* \"#utility.yul\":14518:14592   */\n      swap2\n      pop\n        /* \"#utility.yul\":14474:14602   */\n      pop\n        /* \"#utility.yul\":14258:14609   */\n      swap3\n      swap2\n      pop\n      pop\n      jump\t// out\n        /* \"#utility.yul\":14615:14790   */\n    tag_162:\n        /* \"#utility.yul\":14755:14782   */\n      0x7468697320746f6b656e20646f6573206e6f7420657869737400000000000000\n        /* \"#utility.yul\":14751:14752   */\n      0x00\n        /* \"#utility.yul\":14743:14749   */\n      dup3\n        /* \"#utility.yul\":14739:14753   */\n      add\n        /* \"#utility.yul\":14732:14783   */\n      mstore\n        /* \"#utility.yul\":14615:14790   */\n      pop\n      jump\t// out\n        /* \"#utility.yul\":14796:15162   */\n    tag_163:\n        /* \"#utility.yul\":14938:14941   */\n      0x00\n        /* \"#utility.yul\":14959:15026   */\n      tag_357\n        /* \"#utility.yul\":15023:15025   */\n      0x19\n        /* \"#utility.yul\":15018:15021   */\n      dup4\n        /* \"#utility.yul\":14959:15026   */\n      tag_128\n      jump\t// in\n    tag_357:\n        /* \"#utility.yul\":14952:15026   */\n      swap2\n      pop\n        /* \"#utility.yul\":15035:15128   */\n      tag_358\n        /* \"#utility.yul\":15124:15127   */\n      dup3\n        /* \"#utility.yul\":15035:15128   */\n      tag_162\n      jump\t// in\n    tag_358:\n        /* \"#utility.yul\":15153:15155   */\n      0x20\n        /* \"#utility.yul\":15148:15151   */\n      dup3\n        /* \"#utility.yul\":15144:15156   */\n      add\n        /* \"#utility.yul\":15137:15156   */\n      swap1\n      pop\n        /* \"#utility.yul\":14796:15162   */\n      swap2\n      swap1\n      pop\n      jump\t// out\n        /* \"#utility.yul\":15168:15587   */\n    tag_41:\n        /* \"#utility.yul\":15334:15338   */\n      0x00\n        /* \"#utility.yul\":15372:15374   */\n      0x20\n        /* \"#utility.yul\":15361:15370   */\n      dup3\n        /* \"#utility.yul\":15357:15375   */\n      add\n        /* \"#utility.yul\":15349:15375   */\n      swap1\n      pop\n        /* \"#utility.yul\":15421:15430   */\n      dup2\n        /* \"#utility.yul\":15415:15419   */\n      dup2\n        /* \"#utility.yul\":15411:15431   */\n      sub\n        /* \"#utility.yul\":15407:15408   */\n      0x00\n        /* \"#utility.yul\":15396:15405   */\n      dup4\n        /* \"#utility.yul\":15392:15409   */\n      add\n        /* \"#utility.yul\":15385:15432   */\n      mstore\n        /* \"#utility.yul\":15449:15580   */\n      tag_360\n        /* \"#utility.yul\":15575:15579   */\n      dup2\n        /* \"#utility.yul\":15449:15580   */\n      tag_163\n      jump\t// in\n    tag_360:\n        /* \"#utility.yul\":15441:15580   */\n      swap1\n      pop\n        /* \"#utility.yul\":15168:15587   */\n      swap2\n      swap1\n      pop\n      jump\t// out\n        /* \"#utility.yul\":15593:15711   */\n    tag_164:\n        /* \"#utility.yul\":15680:15704   */\n      tag_362\n        /* \"#utility.yul\":15698:15703   */\n      dup2\n        /* \"#utility.yul\":15680:15704   */\n      tag_124\n      jump\t// in\n    tag_362:\n        /* \"#utility.yul\":15675:15678   */\n      dup3\n        /* \"#utility.yul\":15668:15705   */\n      mstore\n        /* \"#utility.yul\":15593:15711   */\n      pop\n      pop\n      jump\t// out\n        /* \"#utility.yul\":15717:15939   */\n    tag_43:\n        /* \"#utility.yul\":15810:15814   */\n      0x00\n        /* \"#utility.yul\":15848:15850   */\n      0x20\n        /* \"#utility.yul\":15837:15846   */\n      dup3\n        /* \"#utility.yul\":15833:15851   */\n      add\n        /* \"#utility.yul\":15825:15851   */\n      swap1\n      pop\n        /* \"#utility.yul\":15861:15932   */\n      tag_364\n        /* \"#utility.yul\":15929:15930   */\n      0x00\n        /* \"#utility.yul\":15918:15927   */\n      dup4\n        /* \"#utility.yul\":15914:15931   */\n      add\n        /* \"#utility.yul\":15905:15911   */\n      dup5\n        /* \"#utility.yul\":15861:15932   */\n      tag_164\n      jump\t// in\n    tag_364:\n        /* \"#utility.yul\":15717:15939   */\n      swap3\n      swap2\n      pop\n      pop\n      jump\t// out\n        /* \"#utility.yul\":15945:16379   */\n    tag_165:\n        /* \"#utility.yul\":16034:16039   */\n      0x00\n        /* \"#utility.yul\":16059:16125   */\n      tag_366\n        /* \"#utility.yul\":16075:16124   */\n      tag_367\n        /* \"#utility.yul\":16117:16123   */\n      dup5\n        /* \"#utility.yul\":16075:16124   */\n      tag_147\n      jump\t// in\n    tag_367:\n        /* \"#utility.yul\":16059:16125   */\n      tag_141\n      jump\t// in\n    tag_366:\n        /* \"#utility.yul\":16050:16125   */\n      swap1\n      pop\n        /* \"#utility.yul\":16148:16154   */\n      dup3\n        /* \"#utility.yul\":16141:16146   */\n      dup2\n        /* \"#utility.yul\":16134:16155   */\n      mstore\n        /* \"#utility.yul\":16186:16190   */\n      0x20\n        /* \"#utility.yul\":16179:16184   */\n      dup2\n        /* \"#utility.yul\":16175:16191   */\n      add\n        /* \"#utility.yul\":16224:16227   */\n      dup5\n        /* \"#utility.yul\":16215:16221   */\n      dup5\n        /* \"#utility.yul\":16210:16213   */\n      dup5\n        /* \"#utility.yul\":16206:16222   */\n      add\n        /* \"#utility.yul\":16203:16228   */\n      gt\n        /* \"#utility.yul\":16200:16312   */\n      iszero\n      tag_368\n      jumpi\n        /* \"#utility.yul\":16231:16310   */\n      tag_369\n      tag_146\n      jump\t// in\n    tag_369:\n        /* \"#utility.yul\":16200:16312   */\n    tag_368:\n        /* \"#utility.yul\":16321:16373   */\n      tag_370\n        /* \"#utility.yul\":16366:16372   */\n      dup5\n        /* \"#utility.yul\":16361:16364   */\n      dup3\n        /* \"#utility.yul\":16356:16359   */\n      dup6\n        /* \"#utility.yul\":16321:16373   */\n      tag_129\n      jump\t// in\n    tag_370:\n        /* \"#utility.yul\":16040:16379   */\n      pop\n        /* \"#utility.yul\":15945:16379   */\n      swap4\n      swap3\n      pop\n      pop\n      pop\n      jump\t// out\n        /* \"#utility.yul\":16399:16754   */\n    tag_166:\n        /* \"#utility.yul\":16466:16471   */\n      0x00\n        /* \"#utility.yul\":16515:16518   */\n      dup3\n        /* \"#utility.yul\":16508:16512   */\n      0x1f\n        /* \"#utility.yul\":16500:16506   */\n      dup4\n        /* \"#utility.yul\":16496:16513   */\n      add\n        /* \"#utility.yul\":16492:16519   */\n      slt\n        /* \"#utility.yul\":16482:16604   */\n      tag_372\n      jumpi\n        /* \"#utility.yul\":16523:16602   */\n      tag_373\n      tag_145\n      jump\t// in\n    tag_373:\n        /* \"#utility.yul\":16482:16604   */\n    tag_372:\n        /* \"#utility.yul\":16633:16639   */\n      dup2\n        /* \"#utility.yul\":16627:16640   */\n      mload\n        /* \"#utility.yul\":16658:16748   */\n      tag_374\n        /* \"#utility.yul\":16744:16747   */\n      dup5\n        /* \"#utility.yul\":16736:16742   */\n      dup3\n        /* \"#utility.yul\":16729:16733   */\n      0x20\n        /* \"#utility.yul\":16721:16727   */\n      dup7\n        /* \"#utility.yul\":16717:16734   */\n      add\n        /* \"#utility.yul\":16658:16748   */\n      tag_165\n      jump\t// in\n    tag_374:\n        /* \"#utility.yul\":16649:16748   */\n      swap2\n      pop\n        /* \"#utility.yul\":16472:16754   */\n      pop\n        /* \"#utility.yul\":16399:16754   */\n      swap3\n      swap2\n      pop\n      pop\n      jump\t// out\n        /* \"#utility.yul\":16784:19183   */\n    tag_167:\n        /* \"#utility.yul\":16870:16875   */\n      0x00\n        /* \"#utility.yul\":16914:16920   */\n      0x0160\n        /* \"#utility.yul\":16902:16911   */\n      dup3\n        /* \"#utility.yul\":16897:16900   */\n      dup5\n        /* \"#utility.yul\":16893:16912   */\n      sub\n        /* \"#utility.yul\":16889:16921   */\n      slt\n        /* \"#utility.yul\":16886:17005   */\n      iszero\n      tag_376\n      jumpi\n        /* \"#utility.yul\":16924:17003   */\n      tag_377\n      tag_139\n      jump\t// in\n    tag_377:\n        /* \"#utility.yul\":16886:17005   */\n    tag_376:\n        /* \"#utility.yul\":17023:17046   */\n      tag_378\n        /* \"#utility.yul\":17039:17045   */\n      0x0160\n        /* \"#utility.yul\":17023:17046   */\n      tag_141\n      jump\t// in\n    tag_378:\n        /* \"#utility.yul\":17014:17046   */\n      swap1\n      pop\n        /* \"#utility.yul\":17114:17115   */\n      0x00\n        /* \"#utility.yul\":17154:17214   */\n      tag_379\n        /* \"#utility.yul\":17210:17213   */\n      dup5\n        /* \"#utility.yul\":17201:17207   */\n      dup3\n        /* \"#utility.yul\":17190:17199   */\n      dup6\n        /* \"#utility.yul\":17186:17208   */\n      add\n        /* \"#utility.yul\":17154:17214   */\n      tag_161\n      jump\t// in\n    tag_379:\n        /* \"#utility.yul\":17147:17151   */\n      0x00\n        /* \"#utility.yul\":17140:17145   */\n      dup4\n        /* \"#utility.yul\":17136:17152   */\n      add\n        /* \"#utility.yul\":17129:17215   */\n      mstore\n        /* \"#utility.yul\":17056:17226   */\n      pop\n        /* \"#utility.yul\":17297:17299   */\n      0x20\n        /* \"#utility.yul\":17338:17398   */\n      tag_380\n        /* \"#utility.yul\":17394:17397   */\n      dup5\n        /* \"#utility.yul\":17385:17391   */\n      dup3\n        /* \"#utility.yul\":17374:17383   */\n      dup6\n        /* \"#utility.yul\":17370:17392   */\n      add\n        /* \"#utility.yul\":17338:17398   */\n      tag_161\n      jump\t// in\n    tag_380:\n        /* \"#utility.yul\":17331:17335   */\n      0x20\n        /* \"#utility.yul\":17324:17329   */\n      dup4\n        /* \"#utility.yul\":17320:17336   */\n      add\n        /* \"#utility.yul\":17313:17399   */\n      mstore\n        /* \"#utility.yul\":17236:17410   */\n      pop\n        /* \"#utility.yul\":17470:17472   */\n      0x40\n        /* \"#utility.yul\":17511:17571   */\n      tag_381\n        /* \"#utility.yul\":17567:17570   */\n      dup5\n        /* \"#utility.yul\":17558:17564   */\n      dup3\n        /* \"#utility.yul\":17547:17556   */\n      dup6\n        /* \"#utility.yul\":17543:17565   */\n      add\n        /* \"#utility.yul\":17511:17571   */\n      tag_161\n      jump\t// in\n    tag_381:\n        /* \"#utility.yul\":17504:17508   */\n      0x40\n        /* \"#utility.yul\":17497:17502   */\n      dup4\n        /* \"#utility.yul\":17493:17509   */\n      add\n        /* \"#utility.yul\":17486:17572   */\n      mstore\n        /* \"#utility.yul\":17420:17583   */\n      pop\n        /* \"#utility.yul\":17644:17646   */\n      0x60\n        /* \"#utility.yul\":17685:17745   */\n      tag_382\n        /* \"#utility.yul\":17741:17744   */\n      dup5\n        /* \"#utility.yul\":17732:17738   */\n      dup3\n        /* \"#utility.yul\":17721:17730   */\n      dup6\n        /* \"#utility.yul\":17717:17739   */\n      add\n        /* \"#utility.yul\":17685:17745   */\n      tag_161\n      jump\t// in\n    tag_382:\n        /* \"#utility.yul\":17678:17682   */\n      0x60\n        /* \"#utility.yul\":17671:17676   */\n      dup4\n        /* \"#utility.yul\":17667:17683   */\n      add\n        /* \"#utility.yul\":17660:17746   */\n      mstore\n        /* \"#utility.yul\":17593:17757   */\n      pop\n        /* \"#utility.yul\":17818:17821   */\n      0x80\n        /* \"#utility.yul\":17860:17920   */\n      tag_383\n        /* \"#utility.yul\":17916:17919   */\n      dup5\n        /* \"#utility.yul\":17907:17913   */\n      dup3\n        /* \"#utility.yul\":17896:17905   */\n      dup6\n        /* \"#utility.yul\":17892:17914   */\n      add\n        /* \"#utility.yul\":17860:17920   */\n      tag_160\n      jump\t// in\n    tag_383:\n        /* \"#utility.yul\":17853:17857   */\n      0x80\n        /* \"#utility.yul\":17846:17851   */\n      dup4\n        /* \"#utility.yul\":17842:17858   */\n      add\n        /* \"#utility.yul\":17835:17921   */\n      mstore\n        /* \"#utility.yul\":17767:17932   */\n      pop\n        /* \"#utility.yul\":17993:17996   */\n      0xa0\n        /* \"#utility.yul\":18035:18095   */\n      tag_384\n        /* \"#utility.yul\":18091:18094   */\n      dup5\n        /* \"#utility.yul\":18082:18088   */\n      dup3\n        /* \"#utility.yul\":18071:18080   */\n      dup6\n        /* \"#utility.yul\":18067:18089   */\n      add\n        /* \"#utility.yul\":18035:18095   */\n      tag_160\n      jump\t// in\n    tag_384:\n        /* \"#utility.yul\":18028:18032   */\n      0xa0\n        /* \"#utility.yul\":18021:18026   */\n      dup4\n        /* \"#utility.yul\":18017:18033   */\n      add\n        /* \"#utility.yul\":18010:18096   */\n      mstore\n        /* \"#utility.yul\":17942:18107   */\n      pop\n        /* \"#utility.yul\":18171:18174   */\n      0xc0\n        /* \"#utility.yul\":18213:18273   */\n      tag_385\n        /* \"#utility.yul\":18269:18272   */\n      dup5\n        /* \"#utility.yul\":18260:18266   */\n      dup3\n        /* \"#utility.yul\":18249:18258   */\n      dup6\n        /* \"#utility.yul\":18245:18267   */\n      add\n        /* \"#utility.yul\":18213:18273   */\n      tag_161\n      jump\t// in\n    tag_385:\n        /* \"#utility.yul\":18206:18210   */\n      0xc0\n        /* \"#utility.yul\":18199:18204   */\n      dup4\n        /* \"#utility.yul\":18195:18211   */\n      add\n        /* \"#utility.yul\":18188:18274   */\n      mstore\n        /* \"#utility.yul\":18117:18285   */\n      pop\n        /* \"#utility.yul\":18349:18352   */\n      0xe0\n        /* \"#utility.yul\":18391:18451   */\n      tag_386\n        /* \"#utility.yul\":18447:18450   */\n      dup5\n        /* \"#utility.yul\":18438:18444   */\n      dup3\n        /* \"#utility.yul\":18427:18436   */\n      dup6\n        /* \"#utility.yul\":18423:18445   */\n      add\n        /* \"#utility.yul\":18391:18451   */\n      tag_161\n      jump\t// in\n    tag_386:\n        /* \"#utility.yul\":18384:18388   */\n      0xe0\n        /* \"#utility.yul\":18377:18382   */\n      dup4\n        /* \"#utility.yul\":18373:18389   */\n      add\n        /* \"#utility.yul\":18366:18452   */\n      mstore\n        /* \"#utility.yul\":18295:18463   */\n      pop\n        /* \"#utility.yul\":18533:18536   */\n      0x0100\n        /* \"#utility.yul\":18577:18637   */\n      tag_387\n        /* \"#utility.yul\":18633:18636   */\n      dup5\n        /* \"#utility.yul\":18624:18630   */\n      dup3\n        /* \"#utility.yul\":18613:18622   */\n      dup6\n        /* \"#utility.yul\":18609:18631   */\n      add\n        /* \"#utility.yul\":18577:18637   */\n      tag_161\n      jump\t// in\n    tag_387:\n        /* \"#utility.yul\":18568:18574   */\n      0x0100\n        /* \"#utility.yul\":18561:18566   */\n      dup4\n        /* \"#utility.yul\":18557:18575   */\n      add\n        /* \"#utility.yul\":18550:18638   */\n      mstore\n        /* \"#utility.yul\":18473:18649   */\n      pop\n        /* \"#utility.yul\":18719:18722   */\n      0x0120\n        /* \"#utility.yul\":18763:18823   */\n      tag_388\n        /* \"#utility.yul\":18819:18822   */\n      dup5\n        /* \"#utility.yul\":18810:18816   */\n      dup3\n        /* \"#utility.yul\":18799:18808   */\n      dup6\n        /* \"#utility.yul\":18795:18817   */\n      add\n        /* \"#utility.yul\":18763:18823   */\n      tag_161\n      jump\t// in\n    tag_388:\n        /* \"#utility.yul\":18754:18760   */\n      0x0120\n        /* \"#utility.yul\":18747:18752   */\n      dup4\n        /* \"#utility.yul\":18743:18761   */\n      add\n        /* \"#utility.yul\":18736:18824   */\n      mstore\n        /* \"#utility.yul\":18659:18835   */\n      pop\n        /* \"#utility.yul\":18918:18921   */\n      0x0140\n        /* \"#utility.yul\":18907:18916   */\n      dup3\n        /* \"#utility.yul\":18903:18922   */\n      add\n        /* \"#utility.yul\":18897:18923   */\n      mload\n        /* \"#utility.yul\":18950:18968   */\n      0xffffffffffffffff\n        /* \"#utility.yul\":18942:18948   */\n      dup2\n        /* \"#utility.yul\":18939:18969   */\n      gt\n        /* \"#utility.yul\":18936:19053   */\n      iszero\n      tag_389\n      jumpi\n        /* \"#utility.yul\":18972:19051   */\n      tag_390\n      tag_142\n      jump\t// in\n    tag_390:\n        /* \"#utility.yul\":18936:19053   */\n    tag_389:\n        /* \"#utility.yul\":19094:19164   */\n      tag_391\n        /* \"#utility.yul\":19160:19163   */\n      dup5\n        /* \"#utility.yul\":19151:19157   */\n      dup3\n        /* \"#utility.yul\":19140:19149   */\n      dup6\n        /* \"#utility.yul\":19136:19158   */\n      add\n        /* \"#utility.yul\":19094:19164   */\n      tag_166\n      jump\t// in\n    tag_391:\n        /* \"#utility.yul\":19085:19091   */\n      0x0140\n        /* \"#utility.yul\":19078:19083   */\n      dup4\n        /* \"#utility.yul\":19074:19092   */\n      add\n        /* \"#utility.yul\":19067:19165   */\n      mstore\n        /* \"#utility.yul\":18845:19176   */\n      pop\n        /* \"#utility.yul\":16784:19183   */\n      swap3\n      swap2\n      pop\n      pop\n      jump\t// out\n        /* \"#utility.yul\":19189:19745   */\n    tag_47:\n        /* \"#utility.yul\":19285:19291   */\n      0x00\n        /* \"#utility.yul\":19334:19336   */\n      0x20\n        /* \"#utility.yul\":19322:19331   */\n      dup3\n        /* \"#utility.yul\":19313:19320   */\n      dup5\n        /* \"#utility.yul\":19309:19332   */\n      sub\n        /* \"#utility.yul\":19305:19337   */\n      slt\n        /* \"#utility.yul\":19302:19421   */\n      iszero\n      tag_393\n      jumpi\n        /* \"#utility.yul\":19340:19419   */\n      tag_394\n      tag_122\n      jump\t// in\n    tag_394:\n        /* \"#utility.yul\":19302:19421   */\n    tag_393:\n        /* \"#utility.yul\":19481:19482   */\n      0x00\n        /* \"#utility.yul\":19470:19479   */\n      dup3\n        /* \"#utility.yul\":19466:19483   */\n      add\n        /* \"#utility.yul\":19460:19484   */\n      mload\n        /* \"#utility.yul\":19511:19529   */\n      0xffffffffffffffff\n        /* \"#utility.yul\":19503:19509   */\n      dup2\n        /* \"#utility.yul\":19500:19530   */\n      gt\n        /* \"#utility.yul\":19497:19614   */\n      iszero\n      tag_395\n      jumpi\n        /* \"#utility.yul\":19533:19612   */\n      tag_396\n      tag_123\n      jump\t// in\n    tag_396:\n        /* \"#utility.yul\":19497:19614   */\n    tag_395:\n        /* \"#utility.yul\":19638:19728   */\n      tag_397\n        /* \"#utility.yul\":19720:19727   */\n      dup5\n        /* \"#utility.yul\":19711:19717   */\n      dup3\n        /* \"#utility.yul\":19700:19709   */\n      dup6\n        /* \"#utility.yul\":19696:19718   */\n      add\n        /* \"#utility.yul\":19638:19728   */\n      tag_167\n      jump\t// in\n    tag_397:\n        /* \"#utility.yul\":19628:19728   */\n      swap2\n      pop\n        /* \"#utility.yul\":19431:19738   */\n      pop\n        /* \"#utility.yul\":19189:19745   */\n      swap3\n      swap2\n      pop\n      pop\n      jump\t// out\n        /* \"#utility.yul\":19751:19931   */\n    tag_168:\n        /* \"#utility.yul\":19799:19876   */\n      0x4e487b7100000000000000000000000000000000000000000000000000000000\n        /* \"#utility.yul\":19796:19797   */\n      0x00\n        /* \"#utility.yul\":19789:19877   */\n      mstore\n        /* \"#utility.yul\":19896:19900   */\n      0x11\n        /* \"#utility.yul\":19893:19894   */\n      0x04\n        /* \"#utility.yul\":19886:19901   */\n      mstore\n        /* \"#utility.yul\":19920:19924   */\n      0x24\n        /* \"#utility.yul\":19917:19918   */\n      0x00\n        /* \"#utility.yul\":19910:19925   */\n      revert\n        /* \"#utility.yul\":19937:20128   */\n    tag_49:\n        /* \"#utility.yul\":19977:19980   */\n      0x00\n        /* \"#utility.yul\":19996:20016   */\n      tag_400\n        /* \"#utility.yul\":20014:20015   */\n      dup3\n        /* \"#utility.yul\":19996:20016   */\n      tag_124\n      jump\t// in\n    tag_400:\n        /* \"#utility.yul\":19991:20016   */\n      swap2\n      pop\n        /* \"#utility.yul\":20030:20050   */\n      tag_401\n        /* \"#utility.yul\":20048:20049   */\n      dup4\n        /* \"#utility.yul\":20030:20050   */\n      tag_124\n      jump\t// in\n    tag_401:\n        /* \"#utility.yul\":20025:20050   */\n      swap3\n      pop\n        /* \"#utility.yul\":20073:20074   */\n      dup3\n        /* \"#utility.yul\":20070:20071   */\n      dup3\n        /* \"#utility.yul\":20066:20075   */\n      add\n        /* \"#utility.yul\":20059:20075   */\n      swap1\n      pop\n        /* \"#utility.yul\":20094:20097   */\n      dup1\n        /* \"#utility.yul\":20091:20092   */\n      dup3\n        /* \"#utility.yul\":20088:20098   */\n      gt\n        /* \"#utility.yul\":20085:20121   */\n      iszero\n      tag_402\n      jumpi\n        /* \"#utility.yul\":20101:20119   */\n      tag_403\n      tag_168\n      jump\t// in\n    tag_403:\n        /* \"#utility.yul\":20085:20121   */\n    tag_402:\n        /* \"#utility.yul\":19937:20128   */\n      swap3\n      swap2\n      pop\n      pop\n      jump\t// out\n        /* \"#utility.yul\":20134:20282   */\n    tag_169:\n        /* \"#utility.yul\":20236:20247   */\n      0x00\n        /* \"#utility.yul\":20273:20276   */\n      dup2\n        /* \"#utility.yul\":20258:20276   */\n      swap1\n      pop\n        /* \"#utility.yul\":20134:20282   */\n      swap3\n      swap2\n      pop\n      pop\n      jump\t// out\n        /* \"#utility.yul\":20288:20522   */\n    tag_170:\n        /* \"#utility.yul\":20428:20462   */\n      0x54686973204e465420726570726573656e7473206120636f7665722070757263\n        /* \"#utility.yul\":20424:20425   */\n      0x00\n        /* \"#utility.yul\":20416:20422   */\n      dup3\n        /* \"#utility.yul\":20412:20426   */\n      add\n        /* \"#utility.yul\":20405:20463   */\n      mstore\n        /* \"#utility.yul\":20497:20514   */\n      0x68617365206d61646520666f723a200000000000000000000000000000000000\n        /* \"#utility.yul\":20492:20494   */\n      0x20\n        /* \"#utility.yul\":20484:20490   */\n      dup3\n        /* \"#utility.yul\":20480:20495   */\n      add\n        /* \"#utility.yul\":20473:20515   */\n      mstore\n        /* \"#utility.yul\":20288:20522   */\n      pop\n      jump\t// out\n        /* \"#utility.yul\":20528:20930   */\n    tag_171:\n        /* \"#utility.yul\":20688:20691   */\n      0x00\n        /* \"#utility.yul\":20709:20794   */\n      tag_407\n        /* \"#utility.yul\":20791:20793   */\n      0x2f\n        /* \"#utility.yul\":20786:20789   */\n      dup4\n        /* \"#utility.yul\":20709:20794   */\n      tag_169\n      jump\t// in\n    tag_407:\n        /* \"#utility.yul\":20702:20794   */\n      swap2\n      pop\n        /* \"#utility.yul\":20803:20896   */\n      tag_408\n        /* \"#utility.yul\":20892:20895   */\n      dup3\n        /* \"#utility.yul\":20803:20896   */\n      tag_170\n      jump\t// in\n    tag_408:\n        /* \"#utility.yul\":20921:20923   */\n      0x2f\n        /* \"#utility.yul\":20916:20919   */\n      dup3\n        /* \"#utility.yul\":20912:20924   */\n      add\n        /* \"#utility.yul\":20905:20924   */\n      swap1\n      pop\n        /* \"#utility.yul\":20528:20930   */\n      swap2\n      swap1\n      pop\n      jump\t// out\n        /* \"#utility.yul\":20936:21326   */\n    tag_172:\n        /* \"#utility.yul\":21042:21045   */\n      0x00\n        /* \"#utility.yul\":21070:21109   */\n      tag_410\n        /* \"#utility.yul\":21103:21108   */\n      dup3\n        /* \"#utility.yul\":21070:21109   */\n      tag_127\n      jump\t// in\n    tag_410:\n        /* \"#utility.yul\":21125:21214   */\n      tag_411\n        /* \"#utility.yul\":21207:21213   */\n      dup2\n        /* \"#utility.yul\":21202:21205   */\n      dup6\n        /* \"#utility.yul\":21125:21214   */\n      tag_169\n      jump\t// in\n    tag_411:\n        /* \"#utility.yul\":21118:21214   */\n      swap4\n      pop\n        /* \"#utility.yul\":21223:21288   */\n      tag_412\n        /* \"#utility.yul\":21281:21287   */\n      dup2\n        /* \"#utility.yul\":21276:21279   */\n      dup6\n        /* \"#utility.yul\":21269:21273   */\n      0x20\n        /* \"#utility.yul\":21262:21267   */\n      dup7\n        /* \"#utility.yul\":21258:21274   */\n      add\n        /* \"#utility.yul\":21223:21288   */\n      tag_129\n      jump\t// in\n    tag_412:\n        /* \"#utility.yul\":21313:21319   */\n      dup1\n        /* \"#utility.yul\":21308:21311   */\n      dup5\n        /* \"#utility.yul\":21304:21320   */\n      add\n        /* \"#utility.yul\":21297:21320   */\n      swap2\n      pop\n        /* \"#utility.yul\":21046:21326   */\n      pop\n        /* \"#utility.yul\":20936:21326   */\n      swap3\n      swap2\n      pop\n      pop\n      jump\t// out\n        /* \"#utility.yul\":21332:21506   */\n    tag_173:\n        /* \"#utility.yul\":21472:21498   */\n      0x205c6e496e697469616c20546f6b656e30205174793a20000000000000000000\n        /* \"#utility.yul\":21468:21469   */\n      0x00\n        /* \"#utility.yul\":21460:21466   */\n      dup3\n        /* \"#utility.yul\":21456:21470   */\n      add\n        /* \"#utility.yul\":21449:21499   */\n      mstore\n        /* \"#utility.yul\":21332:21506   */\n      pop\n      jump\t// out\n        /* \"#utility.yul\":21512:21914   */\n    tag_174:\n        /* \"#utility.yul\":21672:21675   */\n      0x00\n        /* \"#utility.yul\":21693:21778   */\n      tag_415\n        /* \"#utility.yul\":21775:21777   */\n      0x17\n        /* \"#utility.yul\":21770:21773   */\n      dup4\n        /* \"#utility.yul\":21693:21778   */\n      tag_169\n      jump\t// in\n    tag_415:\n        /* \"#utility.yul\":21686:21778   */\n      swap2\n      pop\n        /* \"#utility.yul\":21787:21880   */\n      tag_416\n        /* \"#utility.yul\":21876:21879   */\n      dup3\n        /* \"#utility.yul\":21787:21880   */\n      tag_173\n      jump\t// in\n    tag_416:\n        /* \"#utility.yul\":21905:21907   */\n      0x17\n        /* \"#utility.yul\":21900:21903   */\n      dup3\n        /* \"#utility.yul\":21896:21908   */\n      add\n        /* \"#utility.yul\":21889:21908   */\n      swap1\n      pop\n        /* \"#utility.yul\":21512:21914   */\n      swap2\n      swap1\n      pop\n      jump\t// out\n        /* \"#utility.yul\":21920:22094   */\n    tag_175:\n        /* \"#utility.yul\":22060:22086   */\n      0x205c6e496e697469616c20546f6b656e31205174793a20000000000000000000\n        /* \"#utility.yul\":22056:22057   */\n      0x00\n        /* \"#utility.yul\":22048:22054   */\n      dup3\n        /* \"#utility.yul\":22044:22058   */\n      add\n        /* \"#utility.yul\":22037:22087   */\n      mstore\n        /* \"#utility.yul\":21920:22094   */\n      pop\n      jump\t// out\n        /* \"#utility.yul\":22100:22502   */\n    tag_176:\n        /* \"#utility.yul\":22260:22263   */\n      0x00\n        /* \"#utility.yul\":22281:22366   */\n      tag_419\n        /* \"#utility.yul\":22363:22365   */\n      0x17\n        /* \"#utility.yul\":22358:22361   */\n      dup4\n        /* \"#utility.yul\":22281:22366   */\n      tag_169\n      jump\t// in\n    tag_419:\n        /* \"#utility.yul\":22274:22366   */\n      swap2\n      pop\n        /* \"#utility.yul\":22375:22468   */\n      tag_420\n        /* \"#utility.yul\":22464:22467   */\n      dup3\n        /* \"#utility.yul\":22375:22468   */\n      tag_175\n      jump\t// in\n    tag_420:\n        /* \"#utility.yul\":22493:22495   */\n      0x17\n        /* \"#utility.yul\":22488:22491   */\n      dup3\n        /* \"#utility.yul\":22484:22496   */\n      add\n        /* \"#utility.yul\":22477:22496   */\n      swap1\n      pop\n        /* \"#utility.yul\":22100:22502   */\n      swap2\n      swap1\n      pop\n      jump\t// out\n        /* \"#utility.yul\":22508:22674   */\n    tag_177:\n        /* \"#utility.yul\":22648:22666   */\n      0x205c6e4c6f776572426f756e643a200000000000000000000000000000000000\n        /* \"#utility.yul\":22644:22645   */\n      0x00\n        /* \"#utility.yul\":22636:22642   */\n      dup3\n        /* \"#utility.yul\":22632:22646   */\n      add\n        /* \"#utility.yul\":22625:22667   */\n      mstore\n        /* \"#utility.yul\":22508:22674   */\n      pop\n      jump\t// out\n        /* \"#utility.yul\":22680:23082   */\n    tag_178:\n        /* \"#utility.yul\":22840:22843   */\n      0x00\n        /* \"#utility.yul\":22861:22946   */\n      tag_423\n        /* \"#utility.yul\":22943:22945   */\n      0x0f\n        /* \"#utility.yul\":22938:22941   */\n      dup4\n        /* \"#utility.yul\":22861:22946   */\n      tag_169\n      jump\t// in\n    tag_423:\n        /* \"#utility.yul\":22854:22946   */\n      swap2\n      pop\n        /* \"#utility.yul\":22955:23048   */\n      tag_424\n        /* \"#utility.yul\":23044:23047   */\n      dup3\n        /* \"#utility.yul\":22955:23048   */\n      tag_177\n      jump\t// in\n    tag_424:\n        /* \"#utility.yul\":23073:23075   */\n      0x0f\n        /* \"#utility.yul\":23068:23071   */\n      dup3\n        /* \"#utility.yul\":23064:23076   */\n      add\n        /* \"#utility.yul\":23057:23076   */\n      swap1\n      pop\n        /* \"#utility.yul\":22680:23082   */\n      swap2\n      swap1\n      pop\n      jump\t// out\n        /* \"#utility.yul\":23088:23254   */\n    tag_179:\n        /* \"#utility.yul\":23228:23246   */\n      0x205c6e5570706572426f756e643a200000000000000000000000000000000000\n        /* \"#utility.yul\":23224:23225   */\n      0x00\n        /* \"#utility.yul\":23216:23222   */\n      dup3\n        /* \"#utility.yul\":23212:23226   */\n      add\n        /* \"#utility.yul\":23205:23247   */\n      mstore\n        /* \"#utility.yul\":23088:23254   */\n      pop\n      jump\t// out\n        /* \"#utility.yul\":23260:23662   */\n    tag_180:\n        /* \"#utility.yul\":23420:23423   */\n      0x00\n        /* \"#utility.yul\":23441:23526   */\n      tag_427\n        /* \"#utility.yul\":23523:23525   */\n      0x0f\n        /* \"#utility.yul\":23518:23521   */\n      dup4\n        /* \"#utility.yul\":23441:23526   */\n      tag_169\n      jump\t// in\n    tag_427:\n        /* \"#utility.yul\":23434:23526   */\n      swap2\n      pop\n        /* \"#utility.yul\":23535:23628   */\n      tag_428\n        /* \"#utility.yul\":23624:23627   */\n      dup3\n        /* \"#utility.yul\":23535:23628   */\n      tag_179\n      jump\t// in\n    tag_428:\n        /* \"#utility.yul\":23653:23655   */\n      0x0f\n        /* \"#utility.yul\":23648:23651   */\n      dup3\n        /* \"#utility.yul\":23644:23656   */\n      add\n        /* \"#utility.yul\":23637:23656   */\n      swap1\n      pop\n        /* \"#utility.yul\":23260:23662   */\n      swap2\n      swap1\n      pop\n      jump\t// out\n        /* \"#utility.yul\":23668:23830   */\n    tag_181:\n        /* \"#utility.yul\":23808:23822   */\n      0x205c6e4578706972793a20000000000000000000000000000000000000000000\n        /* \"#utility.yul\":23804:23805   */\n      0x00\n        /* \"#utility.yul\":23796:23802   */\n      dup3\n        /* \"#utility.yul\":23792:23806   */\n      add\n        /* \"#utility.yul\":23785:23823   */\n      mstore\n        /* \"#utility.yul\":23668:23830   */\n      pop\n      jump\t// out\n        /* \"#utility.yul\":23836:24238   */\n    tag_182:\n        /* \"#utility.yul\":23996:23999   */\n      0x00\n        /* \"#utility.yul\":24017:24102   */\n      tag_431\n        /* \"#utility.yul\":24099:24101   */\n      0x0b\n        /* \"#utility.yul\":24094:24097   */\n      dup4\n        /* \"#utility.yul\":24017:24102   */\n      tag_169\n      jump\t// in\n    tag_431:\n        /* \"#utility.yul\":24010:24102   */\n      swap2\n      pop\n        /* \"#utility.yul\":24111:24204   */\n      tag_432\n        /* \"#utility.yul\":24200:24203   */\n      dup3\n        /* \"#utility.yul\":24111:24204   */\n      tag_181\n      jump\t// in\n    tag_432:\n        /* \"#utility.yul\":24229:24231   */\n      0x0b\n        /* \"#utility.yul\":24224:24227   */\n      dup3\n        /* \"#utility.yul\":24220:24232   */\n      add\n        /* \"#utility.yul\":24213:24232   */\n      swap1\n      pop\n        /* \"#utility.yul\":23836:24238   */\n      swap2\n      swap1\n      pop\n      jump\t// out\n        /* \"#utility.yul\":24244:26915   */\n    tag_59:\n        /* \"#utility.yul\":25222:25225   */\n      0x00\n        /* \"#utility.yul\":25244:25392   */\n      tag_434\n        /* \"#utility.yul\":25388:25391   */\n      dup3\n        /* \"#utility.yul\":25244:25392   */\n      tag_171\n      jump\t// in\n    tag_434:\n        /* \"#utility.yul\":25237:25392   */\n      swap2\n      pop\n        /* \"#utility.yul\":25409:25504   */\n      tag_435\n        /* \"#utility.yul\":25500:25503   */\n      dup3\n        /* \"#utility.yul\":25491:25497   */\n      dup10\n        /* \"#utility.yul\":25409:25504   */\n      tag_172\n      jump\t// in\n    tag_435:\n        /* \"#utility.yul\":25402:25504   */\n      swap2\n      pop\n        /* \"#utility.yul\":25521:25669   */\n      tag_436\n        /* \"#utility.yul\":25665:25668   */\n      dup3\n        /* \"#utility.yul\":25521:25669   */\n      tag_174\n      jump\t// in\n    tag_436:\n        /* \"#utility.yul\":25514:25669   */\n      swap2\n      pop\n        /* \"#utility.yul\":25686:25781   */\n      tag_437\n        /* \"#utility.yul\":25777:25780   */\n      dup3\n        /* \"#utility.yul\":25768:25774   */\n      dup9\n        /* \"#utility.yul\":25686:25781   */\n      tag_172\n      jump\t// in\n    tag_437:\n        /* \"#utility.yul\":25679:25781   */\n      swap2\n      pop\n        /* \"#utility.yul\":25798:25946   */\n      tag_438\n        /* \"#utility.yul\":25942:25945   */\n      dup3\n        /* \"#utility.yul\":25798:25946   */\n      tag_176\n      jump\t// in\n    tag_438:\n        /* \"#utility.yul\":25791:25946   */\n      swap2\n      pop\n        /* \"#utility.yul\":25963:26058   */\n      tag_439\n        /* \"#utility.yul\":26054:26057   */\n      dup3\n        /* \"#utility.yul\":26045:26051   */\n      dup8\n        /* \"#utility.yul\":25963:26058   */\n      tag_172\n      jump\t// in\n    tag_439:\n        /* \"#utility.yul\":25956:26058   */\n      swap2\n      pop\n        /* \"#utility.yul\":26075:26223   */\n      tag_440\n        /* \"#utility.yul\":26219:26222   */\n      dup3\n        /* \"#utility.yul\":26075:26223   */\n      tag_178\n      jump\t// in\n    tag_440:\n        /* \"#utility.yul\":26068:26223   */\n      swap2\n      pop\n        /* \"#utility.yul\":26240:26335   */\n      tag_441\n        /* \"#utility.yul\":26331:26334   */\n      dup3\n        /* \"#utility.yul\":26322:26328   */\n      dup7\n        /* \"#utility.yul\":26240:26335   */\n      tag_172\n      jump\t// in\n    tag_441:\n        /* \"#utility.yul\":26233:26335   */\n      swap2\n      pop\n        /* \"#utility.yul\":26352:26500   */\n      tag_442\n        /* \"#utility.yul\":26496:26499   */\n      dup3\n        /* \"#utility.yul\":26352:26500   */\n      tag_180\n      jump\t// in\n    tag_442:\n        /* \"#utility.yul\":26345:26500   */\n      swap2\n      pop\n        /* \"#utility.yul\":26517:26612   */\n      tag_443\n        /* \"#utility.yul\":26608:26611   */\n      dup3\n        /* \"#utility.yul\":26599:26605   */\n      dup6\n        /* \"#utility.yul\":26517:26612   */\n      tag_172\n      jump\t// in\n    tag_443:\n        /* \"#utility.yul\":26510:26612   */\n      swap2\n      pop\n        /* \"#utility.yul\":26629:26777   */\n      tag_444\n        /* \"#utility.yul\":26773:26776   */\n      dup3\n        /* \"#utility.yul\":26629:26777   */\n      tag_182\n      jump\t// in\n    tag_444:\n        /* \"#utility.yul\":26622:26777   */\n      swap2\n      pop\n        /* \"#utility.yul\":26794:26889   */\n      tag_445\n        /* \"#utility.yul\":26885:26888   */\n      dup3\n        /* \"#utility.yul\":26876:26882   */\n      dup5\n        /* \"#utility.yul\":26794:26889   */\n      tag_172\n      jump\t// in\n    tag_445:\n        /* \"#utility.yul\":26787:26889   */\n      swap2\n      pop\n        /* \"#utility.yul\":26906:26909   */\n      dup2\n        /* \"#utility.yul\":26899:26909   */\n      swap1\n      pop\n        /* \"#utility.yul\":24244:26915   */\n      swap8\n      swap7\n      pop\n      pop\n      pop\n      pop\n      pop\n      pop\n      pop\n      jump\t// out\n        /* \"#utility.yul\":26921:27135   */\n    tag_183:\n        /* \"#utility.yul\":27061:27127   */\n      0x7b226e616d65223a224865646765486f672050726f746f636f6c220000000000\n        /* \"#utility.yul\":27057:27058   */\n      0x00\n        /* \"#utility.yul\":27049:27055   */\n      dup3\n        /* \"#utility.yul\":27045:27059   */\n      add\n        /* \"#utility.yul\":27038:27128   */\n      mstore\n        /* \"#utility.yul\":26921:27135   */\n      pop\n      jump\t// out\n        /* \"#utility.yul\":27141:27543   */\n    tag_184:\n        /* \"#utility.yul\":27301:27304   */\n      0x00\n        /* \"#utility.yul\":27322:27407   */\n      tag_448\n        /* \"#utility.yul\":27404:27406   */\n      0x1b\n        /* \"#utility.yul\":27399:27402   */\n      dup4\n        /* \"#utility.yul\":27322:27407   */\n      tag_169\n      jump\t// in\n    tag_448:\n        /* \"#utility.yul\":27315:27407   */\n      swap2\n      pop\n        /* \"#utility.yul\":27416:27509   */\n      tag_449\n        /* \"#utility.yul\":27505:27508   */\n      dup3\n        /* \"#utility.yul\":27416:27509   */\n      tag_183\n      jump\t// in\n    tag_449:\n        /* \"#utility.yul\":27534:27536   */\n      0x1b\n        /* \"#utility.yul\":27529:27532   */\n      dup3\n        /* \"#utility.yul\":27525:27537   */\n      add\n        /* \"#utility.yul\":27518:27537   */\n      swap1\n      pop\n        /* \"#utility.yul\":27141:27543   */\n      swap2\n      swap1\n      pop\n      jump\t// out\n        /* \"#utility.yul\":27549:27763   */\n    tag_185:\n        /* \"#utility.yul\":27689:27755   */\n      0x226465736372697074696f6e223a220000000000000000000000000000000000\n        /* \"#utility.yul\":27685:27686   */\n      0x00\n        /* \"#utility.yul\":27677:27683   */\n      dup3\n        /* \"#utility.yul\":27673:27687   */\n      add\n        /* \"#utility.yul\":27666:27756   */\n      mstore\n        /* \"#utility.yul\":27549:27763   */\n      pop\n      jump\t// out\n        /* \"#utility.yul\":27769:28171   */\n    tag_186:\n        /* \"#utility.yul\":27929:27932   */\n      0x00\n        /* \"#utility.yul\":27950:28035   */\n      tag_452\n        /* \"#utility.yul\":28032:28034   */\n      0x0f\n        /* \"#utility.yul\":28027:28030   */\n      dup4\n        /* \"#utility.yul\":27950:28035   */\n      tag_169\n      jump\t// in\n    tag_452:\n        /* \"#utility.yul\":27943:28035   */\n      swap2\n      pop\n        /* \"#utility.yul\":28044:28137   */\n      tag_453\n        /* \"#utility.yul\":28133:28136   */\n      dup3\n        /* \"#utility.yul\":28044:28137   */\n      tag_185\n      jump\t// in\n    tag_453:\n        /* \"#utility.yul\":28162:28164   */\n      0x0f\n        /* \"#utility.yul\":28157:28160   */\n      dup3\n        /* \"#utility.yul\":28153:28165   */\n      add\n        /* \"#utility.yul\":28146:28165   */\n      swap1\n      pop\n        /* \"#utility.yul\":27769:28171   */\n      swap2\n      swap1\n      pop\n      jump\t// out\n        /* \"#utility.yul\":28177:28391   */\n    tag_187:\n        /* \"#utility.yul\":28317:28383   */\n      0x222c000000000000000000000000000000000000000000000000000000000000\n        /* \"#utility.yul\":28313:28314   */\n      0x00\n        /* \"#utility.yul\":28305:28311   */\n      dup3\n        /* \"#utility.yul\":28301:28315   */\n      add\n        /* \"#utility.yul\":28294:28384   */\n      mstore\n        /* \"#utility.yul\":28177:28391   */\n      pop\n      jump\t// out\n        /* \"#utility.yul\":28397:28797   */\n    tag_188:\n        /* \"#utility.yul\":28557:28560   */\n      0x00\n        /* \"#utility.yul\":28578:28662   */\n      tag_456\n        /* \"#utility.yul\":28660:28661   */\n      0x02\n        /* \"#utility.yul\":28655:28658   */\n      dup4\n        /* \"#utility.yul\":28578:28662   */\n      tag_169\n      jump\t// in\n    tag_456:\n        /* \"#utility.yul\":28571:28662   */\n      swap2\n      pop\n        /* \"#utility.yul\":28671:28764   */\n      tag_457\n        /* \"#utility.yul\":28760:28763   */\n      dup3\n        /* \"#utility.yul\":28671:28764   */\n      tag_187\n      jump\t// in\n    tag_457:\n        /* \"#utility.yul\":28789:28790   */\n      0x02\n        /* \"#utility.yul\":28784:28787   */\n      dup3\n        /* \"#utility.yul\":28780:28791   */\n      add\n        /* \"#utility.yul\":28773:28791   */\n      swap1\n      pop\n        /* \"#utility.yul\":28397:28797   */\n      swap2\n      swap1\n      pop\n      jump\t// out\n        /* \"#utility.yul\":28803:29017   */\n    tag_189:\n        /* \"#utility.yul\":28943:29009   */\n      0x22696d616765223a202200000000000000000000000000000000000000000000\n        /* \"#utility.yul\":28939:28940   */\n      0x00\n        /* \"#utility.yul\":28931:28937   */\n      dup3\n        /* \"#utility.yul\":28927:28941   */\n      add\n        /* \"#utility.yul\":28920:29010   */\n      mstore\n        /* \"#utility.yul\":28803:29017   */\n      pop\n      jump\t// out\n        /* \"#utility.yul\":29023:29425   */\n    tag_190:\n        /* \"#utility.yul\":29183:29186   */\n      0x00\n        /* \"#utility.yul\":29204:29289   */\n      tag_460\n        /* \"#utility.yul\":29286:29288   */\n      0x0a\n        /* \"#utility.yul\":29281:29284   */\n      dup4\n        /* \"#utility.yul\":29204:29289   */\n      tag_169\n      jump\t// in\n    tag_460:\n        /* \"#utility.yul\":29197:29289   */\n      swap2\n      pop\n        /* \"#utility.yul\":29298:29391   */\n      tag_461\n        /* \"#utility.yul\":29387:29390   */\n      dup3\n        /* \"#utility.yul\":29298:29391   */\n      tag_189\n      jump\t// in\n    tag_461:\n        /* \"#utility.yul\":29416:29418   */\n      0x0a\n        /* \"#utility.yul\":29411:29414   */\n      dup3\n        /* \"#utility.yul\":29407:29419   */\n      add\n        /* \"#utility.yul\":29400:29419   */\n      swap1\n      pop\n        /* \"#utility.yul\":29023:29425   */\n      swap2\n      swap1\n      pop\n      jump\t// out\n        /* \"#utility.yul\":29431:29607   */\n    tag_191:\n        /* \"#utility.yul\":29571:29599   */\n      0x646174613a696d6167652f7376672b786d6c3b6261736536342c000000000000\n        /* \"#utility.yul\":29567:29568   */\n      0x00\n        /* \"#utility.yul\":29559:29565   */\n      dup3\n        /* \"#utility.yul\":29555:29569   */\n      add\n        /* \"#utility.yul\":29548:29600   */\n      mstore\n        /* \"#utility.yul\":29431:29607   */\n      pop\n      jump\t// out\n        /* \"#utility.yul\":29613:30015   */\n    tag_192:\n        /* \"#utility.yul\":29773:29776   */\n      0x00\n        /* \"#utility.yul\":29794:29879   */\n      tag_464\n        /* \"#utility.yul\":29876:29878   */\n      0x1a\n        /* \"#utility.yul\":29871:29874   */\n      dup4\n        /* \"#utility.yul\":29794:29879   */\n      tag_169\n      jump\t// in\n    tag_464:\n        /* \"#utility.yul\":29787:29879   */\n      swap2\n      pop\n        /* \"#utility.yul\":29888:29981   */\n      tag_465\n        /* \"#utility.yul\":29977:29980   */\n      dup3\n        /* \"#utility.yul\":29888:29981   */\n      tag_191\n      jump\t// in\n    tag_465:\n        /* \"#utility.yul\":30006:30008   */\n      0x1a\n        /* \"#utility.yul\":30001:30004   */\n      dup3\n        /* \"#utility.yul\":29997:30009   */\n      add\n        /* \"#utility.yul\":29990:30009   */\n      swap1\n      pop\n        /* \"#utility.yul\":29613:30015   */\n      swap2\n      swap1\n      pop\n      jump\t// out\n        /* \"#utility.yul\":30021:30235   */\n    tag_193:\n        /* \"#utility.yul\":30161:30227   */\n      0x227d000000000000000000000000000000000000000000000000000000000000\n        /* \"#utility.yul\":30157:30158   */\n      0x00\n        /* \"#utility.yul\":30149:30155   */\n      dup3\n        /* \"#utility.yul\":30145:30159   */\n      add\n        /* \"#utility.yul\":30138:30228   */\n      mstore\n        /* \"#utility.yul\":30021:30235   */\n      pop\n      jump\t// out\n        /* \"#utility.yul\":30241:30641   */\n    tag_194:\n        /* \"#utility.yul\":30401:30404   */\n      0x00\n        /* \"#utility.yul\":30422:30506   */\n      tag_468\n        /* \"#utility.yul\":30504:30505   */\n      0x02\n        /* \"#utility.yul\":30499:30502   */\n      dup4\n        /* \"#utility.yul\":30422:30506   */\n      tag_169\n      jump\t// in\n    tag_468:\n        /* \"#utility.yul\":30415:30506   */\n      swap2\n      pop\n        /* \"#utility.yul\":30515:30608   */\n      tag_469\n        /* \"#utility.yul\":30604:30607   */\n      dup3\n        /* \"#utility.yul\":30515:30608   */\n      tag_193\n      jump\t// in\n    tag_469:\n        /* \"#utility.yul\":30633:30634   */\n      0x02\n        /* \"#utility.yul\":30628:30631   */\n      dup3\n        /* \"#utility.yul\":30624:30635   */\n      add\n        /* \"#utility.yul\":30617:30635   */\n      swap1\n      pop\n        /* \"#utility.yul\":30241:30641   */\n      swap2\n      swap1\n      pop\n      jump\t// out\n        /* \"#utility.yul\":30647:32678   */\n    tag_67:\n        /* \"#utility.yul\":31433:31436   */\n      0x00\n        /* \"#utility.yul\":31455:31603   */\n      tag_471\n        /* \"#utility.yul\":31599:31602   */\n      dup3\n        /* \"#utility.yul\":31455:31603   */\n      tag_184\n      jump\t// in\n    tag_471:\n        /* \"#utility.yul\":31448:31603   */\n      swap2\n      pop\n        /* \"#utility.yul\":31620:31768   */\n      tag_472\n        /* \"#utility.yul\":31764:31767   */\n      dup3\n        /* \"#utility.yul\":31620:31768   */\n      tag_186\n      jump\t// in\n    tag_472:\n        /* \"#utility.yul\":31613:31768   */\n      swap2\n      pop\n        /* \"#utility.yul\":31785:31880   */\n      tag_473\n        /* \"#utility.yul\":31876:31879   */\n      dup3\n        /* \"#utility.yul\":31867:31873   */\n      dup6\n        /* \"#utility.yul\":31785:31880   */\n      tag_172\n      jump\t// in\n    tag_473:\n        /* \"#utility.yul\":31778:31880   */\n      swap2\n      pop\n        /* \"#utility.yul\":31897:32045   */\n      tag_474\n        /* \"#utility.yul\":32041:32044   */\n      dup3\n        /* \"#utility.yul\":31897:32045   */\n      tag_188\n      jump\t// in\n    tag_474:\n        /* \"#utility.yul\":31890:32045   */\n      swap2\n      pop\n        /* \"#utility.yul\":32062:32210   */\n      tag_475\n        /* \"#utility.yul\":32206:32209   */\n      dup3\n        /* \"#utility.yul\":32062:32210   */\n      tag_190\n      jump\t// in\n    tag_475:\n        /* \"#utility.yul\":32055:32210   */\n      swap2\n      pop\n        /* \"#utility.yul\":32227:32375   */\n      tag_476\n        /* \"#utility.yul\":32371:32374   */\n      dup3\n        /* \"#utility.yul\":32227:32375   */\n      tag_192\n      jump\t// in\n    tag_476:\n        /* \"#utility.yul\":32220:32375   */\n      swap2\n      pop\n        /* \"#utility.yul\":32392:32487   */\n      tag_477\n        /* \"#utility.yul\":32483:32486   */\n      dup3\n        /* \"#utility.yul\":32474:32480   */\n      dup5\n        /* \"#utility.yul\":32392:32487   */\n      tag_172\n      jump\t// in\n    tag_477:\n        /* \"#utility.yul\":32385:32487   */\n      swap2\n      pop\n        /* \"#utility.yul\":32504:32652   */\n      tag_478\n        /* \"#utility.yul\":32648:32651   */\n      dup3\n        /* \"#utility.yul\":32504:32652   */\n      tag_194\n      jump\t// in\n    tag_478:\n        /* \"#utility.yul\":32497:32652   */\n      swap2\n      pop\n        /* \"#utility.yul\":32669:32672   */\n      dup2\n        /* \"#utility.yul\":32662:32672   */\n      swap1\n      pop\n        /* \"#utility.yul\":30647:32678   */\n      swap4\n      swap3\n      pop\n      pop\n      pop\n      jump\t// out\n        /* \"#utility.yul\":32684:32863   */\n    tag_195:\n        /* \"#utility.yul\":32824:32855   */\n      0x646174613a6170706c69636174696f6e2f6a736f6e3b6261736536342c000000\n        /* \"#utility.yul\":32820:32821   */\n      0x00\n        /* \"#utility.yul\":32812:32818   */\n      dup3\n        /* \"#utility.yul\":32808:32822   */\n      add\n        /* \"#utility.yul\":32801:32856   */\n      mstore\n        /* \"#utility.yul\":32684:32863   */\n      pop\n      jump\t// out\n        /* \"#utility.yul\":32869:33271   */\n    tag_196:\n        /* \"#utility.yul\":33029:33032   */\n      0x00\n        /* \"#utility.yul\":33050:33135   */\n      tag_481\n        /* \"#utility.yul\":33132:33134   */\n      0x1d\n        /* \"#utility.yul\":33127:33130   */\n      dup4\n        /* \"#utility.yul\":33050:33135   */\n      tag_169\n      jump\t// in\n    tag_481:\n        /* \"#utility.yul\":33043:33135   */\n      swap2\n      pop\n        /* \"#utility.yul\":33144:33237   */\n      tag_482\n        /* \"#utility.yul\":33233:33236   */\n      dup3\n        /* \"#utility.yul\":33144:33237   */\n      tag_195\n      jump\t// in\n    tag_482:\n        /* \"#utility.yul\":33262:33264   */\n      0x1d\n        /* \"#utility.yul\":33257:33260   */\n      dup3\n        /* \"#utility.yul\":33253:33265   */\n      add\n        /* \"#utility.yul\":33246:33265   */\n      swap1\n      pop\n        /* \"#utility.yul\":32869:33271   */\n      swap2\n      swap1\n      pop\n      jump\t// out\n        /* \"#utility.yul\":33277:33818   */\n    tag_69:\n        /* \"#utility.yul\":33510:33513   */\n      0x00\n        /* \"#utility.yul\":33532:33680   */\n      tag_484\n        /* \"#utility.yul\":33676:33679   */\n      dup3\n        /* \"#utility.yul\":33532:33680   */\n      tag_196\n      jump\t// in\n    tag_484:\n        /* \"#utility.yul\":33525:33680   */\n      swap2\n      pop\n        /* \"#utility.yul\":33697:33792   */\n      tag_485\n        /* \"#utility.yul\":33788:33791   */\n      dup3\n        /* \"#utility.yul\":33779:33785   */\n      dup5\n        /* \"#utility.yul\":33697:33792   */\n      tag_172\n      jump\t// in\n    tag_485:\n        /* \"#utility.yul\":33690:33792   */\n      swap2\n      pop\n        /* \"#utility.yul\":33809:33812   */\n      dup2\n        /* \"#utility.yul\":33802:33812   */\n      swap1\n      pop\n        /* \"#utility.yul\":33277:33818   */\n      swap3\n      swap2\n      pop\n      pop\n      jump\t// out\n        /* \"#utility.yul\":33824:33981   */\n    tag_197:\n        /* \"#utility.yul\":33964:33973   */\n      0x3c747370616e3e00000000000000000000000000000000000000000000000000\n        /* \"#utility.yul\":33960:33961   */\n      0x00\n        /* \"#utility.yul\":33952:33958   */\n      dup3\n        /* \"#utility.yul\":33948:33962   */\n      add\n        /* \"#utility.yul\":33941:33974   */\n      mstore\n        /* \"#utility.yul\":33824:33981   */\n      pop\n      jump\t// out\n        /* \"#utility.yul\":33987:34387   */\n    tag_198:\n        /* \"#utility.yul\":34147:34150   */\n      0x00\n        /* \"#utility.yul\":34168:34252   */\n      tag_488\n        /* \"#utility.yul\":34250:34251   */\n      0x07\n        /* \"#utility.yul\":34245:34248   */\n      dup4\n        /* \"#utility.yul\":34168:34252   */\n      tag_169\n      jump\t// in\n    tag_488:\n        /* \"#utility.yul\":34161:34252   */\n      swap2\n      pop\n        /* \"#utility.yul\":34261:34354   */\n      tag_489\n        /* \"#utility.yul\":34350:34353   */\n      dup3\n        /* \"#utility.yul\":34261:34354   */\n      tag_197\n      jump\t// in\n    tag_489:\n        /* \"#utility.yul\":34379:34380   */\n      0x07\n        /* \"#utility.yul\":34374:34377   */\n      dup3\n        /* \"#utility.yul\":34370:34381   */\n      add\n        /* \"#utility.yul\":34363:34381   */\n      swap1\n      pop\n        /* \"#utility.yul\":33987:34387   */\n      swap2\n      swap1\n      pop\n      jump\t// out\n        /* \"#utility.yul\":34393:34809   */\n    tag_199:\n        /* \"#utility.yul\":34533:34599   */\n      0x3c2f747370616e3e3c2f746578743e20203c7465787420636c6173733d22636c\n        /* \"#utility.yul\":34529:34530   */\n      0x00\n        /* \"#utility.yul\":34521:34527   */\n      dup3\n        /* \"#utility.yul\":34517:34531   */\n      add\n        /* \"#utility.yul\":34510:34600   */\n      mstore\n        /* \"#utility.yul\":34634:34700   */\n      0x732d392220783d223933252220793d223430252220746578742d616e63686f72\n        /* \"#utility.yul\":34629:34631   */\n      0x20\n        /* \"#utility.yul\":34621:34627   */\n      dup3\n        /* \"#utility.yul\":34617:34632   */\n      add\n        /* \"#utility.yul\":34610:34701   */\n      mstore\n        /* \"#utility.yul\":34735:34801   */\n      0x3d22656e64223e00000000000000000000000000000000000000000000000000\n        /* \"#utility.yul\":34730:34732   */\n      0x40\n        /* \"#utility.yul\":34722:34728   */\n      dup3\n        /* \"#utility.yul\":34718:34733   */\n      add\n        /* \"#utility.yul\":34711:34802   */\n      mstore\n        /* \"#utility.yul\":34393:34809   */\n      pop\n      jump\t// out\n        /* \"#utility.yul\":34815:35217   */\n    tag_200:\n        /* \"#utility.yul\":34975:34978   */\n      0x00\n        /* \"#utility.yul\":34996:35081   */\n      tag_492\n        /* \"#utility.yul\":35078:35080   */\n      0x47\n        /* \"#utility.yul\":35073:35076   */\n      dup4\n        /* \"#utility.yul\":34996:35081   */\n      tag_169\n      jump\t// in\n    tag_492:\n        /* \"#utility.yul\":34989:35081   */\n      swap2\n      pop\n        /* \"#utility.yul\":35090:35183   */\n      tag_493\n        /* \"#utility.yul\":35179:35182   */\n      dup3\n        /* \"#utility.yul\":35090:35183   */\n      tag_199\n      jump\t// in\n    tag_493:\n        /* \"#utility.yul\":35208:35210   */\n      0x47\n        /* \"#utility.yul\":35203:35206   */\n      dup3\n        /* \"#utility.yul\":35199:35211   */\n      add\n        /* \"#utility.yul\":35192:35211   */\n      swap1\n      pop\n        /* \"#utility.yul\":34815:35217   */\n      swap2\n      swap1\n      pop\n      jump\t// out\n        /* \"#utility.yul\":35223:35374   */\n    tag_201:\n        /* \"#utility.yul\":35363:35366   */\n      0x2000000000000000000000000000000000000000000000000000000000000000\n        /* \"#utility.yul\":35359:35360   */\n      0x00\n        /* \"#utility.yul\":35351:35357   */\n      dup3\n        /* \"#utility.yul\":35347:35361   */\n      add\n        /* \"#utility.yul\":35340:35367   */\n      mstore\n        /* \"#utility.yul\":35223:35374   */\n      pop\n      jump\t// out\n        /* \"#utility.yul\":35380:35780   */\n    tag_202:\n        /* \"#utility.yul\":35540:35543   */\n      0x00\n        /* \"#utility.yul\":35561:35645   */\n      tag_496\n        /* \"#utility.yul\":35643:35644   */\n      0x01\n        /* \"#utility.yul\":35638:35641   */\n      dup4\n        /* \"#utility.yul\":35561:35645   */\n      tag_169\n      jump\t// in\n    tag_496:\n        /* \"#utility.yul\":35554:35645   */\n      swap2\n      pop\n        /* \"#utility.yul\":35654:35747   */\n      tag_497\n        /* \"#utility.yul\":35743:35746   */\n      dup3\n        /* \"#utility.yul\":35654:35747   */\n      tag_201\n      jump\t// in\n    tag_497:\n        /* \"#utility.yul\":35772:35773   */\n      0x01\n        /* \"#utility.yul\":35767:35770   */\n      dup3\n        /* \"#utility.yul\":35763:35774   */\n      add\n        /* \"#utility.yul\":35756:35774   */\n      swap1\n      pop\n        /* \"#utility.yul\":35380:35780   */\n      swap2\n      swap1\n      pop\n      jump\t// out\n        /* \"#utility.yul\":35786:35951   */\n    tag_203:\n        /* \"#utility.yul\":35926:35943   */\n      0x3c2f747370616e3e3c2f746578743e0000000000000000000000000000000000\n        /* \"#utility.yul\":35922:35923   */\n      0x00\n        /* \"#utility.yul\":35914:35920   */\n      dup3\n        /* \"#utility.yul\":35910:35924   */\n      add\n        /* \"#utility.yul\":35903:35944   */\n      mstore\n        /* \"#utility.yul\":35786:35951   */\n      pop\n      jump\t// out\n        /* \"#utility.yul\":35957:36359   */\n    tag_204:\n        /* \"#utility.yul\":36117:36120   */\n      0x00\n        /* \"#utility.yul\":36138:36223   */\n      tag_500\n        /* \"#utility.yul\":36220:36222   */\n      0x0f\n        /* \"#utility.yul\":36215:36218   */\n      dup4\n        /* \"#utility.yul\":36138:36223   */\n      tag_169\n      jump\t// in\n    tag_500:\n        /* \"#utility.yul\":36131:36223   */\n      swap2\n      pop\n        /* \"#utility.yul\":36232:36325   */\n      tag_501\n        /* \"#utility.yul\":36321:36324   */\n      dup3\n        /* \"#utility.yul\":36232:36325   */\n      tag_203\n      jump\t// in\n    tag_501:\n        /* \"#utility.yul\":36350:36352   */\n      0x0f\n        /* \"#utility.yul\":36345:36348   */\n      dup3\n        /* \"#utility.yul\":36341:36353   */\n      add\n        /* \"#utility.yul\":36334:36353   */\n      swap1\n      pop\n        /* \"#utility.yul\":35957:36359   */\n      swap2\n      swap1\n      pop\n      jump\t// out\n        /* \"#utility.yul\":36365:36680   */\n    tag_205:\n        /* \"#utility.yul\":36505:36571   */\n      0x3c7465787420636c6173733d22636c732d392220783d223933252220793d2234\n        /* \"#utility.yul\":36501:36502   */\n      0x00\n        /* \"#utility.yul\":36493:36499   */\n      dup3\n        /* \"#utility.yul\":36489:36503   */\n      add\n        /* \"#utility.yul\":36482:36572   */\n      mstore\n        /* \"#utility.yul\":36606:36672   */\n      0x35252220746578742d616e63686f723d22656e64223e3c747370616e3e000000\n        /* \"#utility.yul\":36601:36603   */\n      0x20\n        /* \"#utility.yul\":36593:36599   */\n      dup3\n        /* \"#utility.yul\":36589:36604   */\n      add\n        /* \"#utility.yul\":36582:36673   */\n      mstore\n        /* \"#utility.yul\":36365:36680   */\n      pop\n      jump\t// out\n        /* \"#utility.yul\":36686:37088   */\n    tag_206:\n        /* \"#utility.yul\":36846:36849   */\n      0x00\n        /* \"#utility.yul\":36867:36952   */\n      tag_504\n        /* \"#utility.yul\":36949:36951   */\n      0x3d\n        /* \"#utility.yul\":36944:36947   */\n      dup4\n        /* \"#utility.yul\":36867:36952   */\n      tag_169\n      jump\t// in\n    tag_504:\n        /* \"#utility.yul\":36860:36952   */\n      swap2\n      pop\n        /* \"#utility.yul\":36961:37054   */\n      tag_505\n        /* \"#utility.yul\":37050:37053   */\n      dup3\n        /* \"#utility.yul\":36961:37054   */\n      tag_205\n      jump\t// in\n    tag_505:\n        /* \"#utility.yul\":37079:37081   */\n      0x3d\n        /* \"#utility.yul\":37074:37077   */\n      dup3\n        /* \"#utility.yul\":37070:37082   */\n      add\n        /* \"#utility.yul\":37063:37082   */\n      swap1\n      pop\n        /* \"#utility.yul\":36686:37088   */\n      swap2\n      swap1\n      pop\n      jump\t// out\n        /* \"#utility.yul\":37094:40829   */\n    tag_78:\n        /* \"#utility.yul\":38476:38479   */\n      0x00\n        /* \"#utility.yul\":38498:38646   */\n      tag_507\n        /* \"#utility.yul\":38642:38645   */\n      dup3\n        /* \"#utility.yul\":38498:38646   */\n      tag_198\n      jump\t// in\n    tag_507:\n        /* \"#utility.yul\":38491:38646   */\n      swap2\n      pop\n        /* \"#utility.yul\":38663:38758   */\n      tag_508\n        /* \"#utility.yul\":38754:38757   */\n      dup3\n        /* \"#utility.yul\":38745:38751   */\n      dup10\n        /* \"#utility.yul\":38663:38758   */\n      tag_172\n      jump\t// in\n    tag_508:\n        /* \"#utility.yul\":38656:38758   */\n      swap2\n      pop\n        /* \"#utility.yul\":38775:38923   */\n      tag_509\n        /* \"#utility.yul\":38919:38922   */\n      dup3\n        /* \"#utility.yul\":38775:38923   */\n      tag_200\n      jump\t// in\n    tag_509:\n        /* \"#utility.yul\":38768:38923   */\n      swap2\n      pop\n        /* \"#utility.yul\":38940:39088   */\n      tag_510\n        /* \"#utility.yul\":39084:39087   */\n      dup3\n        /* \"#utility.yul\":38940:39088   */\n      tag_198\n      jump\t// in\n    tag_510:\n        /* \"#utility.yul\":38933:39088   */\n      swap2\n      pop\n        /* \"#utility.yul\":39105:39200   */\n      tag_511\n        /* \"#utility.yul\":39196:39199   */\n      dup3\n        /* \"#utility.yul\":39187:39193   */\n      dup9\n        /* \"#utility.yul\":39105:39200   */\n      tag_172\n      jump\t// in\n    tag_511:\n        /* \"#utility.yul\":39098:39200   */\n      swap2\n      pop\n        /* \"#utility.yul\":39217:39365   */\n      tag_512\n        /* \"#utility.yul\":39361:39364   */\n      dup3\n        /* \"#utility.yul\":39217:39365   */\n      tag_202\n      jump\t// in\n    tag_512:\n        /* \"#utility.yul\":39210:39365   */\n      swap2\n      pop\n        /* \"#utility.yul\":39382:39477   */\n      tag_513\n        /* \"#utility.yul\":39473:39476   */\n      dup3\n        /* \"#utility.yul\":39464:39470   */\n      dup8\n        /* \"#utility.yul\":39382:39477   */\n      tag_172\n      jump\t// in\n    tag_513:\n        /* \"#utility.yul\":39375:39477   */\n      swap2\n      pop\n        /* \"#utility.yul\":39494:39642   */\n      tag_514\n        /* \"#utility.yul\":39638:39641   */\n      dup3\n        /* \"#utility.yul\":39494:39642   */\n      tag_204\n      jump\t// in\n    tag_514:\n        /* \"#utility.yul\":39487:39642   */\n      swap2\n      pop\n        /* \"#utility.yul\":39659:39807   */\n      tag_515\n        /* \"#utility.yul\":39803:39806   */\n      dup3\n        /* \"#utility.yul\":39659:39807   */\n      tag_198\n      jump\t// in\n    tag_515:\n        /* \"#utility.yul\":39652:39807   */\n      swap2\n      pop\n        /* \"#utility.yul\":39824:39919   */\n      tag_516\n        /* \"#utility.yul\":39915:39918   */\n      dup3\n        /* \"#utility.yul\":39906:39912   */\n      dup7\n        /* \"#utility.yul\":39824:39919   */\n      tag_172\n      jump\t// in\n    tag_516:\n        /* \"#utility.yul\":39817:39919   */\n      swap2\n      pop\n        /* \"#utility.yul\":39936:40084   */\n      tag_517\n        /* \"#utility.yul\":40080:40083   */\n      dup3\n        /* \"#utility.yul\":39936:40084   */\n      tag_202\n      jump\t// in\n    tag_517:\n        /* \"#utility.yul\":39929:40084   */\n      swap2\n      pop\n        /* \"#utility.yul\":40101:40196   */\n      tag_518\n        /* \"#utility.yul\":40192:40195   */\n      dup3\n        /* \"#utility.yul\":40183:40189   */\n      dup6\n        /* \"#utility.yul\":40101:40196   */\n      tag_172\n      jump\t// in\n    tag_518:\n        /* \"#utility.yul\":40094:40196   */\n      swap2\n      pop\n        /* \"#utility.yul\":40213:40361   */\n      tag_519\n        /* \"#utility.yul\":40357:40360   */\n      dup3\n        /* \"#utility.yul\":40213:40361   */\n      tag_204\n      jump\t// in\n    tag_519:\n        /* \"#utility.yul\":40206:40361   */\n      swap2\n      pop\n        /* \"#utility.yul\":40378:40526   */\n      tag_520\n        /* \"#utility.yul\":40522:40525   */\n      dup3\n        /* \"#utility.yul\":40378:40526   */\n      tag_206\n      jump\t// in\n    tag_520:\n        /* \"#utility.yul\":40371:40526   */\n      swap2\n      pop\n        /* \"#utility.yul\":40543:40638   */\n      tag_521\n        /* \"#utility.yul\":40634:40637   */\n      dup3\n        /* \"#utility.yul\":40625:40631   */\n      dup5\n        /* \"#utility.yul\":40543:40638   */\n      tag_172\n      jump\t// in\n    tag_521:\n        /* \"#utility.yul\":40536:40638   */\n      swap2\n      pop\n        /* \"#utility.yul\":40655:40803   */\n      tag_522\n        /* \"#utility.yul\":40799:40802   */\n      dup3\n        /* \"#utility.yul\":40655:40803   */\n      tag_204\n      jump\t// in\n    tag_522:\n        /* \"#utility.yul\":40648:40803   */\n      swap2\n      pop\n        /* \"#utility.yul\":40820:40823   */\n      dup2\n        /* \"#utility.yul\":40813:40823   */\n      swap1\n      pop\n        /* \"#utility.yul\":37094:40829   */\n      swap8\n      swap7\n      pop\n      pop\n      pop\n      pop\n      pop\n      pop\n      pop\n      jump\t// out\n        /* \"#utility.yul\":40835:50935   */\n    tag_207:\n        /* \"#utility.yul\":40975:41041   */\n      0x3c7376672066696c6c3d222330303030303022206865696768743d2238303070\n        /* \"#utility.yul\":40971:40972   */\n      0x00\n        /* \"#utility.yul\":40963:40969   */\n      dup3\n        /* \"#utility.yul\":40959:40973   */\n      add\n        /* \"#utility.yul\":40952:41042   */\n      mstore\n        /* \"#utility.yul\":41076:41142   */\n      0x78222077696474683d223830307078222076657273696f6e3d22312e31222069\n        /* \"#utility.yul\":41071:41073   */\n      0x20\n        /* \"#utility.yul\":41063:41069   */\n      dup3\n        /* \"#utility.yul\":41059:41074   */\n      add\n        /* \"#utility.yul\":41052:41143   */\n      mstore\n        /* \"#utility.yul\":41177:41243   */\n      0x643d224c617965725f312220786d6c6e733d22687474703a2f2f7777772e7733\n        /* \"#utility.yul\":41172:41174   */\n      0x40\n        /* \"#utility.yul\":41164:41170   */\n      dup3\n        /* \"#utility.yul\":41160:41175   */\n      add\n        /* \"#utility.yul\":41153:41244   */\n      mstore\n        /* \"#utility.yul\":41278:41344   */\n      0x2e6f72672f323030302f7376672220786d6c6e733a786c696e6b3d2268747470\n        /* \"#utility.yul\":41273:41275   */\n      0x60\n        /* \"#utility.yul\":41265:41271   */\n      dup3\n        /* \"#utility.yul\":41261:41276   */\n      add\n        /* \"#utility.yul\":41254:41345   */\n      mstore\n        /* \"#utility.yul\":41380:41446   */\n      0x3a2f2f7777772e77332e6f72672f313939392f786c696e6b222076696577426f\n        /* \"#utility.yul\":41374:41377   */\n      0x80\n        /* \"#utility.yul\":41366:41372   */\n      dup3\n        /* \"#utility.yul\":41362:41378   */\n      add\n        /* \"#utility.yul\":41355:41447   */\n      mstore\n        /* \"#utility.yul\":41482:41548   */\n      0x783d2230203020353132203531322220786d6c3a73706163653d227072657365\n        /* \"#utility.yul\":41476:41479   */\n      0xa0\n        /* \"#utility.yul\":41468:41474   */\n      dup3\n        /* \"#utility.yul\":41464:41480   */\n      add\n        /* \"#utility.yul\":41457:41549   */\n      mstore\n        /* \"#utility.yul\":41584:41650   */\n      0x727665223e3c673e3c673e3c7061746820643d224d3531312e36353920333038\n        /* \"#utility.yul\":41578:41581   */\n      0xc0\n        /* \"#utility.yul\":41570:41576   */\n      dup3\n        /* \"#utility.yul\":41566:41582   */\n      add\n        /* \"#utility.yul\":41559:41651   */\n      mstore\n        /* \"#utility.yul\":41686:41720   */\n      0x2e38373461382e36323520382e363235203020302030202d352e303039202d35\n        /* \"#utility.yul\":41680:41683   */\n      0xe0\n        /* \"#utility.yul\":41672:41678   */\n      dup3\n        /* \"#utility.yul\":41668:41684   */\n      add\n        /* \"#utility.yul\":41661:41721   */\n      mstore\n        /* \"#utility.yul\":41756:41790   */\n      0x2e353737632d32322e363433202d392e323932202d34312e373132202d32322e\n        /* \"#utility.yul\":41750:41753   */\n      0x0100\n        /* \"#utility.yul\":41742:41748   */\n      dup3\n        /* \"#utility.yul\":41738:41754   */\n      add\n        /* \"#utility.yul\":41731:41791   */\n      mstore\n        /* \"#utility.yul\":41826:41860   */\n      0x343437202d35362e363735202d33392e303938202d33312e353639202d33352e\n        /* \"#utility.yul\":41820:41823   */\n      0x0120\n        /* \"#utility.yul\":41812:41818   */\n      dup3\n        /* \"#utility.yul\":41808:41824   */\n      add\n        /* \"#utility.yul\":41801:41861   */\n      mstore\n        /* \"#utility.yul\":41896:41930   */\n      0x313332202d33372e373135202d38372e313931202d31352e323935202d313239\n        /* \"#utility.yul\":41890:41893   */\n      0x0140\n        /* \"#utility.yul\":41882:41888   */\n      dup3\n        /* \"#utility.yul\":41878:41894   */\n      add\n        /* \"#utility.yul\":41871:41931   */\n      mstore\n        /* \"#utility.yul\":41966:42000   */\n      0x2e35343161382e36323220382e363232203020302030202d362e333433202d31\n        /* \"#utility.yul\":41960:41963   */\n      0x0160\n        /* \"#utility.yul\":41952:41958   */\n      dup3\n        /* \"#utility.yul\":41948:41964   */\n      add\n        /* \"#utility.yul\":41941:42001   */\n      mstore\n        /* \"#utility.yul\":42036:42070   */\n      0x322e353634632d33332e383131202d352e303733202d35372e34323720342e34\n        /* \"#utility.yul\":42030:42033   */\n      0x0180\n        /* \"#utility.yul\":42022:42028   */\n      dup3\n        /* \"#utility.yul\":42018:42034   */\n      add\n        /* \"#utility.yul\":42011:42071   */\n      mstore\n        /* \"#utility.yul\":42106:42140   */\n      0x3038202d37302e3833332031322e3731396c2d352e303032202d34322e353137\n        /* \"#utility.yul\":42100:42103   */\n      0x01a0\n        /* \"#utility.yul\":42092:42098   */\n      dup3\n        /* \"#utility.yul\":42088:42104   */\n      add\n        /* \"#utility.yul\":42081:42141   */\n      mstore\n        /* \"#utility.yul\":42176:42210   */\n      0x61382e363220382e3632203020302030202d332e353731202d362e3032342038\n        /* \"#utility.yul\":42170:42173   */\n      0x01c0\n        /* \"#utility.yul\":42162:42168   */\n      dup3\n        /* \"#utility.yul\":42158:42174   */\n      add\n        /* \"#utility.yul\":42151:42211   */\n      mstore\n        /* \"#utility.yul\":42246:42280   */\n      0x2e363320382e3633203020302030202d362e383635202d312e333838632d3330\n        /* \"#utility.yul\":42240:42243   */\n      0x01e0\n        /* \"#utility.yul\":42232:42238   */\n      dup3\n        /* \"#utility.yul\":42228:42244   */\n      add\n        /* \"#utility.yul\":42221:42281   */\n      mstore\n        /* \"#utility.yul\":42316:42350   */\n      0x2e323520362e373232202d35322e3336312032362e313031202d36352e303731\n        /* \"#utility.yul\":42310:42313   */\n      0x0200\n        /* \"#utility.yul\":42302:42308   */\n      dup3\n        /* \"#utility.yul\":42298:42314   */\n      add\n        /* \"#utility.yul\":42291:42351   */\n      mstore\n        /* \"#utility.yul\":42386:42420   */\n      0x2034302e336c2d362e383334202d33392e32393561382e36323520382e363235\n        /* \"#utility.yul\":42380:42383   */\n      0x0220\n        /* \"#utility.yul\":42372:42378   */\n      dup3\n        /* \"#utility.yul\":42368:42384   */\n      add\n        /* \"#utility.yul\":42361:42421   */\n      mstore\n        /* \"#utility.yul\":42456:42490   */\n      0x203020302030202d31312e393938202d362e343035632d32392e313138203132\n        /* \"#utility.yul\":42450:42453   */\n      0x0240\n        /* \"#utility.yul\":42442:42448   */\n      dup3\n        /* \"#utility.yul\":42438:42454   */\n      add\n        /* \"#utility.yul\":42431:42491   */\n      mstore\n        /* \"#utility.yul\":42526:42560   */\n      0x2e393431202d34392e3331382033392e353836202d36312e3032332035392e33\n        /* \"#utility.yul\":42520:42523   */\n      0x0260\n        /* \"#utility.yul\":42512:42518   */\n      dup3\n        /* \"#utility.yul\":42508:42524   */\n      add\n        /* \"#utility.yul\":42501:42561   */\n      mstore\n        /* \"#utility.yul\":42596:42630   */\n      0x35356c2d372e353433202d34352e32353961382e36323920382e363239203020\n        /* \"#utility.yul\":42590:42593   */\n      0x0280\n        /* \"#utility.yul\":42582:42588   */\n      dup3\n        /* \"#utility.yul\":42578:42594   */\n      add\n        /* \"#utility.yul\":42571:42631   */\n      mstore\n        /* \"#utility.yul\":42666:42700   */\n      0x302030202d31312e393635202d362e343834632d32392e3230332031322e3737\n        /* \"#utility.yul\":42660:42663   */\n      0x02a0\n        /* \"#utility.yul\":42652:42658   */\n      dup3\n        /* \"#utility.yul\":42648:42664   */\n      add\n        /* \"#utility.yul\":42641:42701   */\n      mstore\n        /* \"#utility.yul\":42736:42770   */\n      0x35202d34382e3637352035302e303932202d35382e3731382037342e3630336c\n        /* \"#utility.yul\":42730:42733   */\n      0x02c0\n        /* \"#utility.yul\":42722:42728   */\n      dup3\n        /* \"#utility.yul\":42718:42734   */\n      add\n        /* \"#utility.yul\":42711:42771   */\n      mstore\n        /* \"#utility.yul\":42806:42840   */\n      0x2d31322e303339202d33312e36303361382e36323720382e3632372030203020\n        /* \"#utility.yul\":42800:42803   */\n      0x02e0\n        /* \"#utility.yul\":42792:42798   */\n      dup3\n        /* \"#utility.yul\":42788:42804   */\n      add\n        /* \"#utility.yul\":42781:42841   */\n      mstore\n        /* \"#utility.yul\":42876:42910   */\n      0x30202d31342e313539202d332e3032384336382e3331203135312e3437342035\n        /* \"#utility.yul\":42870:42873   */\n      0x0300\n        /* \"#utility.yul\":42862:42868   */\n      dup3\n        /* \"#utility.yul\":42858:42874   */\n      add\n        /* \"#utility.yul\":42851:42911   */\n      mstore\n        /* \"#utility.yul\":42946:42980   */\n      0x382e3534203137372e3737352035342e3633203139352e3131376c2d32302e36\n        /* \"#utility.yul\":42940:42943   */\n      0x0320\n        /* \"#utility.yul\":42932:42938   */\n      dup3\n        /* \"#utility.yul\":42928:42944   */\n      add\n        /* \"#utility.yul\":42921:42981   */\n      mstore\n        /* \"#utility.yul\":43016:43050   */\n      0x3732202d32322e37393261382e36323620382e363236203020302030202d3133\n        /* \"#utility.yul\":43010:43013   */\n      0x0340\n        /* \"#utility.yul\":43002:43008   */\n      dup3\n        /* \"#utility.yul\":42998:43014   */\n      add\n        /* \"#utility.yul\":42991:43051   */\n      mstore\n        /* \"#utility.yul\":43086:43120   */\n      0x2e38383720312e35333443322e373731203230342e333036202d322e32353420\n        /* \"#utility.yul\":43080:43083   */\n      0x0360\n        /* \"#utility.yul\":43072:43078   */\n      dup3\n        /* \"#utility.yul\":43068:43084   */\n      add\n        /* \"#utility.yul\":43061:43121   */\n      mstore\n        /* \"#utility.yul\":43156:43190   */\n      0x3232352e33343520302e383732203235342e32363163332e3638352033342e30\n        /* \"#utility.yul\":43150:43153   */\n      0x0380\n        /* \"#utility.yul\":43142:43148   */\n      dup3\n        /* \"#utility.yul\":43138:43154   */\n      add\n        /* \"#utility.yul\":43131:43191   */\n      mstore\n        /* \"#utility.yul\":43226:43260   */\n      0x38332031382e3537382036352e3032322034312e3331312038382e383633202d\n        /* \"#utility.yul\":43220:43223   */\n      0x03a0\n        /* \"#utility.yul\":43212:43218   */\n      dup3\n        /* \"#utility.yul\":43208:43224   */\n      add\n        /* \"#utility.yul\":43201:43261   */\n      mstore\n        /* \"#utility.yul\":43296:43330   */\n      0x362e3138312032322e353133202d32342e3737342033372e383434202d32342e\n        /* \"#utility.yul\":43290:43293   */\n      0x03c0\n        /* \"#utility.yul\":43282:43288   */\n      dup3\n        /* \"#utility.yul\":43278:43294   */\n      add\n        /* \"#utility.yul\":43271:43331   */\n      mstore\n        /* \"#utility.yul\":43366:43400   */\n      0x3935382033372e39393361382e36323320382e36323320302030203020342e31\n        /* \"#utility.yul\":43360:43363   */\n      0x03e0\n        /* \"#utility.yul\":43352:43358   */\n      dup3\n        /* \"#utility.yul\":43348:43364   */\n      add\n        /* \"#utility.yul\":43341:43401   */\n      mstore\n        /* \"#utility.yul\":43437:43471   */\n      0x38392031352e32353763322e39343420302e34323120352e38363420302e3631\n        /* \"#utility.yul\":43430:43434   */\n      0x0400\n        /* \"#utility.yul\":43422:43428   */\n      dup3\n        /* \"#utility.yul\":43418:43435   */\n      add\n        /* \"#utility.yul\":43411:43472   */\n      mstore\n        /* \"#utility.yul\":43508:43542   */\n      0x3320382e37353320302e3631332032342e39323820302034372e323732202d31\n        /* \"#utility.yul\":43501:43505   */\n      0x0420\n        /* \"#utility.yul\":43493:43499   */\n      dup3\n        /* \"#utility.yul\":43489:43506   */\n      add\n        /* \"#utility.yul\":43482:43543   */\n      mstore\n        /* \"#utility.yul\":43579:43613   */\n      0x342e3338332035362e363631202d32312e333734613135362e34353120313536\n        /* \"#utility.yul\":43572:43576   */\n      0x0440\n        /* \"#utility.yul\":43564:43570   */\n      dup3\n        /* \"#utility.yul\":43560:43577   */\n      add\n        /* \"#utility.yul\":43553:43614   */\n      mstore\n        /* \"#utility.yul\":43650:43684   */\n      0x2e3435312030203020302031362e38373920362e3938347632332e3131396330\n        /* \"#utility.yul\":43643:43647   */\n      0x0460\n        /* \"#utility.yul\":43635:43641   */\n      dup3\n        /* \"#utility.yul\":43631:43648   */\n      add\n        /* \"#utility.yul\":43624:43685   */\n      mstore\n        /* \"#utility.yul\":43721:43755   */\n      0x2031342e3734392031312e3330322032362e3833342032352e37332032372e35\n        /* \"#utility.yul\":43714:43718   */\n      0x0480\n        /* \"#utility.yul\":43706:43712   */\n      dup3\n        /* \"#utility.yul\":43702:43719   */\n      add\n        /* \"#utility.yul\":43695:43756   */\n      mstore\n        /* \"#utility.yul\":43792:43826   */\n      0x313320372e34343720302e3334372031342e3535202d322e3239312031392e39\n        /* \"#utility.yul\":43785:43789   */\n      0x04a0\n        /* \"#utility.yul\":43777:43783   */\n      dup3\n        /* \"#utility.yul\":43773:43790   */\n      add\n        /* \"#utility.yul\":43766:43827   */\n      mstore\n        /* \"#utility.yul\":43863:43897   */\n      0x3438202d372e3433396132372e3134392032372e31343920302030203020382e\n        /* \"#utility.yul\":43856:43860   */\n      0x04c0\n        /* \"#utility.yul\":43848:43854   */\n      dup3\n        /* \"#utility.yul\":43844:43861   */\n      add\n        /* \"#utility.yul\":43837:43898   */\n      mstore\n        /* \"#utility.yul\":43934:43968   */\n      0x333732202d31392e353535762d31352e3038316831372e33357631342e353631\n        /* \"#utility.yul\":43927:43931   */\n      0x04e0\n        /* \"#utility.yul\":43919:43925   */\n      dup3\n        /* \"#utility.yul\":43915:43932   */\n      add\n        /* \"#utility.yul\":43908:43969   */\n      mstore\n        /* \"#utility.yul\":44005:44039   */\n      0x63302031342e3734392031312e3330322032362e3833342032352e3733203237\n        /* \"#utility.yul\":43998:44002   */\n      0x0500\n        /* \"#utility.yul\":43990:43996   */\n      dup3\n        /* \"#utility.yul\":43986:44003   */\n      add\n        /* \"#utility.yul\":43979:44040   */\n      mstore\n        /* \"#utility.yul\":44076:44110   */\n      0x2e35313320372e34343720302e3334372031342e3535202d322e323931203139\n        /* \"#utility.yul\":44069:44073   */\n      0x0520\n        /* \"#utility.yul\":44061:44067   */\n      dup3\n        /* \"#utility.yul\":44057:44074   */\n      add\n        /* \"#utility.yul\":44050:44111   */\n      mstore\n        /* \"#utility.yul\":44147:44181   */\n      0x2e393438202d372e3433396132372e3134392032372e31343920302030203020\n        /* \"#utility.yul\":44140:44144   */\n      0x0540\n        /* \"#utility.yul\":44132:44138   */\n      dup3\n        /* \"#utility.yul\":44128:44145   */\n      add\n        /* \"#utility.yul\":44121:44182   */\n      mstore\n        /* \"#utility.yul\":44218:44252   */\n      0x382e333732202d31392e353535762d31352e3038316831372e3334397631342e\n        /* \"#utility.yul\":44211:44215   */\n      0x0560\n        /* \"#utility.yul\":44203:44209   */\n      dup3\n        /* \"#utility.yul\":44199:44216   */\n      add\n        /* \"#utility.yul\":44192:44253   */\n      mstore\n        /* \"#utility.yul\":44289:44323   */\n      0x35363163302031342e3734392031312e3330322032362e3833342032352e3733\n        /* \"#utility.yul\":44282:44286   */\n      0x0580\n        /* \"#utility.yul\":44274:44280   */\n      dup3\n        /* \"#utility.yul\":44270:44287   */\n      add\n        /* \"#utility.yul\":44263:44324   */\n      mstore\n        /* \"#utility.yul\":44360:44394   */\n      0x2032372e35313320372e34353820302e3334372031342e3535202d322e323931\n        /* \"#utility.yul\":44353:44357   */\n      0x05a0\n        /* \"#utility.yul\":44345:44351   */\n      dup3\n        /* \"#utility.yul\":44341:44358   */\n      add\n        /* \"#utility.yul\":44334:44395   */\n      mstore\n        /* \"#utility.yul\":44431:44465   */\n      0x2031392e393438202d372e3433396132372e3134392032372e31343920302030\n        /* \"#utility.yul\":44424:44428   */\n      0x05c0\n        /* \"#utility.yul\":44416:44422   */\n      dup3\n        /* \"#utility.yul\":44412:44429   */\n      add\n        /* \"#utility.yul\":44405:44466   */\n      mstore\n        /* \"#utility.yul\":44502:44536   */\n      0x203020382e333732202d31392e353535762d31352e303831483331372e397631\n        /* \"#utility.yul\":44495:44499   */\n      0x05e0\n        /* \"#utility.yul\":44487:44493   */\n      dup3\n        /* \"#utility.yul\":44483:44500   */\n      add\n        /* \"#utility.yul\":44476:44537   */\n      mstore\n        /* \"#utility.yul\":44573:44607   */\n      0x342e35363163302031342e3734392031312e3330322032362e3833342032352e\n        /* \"#utility.yul\":44566:44570   */\n      0x0600\n        /* \"#utility.yul\":44558:44564   */\n      dup3\n        /* \"#utility.yul\":44554:44571   */\n      add\n        /* \"#utility.yul\":44547:44608   */\n      mstore\n        /* \"#utility.yul\":44644:44678   */\n      0x37332032372e35313320302e343420302e30323120302e383820302e30333120\n        /* \"#utility.yul\":44637:44641   */\n      0x0620\n        /* \"#utility.yul\":44629:44635   */\n      dup3\n        /* \"#utility.yul\":44625:44642   */\n      add\n        /* \"#utility.yul\":44618:44679   */\n      mstore\n        /* \"#utility.yul\":44715:44749   */\n      0x312e33313820302e30333120362e39373920302031332e353531202d322e3632\n        /* \"#utility.yul\":44708:44712   */\n      0x0640\n        /* \"#utility.yul\":44700:44706   */\n      dup3\n        /* \"#utility.yul\":44696:44713   */\n      add\n        /* \"#utility.yul\":44689:44750   */\n      mstore\n        /* \"#utility.yul\":44786:44820   */\n      0x352031382e3633202d372e3436396132372e3134392032372e31343920302030\n        /* \"#utility.yul\":44779:44783   */\n      0x0660\n        /* \"#utility.yul\":44771:44777   */\n      dup3\n        /* \"#utility.yul\":44767:44784   */\n      add\n        /* \"#utility.yul\":44760:44821   */\n      mstore\n        /* \"#utility.yul\":44857:44891   */\n      0x203020382e333732202d31392e353535563339302e356333342e393935202d33\n        /* \"#utility.yul\":44850:44854   */\n      0x0680\n        /* \"#utility.yul\":44842:44848   */\n      dup3\n        /* \"#utility.yul\":44838:44855   */\n      add\n        /* \"#utility.yul\":44831:44892   */\n      mstore\n        /* \"#utility.yul\":44928:44962   */\n      0x2e3034332036392e313638202d31352e3939322039392e333138202d33372e37\n        /* \"#utility.yul\":44921:44925   */\n      0x06a0\n        /* \"#utility.yul\":44913:44919   */\n      dup3\n        /* \"#utility.yul\":44909:44926   */\n      add\n        /* \"#utility.yul\":44902:44963   */\n      mstore\n        /* \"#utility.yul\":44999:45033   */\n      0x30362032352e343534202d31382e3333312033392e3032202d33362e33362033\n        /* \"#utility.yul\":44992:44996   */\n      0x06c0\n        /* \"#utility.yul\":44984:44990   */\n      dup3\n        /* \"#utility.yul\":44980:44997   */\n      add\n        /* \"#utility.yul\":44973:45034   */\n      mstore\n        /* \"#utility.yul\":45070:45104   */\n      0x392e313431202d33362e35333161382e36313720382e36313720302030203020\n        /* \"#utility.yul\":45063:45067   */\n      0x06e0\n        /* \"#utility.yul\":45055:45061   */\n      dup3\n        /* \"#utility.yul\":45051:45068   */\n      add\n        /* \"#utility.yul\":45044:45105   */\n      mstore\n        /* \"#utility.yul\":45141:45175   */\n      0x312e3235202d372e3338397a4d34332e343738203337382e30363863342e3530\n        /* \"#utility.yul\":45134:45138   */\n      0x0700\n        /* \"#utility.yul\":45126:45132   */\n      dup3\n        /* \"#utility.yul\":45122:45139   */\n      add\n        /* \"#utility.yul\":45115:45176   */\n      mstore\n        /* \"#utility.yul\":45212:45246   */\n      0x37202d352e39383520392e313236202d31332e3433392031322e353533202d32\n        /* \"#utility.yul\":45205:45209   */\n      0x0720\n        /* \"#utility.yul\":45197:45203   */\n      dup3\n        /* \"#utility.yul\":45193:45210   */\n      add\n        /* \"#utility.yul\":45186:45247   */\n      mstore\n        /* \"#utility.yul\":45283:45317   */\n      0x322e303737613135342e333036203135342e3330362030203020302031342e30\n        /* \"#utility.yul\":45276:45280   */\n      0x0740\n        /* \"#utility.yul\":45268:45274   */\n      dup3\n        /* \"#utility.yul\":45264:45281   */\n      add\n        /* \"#utility.yul\":45257:45318   */\n      mstore\n        /* \"#utility.yul\":45354:45388   */\n      0x34362031302e323236632d362e36383220342e323632202d31362e3132322039\n        /* \"#utility.yul\":45347:45351   */\n      0x0760\n        /* \"#utility.yul\":45339:45345   */\n      dup3\n        /* \"#utility.yul\":45335:45352   */\n      add\n        /* \"#utility.yul\":45328:45389   */\n      mstore\n        /* \"#utility.yul\":45425:45459   */\n      0x2e323933202d32362e3539392031312e3835317a6d33352e393632202d32362e\n        /* \"#utility.yul\":45418:45422   */\n      0x0780\n        /* \"#utility.yul\":45410:45416   */\n      dup3\n        /* \"#utility.yul\":45406:45423   */\n      add\n        /* \"#utility.yul\":45399:45460   */\n      mstore\n        /* \"#utility.yul\":45496:45530   */\n      0x333532632d33332e393638202d32312e393533202d35362e393535202d35382e\n        /* \"#utility.yul\":45489:45493   */\n      0x07a0\n        /* \"#utility.yul\":45481:45487   */\n      dup3\n        /* \"#utility.yul\":45477:45494   */\n      add\n        /* \"#utility.yul\":45470:45531   */\n      mstore\n        /* \"#utility.yul\":45567:45601   */\n      0x303434202d36312e343136202d39392e333133202d322e333532202d32312e37\n        /* \"#utility.yul\":45560:45564   */\n      0x07c0\n        /* \"#utility.yul\":45552:45558   */\n      dup3\n        /* \"#utility.yul\":45548:45565   */\n      add\n        /* \"#utility.yul\":45541:45602   */\n      mstore\n        /* \"#utility.yul\":45638:45672   */\n      0x333220302e353435202d33372e3838352031312e333631202d35392e3434326c\n        /* \"#utility.yul\":45631:45635   */\n      0x07e0\n        /* \"#utility.yul\":45623:45629   */\n      dup3\n        /* \"#utility.yul\":45619:45636   */\n      add\n        /* \"#utility.yul\":45612:45673   */\n      mstore\n        /* \"#utility.yul\":45709:45743   */\n      0x32342e3837332032372e34323461382e36313920382e36313920302030203020\n        /* \"#utility.yul\":45702:45706   */\n      0x0800\n        /* \"#utility.yul\":45694:45700   */\n      dup3\n        /* \"#utility.yul\":45690:45707   */\n      add\n        /* \"#utility.yul\":45683:45744   */\n      mstore\n        /* \"#utility.yul\":45780:45814   */\n      0x392e34363720322e32343820382e36343220382e36343220302030203020352e\n        /* \"#utility.yul\":45773:45777   */\n      0x0820\n        /* \"#utility.yul\":45765:45771   */\n      dup3\n        /* \"#utility.yul\":45761:45778   */\n      add\n        /* \"#utility.yul\":45754:45815   */\n      mstore\n        /* \"#utility.yul\":45851:45885   */\n      0x353436202d382e30313463302e303032202d302e33363120302e3535202d3333\n        /* \"#utility.yul\":45844:45848   */\n      0x0840\n        /* \"#utility.yul\":45836:45842   */\n      dup3\n        /* \"#utility.yul\":45832:45849   */\n      add\n        /* \"#utility.yul\":45825:45886   */\n      mstore\n        /* \"#utility.yul\":45922:45956   */\n      0x2e3038352032362e353034202d36352e3230336c31352e3333352034302e3235\n        /* \"#utility.yul\":45915:45919   */\n      0x0860\n        /* \"#utility.yul\":45907:45913   */\n      dup3\n        /* \"#utility.yul\":45903:45920   */\n      add\n        /* \"#utility.yul\":45896:45957   */\n      mstore\n        /* \"#utility.yul\":45993:46027   */\n      0x3563312e33323120332e34363820342e37313820352e37313820382e34323220\n        /* \"#utility.yul\":45986:45990   */\n      0x0880\n        /* \"#utility.yul\":45978:45984   */\n      dup3\n        /* \"#utility.yul\":45974:45991   */\n      add\n        /* \"#utility.yul\":45967:46028   */\n      mstore\n        /* \"#utility.yul\":46064:46098   */\n      0x352e35343661382e36323520382e36323520302030203020372e393237202d36\n        /* \"#utility.yul\":46057:46061   */\n      0x08a0\n        /* \"#utility.yul\":46049:46055   */\n      dup3\n        /* \"#utility.yul\":46045:46062   */\n      add\n        /* \"#utility.yul\":46038:46099   */\n      mstore\n        /* \"#utility.yul\":46135:46169   */\n      0x2e32333563302e303532202d302e31373720352e313934202d31372e39303320\n        /* \"#utility.yul\":46128:46132   */\n      0x08c0\n        /* \"#utility.yul\":46120:46126   */\n      dup3\n        /* \"#utility.yul\":46116:46133   */\n      add\n        /* \"#utility.yul\":46109:46170   */\n      mstore\n        /* \"#utility.yul\":46206:46240   */\n      0x31352e313038202d33372e36333120392e383332202d31392e3536342032302e\n        /* \"#utility.yul\":46199:46203   */\n      0x08e0\n        /* \"#utility.yul\":46191:46197   */\n      dup3\n        /* \"#utility.yul\":46187:46204   */\n      add\n        /* \"#utility.yul\":46180:46241   */\n      mstore\n        /* \"#utility.yul\":46277:46311   */\n      0x373639202d33342e3033312033322e303735202d34322e3535396c392e383131\n        /* \"#utility.yul\":46270:46274   */\n      0x0900\n        /* \"#utility.yul\":46262:46268   */\n      dup3\n        /* \"#utility.yul\":46258:46275   */\n      add\n        /* \"#utility.yul\":46251:46312   */\n      mstore\n        /* \"#utility.yul\":46348:46382   */\n      0x2035382e38363961382e36323420382e36323420302030203020372e36303720\n        /* \"#utility.yul\":46341:46345   */\n      0x0920\n        /* \"#utility.yul\":46333:46339   */\n      dup3\n        /* \"#utility.yul\":46329:46346   */\n      add\n        /* \"#utility.yul\":46322:46383   */\n      mstore\n        /* \"#utility.yul\":46419:46453   */\n      0x372e31353620382e36323420382e36323420302030203020382e3933202d352e\n        /* \"#utility.yul\":46412:46416   */\n      0x0940\n        /* \"#utility.yul\":46404:46410   */\n      dup3\n        /* \"#utility.yul\":46400:46417   */\n      add\n        /* \"#utility.yul\":46393:46454   */\n      mstore\n        /* \"#utility.yul\":46490:46524   */\n      0x34323363302e32202d302e3530372031382e373538202d34362e383138203534\n        /* \"#utility.yul\":46483:46487   */\n      0x0960\n        /* \"#utility.yul\":46475:46481   */\n      dup3\n        /* \"#utility.yul\":46471:46488   */\n      add\n        /* \"#utility.yul\":46464:46525   */\n      mstore\n        /* \"#utility.yul\":46561:46595   */\n      0x2e323132202d36382e3834396c382e3134332034362e383261382e3632342038\n        /* \"#utility.yul\":46554:46558   */\n      0x0980\n        /* \"#utility.yul\":46546:46552   */\n      dup3\n        /* \"#utility.yul\":46542:46559   */\n      add\n        /* \"#utility.yul\":46535:46596   */\n      mstore\n        /* \"#utility.yul\":46632:46666   */\n      0x2e3632342030203020302031352e38323720332e30363763302e323235202d30\n        /* \"#utility.yul\":46625:46629   */\n      0x09a0\n        /* \"#utility.yul\":46617:46623   */\n      dup3\n        /* \"#utility.yul\":46613:46630   */\n      add\n        /* \"#utility.yul\":46606:46667   */\n      mstore\n        /* \"#utility.yul\":46703:46737   */\n      0x2e3336332032312e3235202d33332e3639392035372e333738202d34362e3039\n        /* \"#utility.yul\":46696:46700   */\n      0x09c0\n        /* \"#utility.yul\":46688:46694   */\n      dup3\n        /* \"#utility.yul\":46684:46701   */\n      add\n        /* \"#utility.yul\":46677:46738   */\n      mstore\n        /* \"#utility.yul\":46774:46808   */\n      0x396c352e3630362034372e36353261382e36323320382e363233203020302030\n        /* \"#utility.yul\":46767:46771   */\n      0x09e0\n        /* \"#utility.yul\":46759:46765   */\n      dup3\n        /* \"#utility.yul\":46755:46772   */\n      add\n        /* \"#utility.yul\":46748:46809   */\n      mstore\n        /* \"#utility.yul\":46845:46879   */\n      0x2031342e39343820342e37393363302e323034202d302e3232342031382e3937\n        /* \"#utility.yul\":46838:46842   */\n      0x0a00\n        /* \"#utility.yul\":46830:46836   */\n      dup3\n        /* \"#utility.yul\":46826:46843   */\n      add\n        /* \"#utility.yul\":46819:46880   */\n      mstore\n        /* \"#utility.yul\":46916:46950   */\n      0x34202d32302e3336372035362e393631202d31382e373633202d392e39303820\n        /* \"#utility.yul\":46909:46913   */\n      0x0a20\n        /* \"#utility.yul\":46901:46907   */\n      dup3\n        /* \"#utility.yul\":46897:46914   */\n      add\n        /* \"#utility.yul\":46890:46951   */\n      mstore\n        /* \"#utility.yul\":46987:47021   */\n      0x32342e303034202d31322e3335372035302e303235202d372e37382037342e37\n        /* \"#utility.yul\":46980:46984   */\n      0x0a40\n        /* \"#utility.yul\":46972:46978   */\n      dup3\n        /* \"#utility.yul\":46968:46985   */\n      add\n        /* \"#utility.yul\":46961:47022   */\n      mstore\n        /* \"#utility.yul\":47058:47092   */\n      0x3332202d32342e323239202d362e303938202d34332e333832202d302e323034\n        /* \"#utility.yul\":47051:47055   */\n      0x0a60\n        /* \"#utility.yul\":47043:47049   */\n      dup3\n        /* \"#utility.yul\":47039:47056   */\n      add\n        /* \"#utility.yul\":47032:47093   */\n      mstore\n        /* \"#utility.yul\":47129:47163   */\n      0x202d35342e37393620352e343735202d352e363238202d31342e373338202d31\n        /* \"#utility.yul\":47122:47126   */\n      0x0a80\n        /* \"#utility.yul\":47114:47120   */\n      dup3\n        /* \"#utility.yul\":47110:47127   */\n      add\n        /* \"#utility.yul\":47103:47164   */\n      mstore\n        /* \"#utility.yul\":47200:47234   */\n      0x392e393132202d32352e323333202d33362e363033202d32352e323333202d32\n        /* \"#utility.yul\":47193:47197   */\n      0x0aa0\n        /* \"#utility.yul\":47185:47191   */\n      dup3\n        /* \"#utility.yul\":47181:47198   */\n      add\n        /* \"#utility.yul\":47174:47235   */\n      mstore\n        /* \"#utility.yul\":47271:47305   */\n      0x312e3539322030202d33392e31362031372e353637202d33392e31362033392e\n        /* \"#utility.yul\":47264:47268   */\n      0x0ac0\n        /* \"#utility.yul\":47256:47262   */\n      dup3\n        /* \"#utility.yul\":47252:47269   */\n      add\n        /* \"#utility.yul\":47245:47306   */\n      mstore\n        /* \"#utility.yul\":47342:47376   */\n      0x31366133382e39342033382e393420302030203020362e3233362032312e3138\n        /* \"#utility.yul\":47335:47339   */\n      0x0ae0\n        /* \"#utility.yul\":47327:47333   */\n      dup3\n        /* \"#utility.yul\":47323:47340   */\n      add\n        /* \"#utility.yul\":47316:47377   */\n      mstore\n        /* \"#utility.yul\":47413:47447   */\n      0x33632d32302e39363120302e323837202d34392e34313220312e393732202d37\n        /* \"#utility.yul\":47406:47410   */\n      0x0b00\n        /* \"#utility.yul\":47398:47404   */\n      dup3\n        /* \"#utility.yul\":47394:47411   */\n      add\n        /* \"#utility.yul\":47387:47448   */\n      mstore\n        /* \"#utility.yul\":47484:47518   */\n      0x382e35333720372e363233202d37302e3537342031332e363936202d3131332e\n        /* \"#utility.yul\":47477:47481   */\n      0x0b20\n        /* \"#utility.yul\":47469:47475   */\n      dup3\n        /* \"#utility.yul\":47465:47482   */\n      add\n        /* \"#utility.yul\":47458:47519   */\n      mstore\n        /* \"#utility.yul\":47555:47589   */\n      0x3039392034342e393532202d3132332e3938352039302e3736317a6d3133322e\n        /* \"#utility.yul\":47548:47552   */\n      0x0b40\n        /* \"#utility.yul\":47540:47546   */\n      dup3\n        /* \"#utility.yul\":47536:47553   */\n      add\n        /* \"#utility.yul\":47529:47590   */\n      mstore\n        /* \"#utility.yul\":47626:47660   */\n      0x3436352035342e353261392e36393220392e363932203020302031202d332e30\n        /* \"#utility.yul\":47619:47623   */\n      0x0b60\n        /* \"#utility.yul\":47611:47617   */\n      dup3\n        /* \"#utility.yul\":47607:47624   */\n      add\n        /* \"#utility.yul\":47600:47661   */\n      mstore\n        /* \"#utility.yul\":47697:47731   */\n      0x3320372e30373520392e363820392e3638203020302031202d372e3232392032\n        /* \"#utility.yul\":47690:47694   */\n      0x0b80\n        /* \"#utility.yul\":47682:47688   */\n      dup3\n        /* \"#utility.yul\":47678:47695   */\n      add\n        /* \"#utility.yul\":47671:47732   */\n      mstore\n        /* \"#utility.yul\":47768:47802   */\n      0x2e363839632d352e313233202d302e323432202d392e323931202d342e383534\n        /* \"#utility.yul\":47761:47765   */\n      0x0ba0\n        /* \"#utility.yul\":47753:47759   */\n      dup3\n        /* \"#utility.yul\":47749:47766   */\n      add\n        /* \"#utility.yul\":47742:47803   */\n      mstore\n        /* \"#utility.yul\":47839:47873   */\n      0x202d392e323931202d31302e323833762d31342e3536316831392e3535763135\n        /* \"#utility.yul\":47832:47836   */\n      0x0bc0\n        /* \"#utility.yul\":47824:47830   */\n      dup3\n        /* \"#utility.yul\":47820:47837   */\n      add\n        /* \"#utility.yul\":47813:47874   */\n      mstore\n        /* \"#utility.yul\":47910:47944   */\n      0x2e30387a6d3134322e373936202d302e303031633020322e37202d312e303736\n        /* \"#utility.yul\":47903:47907   */\n      0x0be0\n        /* \"#utility.yul\":47895:47901   */\n      dup3\n        /* \"#utility.yul\":47891:47908   */\n      add\n        /* \"#utility.yul\":47884:47945   */\n      mstore\n        /* \"#utility.yul\":47981:48015   */\n      0x20352e323132202d332e303320372e30373661392e37303920392e3730392030\n        /* \"#utility.yul\":47974:47978   */\n      0x0c00\n        /* \"#utility.yul\":47966:47972   */\n      dup3\n        /* \"#utility.yul\":47962:47979   */\n      add\n        /* \"#utility.yul\":47955:48016   */\n      mstore\n        /* \"#utility.yul\":48052:48086   */\n      0x20302031202d372e32323920322e363839632d352e313233202d302e32343220\n        /* \"#utility.yul\":48045:48049   */\n      0x0c20\n        /* \"#utility.yul\":48037:48043   */\n      dup3\n        /* \"#utility.yul\":48033:48050   */\n      add\n        /* \"#utility.yul\":48026:48087   */\n      mstore\n        /* \"#utility.yul\":48123:48157   */\n      0x2d392e323931202d342e383534202d392e323931202d31302e323833762d3134\n        /* \"#utility.yul\":48116:48120   */\n      0x0c40\n        /* \"#utility.yul\":48108:48114   */\n      dup3\n        /* \"#utility.yul\":48104:48121   */\n      add\n        /* \"#utility.yul\":48097:48158   */\n      mstore\n        /* \"#utility.yul\":48194:48228   */\n      0x2e3538386c31392e3535202d302e30367631352e3136367a6d382e333831202d\n        /* \"#utility.yul\":48187:48191   */\n      0x0c60\n        /* \"#utility.yul\":48179:48185   */\n      dup3\n        /* \"#utility.yul\":48175:48192   */\n      add\n        /* \"#utility.yul\":48168:48229   */\n      mstore\n        /* \"#utility.yul\":48265:48299   */\n      0x33322e3434202d37312e31353420302e313161382e36323520382e3632352030\n        /* \"#utility.yul\":48258:48262   */\n      0x0c80\n        /* \"#utility.yul\":48250:48256   */\n      dup3\n        /* \"#utility.yul\":48246:48263   */\n      add\n        /* \"#utility.yul\":48239:48300   */\n      mstore\n        /* \"#utility.yul\":48336:48370   */\n      0x20302030202d382e36323520382e3632357632332e37303661392e3639322039\n        /* \"#utility.yul\":48329:48333   */\n      0x0ca0\n        /* \"#utility.yul\":48321:48327   */\n      dup3\n        /* \"#utility.yul\":48317:48334   */\n      add\n        /* \"#utility.yul\":48310:48371   */\n      mstore\n        /* \"#utility.yul\":48407:48441   */\n      0x2e363932203020302031202d332e303320372e30373520392e37303220392e37\n        /* \"#utility.yul\":48400:48404   */\n      0x0cc0\n        /* \"#utility.yul\":48392:48398   */\n      dup3\n        /* \"#utility.yul\":48388:48405   */\n      add\n        /* \"#utility.yul\":48381:48442   */\n      mstore\n        /* \"#utility.yul\":48478:48512   */\n      0x3032203020302031202d372e32323920322e363839632d352e313233202d302e\n        /* \"#utility.yul\":48471:48475   */\n      0x0ce0\n        /* \"#utility.yul\":48463:48469   */\n      dup3\n        /* \"#utility.yul\":48459:48476   */\n      add\n        /* \"#utility.yul\":48452:48513   */\n      mstore\n        /* \"#utility.yul\":48549:48583   */\n      0x323432202d392e323931202d342e383534202d392e323931202d31302e323833\n        /* \"#utility.yul\":48542:48546   */\n      0x0d00\n        /* \"#utility.yul\":48534:48540   */\n      dup3\n        /* \"#utility.yul\":48530:48547   */\n      add\n        /* \"#utility.yul\":48523:48584   */\n      mstore\n        /* \"#utility.yul\":48620:48654   */\n      0x563338322e353361382e36323520382e363235203020302030202d382e363235\n        /* \"#utility.yul\":48613:48617   */\n      0x0d20\n        /* \"#utility.yul\":48605:48611   */\n      dup3\n        /* \"#utility.yul\":48601:48618   */\n      add\n        /* \"#utility.yul\":48594:48655   */\n      mstore\n        /* \"#utility.yul\":48691:48725   */\n      0x202d382e363235483135342e363135632d312e3535392030202d332e3235202d\n        /* \"#utility.yul\":48684:48688   */\n      0x0d40\n        /* \"#utility.yul\":48676:48682   */\n      dup3\n        /* \"#utility.yul\":48672:48689   */\n      add\n        /* \"#utility.yul\":48665:48726   */\n      mstore\n        /* \"#utility.yul\":48762:48796   */\n      0x302e303334202d352e313635202d302e31303561382e36323420382e36323420\n        /* \"#utility.yul\":48755:48759   */\n      0x0d60\n        /* \"#utility.yul\":48747:48753   */\n      dup3\n        /* \"#utility.yul\":48743:48760   */\n      add\n        /* \"#utility.yul\":48736:48797   */\n      mstore\n        /* \"#utility.yul\":48833:48867   */\n      0x3020302030202d382e39343320382e3631387632332e38313661392e36393220\n        /* \"#utility.yul\":48826:48830   */\n      0x0d80\n        /* \"#utility.yul\":48818:48824   */\n      dup3\n        /* \"#utility.yul\":48814:48831   */\n      add\n        /* \"#utility.yul\":48807:48868   */\n      mstore\n        /* \"#utility.yul\":48904:48938   */\n      0x392e363932203020302031202d332e303320372e30373520392e363720392e36\n        /* \"#utility.yul\":48897:48901   */\n      0x0da0\n        /* \"#utility.yul\":48889:48895   */\n      dup3\n        /* \"#utility.yul\":48885:48902   */\n      add\n        /* \"#utility.yul\":48878:48939   */\n      mstore\n        /* \"#utility.yul\":48975:49009   */\n      0x37203020302031202d372e32323920322e363839632d352e313233202d302e32\n        /* \"#utility.yul\":48968:48972   */\n      0x0dc0\n        /* \"#utility.yul\":48960:48966   */\n      dup3\n        /* \"#utility.yul\":48956:48973   */\n      add\n        /* \"#utility.yul\":48949:49010   */\n      mstore\n        /* \"#utility.yul\":49046:49080   */\n      0x3431202d392e323931202d342e383534202d392e323931202d31302e32383376\n        /* \"#utility.yul\":49039:49043   */\n      0x0de0\n        /* \"#utility.yul\":49031:49037   */\n      dup3\n        /* \"#utility.yul\":49027:49044   */\n      add\n        /* \"#utility.yul\":49020:49081   */\n      mstore\n        /* \"#utility.yul\":49117:49151   */\n      0x2d32392e33393461382e36323520382e363235203020302030202d362e313433\n        /* \"#utility.yul\":49110:49114   */\n      0x0e00\n        /* \"#utility.yul\":49102:49108   */\n      dup3\n        /* \"#utility.yul\":49098:49115   */\n      add\n        /* \"#utility.yul\":49091:49152   */\n      mstore\n        /* \"#utility.yul\":49188:49222   */\n      0x202d382e3236203133392e3334203133392e3334203020302031202d31392e35\n        /* \"#utility.yul\":49181:49185   */\n      0x0e20\n        /* \"#utility.yul\":49173:49179   */\n      dup3\n        /* \"#utility.yul\":49169:49186   */\n      add\n        /* \"#utility.yul\":49162:49223   */\n      mstore\n        /* \"#utility.yul\":49259:49293   */\n      0x3833202d372e3533386331362e373834202d39352e323734203138382e313639\n        /* \"#utility.yul\":49252:49256   */\n      0x0e40\n        /* \"#utility.yul\":49244:49250   */\n      dup3\n        /* \"#utility.yul\":49240:49257   */\n      add\n        /* \"#utility.yul\":49233:49294   */\n      mstore\n        /* \"#utility.yul\":49330:49364   */\n      0x202d39302e373735203231352e3339202d38392e34343220312e34303220302e\n        /* \"#utility.yul\":49323:49327   */\n      0x0e60\n        /* \"#utility.yul\":49315:49321   */\n      dup3\n        /* \"#utility.yul\":49311:49328   */\n      add\n        /* \"#utility.yul\":49304:49365   */\n      mstore\n        /* \"#utility.yul\":49401:49435   */\n      0x31353320322e38323420302e32333120342e32363620302e32333161382e3632\n        /* \"#utility.yul\":49394:49398   */\n      0x0e80\n        /* \"#utility.yul\":49386:49392   */\n      dup3\n        /* \"#utility.yul\":49382:49399   */\n      add\n        /* \"#utility.yul\":49375:49436   */\n      mstore\n        /* \"#utility.yul\":49472:49506   */\n      0x3520382e36323520302030203020302e363436202d31372e323236632d302e33\n        /* \"#utility.yul\":49465:49469   */\n      0x0ea0\n        /* \"#utility.yul\":49457:49463   */\n      dup3\n        /* \"#utility.yul\":49453:49470   */\n      add\n        /* \"#utility.yul\":49446:49507   */\n      mstore\n        /* \"#utility.yul\":49543:49577   */\n      0x3037202d302e303233202d312e353537202d302e313134202d332e363239202d\n        /* \"#utility.yul\":49536:49540   */\n      0x0ec0\n        /* \"#utility.yul\":49528:49534   */\n      dup3\n        /* \"#utility.yul\":49524:49541   */\n      add\n        /* \"#utility.yul\":49517:49578   */\n      mstore\n        /* \"#utility.yul\":49614:49648   */\n      0x302e323237202d31302e363735202d312e3436202d31382e393238202d31302e\n        /* \"#utility.yul\":49607:49611   */\n      0x0ee0\n        /* \"#utility.yul\":49599:49605   */\n      dup3\n        /* \"#utility.yul\":49595:49612   */\n      add\n        /* \"#utility.yul\":49588:49649   */\n      mstore\n        /* \"#utility.yul\":49685:49719   */\n      0x363338202d31382e393238202d32312e3730382030202d31322e30383220392e\n        /* \"#utility.yul\":49678:49682   */\n      0x0f00\n        /* \"#utility.yul\":49670:49676   */\n      dup3\n        /* \"#utility.yul\":49666:49683   */\n      add\n        /* \"#utility.yul\":49659:49720   */\n      mstore\n        /* \"#utility.yul\":49756:49790   */\n      0x383239202d32312e3931312032312e393131202d32312e3931317332312e3931\n        /* \"#utility.yul\":49749:49753   */\n      0x0f20\n        /* \"#utility.yul\":49741:49747   */\n      dup3\n        /* \"#utility.yul\":49737:49754   */\n      add\n        /* \"#utility.yul\":49730:49791   */\n      mstore\n        /* \"#utility.yul\":49827:49861   */\n      0x3220392e3832392032312e3931322032312e393131633020332e33353220312e\n        /* \"#utility.yul\":49820:49824   */\n      0x0f40\n        /* \"#utility.yul\":49812:49818   */\n      dup3\n        /* \"#utility.yul\":49808:49825   */\n      add\n        /* \"#utility.yul\":49801:49862   */\n      mstore\n        /* \"#utility.yul\":49898:49932   */\n      0x39363220362e33383220342e39393920372e37393920332e30333920312e3431\n        /* \"#utility.yul\":49891:49895   */\n      0x0f60\n        /* \"#utility.yul\":49883:49889   */\n      dup3\n        /* \"#utility.yul\":49879:49896   */\n      add\n        /* \"#utility.yul\":49872:49933   */\n      mstore\n        /* \"#utility.yul\":49969:50003   */\n      0x3720362e36343120302e39323820392e323039202d312e32323520312e303220\n        /* \"#utility.yul\":49962:49966   */\n      0x0f80\n        /* \"#utility.yul\":49954:49960   */\n      dup3\n        /* \"#utility.yul\":49950:49967   */\n      add\n        /* \"#utility.yul\":49943:50004   */\n      mstore\n        /* \"#utility.yul\":50040:50074   */\n      0x2d302e3835362032342e3732202d32302e3231322036302e353438202d362e32\n        /* \"#utility.yul\":50033:50037   */\n      0x0fa0\n        /* \"#utility.yul\":50025:50031   */\n      dup3\n        /* \"#utility.yul\":50021:50038   */\n      add\n        /* \"#utility.yul\":50014:50075   */\n      mstore\n        /* \"#utility.yul\":50111:50145   */\n      0x20352e3533372031352e3639352031342e3130322033302e3431382032352e35\n        /* \"#utility.yul\":50104:50108   */\n      0x0fc0\n        /* \"#utility.yul\":50096:50102   */\n      dup3\n        /* \"#utility.yul\":50092:50109   */\n      add\n        /* \"#utility.yul\":50085:50146   */\n      mstore\n        /* \"#utility.yul\":50182:50216   */\n      0x38392034332e3230312031342e3234312031352e3834382033312e3732382032\n        /* \"#utility.yul\":50175:50179   */\n      0x0fe0\n        /* \"#utility.yul\":50167:50173   */\n      dup3\n        /* \"#utility.yul\":50163:50180   */\n      add\n        /* \"#utility.yul\":50156:50217   */\n      mstore\n        /* \"#utility.yul\":50253:50287   */\n      0x382e3832352035322e3039392033382e363831202d31362e3433392031372e34\n        /* \"#utility.yul\":50246:50250   */\n      0x1000\n        /* \"#utility.yul\":50238:50244   */\n      dup3\n        /* \"#utility.yul\":50234:50251   */\n      add\n        /* \"#utility.yul\":50227:50288   */\n      mstore\n        /* \"#utility.yul\":50324:50358   */\n      0x3233202d36302e3435342035362e353639202d3132362e3136312035392e3338\n        /* \"#utility.yul\":50317:50321   */\n      0x1020\n        /* \"#utility.yul\":50309:50315   */\n      dup3\n        /* \"#utility.yul\":50305:50322   */\n      add\n        /* \"#utility.yul\":50298:50359   */\n      mstore\n        /* \"#utility.yul\":50395:50461   */\n      0x387a222f3e3c2f673e3c2f673e3c673e3c673e3c706174682063783d22333930\n        /* \"#utility.yul\":50388:50392   */\n      0x1040\n        /* \"#utility.yul\":50380:50386   */\n      dup3\n        /* \"#utility.yul\":50376:50393   */\n      add\n        /* \"#utility.yul\":50369:50462   */\n      mstore\n        /* \"#utility.yul\":50498:50564   */\n      0x2e363236222063793d223237392e3733342220723d22382e3632352220643d22\n        /* \"#utility.yul\":50491:50495   */\n      0x1060\n        /* \"#utility.yul\":50483:50489   */\n      dup3\n        /* \"#utility.yul\":50479:50496   */\n      add\n        /* \"#utility.yul\":50472:50565   */\n      mstore\n        /* \"#utility.yul\":50601:50635   */\n      0x4d3339392e323531203237392e37333441382e36323520382e36323520302030\n        /* \"#utility.yul\":50594:50598   */\n      0x1080\n        /* \"#utility.yul\":50586:50592   */\n      dup3\n        /* \"#utility.yul\":50582:50599   */\n      add\n        /* \"#utility.yul\":50575:50636   */\n      mstore\n        /* \"#utility.yul\":50672:50706   */\n      0x2031203339302e363236203238382e33353941382e36323520382e3632352030\n        /* \"#utility.yul\":50665:50669   */\n      0x10a0\n        /* \"#utility.yul\":50657:50663   */\n      dup3\n        /* \"#utility.yul\":50653:50670   */\n      add\n        /* \"#utility.yul\":50646:50707   */\n      mstore\n        /* \"#utility.yul\":50743:50777   */\n      0x20302031203338322e303031203237392e37333441382e36323520382e363235\n        /* \"#utility.yul\":50736:50740   */\n      0x10c0\n        /* \"#utility.yul\":50728:50734   */\n      dup3\n        /* \"#utility.yul\":50724:50741   */\n      add\n        /* \"#utility.yul\":50717:50778   */\n      mstore\n        /* \"#utility.yul\":50814:50880   */\n      0x203020302031203339392e323531203237392e3733347a222f3e3c2f673e3c2f\n        /* \"#utility.yul\":50807:50811   */\n      0x10e0\n        /* \"#utility.yul\":50799:50805   */\n      dup3\n        /* \"#utility.yul\":50795:50812   */\n      add\n        /* \"#utility.yul\":50788:50881   */\n      mstore\n        /* \"#utility.yul\":50917:50927   */\n      0x673e3c2f7376673e000000000000000000000000000000000000000000000000\n        /* \"#utility.yul\":50910:50914   */\n      0x1100\n        /* \"#utility.yul\":50902:50908   */\n      dup3\n        /* \"#utility.yul\":50898:50915   */\n      add\n        /* \"#utility.yul\":50891:50928   */\n      mstore\n        /* \"#utility.yul\":40835:50935   */\n      pop\n      jump\t// out\n        /* \"#utility.yul\":50941:51347   */\n    tag_208:\n        /* \"#utility.yul\":51101:51104   */\n      0x00\n        /* \"#utility.yul\":51122:51209   */\n      tag_525\n        /* \"#utility.yul\":51204:51208   */\n      0x1108\n        /* \"#utility.yul\":51199:51202   */\n      dup4\n        /* \"#utility.yul\":51122:51209   */\n      tag_169\n      jump\t// in\n    tag_525:\n        /* \"#utility.yul\":51115:51209   */\n      swap2\n      pop\n        /* \"#utility.yul\":51218:51311   */\n      tag_526\n        /* \"#utility.yul\":51307:51310   */\n      dup3\n        /* \"#utility.yul\":51218:51311   */\n      tag_207\n      jump\t// in\n    tag_526:\n        /* \"#utility.yul\":51336:51340   */\n      0x1108\n        /* \"#utility.yul\":51331:51334   */\n      dup3\n        /* \"#utility.yul\":51327:51341   */\n      add\n        /* \"#utility.yul\":51320:51341   */\n      swap1\n      pop\n        /* \"#utility.yul\":50941:51347   */\n      swap2\n      swap1\n      pop\n      jump\t// out\n        /* \"#utility.yul\":51353:51894   */\n    tag_80:\n        /* \"#utility.yul\":51586:51589   */\n      0x00\n        /* \"#utility.yul\":51608:51756   */\n      tag_528\n        /* \"#utility.yul\":51752:51755   */\n      dup3\n        /* \"#utility.yul\":51608:51756   */\n      tag_208\n      jump\t// in\n    tag_528:\n        /* \"#utility.yul\":51601:51756   */\n      swap2\n      pop\n        /* \"#utility.yul\":51773:51868   */\n      tag_529\n        /* \"#utility.yul\":51864:51867   */\n      dup3\n        /* \"#utility.yul\":51855:51861   */\n      dup5\n        /* \"#utility.yul\":51773:51868   */\n      tag_172\n      jump\t// in\n    tag_529:\n        /* \"#utility.yul\":51766:51868   */\n      swap2\n      pop\n        /* \"#utility.yul\":51885:51888   */\n      dup2\n        /* \"#utility.yul\":51878:51888   */\n      swap1\n      pop\n        /* \"#utility.yul\":51353:51894   */\n      swap3\n      swap2\n      pop\n      pop\n      jump\t// out\n        /* \"#utility.yul\":51900:52175   */\n    tag_82:\n        /* \"#utility.yul\":52032:52035   */\n      0x00\n        /* \"#utility.yul\":52054:52149   */\n      tag_531\n        /* \"#utility.yul\":52145:52148   */\n      dup3\n        /* \"#utility.yul\":52136:52142   */\n      dup5\n        /* \"#utility.yul\":52054:52149   */\n      tag_172\n      jump\t// in\n    tag_531:\n        /* \"#utility.yul\":52047:52149   */\n      swap2\n      pop\n        /* \"#utility.yul\":52166:52169   */\n      dup2\n        /* \"#utility.yul\":52159:52169   */\n      swap1\n      pop\n        /* \"#utility.yul\":51900:52175   */\n      swap3\n      swap2\n      pop\n      pop\n      jump\t// out\n        /* \"#utility.yul\":52181:52414   */\n    tag_88:\n        /* \"#utility.yul\":52220:52223   */\n      0x00\n        /* \"#utility.yul\":52243:52267   */\n      tag_533\n        /* \"#utility.yul\":52261:52266   */\n      dup3\n        /* \"#utility.yul\":52243:52267   */\n      tag_124\n      jump\t// in\n    tag_533:\n        /* \"#utility.yul\":52234:52267   */\n      swap2\n      pop\n        /* \"#utility.yul\":52289:52355   */\n      0xffffffffffffffffffffffffffffffffffffffffffffffffffffffffffffffff\n        /* \"#utility.yul\":52282:52287   */\n      dup3\n        /* \"#utility.yul\":52279:52356   */\n      sub\n        /* \"#utility.yul\":52276:52379   */\n      tag_534\n      jumpi\n        /* \"#utility.yul\":52359:52377   */\n      tag_535\n      tag_168\n      jump\t// in\n    tag_535:\n        /* \"#utility.yul\":52276:52379   */\n    tag_534:\n        /* \"#utility.yul\":52406:52407   */\n      0x01\n        /* \"#utility.yul\":52399:52404   */\n      dup3\n        /* \"#utility.yul\":52395:52408   */\n      add\n        /* \"#utility.yul\":52388:52408   */\n      swap1\n      pop\n        /* \"#utility.yul\":52181:52414   */\n      swap2\n      swap1\n      pop\n      jump\t// out\n        /* \"#utility.yul\":52420:52600   */\n    tag_209:\n        /* \"#utility.yul\":52468:52545   */\n      0x4e487b7100000000000000000000000000000000000000000000000000000000\n        /* \"#utility.yul\":52465:52466   */\n      0x00\n        /* \"#utility.yul\":52458:52546   */\n      mstore\n        /* \"#utility.yul\":52565:52569   */\n      0x12\n        /* \"#utility.yul\":52562:52563   */\n      0x04\n        /* \"#utility.yul\":52555:52570   */\n      mstore\n        /* \"#utility.yul\":52589:52593   */\n      0x24\n        /* \"#utility.yul\":52586:52587   */\n      0x00\n        /* \"#utility.yul\":52579:52594   */\n      revert\n        /* \"#utility.yul\":52606:52791   */\n    tag_90:\n        /* \"#utility.yul\":52646:52647   */\n      0x00\n        /* \"#utility.yul\":52663:52683   */\n      tag_538\n        /* \"#utility.yul\":52681:52682   */\n      dup3\n        /* \"#utility.yul\":52663:52683   */\n      tag_124\n      jump\t// in\n    tag_538:\n        /* \"#utility.yul\":52658:52683   */\n      swap2\n      pop\n        /* \"#utility.yul\":52697:52717   */\n      tag_539\n        /* \"#utility.yul\":52715:52716   */\n      dup4\n        /* \"#utility.yul\":52697:52717   */\n      tag_124\n      jump\t// in\n    tag_539:\n        /* \"#utility.yul\":52692:52717   */\n      swap3\n      pop\n        /* \"#utility.yul\":52736:52737   */\n      dup3\n        /* \"#utility.yul\":52726:52761   */\n      tag_540\n      jumpi\n        /* \"#utility.yul\":52741:52759   */\n      tag_541\n      tag_209\n      jump\t// in\n    tag_541:\n        /* \"#utility.yul\":52726:52761   */\n    tag_540:\n        /* \"#utility.yul\":52783:52784   */\n      dup3\n        /* \"#utility.yul\":52780:52781   */\n      dup3\n        /* \"#utility.yul\":52776:52785   */\n      div\n        /* \"#utility.yul\":52771:52785   */\n      swap1\n      pop\n        /* \"#utility.yul\":52606:52791   */\n      swap3\n      swap2\n      pop\n      pop\n      jump\t// out\n        /* \"#utility.yul\":52797:52973   */\n    tag_98:\n        /* \"#utility.yul\":52829:52830   */\n      0x00\n        /* \"#utility.yul\":52846:52866   */\n      tag_543\n        /* \"#utility.yul\":52864:52865   */\n      dup3\n        /* \"#utility.yul\":52846:52866   */\n      tag_124\n      jump\t// in\n    tag_543:\n        /* \"#utility.yul\":52841:52866   */\n      swap2\n      pop\n        /* \"#utility.yul\":52880:52900   */\n      tag_544\n        /* \"#utility.yul\":52898:52899   */\n      dup4\n        /* \"#utility.yul\":52880:52900   */\n      tag_124\n      jump\t// in\n    tag_544:\n        /* \"#utility.yul\":52875:52900   */\n      swap3\n      pop\n        /* \"#utility.yul\":52919:52920   */\n      dup3\n        /* \"#utility.yul\":52909:52944   */\n      tag_545\n      jumpi\n        /* \"#utility.yul\":52924:52942   */\n      tag_546\n      tag_209\n      jump\t// in\n    tag_546:\n        /* \"#utility.yul\":52909:52944   */\n    tag_545:\n        /* \"#utility.yul\":52965:52966   */\n      dup3\n        /* \"#utility.yul\":52962:52963   */\n      dup3\n        /* \"#utility.yul\":52958:52967   */\n      mod\n        /* \"#utility.yul\":52953:52967   */\n      swap1\n      pop\n        /* \"#utility.yul\":52797:52973   */\n      swap3\n      swap2\n      pop\n      pop\n      jump\t// out\n        /* \"#utility.yul\":52979:53150   */\n    tag_101:\n        /* \"#utility.yul\":53018:53021   */\n      0x00\n        /* \"#utility.yul\":53041:53065   */\n      tag_548\n        /* \"#utility.yul\":53059:53064   */\n      dup3\n        /* \"#utility.yul\":53041:53065   */\n      tag_124\n      jump\t// in\n    tag_548:\n        /* \"#utility.yul\":53032:53065   */\n      swap2\n      pop\n        /* \"#utility.yul\":53087:53091   */\n      0x00\n        /* \"#utility.yul\":53080:53085   */\n      dup3\n        /* \"#utility.yul\":53077:53092   */\n      sub\n        /* \"#utility.yul\":53074:53115   */\n      tag_549\n      jumpi\n        /* \"#utility.yul\":53095:53113   */\n      tag_550\n      tag_168\n      jump\t// in\n    tag_550:\n        /* \"#utility.yul\":53074:53115   */\n    tag_549:\n        /* \"#utility.yul\":53142:53143   */\n      0x01\n        /* \"#utility.yul\":53135:53140   */\n      dup3\n        /* \"#utility.yul\":53131:53144   */\n      sub\n        /* \"#utility.yul\":53124:53144   */\n      swap1\n      pop\n        /* \"#utility.yul\":52979:53150   */\n      swap2\n      swap1\n      pop\n      jump\t// out\n        /* \"#utility.yul\":53156:53336   */\n    tag_104:\n        /* \"#utility.yul\":53204:53281   */\n      0x4e487b7100000000000000000000000000000000000000000000000000000000\n        /* \"#utility.yul\":53201:53202   */\n      0x00\n        /* \"#utility.yul\":53194:53282   */\n      mstore\n        /* \"#utility.yul\":53301:53305   */\n      0x32\n        /* \"#utility.yul\":53298:53299   */\n      0x04\n        /* \"#utility.yul\":53291:53306   */\n      mstore\n        /* \"#utility.yul\":53325:53329   */\n      0x24\n        /* \"#utility.yul\":53322:53323   */\n      0x00\n        /* \"#utility.yul\":53315:53330   */\n      revert\n        /* \"#utility.yul\":53342:53752   */\n    tag_111:\n        /* \"#utility.yul\":53382:53389   */\n      0x00\n        /* \"#utility.yul\":53405:53425   */\n      tag_553\n        /* \"#utility.yul\":53423:53424   */\n      dup3\n        /* \"#utility.yul\":53405:53425   */\n      tag_124\n      jump\t// in\n    tag_553:\n        /* \"#utility.yul\":53400:53425   */\n      swap2\n      pop\n        /* \"#utility.yul\":53439:53459   */\n      tag_554\n        /* \"#utility.yul\":53457:53458   */\n      dup4\n        /* \"#utility.yul\":53439:53459   */\n      tag_124\n      jump\t// in\n    tag_554:\n        /* \"#utility.yul\":53434:53459   */\n      swap3\n      pop\n        /* \"#utility.yul\":53494:53495   */\n      dup3\n        /* \"#utility.yul\":53491:53492   */\n      dup3\n        /* \"#utility.yul\":53487:53496   */\n      mul\n        /* \"#utility.yul\":53516:53546   */\n      tag_555\n        /* \"#utility.yul\":53534:53545   */\n      dup2\n        /* \"#utility.yul\":53516:53546   */\n      tag_124\n      jump\t// in\n    tag_555:\n        /* \"#utility.yul\":53505:53546   */\n      swap2\n      pop\n        /* \"#utility.yul\":53695:53696   */\n      dup3\n        /* \"#utility.yul\":53686:53693   */\n      dup3\n        /* \"#utility.yul\":53682:53697   */\n      div\n        /* \"#utility.yul\":53679:53680   */\n      dup5\n        /* \"#utility.yul\":53676:53698   */\n      eq\n        /* \"#utility.yul\":53656:53657   */\n      dup4\n        /* \"#utility.yul\":53649:53658   */\n      iszero\n        /* \"#utility.yul\":53629:53712   */\n      or\n        /* \"#utility.yul\":53606:53745   */\n      tag_556\n      jumpi\n        /* \"#utility.yul\":53725:53743   */\n      tag_557\n      tag_168\n      jump\t// in\n    tag_557:\n        /* \"#utility.yul\":53606:53745   */\n    tag_556:\n        /* \"#utility.yul\":53390:53752   */\n      pop\n        /* \"#utility.yul\":53342:53752   */\n      swap3\n      swap2\n      pop\n      pop\n      jump\t// out\n    stop\n    data_84d8a590de33e00cbdc16e1f28c3506f5ec15c599fab9a6a4bcd575cc2f110ce 4142434445464748494a4b4c4d4e4f505152535455565758595a6162636465666768696a6b6c6d6e6f707172737475767778797a303132333435363738392b2f\n    data_dda5ae7c5359d643de6b77a1ceb07b82442dca061274a7b248b5faf5e88fe36e 5468697320636f766572204e46542068617320616c72656164792065787069726564\n\n    auxdata: 0xa2646970667358221220c9f56f8931e4a496ab22bea7fa2f40635e253be71b20238c3a0312a21f2188dd64736f6c63430008150033\n}\n",
				"bytecode": {
					"linkReferences": {},
					"object": "608060405234801562000010575f80fd5b506040516200322e3803806200322e8339818101604052810190620000369190620000e1565b805f806101000a81548173ffffffffffffffffffffffffffffffffffffffff021916908373ffffffffffffffffffffffffffffffffffffffff1602179055505062000111565b5f80fd5b5f73ffffffffffffffffffffffffffffffffffffffff82169050919050565b5f620000ab8262000080565b9050919050565b620000bd816200009f565b8114620000c8575f80fd5b50565b5f81519050620000db81620000b2565b92915050565b5f60208284031215620000f957620000f86200007c565b5b5f6200010884828501620000cb565b91505092915050565b61310f806200011f5f395ff3fe608060405234801561000f575f80fd5b506004361061004a575f3560e01c80632409145e1461004e578063c87b56dd1461007f578063e2a6ab3d146100af578063ee97f7f3146100df575b5f80fd5b6100686004803603810190610063919061086c565b6100fd565b604051610076929190610aa3565b60405180910390f35b6100996004803603810190610094919061086c565b61038c565b6040516100a69190610ad8565b60405180910390f35b6100c960048036038101906100c49190610d7b565b610404565b6040516100d69190610e14565b60405180910390f35b6100e76104cc565b6040516100f49190610e8f565b60405180910390f35b60606101076107ac565b5f805f9054906101000a900473ffffffffffffffffffffffffffffffffffffffff1673ffffffffffffffffffffffffffffffffffffffff1663e67cdafd6040518163ffffffff1660e01b8152600401602060405180830381865afa158015610171573d5f803e3d5ffd5b505050506040513d601f19601f820116820180604052508101906101959190610ebc565b9050838173ffffffffffffffffffffffffffffffffffffffff1663404730f46040518163ffffffff1660e01b8152600401602060405180830381865afa1580156101e1573d5f803e3d5ffd5b505050506040513d601f19601f820116820180604052508101906102059190610efb565b1015610246576040517f08c379a000000000000000000000000000000000000000000000000000000000815260040161023d90610f70565b60405180910390fd5b5f8173ffffffffffffffffffffffffffffffffffffffff1662407d2a866040518263ffffffff1660e01b815260040161027f9190610f9d565b5f60405180830381865afa158015610299573d5f803e3d5ffd5b505050506040513d5f823e3d601f19601f820116820180604052508101906102c19190611149565b9050606042826060015183604001516102da91906111bd565b116102fb576040518060600160405280602281526020016130b86022913990505b5f6103188360600151846040015161031391906111bd565b6104ef565b905082610140015161032d8460c001516104ef565b61033a8560e001516104ef565b6103488661010001516104ef565b6103568761012001516104ef565b8660405160200161036c9695949392919061140c565b604051602081830303815290604052955085839550955050505050915091565b60605f80610399846100fd565b915091505f6103af6103aa83610404565b61064d565b90506103db83826040516020016103c7929190611661565b60405160208183030381529060405261064d565b6040516020016103eb9190611710565b6040516020818303038152906040529350505050919050565b60605f82610140015161041a8460c001516104ef565b6104278560e001516104ef565b6104358661010001516104ef565b6104438761012001516104ef565b61045f8860400151896060015161045a91906111bd565b6104ef565b60405160200161047496959493929190611915565b6040516020818303038152906040529050806040516020016104969190612ed7565b6040516020818303038152906040526040516020016104b59190612ef8565b604051602081830303815290604052915050919050565b5f8054906101000a900473ffffffffffffffffffffffffffffffffffffffff1681565b60605f8203610535576040518060400160405280600181526020017f30000000000000000000000000000000000000000000000000000000000000008152509050610648565b5f8290505f5b5f821461056457808061054d90612f0e565b915050600a8261055d9190612f82565b915061053b565b5f8167ffffffffffffffff81111561057f5761057e610afc565b5b6040519080825280601f01601f1916602001820160405280156105b15781602001600182028036833780820191505090505b5090505f8290508593505b5f841461064057600a846105d09190612fb2565b60306105dc91906111bd565b60f81b82826105ea90612fe2565b925082815181106105fe576105fd613009565b5b60200101907effffffffffffffffffffffffffffffffffffffffffffffffffffffffffffff191690815f1a905350600a846106399190612f82565b93506105bc565b819450505050505b919050565b60605f82510361066d5760405180602001604052805f81525090506107a7565b5f6040518060600160405280604081526020016130786040913990505f60036002855161069a91906111bd565b6106a49190612f82565b60046106b09190613036565b67ffffffffffffffff8111156106c9576106c8610afc565b5b6040519080825280601f01601f1916602001820160405280156106fb5781602001600182028036833780820191505090505b509050600182016020820185865187015b80821015610767576003820191508151603f8160121c168501518453600184019350603f81600c1c168501518453600184019350603f8160061c168501518453600184019350603f811685015184536001840193505061070c565b505060038651066001811461078357600281146107965761079e565b603d6001830353603d600283035361079e565b603d60018303535b50505080925050505b919050565b6040518061016001604052805f81526020015f81526020015f81526020015f81526020015f73ffffffffffffffffffffffffffffffffffffffff1681526020015f73ffffffffffffffffffffffffffffffffffffffff1681526020015f81526020015f81526020015f81526020015f8152602001606081525090565b5f604051905090565b5f80fd5b5f80fd5b5f819050919050565b61084b81610839565b8114610855575f80fd5b50565b5f8135905061086681610842565b92915050565b5f6020828403121561088157610880610831565b5b5f61088e84828501610858565b91505092915050565b5f81519050919050565b5f82825260208201905092915050565b5f5b838110156108ce5780820151818401526020810190506108b3565b5f8484015250505050565b5f601f19601f8301169050919050565b5f6108f382610897565b6108fd81856108a1565b935061090d8185602086016108b1565b610916816108d9565b840191505092915050565b61092a81610839565b82525050565b5f73ffffffffffffffffffffffffffffffffffffffff82169050919050565b5f61095982610930565b9050919050565b6109698161094f565b82525050565b5f82825260208201905092915050565b5f61098982610897565b610993818561096f565b93506109a38185602086016108b1565b6109ac816108d9565b840191505092915050565b5f61016083015f8301516109cd5f860182610921565b5060208301516109e06020860182610921565b5060408301516109f36040860182610921565b506060830151610a066060860182610921565b506080830151610a196080860182610960565b5060a0830151610a2c60a0860182610960565b5060c0830151610a3f60c0860182610921565b5060e0830151610a5260e0860182610921565b50610100830151610a67610100860182610921565b50610120830151610a7c610120860182610921565b50610140830151848203610140860152610a96828261097f565b9150508091505092915050565b5f6040820190508181035f830152610abb81856108e9565b90508181036020830152610acf81846109b7565b90509392505050565b5f6020820190508181035f830152610af081846108e9565b905092915050565b5f80fd5b7f4e487b71000000000000000000000000000000000000000000000000000000005f52604160045260245ffd5b610b32826108d9565b810181811067ffffffffffffffff82111715610b5157610b50610afc565b5b80604052505050565b5f610b63610828565b9050610b6f8282610b29565b919050565b5f80fd5b610b818161094f565b8114610b8b575f80fd5b50565b5f81359050610b9c81610b78565b92915050565b5f80fd5b5f80fd5b5f67ffffffffffffffff821115610bc457610bc3610afc565b5b610bcd826108d9565b9050602081019050919050565b828183375f83830152505050565b5f610bfa610bf584610baa565b610b5a565b905082815260208101848484011115610c1657610c15610ba6565b5b610c21848285610bda565b509392505050565b5f82601f830112610c3d57610c3c610ba2565b5b8135610c4d848260208601610be8565b91505092915050565b5f6101608284031215610c6c57610c6b610af8565b5b610c77610160610b5a565b90505f610c8684828501610858565b5f830152506020610c9984828501610858565b6020830152506040610cad84828501610858565b6040830152506060610cc184828501610858565b6060830152506080610cd584828501610b8e565b60808301525060a0610ce984828501610b8e565b60a08301525060c0610cfd84828501610858565b60c08301525060e0610d1184828501610858565b60e083015250610100610d2684828501610858565b61010083015250610120610d3c84828501610858565b6101208301525061014082013567ffffffffffffffff811115610d6257610d61610b74565b5b610d6e84828501610c29565b6101408301525092915050565b5f60208284031215610d9057610d8f610831565b5b5f82013567ffffffffffffffff811115610dad57610dac610835565b5b610db984828501610c56565b91505092915050565b5f81519050919050565b5f82825260208201905092915050565b5f610de682610dc2565b610df08185610dcc565b9350610e008185602086016108b1565b610e09816108d9565b840191505092915050565b5f6020820190508181035f830152610e2c8184610ddc565b905092915050565b5f819050919050565b5f610e57610e52610e4d84610930565b610e34565b610930565b9050919050565b5f610e6882610e3d565b9050919050565b5f610e7982610e5e565b9050919050565b610e8981610e6f565b82525050565b5f602082019050610ea25f830184610e80565b92915050565b5f81519050610eb681610b78565b92915050565b5f60208284031215610ed157610ed0610831565b5b5f610ede84828501610ea8565b91505092915050565b5f81519050610ef581610842565b92915050565b5f60208284031215610f1057610f0f610831565b5b5f610f1d84828501610ee7565b91505092915050565b7f7468697320746f6b656e20646f6573206e6f74206578697374000000000000005f82015250565b5f610f5a6019836108a1565b9150610f6582610f26565b602082019050919050565b5f6020820190508181035f830152610f8781610f4e565b9050919050565b610f9781610839565b82525050565b5f602082019050610fb05f830184610f8e565b92915050565b5f610fc8610fc384610baa565b610b5a565b905082815260208101848484011115610fe457610fe3610ba6565b5b610fef8482856108b1565b509392505050565b5f82601f83011261100b5761100a610ba2565b5b815161101b848260208601610fb6565b91505092915050565b5f610160828403121561103a57611039610af8565b5b611045610160610b5a565b90505f61105484828501610ee7565b5f83015250602061106784828501610ee7565b602083015250604061107b84828501610ee7565b604083015250606061108f84828501610ee7565b60608301525060806110a384828501610ea8565b60808301525060a06110b784828501610ea8565b60a08301525060c06110cb84828501610ee7565b60c08301525060e06110df84828501610ee7565b60e0830152506101006110f484828501610ee7565b6101008301525061012061110a84828501610ee7565b6101208301525061014082015167ffffffffffffffff8111156111305761112f610b74565b5b61113c84828501610ff7565b6101408301525092915050565b5f6020828403121561115e5761115d610831565b5b5f82015167ffffffffffffffff81111561117b5761117a610835565b5b61118784828501611024565b91505092915050565b7f4e487b71000000000000000000000000000000000000000000000000000000005f52601160045260245ffd5b5f6111c782610839565b91506111d283610839565b92508282019050808211156111ea576111e9611190565b5b92915050565b5f81905092915050565b7f54686973204e465420726570726573656e7473206120636f76657220707572635f8201527f68617365206d61646520666f723a200000000000000000000000000000000000602082015250565b5f611254602f836111f0565b915061125f826111fa565b602f82019050919050565b5f61127482610897565b61127e81856111f0565b935061128e8185602086016108b1565b80840191505092915050565b7f205c6e496e697469616c20546f6b656e30205174793a200000000000000000005f82015250565b5f6112ce6017836111f0565b91506112d98261129a565b601782019050919050565b7f205c6e496e697469616c20546f6b656e31205174793a200000000000000000005f82015250565b5f6113186017836111f0565b9150611323826112e4565b601782019050919050565b7f205c6e4c6f776572426f756e643a2000000000000000000000000000000000005f82015250565b5f611362600f836111f0565b915061136d8261132e565b600f82019050919050565b7f205c6e5570706572426f756e643a2000000000000000000000000000000000005f82015250565b5f6113ac600f836111f0565b91506113b782611378565b600f82019050919050565b7f205c6e4578706972793a200000000000000000000000000000000000000000005f82015250565b5f6113f6600b836111f0565b9150611401826113c2565b600b82019050919050565b5f61141682611248565b9150611422828961126a565b915061142d826112c2565b9150611439828861126a565b91506114448261130c565b9150611450828761126a565b915061145b82611356565b9150611467828661126a565b9150611472826113a0565b915061147e828561126a565b9150611489826113ea565b9150611495828461126a565b9150819050979650505050505050565b7f7b226e616d65223a224865646765486f672050726f746f636f6c2200000000005f82015250565b5f6114d9601b836111f0565b91506114e4826114a5565b601b82019050919050565b7f226465736372697074696f6e223a2200000000000000000000000000000000005f82015250565b5f611523600f836111f0565b915061152e826114ef565b600f82019050919050565b7f222c0000000000000000000000000000000000000000000000000000000000005f82015250565b5f61156d6002836111f0565b915061157882611539565b600282019050919050565b7f22696d616765223a2022000000000000000000000000000000000000000000005f82015250565b5f6115b7600a836111f0565b91506115c282611583565b600a82019050919050565b7f646174613a696d6167652f7376672b786d6c3b6261736536342c0000000000005f82015250565b5f611601601a836111f0565b915061160c826115cd565b601a82019050919050565b7f227d0000000000000000000000000000000000000000000000000000000000005f82015250565b5f61164b6002836111f0565b915061165682611617565b600282019050919050565b5f61166b826114cd565b915061167682611517565b9150611682828561126a565b915061168d82611561565b9150611698826115ab565b91506116a3826115f5565b91506116af828461126a565b91506116ba8261163f565b91508190509392505050565b7f646174613a6170706c69636174696f6e2f6a736f6e3b6261736536342c0000005f82015250565b5f6116fa601d836111f0565b9150611705826116c6565b601d82019050919050565b5f61171a826116ee565b9150611726828461126a565b915081905092915050565b7f3c747370616e3e000000000000000000000000000000000000000000000000005f82015250565b5f6117656007836111f0565b915061177082611731565b600782019050919050565b7f3c2f747370616e3e3c2f746578743e20203c7465787420636c6173733d22636c5f8201527f732d392220783d223933252220793d223430252220746578742d616e63686f7260208201527f3d22656e64223e00000000000000000000000000000000000000000000000000604082015250565b5f6117fb6047836111f0565b91506118068261177b565b604782019050919050565b7f20000000000000000000000000000000000000000000000000000000000000005f82015250565b5f6118456001836111f0565b915061185082611811565b600182019050919050565b7f3c2f747370616e3e3c2f746578743e00000000000000000000000000000000005f82015250565b5f61188f600f836111f0565b915061189a8261185b565b600f82019050919050565b7f3c7465787420636c6173733d22636c732d392220783d223933252220793d22345f8201527f35252220746578742d616e63686f723d22656e64223e3c747370616e3e000000602082015250565b5f6118ff603d836111f0565b915061190a826118a5565b603d82019050919050565b5f61191f82611759565b915061192b828961126a565b9150611936826117ef565b915061194182611759565b915061194d828861126a565b915061195882611839565b9150611964828761126a565b915061196f82611883565b915061197a82611759565b9150611986828661126a565b915061199182611839565b915061199d828561126a565b91506119a882611883565b91506119b3826118f3565b91506119bf828461126a565b91506119ca82611883565b9150819050979650505050505050565b7f3c7376672066696c6c3d222330303030303022206865696768743d22383030705f8201527f78222077696474683d223830307078222076657273696f6e3d22312e3122206960208201527f643d224c617965725f312220786d6c6e733d22687474703a2f2f7777772e773360408201527f2e6f72672f323030302f7376672220786d6c6e733a786c696e6b3d226874747060608201527f3a2f2f7777772e77332e6f72672f313939392f786c696e6b222076696577426f60808201527f783d2230203020353132203531322220786d6c3a73706163653d22707265736560a08201527f727665223e3c673e3c673e3c7061746820643d224d3531312e3635392033303860c08201527f2e38373461382e36323520382e363235203020302030202d352e303039202d3560e08201527f2e353737632d32322e363433202d392e323932202d34312e373132202d32322e6101008201527f343437202d35362e363735202d33392e303938202d33312e353639202d33352e6101208201527f313332202d33372e373135202d38372e313931202d31352e323935202d3132396101408201527f2e35343161382e36323220382e363232203020302030202d362e333433202d316101608201527f322e353634632d33332e383131202d352e303733202d35372e34323720342e346101808201527f3038202d37302e3833332031322e3731396c2d352e303032202d34322e3531376101a08201527f61382e363220382e3632203020302030202d332e353731202d362e30323420386101c08201527f2e363320382e3633203020302030202d362e383635202d312e333838632d33306101e08201527f2e323520362e373232202d35322e3336312032362e313031202d36352e3037316102008201527f2034302e336c2d362e383334202d33392e32393561382e36323520382e3632356102208201527f203020302030202d31312e393938202d362e343035632d32392e3131382031326102408201527f2e393431202d34392e3331382033392e353836202d36312e3032332035392e336102608201527f35356c2d372e353433202d34352e32353961382e36323920382e3632392030206102808201527f302030202d31312e393635202d362e343834632d32392e3230332031322e37376102a08201527f35202d34382e3637352035302e303932202d35382e3731382037342e3630336c6102c08201527f2d31322e303339202d33312e36303361382e36323720382e36323720302030206102e08201527f30202d31342e313539202d332e3032384336382e3331203135312e34373420356103008201527f382e3534203137372e3737352035342e3633203139352e3131376c2d32302e366103208201527f3732202d32322e37393261382e36323620382e363236203020302030202d31336103408201527f2e38383720312e35333443322e373731203230342e333036202d322e323534206103608201527f3232352e33343520302e383732203235342e32363163332e3638352033342e306103808201527f38332031382e3537382036352e3032322034312e3331312038382e383633202d6103a08201527f362e3138312032322e353133202d32342e3737342033372e383434202d32342e6103c08201527f3935382033372e39393361382e36323320382e36323320302030203020342e316103e08201527f38392031352e32353763322e39343420302e34323120352e38363420302e36316104008201527f3320382e37353320302e3631332032342e39323820302034372e323732202d316104208201527f342e3338332035362e363631202d32312e333734613135362e343531203135366104408201527f2e3435312030203020302031362e38373920362e3938347632332e31313963306104608201527f2031342e3734392031312e3330322032362e3833342032352e37332032372e356104808201527f313320372e34343720302e3334372031342e3535202d322e3239312031392e396104a08201527f3438202d372e3433396132372e3134392032372e31343920302030203020382e6104c08201527f333732202d31392e353535762d31352e3038316831372e33357631342e3536316104e08201527f63302031342e3734392031312e3330322032362e3833342032352e37332032376105008201527f2e35313320372e34343720302e3334372031342e3535202d322e3239312031396105208201527f2e393438202d372e3433396132372e3134392032372e313439203020302030206105408201527f382e333732202d31392e353535762d31352e3038316831372e3334397631342e6105608201527f35363163302031342e3734392031312e3330322032362e3833342032352e37336105808201527f2032372e35313320372e34353820302e3334372031342e3535202d322e3239316105a08201527f2031392e393438202d372e3433396132372e3134392032372e313439203020306105c08201527f203020382e333732202d31392e353535762d31352e303831483331372e3976316105e08201527f342e35363163302031342e3734392031312e3330322032362e3833342032352e6106008201527f37332032372e35313320302e343420302e30323120302e383820302e303331206106208201527f312e33313820302e30333120362e39373920302031332e353531202d322e36326106408201527f352031382e3633202d372e3436396132372e3134392032372e313439203020306106608201527f203020382e333732202d31392e353535563339302e356333342e393935202d336106808201527f2e3034332036392e313638202d31352e3939322039392e333138202d33372e376106a08201527f30362032352e343534202d31382e3333312033392e3032202d33362e333620336106c08201527f392e313431202d33362e35333161382e36313720382e363137203020302030206106e08201527f312e3235202d372e3338397a4d34332e343738203337382e30363863342e35306107008201527f37202d352e39383520392e313236202d31332e3433392031322e353533202d326107208201527f322e303737613135342e333036203135342e3330362030203020302031342e306107408201527f34362031302e323236632d362e36383220342e323632202d31362e31323220396107608201527f2e323933202d32362e3539392031312e3835317a6d33352e393632202d32362e6107808201527f333532632d33332e393638202d32312e393533202d35362e393535202d35382e6107a08201527f303434202d36312e343136202d39392e333133202d322e333532202d32312e376107c08201527f333220302e353435202d33372e3838352031312e333631202d35392e3434326c6107e08201527f32342e3837332032372e34323461382e36313920382e363139203020302030206108008201527f392e34363720322e32343820382e36343220382e36343220302030203020352e6108208201527f353436202d382e30313463302e303032202d302e33363120302e3535202d33336108408201527f2e3038352032362e353034202d36352e3230336c31352e3333352034302e32356108608201527f3563312e33323120332e34363820342e37313820352e37313820382e343232206108808201527f352e35343661382e36323520382e36323520302030203020372e393237202d366108a08201527f2e32333563302e303532202d302e31373720352e313934202d31372e393033206108c08201527f31352e313038202d33372e36333120392e383332202d31392e3536342032302e6108e08201527f373639202d33342e3033312033322e303735202d34322e3535396c392e3831316109008201527f2035382e38363961382e36323420382e36323420302030203020372e363037206109208201527f372e31353620382e36323420382e36323420302030203020382e3933202d352e6109408201527f34323363302e32202d302e3530372031382e373538202d34362e3831382035346109608201527f2e323132202d36382e3834396c382e3134332034362e383261382e36323420386109808201527f2e3632342030203020302031352e38323720332e30363763302e323235202d306109a08201527f2e3336332032312e3235202d33332e3639392035372e333738202d34362e30396109c08201527f396c352e3630362034372e36353261382e36323320382e3632332030203020306109e08201527f2031342e39343820342e37393363302e323034202d302e3232342031382e3937610a008201527f34202d32302e3336372035362e393631202d31382e373633202d392e39303820610a208201527f32342e303034202d31322e3335372035302e303235202d372e37382037342e37610a408201527f3332202d32342e323239202d362e303938202d34332e333832202d302e323034610a608201527f202d35342e37393620352e343735202d352e363238202d31342e373338202d31610a808201527f392e393132202d32352e323333202d33362e363033202d32352e323333202d32610aa08201527f312e3539322030202d33392e31362031372e353637202d33392e31362033392e610ac08201527f31366133382e39342033382e393420302030203020362e3233362032312e3138610ae08201527f33632d32302e39363120302e323837202d34392e34313220312e393732202d37610b008201527f382e35333720372e363233202d37302e3537342031332e363936202d3131332e610b208201527f3039392034342e393532202d3132332e3938352039302e3736317a6d3133322e610b408201527f3436352035342e353261392e36393220392e363932203020302031202d332e30610b608201527f3320372e30373520392e363820392e3638203020302031202d372e3232392032610b808201527f2e363839632d352e313233202d302e323432202d392e323931202d342e383534610ba08201527f202d392e323931202d31302e323833762d31342e3536316831392e3535763135610bc08201527f2e30387a6d3134322e373936202d302e303031633020322e37202d312e303736610be08201527f20352e323132202d332e303320372e30373661392e37303920392e3730392030610c008201527f20302031202d372e32323920322e363839632d352e313233202d302e32343220610c208201527f2d392e323931202d342e383534202d392e323931202d31302e323833762d3134610c408201527f2e3538386c31392e3535202d302e30367631352e3136367a6d382e333831202d610c608201527f33322e3434202d37312e31353420302e313161382e36323520382e3632352030610c808201527f20302030202d382e36323520382e3632357632332e37303661392e3639322039610ca08201527f2e363932203020302031202d332e303320372e30373520392e37303220392e37610cc08201527f3032203020302031202d372e32323920322e363839632d352e313233202d302e610ce08201527f323432202d392e323931202d342e383534202d392e323931202d31302e323833610d008201527f563338322e353361382e36323520382e363235203020302030202d382e363235610d208201527f202d382e363235483135342e363135632d312e3535392030202d332e3235202d610d408201527f302e303334202d352e313635202d302e31303561382e36323420382e36323420610d608201527f3020302030202d382e39343320382e3631387632332e38313661392e36393220610d808201527f392e363932203020302031202d332e303320372e30373520392e363720392e36610da08201527f37203020302031202d372e32323920322e363839632d352e313233202d302e32610dc08201527f3431202d392e323931202d342e383534202d392e323931202d31302e32383376610de08201527f2d32392e33393461382e36323520382e363235203020302030202d362e313433610e008201527f202d382e3236203133392e3334203133392e3334203020302031202d31392e35610e208201527f3833202d372e3533386331362e373834202d39352e323734203138382e313639610e408201527f202d39302e373735203231352e3339202d38392e34343220312e34303220302e610e608201527f31353320322e38323420302e32333120342e32363620302e32333161382e3632610e808201527f3520382e36323520302030203020302e363436202d31372e323236632d302e33610ea08201527f3037202d302e303233202d312e353537202d302e313134202d332e363239202d610ec08201527f302e323237202d31302e363735202d312e3436202d31382e393238202d31302e610ee08201527f363338202d31382e393238202d32312e3730382030202d31322e30383220392e610f008201527f383239202d32312e3931312032312e393131202d32312e3931317332312e3931610f208201527f3220392e3832392032312e3931322032312e393131633020332e33353220312e610f408201527f39363220362e33383220342e39393920372e37393920332e30333920312e3431610f608201527f3720362e36343120302e39323820392e323039202d312e32323520312e303220610f808201527f2d302e3835362032342e3732202d32302e3231322036302e353438202d362e32610fa08201527f20352e3533372031352e3639352031342e3130322033302e3431382032352e35610fc08201527f38392034332e3230312031342e3234312031352e3834382033312e3732382032610fe08201527f382e3832352035322e3039392033382e363831202d31362e3433392031372e346110008201527f3233202d36302e3435342035362e353639202d3132362e3136312035392e33386110208201527f387a222f3e3c2f673e3c2f673e3c673e3c673e3c706174682063783d223339306110408201527f2e363236222063793d223237392e3733342220723d22382e3632352220643d226110608201527f4d3339392e323531203237392e37333441382e36323520382e363235203020306110808201527f2031203339302e363236203238382e33353941382e36323520382e36323520306110a08201527f20302031203338322e303031203237392e37333441382e36323520382e3632356110c08201527f203020302031203339392e323531203237392e3733347a222f3e3c2f673e3c2f6110e08201527f673e3c2f7376673e00000000000000000000000000000000000000000000000061110082015250565b5f612ec0611108836111f0565b9150612ecb826119da565b61110882019050919050565b5f612ee182612eb3565b9150612eed828461126a565b915081905092915050565b5f612f03828461126a565b915081905092915050565b5f612f1882610839565b91507fffffffffffffffffffffffffffffffffffffffffffffffffffffffffffffffff8203612f4a57612f49611190565b5b600182019050919050565b7f4e487b71000000000000000000000000000000000000000000000000000000005f52601260045260245ffd5b5f612f8c82610839565b9150612f9783610839565b925082612fa757612fa6612f55565b5b828204905092915050565b5f612fbc82610839565b9150612fc783610839565b925082612fd757612fd6612f55565b5b828206905092915050565b5f612fec82610839565b91505f8203612ffe57612ffd611190565b5b600182039050919050565b7f4e487b71000000000000000000000000000000000000000000000000000000005f52603260045260245ffd5b5f61304082610839565b915061304b83610839565b925082820261305981610839565b915082820484148315176130705761306f611190565b5b509291505056fe4142434445464748494a4b4c4d4e4f505152535455565758595a6162636465666768696a6b6c6d6e6f707172737475767778797a303132333435363738392b2f5468697320636f766572204e46542068617320616c72656164792065787069726564a2646970667358221220c9f56f8931e4a496ab22bea7fa2f40635e253be71b20238c3a0312a21f2188dd64736f6c63430008150033",
					"opcodes": "PUSH1 0x80 PUSH1 0x40 MSTORE CALLVALUE DUP1 ISZERO PUSH3 0x10 JUMPI PUSH0 DUP1 REVERT JUMPDEST POP PUSH1 0x40 MLOAD PUSH3 0x322E CODESIZE SUB DUP1 PUSH3 0x322E DUP4 CODECOPY DUP2 DUP2 ADD PUSH1 0x40 MSTORE DUP2 ADD SWAP1 PUSH3 0x36 SWAP2 SWAP1 PUSH3 0xE1 JUMP JUMPDEST DUP1 PUSH0 DUP1 PUSH2 0x100 EXP DUP2 SLOAD DUP2 PUSH20 0xFFFFFFFFFFFFFFFFFFFFFFFFFFFFFFFFFFFFFFFF MUL NOT AND SWAP1 DUP4 PUSH20 0xFFFFFFFFFFFFFFFFFFFFFFFFFFFFFFFFFFFFFFFF AND MUL OR SWAP1 SSTORE POP POP PUSH3 0x111 JUMP JUMPDEST PUSH0 DUP1 REVERT JUMPDEST PUSH0 PUSH20 0xFFFFFFFFFFFFFFFFFFFFFFFFFFFFFFFFFFFFFFFF DUP3 AND SWAP1 POP SWAP2 SWAP1 POP JUMP JUMPDEST PUSH0 PUSH3 0xAB DUP3 PUSH3 0x80 JUMP JUMPDEST SWAP1 POP SWAP2 SWAP1 POP JUMP JUMPDEST PUSH3 0xBD DUP2 PUSH3 0x9F JUMP JUMPDEST DUP2 EQ PUSH3 0xC8 JUMPI PUSH0 DUP1 REVERT JUMPDEST POP JUMP JUMPDEST PUSH0 DUP2 MLOAD SWAP1 POP PUSH3 0xDB DUP2 PUSH3 0xB2 JUMP JUMPDEST SWAP3 SWAP2 POP POP JUMP JUMPDEST PUSH0 PUSH1 0x20 DUP3 DUP5 SUB SLT ISZERO PUSH3 0xF9 JUMPI PUSH3 0xF8 PUSH3 0x7C JUMP JUMPDEST JUMPDEST PUSH0 PUSH3 0x108 DUP5 DUP3 DUP6 ADD PUSH3 0xCB JUMP JUMPDEST SWAP2 POP POP SWAP3 SWAP2 POP POP JUMP JUMPDEST PUSH2 0x310F DUP1 PUSH3 0x11F PUSH0 CODECOPY PUSH0 RETURN INVALID PUSH1 0x80 PUSH1 0x40 MSTORE CALLVALUE DUP1 ISZERO PUSH2 0xF JUMPI PUSH0 DUP1 REVERT JUMPDEST POP PUSH1 0x4 CALLDATASIZE LT PUSH2 0x4A JUMPI PUSH0 CALLDATALOAD PUSH1 0xE0 SHR DUP1 PUSH4 0x2409145E EQ PUSH2 0x4E JUMPI DUP1 PUSH4 0xC87B56DD EQ PUSH2 0x7F JUMPI DUP1 PUSH4 0xE2A6AB3D EQ PUSH2 0xAF JUMPI DUP1 PUSH4 0xEE97F7F3 EQ PUSH2 0xDF JUMPI JUMPDEST PUSH0 DUP1 REVERT JUMPDEST PUSH2 0x68 PUSH1 0x4 DUP1 CALLDATASIZE SUB DUP2 ADD SWAP1 PUSH2 0x63 SWAP2 SWAP1 PUSH2 0x86C JUMP JUMPDEST PUSH2 0xFD JUMP JUMPDEST PUSH1 0x40 MLOAD PUSH2 0x76 SWAP3 SWAP2 SWAP1 PUSH2 0xAA3 JUMP JUMPDEST PUSH1 0x40 MLOAD DUP1 SWAP2 SUB SWAP1 RETURN JUMPDEST PUSH2 0x99 PUSH1 0x4 DUP1 CALLDATASIZE SUB DUP2 ADD SWAP1 PUSH2 0x94 SWAP2 SWAP1 PUSH2 0x86C JUMP JUMPDEST PUSH2 0x38C JUMP JUMPDEST PUSH1 0x40 MLOAD PUSH2 0xA6 SWAP2 SWAP1 PUSH2 0xAD8 JUMP JUMPDEST PUSH1 0x40 MLOAD DUP1 SWAP2 SUB SWAP1 RETURN JUMPDEST PUSH2 0xC9 PUSH1 0x4 DUP1 CALLDATASIZE SUB DUP2 ADD SWAP1 PUSH2 0xC4 SWAP2 SWAP1 PUSH2 0xD7B JUMP JUMPDEST PUSH2 0x404 JUMP JUMPDEST PUSH1 0x40 MLOAD PUSH2 0xD6 SWAP2 SWAP1 PUSH2 0xE14 JUMP JUMPDEST PUSH1 0x40 MLOAD DUP1 SWAP2 SUB SWAP1 RETURN JUMPDEST PUSH2 0xE7 PUSH2 0x4CC JUMP JUMPDEST PUSH1 0x40 MLOAD PUSH2 0xF4 SWAP2 SWAP1 PUSH2 0xE8F JUMP JUMPDEST PUSH1 0x40 MLOAD DUP1 SWAP2 SUB SWAP1 RETURN JUMPDEST PUSH1 0x60 PUSH2 0x107 PUSH2 0x7AC JUMP JUMPDEST PUSH0 DUP1 PUSH0 SWAP1 SLOAD SWAP1 PUSH2 0x100 EXP SWAP1 DIV PUSH20 0xFFFFFFFFFFFFFFFFFFFFFFFFFFFFFFFFFFFFFFFF AND PUSH20 0xFFFFFFFFFFFFFFFFFFFFFFFFFFFFFFFFFFFFFFFF AND PUSH4 0xE67CDAFD PUSH1 0x40 MLOAD DUP2 PUSH4 0xFFFFFFFF AND PUSH1 0xE0 SHL DUP2 MSTORE PUSH1 0x4 ADD PUSH1 0x20 PUSH1 0x40 MLOAD DUP1 DUP4 SUB DUP2 DUP7 GAS STATICCALL ISZERO DUP1 ISZERO PUSH2 0x171 JUMPI RETURNDATASIZE PUSH0 DUP1 RETURNDATACOPY RETURNDATASIZE PUSH0 REVERT JUMPDEST POP POP POP POP PUSH1 0x40 MLOAD RETURNDATASIZE PUSH1 0x1F NOT PUSH1 0x1F DUP3 ADD AND DUP3 ADD DUP1 PUSH1 0x40 MSTORE POP DUP2 ADD SWAP1 PUSH2 0x195 SWAP2 SWAP1 PUSH2 0xEBC JUMP JUMPDEST SWAP1 POP DUP4 DUP2 PUSH20 0xFFFFFFFFFFFFFFFFFFFFFFFFFFFFFFFFFFFFFFFF AND PUSH4 0x404730F4 PUSH1 0x40 MLOAD DUP2 PUSH4 0xFFFFFFFF AND PUSH1 0xE0 SHL DUP2 MSTORE PUSH1 0x4 ADD PUSH1 0x20 PUSH1 0x40 MLOAD DUP1 DUP4 SUB DUP2 DUP7 GAS STATICCALL ISZERO DUP1 ISZERO PUSH2 0x1E1 JUMPI RETURNDATASIZE PUSH0 DUP1 RETURNDATACOPY RETURNDATASIZE PUSH0 REVERT JUMPDEST POP POP POP POP PUSH1 0x40 MLOAD RETURNDATASIZE PUSH1 0x1F NOT PUSH1 0x1F DUP3 ADD AND DUP3 ADD DUP1 PUSH1 0x40 MSTORE POP DUP2 ADD SWAP1 PUSH2 0x205 SWAP2 SWAP1 PUSH2 0xEFB JUMP JUMPDEST LT ISZERO PUSH2 0x246 JUMPI PUSH1 0x40 MLOAD PUSH32 0x8C379A000000000000000000000000000000000000000000000000000000000 DUP2 MSTORE PUSH1 0x4 ADD PUSH2 0x23D SWAP1 PUSH2 0xF70 JUMP JUMPDEST PUSH1 0x40 MLOAD DUP1 SWAP2 SUB SWAP1 REVERT JUMPDEST PUSH0 DUP2 PUSH20 0xFFFFFFFFFFFFFFFFFFFFFFFFFFFFFFFFFFFFFFFF AND PUSH3 0x407D2A DUP7 PUSH1 0x40 MLOAD DUP3 PUSH4 0xFFFFFFFF AND PUSH1 0xE0 SHL DUP2 MSTORE PUSH1 0x4 ADD PUSH2 0x27F SWAP2 SWAP1 PUSH2 0xF9D JUMP JUMPDEST PUSH0 PUSH1 0x40 MLOAD DUP1 DUP4 SUB DUP2 DUP7 GAS STATICCALL ISZERO DUP1 ISZERO PUSH2 0x299 JUMPI RETURNDATASIZE PUSH0 DUP1 RETURNDATACOPY RETURNDATASIZE PUSH0 REVERT JUMPDEST POP POP POP POP PUSH1 0x40 MLOAD RETURNDATASIZE PUSH0 DUP3 RETURNDATACOPY RETURNDATASIZE PUSH1 0x1F NOT PUSH1 0x1F DUP3 ADD AND DUP3 ADD DUP1 PUSH1 0x40 MSTORE POP DUP2 ADD SWAP1 PUSH2 0x2C1 SWAP2 SWAP1 PUSH2 0x1149 JUMP JUMPDEST SWAP1 POP PUSH1 0x60 TIMESTAMP DUP3 PUSH1 0x60 ADD MLOAD DUP4 PUSH1 0x40 ADD MLOAD PUSH2 0x2DA SWAP2 SWAP1 PUSH2 0x11BD JUMP JUMPDEST GT PUSH2 0x2FB JUMPI PUSH1 0x40 MLOAD DUP1 PUSH1 0x60 ADD PUSH1 0x40 MSTORE DUP1 PUSH1 0x22 DUP2 MSTORE PUSH1 0x20 ADD PUSH2 0x30B8 PUSH1 0x22 SWAP2 CODECOPY SWAP1 POP JUMPDEST PUSH0 PUSH2 0x318 DUP4 PUSH1 0x60 ADD MLOAD DUP5 PUSH1 0x40 ADD MLOAD PUSH2 0x313 SWAP2 SWAP1 PUSH2 0x11BD JUMP JUMPDEST PUSH2 0x4EF JUMP JUMPDEST SWAP1 POP DUP3 PUSH2 0x140 ADD MLOAD PUSH2 0x32D DUP5 PUSH1 0xC0 ADD MLOAD PUSH2 0x4EF JUMP JUMPDEST PUSH2 0x33A DUP6 PUSH1 0xE0 ADD MLOAD PUSH2 0x4EF JUMP JUMPDEST PUSH2 0x348 DUP7 PUSH2 0x100 ADD MLOAD PUSH2 0x4EF JUMP JUMPDEST PUSH2 0x356 DUP8 PUSH2 0x120 ADD MLOAD PUSH2 0x4EF JUMP JUMPDEST DUP7 PUSH1 0x40 MLOAD PUSH1 0x20 ADD PUSH2 0x36C SWAP7 SWAP6 SWAP5 SWAP4 SWAP3 SWAP2 SWAP1 PUSH2 0x140C JUMP JUMPDEST PUSH1 0x40 MLOAD PUSH1 0x20 DUP2 DUP4 SUB SUB DUP2 MSTORE SWAP1 PUSH1 0x40 MSTORE SWAP6 POP DUP6 DUP4 SWAP6 POP SWAP6 POP POP POP POP POP SWAP2 POP SWAP2 JUMP JUMPDEST PUSH1 0x60 PUSH0 DUP1 PUSH2 0x399 DUP5 PUSH2 0xFD JUMP JUMPDEST SWAP2 POP SWAP2 POP PUSH0 PUSH2 0x3AF PUSH2 0x3AA DUP4 PUSH2 0x404 JUMP JUMPDEST PUSH2 0x64D JUMP JUMPDEST SWAP1 POP PUSH2 0x3DB DUP4 DUP3 PUSH1 0x40 MLOAD PUSH1 0x20 ADD PUSH2 0x3C7 SWAP3 SWAP2 SWAP1 PUSH2 0x1661 JUMP JUMPDEST PUSH1 0x40 MLOAD PUSH1 0x20 DUP2 DUP4 SUB SUB DUP2 MSTORE SWAP1 PUSH1 0x40 MSTORE PUSH2 0x64D JUMP JUMPDEST PUSH1 0x40 MLOAD PUSH1 0x20 ADD PUSH2 0x3EB SWAP2 SWAP1 PUSH2 0x1710 JUMP JUMPDEST PUSH1 0x40 MLOAD PUSH1 0x20 DUP2 DUP4 SUB SUB DUP2 MSTORE SWAP1 PUSH1 0x40 MSTORE SWAP4 POP POP POP POP SWAP2 SWAP1 POP JUMP JUMPDEST PUSH1 0x60 PUSH0 DUP3 PUSH2 0x140 ADD MLOAD PUSH2 0x41A DUP5 PUSH1 0xC0 ADD MLOAD PUSH2 0x4EF JUMP JUMPDEST PUSH2 0x427 DUP6 PUSH1 0xE0 ADD MLOAD PUSH2 0x4EF JUMP JUMPDEST PUSH2 0x435 DUP7 PUSH2 0x100 ADD MLOAD PUSH2 0x4EF JUMP JUMPDEST PUSH2 0x443 DUP8 PUSH2 0x120 ADD MLOAD PUSH2 0x4EF JUMP JUMPDEST PUSH2 0x45F DUP9 PUSH1 0x40 ADD MLOAD DUP10 PUSH1 0x60 ADD MLOAD PUSH2 0x45A SWAP2 SWAP1 PUSH2 0x11BD JUMP JUMPDEST PUSH2 0x4EF JUMP JUMPDEST PUSH1 0x40 MLOAD PUSH1 0x20 ADD PUSH2 0x474 SWAP7 SWAP6 SWAP5 SWAP4 SWAP3 SWAP2 SWAP1 PUSH2 0x1915 JUMP JUMPDEST PUSH1 0x40 MLOAD PUSH1 0x20 DUP2 DUP4 SUB SUB DUP2 MSTORE SWAP1 PUSH1 0x40 MSTORE SWAP1 POP DUP1 PUSH1 0x40 MLOAD PUSH1 0x20 ADD PUSH2 0x496 SWAP2 SWAP1 PUSH2 0x2ED7 JUMP JUMPDEST PUSH1 0x40 MLOAD PUSH1 0x20 DUP2 DUP4 SUB SUB DUP2 MSTORE SWAP1 PUSH1 0x40 MSTORE PUSH1 0x40 MLOAD PUSH1 0x20 ADD PUSH2 0x4B5 SWAP2 SWAP1 PUSH2 0x2EF8 JUMP JUMPDEST PUSH1 0x40 MLOAD PUSH1 0x20 DUP2 DUP4 SUB SUB DUP2 MSTORE SWAP1 PUSH1 0x40 MSTORE SWAP2 POP POP SWAP2 SWAP1 POP JUMP JUMPDEST PUSH0 DUP1 SLOAD SWAP1 PUSH2 0x100 EXP SWAP1 DIV PUSH20 0xFFFFFFFFFFFFFFFFFFFFFFFFFFFFFFFFFFFFFFFF AND DUP2 JUMP JUMPDEST PUSH1 0x60 PUSH0 DUP3 SUB PUSH2 0x535 JUMPI PUSH1 0x40 MLOAD DUP1 PUSH1 0x40 ADD PUSH1 0x40 MSTORE DUP1 PUSH1 0x1 DUP2 MSTORE PUSH1 0x20 ADD PUSH32 0x3000000000000000000000000000000000000000000000000000000000000000 DUP2 MSTORE POP SWAP1 POP PUSH2 0x648 JUMP JUMPDEST PUSH0 DUP3 SWAP1 POP PUSH0 JUMPDEST PUSH0 DUP3 EQ PUSH2 0x564 JUMPI DUP1 DUP1 PUSH2 0x54D SWAP1 PUSH2 0x2F0E JUMP JUMPDEST SWAP2 POP POP PUSH1 0xA DUP3 PUSH2 0x55D SWAP2 SWAP1 PUSH2 0x2F82 JUMP JUMPDEST SWAP2 POP PUSH2 0x53B JUMP JUMPDEST PUSH0 DUP2 PUSH8 0xFFFFFFFFFFFFFFFF DUP2 GT ISZERO PUSH2 0x57F JUMPI PUSH2 0x57E PUSH2 0xAFC JUMP JUMPDEST JUMPDEST PUSH1 0x40 MLOAD SWAP1 DUP1 DUP3 MSTORE DUP1 PUSH1 0x1F ADD PUSH1 0x1F NOT AND PUSH1 0x20 ADD DUP3 ADD PUSH1 0x40 MSTORE DUP1 ISZERO PUSH2 0x5B1 JUMPI DUP2 PUSH1 0x20 ADD PUSH1 0x1 DUP3 MUL DUP1 CALLDATASIZE DUP4 CALLDATACOPY DUP1 DUP3 ADD SWAP2 POP POP SWAP1 POP JUMPDEST POP SWAP1 POP PUSH0 DUP3 SWAP1 POP DUP6 SWAP4 POP JUMPDEST PUSH0 DUP5 EQ PUSH2 0x640 JUMPI PUSH1 0xA DUP5 PUSH2 0x5D0 SWAP2 SWAP1 PUSH2 0x2FB2 JUMP JUMPDEST PUSH1 0x30 PUSH2 0x5DC SWAP2 SWAP1 PUSH2 0x11BD JUMP JUMPDEST PUSH1 0xF8 SHL DUP3 DUP3 PUSH2 0x5EA SWAP1 PUSH2 0x2FE2 JUMP JUMPDEST SWAP3 POP DUP3 DUP2 MLOAD DUP2 LT PUSH2 0x5FE JUMPI PUSH2 0x5FD PUSH2 0x3009 JUMP JUMPDEST JUMPDEST PUSH1 0x20 ADD ADD SWAP1 PUSH31 0xFFFFFFFFFFFFFFFFFFFFFFFFFFFFFFFFFFFFFFFFFFFFFFFFFFFFFFFFFFFFFF NOT AND SWAP1 DUP2 PUSH0 BYTE SWAP1 MSTORE8 POP PUSH1 0xA DUP5 PUSH2 0x639 SWAP2 SWAP1 PUSH2 0x2F82 JUMP JUMPDEST SWAP4 POP PUSH2 0x5BC JUMP JUMPDEST DUP2 SWAP5 POP POP POP POP POP JUMPDEST SWAP2 SWAP1 POP JUMP JUMPDEST PUSH1 0x60 PUSH0 DUP3 MLOAD SUB PUSH2 0x66D JUMPI PUSH1 0x40 MLOAD DUP1 PUSH1 0x20 ADD PUSH1 0x40 MSTORE DUP1 PUSH0 DUP2 MSTORE POP SWAP1 POP PUSH2 0x7A7 JUMP JUMPDEST PUSH0 PUSH1 0x40 MLOAD DUP1 PUSH1 0x60 ADD PUSH1 0x40 MSTORE DUP1 PUSH1 0x40 DUP2 MSTORE PUSH1 0x20 ADD PUSH2 0x3078 PUSH1 0x40 SWAP2 CODECOPY SWAP1 POP PUSH0 PUSH1 0x3 PUSH1 0x2 DUP6 MLOAD PUSH2 0x69A SWAP2 SWAP1 PUSH2 0x11BD JUMP JUMPDEST PUSH2 0x6A4 SWAP2 SWAP1 PUSH2 0x2F82 JUMP JUMPDEST PUSH1 0x4 PUSH2 0x6B0 SWAP2 SWAP1 PUSH2 0x3036 JUMP JUMPDEST PUSH8 0xFFFFFFFFFFFFFFFF DUP2 GT ISZERO PUSH2 0x6C9 JUMPI PUSH2 0x6C8 PUSH2 0xAFC JUMP JUMPDEST JUMPDEST PUSH1 0x40 MLOAD SWAP1 DUP1 DUP3 MSTORE DUP1 PUSH1 0x1F ADD PUSH1 0x1F NOT AND PUSH1 0x20 ADD DUP3 ADD PUSH1 0x40 MSTORE DUP1 ISZERO PUSH2 0x6FB JUMPI DUP2 PUSH1 0x20 ADD PUSH1 0x1 DUP3 MUL DUP1 CALLDATASIZE DUP4 CALLDATACOPY DUP1 DUP3 ADD SWAP2 POP POP SWAP1 POP JUMPDEST POP SWAP1 POP PUSH1 0x1 DUP3 ADD PUSH1 0x20 DUP3 ADD DUP6 DUP7 MLOAD DUP8 ADD JUMPDEST DUP1 DUP3 LT ISZERO PUSH2 0x767 JUMPI PUSH1 0x3 DUP3 ADD SWAP2 POP DUP2 MLOAD PUSH1 0x3F DUP2 PUSH1 0x12 SHR AND DUP6 ADD MLOAD DUP5 MSTORE8 PUSH1 0x1 DUP5 ADD SWAP4 POP PUSH1 0x3F DUP2 PUSH1 0xC SHR AND DUP6 ADD MLOAD DUP5 MSTORE8 PUSH1 0x1 DUP5 ADD SWAP4 POP PUSH1 0x3F DUP2 PUSH1 0x6 SHR AND DUP6 ADD MLOAD DUP5 MSTORE8 PUSH1 0x1 DUP5 ADD SWAP4 POP PUSH1 0x3F DUP2 AND DUP6 ADD MLOAD DUP5 MSTORE8 PUSH1 0x1 DUP5 ADD SWAP4 POP POP PUSH2 0x70C JUMP JUMPDEST POP POP PUSH1 0x3 DUP7 MLOAD MOD PUSH1 0x1 DUP2 EQ PUSH2 0x783 JUMPI PUSH1 0x2 DUP2 EQ PUSH2 0x796 JUMPI PUSH2 0x79E JUMP JUMPDEST PUSH1 0x3D PUSH1 0x1 DUP4 SUB MSTORE8 PUSH1 0x3D PUSH1 0x2 DUP4 SUB MSTORE8 PUSH2 0x79E JUMP JUMPDEST PUSH1 0x3D PUSH1 0x1 DUP4 SUB MSTORE8 JUMPDEST POP POP POP DUP1 SWAP3 POP POP POP JUMPDEST SWAP2 SWAP1 POP JUMP JUMPDEST PUSH1 0x40 MLOAD DUP1 PUSH2 0x160 ADD PUSH1 0x40 MSTORE DUP1 PUSH0 DUP2 MSTORE PUSH1 0x20 ADD PUSH0 DUP2 MSTORE PUSH1 0x20 ADD PUSH0 DUP2 MSTORE PUSH1 0x20 ADD PUSH0 DUP2 MSTORE PUSH1 0x20 ADD PUSH0 PUSH20 0xFFFFFFFFFFFFFFFFFFFFFFFFFFFFFFFFFFFFFFFF AND DUP2 MSTORE PUSH1 0x20 ADD PUSH0 PUSH20 0xFFFFFFFFFFFFFFFFFFFFFFFFFFFFFFFFFFFFFFFF AND DUP2 MSTORE PUSH1 0x20 ADD PUSH0 DUP2 MSTORE PUSH1 0x20 ADD PUSH0 DUP2 MSTORE PUSH1 0x20 ADD PUSH0 DUP2 MSTORE PUSH1 0x20 ADD PUSH0 DUP2 MSTORE PUSH1 0x20 ADD PUSH1 0x60 DUP2 MSTORE POP SWAP1 JUMP JUMPDEST PUSH0 PUSH1 0x40 MLOAD SWAP1 POP SWAP1 JUMP JUMPDEST PUSH0 DUP1 REVERT JUMPDEST PUSH0 DUP1 REVERT JUMPDEST PUSH0 DUP2 SWAP1 POP SWAP2 SWAP1 POP JUMP JUMPDEST PUSH2 0x84B DUP2 PUSH2 0x839 JUMP JUMPDEST DUP2 EQ PUSH2 0x855 JUMPI PUSH0 DUP1 REVERT JUMPDEST POP JUMP JUMPDEST PUSH0 DUP2 CALLDATALOAD SWAP1 POP PUSH2 0x866 DUP2 PUSH2 0x842 JUMP JUMPDEST SWAP3 SWAP2 POP POP JUMP JUMPDEST PUSH0 PUSH1 0x20 DUP3 DUP5 SUB SLT ISZERO PUSH2 0x881 JUMPI PUSH2 0x880 PUSH2 0x831 JUMP JUMPDEST JUMPDEST PUSH0 PUSH2 0x88E DUP5 DUP3 DUP6 ADD PUSH2 0x858 JUMP JUMPDEST SWAP2 POP POP SWAP3 SWAP2 POP POP JUMP JUMPDEST PUSH0 DUP2 MLOAD SWAP1 POP SWAP2 SWAP1 POP JUMP JUMPDEST PUSH0 DUP3 DUP3 MSTORE PUSH1 0x20 DUP3 ADD SWAP1 POP SWAP3 SWAP2 POP POP JUMP JUMPDEST PUSH0 JUMPDEST DUP4 DUP2 LT ISZERO PUSH2 0x8CE JUMPI DUP1 DUP3 ADD MLOAD DUP2 DUP5 ADD MSTORE PUSH1 0x20 DUP2 ADD SWAP1 POP PUSH2 0x8B3 JUMP JUMPDEST PUSH0 DUP5 DUP5 ADD MSTORE POP POP POP POP JUMP JUMPDEST PUSH0 PUSH1 0x1F NOT PUSH1 0x1F DUP4 ADD AND SWAP1 POP SWAP2 SWAP1 POP JUMP JUMPDEST PUSH0 PUSH2 0x8F3 DUP3 PUSH2 0x897 JUMP JUMPDEST PUSH2 0x8FD DUP2 DUP6 PUSH2 0x8A1 JUMP JUMPDEST SWAP4 POP PUSH2 0x90D DUP2 DUP6 PUSH1 0x20 DUP7 ADD PUSH2 0x8B1 JUMP JUMPDEST PUSH2 0x916 DUP2 PUSH2 0x8D9 JUMP JUMPDEST DUP5 ADD SWAP2 POP POP SWAP3 SWAP2 POP POP JUMP JUMPDEST PUSH2 0x92A DUP2 PUSH2 0x839 JUMP JUMPDEST DUP3 MSTORE POP POP JUMP JUMPDEST PUSH0 PUSH20 0xFFFFFFFFFFFFFFFFFFFFFFFFFFFFFFFFFFFFFFFF DUP3 AND SWAP1 POP SWAP2 SWAP1 POP JUMP JUMPDEST PUSH0 PUSH2 0x959 DUP3 PUSH2 0x930 JUMP JUMPDEST SWAP1 POP SWAP2 SWAP1 POP JUMP JUMPDEST PUSH2 0x969 DUP2 PUSH2 0x94F JUMP JUMPDEST DUP3 MSTORE POP POP JUMP JUMPDEST PUSH0 DUP3 DUP3 MSTORE PUSH1 0x20 DUP3 ADD SWAP1 POP SWAP3 SWAP2 POP POP JUMP JUMPDEST PUSH0 PUSH2 0x989 DUP3 PUSH2 0x897 JUMP JUMPDEST PUSH2 0x993 DUP2 DUP6 PUSH2 0x96F JUMP JUMPDEST SWAP4 POP PUSH2 0x9A3 DUP2 DUP6 PUSH1 0x20 DUP7 ADD PUSH2 0x8B1 JUMP JUMPDEST PUSH2 0x9AC DUP2 PUSH2 0x8D9 JUMP JUMPDEST DUP5 ADD SWAP2 POP POP SWAP3 SWAP2 POP POP JUMP JUMPDEST PUSH0 PUSH2 0x160 DUP4 ADD PUSH0 DUP4 ADD MLOAD PUSH2 0x9CD PUSH0 DUP7 ADD DUP3 PUSH2 0x921 JUMP JUMPDEST POP PUSH1 0x20 DUP4 ADD MLOAD PUSH2 0x9E0 PUSH1 0x20 DUP7 ADD DUP3 PUSH2 0x921 JUMP JUMPDEST POP PUSH1 0x40 DUP4 ADD MLOAD PUSH2 0x9F3 PUSH1 0x40 DUP7 ADD DUP3 PUSH2 0x921 JUMP JUMPDEST POP PUSH1 0x60 DUP4 ADD MLOAD PUSH2 0xA06 PUSH1 0x60 DUP7 ADD DUP3 PUSH2 0x921 JUMP JUMPDEST POP PUSH1 0x80 DUP4 ADD MLOAD PUSH2 0xA19 PUSH1 0x80 DUP7 ADD DUP3 PUSH2 0x960 JUMP JUMPDEST POP PUSH1 0xA0 DUP4 ADD MLOAD PUSH2 0xA2C PUSH1 0xA0 DUP7 ADD DUP3 PUSH2 0x960 JUMP JUMPDEST POP PUSH1 0xC0 DUP4 ADD MLOAD PUSH2 0xA3F PUSH1 0xC0 DUP7 ADD DUP3 PUSH2 0x921 JUMP JUMPDEST POP PUSH1 0xE0 DUP4 ADD MLOAD PUSH2 0xA52 PUSH1 0xE0 DUP7 ADD DUP3 PUSH2 0x921 JUMP JUMPDEST POP PUSH2 0x100 DUP4 ADD MLOAD PUSH2 0xA67 PUSH2 0x100 DUP7 ADD DUP3 PUSH2 0x921 JUMP JUMPDEST POP PUSH2 0x120 DUP4 ADD MLOAD PUSH2 0xA7C PUSH2 0x120 DUP7 ADD DUP3 PUSH2 0x921 JUMP JUMPDEST POP PUSH2 0x140 DUP4 ADD MLOAD DUP5 DUP3 SUB PUSH2 0x140 DUP7 ADD MSTORE PUSH2 0xA96 DUP3 DUP3 PUSH2 0x97F JUMP JUMPDEST SWAP2 POP POP DUP1 SWAP2 POP POP SWAP3 SWAP2 POP POP JUMP JUMPDEST PUSH0 PUSH1 0x40 DUP3 ADD SWAP1 POP DUP2 DUP2 SUB PUSH0 DUP4 ADD MSTORE PUSH2 0xABB DUP2 DUP6 PUSH2 0x8E9 JUMP JUMPDEST SWAP1 POP DUP2 DUP2 SUB PUSH1 0x20 DUP4 ADD MSTORE PUSH2 0xACF DUP2 DUP5 PUSH2 0x9B7 JUMP JUMPDEST SWAP1 POP SWAP4 SWAP3 POP POP POP JUMP JUMPDEST PUSH0 PUSH1 0x20 DUP3 ADD SWAP1 POP DUP2 DUP2 SUB PUSH0 DUP4 ADD MSTORE PUSH2 0xAF0 DUP2 DUP5 PUSH2 0x8E9 JUMP JUMPDEST SWAP1 POP SWAP3 SWAP2 POP POP JUMP JUMPDEST PUSH0 DUP1 REVERT JUMPDEST PUSH32 0x4E487B7100000000000000000000000000000000000000000000000000000000 PUSH0 MSTORE PUSH1 0x41 PUSH1 0x4 MSTORE PUSH1 0x24 PUSH0 REVERT JUMPDEST PUSH2 0xB32 DUP3 PUSH2 0x8D9 JUMP JUMPDEST DUP2 ADD DUP2 DUP2 LT PUSH8 0xFFFFFFFFFFFFFFFF DUP3 GT OR ISZERO PUSH2 0xB51 JUMPI PUSH2 0xB50 PUSH2 0xAFC JUMP JUMPDEST JUMPDEST DUP1 PUSH1 0x40 MSTORE POP POP POP JUMP JUMPDEST PUSH0 PUSH2 0xB63 PUSH2 0x828 JUMP JUMPDEST SWAP1 POP PUSH2 0xB6F DUP3 DUP3 PUSH2 0xB29 JUMP JUMPDEST SWAP2 SWAP1 POP JUMP JUMPDEST PUSH0 DUP1 REVERT JUMPDEST PUSH2 0xB81 DUP2 PUSH2 0x94F JUMP JUMPDEST DUP2 EQ PUSH2 0xB8B JUMPI PUSH0 DUP1 REVERT JUMPDEST POP JUMP JUMPDEST PUSH0 DUP2 CALLDATALOAD SWAP1 POP PUSH2 0xB9C DUP2 PUSH2 0xB78 JUMP JUMPDEST SWAP3 SWAP2 POP POP JUMP JUMPDEST PUSH0 DUP1 REVERT JUMPDEST PUSH0 DUP1 REVERT JUMPDEST PUSH0 PUSH8 0xFFFFFFFFFFFFFFFF DUP3 GT ISZERO PUSH2 0xBC4 JUMPI PUSH2 0xBC3 PUSH2 0xAFC JUMP JUMPDEST JUMPDEST PUSH2 0xBCD DUP3 PUSH2 0x8D9 JUMP JUMPDEST SWAP1 POP PUSH1 0x20 DUP2 ADD SWAP1 POP SWAP2 SWAP1 POP JUMP JUMPDEST DUP3 DUP2 DUP4 CALLDATACOPY PUSH0 DUP4 DUP4 ADD MSTORE POP POP POP JUMP JUMPDEST PUSH0 PUSH2 0xBFA PUSH2 0xBF5 DUP5 PUSH2 0xBAA JUMP JUMPDEST PUSH2 0xB5A JUMP JUMPDEST SWAP1 POP DUP3 DUP2 MSTORE PUSH1 0x20 DUP2 ADD DUP5 DUP5 DUP5 ADD GT ISZERO PUSH2 0xC16 JUMPI PUSH2 0xC15 PUSH2 0xBA6 JUMP JUMPDEST JUMPDEST PUSH2 0xC21 DUP5 DUP3 DUP6 PUSH2 0xBDA JUMP JUMPDEST POP SWAP4 SWAP3 POP POP POP JUMP JUMPDEST PUSH0 DUP3 PUSH1 0x1F DUP4 ADD SLT PUSH2 0xC3D JUMPI PUSH2 0xC3C PUSH2 0xBA2 JUMP JUMPDEST JUMPDEST DUP2 CALLDATALOAD PUSH2 0xC4D DUP5 DUP3 PUSH1 0x20 DUP7 ADD PUSH2 0xBE8 JUMP JUMPDEST SWAP2 POP POP SWAP3 SWAP2 POP POP JUMP JUMPDEST PUSH0 PUSH2 0x160 DUP3 DUP5 SUB SLT ISZERO PUSH2 0xC6C JUMPI PUSH2 0xC6B PUSH2 0xAF8 JUMP JUMPDEST JUMPDEST PUSH2 0xC77 PUSH2 0x160 PUSH2 0xB5A JUMP JUMPDEST SWAP1 POP PUSH0 PUSH2 0xC86 DUP5 DUP3 DUP6 ADD PUSH2 0x858 JUMP JUMPDEST PUSH0 DUP4 ADD MSTORE POP PUSH1 0x20 PUSH2 0xC99 DUP5 DUP3 DUP6 ADD PUSH2 0x858 JUMP JUMPDEST PUSH1 0x20 DUP4 ADD MSTORE POP PUSH1 0x40 PUSH2 0xCAD DUP5 DUP3 DUP6 ADD PUSH2 0x858 JUMP JUMPDEST PUSH1 0x40 DUP4 ADD MSTORE POP PUSH1 0x60 PUSH2 0xCC1 DUP5 DUP3 DUP6 ADD PUSH2 0x858 JUMP JUMPDEST PUSH1 0x60 DUP4 ADD MSTORE POP PUSH1 0x80 PUSH2 0xCD5 DUP5 DUP3 DUP6 ADD PUSH2 0xB8E JUMP JUMPDEST PUSH1 0x80 DUP4 ADD MSTORE POP PUSH1 0xA0 PUSH2 0xCE9 DUP5 DUP3 DUP6 ADD PUSH2 0xB8E JUMP JUMPDEST PUSH1 0xA0 DUP4 ADD MSTORE POP PUSH1 0xC0 PUSH2 0xCFD DUP5 DUP3 DUP6 ADD PUSH2 0x858 JUMP JUMPDEST PUSH1 0xC0 DUP4 ADD MSTORE POP PUSH1 0xE0 PUSH2 0xD11 DUP5 DUP3 DUP6 ADD PUSH2 0x858 JUMP JUMPDEST PUSH1 0xE0 DUP4 ADD MSTORE POP PUSH2 0x100 PUSH2 0xD26 DUP5 DUP3 DUP6 ADD PUSH2 0x858 JUMP JUMPDEST PUSH2 0x100 DUP4 ADD MSTORE POP PUSH2 0x120 PUSH2 0xD3C DUP5 DUP3 DUP6 ADD PUSH2 0x858 JUMP JUMPDEST PUSH2 0x120 DUP4 ADD MSTORE POP PUSH2 0x140 DUP3 ADD CALLDATALOAD PUSH8 0xFFFFFFFFFFFFFFFF DUP2 GT ISZERO PUSH2 0xD62 JUMPI PUSH2 0xD61 PUSH2 0xB74 JUMP JUMPDEST JUMPDEST PUSH2 0xD6E DUP5 DUP3 DUP6 ADD PUSH2 0xC29 JUMP JUMPDEST PUSH2 0x140 DUP4 ADD MSTORE POP SWAP3 SWAP2 POP POP JUMP JUMPDEST PUSH0 PUSH1 0x20 DUP3 DUP5 SUB SLT ISZERO PUSH2 0xD90 JUMPI PUSH2 0xD8F PUSH2 0x831 JUMP JUMPDEST JUMPDEST PUSH0 DUP3 ADD CALLDATALOAD PUSH8 0xFFFFFFFFFFFFFFFF DUP2 GT ISZERO PUSH2 0xDAD JUMPI PUSH2 0xDAC PUSH2 0x835 JUMP JUMPDEST JUMPDEST PUSH2 0xDB9 DUP5 DUP3 DUP6 ADD PUSH2 0xC56 JUMP JUMPDEST SWAP2 POP POP SWAP3 SWAP2 POP POP JUMP JUMPDEST PUSH0 DUP2 MLOAD SWAP1 POP SWAP2 SWAP1 POP JUMP JUMPDEST PUSH0 DUP3 DUP3 MSTORE PUSH1 0x20 DUP3 ADD SWAP1 POP SWAP3 SWAP2 POP POP JUMP JUMPDEST PUSH0 PUSH2 0xDE6 DUP3 PUSH2 0xDC2 JUMP JUMPDEST PUSH2 0xDF0 DUP2 DUP6 PUSH2 0xDCC JUMP JUMPDEST SWAP4 POP PUSH2 0xE00 DUP2 DUP6 PUSH1 0x20 DUP7 ADD PUSH2 0x8B1 JUMP JUMPDEST PUSH2 0xE09 DUP2 PUSH2 0x8D9 JUMP JUMPDEST DUP5 ADD SWAP2 POP POP SWAP3 SWAP2 POP POP JUMP JUMPDEST PUSH0 PUSH1 0x20 DUP3 ADD SWAP1 POP DUP2 DUP2 SUB PUSH0 DUP4 ADD MSTORE PUSH2 0xE2C DUP2 DUP5 PUSH2 0xDDC JUMP JUMPDEST SWAP1 POP SWAP3 SWAP2 POP POP JUMP JUMPDEST PUSH0 DUP2 SWAP1 POP SWAP2 SWAP1 POP JUMP JUMPDEST PUSH0 PUSH2 0xE57 PUSH2 0xE52 PUSH2 0xE4D DUP5 PUSH2 0x930 JUMP JUMPDEST PUSH2 0xE34 JUMP JUMPDEST PUSH2 0x930 JUMP JUMPDEST SWAP1 POP SWAP2 SWAP1 POP JUMP JUMPDEST PUSH0 PUSH2 0xE68 DUP3 PUSH2 0xE3D JUMP JUMPDEST SWAP1 POP SWAP2 SWAP1 POP JUMP JUMPDEST PUSH0 PUSH2 0xE79 DUP3 PUSH2 0xE5E JUMP JUMPDEST SWAP1 POP SWAP2 SWAP1 POP JUMP JUMPDEST PUSH2 0xE89 DUP2 PUSH2 0xE6F JUMP JUMPDEST DUP3 MSTORE POP POP JUMP JUMPDEST PUSH0 PUSH1 0x20 DUP3 ADD SWAP1 POP PUSH2 0xEA2 PUSH0 DUP4 ADD DUP5 PUSH2 0xE80 JUMP JUMPDEST SWAP3 SWAP2 POP POP JUMP JUMPDEST PUSH0 DUP2 MLOAD SWAP1 POP PUSH2 0xEB6 DUP2 PUSH2 0xB78 JUMP JUMPDEST SWAP3 SWAP2 POP POP JUMP JUMPDEST PUSH0 PUSH1 0x20 DUP3 DUP5 SUB SLT ISZERO PUSH2 0xED1 JUMPI PUSH2 0xED0 PUSH2 0x831 JUMP JUMPDEST JUMPDEST PUSH0 PUSH2 0xEDE DUP5 DUP3 DUP6 ADD PUSH2 0xEA8 JUMP JUMPDEST SWAP2 POP POP SWAP3 SWAP2 POP POP JUMP JUMPDEST PUSH0 DUP2 MLOAD SWAP1 POP PUSH2 0xEF5 DUP2 PUSH2 0x842 JUMP JUMPDEST SWAP3 SWAP2 POP POP JUMP JUMPDEST PUSH0 PUSH1 0x20 DUP3 DUP5 SUB SLT ISZERO PUSH2 0xF10 JUMPI PUSH2 0xF0F PUSH2 0x831 JUMP JUMPDEST JUMPDEST PUSH0 PUSH2 0xF1D DUP5 DUP3 DUP6 ADD PUSH2 0xEE7 JUMP JUMPDEST SWAP2 POP POP SWAP3 SWAP2 POP POP JUMP JUMPDEST PUSH32 0x7468697320746F6B656E20646F6573206E6F7420657869737400000000000000 PUSH0 DUP3 ADD MSTORE POP JUMP JUMPDEST PUSH0 PUSH2 0xF5A PUSH1 0x19 DUP4 PUSH2 0x8A1 JUMP JUMPDEST SWAP2 POP PUSH2 0xF65 DUP3 PUSH2 0xF26 JUMP JUMPDEST PUSH1 0x20 DUP3 ADD SWAP1 POP SWAP2 SWAP1 POP JUMP JUMPDEST PUSH0 PUSH1 0x20 DUP3 ADD SWAP1 POP DUP2 DUP2 SUB PUSH0 DUP4 ADD MSTORE PUSH2 0xF87 DUP2 PUSH2 0xF4E JUMP JUMPDEST SWAP1 POP SWAP2 SWAP1 POP JUMP JUMPDEST PUSH2 0xF97 DUP2 PUSH2 0x839 JUMP JUMPDEST DUP3 MSTORE POP POP JUMP JUMPDEST PUSH0 PUSH1 0x20 DUP3 ADD SWAP1 POP PUSH2 0xFB0 PUSH0 DUP4 ADD DUP5 PUSH2 0xF8E JUMP JUMPDEST SWAP3 SWAP2 POP POP JUMP JUMPDEST PUSH0 PUSH2 0xFC8 PUSH2 0xFC3 DUP5 PUSH2 0xBAA JUMP JUMPDEST PUSH2 0xB5A JUMP JUMPDEST SWAP1 POP DUP3 DUP2 MSTORE PUSH1 0x20 DUP2 ADD DUP5 DUP5 DUP5 ADD GT ISZERO PUSH2 0xFE4 JUMPI PUSH2 0xFE3 PUSH2 0xBA6 JUMP JUMPDEST JUMPDEST PUSH2 0xFEF DUP5 DUP3 DUP6 PUSH2 0x8B1 JUMP JUMPDEST POP SWAP4 SWAP3 POP POP POP JUMP JUMPDEST PUSH0 DUP3 PUSH1 0x1F DUP4 ADD SLT PUSH2 0x100B JUMPI PUSH2 0x100A PUSH2 0xBA2 JUMP JUMPDEST JUMPDEST DUP2 MLOAD PUSH2 0x101B DUP5 DUP3 PUSH1 0x20 DUP7 ADD PUSH2 0xFB6 JUMP JUMPDEST SWAP2 POP POP SWAP3 SWAP2 POP POP JUMP JUMPDEST PUSH0 PUSH2 0x160 DUP3 DUP5 SUB SLT ISZERO PUSH2 0x103A JUMPI PUSH2 0x1039 PUSH2 0xAF8 JUMP JUMPDEST JUMPDEST PUSH2 0x1045 PUSH2 0x160 PUSH2 0xB5A JUMP JUMPDEST SWAP1 POP PUSH0 PUSH2 0x1054 DUP5 DUP3 DUP6 ADD PUSH2 0xEE7 JUMP JUMPDEST PUSH0 DUP4 ADD MSTORE POP PUSH1 0x20 PUSH2 0x1067 DUP5 DUP3 DUP6 ADD PUSH2 0xEE7 JUMP JUMPDEST PUSH1 0x20 DUP4 ADD MSTORE POP PUSH1 0x40 PUSH2 0x107B DUP5 DUP3 DUP6 ADD PUSH2 0xEE7 JUMP JUMPDEST PUSH1 0x40 DUP4 ADD MSTORE POP PUSH1 0x60 PUSH2 0x108F DUP5 DUP3 DUP6 ADD PUSH2 0xEE7 JUMP JUMPDEST PUSH1 0x60 DUP4 ADD MSTORE POP PUSH1 0x80 PUSH2 0x10A3 DUP5 DUP3 DUP6 ADD PUSH2 0xEA8 JUMP JUMPDEST PUSH1 0x80 DUP4 ADD MSTORE POP PUSH1 0xA0 PUSH2 0x10B7 DUP5 DUP3 DUP6 ADD PUSH2 0xEA8 JUMP JUMPDEST PUSH1 0xA0 DUP4 ADD MSTORE POP PUSH1 0xC0 PUSH2 0x10CB DUP5 DUP3 DUP6 ADD PUSH2 0xEE7 JUMP JUMPDEST PUSH1 0xC0 DUP4 ADD MSTORE POP PUSH1 0xE0 PUSH2 0x10DF DUP5 DUP3 DUP6 ADD PUSH2 0xEE7 JUMP JUMPDEST PUSH1 0xE0 DUP4 ADD MSTORE POP PUSH2 0x100 PUSH2 0x10F4 DUP5 DUP3 DUP6 ADD PUSH2 0xEE7 JUMP JUMPDEST PUSH2 0x100 DUP4 ADD MSTORE POP PUSH2 0x120 PUSH2 0x110A DUP5 DUP3 DUP6 ADD PUSH2 0xEE7 JUMP JUMPDEST PUSH2 0x120 DUP4 ADD MSTORE POP PUSH2 0x140 DUP3 ADD MLOAD PUSH8 0xFFFFFFFFFFFFFFFF DUP2 GT ISZERO PUSH2 0x1130 JUMPI PUSH2 0x112F PUSH2 0xB74 JUMP JUMPDEST JUMPDEST PUSH2 0x113C DUP5 DUP3 DUP6 ADD PUSH2 0xFF7 JUMP JUMPDEST PUSH2 0x140 DUP4 ADD MSTORE POP SWAP3 SWAP2 POP POP JUMP JUMPDEST PUSH0 PUSH1 0x20 DUP3 DUP5 SUB SLT ISZERO PUSH2 0x115E JUMPI PUSH2 0x115D PUSH2 0x831 JUMP JUMPDEST JUMPDEST PUSH0 DUP3 ADD MLOAD PUSH8 0xFFFFFFFFFFFFFFFF DUP2 GT ISZERO PUSH2 0x117B JUMPI PUSH2 0x117A PUSH2 0x835 JUMP JUMPDEST JUMPDEST PUSH2 0x1187 DUP5 DUP3 DUP6 ADD PUSH2 0x1024 JUMP JUMPDEST SWAP2 POP POP SWAP3 SWAP2 POP POP JUMP JUMPDEST PUSH32 0x4E487B7100000000000000000000000000000000000000000000000000000000 PUSH0 MSTORE PUSH1 0x11 PUSH1 0x4 MSTORE PUSH1 0x24 PUSH0 REVERT JUMPDEST PUSH0 PUSH2 0x11C7 DUP3 PUSH2 0x839 JUMP JUMPDEST SWAP2 POP PUSH2 0x11D2 DUP4 PUSH2 0x839 JUMP JUMPDEST SWAP3 POP DUP3 DUP3 ADD SWAP1 POP DUP1 DUP3 GT ISZERO PUSH2 0x11EA JUMPI PUSH2 0x11E9 PUSH2 0x1190 JUMP JUMPDEST JUMPDEST SWAP3 SWAP2 POP POP JUMP JUMPDEST PUSH0 DUP2 SWAP1 POP SWAP3 SWAP2 POP POP JUMP JUMPDEST PUSH32 0x54686973204E465420726570726573656E7473206120636F7665722070757263 PUSH0 DUP3 ADD MSTORE PUSH32 0x68617365206D61646520666F723A200000000000000000000000000000000000 PUSH1 0x20 DUP3 ADD MSTORE POP JUMP JUMPDEST PUSH0 PUSH2 0x1254 PUSH1 0x2F DUP4 PUSH2 0x11F0 JUMP JUMPDEST SWAP2 POP PUSH2 0x125F DUP3 PUSH2 0x11FA JUMP JUMPDEST PUSH1 0x2F DUP3 ADD SWAP1 POP SWAP2 SWAP1 POP JUMP JUMPDEST PUSH0 PUSH2 0x1274 DUP3 PUSH2 0x897 JUMP JUMPDEST PUSH2 0x127E DUP2 DUP6 PUSH2 0x11F0 JUMP JUMPDEST SWAP4 POP PUSH2 0x128E DUP2 DUP6 PUSH1 0x20 DUP7 ADD PUSH2 0x8B1 JUMP JUMPDEST DUP1 DUP5 ADD SWAP2 POP POP SWAP3 SWAP2 POP POP JUMP JUMPDEST PUSH32 0x205C6E496E697469616C20546F6B656E30205174793A20000000000000000000 PUSH0 DUP3 ADD MSTORE POP JUMP JUMPDEST PUSH0 PUSH2 0x12CE PUSH1 0x17 DUP4 PUSH2 0x11F0 JUMP JUMPDEST SWAP2 POP PUSH2 0x12D9 DUP3 PUSH2 0x129A JUMP JUMPDEST PUSH1 0x17 DUP3 ADD SWAP1 POP SWAP2 SWAP1 POP JUMP JUMPDEST PUSH32 0x205C6E496E697469616C20546F6B656E31205174793A20000000000000000000 PUSH0 DUP3 ADD MSTORE POP JUMP JUMPDEST PUSH0 PUSH2 0x1318 PUSH1 0x17 DUP4 PUSH2 0x11F0 JUMP JUMPDEST SWAP2 POP PUSH2 0x1323 DUP3 PUSH2 0x12E4 JUMP JUMPDEST PUSH1 0x17 DUP3 ADD SWAP1 POP SWAP2 SWAP1 POP JUMP JUMPDEST PUSH32 0x205C6E4C6F776572426F756E643A200000000000000000000000000000000000 PUSH0 DUP3 ADD MSTORE POP JUMP JUMPDEST PUSH0 PUSH2 0x1362 PUSH1 0xF DUP4 PUSH2 0x11F0 JUMP JUMPDEST SWAP2 POP PUSH2 0x136D DUP3 PUSH2 0x132E JUMP JUMPDEST PUSH1 0xF DUP3 ADD SWAP1 POP SWAP2 SWAP1 POP JUMP JUMPDEST PUSH32 0x205C6E5570706572426F756E643A200000000000000000000000000000000000 PUSH0 DUP3 ADD MSTORE POP JUMP JUMPDEST PUSH0 PUSH2 0x13AC PUSH1 0xF DUP4 PUSH2 0x11F0 JUMP JUMPDEST SWAP2 POP PUSH2 0x13B7 DUP3 PUSH2 0x1378 JUMP JUMPDEST PUSH1 0xF DUP3 ADD SWAP1 POP SWAP2 SWAP1 POP JUMP JUMPDEST PUSH32 0x205C6E4578706972793A20000000000000000000000000000000000000000000 PUSH0 DUP3 ADD MSTORE POP JUMP JUMPDEST PUSH0 PUSH2 0x13F6 PUSH1 0xB DUP4 PUSH2 0x11F0 JUMP JUMPDEST SWAP2 POP PUSH2 0x1401 DUP3 PUSH2 0x13C2 JUMP JUMPDEST PUSH1 0xB DUP3 ADD SWAP1 POP SWAP2 SWAP1 POP JUMP JUMPDEST PUSH0 PUSH2 0x1416 DUP3 PUSH2 0x1248 JUMP JUMPDEST SWAP2 POP PUSH2 0x1422 DUP3 DUP10 PUSH2 0x126A JUMP JUMPDEST SWAP2 POP PUSH2 0x142D DUP3 PUSH2 0x12C2 JUMP JUMPDEST SWAP2 POP PUSH2 0x1439 DUP3 DUP9 PUSH2 0x126A JUMP JUMPDEST SWAP2 POP PUSH2 0x1444 DUP3 PUSH2 0x130C JUMP JUMPDEST SWAP2 POP PUSH2 0x1450 DUP3 DUP8 PUSH2 0x126A JUMP JUMPDEST SWAP2 POP PUSH2 0x145B DUP3 PUSH2 0x1356 JUMP JUMPDEST SWAP2 POP PUSH2 0x1467 DUP3 DUP7 PUSH2 0x126A JUMP JUMPDEST SWAP2 POP PUSH2 0x1472 DUP3 PUSH2 0x13A0 JUMP JUMPDEST SWAP2 POP PUSH2 0x147E DUP3 DUP6 PUSH2 0x126A JUMP JUMPDEST SWAP2 POP PUSH2 0x1489 DUP3 PUSH2 0x13EA JUMP JUMPDEST SWAP2 POP PUSH2 0x1495 DUP3 DUP5 PUSH2 0x126A JUMP JUMPDEST SWAP2 POP DUP2 SWAP1 POP SWAP8 SWAP7 POP POP POP POP POP POP POP JUMP JUMPDEST PUSH32 0x7B226E616D65223A224865646765486F672050726F746F636F6C220000000000 PUSH0 DUP3 ADD MSTORE POP JUMP JUMPDEST PUSH0 PUSH2 0x14D9 PUSH1 0x1B DUP4 PUSH2 0x11F0 JUMP JUMPDEST SWAP2 POP PUSH2 0x14E4 DUP3 PUSH2 0x14A5 JUMP JUMPDEST PUSH1 0x1B DUP3 ADD SWAP1 POP SWAP2 SWAP1 POP JUMP JUMPDEST PUSH32 0x226465736372697074696F6E223A220000000000000000000000000000000000 PUSH0 DUP3 ADD MSTORE POP JUMP JUMPDEST PUSH0 PUSH2 0x1523 PUSH1 0xF DUP4 PUSH2 0x11F0 JUMP JUMPDEST SWAP2 POP PUSH2 0x152E DUP3 PUSH2 0x14EF JUMP JUMPDEST PUSH1 0xF DUP3 ADD SWAP1 POP SWAP2 SWAP1 POP JUMP JUMPDEST PUSH32 0x222C000000000000000000000000000000000000000000000000000000000000 PUSH0 DUP3 ADD MSTORE POP JUMP JUMPDEST PUSH0 PUSH2 0x156D PUSH1 0x2 DUP4 PUSH2 0x11F0 JUMP JUMPDEST SWAP2 POP PUSH2 0x1578 DUP3 PUSH2 0x1539 JUMP JUMPDEST PUSH1 0x2 DUP3 ADD SWAP1 POP SWAP2 SWAP1 POP JUMP JUMPDEST PUSH32 0x22696D616765223A202200000000000000000000000000000000000000000000 PUSH0 DUP3 ADD MSTORE POP JUMP JUMPDEST PUSH0 PUSH2 0x15B7 PUSH1 0xA DUP4 PUSH2 0x11F0 JUMP JUMPDEST SWAP2 POP PUSH2 0x15C2 DUP3 PUSH2 0x1583 JUMP JUMPDEST PUSH1 0xA DUP3 ADD SWAP1 POP SWAP2 SWAP1 POP JUMP JUMPDEST PUSH32 0x646174613A696D6167652F7376672B786D6C3B6261736536342C000000000000 PUSH0 DUP3 ADD MSTORE POP JUMP JUMPDEST PUSH0 PUSH2 0x1601 PUSH1 0x1A DUP4 PUSH2 0x11F0 JUMP JUMPDEST SWAP2 POP PUSH2 0x160C DUP3 PUSH2 0x15CD JUMP JUMPDEST PUSH1 0x1A DUP3 ADD SWAP1 POP SWAP2 SWAP1 POP JUMP JUMPDEST PUSH32 0x227D000000000000000000000000000000000000000000000000000000000000 PUSH0 DUP3 ADD MSTORE POP JUMP JUMPDEST PUSH0 PUSH2 0x164B PUSH1 0x2 DUP4 PUSH2 0x11F0 JUMP JUMPDEST SWAP2 POP PUSH2 0x1656 DUP3 PUSH2 0x1617 JUMP JUMPDEST PUSH1 0x2 DUP3 ADD SWAP1 POP SWAP2 SWAP1 POP JUMP JUMPDEST PUSH0 PUSH2 0x166B DUP3 PUSH2 0x14CD JUMP JUMPDEST SWAP2 POP PUSH2 0x1676 DUP3 PUSH2 0x1517 JUMP JUMPDEST SWAP2 POP PUSH2 0x1682 DUP3 DUP6 PUSH2 0x126A JUMP JUMPDEST SWAP2 POP PUSH2 0x168D DUP3 PUSH2 0x1561 JUMP JUMPDEST SWAP2 POP PUSH2 0x1698 DUP3 PUSH2 0x15AB JUMP JUMPDEST SWAP2 POP PUSH2 0x16A3 DUP3 PUSH2 0x15F5 JUMP JUMPDEST SWAP2 POP PUSH2 0x16AF DUP3 DUP5 PUSH2 0x126A JUMP JUMPDEST SWAP2 POP PUSH2 0x16BA DUP3 PUSH2 0x163F JUMP JUMPDEST SWAP2 POP DUP2 SWAP1 POP SWAP4 SWAP3 POP POP POP JUMP JUMPDEST PUSH32 0x646174613A6170706C69636174696F6E2F6A736F6E3B6261736536342C000000 PUSH0 DUP3 ADD MSTORE POP JUMP JUMPDEST PUSH0 PUSH2 0x16FA PUSH1 0x1D DUP4 PUSH2 0x11F0 JUMP JUMPDEST SWAP2 POP PUSH2 0x1705 DUP3 PUSH2 0x16C6 JUMP JUMPDEST PUSH1 0x1D DUP3 ADD SWAP1 POP SWAP2 SWAP1 POP JUMP JUMPDEST PUSH0 PUSH2 0x171A DUP3 PUSH2 0x16EE JUMP JUMPDEST SWAP2 POP PUSH2 0x1726 DUP3 DUP5 PUSH2 0x126A JUMP JUMPDEST SWAP2 POP DUP2 SWAP1 POP SWAP3 SWAP2 POP POP JUMP JUMPDEST PUSH32 0x3C747370616E3E00000000000000000000000000000000000000000000000000 PUSH0 DUP3 ADD MSTORE POP JUMP JUMPDEST PUSH0 PUSH2 0x1765 PUSH1 0x7 DUP4 PUSH2 0x11F0 JUMP JUMPDEST SWAP2 POP PUSH2 0x1770 DUP3 PUSH2 0x1731 JUMP JUMPDEST PUSH1 0x7 DUP3 ADD SWAP1 POP SWAP2 SWAP1 POP JUMP JUMPDEST PUSH32 0x3C2F747370616E3E3C2F746578743E20203C7465787420636C6173733D22636C PUSH0 DUP3 ADD MSTORE PUSH32 0x732D392220783D223933252220793D223430252220746578742D616E63686F72 PUSH1 0x20 DUP3 ADD MSTORE PUSH32 0x3D22656E64223E00000000000000000000000000000000000000000000000000 PUSH1 0x40 DUP3 ADD MSTORE POP JUMP JUMPDEST PUSH0 PUSH2 0x17FB PUSH1 0x47 DUP4 PUSH2 0x11F0 JUMP JUMPDEST SWAP2 POP PUSH2 0x1806 DUP3 PUSH2 0x177B JUMP JUMPDEST PUSH1 0x47 DUP3 ADD SWAP1 POP SWAP2 SWAP1 POP JUMP JUMPDEST PUSH32 0x2000000000000000000000000000000000000000000000000000000000000000 PUSH0 DUP3 ADD MSTORE POP JUMP JUMPDEST PUSH0 PUSH2 0x1845 PUSH1 0x1 DUP4 PUSH2 0x11F0 JUMP JUMPDEST SWAP2 POP PUSH2 0x1850 DUP3 PUSH2 0x1811 JUMP JUMPDEST PUSH1 0x1 DUP3 ADD SWAP1 POP SWAP2 SWAP1 POP JUMP JUMPDEST PUSH32 0x3C2F747370616E3E3C2F746578743E0000000000000000000000000000000000 PUSH0 DUP3 ADD MSTORE POP JUMP JUMPDEST PUSH0 PUSH2 0x188F PUSH1 0xF DUP4 PUSH2 0x11F0 JUMP JUMPDEST SWAP2 POP PUSH2 0x189A DUP3 PUSH2 0x185B JUMP JUMPDEST PUSH1 0xF DUP3 ADD SWAP1 POP SWAP2 SWAP1 POP JUMP JUMPDEST PUSH32 0x3C7465787420636C6173733D22636C732D392220783D223933252220793D2234 PUSH0 DUP3 ADD MSTORE PUSH32 0x35252220746578742D616E63686F723D22656E64223E3C747370616E3E000000 PUSH1 0x20 DUP3 ADD MSTORE POP JUMP JUMPDEST PUSH0 PUSH2 0x18FF PUSH1 0x3D DUP4 PUSH2 0x11F0 JUMP JUMPDEST SWAP2 POP PUSH2 0x190A DUP3 PUSH2 0x18A5 JUMP JUMPDEST PUSH1 0x3D DUP3 ADD SWAP1 POP SWAP2 SWAP1 POP JUMP JUMPDEST PUSH0 PUSH2 0x191F DUP3 PUSH2 0x1759 JUMP JUMPDEST SWAP2 POP PUSH2 0x192B DUP3 DUP10 PUSH2 0x126A JUMP JUMPDEST SWAP2 POP PUSH2 0x1936 DUP3 PUSH2 0x17EF JUMP JUMPDEST SWAP2 POP PUSH2 0x1941 DUP3 PUSH2 0x1759 JUMP JUMPDEST SWAP2 POP PUSH2 0x194D DUP3 DUP9 PUSH2 0x126A JUMP JUMPDEST SWAP2 POP PUSH2 0x1958 DUP3 PUSH2 0x1839 JUMP JUMPDEST SWAP2 POP PUSH2 0x1964 DUP3 DUP8 PUSH2 0x126A JUMP JUMPDEST SWAP2 POP PUSH2 0x196F DUP3 PUSH2 0x1883 JUMP JUMPDEST SWAP2 POP PUSH2 0x197A DUP3 PUSH2 0x1759 JUMP JUMPDEST SWAP2 POP PUSH2 0x1986 DUP3 DUP7 PUSH2 0x126A JUMP JUMPDEST SWAP2 POP PUSH2 0x1991 DUP3 PUSH2 0x1839 JUMP JUMPDEST SWAP2 POP PUSH2 0x199D DUP3 DUP6 PUSH2 0x126A JUMP JUMPDEST SWAP2 POP PUSH2 0x19A8 DUP3 PUSH2 0x1883 JUMP JUMPDEST SWAP2 POP PUSH2 0x19B3 DUP3 PUSH2 0x18F3 JUMP JUMPDEST SWAP2 POP PUSH2 0x19BF DUP3 DUP5 PUSH2 0x126A JUMP JUMPDEST SWAP2 POP PUSH2 0x19CA DUP3 PUSH2 0x1883 JUMP JUMPDEST SWAP2 POP DUP2 SWAP1 POP SWAP8 SWAP7 POP POP POP POP POP POP POP JUMP JUMPDEST PUSH32 0x3C7376672066696C6C3D222330303030303022206865696768743D2238303070 PUSH0 DUP3 ADD MSTORE PUSH32 0x78222077696474683D223830307078222076657273696F6E3D22312E31222069 PUSH1 0x20 DUP3 ADD MSTORE PUSH32 0x643D224C617965725F312220786D6C6E733D22687474703A2F2F7777772E7733 PUSH1 0x40 DUP3 ADD MSTORE PUSH32 0x2E6F72672F323030302F7376672220786D6C6E733A786C696E6B3D2268747470 PUSH1 0x60 DUP3 ADD MSTORE PUSH32 0x3A2F2F7777772E77332E6F72672F313939392F786C696E6B222076696577426F PUSH1 0x80 DUP3 ADD MSTORE PUSH32 0x783D2230203020353132203531322220786D6C3A73706163653D227072657365 PUSH1 0xA0 DUP3 ADD MSTORE PUSH32 0x727665223E3C673E3C673E3C7061746820643D224D3531312E36353920333038 PUSH1 0xC0 DUP3 ADD MSTORE PUSH32 0x2E38373461382E36323520382E363235203020302030202D352E303039202D35 PUSH1 0xE0 DUP3 ADD MSTORE PUSH32 0x2E353737632D32322E363433202D392E323932202D34312E373132202D32322E PUSH2 0x100 DUP3 ADD MSTORE PUSH32 0x343437202D35362E363735202D33392E303938202D33312E353639202D33352E PUSH2 0x120 DUP3 ADD MSTORE PUSH32 0x313332202D33372E373135202D38372E313931202D31352E323935202D313239 PUSH2 0x140 DUP3 ADD MSTORE PUSH32 0x2E35343161382E36323220382E363232203020302030202D362E333433202D31 PUSH2 0x160 DUP3 ADD MSTORE PUSH32 0x322E353634632D33332E383131202D352E303733202D35372E34323720342E34 PUSH2 0x180 DUP3 ADD MSTORE PUSH32 0x3038202D37302E3833332031322E3731396C2D352E303032202D34322E353137 PUSH2 0x1A0 DUP3 ADD MSTORE PUSH32 0x61382E363220382E3632203020302030202D332E353731202D362E3032342038 PUSH2 0x1C0 DUP3 ADD MSTORE PUSH32 0x2E363320382E3633203020302030202D362E383635202D312E333838632D3330 PUSH2 0x1E0 DUP3 ADD MSTORE PUSH32 0x2E323520362E373232202D35322E3336312032362E313031202D36352E303731 PUSH2 0x200 DUP3 ADD MSTORE PUSH32 0x2034302E336C2D362E383334202D33392E32393561382E36323520382E363235 PUSH2 0x220 DUP3 ADD MSTORE PUSH32 0x203020302030202D31312E393938202D362E343035632D32392E313138203132 PUSH2 0x240 DUP3 ADD MSTORE PUSH32 0x2E393431202D34392E3331382033392E353836202D36312E3032332035392E33 PUSH2 0x260 DUP3 ADD MSTORE PUSH32 0x35356C2D372E353433202D34352E32353961382E36323920382E363239203020 PUSH2 0x280 DUP3 ADD MSTORE PUSH32 0x302030202D31312E393635202D362E343834632D32392E3230332031322E3737 PUSH2 0x2A0 DUP3 ADD MSTORE PUSH32 0x35202D34382E3637352035302E303932202D35382E3731382037342E3630336C PUSH2 0x2C0 DUP3 ADD MSTORE PUSH32 0x2D31322E303339202D33312E36303361382E36323720382E3632372030203020 PUSH2 0x2E0 DUP3 ADD MSTORE PUSH32 0x30202D31342E313539202D332E3032384336382E3331203135312E3437342035 PUSH2 0x300 DUP3 ADD MSTORE PUSH32 0x382E3534203137372E3737352035342E3633203139352E3131376C2D32302E36 PUSH2 0x320 DUP3 ADD MSTORE PUSH32 0x3732202D32322E37393261382E36323620382E363236203020302030202D3133 PUSH2 0x340 DUP3 ADD MSTORE PUSH32 0x2E38383720312E35333443322E373731203230342E333036202D322E32353420 PUSH2 0x360 DUP3 ADD MSTORE PUSH32 0x3232352E33343520302E383732203235342E32363163332E3638352033342E30 PUSH2 0x380 DUP3 ADD MSTORE PUSH32 0x38332031382E3537382036352E3032322034312E3331312038382E383633202D PUSH2 0x3A0 DUP3 ADD MSTORE PUSH32 0x362E3138312032322E353133202D32342E3737342033372E383434202D32342E PUSH2 0x3C0 DUP3 ADD MSTORE PUSH32 0x3935382033372E39393361382E36323320382E36323320302030203020342E31 PUSH2 0x3E0 DUP3 ADD MSTORE PUSH32 0x38392031352E32353763322E39343420302E34323120352E38363420302E3631 PUSH2 0x400 DUP3 ADD MSTORE PUSH32 0x3320382E37353320302E3631332032342E39323820302034372E323732202D31 PUSH2 0x420 DUP3 ADD MSTORE PUSH32 0x342E3338332035362E363631202D32312E333734613135362E34353120313536 PUSH2 0x440 DUP3 ADD MSTORE PUSH32 0x2E3435312030203020302031362E38373920362E3938347632332E3131396330 PUSH2 0x460 DUP3 ADD MSTORE PUSH32 0x2031342E3734392031312E3330322032362E3833342032352E37332032372E35 PUSH2 0x480 DUP3 ADD MSTORE PUSH32 0x313320372E34343720302E3334372031342E3535202D322E3239312031392E39 PUSH2 0x4A0 DUP3 ADD MSTORE PUSH32 0x3438202D372E3433396132372E3134392032372E31343920302030203020382E PUSH2 0x4C0 DUP3 ADD MSTORE PUSH32 0x333732202D31392E353535762D31352E3038316831372E33357631342E353631 PUSH2 0x4E0 DUP3 ADD MSTORE PUSH32 0x63302031342E3734392031312E3330322032362E3833342032352E3733203237 PUSH2 0x500 DUP3 ADD MSTORE PUSH32 0x2E35313320372E34343720302E3334372031342E3535202D322E323931203139 PUSH2 0x520 DUP3 ADD MSTORE PUSH32 0x2E393438202D372E3433396132372E3134392032372E31343920302030203020 PUSH2 0x540 DUP3 ADD MSTORE PUSH32 0x382E333732202D31392E353535762D31352E3038316831372E3334397631342E PUSH2 0x560 DUP3 ADD MSTORE PUSH32 0x35363163302031342E3734392031312E3330322032362E3833342032352E3733 PUSH2 0x580 DUP3 ADD MSTORE PUSH32 0x2032372E35313320372E34353820302E3334372031342E3535202D322E323931 PUSH2 0x5A0 DUP3 ADD MSTORE PUSH32 0x2031392E393438202D372E3433396132372E3134392032372E31343920302030 PUSH2 0x5C0 DUP3 ADD MSTORE PUSH32 0x203020382E333732202D31392E353535762D31352E303831483331372E397631 PUSH2 0x5E0 DUP3 ADD MSTORE PUSH32 0x342E35363163302031342E3734392031312E3330322032362E3833342032352E PUSH2 0x600 DUP3 ADD MSTORE PUSH32 0x37332032372E35313320302E343420302E30323120302E383820302E30333120 PUSH2 0x620 DUP3 ADD MSTORE PUSH32 0x312E33313820302E30333120362E39373920302031332E353531202D322E3632 PUSH2 0x640 DUP3 ADD MSTORE PUSH32 0x352031382E3633202D372E3436396132372E3134392032372E31343920302030 PUSH2 0x660 DUP3 ADD MSTORE PUSH32 0x203020382E333732202D31392E353535563339302E356333342E393935202D33 PUSH2 0x680 DUP3 ADD MSTORE PUSH32 0x2E3034332036392E313638202D31352E3939322039392E333138202D33372E37 PUSH2 0x6A0 DUP3 ADD MSTORE PUSH32 0x30362032352E343534202D31382E3333312033392E3032202D33362E33362033 PUSH2 0x6C0 DUP3 ADD MSTORE PUSH32 0x392E313431202D33362E35333161382E36313720382E36313720302030203020 PUSH2 0x6E0 DUP3 ADD MSTORE PUSH32 0x312E3235202D372E3338397A4D34332E343738203337382E30363863342E3530 PUSH2 0x700 DUP3 ADD MSTORE PUSH32 0x37202D352E39383520392E313236202D31332E3433392031322E353533202D32 PUSH2 0x720 DUP3 ADD MSTORE PUSH32 0x322E303737613135342E333036203135342E3330362030203020302031342E30 PUSH2 0x740 DUP3 ADD MSTORE PUSH32 0x34362031302E323236632D362E36383220342E323632202D31362E3132322039 PUSH2 0x760 DUP3 ADD MSTORE PUSH32 0x2E323933202D32362E3539392031312E3835317A6D33352E393632202D32362E PUSH2 0x780 DUP3 ADD MSTORE PUSH32 0x333532632D33332E393638202D32312E393533202D35362E393535202D35382E PUSH2 0x7A0 DUP3 ADD MSTORE PUSH32 0x303434202D36312E343136202D39392E333133202D322E333532202D32312E37 PUSH2 0x7C0 DUP3 ADD MSTORE PUSH32 0x333220302E353435202D33372E3838352031312E333631202D35392E3434326C PUSH2 0x7E0 DUP3 ADD MSTORE PUSH32 0x32342E3837332032372E34323461382E36313920382E36313920302030203020 PUSH2 0x800 DUP3 ADD MSTORE PUSH32 0x392E34363720322E32343820382E36343220382E36343220302030203020352E PUSH2 0x820 DUP3 ADD MSTORE PUSH32 0x353436202D382E30313463302E303032202D302E33363120302E3535202D3333 PUSH2 0x840 DUP3 ADD MSTORE PUSH32 0x2E3038352032362E353034202D36352E3230336C31352E3333352034302E3235 PUSH2 0x860 DUP3 ADD MSTORE PUSH32 0x3563312E33323120332E34363820342E37313820352E37313820382E34323220 PUSH2 0x880 DUP3 ADD MSTORE PUSH32 0x352E35343661382E36323520382E36323520302030203020372E393237202D36 PUSH2 0x8A0 DUP3 ADD MSTORE PUSH32 0x2E32333563302E303532202D302E31373720352E313934202D31372E39303320 PUSH2 0x8C0 DUP3 ADD MSTORE PUSH32 0x31352E313038202D33372E36333120392E383332202D31392E3536342032302E PUSH2 0x8E0 DUP3 ADD MSTORE PUSH32 0x373639202D33342E3033312033322E303735202D34322E3535396C392E383131 PUSH2 0x900 DUP3 ADD MSTORE PUSH32 0x2035382E38363961382E36323420382E36323420302030203020372E36303720 PUSH2 0x920 DUP3 ADD MSTORE PUSH32 0x372E31353620382E36323420382E36323420302030203020382E3933202D352E PUSH2 0x940 DUP3 ADD MSTORE PUSH32 0x34323363302E32202D302E3530372031382E373538202D34362E383138203534 PUSH2 0x960 DUP3 ADD MSTORE PUSH32 0x2E323132202D36382E3834396C382E3134332034362E383261382E3632342038 PUSH2 0x980 DUP3 ADD MSTORE PUSH32 0x2E3632342030203020302031352E38323720332E30363763302E323235202D30 PUSH2 0x9A0 DUP3 ADD MSTORE PUSH32 0x2E3336332032312E3235202D33332E3639392035372E333738202D34362E3039 PUSH2 0x9C0 DUP3 ADD MSTORE PUSH32 0x396C352E3630362034372E36353261382E36323320382E363233203020302030 PUSH2 0x9E0 DUP3 ADD MSTORE PUSH32 0x2031342E39343820342E37393363302E323034202D302E3232342031382E3937 PUSH2 0xA00 DUP3 ADD MSTORE PUSH32 0x34202D32302E3336372035362E393631202D31382E373633202D392E39303820 PUSH2 0xA20 DUP3 ADD MSTORE PUSH32 0x32342E303034202D31322E3335372035302E303235202D372E37382037342E37 PUSH2 0xA40 DUP3 ADD MSTORE PUSH32 0x3332202D32342E323239202D362E303938202D34332E333832202D302E323034 PUSH2 0xA60 DUP3 ADD MSTORE PUSH32 0x202D35342E37393620352E343735202D352E363238202D31342E373338202D31 PUSH2 0xA80 DUP3 ADD MSTORE PUSH32 0x392E393132202D32352E323333202D33362E363033202D32352E323333202D32 PUSH2 0xAA0 DUP3 ADD MSTORE PUSH32 0x312E3539322030202D33392E31362031372E353637202D33392E31362033392E PUSH2 0xAC0 DUP3 ADD MSTORE PUSH32 0x31366133382E39342033382E393420302030203020362E3233362032312E3138 PUSH2 0xAE0 DUP3 ADD MSTORE PUSH32 0x33632D32302E39363120302E323837202D34392E34313220312E393732202D37 PUSH2 0xB00 DUP3 ADD MSTORE PUSH32 0x382E35333720372E363233202D37302E3537342031332E363936202D3131332E PUSH2 0xB20 DUP3 ADD MSTORE PUSH32 0x3039392034342E393532202D3132332E3938352039302E3736317A6D3133322E PUSH2 0xB40 DUP3 ADD MSTORE PUSH32 0x3436352035342E353261392E36393220392E363932203020302031202D332E30 PUSH2 0xB60 DUP3 ADD MSTORE PUSH32 0x3320372E30373520392E363820392E3638203020302031202D372E3232392032 PUSH2 0xB80 DUP3 ADD MSTORE PUSH32 0x2E363839632D352E313233202D302E323432202D392E323931202D342E383534 PUSH2 0xBA0 DUP3 ADD MSTORE PUSH32 0x202D392E323931202D31302E323833762D31342E3536316831392E3535763135 PUSH2 0xBC0 DUP3 ADD MSTORE PUSH32 0x2E30387A6D3134322E373936202D302E303031633020322E37202D312E303736 PUSH2 0xBE0 DUP3 ADD MSTORE PUSH32 0x20352E323132202D332E303320372E30373661392E37303920392E3730392030 PUSH2 0xC00 DUP3 ADD MSTORE PUSH32 0x20302031202D372E32323920322E363839632D352E313233202D302E32343220 PUSH2 0xC20 DUP3 ADD MSTORE PUSH32 0x2D392E323931202D342E383534202D392E323931202D31302E323833762D3134 PUSH2 0xC40 DUP3 ADD MSTORE PUSH32 0x2E3538386C31392E3535202D302E30367631352E3136367A6D382E333831202D PUSH2 0xC60 DUP3 ADD MSTORE PUSH32 0x33322E3434202D37312E31353420302E313161382E36323520382E3632352030 PUSH2 0xC80 DUP3 ADD MSTORE PUSH32 0x20302030202D382E36323520382E3632357632332E37303661392E3639322039 PUSH2 0xCA0 DUP3 ADD MSTORE PUSH32 0x2E363932203020302031202D332E303320372E30373520392E37303220392E37 PUSH2 0xCC0 DUP3 ADD MSTORE PUSH32 0x3032203020302031202D372E32323920322E363839632D352E313233202D302E PUSH2 0xCE0 DUP3 ADD MSTORE PUSH32 0x323432202D392E323931202D342E383534202D392E323931202D31302E323833 PUSH2 0xD00 DUP3 ADD MSTORE PUSH32 0x563338322E353361382E36323520382E363235203020302030202D382E363235 PUSH2 0xD20 DUP3 ADD MSTORE PUSH32 0x202D382E363235483135342E363135632D312E3535392030202D332E3235202D PUSH2 0xD40 DUP3 ADD MSTORE PUSH32 0x302E303334202D352E313635202D302E31303561382E36323420382E36323420 PUSH2 0xD60 DUP3 ADD MSTORE PUSH32 0x3020302030202D382E39343320382E3631387632332E38313661392E36393220 PUSH2 0xD80 DUP3 ADD MSTORE PUSH32 0x392E363932203020302031202D332E303320372E30373520392E363720392E36 PUSH2 0xDA0 DUP3 ADD MSTORE PUSH32 0x37203020302031202D372E32323920322E363839632D352E313233202D302E32 PUSH2 0xDC0 DUP3 ADD MSTORE PUSH32 0x3431202D392E323931202D342E383534202D392E323931202D31302E32383376 PUSH2 0xDE0 DUP3 ADD MSTORE PUSH32 0x2D32392E33393461382E36323520382E363235203020302030202D362E313433 PUSH2 0xE00 DUP3 ADD MSTORE PUSH32 0x202D382E3236203133392E3334203133392E3334203020302031202D31392E35 PUSH2 0xE20 DUP3 ADD MSTORE PUSH32 0x3833202D372E3533386331362E373834202D39352E323734203138382E313639 PUSH2 0xE40 DUP3 ADD MSTORE PUSH32 0x202D39302E373735203231352E3339202D38392E34343220312E34303220302E PUSH2 0xE60 DUP3 ADD MSTORE PUSH32 0x31353320322E38323420302E32333120342E32363620302E32333161382E3632 PUSH2 0xE80 DUP3 ADD MSTORE PUSH32 0x3520382E36323520302030203020302E363436202D31372E323236632D302E33 PUSH2 0xEA0 DUP3 ADD MSTORE PUSH32 0x3037202D302E303233202D312E353537202D302E313134202D332E363239202D PUSH2 0xEC0 DUP3 ADD MSTORE PUSH32 0x302E323237202D31302E363735202D312E3436202D31382E393238202D31302E PUSH2 0xEE0 DUP3 ADD MSTORE PUSH32 0x363338202D31382E393238202D32312E3730382030202D31322E30383220392E PUSH2 0xF00 DUP3 ADD MSTORE PUSH32 0x383239202D32312E3931312032312E393131202D32312E3931317332312E3931 PUSH2 0xF20 DUP3 ADD MSTORE PUSH32 0x3220392E3832392032312E3931322032312E393131633020332E33353220312E PUSH2 0xF40 DUP3 ADD MSTORE PUSH32 0x39363220362E33383220342E39393920372E37393920332E30333920312E3431 PUSH2 0xF60 DUP3 ADD MSTORE PUSH32 0x3720362E36343120302E39323820392E323039202D312E32323520312E303220 PUSH2 0xF80 DUP3 ADD MSTORE PUSH32 0x2D302E3835362032342E3732202D32302E3231322036302E353438202D362E32 PUSH2 0xFA0 DUP3 ADD MSTORE PUSH32 0x20352E3533372031352E3639352031342E3130322033302E3431382032352E35 PUSH2 0xFC0 DUP3 ADD MSTORE PUSH32 0x38392034332E3230312031342E3234312031352E3834382033312E3732382032 PUSH2 0xFE0 DUP3 ADD MSTORE PUSH32 0x382E3832352035322E3039392033382E363831202D31362E3433392031372E34 PUSH2 0x1000 DUP3 ADD MSTORE PUSH32 0x3233202D36302E3435342035362E353639202D3132362E3136312035392E3338 PUSH2 0x1020 DUP3 ADD MSTORE PUSH32 0x387A222F3E3C2F673E3C2F673E3C673E3C673E3C706174682063783D22333930 PUSH2 0x1040 DUP3 ADD MSTORE PUSH32 0x2E363236222063793D223237392E3733342220723D22382E3632352220643D22 PUSH2 0x1060 DUP3 ADD MSTORE PUSH32 0x4D3339392E323531203237392E37333441382E36323520382E36323520302030 PUSH2 0x1080 DUP3 ADD MSTORE PUSH32 0x2031203339302E363236203238382E33353941382E36323520382E3632352030 PUSH2 0x10A0 DUP3 ADD MSTORE PUSH32 0x20302031203338322E303031203237392E37333441382E36323520382E363235 PUSH2 0x10C0 DUP3 ADD MSTORE PUSH32 0x203020302031203339392E323531203237392E3733347A222F3E3C2F673E3C2F PUSH2 0x10E0 DUP3 ADD MSTORE PUSH32 0x673E3C2F7376673E000000000000000000000000000000000000000000000000 PUSH2 0x1100 DUP3 ADD MSTORE POP JUMP JUMPDEST PUSH0 PUSH2 0x2EC0 PUSH2 0x1108 DUP4 PUSH2 0x11F0 JUMP JUMPDEST SWAP2 POP PUSH2 0x2ECB DUP3 PUSH2 0x19DA JUMP JUMPDEST PUSH2 0x1108 DUP3 ADD SWAP1 POP SWAP2 SWAP1 POP JUMP JUMPDEST PUSH0 PUSH2 0x2EE1 DUP3 PUSH2 0x2EB3 JUMP JUMPDEST SWAP2 POP PUSH2 0x2EED DUP3 DUP5 PUSH2 0x126A JUMP JUMPDEST SWAP2 POP DUP2 SWAP1 POP SWAP3 SWAP2 POP POP JUMP JUMPDEST PUSH0 PUSH2 0x2F03 DUP3 DUP5 PUSH2 0x126A JUMP JUMPDEST SWAP2 POP DUP2 SWAP1 POP SWAP3 SWAP2 POP POP JUMP JUMPDEST PUSH0 PUSH2 0x2F18 DUP3 PUSH2 0x839 JUMP JUMPDEST SWAP2 POP PUSH32 0xFFFFFFFFFFFFFFFFFFFFFFFFFFFFFFFFFFFFFFFFFFFFFFFFFFFFFFFFFFFFFFFF DUP3 SUB PUSH2 0x2F4A JUMPI PUSH2 0x2F49 PUSH2 0x1190 JUMP JUMPDEST JUMPDEST PUSH1 0x1 DUP3 ADD SWAP1 POP SWAP2 SWAP1 POP JUMP JUMPDEST PUSH32 0x4E487B7100000000000000000000000000000000000000000000000000000000 PUSH0 MSTORE PUSH1 0x12 PUSH1 0x4 MSTORE PUSH1 0x24 PUSH0 REVERT JUMPDEST PUSH0 PUSH2 0x2F8C DUP3 PUSH2 0x839 JUMP JUMPDEST SWAP2 POP PUSH2 0x2F97 DUP4 PUSH2 0x839 JUMP JUMPDEST SWAP3 POP DUP3 PUSH2 0x2FA7 JUMPI PUSH2 0x2FA6 PUSH2 0x2F55 JUMP JUMPDEST JUMPDEST DUP3 DUP3 DIV SWAP1 POP SWAP3 SWAP2 POP POP JUMP JUMPDEST PUSH0 PUSH2 0x2FBC DUP3 PUSH2 0x839 JUMP JUMPDEST SWAP2 POP PUSH2 0x2FC7 DUP4 PUSH2 0x839 JUMP JUMPDEST SWAP3 POP DUP3 PUSH2 0x2FD7 JUMPI PUSH2 0x2FD6 PUSH2 0x2F55 JUMP JUMPDEST JUMPDEST DUP3 DUP3 MOD SWAP1 POP SWAP3 SWAP2 POP POP JUMP JUMPDEST PUSH0 PUSH2 0x2FEC DUP3 PUSH2 0x839 JUMP JUMPDEST SWAP2 POP PUSH0 DUP3 SUB PUSH2 0x2FFE JUMPI PUSH2 0x2FFD PUSH2 0x1190 JUMP JUMPDEST JUMPDEST PUSH1 0x1 DUP3 SUB SWAP1 POP SWAP2 SWAP1 POP JUMP JUMPDEST PUSH32 0x4E487B7100000000000000000000000000000000000000000000000000000000 PUSH0 MSTORE PUSH1 0x32 PUSH1 0x4 MSTORE PUSH1 0x24 PUSH0 REVERT JUMPDEST PUSH0 PUSH2 0x3040 DUP3 PUSH2 0x839 JUMP JUMPDEST SWAP2 POP PUSH2 0x304B DUP4 PUSH2 0x839 JUMP JUMPDEST SWAP3 POP DUP3 DUP3 MUL PUSH2 0x3059 DUP2 PUSH2 0x839 JUMP JUMPDEST SWAP2 POP DUP3 DUP3 DIV DUP5 EQ DUP4 ISZERO OR PUSH2 0x3070 JUMPI PUSH2 0x306F PUSH2 0x1190 JUMP JUMPDEST JUMPDEST POP SWAP3 SWAP2 POP POP JUMP INVALID COINBASE TIMESTAMP NUMBER PREVRANDAO GASLIMIT CHAINID SELFBALANCE BASEFEE 0x49 0x4A 0x4B 0x4C 0x4D 0x4E 0x4F POP MLOAD MSTORE MSTORE8 SLOAD SSTORE JUMP JUMPI PC MSIZE GAS PUSH2 0x6263 PUSH5 0x6566676869 PUSH11 0x6B6C6D6E6F707172737475 PUSH23 0x7778797A303132333435363738392B2F5468697320636F PUSH23 0x6572204E46542068617320616C72656164792065787069 PUSH19 0x6564A2646970667358221220C9F56F8931E4A4 SWAP7 0xAB 0x22 0xBE 0xA7 STATICCALL 0x2F BLOCKHASH PUSH4 0x5E253BE7 SHL KECCAK256 0x23 DUP13 GASPRICE SUB SLT LOG2 0x1F 0x21 DUP9 0xDD PUSH5 0x736F6C6343 STOP ADDMOD ISZERO STOP CALLER "
				},
				"gasEstimates": {
					"creation": {
						"codeDepositCost": "2511800",
						"executionCost": "infinite",
						"totalCost": "infinite"
					},
					"external": {
						"generateDescription(uint256)": "infinite",
						"generateSVGImage((uint256,uint256,uint256,uint256,address,address,uint256,uint256,uint256,uint256,string))": "infinite",
						"master()": "infinite",
						"tokenURI(uint256)": "infinite"
					},
					"internal": {
						"uint2str(uint256)": "infinite"
					}
				},
				"methodIdentifiers": {
					"generateDescription(uint256)": "2409145e",
					"generateSVGImage((uint256,uint256,uint256,uint256,address,address,uint256,uint256,uint256,uint256,string))": "e2a6ab3d",
					"master()": "ee97f7f3",
					"tokenURI(uint256)": "c87b56dd"
				}
			},
			"storageLayout": {
				"storage": [
					{
						"astId": 93,
						"contract": "contracts/cover/CoverNFTDescriptor.sol:CoverNFTDescriptor",
						"label": "master",
						"offset": 0,
						"slot": "0",
						"type": "t_contract(Master)82"
					}
				],
				"types": {
					"t_contract(Master)82": {
						"encoding": "inplace",
						"label": "contract Master",
						"numberOfBytes": "20"
					}
				}
			},
			"userdoc": {
				"kind": "user",
				"methods": {},
				"version": 1
			}
		}
	}
}