{
	"data": {
		"bytecode": {
			"linkReferences": {},
			"object": "60806040523480156200001157600080fd5b50604051620032e6380380620032e68339818101604052810190620000379190620000e8565b806000806101000a81548173ffffffffffffffffffffffffffffffffffffffff021916908373ffffffffffffffffffffffffffffffffffffffff160217905550506200011a565b600080fd5b600073ffffffffffffffffffffffffffffffffffffffff82169050919050565b6000620000b08262000083565b9050919050565b620000c281620000a3565b8114620000ce57600080fd5b50565b600081519050620000e281620000b7565b92915050565b6000602082840312156200010157620001006200007e565b5b60006200011184828501620000d1565b91505092915050565b6131bc806200012a6000396000f3fe608060405234801561001057600080fd5b506004361061004c5760003560e01c80632409145e14610051578063c87b56dd14610082578063e2a6ab3d146100b2578063ee97f7f3146100e2575b600080fd5b61006b6004803603810190610066919061089b565b610100565b604051610079929190610ae1565b60405180910390f35b61009c6004803603810190610097919061089b565b61039b565b6040516100a99190610b18565b60405180910390f35b6100cc60048036038101906100c79190610dcd565b610415565b6040516100d99190610e6b565b60405180910390f35b6100ea6104de565b6040516100f79190610eec565b60405180910390f35b606061010a6107cb565b60008060009054906101000a900473ffffffffffffffffffffffffffffffffffffffff1673ffffffffffffffffffffffffffffffffffffffff1663e67cdafd6040518163ffffffff1660e01b8152600401602060405180830381865afa158015610178573d6000803e3d6000fd5b505050506040513d601f19601f8201168201806040525081019061019c9190610f1c565b9050838173ffffffffffffffffffffffffffffffffffffffff1663404730f46040518163ffffffff1660e01b8152600401602060405180830381865afa1580156101ea573d6000803e3d6000fd5b505050506040513d601f19601f8201168201806040525081019061020e9190610f5e565b101561024f576040517f08c379a000000000000000000000000000000000000000000000000000000000815260040161024690610fd7565b60405180910390fd5b60008173ffffffffffffffffffffffffffffffffffffffff1662407d2a866040518263ffffffff1660e01b81526004016102899190611006565b600060405180830381865afa1580156102a6573d6000803e3d6000fd5b505050506040513d6000823e3d601f19601f820116820180604052508101906102cf91906111b9565b9050606042826060015183604001516102e89190611231565b11610309576040518060600160405280602281526020016131656022913990505b6000610327836060015184604001516103229190611231565b610502565b905082610140015161033c8460c00151610502565b6103498560e00151610502565b610357866101000151610502565b610365876101200151610502565b8660405160200161037b9695949392919061148f565b604051602081830303815290604052955085839550955050505050915091565b60606000806103a984610100565b9150915060006103c06103bb83610415565b610668565b90506103ec83826040516020016103d89291906116f1565b604051602081830303815290604052610668565b6040516020016103fc91906117a3565b6040516020818303038152906040529350505050919050565b6060600082610140015161042c8460c00151610502565b6104398560e00151610502565b610447866101000151610502565b610455876101200151610502565b6104718860400151896060015161046c9190611231565b610502565b604051602001610486969594939291906119b3565b6040516020818303038152906040529050806040516020016104a89190612f78565b6040516020818303038152906040526040516020016104c79190612f9a565b604051602081830303815290604052915050919050565b60008054906101000a900473ffffffffffffffffffffffffffffffffffffffff1681565b606060008203610549576040518060400160405280600181526020017f30000000000000000000000000000000000000000000000000000000000000008152509050610663565b600082905060005b6000821461057b57808061056490612fb1565b915050600a826105749190613028565b9150610551565b60008167ffffffffffffffff81111561059757610596610b3f565b5b6040519080825280601f01601f1916602001820160405280156105c95781602001600182028036833780820191505090505b50905060008290508593505b6000841461065b57600a846105ea9190613059565b60306105f69190611231565b60f81b82826106049061308a565b92508281518110610618576106176130b3565b5b60200101907effffffffffffffffffffffffffffffffffffffffffffffffffffffffffffff1916908160001a905350600a846106549190613028565b93506105d5565b819450505050505b919050565b6060600082510361068a576040518060200160405280600081525090506107c6565b600060405180606001604052806040815260200161312560409139905060006003600285516106b99190611231565b6106c39190613028565b60046106cf91906130e2565b67ffffffffffffffff8111156106e8576106e7610b3f565b5b6040519080825280601f01601f19166020018201604052801561071a5781602001600182028036833780820191505090505b509050600182016020820185865187015b80821015610786576003820191508151603f8160121c168501518453600184019350603f81600c1c168501518453600184019350603f8160061c168501518453600184019350603f811685015184536001840193505061072b565b50506003865106600181146107a257600281146107b5576107bd565b603d6001830353603d60028303536107bd565b603d60018303535b50505080925050505b919050565b60405180610160016040528060008152602001600081526020016000815260200160008152602001600073ffffffffffffffffffffffffffffffffffffffff168152602001600073ffffffffffffffffffffffffffffffffffffffff16815260200160008152602001600081526020016000815260200160008152602001606081525090565b6000604051905090565b600080fd5b600080fd5b6000819050919050565b61087881610865565b811461088357600080fd5b50565b6000813590506108958161086f565b92915050565b6000602082840312156108b1576108b061085b565b5b60006108bf84828501610886565b91505092915050565b600081519050919050565b600082825260208201905092915050565b60005b838110156109025780820151818401526020810190506108e7565b60008484015250505050565b6000601f19601f8301169050919050565b600061092a826108c8565b61093481856108d3565b93506109448185602086016108e4565b61094d8161090e565b840191505092915050565b61096181610865565b82525050565b600073ffffffffffffffffffffffffffffffffffffffff82169050919050565b600061099282610967565b9050919050565b6109a281610987565b82525050565b600082825260208201905092915050565b60006109c4826108c8565b6109ce81856109a8565b93506109de8185602086016108e4565b6109e78161090e565b840191505092915050565b600061016083016000830151610a0b6000860182610958565b506020830151610a1e6020860182610958565b506040830151610a316040860182610958565b506060830151610a446060860182610958565b506080830151610a576080860182610999565b5060a0830151610a6a60a0860182610999565b5060c0830151610a7d60c0860182610958565b5060e0830151610a9060e0860182610958565b50610100830151610aa5610100860182610958565b50610120830151610aba610120860182610958565b50610140830151848203610140860152610ad482826109b9565b9150508091505092915050565b60006040820190508181036000830152610afb818561091f565b90508181036020830152610b0f81846109f2565b90509392505050565b60006020820190508181036000830152610b32818461091f565b905092915050565b600080fd5b7f4e487b7100000000000000000000000000000000000000000000000000000000600052604160045260246000fd5b610b778261090e565b810181811067ffffffffffffffff82111715610b9657610b95610b3f565b5b80604052505050565b6000610ba9610851565b9050610bb58282610b6e565b919050565b600080fd5b610bc881610987565b8114610bd357600080fd5b50565b600081359050610be581610bbf565b92915050565b600080fd5b600080fd5b600067ffffffffffffffff821115610c1057610c0f610b3f565b5b610c198261090e565b9050602081019050919050565b82818337600083830152505050565b6000610c48610c4384610bf5565b610b9f565b905082815260208101848484011115610c6457610c63610bf0565b5b610c6f848285610c26565b509392505050565b600082601f830112610c8c57610c8b610beb565b5b8135610c9c848260208601610c35565b91505092915050565b60006101608284031215610cbc57610cbb610b3a565b5b610cc7610160610b9f565b90506000610cd784828501610886565b6000830152506020610ceb84828501610886565b6020830152506040610cff84828501610886565b6040830152506060610d1384828501610886565b6060830152506080610d2784828501610bd6565b60808301525060a0610d3b84828501610bd6565b60a08301525060c0610d4f84828501610886565b60c08301525060e0610d6384828501610886565b60e083015250610100610d7884828501610886565b61010083015250610120610d8e84828501610886565b6101208301525061014082013567ffffffffffffffff811115610db457610db3610bba565b5b610dc084828501610c77565b6101408301525092915050565b600060208284031215610de357610de261085b565b5b600082013567ffffffffffffffff811115610e0157610e00610860565b5b610e0d84828501610ca5565b91505092915050565b600081519050919050565b600082825260208201905092915050565b6000610e3d82610e16565b610e478185610e21565b9350610e578185602086016108e4565b610e608161090e565b840191505092915050565b60006020820190508181036000830152610e858184610e32565b905092915050565b6000819050919050565b6000610eb2610ead610ea884610967565b610e8d565b610967565b9050919050565b6000610ec482610e97565b9050919050565b6000610ed682610eb9565b9050919050565b610ee681610ecb565b82525050565b6000602082019050610f016000830184610edd565b92915050565b600081519050610f1681610bbf565b92915050565b600060208284031215610f3257610f3161085b565b5b6000610f4084828501610f07565b91505092915050565b600081519050610f588161086f565b92915050565b600060208284031215610f7457610f7361085b565b5b6000610f8284828501610f49565b91505092915050565b7f7468697320746f6b656e20646f6573206e6f7420657869737400000000000000600082015250565b6000610fc16019836108d3565b9150610fcc82610f8b565b602082019050919050565b60006020820190508181036000830152610ff081610fb4565b9050919050565b61100081610865565b82525050565b600060208201905061101b6000830184610ff7565b92915050565b600061103461102f84610bf5565b610b9f565b9050828152602081018484840111156110505761104f610bf0565b5b61105b8482856108e4565b509392505050565b600082601f83011261107857611077610beb565b5b8151611088848260208601611021565b91505092915050565b600061016082840312156110a8576110a7610b3a565b5b6110b3610160610b9f565b905060006110c384828501610f49565b60008301525060206110d784828501610f49565b60208301525060406110eb84828501610f49565b60408301525060606110ff84828501610f49565b606083015250608061111384828501610f07565b60808301525060a061112784828501610f07565b60a08301525060c061113b84828501610f49565b60c08301525060e061114f84828501610f49565b60e08301525061010061116484828501610f49565b6101008301525061012061117a84828501610f49565b6101208301525061014082015167ffffffffffffffff8111156111a05761119f610bba565b5b6111ac84828501611063565b6101408301525092915050565b6000602082840312156111cf576111ce61085b565b5b600082015167ffffffffffffffff8111156111ed576111ec610860565b5b6111f984828501611091565b91505092915050565b7f4e487b7100000000000000000000000000000000000000000000000000000000600052601160045260246000fd5b600061123c82610865565b915061124783610865565b925082820190508082111561125f5761125e611202565b5b92915050565b600081905092915050565b7f54686973204e465420726570726573656e7473206120636f766572207075726360008201527f68617365206d61646520666f723a200000000000000000000000000000000000602082015250565b60006112cc602f83611265565b91506112d782611270565b602f82019050919050565b60006112ed826108c8565b6112f78185611265565b93506113078185602086016108e4565b80840191505092915050565b7f205c6e496e697469616c20546f6b656e30205174793a20000000000000000000600082015250565b6000611349601783611265565b915061135482611313565b601782019050919050565b7f205c6e496e697469616c20546f6b656e31205174793a20000000000000000000600082015250565b6000611395601783611265565b91506113a08261135f565b601782019050919050565b7f205c6e4c6f776572426f756e643a200000000000000000000000000000000000600082015250565b60006113e1600f83611265565b91506113ec826113ab565b600f82019050919050565b7f205c6e5570706572426f756e643a200000000000000000000000000000000000600082015250565b600061142d600f83611265565b9150611438826113f7565b600f82019050919050565b7f205c6e4578706972793a20000000000000000000000000000000000000000000600082015250565b6000611479600b83611265565b915061148482611443565b600b82019050919050565b600061149a826112bf565b91506114a682896112e2565b91506114b18261133c565b91506114bd82886112e2565b91506114c882611388565b91506114d482876112e2565b91506114df826113d4565b91506114eb82866112e2565b91506114f682611420565b915061150282856112e2565b915061150d8261146c565b915061151982846112e2565b9150819050979650505050505050565b7f7b226e616d65223a224865646765486f672050726f746f636f6c220000000000600082015250565b600061155f601b83611265565b915061156a82611529565b601b82019050919050565b7f226465736372697074696f6e223a220000000000000000000000000000000000600082015250565b60006115ab600f83611265565b91506115b682611575565b600f82019050919050565b7f222c000000000000000000000000000000000000000000000000000000000000600082015250565b60006115f7600283611265565b9150611602826115c1565b600282019050919050565b7f22696d616765223a202200000000000000000000000000000000000000000000600082015250565b6000611643600a83611265565b915061164e8261160d565b600a82019050919050565b7f646174613a696d6167652f7376672b786d6c3b6261736536342c000000000000600082015250565b600061168f601a83611265565b915061169a82611659565b601a82019050919050565b7f227d000000000000000000000000000000000000000000000000000000000000600082015250565b60006116db600283611265565b91506116e6826116a5565b600282019050919050565b60006116fc82611552565b91506117078261159e565b915061171382856112e2565b915061171e826115ea565b915061172982611636565b915061173482611682565b915061174082846112e2565b915061174b826116ce565b91508190509392505050565b7f646174613a6170706c69636174696f6e2f6a736f6e3b6261736536342c000000600082015250565b600061178d601d83611265565b915061179882611757565b601d82019050919050565b60006117ae82611780565b91506117ba82846112e2565b915081905092915050565b7f3c747370616e3e00000000000000000000000000000000000000000000000000600082015250565b60006117fb600783611265565b9150611806826117c5565b600782019050919050565b7f3c2f747370616e3e3c2f746578743e20203c7465787420636c6173733d22636c60008201527f732d392220783d223933252220793d223430252220746578742d616e63686f7260208201527f3d22656e64223e00000000000000000000000000000000000000000000000000604082015250565b6000611893604783611265565b915061189e82611811565b604782019050919050565b7f2000000000000000000000000000000000000000000000000000000000000000600082015250565b60006118df600183611265565b91506118ea826118a9565b600182019050919050565b7f3c2f747370616e3e3c2f746578743e0000000000000000000000000000000000600082015250565b600061192b600f83611265565b9150611936826118f5565b600f82019050919050565b7f3c7465787420636c6173733d22636c732d392220783d223933252220793d223460008201527f35252220746578742d616e63686f723d22656e64223e3c747370616e3e000000602082015250565b600061199d603d83611265565b91506119a882611941565b603d82019050919050565b60006119be826117ee565b91506119ca82896112e2565b91506119d582611886565b91506119e0826117ee565b91506119ec82886112e2565b91506119f7826118d2565b9150611a0382876112e2565b9150611a0e8261191e565b9150611a19826117ee565b9150611a2582866112e2565b9150611a30826118d2565b9150611a3c82856112e2565b9150611a478261191e565b9150611a5282611990565b9150611a5e82846112e2565b9150611a698261191e565b9150819050979650505050505050565b7f3c7376672066696c6c3d222330303030303022206865696768743d223830307060008201527f78222077696474683d223830307078222076657273696f6e3d22312e3122206960208201527f643d224c617965725f312220786d6c6e733d22687474703a2f2f7777772e773360408201527f2e6f72672f323030302f7376672220786d6c6e733a786c696e6b3d226874747060608201527f3a2f2f7777772e77332e6f72672f313939392f786c696e6b222076696577426f60808201527f783d2230203020353132203531322220786d6c3a73706163653d22707265736560a08201527f727665223e3c673e3c673e3c7061746820643d224d3531312e3635392033303860c08201527f2e38373461382e36323520382e363235203020302030202d352e303039202d3560e08201527f2e353737632d32322e363433202d392e323932202d34312e373132202d32322e6101008201527f343437202d35362e363735202d33392e303938202d33312e353639202d33352e6101208201527f313332202d33372e373135202d38372e313931202d31352e323935202d3132396101408201527f2e35343161382e36323220382e363232203020302030202d362e333433202d316101608201527f322e353634632d33332e383131202d352e303733202d35372e34323720342e346101808201527f3038202d37302e3833332031322e3731396c2d352e303032202d34322e3531376101a08201527f61382e363220382e3632203020302030202d332e353731202d362e30323420386101c08201527f2e363320382e3633203020302030202d362e383635202d312e333838632d33306101e08201527f2e323520362e373232202d35322e3336312032362e313031202d36352e3037316102008201527f2034302e336c2d362e383334202d33392e32393561382e36323520382e3632356102208201527f203020302030202d31312e393938202d362e343035632d32392e3131382031326102408201527f2e393431202d34392e3331382033392e353836202d36312e3032332035392e336102608201527f35356c2d372e353433202d34352e32353961382e36323920382e3632392030206102808201527f302030202d31312e393635202d362e343834632d32392e3230332031322e37376102a08201527f35202d34382e3637352035302e303932202d35382e3731382037342e3630336c6102c08201527f2d31322e303339202d33312e36303361382e36323720382e36323720302030206102e08201527f30202d31342e313539202d332e3032384336382e3331203135312e34373420356103008201527f382e3534203137372e3737352035342e3633203139352e3131376c2d32302e366103208201527f3732202d32322e37393261382e36323620382e363236203020302030202d31336103408201527f2e38383720312e35333443322e373731203230342e333036202d322e323534206103608201527f3232352e33343520302e383732203235342e32363163332e3638352033342e306103808201527f38332031382e3537382036352e3032322034312e3331312038382e383633202d6103a08201527f362e3138312032322e353133202d32342e3737342033372e383434202d32342e6103c08201527f3935382033372e39393361382e36323320382e36323320302030203020342e316103e08201527f38392031352e32353763322e39343420302e34323120352e38363420302e36316104008201527f3320382e37353320302e3631332032342e39323820302034372e323732202d316104208201527f342e3338332035362e363631202d32312e333734613135362e343531203135366104408201527f2e3435312030203020302031362e38373920362e3938347632332e31313963306104608201527f2031342e3734392031312e3330322032362e3833342032352e37332032372e356104808201527f313320372e34343720302e3334372031342e3535202d322e3239312031392e396104a08201527f3438202d372e3433396132372e3134392032372e31343920302030203020382e6104c08201527f333732202d31392e353535762d31352e3038316831372e33357631342e3536316104e08201527f63302031342e3734392031312e3330322032362e3833342032352e37332032376105008201527f2e35313320372e34343720302e3334372031342e3535202d322e3239312031396105208201527f2e393438202d372e3433396132372e3134392032372e313439203020302030206105408201527f382e333732202d31392e353535762d31352e3038316831372e3334397631342e6105608201527f35363163302031342e3734392031312e3330322032362e3833342032352e37336105808201527f2032372e35313320372e34353820302e3334372031342e3535202d322e3239316105a08201527f2031392e393438202d372e3433396132372e3134392032372e313439203020306105c08201527f203020382e333732202d31392e353535762d31352e303831483331372e3976316105e08201527f342e35363163302031342e3734392031312e3330322032362e3833342032352e6106008201527f37332032372e35313320302e343420302e30323120302e383820302e303331206106208201527f312e33313820302e30333120362e39373920302031332e353531202d322e36326106408201527f352031382e3633202d372e3436396132372e3134392032372e313439203020306106608201527f203020382e333732202d31392e353535563339302e356333342e393935202d336106808201527f2e3034332036392e313638202d31352e3939322039392e333138202d33372e376106a08201527f30362032352e343534202d31382e3333312033392e3032202d33362e333620336106c08201527f392e313431202d33362e35333161382e36313720382e363137203020302030206106e08201527f312e3235202d372e3338397a4d34332e343738203337382e30363863342e35306107008201527f37202d352e39383520392e313236202d31332e3433392031322e353533202d326107208201527f322e303737613135342e333036203135342e3330362030203020302031342e306107408201527f34362031302e323236632d362e36383220342e323632202d31362e31323220396107608201527f2e323933202d32362e3539392031312e3835317a6d33352e393632202d32362e6107808201527f333532632d33332e393638202d32312e393533202d35362e393535202d35382e6107a08201527f303434202d36312e343136202d39392e333133202d322e333532202d32312e376107c08201527f333220302e353435202d33372e3838352031312e333631202d35392e3434326c6107e08201527f32342e3837332032372e34323461382e36313920382e363139203020302030206108008201527f392e34363720322e32343820382e36343220382e36343220302030203020352e6108208201527f353436202d382e30313463302e303032202d302e33363120302e3535202d33336108408201527f2e3038352032362e353034202d36352e3230336c31352e3333352034302e32356108608201527f3563312e33323120332e34363820342e37313820352e37313820382e343232206108808201527f352e35343661382e36323520382e36323520302030203020372e393237202d366108a08201527f2e32333563302e303532202d302e31373720352e313934202d31372e393033206108c08201527f31352e313038202d33372e36333120392e383332202d31392e3536342032302e6108e08201527f373639202d33342e3033312033322e303735202d34322e3535396c392e3831316109008201527f2035382e38363961382e36323420382e36323420302030203020372e363037206109208201527f372e31353620382e36323420382e36323420302030203020382e3933202d352e6109408201527f34323363302e32202d302e3530372031382e373538202d34362e3831382035346109608201527f2e323132202d36382e3834396c382e3134332034362e383261382e36323420386109808201527f2e3632342030203020302031352e38323720332e30363763302e323235202d306109a08201527f2e3336332032312e3235202d33332e3639392035372e333738202d34362e30396109c08201527f396c352e3630362034372e36353261382e36323320382e3632332030203020306109e08201527f2031342e39343820342e37393363302e323034202d302e3232342031382e3937610a008201527f34202d32302e3336372035362e393631202d31382e373633202d392e39303820610a208201527f32342e303034202d31322e3335372035302e303235202d372e37382037342e37610a408201527f3332202d32342e323239202d362e303938202d34332e333832202d302e323034610a608201527f202d35342e37393620352e343735202d352e363238202d31342e373338202d31610a808201527f392e393132202d32352e323333202d33362e363033202d32352e323333202d32610aa08201527f312e3539322030202d33392e31362031372e353637202d33392e31362033392e610ac08201527f31366133382e39342033382e393420302030203020362e3233362032312e3138610ae08201527f33632d32302e39363120302e323837202d34392e34313220312e393732202d37610b008201527f382e35333720372e363233202d37302e3537342031332e363936202d3131332e610b208201527f3039392034342e393532202d3132332e3938352039302e3736317a6d3133322e610b408201527f3436352035342e353261392e36393220392e363932203020302031202d332e30610b608201527f3320372e30373520392e363820392e3638203020302031202d372e3232392032610b808201527f2e363839632d352e313233202d302e323432202d392e323931202d342e383534610ba08201527f202d392e323931202d31302e323833762d31342e3536316831392e3535763135610bc08201527f2e30387a6d3134322e373936202d302e303031633020322e37202d312e303736610be08201527f20352e323132202d332e303320372e30373661392e37303920392e3730392030610c008201527f20302031202d372e32323920322e363839632d352e313233202d302e32343220610c208201527f2d392e323931202d342e383534202d392e323931202d31302e323833762d3134610c408201527f2e3538386c31392e3535202d302e30367631352e3136367a6d382e333831202d610c608201527f33322e3434202d37312e31353420302e313161382e36323520382e3632352030610c808201527f20302030202d382e36323520382e3632357632332e37303661392e3639322039610ca08201527f2e363932203020302031202d332e303320372e30373520392e37303220392e37610cc08201527f3032203020302031202d372e32323920322e363839632d352e313233202d302e610ce08201527f323432202d392e323931202d342e383534202d392e323931202d31302e323833610d008201527f563338322e353361382e36323520382e363235203020302030202d382e363235610d208201527f202d382e363235483135342e363135632d312e3535392030202d332e3235202d610d408201527f302e303334202d352e313635202d302e31303561382e36323420382e36323420610d608201527f3020302030202d382e39343320382e3631387632332e38313661392e36393220610d808201527f392e363932203020302031202d332e303320372e30373520392e363720392e36610da08201527f37203020302031202d372e32323920322e363839632d352e313233202d302e32610dc08201527f3431202d392e323931202d342e383534202d392e323931202d31302e32383376610de08201527f2d32392e33393461382e36323520382e363235203020302030202d362e313433610e008201527f202d382e3236203133392e3334203133392e3334203020302031202d31392e35610e208201527f3833202d372e3533386331362e373834202d39352e323734203138382e313639610e408201527f202d39302e373735203231352e3339202d38392e34343220312e34303220302e610e608201527f31353320322e38323420302e32333120342e32363620302e32333161382e3632610e808201527f3520382e36323520302030203020302e363436202d31372e323236632d302e33610ea08201527f3037202d302e303233202d312e353537202d302e313134202d332e363239202d610ec08201527f302e323237202d31302e363735202d312e3436202d31382e393238202d31302e610ee08201527f363338202d31382e393238202d32312e3730382030202d31322e30383220392e610f008201527f383239202d32312e3931312032312e393131202d32312e3931317332312e3931610f208201527f3220392e3832392032312e3931322032312e393131633020332e33353220312e610f408201527f39363220362e33383220342e39393920372e37393920332e30333920312e3431610f608201527f3720362e36343120302e39323820392e323039202d312e32323520312e303220610f808201527f2d302e3835362032342e3732202d32302e3231322036302e353438202d362e32610fa08201527f20352e3533372031352e3639352031342e3130322033302e3431382032352e35610fc08201527f38392034332e3230312031342e3234312031352e3834382033312e3732382032610fe08201527f382e3832352035322e3039392033382e363831202d31362e3433392031372e346110008201527f3233202d36302e3435342035362e353639202d3132362e3136312035392e33386110208201527f387a222f3e3c2f673e3c2f673e3c673e3c673e3c706174682063783d223339306110408201527f2e363236222063793d223237392e3733342220723d22382e3632352220643d226110608201527f4d3339392e323531203237392e37333441382e36323520382e363235203020306110808201527f2031203339302e363236203238382e33353941382e36323520382e36323520306110a08201527f20302031203338322e303031203237392e37333441382e36323520382e3632356110c08201527f203020302031203339392e323531203237392e3733347a222f3e3c2f673e3c2f6110e08201527f673e3c2f7376673e00000000000000000000000000000000000000000000000061110082015250565b6000612f6161110883611265565b9150612f6c82611a79565b61110882019050919050565b6000612f8382612f53565b9150612f8f82846112e2565b915081905092915050565b6000612fa682846112e2565b915081905092915050565b6000612fbc82610865565b91507fffffffffffffffffffffffffffffffffffffffffffffffffffffffffffffffff8203612fee57612fed611202565b5b600182019050919050565b7f4e487b7100000000000000000000000000000000000000000000000000000000600052601260045260246000fd5b600061303382610865565b915061303e83610865565b92508261304e5761304d612ff9565b5b828204905092915050565b600061306482610865565b915061306f83610865565b92508261307f5761307e612ff9565b5b828206905092915050565b600061309582610865565b9150600082036130a8576130a7611202565b5b600182039050919050565b7f4e487b7100000000000000000000000000000000000000000000000000000000600052603260045260246000fd5b60006130ed82610865565b91506130f883610865565b925082820261310681610865565b9150828204841483151761311d5761311c611202565b5b509291505056fe4142434445464748494a4b4c4d4e4f505152535455565758595a6162636465666768696a6b6c6d6e6f707172737475767778797a303132333435363738392b2f5468697320636f766572204e46542068617320616c72656164792065787069726564a26469706673582212201c2aa9c0bda2f60a6fa71417f8559203e482114c6e5c94cbcac190cda0e31e4f64736f6c63430008130033",
			"opcodes": "PUSH1 0x80 PUSH1 0x40 MSTORE CALLVALUE DUP1 ISZERO PUSH3 0x11 JUMPI PUSH1 0x0 DUP1 REVERT JUMPDEST POP PUSH1 0x40 MLOAD PUSH3 0x32E6 CODESIZE SUB DUP1 PUSH3 0x32E6 DUP4 CODECOPY DUP2 DUP2 ADD PUSH1 0x40 MSTORE DUP2 ADD SWAP1 PUSH3 0x37 SWAP2 SWAP1 PUSH3 0xE8 JUMP JUMPDEST DUP1 PUSH1 0x0 DUP1 PUSH2 0x100 EXP DUP2 SLOAD DUP2 PUSH20 0xFFFFFFFFFFFFFFFFFFFFFFFFFFFFFFFFFFFFFFFF MUL NOT AND SWAP1 DUP4 PUSH20 0xFFFFFFFFFFFFFFFFFFFFFFFFFFFFFFFFFFFFFFFF AND MUL OR SWAP1 SSTORE POP POP PUSH3 0x11A JUMP JUMPDEST PUSH1 0x0 DUP1 REVERT JUMPDEST PUSH1 0x0 PUSH20 0xFFFFFFFFFFFFFFFFFFFFFFFFFFFFFFFFFFFFFFFF DUP3 AND SWAP1 POP SWAP2 SWAP1 POP JUMP JUMPDEST PUSH1 0x0 PUSH3 0xB0 DUP3 PUSH3 0x83 JUMP JUMPDEST SWAP1 POP SWAP2 SWAP1 POP JUMP JUMPDEST PUSH3 0xC2 DUP2 PUSH3 0xA3 JUMP JUMPDEST DUP2 EQ PUSH3 0xCE JUMPI PUSH1 0x0 DUP1 REVERT JUMPDEST POP JUMP JUMPDEST PUSH1 0x0 DUP2 MLOAD SWAP1 POP PUSH3 0xE2 DUP2 PUSH3 0xB7 JUMP JUMPDEST SWAP3 SWAP2 POP POP JUMP JUMPDEST PUSH1 0x0 PUSH1 0x20 DUP3 DUP5 SUB SLT ISZERO PUSH3 0x101 JUMPI PUSH3 0x100 PUSH3 0x7E JUMP JUMPDEST JUMPDEST PUSH1 0x0 PUSH3 0x111 DUP5 DUP3 DUP6 ADD PUSH3 0xD1 JUMP JUMPDEST SWAP2 POP POP SWAP3 SWAP2 POP POP JUMP JUMPDEST PUSH2 0x31BC DUP1 PUSH3 0x12A PUSH1 0x0 CODECOPY PUSH1 0x0 RETURN INVALID PUSH1 0x80 PUSH1 0x40 MSTORE CALLVALUE DUP1 ISZERO PUSH2 0x10 JUMPI PUSH1 0x0 DUP1 REVERT JUMPDEST POP PUSH1 0x4 CALLDATASIZE LT PUSH2 0x4C JUMPI PUSH1 0x0 CALLDATALOAD PUSH1 0xE0 SHR DUP1 PUSH4 0x2409145E EQ PUSH2 0x51 JUMPI DUP1 PUSH4 0xC87B56DD EQ PUSH2 0x82 JUMPI DUP1 PUSH4 0xE2A6AB3D EQ PUSH2 0xB2 JUMPI DUP1 PUSH4 0xEE97F7F3 EQ PUSH2 0xE2 JUMPI JUMPDEST PUSH1 0x0 DUP1 REVERT JUMPDEST PUSH2 0x6B PUSH1 0x4 DUP1 CALLDATASIZE SUB DUP2 ADD SWAP1 PUSH2 0x66 SWAP2 SWAP1 PUSH2 0x89B JUMP JUMPDEST PUSH2 0x100 JUMP JUMPDEST PUSH1 0x40 MLOAD PUSH2 0x79 SWAP3 SWAP2 SWAP1 PUSH2 0xAE1 JUMP JUMPDEST PUSH1 0x40 MLOAD DUP1 SWAP2 SUB SWAP1 RETURN JUMPDEST PUSH2 0x9C PUSH1 0x4 DUP1 CALLDATASIZE SUB DUP2 ADD SWAP1 PUSH2 0x97 SWAP2 SWAP1 PUSH2 0x89B JUMP JUMPDEST PUSH2 0x39B JUMP JUMPDEST PUSH1 0x40 MLOAD PUSH2 0xA9 SWAP2 SWAP1 PUSH2 0xB18 JUMP JUMPDEST PUSH1 0x40 MLOAD DUP1 SWAP2 SUB SWAP1 RETURN JUMPDEST PUSH2 0xCC PUSH1 0x4 DUP1 CALLDATASIZE SUB DUP2 ADD SWAP1 PUSH2 0xC7 SWAP2 SWAP1 PUSH2 0xDCD JUMP JUMPDEST PUSH2 0x415 JUMP JUMPDEST PUSH1 0x40 MLOAD PUSH2 0xD9 SWAP2 SWAP1 PUSH2 0xE6B JUMP JUMPDEST PUSH1 0x40 MLOAD DUP1 SWAP2 SUB SWAP1 RETURN JUMPDEST PUSH2 0xEA PUSH2 0x4DE JUMP JUMPDEST PUSH1 0x40 MLOAD PUSH2 0xF7 SWAP2 SWAP1 PUSH2 0xEEC JUMP JUMPDEST PUSH1 0x40 MLOAD DUP1 SWAP2 SUB SWAP1 RETURN JUMPDEST PUSH1 0x60 PUSH2 0x10A PUSH2 0x7CB JUMP JUMPDEST PUSH1 0x0 DUP1 PUSH1 0x0 SWAP1 SLOAD SWAP1 PUSH2 0x100 EXP SWAP1 DIV PUSH20 0xFFFFFFFFFFFFFFFFFFFFFFFFFFFFFFFFFFFFFFFF AND PUSH20 0xFFFFFFFFFFFFFFFFFFFFFFFFFFFFFFFFFFFFFFFF AND PUSH4 0xE67CDAFD PUSH1 0x40 MLOAD DUP2 PUSH4 0xFFFFFFFF AND PUSH1 0xE0 SHL DUP2 MSTORE PUSH1 0x4 ADD PUSH1 0x20 PUSH1 0x40 MLOAD DUP1 DUP4 SUB DUP2 DUP7 GAS STATICCALL ISZERO DUP1 ISZERO PUSH2 0x178 JUMPI RETURNDATASIZE PUSH1 0x0 DUP1 RETURNDATACOPY RETURNDATASIZE PUSH1 0x0 REVERT JUMPDEST POP POP POP POP PUSH1 0x40 MLOAD RETURNDATASIZE PUSH1 0x1F NOT PUSH1 0x1F DUP3 ADD AND DUP3 ADD DUP1 PUSH1 0x40 MSTORE POP DUP2 ADD SWAP1 PUSH2 0x19C SWAP2 SWAP1 PUSH2 0xF1C JUMP JUMPDEST SWAP1 POP DUP4 DUP2 PUSH20 0xFFFFFFFFFFFFFFFFFFFFFFFFFFFFFFFFFFFFFFFF AND PUSH4 0x404730F4 PUSH1 0x40 MLOAD DUP2 PUSH4 0xFFFFFFFF AND PUSH1 0xE0 SHL DUP2 MSTORE PUSH1 0x4 ADD PUSH1 0x20 PUSH1 0x40 MLOAD DUP1 DUP4 SUB DUP2 DUP7 GAS STATICCALL ISZERO DUP1 ISZERO PUSH2 0x1EA JUMPI RETURNDATASIZE PUSH1 0x0 DUP1 RETURNDATACOPY RETURNDATASIZE PUSH1 0x0 REVERT JUMPDEST POP POP POP POP PUSH1 0x40 MLOAD RETURNDATASIZE PUSH1 0x1F NOT PUSH1 0x1F DUP3 ADD AND DUP3 ADD DUP1 PUSH1 0x40 MSTORE POP DUP2 ADD SWAP1 PUSH2 0x20E SWAP2 SWAP1 PUSH2 0xF5E JUMP JUMPDEST LT ISZERO PUSH2 0x24F JUMPI PUSH1 0x40 MLOAD PUSH32 0x8C379A000000000000000000000000000000000000000000000000000000000 DUP2 MSTORE PUSH1 0x4 ADD PUSH2 0x246 SWAP1 PUSH2 0xFD7 JUMP JUMPDEST PUSH1 0x40 MLOAD DUP1 SWAP2 SUB SWAP1 REVERT JUMPDEST PUSH1 0x0 DUP2 PUSH20 0xFFFFFFFFFFFFFFFFFFFFFFFFFFFFFFFFFFFFFFFF AND PUSH3 0x407D2A DUP7 PUSH1 0x40 MLOAD DUP3 PUSH4 0xFFFFFFFF AND PUSH1 0xE0 SHL DUP2 MSTORE PUSH1 0x4 ADD PUSH2 0x289 SWAP2 SWAP1 PUSH2 0x1006 JUMP JUMPDEST PUSH1 0x0 PUSH1 0x40 MLOAD DUP1 DUP4 SUB DUP2 DUP7 GAS STATICCALL ISZERO DUP1 ISZERO PUSH2 0x2A6 JUMPI RETURNDATASIZE PUSH1 0x0 DUP1 RETURNDATACOPY RETURNDATASIZE PUSH1 0x0 REVERT JUMPDEST POP POP POP POP PUSH1 0x40 MLOAD RETURNDATASIZE PUSH1 0x0 DUP3 RETURNDATACOPY RETURNDATASIZE PUSH1 0x1F NOT PUSH1 0x1F DUP3 ADD AND DUP3 ADD DUP1 PUSH1 0x40 MSTORE POP DUP2 ADD SWAP1 PUSH2 0x2CF SWAP2 SWAP1 PUSH2 0x11B9 JUMP JUMPDEST SWAP1 POP PUSH1 0x60 TIMESTAMP DUP3 PUSH1 0x60 ADD MLOAD DUP4 PUSH1 0x40 ADD MLOAD PUSH2 0x2E8 SWAP2 SWAP1 PUSH2 0x1231 JUMP JUMPDEST GT PUSH2 0x309 JUMPI PUSH1 0x40 MLOAD DUP1 PUSH1 0x60 ADD PUSH1 0x40 MSTORE DUP1 PUSH1 0x22 DUP2 MSTORE PUSH1 0x20 ADD PUSH2 0x3165 PUSH1 0x22 SWAP2 CODECOPY SWAP1 POP JUMPDEST PUSH1 0x0 PUSH2 0x327 DUP4 PUSH1 0x60 ADD MLOAD DUP5 PUSH1 0x40 ADD MLOAD PUSH2 0x322 SWAP2 SWAP1 PUSH2 0x1231 JUMP JUMPDEST PUSH2 0x502 JUMP JUMPDEST SWAP1 POP DUP3 PUSH2 0x140 ADD MLOAD PUSH2 0x33C DUP5 PUSH1 0xC0 ADD MLOAD PUSH2 0x502 JUMP JUMPDEST PUSH2 0x349 DUP6 PUSH1 0xE0 ADD MLOAD PUSH2 0x502 JUMP JUMPDEST PUSH2 0x357 DUP7 PUSH2 0x100 ADD MLOAD PUSH2 0x502 JUMP JUMPDEST PUSH2 0x365 DUP8 PUSH2 0x120 ADD MLOAD PUSH2 0x502 JUMP JUMPDEST DUP7 PUSH1 0x40 MLOAD PUSH1 0x20 ADD PUSH2 0x37B SWAP7 SWAP6 SWAP5 SWAP4 SWAP3 SWAP2 SWAP1 PUSH2 0x148F JUMP JUMPDEST PUSH1 0x40 MLOAD PUSH1 0x20 DUP2 DUP4 SUB SUB DUP2 MSTORE SWAP1 PUSH1 0x40 MSTORE SWAP6 POP DUP6 DUP4 SWAP6 POP SWAP6 POP POP POP POP POP SWAP2 POP SWAP2 JUMP JUMPDEST PUSH1 0x60 PUSH1 0x0 DUP1 PUSH2 0x3A9 DUP5 PUSH2 0x100 JUMP JUMPDEST SWAP2 POP SWAP2 POP PUSH1 0x0 PUSH2 0x3C0 PUSH2 0x3BB DUP4 PUSH2 0x415 JUMP JUMPDEST PUSH2 0x668 JUMP JUMPDEST SWAP1 POP PUSH2 0x3EC DUP4 DUP3 PUSH1 0x40 MLOAD PUSH1 0x20 ADD PUSH2 0x3D8 SWAP3 SWAP2 SWAP1 PUSH2 0x16F1 JUMP JUMPDEST PUSH1 0x40 MLOAD PUSH1 0x20 DUP2 DUP4 SUB SUB DUP2 MSTORE SWAP1 PUSH1 0x40 MSTORE PUSH2 0x668 JUMP JUMPDEST PUSH1 0x40 MLOAD PUSH1 0x20 ADD PUSH2 0x3FC SWAP2 SWAP1 PUSH2 0x17A3 JUMP JUMPDEST PUSH1 0x40 MLOAD PUSH1 0x20 DUP2 DUP4 SUB SUB DUP2 MSTORE SWAP1 PUSH1 0x40 MSTORE SWAP4 POP POP POP POP SWAP2 SWAP1 POP JUMP JUMPDEST PUSH1 0x60 PUSH1 0x0 DUP3 PUSH2 0x140 ADD MLOAD PUSH2 0x42C DUP5 PUSH1 0xC0 ADD MLOAD PUSH2 0x502 JUMP JUMPDEST PUSH2 0x439 DUP6 PUSH1 0xE0 ADD MLOAD PUSH2 0x502 JUMP JUMPDEST PUSH2 0x447 DUP7 PUSH2 0x100 ADD MLOAD PUSH2 0x502 JUMP JUMPDEST PUSH2 0x455 DUP8 PUSH2 0x120 ADD MLOAD PUSH2 0x502 JUMP JUMPDEST PUSH2 0x471 DUP9 PUSH1 0x40 ADD MLOAD DUP10 PUSH1 0x60 ADD MLOAD PUSH2 0x46C SWAP2 SWAP1 PUSH2 0x1231 JUMP JUMPDEST PUSH2 0x502 JUMP JUMPDEST PUSH1 0x40 MLOAD PUSH1 0x20 ADD PUSH2 0x486 SWAP7 SWAP6 SWAP5 SWAP4 SWAP3 SWAP2 SWAP1 PUSH2 0x19B3 JUMP JUMPDEST PUSH1 0x40 MLOAD PUSH1 0x20 DUP2 DUP4 SUB SUB DUP2 MSTORE SWAP1 PUSH1 0x40 MSTORE SWAP1 POP DUP1 PUSH1 0x40 MLOAD PUSH1 0x20 ADD PUSH2 0x4A8 SWAP2 SWAP1 PUSH2 0x2F78 JUMP JUMPDEST PUSH1 0x40 MLOAD PUSH1 0x20 DUP2 DUP4 SUB SUB DUP2 MSTORE SWAP1 PUSH1 0x40 MSTORE PUSH1 0x40 MLOAD PUSH1 0x20 ADD PUSH2 0x4C7 SWAP2 SWAP1 PUSH2 0x2F9A JUMP JUMPDEST PUSH1 0x40 MLOAD PUSH1 0x20 DUP2 DUP4 SUB SUB DUP2 MSTORE SWAP1 PUSH1 0x40 MSTORE SWAP2 POP POP SWAP2 SWAP1 POP JUMP JUMPDEST PUSH1 0x0 DUP1 SLOAD SWAP1 PUSH2 0x100 EXP SWAP1 DIV PUSH20 0xFFFFFFFFFFFFFFFFFFFFFFFFFFFFFFFFFFFFFFFF AND DUP2 JUMP JUMPDEST PUSH1 0x60 PUSH1 0x0 DUP3 SUB PUSH2 0x549 JUMPI PUSH1 0x40 MLOAD DUP1 PUSH1 0x40 ADD PUSH1 0x40 MSTORE DUP1 PUSH1 0x1 DUP2 MSTORE PUSH1 0x20 ADD PUSH32 0x3000000000000000000000000000000000000000000000000000000000000000 DUP2 MSTORE POP SWAP1 POP PUSH2 0x663 JUMP JUMPDEST PUSH1 0x0 DUP3 SWAP1 POP PUSH1 0x0 JUMPDEST PUSH1 0x0 DUP3 EQ PUSH2 0x57B JUMPI DUP1 DUP1 PUSH2 0x564 SWAP1 PUSH2 0x2FB1 JUMP JUMPDEST SWAP2 POP POP PUSH1 0xA DUP3 PUSH2 0x574 SWAP2 SWAP1 PUSH2 0x3028 JUMP JUMPDEST SWAP2 POP PUSH2 0x551 JUMP JUMPDEST PUSH1 0x0 DUP2 PUSH8 0xFFFFFFFFFFFFFFFF DUP2 GT ISZERO PUSH2 0x597 JUMPI PUSH2 0x596 PUSH2 0xB3F JUMP JUMPDEST JUMPDEST PUSH1 0x40 MLOAD SWAP1 DUP1 DUP3 MSTORE DUP1 PUSH1 0x1F ADD PUSH1 0x1F NOT AND PUSH1 0x20 ADD DUP3 ADD PUSH1 0x40 MSTORE DUP1 ISZERO PUSH2 0x5C9 JUMPI DUP2 PUSH1 0x20 ADD PUSH1 0x1 DUP3 MUL DUP1 CALLDATASIZE DUP4 CALLDATACOPY DUP1 DUP3 ADD SWAP2 POP POP SWAP1 POP JUMPDEST POP SWAP1 POP PUSH1 0x0 DUP3 SWAP1 POP DUP6 SWAP4 POP JUMPDEST PUSH1 0x0 DUP5 EQ PUSH2 0x65B JUMPI PUSH1 0xA DUP5 PUSH2 0x5EA SWAP2 SWAP1 PUSH2 0x3059 JUMP JUMPDEST PUSH1 0x30 PUSH2 0x5F6 SWAP2 SWAP1 PUSH2 0x1231 JUMP JUMPDEST PUSH1 0xF8 SHL DUP3 DUP3 PUSH2 0x604 SWAP1 PUSH2 0x308A JUMP JUMPDEST SWAP3 POP DUP3 DUP2 MLOAD DUP2 LT PUSH2 0x618 JUMPI PUSH2 0x617 PUSH2 0x30B3 JUMP JUMPDEST JUMPDEST PUSH1 0x20 ADD ADD SWAP1 PUSH31 0xFFFFFFFFFFFFFFFFFFFFFFFFFFFFFFFFFFFFFFFFFFFFFFFFFFFFFFFFFFFFFF NOT AND SWAP1 DUP2 PUSH1 0x0 BYTE SWAP1 MSTORE8 POP PUSH1 0xA DUP5 PUSH2 0x654 SWAP2 SWAP1 PUSH2 0x3028 JUMP JUMPDEST SWAP4 POP PUSH2 0x5D5 JUMP JUMPDEST DUP2 SWAP5 POP POP POP POP POP JUMPDEST SWAP2 SWAP1 POP JUMP JUMPDEST PUSH1 0x60 PUSH1 0x0 DUP3 MLOAD SUB PUSH2 0x68A JUMPI PUSH1 0x40 MLOAD DUP1 PUSH1 0x20 ADD PUSH1 0x40 MSTORE DUP1 PUSH1 0x0 DUP2 MSTORE POP SWAP1 POP PUSH2 0x7C6 JUMP JUMPDEST PUSH1 0x0 PUSH1 0x40 MLOAD DUP1 PUSH1 0x60 ADD PUSH1 0x40 MSTORE DUP1 PUSH1 0x40 DUP2 MSTORE PUSH1 0x20 ADD PUSH2 0x3125 PUSH1 0x40 SWAP2 CODECOPY SWAP1 POP PUSH1 0x0 PUSH1 0x3 PUSH1 0x2 DUP6 MLOAD PUSH2 0x6B9 SWAP2 SWAP1 PUSH2 0x1231 JUMP JUMPDEST PUSH2 0x6C3 SWAP2 SWAP1 PUSH2 0x3028 JUMP JUMPDEST PUSH1 0x4 PUSH2 0x6CF SWAP2 SWAP1 PUSH2 0x30E2 JUMP JUMPDEST PUSH8 0xFFFFFFFFFFFFFFFF DUP2 GT ISZERO PUSH2 0x6E8 JUMPI PUSH2 0x6E7 PUSH2 0xB3F JUMP JUMPDEST JUMPDEST PUSH1 0x40 MLOAD SWAP1 DUP1 DUP3 MSTORE DUP1 PUSH1 0x1F ADD PUSH1 0x1F NOT AND PUSH1 0x20 ADD DUP3 ADD PUSH1 0x40 MSTORE DUP1 ISZERO PUSH2 0x71A JUMPI DUP2 PUSH1 0x20 ADD PUSH1 0x1 DUP3 MUL DUP1 CALLDATASIZE DUP4 CALLDATACOPY DUP1 DUP3 ADD SWAP2 POP POP SWAP1 POP JUMPDEST POP SWAP1 POP PUSH1 0x1 DUP3 ADD PUSH1 0x20 DUP3 ADD DUP6 DUP7 MLOAD DUP8 ADD JUMPDEST DUP1 DUP3 LT ISZERO PUSH2 0x786 JUMPI PUSH1 0x3 DUP3 ADD SWAP2 POP DUP2 MLOAD PUSH1 0x3F DUP2 PUSH1 0x12 SHR AND DUP6 ADD MLOAD DUP5 MSTORE8 PUSH1 0x1 DUP5 ADD SWAP4 POP PUSH1 0x3F DUP2 PUSH1 0xC SHR AND DUP6 ADD MLOAD DUP5 MSTORE8 PUSH1 0x1 DUP5 ADD SWAP4 POP PUSH1 0x3F DUP2 PUSH1 0x6 SHR AND DUP6 ADD MLOAD DUP5 MSTORE8 PUSH1 0x1 DUP5 ADD SWAP4 POP PUSH1 0x3F DUP2 AND DUP6 ADD MLOAD DUP5 MSTORE8 PUSH1 0x1 DUP5 ADD SWAP4 POP POP PUSH2 0x72B JUMP JUMPDEST POP POP PUSH1 0x3 DUP7 MLOAD MOD PUSH1 0x1 DUP2 EQ PUSH2 0x7A2 JUMPI PUSH1 0x2 DUP2 EQ PUSH2 0x7B5 JUMPI PUSH2 0x7BD JUMP JUMPDEST PUSH1 0x3D PUSH1 0x1 DUP4 SUB MSTORE8 PUSH1 0x3D PUSH1 0x2 DUP4 SUB MSTORE8 PUSH2 0x7BD JUMP JUMPDEST PUSH1 0x3D PUSH1 0x1 DUP4 SUB MSTORE8 JUMPDEST POP POP POP DUP1 SWAP3 POP POP POP JUMPDEST SWAP2 SWAP1 POP JUMP JUMPDEST PUSH1 0x40 MLOAD DUP1 PUSH2 0x160 ADD PUSH1 0x40 MSTORE DUP1 PUSH1 0x0 DUP2 MSTORE PUSH1 0x20 ADD PUSH1 0x0 DUP2 MSTORE PUSH1 0x20 ADD PUSH1 0x0 DUP2 MSTORE PUSH1 0x20 ADD PUSH1 0x0 DUP2 MSTORE PUSH1 0x20 ADD PUSH1 0x0 PUSH20 0xFFFFFFFFFFFFFFFFFFFFFFFFFFFFFFFFFFFFFFFF AND DUP2 MSTORE PUSH1 0x20 ADD PUSH1 0x0 PUSH20 0xFFFFFFFFFFFFFFFFFFFFFFFFFFFFFFFFFFFFFFFF AND DUP2 MSTORE PUSH1 0x20 ADD PUSH1 0x0 DUP2 MSTORE PUSH1 0x20 ADD PUSH1 0x0 DUP2 MSTORE PUSH1 0x20 ADD PUSH1 0x0 DUP2 MSTORE PUSH1 0x20 ADD PUSH1 0x0 DUP2 MSTORE PUSH1 0x20 ADD PUSH1 0x60 DUP2 MSTORE POP SWAP1 JUMP JUMPDEST PUSH1 0x0 PUSH1 0x40 MLOAD SWAP1 POP SWAP1 JUMP JUMPDEST PUSH1 0x0 DUP1 REVERT JUMPDEST PUSH1 0x0 DUP1 REVERT JUMPDEST PUSH1 0x0 DUP2 SWAP1 POP SWAP2 SWAP1 POP JUMP JUMPDEST PUSH2 0x878 DUP2 PUSH2 0x865 JUMP JUMPDEST DUP2 EQ PUSH2 0x883 JUMPI PUSH1 0x0 DUP1 REVERT JUMPDEST POP JUMP JUMPDEST PUSH1 0x0 DUP2 CALLDATALOAD SWAP1 POP PUSH2 0x895 DUP2 PUSH2 0x86F JUMP JUMPDEST SWAP3 SWAP2 POP POP JUMP JUMPDEST PUSH1 0x0 PUSH1 0x20 DUP3 DUP5 SUB SLT ISZERO PUSH2 0x8B1 JUMPI PUSH2 0x8B0 PUSH2 0x85B JUMP JUMPDEST JUMPDEST PUSH1 0x0 PUSH2 0x8BF DUP5 DUP3 DUP6 ADD PUSH2 0x886 JUMP JUMPDEST SWAP2 POP POP SWAP3 SWAP2 POP POP JUMP JUMPDEST PUSH1 0x0 DUP2 MLOAD SWAP1 POP SWAP2 SWAP1 POP JUMP JUMPDEST PUSH1 0x0 DUP3 DUP3 MSTORE PUSH1 0x20 DUP3 ADD SWAP1 POP SWAP3 SWAP2 POP POP JUMP JUMPDEST PUSH1 0x0 JUMPDEST DUP4 DUP2 LT ISZERO PUSH2 0x902 JUMPI DUP1 DUP3 ADD MLOAD DUP2 DUP5 ADD MSTORE PUSH1 0x20 DUP2 ADD SWAP1 POP PUSH2 0x8E7 JUMP JUMPDEST PUSH1 0x0 DUP5 DUP5 ADD MSTORE POP POP POP POP JUMP JUMPDEST PUSH1 0x0 PUSH1 0x1F NOT PUSH1 0x1F DUP4 ADD AND SWAP1 POP SWAP2 SWAP1 POP JUMP JUMPDEST PUSH1 0x0 PUSH2 0x92A DUP3 PUSH2 0x8C8 JUMP JUMPDEST PUSH2 0x934 DUP2 DUP6 PUSH2 0x8D3 JUMP JUMPDEST SWAP4 POP PUSH2 0x944 DUP2 DUP6 PUSH1 0x20 DUP7 ADD PUSH2 0x8E4 JUMP JUMPDEST PUSH2 0x94D DUP2 PUSH2 0x90E JUMP JUMPDEST DUP5 ADD SWAP2 POP POP SWAP3 SWAP2 POP POP JUMP JUMPDEST PUSH2 0x961 DUP2 PUSH2 0x865 JUMP JUMPDEST DUP3 MSTORE POP POP JUMP JUMPDEST PUSH1 0x0 PUSH20 0xFFFFFFFFFFFFFFFFFFFFFFFFFFFFFFFFFFFFFFFF DUP3 AND SWAP1 POP SWAP2 SWAP1 POP JUMP JUMPDEST PUSH1 0x0 PUSH2 0x992 DUP3 PUSH2 0x967 JUMP JUMPDEST SWAP1 POP SWAP2 SWAP1 POP JUMP JUMPDEST PUSH2 0x9A2 DUP2 PUSH2 0x987 JUMP JUMPDEST DUP3 MSTORE POP POP JUMP JUMPDEST PUSH1 0x0 DUP3 DUP3 MSTORE PUSH1 0x20 DUP3 ADD SWAP1 POP SWAP3 SWAP2 POP POP JUMP JUMPDEST PUSH1 0x0 PUSH2 0x9C4 DUP3 PUSH2 0x8C8 JUMP JUMPDEST PUSH2 0x9CE DUP2 DUP6 PUSH2 0x9A8 JUMP JUMPDEST SWAP4 POP PUSH2 0x9DE DUP2 DUP6 PUSH1 0x20 DUP7 ADD PUSH2 0x8E4 JUMP JUMPDEST PUSH2 0x9E7 DUP2 PUSH2 0x90E JUMP JUMPDEST DUP5 ADD SWAP2 POP POP SWAP3 SWAP2 POP POP JUMP JUMPDEST PUSH1 0x0 PUSH2 0x160 DUP4 ADD PUSH1 0x0 DUP4 ADD MLOAD PUSH2 0xA0B PUSH1 0x0 DUP7 ADD DUP3 PUSH2 0x958 JUMP JUMPDEST POP PUSH1 0x20 DUP4 ADD MLOAD PUSH2 0xA1E PUSH1 0x20 DUP7 ADD DUP3 PUSH2 0x958 JUMP JUMPDEST POP PUSH1 0x40 DUP4 ADD MLOAD PUSH2 0xA31 PUSH1 0x40 DUP7 ADD DUP3 PUSH2 0x958 JUMP JUMPDEST POP PUSH1 0x60 DUP4 ADD MLOAD PUSH2 0xA44 PUSH1 0x60 DUP7 ADD DUP3 PUSH2 0x958 JUMP JUMPDEST POP PUSH1 0x80 DUP4 ADD MLOAD PUSH2 0xA57 PUSH1 0x80 DUP7 ADD DUP3 PUSH2 0x999 JUMP JUMPDEST POP PUSH1 0xA0 DUP4 ADD MLOAD PUSH2 0xA6A PUSH1 0xA0 DUP7 ADD DUP3 PUSH2 0x999 JUMP JUMPDEST POP PUSH1 0xC0 DUP4 ADD MLOAD PUSH2 0xA7D PUSH1 0xC0 DUP7 ADD DUP3 PUSH2 0x958 JUMP JUMPDEST POP PUSH1 0xE0 DUP4 ADD MLOAD PUSH2 0xA90 PUSH1 0xE0 DUP7 ADD DUP3 PUSH2 0x958 JUMP JUMPDEST POP PUSH2 0x100 DUP4 ADD MLOAD PUSH2 0xAA5 PUSH2 0x100 DUP7 ADD DUP3 PUSH2 0x958 JUMP JUMPDEST POP PUSH2 0x120 DUP4 ADD MLOAD PUSH2 0xABA PUSH2 0x120 DUP7 ADD DUP3 PUSH2 0x958 JUMP JUMPDEST POP PUSH2 0x140 DUP4 ADD MLOAD DUP5 DUP3 SUB PUSH2 0x140 DUP7 ADD MSTORE PUSH2 0xAD4 DUP3 DUP3 PUSH2 0x9B9 JUMP JUMPDEST SWAP2 POP POP DUP1 SWAP2 POP POP SWAP3 SWAP2 POP POP JUMP JUMPDEST PUSH1 0x0 PUSH1 0x40 DUP3 ADD SWAP1 POP DUP2 DUP2 SUB PUSH1 0x0 DUP4 ADD MSTORE PUSH2 0xAFB DUP2 DUP6 PUSH2 0x91F JUMP JUMPDEST SWAP1 POP DUP2 DUP2 SUB PUSH1 0x20 DUP4 ADD MSTORE PUSH2 0xB0F DUP2 DUP5 PUSH2 0x9F2 JUMP JUMPDEST SWAP1 POP SWAP4 SWAP3 POP POP POP JUMP JUMPDEST PUSH1 0x0 PUSH1 0x20 DUP3 ADD SWAP1 POP DUP2 DUP2 SUB PUSH1 0x0 DUP4 ADD MSTORE PUSH2 0xB32 DUP2 DUP5 PUSH2 0x91F JUMP JUMPDEST SWAP1 POP SWAP3 SWAP2 POP POP JUMP JUMPDEST PUSH1 0x0 DUP1 REVERT JUMPDEST PUSH32 0x4E487B7100000000000000000000000000000000000000000000000000000000 PUSH1 0x0 MSTORE PUSH1 0x41 PUSH1 0x4 MSTORE PUSH1 0x24 PUSH1 0x0 REVERT JUMPDEST PUSH2 0xB77 DUP3 PUSH2 0x90E JUMP JUMPDEST DUP2 ADD DUP2 DUP2 LT PUSH8 0xFFFFFFFFFFFFFFFF DUP3 GT OR ISZERO PUSH2 0xB96 JUMPI PUSH2 0xB95 PUSH2 0xB3F JUMP JUMPDEST JUMPDEST DUP1 PUSH1 0x40 MSTORE POP POP POP JUMP JUMPDEST PUSH1 0x0 PUSH2 0xBA9 PUSH2 0x851 JUMP JUMPDEST SWAP1 POP PUSH2 0xBB5 DUP3 DUP3 PUSH2 0xB6E JUMP JUMPDEST SWAP2 SWAP1 POP JUMP JUMPDEST PUSH1 0x0 DUP1 REVERT JUMPDEST PUSH2 0xBC8 DUP2 PUSH2 0x987 JUMP JUMPDEST DUP2 EQ PUSH2 0xBD3 JUMPI PUSH1 0x0 DUP1 REVERT JUMPDEST POP JUMP JUMPDEST PUSH1 0x0 DUP2 CALLDATALOAD SWAP1 POP PUSH2 0xBE5 DUP2 PUSH2 0xBBF JUMP JUMPDEST SWAP3 SWAP2 POP POP JUMP JUMPDEST PUSH1 0x0 DUP1 REVERT JUMPDEST PUSH1 0x0 DUP1 REVERT JUMPDEST PUSH1 0x0 PUSH8 0xFFFFFFFFFFFFFFFF DUP3 GT ISZERO PUSH2 0xC10 JUMPI PUSH2 0xC0F PUSH2 0xB3F JUMP JUMPDEST JUMPDEST PUSH2 0xC19 DUP3 PUSH2 0x90E JUMP JUMPDEST SWAP1 POP PUSH1 0x20 DUP2 ADD SWAP1 POP SWAP2 SWAP1 POP JUMP JUMPDEST DUP3 DUP2 DUP4 CALLDATACOPY PUSH1 0x0 DUP4 DUP4 ADD MSTORE POP POP POP JUMP JUMPDEST PUSH1 0x0 PUSH2 0xC48 PUSH2 0xC43 DUP5 PUSH2 0xBF5 JUMP JUMPDEST PUSH2 0xB9F JUMP JUMPDEST SWAP1 POP DUP3 DUP2 MSTORE PUSH1 0x20 DUP2 ADD DUP5 DUP5 DUP5 ADD GT ISZERO PUSH2 0xC64 JUMPI PUSH2 0xC63 PUSH2 0xBF0 JUMP JUMPDEST JUMPDEST PUSH2 0xC6F DUP5 DUP3 DUP6 PUSH2 0xC26 JUMP JUMPDEST POP SWAP4 SWAP3 POP POP POP JUMP JUMPDEST PUSH1 0x0 DUP3 PUSH1 0x1F DUP4 ADD SLT PUSH2 0xC8C JUMPI PUSH2 0xC8B PUSH2 0xBEB JUMP JUMPDEST JUMPDEST DUP2 CALLDATALOAD PUSH2 0xC9C DUP5 DUP3 PUSH1 0x20 DUP7 ADD PUSH2 0xC35 JUMP JUMPDEST SWAP2 POP POP SWAP3 SWAP2 POP POP JUMP JUMPDEST PUSH1 0x0 PUSH2 0x160 DUP3 DUP5 SUB SLT ISZERO PUSH2 0xCBC JUMPI PUSH2 0xCBB PUSH2 0xB3A JUMP JUMPDEST JUMPDEST PUSH2 0xCC7 PUSH2 0x160 PUSH2 0xB9F JUMP JUMPDEST SWAP1 POP PUSH1 0x0 PUSH2 0xCD7 DUP5 DUP3 DUP6 ADD PUSH2 0x886 JUMP JUMPDEST PUSH1 0x0 DUP4 ADD MSTORE POP PUSH1 0x20 PUSH2 0xCEB DUP5 DUP3 DUP6 ADD PUSH2 0x886 JUMP JUMPDEST PUSH1 0x20 DUP4 ADD MSTORE POP PUSH1 0x40 PUSH2 0xCFF DUP5 DUP3 DUP6 ADD PUSH2 0x886 JUMP JUMPDEST PUSH1 0x40 DUP4 ADD MSTORE POP PUSH1 0x60 PUSH2 0xD13 DUP5 DUP3 DUP6 ADD PUSH2 0x886 JUMP JUMPDEST PUSH1 0x60 DUP4 ADD MSTORE POP PUSH1 0x80 PUSH2 0xD27 DUP5 DUP3 DUP6 ADD PUSH2 0xBD6 JUMP JUMPDEST PUSH1 0x80 DUP4 ADD MSTORE POP PUSH1 0xA0 PUSH2 0xD3B DUP5 DUP3 DUP6 ADD PUSH2 0xBD6 JUMP JUMPDEST PUSH1 0xA0 DUP4 ADD MSTORE POP PUSH1 0xC0 PUSH2 0xD4F DUP5 DUP3 DUP6 ADD PUSH2 0x886 JUMP JUMPDEST PUSH1 0xC0 DUP4 ADD MSTORE POP PUSH1 0xE0 PUSH2 0xD63 DUP5 DUP3 DUP6 ADD PUSH2 0x886 JUMP JUMPDEST PUSH1 0xE0 DUP4 ADD MSTORE POP PUSH2 0x100 PUSH2 0xD78 DUP5 DUP3 DUP6 ADD PUSH2 0x886 JUMP JUMPDEST PUSH2 0x100 DUP4 ADD MSTORE POP PUSH2 0x120 PUSH2 0xD8E DUP5 DUP3 DUP6 ADD PUSH2 0x886 JUMP JUMPDEST PUSH2 0x120 DUP4 ADD MSTORE POP PUSH2 0x140 DUP3 ADD CALLDATALOAD PUSH8 0xFFFFFFFFFFFFFFFF DUP2 GT ISZERO PUSH2 0xDB4 JUMPI PUSH2 0xDB3 PUSH2 0xBBA JUMP JUMPDEST JUMPDEST PUSH2 0xDC0 DUP5 DUP3 DUP6 ADD PUSH2 0xC77 JUMP JUMPDEST PUSH2 0x140 DUP4 ADD MSTORE POP SWAP3 SWAP2 POP POP JUMP JUMPDEST PUSH1 0x0 PUSH1 0x20 DUP3 DUP5 SUB SLT ISZERO PUSH2 0xDE3 JUMPI PUSH2 0xDE2 PUSH2 0x85B JUMP JUMPDEST JUMPDEST PUSH1 0x0 DUP3 ADD CALLDATALOAD PUSH8 0xFFFFFFFFFFFFFFFF DUP2 GT ISZERO PUSH2 0xE01 JUMPI PUSH2 0xE00 PUSH2 0x860 JUMP JUMPDEST JUMPDEST PUSH2 0xE0D DUP5 DUP3 DUP6 ADD PUSH2 0xCA5 JUMP JUMPDEST SWAP2 POP POP SWAP3 SWAP2 POP POP JUMP JUMPDEST PUSH1 0x0 DUP2 MLOAD SWAP1 POP SWAP2 SWAP1 POP JUMP JUMPDEST PUSH1 0x0 DUP3 DUP3 MSTORE PUSH1 0x20 DUP3 ADD SWAP1 POP SWAP3 SWAP2 POP POP JUMP JUMPDEST PUSH1 0x0 PUSH2 0xE3D DUP3 PUSH2 0xE16 JUMP JUMPDEST PUSH2 0xE47 DUP2 DUP6 PUSH2 0xE21 JUMP JUMPDEST SWAP4 POP PUSH2 0xE57 DUP2 DUP6 PUSH1 0x20 DUP7 ADD PUSH2 0x8E4 JUMP JUMPDEST PUSH2 0xE60 DUP2 PUSH2 0x90E JUMP JUMPDEST DUP5 ADD SWAP2 POP POP SWAP3 SWAP2 POP POP JUMP JUMPDEST PUSH1 0x0 PUSH1 0x20 DUP3 ADD SWAP1 POP DUP2 DUP2 SUB PUSH1 0x0 DUP4 ADD MSTORE PUSH2 0xE85 DUP2 DUP5 PUSH2 0xE32 JUMP JUMPDEST SWAP1 POP SWAP3 SWAP2 POP POP JUMP JUMPDEST PUSH1 0x0 DUP2 SWAP1 POP SWAP2 SWAP1 POP JUMP JUMPDEST PUSH1 0x0 PUSH2 0xEB2 PUSH2 0xEAD PUSH2 0xEA8 DUP5 PUSH2 0x967 JUMP JUMPDEST PUSH2 0xE8D JUMP JUMPDEST PUSH2 0x967 JUMP JUMPDEST SWAP1 POP SWAP2 SWAP1 POP JUMP JUMPDEST PUSH1 0x0 PUSH2 0xEC4 DUP3 PUSH2 0xE97 JUMP JUMPDEST SWAP1 POP SWAP2 SWAP1 POP JUMP JUMPDEST PUSH1 0x0 PUSH2 0xED6 DUP3 PUSH2 0xEB9 JUMP JUMPDEST SWAP1 POP SWAP2 SWAP1 POP JUMP JUMPDEST PUSH2 0xEE6 DUP2 PUSH2 0xECB JUMP JUMPDEST DUP3 MSTORE POP POP JUMP JUMPDEST PUSH1 0x0 PUSH1 0x20 DUP3 ADD SWAP1 POP PUSH2 0xF01 PUSH1 0x0 DUP4 ADD DUP5 PUSH2 0xEDD JUMP JUMPDEST SWAP3 SWAP2 POP POP JUMP JUMPDEST PUSH1 0x0 DUP2 MLOAD SWAP1 POP PUSH2 0xF16 DUP2 PUSH2 0xBBF JUMP JUMPDEST SWAP3 SWAP2 POP POP JUMP JUMPDEST PUSH1 0x0 PUSH1 0x20 DUP3 DUP5 SUB SLT ISZERO PUSH2 0xF32 JUMPI PUSH2 0xF31 PUSH2 0x85B JUMP JUMPDEST JUMPDEST PUSH1 0x0 PUSH2 0xF40 DUP5 DUP3 DUP6 ADD PUSH2 0xF07 JUMP JUMPDEST SWAP2 POP POP SWAP3 SWAP2 POP POP JUMP JUMPDEST PUSH1 0x0 DUP2 MLOAD SWAP1 POP PUSH2 0xF58 DUP2 PUSH2 0x86F JUMP JUMPDEST SWAP3 SWAP2 POP POP JUMP JUMPDEST PUSH1 0x0 PUSH1 0x20 DUP3 DUP5 SUB SLT ISZERO PUSH2 0xF74 JUMPI PUSH2 0xF73 PUSH2 0x85B JUMP JUMPDEST JUMPDEST PUSH1 0x0 PUSH2 0xF82 DUP5 DUP3 DUP6 ADD PUSH2 0xF49 JUMP JUMPDEST SWAP2 POP POP SWAP3 SWAP2 POP POP JUMP JUMPDEST PUSH32 0x7468697320746F6B656E20646F6573206E6F7420657869737400000000000000 PUSH1 0x0 DUP3 ADD MSTORE POP JUMP JUMPDEST PUSH1 0x0 PUSH2 0xFC1 PUSH1 0x19 DUP4 PUSH2 0x8D3 JUMP JUMPDEST SWAP2 POP PUSH2 0xFCC DUP3 PUSH2 0xF8B JUMP JUMPDEST PUSH1 0x20 DUP3 ADD SWAP1 POP SWAP2 SWAP1 POP JUMP JUMPDEST PUSH1 0x0 PUSH1 0x20 DUP3 ADD SWAP1 POP DUP2 DUP2 SUB PUSH1 0x0 DUP4 ADD MSTORE PUSH2 0xFF0 DUP2 PUSH2 0xFB4 JUMP JUMPDEST SWAP1 POP SWAP2 SWAP1 POP JUMP JUMPDEST PUSH2 0x1000 DUP2 PUSH2 0x865 JUMP JUMPDEST DUP3 MSTORE POP POP JUMP JUMPDEST PUSH1 0x0 PUSH1 0x20 DUP3 ADD SWAP1 POP PUSH2 0x101B PUSH1 0x0 DUP4 ADD DUP5 PUSH2 0xFF7 JUMP JUMPDEST SWAP3 SWAP2 POP POP JUMP JUMPDEST PUSH1 0x0 PUSH2 0x1034 PUSH2 0x102F DUP5 PUSH2 0xBF5 JUMP JUMPDEST PUSH2 0xB9F JUMP JUMPDEST SWAP1 POP DUP3 DUP2 MSTORE PUSH1 0x20 DUP2 ADD DUP5 DUP5 DUP5 ADD GT ISZERO PUSH2 0x1050 JUMPI PUSH2 0x104F PUSH2 0xBF0 JUMP JUMPDEST JUMPDEST PUSH2 0x105B DUP5 DUP3 DUP6 PUSH2 0x8E4 JUMP JUMPDEST POP SWAP4 SWAP3 POP POP POP JUMP JUMPDEST PUSH1 0x0 DUP3 PUSH1 0x1F DUP4 ADD SLT PUSH2 0x1078 JUMPI PUSH2 0x1077 PUSH2 0xBEB JUMP JUMPDEST JUMPDEST DUP2 MLOAD PUSH2 0x1088 DUP5 DUP3 PUSH1 0x20 DUP7 ADD PUSH2 0x1021 JUMP JUMPDEST SWAP2 POP POP SWAP3 SWAP2 POP POP JUMP JUMPDEST PUSH1 0x0 PUSH2 0x160 DUP3 DUP5 SUB SLT ISZERO PUSH2 0x10A8 JUMPI PUSH2 0x10A7 PUSH2 0xB3A JUMP JUMPDEST JUMPDEST PUSH2 0x10B3 PUSH2 0x160 PUSH2 0xB9F JUMP JUMPDEST SWAP1 POP PUSH1 0x0 PUSH2 0x10C3 DUP5 DUP3 DUP6 ADD PUSH2 0xF49 JUMP JUMPDEST PUSH1 0x0 DUP4 ADD MSTORE POP PUSH1 0x20 PUSH2 0x10D7 DUP5 DUP3 DUP6 ADD PUSH2 0xF49 JUMP JUMPDEST PUSH1 0x20 DUP4 ADD MSTORE POP PUSH1 0x40 PUSH2 0x10EB DUP5 DUP3 DUP6 ADD PUSH2 0xF49 JUMP JUMPDEST PUSH1 0x40 DUP4 ADD MSTORE POP PUSH1 0x60 PUSH2 0x10FF DUP5 DUP3 DUP6 ADD PUSH2 0xF49 JUMP JUMPDEST PUSH1 0x60 DUP4 ADD MSTORE POP PUSH1 0x80 PUSH2 0x1113 DUP5 DUP3 DUP6 ADD PUSH2 0xF07 JUMP JUMPDEST PUSH1 0x80 DUP4 ADD MSTORE POP PUSH1 0xA0 PUSH2 0x1127 DUP5 DUP3 DUP6 ADD PUSH2 0xF07 JUMP JUMPDEST PUSH1 0xA0 DUP4 ADD MSTORE POP PUSH1 0xC0 PUSH2 0x113B DUP5 DUP3 DUP6 ADD PUSH2 0xF49 JUMP JUMPDEST PUSH1 0xC0 DUP4 ADD MSTORE POP PUSH1 0xE0 PUSH2 0x114F DUP5 DUP3 DUP6 ADD PUSH2 0xF49 JUMP JUMPDEST PUSH1 0xE0 DUP4 ADD MSTORE POP PUSH2 0x100 PUSH2 0x1164 DUP5 DUP3 DUP6 ADD PUSH2 0xF49 JUMP JUMPDEST PUSH2 0x100 DUP4 ADD MSTORE POP PUSH2 0x120 PUSH2 0x117A DUP5 DUP3 DUP6 ADD PUSH2 0xF49 JUMP JUMPDEST PUSH2 0x120 DUP4 ADD MSTORE POP PUSH2 0x140 DUP3 ADD MLOAD PUSH8 0xFFFFFFFFFFFFFFFF DUP2 GT ISZERO PUSH2 0x11A0 JUMPI PUSH2 0x119F PUSH2 0xBBA JUMP JUMPDEST JUMPDEST PUSH2 0x11AC DUP5 DUP3 DUP6 ADD PUSH2 0x1063 JUMP JUMPDEST PUSH2 0x140 DUP4 ADD MSTORE POP SWAP3 SWAP2 POP POP JUMP JUMPDEST PUSH1 0x0 PUSH1 0x20 DUP3 DUP5 SUB SLT ISZERO PUSH2 0x11CF JUMPI PUSH2 0x11CE PUSH2 0x85B JUMP JUMPDEST JUMPDEST PUSH1 0x0 DUP3 ADD MLOAD PUSH8 0xFFFFFFFFFFFFFFFF DUP2 GT ISZERO PUSH2 0x11ED JUMPI PUSH2 0x11EC PUSH2 0x860 JUMP JUMPDEST JUMPDEST PUSH2 0x11F9 DUP5 DUP3 DUP6 ADD PUSH2 0x1091 JUMP JUMPDEST SWAP2 POP POP SWAP3 SWAP2 POP POP JUMP JUMPDEST PUSH32 0x4E487B7100000000000000000000000000000000000000000000000000000000 PUSH1 0x0 MSTORE PUSH1 0x11 PUSH1 0x4 MSTORE PUSH1 0x24 PUSH1 0x0 REVERT JUMPDEST PUSH1 0x0 PUSH2 0x123C DUP3 PUSH2 0x865 JUMP JUMPDEST SWAP2 POP PUSH2 0x1247 DUP4 PUSH2 0x865 JUMP JUMPDEST SWAP3 POP DUP3 DUP3 ADD SWAP1 POP DUP1 DUP3 GT ISZERO PUSH2 0x125F JUMPI PUSH2 0x125E PUSH2 0x1202 JUMP JUMPDEST JUMPDEST SWAP3 SWAP2 POP POP JUMP JUMPDEST PUSH1 0x0 DUP2 SWAP1 POP SWAP3 SWAP2 POP POP JUMP JUMPDEST PUSH32 0x54686973204E465420726570726573656E7473206120636F7665722070757263 PUSH1 0x0 DUP3 ADD MSTORE PUSH32 0x68617365206D61646520666F723A200000000000000000000000000000000000 PUSH1 0x20 DUP3 ADD MSTORE POP JUMP JUMPDEST PUSH1 0x0 PUSH2 0x12CC PUSH1 0x2F DUP4 PUSH2 0x1265 JUMP JUMPDEST SWAP2 POP PUSH2 0x12D7 DUP3 PUSH2 0x1270 JUMP JUMPDEST PUSH1 0x2F DUP3 ADD SWAP1 POP SWAP2 SWAP1 POP JUMP JUMPDEST PUSH1 0x0 PUSH2 0x12ED DUP3 PUSH2 0x8C8 JUMP JUMPDEST PUSH2 0x12F7 DUP2 DUP6 PUSH2 0x1265 JUMP JUMPDEST SWAP4 POP PUSH2 0x1307 DUP2 DUP6 PUSH1 0x20 DUP7 ADD PUSH2 0x8E4 JUMP JUMPDEST DUP1 DUP5 ADD SWAP2 POP POP SWAP3 SWAP2 POP POP JUMP JUMPDEST PUSH32 0x205C6E496E697469616C20546F6B656E30205174793A20000000000000000000 PUSH1 0x0 DUP3 ADD MSTORE POP JUMP JUMPDEST PUSH1 0x0 PUSH2 0x1349 PUSH1 0x17 DUP4 PUSH2 0x1265 JUMP JUMPDEST SWAP2 POP PUSH2 0x1354 DUP3 PUSH2 0x1313 JUMP JUMPDEST PUSH1 0x17 DUP3 ADD SWAP1 POP SWAP2 SWAP1 POP JUMP JUMPDEST PUSH32 0x205C6E496E697469616C20546F6B656E31205174793A20000000000000000000 PUSH1 0x0 DUP3 ADD MSTORE POP JUMP JUMPDEST PUSH1 0x0 PUSH2 0x1395 PUSH1 0x17 DUP4 PUSH2 0x1265 JUMP JUMPDEST SWAP2 POP PUSH2 0x13A0 DUP3 PUSH2 0x135F JUMP JUMPDEST PUSH1 0x17 DUP3 ADD SWAP1 POP SWAP2 SWAP1 POP JUMP JUMPDEST PUSH32 0x205C6E4C6F776572426F756E643A200000000000000000000000000000000000 PUSH1 0x0 DUP3 ADD MSTORE POP JUMP JUMPDEST PUSH1 0x0 PUSH2 0x13E1 PUSH1 0xF DUP4 PUSH2 0x1265 JUMP JUMPDEST SWAP2 POP PUSH2 0x13EC DUP3 PUSH2 0x13AB JUMP JUMPDEST PUSH1 0xF DUP3 ADD SWAP1 POP SWAP2 SWAP1 POP JUMP JUMPDEST PUSH32 0x205C6E5570706572426F756E643A200000000000000000000000000000000000 PUSH1 0x0 DUP3 ADD MSTORE POP JUMP JUMPDEST PUSH1 0x0 PUSH2 0x142D PUSH1 0xF DUP4 PUSH2 0x1265 JUMP JUMPDEST SWAP2 POP PUSH2 0x1438 DUP3 PUSH2 0x13F7 JUMP JUMPDEST PUSH1 0xF DUP3 ADD SWAP1 POP SWAP2 SWAP1 POP JUMP JUMPDEST PUSH32 0x205C6E4578706972793A20000000000000000000000000000000000000000000 PUSH1 0x0 DUP3 ADD MSTORE POP JUMP JUMPDEST PUSH1 0x0 PUSH2 0x1479 PUSH1 0xB DUP4 PUSH2 0x1265 JUMP JUMPDEST SWAP2 POP PUSH2 0x1484 DUP3 PUSH2 0x1443 JUMP JUMPDEST PUSH1 0xB DUP3 ADD SWAP1 POP SWAP2 SWAP1 POP JUMP JUMPDEST PUSH1 0x0 PUSH2 0x149A DUP3 PUSH2 0x12BF JUMP JUMPDEST SWAP2 POP PUSH2 0x14A6 DUP3 DUP10 PUSH2 0x12E2 JUMP JUMPDEST SWAP2 POP PUSH2 0x14B1 DUP3 PUSH2 0x133C JUMP JUMPDEST SWAP2 POP PUSH2 0x14BD DUP3 DUP9 PUSH2 0x12E2 JUMP JUMPDEST SWAP2 POP PUSH2 0x14C8 DUP3 PUSH2 0x1388 JUMP JUMPDEST SWAP2 POP PUSH2 0x14D4 DUP3 DUP8 PUSH2 0x12E2 JUMP JUMPDEST SWAP2 POP PUSH2 0x14DF DUP3 PUSH2 0x13D4 JUMP JUMPDEST SWAP2 POP PUSH2 0x14EB DUP3 DUP7 PUSH2 0x12E2 JUMP JUMPDEST SWAP2 POP PUSH2 0x14F6 DUP3 PUSH2 0x1420 JUMP JUMPDEST SWAP2 POP PUSH2 0x1502 DUP3 DUP6 PUSH2 0x12E2 JUMP JUMPDEST SWAP2 POP PUSH2 0x150D DUP3 PUSH2 0x146C JUMP JUMPDEST SWAP2 POP PUSH2 0x1519 DUP3 DUP5 PUSH2 0x12E2 JUMP JUMPDEST SWAP2 POP DUP2 SWAP1 POP SWAP8 SWAP7 POP POP POP POP POP POP POP JUMP JUMPDEST PUSH32 0x7B226E616D65223A224865646765486F672050726F746F636F6C220000000000 PUSH1 0x0 DUP3 ADD MSTORE POP JUMP JUMPDEST PUSH1 0x0 PUSH2 0x155F PUSH1 0x1B DUP4 PUSH2 0x1265 JUMP JUMPDEST SWAP2 POP PUSH2 0x156A DUP3 PUSH2 0x1529 JUMP JUMPDEST PUSH1 0x1B DUP3 ADD SWAP1 POP SWAP2 SWAP1 POP JUMP JUMPDEST PUSH32 0x226465736372697074696F6E223A220000000000000000000000000000000000 PUSH1 0x0 DUP3 ADD MSTORE POP JUMP JUMPDEST PUSH1 0x0 PUSH2 0x15AB PUSH1 0xF DUP4 PUSH2 0x1265 JUMP JUMPDEST SWAP2 POP PUSH2 0x15B6 DUP3 PUSH2 0x1575 JUMP JUMPDEST PUSH1 0xF DUP3 ADD SWAP1 POP SWAP2 SWAP1 POP JUMP JUMPDEST PUSH32 0x222C000000000000000000000000000000000000000000000000000000000000 PUSH1 0x0 DUP3 ADD MSTORE POP JUMP JUMPDEST PUSH1 0x0 PUSH2 0x15F7 PUSH1 0x2 DUP4 PUSH2 0x1265 JUMP JUMPDEST SWAP2 POP PUSH2 0x1602 DUP3 PUSH2 0x15C1 JUMP JUMPDEST PUSH1 0x2 DUP3 ADD SWAP1 POP SWAP2 SWAP1 POP JUMP JUMPDEST PUSH32 0x22696D616765223A202200000000000000000000000000000000000000000000 PUSH1 0x0 DUP3 ADD MSTORE POP JUMP JUMPDEST PUSH1 0x0 PUSH2 0x1643 PUSH1 0xA DUP4 PUSH2 0x1265 JUMP JUMPDEST SWAP2 POP PUSH2 0x164E DUP3 PUSH2 0x160D JUMP JUMPDEST PUSH1 0xA DUP3 ADD SWAP1 POP SWAP2 SWAP1 POP JUMP JUMPDEST PUSH32 0x646174613A696D6167652F7376672B786D6C3B6261736536342C000000000000 PUSH1 0x0 DUP3 ADD MSTORE POP JUMP JUMPDEST PUSH1 0x0 PUSH2 0x168F PUSH1 0x1A DUP4 PUSH2 0x1265 JUMP JUMPDEST SWAP2 POP PUSH2 0x169A DUP3 PUSH2 0x1659 JUMP JUMPDEST PUSH1 0x1A DUP3 ADD SWAP1 POP SWAP2 SWAP1 POP JUMP JUMPDEST PUSH32 0x227D000000000000000000000000000000000000000000000000000000000000 PUSH1 0x0 DUP3 ADD MSTORE POP JUMP JUMPDEST PUSH1 0x0 PUSH2 0x16DB PUSH1 0x2 DUP4 PUSH2 0x1265 JUMP JUMPDEST SWAP2 POP PUSH2 0x16E6 DUP3 PUSH2 0x16A5 JUMP JUMPDEST PUSH1 0x2 DUP3 ADD SWAP1 POP SWAP2 SWAP1 POP JUMP JUMPDEST PUSH1 0x0 PUSH2 0x16FC DUP3 PUSH2 0x1552 JUMP JUMPDEST SWAP2 POP PUSH2 0x1707 DUP3 PUSH2 0x159E JUMP JUMPDEST SWAP2 POP PUSH2 0x1713 DUP3 DUP6 PUSH2 0x12E2 JUMP JUMPDEST SWAP2 POP PUSH2 0x171E DUP3 PUSH2 0x15EA JUMP JUMPDEST SWAP2 POP PUSH2 0x1729 DUP3 PUSH2 0x1636 JUMP JUMPDEST SWAP2 POP PUSH2 0x1734 DUP3 PUSH2 0x1682 JUMP JUMPDEST SWAP2 POP PUSH2 0x1740 DUP3 DUP5 PUSH2 0x12E2 JUMP JUMPDEST SWAP2 POP PUSH2 0x174B DUP3 PUSH2 0x16CE JUMP JUMPDEST SWAP2 POP DUP2 SWAP1 POP SWAP4 SWAP3 POP POP POP JUMP JUMPDEST PUSH32 0x646174613A6170706C69636174696F6E2F6A736F6E3B6261736536342C000000 PUSH1 0x0 DUP3 ADD MSTORE POP JUMP JUMPDEST PUSH1 0x0 PUSH2 0x178D PUSH1 0x1D DUP4 PUSH2 0x1265 JUMP JUMPDEST SWAP2 POP PUSH2 0x1798 DUP3 PUSH2 0x1757 JUMP JUMPDEST PUSH1 0x1D DUP3 ADD SWAP1 POP SWAP2 SWAP1 POP JUMP JUMPDEST PUSH1 0x0 PUSH2 0x17AE DUP3 PUSH2 0x1780 JUMP JUMPDEST SWAP2 POP PUSH2 0x17BA DUP3 DUP5 PUSH2 0x12E2 JUMP JUMPDEST SWAP2 POP DUP2 SWAP1 POP SWAP3 SWAP2 POP POP JUMP JUMPDEST PUSH32 0x3C747370616E3E00000000000000000000000000000000000000000000000000 PUSH1 0x0 DUP3 ADD MSTORE POP JUMP JUMPDEST PUSH1 0x0 PUSH2 0x17FB PUSH1 0x7 DUP4 PUSH2 0x1265 JUMP JUMPDEST SWAP2 POP PUSH2 0x1806 DUP3 PUSH2 0x17C5 JUMP JUMPDEST PUSH1 0x7 DUP3 ADD SWAP1 POP SWAP2 SWAP1 POP JUMP JUMPDEST PUSH32 0x3C2F747370616E3E3C2F746578743E20203C7465787420636C6173733D22636C PUSH1 0x0 DUP3 ADD MSTORE PUSH32 0x732D392220783D223933252220793D223430252220746578742D616E63686F72 PUSH1 0x20 DUP3 ADD MSTORE PUSH32 0x3D22656E64223E00000000000000000000000000000000000000000000000000 PUSH1 0x40 DUP3 ADD MSTORE POP JUMP JUMPDEST PUSH1 0x0 PUSH2 0x1893 PUSH1 0x47 DUP4 PUSH2 0x1265 JUMP JUMPDEST SWAP2 POP PUSH2 0x189E DUP3 PUSH2 0x1811 JUMP JUMPDEST PUSH1 0x47 DUP3 ADD SWAP1 POP SWAP2 SWAP1 POP JUMP JUMPDEST PUSH32 0x2000000000000000000000000000000000000000000000000000000000000000 PUSH1 0x0 DUP3 ADD MSTORE POP JUMP JUMPDEST PUSH1 0x0 PUSH2 0x18DF PUSH1 0x1 DUP4 PUSH2 0x1265 JUMP JUMPDEST SWAP2 POP PUSH2 0x18EA DUP3 PUSH2 0x18A9 JUMP JUMPDEST PUSH1 0x1 DUP3 ADD SWAP1 POP SWAP2 SWAP1 POP JUMP JUMPDEST PUSH32 0x3C2F747370616E3E3C2F746578743E0000000000000000000000000000000000 PUSH1 0x0 DUP3 ADD MSTORE POP JUMP JUMPDEST PUSH1 0x0 PUSH2 0x192B PUSH1 0xF DUP4 PUSH2 0x1265 JUMP JUMPDEST SWAP2 POP PUSH2 0x1936 DUP3 PUSH2 0x18F5 JUMP JUMPDEST PUSH1 0xF DUP3 ADD SWAP1 POP SWAP2 SWAP1 POP JUMP JUMPDEST PUSH32 0x3C7465787420636C6173733D22636C732D392220783D223933252220793D2234 PUSH1 0x0 DUP3 ADD MSTORE PUSH32 0x35252220746578742D616E63686F723D22656E64223E3C747370616E3E000000 PUSH1 0x20 DUP3 ADD MSTORE POP JUMP JUMPDEST PUSH1 0x0 PUSH2 0x199D PUSH1 0x3D DUP4 PUSH2 0x1265 JUMP JUMPDEST SWAP2 POP PUSH2 0x19A8 DUP3 PUSH2 0x1941 JUMP JUMPDEST PUSH1 0x3D DUP3 ADD SWAP1 POP SWAP2 SWAP1 POP JUMP JUMPDEST PUSH1 0x0 PUSH2 0x19BE DUP3 PUSH2 0x17EE JUMP JUMPDEST SWAP2 POP PUSH2 0x19CA DUP3 DUP10 PUSH2 0x12E2 JUMP JUMPDEST SWAP2 POP PUSH2 0x19D5 DUP3 PUSH2 0x1886 JUMP JUMPDEST SWAP2 POP PUSH2 0x19E0 DUP3 PUSH2 0x17EE JUMP JUMPDEST SWAP2 POP PUSH2 0x19EC DUP3 DUP9 PUSH2 0x12E2 JUMP JUMPDEST SWAP2 POP PUSH2 0x19F7 DUP3 PUSH2 0x18D2 JUMP JUMPDEST SWAP2 POP PUSH2 0x1A03 DUP3 DUP8 PUSH2 0x12E2 JUMP JUMPDEST SWAP2 POP PUSH2 0x1A0E DUP3 PUSH2 0x191E JUMP JUMPDEST SWAP2 POP PUSH2 0x1A19 DUP3 PUSH2 0x17EE JUMP JUMPDEST SWAP2 POP PUSH2 0x1A25 DUP3 DUP7 PUSH2 0x12E2 JUMP JUMPDEST SWAP2 POP PUSH2 0x1A30 DUP3 PUSH2 0x18D2 JUMP JUMPDEST SWAP2 POP PUSH2 0x1A3C DUP3 DUP6 PUSH2 0x12E2 JUMP JUMPDEST SWAP2 POP PUSH2 0x1A47 DUP3 PUSH2 0x191E JUMP JUMPDEST SWAP2 POP PUSH2 0x1A52 DUP3 PUSH2 0x1990 JUMP JUMPDEST SWAP2 POP PUSH2 0x1A5E DUP3 DUP5 PUSH2 0x12E2 JUMP JUMPDEST SWAP2 POP PUSH2 0x1A69 DUP3 PUSH2 0x191E JUMP JUMPDEST SWAP2 POP DUP2 SWAP1 POP SWAP8 SWAP7 POP POP POP POP POP POP POP JUMP JUMPDEST PUSH32 0x3C7376672066696C6C3D222330303030303022206865696768743D2238303070 PUSH1 0x0 DUP3 ADD MSTORE PUSH32 0x78222077696474683D223830307078222076657273696F6E3D22312E31222069 PUSH1 0x20 DUP3 ADD MSTORE PUSH32 0x643D224C617965725F312220786D6C6E733D22687474703A2F2F7777772E7733 PUSH1 0x40 DUP3 ADD MSTORE PUSH32 0x2E6F72672F323030302F7376672220786D6C6E733A786C696E6B3D2268747470 PUSH1 0x60 DUP3 ADD MSTORE PUSH32 0x3A2F2F7777772E77332E6F72672F313939392F786C696E6B222076696577426F PUSH1 0x80 DUP3 ADD MSTORE PUSH32 0x783D2230203020353132203531322220786D6C3A73706163653D227072657365 PUSH1 0xA0 DUP3 ADD MSTORE PUSH32 0x727665223E3C673E3C673E3C7061746820643D224D3531312E36353920333038 PUSH1 0xC0 DUP3 ADD MSTORE PUSH32 0x2E38373461382E36323520382E363235203020302030202D352E303039202D35 PUSH1 0xE0 DUP3 ADD MSTORE PUSH32 0x2E353737632D32322E363433202D392E323932202D34312E373132202D32322E PUSH2 0x100 DUP3 ADD MSTORE PUSH32 0x343437202D35362E363735202D33392E303938202D33312E353639202D33352E PUSH2 0x120 DUP3 ADD MSTORE PUSH32 0x313332202D33372E373135202D38372E313931202D31352E323935202D313239 PUSH2 0x140 DUP3 ADD MSTORE PUSH32 0x2E35343161382E36323220382E363232203020302030202D362E333433202D31 PUSH2 0x160 DUP3 ADD MSTORE PUSH32 0x322E353634632D33332E383131202D352E303733202D35372E34323720342E34 PUSH2 0x180 DUP3 ADD MSTORE PUSH32 0x3038202D37302E3833332031322E3731396C2D352E303032202D34322E353137 PUSH2 0x1A0 DUP3 ADD MSTORE PUSH32 0x61382E363220382E3632203020302030202D332E353731202D362E3032342038 PUSH2 0x1C0 DUP3 ADD MSTORE PUSH32 0x2E363320382E3633203020302030202D362E383635202D312E333838632D3330 PUSH2 0x1E0 DUP3 ADD MSTORE PUSH32 0x2E323520362E373232202D35322E3336312032362E313031202D36352E303731 PUSH2 0x200 DUP3 ADD MSTORE PUSH32 0x2034302E336C2D362E383334202D33392E32393561382E36323520382E363235 PUSH2 0x220 DUP3 ADD MSTORE PUSH32 0x203020302030202D31312E393938202D362E343035632D32392E313138203132 PUSH2 0x240 DUP3 ADD MSTORE PUSH32 0x2E393431202D34392E3331382033392E353836202D36312E3032332035392E33 PUSH2 0x260 DUP3 ADD MSTORE PUSH32 0x35356C2D372E353433202D34352E32353961382E36323920382E363239203020 PUSH2 0x280 DUP3 ADD MSTORE PUSH32 0x302030202D31312E393635202D362E343834632D32392E3230332031322E3737 PUSH2 0x2A0 DUP3 ADD MSTORE PUSH32 0x35202D34382E3637352035302E303932202D35382E3731382037342E3630336C PUSH2 0x2C0 DUP3 ADD MSTORE PUSH32 0x2D31322E303339202D33312E36303361382E36323720382E3632372030203020 PUSH2 0x2E0 DUP3 ADD MSTORE PUSH32 0x30202D31342E313539202D332E3032384336382E3331203135312E3437342035 PUSH2 0x300 DUP3 ADD MSTORE PUSH32 0x382E3534203137372E3737352035342E3633203139352E3131376C2D32302E36 PUSH2 0x320 DUP3 ADD MSTORE PUSH32 0x3732202D32322E37393261382E36323620382E363236203020302030202D3133 PUSH2 0x340 DUP3 ADD MSTORE PUSH32 0x2E38383720312E35333443322E373731203230342E333036202D322E32353420 PUSH2 0x360 DUP3 ADD MSTORE PUSH32 0x3232352E33343520302E383732203235342E32363163332E3638352033342E30 PUSH2 0x380 DUP3 ADD MSTORE PUSH32 0x38332031382E3537382036352E3032322034312E3331312038382E383633202D PUSH2 0x3A0 DUP3 ADD MSTORE PUSH32 0x362E3138312032322E353133202D32342E3737342033372E383434202D32342E PUSH2 0x3C0 DUP3 ADD MSTORE PUSH32 0x3935382033372E39393361382E36323320382E36323320302030203020342E31 PUSH2 0x3E0 DUP3 ADD MSTORE PUSH32 0x38392031352E32353763322E39343420302E34323120352E38363420302E3631 PUSH2 0x400 DUP3 ADD MSTORE PUSH32 0x3320382E37353320302E3631332032342E39323820302034372E323732202D31 PUSH2 0x420 DUP3 ADD MSTORE PUSH32 0x342E3338332035362E363631202D32312E333734613135362E34353120313536 PUSH2 0x440 DUP3 ADD MSTORE PUSH32 0x2E3435312030203020302031362E38373920362E3938347632332E3131396330 PUSH2 0x460 DUP3 ADD MSTORE PUSH32 0x2031342E3734392031312E3330322032362E3833342032352E37332032372E35 PUSH2 0x480 DUP3 ADD MSTORE PUSH32 0x313320372E34343720302E3334372031342E3535202D322E3239312031392E39 PUSH2 0x4A0 DUP3 ADD MSTORE PUSH32 0x3438202D372E3433396132372E3134392032372E31343920302030203020382E PUSH2 0x4C0 DUP3 ADD MSTORE PUSH32 0x333732202D31392E353535762D31352E3038316831372E33357631342E353631 PUSH2 0x4E0 DUP3 ADD MSTORE PUSH32 0x63302031342E3734392031312E3330322032362E3833342032352E3733203237 PUSH2 0x500 DUP3 ADD MSTORE PUSH32 0x2E35313320372E34343720302E3334372031342E3535202D322E323931203139 PUSH2 0x520 DUP3 ADD MSTORE PUSH32 0x2E393438202D372E3433396132372E3134392032372E31343920302030203020 PUSH2 0x540 DUP3 ADD MSTORE PUSH32 0x382E333732202D31392E353535762D31352E3038316831372E3334397631342E PUSH2 0x560 DUP3 ADD MSTORE PUSH32 0x35363163302031342E3734392031312E3330322032362E3833342032352E3733 PUSH2 0x580 DUP3 ADD MSTORE PUSH32 0x2032372E35313320372E34353820302E3334372031342E3535202D322E323931 PUSH2 0x5A0 DUP3 ADD MSTORE PUSH32 0x2031392E393438202D372E3433396132372E3134392032372E31343920302030 PUSH2 0x5C0 DUP3 ADD MSTORE PUSH32 0x203020382E333732202D31392E353535762D31352E303831483331372E397631 PUSH2 0x5E0 DUP3 ADD MSTORE PUSH32 0x342E35363163302031342E3734392031312E3330322032362E3833342032352E PUSH2 0x600 DUP3 ADD MSTORE PUSH32 0x37332032372E35313320302E343420302E30323120302E383820302E30333120 PUSH2 0x620 DUP3 ADD MSTORE PUSH32 0x312E33313820302E30333120362E39373920302031332E353531202D322E3632 PUSH2 0x640 DUP3 ADD MSTORE PUSH32 0x352031382E3633202D372E3436396132372E3134392032372E31343920302030 PUSH2 0x660 DUP3 ADD MSTORE PUSH32 0x203020382E333732202D31392E353535563339302E356333342E393935202D33 PUSH2 0x680 DUP3 ADD MSTORE PUSH32 0x2E3034332036392E313638202D31352E3939322039392E333138202D33372E37 PUSH2 0x6A0 DUP3 ADD MSTORE PUSH32 0x30362032352E343534202D31382E3333312033392E3032202D33362E33362033 PUSH2 0x6C0 DUP3 ADD MSTORE PUSH32 0x392E313431202D33362E35333161382E36313720382E36313720302030203020 PUSH2 0x6E0 DUP3 ADD MSTORE PUSH32 0x312E3235202D372E3338397A4D34332E343738203337382E30363863342E3530 PUSH2 0x700 DUP3 ADD MSTORE PUSH32 0x37202D352E39383520392E313236202D31332E3433392031322E353533202D32 PUSH2 0x720 DUP3 ADD MSTORE PUSH32 0x322E303737613135342E333036203135342E3330362030203020302031342E30 PUSH2 0x740 DUP3 ADD MSTORE PUSH32 0x34362031302E323236632D362E36383220342E323632202D31362E3132322039 PUSH2 0x760 DUP3 ADD MSTORE PUSH32 0x2E323933202D32362E3539392031312E3835317A6D33352E393632202D32362E PUSH2 0x780 DUP3 ADD MSTORE PUSH32 0x333532632D33332E393638202D32312E393533202D35362E393535202D35382E PUSH2 0x7A0 DUP3 ADD MSTORE PUSH32 0x303434202D36312E343136202D39392E333133202D322E333532202D32312E37 PUSH2 0x7C0 DUP3 ADD MSTORE PUSH32 0x333220302E353435202D33372E3838352031312E333631202D35392E3434326C PUSH2 0x7E0 DUP3 ADD MSTORE PUSH32 0x32342E3837332032372E34323461382E36313920382E36313920302030203020 PUSH2 0x800 DUP3 ADD MSTORE PUSH32 0x392E34363720322E32343820382E36343220382E36343220302030203020352E PUSH2 0x820 DUP3 ADD MSTORE PUSH32 0x353436202D382E30313463302E303032202D302E33363120302E3535202D3333 PUSH2 0x840 DUP3 ADD MSTORE PUSH32 0x2E3038352032362E353034202D36352E3230336C31352E3333352034302E3235 PUSH2 0x860 DUP3 ADD MSTORE PUSH32 0x3563312E33323120332E34363820342E37313820352E37313820382E34323220 PUSH2 0x880 DUP3 ADD MSTORE PUSH32 0x352E35343661382E36323520382E36323520302030203020372E393237202D36 PUSH2 0x8A0 DUP3 ADD MSTORE PUSH32 0x2E32333563302E303532202D302E31373720352E313934202D31372E39303320 PUSH2 0x8C0 DUP3 ADD MSTORE PUSH32 0x31352E313038202D33372E36333120392E383332202D31392E3536342032302E PUSH2 0x8E0 DUP3 ADD MSTORE PUSH32 0x373639202D33342E3033312033322E303735202D34322E3535396C392E383131 PUSH2 0x900 DUP3 ADD MSTORE PUSH32 0x2035382E38363961382E36323420382E36323420302030203020372E36303720 PUSH2 0x920 DUP3 ADD MSTORE PUSH32 0x372E31353620382E36323420382E36323420302030203020382E3933202D352E PUSH2 0x940 DUP3 ADD MSTORE PUSH32 0x34323363302E32202D302E3530372031382E373538202D34362E383138203534 PUSH2 0x960 DUP3 ADD MSTORE PUSH32 0x2E323132202D36382E3834396C382E3134332034362E383261382E3632342038 PUSH2 0x980 DUP3 ADD MSTORE PUSH32 0x2E3632342030203020302031352E38323720332E30363763302E323235202D30 PUSH2 0x9A0 DUP3 ADD MSTORE PUSH32 0x2E3336332032312E3235202D33332E3639392035372E333738202D34362E3039 PUSH2 0x9C0 DUP3 ADD MSTORE PUSH32 0x396C352E3630362034372E36353261382E36323320382E363233203020302030 PUSH2 0x9E0 DUP3 ADD MSTORE PUSH32 0x2031342E39343820342E37393363302E323034202D302E3232342031382E3937 PUSH2 0xA00 DUP3 ADD MSTORE PUSH32 0x34202D32302E3336372035362E393631202D31382E373633202D392E39303820 PUSH2 0xA20 DUP3 ADD MSTORE PUSH32 0x32342E303034202D31322E3335372035302E303235202D372E37382037342E37 PUSH2 0xA40 DUP3 ADD MSTORE PUSH32 0x3332202D32342E323239202D362E303938202D34332E333832202D302E323034 PUSH2 0xA60 DUP3 ADD MSTORE PUSH32 0x202D35342E37393620352E343735202D352E363238202D31342E373338202D31 PUSH2 0xA80 DUP3 ADD MSTORE PUSH32 0x392E393132202D32352E323333202D33362E363033202D32352E323333202D32 PUSH2 0xAA0 DUP3 ADD MSTORE PUSH32 0x312E3539322030202D33392E31362031372E353637202D33392E31362033392E PUSH2 0xAC0 DUP3 ADD MSTORE PUSH32 0x31366133382E39342033382E393420302030203020362E3233362032312E3138 PUSH2 0xAE0 DUP3 ADD MSTORE PUSH32 0x33632D32302E39363120302E323837202D34392E34313220312E393732202D37 PUSH2 0xB00 DUP3 ADD MSTORE PUSH32 0x382E35333720372E363233202D37302E3537342031332E363936202D3131332E PUSH2 0xB20 DUP3 ADD MSTORE PUSH32 0x3039392034342E393532202D3132332E3938352039302E3736317A6D3133322E PUSH2 0xB40 DUP3 ADD MSTORE PUSH32 0x3436352035342E353261392E36393220392E363932203020302031202D332E30 PUSH2 0xB60 DUP3 ADD MSTORE PUSH32 0x3320372E30373520392E363820392E3638203020302031202D372E3232392032 PUSH2 0xB80 DUP3 ADD MSTORE PUSH32 0x2E363839632D352E313233202D302E323432202D392E323931202D342E383534 PUSH2 0xBA0 DUP3 ADD MSTORE PUSH32 0x202D392E323931202D31302E323833762D31342E3536316831392E3535763135 PUSH2 0xBC0 DUP3 ADD MSTORE PUSH32 0x2E30387A6D3134322E373936202D302E303031633020322E37202D312E303736 PUSH2 0xBE0 DUP3 ADD MSTORE PUSH32 0x20352E323132202D332E303320372E30373661392E37303920392E3730392030 PUSH2 0xC00 DUP3 ADD MSTORE PUSH32 0x20302031202D372E32323920322E363839632D352E313233202D302E32343220 PUSH2 0xC20 DUP3 ADD MSTORE PUSH32 0x2D392E323931202D342E383534202D392E323931202D31302E323833762D3134 PUSH2 0xC40 DUP3 ADD MSTORE PUSH32 0x2E3538386C31392E3535202D302E30367631352E3136367A6D382E333831202D PUSH2 0xC60 DUP3 ADD MSTORE PUSH32 0x33322E3434202D37312E31353420302E313161382E36323520382E3632352030 PUSH2 0xC80 DUP3 ADD MSTORE PUSH32 0x20302030202D382E36323520382E3632357632332E37303661392E3639322039 PUSH2 0xCA0 DUP3 ADD MSTORE PUSH32 0x2E363932203020302031202D332E303320372E30373520392E37303220392E37 PUSH2 0xCC0 DUP3 ADD MSTORE PUSH32 0x3032203020302031202D372E32323920322E363839632D352E313233202D302E PUSH2 0xCE0 DUP3 ADD MSTORE PUSH32 0x323432202D392E323931202D342E383534202D392E323931202D31302E323833 PUSH2 0xD00 DUP3 ADD MSTORE PUSH32 0x563338322E353361382E36323520382E363235203020302030202D382E363235 PUSH2 0xD20 DUP3 ADD MSTORE PUSH32 0x202D382E363235483135342E363135632D312E3535392030202D332E3235202D PUSH2 0xD40 DUP3 ADD MSTORE PUSH32 0x302E303334202D352E313635202D302E31303561382E36323420382E36323420 PUSH2 0xD60 DUP3 ADD MSTORE PUSH32 0x3020302030202D382E39343320382E3631387632332E38313661392E36393220 PUSH2 0xD80 DUP3 ADD MSTORE PUSH32 0x392E363932203020302031202D332E303320372E30373520392E363720392E36 PUSH2 0xDA0 DUP3 ADD MSTORE PUSH32 0x37203020302031202D372E32323920322E363839632D352E313233202D302E32 PUSH2 0xDC0 DUP3 ADD MSTORE PUSH32 0x3431202D392E323931202D342E383534202D392E323931202D31302E32383376 PUSH2 0xDE0 DUP3 ADD MSTORE PUSH32 0x2D32392E33393461382E36323520382E363235203020302030202D362E313433 PUSH2 0xE00 DUP3 ADD MSTORE PUSH32 0x202D382E3236203133392E3334203133392E3334203020302031202D31392E35 PUSH2 0xE20 DUP3 ADD MSTORE PUSH32 0x3833202D372E3533386331362E373834202D39352E323734203138382E313639 PUSH2 0xE40 DUP3 ADD MSTORE PUSH32 0x202D39302E373735203231352E3339202D38392E34343220312E34303220302E PUSH2 0xE60 DUP3 ADD MSTORE PUSH32 0x31353320322E38323420302E32333120342E32363620302E32333161382E3632 PUSH2 0xE80 DUP3 ADD MSTORE PUSH32 0x3520382E36323520302030203020302E363436202D31372E323236632D302E33 PUSH2 0xEA0 DUP3 ADD MSTORE PUSH32 0x3037202D302E303233202D312E353537202D302E313134202D332E363239202D PUSH2 0xEC0 DUP3 ADD MSTORE PUSH32 0x302E323237202D31302E363735202D312E3436202D31382E393238202D31302E PUSH2 0xEE0 DUP3 ADD MSTORE PUSH32 0x363338202D31382E393238202D32312E3730382030202D31322E30383220392E PUSH2 0xF00 DUP3 ADD MSTORE PUSH32 0x383239202D32312E3931312032312E393131202D32312E3931317332312E3931 PUSH2 0xF20 DUP3 ADD MSTORE PUSH32 0x3220392E3832392032312E3931322032312E393131633020332E33353220312E PUSH2 0xF40 DUP3 ADD MSTORE PUSH32 0x39363220362E33383220342E39393920372E37393920332E30333920312E3431 PUSH2 0xF60 DUP3 ADD MSTORE PUSH32 0x3720362E36343120302E39323820392E323039202D312E32323520312E303220 PUSH2 0xF80 DUP3 ADD MSTORE PUSH32 0x2D302E3835362032342E3732202D32302E3231322036302E353438202D362E32 PUSH2 0xFA0 DUP3 ADD MSTORE PUSH32 0x20352E3533372031352E3639352031342E3130322033302E3431382032352E35 PUSH2 0xFC0 DUP3 ADD MSTORE PUSH32 0x38392034332E3230312031342E3234312031352E3834382033312E3732382032 PUSH2 0xFE0 DUP3 ADD MSTORE PUSH32 0x382E3832352035322E3039392033382E363831202D31362E3433392031372E34 PUSH2 0x1000 DUP3 ADD MSTORE PUSH32 0x3233202D36302E3435342035362E353639202D3132362E3136312035392E3338 PUSH2 0x1020 DUP3 ADD MSTORE PUSH32 0x387A222F3E3C2F673E3C2F673E3C673E3C673E3C706174682063783D22333930 PUSH2 0x1040 DUP3 ADD MSTORE PUSH32 0x2E363236222063793D223237392E3733342220723D22382E3632352220643D22 PUSH2 0x1060 DUP3 ADD MSTORE PUSH32 0x4D3339392E323531203237392E37333441382E36323520382E36323520302030 PUSH2 0x1080 DUP3 ADD MSTORE PUSH32 0x2031203339302E363236203238382E33353941382E36323520382E3632352030 PUSH2 0x10A0 DUP3 ADD MSTORE PUSH32 0x20302031203338322E303031203237392E37333441382E36323520382E363235 PUSH2 0x10C0 DUP3 ADD MSTORE PUSH32 0x203020302031203339392E323531203237392E3733347A222F3E3C2F673E3C2F PUSH2 0x10E0 DUP3 ADD MSTORE PUSH32 0x673E3C2F7376673E000000000000000000000000000000000000000000000000 PUSH2 0x1100 DUP3 ADD MSTORE POP JUMP JUMPDEST PUSH1 0x0 PUSH2 0x2F61 PUSH2 0x1108 DUP4 PUSH2 0x1265 JUMP JUMPDEST SWAP2 POP PUSH2 0x2F6C DUP3 PUSH2 0x1A79 JUMP JUMPDEST PUSH2 0x1108 DUP3 ADD SWAP1 POP SWAP2 SWAP1 POP JUMP JUMPDEST PUSH1 0x0 PUSH2 0x2F83 DUP3 PUSH2 0x2F53 JUMP JUMPDEST SWAP2 POP PUSH2 0x2F8F DUP3 DUP5 PUSH2 0x12E2 JUMP JUMPDEST SWAP2 POP DUP2 SWAP1 POP SWAP3 SWAP2 POP POP JUMP JUMPDEST PUSH1 0x0 PUSH2 0x2FA6 DUP3 DUP5 PUSH2 0x12E2 JUMP JUMPDEST SWAP2 POP DUP2 SWAP1 POP SWAP3 SWAP2 POP POP JUMP JUMPDEST PUSH1 0x0 PUSH2 0x2FBC DUP3 PUSH2 0x865 JUMP JUMPDEST SWAP2 POP PUSH32 0xFFFFFFFFFFFFFFFFFFFFFFFFFFFFFFFFFFFFFFFFFFFFFFFFFFFFFFFFFFFFFFFF DUP3 SUB PUSH2 0x2FEE JUMPI PUSH2 0x2FED PUSH2 0x1202 JUMP JUMPDEST JUMPDEST PUSH1 0x1 DUP3 ADD SWAP1 POP SWAP2 SWAP1 POP JUMP JUMPDEST PUSH32 0x4E487B7100000000000000000000000000000000000000000000000000000000 PUSH1 0x0 MSTORE PUSH1 0x12 PUSH1 0x4 MSTORE PUSH1 0x24 PUSH1 0x0 REVERT JUMPDEST PUSH1 0x0 PUSH2 0x3033 DUP3 PUSH2 0x865 JUMP JUMPDEST SWAP2 POP PUSH2 0x303E DUP4 PUSH2 0x865 JUMP JUMPDEST SWAP3 POP DUP3 PUSH2 0x304E JUMPI PUSH2 0x304D PUSH2 0x2FF9 JUMP JUMPDEST JUMPDEST DUP3 DUP3 DIV SWAP1 POP SWAP3 SWAP2 POP POP JUMP JUMPDEST PUSH1 0x0 PUSH2 0x3064 DUP3 PUSH2 0x865 JUMP JUMPDEST SWAP2 POP PUSH2 0x306F DUP4 PUSH2 0x865 JUMP JUMPDEST SWAP3 POP DUP3 PUSH2 0x307F JUMPI PUSH2 0x307E PUSH2 0x2FF9 JUMP JUMPDEST JUMPDEST DUP3 DUP3 MOD SWAP1 POP SWAP3 SWAP2 POP POP JUMP JUMPDEST PUSH1 0x0 PUSH2 0x3095 DUP3 PUSH2 0x865 JUMP JUMPDEST SWAP2 POP PUSH1 0x0 DUP3 SUB PUSH2 0x30A8 JUMPI PUSH2 0x30A7 PUSH2 0x1202 JUMP JUMPDEST JUMPDEST PUSH1 0x1 DUP3 SUB SWAP1 POP SWAP2 SWAP1 POP JUMP JUMPDEST PUSH32 0x4E487B7100000000000000000000000000000000000000000000000000000000 PUSH1 0x0 MSTORE PUSH1 0x32 PUSH1 0x4 MSTORE PUSH1 0x24 PUSH1 0x0 REVERT JUMPDEST PUSH1 0x0 PUSH2 0x30ED DUP3 PUSH2 0x865 JUMP JUMPDEST SWAP2 POP PUSH2 0x30F8 DUP4 PUSH2 0x865 JUMP JUMPDEST SWAP3 POP DUP3 DUP3 MUL PUSH2 0x3106 DUP2 PUSH2 0x865 JUMP JUMPDEST SWAP2 POP DUP3 DUP3 DIV DUP5 EQ DUP4 ISZERO OR PUSH2 0x311D JUMPI PUSH2 0x311C PUSH2 0x1202 JUMP JUMPDEST JUMPDEST POP SWAP3 SWAP2 POP POP JUMP INVALID COINBASE TIMESTAMP NUMBER PREVRANDAO GASLIMIT CHAINID SELFBALANCE BASEFEE 0x49 0x4A 0x4B 0x4C 0x4D 0x4E 0x4F POP MLOAD MSTORE MSTORE8 SLOAD SSTORE JUMP JUMPI PC MSIZE GAS PUSH2 0x6263 PUSH5 0x6566676869 PUSH11 0x6B6C6D6E6F707172737475 PUSH23 0x7778797A303132333435363738392B2F5468697320636F PUSH23 0x6572204E46542068617320616C72656164792065787069 PUSH19 0x6564A26469706673582212201C2AA9C0BDA2F6 EXP PUSH16 0xA71417F8559203E482114C6E5C94CBCA 0xC1 SWAP1 0xCD LOG0 0xE3 0x1E 0x4F PUSH5 0x736F6C6343 STOP ADDMOD SGT STOP CALLER "
		},
		"gasEstimates": {
			"creation": {
				"codeDepositCost": "2546400",
				"executionCost": "infinite",
				"totalCost": "infinite"
			},
			"external": {
				"generateDescription(uint256)": "infinite",
				"generateSVGImage((uint256,uint256,uint256,uint256,address,address,uint256,uint256,uint256,uint256,string))": "infinite",
				"master()": "infinite",
				"tokenURI(uint256)": "infinite"
			},
			"internal": {
				"uint2str(uint256)": "infinite"
			}
		},
		"methodIdentifiers": {
			"generateDescription(uint256)": "2409145e",
			"generateSVGImage((uint256,uint256,uint256,uint256,address,address,uint256,uint256,uint256,uint256,string))": "e2a6ab3d",
			"master()": "ee97f7f3",
			"tokenURI(uint256)": "c87b56dd"
		}
	},
	"abi": [
		{
			"inputs": [
				{
					"internalType": "address",
					"name": "_master",
					"type": "address"
				}
			],
			"stateMutability": "nonpayable",
			"type": "constructor"
		},
		{
			"inputs": [
				{
					"internalType": "uint256",
					"name": "tokenId",
					"type": "uint256"
				}
			],
			"name": "generateDescription",
			"outputs": [
				{
					"internalType": "string",
					"name": "descriptionString",
					"type": "string"
				},
				{
					"components": [
						{
							"internalType": "uint256",
							"name": "amountPaidOut",
							"type": "uint256"
						},
						{
							"internalType": "uint256",
							"name": "totalClaimAmount",
							"type": "uint256"
						},
						{
							"internalType": "uint256",
							"name": "start",
							"type": "uint256"
						},
						{
							"internalType": "uint256",
							"name": "period",
							"type": "uint256"
						},
						{
							"internalType": "address",
							"name": "token0",
							"type": "address"
						},
						{
							"internalType": "address",
							"name": "token1",
							"type": "address"
						},
						{
							"internalType": "uint256",
							"name": "token0Qty",
							"type": "uint256"
						},
						{
							"internalType": "uint256",
							"name": "token1Qty",
							"type": "uint256"
						},
						{
							"internalType": "uint256",
							"name": "lowerBoundRatio",
							"type": "uint256"
						},
						{
							"internalType": "uint256",
							"name": "upperBoundRatio",
							"type": "uint256"
						},
						{
							"internalType": "string",
							"name": "pairStr",
							"type": "string"
						}
					],
					"internalType": "struct CoverData",
					"name": "coverData",
					"type": "tuple"
				}
			],
			"stateMutability": "view",
			"type": "function"
		},
		{
			"inputs": [
				{
					"components": [
						{
							"internalType": "uint256",
							"name": "amountPaidOut",
							"type": "uint256"
						},
						{
							"internalType": "uint256",
							"name": "totalClaimAmount",
							"type": "uint256"
						},
						{
							"internalType": "uint256",
							"name": "start",
							"type": "uint256"
						},
						{
							"internalType": "uint256",
							"name": "period",
							"type": "uint256"
						},
						{
							"internalType": "address",
							"name": "token0",
							"type": "address"
						},
						{
							"internalType": "address",
							"name": "token1",
							"type": "address"
						},
						{
							"internalType": "uint256",
							"name": "token0Qty",
							"type": "uint256"
						},
						{
							"internalType": "uint256",
							"name": "token1Qty",
							"type": "uint256"
						},
						{
							"internalType": "uint256",
							"name": "lowerBoundRatio",
							"type": "uint256"
						},
						{
							"internalType": "uint256",
							"name": "upperBoundRatio",
							"type": "uint256"
						},
						{
							"internalType": "string",
							"name": "pairStr",
							"type": "string"
						}
					],
					"internalType": "struct CoverData",
					"name": "coverData",
					"type": "tuple"
				}
			],
			"name": "generateSVGImage",
			"outputs": [
				{
					"internalType": "bytes",
					"name": "image",
					"type": "bytes"
				}
			],
			"stateMutability": "pure",
			"type": "function"
		},
		{
			"inputs": [],
			"name": "master",
			"outputs": [
				{
					"internalType": "contract Master",
					"name": "",
					"type": "address"
				}
			],
			"stateMutability": "view",
			"type": "function"
		},
		{
			"inputs": [
				{
					"internalType": "uint256",
					"name": "tokenId",
					"type": "uint256"
				}
			],
			"name": "tokenURI",
			"outputs": [
				{
					"internalType": "string",
					"name": "",
					"type": "string"
				}
			],
			"stateMutability": "view",
			"type": "function"
		}
	]
}