{
	"contracts/assessment/IndividualClaims.sol": {
		"IndividualClaims": {
			"abi": [
				{
					"inputs": [
						{
							"internalType": "address",
							"name": "hedhAddress",
							"type": "address"
						},
						{
							"internalType": "address",
							"name": "coverNFTAddress",
							"type": "address"
						},
						{
							"internalType": "address",
							"name": "_master",
							"type": "address"
						}
					],
					"stateMutability": "nonpayable",
					"type": "constructor"
				},
				{
					"inputs": [
						{
							"internalType": "uint256",
							"name": "",
							"type": "uint256"
						}
					],
					"name": "claims",
					"outputs": [
						{
							"internalType": "uint256",
							"name": "coverId",
							"type": "uint256"
						},
						{
							"internalType": "address",
							"name": "coverOwner",
							"type": "address"
						},
						{
							"internalType": "bool",
							"name": "payoutRedeemed",
							"type": "bool"
						}
					],
					"stateMutability": "view",
					"type": "function"
				},
				{
					"inputs": [],
					"name": "coverNFT",
					"outputs": [
						{
							"internalType": "contract ICoverNFT",
							"name": "",
							"type": "address"
						}
					],
					"stateMutability": "view",
					"type": "function"
				},
				{
					"inputs": [],
					"name": "hedh",
					"outputs": [
						{
							"internalType": "contract HEDHToken",
							"name": "",
							"type": "address"
						}
					],
					"stateMutability": "view",
					"type": "function"
				},
				{
					"inputs": [
						{
							"internalType": "uint256",
							"name": "",
							"type": "uint256"
						}
					],
					"name": "lastClaimSubmissionOnCover",
					"outputs": [
						{
							"internalType": "uint256",
							"name": "claimId",
							"type": "uint256"
						},
						{
							"internalType": "bool",
							"name": "exists",
							"type": "bool"
						}
					],
					"stateMutability": "view",
					"type": "function"
				},
				{
					"inputs": [],
					"name": "master",
					"outputs": [
						{
							"internalType": "contract Master",
							"name": "",
							"type": "address"
						}
					],
					"stateMutability": "view",
					"type": "function"
				},
				{
					"inputs": [
						{
							"internalType": "uint256",
							"name": "coverId",
							"type": "uint256"
						}
					],
					"name": "redeemClaimPayout",
					"outputs": [],
					"stateMutability": "nonpayable",
					"type": "function"
				},
				{
					"inputs": [
						{
							"internalType": "uint32",
							"name": "coverId",
							"type": "uint32"
						}
					],
					"name": "submitClaim",
					"outputs": [
						{
							"components": [
								{
									"internalType": "uint256",
									"name": "coverId",
									"type": "uint256"
								},
								{
									"internalType": "address",
									"name": "coverOwner",
									"type": "address"
								},
								{
									"internalType": "bool",
									"name": "payoutRedeemed",
									"type": "bool"
								}
							],
							"internalType": "struct Claim",
							"name": "claim",
							"type": "tuple"
						}
					],
					"stateMutability": "payable",
					"type": "function"
				}
			],
			"devdoc": {
				"kind": "dev",
				"methods": {},
				"version": 1
			},
			"evm": {
				"assembly": "    /* \"contracts/assessment/IndividualClaims.sol\":311:2866  contract IndividualClaims is IIndividualClaims{... */\n  mstore(0x40, 0xc0)\n    /* \"contracts/assessment/IndividualClaims.sol\":574:775  constructor(address hedhAddress, address coverNFTAddress,address _master) {... */\n  callvalue\n  dup1\n  iszero\n  tag_1\n  jumpi\n  0x00\n  dup1\n  revert\ntag_1:\n  pop\n  mload(0x40)\n  sub(codesize, bytecodeSize)\n  dup1\n  bytecodeSize\n  dup4\n  codecopy\n  dup2\n  dup2\n  add\n  0x40\n  mstore\n  dup2\n  add\n  swap1\n  tag_2\n  swap2\n  swap1\n  tag_3\n  jump\t// in\ntag_2:\n    /* \"contracts/assessment/IndividualClaims.sol\":675:686  hedhAddress */\n  dup3\n    /* \"contracts/assessment/IndividualClaims.sol\":658:687  hedh = HEDHToken(hedhAddress) */\n  0xffffffffffffffffffffffffffffffffffffffff\n  and\n  0x80\n  dup2\n  0xffffffffffffffffffffffffffffffffffffffff\n  and\n  dup2\n  mstore\n  pop\n  pop\n    /* \"contracts/assessment/IndividualClaims.sol\":718:733  coverNFTAddress */\n  dup2\n    /* \"contracts/assessment/IndividualClaims.sol\":697:734  coverNFT = ICoverNFT(coverNFTAddress) */\n  0xffffffffffffffffffffffffffffffffffffffff\n  and\n  0xa0\n  dup2\n  0xffffffffffffffffffffffffffffffffffffffff\n  and\n  dup2\n  mstore\n  pop\n  pop\n    /* \"contracts/assessment/IndividualClaims.sol\":760:767  _master */\n  dup1\n    /* \"contracts/assessment/IndividualClaims.sol\":744:750  master */\n  0x00\n  dup1\n    /* \"contracts/assessment/IndividualClaims.sol\":744:768  master = Master(_master) */\n  0x0100\n  exp\n  dup2\n  sload\n  dup2\n  0xffffffffffffffffffffffffffffffffffffffff\n  mul\n  not\n  and\n  swap1\n  dup4\n  0xffffffffffffffffffffffffffffffffffffffff\n  and\n  mul\n  or\n  swap1\n  sstore\n  pop\n    /* \"contracts/assessment/IndividualClaims.sol\":574:775  constructor(address hedhAddress, address coverNFTAddress,address _master) {... */\n  pop\n  pop\n  pop\n    /* \"contracts/assessment/IndividualClaims.sol\":311:2866  contract IndividualClaims is IIndividualClaims{... */\n  jump(tag_6)\n    /* \"#utility.yul\":88:205   */\ntag_8:\n    /* \"#utility.yul\":197:198   */\n  0x00\n    /* \"#utility.yul\":194:195   */\n  dup1\n    /* \"#utility.yul\":187:199   */\n  revert\n    /* \"#utility.yul\":334:460   */\ntag_10:\n    /* \"#utility.yul\":371:378   */\n  0x00\n    /* \"#utility.yul\":411:453   */\n  0xffffffffffffffffffffffffffffffffffffffff\n    /* \"#utility.yul\":404:409   */\n  dup3\n    /* \"#utility.yul\":400:454   */\n  and\n    /* \"#utility.yul\":389:454   */\n  swap1\n  pop\n    /* \"#utility.yul\":334:460   */\n  swap2\n  swap1\n  pop\n  jump\t// out\n    /* \"#utility.yul\":466:562   */\ntag_11:\n    /* \"#utility.yul\":503:510   */\n  0x00\n    /* \"#utility.yul\":532:556   */\n  tag_20\n    /* \"#utility.yul\":550:555   */\n  dup3\n    /* \"#utility.yul\":532:556   */\n  tag_10\n  jump\t// in\ntag_20:\n    /* \"#utility.yul\":521:556   */\n  swap1\n  pop\n    /* \"#utility.yul\":466:562   */\n  swap2\n  swap1\n  pop\n  jump\t// out\n    /* \"#utility.yul\":568:690   */\ntag_12:\n    /* \"#utility.yul\":641:665   */\n  tag_22\n    /* \"#utility.yul\":659:664   */\n  dup2\n    /* \"#utility.yul\":641:665   */\n  tag_11\n  jump\t// in\ntag_22:\n    /* \"#utility.yul\":634:639   */\n  dup2\n    /* \"#utility.yul\":631:666   */\n  eq\n    /* \"#utility.yul\":621:684   */\n  tag_23\n  jumpi\n    /* \"#utility.yul\":680:681   */\n  0x00\n    /* \"#utility.yul\":677:678   */\n  dup1\n    /* \"#utility.yul\":670:682   */\n  revert\n    /* \"#utility.yul\":621:684   */\ntag_23:\n    /* \"#utility.yul\":568:690   */\n  pop\n  jump\t// out\n    /* \"#utility.yul\":696:839   */\ntag_13:\n    /* \"#utility.yul\":753:758   */\n  0x00\n    /* \"#utility.yul\":784:790   */\n  dup2\n    /* \"#utility.yul\":778:791   */\n  mload\n    /* \"#utility.yul\":769:791   */\n  swap1\n  pop\n    /* \"#utility.yul\":800:833   */\n  tag_25\n    /* \"#utility.yul\":827:832   */\n  dup2\n    /* \"#utility.yul\":800:833   */\n  tag_12\n  jump\t// in\ntag_25:\n    /* \"#utility.yul\":696:839   */\n  swap3\n  swap2\n  pop\n  pop\n  jump\t// out\n    /* \"#utility.yul\":845:1508   */\ntag_3:\n    /* \"#utility.yul\":933:939   */\n  0x00\n    /* \"#utility.yul\":941:947   */\n  dup1\n    /* \"#utility.yul\":949:955   */\n  0x00\n    /* \"#utility.yul\":998:1000   */\n  0x60\n    /* \"#utility.yul\":986:995   */\n  dup5\n    /* \"#utility.yul\":977:984   */\n  dup7\n    /* \"#utility.yul\":973:996   */\n  sub\n    /* \"#utility.yul\":969:1001   */\n  slt\n    /* \"#utility.yul\":966:1085   */\n  iszero\n  tag_27\n  jumpi\n    /* \"#utility.yul\":1004:1083   */\n  tag_28\n  tag_8\n  jump\t// in\ntag_28:\n    /* \"#utility.yul\":966:1085   */\ntag_27:\n    /* \"#utility.yul\":1124:1125   */\n  0x00\n    /* \"#utility.yul\":1149:1213   */\n  tag_29\n    /* \"#utility.yul\":1205:1212   */\n  dup7\n    /* \"#utility.yul\":1196:1202   */\n  dup3\n    /* \"#utility.yul\":1185:1194   */\n  dup8\n    /* \"#utility.yul\":1181:1203   */\n  add\n    /* \"#utility.yul\":1149:1213   */\n  tag_13\n  jump\t// in\ntag_29:\n    /* \"#utility.yul\":1139:1213   */\n  swap4\n  pop\n    /* \"#utility.yul\":1095:1223   */\n  pop\n    /* \"#utility.yul\":1262:1264   */\n  0x20\n    /* \"#utility.yul\":1288:1352   */\n  tag_30\n    /* \"#utility.yul\":1344:1351   */\n  dup7\n    /* \"#utility.yul\":1335:1341   */\n  dup3\n    /* \"#utility.yul\":1324:1333   */\n  dup8\n    /* \"#utility.yul\":1320:1342   */\n  add\n    /* \"#utility.yul\":1288:1352   */\n  tag_13\n  jump\t// in\ntag_30:\n    /* \"#utility.yul\":1278:1352   */\n  swap3\n  pop\n    /* \"#utility.yul\":1233:1362   */\n  pop\n    /* \"#utility.yul\":1401:1403   */\n  0x40\n    /* \"#utility.yul\":1427:1491   */\n  tag_31\n    /* \"#utility.yul\":1483:1490   */\n  dup7\n    /* \"#utility.yul\":1474:1480   */\n  dup3\n    /* \"#utility.yul\":1463:1472   */\n  dup8\n    /* \"#utility.yul\":1459:1481   */\n  add\n    /* \"#utility.yul\":1427:1491   */\n  tag_13\n  jump\t// in\ntag_31:\n    /* \"#utility.yul\":1417:1491   */\n  swap2\n  pop\n    /* \"#utility.yul\":1372:1501   */\n  pop\n    /* \"#utility.yul\":845:1508   */\n  swap3\n  pop\n  swap3\n  pop\n  swap3\n  jump\t// out\n    /* \"contracts/assessment/IndividualClaims.sol\":311:2866  contract IndividualClaims is IIndividualClaims{... */\ntag_6:\n  mload(0x80)\n  mload(0xa0)\n  codecopy(0x00, dataOffset(sub_0), dataSize(sub_0))\n  0x00\n  assignImmutable(\"0x8c18210df0d9514f2d2e5d8ca7c100978219ee80d3968ad850ab5ead208287b3\")\n  0x00\n  assignImmutable(\"0x60750e84e711126719e0768062cd3784906b181c157d8590d52843dc3c91240f\")\n  return(0x00, dataSize(sub_0))\nstop\n\nsub_0: assembly {\n        /* \"contracts/assessment/IndividualClaims.sol\":311:2866  contract IndividualClaims is IIndividualClaims{... */\n      mstore(0x40, 0x80)\n      jumpi(tag_1, lt(calldatasize, 0x04))\n      shr(0xe0, calldataload(0x00))\n      dup1\n      0xa888c2cd\n      gt\n      tag_9\n      jumpi\n      dup1\n      0xa888c2cd\n      eq\n      tag_5\n      jumpi\n      dup1\n      0xb2e7d7ae\n      eq\n      tag_6\n      jumpi\n      dup1\n      0xcaf30869\n      eq\n      tag_7\n      jumpi\n      dup1\n      0xee97f7f3\n      eq\n      tag_8\n      jumpi\n      jump(tag_1)\n    tag_9:\n      dup1\n      0x42e53fcf\n      eq\n      tag_2\n      jumpi\n      dup1\n      0x72c3c31e\n      eq\n      tag_3\n      jumpi\n      dup1\n      0x8b79b22d\n      eq\n      tag_4\n      jumpi\n    tag_1:\n      0x00\n      dup1\n      revert\n        /* \"contracts/assessment/IndividualClaims.sol\":400:435  ICoverNFT public immutable coverNFT */\n    tag_2:\n      callvalue\n      dup1\n      iszero\n      tag_10\n      jumpi\n      0x00\n      dup1\n      revert\n    tag_10:\n      pop\n      tag_11\n      tag_12\n      jump\t// in\n    tag_11:\n      mload(0x40)\n      tag_13\n      swap2\n      swap1\n      tag_14\n      jump\t// in\n    tag_13:\n      mload(0x40)\n      dup1\n      swap2\n      sub\n      swap1\n      return\n        /* \"contracts/assessment/IndividualClaims.sol\":1956:2524  function redeemClaimPayout(uint coverId) external override {... */\n    tag_3:\n      callvalue\n      dup1\n      iszero\n      tag_15\n      jumpi\n      0x00\n      dup1\n      revert\n    tag_15:\n      pop\n      tag_16\n      0x04\n      dup1\n      calldatasize\n      sub\n      dup2\n      add\n      swap1\n      tag_17\n      swap2\n      swap1\n      tag_18\n      jump\t// in\n    tag_17:\n      tag_19\n      jump\t// in\n    tag_16:\n      stop\n        /* \"contracts/assessment/IndividualClaims.sol\":497:563  mapping(uint => ClaimSubmission) public lastClaimSubmissionOnCover */\n    tag_4:\n      callvalue\n      dup1\n      iszero\n      tag_20\n      jumpi\n      0x00\n      dup1\n      revert\n    tag_20:\n      pop\n      tag_21\n      0x04\n      dup1\n      calldatasize\n      sub\n      dup2\n      add\n      swap1\n      tag_22\n      swap2\n      swap1\n      tag_18\n      jump\t// in\n    tag_22:\n      tag_23\n      jump\t// in\n    tag_21:\n      mload(0x40)\n      tag_24\n      swap3\n      swap2\n      swap1\n      tag_25\n      jump\t// in\n    tag_24:\n      mload(0x40)\n      dup1\n      swap2\n      sub\n      swap1\n      return\n        /* \"contracts/assessment/IndividualClaims.sol\":469:491  Claim[] public  claims */\n    tag_5:\n      callvalue\n      dup1\n      iszero\n      tag_26\n      jumpi\n      0x00\n      dup1\n      revert\n    tag_26:\n      pop\n      tag_27\n      0x04\n      dup1\n      calldatasize\n      sub\n      dup2\n      add\n      swap1\n      tag_28\n      swap2\n      swap1\n      tag_18\n      jump\t// in\n    tag_28:\n      tag_29\n      jump\t// in\n    tag_27:\n      mload(0x40)\n      tag_30\n      swap4\n      swap3\n      swap2\n      swap1\n      tag_31\n      jump\t// in\n    tag_30:\n      mload(0x40)\n      dup1\n      swap2\n      sub\n      swap1\n      return\n        /* \"contracts/assessment/IndividualClaims.sol\":363:394  HEDHToken public immutable hedh */\n    tag_6:\n      callvalue\n      dup1\n      iszero\n      tag_32\n      jumpi\n      0x00\n      dup1\n      revert\n    tag_32:\n      pop\n      tag_33\n      tag_34\n      jump\t// in\n    tag_33:\n      mload(0x40)\n      tag_35\n      swap2\n      swap1\n      tag_36\n      jump\t// in\n    tag_35:\n      mload(0x40)\n      dup1\n      swap2\n      sub\n      swap1\n      return\n        /* \"contracts/assessment/IndividualClaims.sol\":785:1282  function submitClaim(... */\n    tag_7:\n      tag_37\n      0x04\n      dup1\n      calldatasize\n      sub\n      dup2\n      add\n      swap1\n      tag_38\n      swap2\n      swap1\n      tag_39\n      jump\t// in\n    tag_38:\n      tag_40\n      jump\t// in\n    tag_37:\n      mload(0x40)\n      tag_41\n      swap2\n      swap1\n      tag_42\n      jump\t// in\n    tag_41:\n      mload(0x40)\n      dup1\n      swap2\n      sub\n      swap1\n      return\n        /* \"contracts/assessment/IndividualClaims.sol\":443:463  Master public master */\n    tag_8:\n      callvalue\n      dup1\n      iszero\n      tag_43\n      jumpi\n      0x00\n      dup1\n      revert\n    tag_43:\n      pop\n      tag_44\n      tag_45\n      jump\t// in\n    tag_44:\n      mload(0x40)\n      tag_46\n      swap2\n      swap1\n      tag_47\n      jump\t// in\n    tag_46:\n      mload(0x40)\n      dup1\n      swap2\n      sub\n      swap1\n      return\n        /* \"contracts/assessment/IndividualClaims.sol\":400:435  ICoverNFT public immutable coverNFT */\n    tag_12:\n      immutable(\"0x8c18210df0d9514f2d2e5d8ca7c100978219ee80d3968ad850ab5ead208287b3\")\n      dup2\n      jump\t// out\n        /* \"contracts/assessment/IndividualClaims.sol\":1956:2524  function redeemClaimPayout(uint coverId) external override {... */\n    tag_19:\n        /* \"contracts/assessment/IndividualClaims.sol\":2025:2037  uint claimId */\n      0x00\n        /* \"contracts/assessment/IndividualClaims.sol\":2040:2066  lastClaimSubmissionOnCover */\n      0x02\n        /* \"contracts/assessment/IndividualClaims.sol\":2040:2075  lastClaimSubmissionOnCover[coverId] */\n      0x00\n        /* \"contracts/assessment/IndividualClaims.sol\":2067:2074  coverId */\n      dup4\n        /* \"contracts/assessment/IndividualClaims.sol\":2040:2075  lastClaimSubmissionOnCover[coverId] */\n      dup2\n      mstore\n      0x20\n      add\n      swap1\n      dup2\n      mstore\n      0x20\n      add\n      0x00\n      keccak256\n        /* \"contracts/assessment/IndividualClaims.sol\":2040:2083  lastClaimSubmissionOnCover[coverId].claimId */\n      0x00\n      add\n      sload\n        /* \"contracts/assessment/IndividualClaims.sol\":2025:2083  uint claimId = lastClaimSubmissionOnCover[coverId].claimId */\n      swap1\n      pop\n        /* \"contracts/assessment/IndividualClaims.sol\":2093:2111  Claim memory claim */\n      0x00\n        /* \"contracts/assessment/IndividualClaims.sol\":2114:2120  claims */\n      0x01\n        /* \"contracts/assessment/IndividualClaims.sol\":2121:2128  claimId */\n      dup3\n        /* \"contracts/assessment/IndividualClaims.sol\":2114:2129  claims[claimId] */\n      dup2\n      sload\n      dup2\n      lt\n      tag_49\n      jumpi\n      tag_50\n      tag_51\n      jump\t// in\n    tag_50:\n    tag_49:\n      swap1\n      0x00\n      mstore\n      keccak256(0x00, 0x20)\n      swap1\n      0x02\n      mul\n      add\n        /* \"contracts/assessment/IndividualClaims.sol\":2093:2129  Claim memory claim = claims[claimId] */\n      mload(0x40)\n      dup1\n      0x60\n      add\n      0x40\n      mstore\n      swap1\n      dup2\n      0x00\n      dup3\n      add\n      sload\n      dup2\n      mstore\n      0x20\n      add\n      0x01\n      dup3\n      add\n      0x00\n      swap1\n      sload\n      swap1\n      0x0100\n      exp\n      swap1\n      div\n      0xffffffffffffffffffffffffffffffffffffffff\n      and\n      0xffffffffffffffffffffffffffffffffffffffff\n      and\n      0xffffffffffffffffffffffffffffffffffffffff\n      and\n      dup2\n      mstore\n      0x20\n      add\n      0x01\n      dup3\n      add\n      0x14\n      swap1\n      sload\n      swap1\n      0x0100\n      exp\n      swap1\n      div\n      0xff\n      and\n      iszero\n      iszero\n      iszero\n      iszero\n      dup2\n      mstore\n      pop\n      pop\n      swap1\n      pop\n        /* \"contracts/assessment/IndividualClaims.sol\":2148:2153  claim */\n      dup1\n        /* \"contracts/assessment/IndividualClaims.sol\":2148:2168  claim.payoutRedeemed */\n      0x40\n      add\n      mload\n        /* \"contracts/assessment/IndividualClaims.sol\":2147:2168  !claim.payoutRedeemed */\n      iszero\n        /* \"contracts/assessment/IndividualClaims.sol\":2139:2205  require(!claim.payoutRedeemed, \"Payout has already been redeemed\") */\n      tag_53\n      jumpi\n      mload(0x40)\n      0x08c379a000000000000000000000000000000000000000000000000000000000\n      dup2\n      mstore\n      0x04\n      add\n      tag_54\n      swap1\n      tag_55\n      jump\t// in\n    tag_54:\n      mload(0x40)\n      dup1\n      swap2\n      sub\n      swap1\n      revert\n    tag_53:\n        /* \"contracts/assessment/IndividualClaims.sol\":2215:2233  IPool poolContract */\n      0x00\n        /* \"contracts/assessment/IndividualClaims.sol\":2236:2242  pool() */\n      tag_56\n        /* \"contracts/assessment/IndividualClaims.sol\":2236:2240  pool */\n      tag_57\n        /* \"contracts/assessment/IndividualClaims.sol\":2236:2242  pool() */\n      jump\t// in\n    tag_56:\n        /* \"contracts/assessment/IndividualClaims.sol\":2215:2242  IPool poolContract = pool() */\n      swap1\n      pop\n        /* \"contracts/assessment/IndividualClaims.sol\":2252:2270  IAssessment assess */\n      0x00\n        /* \"contracts/assessment/IndividualClaims.sol\":2273:2285  assessment() */\n      tag_58\n        /* \"contracts/assessment/IndividualClaims.sol\":2273:2283  assessment */\n      tag_59\n        /* \"contracts/assessment/IndividualClaims.sol\":2273:2285  assessment() */\n      jump\t// in\n    tag_58:\n        /* \"contracts/assessment/IndividualClaims.sol\":2252:2285  IAssessment assess = assessment() */\n      swap1\n      pop\n        /* \"contracts/assessment/IndividualClaims.sol\":2295:2307  ICover cover */\n      0x00\n        /* \"contracts/assessment/IndividualClaims.sol\":2310:2317  cover() */\n      tag_60\n        /* \"contracts/assessment/IndividualClaims.sol\":2310:2315  cover */\n      tag_61\n        /* \"contracts/assessment/IndividualClaims.sol\":2310:2317  cover() */\n      jump\t// in\n    tag_60:\n        /* \"contracts/assessment/IndividualClaims.sol\":2295:2317  ICover cover = cover() */\n      swap1\n      pop\n        /* \"contracts/assessment/IndividualClaims.sol\":2327:2339  poolContract */\n      dup3\n        /* \"contracts/assessment/IndividualClaims.sol\":2327:2350  poolContract.sendPayout */\n      0xffffffffffffffffffffffffffffffffffffffff\n      and\n      0xcf8d133f\n        /* \"contracts/assessment/IndividualClaims.sol\":2373:2378  claim */\n      dup6\n        /* \"contracts/assessment/IndividualClaims.sol\":2373:2389  claim.coverOwner */\n      0x20\n      add\n      mload\n        /* \"contracts/assessment/IndividualClaims.sol\":2404:2410  assess */\n      dup5\n        /* \"contracts/assessment/IndividualClaims.sol\":2404:2425  assess.calculateCover */\n      0xffffffffffffffffffffffffffffffffffffffff\n      and\n      0xbc12dfc4\n        /* \"contracts/assessment/IndividualClaims.sol\":2426:2431  cover */\n      dup6\n        /* \"contracts/assessment/IndividualClaims.sol\":2426:2444  cover.getCoverData */\n      0xffffffffffffffffffffffffffffffffffffffff\n      and\n      0x407d2a\n        /* \"contracts/assessment/IndividualClaims.sol\":2445:2450  claim */\n      dup11\n        /* \"contracts/assessment/IndividualClaims.sol\":2445:2458  claim.coverId */\n      0x00\n      add\n      mload\n        /* \"contracts/assessment/IndividualClaims.sol\":2426:2459  cover.getCoverData(claim.coverId) */\n      mload(0x40)\n      dup3\n      0xffffffff\n      and\n      0xe0\n      shl\n      dup2\n      mstore\n      0x04\n      add\n      tag_62\n      swap2\n      swap1\n      tag_63\n      jump\t// in\n    tag_62:\n      0x00\n      mload(0x40)\n      dup1\n      dup4\n      sub\n      dup2\n      dup7\n      gas\n      staticcall\n      iszero\n      dup1\n      iszero\n      tag_65\n      jumpi\n      returndatasize\n      0x00\n      dup1\n      returndatacopy\n      revert(0x00, returndatasize)\n    tag_65:\n      pop\n      pop\n      pop\n      pop\n      mload(0x40)\n      returndatasize\n      0x00\n      dup3\n      returndatacopy\n      returndatasize\n      not(0x1f)\n      0x1f\n      dup3\n      add\n      and\n      dup3\n      add\n      dup1\n      0x40\n      mstore\n      pop\n      dup2\n      add\n      swap1\n      tag_66\n      swap2\n      swap1\n      tag_67\n      jump\t// in\n    tag_66:\n        /* \"contracts/assessment/IndividualClaims.sol\":2404:2460  assess.calculateCover(cover.getCoverData(claim.coverId)) */\n      mload(0x40)\n      dup3\n      0xffffffff\n      and\n      0xe0\n      shl\n      dup2\n      mstore\n      0x04\n      add\n      tag_68\n      swap2\n      swap1\n      tag_69\n      jump\t// in\n    tag_68:\n      0x20\n      mload(0x40)\n      dup1\n      dup4\n      sub\n      dup2\n      0x00\n      dup8\n      gas\n      call\n      iszero\n      dup1\n      iszero\n      tag_71\n      jumpi\n      returndatasize\n      0x00\n      dup1\n      returndatacopy\n      revert(0x00, returndatasize)\n    tag_71:\n      pop\n      pop\n      pop\n      pop\n      mload(0x40)\n      returndatasize\n      not(0x1f)\n      0x1f\n      dup3\n      add\n      and\n      dup3\n      add\n      dup1\n      0x40\n      mstore\n      pop\n      dup2\n      add\n      swap1\n      tag_72\n      swap2\n      swap1\n      tag_73\n      jump\t// in\n    tag_72:\n        /* \"contracts/assessment/IndividualClaims.sol\":2327:2470  poolContract.sendPayout(... */\n      mload(0x40)\n      dup4\n      0xffffffff\n      and\n      0xe0\n      shl\n      dup2\n      mstore\n      0x04\n      add\n      tag_74\n      swap3\n      swap2\n      swap1\n      tag_75\n      jump\t// in\n    tag_74:\n      0x00\n      mload(0x40)\n      dup1\n      dup4\n      sub\n      dup2\n      0x00\n      dup8\n      dup1\n      extcodesize\n      iszero\n      dup1\n      iszero\n      tag_76\n      jumpi\n      0x00\n      dup1\n      revert\n    tag_76:\n      pop\n      gas\n      call\n      iszero\n      dup1\n      iszero\n      tag_78\n      jumpi\n      returndatasize\n      0x00\n      dup1\n      returndatacopy\n      revert(0x00, returndatasize)\n    tag_78:\n      pop\n      pop\n      pop\n      pop\n        /* \"contracts/assessment/IndividualClaims.sol\":2513:2517  true */\n      0x01\n        /* \"contracts/assessment/IndividualClaims.sol\":2480:2486  claims */\n      dup1\n        /* \"contracts/assessment/IndividualClaims.sol\":2487:2494  claimId */\n      dup7\n        /* \"contracts/assessment/IndividualClaims.sol\":2480:2495  claims[claimId] */\n      dup2\n      sload\n      dup2\n      lt\n      tag_79\n      jumpi\n      tag_80\n      tag_51\n      jump\t// in\n    tag_80:\n    tag_79:\n      swap1\n      0x00\n      mstore\n      keccak256(0x00, 0x20)\n      swap1\n      0x02\n      mul\n      add\n        /* \"contracts/assessment/IndividualClaims.sol\":2480:2510  claims[claimId].payoutRedeemed */\n      0x01\n      add\n      0x14\n        /* \"contracts/assessment/IndividualClaims.sol\":2480:2517  claims[claimId].payoutRedeemed = true */\n      0x0100\n      exp\n      dup2\n      sload\n      dup2\n      0xff\n      mul\n      not\n      and\n      swap1\n      dup4\n      iszero\n      iszero\n      mul\n      or\n      swap1\n      sstore\n      pop\n        /* \"contracts/assessment/IndividualClaims.sol\":2015:2524  {... */\n      pop\n      pop\n      pop\n      pop\n      pop\n        /* \"contracts/assessment/IndividualClaims.sol\":1956:2524  function redeemClaimPayout(uint coverId) external override {... */\n      pop\n      jump\t// out\n        /* \"contracts/assessment/IndividualClaims.sol\":497:563  mapping(uint => ClaimSubmission) public lastClaimSubmissionOnCover */\n    tag_23:\n      mstore(0x20, 0x02)\n      dup1\n      0x00\n      mstore\n      keccak256(0x00, 0x40)\n      0x00\n      swap2\n      pop\n      swap1\n      pop\n      dup1\n      0x00\n      add\n      sload\n      swap1\n      dup1\n      0x01\n      add\n      0x00\n      swap1\n      sload\n      swap1\n      0x0100\n      exp\n      swap1\n      div\n      0xff\n      and\n      swap1\n      pop\n      dup3\n      jump\t// out\n        /* \"contracts/assessment/IndividualClaims.sol\":469:491  Claim[] public  claims */\n    tag_29:\n      0x01\n      dup2\n      dup2\n      sload\n      dup2\n      lt\n      tag_82\n      jumpi\n      0x00\n      dup1\n      revert\n    tag_82:\n      swap1\n      0x00\n      mstore\n      keccak256(0x00, 0x20)\n      swap1\n      0x02\n      mul\n      add\n      0x00\n      swap2\n      pop\n      swap1\n      pop\n      dup1\n      0x00\n      add\n      sload\n      swap1\n      dup1\n      0x01\n      add\n      0x00\n      swap1\n      sload\n      swap1\n      0x0100\n      exp\n      swap1\n      div\n      0xffffffffffffffffffffffffffffffffffffffff\n      and\n      swap1\n      dup1\n      0x01\n      add\n      0x14\n      swap1\n      sload\n      swap1\n      0x0100\n      exp\n      swap1\n      div\n      0xff\n      and\n      swap1\n      pop\n      dup4\n      jump\t// out\n        /* \"contracts/assessment/IndividualClaims.sol\":363:394  HEDHToken public immutable hedh */\n    tag_34:\n      immutable(\"0x60750e84e711126719e0768062cd3784906b181c157d8590d52843dc3c91240f\")\n      dup2\n      jump\t// out\n        /* \"contracts/assessment/IndividualClaims.sol\":785:1282  function submitClaim(... */\n    tag_40:\n        /* \"contracts/assessment/IndividualClaims.sol\":863:881  Claim memory claim */\n      tag_84\n      tag_85\n      jump\t// in\n    tag_84:\n        /* \"contracts/assessment/IndividualClaims.sol\":893:905  ICover cover */\n      0x00\n        /* \"contracts/assessment/IndividualClaims.sol\":908:915  cover() */\n      tag_87\n        /* \"contracts/assessment/IndividualClaims.sol\":908:913  cover */\n      tag_61\n        /* \"contracts/assessment/IndividualClaims.sol\":908:915  cover() */\n      jump\t// in\n    tag_87:\n        /* \"contracts/assessment/IndividualClaims.sol\":893:915  ICover cover = cover() */\n      swap1\n      pop\n        /* \"contracts/assessment/IndividualClaims.sol\":925:944  CoverData memory cd */\n      0x00\n        /* \"contracts/assessment/IndividualClaims.sol\":947:952  cover */\n      dup2\n        /* \"contracts/assessment/IndividualClaims.sol\":947:965  cover.getCoverData */\n      0xffffffffffffffffffffffffffffffffffffffff\n      and\n      0x407d2a\n        /* \"contracts/assessment/IndividualClaims.sol\":966:973  coverId */\n      dup6\n        /* \"contracts/assessment/IndividualClaims.sol\":947:974  cover.getCoverData(coverId) */\n      mload(0x40)\n      dup3\n      0xffffffff\n      and\n      0xe0\n      shl\n      dup2\n      mstore\n      0x04\n      add\n      tag_88\n      swap2\n      swap1\n      tag_89\n      jump\t// in\n    tag_88:\n      0x00\n      mload(0x40)\n      dup1\n      dup4\n      sub\n      dup2\n      dup7\n      gas\n      staticcall\n      iszero\n      dup1\n      iszero\n      tag_91\n      jumpi\n      returndatasize\n      0x00\n      dup1\n      returndatacopy\n      revert(0x00, returndatasize)\n    tag_91:\n      pop\n      pop\n      pop\n      pop\n      mload(0x40)\n      returndatasize\n      0x00\n      dup3\n      returndatacopy\n      returndatasize\n      not(0x1f)\n      0x1f\n      dup3\n      add\n      and\n      dup3\n      add\n      dup1\n      0x40\n      mstore\n      pop\n      dup2\n      add\n      swap1\n      tag_92\n      swap2\n      swap1\n      tag_67\n      jump\t// in\n    tag_92:\n        /* \"contracts/assessment/IndividualClaims.sol\":925:974  CoverData memory cd = cover.getCoverData(coverId) */\n      swap1\n      pop\n        /* \"contracts/assessment/IndividualClaims.sol\":1015:1030  block.timestamp */\n      timestamp\n        /* \"contracts/assessment/IndividualClaims.sol\":1002:1004  cd */\n      dup2\n        /* \"contracts/assessment/IndividualClaims.sol\":1002:1010  cd.start */\n      0x40\n      add\n      mload\n        /* \"contracts/assessment/IndividualClaims.sol\":992:994  cd */\n      dup3\n        /* \"contracts/assessment/IndividualClaims.sol\":992:1001  cd.period */\n      0x60\n      add\n      mload\n        /* \"contracts/assessment/IndividualClaims.sol\":992:1010  cd.period+cd.start */\n      tag_93\n      swap2\n      swap1\n      tag_94\n      jump\t// in\n    tag_93:\n        /* \"contracts/assessment/IndividualClaims.sol\":992:1030  cd.period+cd.start <=  block.timestamp */\n      gt\n      iszero\n        /* \"contracts/assessment/IndividualClaims.sol\":984:1064  require(cd.period+cd.start <=  block.timestamp,\"Only submit claim after expiry\") */\n      tag_95\n      jumpi\n      mload(0x40)\n      0x08c379a000000000000000000000000000000000000000000000000000000000\n      dup2\n      mstore\n      0x04\n      add\n      tag_96\n      swap1\n      tag_97\n      jump\t// in\n    tag_96:\n      mload(0x40)\n      dup1\n      swap2\n      sub\n      swap1\n      revert\n    tag_95:\n        /* \"contracts/assessment/IndividualClaims.sol\":1092:1100  coverNFT */\n      immutable(\"0x8c18210df0d9514f2d2e5d8ca7c100978219ee80d3968ad850ab5ead208287b3\")\n        /* \"contracts/assessment/IndividualClaims.sol\":1092:1118  coverNFT.isApprovedOrOwner */\n      0xffffffffffffffffffffffffffffffffffffffff\n      and\n      0x430c2081\n        /* \"contracts/assessment/IndividualClaims.sol\":1119:1129  msg.sender */\n      caller\n        /* \"contracts/assessment/IndividualClaims.sol\":1131:1138  coverId */\n      dup7\n        /* \"contracts/assessment/IndividualClaims.sol\":1092:1139  coverNFT.isApprovedOrOwner(msg.sender, coverId) */\n      mload(0x40)\n      dup4\n      0xffffffff\n      and\n      0xe0\n      shl\n      dup2\n      mstore\n      0x04\n      add\n      tag_98\n      swap3\n      swap2\n      swap1\n      tag_99\n      jump\t// in\n    tag_98:\n      0x20\n      mload(0x40)\n      dup1\n      dup4\n      sub\n      dup2\n      0x00\n      dup8\n      gas\n      call\n      iszero\n      dup1\n      iszero\n      tag_101\n      jumpi\n      returndatasize\n      0x00\n      dup1\n      returndatacopy\n      revert(0x00, returndatasize)\n    tag_101:\n      pop\n      pop\n      pop\n      pop\n      mload(0x40)\n      returndatasize\n      not(0x1f)\n      0x1f\n      dup3\n      add\n      and\n      dup3\n      add\n      dup1\n      0x40\n      mstore\n      pop\n      dup2\n      add\n      swap1\n      tag_102\n      swap2\n      swap1\n      tag_103\n      jump\t// in\n    tag_102:\n        /* \"contracts/assessment/IndividualClaims.sol\":1075:1216  require(... */\n      tag_104\n      jumpi\n      mload(0x40)\n      0x08c379a000000000000000000000000000000000000000000000000000000000\n      dup2\n      mstore\n      0x04\n      add\n      tag_105\n      swap1\n      tag_106\n      jump\t// in\n    tag_105:\n      mload(0x40)\n      dup1\n      swap2\n      sub\n      swap1\n      revert\n    tag_104:\n        /* \"contracts/assessment/IndividualClaims.sol\":1233:1266  _submitClaim(coverId, msg.sender) */\n      tag_107\n        /* \"contracts/assessment/IndividualClaims.sol\":1246:1253  coverId */\n      dup5\n        /* \"contracts/assessment/IndividualClaims.sol\":1233:1266  _submitClaim(coverId, msg.sender) */\n      0xffffffff\n      and\n        /* \"contracts/assessment/IndividualClaims.sol\":1255:1265  msg.sender */\n      caller\n        /* \"contracts/assessment/IndividualClaims.sol\":1233:1245  _submitClaim */\n      tag_108\n        /* \"contracts/assessment/IndividualClaims.sol\":1233:1266  _submitClaim(coverId, msg.sender) */\n      jump\t// in\n    tag_107:\n        /* \"contracts/assessment/IndividualClaims.sol\":1226:1266  return _submitClaim(coverId, msg.sender) */\n      swap3\n      pop\n      pop\n      pop\n        /* \"contracts/assessment/IndividualClaims.sol\":785:1282  function submitClaim(... */\n      swap2\n      swap1\n      pop\n      jump\t// out\n        /* \"contracts/assessment/IndividualClaims.sol\":443:463  Master public master */\n    tag_45:\n      0x00\n      dup1\n      sload\n      swap1\n      0x0100\n      exp\n      swap1\n      div\n      0xffffffffffffffffffffffffffffffffffffffff\n      and\n      dup2\n      jump\t// out\n        /* \"contracts/assessment/IndividualClaims.sol\":2637:2734  function pool() internal view returns (IPool) {... */\n    tag_57:\n        /* \"contracts/assessment/IndividualClaims.sol\":2676:2681  IPool */\n      0x00\n        /* \"contracts/assessment/IndividualClaims.sol\":2706:2712  master */\n      dup1\n      0x00\n      swap1\n      sload\n      swap1\n      0x0100\n      exp\n      swap1\n      div\n      0xffffffffffffffffffffffffffffffffffffffff\n      and\n        /* \"contracts/assessment/IndividualClaims.sol\":2706:2724  master.PoolAddress */\n      0xffffffffffffffffffffffffffffffffffffffff\n      and\n      0x9ccc903d\n        /* \"contracts/assessment/IndividualClaims.sol\":2706:2726  master.PoolAddress() */\n      mload(0x40)\n      dup2\n      0xffffffff\n      and\n      0xe0\n      shl\n      dup2\n      mstore\n      0x04\n      add\n      0x20\n      mload(0x40)\n      dup1\n      dup4\n      sub\n      dup2\n      dup7\n      gas\n      staticcall\n      iszero\n      dup1\n      iszero\n      tag_111\n      jumpi\n      returndatasize\n      0x00\n      dup1\n      returndatacopy\n      revert(0x00, returndatasize)\n    tag_111:\n      pop\n      pop\n      pop\n      pop\n      mload(0x40)\n      returndatasize\n      not(0x1f)\n      0x1f\n      dup3\n      add\n      and\n      dup3\n      add\n      dup1\n      0x40\n      mstore\n      pop\n      dup2\n      add\n      swap1\n      tag_112\n      swap2\n      swap1\n      tag_113\n      jump\t// in\n    tag_112:\n        /* \"contracts/assessment/IndividualClaims.sol\":2693:2727  return IPool(master.PoolAddress()) */\n      swap1\n      pop\n        /* \"contracts/assessment/IndividualClaims.sol\":2637:2734  function pool() internal view returns (IPool) {... */\n      swap1\n      jump\t// out\n        /* \"contracts/assessment/IndividualClaims.sol\":2740:2861  function assessment() internal view returns (IAssessment) {... */\n    tag_59:\n        /* \"contracts/assessment/IndividualClaims.sol\":2785:2796  IAssessment */\n      0x00\n        /* \"contracts/assessment/IndividualClaims.sol\":2827:2833  master */\n      dup1\n      0x00\n      swap1\n      sload\n      swap1\n      0x0100\n      exp\n      swap1\n      div\n      0xffffffffffffffffffffffffffffffffffffffff\n      and\n        /* \"contracts/assessment/IndividualClaims.sol\":2827:2851  master.AssessmentAddress */\n      0xffffffffffffffffffffffffffffffffffffffff\n      and\n      0xff5f1b9f\n        /* \"contracts/assessment/IndividualClaims.sol\":2827:2853  master.AssessmentAddress() */\n      mload(0x40)\n      dup2\n      0xffffffff\n      and\n      0xe0\n      shl\n      dup2\n      mstore\n      0x04\n      add\n      0x20\n      mload(0x40)\n      dup1\n      dup4\n      sub\n      dup2\n      dup7\n      gas\n      staticcall\n      iszero\n      dup1\n      iszero\n      tag_116\n      jumpi\n      returndatasize\n      0x00\n      dup1\n      returndatacopy\n      revert(0x00, returndatasize)\n    tag_116:\n      pop\n      pop\n      pop\n      pop\n      mload(0x40)\n      returndatasize\n      not(0x1f)\n      0x1f\n      dup3\n      add\n      and\n      dup3\n      add\n      dup1\n      0x40\n      mstore\n      pop\n      dup2\n      add\n      swap1\n      tag_117\n      swap2\n      swap1\n      tag_113\n      jump\t// in\n    tag_117:\n        /* \"contracts/assessment/IndividualClaims.sol\":2808:2854  return IAssessment(master.AssessmentAddress()) */\n      swap1\n      pop\n        /* \"contracts/assessment/IndividualClaims.sol\":2740:2861  function assessment() internal view returns (IAssessment) {... */\n      swap1\n      jump\t// out\n        /* \"contracts/assessment/IndividualClaims.sol\":2534:2631  function cover() internal view returns (ICover) {... */\n    tag_61:\n        /* \"contracts/assessment/IndividualClaims.sol\":2574:2580  ICover */\n      0x00\n        /* \"contracts/assessment/IndividualClaims.sol\":2602:2608  master */\n      dup1\n      0x00\n      swap1\n      sload\n      swap1\n      0x0100\n      exp\n      swap1\n      div\n      0xffffffffffffffffffffffffffffffffffffffff\n      and\n        /* \"contracts/assessment/IndividualClaims.sol\":2602:2621  master.CoverAddress */\n      0xffffffffffffffffffffffffffffffffffffffff\n      and\n      0xe67cdafd\n        /* \"contracts/assessment/IndividualClaims.sol\":2602:2623  master.CoverAddress() */\n      mload(0x40)\n      dup2\n      0xffffffff\n      and\n      0xe0\n      shl\n      dup2\n      mstore\n      0x04\n      add\n      0x20\n      mload(0x40)\n      dup1\n      dup4\n      sub\n      dup2\n      dup7\n      gas\n      staticcall\n      iszero\n      dup1\n      iszero\n      tag_120\n      jumpi\n      returndatasize\n      0x00\n      dup1\n      returndatacopy\n      revert(0x00, returndatasize)\n    tag_120:\n      pop\n      pop\n      pop\n      pop\n      mload(0x40)\n      returndatasize\n      not(0x1f)\n      0x1f\n      dup3\n      add\n      and\n      dup3\n      add\n      dup1\n      0x40\n      mstore\n      pop\n      dup2\n      add\n      swap1\n      tag_121\n      swap2\n      swap1\n      tag_113\n      jump\t// in\n    tag_121:\n        /* \"contracts/assessment/IndividualClaims.sol\":2588:2624  return ICover(master.CoverAddress()) */\n      swap1\n      pop\n        /* \"contracts/assessment/IndividualClaims.sol\":2534:2631  function cover() internal view returns (ICover) {... */\n      swap1\n      jump\t// out\n        /* \"contracts/assessment/IndividualClaims.sol\":1292:1950  function _submitClaim(uint coverId, address owner ) internal  returns (Claim memory) {... */\n    tag_108:\n        /* \"contracts/assessment/IndividualClaims.sol\":1363:1375  Claim memory */\n      tag_122\n      tag_85\n      jump\t// in\n    tag_122:\n        /* \"contracts/assessment/IndividualClaims.sol\":1387:1428  ClaimSubmission memory previousSubmission */\n      0x00\n        /* \"contracts/assessment/IndividualClaims.sol\":1431:1457  lastClaimSubmissionOnCover */\n      0x02\n        /* \"contracts/assessment/IndividualClaims.sol\":1431:1466  lastClaimSubmissionOnCover[coverId] */\n      0x00\n        /* \"contracts/assessment/IndividualClaims.sol\":1458:1465  coverId */\n      dup6\n        /* \"contracts/assessment/IndividualClaims.sol\":1431:1466  lastClaimSubmissionOnCover[coverId] */\n      dup2\n      mstore\n      0x20\n      add\n      swap1\n      dup2\n      mstore\n      0x20\n      add\n      0x00\n      keccak256\n        /* \"contracts/assessment/IndividualClaims.sol\":1387:1466  ClaimSubmission memory previousSubmission = lastClaimSubmissionOnCover[coverId] */\n      mload(0x40)\n      dup1\n      0x40\n      add\n      0x40\n      mstore\n      swap1\n      dup2\n      0x00\n      dup3\n      add\n      sload\n      dup2\n      mstore\n      0x20\n      add\n      0x01\n      dup3\n      add\n      0x00\n      swap1\n      sload\n      swap1\n      0x0100\n      exp\n      swap1\n      div\n      0xff\n      and\n      iszero\n      iszero\n      iszero\n      iszero\n      dup2\n      mstore\n      pop\n      pop\n      swap1\n      pop\n        /* \"contracts/assessment/IndividualClaims.sol\":1481:1499  previousSubmission */\n      dup1\n        /* \"contracts/assessment/IndividualClaims.sol\":1481:1506  previousSubmission.exists */\n      0x20\n      add\n      mload\n        /* \"contracts/assessment/IndividualClaims.sol\":1477:1565  if (previousSubmission.exists) {... */\n      iszero\n      tag_124\n      jumpi\n        /* \"contracts/assessment/IndividualClaims.sol\":1522:1554  revert(\"A payout already exist\") */\n      mload(0x40)\n      0x08c379a000000000000000000000000000000000000000000000000000000000\n      dup2\n      mstore\n      0x04\n      add\n      tag_125\n      swap1\n      tag_126\n      jump\t// in\n    tag_125:\n      mload(0x40)\n      dup1\n      swap2\n      sub\n      swap1\n      revert\n        /* \"contracts/assessment/IndividualClaims.sol\":1477:1565  if (previousSubmission.exists) {... */\n    tag_124:\n        /* \"contracts/assessment/IndividualClaims.sol\":1612:1654  ClaimSubmission(uint(claims.length), true) */\n      mload(0x40)\n      dup1\n      0x40\n      add\n      0x40\n      mstore\n      dup1\n        /* \"contracts/assessment/IndividualClaims.sol\":1633:1639  claims */\n      0x01\n        /* \"contracts/assessment/IndividualClaims.sol\":1633:1646  claims.length */\n      dup1\n      sload\n      swap1\n      pop\n        /* \"contracts/assessment/IndividualClaims.sol\":1612:1654  ClaimSubmission(uint(claims.length), true) */\n      dup2\n      mstore\n      0x20\n      add\n        /* \"contracts/assessment/IndividualClaims.sol\":1649:1653  true */\n      0x01\n        /* \"contracts/assessment/IndividualClaims.sol\":1612:1654  ClaimSubmission(uint(claims.length), true) */\n      iszero\n      iszero\n      dup2\n      mstore\n      pop\n        /* \"contracts/assessment/IndividualClaims.sol\":1574:1600  lastClaimSubmissionOnCover */\n      0x02\n        /* \"contracts/assessment/IndividualClaims.sol\":1574:1609  lastClaimSubmissionOnCover[coverId] */\n      0x00\n        /* \"contracts/assessment/IndividualClaims.sol\":1601:1608  coverId */\n      dup7\n        /* \"contracts/assessment/IndividualClaims.sol\":1574:1609  lastClaimSubmissionOnCover[coverId] */\n      dup2\n      mstore\n      0x20\n      add\n      swap1\n      dup2\n      mstore\n      0x20\n      add\n      0x00\n      keccak256\n        /* \"contracts/assessment/IndividualClaims.sol\":1574:1654  lastClaimSubmissionOnCover[coverId] = ClaimSubmission(uint(claims.length), true) */\n      0x00\n      dup3\n      add\n      mload\n      dup2\n      0x00\n      add\n      sstore\n      0x20\n      dup3\n      add\n      mload\n      dup2\n      0x01\n      add\n      exp(0x0100, 0x00)\n      dup2\n      sload\n      dup2\n      0xff\n      mul\n      not\n      and\n      swap1\n      dup4\n      iszero\n      iszero\n      mul\n      or\n      swap1\n      sstore\n      pop\n      swap1\n      pop\n      pop\n        /* \"contracts/assessment/IndividualClaims.sol\":1666:1680  Claim memory c */\n      0x00\n        /* \"contracts/assessment/IndividualClaims.sol\":1683:1709  Claim(coverId,owner,false) */\n      mload(0x40)\n      dup1\n      0x60\n      add\n      0x40\n      mstore\n      dup1\n        /* \"contracts/assessment/IndividualClaims.sol\":1689:1696  coverId */\n      dup7\n        /* \"contracts/assessment/IndividualClaims.sol\":1683:1709  Claim(coverId,owner,false) */\n      dup2\n      mstore\n      0x20\n      add\n        /* \"contracts/assessment/IndividualClaims.sol\":1697:1702  owner */\n      dup6\n        /* \"contracts/assessment/IndividualClaims.sol\":1683:1709  Claim(coverId,owner,false) */\n      0xffffffffffffffffffffffffffffffffffffffff\n      and\n      dup2\n      mstore\n      0x20\n      add\n        /* \"contracts/assessment/IndividualClaims.sol\":1703:1708  false */\n      0x00\n        /* \"contracts/assessment/IndividualClaims.sol\":1683:1709  Claim(coverId,owner,false) */\n      iszero\n      iszero\n      dup2\n      mstore\n      pop\n        /* \"contracts/assessment/IndividualClaims.sol\":1666:1709  Claim memory c = Claim(coverId,owner,false) */\n      swap1\n      pop\n        /* \"contracts/assessment/IndividualClaims.sol\":1719:1725  claims */\n      0x01\n        /* \"contracts/assessment/IndividualClaims.sol\":1731:1732  c */\n      dup2\n        /* \"contracts/assessment/IndividualClaims.sol\":1719:1733  claims.push(c) */\n      swap1\n      dup1\n      0x01\n      dup2\n      sload\n      add\n      dup1\n      dup3\n      sstore\n      dup1\n      swap2\n      pop\n      pop\n      0x01\n      swap1\n      sub\n      swap1\n      0x00\n      mstore\n      keccak256(0x00, 0x20)\n      swap1\n      0x02\n      mul\n      add\n      0x00\n      swap1\n      swap2\n      swap1\n      swap2\n      swap1\n      swap2\n      pop\n      0x00\n      dup3\n      add\n      mload\n      dup2\n      0x00\n      add\n      sstore\n      0x20\n      dup3\n      add\n      mload\n      dup2\n      0x01\n      add\n      exp(0x0100, 0x00)\n      dup2\n      sload\n      dup2\n      0xffffffffffffffffffffffffffffffffffffffff\n      mul\n      not\n      and\n      swap1\n      dup4\n      0xffffffffffffffffffffffffffffffffffffffff\n      and\n      mul\n      or\n      swap1\n      sstore\n      pop\n      0x40\n      dup3\n      add\n      mload\n      dup2\n      0x01\n      add\n      exp(0x0100, 0x14)\n      dup2\n      sload\n      dup2\n      0xff\n      mul\n      not\n      and\n      swap1\n      dup4\n      iszero\n      iszero\n      mul\n      or\n      swap1\n      sstore\n      pop\n      pop\n      pop\n        /* \"contracts/assessment/IndividualClaims.sol\":1743:1755  ICover cover */\n      0x00\n        /* \"contracts/assessment/IndividualClaims.sol\":1758:1765  cover() */\n      tag_128\n        /* \"contracts/assessment/IndividualClaims.sol\":1758:1763  cover */\n      tag_61\n        /* \"contracts/assessment/IndividualClaims.sol\":1758:1765  cover() */\n      jump\t// in\n    tag_128:\n        /* \"contracts/assessment/IndividualClaims.sol\":1743:1765  ICover cover = cover() */\n      swap1\n      pop\n        /* \"contracts/assessment/IndividualClaims.sol\":1775:1780  cover */\n      dup1\n        /* \"contracts/assessment/IndividualClaims.sol\":1775:1800  cover.decActiveCoverInETH */\n      0xffffffffffffffffffffffffffffffffffffffff\n      and\n      0x4b61a44b\n        /* \"contracts/assessment/IndividualClaims.sol\":1801:1806  cover */\n      dup3\n        /* \"contracts/assessment/IndividualClaims.sol\":1801:1819  cover.getCoverData */\n      0xffffffffffffffffffffffffffffffffffffffff\n      and\n      0x407d2a\n        /* \"contracts/assessment/IndividualClaims.sol\":1820:1827  coverId */\n      dup10\n        /* \"contracts/assessment/IndividualClaims.sol\":1801:1828  cover.getCoverData(coverId) */\n      mload(0x40)\n      dup3\n      0xffffffff\n      and\n      0xe0\n      shl\n      dup2\n      mstore\n      0x04\n      add\n      tag_129\n      swap2\n      swap1\n      tag_63\n      jump\t// in\n    tag_129:\n      0x00\n      mload(0x40)\n      dup1\n      dup4\n      sub\n      dup2\n      dup7\n      gas\n      staticcall\n      iszero\n      dup1\n      iszero\n      tag_131\n      jumpi\n      returndatasize\n      0x00\n      dup1\n      returndatacopy\n      revert(0x00, returndatasize)\n    tag_131:\n      pop\n      pop\n      pop\n      pop\n      mload(0x40)\n      returndatasize\n      0x00\n      dup3\n      returndatacopy\n      returndatasize\n      not(0x1f)\n      0x1f\n      dup3\n      add\n      and\n      dup3\n      add\n      dup1\n      0x40\n      mstore\n      pop\n      dup2\n      add\n      swap1\n      tag_132\n      swap2\n      swap1\n      tag_67\n      jump\t// in\n    tag_132:\n        /* \"contracts/assessment/IndividualClaims.sol\":1801:1845  cover.getCoverData(coverId).totalClaimAmount */\n      0x20\n      add\n      mload\n        /* \"contracts/assessment/IndividualClaims.sol\":1775:1846  cover.decActiveCoverInETH(cover.getCoverData(coverId).totalClaimAmount) */\n      mload(0x40)\n      dup3\n      0xffffffff\n      and\n      0xe0\n      shl\n      dup2\n      mstore\n      0x04\n      add\n      tag_133\n      swap2\n      swap1\n      tag_63\n      jump\t// in\n    tag_133:\n      0x00\n      mload(0x40)\n      dup1\n      dup4\n      sub\n      dup2\n      0x00\n      dup8\n      dup1\n      extcodesize\n      iszero\n      dup1\n      iszero\n      tag_134\n      jumpi\n      0x00\n      dup1\n      revert\n    tag_134:\n      pop\n      gas\n      call\n      iszero\n      dup1\n      iszero\n      tag_136\n      jumpi\n      returndatasize\n      0x00\n      dup1\n      returndatacopy\n      revert(0x00, returndatasize)\n    tag_136:\n      pop\n      pop\n      pop\n      pop\n        /* \"contracts/assessment/IndividualClaims.sol\":1856:1864  IMCR mcr */\n      0x00\n        /* \"contracts/assessment/IndividualClaims.sol\":1872:1878  master */\n      dup1\n      0x00\n      swap1\n      sload\n      swap1\n      0x0100\n      exp\n      swap1\n      div\n      0xffffffffffffffffffffffffffffffffffffffff\n      and\n        /* \"contracts/assessment/IndividualClaims.sol\":1872:1889  master.MCRAddress */\n      0xffffffffffffffffffffffffffffffffffffffff\n      and\n      0x88ea0751\n        /* \"contracts/assessment/IndividualClaims.sol\":1872:1891  master.MCRAddress() */\n      mload(0x40)\n      dup2\n      0xffffffff\n      and\n      0xe0\n      shl\n      dup2\n      mstore\n      0x04\n      add\n      0x20\n      mload(0x40)\n      dup1\n      dup4\n      sub\n      dup2\n      dup7\n      gas\n      staticcall\n      iszero\n      dup1\n      iszero\n      tag_138\n      jumpi\n      returndatasize\n      0x00\n      dup1\n      returndatacopy\n      revert(0x00, returndatasize)\n    tag_138:\n      pop\n      pop\n      pop\n      pop\n      mload(0x40)\n      returndatasize\n      not(0x1f)\n      0x1f\n      dup3\n      add\n      and\n      dup3\n      add\n      dup1\n      0x40\n      mstore\n      pop\n      dup2\n      add\n      swap1\n      tag_139\n      swap2\n      swap1\n      tag_113\n      jump\t// in\n    tag_139:\n        /* \"contracts/assessment/IndividualClaims.sol\":1856:1892  IMCR mcr = IMCR(master.MCRAddress()) */\n      swap1\n      pop\n        /* \"contracts/assessment/IndividualClaims.sol\":1902:1905  mcr */\n      dup1\n        /* \"contracts/assessment/IndividualClaims.sol\":1902:1923  mcr.updateMCRInternal */\n      0xffffffffffffffffffffffffffffffffffffffff\n      and\n      0xaa5da046\n        /* \"contracts/assessment/IndividualClaims.sol\":1902:1925  mcr.updateMCRInternal() */\n      mload(0x40)\n      dup2\n      0xffffffff\n      and\n      0xe0\n      shl\n      dup2\n      mstore\n      0x04\n      add\n      0x00\n      mload(0x40)\n      dup1\n      dup4\n      sub\n      dup2\n      0x00\n      dup8\n      dup1\n      extcodesize\n      iszero\n      dup1\n      iszero\n      tag_140\n      jumpi\n      0x00\n      dup1\n      revert\n    tag_140:\n      pop\n      gas\n      call\n      iszero\n      dup1\n      iszero\n      tag_142\n      jumpi\n      returndatasize\n      0x00\n      dup1\n      returndatacopy\n      revert(0x00, returndatasize)\n    tag_142:\n      pop\n      pop\n      pop\n      pop\n        /* \"contracts/assessment/IndividualClaims.sol\":1942:1943  c */\n      dup3\n        /* \"contracts/assessment/IndividualClaims.sol\":1935:1943  return c */\n      swap5\n      pop\n      pop\n      pop\n      pop\n      pop\n        /* \"contracts/assessment/IndividualClaims.sol\":1292:1950  function _submitClaim(uint coverId, address owner ) internal  returns (Claim memory) {... */\n      swap3\n      swap2\n      pop\n      pop\n      jump\t// out\n    tag_85:\n      mload(0x40)\n      dup1\n      0x60\n      add\n      0x40\n      mstore\n      dup1\n      0x00\n      dup2\n      mstore\n      0x20\n      add\n      and(0xffffffffffffffffffffffffffffffffffffffff, 0x00)\n      dup2\n      mstore\n      0x20\n      add\n      iszero(iszero(0x00))\n      dup2\n      mstore\n      pop\n      swap1\n      jump\t// out\n        /* \"#utility.yul\":7:133   */\n    tag_143:\n        /* \"#utility.yul\":44:51   */\n      0x00\n        /* \"#utility.yul\":84:126   */\n      0xffffffffffffffffffffffffffffffffffffffff\n        /* \"#utility.yul\":77:82   */\n      dup3\n        /* \"#utility.yul\":73:127   */\n      and\n        /* \"#utility.yul\":62:127   */\n      swap1\n      pop\n        /* \"#utility.yul\":7:133   */\n      swap2\n      swap1\n      pop\n      jump\t// out\n        /* \"#utility.yul\":139:199   */\n    tag_144:\n        /* \"#utility.yul\":167:170   */\n      0x00\n        /* \"#utility.yul\":188:193   */\n      dup2\n        /* \"#utility.yul\":181:193   */\n      swap1\n      pop\n        /* \"#utility.yul\":139:199   */\n      swap2\n      swap1\n      pop\n      jump\t// out\n        /* \"#utility.yul\":205:347   */\n    tag_145:\n        /* \"#utility.yul\":255:264   */\n      0x00\n        /* \"#utility.yul\":288:341   */\n      tag_211\n        /* \"#utility.yul\":306:340   */\n      tag_212\n        /* \"#utility.yul\":315:339   */\n      tag_213\n        /* \"#utility.yul\":333:338   */\n      dup5\n        /* \"#utility.yul\":315:339   */\n      tag_143\n      jump\t// in\n    tag_213:\n        /* \"#utility.yul\":306:340   */\n      tag_144\n      jump\t// in\n    tag_212:\n        /* \"#utility.yul\":288:341   */\n      tag_143\n      jump\t// in\n    tag_211:\n        /* \"#utility.yul\":275:341   */\n      swap1\n      pop\n        /* \"#utility.yul\":205:347   */\n      swap2\n      swap1\n      pop\n      jump\t// out\n        /* \"#utility.yul\":353:479   */\n    tag_146:\n        /* \"#utility.yul\":403:412   */\n      0x00\n        /* \"#utility.yul\":436:473   */\n      tag_215\n        /* \"#utility.yul\":467:472   */\n      dup3\n        /* \"#utility.yul\":436:473   */\n      tag_145\n      jump\t// in\n    tag_215:\n        /* \"#utility.yul\":423:473   */\n      swap1\n      pop\n        /* \"#utility.yul\":353:479   */\n      swap2\n      swap1\n      pop\n      jump\t// out\n        /* \"#utility.yul\":485:628   */\n    tag_147:\n        /* \"#utility.yul\":552:561   */\n      0x00\n        /* \"#utility.yul\":585:622   */\n      tag_217\n        /* \"#utility.yul\":616:621   */\n      dup3\n        /* \"#utility.yul\":585:622   */\n      tag_146\n      jump\t// in\n    tag_217:\n        /* \"#utility.yul\":572:622   */\n      swap1\n      pop\n        /* \"#utility.yul\":485:628   */\n      swap2\n      swap1\n      pop\n      jump\t// out\n        /* \"#utility.yul\":634:799   */\n    tag_148:\n        /* \"#utility.yul\":738:792   */\n      tag_219\n        /* \"#utility.yul\":786:791   */\n      dup2\n        /* \"#utility.yul\":738:792   */\n      tag_147\n      jump\t// in\n    tag_219:\n        /* \"#utility.yul\":733:736   */\n      dup3\n        /* \"#utility.yul\":726:793   */\n      mstore\n        /* \"#utility.yul\":634:799   */\n      pop\n      pop\n      jump\t// out\n        /* \"#utility.yul\":805:1061   */\n    tag_14:\n        /* \"#utility.yul\":915:919   */\n      0x00\n        /* \"#utility.yul\":953:955   */\n      0x20\n        /* \"#utility.yul\":942:951   */\n      dup3\n        /* \"#utility.yul\":938:956   */\n      add\n        /* \"#utility.yul\":930:956   */\n      swap1\n      pop\n        /* \"#utility.yul\":966:1054   */\n      tag_221\n        /* \"#utility.yul\":1051:1052   */\n      0x00\n        /* \"#utility.yul\":1040:1049   */\n      dup4\n        /* \"#utility.yul\":1036:1053   */\n      add\n        /* \"#utility.yul\":1027:1033   */\n      dup5\n        /* \"#utility.yul\":966:1054   */\n      tag_148\n      jump\t// in\n    tag_221:\n        /* \"#utility.yul\":805:1061   */\n      swap3\n      swap2\n      pop\n      pop\n      jump\t// out\n        /* \"#utility.yul\":1067:1142   */\n    tag_149:\n        /* \"#utility.yul\":1100:1106   */\n      0x00\n        /* \"#utility.yul\":1133:1135   */\n      0x40\n        /* \"#utility.yul\":1127:1136   */\n      mload\n        /* \"#utility.yul\":1117:1136   */\n      swap1\n      pop\n        /* \"#utility.yul\":1067:1142   */\n      swap1\n      jump\t// out\n        /* \"#utility.yul\":1148:1265   */\n    tag_150:\n        /* \"#utility.yul\":1257:1258   */\n      0x00\n        /* \"#utility.yul\":1254:1255   */\n      dup1\n        /* \"#utility.yul\":1247:1259   */\n      revert\n        /* \"#utility.yul\":1271:1388   */\n    tag_151:\n        /* \"#utility.yul\":1380:1381   */\n      0x00\n        /* \"#utility.yul\":1377:1378   */\n      dup1\n        /* \"#utility.yul\":1370:1382   */\n      revert\n        /* \"#utility.yul\":1394:1471   */\n    tag_152:\n        /* \"#utility.yul\":1431:1438   */\n      0x00\n        /* \"#utility.yul\":1460:1465   */\n      dup2\n        /* \"#utility.yul\":1449:1465   */\n      swap1\n      pop\n        /* \"#utility.yul\":1394:1471   */\n      swap2\n      swap1\n      pop\n      jump\t// out\n        /* \"#utility.yul\":1477:1599   */\n    tag_153:\n        /* \"#utility.yul\":1550:1574   */\n      tag_227\n        /* \"#utility.yul\":1568:1573   */\n      dup2\n        /* \"#utility.yul\":1550:1574   */\n      tag_152\n      jump\t// in\n    tag_227:\n        /* \"#utility.yul\":1543:1548   */\n      dup2\n        /* \"#utility.yul\":1540:1575   */\n      eq\n        /* \"#utility.yul\":1530:1593   */\n      tag_228\n      jumpi\n        /* \"#utility.yul\":1589:1590   */\n      0x00\n        /* \"#utility.yul\":1586:1587   */\n      dup1\n        /* \"#utility.yul\":1579:1591   */\n      revert\n        /* \"#utility.yul\":1530:1593   */\n    tag_228:\n        /* \"#utility.yul\":1477:1599   */\n      pop\n      jump\t// out\n        /* \"#utility.yul\":1605:1744   */\n    tag_154:\n        /* \"#utility.yul\":1651:1656   */\n      0x00\n        /* \"#utility.yul\":1689:1695   */\n      dup2\n        /* \"#utility.yul\":1676:1696   */\n      calldataload\n        /* \"#utility.yul\":1667:1696   */\n      swap1\n      pop\n        /* \"#utility.yul\":1705:1738   */\n      tag_230\n        /* \"#utility.yul\":1732:1737   */\n      dup2\n        /* \"#utility.yul\":1705:1738   */\n      tag_153\n      jump\t// in\n    tag_230:\n        /* \"#utility.yul\":1605:1744   */\n      swap3\n      swap2\n      pop\n      pop\n      jump\t// out\n        /* \"#utility.yul\":1750:2079   */\n    tag_18:\n        /* \"#utility.yul\":1809:1815   */\n      0x00\n        /* \"#utility.yul\":1858:1860   */\n      0x20\n        /* \"#utility.yul\":1846:1855   */\n      dup3\n        /* \"#utility.yul\":1837:1844   */\n      dup5\n        /* \"#utility.yul\":1833:1856   */\n      sub\n        /* \"#utility.yul\":1829:1861   */\n      slt\n        /* \"#utility.yul\":1826:1945   */\n      iszero\n      tag_232\n      jumpi\n        /* \"#utility.yul\":1864:1943   */\n      tag_233\n      tag_150\n      jump\t// in\n    tag_233:\n        /* \"#utility.yul\":1826:1945   */\n    tag_232:\n        /* \"#utility.yul\":1984:1985   */\n      0x00\n        /* \"#utility.yul\":2009:2062   */\n      tag_234\n        /* \"#utility.yul\":2054:2061   */\n      dup5\n        /* \"#utility.yul\":2045:2051   */\n      dup3\n        /* \"#utility.yul\":2034:2043   */\n      dup6\n        /* \"#utility.yul\":2030:2052   */\n      add\n        /* \"#utility.yul\":2009:2062   */\n      tag_154\n      jump\t// in\n    tag_234:\n        /* \"#utility.yul\":1999:2062   */\n      swap2\n      pop\n        /* \"#utility.yul\":1955:2072   */\n      pop\n        /* \"#utility.yul\":1750:2079   */\n      swap3\n      swap2\n      pop\n      pop\n      jump\t// out\n        /* \"#utility.yul\":2085:2203   */\n    tag_155:\n        /* \"#utility.yul\":2172:2196   */\n      tag_236\n        /* \"#utility.yul\":2190:2195   */\n      dup2\n        /* \"#utility.yul\":2172:2196   */\n      tag_152\n      jump\t// in\n    tag_236:\n        /* \"#utility.yul\":2167:2170   */\n      dup3\n        /* \"#utility.yul\":2160:2197   */\n      mstore\n        /* \"#utility.yul\":2085:2203   */\n      pop\n      pop\n      jump\t// out\n        /* \"#utility.yul\":2209:2299   */\n    tag_156:\n        /* \"#utility.yul\":2243:2250   */\n      0x00\n        /* \"#utility.yul\":2286:2291   */\n      dup2\n        /* \"#utility.yul\":2279:2292   */\n      iszero\n        /* \"#utility.yul\":2272:2293   */\n      iszero\n        /* \"#utility.yul\":2261:2293   */\n      swap1\n      pop\n        /* \"#utility.yul\":2209:2299   */\n      swap2\n      swap1\n      pop\n      jump\t// out\n        /* \"#utility.yul\":2305:2414   */\n    tag_157:\n        /* \"#utility.yul\":2386:2407   */\n      tag_239\n        /* \"#utility.yul\":2401:2406   */\n      dup2\n        /* \"#utility.yul\":2386:2407   */\n      tag_156\n      jump\t// in\n    tag_239:\n        /* \"#utility.yul\":2381:2384   */\n      dup3\n        /* \"#utility.yul\":2374:2408   */\n      mstore\n        /* \"#utility.yul\":2305:2414   */\n      pop\n      pop\n      jump\t// out\n        /* \"#utility.yul\":2420:2740   */\n    tag_25:\n        /* \"#utility.yul\":2535:2539   */\n      0x00\n        /* \"#utility.yul\":2573:2575   */\n      0x40\n        /* \"#utility.yul\":2562:2571   */\n      dup3\n        /* \"#utility.yul\":2558:2576   */\n      add\n        /* \"#utility.yul\":2550:2576   */\n      swap1\n      pop\n        /* \"#utility.yul\":2586:2657   */\n      tag_241\n        /* \"#utility.yul\":2654:2655   */\n      0x00\n        /* \"#utility.yul\":2643:2652   */\n      dup4\n        /* \"#utility.yul\":2639:2656   */\n      add\n        /* \"#utility.yul\":2630:2636   */\n      dup6\n        /* \"#utility.yul\":2586:2657   */\n      tag_155\n      jump\t// in\n    tag_241:\n        /* \"#utility.yul\":2667:2733   */\n      tag_242\n        /* \"#utility.yul\":2729:2731   */\n      0x20\n        /* \"#utility.yul\":2718:2727   */\n      dup4\n        /* \"#utility.yul\":2714:2732   */\n      add\n        /* \"#utility.yul\":2705:2711   */\n      dup5\n        /* \"#utility.yul\":2667:2733   */\n      tag_157\n      jump\t// in\n    tag_242:\n        /* \"#utility.yul\":2420:2740   */\n      swap4\n      swap3\n      pop\n      pop\n      pop\n      jump\t// out\n        /* \"#utility.yul\":2746:2842   */\n    tag_158:\n        /* \"#utility.yul\":2783:2790   */\n      0x00\n        /* \"#utility.yul\":2812:2836   */\n      tag_244\n        /* \"#utility.yul\":2830:2835   */\n      dup3\n        /* \"#utility.yul\":2812:2836   */\n      tag_143\n      jump\t// in\n    tag_244:\n        /* \"#utility.yul\":2801:2836   */\n      swap1\n      pop\n        /* \"#utility.yul\":2746:2842   */\n      swap2\n      swap1\n      pop\n      jump\t// out\n        /* \"#utility.yul\":2848:2966   */\n    tag_159:\n        /* \"#utility.yul\":2935:2959   */\n      tag_246\n        /* \"#utility.yul\":2953:2958   */\n      dup2\n        /* \"#utility.yul\":2935:2959   */\n      tag_158\n      jump\t// in\n    tag_246:\n        /* \"#utility.yul\":2930:2933   */\n      dup3\n        /* \"#utility.yul\":2923:2960   */\n      mstore\n        /* \"#utility.yul\":2848:2966   */\n      pop\n      pop\n      jump\t// out\n        /* \"#utility.yul\":2972:3402   */\n    tag_31:\n        /* \"#utility.yul\":3115:3119   */\n      0x00\n        /* \"#utility.yul\":3153:3155   */\n      0x60\n        /* \"#utility.yul\":3142:3151   */\n      dup3\n        /* \"#utility.yul\":3138:3156   */\n      add\n        /* \"#utility.yul\":3130:3156   */\n      swap1\n      pop\n        /* \"#utility.yul\":3166:3237   */\n      tag_248\n        /* \"#utility.yul\":3234:3235   */\n      0x00\n        /* \"#utility.yul\":3223:3232   */\n      dup4\n        /* \"#utility.yul\":3219:3236   */\n      add\n        /* \"#utility.yul\":3210:3216   */\n      dup7\n        /* \"#utility.yul\":3166:3237   */\n      tag_155\n      jump\t// in\n    tag_248:\n        /* \"#utility.yul\":3247:3319   */\n      tag_249\n        /* \"#utility.yul\":3315:3317   */\n      0x20\n        /* \"#utility.yul\":3304:3313   */\n      dup4\n        /* \"#utility.yul\":3300:3318   */\n      add\n        /* \"#utility.yul\":3291:3297   */\n      dup6\n        /* \"#utility.yul\":3247:3319   */\n      tag_159\n      jump\t// in\n    tag_249:\n        /* \"#utility.yul\":3329:3395   */\n      tag_250\n        /* \"#utility.yul\":3391:3393   */\n      0x40\n        /* \"#utility.yul\":3380:3389   */\n      dup4\n        /* \"#utility.yul\":3376:3394   */\n      add\n        /* \"#utility.yul\":3367:3373   */\n      dup5\n        /* \"#utility.yul\":3329:3395   */\n      tag_157\n      jump\t// in\n    tag_250:\n        /* \"#utility.yul\":2972:3402   */\n      swap5\n      swap4\n      pop\n      pop\n      pop\n      pop\n      jump\t// out\n        /* \"#utility.yul\":3408:3552   */\n    tag_160:\n        /* \"#utility.yul\":3476:3485   */\n      0x00\n        /* \"#utility.yul\":3509:3546   */\n      tag_252\n        /* \"#utility.yul\":3540:3545   */\n      dup3\n        /* \"#utility.yul\":3509:3546   */\n      tag_146\n      jump\t// in\n    tag_252:\n        /* \"#utility.yul\":3496:3546   */\n      swap1\n      pop\n        /* \"#utility.yul\":3408:3552   */\n      swap2\n      swap1\n      pop\n      jump\t// out\n        /* \"#utility.yul\":3558:3725   */\n    tag_161:\n        /* \"#utility.yul\":3663:3718   */\n      tag_254\n        /* \"#utility.yul\":3712:3717   */\n      dup2\n        /* \"#utility.yul\":3663:3718   */\n      tag_160\n      jump\t// in\n    tag_254:\n        /* \"#utility.yul\":3658:3661   */\n      dup3\n        /* \"#utility.yul\":3651:3719   */\n      mstore\n        /* \"#utility.yul\":3558:3725   */\n      pop\n      pop\n      jump\t// out\n        /* \"#utility.yul\":3731:3989   */\n    tag_36:\n        /* \"#utility.yul\":3842:3846   */\n      0x00\n        /* \"#utility.yul\":3880:3882   */\n      0x20\n        /* \"#utility.yul\":3869:3878   */\n      dup3\n        /* \"#utility.yul\":3865:3883   */\n      add\n        /* \"#utility.yul\":3857:3883   */\n      swap1\n      pop\n        /* \"#utility.yul\":3893:3982   */\n      tag_256\n        /* \"#utility.yul\":3979:3980   */\n      0x00\n        /* \"#utility.yul\":3968:3977   */\n      dup4\n        /* \"#utility.yul\":3964:3981   */\n      add\n        /* \"#utility.yul\":3955:3961   */\n      dup5\n        /* \"#utility.yul\":3893:3982   */\n      tag_161\n      jump\t// in\n    tag_256:\n        /* \"#utility.yul\":3731:3989   */\n      swap3\n      swap2\n      pop\n      pop\n      jump\t// out\n        /* \"#utility.yul\":3995:4088   */\n    tag_162:\n        /* \"#utility.yul\":4031:4038   */\n      0x00\n        /* \"#utility.yul\":4071:4081   */\n      0xffffffff\n        /* \"#utility.yul\":4064:4069   */\n      dup3\n        /* \"#utility.yul\":4060:4082   */\n      and\n        /* \"#utility.yul\":4049:4082   */\n      swap1\n      pop\n        /* \"#utility.yul\":3995:4088   */\n      swap2\n      swap1\n      pop\n      jump\t// out\n        /* \"#utility.yul\":4094:4214   */\n    tag_163:\n        /* \"#utility.yul\":4166:4189   */\n      tag_259\n        /* \"#utility.yul\":4183:4188   */\n      dup2\n        /* \"#utility.yul\":4166:4189   */\n      tag_162\n      jump\t// in\n    tag_259:\n        /* \"#utility.yul\":4159:4164   */\n      dup2\n        /* \"#utility.yul\":4156:4190   */\n      eq\n        /* \"#utility.yul\":4146:4208   */\n      tag_260\n      jumpi\n        /* \"#utility.yul\":4204:4205   */\n      0x00\n        /* \"#utility.yul\":4201:4202   */\n      dup1\n        /* \"#utility.yul\":4194:4206   */\n      revert\n        /* \"#utility.yul\":4146:4208   */\n    tag_260:\n        /* \"#utility.yul\":4094:4214   */\n      pop\n      jump\t// out\n        /* \"#utility.yul\":4220:4357   */\n    tag_164:\n        /* \"#utility.yul\":4265:4270   */\n      0x00\n        /* \"#utility.yul\":4303:4309   */\n      dup2\n        /* \"#utility.yul\":4290:4310   */\n      calldataload\n        /* \"#utility.yul\":4281:4310   */\n      swap1\n      pop\n        /* \"#utility.yul\":4319:4351   */\n      tag_262\n        /* \"#utility.yul\":4345:4350   */\n      dup2\n        /* \"#utility.yul\":4319:4351   */\n      tag_163\n      jump\t// in\n    tag_262:\n        /* \"#utility.yul\":4220:4357   */\n      swap3\n      swap2\n      pop\n      pop\n      jump\t// out\n        /* \"#utility.yul\":4363:4690   */\n    tag_39:\n        /* \"#utility.yul\":4421:4427   */\n      0x00\n        /* \"#utility.yul\":4470:4472   */\n      0x20\n        /* \"#utility.yul\":4458:4467   */\n      dup3\n        /* \"#utility.yul\":4449:4456   */\n      dup5\n        /* \"#utility.yul\":4445:4468   */\n      sub\n        /* \"#utility.yul\":4441:4473   */\n      slt\n        /* \"#utility.yul\":4438:4557   */\n      iszero\n      tag_264\n      jumpi\n        /* \"#utility.yul\":4476:4555   */\n      tag_265\n      tag_150\n      jump\t// in\n    tag_265:\n        /* \"#utility.yul\":4438:4557   */\n    tag_264:\n        /* \"#utility.yul\":4596:4597   */\n      0x00\n        /* \"#utility.yul\":4621:4673   */\n      tag_266\n        /* \"#utility.yul\":4665:4672   */\n      dup5\n        /* \"#utility.yul\":4656:4662   */\n      dup3\n        /* \"#utility.yul\":4645:4654   */\n      dup6\n        /* \"#utility.yul\":4641:4663   */\n      add\n        /* \"#utility.yul\":4621:4673   */\n      tag_164\n      jump\t// in\n    tag_266:\n        /* \"#utility.yul\":4611:4673   */\n      swap2\n      pop\n        /* \"#utility.yul\":4567:4683   */\n      pop\n        /* \"#utility.yul\":4363:4690   */\n      swap3\n      swap2\n      pop\n      pop\n      jump\t// out\n        /* \"#utility.yul\":4696:4804   */\n    tag_165:\n        /* \"#utility.yul\":4773:4797   */\n      tag_268\n        /* \"#utility.yul\":4791:4796   */\n      dup2\n        /* \"#utility.yul\":4773:4797   */\n      tag_152\n      jump\t// in\n    tag_268:\n        /* \"#utility.yul\":4768:4771   */\n      dup3\n        /* \"#utility.yul\":4761:4798   */\n      mstore\n        /* \"#utility.yul\":4696:4804   */\n      pop\n      pop\n      jump\t// out\n        /* \"#utility.yul\":4810:4918   */\n    tag_166:\n        /* \"#utility.yul\":4887:4911   */\n      tag_270\n        /* \"#utility.yul\":4905:4910   */\n      dup2\n        /* \"#utility.yul\":4887:4911   */\n      tag_158\n      jump\t// in\n    tag_270:\n        /* \"#utility.yul\":4882:4885   */\n      dup3\n        /* \"#utility.yul\":4875:4912   */\n      mstore\n        /* \"#utility.yul\":4810:4918   */\n      pop\n      pop\n      jump\t// out\n        /* \"#utility.yul\":4924:5023   */\n    tag_167:\n        /* \"#utility.yul\":4995:5016   */\n      tag_272\n        /* \"#utility.yul\":5010:5015   */\n      dup2\n        /* \"#utility.yul\":4995:5016   */\n      tag_156\n      jump\t// in\n    tag_272:\n        /* \"#utility.yul\":4990:4993   */\n      dup3\n        /* \"#utility.yul\":4983:5017   */\n      mstore\n        /* \"#utility.yul\":4924:5023   */\n      pop\n      pop\n      jump\t// out\n        /* \"#utility.yul\":5065:5753   */\n    tag_168:\n        /* \"#utility.yul\":5206:5210   */\n      0x60\n        /* \"#utility.yul\":5201:5204   */\n      dup3\n        /* \"#utility.yul\":5197:5211   */\n      add\n        /* \"#utility.yul\":5296:5300   */\n      0x00\n        /* \"#utility.yul\":5289:5294   */\n      dup3\n        /* \"#utility.yul\":5285:5301   */\n      add\n        /* \"#utility.yul\":5279:5302   */\n      mload\n        /* \"#utility.yul\":5315:5378   */\n      tag_274\n        /* \"#utility.yul\":5372:5376   */\n      0x00\n        /* \"#utility.yul\":5367:5370   */\n      dup6\n        /* \"#utility.yul\":5363:5377   */\n      add\n        /* \"#utility.yul\":5349:5361   */\n      dup3\n        /* \"#utility.yul\":5315:5378   */\n      tag_165\n      jump\t// in\n    tag_274:\n        /* \"#utility.yul\":5221:5388   */\n      pop\n        /* \"#utility.yul\":5476:5480   */\n      0x20\n        /* \"#utility.yul\":5469:5474   */\n      dup3\n        /* \"#utility.yul\":5465:5481   */\n      add\n        /* \"#utility.yul\":5459:5482   */\n      mload\n        /* \"#utility.yul\":5495:5558   */\n      tag_275\n        /* \"#utility.yul\":5552:5556   */\n      0x20\n        /* \"#utility.yul\":5547:5550   */\n      dup6\n        /* \"#utility.yul\":5543:5557   */\n      add\n        /* \"#utility.yul\":5529:5541   */\n      dup3\n        /* \"#utility.yul\":5495:5558   */\n      tag_166\n      jump\t// in\n    tag_275:\n        /* \"#utility.yul\":5398:5568   */\n      pop\n        /* \"#utility.yul\":5660:5664   */\n      0x40\n        /* \"#utility.yul\":5653:5658   */\n      dup3\n        /* \"#utility.yul\":5649:5665   */\n      add\n        /* \"#utility.yul\":5643:5666   */\n      mload\n        /* \"#utility.yul\":5679:5736   */\n      tag_276\n        /* \"#utility.yul\":5730:5734   */\n      0x40\n        /* \"#utility.yul\":5725:5728   */\n      dup6\n        /* \"#utility.yul\":5721:5735   */\n      add\n        /* \"#utility.yul\":5707:5719   */\n      dup3\n        /* \"#utility.yul\":5679:5736   */\n      tag_167\n      jump\t// in\n    tag_276:\n        /* \"#utility.yul\":5578:5746   */\n      pop\n        /* \"#utility.yul\":5175:5753   */\n      pop\n        /* \"#utility.yul\":5065:5753   */\n      pop\n      pop\n      jump\t// out\n        /* \"#utility.yul\":5759:6069   */\n    tag_42:\n        /* \"#utility.yul\":5896:5900   */\n      0x00\n        /* \"#utility.yul\":5934:5936   */\n      0x60\n        /* \"#utility.yul\":5923:5932   */\n      dup3\n        /* \"#utility.yul\":5919:5937   */\n      add\n        /* \"#utility.yul\":5911:5937   */\n      swap1\n      pop\n        /* \"#utility.yul\":5947:6062   */\n      tag_278\n        /* \"#utility.yul\":6059:6060   */\n      0x00\n        /* \"#utility.yul\":6048:6057   */\n      dup4\n        /* \"#utility.yul\":6044:6061   */\n      add\n        /* \"#utility.yul\":6035:6041   */\n      dup5\n        /* \"#utility.yul\":5947:6062   */\n      tag_168\n      jump\t// in\n    tag_278:\n        /* \"#utility.yul\":5759:6069   */\n      swap3\n      swap2\n      pop\n      pop\n      jump\t// out\n        /* \"#utility.yul\":6075:6214   */\n    tag_169:\n        /* \"#utility.yul\":6138:6147   */\n      0x00\n        /* \"#utility.yul\":6171:6208   */\n      tag_280\n        /* \"#utility.yul\":6202:6207   */\n      dup3\n        /* \"#utility.yul\":6171:6208   */\n      tag_146\n      jump\t// in\n    tag_280:\n        /* \"#utility.yul\":6158:6208   */\n      swap1\n      pop\n        /* \"#utility.yul\":6075:6214   */\n      swap2\n      swap1\n      pop\n      jump\t// out\n        /* \"#utility.yul\":6220:6377   */\n    tag_170:\n        /* \"#utility.yul\":6320:6370   */\n      tag_282\n        /* \"#utility.yul\":6364:6369   */\n      dup2\n        /* \"#utility.yul\":6320:6370   */\n      tag_169\n      jump\t// in\n    tag_282:\n        /* \"#utility.yul\":6315:6318   */\n      dup3\n        /* \"#utility.yul\":6308:6371   */\n      mstore\n        /* \"#utility.yul\":6220:6377   */\n      pop\n      pop\n      jump\t// out\n        /* \"#utility.yul\":6383:6631   */\n    tag_47:\n        /* \"#utility.yul\":6489:6493   */\n      0x00\n        /* \"#utility.yul\":6527:6529   */\n      0x20\n        /* \"#utility.yul\":6516:6525   */\n      dup3\n        /* \"#utility.yul\":6512:6530   */\n      add\n        /* \"#utility.yul\":6504:6530   */\n      swap1\n      pop\n        /* \"#utility.yul\":6540:6624   */\n      tag_284\n        /* \"#utility.yul\":6621:6622   */\n      0x00\n        /* \"#utility.yul\":6610:6619   */\n      dup4\n        /* \"#utility.yul\":6606:6623   */\n      add\n        /* \"#utility.yul\":6597:6603   */\n      dup5\n        /* \"#utility.yul\":6540:6624   */\n      tag_170\n      jump\t// in\n    tag_284:\n        /* \"#utility.yul\":6383:6631   */\n      swap3\n      swap2\n      pop\n      pop\n      jump\t// out\n        /* \"#utility.yul\":6637:6817   */\n    tag_51:\n        /* \"#utility.yul\":6685:6762   */\n      0x4e487b7100000000000000000000000000000000000000000000000000000000\n        /* \"#utility.yul\":6682:6683   */\n      0x00\n        /* \"#utility.yul\":6675:6763   */\n      mstore\n        /* \"#utility.yul\":6782:6786   */\n      0x32\n        /* \"#utility.yul\":6779:6780   */\n      0x04\n        /* \"#utility.yul\":6772:6787   */\n      mstore\n        /* \"#utility.yul\":6806:6810   */\n      0x24\n        /* \"#utility.yul\":6803:6804   */\n      0x00\n        /* \"#utility.yul\":6796:6811   */\n      revert\n        /* \"#utility.yul\":6823:6992   */\n    tag_171:\n        /* \"#utility.yul\":6907:6918   */\n      0x00\n        /* \"#utility.yul\":6941:6947   */\n      dup3\n        /* \"#utility.yul\":6936:6939   */\n      dup3\n        /* \"#utility.yul\":6929:6948   */\n      mstore\n        /* \"#utility.yul\":6981:6985   */\n      0x20\n        /* \"#utility.yul\":6976:6979   */\n      dup3\n        /* \"#utility.yul\":6972:6986   */\n      add\n        /* \"#utility.yul\":6957:6986   */\n      swap1\n      pop\n        /* \"#utility.yul\":6823:6992   */\n      swap3\n      swap2\n      pop\n      pop\n      jump\t// out\n        /* \"#utility.yul\":6998:7180   */\n    tag_172:\n        /* \"#utility.yul\":7138:7172   */\n      0x5061796f75742068617320616c7265616479206265656e2072656465656d6564\n        /* \"#utility.yul\":7134:7135   */\n      0x00\n        /* \"#utility.yul\":7126:7132   */\n      dup3\n        /* \"#utility.yul\":7122:7136   */\n      add\n        /* \"#utility.yul\":7115:7173   */\n      mstore\n        /* \"#utility.yul\":6998:7180   */\n      pop\n      jump\t// out\n        /* \"#utility.yul\":7186:7552   */\n    tag_173:\n        /* \"#utility.yul\":7328:7331   */\n      0x00\n        /* \"#utility.yul\":7349:7416   */\n      tag_289\n        /* \"#utility.yul\":7413:7415   */\n      0x20\n        /* \"#utility.yul\":7408:7411   */\n      dup4\n        /* \"#utility.yul\":7349:7416   */\n      tag_171\n      jump\t// in\n    tag_289:\n        /* \"#utility.yul\":7342:7416   */\n      swap2\n      pop\n        /* \"#utility.yul\":7425:7518   */\n      tag_290\n        /* \"#utility.yul\":7514:7517   */\n      dup3\n        /* \"#utility.yul\":7425:7518   */\n      tag_172\n      jump\t// in\n    tag_290:\n        /* \"#utility.yul\":7543:7545   */\n      0x20\n        /* \"#utility.yul\":7538:7541   */\n      dup3\n        /* \"#utility.yul\":7534:7546   */\n      add\n        /* \"#utility.yul\":7527:7546   */\n      swap1\n      pop\n        /* \"#utility.yul\":7186:7552   */\n      swap2\n      swap1\n      pop\n      jump\t// out\n        /* \"#utility.yul\":7558:7977   */\n    tag_55:\n        /* \"#utility.yul\":7724:7728   */\n      0x00\n        /* \"#utility.yul\":7762:7764   */\n      0x20\n        /* \"#utility.yul\":7751:7760   */\n      dup3\n        /* \"#utility.yul\":7747:7765   */\n      add\n        /* \"#utility.yul\":7739:7765   */\n      swap1\n      pop\n        /* \"#utility.yul\":7811:7820   */\n      dup2\n        /* \"#utility.yul\":7805:7809   */\n      dup2\n        /* \"#utility.yul\":7801:7821   */\n      sub\n        /* \"#utility.yul\":7797:7798   */\n      0x00\n        /* \"#utility.yul\":7786:7795   */\n      dup4\n        /* \"#utility.yul\":7782:7799   */\n      add\n        /* \"#utility.yul\":7775:7822   */\n      mstore\n        /* \"#utility.yul\":7839:7970   */\n      tag_292\n        /* \"#utility.yul\":7965:7969   */\n      dup2\n        /* \"#utility.yul\":7839:7970   */\n      tag_173\n      jump\t// in\n    tag_292:\n        /* \"#utility.yul\":7831:7970   */\n      swap1\n      pop\n        /* \"#utility.yul\":7558:7977   */\n      swap2\n      swap1\n      pop\n      jump\t// out\n        /* \"#utility.yul\":7983:8205   */\n    tag_63:\n        /* \"#utility.yul\":8076:8080   */\n      0x00\n        /* \"#utility.yul\":8114:8116   */\n      0x20\n        /* \"#utility.yul\":8103:8112   */\n      dup3\n        /* \"#utility.yul\":8099:8117   */\n      add\n        /* \"#utility.yul\":8091:8117   */\n      swap1\n      pop\n        /* \"#utility.yul\":8127:8198   */\n      tag_294\n        /* \"#utility.yul\":8195:8196   */\n      0x00\n        /* \"#utility.yul\":8184:8193   */\n      dup4\n        /* \"#utility.yul\":8180:8197   */\n      add\n        /* \"#utility.yul\":8171:8177   */\n      dup5\n        /* \"#utility.yul\":8127:8198   */\n      tag_155\n      jump\t// in\n    tag_294:\n        /* \"#utility.yul\":7983:8205   */\n      swap3\n      swap2\n      pop\n      pop\n      jump\t// out\n        /* \"#utility.yul\":8211:8328   */\n    tag_174:\n        /* \"#utility.yul\":8320:8321   */\n      0x00\n        /* \"#utility.yul\":8317:8318   */\n      dup1\n        /* \"#utility.yul\":8310:8322   */\n      revert\n        /* \"#utility.yul\":8334:8436   */\n    tag_175:\n        /* \"#utility.yul\":8375:8381   */\n      0x00\n        /* \"#utility.yul\":8426:8428   */\n      0x1f\n        /* \"#utility.yul\":8422:8429   */\n      not\n        /* \"#utility.yul\":8417:8419   */\n      0x1f\n        /* \"#utility.yul\":8410:8415   */\n      dup4\n        /* \"#utility.yul\":8406:8420   */\n      add\n        /* \"#utility.yul\":8402:8430   */\n      and\n        /* \"#utility.yul\":8392:8430   */\n      swap1\n      pop\n        /* \"#utility.yul\":8334:8436   */\n      swap2\n      swap1\n      pop\n      jump\t// out\n        /* \"#utility.yul\":8442:8622   */\n    tag_176:\n        /* \"#utility.yul\":8490:8567   */\n      0x4e487b7100000000000000000000000000000000000000000000000000000000\n        /* \"#utility.yul\":8487:8488   */\n      0x00\n        /* \"#utility.yul\":8480:8568   */\n      mstore\n        /* \"#utility.yul\":8587:8591   */\n      0x41\n        /* \"#utility.yul\":8584:8585   */\n      0x04\n        /* \"#utility.yul\":8577:8592   */\n      mstore\n        /* \"#utility.yul\":8611:8615   */\n      0x24\n        /* \"#utility.yul\":8608:8609   */\n      0x00\n        /* \"#utility.yul\":8601:8616   */\n      revert\n        /* \"#utility.yul\":8628:8909   */\n    tag_177:\n        /* \"#utility.yul\":8711:8738   */\n      tag_299\n        /* \"#utility.yul\":8733:8737   */\n      dup3\n        /* \"#utility.yul\":8711:8738   */\n      tag_175\n      jump\t// in\n    tag_299:\n        /* \"#utility.yul\":8703:8709   */\n      dup2\n        /* \"#utility.yul\":8699:8739   */\n      add\n        /* \"#utility.yul\":8841:8847   */\n      dup2\n        /* \"#utility.yul\":8829:8839   */\n      dup2\n        /* \"#utility.yul\":8826:8848   */\n      lt\n        /* \"#utility.yul\":8805:8823   */\n      0xffffffffffffffff\n        /* \"#utility.yul\":8793:8803   */\n      dup3\n        /* \"#utility.yul\":8790:8824   */\n      gt\n        /* \"#utility.yul\":8787:8849   */\n      or\n        /* \"#utility.yul\":8784:8872   */\n      iszero\n      tag_300\n      jumpi\n        /* \"#utility.yul\":8852:8870   */\n      tag_301\n      tag_176\n      jump\t// in\n    tag_301:\n        /* \"#utility.yul\":8784:8872   */\n    tag_300:\n        /* \"#utility.yul\":8892:8902   */\n      dup1\n        /* \"#utility.yul\":8888:8890   */\n      0x40\n        /* \"#utility.yul\":8881:8903   */\n      mstore\n        /* \"#utility.yul\":8671:8909   */\n      pop\n        /* \"#utility.yul\":8628:8909   */\n      pop\n      pop\n      jump\t// out\n        /* \"#utility.yul\":8915:9044   */\n    tag_178:\n        /* \"#utility.yul\":8949:8955   */\n      0x00\n        /* \"#utility.yul\":8976:8996   */\n      tag_303\n      tag_149\n      jump\t// in\n    tag_303:\n        /* \"#utility.yul\":8966:8996   */\n      swap1\n      pop\n        /* \"#utility.yul\":9005:9038   */\n      tag_304\n        /* \"#utility.yul\":9033:9037   */\n      dup3\n        /* \"#utility.yul\":9025:9031   */\n      dup3\n        /* \"#utility.yul\":9005:9038   */\n      tag_177\n      jump\t// in\n    tag_304:\n        /* \"#utility.yul\":8915:9044   */\n      swap2\n      swap1\n      pop\n      jump\t// out\n        /* \"#utility.yul\":9050:9167   */\n    tag_179:\n        /* \"#utility.yul\":9159:9160   */\n      0x00\n        /* \"#utility.yul\":9156:9157   */\n      dup1\n        /* \"#utility.yul\":9149:9161   */\n      revert\n        /* \"#utility.yul\":9173:9316   */\n    tag_180:\n        /* \"#utility.yul\":9230:9235   */\n      0x00\n        /* \"#utility.yul\":9261:9267   */\n      dup2\n        /* \"#utility.yul\":9255:9268   */\n      mload\n        /* \"#utility.yul\":9246:9268   */\n      swap1\n      pop\n        /* \"#utility.yul\":9277:9310   */\n      tag_307\n        /* \"#utility.yul\":9304:9309   */\n      dup2\n        /* \"#utility.yul\":9277:9310   */\n      tag_153\n      jump\t// in\n    tag_307:\n        /* \"#utility.yul\":9173:9316   */\n      swap3\n      swap2\n      pop\n      pop\n      jump\t// out\n        /* \"#utility.yul\":9322:9444   */\n    tag_181:\n        /* \"#utility.yul\":9395:9419   */\n      tag_309\n        /* \"#utility.yul\":9413:9418   */\n      dup2\n        /* \"#utility.yul\":9395:9419   */\n      tag_158\n      jump\t// in\n    tag_309:\n        /* \"#utility.yul\":9388:9393   */\n      dup2\n        /* \"#utility.yul\":9385:9420   */\n      eq\n        /* \"#utility.yul\":9375:9438   */\n      tag_310\n      jumpi\n        /* \"#utility.yul\":9434:9435   */\n      0x00\n        /* \"#utility.yul\":9431:9432   */\n      dup1\n        /* \"#utility.yul\":9424:9436   */\n      revert\n        /* \"#utility.yul\":9375:9438   */\n    tag_310:\n        /* \"#utility.yul\":9322:9444   */\n      pop\n      jump\t// out\n        /* \"#utility.yul\":9450:9593   */\n    tag_182:\n        /* \"#utility.yul\":9507:9512   */\n      0x00\n        /* \"#utility.yul\":9538:9544   */\n      dup2\n        /* \"#utility.yul\":9532:9545   */\n      mload\n        /* \"#utility.yul\":9523:9545   */\n      swap1\n      pop\n        /* \"#utility.yul\":9554:9587   */\n      tag_312\n        /* \"#utility.yul\":9581:9586   */\n      dup2\n        /* \"#utility.yul\":9554:9587   */\n      tag_181\n      jump\t// in\n    tag_312:\n        /* \"#utility.yul\":9450:9593   */\n      swap3\n      swap2\n      pop\n      pop\n      jump\t// out\n        /* \"#utility.yul\":9599:9716   */\n    tag_183:\n        /* \"#utility.yul\":9708:9709   */\n      0x00\n        /* \"#utility.yul\":9705:9706   */\n      dup1\n        /* \"#utility.yul\":9698:9710   */\n      revert\n        /* \"#utility.yul\":9722:9839   */\n    tag_184:\n        /* \"#utility.yul\":9831:9832   */\n      0x00\n        /* \"#utility.yul\":9828:9829   */\n      dup1\n        /* \"#utility.yul\":9821:9833   */\n      revert\n        /* \"#utility.yul\":9845:10153   */\n    tag_185:\n        /* \"#utility.yul\":9907:9911   */\n      0x00\n        /* \"#utility.yul\":9997:10015   */\n      0xffffffffffffffff\n        /* \"#utility.yul\":9989:9995   */\n      dup3\n        /* \"#utility.yul\":9986:10016   */\n      gt\n        /* \"#utility.yul\":9983:10039   */\n      iszero\n      tag_316\n      jumpi\n        /* \"#utility.yul\":10019:10037   */\n      tag_317\n      tag_176\n      jump\t// in\n    tag_317:\n        /* \"#utility.yul\":9983:10039   */\n    tag_316:\n        /* \"#utility.yul\":10057:10086   */\n      tag_318\n        /* \"#utility.yul\":10079:10085   */\n      dup3\n        /* \"#utility.yul\":10057:10086   */\n      tag_175\n      jump\t// in\n    tag_318:\n        /* \"#utility.yul\":10049:10086   */\n      swap1\n      pop\n        /* \"#utility.yul\":10141:10145   */\n      0x20\n        /* \"#utility.yul\":10135:10139   */\n      dup2\n        /* \"#utility.yul\":10131:10146   */\n      add\n        /* \"#utility.yul\":10123:10146   */\n      swap1\n      pop\n        /* \"#utility.yul\":9845:10153   */\n      swap2\n      swap1\n      pop\n      jump\t// out\n        /* \"#utility.yul\":10159:10405   */\n    tag_186:\n        /* \"#utility.yul\":10240:10241   */\n      0x00\n        /* \"#utility.yul\":10250:10363   */\n    tag_320:\n        /* \"#utility.yul\":10264:10270   */\n      dup4\n        /* \"#utility.yul\":10261:10262   */\n      dup2\n        /* \"#utility.yul\":10258:10271   */\n      lt\n        /* \"#utility.yul\":10250:10363   */\n      iszero\n      tag_322\n      jumpi\n        /* \"#utility.yul\":10349:10350   */\n      dup1\n        /* \"#utility.yul\":10344:10347   */\n      dup3\n        /* \"#utility.yul\":10340:10351   */\n      add\n        /* \"#utility.yul\":10334:10352   */\n      mload\n        /* \"#utility.yul\":10330:10331   */\n      dup2\n        /* \"#utility.yul\":10325:10328   */\n      dup5\n        /* \"#utility.yul\":10321:10332   */\n      add\n        /* \"#utility.yul\":10314:10353   */\n      mstore\n        /* \"#utility.yul\":10286:10288   */\n      0x20\n        /* \"#utility.yul\":10283:10284   */\n      dup2\n        /* \"#utility.yul\":10279:10289   */\n      add\n        /* \"#utility.yul\":10274:10289   */\n      swap1\n      pop\n        /* \"#utility.yul\":10250:10363   */\n      jump(tag_320)\n    tag_322:\n        /* \"#utility.yul\":10397:10398   */\n      0x00\n        /* \"#utility.yul\":10388:10394   */\n      dup5\n        /* \"#utility.yul\":10383:10386   */\n      dup5\n        /* \"#utility.yul\":10379:10395   */\n      add\n        /* \"#utility.yul\":10372:10399   */\n      mstore\n        /* \"#utility.yul\":10221:10405   */\n      pop\n        /* \"#utility.yul\":10159:10405   */\n      pop\n      pop\n      pop\n      jump\t// out\n        /* \"#utility.yul\":10411:10845   */\n    tag_187:\n        /* \"#utility.yul\":10500:10505   */\n      0x00\n        /* \"#utility.yul\":10525:10591   */\n      tag_324\n        /* \"#utility.yul\":10541:10590   */\n      tag_325\n        /* \"#utility.yul\":10583:10589   */\n      dup5\n        /* \"#utility.yul\":10541:10590   */\n      tag_185\n      jump\t// in\n    tag_325:\n        /* \"#utility.yul\":10525:10591   */\n      tag_178\n      jump\t// in\n    tag_324:\n        /* \"#utility.yul\":10516:10591   */\n      swap1\n      pop\n        /* \"#utility.yul\":10614:10620   */\n      dup3\n        /* \"#utility.yul\":10607:10612   */\n      dup2\n        /* \"#utility.yul\":10600:10621   */\n      mstore\n        /* \"#utility.yul\":10652:10656   */\n      0x20\n        /* \"#utility.yul\":10645:10650   */\n      dup2\n        /* \"#utility.yul\":10641:10657   */\n      add\n        /* \"#utility.yul\":10690:10693   */\n      dup5\n        /* \"#utility.yul\":10681:10687   */\n      dup5\n        /* \"#utility.yul\":10676:10679   */\n      dup5\n        /* \"#utility.yul\":10672:10688   */\n      add\n        /* \"#utility.yul\":10669:10694   */\n      gt\n        /* \"#utility.yul\":10666:10778   */\n      iszero\n      tag_326\n      jumpi\n        /* \"#utility.yul\":10697:10776   */\n      tag_327\n      tag_184\n      jump\t// in\n    tag_327:\n        /* \"#utility.yul\":10666:10778   */\n    tag_326:\n        /* \"#utility.yul\":10787:10839   */\n      tag_328\n        /* \"#utility.yul\":10832:10838   */\n      dup5\n        /* \"#utility.yul\":10827:10830   */\n      dup3\n        /* \"#utility.yul\":10822:10825   */\n      dup6\n        /* \"#utility.yul\":10787:10839   */\n      tag_186\n      jump\t// in\n    tag_328:\n        /* \"#utility.yul\":10506:10845   */\n      pop\n        /* \"#utility.yul\":10411:10845   */\n      swap4\n      swap3\n      pop\n      pop\n      pop\n      jump\t// out\n        /* \"#utility.yul\":10865:11220   */\n    tag_188:\n        /* \"#utility.yul\":10932:10937   */\n      0x00\n        /* \"#utility.yul\":10981:10984   */\n      dup3\n        /* \"#utility.yul\":10974:10978   */\n      0x1f\n        /* \"#utility.yul\":10966:10972   */\n      dup4\n        /* \"#utility.yul\":10962:10979   */\n      add\n        /* \"#utility.yul\":10958:10985   */\n      slt\n        /* \"#utility.yul\":10948:11070   */\n      tag_330\n      jumpi\n        /* \"#utility.yul\":10989:11068   */\n      tag_331\n      tag_183\n      jump\t// in\n    tag_331:\n        /* \"#utility.yul\":10948:11070   */\n    tag_330:\n        /* \"#utility.yul\":11099:11105   */\n      dup2\n        /* \"#utility.yul\":11093:11106   */\n      mload\n        /* \"#utility.yul\":11124:11214   */\n      tag_332\n        /* \"#utility.yul\":11210:11213   */\n      dup5\n        /* \"#utility.yul\":11202:11208   */\n      dup3\n        /* \"#utility.yul\":11195:11199   */\n      0x20\n        /* \"#utility.yul\":11187:11193   */\n      dup7\n        /* \"#utility.yul\":11183:11200   */\n      add\n        /* \"#utility.yul\":11124:11214   */\n      tag_187\n      jump\t// in\n    tag_332:\n        /* \"#utility.yul\":11115:11214   */\n      swap2\n      pop\n        /* \"#utility.yul\":10938:11220   */\n      pop\n        /* \"#utility.yul\":10865:11220   */\n      swap3\n      swap2\n      pop\n      pop\n      jump\t// out\n        /* \"#utility.yul\":11250:13649   */\n    tag_189:\n        /* \"#utility.yul\":11336:11341   */\n      0x00\n        /* \"#utility.yul\":11380:11386   */\n      0x0160\n        /* \"#utility.yul\":11368:11377   */\n      dup3\n        /* \"#utility.yul\":11363:11366   */\n      dup5\n        /* \"#utility.yul\":11359:11378   */\n      sub\n        /* \"#utility.yul\":11355:11387   */\n      slt\n        /* \"#utility.yul\":11352:11471   */\n      iszero\n      tag_334\n      jumpi\n        /* \"#utility.yul\":11390:11469   */\n      tag_335\n      tag_174\n      jump\t// in\n    tag_335:\n        /* \"#utility.yul\":11352:11471   */\n    tag_334:\n        /* \"#utility.yul\":11489:11512   */\n      tag_336\n        /* \"#utility.yul\":11505:11511   */\n      0x0160\n        /* \"#utility.yul\":11489:11512   */\n      tag_178\n      jump\t// in\n    tag_336:\n        /* \"#utility.yul\":11480:11512   */\n      swap1\n      pop\n        /* \"#utility.yul\":11580:11581   */\n      0x00\n        /* \"#utility.yul\":11620:11680   */\n      tag_337\n        /* \"#utility.yul\":11676:11679   */\n      dup5\n        /* \"#utility.yul\":11667:11673   */\n      dup3\n        /* \"#utility.yul\":11656:11665   */\n      dup6\n        /* \"#utility.yul\":11652:11674   */\n      add\n        /* \"#utility.yul\":11620:11680   */\n      tag_180\n      jump\t// in\n    tag_337:\n        /* \"#utility.yul\":11613:11617   */\n      0x00\n        /* \"#utility.yul\":11606:11611   */\n      dup4\n        /* \"#utility.yul\":11602:11618   */\n      add\n        /* \"#utility.yul\":11595:11681   */\n      mstore\n        /* \"#utility.yul\":11522:11692   */\n      pop\n        /* \"#utility.yul\":11763:11765   */\n      0x20\n        /* \"#utility.yul\":11804:11864   */\n      tag_338\n        /* \"#utility.yul\":11860:11863   */\n      dup5\n        /* \"#utility.yul\":11851:11857   */\n      dup3\n        /* \"#utility.yul\":11840:11849   */\n      dup6\n        /* \"#utility.yul\":11836:11858   */\n      add\n        /* \"#utility.yul\":11804:11864   */\n      tag_180\n      jump\t// in\n    tag_338:\n        /* \"#utility.yul\":11797:11801   */\n      0x20\n        /* \"#utility.yul\":11790:11795   */\n      dup4\n        /* \"#utility.yul\":11786:11802   */\n      add\n        /* \"#utility.yul\":11779:11865   */\n      mstore\n        /* \"#utility.yul\":11702:11876   */\n      pop\n        /* \"#utility.yul\":11936:11938   */\n      0x40\n        /* \"#utility.yul\":11977:12037   */\n      tag_339\n        /* \"#utility.yul\":12033:12036   */\n      dup5\n        /* \"#utility.yul\":12024:12030   */\n      dup3\n        /* \"#utility.yul\":12013:12022   */\n      dup6\n        /* \"#utility.yul\":12009:12031   */\n      add\n        /* \"#utility.yul\":11977:12037   */\n      tag_180\n      jump\t// in\n    tag_339:\n        /* \"#utility.yul\":11970:11974   */\n      0x40\n        /* \"#utility.yul\":11963:11968   */\n      dup4\n        /* \"#utility.yul\":11959:11975   */\n      add\n        /* \"#utility.yul\":11952:12038   */\n      mstore\n        /* \"#utility.yul\":11886:12049   */\n      pop\n        /* \"#utility.yul\":12110:12112   */\n      0x60\n        /* \"#utility.yul\":12151:12211   */\n      tag_340\n        /* \"#utility.yul\":12207:12210   */\n      dup5\n        /* \"#utility.yul\":12198:12204   */\n      dup3\n        /* \"#utility.yul\":12187:12196   */\n      dup6\n        /* \"#utility.yul\":12183:12205   */\n      add\n        /* \"#utility.yul\":12151:12211   */\n      tag_180\n      jump\t// in\n    tag_340:\n        /* \"#utility.yul\":12144:12148   */\n      0x60\n        /* \"#utility.yul\":12137:12142   */\n      dup4\n        /* \"#utility.yul\":12133:12149   */\n      add\n        /* \"#utility.yul\":12126:12212   */\n      mstore\n        /* \"#utility.yul\":12059:12223   */\n      pop\n        /* \"#utility.yul\":12284:12287   */\n      0x80\n        /* \"#utility.yul\":12326:12386   */\n      tag_341\n        /* \"#utility.yul\":12382:12385   */\n      dup5\n        /* \"#utility.yul\":12373:12379   */\n      dup3\n        /* \"#utility.yul\":12362:12371   */\n      dup6\n        /* \"#utility.yul\":12358:12380   */\n      add\n        /* \"#utility.yul\":12326:12386   */\n      tag_182\n      jump\t// in\n    tag_341:\n        /* \"#utility.yul\":12319:12323   */\n      0x80\n        /* \"#utility.yul\":12312:12317   */\n      dup4\n        /* \"#utility.yul\":12308:12324   */\n      add\n        /* \"#utility.yul\":12301:12387   */\n      mstore\n        /* \"#utility.yul\":12233:12398   */\n      pop\n        /* \"#utility.yul\":12459:12462   */\n      0xa0\n        /* \"#utility.yul\":12501:12561   */\n      tag_342\n        /* \"#utility.yul\":12557:12560   */\n      dup5\n        /* \"#utility.yul\":12548:12554   */\n      dup3\n        /* \"#utility.yul\":12537:12546   */\n      dup6\n        /* \"#utility.yul\":12533:12555   */\n      add\n        /* \"#utility.yul\":12501:12561   */\n      tag_182\n      jump\t// in\n    tag_342:\n        /* \"#utility.yul\":12494:12498   */\n      0xa0\n        /* \"#utility.yul\":12487:12492   */\n      dup4\n        /* \"#utility.yul\":12483:12499   */\n      add\n        /* \"#utility.yul\":12476:12562   */\n      mstore\n        /* \"#utility.yul\":12408:12573   */\n      pop\n        /* \"#utility.yul\":12637:12640   */\n      0xc0\n        /* \"#utility.yul\":12679:12739   */\n      tag_343\n        /* \"#utility.yul\":12735:12738   */\n      dup5\n        /* \"#utility.yul\":12726:12732   */\n      dup3\n        /* \"#utility.yul\":12715:12724   */\n      dup6\n        /* \"#utility.yul\":12711:12733   */\n      add\n        /* \"#utility.yul\":12679:12739   */\n      tag_180\n      jump\t// in\n    tag_343:\n        /* \"#utility.yul\":12672:12676   */\n      0xc0\n        /* \"#utility.yul\":12665:12670   */\n      dup4\n        /* \"#utility.yul\":12661:12677   */\n      add\n        /* \"#utility.yul\":12654:12740   */\n      mstore\n        /* \"#utility.yul\":12583:12751   */\n      pop\n        /* \"#utility.yul\":12815:12818   */\n      0xe0\n        /* \"#utility.yul\":12857:12917   */\n      tag_344\n        /* \"#utility.yul\":12913:12916   */\n      dup5\n        /* \"#utility.yul\":12904:12910   */\n      dup3\n        /* \"#utility.yul\":12893:12902   */\n      dup6\n        /* \"#utility.yul\":12889:12911   */\n      add\n        /* \"#utility.yul\":12857:12917   */\n      tag_180\n      jump\t// in\n    tag_344:\n        /* \"#utility.yul\":12850:12854   */\n      0xe0\n        /* \"#utility.yul\":12843:12848   */\n      dup4\n        /* \"#utility.yul\":12839:12855   */\n      add\n        /* \"#utility.yul\":12832:12918   */\n      mstore\n        /* \"#utility.yul\":12761:12929   */\n      pop\n        /* \"#utility.yul\":12999:13002   */\n      0x0100\n        /* \"#utility.yul\":13043:13103   */\n      tag_345\n        /* \"#utility.yul\":13099:13102   */\n      dup5\n        /* \"#utility.yul\":13090:13096   */\n      dup3\n        /* \"#utility.yul\":13079:13088   */\n      dup6\n        /* \"#utility.yul\":13075:13097   */\n      add\n        /* \"#utility.yul\":13043:13103   */\n      tag_180\n      jump\t// in\n    tag_345:\n        /* \"#utility.yul\":13034:13040   */\n      0x0100\n        /* \"#utility.yul\":13027:13032   */\n      dup4\n        /* \"#utility.yul\":13023:13041   */\n      add\n        /* \"#utility.yul\":13016:13104   */\n      mstore\n        /* \"#utility.yul\":12939:13115   */\n      pop\n        /* \"#utility.yul\":13185:13188   */\n      0x0120\n        /* \"#utility.yul\":13229:13289   */\n      tag_346\n        /* \"#utility.yul\":13285:13288   */\n      dup5\n        /* \"#utility.yul\":13276:13282   */\n      dup3\n        /* \"#utility.yul\":13265:13274   */\n      dup6\n        /* \"#utility.yul\":13261:13283   */\n      add\n        /* \"#utility.yul\":13229:13289   */\n      tag_180\n      jump\t// in\n    tag_346:\n        /* \"#utility.yul\":13220:13226   */\n      0x0120\n        /* \"#utility.yul\":13213:13218   */\n      dup4\n        /* \"#utility.yul\":13209:13227   */\n      add\n        /* \"#utility.yul\":13202:13290   */\n      mstore\n        /* \"#utility.yul\":13125:13301   */\n      pop\n        /* \"#utility.yul\":13384:13387   */\n      0x0140\n        /* \"#utility.yul\":13373:13382   */\n      dup3\n        /* \"#utility.yul\":13369:13388   */\n      add\n        /* \"#utility.yul\":13363:13389   */\n      mload\n        /* \"#utility.yul\":13416:13434   */\n      0xffffffffffffffff\n        /* \"#utility.yul\":13408:13414   */\n      dup2\n        /* \"#utility.yul\":13405:13435   */\n      gt\n        /* \"#utility.yul\":13402:13519   */\n      iszero\n      tag_347\n      jumpi\n        /* \"#utility.yul\":13438:13517   */\n      tag_348\n      tag_179\n      jump\t// in\n    tag_348:\n        /* \"#utility.yul\":13402:13519   */\n    tag_347:\n        /* \"#utility.yul\":13560:13630   */\n      tag_349\n        /* \"#utility.yul\":13626:13629   */\n      dup5\n        /* \"#utility.yul\":13617:13623   */\n      dup3\n        /* \"#utility.yul\":13606:13615   */\n      dup6\n        /* \"#utility.yul\":13602:13624   */\n      add\n        /* \"#utility.yul\":13560:13630   */\n      tag_188\n      jump\t// in\n    tag_349:\n        /* \"#utility.yul\":13551:13557   */\n      0x0140\n        /* \"#utility.yul\":13544:13549   */\n      dup4\n        /* \"#utility.yul\":13540:13558   */\n      add\n        /* \"#utility.yul\":13533:13631   */\n      mstore\n        /* \"#utility.yul\":13311:13642   */\n      pop\n        /* \"#utility.yul\":11250:13649   */\n      swap3\n      swap2\n      pop\n      pop\n      jump\t// out\n        /* \"#utility.yul\":13655:14211   */\n    tag_67:\n        /* \"#utility.yul\":13751:13757   */\n      0x00\n        /* \"#utility.yul\":13800:13802   */\n      0x20\n        /* \"#utility.yul\":13788:13797   */\n      dup3\n        /* \"#utility.yul\":13779:13786   */\n      dup5\n        /* \"#utility.yul\":13775:13798   */\n      sub\n        /* \"#utility.yul\":13771:13803   */\n      slt\n        /* \"#utility.yul\":13768:13887   */\n      iszero\n      tag_351\n      jumpi\n        /* \"#utility.yul\":13806:13885   */\n      tag_352\n      tag_150\n      jump\t// in\n    tag_352:\n        /* \"#utility.yul\":13768:13887   */\n    tag_351:\n        /* \"#utility.yul\":13947:13948   */\n      0x00\n        /* \"#utility.yul\":13936:13945   */\n      dup3\n        /* \"#utility.yul\":13932:13949   */\n      add\n        /* \"#utility.yul\":13926:13950   */\n      mload\n        /* \"#utility.yul\":13977:13995   */\n      0xffffffffffffffff\n        /* \"#utility.yul\":13969:13975   */\n      dup2\n        /* \"#utility.yul\":13966:13996   */\n      gt\n        /* \"#utility.yul\":13963:14080   */\n      iszero\n      tag_353\n      jumpi\n        /* \"#utility.yul\":13999:14078   */\n      tag_354\n      tag_151\n      jump\t// in\n    tag_354:\n        /* \"#utility.yul\":13963:14080   */\n    tag_353:\n        /* \"#utility.yul\":14104:14194   */\n      tag_355\n        /* \"#utility.yul\":14186:14193   */\n      dup5\n        /* \"#utility.yul\":14177:14183   */\n      dup3\n        /* \"#utility.yul\":14166:14175   */\n      dup6\n        /* \"#utility.yul\":14162:14184   */\n      add\n        /* \"#utility.yul\":14104:14194   */\n      tag_189\n      jump\t// in\n    tag_355:\n        /* \"#utility.yul\":14094:14194   */\n      swap2\n      pop\n        /* \"#utility.yul\":13897:14204   */\n      pop\n        /* \"#utility.yul\":13655:14211   */\n      swap3\n      swap2\n      pop\n      pop\n      jump\t// out\n        /* \"#utility.yul\":14217:14316   */\n    tag_190:\n        /* \"#utility.yul\":14269:14275   */\n      0x00\n        /* \"#utility.yul\":14303:14308   */\n      dup2\n        /* \"#utility.yul\":14297:14309   */\n      mload\n        /* \"#utility.yul\":14287:14309   */\n      swap1\n      pop\n        /* \"#utility.yul\":14217:14316   */\n      swap2\n      swap1\n      pop\n      jump\t// out\n        /* \"#utility.yul\":14322:14481   */\n    tag_191:\n        /* \"#utility.yul\":14396:14407   */\n      0x00\n        /* \"#utility.yul\":14430:14436   */\n      dup3\n        /* \"#utility.yul\":14425:14428   */\n      dup3\n        /* \"#utility.yul\":14418:14437   */\n      mstore\n        /* \"#utility.yul\":14470:14474   */\n      0x20\n        /* \"#utility.yul\":14465:14468   */\n      dup3\n        /* \"#utility.yul\":14461:14475   */\n      add\n        /* \"#utility.yul\":14446:14475   */\n      swap1\n      pop\n        /* \"#utility.yul\":14322:14481   */\n      swap3\n      swap2\n      pop\n      pop\n      jump\t// out\n        /* \"#utility.yul\":14487:14844   */\n    tag_192:\n        /* \"#utility.yul\":14565:14568   */\n      0x00\n        /* \"#utility.yul\":14593:14632   */\n      tag_359\n        /* \"#utility.yul\":14626:14631   */\n      dup3\n        /* \"#utility.yul\":14593:14632   */\n      tag_190\n      jump\t// in\n    tag_359:\n        /* \"#utility.yul\":14648:14709   */\n      tag_360\n        /* \"#utility.yul\":14702:14708   */\n      dup2\n        /* \"#utility.yul\":14697:14700   */\n      dup6\n        /* \"#utility.yul\":14648:14709   */\n      tag_191\n      jump\t// in\n    tag_360:\n        /* \"#utility.yul\":14641:14709   */\n      swap4\n      pop\n        /* \"#utility.yul\":14718:14783   */\n      tag_361\n        /* \"#utility.yul\":14776:14782   */\n      dup2\n        /* \"#utility.yul\":14771:14774   */\n      dup6\n        /* \"#utility.yul\":14764:14768   */\n      0x20\n        /* \"#utility.yul\":14757:14762   */\n      dup7\n        /* \"#utility.yul\":14753:14769   */\n      add\n        /* \"#utility.yul\":14718:14783   */\n      tag_186\n      jump\t// in\n    tag_361:\n        /* \"#utility.yul\":14808:14837   */\n      tag_362\n        /* \"#utility.yul\":14830:14836   */\n      dup2\n        /* \"#utility.yul\":14808:14837   */\n      tag_175\n      jump\t// in\n    tag_362:\n        /* \"#utility.yul\":14803:14806   */\n      dup5\n        /* \"#utility.yul\":14799:14838   */\n      add\n        /* \"#utility.yul\":14792:14838   */\n      swap2\n      pop\n        /* \"#utility.yul\":14569:14844   */\n      pop\n        /* \"#utility.yul\":14487:14844   */\n      swap3\n      swap2\n      pop\n      pop\n      jump\t// out\n        /* \"#utility.yul\":14894:17145   */\n    tag_193:\n        /* \"#utility.yul\":15015:15018   */\n      0x00\n        /* \"#utility.yul\":15051:15057   */\n      0x0160\n        /* \"#utility.yul\":15046:15049   */\n      dup4\n        /* \"#utility.yul\":15042:15058   */\n      add\n        /* \"#utility.yul\":15149:15153   */\n      0x00\n        /* \"#utility.yul\":15142:15147   */\n      dup4\n        /* \"#utility.yul\":15138:15154   */\n      add\n        /* \"#utility.yul\":15132:15155   */\n      mload\n        /* \"#utility.yul\":15168:15231   */\n      tag_364\n        /* \"#utility.yul\":15225:15229   */\n      0x00\n        /* \"#utility.yul\":15220:15223   */\n      dup7\n        /* \"#utility.yul\":15216:15230   */\n      add\n        /* \"#utility.yul\":15202:15214   */\n      dup3\n        /* \"#utility.yul\":15168:15231   */\n      tag_165\n      jump\t// in\n    tag_364:\n        /* \"#utility.yul\":15068:15241   */\n      pop\n        /* \"#utility.yul\":15335:15339   */\n      0x20\n        /* \"#utility.yul\":15328:15333   */\n      dup4\n        /* \"#utility.yul\":15324:15340   */\n      add\n        /* \"#utility.yul\":15318:15341   */\n      mload\n        /* \"#utility.yul\":15354:15417   */\n      tag_365\n        /* \"#utility.yul\":15411:15415   */\n      0x20\n        /* \"#utility.yul\":15406:15409   */\n      dup7\n        /* \"#utility.yul\":15402:15416   */\n      add\n        /* \"#utility.yul\":15388:15400   */\n      dup3\n        /* \"#utility.yul\":15354:15417   */\n      tag_165\n      jump\t// in\n    tag_365:\n        /* \"#utility.yul\":15251:15427   */\n      pop\n        /* \"#utility.yul\":15510:15514   */\n      0x40\n        /* \"#utility.yul\":15503:15508   */\n      dup4\n        /* \"#utility.yul\":15499:15515   */\n      add\n        /* \"#utility.yul\":15493:15516   */\n      mload\n        /* \"#utility.yul\":15529:15592   */\n      tag_366\n        /* \"#utility.yul\":15586:15590   */\n      0x40\n        /* \"#utility.yul\":15581:15584   */\n      dup7\n        /* \"#utility.yul\":15577:15591   */\n      add\n        /* \"#utility.yul\":15563:15575   */\n      dup3\n        /* \"#utility.yul\":15529:15592   */\n      tag_165\n      jump\t// in\n    tag_366:\n        /* \"#utility.yul\":15437:15602   */\n      pop\n        /* \"#utility.yul\":15686:15690   */\n      0x60\n        /* \"#utility.yul\":15679:15684   */\n      dup4\n        /* \"#utility.yul\":15675:15691   */\n      add\n        /* \"#utility.yul\":15669:15692   */\n      mload\n        /* \"#utility.yul\":15705:15768   */\n      tag_367\n        /* \"#utility.yul\":15762:15766   */\n      0x60\n        /* \"#utility.yul\":15757:15760   */\n      dup7\n        /* \"#utility.yul\":15753:15767   */\n      add\n        /* \"#utility.yul\":15739:15751   */\n      dup3\n        /* \"#utility.yul\":15705:15768   */\n      tag_165\n      jump\t// in\n    tag_367:\n        /* \"#utility.yul\":15612:15778   */\n      pop\n        /* \"#utility.yul\":15862:15866   */\n      0x80\n        /* \"#utility.yul\":15855:15860   */\n      dup4\n        /* \"#utility.yul\":15851:15867   */\n      add\n        /* \"#utility.yul\":15845:15868   */\n      mload\n        /* \"#utility.yul\":15881:15944   */\n      tag_368\n        /* \"#utility.yul\":15938:15942   */\n      0x80\n        /* \"#utility.yul\":15933:15936   */\n      dup7\n        /* \"#utility.yul\":15929:15943   */\n      add\n        /* \"#utility.yul\":15915:15927   */\n      dup3\n        /* \"#utility.yul\":15881:15944   */\n      tag_166\n      jump\t// in\n    tag_368:\n        /* \"#utility.yul\":15788:15954   */\n      pop\n        /* \"#utility.yul\":16038:16042   */\n      0xa0\n        /* \"#utility.yul\":16031:16036   */\n      dup4\n        /* \"#utility.yul\":16027:16043   */\n      add\n        /* \"#utility.yul\":16021:16044   */\n      mload\n        /* \"#utility.yul\":16057:16120   */\n      tag_369\n        /* \"#utility.yul\":16114:16118   */\n      0xa0\n        /* \"#utility.yul\":16109:16112   */\n      dup7\n        /* \"#utility.yul\":16105:16119   */\n      add\n        /* \"#utility.yul\":16091:16103   */\n      dup3\n        /* \"#utility.yul\":16057:16120   */\n      tag_166\n      jump\t// in\n    tag_369:\n        /* \"#utility.yul\":15964:16130   */\n      pop\n        /* \"#utility.yul\":16217:16221   */\n      0xc0\n        /* \"#utility.yul\":16210:16215   */\n      dup4\n        /* \"#utility.yul\":16206:16222   */\n      add\n        /* \"#utility.yul\":16200:16223   */\n      mload\n        /* \"#utility.yul\":16236:16299   */\n      tag_370\n        /* \"#utility.yul\":16293:16297   */\n      0xc0\n        /* \"#utility.yul\":16288:16291   */\n      dup7\n        /* \"#utility.yul\":16284:16298   */\n      add\n        /* \"#utility.yul\":16270:16282   */\n      dup3\n        /* \"#utility.yul\":16236:16299   */\n      tag_165\n      jump\t// in\n    tag_370:\n        /* \"#utility.yul\":16140:16309   */\n      pop\n        /* \"#utility.yul\":16396:16400   */\n      0xe0\n        /* \"#utility.yul\":16389:16394   */\n      dup4\n        /* \"#utility.yul\":16385:16401   */\n      add\n        /* \"#utility.yul\":16379:16402   */\n      mload\n        /* \"#utility.yul\":16415:16478   */\n      tag_371\n        /* \"#utility.yul\":16472:16476   */\n      0xe0\n        /* \"#utility.yul\":16467:16470   */\n      dup7\n        /* \"#utility.yul\":16463:16477   */\n      add\n        /* \"#utility.yul\":16449:16461   */\n      dup3\n        /* \"#utility.yul\":16415:16478   */\n      tag_165\n      jump\t// in\n    tag_371:\n        /* \"#utility.yul\":16319:16488   */\n      pop\n        /* \"#utility.yul\":16581:16587   */\n      0x0100\n        /* \"#utility.yul\":16574:16579   */\n      dup4\n        /* \"#utility.yul\":16570:16588   */\n      add\n        /* \"#utility.yul\":16564:16589   */\n      mload\n        /* \"#utility.yul\":16602:16667   */\n      tag_372\n        /* \"#utility.yul\":16659:16665   */\n      0x0100\n        /* \"#utility.yul\":16654:16657   */\n      dup7\n        /* \"#utility.yul\":16650:16666   */\n      add\n        /* \"#utility.yul\":16636:16648   */\n      dup3\n        /* \"#utility.yul\":16602:16667   */\n      tag_165\n      jump\t// in\n    tag_372:\n        /* \"#utility.yul\":16498:16677   */\n      pop\n        /* \"#utility.yul\":16770:16776   */\n      0x0120\n        /* \"#utility.yul\":16763:16768   */\n      dup4\n        /* \"#utility.yul\":16759:16777   */\n      add\n        /* \"#utility.yul\":16753:16778   */\n      mload\n        /* \"#utility.yul\":16791:16856   */\n      tag_373\n        /* \"#utility.yul\":16848:16854   */\n      0x0120\n        /* \"#utility.yul\":16843:16846   */\n      dup7\n        /* \"#utility.yul\":16839:16855   */\n      add\n        /* \"#utility.yul\":16825:16837   */\n      dup3\n        /* \"#utility.yul\":16791:16856   */\n      tag_165\n      jump\t// in\n    tag_373:\n        /* \"#utility.yul\":16687:16866   */\n      pop\n        /* \"#utility.yul\":16951:16957   */\n      0x0140\n        /* \"#utility.yul\":16944:16949   */\n      dup4\n        /* \"#utility.yul\":16940:16958   */\n      add\n        /* \"#utility.yul\":16934:16959   */\n      mload\n        /* \"#utility.yul\":17008:17011   */\n      dup5\n        /* \"#utility.yul\":17002:17006   */\n      dup3\n        /* \"#utility.yul\":16998:17012   */\n      sub\n        /* \"#utility.yul\":16989:16995   */\n      0x0140\n        /* \"#utility.yul\":16984:16987   */\n      dup7\n        /* \"#utility.yul\":16980:16996   */\n      add\n        /* \"#utility.yul\":16973:17013   */\n      mstore\n        /* \"#utility.yul\":17034:17107   */\n      tag_374\n        /* \"#utility.yul\":17102:17106   */\n      dup3\n        /* \"#utility.yul\":17088:17100   */\n      dup3\n        /* \"#utility.yul\":17034:17107   */\n      tag_192\n      jump\t// in\n    tag_374:\n        /* \"#utility.yul\":17026:17107   */\n      swap2\n      pop\n        /* \"#utility.yul\":16876:17118   */\n      pop\n        /* \"#utility.yul\":17135:17139   */\n      dup1\n        /* \"#utility.yul\":17128:17139   */\n      swap2\n      pop\n        /* \"#utility.yul\":15020:17145   */\n      pop\n        /* \"#utility.yul\":14894:17145   */\n      swap3\n      swap2\n      pop\n      pop\n      jump\t// out\n        /* \"#utility.yul\":17151:17528   */\n    tag_69:\n        /* \"#utility.yul\":17296:17300   */\n      0x00\n        /* \"#utility.yul\":17334:17336   */\n      0x20\n        /* \"#utility.yul\":17323:17332   */\n      dup3\n        /* \"#utility.yul\":17319:17337   */\n      add\n        /* \"#utility.yul\":17311:17337   */\n      swap1\n      pop\n        /* \"#utility.yul\":17383:17392   */\n      dup2\n        /* \"#utility.yul\":17377:17381   */\n      dup2\n        /* \"#utility.yul\":17373:17393   */\n      sub\n        /* \"#utility.yul\":17369:17370   */\n      0x00\n        /* \"#utility.yul\":17358:17367   */\n      dup4\n        /* \"#utility.yul\":17354:17371   */\n      add\n        /* \"#utility.yul\":17347:17394   */\n      mstore\n        /* \"#utility.yul\":17411:17521   */\n      tag_376\n        /* \"#utility.yul\":17516:17520   */\n      dup2\n        /* \"#utility.yul\":17507:17513   */\n      dup5\n        /* \"#utility.yul\":17411:17521   */\n      tag_193\n      jump\t// in\n    tag_376:\n        /* \"#utility.yul\":17403:17521   */\n      swap1\n      pop\n        /* \"#utility.yul\":17151:17528   */\n      swap3\n      swap2\n      pop\n      pop\n      jump\t// out\n        /* \"#utility.yul\":17534:17885   */\n    tag_73:\n        /* \"#utility.yul\":17604:17610   */\n      0x00\n        /* \"#utility.yul\":17653:17655   */\n      0x20\n        /* \"#utility.yul\":17641:17650   */\n      dup3\n        /* \"#utility.yul\":17632:17639   */\n      dup5\n        /* \"#utility.yul\":17628:17651   */\n      sub\n        /* \"#utility.yul\":17624:17656   */\n      slt\n        /* \"#utility.yul\":17621:17740   */\n      iszero\n      tag_378\n      jumpi\n        /* \"#utility.yul\":17659:17738   */\n      tag_379\n      tag_150\n      jump\t// in\n    tag_379:\n        /* \"#utility.yul\":17621:17740   */\n    tag_378:\n        /* \"#utility.yul\":17779:17780   */\n      0x00\n        /* \"#utility.yul\":17804:17868   */\n      tag_380\n        /* \"#utility.yul\":17860:17867   */\n      dup5\n        /* \"#utility.yul\":17851:17857   */\n      dup3\n        /* \"#utility.yul\":17840:17849   */\n      dup6\n        /* \"#utility.yul\":17836:17858   */\n      add\n        /* \"#utility.yul\":17804:17868   */\n      tag_180\n      jump\t// in\n    tag_380:\n        /* \"#utility.yul\":17794:17868   */\n      swap2\n      pop\n        /* \"#utility.yul\":17750:17878   */\n      pop\n        /* \"#utility.yul\":17534:17885   */\n      swap3\n      swap2\n      pop\n      pop\n      jump\t// out\n        /* \"#utility.yul\":17891:17995   */\n    tag_194:\n        /* \"#utility.yul\":17936:17943   */\n      0x00\n        /* \"#utility.yul\":17965:17989   */\n      tag_382\n        /* \"#utility.yul\":17983:17988   */\n      dup3\n        /* \"#utility.yul\":17965:17989   */\n      tag_143\n      jump\t// in\n    tag_382:\n        /* \"#utility.yul\":17954:17989   */\n      swap1\n      pop\n        /* \"#utility.yul\":17891:17995   */\n      swap2\n      swap1\n      pop\n      jump\t// out\n        /* \"#utility.yul\":18001:18143   */\n    tag_195:\n        /* \"#utility.yul\":18104:18136   */\n      tag_384\n        /* \"#utility.yul\":18130:18135   */\n      dup2\n        /* \"#utility.yul\":18104:18136   */\n      tag_194\n      jump\t// in\n    tag_384:\n        /* \"#utility.yul\":18099:18102   */\n      dup3\n        /* \"#utility.yul\":18092:18137   */\n      mstore\n        /* \"#utility.yul\":18001:18143   */\n      pop\n      pop\n      jump\t// out\n        /* \"#utility.yul\":18149:18513   */\n    tag_75:\n        /* \"#utility.yul\":18286:18290   */\n      0x00\n        /* \"#utility.yul\":18324:18326   */\n      0x40\n        /* \"#utility.yul\":18313:18322   */\n      dup3\n        /* \"#utility.yul\":18309:18327   */\n      add\n        /* \"#utility.yul\":18301:18327   */\n      swap1\n      pop\n        /* \"#utility.yul\":18337:18424   */\n      tag_386\n        /* \"#utility.yul\":18421:18422   */\n      0x00\n        /* \"#utility.yul\":18410:18419   */\n      dup4\n        /* \"#utility.yul\":18406:18423   */\n      add\n        /* \"#utility.yul\":18397:18403   */\n      dup6\n        /* \"#utility.yul\":18337:18424   */\n      tag_195\n      jump\t// in\n    tag_386:\n        /* \"#utility.yul\":18434:18506   */\n      tag_387\n        /* \"#utility.yul\":18502:18504   */\n      0x20\n        /* \"#utility.yul\":18491:18500   */\n      dup4\n        /* \"#utility.yul\":18487:18505   */\n      add\n        /* \"#utility.yul\":18478:18484   */\n      dup5\n        /* \"#utility.yul\":18434:18506   */\n      tag_155\n      jump\t// in\n    tag_387:\n        /* \"#utility.yul\":18149:18513   */\n      swap4\n      swap3\n      pop\n      pop\n      pop\n      jump\t// out\n        /* \"#utility.yul\":18519:18659   */\n    tag_196:\n        /* \"#utility.yul\":18568:18577   */\n      0x00\n        /* \"#utility.yul\":18601:18653   */\n      tag_389\n        /* \"#utility.yul\":18619:18652   */\n      tag_390\n        /* \"#utility.yul\":18628:18651   */\n      tag_391\n        /* \"#utility.yul\":18645:18650   */\n      dup5\n        /* \"#utility.yul\":18628:18651   */\n      tag_162\n      jump\t// in\n    tag_391:\n        /* \"#utility.yul\":18619:18652   */\n      tag_144\n      jump\t// in\n    tag_390:\n        /* \"#utility.yul\":18601:18653   */\n      tag_152\n      jump\t// in\n    tag_389:\n        /* \"#utility.yul\":18588:18653   */\n      swap1\n      pop\n        /* \"#utility.yul\":18519:18659   */\n      swap2\n      swap1\n      pop\n      jump\t// out\n        /* \"#utility.yul\":18665:18794   */\n    tag_197:\n        /* \"#utility.yul\":18751:18787   */\n      tag_393\n        /* \"#utility.yul\":18781:18786   */\n      dup2\n        /* \"#utility.yul\":18751:18787   */\n      tag_196\n      jump\t// in\n    tag_393:\n        /* \"#utility.yul\":18746:18749   */\n      dup3\n        /* \"#utility.yul\":18739:18788   */\n      mstore\n        /* \"#utility.yul\":18665:18794   */\n      pop\n      pop\n      jump\t// out\n        /* \"#utility.yul\":18800:19020   */\n    tag_89:\n        /* \"#utility.yul\":18892:18896   */\n      0x00\n        /* \"#utility.yul\":18930:18932   */\n      0x20\n        /* \"#utility.yul\":18919:18928   */\n      dup3\n        /* \"#utility.yul\":18915:18933   */\n      add\n        /* \"#utility.yul\":18907:18933   */\n      swap1\n      pop\n        /* \"#utility.yul\":18943:19013   */\n      tag_395\n        /* \"#utility.yul\":19010:19011   */\n      0x00\n        /* \"#utility.yul\":18999:19008   */\n      dup4\n        /* \"#utility.yul\":18995:19012   */\n      add\n        /* \"#utility.yul\":18986:18992   */\n      dup5\n        /* \"#utility.yul\":18943:19013   */\n      tag_197\n      jump\t// in\n    tag_395:\n        /* \"#utility.yul\":18800:19020   */\n      swap3\n      swap2\n      pop\n      pop\n      jump\t// out\n        /* \"#utility.yul\":19026:19206   */\n    tag_198:\n        /* \"#utility.yul\":19074:19151   */\n      0x4e487b7100000000000000000000000000000000000000000000000000000000\n        /* \"#utility.yul\":19071:19072   */\n      0x00\n        /* \"#utility.yul\":19064:19152   */\n      mstore\n        /* \"#utility.yul\":19171:19175   */\n      0x11\n        /* \"#utility.yul\":19168:19169   */\n      0x04\n        /* \"#utility.yul\":19161:19176   */\n      mstore\n        /* \"#utility.yul\":19195:19199   */\n      0x24\n        /* \"#utility.yul\":19192:19193   */\n      0x00\n        /* \"#utility.yul\":19185:19200   */\n      revert\n        /* \"#utility.yul\":19212:19403   */\n    tag_94:\n        /* \"#utility.yul\":19252:19255   */\n      0x00\n        /* \"#utility.yul\":19271:19291   */\n      tag_398\n        /* \"#utility.yul\":19289:19290   */\n      dup3\n        /* \"#utility.yul\":19271:19291   */\n      tag_152\n      jump\t// in\n    tag_398:\n        /* \"#utility.yul\":19266:19291   */\n      swap2\n      pop\n        /* \"#utility.yul\":19305:19325   */\n      tag_399\n        /* \"#utility.yul\":19323:19324   */\n      dup4\n        /* \"#utility.yul\":19305:19325   */\n      tag_152\n      jump\t// in\n    tag_399:\n        /* \"#utility.yul\":19300:19325   */\n      swap3\n      pop\n        /* \"#utility.yul\":19348:19349   */\n      dup3\n        /* \"#utility.yul\":19345:19346   */\n      dup3\n        /* \"#utility.yul\":19341:19350   */\n      add\n        /* \"#utility.yul\":19334:19350   */\n      swap1\n      pop\n        /* \"#utility.yul\":19369:19372   */\n      dup1\n        /* \"#utility.yul\":19366:19367   */\n      dup3\n        /* \"#utility.yul\":19363:19373   */\n      gt\n        /* \"#utility.yul\":19360:19396   */\n      iszero\n      tag_400\n      jumpi\n        /* \"#utility.yul\":19376:19394   */\n      tag_401\n      tag_198\n      jump\t// in\n    tag_401:\n        /* \"#utility.yul\":19360:19396   */\n    tag_400:\n        /* \"#utility.yul\":19212:19403   */\n      swap3\n      swap2\n      pop\n      pop\n      jump\t// out\n        /* \"#utility.yul\":19409:19589   */\n    tag_199:\n        /* \"#utility.yul\":19549:19581   */\n      0x4f6e6c79207375626d697420636c61696d206166746572206578706972790000\n        /* \"#utility.yul\":19545:19546   */\n      0x00\n        /* \"#utility.yul\":19537:19543   */\n      dup3\n        /* \"#utility.yul\":19533:19547   */\n      add\n        /* \"#utility.yul\":19526:19582   */\n      mstore\n        /* \"#utility.yul\":19409:19589   */\n      pop\n      jump\t// out\n        /* \"#utility.yul\":19595:19961   */\n    tag_200:\n        /* \"#utility.yul\":19737:19740   */\n      0x00\n        /* \"#utility.yul\":19758:19825   */\n      tag_404\n        /* \"#utility.yul\":19822:19824   */\n      0x1e\n        /* \"#utility.yul\":19817:19820   */\n      dup4\n        /* \"#utility.yul\":19758:19825   */\n      tag_171\n      jump\t// in\n    tag_404:\n        /* \"#utility.yul\":19751:19825   */\n      swap2\n      pop\n        /* \"#utility.yul\":19834:19927   */\n      tag_405\n        /* \"#utility.yul\":19923:19926   */\n      dup3\n        /* \"#utility.yul\":19834:19927   */\n      tag_199\n      jump\t// in\n    tag_405:\n        /* \"#utility.yul\":19952:19954   */\n      0x20\n        /* \"#utility.yul\":19947:19950   */\n      dup3\n        /* \"#utility.yul\":19943:19955   */\n      add\n        /* \"#utility.yul\":19936:19955   */\n      swap1\n      pop\n        /* \"#utility.yul\":19595:19961   */\n      swap2\n      swap1\n      pop\n      jump\t// out\n        /* \"#utility.yul\":19967:20386   */\n    tag_97:\n        /* \"#utility.yul\":20133:20137   */\n      0x00\n        /* \"#utility.yul\":20171:20173   */\n      0x20\n        /* \"#utility.yul\":20160:20169   */\n      dup3\n        /* \"#utility.yul\":20156:20174   */\n      add\n        /* \"#utility.yul\":20148:20174   */\n      swap1\n      pop\n        /* \"#utility.yul\":20220:20229   */\n      dup2\n        /* \"#utility.yul\":20214:20218   */\n      dup2\n        /* \"#utility.yul\":20210:20230   */\n      sub\n        /* \"#utility.yul\":20206:20207   */\n      0x00\n        /* \"#utility.yul\":20195:20204   */\n      dup4\n        /* \"#utility.yul\":20191:20208   */\n      add\n        /* \"#utility.yul\":20184:20231   */\n      mstore\n        /* \"#utility.yul\":20248:20379   */\n      tag_407\n        /* \"#utility.yul\":20374:20378   */\n      dup2\n        /* \"#utility.yul\":20248:20379   */\n      tag_200\n      jump\t// in\n    tag_407:\n        /* \"#utility.yul\":20240:20379   */\n      swap1\n      pop\n        /* \"#utility.yul\":19967:20386   */\n      swap2\n      swap1\n      pop\n      jump\t// out\n        /* \"#utility.yul\":20392:20722   */\n    tag_99:\n        /* \"#utility.yul\":20512:20516   */\n      0x00\n        /* \"#utility.yul\":20550:20552   */\n      0x40\n        /* \"#utility.yul\":20539:20548   */\n      dup3\n        /* \"#utility.yul\":20535:20553   */\n      add\n        /* \"#utility.yul\":20527:20553   */\n      swap1\n      pop\n        /* \"#utility.yul\":20563:20634   */\n      tag_409\n        /* \"#utility.yul\":20631:20632   */\n      0x00\n        /* \"#utility.yul\":20620:20629   */\n      dup4\n        /* \"#utility.yul\":20616:20633   */\n      add\n        /* \"#utility.yul\":20607:20613   */\n      dup6\n        /* \"#utility.yul\":20563:20634   */\n      tag_159\n      jump\t// in\n    tag_409:\n        /* \"#utility.yul\":20644:20715   */\n      tag_410\n        /* \"#utility.yul\":20711:20713   */\n      0x20\n        /* \"#utility.yul\":20700:20709   */\n      dup4\n        /* \"#utility.yul\":20696:20714   */\n      add\n        /* \"#utility.yul\":20687:20693   */\n      dup5\n        /* \"#utility.yul\":20644:20715   */\n      tag_197\n      jump\t// in\n    tag_410:\n        /* \"#utility.yul\":20392:20722   */\n      swap4\n      swap3\n      pop\n      pop\n      pop\n      jump\t// out\n        /* \"#utility.yul\":20728:20844   */\n    tag_201:\n        /* \"#utility.yul\":20798:20819   */\n      tag_412\n        /* \"#utility.yul\":20813:20818   */\n      dup2\n        /* \"#utility.yul\":20798:20819   */\n      tag_156\n      jump\t// in\n    tag_412:\n        /* \"#utility.yul\":20791:20796   */\n      dup2\n        /* \"#utility.yul\":20788:20820   */\n      eq\n        /* \"#utility.yul\":20778:20838   */\n      tag_413\n      jumpi\n        /* \"#utility.yul\":20834:20835   */\n      0x00\n        /* \"#utility.yul\":20831:20832   */\n      dup1\n        /* \"#utility.yul\":20824:20836   */\n      revert\n        /* \"#utility.yul\":20778:20838   */\n    tag_413:\n        /* \"#utility.yul\":20728:20844   */\n      pop\n      jump\t// out\n        /* \"#utility.yul\":20850:20987   */\n    tag_202:\n        /* \"#utility.yul\":20904:20909   */\n      0x00\n        /* \"#utility.yul\":20935:20941   */\n      dup2\n        /* \"#utility.yul\":20929:20942   */\n      mload\n        /* \"#utility.yul\":20920:20942   */\n      swap1\n      pop\n        /* \"#utility.yul\":20951:20981   */\n      tag_415\n        /* \"#utility.yul\":20975:20980   */\n      dup2\n        /* \"#utility.yul\":20951:20981   */\n      tag_201\n      jump\t// in\n    tag_415:\n        /* \"#utility.yul\":20850:20987   */\n      swap3\n      swap2\n      pop\n      pop\n      jump\t// out\n        /* \"#utility.yul\":20993:21338   */\n    tag_103:\n        /* \"#utility.yul\":21060:21066   */\n      0x00\n        /* \"#utility.yul\":21109:21111   */\n      0x20\n        /* \"#utility.yul\":21097:21106   */\n      dup3\n        /* \"#utility.yul\":21088:21095   */\n      dup5\n        /* \"#utility.yul\":21084:21107   */\n      sub\n        /* \"#utility.yul\":21080:21112   */\n      slt\n        /* \"#utility.yul\":21077:21196   */\n      iszero\n      tag_417\n      jumpi\n        /* \"#utility.yul\":21115:21194   */\n      tag_418\n      tag_150\n      jump\t// in\n    tag_418:\n        /* \"#utility.yul\":21077:21196   */\n    tag_417:\n        /* \"#utility.yul\":21235:21236   */\n      0x00\n        /* \"#utility.yul\":21260:21321   */\n      tag_419\n        /* \"#utility.yul\":21313:21320   */\n      dup5\n        /* \"#utility.yul\":21304:21310   */\n      dup3\n        /* \"#utility.yul\":21293:21302   */\n      dup6\n        /* \"#utility.yul\":21289:21311   */\n      add\n        /* \"#utility.yul\":21260:21321   */\n      tag_202\n      jump\t// in\n    tag_419:\n        /* \"#utility.yul\":21250:21321   */\n      swap2\n      pop\n        /* \"#utility.yul\":21206:21331   */\n      pop\n        /* \"#utility.yul\":20993:21338   */\n      swap3\n      swap2\n      pop\n      pop\n      jump\t// out\n        /* \"#utility.yul\":21344:21586   */\n    tag_203:\n        /* \"#utility.yul\":21484:21518   */\n      0x4f6e6c7920746865206f776e6572206f7220617070726f766564206164647265\n        /* \"#utility.yul\":21480:21481   */\n      0x00\n        /* \"#utility.yul\":21472:21478   */\n      dup3\n        /* \"#utility.yul\":21468:21482   */\n      add\n        /* \"#utility.yul\":21461:21519   */\n      mstore\n        /* \"#utility.yul\":21553:21578   */\n      0x737365732063616e207375626d6974206120636c61696d000000000000000000\n        /* \"#utility.yul\":21548:21550   */\n      0x20\n        /* \"#utility.yul\":21540:21546   */\n      dup3\n        /* \"#utility.yul\":21536:21551   */\n      add\n        /* \"#utility.yul\":21529:21579   */\n      mstore\n        /* \"#utility.yul\":21344:21586   */\n      pop\n      jump\t// out\n        /* \"#utility.yul\":21592:21958   */\n    tag_204:\n        /* \"#utility.yul\":21734:21737   */\n      0x00\n        /* \"#utility.yul\":21755:21822   */\n      tag_422\n        /* \"#utility.yul\":21819:21821   */\n      0x37\n        /* \"#utility.yul\":21814:21817   */\n      dup4\n        /* \"#utility.yul\":21755:21822   */\n      tag_171\n      jump\t// in\n    tag_422:\n        /* \"#utility.yul\":21748:21822   */\n      swap2\n      pop\n        /* \"#utility.yul\":21831:21924   */\n      tag_423\n        /* \"#utility.yul\":21920:21923   */\n      dup3\n        /* \"#utility.yul\":21831:21924   */\n      tag_203\n      jump\t// in\n    tag_423:\n        /* \"#utility.yul\":21949:21951   */\n      0x40\n        /* \"#utility.yul\":21944:21947   */\n      dup3\n        /* \"#utility.yul\":21940:21952   */\n      add\n        /* \"#utility.yul\":21933:21952   */\n      swap1\n      pop\n        /* \"#utility.yul\":21592:21958   */\n      swap2\n      swap1\n      pop\n      jump\t// out\n        /* \"#utility.yul\":21964:22383   */\n    tag_106:\n        /* \"#utility.yul\":22130:22134   */\n      0x00\n        /* \"#utility.yul\":22168:22170   */\n      0x20\n        /* \"#utility.yul\":22157:22166   */\n      dup3\n        /* \"#utility.yul\":22153:22171   */\n      add\n        /* \"#utility.yul\":22145:22171   */\n      swap1\n      pop\n        /* \"#utility.yul\":22217:22226   */\n      dup2\n        /* \"#utility.yul\":22211:22215   */\n      dup2\n        /* \"#utility.yul\":22207:22227   */\n      sub\n        /* \"#utility.yul\":22203:22204   */\n      0x00\n        /* \"#utility.yul\":22192:22201   */\n      dup4\n        /* \"#utility.yul\":22188:22205   */\n      add\n        /* \"#utility.yul\":22181:22228   */\n      mstore\n        /* \"#utility.yul\":22245:22376   */\n      tag_425\n        /* \"#utility.yul\":22371:22375   */\n      dup2\n        /* \"#utility.yul\":22245:22376   */\n      tag_204\n      jump\t// in\n    tag_425:\n        /* \"#utility.yul\":22237:22376   */\n      swap1\n      pop\n        /* \"#utility.yul\":21964:22383   */\n      swap2\n      swap1\n      pop\n      jump\t// out\n        /* \"#utility.yul\":22389:22740   */\n    tag_113:\n        /* \"#utility.yul\":22459:22465   */\n      0x00\n        /* \"#utility.yul\":22508:22510   */\n      0x20\n        /* \"#utility.yul\":22496:22505   */\n      dup3\n        /* \"#utility.yul\":22487:22494   */\n      dup5\n        /* \"#utility.yul\":22483:22506   */\n      sub\n        /* \"#utility.yul\":22479:22511   */\n      slt\n        /* \"#utility.yul\":22476:22595   */\n      iszero\n      tag_427\n      jumpi\n        /* \"#utility.yul\":22514:22593   */\n      tag_428\n      tag_150\n      jump\t// in\n    tag_428:\n        /* \"#utility.yul\":22476:22595   */\n    tag_427:\n        /* \"#utility.yul\":22634:22635   */\n      0x00\n        /* \"#utility.yul\":22659:22723   */\n      tag_429\n        /* \"#utility.yul\":22715:22722   */\n      dup5\n        /* \"#utility.yul\":22706:22712   */\n      dup3\n        /* \"#utility.yul\":22695:22704   */\n      dup6\n        /* \"#utility.yul\":22691:22713   */\n      add\n        /* \"#utility.yul\":22659:22723   */\n      tag_182\n      jump\t// in\n    tag_429:\n        /* \"#utility.yul\":22649:22723   */\n      swap2\n      pop\n        /* \"#utility.yul\":22605:22733   */\n      pop\n        /* \"#utility.yul\":22389:22740   */\n      swap3\n      swap2\n      pop\n      pop\n      jump\t// out\n        /* \"#utility.yul\":22746:22918   */\n    tag_205:\n        /* \"#utility.yul\":22886:22910   */\n      0x41207061796f757420616c726561647920657869737400000000000000000000\n        /* \"#utility.yul\":22882:22883   */\n      0x00\n        /* \"#utility.yul\":22874:22880   */\n      dup3\n        /* \"#utility.yul\":22870:22884   */\n      add\n        /* \"#utility.yul\":22863:22911   */\n      mstore\n        /* \"#utility.yul\":22746:22918   */\n      pop\n      jump\t// out\n        /* \"#utility.yul\":22924:23290   */\n    tag_206:\n        /* \"#utility.yul\":23066:23069   */\n      0x00\n        /* \"#utility.yul\":23087:23154   */\n      tag_432\n        /* \"#utility.yul\":23151:23153   */\n      0x16\n        /* \"#utility.yul\":23146:23149   */\n      dup4\n        /* \"#utility.yul\":23087:23154   */\n      tag_171\n      jump\t// in\n    tag_432:\n        /* \"#utility.yul\":23080:23154   */\n      swap2\n      pop\n        /* \"#utility.yul\":23163:23256   */\n      tag_433\n        /* \"#utility.yul\":23252:23255   */\n      dup3\n        /* \"#utility.yul\":23163:23256   */\n      tag_205\n      jump\t// in\n    tag_433:\n        /* \"#utility.yul\":23281:23283   */\n      0x20\n        /* \"#utility.yul\":23276:23279   */\n      dup3\n        /* \"#utility.yul\":23272:23284   */\n      add\n        /* \"#utility.yul\":23265:23284   */\n      swap1\n      pop\n        /* \"#utility.yul\":22924:23290   */\n      swap2\n      swap1\n      pop\n      jump\t// out\n        /* \"#utility.yul\":23296:23715   */\n    tag_126:\n        /* \"#utility.yul\":23462:23466   */\n      0x00\n        /* \"#utility.yul\":23500:23502   */\n      0x20\n        /* \"#utility.yul\":23489:23498   */\n      dup3\n        /* \"#utility.yul\":23485:23503   */\n      add\n        /* \"#utility.yul\":23477:23503   */\n      swap1\n      pop\n        /* \"#utility.yul\":23549:23558   */\n      dup2\n        /* \"#utility.yul\":23543:23547   */\n      dup2\n        /* \"#utility.yul\":23539:23559   */\n      sub\n        /* \"#utility.yul\":23535:23536   */\n      0x00\n        /* \"#utility.yul\":23524:23533   */\n      dup4\n        /* \"#utility.yul\":23520:23537   */\n      add\n        /* \"#utility.yul\":23513:23560   */\n      mstore\n        /* \"#utility.yul\":23577:23708   */\n      tag_435\n        /* \"#utility.yul\":23703:23707   */\n      dup2\n        /* \"#utility.yul\":23577:23708   */\n      tag_206\n      jump\t// in\n    tag_435:\n        /* \"#utility.yul\":23569:23708   */\n      swap1\n      pop\n        /* \"#utility.yul\":23296:23715   */\n      swap2\n      swap1\n      pop\n      jump\t// out\n\n    auxdata: 0xa26469706673582212201a418c70966d2e3e4ce30d55e40f266450d2611c4d4453ee1690914e6d84e0cc64736f6c63430008130033\n}\n",
				"bytecode": {
					"linkReferences": {},
					"object": "60c06040523480156200001157600080fd5b5060405162001b1438038062001b14833981810160405281019062000037919062000152565b8273ffffffffffffffffffffffffffffffffffffffff1660808173ffffffffffffffffffffffffffffffffffffffff16815250508173ffffffffffffffffffffffffffffffffffffffff1660a08173ffffffffffffffffffffffffffffffffffffffff1681525050806000806101000a81548173ffffffffffffffffffffffffffffffffffffffff021916908373ffffffffffffffffffffffffffffffffffffffff160217905550505050620001ae565b600080fd5b600073ffffffffffffffffffffffffffffffffffffffff82169050919050565b60006200011a82620000ed565b9050919050565b6200012c816200010d565b81146200013857600080fd5b50565b6000815190506200014c8162000121565b92915050565b6000806000606084860312156200016e576200016d620000e8565b5b60006200017e868287016200013b565b935050602062000191868287016200013b565b9250506040620001a4868287016200013b565b9150509250925092565b60805160a051611939620001db600039600081816101ce015261067c0152600061056c01526119396000f3fe6080604052600436106100705760003560e01c8063a888c2cd1161004e578063a888c2cd14610107578063b2e7d7ae14610146578063caf3086914610171578063ee97f7f3146101a157610070565b806342e53fcf1461007557806372c3c31e146100a05780638b79b22d146100c9575b600080fd5b34801561008157600080fd5b5061008a6101cc565b6040516100979190610dd2565b60405180910390f35b3480156100ac57600080fd5b506100c760048036038101906100c29190610e37565b6101f0565b005b3480156100d557600080fd5b506100f060048036038101906100eb9190610e37565b6104d2565b6040516100fe929190610e8e565b60405180910390f35b34801561011357600080fd5b5061012e60048036038101906101299190610e37565b610503565b60405161013d93929190610ed8565b60405180910390f35b34801561015257600080fd5b5061015b61056a565b6040516101689190610f30565b60405180910390f35b61018b60048036038101906101869190610f87565b61058e565b6040516101989190611023565b60405180910390f35b3480156101ad57600080fd5b506101b6610770565b6040516101c3919061105f565b60405180910390f35b7f000000000000000000000000000000000000000000000000000000000000000081565b6000600260008381526020019081526020016000206000015490506000600182815481106102215761022061107a565b5b9060005260206000209060020201604051806060016040529081600082015481526020016001820160009054906101000a900473ffffffffffffffffffffffffffffffffffffffff1673ffffffffffffffffffffffffffffffffffffffff1673ffffffffffffffffffffffffffffffffffffffff1681526020016001820160149054906101000a900460ff16151515158152505090508060400151156102fc576040517f08c379a00000000000000000000000000000000000000000000000000000000081526004016102f390611106565b60405180910390fd5b6000610306610794565b9050600061031261082b565b9050600061031e6108c2565b90508273ffffffffffffffffffffffffffffffffffffffff1663cf8d133f85602001518473ffffffffffffffffffffffffffffffffffffffff1663bc12dfc48573ffffffffffffffffffffffffffffffffffffffff1662407d2a8a600001516040518263ffffffff1660e01b81526004016103999190611126565b600060405180830381865afa1580156103b6573d6000803e3d6000fd5b505050506040513d6000823e3d601f19601f820116820180604052508101906103df9190611415565b6040518263ffffffff1660e01b81526004016103fb91906115a2565b6020604051808303816000875af115801561041a573d6000803e3d6000fd5b505050506040513d601f19601f8201168201806040525081019061043e91906115c4565b6040518363ffffffff1660e01b815260040161045b929190611612565b600060405180830381600087803b15801561047557600080fd5b505af1158015610489573d6000803e3d6000fd5b5050505060018086815481106104a2576104a161107a565b5b906000526020600020906002020160010160146101000a81548160ff021916908315150217905550505050505050565b60026020528060005260406000206000915090508060000154908060010160009054906101000a900460ff16905082565b6001818154811061051357600080fd5b90600052602060002090600202016000915090508060000154908060010160009054906101000a900473ffffffffffffffffffffffffffffffffffffffff16908060010160149054906101000a900460ff16905083565b7f000000000000000000000000000000000000000000000000000000000000000081565b610596610d1a565b60006105a06108c2565b905060008173ffffffffffffffffffffffffffffffffffffffff1662407d2a856040518263ffffffff1660e01b81526004016105dc919061166c565b600060405180830381865afa1580156105f9573d6000803e3d6000fd5b505050506040513d6000823e3d601f19601f820116820180604052508101906106229190611415565b9050428160400151826060015161063991906116b6565b111561067a576040517f08c379a000000000000000000000000000000000000000000000000000000000815260040161067190611736565b60405180910390fd5b7f000000000000000000000000000000000000000000000000000000000000000073ffffffffffffffffffffffffffffffffffffffff1663430c208133866040518363ffffffff1660e01b81526004016106d5929190611756565b6020604051808303816000875af11580156106f4573d6000803e3d6000fd5b505050506040513d601f19601f8201168201806040525081019061071891906117ab565b610757576040517f08c379a000000000000000000000000000000000000000000000000000000000815260040161074e9061184a565b60405180910390fd5b6107678463ffffffff1633610959565b92505050919050565b60008054906101000a900473ffffffffffffffffffffffffffffffffffffffff1681565b60008060009054906101000a900473ffffffffffffffffffffffffffffffffffffffff1673ffffffffffffffffffffffffffffffffffffffff16639ccc903d6040518163ffffffff1660e01b8152600401602060405180830381865afa158015610802573d6000803e3d6000fd5b505050506040513d601f19601f82011682018060405250810190610826919061186a565b905090565b60008060009054906101000a900473ffffffffffffffffffffffffffffffffffffffff1673ffffffffffffffffffffffffffffffffffffffff1663ff5f1b9f6040518163ffffffff1660e01b8152600401602060405180830381865afa158015610899573d6000803e3d6000fd5b505050506040513d601f19601f820116820180604052508101906108bd919061186a565b905090565b60008060009054906101000a900473ffffffffffffffffffffffffffffffffffffffff1673ffffffffffffffffffffffffffffffffffffffff1663e67cdafd6040518163ffffffff1660e01b8152600401602060405180830381865afa158015610930573d6000803e3d6000fd5b505050506040513d601f19601f82011682018060405250810190610954919061186a565b905090565b610961610d1a565b600060026000858152602001908152602001600020604051806040016040529081600082015481526020016001820160009054906101000a900460ff16151515158152505090508060200151156109ed576040517f08c379a00000000000000000000000000000000000000000000000000000000081526004016109e4906118e3565b60405180910390fd5b6040518060400160405280600180549050815260200160011515815250600260008681526020019081526020016000206000820151816000015560208201518160010160006101000a81548160ff021916908315150217905550905050600060405180606001604052808681526020018573ffffffffffffffffffffffffffffffffffffffff16815260200160001515815250905060018190806001815401808255809150506001900390600052602060002090600202016000909190919091506000820151816000015560208201518160010160006101000a81548173ffffffffffffffffffffffffffffffffffffffff021916908373ffffffffffffffffffffffffffffffffffffffff16021790555060408201518160010160146101000a81548160ff02191690831515021790555050506000610b2b6108c2565b90508073ffffffffffffffffffffffffffffffffffffffff16634b61a44b8273ffffffffffffffffffffffffffffffffffffffff1662407d2a896040518263ffffffff1660e01b8152600401610b819190611126565b600060405180830381865afa158015610b9e573d6000803e3d6000fd5b505050506040513d6000823e3d601f19601f82011682018060405250810190610bc79190611415565b602001516040518263ffffffff1660e01b8152600401610be79190611126565b600060405180830381600087803b158015610c0157600080fd5b505af1158015610c15573d6000803e3d6000fd5b5050505060008060009054906101000a900473ffffffffffffffffffffffffffffffffffffffff1673ffffffffffffffffffffffffffffffffffffffff166388ea07516040518163ffffffff1660e01b8152600401602060405180830381865afa158015610c87573d6000803e3d6000fd5b505050506040513d601f19601f82011682018060405250810190610cab919061186a565b90508073ffffffffffffffffffffffffffffffffffffffff1663aa5da0466040518163ffffffff1660e01b8152600401600060405180830381600087803b158015610cf557600080fd5b505af1158015610d09573d6000803e3d6000fd5b505050508294505050505092915050565b604051806060016040528060008152602001600073ffffffffffffffffffffffffffffffffffffffff1681526020016000151581525090565b600073ffffffffffffffffffffffffffffffffffffffff82169050919050565b6000819050919050565b6000610d98610d93610d8e84610d53565b610d73565b610d53565b9050919050565b6000610daa82610d7d565b9050919050565b6000610dbc82610d9f565b9050919050565b610dcc81610db1565b82525050565b6000602082019050610de76000830184610dc3565b92915050565b6000604051905090565b600080fd5b600080fd5b6000819050919050565b610e1481610e01565b8114610e1f57600080fd5b50565b600081359050610e3181610e0b565b92915050565b600060208284031215610e4d57610e4c610df7565b5b6000610e5b84828501610e22565b91505092915050565b610e6d81610e01565b82525050565b60008115159050919050565b610e8881610e73565b82525050565b6000604082019050610ea36000830185610e64565b610eb06020830184610e7f565b9392505050565b6000610ec282610d53565b9050919050565b610ed281610eb7565b82525050565b6000606082019050610eed6000830186610e64565b610efa6020830185610ec9565b610f076040830184610e7f565b949350505050565b6000610f1a82610d9f565b9050919050565b610f2a81610f0f565b82525050565b6000602082019050610f456000830184610f21565b92915050565b600063ffffffff82169050919050565b610f6481610f4b565b8114610f6f57600080fd5b50565b600081359050610f8181610f5b565b92915050565b600060208284031215610f9d57610f9c610df7565b5b6000610fab84828501610f72565b91505092915050565b610fbd81610e01565b82525050565b610fcc81610eb7565b82525050565b610fdb81610e73565b82525050565b606082016000820151610ff76000850182610fb4565b50602082015161100a6020850182610fc3565b50604082015161101d6040850182610fd2565b50505050565b60006060820190506110386000830184610fe1565b92915050565b600061104982610d9f565b9050919050565b6110598161103e565b82525050565b60006020820190506110746000830184611050565b92915050565b7f4e487b7100000000000000000000000000000000000000000000000000000000600052603260045260246000fd5b600082825260208201905092915050565b7f5061796f75742068617320616c7265616479206265656e2072656465656d6564600082015250565b60006110f06020836110a9565b91506110fb826110ba565b602082019050919050565b6000602082019050818103600083015261111f816110e3565b9050919050565b600060208201905061113b6000830184610e64565b92915050565b600080fd5b6000601f19601f8301169050919050565b7f4e487b7100000000000000000000000000000000000000000000000000000000600052604160045260246000fd5b61118f82611146565b810181811067ffffffffffffffff821117156111ae576111ad611157565b5b80604052505050565b60006111c1610ded565b90506111cd8282611186565b919050565b600080fd5b6000815190506111e681610e0b565b92915050565b6111f581610eb7565b811461120057600080fd5b50565b600081519050611212816111ec565b92915050565b600080fd5b600080fd5b600067ffffffffffffffff82111561123d5761123c611157565b5b61124682611146565b9050602081019050919050565b60005b83811015611271578082015181840152602081019050611256565b60008484015250505050565b600061129061128b84611222565b6111b7565b9050828152602081018484840111156112ac576112ab61121d565b5b6112b7848285611253565b509392505050565b600082601f8301126112d4576112d3611218565b5b81516112e484826020860161127d565b91505092915050565b6000610160828403121561130457611303611141565b5b61130f6101606111b7565b9050600061131f848285016111d7565b6000830152506020611333848285016111d7565b6020830152506040611347848285016111d7565b604083015250606061135b848285016111d7565b606083015250608061136f84828501611203565b60808301525060a061138384828501611203565b60a08301525060c0611397848285016111d7565b60c08301525060e06113ab848285016111d7565b60e0830152506101006113c0848285016111d7565b610100830152506101206113d6848285016111d7565b6101208301525061014082015167ffffffffffffffff8111156113fc576113fb6111d2565b5b611408848285016112bf565b6101408301525092915050565b60006020828403121561142b5761142a610df7565b5b600082015167ffffffffffffffff81111561144957611448610dfc565b5b611455848285016112ed565b91505092915050565b600081519050919050565b600082825260208201905092915050565b60006114858261145e565b61148f8185611469565b935061149f818560208601611253565b6114a881611146565b840191505092915050565b6000610160830160008301516114cc6000860182610fb4565b5060208301516114df6020860182610fb4565b5060408301516114f26040860182610fb4565b5060608301516115056060860182610fb4565b5060808301516115186080860182610fc3565b5060a083015161152b60a0860182610fc3565b5060c083015161153e60c0860182610fb4565b5060e083015161155160e0860182610fb4565b50610100830151611566610100860182610fb4565b5061012083015161157b610120860182610fb4565b50610140830151848203610140860152611595828261147a565b9150508091505092915050565b600060208201905081810360008301526115bc81846114b3565b905092915050565b6000602082840312156115da576115d9610df7565b5b60006115e8848285016111d7565b91505092915050565b60006115fc82610d53565b9050919050565b61160c816115f1565b82525050565b60006040820190506116276000830185611603565b6116346020830184610e64565b9392505050565b600061165661165161164c84610f4b565b610d73565b610e01565b9050919050565b6116668161163b565b82525050565b6000602082019050611681600083018461165d565b92915050565b7f4e487b7100000000000000000000000000000000000000000000000000000000600052601160045260246000fd5b60006116c182610e01565b91506116cc83610e01565b92508282019050808211156116e4576116e3611687565b5b92915050565b7f4f6e6c79207375626d697420636c61696d206166746572206578706972790000600082015250565b6000611720601e836110a9565b915061172b826116ea565b602082019050919050565b6000602082019050818103600083015261174f81611713565b9050919050565b600060408201905061176b6000830185610ec9565b611778602083018461165d565b9392505050565b61178881610e73565b811461179357600080fd5b50565b6000815190506117a58161177f565b92915050565b6000602082840312156117c1576117c0610df7565b5b60006117cf84828501611796565b91505092915050565b7f4f6e6c7920746865206f776e6572206f7220617070726f76656420616464726560008201527f737365732063616e207375626d6974206120636c61696d000000000000000000602082015250565b60006118346037836110a9565b915061183f826117d8565b604082019050919050565b6000602082019050818103600083015261186381611827565b9050919050565b6000602082840312156118805761187f610df7565b5b600061188e84828501611203565b91505092915050565b7f41207061796f757420616c726561647920657869737400000000000000000000600082015250565b60006118cd6016836110a9565b91506118d882611897565b602082019050919050565b600060208201905081810360008301526118fc816118c0565b905091905056fea26469706673582212201a418c70966d2e3e4ce30d55e40f266450d2611c4d4453ee1690914e6d84e0cc64736f6c63430008130033",
					"opcodes": "PUSH1 0xC0 PUSH1 0x40 MSTORE CALLVALUE DUP1 ISZERO PUSH3 0x11 JUMPI PUSH1 0x0 DUP1 REVERT JUMPDEST POP PUSH1 0x40 MLOAD PUSH3 0x1B14 CODESIZE SUB DUP1 PUSH3 0x1B14 DUP4 CODECOPY DUP2 DUP2 ADD PUSH1 0x40 MSTORE DUP2 ADD SWAP1 PUSH3 0x37 SWAP2 SWAP1 PUSH3 0x152 JUMP JUMPDEST DUP3 PUSH20 0xFFFFFFFFFFFFFFFFFFFFFFFFFFFFFFFFFFFFFFFF AND PUSH1 0x80 DUP2 PUSH20 0xFFFFFFFFFFFFFFFFFFFFFFFFFFFFFFFFFFFFFFFF AND DUP2 MSTORE POP POP DUP2 PUSH20 0xFFFFFFFFFFFFFFFFFFFFFFFFFFFFFFFFFFFFFFFF AND PUSH1 0xA0 DUP2 PUSH20 0xFFFFFFFFFFFFFFFFFFFFFFFFFFFFFFFFFFFFFFFF AND DUP2 MSTORE POP POP DUP1 PUSH1 0x0 DUP1 PUSH2 0x100 EXP DUP2 SLOAD DUP2 PUSH20 0xFFFFFFFFFFFFFFFFFFFFFFFFFFFFFFFFFFFFFFFF MUL NOT AND SWAP1 DUP4 PUSH20 0xFFFFFFFFFFFFFFFFFFFFFFFFFFFFFFFFFFFFFFFF AND MUL OR SWAP1 SSTORE POP POP POP POP PUSH3 0x1AE JUMP JUMPDEST PUSH1 0x0 DUP1 REVERT JUMPDEST PUSH1 0x0 PUSH20 0xFFFFFFFFFFFFFFFFFFFFFFFFFFFFFFFFFFFFFFFF DUP3 AND SWAP1 POP SWAP2 SWAP1 POP JUMP JUMPDEST PUSH1 0x0 PUSH3 0x11A DUP3 PUSH3 0xED JUMP JUMPDEST SWAP1 POP SWAP2 SWAP1 POP JUMP JUMPDEST PUSH3 0x12C DUP2 PUSH3 0x10D JUMP JUMPDEST DUP2 EQ PUSH3 0x138 JUMPI PUSH1 0x0 DUP1 REVERT JUMPDEST POP JUMP JUMPDEST PUSH1 0x0 DUP2 MLOAD SWAP1 POP PUSH3 0x14C DUP2 PUSH3 0x121 JUMP JUMPDEST SWAP3 SWAP2 POP POP JUMP JUMPDEST PUSH1 0x0 DUP1 PUSH1 0x0 PUSH1 0x60 DUP5 DUP7 SUB SLT ISZERO PUSH3 0x16E JUMPI PUSH3 0x16D PUSH3 0xE8 JUMP JUMPDEST JUMPDEST PUSH1 0x0 PUSH3 0x17E DUP7 DUP3 DUP8 ADD PUSH3 0x13B JUMP JUMPDEST SWAP4 POP POP PUSH1 0x20 PUSH3 0x191 DUP7 DUP3 DUP8 ADD PUSH3 0x13B JUMP JUMPDEST SWAP3 POP POP PUSH1 0x40 PUSH3 0x1A4 DUP7 DUP3 DUP8 ADD PUSH3 0x13B JUMP JUMPDEST SWAP2 POP POP SWAP3 POP SWAP3 POP SWAP3 JUMP JUMPDEST PUSH1 0x80 MLOAD PUSH1 0xA0 MLOAD PUSH2 0x1939 PUSH3 0x1DB PUSH1 0x0 CODECOPY PUSH1 0x0 DUP2 DUP2 PUSH2 0x1CE ADD MSTORE PUSH2 0x67C ADD MSTORE PUSH1 0x0 PUSH2 0x56C ADD MSTORE PUSH2 0x1939 PUSH1 0x0 RETURN INVALID PUSH1 0x80 PUSH1 0x40 MSTORE PUSH1 0x4 CALLDATASIZE LT PUSH2 0x70 JUMPI PUSH1 0x0 CALLDATALOAD PUSH1 0xE0 SHR DUP1 PUSH4 0xA888C2CD GT PUSH2 0x4E JUMPI DUP1 PUSH4 0xA888C2CD EQ PUSH2 0x107 JUMPI DUP1 PUSH4 0xB2E7D7AE EQ PUSH2 0x146 JUMPI DUP1 PUSH4 0xCAF30869 EQ PUSH2 0x171 JUMPI DUP1 PUSH4 0xEE97F7F3 EQ PUSH2 0x1A1 JUMPI PUSH2 0x70 JUMP JUMPDEST DUP1 PUSH4 0x42E53FCF EQ PUSH2 0x75 JUMPI DUP1 PUSH4 0x72C3C31E EQ PUSH2 0xA0 JUMPI DUP1 PUSH4 0x8B79B22D EQ PUSH2 0xC9 JUMPI JUMPDEST PUSH1 0x0 DUP1 REVERT JUMPDEST CALLVALUE DUP1 ISZERO PUSH2 0x81 JUMPI PUSH1 0x0 DUP1 REVERT JUMPDEST POP PUSH2 0x8A PUSH2 0x1CC JUMP JUMPDEST PUSH1 0x40 MLOAD PUSH2 0x97 SWAP2 SWAP1 PUSH2 0xDD2 JUMP JUMPDEST PUSH1 0x40 MLOAD DUP1 SWAP2 SUB SWAP1 RETURN JUMPDEST CALLVALUE DUP1 ISZERO PUSH2 0xAC JUMPI PUSH1 0x0 DUP1 REVERT JUMPDEST POP PUSH2 0xC7 PUSH1 0x4 DUP1 CALLDATASIZE SUB DUP2 ADD SWAP1 PUSH2 0xC2 SWAP2 SWAP1 PUSH2 0xE37 JUMP JUMPDEST PUSH2 0x1F0 JUMP JUMPDEST STOP JUMPDEST CALLVALUE DUP1 ISZERO PUSH2 0xD5 JUMPI PUSH1 0x0 DUP1 REVERT JUMPDEST POP PUSH2 0xF0 PUSH1 0x4 DUP1 CALLDATASIZE SUB DUP2 ADD SWAP1 PUSH2 0xEB SWAP2 SWAP1 PUSH2 0xE37 JUMP JUMPDEST PUSH2 0x4D2 JUMP JUMPDEST PUSH1 0x40 MLOAD PUSH2 0xFE SWAP3 SWAP2 SWAP1 PUSH2 0xE8E JUMP JUMPDEST PUSH1 0x40 MLOAD DUP1 SWAP2 SUB SWAP1 RETURN JUMPDEST CALLVALUE DUP1 ISZERO PUSH2 0x113 JUMPI PUSH1 0x0 DUP1 REVERT JUMPDEST POP PUSH2 0x12E PUSH1 0x4 DUP1 CALLDATASIZE SUB DUP2 ADD SWAP1 PUSH2 0x129 SWAP2 SWAP1 PUSH2 0xE37 JUMP JUMPDEST PUSH2 0x503 JUMP JUMPDEST PUSH1 0x40 MLOAD PUSH2 0x13D SWAP4 SWAP3 SWAP2 SWAP1 PUSH2 0xED8 JUMP JUMPDEST PUSH1 0x40 MLOAD DUP1 SWAP2 SUB SWAP1 RETURN JUMPDEST CALLVALUE DUP1 ISZERO PUSH2 0x152 JUMPI PUSH1 0x0 DUP1 REVERT JUMPDEST POP PUSH2 0x15B PUSH2 0x56A JUMP JUMPDEST PUSH1 0x40 MLOAD PUSH2 0x168 SWAP2 SWAP1 PUSH2 0xF30 JUMP JUMPDEST PUSH1 0x40 MLOAD DUP1 SWAP2 SUB SWAP1 RETURN JUMPDEST PUSH2 0x18B PUSH1 0x4 DUP1 CALLDATASIZE SUB DUP2 ADD SWAP1 PUSH2 0x186 SWAP2 SWAP1 PUSH2 0xF87 JUMP JUMPDEST PUSH2 0x58E JUMP JUMPDEST PUSH1 0x40 MLOAD PUSH2 0x198 SWAP2 SWAP1 PUSH2 0x1023 JUMP JUMPDEST PUSH1 0x40 MLOAD DUP1 SWAP2 SUB SWAP1 RETURN JUMPDEST CALLVALUE DUP1 ISZERO PUSH2 0x1AD JUMPI PUSH1 0x0 DUP1 REVERT JUMPDEST POP PUSH2 0x1B6 PUSH2 0x770 JUMP JUMPDEST PUSH1 0x40 MLOAD PUSH2 0x1C3 SWAP2 SWAP1 PUSH2 0x105F JUMP JUMPDEST PUSH1 0x40 MLOAD DUP1 SWAP2 SUB SWAP1 RETURN JUMPDEST PUSH32 0x0 DUP2 JUMP JUMPDEST PUSH1 0x0 PUSH1 0x2 PUSH1 0x0 DUP4 DUP2 MSTORE PUSH1 0x20 ADD SWAP1 DUP2 MSTORE PUSH1 0x20 ADD PUSH1 0x0 KECCAK256 PUSH1 0x0 ADD SLOAD SWAP1 POP PUSH1 0x0 PUSH1 0x1 DUP3 DUP2 SLOAD DUP2 LT PUSH2 0x221 JUMPI PUSH2 0x220 PUSH2 0x107A JUMP JUMPDEST JUMPDEST SWAP1 PUSH1 0x0 MSTORE PUSH1 0x20 PUSH1 0x0 KECCAK256 SWAP1 PUSH1 0x2 MUL ADD PUSH1 0x40 MLOAD DUP1 PUSH1 0x60 ADD PUSH1 0x40 MSTORE SWAP1 DUP2 PUSH1 0x0 DUP3 ADD SLOAD DUP2 MSTORE PUSH1 0x20 ADD PUSH1 0x1 DUP3 ADD PUSH1 0x0 SWAP1 SLOAD SWAP1 PUSH2 0x100 EXP SWAP1 DIV PUSH20 0xFFFFFFFFFFFFFFFFFFFFFFFFFFFFFFFFFFFFFFFF AND PUSH20 0xFFFFFFFFFFFFFFFFFFFFFFFFFFFFFFFFFFFFFFFF AND PUSH20 0xFFFFFFFFFFFFFFFFFFFFFFFFFFFFFFFFFFFFFFFF AND DUP2 MSTORE PUSH1 0x20 ADD PUSH1 0x1 DUP3 ADD PUSH1 0x14 SWAP1 SLOAD SWAP1 PUSH2 0x100 EXP SWAP1 DIV PUSH1 0xFF AND ISZERO ISZERO ISZERO ISZERO DUP2 MSTORE POP POP SWAP1 POP DUP1 PUSH1 0x40 ADD MLOAD ISZERO PUSH2 0x2FC JUMPI PUSH1 0x40 MLOAD PUSH32 0x8C379A000000000000000000000000000000000000000000000000000000000 DUP2 MSTORE PUSH1 0x4 ADD PUSH2 0x2F3 SWAP1 PUSH2 0x1106 JUMP JUMPDEST PUSH1 0x40 MLOAD DUP1 SWAP2 SUB SWAP1 REVERT JUMPDEST PUSH1 0x0 PUSH2 0x306 PUSH2 0x794 JUMP JUMPDEST SWAP1 POP PUSH1 0x0 PUSH2 0x312 PUSH2 0x82B JUMP JUMPDEST SWAP1 POP PUSH1 0x0 PUSH2 0x31E PUSH2 0x8C2 JUMP JUMPDEST SWAP1 POP DUP3 PUSH20 0xFFFFFFFFFFFFFFFFFFFFFFFFFFFFFFFFFFFFFFFF AND PUSH4 0xCF8D133F DUP6 PUSH1 0x20 ADD MLOAD DUP5 PUSH20 0xFFFFFFFFFFFFFFFFFFFFFFFFFFFFFFFFFFFFFFFF AND PUSH4 0xBC12DFC4 DUP6 PUSH20 0xFFFFFFFFFFFFFFFFFFFFFFFFFFFFFFFFFFFFFFFF AND PUSH3 0x407D2A DUP11 PUSH1 0x0 ADD MLOAD PUSH1 0x40 MLOAD DUP3 PUSH4 0xFFFFFFFF AND PUSH1 0xE0 SHL DUP2 MSTORE PUSH1 0x4 ADD PUSH2 0x399 SWAP2 SWAP1 PUSH2 0x1126 JUMP JUMPDEST PUSH1 0x0 PUSH1 0x40 MLOAD DUP1 DUP4 SUB DUP2 DUP7 GAS STATICCALL ISZERO DUP1 ISZERO PUSH2 0x3B6 JUMPI RETURNDATASIZE PUSH1 0x0 DUP1 RETURNDATACOPY RETURNDATASIZE PUSH1 0x0 REVERT JUMPDEST POP POP POP POP PUSH1 0x40 MLOAD RETURNDATASIZE PUSH1 0x0 DUP3 RETURNDATACOPY RETURNDATASIZE PUSH1 0x1F NOT PUSH1 0x1F DUP3 ADD AND DUP3 ADD DUP1 PUSH1 0x40 MSTORE POP DUP2 ADD SWAP1 PUSH2 0x3DF SWAP2 SWAP1 PUSH2 0x1415 JUMP JUMPDEST PUSH1 0x40 MLOAD DUP3 PUSH4 0xFFFFFFFF AND PUSH1 0xE0 SHL DUP2 MSTORE PUSH1 0x4 ADD PUSH2 0x3FB SWAP2 SWAP1 PUSH2 0x15A2 JUMP JUMPDEST PUSH1 0x20 PUSH1 0x40 MLOAD DUP1 DUP4 SUB DUP2 PUSH1 0x0 DUP8 GAS CALL ISZERO DUP1 ISZERO PUSH2 0x41A JUMPI RETURNDATASIZE PUSH1 0x0 DUP1 RETURNDATACOPY RETURNDATASIZE PUSH1 0x0 REVERT JUMPDEST POP POP POP POP PUSH1 0x40 MLOAD RETURNDATASIZE PUSH1 0x1F NOT PUSH1 0x1F DUP3 ADD AND DUP3 ADD DUP1 PUSH1 0x40 MSTORE POP DUP2 ADD SWAP1 PUSH2 0x43E SWAP2 SWAP1 PUSH2 0x15C4 JUMP JUMPDEST PUSH1 0x40 MLOAD DUP4 PUSH4 0xFFFFFFFF AND PUSH1 0xE0 SHL DUP2 MSTORE PUSH1 0x4 ADD PUSH2 0x45B SWAP3 SWAP2 SWAP1 PUSH2 0x1612 JUMP JUMPDEST PUSH1 0x0 PUSH1 0x40 MLOAD DUP1 DUP4 SUB DUP2 PUSH1 0x0 DUP8 DUP1 EXTCODESIZE ISZERO DUP1 ISZERO PUSH2 0x475 JUMPI PUSH1 0x0 DUP1 REVERT JUMPDEST POP GAS CALL ISZERO DUP1 ISZERO PUSH2 0x489 JUMPI RETURNDATASIZE PUSH1 0x0 DUP1 RETURNDATACOPY RETURNDATASIZE PUSH1 0x0 REVERT JUMPDEST POP POP POP POP PUSH1 0x1 DUP1 DUP7 DUP2 SLOAD DUP2 LT PUSH2 0x4A2 JUMPI PUSH2 0x4A1 PUSH2 0x107A JUMP JUMPDEST JUMPDEST SWAP1 PUSH1 0x0 MSTORE PUSH1 0x20 PUSH1 0x0 KECCAK256 SWAP1 PUSH1 0x2 MUL ADD PUSH1 0x1 ADD PUSH1 0x14 PUSH2 0x100 EXP DUP2 SLOAD DUP2 PUSH1 0xFF MUL NOT AND SWAP1 DUP4 ISZERO ISZERO MUL OR SWAP1 SSTORE POP POP POP POP POP POP POP JUMP JUMPDEST PUSH1 0x2 PUSH1 0x20 MSTORE DUP1 PUSH1 0x0 MSTORE PUSH1 0x40 PUSH1 0x0 KECCAK256 PUSH1 0x0 SWAP2 POP SWAP1 POP DUP1 PUSH1 0x0 ADD SLOAD SWAP1 DUP1 PUSH1 0x1 ADD PUSH1 0x0 SWAP1 SLOAD SWAP1 PUSH2 0x100 EXP SWAP1 DIV PUSH1 0xFF AND SWAP1 POP DUP3 JUMP JUMPDEST PUSH1 0x1 DUP2 DUP2 SLOAD DUP2 LT PUSH2 0x513 JUMPI PUSH1 0x0 DUP1 REVERT JUMPDEST SWAP1 PUSH1 0x0 MSTORE PUSH1 0x20 PUSH1 0x0 KECCAK256 SWAP1 PUSH1 0x2 MUL ADD PUSH1 0x0 SWAP2 POP SWAP1 POP DUP1 PUSH1 0x0 ADD SLOAD SWAP1 DUP1 PUSH1 0x1 ADD PUSH1 0x0 SWAP1 SLOAD SWAP1 PUSH2 0x100 EXP SWAP1 DIV PUSH20 0xFFFFFFFFFFFFFFFFFFFFFFFFFFFFFFFFFFFFFFFF AND SWAP1 DUP1 PUSH1 0x1 ADD PUSH1 0x14 SWAP1 SLOAD SWAP1 PUSH2 0x100 EXP SWAP1 DIV PUSH1 0xFF AND SWAP1 POP DUP4 JUMP JUMPDEST PUSH32 0x0 DUP2 JUMP JUMPDEST PUSH2 0x596 PUSH2 0xD1A JUMP JUMPDEST PUSH1 0x0 PUSH2 0x5A0 PUSH2 0x8C2 JUMP JUMPDEST SWAP1 POP PUSH1 0x0 DUP2 PUSH20 0xFFFFFFFFFFFFFFFFFFFFFFFFFFFFFFFFFFFFFFFF AND PUSH3 0x407D2A DUP6 PUSH1 0x40 MLOAD DUP3 PUSH4 0xFFFFFFFF AND PUSH1 0xE0 SHL DUP2 MSTORE PUSH1 0x4 ADD PUSH2 0x5DC SWAP2 SWAP1 PUSH2 0x166C JUMP JUMPDEST PUSH1 0x0 PUSH1 0x40 MLOAD DUP1 DUP4 SUB DUP2 DUP7 GAS STATICCALL ISZERO DUP1 ISZERO PUSH2 0x5F9 JUMPI RETURNDATASIZE PUSH1 0x0 DUP1 RETURNDATACOPY RETURNDATASIZE PUSH1 0x0 REVERT JUMPDEST POP POP POP POP PUSH1 0x40 MLOAD RETURNDATASIZE PUSH1 0x0 DUP3 RETURNDATACOPY RETURNDATASIZE PUSH1 0x1F NOT PUSH1 0x1F DUP3 ADD AND DUP3 ADD DUP1 PUSH1 0x40 MSTORE POP DUP2 ADD SWAP1 PUSH2 0x622 SWAP2 SWAP1 PUSH2 0x1415 JUMP JUMPDEST SWAP1 POP TIMESTAMP DUP2 PUSH1 0x40 ADD MLOAD DUP3 PUSH1 0x60 ADD MLOAD PUSH2 0x639 SWAP2 SWAP1 PUSH2 0x16B6 JUMP JUMPDEST GT ISZERO PUSH2 0x67A JUMPI PUSH1 0x40 MLOAD PUSH32 0x8C379A000000000000000000000000000000000000000000000000000000000 DUP2 MSTORE PUSH1 0x4 ADD PUSH2 0x671 SWAP1 PUSH2 0x1736 JUMP JUMPDEST PUSH1 0x40 MLOAD DUP1 SWAP2 SUB SWAP1 REVERT JUMPDEST PUSH32 0x0 PUSH20 0xFFFFFFFFFFFFFFFFFFFFFFFFFFFFFFFFFFFFFFFF AND PUSH4 0x430C2081 CALLER DUP7 PUSH1 0x40 MLOAD DUP4 PUSH4 0xFFFFFFFF AND PUSH1 0xE0 SHL DUP2 MSTORE PUSH1 0x4 ADD PUSH2 0x6D5 SWAP3 SWAP2 SWAP1 PUSH2 0x1756 JUMP JUMPDEST PUSH1 0x20 PUSH1 0x40 MLOAD DUP1 DUP4 SUB DUP2 PUSH1 0x0 DUP8 GAS CALL ISZERO DUP1 ISZERO PUSH2 0x6F4 JUMPI RETURNDATASIZE PUSH1 0x0 DUP1 RETURNDATACOPY RETURNDATASIZE PUSH1 0x0 REVERT JUMPDEST POP POP POP POP PUSH1 0x40 MLOAD RETURNDATASIZE PUSH1 0x1F NOT PUSH1 0x1F DUP3 ADD AND DUP3 ADD DUP1 PUSH1 0x40 MSTORE POP DUP2 ADD SWAP1 PUSH2 0x718 SWAP2 SWAP1 PUSH2 0x17AB JUMP JUMPDEST PUSH2 0x757 JUMPI PUSH1 0x40 MLOAD PUSH32 0x8C379A000000000000000000000000000000000000000000000000000000000 DUP2 MSTORE PUSH1 0x4 ADD PUSH2 0x74E SWAP1 PUSH2 0x184A JUMP JUMPDEST PUSH1 0x40 MLOAD DUP1 SWAP2 SUB SWAP1 REVERT JUMPDEST PUSH2 0x767 DUP5 PUSH4 0xFFFFFFFF AND CALLER PUSH2 0x959 JUMP JUMPDEST SWAP3 POP POP POP SWAP2 SWAP1 POP JUMP JUMPDEST PUSH1 0x0 DUP1 SLOAD SWAP1 PUSH2 0x100 EXP SWAP1 DIV PUSH20 0xFFFFFFFFFFFFFFFFFFFFFFFFFFFFFFFFFFFFFFFF AND DUP2 JUMP JUMPDEST PUSH1 0x0 DUP1 PUSH1 0x0 SWAP1 SLOAD SWAP1 PUSH2 0x100 EXP SWAP1 DIV PUSH20 0xFFFFFFFFFFFFFFFFFFFFFFFFFFFFFFFFFFFFFFFF AND PUSH20 0xFFFFFFFFFFFFFFFFFFFFFFFFFFFFFFFFFFFFFFFF AND PUSH4 0x9CCC903D PUSH1 0x40 MLOAD DUP2 PUSH4 0xFFFFFFFF AND PUSH1 0xE0 SHL DUP2 MSTORE PUSH1 0x4 ADD PUSH1 0x20 PUSH1 0x40 MLOAD DUP1 DUP4 SUB DUP2 DUP7 GAS STATICCALL ISZERO DUP1 ISZERO PUSH2 0x802 JUMPI RETURNDATASIZE PUSH1 0x0 DUP1 RETURNDATACOPY RETURNDATASIZE PUSH1 0x0 REVERT JUMPDEST POP POP POP POP PUSH1 0x40 MLOAD RETURNDATASIZE PUSH1 0x1F NOT PUSH1 0x1F DUP3 ADD AND DUP3 ADD DUP1 PUSH1 0x40 MSTORE POP DUP2 ADD SWAP1 PUSH2 0x826 SWAP2 SWAP1 PUSH2 0x186A JUMP JUMPDEST SWAP1 POP SWAP1 JUMP JUMPDEST PUSH1 0x0 DUP1 PUSH1 0x0 SWAP1 SLOAD SWAP1 PUSH2 0x100 EXP SWAP1 DIV PUSH20 0xFFFFFFFFFFFFFFFFFFFFFFFFFFFFFFFFFFFFFFFF AND PUSH20 0xFFFFFFFFFFFFFFFFFFFFFFFFFFFFFFFFFFFFFFFF AND PUSH4 0xFF5F1B9F PUSH1 0x40 MLOAD DUP2 PUSH4 0xFFFFFFFF AND PUSH1 0xE0 SHL DUP2 MSTORE PUSH1 0x4 ADD PUSH1 0x20 PUSH1 0x40 MLOAD DUP1 DUP4 SUB DUP2 DUP7 GAS STATICCALL ISZERO DUP1 ISZERO PUSH2 0x899 JUMPI RETURNDATASIZE PUSH1 0x0 DUP1 RETURNDATACOPY RETURNDATASIZE PUSH1 0x0 REVERT JUMPDEST POP POP POP POP PUSH1 0x40 MLOAD RETURNDATASIZE PUSH1 0x1F NOT PUSH1 0x1F DUP3 ADD AND DUP3 ADD DUP1 PUSH1 0x40 MSTORE POP DUP2 ADD SWAP1 PUSH2 0x8BD SWAP2 SWAP1 PUSH2 0x186A JUMP JUMPDEST SWAP1 POP SWAP1 JUMP JUMPDEST PUSH1 0x0 DUP1 PUSH1 0x0 SWAP1 SLOAD SWAP1 PUSH2 0x100 EXP SWAP1 DIV PUSH20 0xFFFFFFFFFFFFFFFFFFFFFFFFFFFFFFFFFFFFFFFF AND PUSH20 0xFFFFFFFFFFFFFFFFFFFFFFFFFFFFFFFFFFFFFFFF AND PUSH4 0xE67CDAFD PUSH1 0x40 MLOAD DUP2 PUSH4 0xFFFFFFFF AND PUSH1 0xE0 SHL DUP2 MSTORE PUSH1 0x4 ADD PUSH1 0x20 PUSH1 0x40 MLOAD DUP1 DUP4 SUB DUP2 DUP7 GAS STATICCALL ISZERO DUP1 ISZERO PUSH2 0x930 JUMPI RETURNDATASIZE PUSH1 0x0 DUP1 RETURNDATACOPY RETURNDATASIZE PUSH1 0x0 REVERT JUMPDEST POP POP POP POP PUSH1 0x40 MLOAD RETURNDATASIZE PUSH1 0x1F NOT PUSH1 0x1F DUP3 ADD AND DUP3 ADD DUP1 PUSH1 0x40 MSTORE POP DUP2 ADD SWAP1 PUSH2 0x954 SWAP2 SWAP1 PUSH2 0x186A JUMP JUMPDEST SWAP1 POP SWAP1 JUMP JUMPDEST PUSH2 0x961 PUSH2 0xD1A JUMP JUMPDEST PUSH1 0x0 PUSH1 0x2 PUSH1 0x0 DUP6 DUP2 MSTORE PUSH1 0x20 ADD SWAP1 DUP2 MSTORE PUSH1 0x20 ADD PUSH1 0x0 KECCAK256 PUSH1 0x40 MLOAD DUP1 PUSH1 0x40 ADD PUSH1 0x40 MSTORE SWAP1 DUP2 PUSH1 0x0 DUP3 ADD SLOAD DUP2 MSTORE PUSH1 0x20 ADD PUSH1 0x1 DUP3 ADD PUSH1 0x0 SWAP1 SLOAD SWAP1 PUSH2 0x100 EXP SWAP1 DIV PUSH1 0xFF AND ISZERO ISZERO ISZERO ISZERO DUP2 MSTORE POP POP SWAP1 POP DUP1 PUSH1 0x20 ADD MLOAD ISZERO PUSH2 0x9ED JUMPI PUSH1 0x40 MLOAD PUSH32 0x8C379A000000000000000000000000000000000000000000000000000000000 DUP2 MSTORE PUSH1 0x4 ADD PUSH2 0x9E4 SWAP1 PUSH2 0x18E3 JUMP JUMPDEST PUSH1 0x40 MLOAD DUP1 SWAP2 SUB SWAP1 REVERT JUMPDEST PUSH1 0x40 MLOAD DUP1 PUSH1 0x40 ADD PUSH1 0x40 MSTORE DUP1 PUSH1 0x1 DUP1 SLOAD SWAP1 POP DUP2 MSTORE PUSH1 0x20 ADD PUSH1 0x1 ISZERO ISZERO DUP2 MSTORE POP PUSH1 0x2 PUSH1 0x0 DUP7 DUP2 MSTORE PUSH1 0x20 ADD SWAP1 DUP2 MSTORE PUSH1 0x20 ADD PUSH1 0x0 KECCAK256 PUSH1 0x0 DUP3 ADD MLOAD DUP2 PUSH1 0x0 ADD SSTORE PUSH1 0x20 DUP3 ADD MLOAD DUP2 PUSH1 0x1 ADD PUSH1 0x0 PUSH2 0x100 EXP DUP2 SLOAD DUP2 PUSH1 0xFF MUL NOT AND SWAP1 DUP4 ISZERO ISZERO MUL OR SWAP1 SSTORE POP SWAP1 POP POP PUSH1 0x0 PUSH1 0x40 MLOAD DUP1 PUSH1 0x60 ADD PUSH1 0x40 MSTORE DUP1 DUP7 DUP2 MSTORE PUSH1 0x20 ADD DUP6 PUSH20 0xFFFFFFFFFFFFFFFFFFFFFFFFFFFFFFFFFFFFFFFF AND DUP2 MSTORE PUSH1 0x20 ADD PUSH1 0x0 ISZERO ISZERO DUP2 MSTORE POP SWAP1 POP PUSH1 0x1 DUP2 SWAP1 DUP1 PUSH1 0x1 DUP2 SLOAD ADD DUP1 DUP3 SSTORE DUP1 SWAP2 POP POP PUSH1 0x1 SWAP1 SUB SWAP1 PUSH1 0x0 MSTORE PUSH1 0x20 PUSH1 0x0 KECCAK256 SWAP1 PUSH1 0x2 MUL ADD PUSH1 0x0 SWAP1 SWAP2 SWAP1 SWAP2 SWAP1 SWAP2 POP PUSH1 0x0 DUP3 ADD MLOAD DUP2 PUSH1 0x0 ADD SSTORE PUSH1 0x20 DUP3 ADD MLOAD DUP2 PUSH1 0x1 ADD PUSH1 0x0 PUSH2 0x100 EXP DUP2 SLOAD DUP2 PUSH20 0xFFFFFFFFFFFFFFFFFFFFFFFFFFFFFFFFFFFFFFFF MUL NOT AND SWAP1 DUP4 PUSH20 0xFFFFFFFFFFFFFFFFFFFFFFFFFFFFFFFFFFFFFFFF AND MUL OR SWAP1 SSTORE POP PUSH1 0x40 DUP3 ADD MLOAD DUP2 PUSH1 0x1 ADD PUSH1 0x14 PUSH2 0x100 EXP DUP2 SLOAD DUP2 PUSH1 0xFF MUL NOT AND SWAP1 DUP4 ISZERO ISZERO MUL OR SWAP1 SSTORE POP POP POP PUSH1 0x0 PUSH2 0xB2B PUSH2 0x8C2 JUMP JUMPDEST SWAP1 POP DUP1 PUSH20 0xFFFFFFFFFFFFFFFFFFFFFFFFFFFFFFFFFFFFFFFF AND PUSH4 0x4B61A44B DUP3 PUSH20 0xFFFFFFFFFFFFFFFFFFFFFFFFFFFFFFFFFFFFFFFF AND PUSH3 0x407D2A DUP10 PUSH1 0x40 MLOAD DUP3 PUSH4 0xFFFFFFFF AND PUSH1 0xE0 SHL DUP2 MSTORE PUSH1 0x4 ADD PUSH2 0xB81 SWAP2 SWAP1 PUSH2 0x1126 JUMP JUMPDEST PUSH1 0x0 PUSH1 0x40 MLOAD DUP1 DUP4 SUB DUP2 DUP7 GAS STATICCALL ISZERO DUP1 ISZERO PUSH2 0xB9E JUMPI RETURNDATASIZE PUSH1 0x0 DUP1 RETURNDATACOPY RETURNDATASIZE PUSH1 0x0 REVERT JUMPDEST POP POP POP POP PUSH1 0x40 MLOAD RETURNDATASIZE PUSH1 0x0 DUP3 RETURNDATACOPY RETURNDATASIZE PUSH1 0x1F NOT PUSH1 0x1F DUP3 ADD AND DUP3 ADD DUP1 PUSH1 0x40 MSTORE POP DUP2 ADD SWAP1 PUSH2 0xBC7 SWAP2 SWAP1 PUSH2 0x1415 JUMP JUMPDEST PUSH1 0x20 ADD MLOAD PUSH1 0x40 MLOAD DUP3 PUSH4 0xFFFFFFFF AND PUSH1 0xE0 SHL DUP2 MSTORE PUSH1 0x4 ADD PUSH2 0xBE7 SWAP2 SWAP1 PUSH2 0x1126 JUMP JUMPDEST PUSH1 0x0 PUSH1 0x40 MLOAD DUP1 DUP4 SUB DUP2 PUSH1 0x0 DUP8 DUP1 EXTCODESIZE ISZERO DUP1 ISZERO PUSH2 0xC01 JUMPI PUSH1 0x0 DUP1 REVERT JUMPDEST POP GAS CALL ISZERO DUP1 ISZERO PUSH2 0xC15 JUMPI RETURNDATASIZE PUSH1 0x0 DUP1 RETURNDATACOPY RETURNDATASIZE PUSH1 0x0 REVERT JUMPDEST POP POP POP POP PUSH1 0x0 DUP1 PUSH1 0x0 SWAP1 SLOAD SWAP1 PUSH2 0x100 EXP SWAP1 DIV PUSH20 0xFFFFFFFFFFFFFFFFFFFFFFFFFFFFFFFFFFFFFFFF AND PUSH20 0xFFFFFFFFFFFFFFFFFFFFFFFFFFFFFFFFFFFFFFFF AND PUSH4 0x88EA0751 PUSH1 0x40 MLOAD DUP2 PUSH4 0xFFFFFFFF AND PUSH1 0xE0 SHL DUP2 MSTORE PUSH1 0x4 ADD PUSH1 0x20 PUSH1 0x40 MLOAD DUP1 DUP4 SUB DUP2 DUP7 GAS STATICCALL ISZERO DUP1 ISZERO PUSH2 0xC87 JUMPI RETURNDATASIZE PUSH1 0x0 DUP1 RETURNDATACOPY RETURNDATASIZE PUSH1 0x0 REVERT JUMPDEST POP POP POP POP PUSH1 0x40 MLOAD RETURNDATASIZE PUSH1 0x1F NOT PUSH1 0x1F DUP3 ADD AND DUP3 ADD DUP1 PUSH1 0x40 MSTORE POP DUP2 ADD SWAP1 PUSH2 0xCAB SWAP2 SWAP1 PUSH2 0x186A JUMP JUMPDEST SWAP1 POP DUP1 PUSH20 0xFFFFFFFFFFFFFFFFFFFFFFFFFFFFFFFFFFFFFFFF AND PUSH4 0xAA5DA046 PUSH1 0x40 MLOAD DUP2 PUSH4 0xFFFFFFFF AND PUSH1 0xE0 SHL DUP2 MSTORE PUSH1 0x4 ADD PUSH1 0x0 PUSH1 0x40 MLOAD DUP1 DUP4 SUB DUP2 PUSH1 0x0 DUP8 DUP1 EXTCODESIZE ISZERO DUP1 ISZERO PUSH2 0xCF5 JUMPI PUSH1 0x0 DUP1 REVERT JUMPDEST POP GAS CALL ISZERO DUP1 ISZERO PUSH2 0xD09 JUMPI RETURNDATASIZE PUSH1 0x0 DUP1 RETURNDATACOPY RETURNDATASIZE PUSH1 0x0 REVERT JUMPDEST POP POP POP POP DUP3 SWAP5 POP POP POP POP POP SWAP3 SWAP2 POP POP JUMP JUMPDEST PUSH1 0x40 MLOAD DUP1 PUSH1 0x60 ADD PUSH1 0x40 MSTORE DUP1 PUSH1 0x0 DUP2 MSTORE PUSH1 0x20 ADD PUSH1 0x0 PUSH20 0xFFFFFFFFFFFFFFFFFFFFFFFFFFFFFFFFFFFFFFFF AND DUP2 MSTORE PUSH1 0x20 ADD PUSH1 0x0 ISZERO ISZERO DUP2 MSTORE POP SWAP1 JUMP JUMPDEST PUSH1 0x0 PUSH20 0xFFFFFFFFFFFFFFFFFFFFFFFFFFFFFFFFFFFFFFFF DUP3 AND SWAP1 POP SWAP2 SWAP1 POP JUMP JUMPDEST PUSH1 0x0 DUP2 SWAP1 POP SWAP2 SWAP1 POP JUMP JUMPDEST PUSH1 0x0 PUSH2 0xD98 PUSH2 0xD93 PUSH2 0xD8E DUP5 PUSH2 0xD53 JUMP JUMPDEST PUSH2 0xD73 JUMP JUMPDEST PUSH2 0xD53 JUMP JUMPDEST SWAP1 POP SWAP2 SWAP1 POP JUMP JUMPDEST PUSH1 0x0 PUSH2 0xDAA DUP3 PUSH2 0xD7D JUMP JUMPDEST SWAP1 POP SWAP2 SWAP1 POP JUMP JUMPDEST PUSH1 0x0 PUSH2 0xDBC DUP3 PUSH2 0xD9F JUMP JUMPDEST SWAP1 POP SWAP2 SWAP1 POP JUMP JUMPDEST PUSH2 0xDCC DUP2 PUSH2 0xDB1 JUMP JUMPDEST DUP3 MSTORE POP POP JUMP JUMPDEST PUSH1 0x0 PUSH1 0x20 DUP3 ADD SWAP1 POP PUSH2 0xDE7 PUSH1 0x0 DUP4 ADD DUP5 PUSH2 0xDC3 JUMP JUMPDEST SWAP3 SWAP2 POP POP JUMP JUMPDEST PUSH1 0x0 PUSH1 0x40 MLOAD SWAP1 POP SWAP1 JUMP JUMPDEST PUSH1 0x0 DUP1 REVERT JUMPDEST PUSH1 0x0 DUP1 REVERT JUMPDEST PUSH1 0x0 DUP2 SWAP1 POP SWAP2 SWAP1 POP JUMP JUMPDEST PUSH2 0xE14 DUP2 PUSH2 0xE01 JUMP JUMPDEST DUP2 EQ PUSH2 0xE1F JUMPI PUSH1 0x0 DUP1 REVERT JUMPDEST POP JUMP JUMPDEST PUSH1 0x0 DUP2 CALLDATALOAD SWAP1 POP PUSH2 0xE31 DUP2 PUSH2 0xE0B JUMP JUMPDEST SWAP3 SWAP2 POP POP JUMP JUMPDEST PUSH1 0x0 PUSH1 0x20 DUP3 DUP5 SUB SLT ISZERO PUSH2 0xE4D JUMPI PUSH2 0xE4C PUSH2 0xDF7 JUMP JUMPDEST JUMPDEST PUSH1 0x0 PUSH2 0xE5B DUP5 DUP3 DUP6 ADD PUSH2 0xE22 JUMP JUMPDEST SWAP2 POP POP SWAP3 SWAP2 POP POP JUMP JUMPDEST PUSH2 0xE6D DUP2 PUSH2 0xE01 JUMP JUMPDEST DUP3 MSTORE POP POP JUMP JUMPDEST PUSH1 0x0 DUP2 ISZERO ISZERO SWAP1 POP SWAP2 SWAP1 POP JUMP JUMPDEST PUSH2 0xE88 DUP2 PUSH2 0xE73 JUMP JUMPDEST DUP3 MSTORE POP POP JUMP JUMPDEST PUSH1 0x0 PUSH1 0x40 DUP3 ADD SWAP1 POP PUSH2 0xEA3 PUSH1 0x0 DUP4 ADD DUP6 PUSH2 0xE64 JUMP JUMPDEST PUSH2 0xEB0 PUSH1 0x20 DUP4 ADD DUP5 PUSH2 0xE7F JUMP JUMPDEST SWAP4 SWAP3 POP POP POP JUMP JUMPDEST PUSH1 0x0 PUSH2 0xEC2 DUP3 PUSH2 0xD53 JUMP JUMPDEST SWAP1 POP SWAP2 SWAP1 POP JUMP JUMPDEST PUSH2 0xED2 DUP2 PUSH2 0xEB7 JUMP JUMPDEST DUP3 MSTORE POP POP JUMP JUMPDEST PUSH1 0x0 PUSH1 0x60 DUP3 ADD SWAP1 POP PUSH2 0xEED PUSH1 0x0 DUP4 ADD DUP7 PUSH2 0xE64 JUMP JUMPDEST PUSH2 0xEFA PUSH1 0x20 DUP4 ADD DUP6 PUSH2 0xEC9 JUMP JUMPDEST PUSH2 0xF07 PUSH1 0x40 DUP4 ADD DUP5 PUSH2 0xE7F JUMP JUMPDEST SWAP5 SWAP4 POP POP POP POP JUMP JUMPDEST PUSH1 0x0 PUSH2 0xF1A DUP3 PUSH2 0xD9F JUMP JUMPDEST SWAP1 POP SWAP2 SWAP1 POP JUMP JUMPDEST PUSH2 0xF2A DUP2 PUSH2 0xF0F JUMP JUMPDEST DUP3 MSTORE POP POP JUMP JUMPDEST PUSH1 0x0 PUSH1 0x20 DUP3 ADD SWAP1 POP PUSH2 0xF45 PUSH1 0x0 DUP4 ADD DUP5 PUSH2 0xF21 JUMP JUMPDEST SWAP3 SWAP2 POP POP JUMP JUMPDEST PUSH1 0x0 PUSH4 0xFFFFFFFF DUP3 AND SWAP1 POP SWAP2 SWAP1 POP JUMP JUMPDEST PUSH2 0xF64 DUP2 PUSH2 0xF4B JUMP JUMPDEST DUP2 EQ PUSH2 0xF6F JUMPI PUSH1 0x0 DUP1 REVERT JUMPDEST POP JUMP JUMPDEST PUSH1 0x0 DUP2 CALLDATALOAD SWAP1 POP PUSH2 0xF81 DUP2 PUSH2 0xF5B JUMP JUMPDEST SWAP3 SWAP2 POP POP JUMP JUMPDEST PUSH1 0x0 PUSH1 0x20 DUP3 DUP5 SUB SLT ISZERO PUSH2 0xF9D JUMPI PUSH2 0xF9C PUSH2 0xDF7 JUMP JUMPDEST JUMPDEST PUSH1 0x0 PUSH2 0xFAB DUP5 DUP3 DUP6 ADD PUSH2 0xF72 JUMP JUMPDEST SWAP2 POP POP SWAP3 SWAP2 POP POP JUMP JUMPDEST PUSH2 0xFBD DUP2 PUSH2 0xE01 JUMP JUMPDEST DUP3 MSTORE POP POP JUMP JUMPDEST PUSH2 0xFCC DUP2 PUSH2 0xEB7 JUMP JUMPDEST DUP3 MSTORE POP POP JUMP JUMPDEST PUSH2 0xFDB DUP2 PUSH2 0xE73 JUMP JUMPDEST DUP3 MSTORE POP POP JUMP JUMPDEST PUSH1 0x60 DUP3 ADD PUSH1 0x0 DUP3 ADD MLOAD PUSH2 0xFF7 PUSH1 0x0 DUP6 ADD DUP3 PUSH2 0xFB4 JUMP JUMPDEST POP PUSH1 0x20 DUP3 ADD MLOAD PUSH2 0x100A PUSH1 0x20 DUP6 ADD DUP3 PUSH2 0xFC3 JUMP JUMPDEST POP PUSH1 0x40 DUP3 ADD MLOAD PUSH2 0x101D PUSH1 0x40 DUP6 ADD DUP3 PUSH2 0xFD2 JUMP JUMPDEST POP POP POP POP JUMP JUMPDEST PUSH1 0x0 PUSH1 0x60 DUP3 ADD SWAP1 POP PUSH2 0x1038 PUSH1 0x0 DUP4 ADD DUP5 PUSH2 0xFE1 JUMP JUMPDEST SWAP3 SWAP2 POP POP JUMP JUMPDEST PUSH1 0x0 PUSH2 0x1049 DUP3 PUSH2 0xD9F JUMP JUMPDEST SWAP1 POP SWAP2 SWAP1 POP JUMP JUMPDEST PUSH2 0x1059 DUP2 PUSH2 0x103E JUMP JUMPDEST DUP3 MSTORE POP POP JUMP JUMPDEST PUSH1 0x0 PUSH1 0x20 DUP3 ADD SWAP1 POP PUSH2 0x1074 PUSH1 0x0 DUP4 ADD DUP5 PUSH2 0x1050 JUMP JUMPDEST SWAP3 SWAP2 POP POP JUMP JUMPDEST PUSH32 0x4E487B7100000000000000000000000000000000000000000000000000000000 PUSH1 0x0 MSTORE PUSH1 0x32 PUSH1 0x4 MSTORE PUSH1 0x24 PUSH1 0x0 REVERT JUMPDEST PUSH1 0x0 DUP3 DUP3 MSTORE PUSH1 0x20 DUP3 ADD SWAP1 POP SWAP3 SWAP2 POP POP JUMP JUMPDEST PUSH32 0x5061796F75742068617320616C7265616479206265656E2072656465656D6564 PUSH1 0x0 DUP3 ADD MSTORE POP JUMP JUMPDEST PUSH1 0x0 PUSH2 0x10F0 PUSH1 0x20 DUP4 PUSH2 0x10A9 JUMP JUMPDEST SWAP2 POP PUSH2 0x10FB DUP3 PUSH2 0x10BA JUMP JUMPDEST PUSH1 0x20 DUP3 ADD SWAP1 POP SWAP2 SWAP1 POP JUMP JUMPDEST PUSH1 0x0 PUSH1 0x20 DUP3 ADD SWAP1 POP DUP2 DUP2 SUB PUSH1 0x0 DUP4 ADD MSTORE PUSH2 0x111F DUP2 PUSH2 0x10E3 JUMP JUMPDEST SWAP1 POP SWAP2 SWAP1 POP JUMP JUMPDEST PUSH1 0x0 PUSH1 0x20 DUP3 ADD SWAP1 POP PUSH2 0x113B PUSH1 0x0 DUP4 ADD DUP5 PUSH2 0xE64 JUMP JUMPDEST SWAP3 SWAP2 POP POP JUMP JUMPDEST PUSH1 0x0 DUP1 REVERT JUMPDEST PUSH1 0x0 PUSH1 0x1F NOT PUSH1 0x1F DUP4 ADD AND SWAP1 POP SWAP2 SWAP1 POP JUMP JUMPDEST PUSH32 0x4E487B7100000000000000000000000000000000000000000000000000000000 PUSH1 0x0 MSTORE PUSH1 0x41 PUSH1 0x4 MSTORE PUSH1 0x24 PUSH1 0x0 REVERT JUMPDEST PUSH2 0x118F DUP3 PUSH2 0x1146 JUMP JUMPDEST DUP2 ADD DUP2 DUP2 LT PUSH8 0xFFFFFFFFFFFFFFFF DUP3 GT OR ISZERO PUSH2 0x11AE JUMPI PUSH2 0x11AD PUSH2 0x1157 JUMP JUMPDEST JUMPDEST DUP1 PUSH1 0x40 MSTORE POP POP POP JUMP JUMPDEST PUSH1 0x0 PUSH2 0x11C1 PUSH2 0xDED JUMP JUMPDEST SWAP1 POP PUSH2 0x11CD DUP3 DUP3 PUSH2 0x1186 JUMP JUMPDEST SWAP2 SWAP1 POP JUMP JUMPDEST PUSH1 0x0 DUP1 REVERT JUMPDEST PUSH1 0x0 DUP2 MLOAD SWAP1 POP PUSH2 0x11E6 DUP2 PUSH2 0xE0B JUMP JUMPDEST SWAP3 SWAP2 POP POP JUMP JUMPDEST PUSH2 0x11F5 DUP2 PUSH2 0xEB7 JUMP JUMPDEST DUP2 EQ PUSH2 0x1200 JUMPI PUSH1 0x0 DUP1 REVERT JUMPDEST POP JUMP JUMPDEST PUSH1 0x0 DUP2 MLOAD SWAP1 POP PUSH2 0x1212 DUP2 PUSH2 0x11EC JUMP JUMPDEST SWAP3 SWAP2 POP POP JUMP JUMPDEST PUSH1 0x0 DUP1 REVERT JUMPDEST PUSH1 0x0 DUP1 REVERT JUMPDEST PUSH1 0x0 PUSH8 0xFFFFFFFFFFFFFFFF DUP3 GT ISZERO PUSH2 0x123D JUMPI PUSH2 0x123C PUSH2 0x1157 JUMP JUMPDEST JUMPDEST PUSH2 0x1246 DUP3 PUSH2 0x1146 JUMP JUMPDEST SWAP1 POP PUSH1 0x20 DUP2 ADD SWAP1 POP SWAP2 SWAP1 POP JUMP JUMPDEST PUSH1 0x0 JUMPDEST DUP4 DUP2 LT ISZERO PUSH2 0x1271 JUMPI DUP1 DUP3 ADD MLOAD DUP2 DUP5 ADD MSTORE PUSH1 0x20 DUP2 ADD SWAP1 POP PUSH2 0x1256 JUMP JUMPDEST PUSH1 0x0 DUP5 DUP5 ADD MSTORE POP POP POP POP JUMP JUMPDEST PUSH1 0x0 PUSH2 0x1290 PUSH2 0x128B DUP5 PUSH2 0x1222 JUMP JUMPDEST PUSH2 0x11B7 JUMP JUMPDEST SWAP1 POP DUP3 DUP2 MSTORE PUSH1 0x20 DUP2 ADD DUP5 DUP5 DUP5 ADD GT ISZERO PUSH2 0x12AC JUMPI PUSH2 0x12AB PUSH2 0x121D JUMP JUMPDEST JUMPDEST PUSH2 0x12B7 DUP5 DUP3 DUP6 PUSH2 0x1253 JUMP JUMPDEST POP SWAP4 SWAP3 POP POP POP JUMP JUMPDEST PUSH1 0x0 DUP3 PUSH1 0x1F DUP4 ADD SLT PUSH2 0x12D4 JUMPI PUSH2 0x12D3 PUSH2 0x1218 JUMP JUMPDEST JUMPDEST DUP2 MLOAD PUSH2 0x12E4 DUP5 DUP3 PUSH1 0x20 DUP7 ADD PUSH2 0x127D JUMP JUMPDEST SWAP2 POP POP SWAP3 SWAP2 POP POP JUMP JUMPDEST PUSH1 0x0 PUSH2 0x160 DUP3 DUP5 SUB SLT ISZERO PUSH2 0x1304 JUMPI PUSH2 0x1303 PUSH2 0x1141 JUMP JUMPDEST JUMPDEST PUSH2 0x130F PUSH2 0x160 PUSH2 0x11B7 JUMP JUMPDEST SWAP1 POP PUSH1 0x0 PUSH2 0x131F DUP5 DUP3 DUP6 ADD PUSH2 0x11D7 JUMP JUMPDEST PUSH1 0x0 DUP4 ADD MSTORE POP PUSH1 0x20 PUSH2 0x1333 DUP5 DUP3 DUP6 ADD PUSH2 0x11D7 JUMP JUMPDEST PUSH1 0x20 DUP4 ADD MSTORE POP PUSH1 0x40 PUSH2 0x1347 DUP5 DUP3 DUP6 ADD PUSH2 0x11D7 JUMP JUMPDEST PUSH1 0x40 DUP4 ADD MSTORE POP PUSH1 0x60 PUSH2 0x135B DUP5 DUP3 DUP6 ADD PUSH2 0x11D7 JUMP JUMPDEST PUSH1 0x60 DUP4 ADD MSTORE POP PUSH1 0x80 PUSH2 0x136F DUP5 DUP3 DUP6 ADD PUSH2 0x1203 JUMP JUMPDEST PUSH1 0x80 DUP4 ADD MSTORE POP PUSH1 0xA0 PUSH2 0x1383 DUP5 DUP3 DUP6 ADD PUSH2 0x1203 JUMP JUMPDEST PUSH1 0xA0 DUP4 ADD MSTORE POP PUSH1 0xC0 PUSH2 0x1397 DUP5 DUP3 DUP6 ADD PUSH2 0x11D7 JUMP JUMPDEST PUSH1 0xC0 DUP4 ADD MSTORE POP PUSH1 0xE0 PUSH2 0x13AB DUP5 DUP3 DUP6 ADD PUSH2 0x11D7 JUMP JUMPDEST PUSH1 0xE0 DUP4 ADD MSTORE POP PUSH2 0x100 PUSH2 0x13C0 DUP5 DUP3 DUP6 ADD PUSH2 0x11D7 JUMP JUMPDEST PUSH2 0x100 DUP4 ADD MSTORE POP PUSH2 0x120 PUSH2 0x13D6 DUP5 DUP3 DUP6 ADD PUSH2 0x11D7 JUMP JUMPDEST PUSH2 0x120 DUP4 ADD MSTORE POP PUSH2 0x140 DUP3 ADD MLOAD PUSH8 0xFFFFFFFFFFFFFFFF DUP2 GT ISZERO PUSH2 0x13FC JUMPI PUSH2 0x13FB PUSH2 0x11D2 JUMP JUMPDEST JUMPDEST PUSH2 0x1408 DUP5 DUP3 DUP6 ADD PUSH2 0x12BF JUMP JUMPDEST PUSH2 0x140 DUP4 ADD MSTORE POP SWAP3 SWAP2 POP POP JUMP JUMPDEST PUSH1 0x0 PUSH1 0x20 DUP3 DUP5 SUB SLT ISZERO PUSH2 0x142B JUMPI PUSH2 0x142A PUSH2 0xDF7 JUMP JUMPDEST JUMPDEST PUSH1 0x0 DUP3 ADD MLOAD PUSH8 0xFFFFFFFFFFFFFFFF DUP2 GT ISZERO PUSH2 0x1449 JUMPI PUSH2 0x1448 PUSH2 0xDFC JUMP JUMPDEST JUMPDEST PUSH2 0x1455 DUP5 DUP3 DUP6 ADD PUSH2 0x12ED JUMP JUMPDEST SWAP2 POP POP SWAP3 SWAP2 POP POP JUMP JUMPDEST PUSH1 0x0 DUP2 MLOAD SWAP1 POP SWAP2 SWAP1 POP JUMP JUMPDEST PUSH1 0x0 DUP3 DUP3 MSTORE PUSH1 0x20 DUP3 ADD SWAP1 POP SWAP3 SWAP2 POP POP JUMP JUMPDEST PUSH1 0x0 PUSH2 0x1485 DUP3 PUSH2 0x145E JUMP JUMPDEST PUSH2 0x148F DUP2 DUP6 PUSH2 0x1469 JUMP JUMPDEST SWAP4 POP PUSH2 0x149F DUP2 DUP6 PUSH1 0x20 DUP7 ADD PUSH2 0x1253 JUMP JUMPDEST PUSH2 0x14A8 DUP2 PUSH2 0x1146 JUMP JUMPDEST DUP5 ADD SWAP2 POP POP SWAP3 SWAP2 POP POP JUMP JUMPDEST PUSH1 0x0 PUSH2 0x160 DUP4 ADD PUSH1 0x0 DUP4 ADD MLOAD PUSH2 0x14CC PUSH1 0x0 DUP7 ADD DUP3 PUSH2 0xFB4 JUMP JUMPDEST POP PUSH1 0x20 DUP4 ADD MLOAD PUSH2 0x14DF PUSH1 0x20 DUP7 ADD DUP3 PUSH2 0xFB4 JUMP JUMPDEST POP PUSH1 0x40 DUP4 ADD MLOAD PUSH2 0x14F2 PUSH1 0x40 DUP7 ADD DUP3 PUSH2 0xFB4 JUMP JUMPDEST POP PUSH1 0x60 DUP4 ADD MLOAD PUSH2 0x1505 PUSH1 0x60 DUP7 ADD DUP3 PUSH2 0xFB4 JUMP JUMPDEST POP PUSH1 0x80 DUP4 ADD MLOAD PUSH2 0x1518 PUSH1 0x80 DUP7 ADD DUP3 PUSH2 0xFC3 JUMP JUMPDEST POP PUSH1 0xA0 DUP4 ADD MLOAD PUSH2 0x152B PUSH1 0xA0 DUP7 ADD DUP3 PUSH2 0xFC3 JUMP JUMPDEST POP PUSH1 0xC0 DUP4 ADD MLOAD PUSH2 0x153E PUSH1 0xC0 DUP7 ADD DUP3 PUSH2 0xFB4 JUMP JUMPDEST POP PUSH1 0xE0 DUP4 ADD MLOAD PUSH2 0x1551 PUSH1 0xE0 DUP7 ADD DUP3 PUSH2 0xFB4 JUMP JUMPDEST POP PUSH2 0x100 DUP4 ADD MLOAD PUSH2 0x1566 PUSH2 0x100 DUP7 ADD DUP3 PUSH2 0xFB4 JUMP JUMPDEST POP PUSH2 0x120 DUP4 ADD MLOAD PUSH2 0x157B PUSH2 0x120 DUP7 ADD DUP3 PUSH2 0xFB4 JUMP JUMPDEST POP PUSH2 0x140 DUP4 ADD MLOAD DUP5 DUP3 SUB PUSH2 0x140 DUP7 ADD MSTORE PUSH2 0x1595 DUP3 DUP3 PUSH2 0x147A JUMP JUMPDEST SWAP2 POP POP DUP1 SWAP2 POP POP SWAP3 SWAP2 POP POP JUMP JUMPDEST PUSH1 0x0 PUSH1 0x20 DUP3 ADD SWAP1 POP DUP2 DUP2 SUB PUSH1 0x0 DUP4 ADD MSTORE PUSH2 0x15BC DUP2 DUP5 PUSH2 0x14B3 JUMP JUMPDEST SWAP1 POP SWAP3 SWAP2 POP POP JUMP JUMPDEST PUSH1 0x0 PUSH1 0x20 DUP3 DUP5 SUB SLT ISZERO PUSH2 0x15DA JUMPI PUSH2 0x15D9 PUSH2 0xDF7 JUMP JUMPDEST JUMPDEST PUSH1 0x0 PUSH2 0x15E8 DUP5 DUP3 DUP6 ADD PUSH2 0x11D7 JUMP JUMPDEST SWAP2 POP POP SWAP3 SWAP2 POP POP JUMP JUMPDEST PUSH1 0x0 PUSH2 0x15FC DUP3 PUSH2 0xD53 JUMP JUMPDEST SWAP1 POP SWAP2 SWAP1 POP JUMP JUMPDEST PUSH2 0x160C DUP2 PUSH2 0x15F1 JUMP JUMPDEST DUP3 MSTORE POP POP JUMP JUMPDEST PUSH1 0x0 PUSH1 0x40 DUP3 ADD SWAP1 POP PUSH2 0x1627 PUSH1 0x0 DUP4 ADD DUP6 PUSH2 0x1603 JUMP JUMPDEST PUSH2 0x1634 PUSH1 0x20 DUP4 ADD DUP5 PUSH2 0xE64 JUMP JUMPDEST SWAP4 SWAP3 POP POP POP JUMP JUMPDEST PUSH1 0x0 PUSH2 0x1656 PUSH2 0x1651 PUSH2 0x164C DUP5 PUSH2 0xF4B JUMP JUMPDEST PUSH2 0xD73 JUMP JUMPDEST PUSH2 0xE01 JUMP JUMPDEST SWAP1 POP SWAP2 SWAP1 POP JUMP JUMPDEST PUSH2 0x1666 DUP2 PUSH2 0x163B JUMP JUMPDEST DUP3 MSTORE POP POP JUMP JUMPDEST PUSH1 0x0 PUSH1 0x20 DUP3 ADD SWAP1 POP PUSH2 0x1681 PUSH1 0x0 DUP4 ADD DUP5 PUSH2 0x165D JUMP JUMPDEST SWAP3 SWAP2 POP POP JUMP JUMPDEST PUSH32 0x4E487B7100000000000000000000000000000000000000000000000000000000 PUSH1 0x0 MSTORE PUSH1 0x11 PUSH1 0x4 MSTORE PUSH1 0x24 PUSH1 0x0 REVERT JUMPDEST PUSH1 0x0 PUSH2 0x16C1 DUP3 PUSH2 0xE01 JUMP JUMPDEST SWAP2 POP PUSH2 0x16CC DUP4 PUSH2 0xE01 JUMP JUMPDEST SWAP3 POP DUP3 DUP3 ADD SWAP1 POP DUP1 DUP3 GT ISZERO PUSH2 0x16E4 JUMPI PUSH2 0x16E3 PUSH2 0x1687 JUMP JUMPDEST JUMPDEST SWAP3 SWAP2 POP POP JUMP JUMPDEST PUSH32 0x4F6E6C79207375626D697420636C61696D206166746572206578706972790000 PUSH1 0x0 DUP3 ADD MSTORE POP JUMP JUMPDEST PUSH1 0x0 PUSH2 0x1720 PUSH1 0x1E DUP4 PUSH2 0x10A9 JUMP JUMPDEST SWAP2 POP PUSH2 0x172B DUP3 PUSH2 0x16EA JUMP JUMPDEST PUSH1 0x20 DUP3 ADD SWAP1 POP SWAP2 SWAP1 POP JUMP JUMPDEST PUSH1 0x0 PUSH1 0x20 DUP3 ADD SWAP1 POP DUP2 DUP2 SUB PUSH1 0x0 DUP4 ADD MSTORE PUSH2 0x174F DUP2 PUSH2 0x1713 JUMP JUMPDEST SWAP1 POP SWAP2 SWAP1 POP JUMP JUMPDEST PUSH1 0x0 PUSH1 0x40 DUP3 ADD SWAP1 POP PUSH2 0x176B PUSH1 0x0 DUP4 ADD DUP6 PUSH2 0xEC9 JUMP JUMPDEST PUSH2 0x1778 PUSH1 0x20 DUP4 ADD DUP5 PUSH2 0x165D JUMP JUMPDEST SWAP4 SWAP3 POP POP POP JUMP JUMPDEST PUSH2 0x1788 DUP2 PUSH2 0xE73 JUMP JUMPDEST DUP2 EQ PUSH2 0x1793 JUMPI PUSH1 0x0 DUP1 REVERT JUMPDEST POP JUMP JUMPDEST PUSH1 0x0 DUP2 MLOAD SWAP1 POP PUSH2 0x17A5 DUP2 PUSH2 0x177F JUMP JUMPDEST SWAP3 SWAP2 POP POP JUMP JUMPDEST PUSH1 0x0 PUSH1 0x20 DUP3 DUP5 SUB SLT ISZERO PUSH2 0x17C1 JUMPI PUSH2 0x17C0 PUSH2 0xDF7 JUMP JUMPDEST JUMPDEST PUSH1 0x0 PUSH2 0x17CF DUP5 DUP3 DUP6 ADD PUSH2 0x1796 JUMP JUMPDEST SWAP2 POP POP SWAP3 SWAP2 POP POP JUMP JUMPDEST PUSH32 0x4F6E6C7920746865206F776E6572206F7220617070726F766564206164647265 PUSH1 0x0 DUP3 ADD MSTORE PUSH32 0x737365732063616E207375626D6974206120636C61696D000000000000000000 PUSH1 0x20 DUP3 ADD MSTORE POP JUMP JUMPDEST PUSH1 0x0 PUSH2 0x1834 PUSH1 0x37 DUP4 PUSH2 0x10A9 JUMP JUMPDEST SWAP2 POP PUSH2 0x183F DUP3 PUSH2 0x17D8 JUMP JUMPDEST PUSH1 0x40 DUP3 ADD SWAP1 POP SWAP2 SWAP1 POP JUMP JUMPDEST PUSH1 0x0 PUSH1 0x20 DUP3 ADD SWAP1 POP DUP2 DUP2 SUB PUSH1 0x0 DUP4 ADD MSTORE PUSH2 0x1863 DUP2 PUSH2 0x1827 JUMP JUMPDEST SWAP1 POP SWAP2 SWAP1 POP JUMP JUMPDEST PUSH1 0x0 PUSH1 0x20 DUP3 DUP5 SUB SLT ISZERO PUSH2 0x1880 JUMPI PUSH2 0x187F PUSH2 0xDF7 JUMP JUMPDEST JUMPDEST PUSH1 0x0 PUSH2 0x188E DUP5 DUP3 DUP6 ADD PUSH2 0x1203 JUMP JUMPDEST SWAP2 POP POP SWAP3 SWAP2 POP POP JUMP JUMPDEST PUSH32 0x41207061796F757420616C726561647920657869737400000000000000000000 PUSH1 0x0 DUP3 ADD MSTORE POP JUMP JUMPDEST PUSH1 0x0 PUSH2 0x18CD PUSH1 0x16 DUP4 PUSH2 0x10A9 JUMP JUMPDEST SWAP2 POP PUSH2 0x18D8 DUP3 PUSH2 0x1897 JUMP JUMPDEST PUSH1 0x20 DUP3 ADD SWAP1 POP SWAP2 SWAP1 POP JUMP JUMPDEST PUSH1 0x0 PUSH1 0x20 DUP3 ADD SWAP1 POP DUP2 DUP2 SUB PUSH1 0x0 DUP4 ADD MSTORE PUSH2 0x18FC DUP2 PUSH2 0x18C0 JUMP JUMPDEST SWAP1 POP SWAP2 SWAP1 POP JUMP INVALID LOG2 PUSH5 0x6970667358 0x22 SLT KECCAK256 BYTE COINBASE DUP13 PUSH17 0x966D2E3E4CE30D55E40F266450D2611C4D PREVRANDAO MSTORE8 0xEE AND SWAP1 SWAP2 0x4E PUSH14 0x84E0CC64736F6C63430008130033 "
				},
				"gasEstimates": {
					"creation": {
						"codeDepositCost": "1291400",
						"executionCost": "infinite",
						"totalCost": "infinite"
					},
					"external": {
						"claims(uint256)": "infinite",
						"coverNFT()": "infinite",
						"hedh()": "infinite",
						"lastClaimSubmissionOnCover(uint256)": "infinite",
						"master()": "infinite",
						"redeemClaimPayout(uint256)": "infinite",
						"submitClaim(uint32)": "infinite"
					},
					"internal": {
						"_submitClaim(uint256,address)": "infinite",
						"assessment()": "infinite",
						"cover()": "infinite",
						"pool()": "infinite"
					}
				},
				"methodIdentifiers": {
					"claims(uint256)": "a888c2cd",
					"coverNFT()": "42e53fcf",
					"hedh()": "b2e7d7ae",
					"lastClaimSubmissionOnCover(uint256)": "8b79b22d",
					"master()": "ee97f7f3",
					"redeemClaimPayout(uint256)": "72c3c31e",
					"submitClaim(uint32)": "caf30869"
				}
			},
			"storageLayout": {
				"storage": [
					{
						"astId": 103,
						"contract": "contracts/assessment/IndividualClaims.sol:IndividualClaims",
						"label": "master",
						"offset": 0,
						"slot": "0",
						"type": "t_contract(Master)82"
					},
					{
						"astId": 107,
						"contract": "contracts/assessment/IndividualClaims.sol:IndividualClaims",
						"label": "claims",
						"offset": 0,
						"slot": "1",
						"type": "t_array(t_struct(Claim)542_storage)dyn_storage"
					},
					{
						"astId": 112,
						"contract": "contracts/assessment/IndividualClaims.sol:IndividualClaims",
						"label": "lastClaimSubmissionOnCover",
						"offset": 0,
						"slot": "2",
						"type": "t_mapping(t_uint256,t_struct(ClaimSubmission)547_storage)"
					}
				],
				"types": {
					"t_address": {
						"encoding": "inplace",
						"label": "address",
						"numberOfBytes": "20"
					},
					"t_array(t_struct(Claim)542_storage)dyn_storage": {
						"base": "t_struct(Claim)542_storage",
						"encoding": "dynamic_array",
						"label": "struct Claim[]",
						"numberOfBytes": "32"
					},
					"t_bool": {
						"encoding": "inplace",
						"label": "bool",
						"numberOfBytes": "1"
					},
					"t_contract(Master)82": {
						"encoding": "inplace",
						"label": "contract Master",
						"numberOfBytes": "20"
					},
					"t_mapping(t_uint256,t_struct(ClaimSubmission)547_storage)": {
						"encoding": "mapping",
						"key": "t_uint256",
						"label": "mapping(uint256 => struct ClaimSubmission)",
						"numberOfBytes": "32",
						"value": "t_struct(ClaimSubmission)547_storage"
					},
					"t_struct(Claim)542_storage": {
						"encoding": "inplace",
						"label": "struct Claim",
						"members": [
							{
								"astId": 537,
								"contract": "contracts/assessment/IndividualClaims.sol:IndividualClaims",
								"label": "coverId",
								"offset": 0,
								"slot": "0",
								"type": "t_uint256"
							},
							{
								"astId": 539,
								"contract": "contracts/assessment/IndividualClaims.sol:IndividualClaims",
								"label": "coverOwner",
								"offset": 0,
								"slot": "1",
								"type": "t_address"
							},
							{
								"astId": 541,
								"contract": "contracts/assessment/IndividualClaims.sol:IndividualClaims",
								"label": "payoutRedeemed",
								"offset": 20,
								"slot": "1",
								"type": "t_bool"
							}
						],
						"numberOfBytes": "64"
					},
					"t_struct(ClaimSubmission)547_storage": {
						"encoding": "inplace",
						"label": "struct ClaimSubmission",
						"members": [
							{
								"astId": 544,
								"contract": "contracts/assessment/IndividualClaims.sol:IndividualClaims",
								"label": "claimId",
								"offset": 0,
								"slot": "0",
								"type": "t_uint256"
							},
							{
								"astId": 546,
								"contract": "contracts/assessment/IndividualClaims.sol:IndividualClaims",
								"label": "exists",
								"offset": 0,
								"slot": "1",
								"type": "t_bool"
							}
						],
						"numberOfBytes": "64"
					},
					"t_uint256": {
						"encoding": "inplace",
						"label": "uint256",
						"numberOfBytes": "32"
					}
				}
			},
			"userdoc": {
				"kind": "user",
				"methods": {},
				"version": 1
			}
		}
	}
}