{
	"contracts/assessment/IndividualClaims.sol": {
		"IndividualClaims": {
			"abi": [
				{
					"inputs": [
						{
							"internalType": "address",
							"name": "hedhAddress",
							"type": "address"
						},
						{
							"internalType": "address",
							"name": "coverNFTAddress",
							"type": "address"
						},
						{
							"internalType": "address",
							"name": "_master",
							"type": "address"
						}
					],
					"stateMutability": "nonpayable",
					"type": "constructor"
				},
				{
					"inputs": [
						{
							"internalType": "uint256",
							"name": "",
							"type": "uint256"
						}
					],
					"name": "claims",
					"outputs": [
						{
							"internalType": "uint256",
							"name": "coverId",
							"type": "uint256"
						},
						{
							"internalType": "address",
							"name": "coverOwner",
							"type": "address"
						},
						{
							"internalType": "bool",
							"name": "payoutRedeemed",
							"type": "bool"
						}
					],
					"stateMutability": "view",
					"type": "function"
				},
				{
					"inputs": [],
					"name": "coverNFT",
					"outputs": [
						{
							"internalType": "contract ICoverNFT",
							"name": "",
							"type": "address"
						}
					],
					"stateMutability": "view",
					"type": "function"
				},
				{
					"inputs": [],
					"name": "hedh",
					"outputs": [
						{
							"internalType": "contract HEDHToken",
							"name": "",
							"type": "address"
						}
					],
					"stateMutability": "view",
					"type": "function"
				},
				{
					"inputs": [
						{
							"internalType": "uint256",
							"name": "",
							"type": "uint256"
						}
					],
					"name": "lastClaimSubmissionOnCover",
					"outputs": [
						{
							"internalType": "uint256",
							"name": "claimId",
							"type": "uint256"
						},
						{
							"internalType": "bool",
							"name": "exists",
							"type": "bool"
						}
					],
					"stateMutability": "view",
					"type": "function"
				},
				{
					"inputs": [],
					"name": "master",
					"outputs": [
						{
							"internalType": "contract Master",
							"name": "",
							"type": "address"
						}
					],
					"stateMutability": "view",
					"type": "function"
				},
				{
					"inputs": [
						{
							"internalType": "uint256",
							"name": "coverId",
							"type": "uint256"
						}
					],
					"name": "redeemClaimPayout",
					"outputs": [],
					"stateMutability": "nonpayable",
					"type": "function"
				},
				{
					"inputs": [
						{
							"internalType": "uint32",
							"name": "coverId",
							"type": "uint32"
						}
					],
					"name": "submitClaim",
					"outputs": [
						{
							"components": [
								{
									"internalType": "uint256",
									"name": "coverId",
									"type": "uint256"
								},
								{
									"internalType": "address",
									"name": "coverOwner",
									"type": "address"
								},
								{
									"internalType": "bool",
									"name": "payoutRedeemed",
									"type": "bool"
								}
							],
							"internalType": "struct Claim",
							"name": "claim",
							"type": "tuple"
						}
					],
					"stateMutability": "payable",
					"type": "function"
				}
			],
			"devdoc": {
				"kind": "dev",
				"methods": {},
				"version": 1
			},
			"evm": {
				"assembly": "    /* \"contracts/assessment/IndividualClaims.sol\":278:2754  contract IndividualClaims is IIndividualClaims{... */\n  mstore(0x40, 0xc0)\n    /* \"contracts/assessment/IndividualClaims.sol\":541:742  constructor(address hedhAddress, address coverNFTAddress,address _master) {... */\n  callvalue\n  dup1\n  iszero\n  tag_1\n  jumpi\n  0x00\n  dup1\n  revert\ntag_1:\n  pop\n  mload(0x40)\n  sub(codesize, bytecodeSize)\n  dup1\n  bytecodeSize\n  dup4\n  codecopy\n  dup2\n  dup2\n  add\n  0x40\n  mstore\n  dup2\n  add\n  swap1\n  tag_2\n  swap2\n  swap1\n  tag_3\n  jump\t// in\ntag_2:\n    /* \"contracts/assessment/IndividualClaims.sol\":642:653  hedhAddress */\n  dup3\n    /* \"contracts/assessment/IndividualClaims.sol\":625:654  hedh = HEDHToken(hedhAddress) */\n  0xffffffffffffffffffffffffffffffffffffffff\n  and\n  0x80\n  dup2\n  0xffffffffffffffffffffffffffffffffffffffff\n  and\n  dup2\n  mstore\n  pop\n  pop\n    /* \"contracts/assessment/IndividualClaims.sol\":685:700  coverNFTAddress */\n  dup2\n    /* \"contracts/assessment/IndividualClaims.sol\":664:701  coverNFT = ICoverNFT(coverNFTAddress) */\n  0xffffffffffffffffffffffffffffffffffffffff\n  and\n  0xa0\n  dup2\n  0xffffffffffffffffffffffffffffffffffffffff\n  and\n  dup2\n  mstore\n  pop\n  pop\n    /* \"contracts/assessment/IndividualClaims.sol\":727:734  _master */\n  dup1\n    /* \"contracts/assessment/IndividualClaims.sol\":711:717  master */\n  0x00\n  dup1\n    /* \"contracts/assessment/IndividualClaims.sol\":711:735  master = Master(_master) */\n  0x0100\n  exp\n  dup2\n  sload\n  dup2\n  0xffffffffffffffffffffffffffffffffffffffff\n  mul\n  not\n  and\n  swap1\n  dup4\n  0xffffffffffffffffffffffffffffffffffffffff\n  and\n  mul\n  or\n  swap1\n  sstore\n  pop\n    /* \"contracts/assessment/IndividualClaims.sol\":541:742  constructor(address hedhAddress, address coverNFTAddress,address _master) {... */\n  pop\n  pop\n  pop\n    /* \"contracts/assessment/IndividualClaims.sol\":278:2754  contract IndividualClaims is IIndividualClaims{... */\n  jump(tag_6)\n    /* \"#utility.yul\":88:205   */\ntag_8:\n    /* \"#utility.yul\":197:198   */\n  0x00\n    /* \"#utility.yul\":194:195   */\n  dup1\n    /* \"#utility.yul\":187:199   */\n  revert\n    /* \"#utility.yul\":334:460   */\ntag_10:\n    /* \"#utility.yul\":371:378   */\n  0x00\n    /* \"#utility.yul\":411:453   */\n  0xffffffffffffffffffffffffffffffffffffffff\n    /* \"#utility.yul\":404:409   */\n  dup3\n    /* \"#utility.yul\":400:454   */\n  and\n    /* \"#utility.yul\":389:454   */\n  swap1\n  pop\n    /* \"#utility.yul\":334:460   */\n  swap2\n  swap1\n  pop\n  jump\t// out\n    /* \"#utility.yul\":466:562   */\ntag_11:\n    /* \"#utility.yul\":503:510   */\n  0x00\n    /* \"#utility.yul\":532:556   */\n  tag_20\n    /* \"#utility.yul\":550:555   */\n  dup3\n    /* \"#utility.yul\":532:556   */\n  tag_10\n  jump\t// in\ntag_20:\n    /* \"#utility.yul\":521:556   */\n  swap1\n  pop\n    /* \"#utility.yul\":466:562   */\n  swap2\n  swap1\n  pop\n  jump\t// out\n    /* \"#utility.yul\":568:690   */\ntag_12:\n    /* \"#utility.yul\":641:665   */\n  tag_22\n    /* \"#utility.yul\":659:664   */\n  dup2\n    /* \"#utility.yul\":641:665   */\n  tag_11\n  jump\t// in\ntag_22:\n    /* \"#utility.yul\":634:639   */\n  dup2\n    /* \"#utility.yul\":631:666   */\n  eq\n    /* \"#utility.yul\":621:684   */\n  tag_23\n  jumpi\n    /* \"#utility.yul\":680:681   */\n  0x00\n    /* \"#utility.yul\":677:678   */\n  dup1\n    /* \"#utility.yul\":670:682   */\n  revert\n    /* \"#utility.yul\":621:684   */\ntag_23:\n    /* \"#utility.yul\":568:690   */\n  pop\n  jump\t// out\n    /* \"#utility.yul\":696:839   */\ntag_13:\n    /* \"#utility.yul\":753:758   */\n  0x00\n    /* \"#utility.yul\":784:790   */\n  dup2\n    /* \"#utility.yul\":778:791   */\n  mload\n    /* \"#utility.yul\":769:791   */\n  swap1\n  pop\n    /* \"#utility.yul\":800:833   */\n  tag_25\n    /* \"#utility.yul\":827:832   */\n  dup2\n    /* \"#utility.yul\":800:833   */\n  tag_12\n  jump\t// in\ntag_25:\n    /* \"#utility.yul\":696:839   */\n  swap3\n  swap2\n  pop\n  pop\n  jump\t// out\n    /* \"#utility.yul\":845:1508   */\ntag_3:\n    /* \"#utility.yul\":933:939   */\n  0x00\n    /* \"#utility.yul\":941:947   */\n  dup1\n    /* \"#utility.yul\":949:955   */\n  0x00\n    /* \"#utility.yul\":998:1000   */\n  0x60\n    /* \"#utility.yul\":986:995   */\n  dup5\n    /* \"#utility.yul\":977:984   */\n  dup7\n    /* \"#utility.yul\":973:996   */\n  sub\n    /* \"#utility.yul\":969:1001   */\n  slt\n    /* \"#utility.yul\":966:1085   */\n  iszero\n  tag_27\n  jumpi\n    /* \"#utility.yul\":1004:1083   */\n  tag_28\n  tag_8\n  jump\t// in\ntag_28:\n    /* \"#utility.yul\":966:1085   */\ntag_27:\n    /* \"#utility.yul\":1124:1125   */\n  0x00\n    /* \"#utility.yul\":1149:1213   */\n  tag_29\n    /* \"#utility.yul\":1205:1212   */\n  dup7\n    /* \"#utility.yul\":1196:1202   */\n  dup3\n    /* \"#utility.yul\":1185:1194   */\n  dup8\n    /* \"#utility.yul\":1181:1203   */\n  add\n    /* \"#utility.yul\":1149:1213   */\n  tag_13\n  jump\t// in\ntag_29:\n    /* \"#utility.yul\":1139:1213   */\n  swap4\n  pop\n    /* \"#utility.yul\":1095:1223   */\n  pop\n    /* \"#utility.yul\":1262:1264   */\n  0x20\n    /* \"#utility.yul\":1288:1352   */\n  tag_30\n    /* \"#utility.yul\":1344:1351   */\n  dup7\n    /* \"#utility.yul\":1335:1341   */\n  dup3\n    /* \"#utility.yul\":1324:1333   */\n  dup8\n    /* \"#utility.yul\":1320:1342   */\n  add\n    /* \"#utility.yul\":1288:1352   */\n  tag_13\n  jump\t// in\ntag_30:\n    /* \"#utility.yul\":1278:1352   */\n  swap3\n  pop\n    /* \"#utility.yul\":1233:1362   */\n  pop\n    /* \"#utility.yul\":1401:1403   */\n  0x40\n    /* \"#utility.yul\":1427:1491   */\n  tag_31\n    /* \"#utility.yul\":1483:1490   */\n  dup7\n    /* \"#utility.yul\":1474:1480   */\n  dup3\n    /* \"#utility.yul\":1463:1472   */\n  dup8\n    /* \"#utility.yul\":1459:1481   */\n  add\n    /* \"#utility.yul\":1427:1491   */\n  tag_13\n  jump\t// in\ntag_31:\n    /* \"#utility.yul\":1417:1491   */\n  swap2\n  pop\n    /* \"#utility.yul\":1372:1501   */\n  pop\n    /* \"#utility.yul\":845:1508   */\n  swap3\n  pop\n  swap3\n  pop\n  swap3\n  jump\t// out\n    /* \"contracts/assessment/IndividualClaims.sol\":278:2754  contract IndividualClaims is IIndividualClaims{... */\ntag_6:\n  mload(0x80)\n  mload(0xa0)\n  codecopy(0x00, dataOffset(sub_0), dataSize(sub_0))\n  0x00\n  assignImmutable(\"0xc41c8390c0da0418b7667ee0df6c246c26c4be6c0618368dce5a916e8008b0db\")\n  0x00\n  assignImmutable(\"0xdab92d3cfd2fb10847c732668f5be4f526313d660461529e6720c950cca9ea28\")\n  return(0x00, dataSize(sub_0))\nstop\n\nsub_0: assembly {\n        /* \"contracts/assessment/IndividualClaims.sol\":278:2754  contract IndividualClaims is IIndividualClaims{... */\n      mstore(0x40, 0x80)\n      jumpi(tag_1, lt(calldatasize, 0x04))\n      shr(0xe0, calldataload(0x00))\n      dup1\n      0xa888c2cd\n      gt\n      tag_9\n      jumpi\n      dup1\n      0xa888c2cd\n      eq\n      tag_5\n      jumpi\n      dup1\n      0xb2e7d7ae\n      eq\n      tag_6\n      jumpi\n      dup1\n      0xcaf30869\n      eq\n      tag_7\n      jumpi\n      dup1\n      0xee97f7f3\n      eq\n      tag_8\n      jumpi\n      jump(tag_1)\n    tag_9:\n      dup1\n      0x42e53fcf\n      eq\n      tag_2\n      jumpi\n      dup1\n      0x72c3c31e\n      eq\n      tag_3\n      jumpi\n      dup1\n      0x8b79b22d\n      eq\n      tag_4\n      jumpi\n    tag_1:\n      0x00\n      dup1\n      revert\n        /* \"contracts/assessment/IndividualClaims.sol\":367:402  ICoverNFT public immutable coverNFT */\n    tag_2:\n      callvalue\n      dup1\n      iszero\n      tag_10\n      jumpi\n      0x00\n      dup1\n      revert\n    tag_10:\n      pop\n      tag_11\n      tag_12\n      jump\t// in\n    tag_11:\n      mload(0x40)\n      tag_13\n      swap2\n      swap1\n      tag_14\n      jump\t// in\n    tag_13:\n      mload(0x40)\n      dup1\n      swap2\n      sub\n      swap1\n      return\n        /* \"contracts/assessment/IndividualClaims.sol\":1844:2412  function redeemClaimPayout(uint coverId) external override {... */\n    tag_3:\n      callvalue\n      dup1\n      iszero\n      tag_15\n      jumpi\n      0x00\n      dup1\n      revert\n    tag_15:\n      pop\n      tag_16\n      0x04\n      dup1\n      calldatasize\n      sub\n      dup2\n      add\n      swap1\n      tag_17\n      swap2\n      swap1\n      tag_18\n      jump\t// in\n    tag_17:\n      tag_19\n      jump\t// in\n    tag_16:\n      stop\n        /* \"contracts/assessment/IndividualClaims.sol\":464:530  mapping(uint => ClaimSubmission) public lastClaimSubmissionOnCover */\n    tag_4:\n      callvalue\n      dup1\n      iszero\n      tag_20\n      jumpi\n      0x00\n      dup1\n      revert\n    tag_20:\n      pop\n      tag_21\n      0x04\n      dup1\n      calldatasize\n      sub\n      dup2\n      add\n      swap1\n      tag_22\n      swap2\n      swap1\n      tag_18\n      jump\t// in\n    tag_22:\n      tag_23\n      jump\t// in\n    tag_21:\n      mload(0x40)\n      tag_24\n      swap3\n      swap2\n      swap1\n      tag_25\n      jump\t// in\n    tag_24:\n      mload(0x40)\n      dup1\n      swap2\n      sub\n      swap1\n      return\n        /* \"contracts/assessment/IndividualClaims.sol\":436:458  Claim[] public  claims */\n    tag_5:\n      callvalue\n      dup1\n      iszero\n      tag_26\n      jumpi\n      0x00\n      dup1\n      revert\n    tag_26:\n      pop\n      tag_27\n      0x04\n      dup1\n      calldatasize\n      sub\n      dup2\n      add\n      swap1\n      tag_28\n      swap2\n      swap1\n      tag_18\n      jump\t// in\n    tag_28:\n      tag_29\n      jump\t// in\n    tag_27:\n      mload(0x40)\n      tag_30\n      swap4\n      swap3\n      swap2\n      swap1\n      tag_31\n      jump\t// in\n    tag_30:\n      mload(0x40)\n      dup1\n      swap2\n      sub\n      swap1\n      return\n        /* \"contracts/assessment/IndividualClaims.sol\":330:361  HEDHToken public immutable hedh */\n    tag_6:\n      callvalue\n      dup1\n      iszero\n      tag_32\n      jumpi\n      0x00\n      dup1\n      revert\n    tag_32:\n      pop\n      tag_33\n      tag_34\n      jump\t// in\n    tag_33:\n      mload(0x40)\n      tag_35\n      swap2\n      swap1\n      tag_36\n      jump\t// in\n    tag_35:\n      mload(0x40)\n      dup1\n      swap2\n      sub\n      swap1\n      return\n        /* \"contracts/assessment/IndividualClaims.sol\":752:1249  function submitClaim(... */\n    tag_7:\n      tag_37\n      0x04\n      dup1\n      calldatasize\n      sub\n      dup2\n      add\n      swap1\n      tag_38\n      swap2\n      swap1\n      tag_39\n      jump\t// in\n    tag_38:\n      tag_40\n      jump\t// in\n    tag_37:\n      mload(0x40)\n      tag_41\n      swap2\n      swap1\n      tag_42\n      jump\t// in\n    tag_41:\n      mload(0x40)\n      dup1\n      swap2\n      sub\n      swap1\n      return\n        /* \"contracts/assessment/IndividualClaims.sol\":410:430  Master public master */\n    tag_8:\n      callvalue\n      dup1\n      iszero\n      tag_43\n      jumpi\n      0x00\n      dup1\n      revert\n    tag_43:\n      pop\n      tag_44\n      tag_45\n      jump\t// in\n    tag_44:\n      mload(0x40)\n      tag_46\n      swap2\n      swap1\n      tag_47\n      jump\t// in\n    tag_46:\n      mload(0x40)\n      dup1\n      swap2\n      sub\n      swap1\n      return\n        /* \"contracts/assessment/IndividualClaims.sol\":367:402  ICoverNFT public immutable coverNFT */\n    tag_12:\n      immutable(\"0xc41c8390c0da0418b7667ee0df6c246c26c4be6c0618368dce5a916e8008b0db\")\n      dup2\n      jump\t// out\n        /* \"contracts/assessment/IndividualClaims.sol\":1844:2412  function redeemClaimPayout(uint coverId) external override {... */\n    tag_19:\n        /* \"contracts/assessment/IndividualClaims.sol\":1913:1925  uint claimId */\n      0x00\n        /* \"contracts/assessment/IndividualClaims.sol\":1928:1954  lastClaimSubmissionOnCover */\n      0x02\n        /* \"contracts/assessment/IndividualClaims.sol\":1928:1963  lastClaimSubmissionOnCover[coverId] */\n      0x00\n        /* \"contracts/assessment/IndividualClaims.sol\":1955:1962  coverId */\n      dup4\n        /* \"contracts/assessment/IndividualClaims.sol\":1928:1963  lastClaimSubmissionOnCover[coverId] */\n      dup2\n      mstore\n      0x20\n      add\n      swap1\n      dup2\n      mstore\n      0x20\n      add\n      0x00\n      keccak256\n        /* \"contracts/assessment/IndividualClaims.sol\":1928:1971  lastClaimSubmissionOnCover[coverId].claimId */\n      0x00\n      add\n      sload\n        /* \"contracts/assessment/IndividualClaims.sol\":1913:1971  uint claimId = lastClaimSubmissionOnCover[coverId].claimId */\n      swap1\n      pop\n        /* \"contracts/assessment/IndividualClaims.sol\":1981:1999  Claim memory claim */\n      0x00\n        /* \"contracts/assessment/IndividualClaims.sol\":2002:2008  claims */\n      0x01\n        /* \"contracts/assessment/IndividualClaims.sol\":2009:2016  claimId */\n      dup3\n        /* \"contracts/assessment/IndividualClaims.sol\":2002:2017  claims[claimId] */\n      dup2\n      sload\n      dup2\n      lt\n      tag_49\n      jumpi\n      tag_50\n      tag_51\n      jump\t// in\n    tag_50:\n    tag_49:\n      swap1\n      0x00\n      mstore\n      keccak256(0x00, 0x20)\n      swap1\n      0x02\n      mul\n      add\n        /* \"contracts/assessment/IndividualClaims.sol\":1981:2017  Claim memory claim = claims[claimId] */\n      mload(0x40)\n      dup1\n      0x60\n      add\n      0x40\n      mstore\n      swap1\n      dup2\n      0x00\n      dup3\n      add\n      sload\n      dup2\n      mstore\n      0x20\n      add\n      0x01\n      dup3\n      add\n      0x00\n      swap1\n      sload\n      swap1\n      0x0100\n      exp\n      swap1\n      div\n      0xffffffffffffffffffffffffffffffffffffffff\n      and\n      0xffffffffffffffffffffffffffffffffffffffff\n      and\n      0xffffffffffffffffffffffffffffffffffffffff\n      and\n      dup2\n      mstore\n      0x20\n      add\n      0x01\n      dup3\n      add\n      0x14\n      swap1\n      sload\n      swap1\n      0x0100\n      exp\n      swap1\n      div\n      0xff\n      and\n      iszero\n      iszero\n      iszero\n      iszero\n      dup2\n      mstore\n      pop\n      pop\n      swap1\n      pop\n        /* \"contracts/assessment/IndividualClaims.sol\":2036:2041  claim */\n      dup1\n        /* \"contracts/assessment/IndividualClaims.sol\":2036:2056  claim.payoutRedeemed */\n      0x40\n      add\n      mload\n        /* \"contracts/assessment/IndividualClaims.sol\":2035:2056  !claim.payoutRedeemed */\n      iszero\n        /* \"contracts/assessment/IndividualClaims.sol\":2027:2093  require(!claim.payoutRedeemed, \"Payout has already been redeemed\") */\n      tag_53\n      jumpi\n      mload(0x40)\n      0x08c379a000000000000000000000000000000000000000000000000000000000\n      dup2\n      mstore\n      0x04\n      add\n      tag_54\n      swap1\n      tag_55\n      jump\t// in\n    tag_54:\n      mload(0x40)\n      dup1\n      swap2\n      sub\n      swap1\n      revert\n    tag_53:\n        /* \"contracts/assessment/IndividualClaims.sol\":2103:2121  IPool poolContract */\n      0x00\n        /* \"contracts/assessment/IndividualClaims.sol\":2124:2130  pool() */\n      tag_56\n        /* \"contracts/assessment/IndividualClaims.sol\":2124:2128  pool */\n      tag_57\n        /* \"contracts/assessment/IndividualClaims.sol\":2124:2130  pool() */\n      jump\t// in\n    tag_56:\n        /* \"contracts/assessment/IndividualClaims.sol\":2103:2130  IPool poolContract = pool() */\n      swap1\n      pop\n        /* \"contracts/assessment/IndividualClaims.sol\":2140:2158  IAssessment assess */\n      0x00\n        /* \"contracts/assessment/IndividualClaims.sol\":2161:2173  assessment() */\n      tag_58\n        /* \"contracts/assessment/IndividualClaims.sol\":2161:2171  assessment */\n      tag_59\n        /* \"contracts/assessment/IndividualClaims.sol\":2161:2173  assessment() */\n      jump\t// in\n    tag_58:\n        /* \"contracts/assessment/IndividualClaims.sol\":2140:2173  IAssessment assess = assessment() */\n      swap1\n      pop\n        /* \"contracts/assessment/IndividualClaims.sol\":2183:2195  ICover cover */\n      0x00\n        /* \"contracts/assessment/IndividualClaims.sol\":2198:2205  cover() */\n      tag_60\n        /* \"contracts/assessment/IndividualClaims.sol\":2198:2203  cover */\n      tag_61\n        /* \"contracts/assessment/IndividualClaims.sol\":2198:2205  cover() */\n      jump\t// in\n    tag_60:\n        /* \"contracts/assessment/IndividualClaims.sol\":2183:2205  ICover cover = cover() */\n      swap1\n      pop\n        /* \"contracts/assessment/IndividualClaims.sol\":2215:2227  poolContract */\n      dup3\n        /* \"contracts/assessment/IndividualClaims.sol\":2215:2238  poolContract.sendPayout */\n      0xffffffffffffffffffffffffffffffffffffffff\n      and\n      0xcf8d133f\n        /* \"contracts/assessment/IndividualClaims.sol\":2261:2266  claim */\n      dup6\n        /* \"contracts/assessment/IndividualClaims.sol\":2261:2277  claim.coverOwner */\n      0x20\n      add\n      mload\n        /* \"contracts/assessment/IndividualClaims.sol\":2292:2298  assess */\n      dup5\n        /* \"contracts/assessment/IndividualClaims.sol\":2292:2313  assess.calculateCover */\n      0xffffffffffffffffffffffffffffffffffffffff\n      and\n      0xbc12dfc4\n        /* \"contracts/assessment/IndividualClaims.sol\":2314:2319  cover */\n      dup6\n        /* \"contracts/assessment/IndividualClaims.sol\":2314:2332  cover.getCoverData */\n      0xffffffffffffffffffffffffffffffffffffffff\n      and\n      0x407d2a\n        /* \"contracts/assessment/IndividualClaims.sol\":2333:2338  claim */\n      dup11\n        /* \"contracts/assessment/IndividualClaims.sol\":2333:2346  claim.coverId */\n      0x00\n      add\n      mload\n        /* \"contracts/assessment/IndividualClaims.sol\":2314:2347  cover.getCoverData(claim.coverId) */\n      mload(0x40)\n      dup3\n      0xffffffff\n      and\n      0xe0\n      shl\n      dup2\n      mstore\n      0x04\n      add\n      tag_62\n      swap2\n      swap1\n      tag_63\n      jump\t// in\n    tag_62:\n      0x00\n      mload(0x40)\n      dup1\n      dup4\n      sub\n      dup2\n      dup7\n      gas\n      staticcall\n      iszero\n      dup1\n      iszero\n      tag_65\n      jumpi\n      returndatasize\n      0x00\n      dup1\n      returndatacopy\n      revert(0x00, returndatasize)\n    tag_65:\n      pop\n      pop\n      pop\n      pop\n      mload(0x40)\n      returndatasize\n      0x00\n      dup3\n      returndatacopy\n      returndatasize\n      not(0x1f)\n      0x1f\n      dup3\n      add\n      and\n      dup3\n      add\n      dup1\n      0x40\n      mstore\n      pop\n      dup2\n      add\n      swap1\n      tag_66\n      swap2\n      swap1\n      tag_67\n      jump\t// in\n    tag_66:\n        /* \"contracts/assessment/IndividualClaims.sol\":2292:2348  assess.calculateCover(cover.getCoverData(claim.coverId)) */\n      mload(0x40)\n      dup3\n      0xffffffff\n      and\n      0xe0\n      shl\n      dup2\n      mstore\n      0x04\n      add\n      tag_68\n      swap2\n      swap1\n      tag_69\n      jump\t// in\n    tag_68:\n      0x20\n      mload(0x40)\n      dup1\n      dup4\n      sub\n      dup2\n      0x00\n      dup8\n      gas\n      call\n      iszero\n      dup1\n      iszero\n      tag_71\n      jumpi\n      returndatasize\n      0x00\n      dup1\n      returndatacopy\n      revert(0x00, returndatasize)\n    tag_71:\n      pop\n      pop\n      pop\n      pop\n      mload(0x40)\n      returndatasize\n      not(0x1f)\n      0x1f\n      dup3\n      add\n      and\n      dup3\n      add\n      dup1\n      0x40\n      mstore\n      pop\n      dup2\n      add\n      swap1\n      tag_72\n      swap2\n      swap1\n      tag_73\n      jump\t// in\n    tag_72:\n        /* \"contracts/assessment/IndividualClaims.sol\":2215:2358  poolContract.sendPayout(... */\n      mload(0x40)\n      dup4\n      0xffffffff\n      and\n      0xe0\n      shl\n      dup2\n      mstore\n      0x04\n      add\n      tag_74\n      swap3\n      swap2\n      swap1\n      tag_75\n      jump\t// in\n    tag_74:\n      0x00\n      mload(0x40)\n      dup1\n      dup4\n      sub\n      dup2\n      0x00\n      dup8\n      dup1\n      extcodesize\n      iszero\n      dup1\n      iszero\n      tag_76\n      jumpi\n      0x00\n      dup1\n      revert\n    tag_76:\n      pop\n      gas\n      call\n      iszero\n      dup1\n      iszero\n      tag_78\n      jumpi\n      returndatasize\n      0x00\n      dup1\n      returndatacopy\n      revert(0x00, returndatasize)\n    tag_78:\n      pop\n      pop\n      pop\n      pop\n        /* \"contracts/assessment/IndividualClaims.sol\":2401:2405  true */\n      0x01\n        /* \"contracts/assessment/IndividualClaims.sol\":2368:2374  claims */\n      dup1\n        /* \"contracts/assessment/IndividualClaims.sol\":2375:2382  claimId */\n      dup7\n        /* \"contracts/assessment/IndividualClaims.sol\":2368:2383  claims[claimId] */\n      dup2\n      sload\n      dup2\n      lt\n      tag_79\n      jumpi\n      tag_80\n      tag_51\n      jump\t// in\n    tag_80:\n    tag_79:\n      swap1\n      0x00\n      mstore\n      keccak256(0x00, 0x20)\n      swap1\n      0x02\n      mul\n      add\n        /* \"contracts/assessment/IndividualClaims.sol\":2368:2398  claims[claimId].payoutRedeemed */\n      0x01\n      add\n      0x14\n        /* \"contracts/assessment/IndividualClaims.sol\":2368:2405  claims[claimId].payoutRedeemed = true */\n      0x0100\n      exp\n      dup2\n      sload\n      dup2\n      0xff\n      mul\n      not\n      and\n      swap1\n      dup4\n      iszero\n      iszero\n      mul\n      or\n      swap1\n      sstore\n      pop\n        /* \"contracts/assessment/IndividualClaims.sol\":1903:2412  {... */\n      pop\n      pop\n      pop\n      pop\n      pop\n        /* \"contracts/assessment/IndividualClaims.sol\":1844:2412  function redeemClaimPayout(uint coverId) external override {... */\n      pop\n      jump\t// out\n        /* \"contracts/assessment/IndividualClaims.sol\":464:530  mapping(uint => ClaimSubmission) public lastClaimSubmissionOnCover */\n    tag_23:\n      mstore(0x20, 0x02)\n      dup1\n      0x00\n      mstore\n      keccak256(0x00, 0x40)\n      0x00\n      swap2\n      pop\n      swap1\n      pop\n      dup1\n      0x00\n      add\n      sload\n      swap1\n      dup1\n      0x01\n      add\n      0x00\n      swap1\n      sload\n      swap1\n      0x0100\n      exp\n      swap1\n      div\n      0xff\n      and\n      swap1\n      pop\n      dup3\n      jump\t// out\n        /* \"contracts/assessment/IndividualClaims.sol\":436:458  Claim[] public  claims */\n    tag_29:\n      0x01\n      dup2\n      dup2\n      sload\n      dup2\n      lt\n      tag_82\n      jumpi\n      0x00\n      dup1\n      revert\n    tag_82:\n      swap1\n      0x00\n      mstore\n      keccak256(0x00, 0x20)\n      swap1\n      0x02\n      mul\n      add\n      0x00\n      swap2\n      pop\n      swap1\n      pop\n      dup1\n      0x00\n      add\n      sload\n      swap1\n      dup1\n      0x01\n      add\n      0x00\n      swap1\n      sload\n      swap1\n      0x0100\n      exp\n      swap1\n      div\n      0xffffffffffffffffffffffffffffffffffffffff\n      and\n      swap1\n      dup1\n      0x01\n      add\n      0x14\n      swap1\n      sload\n      swap1\n      0x0100\n      exp\n      swap1\n      div\n      0xff\n      and\n      swap1\n      pop\n      dup4\n      jump\t// out\n        /* \"contracts/assessment/IndividualClaims.sol\":330:361  HEDHToken public immutable hedh */\n    tag_34:\n      immutable(\"0xdab92d3cfd2fb10847c732668f5be4f526313d660461529e6720c950cca9ea28\")\n      dup2\n      jump\t// out\n        /* \"contracts/assessment/IndividualClaims.sol\":752:1249  function submitClaim(... */\n    tag_40:\n        /* \"contracts/assessment/IndividualClaims.sol\":830:848  Claim memory claim */\n      tag_84\n      tag_85\n      jump\t// in\n    tag_84:\n        /* \"contracts/assessment/IndividualClaims.sol\":860:872  ICover cover */\n      0x00\n        /* \"contracts/assessment/IndividualClaims.sol\":875:882  cover() */\n      tag_87\n        /* \"contracts/assessment/IndividualClaims.sol\":875:880  cover */\n      tag_61\n        /* \"contracts/assessment/IndividualClaims.sol\":875:882  cover() */\n      jump\t// in\n    tag_87:\n        /* \"contracts/assessment/IndividualClaims.sol\":860:882  ICover cover = cover() */\n      swap1\n      pop\n        /* \"contracts/assessment/IndividualClaims.sol\":892:911  CoverData memory cd */\n      0x00\n        /* \"contracts/assessment/IndividualClaims.sol\":914:919  cover */\n      dup2\n        /* \"contracts/assessment/IndividualClaims.sol\":914:932  cover.getCoverData */\n      0xffffffffffffffffffffffffffffffffffffffff\n      and\n      0x407d2a\n        /* \"contracts/assessment/IndividualClaims.sol\":933:940  coverId */\n      dup6\n        /* \"contracts/assessment/IndividualClaims.sol\":914:941  cover.getCoverData(coverId) */\n      mload(0x40)\n      dup3\n      0xffffffff\n      and\n      0xe0\n      shl\n      dup2\n      mstore\n      0x04\n      add\n      tag_88\n      swap2\n      swap1\n      tag_89\n      jump\t// in\n    tag_88:\n      0x00\n      mload(0x40)\n      dup1\n      dup4\n      sub\n      dup2\n      dup7\n      gas\n      staticcall\n      iszero\n      dup1\n      iszero\n      tag_91\n      jumpi\n      returndatasize\n      0x00\n      dup1\n      returndatacopy\n      revert(0x00, returndatasize)\n    tag_91:\n      pop\n      pop\n      pop\n      pop\n      mload(0x40)\n      returndatasize\n      0x00\n      dup3\n      returndatacopy\n      returndatasize\n      not(0x1f)\n      0x1f\n      dup3\n      add\n      and\n      dup3\n      add\n      dup1\n      0x40\n      mstore\n      pop\n      dup2\n      add\n      swap1\n      tag_92\n      swap2\n      swap1\n      tag_67\n      jump\t// in\n    tag_92:\n        /* \"contracts/assessment/IndividualClaims.sol\":892:941  CoverData memory cd = cover.getCoverData(coverId) */\n      swap1\n      pop\n        /* \"contracts/assessment/IndividualClaims.sol\":982:997  block.timestamp */\n      timestamp\n        /* \"contracts/assessment/IndividualClaims.sol\":969:971  cd */\n      dup2\n        /* \"contracts/assessment/IndividualClaims.sol\":969:977  cd.start */\n      0x40\n      add\n      mload\n        /* \"contracts/assessment/IndividualClaims.sol\":959:961  cd */\n      dup3\n        /* \"contracts/assessment/IndividualClaims.sol\":959:968  cd.period */\n      0x60\n      add\n      mload\n        /* \"contracts/assessment/IndividualClaims.sol\":959:977  cd.period+cd.start */\n      tag_93\n      swap2\n      swap1\n      tag_94\n      jump\t// in\n    tag_93:\n        /* \"contracts/assessment/IndividualClaims.sol\":959:997  cd.period+cd.start <=  block.timestamp */\n      gt\n      iszero\n        /* \"contracts/assessment/IndividualClaims.sol\":951:1031  require(cd.period+cd.start <=  block.timestamp,\"Only submit claim after expiry\") */\n      tag_95\n      jumpi\n      mload(0x40)\n      0x08c379a000000000000000000000000000000000000000000000000000000000\n      dup2\n      mstore\n      0x04\n      add\n      tag_96\n      swap1\n      tag_97\n      jump\t// in\n    tag_96:\n      mload(0x40)\n      dup1\n      swap2\n      sub\n      swap1\n      revert\n    tag_95:\n        /* \"contracts/assessment/IndividualClaims.sol\":1059:1067  coverNFT */\n      immutable(\"0xc41c8390c0da0418b7667ee0df6c246c26c4be6c0618368dce5a916e8008b0db\")\n        /* \"contracts/assessment/IndividualClaims.sol\":1059:1085  coverNFT.isApprovedOrOwner */\n      0xffffffffffffffffffffffffffffffffffffffff\n      and\n      0x430c2081\n        /* \"contracts/assessment/IndividualClaims.sol\":1086:1096  msg.sender */\n      caller\n        /* \"contracts/assessment/IndividualClaims.sol\":1098:1105  coverId */\n      dup7\n        /* \"contracts/assessment/IndividualClaims.sol\":1059:1106  coverNFT.isApprovedOrOwner(msg.sender, coverId) */\n      mload(0x40)\n      dup4\n      0xffffffff\n      and\n      0xe0\n      shl\n      dup2\n      mstore\n      0x04\n      add\n      tag_98\n      swap3\n      swap2\n      swap1\n      tag_99\n      jump\t// in\n    tag_98:\n      0x20\n      mload(0x40)\n      dup1\n      dup4\n      sub\n      dup2\n      0x00\n      dup8\n      gas\n      call\n      iszero\n      dup1\n      iszero\n      tag_101\n      jumpi\n      returndatasize\n      0x00\n      dup1\n      returndatacopy\n      revert(0x00, returndatasize)\n    tag_101:\n      pop\n      pop\n      pop\n      pop\n      mload(0x40)\n      returndatasize\n      not(0x1f)\n      0x1f\n      dup3\n      add\n      and\n      dup3\n      add\n      dup1\n      0x40\n      mstore\n      pop\n      dup2\n      add\n      swap1\n      tag_102\n      swap2\n      swap1\n      tag_103\n      jump\t// in\n    tag_102:\n        /* \"contracts/assessment/IndividualClaims.sol\":1042:1183  require(... */\n      tag_104\n      jumpi\n      mload(0x40)\n      0x08c379a000000000000000000000000000000000000000000000000000000000\n      dup2\n      mstore\n      0x04\n      add\n      tag_105\n      swap1\n      tag_106\n      jump\t// in\n    tag_105:\n      mload(0x40)\n      dup1\n      swap2\n      sub\n      swap1\n      revert\n    tag_104:\n        /* \"contracts/assessment/IndividualClaims.sol\":1200:1233  _submitClaim(coverId, msg.sender) */\n      tag_107\n        /* \"contracts/assessment/IndividualClaims.sol\":1213:1220  coverId */\n      dup5\n        /* \"contracts/assessment/IndividualClaims.sol\":1200:1233  _submitClaim(coverId, msg.sender) */\n      0xffffffff\n      and\n        /* \"contracts/assessment/IndividualClaims.sol\":1222:1232  msg.sender */\n      caller\n        /* \"contracts/assessment/IndividualClaims.sol\":1200:1212  _submitClaim */\n      tag_108\n        /* \"contracts/assessment/IndividualClaims.sol\":1200:1233  _submitClaim(coverId, msg.sender) */\n      jump\t// in\n    tag_107:\n        /* \"contracts/assessment/IndividualClaims.sol\":1193:1233  return _submitClaim(coverId, msg.sender) */\n      swap3\n      pop\n      pop\n      pop\n        /* \"contracts/assessment/IndividualClaims.sol\":752:1249  function submitClaim(... */\n      swap2\n      swap1\n      pop\n      jump\t// out\n        /* \"contracts/assessment/IndividualClaims.sol\":410:430  Master public master */\n    tag_45:\n      0x00\n      dup1\n      sload\n      swap1\n      0x0100\n      exp\n      swap1\n      div\n      0xffffffffffffffffffffffffffffffffffffffff\n      and\n      dup2\n      jump\t// out\n        /* \"contracts/assessment/IndividualClaims.sol\":2525:2622  function pool() internal view returns (IPool) {... */\n    tag_57:\n        /* \"contracts/assessment/IndividualClaims.sol\":2564:2569  IPool */\n      0x00\n        /* \"contracts/assessment/IndividualClaims.sol\":2594:2600  master */\n      dup1\n      0x00\n      swap1\n      sload\n      swap1\n      0x0100\n      exp\n      swap1\n      div\n      0xffffffffffffffffffffffffffffffffffffffff\n      and\n        /* \"contracts/assessment/IndividualClaims.sol\":2594:2612  master.PoolAddress */\n      0xffffffffffffffffffffffffffffffffffffffff\n      and\n      0x9ccc903d\n        /* \"contracts/assessment/IndividualClaims.sol\":2594:2614  master.PoolAddress() */\n      mload(0x40)\n      dup2\n      0xffffffff\n      and\n      0xe0\n      shl\n      dup2\n      mstore\n      0x04\n      add\n      0x20\n      mload(0x40)\n      dup1\n      dup4\n      sub\n      dup2\n      dup7\n      gas\n      staticcall\n      iszero\n      dup1\n      iszero\n      tag_111\n      jumpi\n      returndatasize\n      0x00\n      dup1\n      returndatacopy\n      revert(0x00, returndatasize)\n    tag_111:\n      pop\n      pop\n      pop\n      pop\n      mload(0x40)\n      returndatasize\n      not(0x1f)\n      0x1f\n      dup3\n      add\n      and\n      dup3\n      add\n      dup1\n      0x40\n      mstore\n      pop\n      dup2\n      add\n      swap1\n      tag_112\n      swap2\n      swap1\n      tag_113\n      jump\t// in\n    tag_112:\n        /* \"contracts/assessment/IndividualClaims.sol\":2581:2615  return IPool(master.PoolAddress()) */\n      swap1\n      pop\n        /* \"contracts/assessment/IndividualClaims.sol\":2525:2622  function pool() internal view returns (IPool) {... */\n      swap1\n      jump\t// out\n        /* \"contracts/assessment/IndividualClaims.sol\":2628:2749  function assessment() internal view returns (IAssessment) {... */\n    tag_59:\n        /* \"contracts/assessment/IndividualClaims.sol\":2673:2684  IAssessment */\n      0x00\n        /* \"contracts/assessment/IndividualClaims.sol\":2715:2721  master */\n      dup1\n      0x00\n      swap1\n      sload\n      swap1\n      0x0100\n      exp\n      swap1\n      div\n      0xffffffffffffffffffffffffffffffffffffffff\n      and\n        /* \"contracts/assessment/IndividualClaims.sol\":2715:2739  master.AssessmentAddress */\n      0xffffffffffffffffffffffffffffffffffffffff\n      and\n      0xff5f1b9f\n        /* \"contracts/assessment/IndividualClaims.sol\":2715:2741  master.AssessmentAddress() */\n      mload(0x40)\n      dup2\n      0xffffffff\n      and\n      0xe0\n      shl\n      dup2\n      mstore\n      0x04\n      add\n      0x20\n      mload(0x40)\n      dup1\n      dup4\n      sub\n      dup2\n      dup7\n      gas\n      staticcall\n      iszero\n      dup1\n      iszero\n      tag_116\n      jumpi\n      returndatasize\n      0x00\n      dup1\n      returndatacopy\n      revert(0x00, returndatasize)\n    tag_116:\n      pop\n      pop\n      pop\n      pop\n      mload(0x40)\n      returndatasize\n      not(0x1f)\n      0x1f\n      dup3\n      add\n      and\n      dup3\n      add\n      dup1\n      0x40\n      mstore\n      pop\n      dup2\n      add\n      swap1\n      tag_117\n      swap2\n      swap1\n      tag_113\n      jump\t// in\n    tag_117:\n        /* \"contracts/assessment/IndividualClaims.sol\":2696:2742  return IAssessment(master.AssessmentAddress()) */\n      swap1\n      pop\n        /* \"contracts/assessment/IndividualClaims.sol\":2628:2749  function assessment() internal view returns (IAssessment) {... */\n      swap1\n      jump\t// out\n        /* \"contracts/assessment/IndividualClaims.sol\":2422:2519  function cover() internal view returns (ICover) {... */\n    tag_61:\n        /* \"contracts/assessment/IndividualClaims.sol\":2462:2468  ICover */\n      0x00\n        /* \"contracts/assessment/IndividualClaims.sol\":2490:2496  master */\n      dup1\n      0x00\n      swap1\n      sload\n      swap1\n      0x0100\n      exp\n      swap1\n      div\n      0xffffffffffffffffffffffffffffffffffffffff\n      and\n        /* \"contracts/assessment/IndividualClaims.sol\":2490:2509  master.CoverAddress */\n      0xffffffffffffffffffffffffffffffffffffffff\n      and\n      0xe67cdafd\n        /* \"contracts/assessment/IndividualClaims.sol\":2490:2511  master.CoverAddress() */\n      mload(0x40)\n      dup2\n      0xffffffff\n      and\n      0xe0\n      shl\n      dup2\n      mstore\n      0x04\n      add\n      0x20\n      mload(0x40)\n      dup1\n      dup4\n      sub\n      dup2\n      dup7\n      gas\n      staticcall\n      iszero\n      dup1\n      iszero\n      tag_120\n      jumpi\n      returndatasize\n      0x00\n      dup1\n      returndatacopy\n      revert(0x00, returndatasize)\n    tag_120:\n      pop\n      pop\n      pop\n      pop\n      mload(0x40)\n      returndatasize\n      not(0x1f)\n      0x1f\n      dup3\n      add\n      and\n      dup3\n      add\n      dup1\n      0x40\n      mstore\n      pop\n      dup2\n      add\n      swap1\n      tag_121\n      swap2\n      swap1\n      tag_113\n      jump\t// in\n    tag_121:\n        /* \"contracts/assessment/IndividualClaims.sol\":2476:2512  return ICover(master.CoverAddress()) */\n      swap1\n      pop\n        /* \"contracts/assessment/IndividualClaims.sol\":2422:2519  function cover() internal view returns (ICover) {... */\n      swap1\n      jump\t// out\n        /* \"contracts/assessment/IndividualClaims.sol\":1259:1838  function _submitClaim(uint coverId, address owner ) internal  returns (Claim memory) {... */\n    tag_108:\n        /* \"contracts/assessment/IndividualClaims.sol\":1330:1342  Claim memory */\n      tag_122\n      tag_85\n      jump\t// in\n    tag_122:\n        /* \"contracts/assessment/IndividualClaims.sol\":1354:1395  ClaimSubmission memory previousSubmission */\n      0x00\n        /* \"contracts/assessment/IndividualClaims.sol\":1398:1424  lastClaimSubmissionOnCover */\n      0x02\n        /* \"contracts/assessment/IndividualClaims.sol\":1398:1433  lastClaimSubmissionOnCover[coverId] */\n      0x00\n        /* \"contracts/assessment/IndividualClaims.sol\":1425:1432  coverId */\n      dup6\n        /* \"contracts/assessment/IndividualClaims.sol\":1398:1433  lastClaimSubmissionOnCover[coverId] */\n      dup2\n      mstore\n      0x20\n      add\n      swap1\n      dup2\n      mstore\n      0x20\n      add\n      0x00\n      keccak256\n        /* \"contracts/assessment/IndividualClaims.sol\":1354:1433  ClaimSubmission memory previousSubmission = lastClaimSubmissionOnCover[coverId] */\n      mload(0x40)\n      dup1\n      0x40\n      add\n      0x40\n      mstore\n      swap1\n      dup2\n      0x00\n      dup3\n      add\n      sload\n      dup2\n      mstore\n      0x20\n      add\n      0x01\n      dup3\n      add\n      0x00\n      swap1\n      sload\n      swap1\n      0x0100\n      exp\n      swap1\n      div\n      0xff\n      and\n      iszero\n      iszero\n      iszero\n      iszero\n      dup2\n      mstore\n      pop\n      pop\n      swap1\n      pop\n        /* \"contracts/assessment/IndividualClaims.sol\":1448:1466  previousSubmission */\n      dup1\n        /* \"contracts/assessment/IndividualClaims.sol\":1448:1473  previousSubmission.exists */\n      0x20\n      add\n      mload\n        /* \"contracts/assessment/IndividualClaims.sol\":1444:1532  if (previousSubmission.exists) {... */\n      iszero\n      tag_124\n      jumpi\n        /* \"contracts/assessment/IndividualClaims.sol\":1489:1521  revert(\"A payout already exist\") */\n      mload(0x40)\n      0x08c379a000000000000000000000000000000000000000000000000000000000\n      dup2\n      mstore\n      0x04\n      add\n      tag_125\n      swap1\n      tag_126\n      jump\t// in\n    tag_125:\n      mload(0x40)\n      dup1\n      swap2\n      sub\n      swap1\n      revert\n        /* \"contracts/assessment/IndividualClaims.sol\":1444:1532  if (previousSubmission.exists) {... */\n    tag_124:\n        /* \"contracts/assessment/IndividualClaims.sol\":1579:1621  ClaimSubmission(uint(claims.length), true) */\n      mload(0x40)\n      dup1\n      0x40\n      add\n      0x40\n      mstore\n      dup1\n        /* \"contracts/assessment/IndividualClaims.sol\":1600:1606  claims */\n      0x01\n        /* \"contracts/assessment/IndividualClaims.sol\":1600:1613  claims.length */\n      dup1\n      sload\n      swap1\n      pop\n        /* \"contracts/assessment/IndividualClaims.sol\":1579:1621  ClaimSubmission(uint(claims.length), true) */\n      dup2\n      mstore\n      0x20\n      add\n        /* \"contracts/assessment/IndividualClaims.sol\":1616:1620  true */\n      0x01\n        /* \"contracts/assessment/IndividualClaims.sol\":1579:1621  ClaimSubmission(uint(claims.length), true) */\n      iszero\n      iszero\n      dup2\n      mstore\n      pop\n        /* \"contracts/assessment/IndividualClaims.sol\":1541:1567  lastClaimSubmissionOnCover */\n      0x02\n        /* \"contracts/assessment/IndividualClaims.sol\":1541:1576  lastClaimSubmissionOnCover[coverId] */\n      0x00\n        /* \"contracts/assessment/IndividualClaims.sol\":1568:1575  coverId */\n      dup7\n        /* \"contracts/assessment/IndividualClaims.sol\":1541:1576  lastClaimSubmissionOnCover[coverId] */\n      dup2\n      mstore\n      0x20\n      add\n      swap1\n      dup2\n      mstore\n      0x20\n      add\n      0x00\n      keccak256\n        /* \"contracts/assessment/IndividualClaims.sol\":1541:1621  lastClaimSubmissionOnCover[coverId] = ClaimSubmission(uint(claims.length), true) */\n      0x00\n      dup3\n      add\n      mload\n      dup2\n      0x00\n      add\n      sstore\n      0x20\n      dup3\n      add\n      mload\n      dup2\n      0x01\n      add\n      exp(0x0100, 0x00)\n      dup2\n      sload\n      dup2\n      0xff\n      mul\n      not\n      and\n      swap1\n      dup4\n      iszero\n      iszero\n      mul\n      or\n      swap1\n      sstore\n      pop\n      swap1\n      pop\n      pop\n        /* \"contracts/assessment/IndividualClaims.sol\":1633:1647  Claim memory c */\n      0x00\n        /* \"contracts/assessment/IndividualClaims.sol\":1650:1676  Claim(coverId,owner,false) */\n      mload(0x40)\n      dup1\n      0x60\n      add\n      0x40\n      mstore\n      dup1\n        /* \"contracts/assessment/IndividualClaims.sol\":1656:1663  coverId */\n      dup7\n        /* \"contracts/assessment/IndividualClaims.sol\":1650:1676  Claim(coverId,owner,false) */\n      dup2\n      mstore\n      0x20\n      add\n        /* \"contracts/assessment/IndividualClaims.sol\":1664:1669  owner */\n      dup6\n        /* \"contracts/assessment/IndividualClaims.sol\":1650:1676  Claim(coverId,owner,false) */\n      0xffffffffffffffffffffffffffffffffffffffff\n      and\n      dup2\n      mstore\n      0x20\n      add\n        /* \"contracts/assessment/IndividualClaims.sol\":1670:1675  false */\n      0x00\n        /* \"contracts/assessment/IndividualClaims.sol\":1650:1676  Claim(coverId,owner,false) */\n      iszero\n      iszero\n      dup2\n      mstore\n      pop\n        /* \"contracts/assessment/IndividualClaims.sol\":1633:1676  Claim memory c = Claim(coverId,owner,false) */\n      swap1\n      pop\n        /* \"contracts/assessment/IndividualClaims.sol\":1686:1692  claims */\n      0x01\n        /* \"contracts/assessment/IndividualClaims.sol\":1698:1699  c */\n      dup2\n        /* \"contracts/assessment/IndividualClaims.sol\":1686:1700  claims.push(c) */\n      swap1\n      dup1\n      0x01\n      dup2\n      sload\n      add\n      dup1\n      dup3\n      sstore\n      dup1\n      swap2\n      pop\n      pop\n      0x01\n      swap1\n      sub\n      swap1\n      0x00\n      mstore\n      keccak256(0x00, 0x20)\n      swap1\n      0x02\n      mul\n      add\n      0x00\n      swap1\n      swap2\n      swap1\n      swap2\n      swap1\n      swap2\n      pop\n      0x00\n      dup3\n      add\n      mload\n      dup2\n      0x00\n      add\n      sstore\n      0x20\n      dup3\n      add\n      mload\n      dup2\n      0x01\n      add\n      exp(0x0100, 0x00)\n      dup2\n      sload\n      dup2\n      0xffffffffffffffffffffffffffffffffffffffff\n      mul\n      not\n      and\n      swap1\n      dup4\n      0xffffffffffffffffffffffffffffffffffffffff\n      and\n      mul\n      or\n      swap1\n      sstore\n      pop\n      0x40\n      dup3\n      add\n      mload\n      dup2\n      0x01\n      add\n      exp(0x0100, 0x14)\n      dup2\n      sload\n      dup2\n      0xff\n      mul\n      not\n      and\n      swap1\n      dup4\n      iszero\n      iszero\n      mul\n      or\n      swap1\n      sstore\n      pop\n      pop\n      pop\n        /* \"contracts/assessment/IndividualClaims.sol\":1710:1722  ICover cover */\n      0x00\n        /* \"contracts/assessment/IndividualClaims.sol\":1725:1732  cover() */\n      tag_128\n        /* \"contracts/assessment/IndividualClaims.sol\":1725:1730  cover */\n      tag_61\n        /* \"contracts/assessment/IndividualClaims.sol\":1725:1732  cover() */\n      jump\t// in\n    tag_128:\n        /* \"contracts/assessment/IndividualClaims.sol\":1710:1732  ICover cover = cover() */\n      swap1\n      pop\n        /* \"contracts/assessment/IndividualClaims.sol\":1742:1747  cover */\n      dup1\n        /* \"contracts/assessment/IndividualClaims.sol\":1742:1767  cover.decActiveCoverInETH */\n      0xffffffffffffffffffffffffffffffffffffffff\n      and\n      0x4b61a44b\n        /* \"contracts/assessment/IndividualClaims.sol\":1768:1773  cover */\n      dup3\n        /* \"contracts/assessment/IndividualClaims.sol\":1768:1786  cover.getCoverData */\n      0xffffffffffffffffffffffffffffffffffffffff\n      and\n      0x407d2a\n        /* \"contracts/assessment/IndividualClaims.sol\":1787:1794  coverId */\n      dup10\n        /* \"contracts/assessment/IndividualClaims.sol\":1768:1795  cover.getCoverData(coverId) */\n      mload(0x40)\n      dup3\n      0xffffffff\n      and\n      0xe0\n      shl\n      dup2\n      mstore\n      0x04\n      add\n      tag_129\n      swap2\n      swap1\n      tag_63\n      jump\t// in\n    tag_129:\n      0x00\n      mload(0x40)\n      dup1\n      dup4\n      sub\n      dup2\n      dup7\n      gas\n      staticcall\n      iszero\n      dup1\n      iszero\n      tag_131\n      jumpi\n      returndatasize\n      0x00\n      dup1\n      returndatacopy\n      revert(0x00, returndatasize)\n    tag_131:\n      pop\n      pop\n      pop\n      pop\n      mload(0x40)\n      returndatasize\n      0x00\n      dup3\n      returndatacopy\n      returndatasize\n      not(0x1f)\n      0x1f\n      dup3\n      add\n      and\n      dup3\n      add\n      dup1\n      0x40\n      mstore\n      pop\n      dup2\n      add\n      swap1\n      tag_132\n      swap2\n      swap1\n      tag_67\n      jump\t// in\n    tag_132:\n        /* \"contracts/assessment/IndividualClaims.sol\":1768:1812  cover.getCoverData(coverId).totalClaimAmount */\n      0x20\n      add\n      mload\n        /* \"contracts/assessment/IndividualClaims.sol\":1742:1813  cover.decActiveCoverInETH(cover.getCoverData(coverId).totalClaimAmount) */\n      mload(0x40)\n      dup3\n      0xffffffff\n      and\n      0xe0\n      shl\n      dup2\n      mstore\n      0x04\n      add\n      tag_133\n      swap2\n      swap1\n      tag_63\n      jump\t// in\n    tag_133:\n      0x00\n      mload(0x40)\n      dup1\n      dup4\n      sub\n      dup2\n      0x00\n      dup8\n      dup1\n      extcodesize\n      iszero\n      dup1\n      iszero\n      tag_134\n      jumpi\n      0x00\n      dup1\n      revert\n    tag_134:\n      pop\n      gas\n      call\n      iszero\n      dup1\n      iszero\n      tag_136\n      jumpi\n      returndatasize\n      0x00\n      dup1\n      returndatacopy\n      revert(0x00, returndatasize)\n    tag_136:\n      pop\n      pop\n      pop\n      pop\n        /* \"contracts/assessment/IndividualClaims.sol\":1830:1831  c */\n      dup2\n        /* \"contracts/assessment/IndividualClaims.sol\":1823:1831  return c */\n      swap4\n      pop\n      pop\n      pop\n      pop\n        /* \"contracts/assessment/IndividualClaims.sol\":1259:1838  function _submitClaim(uint coverId, address owner ) internal  returns (Claim memory) {... */\n      swap3\n      swap2\n      pop\n      pop\n      jump\t// out\n    tag_85:\n      mload(0x40)\n      dup1\n      0x60\n      add\n      0x40\n      mstore\n      dup1\n      0x00\n      dup2\n      mstore\n      0x20\n      add\n      and(0xffffffffffffffffffffffffffffffffffffffff, 0x00)\n      dup2\n      mstore\n      0x20\n      add\n      iszero(iszero(0x00))\n      dup2\n      mstore\n      pop\n      swap1\n      jump\t// out\n        /* \"#utility.yul\":7:133   */\n    tag_137:\n        /* \"#utility.yul\":44:51   */\n      0x00\n        /* \"#utility.yul\":84:126   */\n      0xffffffffffffffffffffffffffffffffffffffff\n        /* \"#utility.yul\":77:82   */\n      dup3\n        /* \"#utility.yul\":73:127   */\n      and\n        /* \"#utility.yul\":62:127   */\n      swap1\n      pop\n        /* \"#utility.yul\":7:133   */\n      swap2\n      swap1\n      pop\n      jump\t// out\n        /* \"#utility.yul\":139:199   */\n    tag_138:\n        /* \"#utility.yul\":167:170   */\n      0x00\n        /* \"#utility.yul\":188:193   */\n      dup2\n        /* \"#utility.yul\":181:193   */\n      swap1\n      pop\n        /* \"#utility.yul\":139:199   */\n      swap2\n      swap1\n      pop\n      jump\t// out\n        /* \"#utility.yul\":205:347   */\n    tag_139:\n        /* \"#utility.yul\":255:264   */\n      0x00\n        /* \"#utility.yul\":288:341   */\n      tag_205\n        /* \"#utility.yul\":306:340   */\n      tag_206\n        /* \"#utility.yul\":315:339   */\n      tag_207\n        /* \"#utility.yul\":333:338   */\n      dup5\n        /* \"#utility.yul\":315:339   */\n      tag_137\n      jump\t// in\n    tag_207:\n        /* \"#utility.yul\":306:340   */\n      tag_138\n      jump\t// in\n    tag_206:\n        /* \"#utility.yul\":288:341   */\n      tag_137\n      jump\t// in\n    tag_205:\n        /* \"#utility.yul\":275:341   */\n      swap1\n      pop\n        /* \"#utility.yul\":205:347   */\n      swap2\n      swap1\n      pop\n      jump\t// out\n        /* \"#utility.yul\":353:479   */\n    tag_140:\n        /* \"#utility.yul\":403:412   */\n      0x00\n        /* \"#utility.yul\":436:473   */\n      tag_209\n        /* \"#utility.yul\":467:472   */\n      dup3\n        /* \"#utility.yul\":436:473   */\n      tag_139\n      jump\t// in\n    tag_209:\n        /* \"#utility.yul\":423:473   */\n      swap1\n      pop\n        /* \"#utility.yul\":353:479   */\n      swap2\n      swap1\n      pop\n      jump\t// out\n        /* \"#utility.yul\":485:628   */\n    tag_141:\n        /* \"#utility.yul\":552:561   */\n      0x00\n        /* \"#utility.yul\":585:622   */\n      tag_211\n        /* \"#utility.yul\":616:621   */\n      dup3\n        /* \"#utility.yul\":585:622   */\n      tag_140\n      jump\t// in\n    tag_211:\n        /* \"#utility.yul\":572:622   */\n      swap1\n      pop\n        /* \"#utility.yul\":485:628   */\n      swap2\n      swap1\n      pop\n      jump\t// out\n        /* \"#utility.yul\":634:799   */\n    tag_142:\n        /* \"#utility.yul\":738:792   */\n      tag_213\n        /* \"#utility.yul\":786:791   */\n      dup2\n        /* \"#utility.yul\":738:792   */\n      tag_141\n      jump\t// in\n    tag_213:\n        /* \"#utility.yul\":733:736   */\n      dup3\n        /* \"#utility.yul\":726:793   */\n      mstore\n        /* \"#utility.yul\":634:799   */\n      pop\n      pop\n      jump\t// out\n        /* \"#utility.yul\":805:1061   */\n    tag_14:\n        /* \"#utility.yul\":915:919   */\n      0x00\n        /* \"#utility.yul\":953:955   */\n      0x20\n        /* \"#utility.yul\":942:951   */\n      dup3\n        /* \"#utility.yul\":938:956   */\n      add\n        /* \"#utility.yul\":930:956   */\n      swap1\n      pop\n        /* \"#utility.yul\":966:1054   */\n      tag_215\n        /* \"#utility.yul\":1051:1052   */\n      0x00\n        /* \"#utility.yul\":1040:1049   */\n      dup4\n        /* \"#utility.yul\":1036:1053   */\n      add\n        /* \"#utility.yul\":1027:1033   */\n      dup5\n        /* \"#utility.yul\":966:1054   */\n      tag_142\n      jump\t// in\n    tag_215:\n        /* \"#utility.yul\":805:1061   */\n      swap3\n      swap2\n      pop\n      pop\n      jump\t// out\n        /* \"#utility.yul\":1067:1142   */\n    tag_143:\n        /* \"#utility.yul\":1100:1106   */\n      0x00\n        /* \"#utility.yul\":1133:1135   */\n      0x40\n        /* \"#utility.yul\":1127:1136   */\n      mload\n        /* \"#utility.yul\":1117:1136   */\n      swap1\n      pop\n        /* \"#utility.yul\":1067:1142   */\n      swap1\n      jump\t// out\n        /* \"#utility.yul\":1148:1265   */\n    tag_144:\n        /* \"#utility.yul\":1257:1258   */\n      0x00\n        /* \"#utility.yul\":1254:1255   */\n      dup1\n        /* \"#utility.yul\":1247:1259   */\n      revert\n        /* \"#utility.yul\":1271:1388   */\n    tag_145:\n        /* \"#utility.yul\":1380:1381   */\n      0x00\n        /* \"#utility.yul\":1377:1378   */\n      dup1\n        /* \"#utility.yul\":1370:1382   */\n      revert\n        /* \"#utility.yul\":1394:1471   */\n    tag_146:\n        /* \"#utility.yul\":1431:1438   */\n      0x00\n        /* \"#utility.yul\":1460:1465   */\n      dup2\n        /* \"#utility.yul\":1449:1465   */\n      swap1\n      pop\n        /* \"#utility.yul\":1394:1471   */\n      swap2\n      swap1\n      pop\n      jump\t// out\n        /* \"#utility.yul\":1477:1599   */\n    tag_147:\n        /* \"#utility.yul\":1550:1574   */\n      tag_221\n        /* \"#utility.yul\":1568:1573   */\n      dup2\n        /* \"#utility.yul\":1550:1574   */\n      tag_146\n      jump\t// in\n    tag_221:\n        /* \"#utility.yul\":1543:1548   */\n      dup2\n        /* \"#utility.yul\":1540:1575   */\n      eq\n        /* \"#utility.yul\":1530:1593   */\n      tag_222\n      jumpi\n        /* \"#utility.yul\":1589:1590   */\n      0x00\n        /* \"#utility.yul\":1586:1587   */\n      dup1\n        /* \"#utility.yul\":1579:1591   */\n      revert\n        /* \"#utility.yul\":1530:1593   */\n    tag_222:\n        /* \"#utility.yul\":1477:1599   */\n      pop\n      jump\t// out\n        /* \"#utility.yul\":1605:1744   */\n    tag_148:\n        /* \"#utility.yul\":1651:1656   */\n      0x00\n        /* \"#utility.yul\":1689:1695   */\n      dup2\n        /* \"#utility.yul\":1676:1696   */\n      calldataload\n        /* \"#utility.yul\":1667:1696   */\n      swap1\n      pop\n        /* \"#utility.yul\":1705:1738   */\n      tag_224\n        /* \"#utility.yul\":1732:1737   */\n      dup2\n        /* \"#utility.yul\":1705:1738   */\n      tag_147\n      jump\t// in\n    tag_224:\n        /* \"#utility.yul\":1605:1744   */\n      swap3\n      swap2\n      pop\n      pop\n      jump\t// out\n        /* \"#utility.yul\":1750:2079   */\n    tag_18:\n        /* \"#utility.yul\":1809:1815   */\n      0x00\n        /* \"#utility.yul\":1858:1860   */\n      0x20\n        /* \"#utility.yul\":1846:1855   */\n      dup3\n        /* \"#utility.yul\":1837:1844   */\n      dup5\n        /* \"#utility.yul\":1833:1856   */\n      sub\n        /* \"#utility.yul\":1829:1861   */\n      slt\n        /* \"#utility.yul\":1826:1945   */\n      iszero\n      tag_226\n      jumpi\n        /* \"#utility.yul\":1864:1943   */\n      tag_227\n      tag_144\n      jump\t// in\n    tag_227:\n        /* \"#utility.yul\":1826:1945   */\n    tag_226:\n        /* \"#utility.yul\":1984:1985   */\n      0x00\n        /* \"#utility.yul\":2009:2062   */\n      tag_228\n        /* \"#utility.yul\":2054:2061   */\n      dup5\n        /* \"#utility.yul\":2045:2051   */\n      dup3\n        /* \"#utility.yul\":2034:2043   */\n      dup6\n        /* \"#utility.yul\":2030:2052   */\n      add\n        /* \"#utility.yul\":2009:2062   */\n      tag_148\n      jump\t// in\n    tag_228:\n        /* \"#utility.yul\":1999:2062   */\n      swap2\n      pop\n        /* \"#utility.yul\":1955:2072   */\n      pop\n        /* \"#utility.yul\":1750:2079   */\n      swap3\n      swap2\n      pop\n      pop\n      jump\t// out\n        /* \"#utility.yul\":2085:2203   */\n    tag_149:\n        /* \"#utility.yul\":2172:2196   */\n      tag_230\n        /* \"#utility.yul\":2190:2195   */\n      dup2\n        /* \"#utility.yul\":2172:2196   */\n      tag_146\n      jump\t// in\n    tag_230:\n        /* \"#utility.yul\":2167:2170   */\n      dup3\n        /* \"#utility.yul\":2160:2197   */\n      mstore\n        /* \"#utility.yul\":2085:2203   */\n      pop\n      pop\n      jump\t// out\n        /* \"#utility.yul\":2209:2299   */\n    tag_150:\n        /* \"#utility.yul\":2243:2250   */\n      0x00\n        /* \"#utility.yul\":2286:2291   */\n      dup2\n        /* \"#utility.yul\":2279:2292   */\n      iszero\n        /* \"#utility.yul\":2272:2293   */\n      iszero\n        /* \"#utility.yul\":2261:2293   */\n      swap1\n      pop\n        /* \"#utility.yul\":2209:2299   */\n      swap2\n      swap1\n      pop\n      jump\t// out\n        /* \"#utility.yul\":2305:2414   */\n    tag_151:\n        /* \"#utility.yul\":2386:2407   */\n      tag_233\n        /* \"#utility.yul\":2401:2406   */\n      dup2\n        /* \"#utility.yul\":2386:2407   */\n      tag_150\n      jump\t// in\n    tag_233:\n        /* \"#utility.yul\":2381:2384   */\n      dup3\n        /* \"#utility.yul\":2374:2408   */\n      mstore\n        /* \"#utility.yul\":2305:2414   */\n      pop\n      pop\n      jump\t// out\n        /* \"#utility.yul\":2420:2740   */\n    tag_25:\n        /* \"#utility.yul\":2535:2539   */\n      0x00\n        /* \"#utility.yul\":2573:2575   */\n      0x40\n        /* \"#utility.yul\":2562:2571   */\n      dup3\n        /* \"#utility.yul\":2558:2576   */\n      add\n        /* \"#utility.yul\":2550:2576   */\n      swap1\n      pop\n        /* \"#utility.yul\":2586:2657   */\n      tag_235\n        /* \"#utility.yul\":2654:2655   */\n      0x00\n        /* \"#utility.yul\":2643:2652   */\n      dup4\n        /* \"#utility.yul\":2639:2656   */\n      add\n        /* \"#utility.yul\":2630:2636   */\n      dup6\n        /* \"#utility.yul\":2586:2657   */\n      tag_149\n      jump\t// in\n    tag_235:\n        /* \"#utility.yul\":2667:2733   */\n      tag_236\n        /* \"#utility.yul\":2729:2731   */\n      0x20\n        /* \"#utility.yul\":2718:2727   */\n      dup4\n        /* \"#utility.yul\":2714:2732   */\n      add\n        /* \"#utility.yul\":2705:2711   */\n      dup5\n        /* \"#utility.yul\":2667:2733   */\n      tag_151\n      jump\t// in\n    tag_236:\n        /* \"#utility.yul\":2420:2740   */\n      swap4\n      swap3\n      pop\n      pop\n      pop\n      jump\t// out\n        /* \"#utility.yul\":2746:2842   */\n    tag_152:\n        /* \"#utility.yul\":2783:2790   */\n      0x00\n        /* \"#utility.yul\":2812:2836   */\n      tag_238\n        /* \"#utility.yul\":2830:2835   */\n      dup3\n        /* \"#utility.yul\":2812:2836   */\n      tag_137\n      jump\t// in\n    tag_238:\n        /* \"#utility.yul\":2801:2836   */\n      swap1\n      pop\n        /* \"#utility.yul\":2746:2842   */\n      swap2\n      swap1\n      pop\n      jump\t// out\n        /* \"#utility.yul\":2848:2966   */\n    tag_153:\n        /* \"#utility.yul\":2935:2959   */\n      tag_240\n        /* \"#utility.yul\":2953:2958   */\n      dup2\n        /* \"#utility.yul\":2935:2959   */\n      tag_152\n      jump\t// in\n    tag_240:\n        /* \"#utility.yul\":2930:2933   */\n      dup3\n        /* \"#utility.yul\":2923:2960   */\n      mstore\n        /* \"#utility.yul\":2848:2966   */\n      pop\n      pop\n      jump\t// out\n        /* \"#utility.yul\":2972:3402   */\n    tag_31:\n        /* \"#utility.yul\":3115:3119   */\n      0x00\n        /* \"#utility.yul\":3153:3155   */\n      0x60\n        /* \"#utility.yul\":3142:3151   */\n      dup3\n        /* \"#utility.yul\":3138:3156   */\n      add\n        /* \"#utility.yul\":3130:3156   */\n      swap1\n      pop\n        /* \"#utility.yul\":3166:3237   */\n      tag_242\n        /* \"#utility.yul\":3234:3235   */\n      0x00\n        /* \"#utility.yul\":3223:3232   */\n      dup4\n        /* \"#utility.yul\":3219:3236   */\n      add\n        /* \"#utility.yul\":3210:3216   */\n      dup7\n        /* \"#utility.yul\":3166:3237   */\n      tag_149\n      jump\t// in\n    tag_242:\n        /* \"#utility.yul\":3247:3319   */\n      tag_243\n        /* \"#utility.yul\":3315:3317   */\n      0x20\n        /* \"#utility.yul\":3304:3313   */\n      dup4\n        /* \"#utility.yul\":3300:3318   */\n      add\n        /* \"#utility.yul\":3291:3297   */\n      dup6\n        /* \"#utility.yul\":3247:3319   */\n      tag_153\n      jump\t// in\n    tag_243:\n        /* \"#utility.yul\":3329:3395   */\n      tag_244\n        /* \"#utility.yul\":3391:3393   */\n      0x40\n        /* \"#utility.yul\":3380:3389   */\n      dup4\n        /* \"#utility.yul\":3376:3394   */\n      add\n        /* \"#utility.yul\":3367:3373   */\n      dup5\n        /* \"#utility.yul\":3329:3395   */\n      tag_151\n      jump\t// in\n    tag_244:\n        /* \"#utility.yul\":2972:3402   */\n      swap5\n      swap4\n      pop\n      pop\n      pop\n      pop\n      jump\t// out\n        /* \"#utility.yul\":3408:3552   */\n    tag_154:\n        /* \"#utility.yul\":3476:3485   */\n      0x00\n        /* \"#utility.yul\":3509:3546   */\n      tag_246\n        /* \"#utility.yul\":3540:3545   */\n      dup3\n        /* \"#utility.yul\":3509:3546   */\n      tag_140\n      jump\t// in\n    tag_246:\n        /* \"#utility.yul\":3496:3546   */\n      swap1\n      pop\n        /* \"#utility.yul\":3408:3552   */\n      swap2\n      swap1\n      pop\n      jump\t// out\n        /* \"#utility.yul\":3558:3725   */\n    tag_155:\n        /* \"#utility.yul\":3663:3718   */\n      tag_248\n        /* \"#utility.yul\":3712:3717   */\n      dup2\n        /* \"#utility.yul\":3663:3718   */\n      tag_154\n      jump\t// in\n    tag_248:\n        /* \"#utility.yul\":3658:3661   */\n      dup3\n        /* \"#utility.yul\":3651:3719   */\n      mstore\n        /* \"#utility.yul\":3558:3725   */\n      pop\n      pop\n      jump\t// out\n        /* \"#utility.yul\":3731:3989   */\n    tag_36:\n        /* \"#utility.yul\":3842:3846   */\n      0x00\n        /* \"#utility.yul\":3880:3882   */\n      0x20\n        /* \"#utility.yul\":3869:3878   */\n      dup3\n        /* \"#utility.yul\":3865:3883   */\n      add\n        /* \"#utility.yul\":3857:3883   */\n      swap1\n      pop\n        /* \"#utility.yul\":3893:3982   */\n      tag_250\n        /* \"#utility.yul\":3979:3980   */\n      0x00\n        /* \"#utility.yul\":3968:3977   */\n      dup4\n        /* \"#utility.yul\":3964:3981   */\n      add\n        /* \"#utility.yul\":3955:3961   */\n      dup5\n        /* \"#utility.yul\":3893:3982   */\n      tag_155\n      jump\t// in\n    tag_250:\n        /* \"#utility.yul\":3731:3989   */\n      swap3\n      swap2\n      pop\n      pop\n      jump\t// out\n        /* \"#utility.yul\":3995:4088   */\n    tag_156:\n        /* \"#utility.yul\":4031:4038   */\n      0x00\n        /* \"#utility.yul\":4071:4081   */\n      0xffffffff\n        /* \"#utility.yul\":4064:4069   */\n      dup3\n        /* \"#utility.yul\":4060:4082   */\n      and\n        /* \"#utility.yul\":4049:4082   */\n      swap1\n      pop\n        /* \"#utility.yul\":3995:4088   */\n      swap2\n      swap1\n      pop\n      jump\t// out\n        /* \"#utility.yul\":4094:4214   */\n    tag_157:\n        /* \"#utility.yul\":4166:4189   */\n      tag_253\n        /* \"#utility.yul\":4183:4188   */\n      dup2\n        /* \"#utility.yul\":4166:4189   */\n      tag_156\n      jump\t// in\n    tag_253:\n        /* \"#utility.yul\":4159:4164   */\n      dup2\n        /* \"#utility.yul\":4156:4190   */\n      eq\n        /* \"#utility.yul\":4146:4208   */\n      tag_254\n      jumpi\n        /* \"#utility.yul\":4204:4205   */\n      0x00\n        /* \"#utility.yul\":4201:4202   */\n      dup1\n        /* \"#utility.yul\":4194:4206   */\n      revert\n        /* \"#utility.yul\":4146:4208   */\n    tag_254:\n        /* \"#utility.yul\":4094:4214   */\n      pop\n      jump\t// out\n        /* \"#utility.yul\":4220:4357   */\n    tag_158:\n        /* \"#utility.yul\":4265:4270   */\n      0x00\n        /* \"#utility.yul\":4303:4309   */\n      dup2\n        /* \"#utility.yul\":4290:4310   */\n      calldataload\n        /* \"#utility.yul\":4281:4310   */\n      swap1\n      pop\n        /* \"#utility.yul\":4319:4351   */\n      tag_256\n        /* \"#utility.yul\":4345:4350   */\n      dup2\n        /* \"#utility.yul\":4319:4351   */\n      tag_157\n      jump\t// in\n    tag_256:\n        /* \"#utility.yul\":4220:4357   */\n      swap3\n      swap2\n      pop\n      pop\n      jump\t// out\n        /* \"#utility.yul\":4363:4690   */\n    tag_39:\n        /* \"#utility.yul\":4421:4427   */\n      0x00\n        /* \"#utility.yul\":4470:4472   */\n      0x20\n        /* \"#utility.yul\":4458:4467   */\n      dup3\n        /* \"#utility.yul\":4449:4456   */\n      dup5\n        /* \"#utility.yul\":4445:4468   */\n      sub\n        /* \"#utility.yul\":4441:4473   */\n      slt\n        /* \"#utility.yul\":4438:4557   */\n      iszero\n      tag_258\n      jumpi\n        /* \"#utility.yul\":4476:4555   */\n      tag_259\n      tag_144\n      jump\t// in\n    tag_259:\n        /* \"#utility.yul\":4438:4557   */\n    tag_258:\n        /* \"#utility.yul\":4596:4597   */\n      0x00\n        /* \"#utility.yul\":4621:4673   */\n      tag_260\n        /* \"#utility.yul\":4665:4672   */\n      dup5\n        /* \"#utility.yul\":4656:4662   */\n      dup3\n        /* \"#utility.yul\":4645:4654   */\n      dup6\n        /* \"#utility.yul\":4641:4663   */\n      add\n        /* \"#utility.yul\":4621:4673   */\n      tag_158\n      jump\t// in\n    tag_260:\n        /* \"#utility.yul\":4611:4673   */\n      swap2\n      pop\n        /* \"#utility.yul\":4567:4683   */\n      pop\n        /* \"#utility.yul\":4363:4690   */\n      swap3\n      swap2\n      pop\n      pop\n      jump\t// out\n        /* \"#utility.yul\":4696:4804   */\n    tag_159:\n        /* \"#utility.yul\":4773:4797   */\n      tag_262\n        /* \"#utility.yul\":4791:4796   */\n      dup2\n        /* \"#utility.yul\":4773:4797   */\n      tag_146\n      jump\t// in\n    tag_262:\n        /* \"#utility.yul\":4768:4771   */\n      dup3\n        /* \"#utility.yul\":4761:4798   */\n      mstore\n        /* \"#utility.yul\":4696:4804   */\n      pop\n      pop\n      jump\t// out\n        /* \"#utility.yul\":4810:4918   */\n    tag_160:\n        /* \"#utility.yul\":4887:4911   */\n      tag_264\n        /* \"#utility.yul\":4905:4910   */\n      dup2\n        /* \"#utility.yul\":4887:4911   */\n      tag_152\n      jump\t// in\n    tag_264:\n        /* \"#utility.yul\":4882:4885   */\n      dup3\n        /* \"#utility.yul\":4875:4912   */\n      mstore\n        /* \"#utility.yul\":4810:4918   */\n      pop\n      pop\n      jump\t// out\n        /* \"#utility.yul\":4924:5023   */\n    tag_161:\n        /* \"#utility.yul\":4995:5016   */\n      tag_266\n        /* \"#utility.yul\":5010:5015   */\n      dup2\n        /* \"#utility.yul\":4995:5016   */\n      tag_150\n      jump\t// in\n    tag_266:\n        /* \"#utility.yul\":4990:4993   */\n      dup3\n        /* \"#utility.yul\":4983:5017   */\n      mstore\n        /* \"#utility.yul\":4924:5023   */\n      pop\n      pop\n      jump\t// out\n        /* \"#utility.yul\":5065:5753   */\n    tag_162:\n        /* \"#utility.yul\":5206:5210   */\n      0x60\n        /* \"#utility.yul\":5201:5204   */\n      dup3\n        /* \"#utility.yul\":5197:5211   */\n      add\n        /* \"#utility.yul\":5296:5300   */\n      0x00\n        /* \"#utility.yul\":5289:5294   */\n      dup3\n        /* \"#utility.yul\":5285:5301   */\n      add\n        /* \"#utility.yul\":5279:5302   */\n      mload\n        /* \"#utility.yul\":5315:5378   */\n      tag_268\n        /* \"#utility.yul\":5372:5376   */\n      0x00\n        /* \"#utility.yul\":5367:5370   */\n      dup6\n        /* \"#utility.yul\":5363:5377   */\n      add\n        /* \"#utility.yul\":5349:5361   */\n      dup3\n        /* \"#utility.yul\":5315:5378   */\n      tag_159\n      jump\t// in\n    tag_268:\n        /* \"#utility.yul\":5221:5388   */\n      pop\n        /* \"#utility.yul\":5476:5480   */\n      0x20\n        /* \"#utility.yul\":5469:5474   */\n      dup3\n        /* \"#utility.yul\":5465:5481   */\n      add\n        /* \"#utility.yul\":5459:5482   */\n      mload\n        /* \"#utility.yul\":5495:5558   */\n      tag_269\n        /* \"#utility.yul\":5552:5556   */\n      0x20\n        /* \"#utility.yul\":5547:5550   */\n      dup6\n        /* \"#utility.yul\":5543:5557   */\n      add\n        /* \"#utility.yul\":5529:5541   */\n      dup3\n        /* \"#utility.yul\":5495:5558   */\n      tag_160\n      jump\t// in\n    tag_269:\n        /* \"#utility.yul\":5398:5568   */\n      pop\n        /* \"#utility.yul\":5660:5664   */\n      0x40\n        /* \"#utility.yul\":5653:5658   */\n      dup3\n        /* \"#utility.yul\":5649:5665   */\n      add\n        /* \"#utility.yul\":5643:5666   */\n      mload\n        /* \"#utility.yul\":5679:5736   */\n      tag_270\n        /* \"#utility.yul\":5730:5734   */\n      0x40\n        /* \"#utility.yul\":5725:5728   */\n      dup6\n        /* \"#utility.yul\":5721:5735   */\n      add\n        /* \"#utility.yul\":5707:5719   */\n      dup3\n        /* \"#utility.yul\":5679:5736   */\n      tag_161\n      jump\t// in\n    tag_270:\n        /* \"#utility.yul\":5578:5746   */\n      pop\n        /* \"#utility.yul\":5175:5753   */\n      pop\n        /* \"#utility.yul\":5065:5753   */\n      pop\n      pop\n      jump\t// out\n        /* \"#utility.yul\":5759:6069   */\n    tag_42:\n        /* \"#utility.yul\":5896:5900   */\n      0x00\n        /* \"#utility.yul\":5934:5936   */\n      0x60\n        /* \"#utility.yul\":5923:5932   */\n      dup3\n        /* \"#utility.yul\":5919:5937   */\n      add\n        /* \"#utility.yul\":5911:5937   */\n      swap1\n      pop\n        /* \"#utility.yul\":5947:6062   */\n      tag_272\n        /* \"#utility.yul\":6059:6060   */\n      0x00\n        /* \"#utility.yul\":6048:6057   */\n      dup4\n        /* \"#utility.yul\":6044:6061   */\n      add\n        /* \"#utility.yul\":6035:6041   */\n      dup5\n        /* \"#utility.yul\":5947:6062   */\n      tag_162\n      jump\t// in\n    tag_272:\n        /* \"#utility.yul\":5759:6069   */\n      swap3\n      swap2\n      pop\n      pop\n      jump\t// out\n        /* \"#utility.yul\":6075:6214   */\n    tag_163:\n        /* \"#utility.yul\":6138:6147   */\n      0x00\n        /* \"#utility.yul\":6171:6208   */\n      tag_274\n        /* \"#utility.yul\":6202:6207   */\n      dup3\n        /* \"#utility.yul\":6171:6208   */\n      tag_140\n      jump\t// in\n    tag_274:\n        /* \"#utility.yul\":6158:6208   */\n      swap1\n      pop\n        /* \"#utility.yul\":6075:6214   */\n      swap2\n      swap1\n      pop\n      jump\t// out\n        /* \"#utility.yul\":6220:6377   */\n    tag_164:\n        /* \"#utility.yul\":6320:6370   */\n      tag_276\n        /* \"#utility.yul\":6364:6369   */\n      dup2\n        /* \"#utility.yul\":6320:6370   */\n      tag_163\n      jump\t// in\n    tag_276:\n        /* \"#utility.yul\":6315:6318   */\n      dup3\n        /* \"#utility.yul\":6308:6371   */\n      mstore\n        /* \"#utility.yul\":6220:6377   */\n      pop\n      pop\n      jump\t// out\n        /* \"#utility.yul\":6383:6631   */\n    tag_47:\n        /* \"#utility.yul\":6489:6493   */\n      0x00\n        /* \"#utility.yul\":6527:6529   */\n      0x20\n        /* \"#utility.yul\":6516:6525   */\n      dup3\n        /* \"#utility.yul\":6512:6530   */\n      add\n        /* \"#utility.yul\":6504:6530   */\n      swap1\n      pop\n        /* \"#utility.yul\":6540:6624   */\n      tag_278\n        /* \"#utility.yul\":6621:6622   */\n      0x00\n        /* \"#utility.yul\":6610:6619   */\n      dup4\n        /* \"#utility.yul\":6606:6623   */\n      add\n        /* \"#utility.yul\":6597:6603   */\n      dup5\n        /* \"#utility.yul\":6540:6624   */\n      tag_164\n      jump\t// in\n    tag_278:\n        /* \"#utility.yul\":6383:6631   */\n      swap3\n      swap2\n      pop\n      pop\n      jump\t// out\n        /* \"#utility.yul\":6637:6817   */\n    tag_51:\n        /* \"#utility.yul\":6685:6762   */\n      0x4e487b7100000000000000000000000000000000000000000000000000000000\n        /* \"#utility.yul\":6682:6683   */\n      0x00\n        /* \"#utility.yul\":6675:6763   */\n      mstore\n        /* \"#utility.yul\":6782:6786   */\n      0x32\n        /* \"#utility.yul\":6779:6780   */\n      0x04\n        /* \"#utility.yul\":6772:6787   */\n      mstore\n        /* \"#utility.yul\":6806:6810   */\n      0x24\n        /* \"#utility.yul\":6803:6804   */\n      0x00\n        /* \"#utility.yul\":6796:6811   */\n      revert\n        /* \"#utility.yul\":6823:6992   */\n    tag_165:\n        /* \"#utility.yul\":6907:6918   */\n      0x00\n        /* \"#utility.yul\":6941:6947   */\n      dup3\n        /* \"#utility.yul\":6936:6939   */\n      dup3\n        /* \"#utility.yul\":6929:6948   */\n      mstore\n        /* \"#utility.yul\":6981:6985   */\n      0x20\n        /* \"#utility.yul\":6976:6979   */\n      dup3\n        /* \"#utility.yul\":6972:6986   */\n      add\n        /* \"#utility.yul\":6957:6986   */\n      swap1\n      pop\n        /* \"#utility.yul\":6823:6992   */\n      swap3\n      swap2\n      pop\n      pop\n      jump\t// out\n        /* \"#utility.yul\":6998:7180   */\n    tag_166:\n        /* \"#utility.yul\":7138:7172   */\n      0x5061796f75742068617320616c7265616479206265656e2072656465656d6564\n        /* \"#utility.yul\":7134:7135   */\n      0x00\n        /* \"#utility.yul\":7126:7132   */\n      dup3\n        /* \"#utility.yul\":7122:7136   */\n      add\n        /* \"#utility.yul\":7115:7173   */\n      mstore\n        /* \"#utility.yul\":6998:7180   */\n      pop\n      jump\t// out\n        /* \"#utility.yul\":7186:7552   */\n    tag_167:\n        /* \"#utility.yul\":7328:7331   */\n      0x00\n        /* \"#utility.yul\":7349:7416   */\n      tag_283\n        /* \"#utility.yul\":7413:7415   */\n      0x20\n        /* \"#utility.yul\":7408:7411   */\n      dup4\n        /* \"#utility.yul\":7349:7416   */\n      tag_165\n      jump\t// in\n    tag_283:\n        /* \"#utility.yul\":7342:7416   */\n      swap2\n      pop\n        /* \"#utility.yul\":7425:7518   */\n      tag_284\n        /* \"#utility.yul\":7514:7517   */\n      dup3\n        /* \"#utility.yul\":7425:7518   */\n      tag_166\n      jump\t// in\n    tag_284:\n        /* \"#utility.yul\":7543:7545   */\n      0x20\n        /* \"#utility.yul\":7538:7541   */\n      dup3\n        /* \"#utility.yul\":7534:7546   */\n      add\n        /* \"#utility.yul\":7527:7546   */\n      swap1\n      pop\n        /* \"#utility.yul\":7186:7552   */\n      swap2\n      swap1\n      pop\n      jump\t// out\n        /* \"#utility.yul\":7558:7977   */\n    tag_55:\n        /* \"#utility.yul\":7724:7728   */\n      0x00\n        /* \"#utility.yul\":7762:7764   */\n      0x20\n        /* \"#utility.yul\":7751:7760   */\n      dup3\n        /* \"#utility.yul\":7747:7765   */\n      add\n        /* \"#utility.yul\":7739:7765   */\n      swap1\n      pop\n        /* \"#utility.yul\":7811:7820   */\n      dup2\n        /* \"#utility.yul\":7805:7809   */\n      dup2\n        /* \"#utility.yul\":7801:7821   */\n      sub\n        /* \"#utility.yul\":7797:7798   */\n      0x00\n        /* \"#utility.yul\":7786:7795   */\n      dup4\n        /* \"#utility.yul\":7782:7799   */\n      add\n        /* \"#utility.yul\":7775:7822   */\n      mstore\n        /* \"#utility.yul\":7839:7970   */\n      tag_286\n        /* \"#utility.yul\":7965:7969   */\n      dup2\n        /* \"#utility.yul\":7839:7970   */\n      tag_167\n      jump\t// in\n    tag_286:\n        /* \"#utility.yul\":7831:7970   */\n      swap1\n      pop\n        /* \"#utility.yul\":7558:7977   */\n      swap2\n      swap1\n      pop\n      jump\t// out\n        /* \"#utility.yul\":7983:8205   */\n    tag_63:\n        /* \"#utility.yul\":8076:8080   */\n      0x00\n        /* \"#utility.yul\":8114:8116   */\n      0x20\n        /* \"#utility.yul\":8103:8112   */\n      dup3\n        /* \"#utility.yul\":8099:8117   */\n      add\n        /* \"#utility.yul\":8091:8117   */\n      swap1\n      pop\n        /* \"#utility.yul\":8127:8198   */\n      tag_288\n        /* \"#utility.yul\":8195:8196   */\n      0x00\n        /* \"#utility.yul\":8184:8193   */\n      dup4\n        /* \"#utility.yul\":8180:8197   */\n      add\n        /* \"#utility.yul\":8171:8177   */\n      dup5\n        /* \"#utility.yul\":8127:8198   */\n      tag_149\n      jump\t// in\n    tag_288:\n        /* \"#utility.yul\":7983:8205   */\n      swap3\n      swap2\n      pop\n      pop\n      jump\t// out\n        /* \"#utility.yul\":8211:8328   */\n    tag_168:\n        /* \"#utility.yul\":8320:8321   */\n      0x00\n        /* \"#utility.yul\":8317:8318   */\n      dup1\n        /* \"#utility.yul\":8310:8322   */\n      revert\n        /* \"#utility.yul\":8334:8436   */\n    tag_169:\n        /* \"#utility.yul\":8375:8381   */\n      0x00\n        /* \"#utility.yul\":8426:8428   */\n      0x1f\n        /* \"#utility.yul\":8422:8429   */\n      not\n        /* \"#utility.yul\":8417:8419   */\n      0x1f\n        /* \"#utility.yul\":8410:8415   */\n      dup4\n        /* \"#utility.yul\":8406:8420   */\n      add\n        /* \"#utility.yul\":8402:8430   */\n      and\n        /* \"#utility.yul\":8392:8430   */\n      swap1\n      pop\n        /* \"#utility.yul\":8334:8436   */\n      swap2\n      swap1\n      pop\n      jump\t// out\n        /* \"#utility.yul\":8442:8622   */\n    tag_170:\n        /* \"#utility.yul\":8490:8567   */\n      0x4e487b7100000000000000000000000000000000000000000000000000000000\n        /* \"#utility.yul\":8487:8488   */\n      0x00\n        /* \"#utility.yul\":8480:8568   */\n      mstore\n        /* \"#utility.yul\":8587:8591   */\n      0x41\n        /* \"#utility.yul\":8584:8585   */\n      0x04\n        /* \"#utility.yul\":8577:8592   */\n      mstore\n        /* \"#utility.yul\":8611:8615   */\n      0x24\n        /* \"#utility.yul\":8608:8609   */\n      0x00\n        /* \"#utility.yul\":8601:8616   */\n      revert\n        /* \"#utility.yul\":8628:8909   */\n    tag_171:\n        /* \"#utility.yul\":8711:8738   */\n      tag_293\n        /* \"#utility.yul\":8733:8737   */\n      dup3\n        /* \"#utility.yul\":8711:8738   */\n      tag_169\n      jump\t// in\n    tag_293:\n        /* \"#utility.yul\":8703:8709   */\n      dup2\n        /* \"#utility.yul\":8699:8739   */\n      add\n        /* \"#utility.yul\":8841:8847   */\n      dup2\n        /* \"#utility.yul\":8829:8839   */\n      dup2\n        /* \"#utility.yul\":8826:8848   */\n      lt\n        /* \"#utility.yul\":8805:8823   */\n      0xffffffffffffffff\n        /* \"#utility.yul\":8793:8803   */\n      dup3\n        /* \"#utility.yul\":8790:8824   */\n      gt\n        /* \"#utility.yul\":8787:8849   */\n      or\n        /* \"#utility.yul\":8784:8872   */\n      iszero\n      tag_294\n      jumpi\n        /* \"#utility.yul\":8852:8870   */\n      tag_295\n      tag_170\n      jump\t// in\n    tag_295:\n        /* \"#utility.yul\":8784:8872   */\n    tag_294:\n        /* \"#utility.yul\":8892:8902   */\n      dup1\n        /* \"#utility.yul\":8888:8890   */\n      0x40\n        /* \"#utility.yul\":8881:8903   */\n      mstore\n        /* \"#utility.yul\":8671:8909   */\n      pop\n        /* \"#utility.yul\":8628:8909   */\n      pop\n      pop\n      jump\t// out\n        /* \"#utility.yul\":8915:9044   */\n    tag_172:\n        /* \"#utility.yul\":8949:8955   */\n      0x00\n        /* \"#utility.yul\":8976:8996   */\n      tag_297\n      tag_143\n      jump\t// in\n    tag_297:\n        /* \"#utility.yul\":8966:8996   */\n      swap1\n      pop\n        /* \"#utility.yul\":9005:9038   */\n      tag_298\n        /* \"#utility.yul\":9033:9037   */\n      dup3\n        /* \"#utility.yul\":9025:9031   */\n      dup3\n        /* \"#utility.yul\":9005:9038   */\n      tag_171\n      jump\t// in\n    tag_298:\n        /* \"#utility.yul\":8915:9044   */\n      swap2\n      swap1\n      pop\n      jump\t// out\n        /* \"#utility.yul\":9050:9167   */\n    tag_173:\n        /* \"#utility.yul\":9159:9160   */\n      0x00\n        /* \"#utility.yul\":9156:9157   */\n      dup1\n        /* \"#utility.yul\":9149:9161   */\n      revert\n        /* \"#utility.yul\":9173:9316   */\n    tag_174:\n        /* \"#utility.yul\":9230:9235   */\n      0x00\n        /* \"#utility.yul\":9261:9267   */\n      dup2\n        /* \"#utility.yul\":9255:9268   */\n      mload\n        /* \"#utility.yul\":9246:9268   */\n      swap1\n      pop\n        /* \"#utility.yul\":9277:9310   */\n      tag_301\n        /* \"#utility.yul\":9304:9309   */\n      dup2\n        /* \"#utility.yul\":9277:9310   */\n      tag_147\n      jump\t// in\n    tag_301:\n        /* \"#utility.yul\":9173:9316   */\n      swap3\n      swap2\n      pop\n      pop\n      jump\t// out\n        /* \"#utility.yul\":9322:9444   */\n    tag_175:\n        /* \"#utility.yul\":9395:9419   */\n      tag_303\n        /* \"#utility.yul\":9413:9418   */\n      dup2\n        /* \"#utility.yul\":9395:9419   */\n      tag_152\n      jump\t// in\n    tag_303:\n        /* \"#utility.yul\":9388:9393   */\n      dup2\n        /* \"#utility.yul\":9385:9420   */\n      eq\n        /* \"#utility.yul\":9375:9438   */\n      tag_304\n      jumpi\n        /* \"#utility.yul\":9434:9435   */\n      0x00\n        /* \"#utility.yul\":9431:9432   */\n      dup1\n        /* \"#utility.yul\":9424:9436   */\n      revert\n        /* \"#utility.yul\":9375:9438   */\n    tag_304:\n        /* \"#utility.yul\":9322:9444   */\n      pop\n      jump\t// out\n        /* \"#utility.yul\":9450:9593   */\n    tag_176:\n        /* \"#utility.yul\":9507:9512   */\n      0x00\n        /* \"#utility.yul\":9538:9544   */\n      dup2\n        /* \"#utility.yul\":9532:9545   */\n      mload\n        /* \"#utility.yul\":9523:9545   */\n      swap1\n      pop\n        /* \"#utility.yul\":9554:9587   */\n      tag_306\n        /* \"#utility.yul\":9581:9586   */\n      dup2\n        /* \"#utility.yul\":9554:9587   */\n      tag_175\n      jump\t// in\n    tag_306:\n        /* \"#utility.yul\":9450:9593   */\n      swap3\n      swap2\n      pop\n      pop\n      jump\t// out\n        /* \"#utility.yul\":9599:9716   */\n    tag_177:\n        /* \"#utility.yul\":9708:9709   */\n      0x00\n        /* \"#utility.yul\":9705:9706   */\n      dup1\n        /* \"#utility.yul\":9698:9710   */\n      revert\n        /* \"#utility.yul\":9722:9839   */\n    tag_178:\n        /* \"#utility.yul\":9831:9832   */\n      0x00\n        /* \"#utility.yul\":9828:9829   */\n      dup1\n        /* \"#utility.yul\":9821:9833   */\n      revert\n        /* \"#utility.yul\":9845:10153   */\n    tag_179:\n        /* \"#utility.yul\":9907:9911   */\n      0x00\n        /* \"#utility.yul\":9997:10015   */\n      0xffffffffffffffff\n        /* \"#utility.yul\":9989:9995   */\n      dup3\n        /* \"#utility.yul\":9986:10016   */\n      gt\n        /* \"#utility.yul\":9983:10039   */\n      iszero\n      tag_310\n      jumpi\n        /* \"#utility.yul\":10019:10037   */\n      tag_311\n      tag_170\n      jump\t// in\n    tag_311:\n        /* \"#utility.yul\":9983:10039   */\n    tag_310:\n        /* \"#utility.yul\":10057:10086   */\n      tag_312\n        /* \"#utility.yul\":10079:10085   */\n      dup3\n        /* \"#utility.yul\":10057:10086   */\n      tag_169\n      jump\t// in\n    tag_312:\n        /* \"#utility.yul\":10049:10086   */\n      swap1\n      pop\n        /* \"#utility.yul\":10141:10145   */\n      0x20\n        /* \"#utility.yul\":10135:10139   */\n      dup2\n        /* \"#utility.yul\":10131:10146   */\n      add\n        /* \"#utility.yul\":10123:10146   */\n      swap1\n      pop\n        /* \"#utility.yul\":9845:10153   */\n      swap2\n      swap1\n      pop\n      jump\t// out\n        /* \"#utility.yul\":10159:10405   */\n    tag_180:\n        /* \"#utility.yul\":10240:10241   */\n      0x00\n        /* \"#utility.yul\":10250:10363   */\n    tag_314:\n        /* \"#utility.yul\":10264:10270   */\n      dup4\n        /* \"#utility.yul\":10261:10262   */\n      dup2\n        /* \"#utility.yul\":10258:10271   */\n      lt\n        /* \"#utility.yul\":10250:10363   */\n      iszero\n      tag_316\n      jumpi\n        /* \"#utility.yul\":10349:10350   */\n      dup1\n        /* \"#utility.yul\":10344:10347   */\n      dup3\n        /* \"#utility.yul\":10340:10351   */\n      add\n        /* \"#utility.yul\":10334:10352   */\n      mload\n        /* \"#utility.yul\":10330:10331   */\n      dup2\n        /* \"#utility.yul\":10325:10328   */\n      dup5\n        /* \"#utility.yul\":10321:10332   */\n      add\n        /* \"#utility.yul\":10314:10353   */\n      mstore\n        /* \"#utility.yul\":10286:10288   */\n      0x20\n        /* \"#utility.yul\":10283:10284   */\n      dup2\n        /* \"#utility.yul\":10279:10289   */\n      add\n        /* \"#utility.yul\":10274:10289   */\n      swap1\n      pop\n        /* \"#utility.yul\":10250:10363   */\n      jump(tag_314)\n    tag_316:\n        /* \"#utility.yul\":10397:10398   */\n      0x00\n        /* \"#utility.yul\":10388:10394   */\n      dup5\n        /* \"#utility.yul\":10383:10386   */\n      dup5\n        /* \"#utility.yul\":10379:10395   */\n      add\n        /* \"#utility.yul\":10372:10399   */\n      mstore\n        /* \"#utility.yul\":10221:10405   */\n      pop\n        /* \"#utility.yul\":10159:10405   */\n      pop\n      pop\n      pop\n      jump\t// out\n        /* \"#utility.yul\":10411:10845   */\n    tag_181:\n        /* \"#utility.yul\":10500:10505   */\n      0x00\n        /* \"#utility.yul\":10525:10591   */\n      tag_318\n        /* \"#utility.yul\":10541:10590   */\n      tag_319\n        /* \"#utility.yul\":10583:10589   */\n      dup5\n        /* \"#utility.yul\":10541:10590   */\n      tag_179\n      jump\t// in\n    tag_319:\n        /* \"#utility.yul\":10525:10591   */\n      tag_172\n      jump\t// in\n    tag_318:\n        /* \"#utility.yul\":10516:10591   */\n      swap1\n      pop\n        /* \"#utility.yul\":10614:10620   */\n      dup3\n        /* \"#utility.yul\":10607:10612   */\n      dup2\n        /* \"#utility.yul\":10600:10621   */\n      mstore\n        /* \"#utility.yul\":10652:10656   */\n      0x20\n        /* \"#utility.yul\":10645:10650   */\n      dup2\n        /* \"#utility.yul\":10641:10657   */\n      add\n        /* \"#utility.yul\":10690:10693   */\n      dup5\n        /* \"#utility.yul\":10681:10687   */\n      dup5\n        /* \"#utility.yul\":10676:10679   */\n      dup5\n        /* \"#utility.yul\":10672:10688   */\n      add\n        /* \"#utility.yul\":10669:10694   */\n      gt\n        /* \"#utility.yul\":10666:10778   */\n      iszero\n      tag_320\n      jumpi\n        /* \"#utility.yul\":10697:10776   */\n      tag_321\n      tag_178\n      jump\t// in\n    tag_321:\n        /* \"#utility.yul\":10666:10778   */\n    tag_320:\n        /* \"#utility.yul\":10787:10839   */\n      tag_322\n        /* \"#utility.yul\":10832:10838   */\n      dup5\n        /* \"#utility.yul\":10827:10830   */\n      dup3\n        /* \"#utility.yul\":10822:10825   */\n      dup6\n        /* \"#utility.yul\":10787:10839   */\n      tag_180\n      jump\t// in\n    tag_322:\n        /* \"#utility.yul\":10506:10845   */\n      pop\n        /* \"#utility.yul\":10411:10845   */\n      swap4\n      swap3\n      pop\n      pop\n      pop\n      jump\t// out\n        /* \"#utility.yul\":10865:11220   */\n    tag_182:\n        /* \"#utility.yul\":10932:10937   */\n      0x00\n        /* \"#utility.yul\":10981:10984   */\n      dup3\n        /* \"#utility.yul\":10974:10978   */\n      0x1f\n        /* \"#utility.yul\":10966:10972   */\n      dup4\n        /* \"#utility.yul\":10962:10979   */\n      add\n        /* \"#utility.yul\":10958:10985   */\n      slt\n        /* \"#utility.yul\":10948:11070   */\n      tag_324\n      jumpi\n        /* \"#utility.yul\":10989:11068   */\n      tag_325\n      tag_177\n      jump\t// in\n    tag_325:\n        /* \"#utility.yul\":10948:11070   */\n    tag_324:\n        /* \"#utility.yul\":11099:11105   */\n      dup2\n        /* \"#utility.yul\":11093:11106   */\n      mload\n        /* \"#utility.yul\":11124:11214   */\n      tag_326\n        /* \"#utility.yul\":11210:11213   */\n      dup5\n        /* \"#utility.yul\":11202:11208   */\n      dup3\n        /* \"#utility.yul\":11195:11199   */\n      0x20\n        /* \"#utility.yul\":11187:11193   */\n      dup7\n        /* \"#utility.yul\":11183:11200   */\n      add\n        /* \"#utility.yul\":11124:11214   */\n      tag_181\n      jump\t// in\n    tag_326:\n        /* \"#utility.yul\":11115:11214   */\n      swap2\n      pop\n        /* \"#utility.yul\":10938:11220   */\n      pop\n        /* \"#utility.yul\":10865:11220   */\n      swap3\n      swap2\n      pop\n      pop\n      jump\t// out\n        /* \"#utility.yul\":11250:13649   */\n    tag_183:\n        /* \"#utility.yul\":11336:11341   */\n      0x00\n        /* \"#utility.yul\":11380:11386   */\n      0x0160\n        /* \"#utility.yul\":11368:11377   */\n      dup3\n        /* \"#utility.yul\":11363:11366   */\n      dup5\n        /* \"#utility.yul\":11359:11378   */\n      sub\n        /* \"#utility.yul\":11355:11387   */\n      slt\n        /* \"#utility.yul\":11352:11471   */\n      iszero\n      tag_328\n      jumpi\n        /* \"#utility.yul\":11390:11469   */\n      tag_329\n      tag_168\n      jump\t// in\n    tag_329:\n        /* \"#utility.yul\":11352:11471   */\n    tag_328:\n        /* \"#utility.yul\":11489:11512   */\n      tag_330\n        /* \"#utility.yul\":11505:11511   */\n      0x0160\n        /* \"#utility.yul\":11489:11512   */\n      tag_172\n      jump\t// in\n    tag_330:\n        /* \"#utility.yul\":11480:11512   */\n      swap1\n      pop\n        /* \"#utility.yul\":11580:11581   */\n      0x00\n        /* \"#utility.yul\":11620:11680   */\n      tag_331\n        /* \"#utility.yul\":11676:11679   */\n      dup5\n        /* \"#utility.yul\":11667:11673   */\n      dup3\n        /* \"#utility.yul\":11656:11665   */\n      dup6\n        /* \"#utility.yul\":11652:11674   */\n      add\n        /* \"#utility.yul\":11620:11680   */\n      tag_174\n      jump\t// in\n    tag_331:\n        /* \"#utility.yul\":11613:11617   */\n      0x00\n        /* \"#utility.yul\":11606:11611   */\n      dup4\n        /* \"#utility.yul\":11602:11618   */\n      add\n        /* \"#utility.yul\":11595:11681   */\n      mstore\n        /* \"#utility.yul\":11522:11692   */\n      pop\n        /* \"#utility.yul\":11763:11765   */\n      0x20\n        /* \"#utility.yul\":11804:11864   */\n      tag_332\n        /* \"#utility.yul\":11860:11863   */\n      dup5\n        /* \"#utility.yul\":11851:11857   */\n      dup3\n        /* \"#utility.yul\":11840:11849   */\n      dup6\n        /* \"#utility.yul\":11836:11858   */\n      add\n        /* \"#utility.yul\":11804:11864   */\n      tag_174\n      jump\t// in\n    tag_332:\n        /* \"#utility.yul\":11797:11801   */\n      0x20\n        /* \"#utility.yul\":11790:11795   */\n      dup4\n        /* \"#utility.yul\":11786:11802   */\n      add\n        /* \"#utility.yul\":11779:11865   */\n      mstore\n        /* \"#utility.yul\":11702:11876   */\n      pop\n        /* \"#utility.yul\":11936:11938   */\n      0x40\n        /* \"#utility.yul\":11977:12037   */\n      tag_333\n        /* \"#utility.yul\":12033:12036   */\n      dup5\n        /* \"#utility.yul\":12024:12030   */\n      dup3\n        /* \"#utility.yul\":12013:12022   */\n      dup6\n        /* \"#utility.yul\":12009:12031   */\n      add\n        /* \"#utility.yul\":11977:12037   */\n      tag_174\n      jump\t// in\n    tag_333:\n        /* \"#utility.yul\":11970:11974   */\n      0x40\n        /* \"#utility.yul\":11963:11968   */\n      dup4\n        /* \"#utility.yul\":11959:11975   */\n      add\n        /* \"#utility.yul\":11952:12038   */\n      mstore\n        /* \"#utility.yul\":11886:12049   */\n      pop\n        /* \"#utility.yul\":12110:12112   */\n      0x60\n        /* \"#utility.yul\":12151:12211   */\n      tag_334\n        /* \"#utility.yul\":12207:12210   */\n      dup5\n        /* \"#utility.yul\":12198:12204   */\n      dup3\n        /* \"#utility.yul\":12187:12196   */\n      dup6\n        /* \"#utility.yul\":12183:12205   */\n      add\n        /* \"#utility.yul\":12151:12211   */\n      tag_174\n      jump\t// in\n    tag_334:\n        /* \"#utility.yul\":12144:12148   */\n      0x60\n        /* \"#utility.yul\":12137:12142   */\n      dup4\n        /* \"#utility.yul\":12133:12149   */\n      add\n        /* \"#utility.yul\":12126:12212   */\n      mstore\n        /* \"#utility.yul\":12059:12223   */\n      pop\n        /* \"#utility.yul\":12284:12287   */\n      0x80\n        /* \"#utility.yul\":12326:12386   */\n      tag_335\n        /* \"#utility.yul\":12382:12385   */\n      dup5\n        /* \"#utility.yul\":12373:12379   */\n      dup3\n        /* \"#utility.yul\":12362:12371   */\n      dup6\n        /* \"#utility.yul\":12358:12380   */\n      add\n        /* \"#utility.yul\":12326:12386   */\n      tag_176\n      jump\t// in\n    tag_335:\n        /* \"#utility.yul\":12319:12323   */\n      0x80\n        /* \"#utility.yul\":12312:12317   */\n      dup4\n        /* \"#utility.yul\":12308:12324   */\n      add\n        /* \"#utility.yul\":12301:12387   */\n      mstore\n        /* \"#utility.yul\":12233:12398   */\n      pop\n        /* \"#utility.yul\":12459:12462   */\n      0xa0\n        /* \"#utility.yul\":12501:12561   */\n      tag_336\n        /* \"#utility.yul\":12557:12560   */\n      dup5\n        /* \"#utility.yul\":12548:12554   */\n      dup3\n        /* \"#utility.yul\":12537:12546   */\n      dup6\n        /* \"#utility.yul\":12533:12555   */\n      add\n        /* \"#utility.yul\":12501:12561   */\n      tag_176\n      jump\t// in\n    tag_336:\n        /* \"#utility.yul\":12494:12498   */\n      0xa0\n        /* \"#utility.yul\":12487:12492   */\n      dup4\n        /* \"#utility.yul\":12483:12499   */\n      add\n        /* \"#utility.yul\":12476:12562   */\n      mstore\n        /* \"#utility.yul\":12408:12573   */\n      pop\n        /* \"#utility.yul\":12637:12640   */\n      0xc0\n        /* \"#utility.yul\":12679:12739   */\n      tag_337\n        /* \"#utility.yul\":12735:12738   */\n      dup5\n        /* \"#utility.yul\":12726:12732   */\n      dup3\n        /* \"#utility.yul\":12715:12724   */\n      dup6\n        /* \"#utility.yul\":12711:12733   */\n      add\n        /* \"#utility.yul\":12679:12739   */\n      tag_174\n      jump\t// in\n    tag_337:\n        /* \"#utility.yul\":12672:12676   */\n      0xc0\n        /* \"#utility.yul\":12665:12670   */\n      dup4\n        /* \"#utility.yul\":12661:12677   */\n      add\n        /* \"#utility.yul\":12654:12740   */\n      mstore\n        /* \"#utility.yul\":12583:12751   */\n      pop\n        /* \"#utility.yul\":12815:12818   */\n      0xe0\n        /* \"#utility.yul\":12857:12917   */\n      tag_338\n        /* \"#utility.yul\":12913:12916   */\n      dup5\n        /* \"#utility.yul\":12904:12910   */\n      dup3\n        /* \"#utility.yul\":12893:12902   */\n      dup6\n        /* \"#utility.yul\":12889:12911   */\n      add\n        /* \"#utility.yul\":12857:12917   */\n      tag_174\n      jump\t// in\n    tag_338:\n        /* \"#utility.yul\":12850:12854   */\n      0xe0\n        /* \"#utility.yul\":12843:12848   */\n      dup4\n        /* \"#utility.yul\":12839:12855   */\n      add\n        /* \"#utility.yul\":12832:12918   */\n      mstore\n        /* \"#utility.yul\":12761:12929   */\n      pop\n        /* \"#utility.yul\":12999:13002   */\n      0x0100\n        /* \"#utility.yul\":13043:13103   */\n      tag_339\n        /* \"#utility.yul\":13099:13102   */\n      dup5\n        /* \"#utility.yul\":13090:13096   */\n      dup3\n        /* \"#utility.yul\":13079:13088   */\n      dup6\n        /* \"#utility.yul\":13075:13097   */\n      add\n        /* \"#utility.yul\":13043:13103   */\n      tag_174\n      jump\t// in\n    tag_339:\n        /* \"#utility.yul\":13034:13040   */\n      0x0100\n        /* \"#utility.yul\":13027:13032   */\n      dup4\n        /* \"#utility.yul\":13023:13041   */\n      add\n        /* \"#utility.yul\":13016:13104   */\n      mstore\n        /* \"#utility.yul\":12939:13115   */\n      pop\n        /* \"#utility.yul\":13185:13188   */\n      0x0120\n        /* \"#utility.yul\":13229:13289   */\n      tag_340\n        /* \"#utility.yul\":13285:13288   */\n      dup5\n        /* \"#utility.yul\":13276:13282   */\n      dup3\n        /* \"#utility.yul\":13265:13274   */\n      dup6\n        /* \"#utility.yul\":13261:13283   */\n      add\n        /* \"#utility.yul\":13229:13289   */\n      tag_174\n      jump\t// in\n    tag_340:\n        /* \"#utility.yul\":13220:13226   */\n      0x0120\n        /* \"#utility.yul\":13213:13218   */\n      dup4\n        /* \"#utility.yul\":13209:13227   */\n      add\n        /* \"#utility.yul\":13202:13290   */\n      mstore\n        /* \"#utility.yul\":13125:13301   */\n      pop\n        /* \"#utility.yul\":13384:13387   */\n      0x0140\n        /* \"#utility.yul\":13373:13382   */\n      dup3\n        /* \"#utility.yul\":13369:13388   */\n      add\n        /* \"#utility.yul\":13363:13389   */\n      mload\n        /* \"#utility.yul\":13416:13434   */\n      0xffffffffffffffff\n        /* \"#utility.yul\":13408:13414   */\n      dup2\n        /* \"#utility.yul\":13405:13435   */\n      gt\n        /* \"#utility.yul\":13402:13519   */\n      iszero\n      tag_341\n      jumpi\n        /* \"#utility.yul\":13438:13517   */\n      tag_342\n      tag_173\n      jump\t// in\n    tag_342:\n        /* \"#utility.yul\":13402:13519   */\n    tag_341:\n        /* \"#utility.yul\":13560:13630   */\n      tag_343\n        /* \"#utility.yul\":13626:13629   */\n      dup5\n        /* \"#utility.yul\":13617:13623   */\n      dup3\n        /* \"#utility.yul\":13606:13615   */\n      dup6\n        /* \"#utility.yul\":13602:13624   */\n      add\n        /* \"#utility.yul\":13560:13630   */\n      tag_182\n      jump\t// in\n    tag_343:\n        /* \"#utility.yul\":13551:13557   */\n      0x0140\n        /* \"#utility.yul\":13544:13549   */\n      dup4\n        /* \"#utility.yul\":13540:13558   */\n      add\n        /* \"#utility.yul\":13533:13631   */\n      mstore\n        /* \"#utility.yul\":13311:13642   */\n      pop\n        /* \"#utility.yul\":11250:13649   */\n      swap3\n      swap2\n      pop\n      pop\n      jump\t// out\n        /* \"#utility.yul\":13655:14211   */\n    tag_67:\n        /* \"#utility.yul\":13751:13757   */\n      0x00\n        /* \"#utility.yul\":13800:13802   */\n      0x20\n        /* \"#utility.yul\":13788:13797   */\n      dup3\n        /* \"#utility.yul\":13779:13786   */\n      dup5\n        /* \"#utility.yul\":13775:13798   */\n      sub\n        /* \"#utility.yul\":13771:13803   */\n      slt\n        /* \"#utility.yul\":13768:13887   */\n      iszero\n      tag_345\n      jumpi\n        /* \"#utility.yul\":13806:13885   */\n      tag_346\n      tag_144\n      jump\t// in\n    tag_346:\n        /* \"#utility.yul\":13768:13887   */\n    tag_345:\n        /* \"#utility.yul\":13947:13948   */\n      0x00\n        /* \"#utility.yul\":13936:13945   */\n      dup3\n        /* \"#utility.yul\":13932:13949   */\n      add\n        /* \"#utility.yul\":13926:13950   */\n      mload\n        /* \"#utility.yul\":13977:13995   */\n      0xffffffffffffffff\n        /* \"#utility.yul\":13969:13975   */\n      dup2\n        /* \"#utility.yul\":13966:13996   */\n      gt\n        /* \"#utility.yul\":13963:14080   */\n      iszero\n      tag_347\n      jumpi\n        /* \"#utility.yul\":13999:14078   */\n      tag_348\n      tag_145\n      jump\t// in\n    tag_348:\n        /* \"#utility.yul\":13963:14080   */\n    tag_347:\n        /* \"#utility.yul\":14104:14194   */\n      tag_349\n        /* \"#utility.yul\":14186:14193   */\n      dup5\n        /* \"#utility.yul\":14177:14183   */\n      dup3\n        /* \"#utility.yul\":14166:14175   */\n      dup6\n        /* \"#utility.yul\":14162:14184   */\n      add\n        /* \"#utility.yul\":14104:14194   */\n      tag_183\n      jump\t// in\n    tag_349:\n        /* \"#utility.yul\":14094:14194   */\n      swap2\n      pop\n        /* \"#utility.yul\":13897:14204   */\n      pop\n        /* \"#utility.yul\":13655:14211   */\n      swap3\n      swap2\n      pop\n      pop\n      jump\t// out\n        /* \"#utility.yul\":14217:14316   */\n    tag_184:\n        /* \"#utility.yul\":14269:14275   */\n      0x00\n        /* \"#utility.yul\":14303:14308   */\n      dup2\n        /* \"#utility.yul\":14297:14309   */\n      mload\n        /* \"#utility.yul\":14287:14309   */\n      swap1\n      pop\n        /* \"#utility.yul\":14217:14316   */\n      swap2\n      swap1\n      pop\n      jump\t// out\n        /* \"#utility.yul\":14322:14481   */\n    tag_185:\n        /* \"#utility.yul\":14396:14407   */\n      0x00\n        /* \"#utility.yul\":14430:14436   */\n      dup3\n        /* \"#utility.yul\":14425:14428   */\n      dup3\n        /* \"#utility.yul\":14418:14437   */\n      mstore\n        /* \"#utility.yul\":14470:14474   */\n      0x20\n        /* \"#utility.yul\":14465:14468   */\n      dup3\n        /* \"#utility.yul\":14461:14475   */\n      add\n        /* \"#utility.yul\":14446:14475   */\n      swap1\n      pop\n        /* \"#utility.yul\":14322:14481   */\n      swap3\n      swap2\n      pop\n      pop\n      jump\t// out\n        /* \"#utility.yul\":14487:14844   */\n    tag_186:\n        /* \"#utility.yul\":14565:14568   */\n      0x00\n        /* \"#utility.yul\":14593:14632   */\n      tag_353\n        /* \"#utility.yul\":14626:14631   */\n      dup3\n        /* \"#utility.yul\":14593:14632   */\n      tag_184\n      jump\t// in\n    tag_353:\n        /* \"#utility.yul\":14648:14709   */\n      tag_354\n        /* \"#utility.yul\":14702:14708   */\n      dup2\n        /* \"#utility.yul\":14697:14700   */\n      dup6\n        /* \"#utility.yul\":14648:14709   */\n      tag_185\n      jump\t// in\n    tag_354:\n        /* \"#utility.yul\":14641:14709   */\n      swap4\n      pop\n        /* \"#utility.yul\":14718:14783   */\n      tag_355\n        /* \"#utility.yul\":14776:14782   */\n      dup2\n        /* \"#utility.yul\":14771:14774   */\n      dup6\n        /* \"#utility.yul\":14764:14768   */\n      0x20\n        /* \"#utility.yul\":14757:14762   */\n      dup7\n        /* \"#utility.yul\":14753:14769   */\n      add\n        /* \"#utility.yul\":14718:14783   */\n      tag_180\n      jump\t// in\n    tag_355:\n        /* \"#utility.yul\":14808:14837   */\n      tag_356\n        /* \"#utility.yul\":14830:14836   */\n      dup2\n        /* \"#utility.yul\":14808:14837   */\n      tag_169\n      jump\t// in\n    tag_356:\n        /* \"#utility.yul\":14803:14806   */\n      dup5\n        /* \"#utility.yul\":14799:14838   */\n      add\n        /* \"#utility.yul\":14792:14838   */\n      swap2\n      pop\n        /* \"#utility.yul\":14569:14844   */\n      pop\n        /* \"#utility.yul\":14487:14844   */\n      swap3\n      swap2\n      pop\n      pop\n      jump\t// out\n        /* \"#utility.yul\":14894:17145   */\n    tag_187:\n        /* \"#utility.yul\":15015:15018   */\n      0x00\n        /* \"#utility.yul\":15051:15057   */\n      0x0160\n        /* \"#utility.yul\":15046:15049   */\n      dup4\n        /* \"#utility.yul\":15042:15058   */\n      add\n        /* \"#utility.yul\":15149:15153   */\n      0x00\n        /* \"#utility.yul\":15142:15147   */\n      dup4\n        /* \"#utility.yul\":15138:15154   */\n      add\n        /* \"#utility.yul\":15132:15155   */\n      mload\n        /* \"#utility.yul\":15168:15231   */\n      tag_358\n        /* \"#utility.yul\":15225:15229   */\n      0x00\n        /* \"#utility.yul\":15220:15223   */\n      dup7\n        /* \"#utility.yul\":15216:15230   */\n      add\n        /* \"#utility.yul\":15202:15214   */\n      dup3\n        /* \"#utility.yul\":15168:15231   */\n      tag_159\n      jump\t// in\n    tag_358:\n        /* \"#utility.yul\":15068:15241   */\n      pop\n        /* \"#utility.yul\":15335:15339   */\n      0x20\n        /* \"#utility.yul\":15328:15333   */\n      dup4\n        /* \"#utility.yul\":15324:15340   */\n      add\n        /* \"#utility.yul\":15318:15341   */\n      mload\n        /* \"#utility.yul\":15354:15417   */\n      tag_359\n        /* \"#utility.yul\":15411:15415   */\n      0x20\n        /* \"#utility.yul\":15406:15409   */\n      dup7\n        /* \"#utility.yul\":15402:15416   */\n      add\n        /* \"#utility.yul\":15388:15400   */\n      dup3\n        /* \"#utility.yul\":15354:15417   */\n      tag_159\n      jump\t// in\n    tag_359:\n        /* \"#utility.yul\":15251:15427   */\n      pop\n        /* \"#utility.yul\":15510:15514   */\n      0x40\n        /* \"#utility.yul\":15503:15508   */\n      dup4\n        /* \"#utility.yul\":15499:15515   */\n      add\n        /* \"#utility.yul\":15493:15516   */\n      mload\n        /* \"#utility.yul\":15529:15592   */\n      tag_360\n        /* \"#utility.yul\":15586:15590   */\n      0x40\n        /* \"#utility.yul\":15581:15584   */\n      dup7\n        /* \"#utility.yul\":15577:15591   */\n      add\n        /* \"#utility.yul\":15563:15575   */\n      dup3\n        /* \"#utility.yul\":15529:15592   */\n      tag_159\n      jump\t// in\n    tag_360:\n        /* \"#utility.yul\":15437:15602   */\n      pop\n        /* \"#utility.yul\":15686:15690   */\n      0x60\n        /* \"#utility.yul\":15679:15684   */\n      dup4\n        /* \"#utility.yul\":15675:15691   */\n      add\n        /* \"#utility.yul\":15669:15692   */\n      mload\n        /* \"#utility.yul\":15705:15768   */\n      tag_361\n        /* \"#utility.yul\":15762:15766   */\n      0x60\n        /* \"#utility.yul\":15757:15760   */\n      dup7\n        /* \"#utility.yul\":15753:15767   */\n      add\n        /* \"#utility.yul\":15739:15751   */\n      dup3\n        /* \"#utility.yul\":15705:15768   */\n      tag_159\n      jump\t// in\n    tag_361:\n        /* \"#utility.yul\":15612:15778   */\n      pop\n        /* \"#utility.yul\":15862:15866   */\n      0x80\n        /* \"#utility.yul\":15855:15860   */\n      dup4\n        /* \"#utility.yul\":15851:15867   */\n      add\n        /* \"#utility.yul\":15845:15868   */\n      mload\n        /* \"#utility.yul\":15881:15944   */\n      tag_362\n        /* \"#utility.yul\":15938:15942   */\n      0x80\n        /* \"#utility.yul\":15933:15936   */\n      dup7\n        /* \"#utility.yul\":15929:15943   */\n      add\n        /* \"#utility.yul\":15915:15927   */\n      dup3\n        /* \"#utility.yul\":15881:15944   */\n      tag_160\n      jump\t// in\n    tag_362:\n        /* \"#utility.yul\":15788:15954   */\n      pop\n        /* \"#utility.yul\":16038:16042   */\n      0xa0\n        /* \"#utility.yul\":16031:16036   */\n      dup4\n        /* \"#utility.yul\":16027:16043   */\n      add\n        /* \"#utility.yul\":16021:16044   */\n      mload\n        /* \"#utility.yul\":16057:16120   */\n      tag_363\n        /* \"#utility.yul\":16114:16118   */\n      0xa0\n        /* \"#utility.yul\":16109:16112   */\n      dup7\n        /* \"#utility.yul\":16105:16119   */\n      add\n        /* \"#utility.yul\":16091:16103   */\n      dup3\n        /* \"#utility.yul\":16057:16120   */\n      tag_160\n      jump\t// in\n    tag_363:\n        /* \"#utility.yul\":15964:16130   */\n      pop\n        /* \"#utility.yul\":16217:16221   */\n      0xc0\n        /* \"#utility.yul\":16210:16215   */\n      dup4\n        /* \"#utility.yul\":16206:16222   */\n      add\n        /* \"#utility.yul\":16200:16223   */\n      mload\n        /* \"#utility.yul\":16236:16299   */\n      tag_364\n        /* \"#utility.yul\":16293:16297   */\n      0xc0\n        /* \"#utility.yul\":16288:16291   */\n      dup7\n        /* \"#utility.yul\":16284:16298   */\n      add\n        /* \"#utility.yul\":16270:16282   */\n      dup3\n        /* \"#utility.yul\":16236:16299   */\n      tag_159\n      jump\t// in\n    tag_364:\n        /* \"#utility.yul\":16140:16309   */\n      pop\n        /* \"#utility.yul\":16396:16400   */\n      0xe0\n        /* \"#utility.yul\":16389:16394   */\n      dup4\n        /* \"#utility.yul\":16385:16401   */\n      add\n        /* \"#utility.yul\":16379:16402   */\n      mload\n        /* \"#utility.yul\":16415:16478   */\n      tag_365\n        /* \"#utility.yul\":16472:16476   */\n      0xe0\n        /* \"#utility.yul\":16467:16470   */\n      dup7\n        /* \"#utility.yul\":16463:16477   */\n      add\n        /* \"#utility.yul\":16449:16461   */\n      dup3\n        /* \"#utility.yul\":16415:16478   */\n      tag_159\n      jump\t// in\n    tag_365:\n        /* \"#utility.yul\":16319:16488   */\n      pop\n        /* \"#utility.yul\":16581:16587   */\n      0x0100\n        /* \"#utility.yul\":16574:16579   */\n      dup4\n        /* \"#utility.yul\":16570:16588   */\n      add\n        /* \"#utility.yul\":16564:16589   */\n      mload\n        /* \"#utility.yul\":16602:16667   */\n      tag_366\n        /* \"#utility.yul\":16659:16665   */\n      0x0100\n        /* \"#utility.yul\":16654:16657   */\n      dup7\n        /* \"#utility.yul\":16650:16666   */\n      add\n        /* \"#utility.yul\":16636:16648   */\n      dup3\n        /* \"#utility.yul\":16602:16667   */\n      tag_159\n      jump\t// in\n    tag_366:\n        /* \"#utility.yul\":16498:16677   */\n      pop\n        /* \"#utility.yul\":16770:16776   */\n      0x0120\n        /* \"#utility.yul\":16763:16768   */\n      dup4\n        /* \"#utility.yul\":16759:16777   */\n      add\n        /* \"#utility.yul\":16753:16778   */\n      mload\n        /* \"#utility.yul\":16791:16856   */\n      tag_367\n        /* \"#utility.yul\":16848:16854   */\n      0x0120\n        /* \"#utility.yul\":16843:16846   */\n      dup7\n        /* \"#utility.yul\":16839:16855   */\n      add\n        /* \"#utility.yul\":16825:16837   */\n      dup3\n        /* \"#utility.yul\":16791:16856   */\n      tag_159\n      jump\t// in\n    tag_367:\n        /* \"#utility.yul\":16687:16866   */\n      pop\n        /* \"#utility.yul\":16951:16957   */\n      0x0140\n        /* \"#utility.yul\":16944:16949   */\n      dup4\n        /* \"#utility.yul\":16940:16958   */\n      add\n        /* \"#utility.yul\":16934:16959   */\n      mload\n        /* \"#utility.yul\":17008:17011   */\n      dup5\n        /* \"#utility.yul\":17002:17006   */\n      dup3\n        /* \"#utility.yul\":16998:17012   */\n      sub\n        /* \"#utility.yul\":16989:16995   */\n      0x0140\n        /* \"#utility.yul\":16984:16987   */\n      dup7\n        /* \"#utility.yul\":16980:16996   */\n      add\n        /* \"#utility.yul\":16973:17013   */\n      mstore\n        /* \"#utility.yul\":17034:17107   */\n      tag_368\n        /* \"#utility.yul\":17102:17106   */\n      dup3\n        /* \"#utility.yul\":17088:17100   */\n      dup3\n        /* \"#utility.yul\":17034:17107   */\n      tag_186\n      jump\t// in\n    tag_368:\n        /* \"#utility.yul\":17026:17107   */\n      swap2\n      pop\n        /* \"#utility.yul\":16876:17118   */\n      pop\n        /* \"#utility.yul\":17135:17139   */\n      dup1\n        /* \"#utility.yul\":17128:17139   */\n      swap2\n      pop\n        /* \"#utility.yul\":15020:17145   */\n      pop\n        /* \"#utility.yul\":14894:17145   */\n      swap3\n      swap2\n      pop\n      pop\n      jump\t// out\n        /* \"#utility.yul\":17151:17528   */\n    tag_69:\n        /* \"#utility.yul\":17296:17300   */\n      0x00\n        /* \"#utility.yul\":17334:17336   */\n      0x20\n        /* \"#utility.yul\":17323:17332   */\n      dup3\n        /* \"#utility.yul\":17319:17337   */\n      add\n        /* \"#utility.yul\":17311:17337   */\n      swap1\n      pop\n        /* \"#utility.yul\":17383:17392   */\n      dup2\n        /* \"#utility.yul\":17377:17381   */\n      dup2\n        /* \"#utility.yul\":17373:17393   */\n      sub\n        /* \"#utility.yul\":17369:17370   */\n      0x00\n        /* \"#utility.yul\":17358:17367   */\n      dup4\n        /* \"#utility.yul\":17354:17371   */\n      add\n        /* \"#utility.yul\":17347:17394   */\n      mstore\n        /* \"#utility.yul\":17411:17521   */\n      tag_370\n        /* \"#utility.yul\":17516:17520   */\n      dup2\n        /* \"#utility.yul\":17507:17513   */\n      dup5\n        /* \"#utility.yul\":17411:17521   */\n      tag_187\n      jump\t// in\n    tag_370:\n        /* \"#utility.yul\":17403:17521   */\n      swap1\n      pop\n        /* \"#utility.yul\":17151:17528   */\n      swap3\n      swap2\n      pop\n      pop\n      jump\t// out\n        /* \"#utility.yul\":17534:17885   */\n    tag_73:\n        /* \"#utility.yul\":17604:17610   */\n      0x00\n        /* \"#utility.yul\":17653:17655   */\n      0x20\n        /* \"#utility.yul\":17641:17650   */\n      dup3\n        /* \"#utility.yul\":17632:17639   */\n      dup5\n        /* \"#utility.yul\":17628:17651   */\n      sub\n        /* \"#utility.yul\":17624:17656   */\n      slt\n        /* \"#utility.yul\":17621:17740   */\n      iszero\n      tag_372\n      jumpi\n        /* \"#utility.yul\":17659:17738   */\n      tag_373\n      tag_144\n      jump\t// in\n    tag_373:\n        /* \"#utility.yul\":17621:17740   */\n    tag_372:\n        /* \"#utility.yul\":17779:17780   */\n      0x00\n        /* \"#utility.yul\":17804:17868   */\n      tag_374\n        /* \"#utility.yul\":17860:17867   */\n      dup5\n        /* \"#utility.yul\":17851:17857   */\n      dup3\n        /* \"#utility.yul\":17840:17849   */\n      dup6\n        /* \"#utility.yul\":17836:17858   */\n      add\n        /* \"#utility.yul\":17804:17868   */\n      tag_174\n      jump\t// in\n    tag_374:\n        /* \"#utility.yul\":17794:17868   */\n      swap2\n      pop\n        /* \"#utility.yul\":17750:17878   */\n      pop\n        /* \"#utility.yul\":17534:17885   */\n      swap3\n      swap2\n      pop\n      pop\n      jump\t// out\n        /* \"#utility.yul\":17891:17995   */\n    tag_188:\n        /* \"#utility.yul\":17936:17943   */\n      0x00\n        /* \"#utility.yul\":17965:17989   */\n      tag_376\n        /* \"#utility.yul\":17983:17988   */\n      dup3\n        /* \"#utility.yul\":17965:17989   */\n      tag_137\n      jump\t// in\n    tag_376:\n        /* \"#utility.yul\":17954:17989   */\n      swap1\n      pop\n        /* \"#utility.yul\":17891:17995   */\n      swap2\n      swap1\n      pop\n      jump\t// out\n        /* \"#utility.yul\":18001:18143   */\n    tag_189:\n        /* \"#utility.yul\":18104:18136   */\n      tag_378\n        /* \"#utility.yul\":18130:18135   */\n      dup2\n        /* \"#utility.yul\":18104:18136   */\n      tag_188\n      jump\t// in\n    tag_378:\n        /* \"#utility.yul\":18099:18102   */\n      dup3\n        /* \"#utility.yul\":18092:18137   */\n      mstore\n        /* \"#utility.yul\":18001:18143   */\n      pop\n      pop\n      jump\t// out\n        /* \"#utility.yul\":18149:18513   */\n    tag_75:\n        /* \"#utility.yul\":18286:18290   */\n      0x00\n        /* \"#utility.yul\":18324:18326   */\n      0x40\n        /* \"#utility.yul\":18313:18322   */\n      dup3\n        /* \"#utility.yul\":18309:18327   */\n      add\n        /* \"#utility.yul\":18301:18327   */\n      swap1\n      pop\n        /* \"#utility.yul\":18337:18424   */\n      tag_380\n        /* \"#utility.yul\":18421:18422   */\n      0x00\n        /* \"#utility.yul\":18410:18419   */\n      dup4\n        /* \"#utility.yul\":18406:18423   */\n      add\n        /* \"#utility.yul\":18397:18403   */\n      dup6\n        /* \"#utility.yul\":18337:18424   */\n      tag_189\n      jump\t// in\n    tag_380:\n        /* \"#utility.yul\":18434:18506   */\n      tag_381\n        /* \"#utility.yul\":18502:18504   */\n      0x20\n        /* \"#utility.yul\":18491:18500   */\n      dup4\n        /* \"#utility.yul\":18487:18505   */\n      add\n        /* \"#utility.yul\":18478:18484   */\n      dup5\n        /* \"#utility.yul\":18434:18506   */\n      tag_149\n      jump\t// in\n    tag_381:\n        /* \"#utility.yul\":18149:18513   */\n      swap4\n      swap3\n      pop\n      pop\n      pop\n      jump\t// out\n        /* \"#utility.yul\":18519:18659   */\n    tag_190:\n        /* \"#utility.yul\":18568:18577   */\n      0x00\n        /* \"#utility.yul\":18601:18653   */\n      tag_383\n        /* \"#utility.yul\":18619:18652   */\n      tag_384\n        /* \"#utility.yul\":18628:18651   */\n      tag_385\n        /* \"#utility.yul\":18645:18650   */\n      dup5\n        /* \"#utility.yul\":18628:18651   */\n      tag_156\n      jump\t// in\n    tag_385:\n        /* \"#utility.yul\":18619:18652   */\n      tag_138\n      jump\t// in\n    tag_384:\n        /* \"#utility.yul\":18601:18653   */\n      tag_146\n      jump\t// in\n    tag_383:\n        /* \"#utility.yul\":18588:18653   */\n      swap1\n      pop\n        /* \"#utility.yul\":18519:18659   */\n      swap2\n      swap1\n      pop\n      jump\t// out\n        /* \"#utility.yul\":18665:18794   */\n    tag_191:\n        /* \"#utility.yul\":18751:18787   */\n      tag_387\n        /* \"#utility.yul\":18781:18786   */\n      dup2\n        /* \"#utility.yul\":18751:18787   */\n      tag_190\n      jump\t// in\n    tag_387:\n        /* \"#utility.yul\":18746:18749   */\n      dup3\n        /* \"#utility.yul\":18739:18788   */\n      mstore\n        /* \"#utility.yul\":18665:18794   */\n      pop\n      pop\n      jump\t// out\n        /* \"#utility.yul\":18800:19020   */\n    tag_89:\n        /* \"#utility.yul\":18892:18896   */\n      0x00\n        /* \"#utility.yul\":18930:18932   */\n      0x20\n        /* \"#utility.yul\":18919:18928   */\n      dup3\n        /* \"#utility.yul\":18915:18933   */\n      add\n        /* \"#utility.yul\":18907:18933   */\n      swap1\n      pop\n        /* \"#utility.yul\":18943:19013   */\n      tag_389\n        /* \"#utility.yul\":19010:19011   */\n      0x00\n        /* \"#utility.yul\":18999:19008   */\n      dup4\n        /* \"#utility.yul\":18995:19012   */\n      add\n        /* \"#utility.yul\":18986:18992   */\n      dup5\n        /* \"#utility.yul\":18943:19013   */\n      tag_191\n      jump\t// in\n    tag_389:\n        /* \"#utility.yul\":18800:19020   */\n      swap3\n      swap2\n      pop\n      pop\n      jump\t// out\n        /* \"#utility.yul\":19026:19206   */\n    tag_192:\n        /* \"#utility.yul\":19074:19151   */\n      0x4e487b7100000000000000000000000000000000000000000000000000000000\n        /* \"#utility.yul\":19071:19072   */\n      0x00\n        /* \"#utility.yul\":19064:19152   */\n      mstore\n        /* \"#utility.yul\":19171:19175   */\n      0x11\n        /* \"#utility.yul\":19168:19169   */\n      0x04\n        /* \"#utility.yul\":19161:19176   */\n      mstore\n        /* \"#utility.yul\":19195:19199   */\n      0x24\n        /* \"#utility.yul\":19192:19193   */\n      0x00\n        /* \"#utility.yul\":19185:19200   */\n      revert\n        /* \"#utility.yul\":19212:19403   */\n    tag_94:\n        /* \"#utility.yul\":19252:19255   */\n      0x00\n        /* \"#utility.yul\":19271:19291   */\n      tag_392\n        /* \"#utility.yul\":19289:19290   */\n      dup3\n        /* \"#utility.yul\":19271:19291   */\n      tag_146\n      jump\t// in\n    tag_392:\n        /* \"#utility.yul\":19266:19291   */\n      swap2\n      pop\n        /* \"#utility.yul\":19305:19325   */\n      tag_393\n        /* \"#utility.yul\":19323:19324   */\n      dup4\n        /* \"#utility.yul\":19305:19325   */\n      tag_146\n      jump\t// in\n    tag_393:\n        /* \"#utility.yul\":19300:19325   */\n      swap3\n      pop\n        /* \"#utility.yul\":19348:19349   */\n      dup3\n        /* \"#utility.yul\":19345:19346   */\n      dup3\n        /* \"#utility.yul\":19341:19350   */\n      add\n        /* \"#utility.yul\":19334:19350   */\n      swap1\n      pop\n        /* \"#utility.yul\":19369:19372   */\n      dup1\n        /* \"#utility.yul\":19366:19367   */\n      dup3\n        /* \"#utility.yul\":19363:19373   */\n      gt\n        /* \"#utility.yul\":19360:19396   */\n      iszero\n      tag_394\n      jumpi\n        /* \"#utility.yul\":19376:19394   */\n      tag_395\n      tag_192\n      jump\t// in\n    tag_395:\n        /* \"#utility.yul\":19360:19396   */\n    tag_394:\n        /* \"#utility.yul\":19212:19403   */\n      swap3\n      swap2\n      pop\n      pop\n      jump\t// out\n        /* \"#utility.yul\":19409:19589   */\n    tag_193:\n        /* \"#utility.yul\":19549:19581   */\n      0x4f6e6c79207375626d697420636c61696d206166746572206578706972790000\n        /* \"#utility.yul\":19545:19546   */\n      0x00\n        /* \"#utility.yul\":19537:19543   */\n      dup3\n        /* \"#utility.yul\":19533:19547   */\n      add\n        /* \"#utility.yul\":19526:19582   */\n      mstore\n        /* \"#utility.yul\":19409:19589   */\n      pop\n      jump\t// out\n        /* \"#utility.yul\":19595:19961   */\n    tag_194:\n        /* \"#utility.yul\":19737:19740   */\n      0x00\n        /* \"#utility.yul\":19758:19825   */\n      tag_398\n        /* \"#utility.yul\":19822:19824   */\n      0x1e\n        /* \"#utility.yul\":19817:19820   */\n      dup4\n        /* \"#utility.yul\":19758:19825   */\n      tag_165\n      jump\t// in\n    tag_398:\n        /* \"#utility.yul\":19751:19825   */\n      swap2\n      pop\n        /* \"#utility.yul\":19834:19927   */\n      tag_399\n        /* \"#utility.yul\":19923:19926   */\n      dup3\n        /* \"#utility.yul\":19834:19927   */\n      tag_193\n      jump\t// in\n    tag_399:\n        /* \"#utility.yul\":19952:19954   */\n      0x20\n        /* \"#utility.yul\":19947:19950   */\n      dup3\n        /* \"#utility.yul\":19943:19955   */\n      add\n        /* \"#utility.yul\":19936:19955   */\n      swap1\n      pop\n        /* \"#utility.yul\":19595:19961   */\n      swap2\n      swap1\n      pop\n      jump\t// out\n        /* \"#utility.yul\":19967:20386   */\n    tag_97:\n        /* \"#utility.yul\":20133:20137   */\n      0x00\n        /* \"#utility.yul\":20171:20173   */\n      0x20\n        /* \"#utility.yul\":20160:20169   */\n      dup3\n        /* \"#utility.yul\":20156:20174   */\n      add\n        /* \"#utility.yul\":20148:20174   */\n      swap1\n      pop\n        /* \"#utility.yul\":20220:20229   */\n      dup2\n        /* \"#utility.yul\":20214:20218   */\n      dup2\n        /* \"#utility.yul\":20210:20230   */\n      sub\n        /* \"#utility.yul\":20206:20207   */\n      0x00\n        /* \"#utility.yul\":20195:20204   */\n      dup4\n        /* \"#utility.yul\":20191:20208   */\n      add\n        /* \"#utility.yul\":20184:20231   */\n      mstore\n        /* \"#utility.yul\":20248:20379   */\n      tag_401\n        /* \"#utility.yul\":20374:20378   */\n      dup2\n        /* \"#utility.yul\":20248:20379   */\n      tag_194\n      jump\t// in\n    tag_401:\n        /* \"#utility.yul\":20240:20379   */\n      swap1\n      pop\n        /* \"#utility.yul\":19967:20386   */\n      swap2\n      swap1\n      pop\n      jump\t// out\n        /* \"#utility.yul\":20392:20722   */\n    tag_99:\n        /* \"#utility.yul\":20512:20516   */\n      0x00\n        /* \"#utility.yul\":20550:20552   */\n      0x40\n        /* \"#utility.yul\":20539:20548   */\n      dup3\n        /* \"#utility.yul\":20535:20553   */\n      add\n        /* \"#utility.yul\":20527:20553   */\n      swap1\n      pop\n        /* \"#utility.yul\":20563:20634   */\n      tag_403\n        /* \"#utility.yul\":20631:20632   */\n      0x00\n        /* \"#utility.yul\":20620:20629   */\n      dup4\n        /* \"#utility.yul\":20616:20633   */\n      add\n        /* \"#utility.yul\":20607:20613   */\n      dup6\n        /* \"#utility.yul\":20563:20634   */\n      tag_153\n      jump\t// in\n    tag_403:\n        /* \"#utility.yul\":20644:20715   */\n      tag_404\n        /* \"#utility.yul\":20711:20713   */\n      0x20\n        /* \"#utility.yul\":20700:20709   */\n      dup4\n        /* \"#utility.yul\":20696:20714   */\n      add\n        /* \"#utility.yul\":20687:20693   */\n      dup5\n        /* \"#utility.yul\":20644:20715   */\n      tag_191\n      jump\t// in\n    tag_404:\n        /* \"#utility.yul\":20392:20722   */\n      swap4\n      swap3\n      pop\n      pop\n      pop\n      jump\t// out\n        /* \"#utility.yul\":20728:20844   */\n    tag_195:\n        /* \"#utility.yul\":20798:20819   */\n      tag_406\n        /* \"#utility.yul\":20813:20818   */\n      dup2\n        /* \"#utility.yul\":20798:20819   */\n      tag_150\n      jump\t// in\n    tag_406:\n        /* \"#utility.yul\":20791:20796   */\n      dup2\n        /* \"#utility.yul\":20788:20820   */\n      eq\n        /* \"#utility.yul\":20778:20838   */\n      tag_407\n      jumpi\n        /* \"#utility.yul\":20834:20835   */\n      0x00\n        /* \"#utility.yul\":20831:20832   */\n      dup1\n        /* \"#utility.yul\":20824:20836   */\n      revert\n        /* \"#utility.yul\":20778:20838   */\n    tag_407:\n        /* \"#utility.yul\":20728:20844   */\n      pop\n      jump\t// out\n        /* \"#utility.yul\":20850:20987   */\n    tag_196:\n        /* \"#utility.yul\":20904:20909   */\n      0x00\n        /* \"#utility.yul\":20935:20941   */\n      dup2\n        /* \"#utility.yul\":20929:20942   */\n      mload\n        /* \"#utility.yul\":20920:20942   */\n      swap1\n      pop\n        /* \"#utility.yul\":20951:20981   */\n      tag_409\n        /* \"#utility.yul\":20975:20980   */\n      dup2\n        /* \"#utility.yul\":20951:20981   */\n      tag_195\n      jump\t// in\n    tag_409:\n        /* \"#utility.yul\":20850:20987   */\n      swap3\n      swap2\n      pop\n      pop\n      jump\t// out\n        /* \"#utility.yul\":20993:21338   */\n    tag_103:\n        /* \"#utility.yul\":21060:21066   */\n      0x00\n        /* \"#utility.yul\":21109:21111   */\n      0x20\n        /* \"#utility.yul\":21097:21106   */\n      dup3\n        /* \"#utility.yul\":21088:21095   */\n      dup5\n        /* \"#utility.yul\":21084:21107   */\n      sub\n        /* \"#utility.yul\":21080:21112   */\n      slt\n        /* \"#utility.yul\":21077:21196   */\n      iszero\n      tag_411\n      jumpi\n        /* \"#utility.yul\":21115:21194   */\n      tag_412\n      tag_144\n      jump\t// in\n    tag_412:\n        /* \"#utility.yul\":21077:21196   */\n    tag_411:\n        /* \"#utility.yul\":21235:21236   */\n      0x00\n        /* \"#utility.yul\":21260:21321   */\n      tag_413\n        /* \"#utility.yul\":21313:21320   */\n      dup5\n        /* \"#utility.yul\":21304:21310   */\n      dup3\n        /* \"#utility.yul\":21293:21302   */\n      dup6\n        /* \"#utility.yul\":21289:21311   */\n      add\n        /* \"#utility.yul\":21260:21321   */\n      tag_196\n      jump\t// in\n    tag_413:\n        /* \"#utility.yul\":21250:21321   */\n      swap2\n      pop\n        /* \"#utility.yul\":21206:21331   */\n      pop\n        /* \"#utility.yul\":20993:21338   */\n      swap3\n      swap2\n      pop\n      pop\n      jump\t// out\n        /* \"#utility.yul\":21344:21586   */\n    tag_197:\n        /* \"#utility.yul\":21484:21518   */\n      0x4f6e6c7920746865206f776e6572206f7220617070726f766564206164647265\n        /* \"#utility.yul\":21480:21481   */\n      0x00\n        /* \"#utility.yul\":21472:21478   */\n      dup3\n        /* \"#utility.yul\":21468:21482   */\n      add\n        /* \"#utility.yul\":21461:21519   */\n      mstore\n        /* \"#utility.yul\":21553:21578   */\n      0x737365732063616e207375626d6974206120636c61696d000000000000000000\n        /* \"#utility.yul\":21548:21550   */\n      0x20\n        /* \"#utility.yul\":21540:21546   */\n      dup3\n        /* \"#utility.yul\":21536:21551   */\n      add\n        /* \"#utility.yul\":21529:21579   */\n      mstore\n        /* \"#utility.yul\":21344:21586   */\n      pop\n      jump\t// out\n        /* \"#utility.yul\":21592:21958   */\n    tag_198:\n        /* \"#utility.yul\":21734:21737   */\n      0x00\n        /* \"#utility.yul\":21755:21822   */\n      tag_416\n        /* \"#utility.yul\":21819:21821   */\n      0x37\n        /* \"#utility.yul\":21814:21817   */\n      dup4\n        /* \"#utility.yul\":21755:21822   */\n      tag_165\n      jump\t// in\n    tag_416:\n        /* \"#utility.yul\":21748:21822   */\n      swap2\n      pop\n        /* \"#utility.yul\":21831:21924   */\n      tag_417\n        /* \"#utility.yul\":21920:21923   */\n      dup3\n        /* \"#utility.yul\":21831:21924   */\n      tag_197\n      jump\t// in\n    tag_417:\n        /* \"#utility.yul\":21949:21951   */\n      0x40\n        /* \"#utility.yul\":21944:21947   */\n      dup3\n        /* \"#utility.yul\":21940:21952   */\n      add\n        /* \"#utility.yul\":21933:21952   */\n      swap1\n      pop\n        /* \"#utility.yul\":21592:21958   */\n      swap2\n      swap1\n      pop\n      jump\t// out\n        /* \"#utility.yul\":21964:22383   */\n    tag_106:\n        /* \"#utility.yul\":22130:22134   */\n      0x00\n        /* \"#utility.yul\":22168:22170   */\n      0x20\n        /* \"#utility.yul\":22157:22166   */\n      dup3\n        /* \"#utility.yul\":22153:22171   */\n      add\n        /* \"#utility.yul\":22145:22171   */\n      swap1\n      pop\n        /* \"#utility.yul\":22217:22226   */\n      dup2\n        /* \"#utility.yul\":22211:22215   */\n      dup2\n        /* \"#utility.yul\":22207:22227   */\n      sub\n        /* \"#utility.yul\":22203:22204   */\n      0x00\n        /* \"#utility.yul\":22192:22201   */\n      dup4\n        /* \"#utility.yul\":22188:22205   */\n      add\n        /* \"#utility.yul\":22181:22228   */\n      mstore\n        /* \"#utility.yul\":22245:22376   */\n      tag_419\n        /* \"#utility.yul\":22371:22375   */\n      dup2\n        /* \"#utility.yul\":22245:22376   */\n      tag_198\n      jump\t// in\n    tag_419:\n        /* \"#utility.yul\":22237:22376   */\n      swap1\n      pop\n        /* \"#utility.yul\":21964:22383   */\n      swap2\n      swap1\n      pop\n      jump\t// out\n        /* \"#utility.yul\":22389:22740   */\n    tag_113:\n        /* \"#utility.yul\":22459:22465   */\n      0x00\n        /* \"#utility.yul\":22508:22510   */\n      0x20\n        /* \"#utility.yul\":22496:22505   */\n      dup3\n        /* \"#utility.yul\":22487:22494   */\n      dup5\n        /* \"#utility.yul\":22483:22506   */\n      sub\n        /* \"#utility.yul\":22479:22511   */\n      slt\n        /* \"#utility.yul\":22476:22595   */\n      iszero\n      tag_421\n      jumpi\n        /* \"#utility.yul\":22514:22593   */\n      tag_422\n      tag_144\n      jump\t// in\n    tag_422:\n        /* \"#utility.yul\":22476:22595   */\n    tag_421:\n        /* \"#utility.yul\":22634:22635   */\n      0x00\n        /* \"#utility.yul\":22659:22723   */\n      tag_423\n        /* \"#utility.yul\":22715:22722   */\n      dup5\n        /* \"#utility.yul\":22706:22712   */\n      dup3\n        /* \"#utility.yul\":22695:22704   */\n      dup6\n        /* \"#utility.yul\":22691:22713   */\n      add\n        /* \"#utility.yul\":22659:22723   */\n      tag_176\n      jump\t// in\n    tag_423:\n        /* \"#utility.yul\":22649:22723   */\n      swap2\n      pop\n        /* \"#utility.yul\":22605:22733   */\n      pop\n        /* \"#utility.yul\":22389:22740   */\n      swap3\n      swap2\n      pop\n      pop\n      jump\t// out\n        /* \"#utility.yul\":22746:22918   */\n    tag_199:\n        /* \"#utility.yul\":22886:22910   */\n      0x41207061796f757420616c726561647920657869737400000000000000000000\n        /* \"#utility.yul\":22882:22883   */\n      0x00\n        /* \"#utility.yul\":22874:22880   */\n      dup3\n        /* \"#utility.yul\":22870:22884   */\n      add\n        /* \"#utility.yul\":22863:22911   */\n      mstore\n        /* \"#utility.yul\":22746:22918   */\n      pop\n      jump\t// out\n        /* \"#utility.yul\":22924:23290   */\n    tag_200:\n        /* \"#utility.yul\":23066:23069   */\n      0x00\n        /* \"#utility.yul\":23087:23154   */\n      tag_426\n        /* \"#utility.yul\":23151:23153   */\n      0x16\n        /* \"#utility.yul\":23146:23149   */\n      dup4\n        /* \"#utility.yul\":23087:23154   */\n      tag_165\n      jump\t// in\n    tag_426:\n        /* \"#utility.yul\":23080:23154   */\n      swap2\n      pop\n        /* \"#utility.yul\":23163:23256   */\n      tag_427\n        /* \"#utility.yul\":23252:23255   */\n      dup3\n        /* \"#utility.yul\":23163:23256   */\n      tag_199\n      jump\t// in\n    tag_427:\n        /* \"#utility.yul\":23281:23283   */\n      0x20\n        /* \"#utility.yul\":23276:23279   */\n      dup3\n        /* \"#utility.yul\":23272:23284   */\n      add\n        /* \"#utility.yul\":23265:23284   */\n      swap1\n      pop\n        /* \"#utility.yul\":22924:23290   */\n      swap2\n      swap1\n      pop\n      jump\t// out\n        /* \"#utility.yul\":23296:23715   */\n    tag_126:\n        /* \"#utility.yul\":23462:23466   */\n      0x00\n        /* \"#utility.yul\":23500:23502   */\n      0x20\n        /* \"#utility.yul\":23489:23498   */\n      dup3\n        /* \"#utility.yul\":23485:23503   */\n      add\n        /* \"#utility.yul\":23477:23503   */\n      swap1\n      pop\n        /* \"#utility.yul\":23549:23558   */\n      dup2\n        /* \"#utility.yul\":23543:23547   */\n      dup2\n        /* \"#utility.yul\":23539:23559   */\n      sub\n        /* \"#utility.yul\":23535:23536   */\n      0x00\n        /* \"#utility.yul\":23524:23533   */\n      dup4\n        /* \"#utility.yul\":23520:23537   */\n      add\n        /* \"#utility.yul\":23513:23560   */\n      mstore\n        /* \"#utility.yul\":23577:23708   */\n      tag_429\n        /* \"#utility.yul\":23703:23707   */\n      dup2\n        /* \"#utility.yul\":23577:23708   */\n      tag_200\n      jump\t// in\n    tag_429:\n        /* \"#utility.yul\":23569:23708   */\n      swap1\n      pop\n        /* \"#utility.yul\":23296:23715   */\n      swap2\n      swap1\n      pop\n      jump\t// out\n\n    auxdata: 0xa264697066735822122075eba46c5b4a6edae2141c296a7397cf4a548fb96206a7df24b3a2f65cffd78864736f6c63430008150033\n}\n",
				"bytecode": {
					"linkReferences": {},
					"object": "60c060405234801562000010575f80fd5b50604051620019453803806200194583398181016040528101906200003691906200014b565b8273ffffffffffffffffffffffffffffffffffffffff1660808173ffffffffffffffffffffffffffffffffffffffff16815250508173ffffffffffffffffffffffffffffffffffffffff1660a08173ffffffffffffffffffffffffffffffffffffffff1681525050805f806101000a81548173ffffffffffffffffffffffffffffffffffffffff021916908373ffffffffffffffffffffffffffffffffffffffff160217905550505050620001a4565b5f80fd5b5f73ffffffffffffffffffffffffffffffffffffffff82169050919050565b5f6200011582620000ea565b9050919050565b620001278162000109565b811462000132575f80fd5b50565b5f8151905062000145816200011c565b92915050565b5f805f60608486031215620001655762000164620000e6565b5b5f620001748682870162000135565b9350506020620001878682870162000135565b92505060406200019a8682870162000135565b9150509250925092565b60805160a051611778620001cd5f395f81816101c6015261064801525f61053e01526117785ff3fe60806040526004361061006f575f3560e01c8063a888c2cd1161004d578063a888c2cd14610102578063b2e7d7ae14610140578063caf308691461016a578063ee97f7f31461019a5761006f565b806342e53fcf1461007357806372c3c31e1461009d5780638b79b22d146100c5575b5f80fd5b34801561007e575f80fd5b506100876101c4565b6040516100949190610c75565b60405180910390f35b3480156100a8575f80fd5b506100c360048036038101906100be9190610cd2565b6101e8565b005b3480156100d0575f80fd5b506100eb60048036038101906100e69190610cd2565b6104af565b6040516100f9929190610d26565b60405180910390f35b34801561010d575f80fd5b5061012860048036038101906101239190610cd2565b6104db565b60405161013793929190610d6d565b60405180910390f35b34801561014b575f80fd5b5061015461053c565b6040516101619190610dc2565b60405180910390f35b610184600480360381019061017f9190610e14565b610560565b6040516101919190610eac565b60405180910390f35b3480156101a5575f80fd5b506101ae610739565b6040516101bb9190610ee5565b60405180910390f35b7f000000000000000000000000000000000000000000000000000000000000000081565b5f60025f8381526020019081526020015f205f015490505f6001828154811061021457610213610efe565b5b905f5260205f2090600202016040518060600160405290815f8201548152602001600182015f9054906101000a900473ffffffffffffffffffffffffffffffffffffffff1673ffffffffffffffffffffffffffffffffffffffff1673ffffffffffffffffffffffffffffffffffffffff1681526020016001820160149054906101000a900460ff16151515158152505090508060400151156102eb576040517f08c379a00000000000000000000000000000000000000000000000000000000081526004016102e290610f85565b60405180910390fd5b5f6102f461075c565b90505f6102ff6107ef565b90505f61030a610882565b90508273ffffffffffffffffffffffffffffffffffffffff1663cf8d133f85602001518473ffffffffffffffffffffffffffffffffffffffff1663bc12dfc48573ffffffffffffffffffffffffffffffffffffffff1662407d2a8a5f01516040518263ffffffff1660e01b81526004016103849190610fa3565b5f60405180830381865afa15801561039e573d5f803e3d5ffd5b505050506040513d5f823e3d601f19601f820116820180604052508101906103c6919061127d565b6040518263ffffffff1660e01b81526004016103e29190611402565b6020604051808303815f875af11580156103fe573d5f803e3d5ffd5b505050506040513d601f19601f820116820180604052508101906104229190611422565b6040518363ffffffff1660e01b815260040161043f92919061146d565b5f604051808303815f87803b158015610456575f80fd5b505af1158015610468573d5f803e3d5ffd5b50505050600180868154811061048157610480610efe565b5b905f5260205f20906002020160010160146101000a81548160ff021916908315150217905550505050505050565b6002602052805f5260405f205f91509050805f015490806001015f9054906101000a900460ff16905082565b600181815481106104ea575f80fd5b905f5260205f2090600202015f91509050805f015490806001015f9054906101000a900473ffffffffffffffffffffffffffffffffffffffff16908060010160149054906101000a900460ff16905083565b7f000000000000000000000000000000000000000000000000000000000000000081565b610568610bc5565b5f610571610882565b90505f8173ffffffffffffffffffffffffffffffffffffffff1662407d2a856040518263ffffffff1660e01b81526004016105ac91906114c4565b5f60405180830381865afa1580156105c6573d5f803e3d5ffd5b505050506040513d5f823e3d601f19601f820116820180604052508101906105ee919061127d565b90504281604001518260600151610605919061150a565b1115610646576040517f08c379a000000000000000000000000000000000000000000000000000000000815260040161063d90611587565b60405180910390fd5b7f000000000000000000000000000000000000000000000000000000000000000073ffffffffffffffffffffffffffffffffffffffff1663430c208133866040518363ffffffff1660e01b81526004016106a19291906115a5565b6020604051808303815f875af11580156106bd573d5f803e3d5ffd5b505050506040513d601f19601f820116820180604052508101906106e191906115f6565b610720576040517f08c379a000000000000000000000000000000000000000000000000000000000815260040161071790611691565b60405180910390fd5b6107308463ffffffff1633610915565b92505050919050565b5f8054906101000a900473ffffffffffffffffffffffffffffffffffffffff1681565b5f805f9054906101000a900473ffffffffffffffffffffffffffffffffffffffff1673ffffffffffffffffffffffffffffffffffffffff16639ccc903d6040518163ffffffff1660e01b8152600401602060405180830381865afa1580156107c6573d5f803e3d5ffd5b505050506040513d601f19601f820116820180604052508101906107ea91906116af565b905090565b5f805f9054906101000a900473ffffffffffffffffffffffffffffffffffffffff1673ffffffffffffffffffffffffffffffffffffffff1663ff5f1b9f6040518163ffffffff1660e01b8152600401602060405180830381865afa158015610859573d5f803e3d5ffd5b505050506040513d601f19601f8201168201806040525081019061087d91906116af565b905090565b5f805f9054906101000a900473ffffffffffffffffffffffffffffffffffffffff1673ffffffffffffffffffffffffffffffffffffffff1663e67cdafd6040518163ffffffff1660e01b8152600401602060405180830381865afa1580156108ec573d5f803e3d5ffd5b505050506040513d601f19601f8201168201806040525081019061091091906116af565b905090565b61091d610bc5565b5f60025f8581526020019081526020015f206040518060400160405290815f8201548152602001600182015f9054906101000a900460ff16151515158152505090508060200151156109a4576040517f08c379a000000000000000000000000000000000000000000000000000000000815260040161099b90611724565b60405180910390fd5b604051806040016040528060018054905081526020016001151581525060025f8681526020019081526020015f205f820151815f01556020820151816001015f6101000a81548160ff0219169083151502179055509050505f60405180606001604052808681526020018573ffffffffffffffffffffffffffffffffffffffff1681526020015f15158152509050600181908060018154018082558091505060019003905f5260205f2090600202015f909190919091505f820151815f01556020820151816001015f6101000a81548173ffffffffffffffffffffffffffffffffffffffff021916908373ffffffffffffffffffffffffffffffffffffffff16021790555060408201518160010160146101000a81548160ff02191690831515021790555050505f610ad4610882565b90508073ffffffffffffffffffffffffffffffffffffffff16634b61a44b8273ffffffffffffffffffffffffffffffffffffffff1662407d2a896040518263ffffffff1660e01b8152600401610b2a9190610fa3565b5f60405180830381865afa158015610b44573d5f803e3d5ffd5b505050506040513d5f823e3d601f19601f82011682018060405250810190610b6c919061127d565b602001516040518263ffffffff1660e01b8152600401610b8c9190610fa3565b5f604051808303815f87803b158015610ba3575f80fd5b505af1158015610bb5573d5f803e3d5ffd5b5050505081935050505092915050565b60405180606001604052805f81526020015f73ffffffffffffffffffffffffffffffffffffffff1681526020015f151581525090565b5f73ffffffffffffffffffffffffffffffffffffffff82169050919050565b5f819050919050565b5f610c3d610c38610c3384610bfb565b610c1a565b610bfb565b9050919050565b5f610c4e82610c23565b9050919050565b5f610c5f82610c44565b9050919050565b610c6f81610c55565b82525050565b5f602082019050610c885f830184610c66565b92915050565b5f604051905090565b5f80fd5b5f80fd5b5f819050919050565b610cb181610c9f565b8114610cbb575f80fd5b50565b5f81359050610ccc81610ca8565b92915050565b5f60208284031215610ce757610ce6610c97565b5b5f610cf484828501610cbe565b91505092915050565b610d0681610c9f565b82525050565b5f8115159050919050565b610d2081610d0c565b82525050565b5f604082019050610d395f830185610cfd565b610d466020830184610d17565b9392505050565b5f610d5782610bfb565b9050919050565b610d6781610d4d565b82525050565b5f606082019050610d805f830186610cfd565b610d8d6020830185610d5e565b610d9a6040830184610d17565b949350505050565b5f610dac82610c44565b9050919050565b610dbc81610da2565b82525050565b5f602082019050610dd55f830184610db3565b92915050565b5f63ffffffff82169050919050565b610df381610ddb565b8114610dfd575f80fd5b50565b5f81359050610e0e81610dea565b92915050565b5f60208284031215610e2957610e28610c97565b5b5f610e3684828501610e00565b91505092915050565b610e4881610c9f565b82525050565b610e5781610d4d565b82525050565b610e6681610d0c565b82525050565b606082015f820151610e805f850182610e3f565b506020820151610e936020850182610e4e565b506040820151610ea66040850182610e5d565b50505050565b5f606082019050610ebf5f830184610e6c565b92915050565b5f610ecf82610c44565b9050919050565b610edf81610ec5565b82525050565b5f602082019050610ef85f830184610ed6565b92915050565b7f4e487b71000000000000000000000000000000000000000000000000000000005f52603260045260245ffd5b5f82825260208201905092915050565b7f5061796f75742068617320616c7265616479206265656e2072656465656d65645f82015250565b5f610f6f602083610f2b565b9150610f7a82610f3b565b602082019050919050565b5f6020820190508181035f830152610f9c81610f63565b9050919050565b5f602082019050610fb65f830184610cfd565b92915050565b5f80fd5b5f601f19601f8301169050919050565b7f4e487b71000000000000000000000000000000000000000000000000000000005f52604160045260245ffd5b61100682610fc0565b810181811067ffffffffffffffff8211171561102557611024610fd0565b5b80604052505050565b5f611037610c8e565b90506110438282610ffd565b919050565b5f80fd5b5f8151905061105a81610ca8565b92915050565b61106981610d4d565b8114611073575f80fd5b50565b5f8151905061108481611060565b92915050565b5f80fd5b5f80fd5b5f67ffffffffffffffff8211156110ac576110ab610fd0565b5b6110b582610fc0565b9050602081019050919050565b5f5b838110156110df5780820151818401526020810190506110c4565b5f8484015250505050565b5f6110fc6110f784611092565b61102e565b9050828152602081018484840111156111185761111761108e565b5b6111238482856110c2565b509392505050565b5f82601f83011261113f5761113e61108a565b5b815161114f8482602086016110ea565b91505092915050565b5f610160828403121561116e5761116d610fbc565b5b61117961016061102e565b90505f6111888482850161104c565b5f83015250602061119b8482850161104c565b60208301525060406111af8482850161104c565b60408301525060606111c38482850161104c565b60608301525060806111d784828501611076565b60808301525060a06111eb84828501611076565b60a08301525060c06111ff8482850161104c565b60c08301525060e06112138482850161104c565b60e0830152506101006112288482850161104c565b6101008301525061012061123e8482850161104c565b6101208301525061014082015167ffffffffffffffff81111561126457611263611048565b5b6112708482850161112b565b6101408301525092915050565b5f6020828403121561129257611291610c97565b5b5f82015167ffffffffffffffff8111156112af576112ae610c9b565b5b6112bb84828501611158565b91505092915050565b5f81519050919050565b5f82825260208201905092915050565b5f6112e8826112c4565b6112f281856112ce565b93506113028185602086016110c2565b61130b81610fc0565b840191505092915050565b5f61016083015f83015161132c5f860182610e3f565b50602083015161133f6020860182610e3f565b5060408301516113526040860182610e3f565b5060608301516113656060860182610e3f565b5060808301516113786080860182610e4e565b5060a083015161138b60a0860182610e4e565b5060c083015161139e60c0860182610e3f565b5060e08301516113b160e0860182610e3f565b506101008301516113c6610100860182610e3f565b506101208301516113db610120860182610e3f565b506101408301518482036101408601526113f582826112de565b9150508091505092915050565b5f6020820190508181035f83015261141a8184611316565b905092915050565b5f6020828403121561143757611436610c97565b5b5f6114448482850161104c565b91505092915050565b5f61145782610bfb565b9050919050565b6114678161144d565b82525050565b5f6040820190506114805f83018561145e565b61148d6020830184610cfd565b9392505050565b5f6114ae6114a96114a484610ddb565b610c1a565b610c9f565b9050919050565b6114be81611494565b82525050565b5f6020820190506114d75f8301846114b5565b92915050565b7f4e487b71000000000000000000000000000000000000000000000000000000005f52601160045260245ffd5b5f61151482610c9f565b915061151f83610c9f565b9250828201905080821115611537576115366114dd565b5b92915050565b7f4f6e6c79207375626d697420636c61696d2061667465722065787069727900005f82015250565b5f611571601e83610f2b565b915061157c8261153d565b602082019050919050565b5f6020820190508181035f83015261159e81611565565b9050919050565b5f6040820190506115b85f830185610d5e565b6115c560208301846114b5565b9392505050565b6115d581610d0c565b81146115df575f80fd5b50565b5f815190506115f0816115cc565b92915050565b5f6020828403121561160b5761160a610c97565b5b5f611618848285016115e2565b91505092915050565b7f4f6e6c7920746865206f776e6572206f7220617070726f7665642061646472655f8201527f737365732063616e207375626d6974206120636c61696d000000000000000000602082015250565b5f61167b603783610f2b565b915061168682611621565b604082019050919050565b5f6020820190508181035f8301526116a88161166f565b9050919050565b5f602082840312156116c4576116c3610c97565b5b5f6116d184828501611076565b91505092915050565b7f41207061796f757420616c7265616479206578697374000000000000000000005f82015250565b5f61170e601683610f2b565b9150611719826116da565b602082019050919050565b5f6020820190508181035f83015261173b81611702565b905091905056fea264697066735822122075eba46c5b4a6edae2141c296a7397cf4a548fb96206a7df24b3a2f65cffd78864736f6c63430008150033",
					"opcodes": "PUSH1 0xC0 PUSH1 0x40 MSTORE CALLVALUE DUP1 ISZERO PUSH3 0x10 JUMPI PUSH0 DUP1 REVERT JUMPDEST POP PUSH1 0x40 MLOAD PUSH3 0x1945 CODESIZE SUB DUP1 PUSH3 0x1945 DUP4 CODECOPY DUP2 DUP2 ADD PUSH1 0x40 MSTORE DUP2 ADD SWAP1 PUSH3 0x36 SWAP2 SWAP1 PUSH3 0x14B JUMP JUMPDEST DUP3 PUSH20 0xFFFFFFFFFFFFFFFFFFFFFFFFFFFFFFFFFFFFFFFF AND PUSH1 0x80 DUP2 PUSH20 0xFFFFFFFFFFFFFFFFFFFFFFFFFFFFFFFFFFFFFFFF AND DUP2 MSTORE POP POP DUP2 PUSH20 0xFFFFFFFFFFFFFFFFFFFFFFFFFFFFFFFFFFFFFFFF AND PUSH1 0xA0 DUP2 PUSH20 0xFFFFFFFFFFFFFFFFFFFFFFFFFFFFFFFFFFFFFFFF AND DUP2 MSTORE POP POP DUP1 PUSH0 DUP1 PUSH2 0x100 EXP DUP2 SLOAD DUP2 PUSH20 0xFFFFFFFFFFFFFFFFFFFFFFFFFFFFFFFFFFFFFFFF MUL NOT AND SWAP1 DUP4 PUSH20 0xFFFFFFFFFFFFFFFFFFFFFFFFFFFFFFFFFFFFFFFF AND MUL OR SWAP1 SSTORE POP POP POP POP PUSH3 0x1A4 JUMP JUMPDEST PUSH0 DUP1 REVERT JUMPDEST PUSH0 PUSH20 0xFFFFFFFFFFFFFFFFFFFFFFFFFFFFFFFFFFFFFFFF DUP3 AND SWAP1 POP SWAP2 SWAP1 POP JUMP JUMPDEST PUSH0 PUSH3 0x115 DUP3 PUSH3 0xEA JUMP JUMPDEST SWAP1 POP SWAP2 SWAP1 POP JUMP JUMPDEST PUSH3 0x127 DUP2 PUSH3 0x109 JUMP JUMPDEST DUP2 EQ PUSH3 0x132 JUMPI PUSH0 DUP1 REVERT JUMPDEST POP JUMP JUMPDEST PUSH0 DUP2 MLOAD SWAP1 POP PUSH3 0x145 DUP2 PUSH3 0x11C JUMP JUMPDEST SWAP3 SWAP2 POP POP JUMP JUMPDEST PUSH0 DUP1 PUSH0 PUSH1 0x60 DUP5 DUP7 SUB SLT ISZERO PUSH3 0x165 JUMPI PUSH3 0x164 PUSH3 0xE6 JUMP JUMPDEST JUMPDEST PUSH0 PUSH3 0x174 DUP7 DUP3 DUP8 ADD PUSH3 0x135 JUMP JUMPDEST SWAP4 POP POP PUSH1 0x20 PUSH3 0x187 DUP7 DUP3 DUP8 ADD PUSH3 0x135 JUMP JUMPDEST SWAP3 POP POP PUSH1 0x40 PUSH3 0x19A DUP7 DUP3 DUP8 ADD PUSH3 0x135 JUMP JUMPDEST SWAP2 POP POP SWAP3 POP SWAP3 POP SWAP3 JUMP JUMPDEST PUSH1 0x80 MLOAD PUSH1 0xA0 MLOAD PUSH2 0x1778 PUSH3 0x1CD PUSH0 CODECOPY PUSH0 DUP2 DUP2 PUSH2 0x1C6 ADD MSTORE PUSH2 0x648 ADD MSTORE PUSH0 PUSH2 0x53E ADD MSTORE PUSH2 0x1778 PUSH0 RETURN INVALID PUSH1 0x80 PUSH1 0x40 MSTORE PUSH1 0x4 CALLDATASIZE LT PUSH2 0x6F JUMPI PUSH0 CALLDATALOAD PUSH1 0xE0 SHR DUP1 PUSH4 0xA888C2CD GT PUSH2 0x4D JUMPI DUP1 PUSH4 0xA888C2CD EQ PUSH2 0x102 JUMPI DUP1 PUSH4 0xB2E7D7AE EQ PUSH2 0x140 JUMPI DUP1 PUSH4 0xCAF30869 EQ PUSH2 0x16A JUMPI DUP1 PUSH4 0xEE97F7F3 EQ PUSH2 0x19A JUMPI PUSH2 0x6F JUMP JUMPDEST DUP1 PUSH4 0x42E53FCF EQ PUSH2 0x73 JUMPI DUP1 PUSH4 0x72C3C31E EQ PUSH2 0x9D JUMPI DUP1 PUSH4 0x8B79B22D EQ PUSH2 0xC5 JUMPI JUMPDEST PUSH0 DUP1 REVERT JUMPDEST CALLVALUE DUP1 ISZERO PUSH2 0x7E JUMPI PUSH0 DUP1 REVERT JUMPDEST POP PUSH2 0x87 PUSH2 0x1C4 JUMP JUMPDEST PUSH1 0x40 MLOAD PUSH2 0x94 SWAP2 SWAP1 PUSH2 0xC75 JUMP JUMPDEST PUSH1 0x40 MLOAD DUP1 SWAP2 SUB SWAP1 RETURN JUMPDEST CALLVALUE DUP1 ISZERO PUSH2 0xA8 JUMPI PUSH0 DUP1 REVERT JUMPDEST POP PUSH2 0xC3 PUSH1 0x4 DUP1 CALLDATASIZE SUB DUP2 ADD SWAP1 PUSH2 0xBE SWAP2 SWAP1 PUSH2 0xCD2 JUMP JUMPDEST PUSH2 0x1E8 JUMP JUMPDEST STOP JUMPDEST CALLVALUE DUP1 ISZERO PUSH2 0xD0 JUMPI PUSH0 DUP1 REVERT JUMPDEST POP PUSH2 0xEB PUSH1 0x4 DUP1 CALLDATASIZE SUB DUP2 ADD SWAP1 PUSH2 0xE6 SWAP2 SWAP1 PUSH2 0xCD2 JUMP JUMPDEST PUSH2 0x4AF JUMP JUMPDEST PUSH1 0x40 MLOAD PUSH2 0xF9 SWAP3 SWAP2 SWAP1 PUSH2 0xD26 JUMP JUMPDEST PUSH1 0x40 MLOAD DUP1 SWAP2 SUB SWAP1 RETURN JUMPDEST CALLVALUE DUP1 ISZERO PUSH2 0x10D JUMPI PUSH0 DUP1 REVERT JUMPDEST POP PUSH2 0x128 PUSH1 0x4 DUP1 CALLDATASIZE SUB DUP2 ADD SWAP1 PUSH2 0x123 SWAP2 SWAP1 PUSH2 0xCD2 JUMP JUMPDEST PUSH2 0x4DB JUMP JUMPDEST PUSH1 0x40 MLOAD PUSH2 0x137 SWAP4 SWAP3 SWAP2 SWAP1 PUSH2 0xD6D JUMP JUMPDEST PUSH1 0x40 MLOAD DUP1 SWAP2 SUB SWAP1 RETURN JUMPDEST CALLVALUE DUP1 ISZERO PUSH2 0x14B JUMPI PUSH0 DUP1 REVERT JUMPDEST POP PUSH2 0x154 PUSH2 0x53C JUMP JUMPDEST PUSH1 0x40 MLOAD PUSH2 0x161 SWAP2 SWAP1 PUSH2 0xDC2 JUMP JUMPDEST PUSH1 0x40 MLOAD DUP1 SWAP2 SUB SWAP1 RETURN JUMPDEST PUSH2 0x184 PUSH1 0x4 DUP1 CALLDATASIZE SUB DUP2 ADD SWAP1 PUSH2 0x17F SWAP2 SWAP1 PUSH2 0xE14 JUMP JUMPDEST PUSH2 0x560 JUMP JUMPDEST PUSH1 0x40 MLOAD PUSH2 0x191 SWAP2 SWAP1 PUSH2 0xEAC JUMP JUMPDEST PUSH1 0x40 MLOAD DUP1 SWAP2 SUB SWAP1 RETURN JUMPDEST CALLVALUE DUP1 ISZERO PUSH2 0x1A5 JUMPI PUSH0 DUP1 REVERT JUMPDEST POP PUSH2 0x1AE PUSH2 0x739 JUMP JUMPDEST PUSH1 0x40 MLOAD PUSH2 0x1BB SWAP2 SWAP1 PUSH2 0xEE5 JUMP JUMPDEST PUSH1 0x40 MLOAD DUP1 SWAP2 SUB SWAP1 RETURN JUMPDEST PUSH32 0x0 DUP2 JUMP JUMPDEST PUSH0 PUSH1 0x2 PUSH0 DUP4 DUP2 MSTORE PUSH1 0x20 ADD SWAP1 DUP2 MSTORE PUSH1 0x20 ADD PUSH0 KECCAK256 PUSH0 ADD SLOAD SWAP1 POP PUSH0 PUSH1 0x1 DUP3 DUP2 SLOAD DUP2 LT PUSH2 0x214 JUMPI PUSH2 0x213 PUSH2 0xEFE JUMP JUMPDEST JUMPDEST SWAP1 PUSH0 MSTORE PUSH1 0x20 PUSH0 KECCAK256 SWAP1 PUSH1 0x2 MUL ADD PUSH1 0x40 MLOAD DUP1 PUSH1 0x60 ADD PUSH1 0x40 MSTORE SWAP1 DUP2 PUSH0 DUP3 ADD SLOAD DUP2 MSTORE PUSH1 0x20 ADD PUSH1 0x1 DUP3 ADD PUSH0 SWAP1 SLOAD SWAP1 PUSH2 0x100 EXP SWAP1 DIV PUSH20 0xFFFFFFFFFFFFFFFFFFFFFFFFFFFFFFFFFFFFFFFF AND PUSH20 0xFFFFFFFFFFFFFFFFFFFFFFFFFFFFFFFFFFFFFFFF AND PUSH20 0xFFFFFFFFFFFFFFFFFFFFFFFFFFFFFFFFFFFFFFFF AND DUP2 MSTORE PUSH1 0x20 ADD PUSH1 0x1 DUP3 ADD PUSH1 0x14 SWAP1 SLOAD SWAP1 PUSH2 0x100 EXP SWAP1 DIV PUSH1 0xFF AND ISZERO ISZERO ISZERO ISZERO DUP2 MSTORE POP POP SWAP1 POP DUP1 PUSH1 0x40 ADD MLOAD ISZERO PUSH2 0x2EB JUMPI PUSH1 0x40 MLOAD PUSH32 0x8C379A000000000000000000000000000000000000000000000000000000000 DUP2 MSTORE PUSH1 0x4 ADD PUSH2 0x2E2 SWAP1 PUSH2 0xF85 JUMP JUMPDEST PUSH1 0x40 MLOAD DUP1 SWAP2 SUB SWAP1 REVERT JUMPDEST PUSH0 PUSH2 0x2F4 PUSH2 0x75C JUMP JUMPDEST SWAP1 POP PUSH0 PUSH2 0x2FF PUSH2 0x7EF JUMP JUMPDEST SWAP1 POP PUSH0 PUSH2 0x30A PUSH2 0x882 JUMP JUMPDEST SWAP1 POP DUP3 PUSH20 0xFFFFFFFFFFFFFFFFFFFFFFFFFFFFFFFFFFFFFFFF AND PUSH4 0xCF8D133F DUP6 PUSH1 0x20 ADD MLOAD DUP5 PUSH20 0xFFFFFFFFFFFFFFFFFFFFFFFFFFFFFFFFFFFFFFFF AND PUSH4 0xBC12DFC4 DUP6 PUSH20 0xFFFFFFFFFFFFFFFFFFFFFFFFFFFFFFFFFFFFFFFF AND PUSH3 0x407D2A DUP11 PUSH0 ADD MLOAD PUSH1 0x40 MLOAD DUP3 PUSH4 0xFFFFFFFF AND PUSH1 0xE0 SHL DUP2 MSTORE PUSH1 0x4 ADD PUSH2 0x384 SWAP2 SWAP1 PUSH2 0xFA3 JUMP JUMPDEST PUSH0 PUSH1 0x40 MLOAD DUP1 DUP4 SUB DUP2 DUP7 GAS STATICCALL ISZERO DUP1 ISZERO PUSH2 0x39E JUMPI RETURNDATASIZE PUSH0 DUP1 RETURNDATACOPY RETURNDATASIZE PUSH0 REVERT JUMPDEST POP POP POP POP PUSH1 0x40 MLOAD RETURNDATASIZE PUSH0 DUP3 RETURNDATACOPY RETURNDATASIZE PUSH1 0x1F NOT PUSH1 0x1F DUP3 ADD AND DUP3 ADD DUP1 PUSH1 0x40 MSTORE POP DUP2 ADD SWAP1 PUSH2 0x3C6 SWAP2 SWAP1 PUSH2 0x127D JUMP JUMPDEST PUSH1 0x40 MLOAD DUP3 PUSH4 0xFFFFFFFF AND PUSH1 0xE0 SHL DUP2 MSTORE PUSH1 0x4 ADD PUSH2 0x3E2 SWAP2 SWAP1 PUSH2 0x1402 JUMP JUMPDEST PUSH1 0x20 PUSH1 0x40 MLOAD DUP1 DUP4 SUB DUP2 PUSH0 DUP8 GAS CALL ISZERO DUP1 ISZERO PUSH2 0x3FE JUMPI RETURNDATASIZE PUSH0 DUP1 RETURNDATACOPY RETURNDATASIZE PUSH0 REVERT JUMPDEST POP POP POP POP PUSH1 0x40 MLOAD RETURNDATASIZE PUSH1 0x1F NOT PUSH1 0x1F DUP3 ADD AND DUP3 ADD DUP1 PUSH1 0x40 MSTORE POP DUP2 ADD SWAP1 PUSH2 0x422 SWAP2 SWAP1 PUSH2 0x1422 JUMP JUMPDEST PUSH1 0x40 MLOAD DUP4 PUSH4 0xFFFFFFFF AND PUSH1 0xE0 SHL DUP2 MSTORE PUSH1 0x4 ADD PUSH2 0x43F SWAP3 SWAP2 SWAP1 PUSH2 0x146D JUMP JUMPDEST PUSH0 PUSH1 0x40 MLOAD DUP1 DUP4 SUB DUP2 PUSH0 DUP8 DUP1 EXTCODESIZE ISZERO DUP1 ISZERO PUSH2 0x456 JUMPI PUSH0 DUP1 REVERT JUMPDEST POP GAS CALL ISZERO DUP1 ISZERO PUSH2 0x468 JUMPI RETURNDATASIZE PUSH0 DUP1 RETURNDATACOPY RETURNDATASIZE PUSH0 REVERT JUMPDEST POP POP POP POP PUSH1 0x1 DUP1 DUP7 DUP2 SLOAD DUP2 LT PUSH2 0x481 JUMPI PUSH2 0x480 PUSH2 0xEFE JUMP JUMPDEST JUMPDEST SWAP1 PUSH0 MSTORE PUSH1 0x20 PUSH0 KECCAK256 SWAP1 PUSH1 0x2 MUL ADD PUSH1 0x1 ADD PUSH1 0x14 PUSH2 0x100 EXP DUP2 SLOAD DUP2 PUSH1 0xFF MUL NOT AND SWAP1 DUP4 ISZERO ISZERO MUL OR SWAP1 SSTORE POP POP POP POP POP POP POP JUMP JUMPDEST PUSH1 0x2 PUSH1 0x20 MSTORE DUP1 PUSH0 MSTORE PUSH1 0x40 PUSH0 KECCAK256 PUSH0 SWAP2 POP SWAP1 POP DUP1 PUSH0 ADD SLOAD SWAP1 DUP1 PUSH1 0x1 ADD PUSH0 SWAP1 SLOAD SWAP1 PUSH2 0x100 EXP SWAP1 DIV PUSH1 0xFF AND SWAP1 POP DUP3 JUMP JUMPDEST PUSH1 0x1 DUP2 DUP2 SLOAD DUP2 LT PUSH2 0x4EA JUMPI PUSH0 DUP1 REVERT JUMPDEST SWAP1 PUSH0 MSTORE PUSH1 0x20 PUSH0 KECCAK256 SWAP1 PUSH1 0x2 MUL ADD PUSH0 SWAP2 POP SWAP1 POP DUP1 PUSH0 ADD SLOAD SWAP1 DUP1 PUSH1 0x1 ADD PUSH0 SWAP1 SLOAD SWAP1 PUSH2 0x100 EXP SWAP1 DIV PUSH20 0xFFFFFFFFFFFFFFFFFFFFFFFFFFFFFFFFFFFFFFFF AND SWAP1 DUP1 PUSH1 0x1 ADD PUSH1 0x14 SWAP1 SLOAD SWAP1 PUSH2 0x100 EXP SWAP1 DIV PUSH1 0xFF AND SWAP1 POP DUP4 JUMP JUMPDEST PUSH32 0x0 DUP2 JUMP JUMPDEST PUSH2 0x568 PUSH2 0xBC5 JUMP JUMPDEST PUSH0 PUSH2 0x571 PUSH2 0x882 JUMP JUMPDEST SWAP1 POP PUSH0 DUP2 PUSH20 0xFFFFFFFFFFFFFFFFFFFFFFFFFFFFFFFFFFFFFFFF AND PUSH3 0x407D2A DUP6 PUSH1 0x40 MLOAD DUP3 PUSH4 0xFFFFFFFF AND PUSH1 0xE0 SHL DUP2 MSTORE PUSH1 0x4 ADD PUSH2 0x5AC SWAP2 SWAP1 PUSH2 0x14C4 JUMP JUMPDEST PUSH0 PUSH1 0x40 MLOAD DUP1 DUP4 SUB DUP2 DUP7 GAS STATICCALL ISZERO DUP1 ISZERO PUSH2 0x5C6 JUMPI RETURNDATASIZE PUSH0 DUP1 RETURNDATACOPY RETURNDATASIZE PUSH0 REVERT JUMPDEST POP POP POP POP PUSH1 0x40 MLOAD RETURNDATASIZE PUSH0 DUP3 RETURNDATACOPY RETURNDATASIZE PUSH1 0x1F NOT PUSH1 0x1F DUP3 ADD AND DUP3 ADD DUP1 PUSH1 0x40 MSTORE POP DUP2 ADD SWAP1 PUSH2 0x5EE SWAP2 SWAP1 PUSH2 0x127D JUMP JUMPDEST SWAP1 POP TIMESTAMP DUP2 PUSH1 0x40 ADD MLOAD DUP3 PUSH1 0x60 ADD MLOAD PUSH2 0x605 SWAP2 SWAP1 PUSH2 0x150A JUMP JUMPDEST GT ISZERO PUSH2 0x646 JUMPI PUSH1 0x40 MLOAD PUSH32 0x8C379A000000000000000000000000000000000000000000000000000000000 DUP2 MSTORE PUSH1 0x4 ADD PUSH2 0x63D SWAP1 PUSH2 0x1587 JUMP JUMPDEST PUSH1 0x40 MLOAD DUP1 SWAP2 SUB SWAP1 REVERT JUMPDEST PUSH32 0x0 PUSH20 0xFFFFFFFFFFFFFFFFFFFFFFFFFFFFFFFFFFFFFFFF AND PUSH4 0x430C2081 CALLER DUP7 PUSH1 0x40 MLOAD DUP4 PUSH4 0xFFFFFFFF AND PUSH1 0xE0 SHL DUP2 MSTORE PUSH1 0x4 ADD PUSH2 0x6A1 SWAP3 SWAP2 SWAP1 PUSH2 0x15A5 JUMP JUMPDEST PUSH1 0x20 PUSH1 0x40 MLOAD DUP1 DUP4 SUB DUP2 PUSH0 DUP8 GAS CALL ISZERO DUP1 ISZERO PUSH2 0x6BD JUMPI RETURNDATASIZE PUSH0 DUP1 RETURNDATACOPY RETURNDATASIZE PUSH0 REVERT JUMPDEST POP POP POP POP PUSH1 0x40 MLOAD RETURNDATASIZE PUSH1 0x1F NOT PUSH1 0x1F DUP3 ADD AND DUP3 ADD DUP1 PUSH1 0x40 MSTORE POP DUP2 ADD SWAP1 PUSH2 0x6E1 SWAP2 SWAP1 PUSH2 0x15F6 JUMP JUMPDEST PUSH2 0x720 JUMPI PUSH1 0x40 MLOAD PUSH32 0x8C379A000000000000000000000000000000000000000000000000000000000 DUP2 MSTORE PUSH1 0x4 ADD PUSH2 0x717 SWAP1 PUSH2 0x1691 JUMP JUMPDEST PUSH1 0x40 MLOAD DUP1 SWAP2 SUB SWAP1 REVERT JUMPDEST PUSH2 0x730 DUP5 PUSH4 0xFFFFFFFF AND CALLER PUSH2 0x915 JUMP JUMPDEST SWAP3 POP POP POP SWAP2 SWAP1 POP JUMP JUMPDEST PUSH0 DUP1 SLOAD SWAP1 PUSH2 0x100 EXP SWAP1 DIV PUSH20 0xFFFFFFFFFFFFFFFFFFFFFFFFFFFFFFFFFFFFFFFF AND DUP2 JUMP JUMPDEST PUSH0 DUP1 PUSH0 SWAP1 SLOAD SWAP1 PUSH2 0x100 EXP SWAP1 DIV PUSH20 0xFFFFFFFFFFFFFFFFFFFFFFFFFFFFFFFFFFFFFFFF AND PUSH20 0xFFFFFFFFFFFFFFFFFFFFFFFFFFFFFFFFFFFFFFFF AND PUSH4 0x9CCC903D PUSH1 0x40 MLOAD DUP2 PUSH4 0xFFFFFFFF AND PUSH1 0xE0 SHL DUP2 MSTORE PUSH1 0x4 ADD PUSH1 0x20 PUSH1 0x40 MLOAD DUP1 DUP4 SUB DUP2 DUP7 GAS STATICCALL ISZERO DUP1 ISZERO PUSH2 0x7C6 JUMPI RETURNDATASIZE PUSH0 DUP1 RETURNDATACOPY RETURNDATASIZE PUSH0 REVERT JUMPDEST POP POP POP POP PUSH1 0x40 MLOAD RETURNDATASIZE PUSH1 0x1F NOT PUSH1 0x1F DUP3 ADD AND DUP3 ADD DUP1 PUSH1 0x40 MSTORE POP DUP2 ADD SWAP1 PUSH2 0x7EA SWAP2 SWAP1 PUSH2 0x16AF JUMP JUMPDEST SWAP1 POP SWAP1 JUMP JUMPDEST PUSH0 DUP1 PUSH0 SWAP1 SLOAD SWAP1 PUSH2 0x100 EXP SWAP1 DIV PUSH20 0xFFFFFFFFFFFFFFFFFFFFFFFFFFFFFFFFFFFFFFFF AND PUSH20 0xFFFFFFFFFFFFFFFFFFFFFFFFFFFFFFFFFFFFFFFF AND PUSH4 0xFF5F1B9F PUSH1 0x40 MLOAD DUP2 PUSH4 0xFFFFFFFF AND PUSH1 0xE0 SHL DUP2 MSTORE PUSH1 0x4 ADD PUSH1 0x20 PUSH1 0x40 MLOAD DUP1 DUP4 SUB DUP2 DUP7 GAS STATICCALL ISZERO DUP1 ISZERO PUSH2 0x859 JUMPI RETURNDATASIZE PUSH0 DUP1 RETURNDATACOPY RETURNDATASIZE PUSH0 REVERT JUMPDEST POP POP POP POP PUSH1 0x40 MLOAD RETURNDATASIZE PUSH1 0x1F NOT PUSH1 0x1F DUP3 ADD AND DUP3 ADD DUP1 PUSH1 0x40 MSTORE POP DUP2 ADD SWAP1 PUSH2 0x87D SWAP2 SWAP1 PUSH2 0x16AF JUMP JUMPDEST SWAP1 POP SWAP1 JUMP JUMPDEST PUSH0 DUP1 PUSH0 SWAP1 SLOAD SWAP1 PUSH2 0x100 EXP SWAP1 DIV PUSH20 0xFFFFFFFFFFFFFFFFFFFFFFFFFFFFFFFFFFFFFFFF AND PUSH20 0xFFFFFFFFFFFFFFFFFFFFFFFFFFFFFFFFFFFFFFFF AND PUSH4 0xE67CDAFD PUSH1 0x40 MLOAD DUP2 PUSH4 0xFFFFFFFF AND PUSH1 0xE0 SHL DUP2 MSTORE PUSH1 0x4 ADD PUSH1 0x20 PUSH1 0x40 MLOAD DUP1 DUP4 SUB DUP2 DUP7 GAS STATICCALL ISZERO DUP1 ISZERO PUSH2 0x8EC JUMPI RETURNDATASIZE PUSH0 DUP1 RETURNDATACOPY RETURNDATASIZE PUSH0 REVERT JUMPDEST POP POP POP POP PUSH1 0x40 MLOAD RETURNDATASIZE PUSH1 0x1F NOT PUSH1 0x1F DUP3 ADD AND DUP3 ADD DUP1 PUSH1 0x40 MSTORE POP DUP2 ADD SWAP1 PUSH2 0x910 SWAP2 SWAP1 PUSH2 0x16AF JUMP JUMPDEST SWAP1 POP SWAP1 JUMP JUMPDEST PUSH2 0x91D PUSH2 0xBC5 JUMP JUMPDEST PUSH0 PUSH1 0x2 PUSH0 DUP6 DUP2 MSTORE PUSH1 0x20 ADD SWAP1 DUP2 MSTORE PUSH1 0x20 ADD PUSH0 KECCAK256 PUSH1 0x40 MLOAD DUP1 PUSH1 0x40 ADD PUSH1 0x40 MSTORE SWAP1 DUP2 PUSH0 DUP3 ADD SLOAD DUP2 MSTORE PUSH1 0x20 ADD PUSH1 0x1 DUP3 ADD PUSH0 SWAP1 SLOAD SWAP1 PUSH2 0x100 EXP SWAP1 DIV PUSH1 0xFF AND ISZERO ISZERO ISZERO ISZERO DUP2 MSTORE POP POP SWAP1 POP DUP1 PUSH1 0x20 ADD MLOAD ISZERO PUSH2 0x9A4 JUMPI PUSH1 0x40 MLOAD PUSH32 0x8C379A000000000000000000000000000000000000000000000000000000000 DUP2 MSTORE PUSH1 0x4 ADD PUSH2 0x99B SWAP1 PUSH2 0x1724 JUMP JUMPDEST PUSH1 0x40 MLOAD DUP1 SWAP2 SUB SWAP1 REVERT JUMPDEST PUSH1 0x40 MLOAD DUP1 PUSH1 0x40 ADD PUSH1 0x40 MSTORE DUP1 PUSH1 0x1 DUP1 SLOAD SWAP1 POP DUP2 MSTORE PUSH1 0x20 ADD PUSH1 0x1 ISZERO ISZERO DUP2 MSTORE POP PUSH1 0x2 PUSH0 DUP7 DUP2 MSTORE PUSH1 0x20 ADD SWAP1 DUP2 MSTORE PUSH1 0x20 ADD PUSH0 KECCAK256 PUSH0 DUP3 ADD MLOAD DUP2 PUSH0 ADD SSTORE PUSH1 0x20 DUP3 ADD MLOAD DUP2 PUSH1 0x1 ADD PUSH0 PUSH2 0x100 EXP DUP2 SLOAD DUP2 PUSH1 0xFF MUL NOT AND SWAP1 DUP4 ISZERO ISZERO MUL OR SWAP1 SSTORE POP SWAP1 POP POP PUSH0 PUSH1 0x40 MLOAD DUP1 PUSH1 0x60 ADD PUSH1 0x40 MSTORE DUP1 DUP7 DUP2 MSTORE PUSH1 0x20 ADD DUP6 PUSH20 0xFFFFFFFFFFFFFFFFFFFFFFFFFFFFFFFFFFFFFFFF AND DUP2 MSTORE PUSH1 0x20 ADD PUSH0 ISZERO ISZERO DUP2 MSTORE POP SWAP1 POP PUSH1 0x1 DUP2 SWAP1 DUP1 PUSH1 0x1 DUP2 SLOAD ADD DUP1 DUP3 SSTORE DUP1 SWAP2 POP POP PUSH1 0x1 SWAP1 SUB SWAP1 PUSH0 MSTORE PUSH1 0x20 PUSH0 KECCAK256 SWAP1 PUSH1 0x2 MUL ADD PUSH0 SWAP1 SWAP2 SWAP1 SWAP2 SWAP1 SWAP2 POP PUSH0 DUP3 ADD MLOAD DUP2 PUSH0 ADD SSTORE PUSH1 0x20 DUP3 ADD MLOAD DUP2 PUSH1 0x1 ADD PUSH0 PUSH2 0x100 EXP DUP2 SLOAD DUP2 PUSH20 0xFFFFFFFFFFFFFFFFFFFFFFFFFFFFFFFFFFFFFFFF MUL NOT AND SWAP1 DUP4 PUSH20 0xFFFFFFFFFFFFFFFFFFFFFFFFFFFFFFFFFFFFFFFF AND MUL OR SWAP1 SSTORE POP PUSH1 0x40 DUP3 ADD MLOAD DUP2 PUSH1 0x1 ADD PUSH1 0x14 PUSH2 0x100 EXP DUP2 SLOAD DUP2 PUSH1 0xFF MUL NOT AND SWAP1 DUP4 ISZERO ISZERO MUL OR SWAP1 SSTORE POP POP POP PUSH0 PUSH2 0xAD4 PUSH2 0x882 JUMP JUMPDEST SWAP1 POP DUP1 PUSH20 0xFFFFFFFFFFFFFFFFFFFFFFFFFFFFFFFFFFFFFFFF AND PUSH4 0x4B61A44B DUP3 PUSH20 0xFFFFFFFFFFFFFFFFFFFFFFFFFFFFFFFFFFFFFFFF AND PUSH3 0x407D2A DUP10 PUSH1 0x40 MLOAD DUP3 PUSH4 0xFFFFFFFF AND PUSH1 0xE0 SHL DUP2 MSTORE PUSH1 0x4 ADD PUSH2 0xB2A SWAP2 SWAP1 PUSH2 0xFA3 JUMP JUMPDEST PUSH0 PUSH1 0x40 MLOAD DUP1 DUP4 SUB DUP2 DUP7 GAS STATICCALL ISZERO DUP1 ISZERO PUSH2 0xB44 JUMPI RETURNDATASIZE PUSH0 DUP1 RETURNDATACOPY RETURNDATASIZE PUSH0 REVERT JUMPDEST POP POP POP POP PUSH1 0x40 MLOAD RETURNDATASIZE PUSH0 DUP3 RETURNDATACOPY RETURNDATASIZE PUSH1 0x1F NOT PUSH1 0x1F DUP3 ADD AND DUP3 ADD DUP1 PUSH1 0x40 MSTORE POP DUP2 ADD SWAP1 PUSH2 0xB6C SWAP2 SWAP1 PUSH2 0x127D JUMP JUMPDEST PUSH1 0x20 ADD MLOAD PUSH1 0x40 MLOAD DUP3 PUSH4 0xFFFFFFFF AND PUSH1 0xE0 SHL DUP2 MSTORE PUSH1 0x4 ADD PUSH2 0xB8C SWAP2 SWAP1 PUSH2 0xFA3 JUMP JUMPDEST PUSH0 PUSH1 0x40 MLOAD DUP1 DUP4 SUB DUP2 PUSH0 DUP8 DUP1 EXTCODESIZE ISZERO DUP1 ISZERO PUSH2 0xBA3 JUMPI PUSH0 DUP1 REVERT JUMPDEST POP GAS CALL ISZERO DUP1 ISZERO PUSH2 0xBB5 JUMPI RETURNDATASIZE PUSH0 DUP1 RETURNDATACOPY RETURNDATASIZE PUSH0 REVERT JUMPDEST POP POP POP POP DUP2 SWAP4 POP POP POP POP SWAP3 SWAP2 POP POP JUMP JUMPDEST PUSH1 0x40 MLOAD DUP1 PUSH1 0x60 ADD PUSH1 0x40 MSTORE DUP1 PUSH0 DUP2 MSTORE PUSH1 0x20 ADD PUSH0 PUSH20 0xFFFFFFFFFFFFFFFFFFFFFFFFFFFFFFFFFFFFFFFF AND DUP2 MSTORE PUSH1 0x20 ADD PUSH0 ISZERO ISZERO DUP2 MSTORE POP SWAP1 JUMP JUMPDEST PUSH0 PUSH20 0xFFFFFFFFFFFFFFFFFFFFFFFFFFFFFFFFFFFFFFFF DUP3 AND SWAP1 POP SWAP2 SWAP1 POP JUMP JUMPDEST PUSH0 DUP2 SWAP1 POP SWAP2 SWAP1 POP JUMP JUMPDEST PUSH0 PUSH2 0xC3D PUSH2 0xC38 PUSH2 0xC33 DUP5 PUSH2 0xBFB JUMP JUMPDEST PUSH2 0xC1A JUMP JUMPDEST PUSH2 0xBFB JUMP JUMPDEST SWAP1 POP SWAP2 SWAP1 POP JUMP JUMPDEST PUSH0 PUSH2 0xC4E DUP3 PUSH2 0xC23 JUMP JUMPDEST SWAP1 POP SWAP2 SWAP1 POP JUMP JUMPDEST PUSH0 PUSH2 0xC5F DUP3 PUSH2 0xC44 JUMP JUMPDEST SWAP1 POP SWAP2 SWAP1 POP JUMP JUMPDEST PUSH2 0xC6F DUP2 PUSH2 0xC55 JUMP JUMPDEST DUP3 MSTORE POP POP JUMP JUMPDEST PUSH0 PUSH1 0x20 DUP3 ADD SWAP1 POP PUSH2 0xC88 PUSH0 DUP4 ADD DUP5 PUSH2 0xC66 JUMP JUMPDEST SWAP3 SWAP2 POP POP JUMP JUMPDEST PUSH0 PUSH1 0x40 MLOAD SWAP1 POP SWAP1 JUMP JUMPDEST PUSH0 DUP1 REVERT JUMPDEST PUSH0 DUP1 REVERT JUMPDEST PUSH0 DUP2 SWAP1 POP SWAP2 SWAP1 POP JUMP JUMPDEST PUSH2 0xCB1 DUP2 PUSH2 0xC9F JUMP JUMPDEST DUP2 EQ PUSH2 0xCBB JUMPI PUSH0 DUP1 REVERT JUMPDEST POP JUMP JUMPDEST PUSH0 DUP2 CALLDATALOAD SWAP1 POP PUSH2 0xCCC DUP2 PUSH2 0xCA8 JUMP JUMPDEST SWAP3 SWAP2 POP POP JUMP JUMPDEST PUSH0 PUSH1 0x20 DUP3 DUP5 SUB SLT ISZERO PUSH2 0xCE7 JUMPI PUSH2 0xCE6 PUSH2 0xC97 JUMP JUMPDEST JUMPDEST PUSH0 PUSH2 0xCF4 DUP5 DUP3 DUP6 ADD PUSH2 0xCBE JUMP JUMPDEST SWAP2 POP POP SWAP3 SWAP2 POP POP JUMP JUMPDEST PUSH2 0xD06 DUP2 PUSH2 0xC9F JUMP JUMPDEST DUP3 MSTORE POP POP JUMP JUMPDEST PUSH0 DUP2 ISZERO ISZERO SWAP1 POP SWAP2 SWAP1 POP JUMP JUMPDEST PUSH2 0xD20 DUP2 PUSH2 0xD0C JUMP JUMPDEST DUP3 MSTORE POP POP JUMP JUMPDEST PUSH0 PUSH1 0x40 DUP3 ADD SWAP1 POP PUSH2 0xD39 PUSH0 DUP4 ADD DUP6 PUSH2 0xCFD JUMP JUMPDEST PUSH2 0xD46 PUSH1 0x20 DUP4 ADD DUP5 PUSH2 0xD17 JUMP JUMPDEST SWAP4 SWAP3 POP POP POP JUMP JUMPDEST PUSH0 PUSH2 0xD57 DUP3 PUSH2 0xBFB JUMP JUMPDEST SWAP1 POP SWAP2 SWAP1 POP JUMP JUMPDEST PUSH2 0xD67 DUP2 PUSH2 0xD4D JUMP JUMPDEST DUP3 MSTORE POP POP JUMP JUMPDEST PUSH0 PUSH1 0x60 DUP3 ADD SWAP1 POP PUSH2 0xD80 PUSH0 DUP4 ADD DUP7 PUSH2 0xCFD JUMP JUMPDEST PUSH2 0xD8D PUSH1 0x20 DUP4 ADD DUP6 PUSH2 0xD5E JUMP JUMPDEST PUSH2 0xD9A PUSH1 0x40 DUP4 ADD DUP5 PUSH2 0xD17 JUMP JUMPDEST SWAP5 SWAP4 POP POP POP POP JUMP JUMPDEST PUSH0 PUSH2 0xDAC DUP3 PUSH2 0xC44 JUMP JUMPDEST SWAP1 POP SWAP2 SWAP1 POP JUMP JUMPDEST PUSH2 0xDBC DUP2 PUSH2 0xDA2 JUMP JUMPDEST DUP3 MSTORE POP POP JUMP JUMPDEST PUSH0 PUSH1 0x20 DUP3 ADD SWAP1 POP PUSH2 0xDD5 PUSH0 DUP4 ADD DUP5 PUSH2 0xDB3 JUMP JUMPDEST SWAP3 SWAP2 POP POP JUMP JUMPDEST PUSH0 PUSH4 0xFFFFFFFF DUP3 AND SWAP1 POP SWAP2 SWAP1 POP JUMP JUMPDEST PUSH2 0xDF3 DUP2 PUSH2 0xDDB JUMP JUMPDEST DUP2 EQ PUSH2 0xDFD JUMPI PUSH0 DUP1 REVERT JUMPDEST POP JUMP JUMPDEST PUSH0 DUP2 CALLDATALOAD SWAP1 POP PUSH2 0xE0E DUP2 PUSH2 0xDEA JUMP JUMPDEST SWAP3 SWAP2 POP POP JUMP JUMPDEST PUSH0 PUSH1 0x20 DUP3 DUP5 SUB SLT ISZERO PUSH2 0xE29 JUMPI PUSH2 0xE28 PUSH2 0xC97 JUMP JUMPDEST JUMPDEST PUSH0 PUSH2 0xE36 DUP5 DUP3 DUP6 ADD PUSH2 0xE00 JUMP JUMPDEST SWAP2 POP POP SWAP3 SWAP2 POP POP JUMP JUMPDEST PUSH2 0xE48 DUP2 PUSH2 0xC9F JUMP JUMPDEST DUP3 MSTORE POP POP JUMP JUMPDEST PUSH2 0xE57 DUP2 PUSH2 0xD4D JUMP JUMPDEST DUP3 MSTORE POP POP JUMP JUMPDEST PUSH2 0xE66 DUP2 PUSH2 0xD0C JUMP JUMPDEST DUP3 MSTORE POP POP JUMP JUMPDEST PUSH1 0x60 DUP3 ADD PUSH0 DUP3 ADD MLOAD PUSH2 0xE80 PUSH0 DUP6 ADD DUP3 PUSH2 0xE3F JUMP JUMPDEST POP PUSH1 0x20 DUP3 ADD MLOAD PUSH2 0xE93 PUSH1 0x20 DUP6 ADD DUP3 PUSH2 0xE4E JUMP JUMPDEST POP PUSH1 0x40 DUP3 ADD MLOAD PUSH2 0xEA6 PUSH1 0x40 DUP6 ADD DUP3 PUSH2 0xE5D JUMP JUMPDEST POP POP POP POP JUMP JUMPDEST PUSH0 PUSH1 0x60 DUP3 ADD SWAP1 POP PUSH2 0xEBF PUSH0 DUP4 ADD DUP5 PUSH2 0xE6C JUMP JUMPDEST SWAP3 SWAP2 POP POP JUMP JUMPDEST PUSH0 PUSH2 0xECF DUP3 PUSH2 0xC44 JUMP JUMPDEST SWAP1 POP SWAP2 SWAP1 POP JUMP JUMPDEST PUSH2 0xEDF DUP2 PUSH2 0xEC5 JUMP JUMPDEST DUP3 MSTORE POP POP JUMP JUMPDEST PUSH0 PUSH1 0x20 DUP3 ADD SWAP1 POP PUSH2 0xEF8 PUSH0 DUP4 ADD DUP5 PUSH2 0xED6 JUMP JUMPDEST SWAP3 SWAP2 POP POP JUMP JUMPDEST PUSH32 0x4E487B7100000000000000000000000000000000000000000000000000000000 PUSH0 MSTORE PUSH1 0x32 PUSH1 0x4 MSTORE PUSH1 0x24 PUSH0 REVERT JUMPDEST PUSH0 DUP3 DUP3 MSTORE PUSH1 0x20 DUP3 ADD SWAP1 POP SWAP3 SWAP2 POP POP JUMP JUMPDEST PUSH32 0x5061796F75742068617320616C7265616479206265656E2072656465656D6564 PUSH0 DUP3 ADD MSTORE POP JUMP JUMPDEST PUSH0 PUSH2 0xF6F PUSH1 0x20 DUP4 PUSH2 0xF2B JUMP JUMPDEST SWAP2 POP PUSH2 0xF7A DUP3 PUSH2 0xF3B JUMP JUMPDEST PUSH1 0x20 DUP3 ADD SWAP1 POP SWAP2 SWAP1 POP JUMP JUMPDEST PUSH0 PUSH1 0x20 DUP3 ADD SWAP1 POP DUP2 DUP2 SUB PUSH0 DUP4 ADD MSTORE PUSH2 0xF9C DUP2 PUSH2 0xF63 JUMP JUMPDEST SWAP1 POP SWAP2 SWAP1 POP JUMP JUMPDEST PUSH0 PUSH1 0x20 DUP3 ADD SWAP1 POP PUSH2 0xFB6 PUSH0 DUP4 ADD DUP5 PUSH2 0xCFD JUMP JUMPDEST SWAP3 SWAP2 POP POP JUMP JUMPDEST PUSH0 DUP1 REVERT JUMPDEST PUSH0 PUSH1 0x1F NOT PUSH1 0x1F DUP4 ADD AND SWAP1 POP SWAP2 SWAP1 POP JUMP JUMPDEST PUSH32 0x4E487B7100000000000000000000000000000000000000000000000000000000 PUSH0 MSTORE PUSH1 0x41 PUSH1 0x4 MSTORE PUSH1 0x24 PUSH0 REVERT JUMPDEST PUSH2 0x1006 DUP3 PUSH2 0xFC0 JUMP JUMPDEST DUP2 ADD DUP2 DUP2 LT PUSH8 0xFFFFFFFFFFFFFFFF DUP3 GT OR ISZERO PUSH2 0x1025 JUMPI PUSH2 0x1024 PUSH2 0xFD0 JUMP JUMPDEST JUMPDEST DUP1 PUSH1 0x40 MSTORE POP POP POP JUMP JUMPDEST PUSH0 PUSH2 0x1037 PUSH2 0xC8E JUMP JUMPDEST SWAP1 POP PUSH2 0x1043 DUP3 DUP3 PUSH2 0xFFD JUMP JUMPDEST SWAP2 SWAP1 POP JUMP JUMPDEST PUSH0 DUP1 REVERT JUMPDEST PUSH0 DUP2 MLOAD SWAP1 POP PUSH2 0x105A DUP2 PUSH2 0xCA8 JUMP JUMPDEST SWAP3 SWAP2 POP POP JUMP JUMPDEST PUSH2 0x1069 DUP2 PUSH2 0xD4D JUMP JUMPDEST DUP2 EQ PUSH2 0x1073 JUMPI PUSH0 DUP1 REVERT JUMPDEST POP JUMP JUMPDEST PUSH0 DUP2 MLOAD SWAP1 POP PUSH2 0x1084 DUP2 PUSH2 0x1060 JUMP JUMPDEST SWAP3 SWAP2 POP POP JUMP JUMPDEST PUSH0 DUP1 REVERT JUMPDEST PUSH0 DUP1 REVERT JUMPDEST PUSH0 PUSH8 0xFFFFFFFFFFFFFFFF DUP3 GT ISZERO PUSH2 0x10AC JUMPI PUSH2 0x10AB PUSH2 0xFD0 JUMP JUMPDEST JUMPDEST PUSH2 0x10B5 DUP3 PUSH2 0xFC0 JUMP JUMPDEST SWAP1 POP PUSH1 0x20 DUP2 ADD SWAP1 POP SWAP2 SWAP1 POP JUMP JUMPDEST PUSH0 JUMPDEST DUP4 DUP2 LT ISZERO PUSH2 0x10DF JUMPI DUP1 DUP3 ADD MLOAD DUP2 DUP5 ADD MSTORE PUSH1 0x20 DUP2 ADD SWAP1 POP PUSH2 0x10C4 JUMP JUMPDEST PUSH0 DUP5 DUP5 ADD MSTORE POP POP POP POP JUMP JUMPDEST PUSH0 PUSH2 0x10FC PUSH2 0x10F7 DUP5 PUSH2 0x1092 JUMP JUMPDEST PUSH2 0x102E JUMP JUMPDEST SWAP1 POP DUP3 DUP2 MSTORE PUSH1 0x20 DUP2 ADD DUP5 DUP5 DUP5 ADD GT ISZERO PUSH2 0x1118 JUMPI PUSH2 0x1117 PUSH2 0x108E JUMP JUMPDEST JUMPDEST PUSH2 0x1123 DUP5 DUP3 DUP6 PUSH2 0x10C2 JUMP JUMPDEST POP SWAP4 SWAP3 POP POP POP JUMP JUMPDEST PUSH0 DUP3 PUSH1 0x1F DUP4 ADD SLT PUSH2 0x113F JUMPI PUSH2 0x113E PUSH2 0x108A JUMP JUMPDEST JUMPDEST DUP2 MLOAD PUSH2 0x114F DUP5 DUP3 PUSH1 0x20 DUP7 ADD PUSH2 0x10EA JUMP JUMPDEST SWAP2 POP POP SWAP3 SWAP2 POP POP JUMP JUMPDEST PUSH0 PUSH2 0x160 DUP3 DUP5 SUB SLT ISZERO PUSH2 0x116E JUMPI PUSH2 0x116D PUSH2 0xFBC JUMP JUMPDEST JUMPDEST PUSH2 0x1179 PUSH2 0x160 PUSH2 0x102E JUMP JUMPDEST SWAP1 POP PUSH0 PUSH2 0x1188 DUP5 DUP3 DUP6 ADD PUSH2 0x104C JUMP JUMPDEST PUSH0 DUP4 ADD MSTORE POP PUSH1 0x20 PUSH2 0x119B DUP5 DUP3 DUP6 ADD PUSH2 0x104C JUMP JUMPDEST PUSH1 0x20 DUP4 ADD MSTORE POP PUSH1 0x40 PUSH2 0x11AF DUP5 DUP3 DUP6 ADD PUSH2 0x104C JUMP JUMPDEST PUSH1 0x40 DUP4 ADD MSTORE POP PUSH1 0x60 PUSH2 0x11C3 DUP5 DUP3 DUP6 ADD PUSH2 0x104C JUMP JUMPDEST PUSH1 0x60 DUP4 ADD MSTORE POP PUSH1 0x80 PUSH2 0x11D7 DUP5 DUP3 DUP6 ADD PUSH2 0x1076 JUMP JUMPDEST PUSH1 0x80 DUP4 ADD MSTORE POP PUSH1 0xA0 PUSH2 0x11EB DUP5 DUP3 DUP6 ADD PUSH2 0x1076 JUMP JUMPDEST PUSH1 0xA0 DUP4 ADD MSTORE POP PUSH1 0xC0 PUSH2 0x11FF DUP5 DUP3 DUP6 ADD PUSH2 0x104C JUMP JUMPDEST PUSH1 0xC0 DUP4 ADD MSTORE POP PUSH1 0xE0 PUSH2 0x1213 DUP5 DUP3 DUP6 ADD PUSH2 0x104C JUMP JUMPDEST PUSH1 0xE0 DUP4 ADD MSTORE POP PUSH2 0x100 PUSH2 0x1228 DUP5 DUP3 DUP6 ADD PUSH2 0x104C JUMP JUMPDEST PUSH2 0x100 DUP4 ADD MSTORE POP PUSH2 0x120 PUSH2 0x123E DUP5 DUP3 DUP6 ADD PUSH2 0x104C JUMP JUMPDEST PUSH2 0x120 DUP4 ADD MSTORE POP PUSH2 0x140 DUP3 ADD MLOAD PUSH8 0xFFFFFFFFFFFFFFFF DUP2 GT ISZERO PUSH2 0x1264 JUMPI PUSH2 0x1263 PUSH2 0x1048 JUMP JUMPDEST JUMPDEST PUSH2 0x1270 DUP5 DUP3 DUP6 ADD PUSH2 0x112B JUMP JUMPDEST PUSH2 0x140 DUP4 ADD MSTORE POP SWAP3 SWAP2 POP POP JUMP JUMPDEST PUSH0 PUSH1 0x20 DUP3 DUP5 SUB SLT ISZERO PUSH2 0x1292 JUMPI PUSH2 0x1291 PUSH2 0xC97 JUMP JUMPDEST JUMPDEST PUSH0 DUP3 ADD MLOAD PUSH8 0xFFFFFFFFFFFFFFFF DUP2 GT ISZERO PUSH2 0x12AF JUMPI PUSH2 0x12AE PUSH2 0xC9B JUMP JUMPDEST JUMPDEST PUSH2 0x12BB DUP5 DUP3 DUP6 ADD PUSH2 0x1158 JUMP JUMPDEST SWAP2 POP POP SWAP3 SWAP2 POP POP JUMP JUMPDEST PUSH0 DUP2 MLOAD SWAP1 POP SWAP2 SWAP1 POP JUMP JUMPDEST PUSH0 DUP3 DUP3 MSTORE PUSH1 0x20 DUP3 ADD SWAP1 POP SWAP3 SWAP2 POP POP JUMP JUMPDEST PUSH0 PUSH2 0x12E8 DUP3 PUSH2 0x12C4 JUMP JUMPDEST PUSH2 0x12F2 DUP2 DUP6 PUSH2 0x12CE JUMP JUMPDEST SWAP4 POP PUSH2 0x1302 DUP2 DUP6 PUSH1 0x20 DUP7 ADD PUSH2 0x10C2 JUMP JUMPDEST PUSH2 0x130B DUP2 PUSH2 0xFC0 JUMP JUMPDEST DUP5 ADD SWAP2 POP POP SWAP3 SWAP2 POP POP JUMP JUMPDEST PUSH0 PUSH2 0x160 DUP4 ADD PUSH0 DUP4 ADD MLOAD PUSH2 0x132C PUSH0 DUP7 ADD DUP3 PUSH2 0xE3F JUMP JUMPDEST POP PUSH1 0x20 DUP4 ADD MLOAD PUSH2 0x133F PUSH1 0x20 DUP7 ADD DUP3 PUSH2 0xE3F JUMP JUMPDEST POP PUSH1 0x40 DUP4 ADD MLOAD PUSH2 0x1352 PUSH1 0x40 DUP7 ADD DUP3 PUSH2 0xE3F JUMP JUMPDEST POP PUSH1 0x60 DUP4 ADD MLOAD PUSH2 0x1365 PUSH1 0x60 DUP7 ADD DUP3 PUSH2 0xE3F JUMP JUMPDEST POP PUSH1 0x80 DUP4 ADD MLOAD PUSH2 0x1378 PUSH1 0x80 DUP7 ADD DUP3 PUSH2 0xE4E JUMP JUMPDEST POP PUSH1 0xA0 DUP4 ADD MLOAD PUSH2 0x138B PUSH1 0xA0 DUP7 ADD DUP3 PUSH2 0xE4E JUMP JUMPDEST POP PUSH1 0xC0 DUP4 ADD MLOAD PUSH2 0x139E PUSH1 0xC0 DUP7 ADD DUP3 PUSH2 0xE3F JUMP JUMPDEST POP PUSH1 0xE0 DUP4 ADD MLOAD PUSH2 0x13B1 PUSH1 0xE0 DUP7 ADD DUP3 PUSH2 0xE3F JUMP JUMPDEST POP PUSH2 0x100 DUP4 ADD MLOAD PUSH2 0x13C6 PUSH2 0x100 DUP7 ADD DUP3 PUSH2 0xE3F JUMP JUMPDEST POP PUSH2 0x120 DUP4 ADD MLOAD PUSH2 0x13DB PUSH2 0x120 DUP7 ADD DUP3 PUSH2 0xE3F JUMP JUMPDEST POP PUSH2 0x140 DUP4 ADD MLOAD DUP5 DUP3 SUB PUSH2 0x140 DUP7 ADD MSTORE PUSH2 0x13F5 DUP3 DUP3 PUSH2 0x12DE JUMP JUMPDEST SWAP2 POP POP DUP1 SWAP2 POP POP SWAP3 SWAP2 POP POP JUMP JUMPDEST PUSH0 PUSH1 0x20 DUP3 ADD SWAP1 POP DUP2 DUP2 SUB PUSH0 DUP4 ADD MSTORE PUSH2 0x141A DUP2 DUP5 PUSH2 0x1316 JUMP JUMPDEST SWAP1 POP SWAP3 SWAP2 POP POP JUMP JUMPDEST PUSH0 PUSH1 0x20 DUP3 DUP5 SUB SLT ISZERO PUSH2 0x1437 JUMPI PUSH2 0x1436 PUSH2 0xC97 JUMP JUMPDEST JUMPDEST PUSH0 PUSH2 0x1444 DUP5 DUP3 DUP6 ADD PUSH2 0x104C JUMP JUMPDEST SWAP2 POP POP SWAP3 SWAP2 POP POP JUMP JUMPDEST PUSH0 PUSH2 0x1457 DUP3 PUSH2 0xBFB JUMP JUMPDEST SWAP1 POP SWAP2 SWAP1 POP JUMP JUMPDEST PUSH2 0x1467 DUP2 PUSH2 0x144D JUMP JUMPDEST DUP3 MSTORE POP POP JUMP JUMPDEST PUSH0 PUSH1 0x40 DUP3 ADD SWAP1 POP PUSH2 0x1480 PUSH0 DUP4 ADD DUP6 PUSH2 0x145E JUMP JUMPDEST PUSH2 0x148D PUSH1 0x20 DUP4 ADD DUP5 PUSH2 0xCFD JUMP JUMPDEST SWAP4 SWAP3 POP POP POP JUMP JUMPDEST PUSH0 PUSH2 0x14AE PUSH2 0x14A9 PUSH2 0x14A4 DUP5 PUSH2 0xDDB JUMP JUMPDEST PUSH2 0xC1A JUMP JUMPDEST PUSH2 0xC9F JUMP JUMPDEST SWAP1 POP SWAP2 SWAP1 POP JUMP JUMPDEST PUSH2 0x14BE DUP2 PUSH2 0x1494 JUMP JUMPDEST DUP3 MSTORE POP POP JUMP JUMPDEST PUSH0 PUSH1 0x20 DUP3 ADD SWAP1 POP PUSH2 0x14D7 PUSH0 DUP4 ADD DUP5 PUSH2 0x14B5 JUMP JUMPDEST SWAP3 SWAP2 POP POP JUMP JUMPDEST PUSH32 0x4E487B7100000000000000000000000000000000000000000000000000000000 PUSH0 MSTORE PUSH1 0x11 PUSH1 0x4 MSTORE PUSH1 0x24 PUSH0 REVERT JUMPDEST PUSH0 PUSH2 0x1514 DUP3 PUSH2 0xC9F JUMP JUMPDEST SWAP2 POP PUSH2 0x151F DUP4 PUSH2 0xC9F JUMP JUMPDEST SWAP3 POP DUP3 DUP3 ADD SWAP1 POP DUP1 DUP3 GT ISZERO PUSH2 0x1537 JUMPI PUSH2 0x1536 PUSH2 0x14DD JUMP JUMPDEST JUMPDEST SWAP3 SWAP2 POP POP JUMP JUMPDEST PUSH32 0x4F6E6C79207375626D697420636C61696D206166746572206578706972790000 PUSH0 DUP3 ADD MSTORE POP JUMP JUMPDEST PUSH0 PUSH2 0x1571 PUSH1 0x1E DUP4 PUSH2 0xF2B JUMP JUMPDEST SWAP2 POP PUSH2 0x157C DUP3 PUSH2 0x153D JUMP JUMPDEST PUSH1 0x20 DUP3 ADD SWAP1 POP SWAP2 SWAP1 POP JUMP JUMPDEST PUSH0 PUSH1 0x20 DUP3 ADD SWAP1 POP DUP2 DUP2 SUB PUSH0 DUP4 ADD MSTORE PUSH2 0x159E DUP2 PUSH2 0x1565 JUMP JUMPDEST SWAP1 POP SWAP2 SWAP1 POP JUMP JUMPDEST PUSH0 PUSH1 0x40 DUP3 ADD SWAP1 POP PUSH2 0x15B8 PUSH0 DUP4 ADD DUP6 PUSH2 0xD5E JUMP JUMPDEST PUSH2 0x15C5 PUSH1 0x20 DUP4 ADD DUP5 PUSH2 0x14B5 JUMP JUMPDEST SWAP4 SWAP3 POP POP POP JUMP JUMPDEST PUSH2 0x15D5 DUP2 PUSH2 0xD0C JUMP JUMPDEST DUP2 EQ PUSH2 0x15DF JUMPI PUSH0 DUP1 REVERT JUMPDEST POP JUMP JUMPDEST PUSH0 DUP2 MLOAD SWAP1 POP PUSH2 0x15F0 DUP2 PUSH2 0x15CC JUMP JUMPDEST SWAP3 SWAP2 POP POP JUMP JUMPDEST PUSH0 PUSH1 0x20 DUP3 DUP5 SUB SLT ISZERO PUSH2 0x160B JUMPI PUSH2 0x160A PUSH2 0xC97 JUMP JUMPDEST JUMPDEST PUSH0 PUSH2 0x1618 DUP5 DUP3 DUP6 ADD PUSH2 0x15E2 JUMP JUMPDEST SWAP2 POP POP SWAP3 SWAP2 POP POP JUMP JUMPDEST PUSH32 0x4F6E6C7920746865206F776E6572206F7220617070726F766564206164647265 PUSH0 DUP3 ADD MSTORE PUSH32 0x737365732063616E207375626D6974206120636C61696D000000000000000000 PUSH1 0x20 DUP3 ADD MSTORE POP JUMP JUMPDEST PUSH0 PUSH2 0x167B PUSH1 0x37 DUP4 PUSH2 0xF2B JUMP JUMPDEST SWAP2 POP PUSH2 0x1686 DUP3 PUSH2 0x1621 JUMP JUMPDEST PUSH1 0x40 DUP3 ADD SWAP1 POP SWAP2 SWAP1 POP JUMP JUMPDEST PUSH0 PUSH1 0x20 DUP3 ADD SWAP1 POP DUP2 DUP2 SUB PUSH0 DUP4 ADD MSTORE PUSH2 0x16A8 DUP2 PUSH2 0x166F JUMP JUMPDEST SWAP1 POP SWAP2 SWAP1 POP JUMP JUMPDEST PUSH0 PUSH1 0x20 DUP3 DUP5 SUB SLT ISZERO PUSH2 0x16C4 JUMPI PUSH2 0x16C3 PUSH2 0xC97 JUMP JUMPDEST JUMPDEST PUSH0 PUSH2 0x16D1 DUP5 DUP3 DUP6 ADD PUSH2 0x1076 JUMP JUMPDEST SWAP2 POP POP SWAP3 SWAP2 POP POP JUMP JUMPDEST PUSH32 0x41207061796F757420616C726561647920657869737400000000000000000000 PUSH0 DUP3 ADD MSTORE POP JUMP JUMPDEST PUSH0 PUSH2 0x170E PUSH1 0x16 DUP4 PUSH2 0xF2B JUMP JUMPDEST SWAP2 POP PUSH2 0x1719 DUP3 PUSH2 0x16DA JUMP JUMPDEST PUSH1 0x20 DUP3 ADD SWAP1 POP SWAP2 SWAP1 POP JUMP JUMPDEST PUSH0 PUSH1 0x20 DUP3 ADD SWAP1 POP DUP2 DUP2 SUB PUSH0 DUP4 ADD MSTORE PUSH2 0x173B DUP2 PUSH2 0x1702 JUMP JUMPDEST SWAP1 POP SWAP2 SWAP1 POP JUMP INVALID LOG2 PUSH5 0x6970667358 0x22 SLT KECCAK256 PUSH22 0xEBA46C5B4A6EDAE2141C296A7397CF4A548FB96206A7 0xDF 0x24 0xB3 LOG2 0xF6 0x5C SELFDESTRUCT 0xD7 DUP9 PUSH5 0x736F6C6343 STOP ADDMOD ISZERO STOP CALLER "
				},
				"gasEstimates": {
					"creation": {
						"codeDepositCost": "1201600",
						"executionCost": "infinite",
						"totalCost": "infinite"
					},
					"external": {
						"claims(uint256)": "infinite",
						"coverNFT()": "infinite",
						"hedh()": "infinite",
						"lastClaimSubmissionOnCover(uint256)": "infinite",
						"master()": "infinite",
						"redeemClaimPayout(uint256)": "infinite",
						"submitClaim(uint32)": "infinite"
					},
					"internal": {
						"_submitClaim(uint256,address)": "infinite",
						"assessment()": "infinite",
						"cover()": "infinite",
						"pool()": "infinite"
					}
				},
				"methodIdentifiers": {
					"claims(uint256)": "a888c2cd",
					"coverNFT()": "42e53fcf",
					"hedh()": "b2e7d7ae",
					"lastClaimSubmissionOnCover(uint256)": "8b79b22d",
					"master()": "ee97f7f3",
					"redeemClaimPayout(uint256)": "72c3c31e",
					"submitClaim(uint32)": "caf30869"
				}
			},
			"storageLayout": {
				"storage": [
					{
						"astId": 102,
						"contract": "contracts/assessment/IndividualClaims.sol:IndividualClaims",
						"label": "master",
						"offset": 0,
						"slot": "0",
						"type": "t_contract(Master)82"
					},
					{
						"astId": 106,
						"contract": "contracts/assessment/IndividualClaims.sol:IndividualClaims",
						"label": "claims",
						"offset": 0,
						"slot": "1",
						"type": "t_array(t_struct(Claim)527_storage)dyn_storage"
					},
					{
						"astId": 111,
						"contract": "contracts/assessment/IndividualClaims.sol:IndividualClaims",
						"label": "lastClaimSubmissionOnCover",
						"offset": 0,
						"slot": "2",
						"type": "t_mapping(t_uint256,t_struct(ClaimSubmission)532_storage)"
					}
				],
				"types": {
					"t_address": {
						"encoding": "inplace",
						"label": "address",
						"numberOfBytes": "20"
					},
					"t_array(t_struct(Claim)527_storage)dyn_storage": {
						"base": "t_struct(Claim)527_storage",
						"encoding": "dynamic_array",
						"label": "struct Claim[]",
						"numberOfBytes": "32"
					},
					"t_bool": {
						"encoding": "inplace",
						"label": "bool",
						"numberOfBytes": "1"
					},
					"t_contract(Master)82": {
						"encoding": "inplace",
						"label": "contract Master",
						"numberOfBytes": "20"
					},
					"t_mapping(t_uint256,t_struct(ClaimSubmission)532_storage)": {
						"encoding": "mapping",
						"key": "t_uint256",
						"label": "mapping(uint256 => struct ClaimSubmission)",
						"numberOfBytes": "32",
						"value": "t_struct(ClaimSubmission)532_storage"
					},
					"t_struct(Claim)527_storage": {
						"encoding": "inplace",
						"label": "struct Claim",
						"members": [
							{
								"astId": 522,
								"contract": "contracts/assessment/IndividualClaims.sol:IndividualClaims",
								"label": "coverId",
								"offset": 0,
								"slot": "0",
								"type": "t_uint256"
							},
							{
								"astId": 524,
								"contract": "contracts/assessment/IndividualClaims.sol:IndividualClaims",
								"label": "coverOwner",
								"offset": 0,
								"slot": "1",
								"type": "t_address"
							},
							{
								"astId": 526,
								"contract": "contracts/assessment/IndividualClaims.sol:IndividualClaims",
								"label": "payoutRedeemed",
								"offset": 20,
								"slot": "1",
								"type": "t_bool"
							}
						],
						"numberOfBytes": "64"
					},
					"t_struct(ClaimSubmission)532_storage": {
						"encoding": "inplace",
						"label": "struct ClaimSubmission",
						"members": [
							{
								"astId": 529,
								"contract": "contracts/assessment/IndividualClaims.sol:IndividualClaims",
								"label": "claimId",
								"offset": 0,
								"slot": "0",
								"type": "t_uint256"
							},
							{
								"astId": 531,
								"contract": "contracts/assessment/IndividualClaims.sol:IndividualClaims",
								"label": "exists",
								"offset": 0,
								"slot": "1",
								"type": "t_bool"
							}
						],
						"numberOfBytes": "64"
					},
					"t_uint256": {
						"encoding": "inplace",
						"label": "uint256",
						"numberOfBytes": "32"
					}
				}
			},
			"userdoc": {
				"kind": "user",
				"methods": {},
				"version": 1
			}
		}
	}
}