{
	"contracts/capital/MCR.sol": {
		"MCR": {
			"abi": [
				{
					"inputs": [
						{
							"internalType": "address",
							"name": "masterAddress",
							"type": "address"
						}
					],
					"stateMutability": "nonpayable",
					"type": "constructor"
				},
				{
					"anonymous": false,
					"inputs": [
						{
							"indexed": false,
							"internalType": "uint256",
							"name": "mcr",
							"type": "uint256"
						},
						{
							"indexed": false,
							"internalType": "uint256",
							"name": "desiredMCR",
							"type": "uint256"
						},
						{
							"indexed": false,
							"internalType": "uint256",
							"name": "mcrFloor",
							"type": "uint256"
						},
						{
							"indexed": false,
							"internalType": "uint256",
							"name": "mcrETHWithGear",
							"type": "uint256"
						},
						{
							"indexed": false,
							"internalType": "uint256",
							"name": "totalSumAssured",
							"type": "uint256"
						}
					],
					"name": "MCRUpdated",
					"type": "event"
				},
				{
					"inputs": [],
					"name": "desiredMCR",
					"outputs": [
						{
							"internalType": "uint112",
							"name": "",
							"type": "uint112"
						}
					],
					"stateMutability": "view",
					"type": "function"
				},
				{
					"inputs": [],
					"name": "gearingFactor",
					"outputs": [
						{
							"internalType": "uint24",
							"name": "",
							"type": "uint24"
						}
					],
					"stateMutability": "view",
					"type": "function"
				},
				{
					"inputs": [],
					"name": "getAllSumAssurance",
					"outputs": [
						{
							"internalType": "uint256",
							"name": "",
							"type": "uint256"
						}
					],
					"stateMutability": "view",
					"type": "function"
				},
				{
					"inputs": [],
					"name": "getMCR",
					"outputs": [
						{
							"internalType": "uint256",
							"name": "",
							"type": "uint256"
						}
					],
					"stateMutability": "nonpayable",
					"type": "function"
				},
				{
					"inputs": [],
					"name": "mcr",
					"outputs": [
						{
							"internalType": "uint112",
							"name": "",
							"type": "uint112"
						}
					],
					"stateMutability": "view",
					"type": "function"
				},
				{
					"inputs": [],
					"name": "mcrFloor",
					"outputs": [
						{
							"internalType": "uint112",
							"name": "",
							"type": "uint112"
						}
					],
					"stateMutability": "view",
					"type": "function"
				},
				{
					"inputs": [],
					"name": "updateMCRInternal",
					"outputs": [],
					"stateMutability": "nonpayable",
					"type": "function"
				}
			],
			"devdoc": {
				"kind": "dev",
				"methods": {
					"getMCR()": {
						"details": "Calculates the current virtual MCR value. The virtual MCR value moves towards the desiredMCR value away from the stored mcr value at constant velocity based on how much time passed from the lastUpdateTime. The total change in virtual MCR cannot exceed 1% of stored mcr. This approach allows for the MCR to change smoothly across time without sudden jumps between values, while always progressing towards the desiredMCR goal. The desiredMCR can change subject to the call of _updateMCR so the virtual MCR value may change direction and start decreasing instead of increasing or vice-versa.",
						"returns": {
							"_0": "mcr"
						}
					}
				},
				"version": 1
			},
			"evm": {
				"assembly": "    /* \"contracts/capital/MCR.sol\":193:2383  contract MCR is IMCR {... */\n  mstore(0x40, 0x80)\n    /* \"contracts/capital/MCR.sol\":261:266  10000 */\n  0x2710\n    /* \"contracts/capital/MCR.sol\":235:266  uint112 public mcrFloor = 10000 */\n  0x01\n  exp(0x0100, 0x00)\n  dup2\n  sload\n  dup2\n  0xffffffffffffffffffffffffffff\n  mul\n  not\n  and\n  swap1\n  dup4\n  0xffffffffffffffffffffffffffff\n  and\n  mul\n  or\n  swap1\n  sstore\n  pop\n    /* \"contracts/capital/MCR.sol\":369:374  48000 */\n  0xbb80\n    /* \"contracts/capital/MCR.sol\":339:374  uint24 public gearingFactor = 48000 */\n  0x02\n  exp(0x0100, 0x0e)\n  dup2\n  sload\n  dup2\n  0xffffff\n  mul\n  not\n  and\n  swap1\n  dup4\n  0xffffff\n  and\n  mul\n  or\n  swap1\n  sstore\n  pop\n    /* \"contracts/capital/MCR.sol\":396:472  constructor (address masterAddress){... */\n  callvalue\n  dup1\n  iszero\n  tag_1\n  jumpi\n  0x00\n  dup1\n  revert\ntag_1:\n  pop\n  mload(0x40)\n  sub(codesize, bytecodeSize)\n  dup1\n  bytecodeSize\n  dup4\n  codecopy\n  dup2\n  dup2\n  add\n  0x40\n  mstore\n  dup2\n  add\n  swap1\n  tag_2\n  swap2\n  swap1\n  tag_3\n  jump\t// in\ntag_2:\n    /* \"contracts/capital/MCR.sol\":453:466  masterAddress */\n  dup1\n    /* \"contracts/capital/MCR.sol\":437:443  master */\n  0x00\n  dup1\n    /* \"contracts/capital/MCR.sol\":437:467  master = Master(masterAddress) */\n  0x0100\n  exp\n  dup2\n  sload\n  dup2\n  0xffffffffffffffffffffffffffffffffffffffff\n  mul\n  not\n  and\n  swap1\n  dup4\n  0xffffffffffffffffffffffffffffffffffffffff\n  and\n  mul\n  or\n  swap1\n  sstore\n  pop\n    /* \"contracts/capital/MCR.sol\":396:472  constructor (address masterAddress){... */\n  pop\n    /* \"contracts/capital/MCR.sol\":193:2383  contract MCR is IMCR {... */\n  jump(tag_6)\n    /* \"#utility.yul\":88:205   */\ntag_8:\n    /* \"#utility.yul\":197:198   */\n  0x00\n    /* \"#utility.yul\":194:195   */\n  dup1\n    /* \"#utility.yul\":187:199   */\n  revert\n    /* \"#utility.yul\":334:460   */\ntag_10:\n    /* \"#utility.yul\":371:378   */\n  0x00\n    /* \"#utility.yul\":411:453   */\n  0xffffffffffffffffffffffffffffffffffffffff\n    /* \"#utility.yul\":404:409   */\n  dup3\n    /* \"#utility.yul\":400:454   */\n  and\n    /* \"#utility.yul\":389:454   */\n  swap1\n  pop\n    /* \"#utility.yul\":334:460   */\n  swap2\n  swap1\n  pop\n  jump\t// out\n    /* \"#utility.yul\":466:562   */\ntag_11:\n    /* \"#utility.yul\":503:510   */\n  0x00\n    /* \"#utility.yul\":532:556   */\n  tag_20\n    /* \"#utility.yul\":550:555   */\n  dup3\n    /* \"#utility.yul\":532:556   */\n  tag_10\n  jump\t// in\ntag_20:\n    /* \"#utility.yul\":521:556   */\n  swap1\n  pop\n    /* \"#utility.yul\":466:562   */\n  swap2\n  swap1\n  pop\n  jump\t// out\n    /* \"#utility.yul\":568:690   */\ntag_12:\n    /* \"#utility.yul\":641:665   */\n  tag_22\n    /* \"#utility.yul\":659:664   */\n  dup2\n    /* \"#utility.yul\":641:665   */\n  tag_11\n  jump\t// in\ntag_22:\n    /* \"#utility.yul\":634:639   */\n  dup2\n    /* \"#utility.yul\":631:666   */\n  eq\n    /* \"#utility.yul\":621:684   */\n  tag_23\n  jumpi\n    /* \"#utility.yul\":680:681   */\n  0x00\n    /* \"#utility.yul\":677:678   */\n  dup1\n    /* \"#utility.yul\":670:682   */\n  revert\n    /* \"#utility.yul\":621:684   */\ntag_23:\n    /* \"#utility.yul\":568:690   */\n  pop\n  jump\t// out\n    /* \"#utility.yul\":696:839   */\ntag_13:\n    /* \"#utility.yul\":753:758   */\n  0x00\n    /* \"#utility.yul\":784:790   */\n  dup2\n    /* \"#utility.yul\":778:791   */\n  mload\n    /* \"#utility.yul\":769:791   */\n  swap1\n  pop\n    /* \"#utility.yul\":800:833   */\n  tag_25\n    /* \"#utility.yul\":827:832   */\n  dup2\n    /* \"#utility.yul\":800:833   */\n  tag_12\n  jump\t// in\ntag_25:\n    /* \"#utility.yul\":696:839   */\n  swap3\n  swap2\n  pop\n  pop\n  jump\t// out\n    /* \"#utility.yul\":845:1196   */\ntag_3:\n    /* \"#utility.yul\":915:921   */\n  0x00\n    /* \"#utility.yul\":964:966   */\n  0x20\n    /* \"#utility.yul\":952:961   */\n  dup3\n    /* \"#utility.yul\":943:950   */\n  dup5\n    /* \"#utility.yul\":939:962   */\n  sub\n    /* \"#utility.yul\":935:967   */\n  slt\n    /* \"#utility.yul\":932:1051   */\n  iszero\n  tag_27\n  jumpi\n    /* \"#utility.yul\":970:1049   */\n  tag_28\n  tag_8\n  jump\t// in\ntag_28:\n    /* \"#utility.yul\":932:1051   */\ntag_27:\n    /* \"#utility.yul\":1090:1091   */\n  0x00\n    /* \"#utility.yul\":1115:1179   */\n  tag_29\n    /* \"#utility.yul\":1171:1178   */\n  dup5\n    /* \"#utility.yul\":1162:1168   */\n  dup3\n    /* \"#utility.yul\":1151:1160   */\n  dup6\n    /* \"#utility.yul\":1147:1169   */\n  add\n    /* \"#utility.yul\":1115:1179   */\n  tag_13\n  jump\t// in\ntag_29:\n    /* \"#utility.yul\":1105:1179   */\n  swap2\n  pop\n    /* \"#utility.yul\":1061:1189   */\n  pop\n    /* \"#utility.yul\":845:1196   */\n  swap3\n  swap2\n  pop\n  pop\n  jump\t// out\n    /* \"contracts/capital/MCR.sol\":193:2383  contract MCR is IMCR {... */\ntag_6:\n  dataSize(sub_0)\n  dup1\n  dataOffset(sub_0)\n  0x00\n  codecopy\n  0x00\n  return\nstop\n\nsub_0: assembly {\n        /* \"contracts/capital/MCR.sol\":193:2383  contract MCR is IMCR {... */\n      mstore(0x40, 0x80)\n      callvalue\n      dup1\n      iszero\n      tag_1\n      jumpi\n      0x00\n      dup1\n      revert\n    tag_1:\n      pop\n      jumpi(tag_2, lt(calldatasize, 0x04))\n      shr(0xe0, calldataload(0x00))\n      dup1\n      0xa8a41a68\n      gt\n      tag_10\n      jumpi\n      dup1\n      0xa8a41a68\n      eq\n      tag_6\n      jumpi\n      dup1\n      0xaa5da046\n      eq\n      tag_7\n      jumpi\n      dup1\n      0xb3452487\n      eq\n      tag_8\n      jumpi\n      dup1\n      0xb8caedc4\n      eq\n      tag_9\n      jumpi\n      jump(tag_2)\n    tag_10:\n      dup1\n      0x017e7d8f\n      eq\n      tag_3\n      jumpi\n      dup1\n      0x44936b10\n      eq\n      tag_4\n      jumpi\n      dup1\n      0x7a2dbb6f\n      eq\n      tag_5\n      jumpi\n    tag_2:\n      0x00\n      dup1\n      revert\n        /* \"contracts/capital/MCR.sol\":310:335  uint112 public desiredMCR */\n    tag_3:\n      tag_11\n      tag_12\n      jump\t// in\n    tag_11:\n      mload(0x40)\n      tag_13\n      swap2\n      swap1\n      tag_14\n      jump\t// in\n    tag_13:\n      mload(0x40)\n      dup1\n      swap2\n      sub\n      swap1\n      return\n        /* \"contracts/capital/MCR.sol\":2103:2380  function getMCR() public returns (uint) {... */\n    tag_4:\n      tag_15\n      tag_16\n      jump\t// in\n    tag_15:\n      mload(0x40)\n      tag_17\n      swap2\n      swap1\n      tag_18\n      jump\t// in\n    tag_17:\n      mload(0x40)\n      dup1\n      swap2\n      sub\n      swap1\n      return\n        /* \"contracts/capital/MCR.sol\":235:266  uint112 public mcrFloor = 10000 */\n    tag_5:\n      tag_19\n      tag_20\n      jump\t// in\n    tag_19:\n      mload(0x40)\n      tag_21\n      swap2\n      swap1\n      tag_14\n      jump\t// in\n    tag_21:\n      mload(0x40)\n      dup1\n      swap2\n      sub\n      swap1\n      return\n        /* \"contracts/capital/MCR.sol\":339:374  uint24 public gearingFactor = 48000 */\n    tag_6:\n      tag_22\n      tag_23\n      jump\t// in\n    tag_22:\n      mload(0x40)\n      tag_24\n      swap2\n      swap1\n      tag_25\n      jump\t// in\n    tag_24:\n      mload(0x40)\n      dup1\n      swap2\n      sub\n      swap1\n      return\n        /* \"contracts/capital/MCR.sol\":604:663  function updateMCRInternal() public {... */\n    tag_7:\n      tag_26\n      tag_27\n      jump\t// in\n    tag_26:\n      stop\n        /* \"contracts/capital/MCR.sol\":1209:1435  function getAllSumAssurance() public view returns (uint) {... */\n    tag_8:\n      tag_28\n      tag_29\n      jump\t// in\n    tag_28:\n      mload(0x40)\n      tag_30\n      swap2\n      swap1\n      tag_18\n      jump\t// in\n    tag_30:\n      mload(0x40)\n      dup1\n      swap2\n      sub\n      swap1\n      return\n        /* \"contracts/capital/MCR.sol\":288:306  uint112 public mcr */\n    tag_9:\n      tag_31\n      tag_32\n      jump\t// in\n    tag_31:\n      mload(0x40)\n      tag_33\n      swap2\n      swap1\n      tag_14\n      jump\t// in\n    tag_33:\n      mload(0x40)\n      dup1\n      swap2\n      sub\n      swap1\n      return\n        /* \"contracts/capital/MCR.sol\":310:335  uint112 public desiredMCR */\n    tag_12:\n      0x02\n      0x00\n      swap1\n      sload\n      swap1\n      0x0100\n      exp\n      swap1\n      div\n      0xffffffffffffffffffffffffffff\n      and\n      dup2\n      jump\t// out\n        /* \"contracts/capital/MCR.sol\":2103:2380  function getMCR() public returns (uint) {... */\n    tag_16:\n        /* \"contracts/capital/MCR.sol\":2137:2141  uint */\n      0x00\n        /* \"contracts/capital/MCR.sol\":2154:2166  _updateMCR() */\n      tag_35\n        /* \"contracts/capital/MCR.sol\":2154:2164  _updateMCR */\n      tag_36\n        /* \"contracts/capital/MCR.sol\":2154:2166  _updateMCR() */\n      jump\t// in\n    tag_35:\n        /* \"contracts/capital/MCR.sol\":2365:2375  desiredMCR */\n      0x02\n      0x00\n      swap1\n      sload\n      swap1\n      0x0100\n      exp\n      swap1\n      div\n      0xffffffffffffffffffffffffffff\n      and\n        /* \"contracts/capital/MCR.sol\":2358:2375  return desiredMCR */\n      0xffffffffffffffffffffffffffff\n      and\n      swap1\n      pop\n        /* \"contracts/capital/MCR.sol\":2103:2380  function getMCR() public returns (uint) {... */\n      swap1\n      jump\t// out\n        /* \"contracts/capital/MCR.sol\":235:266  uint112 public mcrFloor = 10000 */\n    tag_20:\n      0x01\n      0x00\n      swap1\n      sload\n      swap1\n      0x0100\n      exp\n      swap1\n      div\n      0xffffffffffffffffffffffffffff\n      and\n      dup2\n      jump\t// out\n        /* \"contracts/capital/MCR.sol\":339:374  uint24 public gearingFactor = 48000 */\n    tag_23:\n      0x02\n      0x0e\n      swap1\n      sload\n      swap1\n      0x0100\n      exp\n      swap1\n      div\n      0xffffff\n      and\n      dup2\n      jump\t// out\n        /* \"contracts/capital/MCR.sol\":604:663  function updateMCRInternal() public {... */\n    tag_27:\n        /* \"contracts/capital/MCR.sol\":646:658  _updateMCR() */\n      tag_38\n        /* \"contracts/capital/MCR.sol\":646:656  _updateMCR */\n      tag_36\n        /* \"contracts/capital/MCR.sol\":646:658  _updateMCR() */\n      jump\t// in\n    tag_38:\n        /* \"contracts/capital/MCR.sol\":604:663  function updateMCRInternal() public {... */\n      jump\t// out\n        /* \"contracts/capital/MCR.sol\":1209:1435  function getAllSumAssurance() public view returns (uint) {... */\n    tag_29:\n        /* \"contracts/capital/MCR.sol\":1260:1264  uint */\n      0x00\n        /* \"contracts/capital/MCR.sol\":1273:1286  ICover _cover */\n      dup1\n        /* \"contracts/capital/MCR.sol\":1296:1302  master */\n      0x00\n      dup1\n      sload\n      swap1\n      0x0100\n      exp\n      swap1\n      div\n      0xffffffffffffffffffffffffffffffffffffffff\n      and\n        /* \"contracts/capital/MCR.sol\":1296:1315  master.CoverAddress */\n      0xffffffffffffffffffffffffffffffffffffffff\n      and\n      0xe67cdafd\n        /* \"contracts/capital/MCR.sol\":1296:1317  master.CoverAddress() */\n      mload(0x40)\n      dup2\n      0xffffffff\n      and\n      0xe0\n      shl\n      dup2\n      mstore\n      0x04\n      add\n      0x20\n      mload(0x40)\n      dup1\n      dup4\n      sub\n      dup2\n      dup7\n      gas\n      staticcall\n      iszero\n      dup1\n      iszero\n      tag_41\n      jumpi\n      returndatasize\n      0x00\n      dup1\n      returndatacopy\n      revert(0x00, returndatasize)\n    tag_41:\n      pop\n      pop\n      pop\n      pop\n      mload(0x40)\n      returndatasize\n      not(0x1f)\n      0x1f\n      dup3\n      add\n      and\n      dup3\n      add\n      dup1\n      0x40\n      mstore\n      pop\n      dup2\n      add\n      swap1\n      tag_42\n      swap2\n      swap1\n      tag_43\n      jump\t// in\n    tag_42:\n        /* \"contracts/capital/MCR.sol\":1273:1318  ICover _cover = ICover(master.CoverAddress()) */\n      swap1\n      pop\n        /* \"contracts/capital/MCR.sol\":1325:1357  uint totalActiveCoverAmountInEth */\n      0x00\n        /* \"contracts/capital/MCR.sol\":1360:1366  _cover */\n      dup2\n        /* \"contracts/capital/MCR.sol\":1360:1388  _cover.totalActiveCoverInETH */\n      0xffffffffffffffffffffffffffffffffffffffff\n      and\n      0xed3b657a\n        /* \"contracts/capital/MCR.sol\":1360:1390  _cover.totalActiveCoverInETH() */\n      mload(0x40)\n      dup2\n      0xffffffff\n      and\n      0xe0\n      shl\n      dup2\n      mstore\n      0x04\n      add\n      0x20\n      mload(0x40)\n      dup1\n      dup4\n      sub\n      dup2\n      dup7\n      gas\n      staticcall\n      iszero\n      dup1\n      iszero\n      tag_45\n      jumpi\n      returndatasize\n      0x00\n      dup1\n      returndatacopy\n      revert(0x00, returndatasize)\n    tag_45:\n      pop\n      pop\n      pop\n      pop\n      mload(0x40)\n      returndatasize\n      not(0x1f)\n      0x1f\n      dup3\n      add\n      and\n      dup3\n      add\n      dup1\n      0x40\n      mstore\n      pop\n      dup2\n      add\n      swap1\n      tag_46\n      swap2\n      swap1\n      tag_47\n      jump\t// in\n    tag_46:\n        /* \"contracts/capital/MCR.sol\":1325:1390  uint totalActiveCoverAmountInEth = _cover.totalActiveCoverInETH() */\n      swap1\n      pop\n        /* \"contracts/capital/MCR.sol\":1403:1430  totalActiveCoverAmountInEth */\n      dup1\n        /* \"contracts/capital/MCR.sol\":1396:1430  return totalActiveCoverAmountInEth */\n      swap3\n      pop\n      pop\n      pop\n        /* \"contracts/capital/MCR.sol\":1209:1435  function getAllSumAssurance() public view returns (uint) {... */\n      swap1\n      jump\t// out\n        /* \"contracts/capital/MCR.sol\":288:306  uint112 public mcr */\n    tag_32:\n      0x01\n      0x0e\n      swap1\n      sload\n      swap1\n      0x0100\n      exp\n      swap1\n      div\n      0xffffffffffffffffffffffffffff\n      and\n      dup2\n      jump\t// out\n        /* \"contracts/capital/MCR.sol\":667:1202  function _updateMCR() internal {... */\n    tag_36:\n        /* \"contracts/capital/MCR.sol\":868:888  uint totalSumAssured */\n      0x00\n        /* \"contracts/capital/MCR.sol\":891:911  getAllSumAssurance() */\n      tag_49\n        /* \"contracts/capital/MCR.sol\":891:909  getAllSumAssurance */\n      tag_29\n        /* \"contracts/capital/MCR.sol\":891:911  getAllSumAssurance() */\n      jump\t// in\n    tag_49:\n        /* \"contracts/capital/MCR.sol\":868:911  uint totalSumAssured = getAllSumAssurance() */\n      swap1\n      pop\n        /* \"contracts/capital/MCR.sol\":917:931  uint gearedMCR */\n      0x00\n        /* \"contracts/capital/MCR.sol\":970:983  gearingFactor */\n      0x02\n      0x0e\n      swap1\n      sload\n      swap1\n      0x0100\n      exp\n      swap1\n      div\n      0xffffff\n      and\n        /* \"contracts/capital/MCR.sol\":934:983  totalSumAssured * BASIS_PRECISION / gearingFactor */\n      0xffffff\n      and\n        /* \"contracts/capital/MCR.sol\":186:191  10000 */\n      0x2710\n        /* \"contracts/capital/MCR.sol\":934:949  totalSumAssured */\n      dup4\n        /* \"contracts/capital/MCR.sol\":934:967  totalSumAssured * BASIS_PRECISION */\n      tag_50\n      swap2\n      swap1\n      tag_51\n      jump\t// in\n    tag_50:\n        /* \"contracts/capital/MCR.sol\":934:983  totalSumAssured * BASIS_PRECISION / gearingFactor */\n      tag_52\n      swap2\n      swap1\n      tag_53\n      jump\t// in\n    tag_52:\n        /* \"contracts/capital/MCR.sol\":917:983  uint gearedMCR = totalSumAssured * BASIS_PRECISION / gearingFactor */\n      swap1\n      pop\n        /* \"contracts/capital/MCR.sol\":989:1010  uint112 newDesiredMCR */\n      0x00\n        /* \"contracts/capital/MCR.sol\":1021:1050  Math.max(gearedMCR, mcrFloor) */\n      tag_54\n        /* \"contracts/capital/MCR.sol\":1030:1039  gearedMCR */\n      dup3\n        /* \"contracts/capital/MCR.sol\":1041:1049  mcrFloor */\n      0x01\n      0x00\n      swap1\n      sload\n      swap1\n      0x0100\n      exp\n      swap1\n      div\n      0xffffffffffffffffffffffffffff\n      and\n        /* \"contracts/capital/MCR.sol\":1021:1050  Math.max(gearedMCR, mcrFloor) */\n      0xffffffffffffffffffffffffffff\n      and\n        /* \"contracts/capital/MCR.sol\":1021:1029  Math.max */\n      tag_55\n        /* \"contracts/capital/MCR.sol\":1021:1050  Math.max(gearedMCR, mcrFloor) */\n      jump\t// in\n    tag_54:\n        /* \"contracts/capital/MCR.sol\":989:1051  uint112 newDesiredMCR = uint112(Math.max(gearedMCR, mcrFloor)) */\n      swap1\n      pop\n        /* \"contracts/capital/MCR.sol\":1079:1108  Math.max(gearedMCR, mcrFloor) */\n      tag_56\n        /* \"contracts/capital/MCR.sol\":1088:1097  gearedMCR */\n      dup3\n        /* \"contracts/capital/MCR.sol\":1099:1107  mcrFloor */\n      0x01\n      0x00\n      swap1\n      sload\n      swap1\n      0x0100\n      exp\n      swap1\n      div\n      0xffffffffffffffffffffffffffff\n      and\n        /* \"contracts/capital/MCR.sol\":1079:1108  Math.max(gearedMCR, mcrFloor) */\n      0xffffffffffffffffffffffffffff\n      and\n        /* \"contracts/capital/MCR.sol\":1079:1087  Math.max */\n      tag_55\n        /* \"contracts/capital/MCR.sol\":1079:1108  Math.max(gearedMCR, mcrFloor) */\n      jump\t// in\n    tag_56:\n        /* \"contracts/capital/MCR.sol\":1058:1068  desiredMCR */\n      0x02\n      0x00\n        /* \"contracts/capital/MCR.sol\":1058:1109  desiredMCR = uint112(Math.max(gearedMCR, mcrFloor)) */\n      0x0100\n      exp\n      dup2\n      sload\n      dup2\n      0xffffffffffffffffffffffffffff\n      mul\n      not\n      and\n      swap1\n      dup4\n      0xffffffffffffffffffffffffffff\n      and\n      mul\n      or\n      swap1\n      sstore\n      pop\n        /* \"contracts/capital/MCR.sol\":1132:1197  MCRUpdated(mcr, desiredMCR, mcrFloor, gearedMCR, totalSumAssured) */\n      0x6e87c25e322c4ad68faf7916d0788baaf714d806fe887a84ee4b84ad9666f686\n        /* \"contracts/capital/MCR.sol\":1143:1146  mcr */\n      0x01\n      0x0e\n      swap1\n      sload\n      swap1\n      0x0100\n      exp\n      swap1\n      div\n      0xffffffffffffffffffffffffffff\n      and\n        /* \"contracts/capital/MCR.sol\":1148:1158  desiredMCR */\n      0x02\n      0x00\n      swap1\n      sload\n      swap1\n      0x0100\n      exp\n      swap1\n      div\n      0xffffffffffffffffffffffffffff\n      and\n        /* \"contracts/capital/MCR.sol\":1160:1168  mcrFloor */\n      0x01\n      0x00\n      swap1\n      sload\n      swap1\n      0x0100\n      exp\n      swap1\n      div\n      0xffffffffffffffffffffffffffff\n      and\n        /* \"contracts/capital/MCR.sol\":1170:1179  gearedMCR */\n      dup6\n        /* \"contracts/capital/MCR.sol\":1181:1196  totalSumAssured */\n      dup8\n        /* \"contracts/capital/MCR.sol\":1132:1197  MCRUpdated(mcr, desiredMCR, mcrFloor, gearedMCR, totalSumAssured) */\n      mload(0x40)\n      tag_57\n      swap6\n      swap5\n      swap4\n      swap3\n      swap2\n      swap1\n      tag_58\n      jump\t// in\n    tag_57:\n      mload(0x40)\n      dup1\n      swap2\n      sub\n      swap1\n      log1\n        /* \"contracts/capital/MCR.sol\":698:1202  {... */\n      pop\n      pop\n      pop\n        /* \"contracts/capital/MCR.sol\":667:1202  function _updateMCR() internal {... */\n      jump\t// out\n        /* \"contracts/libraries/Math.sol\":262:351  function max(uint a, uint b) internal pure returns (uint) {... */\n    tag_55:\n        /* \"contracts/libraries/Math.sol\":314:318  uint */\n      0x00\n        /* \"contracts/libraries/Math.sol\":337:338  b */\n      dup2\n        /* \"contracts/libraries/Math.sol\":333:334  a */\n      dup4\n        /* \"contracts/libraries/Math.sol\":333:338  a > b */\n      gt\n        /* \"contracts/libraries/Math.sol\":333:346  a > b ? a : b */\n      tag_60\n      jumpi\n        /* \"contracts/libraries/Math.sol\":345:346  b */\n      dup2\n        /* \"contracts/libraries/Math.sol\":333:346  a > b ? a : b */\n      jump(tag_61)\n    tag_60:\n        /* \"contracts/libraries/Math.sol\":341:342  a */\n      dup3\n        /* \"contracts/libraries/Math.sol\":333:346  a > b ? a : b */\n    tag_61:\n        /* \"contracts/libraries/Math.sol\":326:346  return a > b ? a : b */\n      swap1\n      pop\n        /* \"contracts/libraries/Math.sol\":262:351  function max(uint a, uint b) internal pure returns (uint) {... */\n      swap3\n      swap2\n      pop\n      pop\n      jump\t// out\n        /* \"#utility.yul\":7:121   */\n    tag_62:\n        /* \"#utility.yul\":44:51   */\n      0x00\n        /* \"#utility.yul\":84:114   */\n      0xffffffffffffffffffffffffffff\n        /* \"#utility.yul\":77:82   */\n      dup3\n        /* \"#utility.yul\":73:115   */\n      and\n        /* \"#utility.yul\":62:115   */\n      swap1\n      pop\n        /* \"#utility.yul\":7:121   */\n      swap2\n      swap1\n      pop\n      jump\t// out\n        /* \"#utility.yul\":127:245   */\n    tag_63:\n        /* \"#utility.yul\":214:238   */\n      tag_85\n        /* \"#utility.yul\":232:237   */\n      dup2\n        /* \"#utility.yul\":214:238   */\n      tag_62\n      jump\t// in\n    tag_85:\n        /* \"#utility.yul\":209:212   */\n      dup3\n        /* \"#utility.yul\":202:239   */\n      mstore\n        /* \"#utility.yul\":127:245   */\n      pop\n      pop\n      jump\t// out\n        /* \"#utility.yul\":251:473   */\n    tag_14:\n        /* \"#utility.yul\":344:348   */\n      0x00\n        /* \"#utility.yul\":382:384   */\n      0x20\n        /* \"#utility.yul\":371:380   */\n      dup3\n        /* \"#utility.yul\":367:385   */\n      add\n        /* \"#utility.yul\":359:385   */\n      swap1\n      pop\n        /* \"#utility.yul\":395:466   */\n      tag_87\n        /* \"#utility.yul\":463:464   */\n      0x00\n        /* \"#utility.yul\":452:461   */\n      dup4\n        /* \"#utility.yul\":448:465   */\n      add\n        /* \"#utility.yul\":439:445   */\n      dup5\n        /* \"#utility.yul\":395:466   */\n      tag_63\n      jump\t// in\n    tag_87:\n        /* \"#utility.yul\":251:473   */\n      swap3\n      swap2\n      pop\n      pop\n      jump\t// out\n        /* \"#utility.yul\":479:556   */\n    tag_64:\n        /* \"#utility.yul\":516:523   */\n      0x00\n        /* \"#utility.yul\":545:550   */\n      dup2\n        /* \"#utility.yul\":534:550   */\n      swap1\n      pop\n        /* \"#utility.yul\":479:556   */\n      swap2\n      swap1\n      pop\n      jump\t// out\n        /* \"#utility.yul\":562:680   */\n    tag_65:\n        /* \"#utility.yul\":649:673   */\n      tag_90\n        /* \"#utility.yul\":667:672   */\n      dup2\n        /* \"#utility.yul\":649:673   */\n      tag_64\n      jump\t// in\n    tag_90:\n        /* \"#utility.yul\":644:647   */\n      dup3\n        /* \"#utility.yul\":637:674   */\n      mstore\n        /* \"#utility.yul\":562:680   */\n      pop\n      pop\n      jump\t// out\n        /* \"#utility.yul\":686:908   */\n    tag_18:\n        /* \"#utility.yul\":779:783   */\n      0x00\n        /* \"#utility.yul\":817:819   */\n      0x20\n        /* \"#utility.yul\":806:815   */\n      dup3\n        /* \"#utility.yul\":802:820   */\n      add\n        /* \"#utility.yul\":794:820   */\n      swap1\n      pop\n        /* \"#utility.yul\":830:901   */\n      tag_92\n        /* \"#utility.yul\":898:899   */\n      0x00\n        /* \"#utility.yul\":887:896   */\n      dup4\n        /* \"#utility.yul\":883:900   */\n      add\n        /* \"#utility.yul\":874:880   */\n      dup5\n        /* \"#utility.yul\":830:901   */\n      tag_65\n      jump\t// in\n    tag_92:\n        /* \"#utility.yul\":686:908   */\n      swap3\n      swap2\n      pop\n      pop\n      jump\t// out\n        /* \"#utility.yul\":914:1005   */\n    tag_66:\n        /* \"#utility.yul\":950:957   */\n      0x00\n        /* \"#utility.yul\":990:998   */\n      0xffffff\n        /* \"#utility.yul\":983:988   */\n      dup3\n        /* \"#utility.yul\":979:999   */\n      and\n        /* \"#utility.yul\":968:999   */\n      swap1\n      pop\n        /* \"#utility.yul\":914:1005   */\n      swap2\n      swap1\n      pop\n      jump\t// out\n        /* \"#utility.yul\":1011:1126   */\n    tag_67:\n        /* \"#utility.yul\":1096:1119   */\n      tag_95\n        /* \"#utility.yul\":1113:1118   */\n      dup2\n        /* \"#utility.yul\":1096:1119   */\n      tag_66\n      jump\t// in\n    tag_95:\n        /* \"#utility.yul\":1091:1094   */\n      dup3\n        /* \"#utility.yul\":1084:1120   */\n      mstore\n        /* \"#utility.yul\":1011:1126   */\n      pop\n      pop\n      jump\t// out\n        /* \"#utility.yul\":1132:1350   */\n    tag_25:\n        /* \"#utility.yul\":1223:1227   */\n      0x00\n        /* \"#utility.yul\":1261:1263   */\n      0x20\n        /* \"#utility.yul\":1250:1259   */\n      dup3\n        /* \"#utility.yul\":1246:1264   */\n      add\n        /* \"#utility.yul\":1238:1264   */\n      swap1\n      pop\n        /* \"#utility.yul\":1274:1343   */\n      tag_97\n        /* \"#utility.yul\":1340:1341   */\n      0x00\n        /* \"#utility.yul\":1329:1338   */\n      dup4\n        /* \"#utility.yul\":1325:1342   */\n      add\n        /* \"#utility.yul\":1316:1322   */\n      dup5\n        /* \"#utility.yul\":1274:1343   */\n      tag_67\n      jump\t// in\n    tag_97:\n        /* \"#utility.yul\":1132:1350   */\n      swap3\n      swap2\n      pop\n      pop\n      jump\t// out\n        /* \"#utility.yul\":1437:1554   */\n    tag_69:\n        /* \"#utility.yul\":1546:1547   */\n      0x00\n        /* \"#utility.yul\":1543:1544   */\n      dup1\n        /* \"#utility.yul\":1536:1548   */\n      revert\n        /* \"#utility.yul\":1683:1809   */\n    tag_71:\n        /* \"#utility.yul\":1720:1727   */\n      0x00\n        /* \"#utility.yul\":1760:1802   */\n      0xffffffffffffffffffffffffffffffffffffffff\n        /* \"#utility.yul\":1753:1758   */\n      dup3\n        /* \"#utility.yul\":1749:1803   */\n      and\n        /* \"#utility.yul\":1738:1803   */\n      swap1\n      pop\n        /* \"#utility.yul\":1683:1809   */\n      swap2\n      swap1\n      pop\n      jump\t// out\n        /* \"#utility.yul\":1815:1911   */\n    tag_72:\n        /* \"#utility.yul\":1852:1859   */\n      0x00\n        /* \"#utility.yul\":1881:1905   */\n      tag_103\n        /* \"#utility.yul\":1899:1904   */\n      dup3\n        /* \"#utility.yul\":1881:1905   */\n      tag_71\n      jump\t// in\n    tag_103:\n        /* \"#utility.yul\":1870:1905   */\n      swap1\n      pop\n        /* \"#utility.yul\":1815:1911   */\n      swap2\n      swap1\n      pop\n      jump\t// out\n        /* \"#utility.yul\":1917:2039   */\n    tag_73:\n        /* \"#utility.yul\":1990:2014   */\n      tag_105\n        /* \"#utility.yul\":2008:2013   */\n      dup2\n        /* \"#utility.yul\":1990:2014   */\n      tag_72\n      jump\t// in\n    tag_105:\n        /* \"#utility.yul\":1983:1988   */\n      dup2\n        /* \"#utility.yul\":1980:2015   */\n      eq\n        /* \"#utility.yul\":1970:2033   */\n      tag_106\n      jumpi\n        /* \"#utility.yul\":2029:2030   */\n      0x00\n        /* \"#utility.yul\":2026:2027   */\n      dup1\n        /* \"#utility.yul\":2019:2031   */\n      revert\n        /* \"#utility.yul\":1970:2033   */\n    tag_106:\n        /* \"#utility.yul\":1917:2039   */\n      pop\n      jump\t// out\n        /* \"#utility.yul\":2045:2188   */\n    tag_74:\n        /* \"#utility.yul\":2102:2107   */\n      0x00\n        /* \"#utility.yul\":2133:2139   */\n      dup2\n        /* \"#utility.yul\":2127:2140   */\n      mload\n        /* \"#utility.yul\":2118:2140   */\n      swap1\n      pop\n        /* \"#utility.yul\":2149:2182   */\n      tag_108\n        /* \"#utility.yul\":2176:2181   */\n      dup2\n        /* \"#utility.yul\":2149:2182   */\n      tag_73\n      jump\t// in\n    tag_108:\n        /* \"#utility.yul\":2045:2188   */\n      swap3\n      swap2\n      pop\n      pop\n      jump\t// out\n        /* \"#utility.yul\":2194:2545   */\n    tag_43:\n        /* \"#utility.yul\":2264:2270   */\n      0x00\n        /* \"#utility.yul\":2313:2315   */\n      0x20\n        /* \"#utility.yul\":2301:2310   */\n      dup3\n        /* \"#utility.yul\":2292:2299   */\n      dup5\n        /* \"#utility.yul\":2288:2311   */\n      sub\n        /* \"#utility.yul\":2284:2316   */\n      slt\n        /* \"#utility.yul\":2281:2400   */\n      iszero\n      tag_110\n      jumpi\n        /* \"#utility.yul\":2319:2398   */\n      tag_111\n      tag_69\n      jump\t// in\n    tag_111:\n        /* \"#utility.yul\":2281:2400   */\n    tag_110:\n        /* \"#utility.yul\":2439:2440   */\n      0x00\n        /* \"#utility.yul\":2464:2528   */\n      tag_112\n        /* \"#utility.yul\":2520:2527   */\n      dup5\n        /* \"#utility.yul\":2511:2517   */\n      dup3\n        /* \"#utility.yul\":2500:2509   */\n      dup6\n        /* \"#utility.yul\":2496:2518   */\n      add\n        /* \"#utility.yul\":2464:2528   */\n      tag_74\n      jump\t// in\n    tag_112:\n        /* \"#utility.yul\":2454:2528   */\n      swap2\n      pop\n        /* \"#utility.yul\":2410:2538   */\n      pop\n        /* \"#utility.yul\":2194:2545   */\n      swap3\n      swap2\n      pop\n      pop\n      jump\t// out\n        /* \"#utility.yul\":2551:2673   */\n    tag_75:\n        /* \"#utility.yul\":2624:2648   */\n      tag_114\n        /* \"#utility.yul\":2642:2647   */\n      dup2\n        /* \"#utility.yul\":2624:2648   */\n      tag_64\n      jump\t// in\n    tag_114:\n        /* \"#utility.yul\":2617:2622   */\n      dup2\n        /* \"#utility.yul\":2614:2649   */\n      eq\n        /* \"#utility.yul\":2604:2667   */\n      tag_115\n      jumpi\n        /* \"#utility.yul\":2663:2664   */\n      0x00\n        /* \"#utility.yul\":2660:2661   */\n      dup1\n        /* \"#utility.yul\":2653:2665   */\n      revert\n        /* \"#utility.yul\":2604:2667   */\n    tag_115:\n        /* \"#utility.yul\":2551:2673   */\n      pop\n      jump\t// out\n        /* \"#utility.yul\":2679:2822   */\n    tag_76:\n        /* \"#utility.yul\":2736:2741   */\n      0x00\n        /* \"#utility.yul\":2767:2773   */\n      dup2\n        /* \"#utility.yul\":2761:2774   */\n      mload\n        /* \"#utility.yul\":2752:2774   */\n      swap1\n      pop\n        /* \"#utility.yul\":2783:2816   */\n      tag_117\n        /* \"#utility.yul\":2810:2815   */\n      dup2\n        /* \"#utility.yul\":2783:2816   */\n      tag_75\n      jump\t// in\n    tag_117:\n        /* \"#utility.yul\":2679:2822   */\n      swap3\n      swap2\n      pop\n      pop\n      jump\t// out\n        /* \"#utility.yul\":2828:3179   */\n    tag_47:\n        /* \"#utility.yul\":2898:2904   */\n      0x00\n        /* \"#utility.yul\":2947:2949   */\n      0x20\n        /* \"#utility.yul\":2935:2944   */\n      dup3\n        /* \"#utility.yul\":2926:2933   */\n      dup5\n        /* \"#utility.yul\":2922:2945   */\n      sub\n        /* \"#utility.yul\":2918:2950   */\n      slt\n        /* \"#utility.yul\":2915:3034   */\n      iszero\n      tag_119\n      jumpi\n        /* \"#utility.yul\":2953:3032   */\n      tag_120\n      tag_69\n      jump\t// in\n    tag_120:\n        /* \"#utility.yul\":2915:3034   */\n    tag_119:\n        /* \"#utility.yul\":3073:3074   */\n      0x00\n        /* \"#utility.yul\":3098:3162   */\n      tag_121\n        /* \"#utility.yul\":3154:3161   */\n      dup5\n        /* \"#utility.yul\":3145:3151   */\n      dup3\n        /* \"#utility.yul\":3134:3143   */\n      dup6\n        /* \"#utility.yul\":3130:3152   */\n      add\n        /* \"#utility.yul\":3098:3162   */\n      tag_76\n      jump\t// in\n    tag_121:\n        /* \"#utility.yul\":3088:3162   */\n      swap2\n      pop\n        /* \"#utility.yul\":3044:3172   */\n      pop\n        /* \"#utility.yul\":2828:3179   */\n      swap3\n      swap2\n      pop\n      pop\n      jump\t// out\n        /* \"#utility.yul\":3185:3365   */\n    tag_77:\n        /* \"#utility.yul\":3233:3310   */\n      0x4e487b7100000000000000000000000000000000000000000000000000000000\n        /* \"#utility.yul\":3230:3231   */\n      0x00\n        /* \"#utility.yul\":3223:3311   */\n      mstore\n        /* \"#utility.yul\":3330:3334   */\n      0x11\n        /* \"#utility.yul\":3327:3328   */\n      0x04\n        /* \"#utility.yul\":3320:3335   */\n      mstore\n        /* \"#utility.yul\":3354:3358   */\n      0x24\n        /* \"#utility.yul\":3351:3352   */\n      0x00\n        /* \"#utility.yul\":3344:3359   */\n      revert\n        /* \"#utility.yul\":3371:3781   */\n    tag_51:\n        /* \"#utility.yul\":3411:3418   */\n      0x00\n        /* \"#utility.yul\":3434:3454   */\n      tag_124\n        /* \"#utility.yul\":3452:3453   */\n      dup3\n        /* \"#utility.yul\":3434:3454   */\n      tag_64\n      jump\t// in\n    tag_124:\n        /* \"#utility.yul\":3429:3454   */\n      swap2\n      pop\n        /* \"#utility.yul\":3468:3488   */\n      tag_125\n        /* \"#utility.yul\":3486:3487   */\n      dup4\n        /* \"#utility.yul\":3468:3488   */\n      tag_64\n      jump\t// in\n    tag_125:\n        /* \"#utility.yul\":3463:3488   */\n      swap3\n      pop\n        /* \"#utility.yul\":3523:3524   */\n      dup3\n        /* \"#utility.yul\":3520:3521   */\n      dup3\n        /* \"#utility.yul\":3516:3525   */\n      mul\n        /* \"#utility.yul\":3545:3575   */\n      tag_126\n        /* \"#utility.yul\":3563:3574   */\n      dup2\n        /* \"#utility.yul\":3545:3575   */\n      tag_64\n      jump\t// in\n    tag_126:\n        /* \"#utility.yul\":3534:3575   */\n      swap2\n      pop\n        /* \"#utility.yul\":3724:3725   */\n      dup3\n        /* \"#utility.yul\":3715:3722   */\n      dup3\n        /* \"#utility.yul\":3711:3726   */\n      div\n        /* \"#utility.yul\":3708:3709   */\n      dup5\n        /* \"#utility.yul\":3705:3727   */\n      eq\n        /* \"#utility.yul\":3685:3686   */\n      dup4\n        /* \"#utility.yul\":3678:3687   */\n      iszero\n        /* \"#utility.yul\":3658:3741   */\n      or\n        /* \"#utility.yul\":3635:3774   */\n      tag_127\n      jumpi\n        /* \"#utility.yul\":3754:3772   */\n      tag_128\n      tag_77\n      jump\t// in\n    tag_128:\n        /* \"#utility.yul\":3635:3774   */\n    tag_127:\n        /* \"#utility.yul\":3419:3781   */\n      pop\n        /* \"#utility.yul\":3371:3781   */\n      swap3\n      swap2\n      pop\n      pop\n      jump\t// out\n        /* \"#utility.yul\":3787:3967   */\n    tag_78:\n        /* \"#utility.yul\":3835:3912   */\n      0x4e487b7100000000000000000000000000000000000000000000000000000000\n        /* \"#utility.yul\":3832:3833   */\n      0x00\n        /* \"#utility.yul\":3825:3913   */\n      mstore\n        /* \"#utility.yul\":3932:3936   */\n      0x12\n        /* \"#utility.yul\":3929:3930   */\n      0x04\n        /* \"#utility.yul\":3922:3937   */\n      mstore\n        /* \"#utility.yul\":3956:3960   */\n      0x24\n        /* \"#utility.yul\":3953:3954   */\n      0x00\n        /* \"#utility.yul\":3946:3961   */\n      revert\n        /* \"#utility.yul\":3973:4158   */\n    tag_53:\n        /* \"#utility.yul\":4013:4014   */\n      0x00\n        /* \"#utility.yul\":4030:4050   */\n      tag_131\n        /* \"#utility.yul\":4048:4049   */\n      dup3\n        /* \"#utility.yul\":4030:4050   */\n      tag_64\n      jump\t// in\n    tag_131:\n        /* \"#utility.yul\":4025:4050   */\n      swap2\n      pop\n        /* \"#utility.yul\":4064:4084   */\n      tag_132\n        /* \"#utility.yul\":4082:4083   */\n      dup4\n        /* \"#utility.yul\":4064:4084   */\n      tag_64\n      jump\t// in\n    tag_132:\n        /* \"#utility.yul\":4059:4084   */\n      swap3\n      pop\n        /* \"#utility.yul\":4103:4104   */\n      dup3\n        /* \"#utility.yul\":4093:4128   */\n      tag_133\n      jumpi\n        /* \"#utility.yul\":4108:4126   */\n      tag_134\n      tag_78\n      jump\t// in\n    tag_134:\n        /* \"#utility.yul\":4093:4128   */\n    tag_133:\n        /* \"#utility.yul\":4150:4151   */\n      dup3\n        /* \"#utility.yul\":4147:4148   */\n      dup3\n        /* \"#utility.yul\":4143:4152   */\n      div\n        /* \"#utility.yul\":4138:4152   */\n      swap1\n      pop\n        /* \"#utility.yul\":3973:4158   */\n      swap3\n      swap2\n      pop\n      pop\n      jump\t// out\n        /* \"#utility.yul\":4164:4224   */\n    tag_79:\n        /* \"#utility.yul\":4192:4195   */\n      0x00\n        /* \"#utility.yul\":4213:4218   */\n      dup2\n        /* \"#utility.yul\":4206:4218   */\n      swap1\n      pop\n        /* \"#utility.yul\":4164:4224   */\n      swap2\n      swap1\n      pop\n      jump\t// out\n        /* \"#utility.yul\":4230:4372   */\n    tag_80:\n        /* \"#utility.yul\":4280:4289   */\n      0x00\n        /* \"#utility.yul\":4313:4366   */\n      tag_137\n        /* \"#utility.yul\":4331:4365   */\n      tag_138\n        /* \"#utility.yul\":4340:4364   */\n      tag_139\n        /* \"#utility.yul\":4358:4363   */\n      dup5\n        /* \"#utility.yul\":4340:4364   */\n      tag_62\n      jump\t// in\n    tag_139:\n        /* \"#utility.yul\":4331:4365   */\n      tag_79\n      jump\t// in\n    tag_138:\n        /* \"#utility.yul\":4313:4366   */\n      tag_64\n      jump\t// in\n    tag_137:\n        /* \"#utility.yul\":4300:4366   */\n      swap1\n      pop\n        /* \"#utility.yul\":4230:4372   */\n      swap2\n      swap1\n      pop\n      jump\t// out\n        /* \"#utility.yul\":4378:4509   */\n    tag_81:\n        /* \"#utility.yul\":4465:4502   */\n      tag_141\n        /* \"#utility.yul\":4496:4501   */\n      dup2\n        /* \"#utility.yul\":4465:4502   */\n      tag_80\n      jump\t// in\n    tag_141:\n        /* \"#utility.yul\":4460:4463   */\n      dup3\n        /* \"#utility.yul\":4453:4503   */\n      mstore\n        /* \"#utility.yul\":4378:4509   */\n      pop\n      pop\n      jump\t// out\n        /* \"#utility.yul\":4515:5179   */\n    tag_58:\n        /* \"#utility.yul\":4720:4724   */\n      0x00\n        /* \"#utility.yul\":4758:4761   */\n      0xa0\n        /* \"#utility.yul\":4747:4756   */\n      dup3\n        /* \"#utility.yul\":4743:4762   */\n      add\n        /* \"#utility.yul\":4735:4762   */\n      swap1\n      pop\n        /* \"#utility.yul\":4772:4843   */\n      tag_143\n        /* \"#utility.yul\":4840:4841   */\n      0x00\n        /* \"#utility.yul\":4829:4838   */\n      dup4\n        /* \"#utility.yul\":4825:4842   */\n      add\n        /* \"#utility.yul\":4816:4822   */\n      dup9\n        /* \"#utility.yul\":4772:4843   */\n      tag_81\n      jump\t// in\n    tag_143:\n        /* \"#utility.yul\":4853:4925   */\n      tag_144\n        /* \"#utility.yul\":4921:4923   */\n      0x20\n        /* \"#utility.yul\":4910:4919   */\n      dup4\n        /* \"#utility.yul\":4906:4924   */\n      add\n        /* \"#utility.yul\":4897:4903   */\n      dup8\n        /* \"#utility.yul\":4853:4925   */\n      tag_81\n      jump\t// in\n    tag_144:\n        /* \"#utility.yul\":4935:5007   */\n      tag_145\n        /* \"#utility.yul\":5003:5005   */\n      0x40\n        /* \"#utility.yul\":4992:5001   */\n      dup4\n        /* \"#utility.yul\":4988:5006   */\n      add\n        /* \"#utility.yul\":4979:4985   */\n      dup7\n        /* \"#utility.yul\":4935:5007   */\n      tag_81\n      jump\t// in\n    tag_145:\n        /* \"#utility.yul\":5017:5089   */\n      tag_146\n        /* \"#utility.yul\":5085:5087   */\n      0x60\n        /* \"#utility.yul\":5074:5083   */\n      dup4\n        /* \"#utility.yul\":5070:5088   */\n      add\n        /* \"#utility.yul\":5061:5067   */\n      dup6\n        /* \"#utility.yul\":5017:5089   */\n      tag_65\n      jump\t// in\n    tag_146:\n        /* \"#utility.yul\":5099:5172   */\n      tag_147\n        /* \"#utility.yul\":5167:5170   */\n      0x80\n        /* \"#utility.yul\":5156:5165   */\n      dup4\n        /* \"#utility.yul\":5152:5171   */\n      add\n        /* \"#utility.yul\":5143:5149   */\n      dup5\n        /* \"#utility.yul\":5099:5172   */\n      tag_65\n      jump\t// in\n    tag_147:\n        /* \"#utility.yul\":4515:5179   */\n      swap7\n      swap6\n      pop\n      pop\n      pop\n      pop\n      pop\n      pop\n      jump\t// out\n\n    auxdata: 0xa2646970667358221220ecfa41e8acfa483adf8a8cfc68403a5f05e1d4d8f6d31d5baeafa0981ac1717f64736f6c63430008150033\n}\n",
				"bytecode": {
					"linkReferences": {},
					"object": "608060405261271060015f6101000a8154816dffffffffffffffffffffffffffff02191690836dffffffffffffffffffffffffffff16021790555061bb806002600e6101000a81548162ffffff021916908362ffffff160217905550348015610066575f80fd5b506040516108fb3803806108fb8339818101604052810190610088919061012b565b805f806101000a81548173ffffffffffffffffffffffffffffffffffffffff021916908373ffffffffffffffffffffffffffffffffffffffff16021790555050610156565b5f80fd5b5f73ffffffffffffffffffffffffffffffffffffffff82169050919050565b5f6100fa826100d1565b9050919050565b61010a816100f0565b8114610114575f80fd5b50565b5f8151905061012581610101565b92915050565b5f602082840312156101405761013f6100cd565b5b5f61014d84828501610117565b91505092915050565b610798806101635f395ff3fe608060405234801561000f575f80fd5b506004361061007b575f3560e01c8063a8a41a6811610059578063a8a41a68146100d9578063aa5da046146100f7578063b345248714610101578063b8caedc41461011f5761007b565b8063017e7d8f1461007f57806344936b101461009d5780637a2dbb6f146100bb575b5f80fd5b61008761013d565b60405161009491906104af565b60405180910390f35b6100a561015c565b6040516100b291906104e0565b60405180910390f35b6100c3610196565b6040516100d091906104af565b60405180910390f35b6100e16101b5565b6040516100ee9190610516565b60405180910390f35b6100ff6101ca565b005b6101096101d4565b60405161011691906104e0565b60405180910390f35b6101276102dc565b60405161013491906104af565b60405180910390f35b60025f9054906101000a90046dffffffffffffffffffffffffffff1681565b5f6101656102fc565b60025f9054906101000a90046dffffffffffffffffffffffffffff166dffffffffffffffffffffffffffff16905090565b60015f9054906101000a90046dffffffffffffffffffffffffffff1681565b6002600e9054906101000a900462ffffff1681565b6101d26102fc565b565b5f805f8054906101000a900473ffffffffffffffffffffffffffffffffffffffff1673ffffffffffffffffffffffffffffffffffffffff1663e67cdafd6040518163ffffffff1660e01b8152600401602060405180830381865afa15801561023e573d5f803e3d5ffd5b505050506040513d601f19601f82011682018060405250810190610262919061058d565b90505f8173ffffffffffffffffffffffffffffffffffffffff1663ed3b657a6040518163ffffffff1660e01b8152600401602060405180830381865afa1580156102ae573d5f803e3d5ffd5b505050506040513d601f19601f820116820180604052508101906102d291906105e2565b9050809250505090565b6001600e9054906101000a90046dffffffffffffffffffffffffffff1681565b5f6103056101d4565b90505f6002600e9054906101000a900462ffffff1662ffffff166127108361032d919061063a565b61033791906106a8565b90505f61036f8260015f9054906101000a90046dffffffffffffffffffffffffffff166dffffffffffffffffffffffffffff1661046f565b90506103a68260015f9054906101000a90046dffffffffffffffffffffffffffff166dffffffffffffffffffffffffffff1661046f565b60025f6101000a8154816dffffffffffffffffffffffffffff02191690836dffffffffffffffffffffffffffff1602179055507f6e87c25e322c4ad68faf7916d0788baaf714d806fe887a84ee4b84ad9666f6866001600e9054906101000a90046dffffffffffffffffffffffffffff1660025f9054906101000a90046dffffffffffffffffffffffffffff1660015f9054906101000a90046dffffffffffffffffffffffffffff168587604051610462959493929190610711565b60405180910390a1505050565b5f81831161047d578161047f565b825b905092915050565b5f6dffffffffffffffffffffffffffff82169050919050565b6104a981610487565b82525050565b5f6020820190506104c25f8301846104a0565b92915050565b5f819050919050565b6104da816104c8565b82525050565b5f6020820190506104f35f8301846104d1565b92915050565b5f62ffffff82169050919050565b610510816104f9565b82525050565b5f6020820190506105295f830184610507565b92915050565b5f80fd5b5f73ffffffffffffffffffffffffffffffffffffffff82169050919050565b5f61055c82610533565b9050919050565b61056c81610552565b8114610576575f80fd5b50565b5f8151905061058781610563565b92915050565b5f602082840312156105a2576105a161052f565b5b5f6105af84828501610579565b91505092915050565b6105c1816104c8565b81146105cb575f80fd5b50565b5f815190506105dc816105b8565b92915050565b5f602082840312156105f7576105f661052f565b5b5f610604848285016105ce565b91505092915050565b7f4e487b71000000000000000000000000000000000000000000000000000000005f52601160045260245ffd5b5f610644826104c8565b915061064f836104c8565b925082820261065d816104c8565b915082820484148315176106745761067361060d565b5b5092915050565b7f4e487b71000000000000000000000000000000000000000000000000000000005f52601260045260245ffd5b5f6106b2826104c8565b91506106bd836104c8565b9250826106cd576106cc61067b565b5b828204905092915050565b5f819050919050565b5f6106fb6106f66106f184610487565b6106d8565b6104c8565b9050919050565b61070b816106e1565b82525050565b5f60a0820190506107245f830188610702565b6107316020830187610702565b61073e6040830186610702565b61074b60608301856104d1565b61075860808301846104d1565b969550505050505056fea2646970667358221220ecfa41e8acfa483adf8a8cfc68403a5f05e1d4d8f6d31d5baeafa0981ac1717f64736f6c63430008150033",
					"opcodes": "PUSH1 0x80 PUSH1 0x40 MSTORE PUSH2 0x2710 PUSH1 0x1 PUSH0 PUSH2 0x100 EXP DUP2 SLOAD DUP2 PUSH14 0xFFFFFFFFFFFFFFFFFFFFFFFFFFFF MUL NOT AND SWAP1 DUP4 PUSH14 0xFFFFFFFFFFFFFFFFFFFFFFFFFFFF AND MUL OR SWAP1 SSTORE POP PUSH2 0xBB80 PUSH1 0x2 PUSH1 0xE PUSH2 0x100 EXP DUP2 SLOAD DUP2 PUSH3 0xFFFFFF MUL NOT AND SWAP1 DUP4 PUSH3 0xFFFFFF AND MUL OR SWAP1 SSTORE POP CALLVALUE DUP1 ISZERO PUSH2 0x66 JUMPI PUSH0 DUP1 REVERT JUMPDEST POP PUSH1 0x40 MLOAD PUSH2 0x8FB CODESIZE SUB DUP1 PUSH2 0x8FB DUP4 CODECOPY DUP2 DUP2 ADD PUSH1 0x40 MSTORE DUP2 ADD SWAP1 PUSH2 0x88 SWAP2 SWAP1 PUSH2 0x12B JUMP JUMPDEST DUP1 PUSH0 DUP1 PUSH2 0x100 EXP DUP2 SLOAD DUP2 PUSH20 0xFFFFFFFFFFFFFFFFFFFFFFFFFFFFFFFFFFFFFFFF MUL NOT AND SWAP1 DUP4 PUSH20 0xFFFFFFFFFFFFFFFFFFFFFFFFFFFFFFFFFFFFFFFF AND MUL OR SWAP1 SSTORE POP POP PUSH2 0x156 JUMP JUMPDEST PUSH0 DUP1 REVERT JUMPDEST PUSH0 PUSH20 0xFFFFFFFFFFFFFFFFFFFFFFFFFFFFFFFFFFFFFFFF DUP3 AND SWAP1 POP SWAP2 SWAP1 POP JUMP JUMPDEST PUSH0 PUSH2 0xFA DUP3 PUSH2 0xD1 JUMP JUMPDEST SWAP1 POP SWAP2 SWAP1 POP JUMP JUMPDEST PUSH2 0x10A DUP2 PUSH2 0xF0 JUMP JUMPDEST DUP2 EQ PUSH2 0x114 JUMPI PUSH0 DUP1 REVERT JUMPDEST POP JUMP JUMPDEST PUSH0 DUP2 MLOAD SWAP1 POP PUSH2 0x125 DUP2 PUSH2 0x101 JUMP JUMPDEST SWAP3 SWAP2 POP POP JUMP JUMPDEST PUSH0 PUSH1 0x20 DUP3 DUP5 SUB SLT ISZERO PUSH2 0x140 JUMPI PUSH2 0x13F PUSH2 0xCD JUMP JUMPDEST JUMPDEST PUSH0 PUSH2 0x14D DUP5 DUP3 DUP6 ADD PUSH2 0x117 JUMP JUMPDEST SWAP2 POP POP SWAP3 SWAP2 POP POP JUMP JUMPDEST PUSH2 0x798 DUP1 PUSH2 0x163 PUSH0 CODECOPY PUSH0 RETURN INVALID PUSH1 0x80 PUSH1 0x40 MSTORE CALLVALUE DUP1 ISZERO PUSH2 0xF JUMPI PUSH0 DUP1 REVERT JUMPDEST POP PUSH1 0x4 CALLDATASIZE LT PUSH2 0x7B JUMPI PUSH0 CALLDATALOAD PUSH1 0xE0 SHR DUP1 PUSH4 0xA8A41A68 GT PUSH2 0x59 JUMPI DUP1 PUSH4 0xA8A41A68 EQ PUSH2 0xD9 JUMPI DUP1 PUSH4 0xAA5DA046 EQ PUSH2 0xF7 JUMPI DUP1 PUSH4 0xB3452487 EQ PUSH2 0x101 JUMPI DUP1 PUSH4 0xB8CAEDC4 EQ PUSH2 0x11F JUMPI PUSH2 0x7B JUMP JUMPDEST DUP1 PUSH4 0x17E7D8F EQ PUSH2 0x7F JUMPI DUP1 PUSH4 0x44936B10 EQ PUSH2 0x9D JUMPI DUP1 PUSH4 0x7A2DBB6F EQ PUSH2 0xBB JUMPI JUMPDEST PUSH0 DUP1 REVERT JUMPDEST PUSH2 0x87 PUSH2 0x13D JUMP JUMPDEST PUSH1 0x40 MLOAD PUSH2 0x94 SWAP2 SWAP1 PUSH2 0x4AF JUMP JUMPDEST PUSH1 0x40 MLOAD DUP1 SWAP2 SUB SWAP1 RETURN JUMPDEST PUSH2 0xA5 PUSH2 0x15C JUMP JUMPDEST PUSH1 0x40 MLOAD PUSH2 0xB2 SWAP2 SWAP1 PUSH2 0x4E0 JUMP JUMPDEST PUSH1 0x40 MLOAD DUP1 SWAP2 SUB SWAP1 RETURN JUMPDEST PUSH2 0xC3 PUSH2 0x196 JUMP JUMPDEST PUSH1 0x40 MLOAD PUSH2 0xD0 SWAP2 SWAP1 PUSH2 0x4AF JUMP JUMPDEST PUSH1 0x40 MLOAD DUP1 SWAP2 SUB SWAP1 RETURN JUMPDEST PUSH2 0xE1 PUSH2 0x1B5 JUMP JUMPDEST PUSH1 0x40 MLOAD PUSH2 0xEE SWAP2 SWAP1 PUSH2 0x516 JUMP JUMPDEST PUSH1 0x40 MLOAD DUP1 SWAP2 SUB SWAP1 RETURN JUMPDEST PUSH2 0xFF PUSH2 0x1CA JUMP JUMPDEST STOP JUMPDEST PUSH2 0x109 PUSH2 0x1D4 JUMP JUMPDEST PUSH1 0x40 MLOAD PUSH2 0x116 SWAP2 SWAP1 PUSH2 0x4E0 JUMP JUMPDEST PUSH1 0x40 MLOAD DUP1 SWAP2 SUB SWAP1 RETURN JUMPDEST PUSH2 0x127 PUSH2 0x2DC JUMP JUMPDEST PUSH1 0x40 MLOAD PUSH2 0x134 SWAP2 SWAP1 PUSH2 0x4AF JUMP JUMPDEST PUSH1 0x40 MLOAD DUP1 SWAP2 SUB SWAP1 RETURN JUMPDEST PUSH1 0x2 PUSH0 SWAP1 SLOAD SWAP1 PUSH2 0x100 EXP SWAP1 DIV PUSH14 0xFFFFFFFFFFFFFFFFFFFFFFFFFFFF AND DUP2 JUMP JUMPDEST PUSH0 PUSH2 0x165 PUSH2 0x2FC JUMP JUMPDEST PUSH1 0x2 PUSH0 SWAP1 SLOAD SWAP1 PUSH2 0x100 EXP SWAP1 DIV PUSH14 0xFFFFFFFFFFFFFFFFFFFFFFFFFFFF AND PUSH14 0xFFFFFFFFFFFFFFFFFFFFFFFFFFFF AND SWAP1 POP SWAP1 JUMP JUMPDEST PUSH1 0x1 PUSH0 SWAP1 SLOAD SWAP1 PUSH2 0x100 EXP SWAP1 DIV PUSH14 0xFFFFFFFFFFFFFFFFFFFFFFFFFFFF AND DUP2 JUMP JUMPDEST PUSH1 0x2 PUSH1 0xE SWAP1 SLOAD SWAP1 PUSH2 0x100 EXP SWAP1 DIV PUSH3 0xFFFFFF AND DUP2 JUMP JUMPDEST PUSH2 0x1D2 PUSH2 0x2FC JUMP JUMPDEST JUMP JUMPDEST PUSH0 DUP1 PUSH0 DUP1 SLOAD SWAP1 PUSH2 0x100 EXP SWAP1 DIV PUSH20 0xFFFFFFFFFFFFFFFFFFFFFFFFFFFFFFFFFFFFFFFF AND PUSH20 0xFFFFFFFFFFFFFFFFFFFFFFFFFFFFFFFFFFFFFFFF AND PUSH4 0xE67CDAFD PUSH1 0x40 MLOAD DUP2 PUSH4 0xFFFFFFFF AND PUSH1 0xE0 SHL DUP2 MSTORE PUSH1 0x4 ADD PUSH1 0x20 PUSH1 0x40 MLOAD DUP1 DUP4 SUB DUP2 DUP7 GAS STATICCALL ISZERO DUP1 ISZERO PUSH2 0x23E JUMPI RETURNDATASIZE PUSH0 DUP1 RETURNDATACOPY RETURNDATASIZE PUSH0 REVERT JUMPDEST POP POP POP POP PUSH1 0x40 MLOAD RETURNDATASIZE PUSH1 0x1F NOT PUSH1 0x1F DUP3 ADD AND DUP3 ADD DUP1 PUSH1 0x40 MSTORE POP DUP2 ADD SWAP1 PUSH2 0x262 SWAP2 SWAP1 PUSH2 0x58D JUMP JUMPDEST SWAP1 POP PUSH0 DUP2 PUSH20 0xFFFFFFFFFFFFFFFFFFFFFFFFFFFFFFFFFFFFFFFF AND PUSH4 0xED3B657A PUSH1 0x40 MLOAD DUP2 PUSH4 0xFFFFFFFF AND PUSH1 0xE0 SHL DUP2 MSTORE PUSH1 0x4 ADD PUSH1 0x20 PUSH1 0x40 MLOAD DUP1 DUP4 SUB DUP2 DUP7 GAS STATICCALL ISZERO DUP1 ISZERO PUSH2 0x2AE JUMPI RETURNDATASIZE PUSH0 DUP1 RETURNDATACOPY RETURNDATASIZE PUSH0 REVERT JUMPDEST POP POP POP POP PUSH1 0x40 MLOAD RETURNDATASIZE PUSH1 0x1F NOT PUSH1 0x1F DUP3 ADD AND DUP3 ADD DUP1 PUSH1 0x40 MSTORE POP DUP2 ADD SWAP1 PUSH2 0x2D2 SWAP2 SWAP1 PUSH2 0x5E2 JUMP JUMPDEST SWAP1 POP DUP1 SWAP3 POP POP POP SWAP1 JUMP JUMPDEST PUSH1 0x1 PUSH1 0xE SWAP1 SLOAD SWAP1 PUSH2 0x100 EXP SWAP1 DIV PUSH14 0xFFFFFFFFFFFFFFFFFFFFFFFFFFFF AND DUP2 JUMP JUMPDEST PUSH0 PUSH2 0x305 PUSH2 0x1D4 JUMP JUMPDEST SWAP1 POP PUSH0 PUSH1 0x2 PUSH1 0xE SWAP1 SLOAD SWAP1 PUSH2 0x100 EXP SWAP1 DIV PUSH3 0xFFFFFF AND PUSH3 0xFFFFFF AND PUSH2 0x2710 DUP4 PUSH2 0x32D SWAP2 SWAP1 PUSH2 0x63A JUMP JUMPDEST PUSH2 0x337 SWAP2 SWAP1 PUSH2 0x6A8 JUMP JUMPDEST SWAP1 POP PUSH0 PUSH2 0x36F DUP3 PUSH1 0x1 PUSH0 SWAP1 SLOAD SWAP1 PUSH2 0x100 EXP SWAP1 DIV PUSH14 0xFFFFFFFFFFFFFFFFFFFFFFFFFFFF AND PUSH14 0xFFFFFFFFFFFFFFFFFFFFFFFFFFFF AND PUSH2 0x46F JUMP JUMPDEST SWAP1 POP PUSH2 0x3A6 DUP3 PUSH1 0x1 PUSH0 SWAP1 SLOAD SWAP1 PUSH2 0x100 EXP SWAP1 DIV PUSH14 0xFFFFFFFFFFFFFFFFFFFFFFFFFFFF AND PUSH14 0xFFFFFFFFFFFFFFFFFFFFFFFFFFFF AND PUSH2 0x46F JUMP JUMPDEST PUSH1 0x2 PUSH0 PUSH2 0x100 EXP DUP2 SLOAD DUP2 PUSH14 0xFFFFFFFFFFFFFFFFFFFFFFFFFFFF MUL NOT AND SWAP1 DUP4 PUSH14 0xFFFFFFFFFFFFFFFFFFFFFFFFFFFF AND MUL OR SWAP1 SSTORE POP PUSH32 0x6E87C25E322C4AD68FAF7916D0788BAAF714D806FE887A84EE4B84AD9666F686 PUSH1 0x1 PUSH1 0xE SWAP1 SLOAD SWAP1 PUSH2 0x100 EXP SWAP1 DIV PUSH14 0xFFFFFFFFFFFFFFFFFFFFFFFFFFFF AND PUSH1 0x2 PUSH0 SWAP1 SLOAD SWAP1 PUSH2 0x100 EXP SWAP1 DIV PUSH14 0xFFFFFFFFFFFFFFFFFFFFFFFFFFFF AND PUSH1 0x1 PUSH0 SWAP1 SLOAD SWAP1 PUSH2 0x100 EXP SWAP1 DIV PUSH14 0xFFFFFFFFFFFFFFFFFFFFFFFFFFFF AND DUP6 DUP8 PUSH1 0x40 MLOAD PUSH2 0x462 SWAP6 SWAP5 SWAP4 SWAP3 SWAP2 SWAP1 PUSH2 0x711 JUMP JUMPDEST PUSH1 0x40 MLOAD DUP1 SWAP2 SUB SWAP1 LOG1 POP POP POP JUMP JUMPDEST PUSH0 DUP2 DUP4 GT PUSH2 0x47D JUMPI DUP2 PUSH2 0x47F JUMP JUMPDEST DUP3 JUMPDEST SWAP1 POP SWAP3 SWAP2 POP POP JUMP JUMPDEST PUSH0 PUSH14 0xFFFFFFFFFFFFFFFFFFFFFFFFFFFF DUP3 AND SWAP1 POP SWAP2 SWAP1 POP JUMP JUMPDEST PUSH2 0x4A9 DUP2 PUSH2 0x487 JUMP JUMPDEST DUP3 MSTORE POP POP JUMP JUMPDEST PUSH0 PUSH1 0x20 DUP3 ADD SWAP1 POP PUSH2 0x4C2 PUSH0 DUP4 ADD DUP5 PUSH2 0x4A0 JUMP JUMPDEST SWAP3 SWAP2 POP POP JUMP JUMPDEST PUSH0 DUP2 SWAP1 POP SWAP2 SWAP1 POP JUMP JUMPDEST PUSH2 0x4DA DUP2 PUSH2 0x4C8 JUMP JUMPDEST DUP3 MSTORE POP POP JUMP JUMPDEST PUSH0 PUSH1 0x20 DUP3 ADD SWAP1 POP PUSH2 0x4F3 PUSH0 DUP4 ADD DUP5 PUSH2 0x4D1 JUMP JUMPDEST SWAP3 SWAP2 POP POP JUMP JUMPDEST PUSH0 PUSH3 0xFFFFFF DUP3 AND SWAP1 POP SWAP2 SWAP1 POP JUMP JUMPDEST PUSH2 0x510 DUP2 PUSH2 0x4F9 JUMP JUMPDEST DUP3 MSTORE POP POP JUMP JUMPDEST PUSH0 PUSH1 0x20 DUP3 ADD SWAP1 POP PUSH2 0x529 PUSH0 DUP4 ADD DUP5 PUSH2 0x507 JUMP JUMPDEST SWAP3 SWAP2 POP POP JUMP JUMPDEST PUSH0 DUP1 REVERT JUMPDEST PUSH0 PUSH20 0xFFFFFFFFFFFFFFFFFFFFFFFFFFFFFFFFFFFFFFFF DUP3 AND SWAP1 POP SWAP2 SWAP1 POP JUMP JUMPDEST PUSH0 PUSH2 0x55C DUP3 PUSH2 0x533 JUMP JUMPDEST SWAP1 POP SWAP2 SWAP1 POP JUMP JUMPDEST PUSH2 0x56C DUP2 PUSH2 0x552 JUMP JUMPDEST DUP2 EQ PUSH2 0x576 JUMPI PUSH0 DUP1 REVERT JUMPDEST POP JUMP JUMPDEST PUSH0 DUP2 MLOAD SWAP1 POP PUSH2 0x587 DUP2 PUSH2 0x563 JUMP JUMPDEST SWAP3 SWAP2 POP POP JUMP JUMPDEST PUSH0 PUSH1 0x20 DUP3 DUP5 SUB SLT ISZERO PUSH2 0x5A2 JUMPI PUSH2 0x5A1 PUSH2 0x52F JUMP JUMPDEST JUMPDEST PUSH0 PUSH2 0x5AF DUP5 DUP3 DUP6 ADD PUSH2 0x579 JUMP JUMPDEST SWAP2 POP POP SWAP3 SWAP2 POP POP JUMP JUMPDEST PUSH2 0x5C1 DUP2 PUSH2 0x4C8 JUMP JUMPDEST DUP2 EQ PUSH2 0x5CB JUMPI PUSH0 DUP1 REVERT JUMPDEST POP JUMP JUMPDEST PUSH0 DUP2 MLOAD SWAP1 POP PUSH2 0x5DC DUP2 PUSH2 0x5B8 JUMP JUMPDEST SWAP3 SWAP2 POP POP JUMP JUMPDEST PUSH0 PUSH1 0x20 DUP3 DUP5 SUB SLT ISZERO PUSH2 0x5F7 JUMPI PUSH2 0x5F6 PUSH2 0x52F JUMP JUMPDEST JUMPDEST PUSH0 PUSH2 0x604 DUP5 DUP3 DUP6 ADD PUSH2 0x5CE JUMP JUMPDEST SWAP2 POP POP SWAP3 SWAP2 POP POP JUMP JUMPDEST PUSH32 0x4E487B7100000000000000000000000000000000000000000000000000000000 PUSH0 MSTORE PUSH1 0x11 PUSH1 0x4 MSTORE PUSH1 0x24 PUSH0 REVERT JUMPDEST PUSH0 PUSH2 0x644 DUP3 PUSH2 0x4C8 JUMP JUMPDEST SWAP2 POP PUSH2 0x64F DUP4 PUSH2 0x4C8 JUMP JUMPDEST SWAP3 POP DUP3 DUP3 MUL PUSH2 0x65D DUP2 PUSH2 0x4C8 JUMP JUMPDEST SWAP2 POP DUP3 DUP3 DIV DUP5 EQ DUP4 ISZERO OR PUSH2 0x674 JUMPI PUSH2 0x673 PUSH2 0x60D JUMP JUMPDEST JUMPDEST POP SWAP3 SWAP2 POP POP JUMP JUMPDEST PUSH32 0x4E487B7100000000000000000000000000000000000000000000000000000000 PUSH0 MSTORE PUSH1 0x12 PUSH1 0x4 MSTORE PUSH1 0x24 PUSH0 REVERT JUMPDEST PUSH0 PUSH2 0x6B2 DUP3 PUSH2 0x4C8 JUMP JUMPDEST SWAP2 POP PUSH2 0x6BD DUP4 PUSH2 0x4C8 JUMP JUMPDEST SWAP3 POP DUP3 PUSH2 0x6CD JUMPI PUSH2 0x6CC PUSH2 0x67B JUMP JUMPDEST JUMPDEST DUP3 DUP3 DIV SWAP1 POP SWAP3 SWAP2 POP POP JUMP JUMPDEST PUSH0 DUP2 SWAP1 POP SWAP2 SWAP1 POP JUMP JUMPDEST PUSH0 PUSH2 0x6FB PUSH2 0x6F6 PUSH2 0x6F1 DUP5 PUSH2 0x487 JUMP JUMPDEST PUSH2 0x6D8 JUMP JUMPDEST PUSH2 0x4C8 JUMP JUMPDEST SWAP1 POP SWAP2 SWAP1 POP JUMP JUMPDEST PUSH2 0x70B DUP2 PUSH2 0x6E1 JUMP JUMPDEST DUP3 MSTORE POP POP JUMP JUMPDEST PUSH0 PUSH1 0xA0 DUP3 ADD SWAP1 POP PUSH2 0x724 PUSH0 DUP4 ADD DUP9 PUSH2 0x702 JUMP JUMPDEST PUSH2 0x731 PUSH1 0x20 DUP4 ADD DUP8 PUSH2 0x702 JUMP JUMPDEST PUSH2 0x73E PUSH1 0x40 DUP4 ADD DUP7 PUSH2 0x702 JUMP JUMPDEST PUSH2 0x74B PUSH1 0x60 DUP4 ADD DUP6 PUSH2 0x4D1 JUMP JUMPDEST PUSH2 0x758 PUSH1 0x80 DUP4 ADD DUP5 PUSH2 0x4D1 JUMP JUMPDEST SWAP7 SWAP6 POP POP POP POP POP POP JUMP INVALID LOG2 PUSH5 0x6970667358 0x22 SLT KECCAK256 0xEC STATICCALL COINBASE 0xE8 0xAC STATICCALL BASEFEE GASPRICE 0xDF DUP11 DUP13 0xFC PUSH9 0x403A5F05E1D4D8F6D3 SAR JUMPDEST 0xAE 0xAF LOG0 SWAP9 BYTE 0xC1 PUSH18 0x7F64736F6C63430008150033000000000000 "
				},
				"gasEstimates": {
					"creation": {
						"codeDepositCost": "388800",
						"executionCost": "infinite",
						"totalCost": "infinite"
					},
					"external": {
						"desiredMCR()": "2467",
						"gearingFactor()": "2517",
						"getAllSumAssurance()": "infinite",
						"getMCR()": "infinite",
						"mcr()": "2583",
						"mcrFloor()": "2511",
						"updateMCRInternal()": "infinite"
					},
					"internal": {
						"_updateMCR()": "infinite"
					}
				},
				"methodIdentifiers": {
					"desiredMCR()": "017e7d8f",
					"gearingFactor()": "a8a41a68",
					"getAllSumAssurance()": "b3452487",
					"getMCR()": "44936b10",
					"mcr()": "b8caedc4",
					"mcrFloor()": "7a2dbb6f",
					"updateMCRInternal()": "aa5da046"
				}
			},
			"storageLayout": {
				"storage": [
					{
						"astId": 96,
						"contract": "contracts/capital/MCR.sol:MCR",
						"label": "master",
						"offset": 0,
						"slot": "0",
						"type": "t_contract(Master)82"
					},
					{
						"astId": 99,
						"contract": "contracts/capital/MCR.sol:MCR",
						"label": "mcrFloor",
						"offset": 0,
						"slot": "1",
						"type": "t_uint112"
					},
					{
						"astId": 101,
						"contract": "contracts/capital/MCR.sol:MCR",
						"label": "mcr",
						"offset": 14,
						"slot": "1",
						"type": "t_uint112"
					},
					{
						"astId": 103,
						"contract": "contracts/capital/MCR.sol:MCR",
						"label": "desiredMCR",
						"offset": 0,
						"slot": "2",
						"type": "t_uint112"
					},
					{
						"astId": 106,
						"contract": "contracts/capital/MCR.sol:MCR",
						"label": "gearingFactor",
						"offset": 14,
						"slot": "2",
						"type": "t_uint24"
					}
				],
				"types": {
					"t_contract(Master)82": {
						"encoding": "inplace",
						"label": "contract Master",
						"numberOfBytes": "20"
					},
					"t_uint112": {
						"encoding": "inplace",
						"label": "uint112",
						"numberOfBytes": "14"
					},
					"t_uint24": {
						"encoding": "inplace",
						"label": "uint24",
						"numberOfBytes": "3"
					}
				}
			},
			"userdoc": {
				"kind": "user",
				"methods": {},
				"version": 1
			}
		}
	}
}