{
	"contracts/capital/MCR.sol": {
		"MCR": {
			"abi": [
				{
					"inputs": [
						{
							"internalType": "address",
							"name": "masterAddress",
							"type": "address"
						}
					],
					"stateMutability": "nonpayable",
					"type": "constructor"
				},
				{
					"anonymous": false,
					"inputs": [
						{
							"indexed": false,
							"internalType": "uint256",
							"name": "mcr",
							"type": "uint256"
						},
						{
							"indexed": false,
							"internalType": "uint256",
							"name": "desiredMCR",
							"type": "uint256"
						},
						{
							"indexed": false,
							"internalType": "uint256",
							"name": "mcrFloor",
							"type": "uint256"
						},
						{
							"indexed": false,
							"internalType": "uint256",
							"name": "mcrETHWithGear",
							"type": "uint256"
						},
						{
							"indexed": false,
							"internalType": "uint256",
							"name": "totalSumAssured",
							"type": "uint256"
						}
					],
					"name": "MCRUpdated",
					"type": "event"
				},
				{
					"inputs": [],
					"name": "desiredMCR",
					"outputs": [
						{
							"internalType": "uint112",
							"name": "",
							"type": "uint112"
						}
					],
					"stateMutability": "view",
					"type": "function"
				},
				{
					"inputs": [],
					"name": "gearingFactor",
					"outputs": [
						{
							"internalType": "uint24",
							"name": "",
							"type": "uint24"
						}
					],
					"stateMutability": "view",
					"type": "function"
				},
				{
					"inputs": [],
					"name": "getAllSumAssurance",
					"outputs": [
						{
							"internalType": "uint256",
							"name": "",
							"type": "uint256"
						}
					],
					"stateMutability": "view",
					"type": "function"
				},
				{
					"inputs": [],
					"name": "getMCR",
					"outputs": [
						{
							"internalType": "uint256",
							"name": "",
							"type": "uint256"
						}
					],
					"stateMutability": "view",
					"type": "function"
				},
				{
					"inputs": [],
					"name": "mcr",
					"outputs": [
						{
							"internalType": "uint112",
							"name": "",
							"type": "uint112"
						}
					],
					"stateMutability": "view",
					"type": "function"
				},
				{
					"inputs": [],
					"name": "mcrFloor",
					"outputs": [
						{
							"internalType": "uint112",
							"name": "",
							"type": "uint112"
						}
					],
					"stateMutability": "view",
					"type": "function"
				},
				{
					"inputs": [],
					"name": "updateMCRInternal",
					"outputs": [],
					"stateMutability": "nonpayable",
					"type": "function"
				}
			],
			"devdoc": {
				"kind": "dev",
				"methods": {
					"getMCR()": {
						"details": "Calculates the current virtual MCR value. The virtual MCR value moves towards the desiredMCR value away from the stored mcr value at constant velocity based on how much time passed from the lastUpdateTime. The total change in virtual MCR cannot exceed 1% of stored mcr. This approach allows for the MCR to change smoothly across time without sudden jumps between values, while always progressing towards the desiredMCR goal. The desiredMCR can change subject to the call of _updateMCR so the virtual MCR value may change direction and start decreasing instead of increasing or vice-versa.",
						"returns": {
							"_0": "mcr"
						}
					}
				},
				"version": 1
			},
			"evm": {
				"assembly": "    /* \"contracts/capital/MCR.sol\":193:2370  contract MCR is IMCR {... */\n  mstore(0x40, 0x80)\n    /* \"contracts/capital/MCR.sol\":261:266  10000 */\n  0x2710\n    /* \"contracts/capital/MCR.sol\":235:266  uint112 public mcrFloor = 10000 */\n  0x01\n  exp(0x0100, 0x00)\n  dup2\n  sload\n  dup2\n  0xffffffffffffffffffffffffffff\n  mul\n  not\n  and\n  swap1\n  dup4\n  0xffffffffffffffffffffffffffff\n  and\n  mul\n  or\n  swap1\n  sstore\n  pop\n    /* \"contracts/capital/MCR.sol\":369:374  48000 */\n  0xbb80\n    /* \"contracts/capital/MCR.sol\":339:374  uint24 public gearingFactor = 48000 */\n  0x02\n  exp(0x0100, 0x0e)\n  dup2\n  sload\n  dup2\n  0xffffff\n  mul\n  not\n  and\n  swap1\n  dup4\n  0xffffff\n  and\n  mul\n  or\n  swap1\n  sstore\n  pop\n    /* \"contracts/capital/MCR.sol\":396:472  constructor (address masterAddress){... */\n  callvalue\n  dup1\n  iszero\n  tag_1\n  jumpi\n  0x00\n  dup1\n  revert\ntag_1:\n  pop\n  mload(0x40)\n  sub(codesize, bytecodeSize)\n  dup1\n  bytecodeSize\n  dup4\n  codecopy\n  dup2\n  dup2\n  add\n  0x40\n  mstore\n  dup2\n  add\n  swap1\n  tag_2\n  swap2\n  swap1\n  tag_3\n  jump\t// in\ntag_2:\n    /* \"contracts/capital/MCR.sol\":453:466  masterAddress */\n  dup1\n    /* \"contracts/capital/MCR.sol\":437:443  master */\n  0x00\n  dup1\n    /* \"contracts/capital/MCR.sol\":437:467  master = Master(masterAddress) */\n  0x0100\n  exp\n  dup2\n  sload\n  dup2\n  0xffffffffffffffffffffffffffffffffffffffff\n  mul\n  not\n  and\n  swap1\n  dup4\n  0xffffffffffffffffffffffffffffffffffffffff\n  and\n  mul\n  or\n  swap1\n  sstore\n  pop\n    /* \"contracts/capital/MCR.sol\":396:472  constructor (address masterAddress){... */\n  pop\n    /* \"contracts/capital/MCR.sol\":193:2370  contract MCR is IMCR {... */\n  jump(tag_6)\n    /* \"#utility.yul\":88:205   */\ntag_8:\n    /* \"#utility.yul\":197:198   */\n  0x00\n    /* \"#utility.yul\":194:195   */\n  dup1\n    /* \"#utility.yul\":187:199   */\n  revert\n    /* \"#utility.yul\":334:460   */\ntag_10:\n    /* \"#utility.yul\":371:378   */\n  0x00\n    /* \"#utility.yul\":411:453   */\n  0xffffffffffffffffffffffffffffffffffffffff\n    /* \"#utility.yul\":404:409   */\n  dup3\n    /* \"#utility.yul\":400:454   */\n  and\n    /* \"#utility.yul\":389:454   */\n  swap1\n  pop\n    /* \"#utility.yul\":334:460   */\n  swap2\n  swap1\n  pop\n  jump\t// out\n    /* \"#utility.yul\":466:562   */\ntag_11:\n    /* \"#utility.yul\":503:510   */\n  0x00\n    /* \"#utility.yul\":532:556   */\n  tag_20\n    /* \"#utility.yul\":550:555   */\n  dup3\n    /* \"#utility.yul\":532:556   */\n  tag_10\n  jump\t// in\ntag_20:\n    /* \"#utility.yul\":521:556   */\n  swap1\n  pop\n    /* \"#utility.yul\":466:562   */\n  swap2\n  swap1\n  pop\n  jump\t// out\n    /* \"#utility.yul\":568:690   */\ntag_12:\n    /* \"#utility.yul\":641:665   */\n  tag_22\n    /* \"#utility.yul\":659:664   */\n  dup2\n    /* \"#utility.yul\":641:665   */\n  tag_11\n  jump\t// in\ntag_22:\n    /* \"#utility.yul\":634:639   */\n  dup2\n    /* \"#utility.yul\":631:666   */\n  eq\n    /* \"#utility.yul\":621:684   */\n  tag_23\n  jumpi\n    /* \"#utility.yul\":680:681   */\n  0x00\n    /* \"#utility.yul\":677:678   */\n  dup1\n    /* \"#utility.yul\":670:682   */\n  revert\n    /* \"#utility.yul\":621:684   */\ntag_23:\n    /* \"#utility.yul\":568:690   */\n  pop\n  jump\t// out\n    /* \"#utility.yul\":696:839   */\ntag_13:\n    /* \"#utility.yul\":753:758   */\n  0x00\n    /* \"#utility.yul\":784:790   */\n  dup2\n    /* \"#utility.yul\":778:791   */\n  mload\n    /* \"#utility.yul\":769:791   */\n  swap1\n  pop\n    /* \"#utility.yul\":800:833   */\n  tag_25\n    /* \"#utility.yul\":827:832   */\n  dup2\n    /* \"#utility.yul\":800:833   */\n  tag_12\n  jump\t// in\ntag_25:\n    /* \"#utility.yul\":696:839   */\n  swap3\n  swap2\n  pop\n  pop\n  jump\t// out\n    /* \"#utility.yul\":845:1196   */\ntag_3:\n    /* \"#utility.yul\":915:921   */\n  0x00\n    /* \"#utility.yul\":964:966   */\n  0x20\n    /* \"#utility.yul\":952:961   */\n  dup3\n    /* \"#utility.yul\":943:950   */\n  dup5\n    /* \"#utility.yul\":939:962   */\n  sub\n    /* \"#utility.yul\":935:967   */\n  slt\n    /* \"#utility.yul\":932:1051   */\n  iszero\n  tag_27\n  jumpi\n    /* \"#utility.yul\":970:1049   */\n  tag_28\n  tag_8\n  jump\t// in\ntag_28:\n    /* \"#utility.yul\":932:1051   */\ntag_27:\n    /* \"#utility.yul\":1090:1091   */\n  0x00\n    /* \"#utility.yul\":1115:1179   */\n  tag_29\n    /* \"#utility.yul\":1171:1178   */\n  dup5\n    /* \"#utility.yul\":1162:1168   */\n  dup3\n    /* \"#utility.yul\":1151:1160   */\n  dup6\n    /* \"#utility.yul\":1147:1169   */\n  add\n    /* \"#utility.yul\":1115:1179   */\n  tag_13\n  jump\t// in\ntag_29:\n    /* \"#utility.yul\":1105:1179   */\n  swap2\n  pop\n    /* \"#utility.yul\":1061:1189   */\n  pop\n    /* \"#utility.yul\":845:1196   */\n  swap3\n  swap2\n  pop\n  pop\n  jump\t// out\n    /* \"contracts/capital/MCR.sol\":193:2370  contract MCR is IMCR {... */\ntag_6:\n  dataSize(sub_0)\n  dup1\n  dataOffset(sub_0)\n  0x00\n  codecopy\n  0x00\n  return\nstop\n\nsub_0: assembly {\n        /* \"contracts/capital/MCR.sol\":193:2370  contract MCR is IMCR {... */\n      mstore(0x40, 0x80)\n      callvalue\n      dup1\n      iszero\n      tag_1\n      jumpi\n      0x00\n      dup1\n      revert\n    tag_1:\n      pop\n      jumpi(tag_2, lt(calldatasize, 0x04))\n      shr(0xe0, calldataload(0x00))\n      dup1\n      0xa8a41a68\n      gt\n      tag_10\n      jumpi\n      dup1\n      0xa8a41a68\n      eq\n      tag_6\n      jumpi\n      dup1\n      0xaa5da046\n      eq\n      tag_7\n      jumpi\n      dup1\n      0xb3452487\n      eq\n      tag_8\n      jumpi\n      dup1\n      0xb8caedc4\n      eq\n      tag_9\n      jumpi\n      jump(tag_2)\n    tag_10:\n      dup1\n      0x017e7d8f\n      eq\n      tag_3\n      jumpi\n      dup1\n      0x44936b10\n      eq\n      tag_4\n      jumpi\n      dup1\n      0x7a2dbb6f\n      eq\n      tag_5\n      jumpi\n    tag_2:\n      0x00\n      dup1\n      revert\n        /* \"contracts/capital/MCR.sol\":310:335  uint112 public desiredMCR */\n    tag_3:\n      tag_11\n      tag_12\n      jump\t// in\n    tag_11:\n      mload(0x40)\n      tag_13\n      swap2\n      swap1\n      tag_14\n      jump\t// in\n    tag_13:\n      mload(0x40)\n      dup1\n      swap2\n      sub\n      swap1\n      return\n        /* \"contracts/capital/MCR.sol\":2103:2367  function getMCR() public view returns (uint) {... */\n    tag_4:\n      tag_15\n      tag_16\n      jump\t// in\n    tag_15:\n      mload(0x40)\n      tag_17\n      swap2\n      swap1\n      tag_18\n      jump\t// in\n    tag_17:\n      mload(0x40)\n      dup1\n      swap2\n      sub\n      swap1\n      return\n        /* \"contracts/capital/MCR.sol\":235:266  uint112 public mcrFloor = 10000 */\n    tag_5:\n      tag_19\n      tag_20\n      jump\t// in\n    tag_19:\n      mload(0x40)\n      tag_21\n      swap2\n      swap1\n      tag_14\n      jump\t// in\n    tag_21:\n      mload(0x40)\n      dup1\n      swap2\n      sub\n      swap1\n      return\n        /* \"contracts/capital/MCR.sol\":339:374  uint24 public gearingFactor = 48000 */\n    tag_6:\n      tag_22\n      tag_23\n      jump\t// in\n    tag_22:\n      mload(0x40)\n      tag_24\n      swap2\n      swap1\n      tag_25\n      jump\t// in\n    tag_24:\n      mload(0x40)\n      dup1\n      swap2\n      sub\n      swap1\n      return\n        /* \"contracts/capital/MCR.sol\":604:663  function updateMCRInternal() public {... */\n    tag_7:\n      tag_26\n      tag_27\n      jump\t// in\n    tag_26:\n      stop\n        /* \"contracts/capital/MCR.sol\":1209:1435  function getAllSumAssurance() public view returns (uint) {... */\n    tag_8:\n      tag_28\n      tag_29\n      jump\t// in\n    tag_28:\n      mload(0x40)\n      tag_30\n      swap2\n      swap1\n      tag_18\n      jump\t// in\n    tag_30:\n      mload(0x40)\n      dup1\n      swap2\n      sub\n      swap1\n      return\n        /* \"contracts/capital/MCR.sol\":288:306  uint112 public mcr */\n    tag_9:\n      tag_31\n      tag_32\n      jump\t// in\n    tag_31:\n      mload(0x40)\n      tag_33\n      swap2\n      swap1\n      tag_14\n      jump\t// in\n    tag_33:\n      mload(0x40)\n      dup1\n      swap2\n      sub\n      swap1\n      return\n        /* \"contracts/capital/MCR.sol\":310:335  uint112 public desiredMCR */\n    tag_12:\n      0x02\n      0x00\n      swap1\n      sload\n      swap1\n      0x0100\n      exp\n      swap1\n      div\n      0xffffffffffffffffffffffffffff\n      and\n      dup2\n      jump\t// out\n        /* \"contracts/capital/MCR.sol\":2103:2367  function getMCR() public view returns (uint) {... */\n    tag_16:\n        /* \"contracts/capital/MCR.sol\":2142:2146  uint */\n      0x00\n        /* \"contracts/capital/MCR.sol\":2352:2362  desiredMCR */\n      0x02\n      0x00\n      swap1\n      sload\n      swap1\n      0x0100\n      exp\n      swap1\n      div\n      0xffffffffffffffffffffffffffff\n      and\n        /* \"contracts/capital/MCR.sol\":2345:2362  return desiredMCR */\n      0xffffffffffffffffffffffffffff\n      and\n      swap1\n      pop\n        /* \"contracts/capital/MCR.sol\":2103:2367  function getMCR() public view returns (uint) {... */\n      swap1\n      jump\t// out\n        /* \"contracts/capital/MCR.sol\":235:266  uint112 public mcrFloor = 10000 */\n    tag_20:\n      0x01\n      0x00\n      swap1\n      sload\n      swap1\n      0x0100\n      exp\n      swap1\n      div\n      0xffffffffffffffffffffffffffff\n      and\n      dup2\n      jump\t// out\n        /* \"contracts/capital/MCR.sol\":339:374  uint24 public gearingFactor = 48000 */\n    tag_23:\n      0x02\n      0x0e\n      swap1\n      sload\n      swap1\n      0x0100\n      exp\n      swap1\n      div\n      0xffffff\n      and\n      dup2\n      jump\t// out\n        /* \"contracts/capital/MCR.sol\":604:663  function updateMCRInternal() public {... */\n    tag_27:\n        /* \"contracts/capital/MCR.sol\":646:658  _updateMCR() */\n      tag_36\n        /* \"contracts/capital/MCR.sol\":646:656  _updateMCR */\n      tag_37\n        /* \"contracts/capital/MCR.sol\":646:658  _updateMCR() */\n      jump\t// in\n    tag_36:\n        /* \"contracts/capital/MCR.sol\":604:663  function updateMCRInternal() public {... */\n      jump\t// out\n        /* \"contracts/capital/MCR.sol\":1209:1435  function getAllSumAssurance() public view returns (uint) {... */\n    tag_29:\n        /* \"contracts/capital/MCR.sol\":1260:1264  uint */\n      0x00\n        /* \"contracts/capital/MCR.sol\":1273:1286  ICover _cover */\n      dup1\n        /* \"contracts/capital/MCR.sol\":1296:1302  master */\n      0x00\n      dup1\n      sload\n      swap1\n      0x0100\n      exp\n      swap1\n      div\n      0xffffffffffffffffffffffffffffffffffffffff\n      and\n        /* \"contracts/capital/MCR.sol\":1296:1315  master.CoverAddress */\n      0xffffffffffffffffffffffffffffffffffffffff\n      and\n      0xe67cdafd\n        /* \"contracts/capital/MCR.sol\":1296:1317  master.CoverAddress() */\n      mload(0x40)\n      dup2\n      0xffffffff\n      and\n      0xe0\n      shl\n      dup2\n      mstore\n      0x04\n      add\n      0x20\n      mload(0x40)\n      dup1\n      dup4\n      sub\n      dup2\n      dup7\n      gas\n      staticcall\n      iszero\n      dup1\n      iszero\n      tag_40\n      jumpi\n      returndatasize\n      0x00\n      dup1\n      returndatacopy\n      revert(0x00, returndatasize)\n    tag_40:\n      pop\n      pop\n      pop\n      pop\n      mload(0x40)\n      returndatasize\n      not(0x1f)\n      0x1f\n      dup3\n      add\n      and\n      dup3\n      add\n      dup1\n      0x40\n      mstore\n      pop\n      dup2\n      add\n      swap1\n      tag_41\n      swap2\n      swap1\n      tag_42\n      jump\t// in\n    tag_41:\n        /* \"contracts/capital/MCR.sol\":1273:1318  ICover _cover = ICover(master.CoverAddress()) */\n      swap1\n      pop\n        /* \"contracts/capital/MCR.sol\":1325:1357  uint totalActiveCoverAmountInEth */\n      0x00\n        /* \"contracts/capital/MCR.sol\":1360:1366  _cover */\n      dup2\n        /* \"contracts/capital/MCR.sol\":1360:1388  _cover.totalActiveCoverInETH */\n      0xffffffffffffffffffffffffffffffffffffffff\n      and\n      0xed3b657a\n        /* \"contracts/capital/MCR.sol\":1360:1390  _cover.totalActiveCoverInETH() */\n      mload(0x40)\n      dup2\n      0xffffffff\n      and\n      0xe0\n      shl\n      dup2\n      mstore\n      0x04\n      add\n      0x20\n      mload(0x40)\n      dup1\n      dup4\n      sub\n      dup2\n      dup7\n      gas\n      staticcall\n      iszero\n      dup1\n      iszero\n      tag_44\n      jumpi\n      returndatasize\n      0x00\n      dup1\n      returndatacopy\n      revert(0x00, returndatasize)\n    tag_44:\n      pop\n      pop\n      pop\n      pop\n      mload(0x40)\n      returndatasize\n      not(0x1f)\n      0x1f\n      dup3\n      add\n      and\n      dup3\n      add\n      dup1\n      0x40\n      mstore\n      pop\n      dup2\n      add\n      swap1\n      tag_45\n      swap2\n      swap1\n      tag_46\n      jump\t// in\n    tag_45:\n        /* \"contracts/capital/MCR.sol\":1325:1390  uint totalActiveCoverAmountInEth = _cover.totalActiveCoverInETH() */\n      swap1\n      pop\n        /* \"contracts/capital/MCR.sol\":1403:1430  totalActiveCoverAmountInEth */\n      dup1\n        /* \"contracts/capital/MCR.sol\":1396:1430  return totalActiveCoverAmountInEth */\n      swap3\n      pop\n      pop\n      pop\n        /* \"contracts/capital/MCR.sol\":1209:1435  function getAllSumAssurance() public view returns (uint) {... */\n      swap1\n      jump\t// out\n        /* \"contracts/capital/MCR.sol\":288:306  uint112 public mcr */\n    tag_32:\n      0x01\n      0x0e\n      swap1\n      sload\n      swap1\n      0x0100\n      exp\n      swap1\n      div\n      0xffffffffffffffffffffffffffff\n      and\n      dup2\n      jump\t// out\n        /* \"contracts/capital/MCR.sol\":667:1202  function _updateMCR() internal {... */\n    tag_37:\n        /* \"contracts/capital/MCR.sol\":868:888  uint totalSumAssured */\n      0x00\n        /* \"contracts/capital/MCR.sol\":891:911  getAllSumAssurance() */\n      tag_48\n        /* \"contracts/capital/MCR.sol\":891:909  getAllSumAssurance */\n      tag_29\n        /* \"contracts/capital/MCR.sol\":891:911  getAllSumAssurance() */\n      jump\t// in\n    tag_48:\n        /* \"contracts/capital/MCR.sol\":868:911  uint totalSumAssured = getAllSumAssurance() */\n      swap1\n      pop\n        /* \"contracts/capital/MCR.sol\":917:931  uint gearedMCR */\n      0x00\n        /* \"contracts/capital/MCR.sol\":970:983  gearingFactor */\n      0x02\n      0x0e\n      swap1\n      sload\n      swap1\n      0x0100\n      exp\n      swap1\n      div\n      0xffffff\n      and\n        /* \"contracts/capital/MCR.sol\":934:983  totalSumAssured * BASIS_PRECISION / gearingFactor */\n      0xffffff\n      and\n        /* \"contracts/capital/MCR.sol\":186:191  10000 */\n      0x2710\n        /* \"contracts/capital/MCR.sol\":934:949  totalSumAssured */\n      dup4\n        /* \"contracts/capital/MCR.sol\":934:967  totalSumAssured * BASIS_PRECISION */\n      tag_49\n      swap2\n      swap1\n      tag_50\n      jump\t// in\n    tag_49:\n        /* \"contracts/capital/MCR.sol\":934:983  totalSumAssured * BASIS_PRECISION / gearingFactor */\n      tag_51\n      swap2\n      swap1\n      tag_52\n      jump\t// in\n    tag_51:\n        /* \"contracts/capital/MCR.sol\":917:983  uint gearedMCR = totalSumAssured * BASIS_PRECISION / gearingFactor */\n      swap1\n      pop\n        /* \"contracts/capital/MCR.sol\":989:1010  uint112 newDesiredMCR */\n      0x00\n        /* \"contracts/capital/MCR.sol\":1021:1050  Math.max(gearedMCR, mcrFloor) */\n      tag_53\n        /* \"contracts/capital/MCR.sol\":1030:1039  gearedMCR */\n      dup3\n        /* \"contracts/capital/MCR.sol\":1041:1049  mcrFloor */\n      0x01\n      0x00\n      swap1\n      sload\n      swap1\n      0x0100\n      exp\n      swap1\n      div\n      0xffffffffffffffffffffffffffff\n      and\n        /* \"contracts/capital/MCR.sol\":1021:1050  Math.max(gearedMCR, mcrFloor) */\n      0xffffffffffffffffffffffffffff\n      and\n        /* \"contracts/capital/MCR.sol\":1021:1029  Math.max */\n      tag_54\n        /* \"contracts/capital/MCR.sol\":1021:1050  Math.max(gearedMCR, mcrFloor) */\n      jump\t// in\n    tag_53:\n        /* \"contracts/capital/MCR.sol\":989:1051  uint112 newDesiredMCR = uint112(Math.max(gearedMCR, mcrFloor)) */\n      swap1\n      pop\n        /* \"contracts/capital/MCR.sol\":1079:1108  Math.max(gearedMCR, mcrFloor) */\n      tag_55\n        /* \"contracts/capital/MCR.sol\":1088:1097  gearedMCR */\n      dup3\n        /* \"contracts/capital/MCR.sol\":1099:1107  mcrFloor */\n      0x01\n      0x00\n      swap1\n      sload\n      swap1\n      0x0100\n      exp\n      swap1\n      div\n      0xffffffffffffffffffffffffffff\n      and\n        /* \"contracts/capital/MCR.sol\":1079:1108  Math.max(gearedMCR, mcrFloor) */\n      0xffffffffffffffffffffffffffff\n      and\n        /* \"contracts/capital/MCR.sol\":1079:1087  Math.max */\n      tag_54\n        /* \"contracts/capital/MCR.sol\":1079:1108  Math.max(gearedMCR, mcrFloor) */\n      jump\t// in\n    tag_55:\n        /* \"contracts/capital/MCR.sol\":1058:1068  desiredMCR */\n      0x02\n      0x00\n        /* \"contracts/capital/MCR.sol\":1058:1109  desiredMCR = uint112(Math.max(gearedMCR, mcrFloor)) */\n      0x0100\n      exp\n      dup2\n      sload\n      dup2\n      0xffffffffffffffffffffffffffff\n      mul\n      not\n      and\n      swap1\n      dup4\n      0xffffffffffffffffffffffffffff\n      and\n      mul\n      or\n      swap1\n      sstore\n      pop\n        /* \"contracts/capital/MCR.sol\":1132:1197  MCRUpdated(mcr, desiredMCR, mcrFloor, gearedMCR, totalSumAssured) */\n      0x6e87c25e322c4ad68faf7916d0788baaf714d806fe887a84ee4b84ad9666f686\n        /* \"contracts/capital/MCR.sol\":1143:1146  mcr */\n      0x01\n      0x0e\n      swap1\n      sload\n      swap1\n      0x0100\n      exp\n      swap1\n      div\n      0xffffffffffffffffffffffffffff\n      and\n        /* \"contracts/capital/MCR.sol\":1148:1158  desiredMCR */\n      0x02\n      0x00\n      swap1\n      sload\n      swap1\n      0x0100\n      exp\n      swap1\n      div\n      0xffffffffffffffffffffffffffff\n      and\n        /* \"contracts/capital/MCR.sol\":1160:1168  mcrFloor */\n      0x01\n      0x00\n      swap1\n      sload\n      swap1\n      0x0100\n      exp\n      swap1\n      div\n      0xffffffffffffffffffffffffffff\n      and\n        /* \"contracts/capital/MCR.sol\":1170:1179  gearedMCR */\n      dup6\n        /* \"contracts/capital/MCR.sol\":1181:1196  totalSumAssured */\n      dup8\n        /* \"contracts/capital/MCR.sol\":1132:1197  MCRUpdated(mcr, desiredMCR, mcrFloor, gearedMCR, totalSumAssured) */\n      mload(0x40)\n      tag_56\n      swap6\n      swap5\n      swap4\n      swap3\n      swap2\n      swap1\n      tag_57\n      jump\t// in\n    tag_56:\n      mload(0x40)\n      dup1\n      swap2\n      sub\n      swap1\n      log1\n        /* \"contracts/capital/MCR.sol\":698:1202  {... */\n      pop\n      pop\n      pop\n        /* \"contracts/capital/MCR.sol\":667:1202  function _updateMCR() internal {... */\n      jump\t// out\n        /* \"contracts/libraries/Math.sol\":262:351  function max(uint a, uint b) internal pure returns (uint) {... */\n    tag_54:\n        /* \"contracts/libraries/Math.sol\":314:318  uint */\n      0x00\n        /* \"contracts/libraries/Math.sol\":337:338  b */\n      dup2\n        /* \"contracts/libraries/Math.sol\":333:334  a */\n      dup4\n        /* \"contracts/libraries/Math.sol\":333:338  a > b */\n      gt\n        /* \"contracts/libraries/Math.sol\":333:346  a > b ? a : b */\n      tag_59\n      jumpi\n        /* \"contracts/libraries/Math.sol\":345:346  b */\n      dup2\n        /* \"contracts/libraries/Math.sol\":333:346  a > b ? a : b */\n      jump(tag_60)\n    tag_59:\n        /* \"contracts/libraries/Math.sol\":341:342  a */\n      dup3\n        /* \"contracts/libraries/Math.sol\":333:346  a > b ? a : b */\n    tag_60:\n        /* \"contracts/libraries/Math.sol\":326:346  return a > b ? a : b */\n      swap1\n      pop\n        /* \"contracts/libraries/Math.sol\":262:351  function max(uint a, uint b) internal pure returns (uint) {... */\n      swap3\n      swap2\n      pop\n      pop\n      jump\t// out\n        /* \"#utility.yul\":7:121   */\n    tag_61:\n        /* \"#utility.yul\":44:51   */\n      0x00\n        /* \"#utility.yul\":84:114   */\n      0xffffffffffffffffffffffffffff\n        /* \"#utility.yul\":77:82   */\n      dup3\n        /* \"#utility.yul\":73:115   */\n      and\n        /* \"#utility.yul\":62:115   */\n      swap1\n      pop\n        /* \"#utility.yul\":7:121   */\n      swap2\n      swap1\n      pop\n      jump\t// out\n        /* \"#utility.yul\":127:245   */\n    tag_62:\n        /* \"#utility.yul\":214:238   */\n      tag_84\n        /* \"#utility.yul\":232:237   */\n      dup2\n        /* \"#utility.yul\":214:238   */\n      tag_61\n      jump\t// in\n    tag_84:\n        /* \"#utility.yul\":209:212   */\n      dup3\n        /* \"#utility.yul\":202:239   */\n      mstore\n        /* \"#utility.yul\":127:245   */\n      pop\n      pop\n      jump\t// out\n        /* \"#utility.yul\":251:473   */\n    tag_14:\n        /* \"#utility.yul\":344:348   */\n      0x00\n        /* \"#utility.yul\":382:384   */\n      0x20\n        /* \"#utility.yul\":371:380   */\n      dup3\n        /* \"#utility.yul\":367:385   */\n      add\n        /* \"#utility.yul\":359:385   */\n      swap1\n      pop\n        /* \"#utility.yul\":395:466   */\n      tag_86\n        /* \"#utility.yul\":463:464   */\n      0x00\n        /* \"#utility.yul\":452:461   */\n      dup4\n        /* \"#utility.yul\":448:465   */\n      add\n        /* \"#utility.yul\":439:445   */\n      dup5\n        /* \"#utility.yul\":395:466   */\n      tag_62\n      jump\t// in\n    tag_86:\n        /* \"#utility.yul\":251:473   */\n      swap3\n      swap2\n      pop\n      pop\n      jump\t// out\n        /* \"#utility.yul\":479:556   */\n    tag_63:\n        /* \"#utility.yul\":516:523   */\n      0x00\n        /* \"#utility.yul\":545:550   */\n      dup2\n        /* \"#utility.yul\":534:550   */\n      swap1\n      pop\n        /* \"#utility.yul\":479:556   */\n      swap2\n      swap1\n      pop\n      jump\t// out\n        /* \"#utility.yul\":562:680   */\n    tag_64:\n        /* \"#utility.yul\":649:673   */\n      tag_89\n        /* \"#utility.yul\":667:672   */\n      dup2\n        /* \"#utility.yul\":649:673   */\n      tag_63\n      jump\t// in\n    tag_89:\n        /* \"#utility.yul\":644:647   */\n      dup3\n        /* \"#utility.yul\":637:674   */\n      mstore\n        /* \"#utility.yul\":562:680   */\n      pop\n      pop\n      jump\t// out\n        /* \"#utility.yul\":686:908   */\n    tag_18:\n        /* \"#utility.yul\":779:783   */\n      0x00\n        /* \"#utility.yul\":817:819   */\n      0x20\n        /* \"#utility.yul\":806:815   */\n      dup3\n        /* \"#utility.yul\":802:820   */\n      add\n        /* \"#utility.yul\":794:820   */\n      swap1\n      pop\n        /* \"#utility.yul\":830:901   */\n      tag_91\n        /* \"#utility.yul\":898:899   */\n      0x00\n        /* \"#utility.yul\":887:896   */\n      dup4\n        /* \"#utility.yul\":883:900   */\n      add\n        /* \"#utility.yul\":874:880   */\n      dup5\n        /* \"#utility.yul\":830:901   */\n      tag_64\n      jump\t// in\n    tag_91:\n        /* \"#utility.yul\":686:908   */\n      swap3\n      swap2\n      pop\n      pop\n      jump\t// out\n        /* \"#utility.yul\":914:1005   */\n    tag_65:\n        /* \"#utility.yul\":950:957   */\n      0x00\n        /* \"#utility.yul\":990:998   */\n      0xffffff\n        /* \"#utility.yul\":983:988   */\n      dup3\n        /* \"#utility.yul\":979:999   */\n      and\n        /* \"#utility.yul\":968:999   */\n      swap1\n      pop\n        /* \"#utility.yul\":914:1005   */\n      swap2\n      swap1\n      pop\n      jump\t// out\n        /* \"#utility.yul\":1011:1126   */\n    tag_66:\n        /* \"#utility.yul\":1096:1119   */\n      tag_94\n        /* \"#utility.yul\":1113:1118   */\n      dup2\n        /* \"#utility.yul\":1096:1119   */\n      tag_65\n      jump\t// in\n    tag_94:\n        /* \"#utility.yul\":1091:1094   */\n      dup3\n        /* \"#utility.yul\":1084:1120   */\n      mstore\n        /* \"#utility.yul\":1011:1126   */\n      pop\n      pop\n      jump\t// out\n        /* \"#utility.yul\":1132:1350   */\n    tag_25:\n        /* \"#utility.yul\":1223:1227   */\n      0x00\n        /* \"#utility.yul\":1261:1263   */\n      0x20\n        /* \"#utility.yul\":1250:1259   */\n      dup3\n        /* \"#utility.yul\":1246:1264   */\n      add\n        /* \"#utility.yul\":1238:1264   */\n      swap1\n      pop\n        /* \"#utility.yul\":1274:1343   */\n      tag_96\n        /* \"#utility.yul\":1340:1341   */\n      0x00\n        /* \"#utility.yul\":1329:1338   */\n      dup4\n        /* \"#utility.yul\":1325:1342   */\n      add\n        /* \"#utility.yul\":1316:1322   */\n      dup5\n        /* \"#utility.yul\":1274:1343   */\n      tag_66\n      jump\t// in\n    tag_96:\n        /* \"#utility.yul\":1132:1350   */\n      swap3\n      swap2\n      pop\n      pop\n      jump\t// out\n        /* \"#utility.yul\":1437:1554   */\n    tag_68:\n        /* \"#utility.yul\":1546:1547   */\n      0x00\n        /* \"#utility.yul\":1543:1544   */\n      dup1\n        /* \"#utility.yul\":1536:1548   */\n      revert\n        /* \"#utility.yul\":1683:1809   */\n    tag_70:\n        /* \"#utility.yul\":1720:1727   */\n      0x00\n        /* \"#utility.yul\":1760:1802   */\n      0xffffffffffffffffffffffffffffffffffffffff\n        /* \"#utility.yul\":1753:1758   */\n      dup3\n        /* \"#utility.yul\":1749:1803   */\n      and\n        /* \"#utility.yul\":1738:1803   */\n      swap1\n      pop\n        /* \"#utility.yul\":1683:1809   */\n      swap2\n      swap1\n      pop\n      jump\t// out\n        /* \"#utility.yul\":1815:1911   */\n    tag_71:\n        /* \"#utility.yul\":1852:1859   */\n      0x00\n        /* \"#utility.yul\":1881:1905   */\n      tag_102\n        /* \"#utility.yul\":1899:1904   */\n      dup3\n        /* \"#utility.yul\":1881:1905   */\n      tag_70\n      jump\t// in\n    tag_102:\n        /* \"#utility.yul\":1870:1905   */\n      swap1\n      pop\n        /* \"#utility.yul\":1815:1911   */\n      swap2\n      swap1\n      pop\n      jump\t// out\n        /* \"#utility.yul\":1917:2039   */\n    tag_72:\n        /* \"#utility.yul\":1990:2014   */\n      tag_104\n        /* \"#utility.yul\":2008:2013   */\n      dup2\n        /* \"#utility.yul\":1990:2014   */\n      tag_71\n      jump\t// in\n    tag_104:\n        /* \"#utility.yul\":1983:1988   */\n      dup2\n        /* \"#utility.yul\":1980:2015   */\n      eq\n        /* \"#utility.yul\":1970:2033   */\n      tag_105\n      jumpi\n        /* \"#utility.yul\":2029:2030   */\n      0x00\n        /* \"#utility.yul\":2026:2027   */\n      dup1\n        /* \"#utility.yul\":2019:2031   */\n      revert\n        /* \"#utility.yul\":1970:2033   */\n    tag_105:\n        /* \"#utility.yul\":1917:2039   */\n      pop\n      jump\t// out\n        /* \"#utility.yul\":2045:2188   */\n    tag_73:\n        /* \"#utility.yul\":2102:2107   */\n      0x00\n        /* \"#utility.yul\":2133:2139   */\n      dup2\n        /* \"#utility.yul\":2127:2140   */\n      mload\n        /* \"#utility.yul\":2118:2140   */\n      swap1\n      pop\n        /* \"#utility.yul\":2149:2182   */\n      tag_107\n        /* \"#utility.yul\":2176:2181   */\n      dup2\n        /* \"#utility.yul\":2149:2182   */\n      tag_72\n      jump\t// in\n    tag_107:\n        /* \"#utility.yul\":2045:2188   */\n      swap3\n      swap2\n      pop\n      pop\n      jump\t// out\n        /* \"#utility.yul\":2194:2545   */\n    tag_42:\n        /* \"#utility.yul\":2264:2270   */\n      0x00\n        /* \"#utility.yul\":2313:2315   */\n      0x20\n        /* \"#utility.yul\":2301:2310   */\n      dup3\n        /* \"#utility.yul\":2292:2299   */\n      dup5\n        /* \"#utility.yul\":2288:2311   */\n      sub\n        /* \"#utility.yul\":2284:2316   */\n      slt\n        /* \"#utility.yul\":2281:2400   */\n      iszero\n      tag_109\n      jumpi\n        /* \"#utility.yul\":2319:2398   */\n      tag_110\n      tag_68\n      jump\t// in\n    tag_110:\n        /* \"#utility.yul\":2281:2400   */\n    tag_109:\n        /* \"#utility.yul\":2439:2440   */\n      0x00\n        /* \"#utility.yul\":2464:2528   */\n      tag_111\n        /* \"#utility.yul\":2520:2527   */\n      dup5\n        /* \"#utility.yul\":2511:2517   */\n      dup3\n        /* \"#utility.yul\":2500:2509   */\n      dup6\n        /* \"#utility.yul\":2496:2518   */\n      add\n        /* \"#utility.yul\":2464:2528   */\n      tag_73\n      jump\t// in\n    tag_111:\n        /* \"#utility.yul\":2454:2528   */\n      swap2\n      pop\n        /* \"#utility.yul\":2410:2538   */\n      pop\n        /* \"#utility.yul\":2194:2545   */\n      swap3\n      swap2\n      pop\n      pop\n      jump\t// out\n        /* \"#utility.yul\":2551:2673   */\n    tag_74:\n        /* \"#utility.yul\":2624:2648   */\n      tag_113\n        /* \"#utility.yul\":2642:2647   */\n      dup2\n        /* \"#utility.yul\":2624:2648   */\n      tag_63\n      jump\t// in\n    tag_113:\n        /* \"#utility.yul\":2617:2622   */\n      dup2\n        /* \"#utility.yul\":2614:2649   */\n      eq\n        /* \"#utility.yul\":2604:2667   */\n      tag_114\n      jumpi\n        /* \"#utility.yul\":2663:2664   */\n      0x00\n        /* \"#utility.yul\":2660:2661   */\n      dup1\n        /* \"#utility.yul\":2653:2665   */\n      revert\n        /* \"#utility.yul\":2604:2667   */\n    tag_114:\n        /* \"#utility.yul\":2551:2673   */\n      pop\n      jump\t// out\n        /* \"#utility.yul\":2679:2822   */\n    tag_75:\n        /* \"#utility.yul\":2736:2741   */\n      0x00\n        /* \"#utility.yul\":2767:2773   */\n      dup2\n        /* \"#utility.yul\":2761:2774   */\n      mload\n        /* \"#utility.yul\":2752:2774   */\n      swap1\n      pop\n        /* \"#utility.yul\":2783:2816   */\n      tag_116\n        /* \"#utility.yul\":2810:2815   */\n      dup2\n        /* \"#utility.yul\":2783:2816   */\n      tag_74\n      jump\t// in\n    tag_116:\n        /* \"#utility.yul\":2679:2822   */\n      swap3\n      swap2\n      pop\n      pop\n      jump\t// out\n        /* \"#utility.yul\":2828:3179   */\n    tag_46:\n        /* \"#utility.yul\":2898:2904   */\n      0x00\n        /* \"#utility.yul\":2947:2949   */\n      0x20\n        /* \"#utility.yul\":2935:2944   */\n      dup3\n        /* \"#utility.yul\":2926:2933   */\n      dup5\n        /* \"#utility.yul\":2922:2945   */\n      sub\n        /* \"#utility.yul\":2918:2950   */\n      slt\n        /* \"#utility.yul\":2915:3034   */\n      iszero\n      tag_118\n      jumpi\n        /* \"#utility.yul\":2953:3032   */\n      tag_119\n      tag_68\n      jump\t// in\n    tag_119:\n        /* \"#utility.yul\":2915:3034   */\n    tag_118:\n        /* \"#utility.yul\":3073:3074   */\n      0x00\n        /* \"#utility.yul\":3098:3162   */\n      tag_120\n        /* \"#utility.yul\":3154:3161   */\n      dup5\n        /* \"#utility.yul\":3145:3151   */\n      dup3\n        /* \"#utility.yul\":3134:3143   */\n      dup6\n        /* \"#utility.yul\":3130:3152   */\n      add\n        /* \"#utility.yul\":3098:3162   */\n      tag_75\n      jump\t// in\n    tag_120:\n        /* \"#utility.yul\":3088:3162   */\n      swap2\n      pop\n        /* \"#utility.yul\":3044:3172   */\n      pop\n        /* \"#utility.yul\":2828:3179   */\n      swap3\n      swap2\n      pop\n      pop\n      jump\t// out\n        /* \"#utility.yul\":3185:3365   */\n    tag_76:\n        /* \"#utility.yul\":3233:3310   */\n      0x4e487b7100000000000000000000000000000000000000000000000000000000\n        /* \"#utility.yul\":3230:3231   */\n      0x00\n        /* \"#utility.yul\":3223:3311   */\n      mstore\n        /* \"#utility.yul\":3330:3334   */\n      0x11\n        /* \"#utility.yul\":3327:3328   */\n      0x04\n        /* \"#utility.yul\":3320:3335   */\n      mstore\n        /* \"#utility.yul\":3354:3358   */\n      0x24\n        /* \"#utility.yul\":3351:3352   */\n      0x00\n        /* \"#utility.yul\":3344:3359   */\n      revert\n        /* \"#utility.yul\":3371:3781   */\n    tag_50:\n        /* \"#utility.yul\":3411:3418   */\n      0x00\n        /* \"#utility.yul\":3434:3454   */\n      tag_123\n        /* \"#utility.yul\":3452:3453   */\n      dup3\n        /* \"#utility.yul\":3434:3454   */\n      tag_63\n      jump\t// in\n    tag_123:\n        /* \"#utility.yul\":3429:3454   */\n      swap2\n      pop\n        /* \"#utility.yul\":3468:3488   */\n      tag_124\n        /* \"#utility.yul\":3486:3487   */\n      dup4\n        /* \"#utility.yul\":3468:3488   */\n      tag_63\n      jump\t// in\n    tag_124:\n        /* \"#utility.yul\":3463:3488   */\n      swap3\n      pop\n        /* \"#utility.yul\":3523:3524   */\n      dup3\n        /* \"#utility.yul\":3520:3521   */\n      dup3\n        /* \"#utility.yul\":3516:3525   */\n      mul\n        /* \"#utility.yul\":3545:3575   */\n      tag_125\n        /* \"#utility.yul\":3563:3574   */\n      dup2\n        /* \"#utility.yul\":3545:3575   */\n      tag_63\n      jump\t// in\n    tag_125:\n        /* \"#utility.yul\":3534:3575   */\n      swap2\n      pop\n        /* \"#utility.yul\":3724:3725   */\n      dup3\n        /* \"#utility.yul\":3715:3722   */\n      dup3\n        /* \"#utility.yul\":3711:3726   */\n      div\n        /* \"#utility.yul\":3708:3709   */\n      dup5\n        /* \"#utility.yul\":3705:3727   */\n      eq\n        /* \"#utility.yul\":3685:3686   */\n      dup4\n        /* \"#utility.yul\":3678:3687   */\n      iszero\n        /* \"#utility.yul\":3658:3741   */\n      or\n        /* \"#utility.yul\":3635:3774   */\n      tag_126\n      jumpi\n        /* \"#utility.yul\":3754:3772   */\n      tag_127\n      tag_76\n      jump\t// in\n    tag_127:\n        /* \"#utility.yul\":3635:3774   */\n    tag_126:\n        /* \"#utility.yul\":3419:3781   */\n      pop\n        /* \"#utility.yul\":3371:3781   */\n      swap3\n      swap2\n      pop\n      pop\n      jump\t// out\n        /* \"#utility.yul\":3787:3967   */\n    tag_77:\n        /* \"#utility.yul\":3835:3912   */\n      0x4e487b7100000000000000000000000000000000000000000000000000000000\n        /* \"#utility.yul\":3832:3833   */\n      0x00\n        /* \"#utility.yul\":3825:3913   */\n      mstore\n        /* \"#utility.yul\":3932:3936   */\n      0x12\n        /* \"#utility.yul\":3929:3930   */\n      0x04\n        /* \"#utility.yul\":3922:3937   */\n      mstore\n        /* \"#utility.yul\":3956:3960   */\n      0x24\n        /* \"#utility.yul\":3953:3954   */\n      0x00\n        /* \"#utility.yul\":3946:3961   */\n      revert\n        /* \"#utility.yul\":3973:4158   */\n    tag_52:\n        /* \"#utility.yul\":4013:4014   */\n      0x00\n        /* \"#utility.yul\":4030:4050   */\n      tag_130\n        /* \"#utility.yul\":4048:4049   */\n      dup3\n        /* \"#utility.yul\":4030:4050   */\n      tag_63\n      jump\t// in\n    tag_130:\n        /* \"#utility.yul\":4025:4050   */\n      swap2\n      pop\n        /* \"#utility.yul\":4064:4084   */\n      tag_131\n        /* \"#utility.yul\":4082:4083   */\n      dup4\n        /* \"#utility.yul\":4064:4084   */\n      tag_63\n      jump\t// in\n    tag_131:\n        /* \"#utility.yul\":4059:4084   */\n      swap3\n      pop\n        /* \"#utility.yul\":4103:4104   */\n      dup3\n        /* \"#utility.yul\":4093:4128   */\n      tag_132\n      jumpi\n        /* \"#utility.yul\":4108:4126   */\n      tag_133\n      tag_77\n      jump\t// in\n    tag_133:\n        /* \"#utility.yul\":4093:4128   */\n    tag_132:\n        /* \"#utility.yul\":4150:4151   */\n      dup3\n        /* \"#utility.yul\":4147:4148   */\n      dup3\n        /* \"#utility.yul\":4143:4152   */\n      div\n        /* \"#utility.yul\":4138:4152   */\n      swap1\n      pop\n        /* \"#utility.yul\":3973:4158   */\n      swap3\n      swap2\n      pop\n      pop\n      jump\t// out\n        /* \"#utility.yul\":4164:4224   */\n    tag_78:\n        /* \"#utility.yul\":4192:4195   */\n      0x00\n        /* \"#utility.yul\":4213:4218   */\n      dup2\n        /* \"#utility.yul\":4206:4218   */\n      swap1\n      pop\n        /* \"#utility.yul\":4164:4224   */\n      swap2\n      swap1\n      pop\n      jump\t// out\n        /* \"#utility.yul\":4230:4372   */\n    tag_79:\n        /* \"#utility.yul\":4280:4289   */\n      0x00\n        /* \"#utility.yul\":4313:4366   */\n      tag_136\n        /* \"#utility.yul\":4331:4365   */\n      tag_137\n        /* \"#utility.yul\":4340:4364   */\n      tag_138\n        /* \"#utility.yul\":4358:4363   */\n      dup5\n        /* \"#utility.yul\":4340:4364   */\n      tag_61\n      jump\t// in\n    tag_138:\n        /* \"#utility.yul\":4331:4365   */\n      tag_78\n      jump\t// in\n    tag_137:\n        /* \"#utility.yul\":4313:4366   */\n      tag_63\n      jump\t// in\n    tag_136:\n        /* \"#utility.yul\":4300:4366   */\n      swap1\n      pop\n        /* \"#utility.yul\":4230:4372   */\n      swap2\n      swap1\n      pop\n      jump\t// out\n        /* \"#utility.yul\":4378:4509   */\n    tag_80:\n        /* \"#utility.yul\":4465:4502   */\n      tag_140\n        /* \"#utility.yul\":4496:4501   */\n      dup2\n        /* \"#utility.yul\":4465:4502   */\n      tag_79\n      jump\t// in\n    tag_140:\n        /* \"#utility.yul\":4460:4463   */\n      dup3\n        /* \"#utility.yul\":4453:4503   */\n      mstore\n        /* \"#utility.yul\":4378:4509   */\n      pop\n      pop\n      jump\t// out\n        /* \"#utility.yul\":4515:5179   */\n    tag_57:\n        /* \"#utility.yul\":4720:4724   */\n      0x00\n        /* \"#utility.yul\":4758:4761   */\n      0xa0\n        /* \"#utility.yul\":4747:4756   */\n      dup3\n        /* \"#utility.yul\":4743:4762   */\n      add\n        /* \"#utility.yul\":4735:4762   */\n      swap1\n      pop\n        /* \"#utility.yul\":4772:4843   */\n      tag_142\n        /* \"#utility.yul\":4840:4841   */\n      0x00\n        /* \"#utility.yul\":4829:4838   */\n      dup4\n        /* \"#utility.yul\":4825:4842   */\n      add\n        /* \"#utility.yul\":4816:4822   */\n      dup9\n        /* \"#utility.yul\":4772:4843   */\n      tag_80\n      jump\t// in\n    tag_142:\n        /* \"#utility.yul\":4853:4925   */\n      tag_143\n        /* \"#utility.yul\":4921:4923   */\n      0x20\n        /* \"#utility.yul\":4910:4919   */\n      dup4\n        /* \"#utility.yul\":4906:4924   */\n      add\n        /* \"#utility.yul\":4897:4903   */\n      dup8\n        /* \"#utility.yul\":4853:4925   */\n      tag_80\n      jump\t// in\n    tag_143:\n        /* \"#utility.yul\":4935:5007   */\n      tag_144\n        /* \"#utility.yul\":5003:5005   */\n      0x40\n        /* \"#utility.yul\":4992:5001   */\n      dup4\n        /* \"#utility.yul\":4988:5006   */\n      add\n        /* \"#utility.yul\":4979:4985   */\n      dup7\n        /* \"#utility.yul\":4935:5007   */\n      tag_80\n      jump\t// in\n    tag_144:\n        /* \"#utility.yul\":5017:5089   */\n      tag_145\n        /* \"#utility.yul\":5085:5087   */\n      0x60\n        /* \"#utility.yul\":5074:5083   */\n      dup4\n        /* \"#utility.yul\":5070:5088   */\n      add\n        /* \"#utility.yul\":5061:5067   */\n      dup6\n        /* \"#utility.yul\":5017:5089   */\n      tag_64\n      jump\t// in\n    tag_145:\n        /* \"#utility.yul\":5099:5172   */\n      tag_146\n        /* \"#utility.yul\":5167:5170   */\n      0x80\n        /* \"#utility.yul\":5156:5165   */\n      dup4\n        /* \"#utility.yul\":5152:5171   */\n      add\n        /* \"#utility.yul\":5143:5149   */\n      dup5\n        /* \"#utility.yul\":5099:5172   */\n      tag_64\n      jump\t// in\n    tag_146:\n        /* \"#utility.yul\":4515:5179   */\n      swap7\n      swap6\n      pop\n      pop\n      pop\n      pop\n      pop\n      pop\n      jump\t// out\n\n    auxdata: 0xa2646970667358221220b28ae339143e2159bf827604d0fe70710fbc209fe4571558b377e869a446ad9064736f6c63430008130033\n}\n",
				"bytecode": {
					"linkReferences": {},
					"object": "6080604052612710600160006101000a8154816dffffffffffffffffffffffffffff02191690836dffffffffffffffffffffffffffff16021790555061bb806002600e6101000a81548162ffffff021916908362ffffff16021790555034801561006857600080fd5b50604051610934380380610934833981810160405281019061008a9190610133565b806000806101000a81548173ffffffffffffffffffffffffffffffffffffffff021916908373ffffffffffffffffffffffffffffffffffffffff16021790555050610160565b600080fd5b600073ffffffffffffffffffffffffffffffffffffffff82169050919050565b6000610100826100d5565b9050919050565b610110816100f5565b811461011b57600080fd5b50565b60008151905061012d81610107565b92915050565b600060208284031215610149576101486100d0565b5b60006101578482850161011e565b91505092915050565b6107c58061016f6000396000f3fe608060405234801561001057600080fd5b506004361061007d5760003560e01c8063a8a41a681161005b578063a8a41a68146100dc578063aa5da046146100fa578063b345248714610104578063b8caedc4146101225761007d565b8063017e7d8f1461008257806344936b10146100a05780637a2dbb6f146100be575b600080fd5b61008a610140565b60405161009791906104bf565b60405180910390f35b6100a8610160565b6040516100b591906104f3565b60405180910390f35b6100c6610194565b6040516100d391906104bf565b60405180910390f35b6100e46101b4565b6040516100f1919061052c565b60405180910390f35b6101026101c9565b005b61010c6101d3565b60405161011991906104f3565b60405180910390f35b61012a6102e2565b60405161013791906104bf565b60405180910390f35b600260009054906101000a90046dffffffffffffffffffffffffffff1681565b6000600260009054906101000a90046dffffffffffffffffffffffffffff166dffffffffffffffffffffffffffff16905090565b600160009054906101000a90046dffffffffffffffffffffffffffff1681565b6002600e9054906101000a900462ffffff1681565b6101d1610302565b565b60008060008054906101000a900473ffffffffffffffffffffffffffffffffffffffff1673ffffffffffffffffffffffffffffffffffffffff1663e67cdafd6040518163ffffffff1660e01b8152600401602060405180830381865afa158015610241573d6000803e3d6000fd5b505050506040513d601f19601f8201168201806040525081019061026591906105aa565b905060008173ffffffffffffffffffffffffffffffffffffffff1663ed3b657a6040518163ffffffff1660e01b8152600401602060405180830381865afa1580156102b4573d6000803e3d6000fd5b505050506040513d601f19601f820116820180604052508101906102d89190610603565b9050809250505090565b6001600e9054906101000a90046dffffffffffffffffffffffffffff1681565b600061030c6101d3565b905060006002600e9054906101000a900462ffffff1662ffffff1661271083610335919061065f565b61033f91906106d0565b9050600061037982600160009054906101000a90046dffffffffffffffffffffffffffff166dffffffffffffffffffffffffffff1661047d565b90506103b182600160009054906101000a90046dffffffffffffffffffffffffffff166dffffffffffffffffffffffffffff1661047d565b600260006101000a8154816dffffffffffffffffffffffffffff02191690836dffffffffffffffffffffffffffff1602179055507f6e87c25e322c4ad68faf7916d0788baaf714d806fe887a84ee4b84ad9666f6866001600e9054906101000a90046dffffffffffffffffffffffffffff16600260009054906101000a90046dffffffffffffffffffffffffffff16600160009054906101000a90046dffffffffffffffffffffffffffff16858760405161047095949392919061073c565b60405180910390a1505050565b600081831161048c578161048e565b825b905092915050565b60006dffffffffffffffffffffffffffff82169050919050565b6104b981610496565b82525050565b60006020820190506104d460008301846104b0565b92915050565b6000819050919050565b6104ed816104da565b82525050565b600060208201905061050860008301846104e4565b92915050565b600062ffffff82169050919050565b6105268161050e565b82525050565b6000602082019050610541600083018461051d565b92915050565b600080fd5b600073ffffffffffffffffffffffffffffffffffffffff82169050919050565b60006105778261054c565b9050919050565b6105878161056c565b811461059257600080fd5b50565b6000815190506105a48161057e565b92915050565b6000602082840312156105c0576105bf610547565b5b60006105ce84828501610595565b91505092915050565b6105e0816104da565b81146105eb57600080fd5b50565b6000815190506105fd816105d7565b92915050565b60006020828403121561061957610618610547565b5b6000610627848285016105ee565b91505092915050565b7f4e487b7100000000000000000000000000000000000000000000000000000000600052601160045260246000fd5b600061066a826104da565b9150610675836104da565b9250828202610683816104da565b9150828204841483151761069a57610699610630565b5b5092915050565b7f4e487b7100000000000000000000000000000000000000000000000000000000600052601260045260246000fd5b60006106db826104da565b91506106e6836104da565b9250826106f6576106f56106a1565b5b828204905092915050565b6000819050919050565b600061072661072161071c84610496565b610701565b6104da565b9050919050565b6107368161070b565b82525050565b600060a082019050610751600083018861072d565b61075e602083018761072d565b61076b604083018661072d565b61077860608301856104e4565b61078560808301846104e4565b969550505050505056fea2646970667358221220b28ae339143e2159bf827604d0fe70710fbc209fe4571558b377e869a446ad9064736f6c63430008130033",
					"opcodes": "PUSH1 0x80 PUSH1 0x40 MSTORE PUSH2 0x2710 PUSH1 0x1 PUSH1 0x0 PUSH2 0x100 EXP DUP2 SLOAD DUP2 PUSH14 0xFFFFFFFFFFFFFFFFFFFFFFFFFFFF MUL NOT AND SWAP1 DUP4 PUSH14 0xFFFFFFFFFFFFFFFFFFFFFFFFFFFF AND MUL OR SWAP1 SSTORE POP PUSH2 0xBB80 PUSH1 0x2 PUSH1 0xE PUSH2 0x100 EXP DUP2 SLOAD DUP2 PUSH3 0xFFFFFF MUL NOT AND SWAP1 DUP4 PUSH3 0xFFFFFF AND MUL OR SWAP1 SSTORE POP CALLVALUE DUP1 ISZERO PUSH2 0x68 JUMPI PUSH1 0x0 DUP1 REVERT JUMPDEST POP PUSH1 0x40 MLOAD PUSH2 0x934 CODESIZE SUB DUP1 PUSH2 0x934 DUP4 CODECOPY DUP2 DUP2 ADD PUSH1 0x40 MSTORE DUP2 ADD SWAP1 PUSH2 0x8A SWAP2 SWAP1 PUSH2 0x133 JUMP JUMPDEST DUP1 PUSH1 0x0 DUP1 PUSH2 0x100 EXP DUP2 SLOAD DUP2 PUSH20 0xFFFFFFFFFFFFFFFFFFFFFFFFFFFFFFFFFFFFFFFF MUL NOT AND SWAP1 DUP4 PUSH20 0xFFFFFFFFFFFFFFFFFFFFFFFFFFFFFFFFFFFFFFFF AND MUL OR SWAP1 SSTORE POP POP PUSH2 0x160 JUMP JUMPDEST PUSH1 0x0 DUP1 REVERT JUMPDEST PUSH1 0x0 PUSH20 0xFFFFFFFFFFFFFFFFFFFFFFFFFFFFFFFFFFFFFFFF DUP3 AND SWAP1 POP SWAP2 SWAP1 POP JUMP JUMPDEST PUSH1 0x0 PUSH2 0x100 DUP3 PUSH2 0xD5 JUMP JUMPDEST SWAP1 POP SWAP2 SWAP1 POP JUMP JUMPDEST PUSH2 0x110 DUP2 PUSH2 0xF5 JUMP JUMPDEST DUP2 EQ PUSH2 0x11B JUMPI PUSH1 0x0 DUP1 REVERT JUMPDEST POP JUMP JUMPDEST PUSH1 0x0 DUP2 MLOAD SWAP1 POP PUSH2 0x12D DUP2 PUSH2 0x107 JUMP JUMPDEST SWAP3 SWAP2 POP POP JUMP JUMPDEST PUSH1 0x0 PUSH1 0x20 DUP3 DUP5 SUB SLT ISZERO PUSH2 0x149 JUMPI PUSH2 0x148 PUSH2 0xD0 JUMP JUMPDEST JUMPDEST PUSH1 0x0 PUSH2 0x157 DUP5 DUP3 DUP6 ADD PUSH2 0x11E JUMP JUMPDEST SWAP2 POP POP SWAP3 SWAP2 POP POP JUMP JUMPDEST PUSH2 0x7C5 DUP1 PUSH2 0x16F PUSH1 0x0 CODECOPY PUSH1 0x0 RETURN INVALID PUSH1 0x80 PUSH1 0x40 MSTORE CALLVALUE DUP1 ISZERO PUSH2 0x10 JUMPI PUSH1 0x0 DUP1 REVERT JUMPDEST POP PUSH1 0x4 CALLDATASIZE LT PUSH2 0x7D JUMPI PUSH1 0x0 CALLDATALOAD PUSH1 0xE0 SHR DUP1 PUSH4 0xA8A41A68 GT PUSH2 0x5B JUMPI DUP1 PUSH4 0xA8A41A68 EQ PUSH2 0xDC JUMPI DUP1 PUSH4 0xAA5DA046 EQ PUSH2 0xFA JUMPI DUP1 PUSH4 0xB3452487 EQ PUSH2 0x104 JUMPI DUP1 PUSH4 0xB8CAEDC4 EQ PUSH2 0x122 JUMPI PUSH2 0x7D JUMP JUMPDEST DUP1 PUSH4 0x17E7D8F EQ PUSH2 0x82 JUMPI DUP1 PUSH4 0x44936B10 EQ PUSH2 0xA0 JUMPI DUP1 PUSH4 0x7A2DBB6F EQ PUSH2 0xBE JUMPI JUMPDEST PUSH1 0x0 DUP1 REVERT JUMPDEST PUSH2 0x8A PUSH2 0x140 JUMP JUMPDEST PUSH1 0x40 MLOAD PUSH2 0x97 SWAP2 SWAP1 PUSH2 0x4BF JUMP JUMPDEST PUSH1 0x40 MLOAD DUP1 SWAP2 SUB SWAP1 RETURN JUMPDEST PUSH2 0xA8 PUSH2 0x160 JUMP JUMPDEST PUSH1 0x40 MLOAD PUSH2 0xB5 SWAP2 SWAP1 PUSH2 0x4F3 JUMP JUMPDEST PUSH1 0x40 MLOAD DUP1 SWAP2 SUB SWAP1 RETURN JUMPDEST PUSH2 0xC6 PUSH2 0x194 JUMP JUMPDEST PUSH1 0x40 MLOAD PUSH2 0xD3 SWAP2 SWAP1 PUSH2 0x4BF JUMP JUMPDEST PUSH1 0x40 MLOAD DUP1 SWAP2 SUB SWAP1 RETURN JUMPDEST PUSH2 0xE4 PUSH2 0x1B4 JUMP JUMPDEST PUSH1 0x40 MLOAD PUSH2 0xF1 SWAP2 SWAP1 PUSH2 0x52C JUMP JUMPDEST PUSH1 0x40 MLOAD DUP1 SWAP2 SUB SWAP1 RETURN JUMPDEST PUSH2 0x102 PUSH2 0x1C9 JUMP JUMPDEST STOP JUMPDEST PUSH2 0x10C PUSH2 0x1D3 JUMP JUMPDEST PUSH1 0x40 MLOAD PUSH2 0x119 SWAP2 SWAP1 PUSH2 0x4F3 JUMP JUMPDEST PUSH1 0x40 MLOAD DUP1 SWAP2 SUB SWAP1 RETURN JUMPDEST PUSH2 0x12A PUSH2 0x2E2 JUMP JUMPDEST PUSH1 0x40 MLOAD PUSH2 0x137 SWAP2 SWAP1 PUSH2 0x4BF JUMP JUMPDEST PUSH1 0x40 MLOAD DUP1 SWAP2 SUB SWAP1 RETURN JUMPDEST PUSH1 0x2 PUSH1 0x0 SWAP1 SLOAD SWAP1 PUSH2 0x100 EXP SWAP1 DIV PUSH14 0xFFFFFFFFFFFFFFFFFFFFFFFFFFFF AND DUP2 JUMP JUMPDEST PUSH1 0x0 PUSH1 0x2 PUSH1 0x0 SWAP1 SLOAD SWAP1 PUSH2 0x100 EXP SWAP1 DIV PUSH14 0xFFFFFFFFFFFFFFFFFFFFFFFFFFFF AND PUSH14 0xFFFFFFFFFFFFFFFFFFFFFFFFFFFF AND SWAP1 POP SWAP1 JUMP JUMPDEST PUSH1 0x1 PUSH1 0x0 SWAP1 SLOAD SWAP1 PUSH2 0x100 EXP SWAP1 DIV PUSH14 0xFFFFFFFFFFFFFFFFFFFFFFFFFFFF AND DUP2 JUMP JUMPDEST PUSH1 0x2 PUSH1 0xE SWAP1 SLOAD SWAP1 PUSH2 0x100 EXP SWAP1 DIV PUSH3 0xFFFFFF AND DUP2 JUMP JUMPDEST PUSH2 0x1D1 PUSH2 0x302 JUMP JUMPDEST JUMP JUMPDEST PUSH1 0x0 DUP1 PUSH1 0x0 DUP1 SLOAD SWAP1 PUSH2 0x100 EXP SWAP1 DIV PUSH20 0xFFFFFFFFFFFFFFFFFFFFFFFFFFFFFFFFFFFFFFFF AND PUSH20 0xFFFFFFFFFFFFFFFFFFFFFFFFFFFFFFFFFFFFFFFF AND PUSH4 0xE67CDAFD PUSH1 0x40 MLOAD DUP2 PUSH4 0xFFFFFFFF AND PUSH1 0xE0 SHL DUP2 MSTORE PUSH1 0x4 ADD PUSH1 0x20 PUSH1 0x40 MLOAD DUP1 DUP4 SUB DUP2 DUP7 GAS STATICCALL ISZERO DUP1 ISZERO PUSH2 0x241 JUMPI RETURNDATASIZE PUSH1 0x0 DUP1 RETURNDATACOPY RETURNDATASIZE PUSH1 0x0 REVERT JUMPDEST POP POP POP POP PUSH1 0x40 MLOAD RETURNDATASIZE PUSH1 0x1F NOT PUSH1 0x1F DUP3 ADD AND DUP3 ADD DUP1 PUSH1 0x40 MSTORE POP DUP2 ADD SWAP1 PUSH2 0x265 SWAP2 SWAP1 PUSH2 0x5AA JUMP JUMPDEST SWAP1 POP PUSH1 0x0 DUP2 PUSH20 0xFFFFFFFFFFFFFFFFFFFFFFFFFFFFFFFFFFFFFFFF AND PUSH4 0xED3B657A PUSH1 0x40 MLOAD DUP2 PUSH4 0xFFFFFFFF AND PUSH1 0xE0 SHL DUP2 MSTORE PUSH1 0x4 ADD PUSH1 0x20 PUSH1 0x40 MLOAD DUP1 DUP4 SUB DUP2 DUP7 GAS STATICCALL ISZERO DUP1 ISZERO PUSH2 0x2B4 JUMPI RETURNDATASIZE PUSH1 0x0 DUP1 RETURNDATACOPY RETURNDATASIZE PUSH1 0x0 REVERT JUMPDEST POP POP POP POP PUSH1 0x40 MLOAD RETURNDATASIZE PUSH1 0x1F NOT PUSH1 0x1F DUP3 ADD AND DUP3 ADD DUP1 PUSH1 0x40 MSTORE POP DUP2 ADD SWAP1 PUSH2 0x2D8 SWAP2 SWAP1 PUSH2 0x603 JUMP JUMPDEST SWAP1 POP DUP1 SWAP3 POP POP POP SWAP1 JUMP JUMPDEST PUSH1 0x1 PUSH1 0xE SWAP1 SLOAD SWAP1 PUSH2 0x100 EXP SWAP1 DIV PUSH14 0xFFFFFFFFFFFFFFFFFFFFFFFFFFFF AND DUP2 JUMP JUMPDEST PUSH1 0x0 PUSH2 0x30C PUSH2 0x1D3 JUMP JUMPDEST SWAP1 POP PUSH1 0x0 PUSH1 0x2 PUSH1 0xE SWAP1 SLOAD SWAP1 PUSH2 0x100 EXP SWAP1 DIV PUSH3 0xFFFFFF AND PUSH3 0xFFFFFF AND PUSH2 0x2710 DUP4 PUSH2 0x335 SWAP2 SWAP1 PUSH2 0x65F JUMP JUMPDEST PUSH2 0x33F SWAP2 SWAP1 PUSH2 0x6D0 JUMP JUMPDEST SWAP1 POP PUSH1 0x0 PUSH2 0x379 DUP3 PUSH1 0x1 PUSH1 0x0 SWAP1 SLOAD SWAP1 PUSH2 0x100 EXP SWAP1 DIV PUSH14 0xFFFFFFFFFFFFFFFFFFFFFFFFFFFF AND PUSH14 0xFFFFFFFFFFFFFFFFFFFFFFFFFFFF AND PUSH2 0x47D JUMP JUMPDEST SWAP1 POP PUSH2 0x3B1 DUP3 PUSH1 0x1 PUSH1 0x0 SWAP1 SLOAD SWAP1 PUSH2 0x100 EXP SWAP1 DIV PUSH14 0xFFFFFFFFFFFFFFFFFFFFFFFFFFFF AND PUSH14 0xFFFFFFFFFFFFFFFFFFFFFFFFFFFF AND PUSH2 0x47D JUMP JUMPDEST PUSH1 0x2 PUSH1 0x0 PUSH2 0x100 EXP DUP2 SLOAD DUP2 PUSH14 0xFFFFFFFFFFFFFFFFFFFFFFFFFFFF MUL NOT AND SWAP1 DUP4 PUSH14 0xFFFFFFFFFFFFFFFFFFFFFFFFFFFF AND MUL OR SWAP1 SSTORE POP PUSH32 0x6E87C25E322C4AD68FAF7916D0788BAAF714D806FE887A84EE4B84AD9666F686 PUSH1 0x1 PUSH1 0xE SWAP1 SLOAD SWAP1 PUSH2 0x100 EXP SWAP1 DIV PUSH14 0xFFFFFFFFFFFFFFFFFFFFFFFFFFFF AND PUSH1 0x2 PUSH1 0x0 SWAP1 SLOAD SWAP1 PUSH2 0x100 EXP SWAP1 DIV PUSH14 0xFFFFFFFFFFFFFFFFFFFFFFFFFFFF AND PUSH1 0x1 PUSH1 0x0 SWAP1 SLOAD SWAP1 PUSH2 0x100 EXP SWAP1 DIV PUSH14 0xFFFFFFFFFFFFFFFFFFFFFFFFFFFF AND DUP6 DUP8 PUSH1 0x40 MLOAD PUSH2 0x470 SWAP6 SWAP5 SWAP4 SWAP3 SWAP2 SWAP1 PUSH2 0x73C JUMP JUMPDEST PUSH1 0x40 MLOAD DUP1 SWAP2 SUB SWAP1 LOG1 POP POP POP JUMP JUMPDEST PUSH1 0x0 DUP2 DUP4 GT PUSH2 0x48C JUMPI DUP2 PUSH2 0x48E JUMP JUMPDEST DUP3 JUMPDEST SWAP1 POP SWAP3 SWAP2 POP POP JUMP JUMPDEST PUSH1 0x0 PUSH14 0xFFFFFFFFFFFFFFFFFFFFFFFFFFFF DUP3 AND SWAP1 POP SWAP2 SWAP1 POP JUMP JUMPDEST PUSH2 0x4B9 DUP2 PUSH2 0x496 JUMP JUMPDEST DUP3 MSTORE POP POP JUMP JUMPDEST PUSH1 0x0 PUSH1 0x20 DUP3 ADD SWAP1 POP PUSH2 0x4D4 PUSH1 0x0 DUP4 ADD DUP5 PUSH2 0x4B0 JUMP JUMPDEST SWAP3 SWAP2 POP POP JUMP JUMPDEST PUSH1 0x0 DUP2 SWAP1 POP SWAP2 SWAP1 POP JUMP JUMPDEST PUSH2 0x4ED DUP2 PUSH2 0x4DA JUMP JUMPDEST DUP3 MSTORE POP POP JUMP JUMPDEST PUSH1 0x0 PUSH1 0x20 DUP3 ADD SWAP1 POP PUSH2 0x508 PUSH1 0x0 DUP4 ADD DUP5 PUSH2 0x4E4 JUMP JUMPDEST SWAP3 SWAP2 POP POP JUMP JUMPDEST PUSH1 0x0 PUSH3 0xFFFFFF DUP3 AND SWAP1 POP SWAP2 SWAP1 POP JUMP JUMPDEST PUSH2 0x526 DUP2 PUSH2 0x50E JUMP JUMPDEST DUP3 MSTORE POP POP JUMP JUMPDEST PUSH1 0x0 PUSH1 0x20 DUP3 ADD SWAP1 POP PUSH2 0x541 PUSH1 0x0 DUP4 ADD DUP5 PUSH2 0x51D JUMP JUMPDEST SWAP3 SWAP2 POP POP JUMP JUMPDEST PUSH1 0x0 DUP1 REVERT JUMPDEST PUSH1 0x0 PUSH20 0xFFFFFFFFFFFFFFFFFFFFFFFFFFFFFFFFFFFFFFFF DUP3 AND SWAP1 POP SWAP2 SWAP1 POP JUMP JUMPDEST PUSH1 0x0 PUSH2 0x577 DUP3 PUSH2 0x54C JUMP JUMPDEST SWAP1 POP SWAP2 SWAP1 POP JUMP JUMPDEST PUSH2 0x587 DUP2 PUSH2 0x56C JUMP JUMPDEST DUP2 EQ PUSH2 0x592 JUMPI PUSH1 0x0 DUP1 REVERT JUMPDEST POP JUMP JUMPDEST PUSH1 0x0 DUP2 MLOAD SWAP1 POP PUSH2 0x5A4 DUP2 PUSH2 0x57E JUMP JUMPDEST SWAP3 SWAP2 POP POP JUMP JUMPDEST PUSH1 0x0 PUSH1 0x20 DUP3 DUP5 SUB SLT ISZERO PUSH2 0x5C0 JUMPI PUSH2 0x5BF PUSH2 0x547 JUMP JUMPDEST JUMPDEST PUSH1 0x0 PUSH2 0x5CE DUP5 DUP3 DUP6 ADD PUSH2 0x595 JUMP JUMPDEST SWAP2 POP POP SWAP3 SWAP2 POP POP JUMP JUMPDEST PUSH2 0x5E0 DUP2 PUSH2 0x4DA JUMP JUMPDEST DUP2 EQ PUSH2 0x5EB JUMPI PUSH1 0x0 DUP1 REVERT JUMPDEST POP JUMP JUMPDEST PUSH1 0x0 DUP2 MLOAD SWAP1 POP PUSH2 0x5FD DUP2 PUSH2 0x5D7 JUMP JUMPDEST SWAP3 SWAP2 POP POP JUMP JUMPDEST PUSH1 0x0 PUSH1 0x20 DUP3 DUP5 SUB SLT ISZERO PUSH2 0x619 JUMPI PUSH2 0x618 PUSH2 0x547 JUMP JUMPDEST JUMPDEST PUSH1 0x0 PUSH2 0x627 DUP5 DUP3 DUP6 ADD PUSH2 0x5EE JUMP JUMPDEST SWAP2 POP POP SWAP3 SWAP2 POP POP JUMP JUMPDEST PUSH32 0x4E487B7100000000000000000000000000000000000000000000000000000000 PUSH1 0x0 MSTORE PUSH1 0x11 PUSH1 0x4 MSTORE PUSH1 0x24 PUSH1 0x0 REVERT JUMPDEST PUSH1 0x0 PUSH2 0x66A DUP3 PUSH2 0x4DA JUMP JUMPDEST SWAP2 POP PUSH2 0x675 DUP4 PUSH2 0x4DA JUMP JUMPDEST SWAP3 POP DUP3 DUP3 MUL PUSH2 0x683 DUP2 PUSH2 0x4DA JUMP JUMPDEST SWAP2 POP DUP3 DUP3 DIV DUP5 EQ DUP4 ISZERO OR PUSH2 0x69A JUMPI PUSH2 0x699 PUSH2 0x630 JUMP JUMPDEST JUMPDEST POP SWAP3 SWAP2 POP POP JUMP JUMPDEST PUSH32 0x4E487B7100000000000000000000000000000000000000000000000000000000 PUSH1 0x0 MSTORE PUSH1 0x12 PUSH1 0x4 MSTORE PUSH1 0x24 PUSH1 0x0 REVERT JUMPDEST PUSH1 0x0 PUSH2 0x6DB DUP3 PUSH2 0x4DA JUMP JUMPDEST SWAP2 POP PUSH2 0x6E6 DUP4 PUSH2 0x4DA JUMP JUMPDEST SWAP3 POP DUP3 PUSH2 0x6F6 JUMPI PUSH2 0x6F5 PUSH2 0x6A1 JUMP JUMPDEST JUMPDEST DUP3 DUP3 DIV SWAP1 POP SWAP3 SWAP2 POP POP JUMP JUMPDEST PUSH1 0x0 DUP2 SWAP1 POP SWAP2 SWAP1 POP JUMP JUMPDEST PUSH1 0x0 PUSH2 0x726 PUSH2 0x721 PUSH2 0x71C DUP5 PUSH2 0x496 JUMP JUMPDEST PUSH2 0x701 JUMP JUMPDEST PUSH2 0x4DA JUMP JUMPDEST SWAP1 POP SWAP2 SWAP1 POP JUMP JUMPDEST PUSH2 0x736 DUP2 PUSH2 0x70B JUMP JUMPDEST DUP3 MSTORE POP POP JUMP JUMPDEST PUSH1 0x0 PUSH1 0xA0 DUP3 ADD SWAP1 POP PUSH2 0x751 PUSH1 0x0 DUP4 ADD DUP9 PUSH2 0x72D JUMP JUMPDEST PUSH2 0x75E PUSH1 0x20 DUP4 ADD DUP8 PUSH2 0x72D JUMP JUMPDEST PUSH2 0x76B PUSH1 0x40 DUP4 ADD DUP7 PUSH2 0x72D JUMP JUMPDEST PUSH2 0x778 PUSH1 0x60 DUP4 ADD DUP6 PUSH2 0x4E4 JUMP JUMPDEST PUSH2 0x785 PUSH1 0x80 DUP4 ADD DUP5 PUSH2 0x4E4 JUMP JUMPDEST SWAP7 SWAP6 POP POP POP POP POP POP JUMP INVALID LOG2 PUSH5 0x6970667358 0x22 SLT KECCAK256 0xB2 DUP11 0xE3 CODECOPY EQ RETURNDATACOPY 0x21 MSIZE 0xBF DUP3 PUSH23 0x4D0FE70710FBC209FE4571558B377E869A446AD906473 PUSH16 0x6C634300081300330000000000000000 "
				},
				"gasEstimates": {
					"creation": {
						"codeDepositCost": "397800",
						"executionCost": "infinite",
						"totalCost": "infinite"
					},
					"external": {
						"desiredMCR()": "2472",
						"gearingFactor()": "2521",
						"getAllSumAssurance()": "infinite",
						"getMCR()": "2502",
						"mcr()": "2587",
						"mcrFloor()": "2516",
						"updateMCRInternal()": "infinite"
					},
					"internal": {
						"_updateMCR()": "infinite"
					}
				},
				"methodIdentifiers": {
					"desiredMCR()": "017e7d8f",
					"gearingFactor()": "a8a41a68",
					"getAllSumAssurance()": "b3452487",
					"getMCR()": "44936b10",
					"mcr()": "b8caedc4",
					"mcrFloor()": "7a2dbb6f",
					"updateMCRInternal()": "aa5da046"
				}
			},
			"storageLayout": {
				"storage": [
					{
						"astId": 96,
						"contract": "contracts/capital/MCR.sol:MCR",
						"label": "master",
						"offset": 0,
						"slot": "0",
						"type": "t_contract(Master)82"
					},
					{
						"astId": 99,
						"contract": "contracts/capital/MCR.sol:MCR",
						"label": "mcrFloor",
						"offset": 0,
						"slot": "1",
						"type": "t_uint112"
					},
					{
						"astId": 101,
						"contract": "contracts/capital/MCR.sol:MCR",
						"label": "mcr",
						"offset": 14,
						"slot": "1",
						"type": "t_uint112"
					},
					{
						"astId": 103,
						"contract": "contracts/capital/MCR.sol:MCR",
						"label": "desiredMCR",
						"offset": 0,
						"slot": "2",
						"type": "t_uint112"
					},
					{
						"astId": 106,
						"contract": "contracts/capital/MCR.sol:MCR",
						"label": "gearingFactor",
						"offset": 14,
						"slot": "2",
						"type": "t_uint24"
					}
				],
				"types": {
					"t_contract(Master)82": {
						"encoding": "inplace",
						"label": "contract Master",
						"numberOfBytes": "20"
					},
					"t_uint112": {
						"encoding": "inplace",
						"label": "uint112",
						"numberOfBytes": "14"
					},
					"t_uint24": {
						"encoding": "inplace",
						"label": "uint24",
						"numberOfBytes": "3"
					}
				}
			},
			"userdoc": {
				"kind": "user",
				"methods": {},
				"version": 1
			}
		}
	}
}