{
	"contracts/capital/Pool.sol": {
		"Pool": {
			"abi": [
				{
					"inputs": [
						{
							"internalType": "address",
							"name": "_HEDHTokenAddress",
							"type": "address"
						},
						{
							"internalType": "address",
							"name": "_master",
							"type": "address"
						}
					],
					"stateMutability": "nonpayable",
					"type": "constructor"
				},
				{
					"anonymous": false,
					"inputs": [
						{
							"indexed": true,
							"internalType": "address",
							"name": "member",
							"type": "address"
						},
						{
							"indexed": false,
							"internalType": "uint256",
							"name": "ethIn",
							"type": "uint256"
						},
						{
							"indexed": false,
							"internalType": "uint256",
							"name": "nxmOut",
							"type": "uint256"
						}
					],
					"name": "HEDHBought",
					"type": "event"
				},
				{
					"anonymous": false,
					"inputs": [
						{
							"indexed": true,
							"internalType": "address",
							"name": "member",
							"type": "address"
						},
						{
							"indexed": false,
							"internalType": "uint256",
							"name": "nxmIn",
							"type": "uint256"
						},
						{
							"indexed": false,
							"internalType": "uint256",
							"name": "ethOut",
							"type": "uint256"
						}
					],
					"name": "HEDHSold",
					"type": "event"
				},
				{
					"anonymous": false,
					"inputs": [
						{
							"indexed": true,
							"internalType": "address",
							"name": "to",
							"type": "address"
						},
						{
							"indexed": false,
							"internalType": "uint256",
							"name": "amount",
							"type": "uint256"
						}
					],
					"name": "Payout",
					"type": "event"
				},
				{
					"stateMutability": "payable",
					"type": "fallback"
				},
				{
					"inputs": [],
					"name": "MAX_BUY_SELL_MCR_ETH_FRACTION",
					"outputs": [
						{
							"internalType": "uint256",
							"name": "",
							"type": "uint256"
						}
					],
					"stateMutability": "view",
					"type": "function"
				},
				{
					"inputs": [],
					"name": "MAX_MCR_RATIO",
					"outputs": [
						{
							"internalType": "uint256",
							"name": "",
							"type": "uint256"
						}
					],
					"stateMutability": "view",
					"type": "function"
				},
				{
					"inputs": [],
					"name": "MCR_RATIO_DECIMALS",
					"outputs": [
						{
							"internalType": "uint256",
							"name": "",
							"type": "uint256"
						}
					],
					"stateMutability": "view",
					"type": "function"
				},
				{
					"inputs": [
						{
							"internalType": "uint256",
							"name": "minTokensOut",
							"type": "uint256"
						}
					],
					"name": "buyHEDH",
					"outputs": [],
					"stateMutability": "payable",
					"type": "function"
				},
				{
					"inputs": [
						{
							"internalType": "uint256",
							"name": "nxmAmount",
							"type": "uint256"
						},
						{
							"internalType": "uint256",
							"name": "currentTotalAssetValue",
							"type": "uint256"
						},
						{
							"internalType": "uint256",
							"name": "mcrEth",
							"type": "uint256"
						}
					],
					"name": "calculateEthForHEDH",
					"outputs": [
						{
							"internalType": "uint256",
							"name": "",
							"type": "uint256"
						}
					],
					"stateMutability": "pure",
					"type": "function"
				},
				{
					"inputs": [
						{
							"internalType": "uint256",
							"name": "ethAmount",
							"type": "uint256"
						},
						{
							"internalType": "uint256",
							"name": "currentTotalAssetValue",
							"type": "uint256"
						},
						{
							"internalType": "uint256",
							"name": "mcrEth",
							"type": "uint256"
						}
					],
					"name": "calculateHEDHForEth",
					"outputs": [
						{
							"internalType": "uint256",
							"name": "",
							"type": "uint256"
						}
					],
					"stateMutability": "pure",
					"type": "function"
				},
				{
					"inputs": [
						{
							"internalType": "uint256",
							"name": "totalAssetValue",
							"type": "uint256"
						},
						{
							"internalType": "uint256",
							"name": "mcrEth",
							"type": "uint256"
						}
					],
					"name": "calculateMCRRatio",
					"outputs": [
						{
							"internalType": "uint256",
							"name": "",
							"type": "uint256"
						}
					],
					"stateMutability": "pure",
					"type": "function"
				},
				{
					"inputs": [
						{
							"internalType": "uint256",
							"name": "totalAssetValue",
							"type": "uint256"
						},
						{
							"internalType": "uint256",
							"name": "mcrEth",
							"type": "uint256"
						}
					],
					"name": "calculateTokenSpotPrice",
					"outputs": [
						{
							"internalType": "uint256",
							"name": "tokenPrice",
							"type": "uint256"
						}
					],
					"stateMutability": "pure",
					"type": "function"
				},
				{
					"inputs": [
						{
							"internalType": "uint256",
							"name": "hedhAmount",
							"type": "uint256"
						}
					],
					"name": "getEthForHEDH",
					"outputs": [
						{
							"internalType": "uint256",
							"name": "ethAmount",
							"type": "uint256"
						}
					],
					"stateMutability": "view",
					"type": "function"
				},
				{
					"inputs": [
						{
							"internalType": "uint256",
							"name": "ethAmount",
							"type": "uint256"
						}
					],
					"name": "getHEDHForEth",
					"outputs": [
						{
							"internalType": "uint256",
							"name": "",
							"type": "uint256"
						}
					],
					"stateMutability": "view",
					"type": "function"
				},
				{
					"inputs": [
						{
							"internalType": "uint256",
							"name": "tokenAmount",
							"type": "uint256"
						},
						{
							"internalType": "uint256",
							"name": "minEthOut",
							"type": "uint256"
						}
					],
					"name": "sellHEDH",
					"outputs": [],
					"stateMutability": "nonpayable",
					"type": "function"
				},
				{
					"inputs": [
						{
							"internalType": "uint256",
							"name": "amount",
							"type": "uint256"
						}
					],
					"name": "sellHEDHTokens",
					"outputs": [
						{
							"internalType": "bool",
							"name": "success",
							"type": "bool"
						}
					],
					"stateMutability": "nonpayable",
					"type": "function"
				},
				{
					"inputs": [
						{
							"internalType": "address payable",
							"name": "payoutAddress",
							"type": "address"
						},
						{
							"internalType": "uint256",
							"name": "amount",
							"type": "uint256"
						}
					],
					"name": "sendPayout",
					"outputs": [],
					"stateMutability": "nonpayable",
					"type": "function"
				},
				{
					"stateMutability": "payable",
					"type": "receive"
				}
			],
			"devdoc": {
				"kind": "dev",
				"methods": {
					"buyHEDH(uint256)": {
						"params": {
							"minTokensOut": "Minimum amount of tokens to be bought. Revert if boughtTokens falls below this number."
						}
					},
					"calculateEthForHEDH(uint256,uint256,uint256)": {
						"details": "Computes token sell value for a tokenAmount in ETH with a sell spread of 2.5%. for values in ETH of the sale <= 1% * MCReth the sell spread is very close to the exact value of 2.5%. for values higher than that sell spread may exceed 2.5% (The higher amount being sold at any given time the higher the spread)"
					},
					"getHEDHForEth(uint256)": {
						"params": {
							"ethAmount": "Amount of ETH used for buying."
						},
						"returns": {
							"_0": "tokenValue  Tokens obtained by buying worth of ethAmount"
						}
					},
					"sellHEDH(uint256,uint256)": {
						"params": {
							"minEthOut": "Minimum amount of ETH to be received. Revert if ethOut falls below this number.",
							"tokenAmount": "Amount of tokens to sell."
						}
					}
				},
				"version": 1
			},
			"evm": {
				"assembly": "    /* \"contracts/capital/Pool.sol\":186:11080  contract Pool is IPool {... */\n  mstore(0x40, 0x80)\n    /* \"contracts/capital/Pool.sol\":634:635  1 */\n  0x01\n    /* \"contracts/capital/Pool.sol\":614:635  uint minTokensOut = 1 */\n  0x00\n  sstore\n    /* \"contracts/capital/Pool.sol\":905:1054  constructor ( address _HEDHTokenAddress, address _master) {... */\n  callvalue\n  dup1\n  iszero\n  tag_1\n  jumpi\n  0x00\n  dup1\n  revert\ntag_1:\n  pop\n  mload(0x40)\n  sub(codesize, bytecodeSize)\n  dup1\n  bytecodeSize\n  dup4\n  codecopy\n  dup2\n  dup2\n  add\n  0x40\n  mstore\n  dup2\n  add\n  swap1\n  tag_2\n  swap2\n  swap1\n  tag_3\n  jump\t// in\ntag_2:\n    /* \"contracts/capital/Pool.sol\":995:1012  _HEDHTokenAddress */\n  dup2\n    /* \"contracts/capital/Pool.sol\":973:982  hedhToken */\n  0x01\n  0x00\n    /* \"contracts/capital/Pool.sol\":973:1013  hedhToken = HEDHToken(_HEDHTokenAddress) */\n  0x0100\n  exp\n  dup2\n  sload\n  dup2\n  0xffffffffffffffffffffffffffffffffffffffff\n  mul\n  not\n  and\n  swap1\n  dup4\n  0xffffffffffffffffffffffffffffffffffffffff\n  and\n  mul\n  or\n  swap1\n  sstore\n  pop\n    /* \"contracts/capital/Pool.sol\":1039:1046  _master */\n  dup1\n    /* \"contracts/capital/Pool.sol\":1023:1029  master */\n  0x02\n  0x00\n    /* \"contracts/capital/Pool.sol\":1023:1047  master = Master(_master) */\n  0x0100\n  exp\n  dup2\n  sload\n  dup2\n  0xffffffffffffffffffffffffffffffffffffffff\n  mul\n  not\n  and\n  swap1\n  dup4\n  0xffffffffffffffffffffffffffffffffffffffff\n  and\n  mul\n  or\n  swap1\n  sstore\n  pop\n    /* \"contracts/capital/Pool.sol\":905:1054  constructor ( address _HEDHTokenAddress, address _master) {... */\n  pop\n  pop\n    /* \"contracts/capital/Pool.sol\":186:11080  contract Pool is IPool {... */\n  jump(tag_6)\n    /* \"#utility.yul\":88:205   */\ntag_8:\n    /* \"#utility.yul\":197:198   */\n  0x00\n    /* \"#utility.yul\":194:195   */\n  dup1\n    /* \"#utility.yul\":187:199   */\n  revert\n    /* \"#utility.yul\":334:460   */\ntag_10:\n    /* \"#utility.yul\":371:378   */\n  0x00\n    /* \"#utility.yul\":411:453   */\n  0xffffffffffffffffffffffffffffffffffffffff\n    /* \"#utility.yul\":404:409   */\n  dup3\n    /* \"#utility.yul\":400:454   */\n  and\n    /* \"#utility.yul\":389:454   */\n  swap1\n  pop\n    /* \"#utility.yul\":334:460   */\n  swap2\n  swap1\n  pop\n  jump\t// out\n    /* \"#utility.yul\":466:562   */\ntag_11:\n    /* \"#utility.yul\":503:510   */\n  0x00\n    /* \"#utility.yul\":532:556   */\n  tag_20\n    /* \"#utility.yul\":550:555   */\n  dup3\n    /* \"#utility.yul\":532:556   */\n  tag_10\n  jump\t// in\ntag_20:\n    /* \"#utility.yul\":521:556   */\n  swap1\n  pop\n    /* \"#utility.yul\":466:562   */\n  swap2\n  swap1\n  pop\n  jump\t// out\n    /* \"#utility.yul\":568:690   */\ntag_12:\n    /* \"#utility.yul\":641:665   */\n  tag_22\n    /* \"#utility.yul\":659:664   */\n  dup2\n    /* \"#utility.yul\":641:665   */\n  tag_11\n  jump\t// in\ntag_22:\n    /* \"#utility.yul\":634:639   */\n  dup2\n    /* \"#utility.yul\":631:666   */\n  eq\n    /* \"#utility.yul\":621:684   */\n  tag_23\n  jumpi\n    /* \"#utility.yul\":680:681   */\n  0x00\n    /* \"#utility.yul\":677:678   */\n  dup1\n    /* \"#utility.yul\":670:682   */\n  revert\n    /* \"#utility.yul\":621:684   */\ntag_23:\n    /* \"#utility.yul\":568:690   */\n  pop\n  jump\t// out\n    /* \"#utility.yul\":696:839   */\ntag_13:\n    /* \"#utility.yul\":753:758   */\n  0x00\n    /* \"#utility.yul\":784:790   */\n  dup2\n    /* \"#utility.yul\":778:791   */\n  mload\n    /* \"#utility.yul\":769:791   */\n  swap1\n  pop\n    /* \"#utility.yul\":800:833   */\n  tag_25\n    /* \"#utility.yul\":827:832   */\n  dup2\n    /* \"#utility.yul\":800:833   */\n  tag_12\n  jump\t// in\ntag_25:\n    /* \"#utility.yul\":696:839   */\n  swap3\n  swap2\n  pop\n  pop\n  jump\t// out\n    /* \"#utility.yul\":845:1352   */\ntag_3:\n    /* \"#utility.yul\":924:930   */\n  0x00\n    /* \"#utility.yul\":932:938   */\n  dup1\n    /* \"#utility.yul\":981:983   */\n  0x40\n    /* \"#utility.yul\":969:978   */\n  dup4\n    /* \"#utility.yul\":960:967   */\n  dup6\n    /* \"#utility.yul\":956:979   */\n  sub\n    /* \"#utility.yul\":952:984   */\n  slt\n    /* \"#utility.yul\":949:1068   */\n  iszero\n  tag_27\n  jumpi\n    /* \"#utility.yul\":987:1066   */\n  tag_28\n  tag_8\n  jump\t// in\ntag_28:\n    /* \"#utility.yul\":949:1068   */\ntag_27:\n    /* \"#utility.yul\":1107:1108   */\n  0x00\n    /* \"#utility.yul\":1132:1196   */\n  tag_29\n    /* \"#utility.yul\":1188:1195   */\n  dup6\n    /* \"#utility.yul\":1179:1185   */\n  dup3\n    /* \"#utility.yul\":1168:1177   */\n  dup7\n    /* \"#utility.yul\":1164:1186   */\n  add\n    /* \"#utility.yul\":1132:1196   */\n  tag_13\n  jump\t// in\ntag_29:\n    /* \"#utility.yul\":1122:1196   */\n  swap3\n  pop\n    /* \"#utility.yul\":1078:1206   */\n  pop\n    /* \"#utility.yul\":1245:1247   */\n  0x20\n    /* \"#utility.yul\":1271:1335   */\n  tag_30\n    /* \"#utility.yul\":1327:1334   */\n  dup6\n    /* \"#utility.yul\":1318:1324   */\n  dup3\n    /* \"#utility.yul\":1307:1316   */\n  dup7\n    /* \"#utility.yul\":1303:1325   */\n  add\n    /* \"#utility.yul\":1271:1335   */\n  tag_13\n  jump\t// in\ntag_30:\n    /* \"#utility.yul\":1261:1335   */\n  swap2\n  pop\n    /* \"#utility.yul\":1216:1345   */\n  pop\n    /* \"#utility.yul\":845:1352   */\n  swap3\n  pop\n  swap3\n  swap1\n  pop\n  jump\t// out\n    /* \"contracts/capital/Pool.sol\":186:11080  contract Pool is IPool {... */\ntag_6:\n  dataSize(sub_0)\n  dup1\n  dataOffset(sub_0)\n  0x00\n  codecopy\n  0x00\n  return\nstop\n\nsub_0: assembly {\n        /* \"contracts/capital/Pool.sol\":186:11080  contract Pool is IPool {... */\n      mstore(0x40, 0x80)\n      jumpi(tag_1, lt(calldatasize, 0x04))\n      shr(0xe0, calldataload(0x00))\n      dup1\n      0x70310cb7\n      gt\n      tag_16\n      jumpi\n      dup1\n      0xcf8d133f\n      gt\n      tag_17\n      jumpi\n      dup1\n      0xcf8d133f\n      eq\n      tag_12\n      jumpi\n      dup1\n      0xe57a8fef\n      eq\n      tag_13\n      jumpi\n      dup1\n      0xeabf3407\n      eq\n      tag_14\n      jumpi\n      dup1\n      0xebb8433f\n      eq\n      tag_15\n      jumpi\n      jump(tag_2)\n    tag_17:\n      dup1\n      0x70310cb7\n      eq\n      tag_9\n      jumpi\n      dup1\n      0xb222a4d3\n      eq\n      tag_10\n      jumpi\n      dup1\n      0xbdf4872b\n      eq\n      tag_11\n      jumpi\n      jump(tag_2)\n    tag_16:\n      dup1\n      0x04e8266f\n      eq\n      tag_3\n      jumpi\n      dup1\n      0x06833ffd\n      eq\n      tag_4\n      jumpi\n      dup1\n      0x1f50c989\n      eq\n      tag_5\n      jumpi\n      dup1\n      0x4779be08\n      eq\n      tag_6\n      jumpi\n      dup1\n      0x483b6f1d\n      eq\n      tag_7\n      jumpi\n      dup1\n      0x657e0542\n      eq\n      tag_8\n      jumpi\n      jump(tag_2)\n    tag_1:\n      jumpi(tag_2, calldatasize)\n      stop\n    tag_2:\n      stop\n        /* \"contracts/capital/Pool.sol\":10621:11005  function calculateTokenSpotPrice(... */\n    tag_3:\n      callvalue\n      dup1\n      iszero\n      tag_22\n      jumpi\n      0x00\n      dup1\n      revert\n    tag_22:\n      pop\n      tag_23\n      0x04\n      dup1\n      calldatasize\n      sub\n      dup2\n      add\n      swap1\n      tag_24\n      swap2\n      swap1\n      tag_25\n      jump\t// in\n    tag_24:\n      tag_26\n      jump\t// in\n    tag_23:\n      mload(0x40)\n      tag_27\n      swap2\n      swap1\n      tag_28\n      jump\t// in\n    tag_27:\n      mload(0x40)\n      dup1\n      swap2\n      sub\n      swap1\n      return\n        /* \"contracts/capital/Pool.sol\":1905:2728  function buyHEDH(uint minTokensOut) public override payable  {... */\n    tag_4:\n      tag_29\n      0x04\n      dup1\n      calldatasize\n      sub\n      dup2\n      add\n      swap1\n      tag_30\n      swap2\n      swap1\n      tag_31\n      jump\t// in\n    tag_30:\n      tag_32\n      jump\t// in\n    tag_29:\n      stop\n        /* \"contracts/capital/Pool.sol\":322:378  uint public constant MAX_BUY_SELL_MCR_ETH_FRACTION = 500 */\n    tag_5:\n      callvalue\n      dup1\n      iszero\n      tag_33\n      jumpi\n      0x00\n      dup1\n      revert\n    tag_33:\n      pop\n      tag_34\n      tag_35\n      jump\t// in\n    tag_34:\n      mload(0x40)\n      tag_36\n      swap2\n      swap1\n      tag_28\n      jump\t// in\n    tag_36:\n      mload(0x40)\n      dup1\n      swap2\n      sub\n      swap1\n      return\n        /* \"contracts/capital/Pool.sol\":217:260  uint public constant MCR_RATIO_DECIMALS = 4 */\n    tag_6:\n      callvalue\n      dup1\n      iszero\n      tag_37\n      jumpi\n      0x00\n      dup1\n      revert\n    tag_37:\n      pop\n      tag_38\n      tag_39\n      jump\t// in\n    tag_38:\n      mload(0x40)\n      tag_40\n      swap2\n      swap1\n      tag_28\n      jump\t// in\n    tag_40:\n      mload(0x40)\n      dup1\n      swap2\n      sub\n      swap1\n      return\n        /* \"contracts/capital/Pool.sol\":4150:4402  function getHEDHForEth(... */\n    tag_7:\n      callvalue\n      dup1\n      iszero\n      tag_41\n      jumpi\n      0x00\n      dup1\n      revert\n    tag_41:\n      pop\n      tag_42\n      0x04\n      dup1\n      calldatasize\n      sub\n      dup2\n      add\n      swap1\n      tag_43\n      swap2\n      swap1\n      tag_31\n      jump\t// in\n    tag_43:\n      tag_44\n      jump\t// in\n    tag_42:\n      mload(0x40)\n      tag_45\n      swap2\n      swap1\n      tag_28\n      jump\t// in\n    tag_45:\n      mload(0x40)\n      dup1\n      swap2\n      sub\n      swap1\n      return\n        /* \"contracts/capital/Pool.sol\":4408:7808  function calculateHEDHForEth(... */\n    tag_8:\n      callvalue\n      dup1\n      iszero\n      tag_46\n      jumpi\n      0x00\n      dup1\n      revert\n    tag_46:\n      pop\n      tag_47\n      0x04\n      dup1\n      calldatasize\n      sub\n      dup2\n      add\n      swap1\n      tag_48\n      swap2\n      swap1\n      tag_49\n      jump\t// in\n    tag_48:\n      tag_50\n      jump\t// in\n    tag_47:\n      mload(0x40)\n      tag_51\n      swap2\n      swap1\n      tag_28\n      jump\t// in\n    tag_51:\n      mload(0x40)\n      dup1\n      swap2\n      sub\n      swap1\n      return\n        /* \"contracts/capital/Pool.sol\":10325:10514  function calculateMCRRatio(... */\n    tag_9:\n      callvalue\n      dup1\n      iszero\n      tag_52\n      jumpi\n      0x00\n      dup1\n      revert\n    tag_52:\n      pop\n      tag_53\n      0x04\n      dup1\n      calldatasize\n      sub\n      dup2\n      add\n      swap1\n      tag_54\n      swap2\n      swap1\n      tag_25\n      jump\t// in\n    tag_54:\n      tag_55\n      jump\t// in\n    tag_53:\n      mload(0x40)\n      tag_56\n      swap2\n      swap1\n      tag_28\n      jump\t// in\n    tag_56:\n      mload(0x40)\n      dup1\n      swap2\n      sub\n      swap1\n      return\n        /* \"contracts/capital/Pool.sol\":266:308  uint public constant MAX_MCR_RATIO = 40000 */\n    tag_10:\n      callvalue\n      dup1\n      iszero\n      tag_57\n      jumpi\n      0x00\n      dup1\n      revert\n    tag_57:\n      pop\n      tag_58\n      tag_59\n      jump\t// in\n    tag_58:\n      mload(0x40)\n      tag_60\n      swap2\n      swap1\n      tag_28\n      jump\t// in\n    tag_60:\n      mload(0x40)\n      dup1\n      swap2\n      sub\n      swap1\n      return\n        /* \"contracts/capital/Pool.sol\":2953:3875  function sellHEDH(... */\n    tag_11:\n      callvalue\n      dup1\n      iszero\n      tag_61\n      jumpi\n      0x00\n      dup1\n      revert\n    tag_61:\n      pop\n      tag_62\n      0x04\n      dup1\n      calldatasize\n      sub\n      dup2\n      add\n      swap1\n      tag_63\n      swap2\n      swap1\n      tag_25\n      jump\t// in\n    tag_63:\n      tag_64\n      jump\t// in\n    tag_62:\n      stop\n        /* \"contracts/capital/Pool.sol\":1093:1482  function sendPayout(... */\n    tag_12:\n      callvalue\n      dup1\n      iszero\n      tag_65\n      jumpi\n      0x00\n      dup1\n      revert\n    tag_65:\n      pop\n      tag_66\n      0x04\n      dup1\n      calldatasize\n      sub\n      dup2\n      add\n      swap1\n      tag_67\n      swap2\n      swap1\n      tag_68\n      jump\t// in\n    tag_67:\n      tag_69\n      jump\t// in\n    tag_66:\n      stop\n        /* \"contracts/capital/Pool.sol\":1586:1725  function sellHEDHTokens(... */\n    tag_13:\n      callvalue\n      dup1\n      iszero\n      tag_70\n      jumpi\n      0x00\n      dup1\n      revert\n    tag_70:\n      pop\n      tag_71\n      0x04\n      dup1\n      calldatasize\n      sub\n      dup2\n      add\n      swap1\n      tag_72\n      swap2\n      swap1\n      tag_31\n      jump\t// in\n    tag_72:\n      tag_73\n      jump\t// in\n    tag_71:\n      mload(0x40)\n      tag_74\n      swap2\n      swap1\n      tag_75\n      jump\t// in\n    tag_74:\n      mload(0x40)\n      dup1\n      swap2\n      sub\n      swap1\n      return\n        /* \"contracts/capital/Pool.sol\":8466:8730  function getEthForHEDH(uint hedhAmount) public view  returns (uint ethAmount) {... */\n    tag_14:\n      callvalue\n      dup1\n      iszero\n      tag_76\n      jumpi\n      0x00\n      dup1\n      revert\n    tag_76:\n      pop\n      tag_77\n      0x04\n      dup1\n      calldatasize\n      sub\n      dup2\n      add\n      swap1\n      tag_78\n      swap2\n      swap1\n      tag_31\n      jump\t// in\n    tag_78:\n      tag_79\n      jump\t// in\n    tag_77:\n      mload(0x40)\n      tag_80\n      swap2\n      swap1\n      tag_28\n      jump\t// in\n    tag_80:\n      mload(0x40)\n      dup1\n      swap2\n      sub\n      swap1\n      return\n        /* \"contracts/capital/Pool.sol\":9089:10319  function calculateEthForHEDH(... */\n    tag_15:\n      callvalue\n      dup1\n      iszero\n      tag_81\n      jumpi\n      0x00\n      dup1\n      revert\n    tag_81:\n      pop\n      tag_82\n      0x04\n      dup1\n      calldatasize\n      sub\n      dup2\n      add\n      swap1\n      tag_83\n      swap2\n      swap1\n      tag_49\n      jump\t// in\n    tag_83:\n      tag_84\n      jump\t// in\n    tag_82:\n      mload(0x40)\n      tag_85\n      swap2\n      swap1\n      tag_28\n      jump\t// in\n    tag_85:\n      mload(0x40)\n      dup1\n      swap2\n      sub\n      swap1\n      return\n        /* \"contracts/capital/Pool.sol\":10621:11005  function calculateTokenSpotPrice(... */\n    tag_26:\n        /* \"contracts/capital/Pool.sol\":10733:10748  uint tokenPrice */\n      0x00\n        /* \"contracts/capital/Pool.sol\":10761:10774  uint mcrRatio */\n      dup1\n        /* \"contracts/capital/Pool.sol\":10777:10819  calculateMCRRatio(totalAssetValue, mcrEth) */\n      tag_87\n        /* \"contracts/capital/Pool.sol\":10795:10810  totalAssetValue */\n      dup5\n        /* \"contracts/capital/Pool.sol\":10812:10818  mcrEth */\n      dup5\n        /* \"contracts/capital/Pool.sol\":10777:10794  calculateMCRRatio */\n      tag_55\n        /* \"contracts/capital/Pool.sol\":10777:10819  calculateMCRRatio(totalAssetValue, mcrEth) */\n      jump\t// in\n    tag_87:\n        /* \"contracts/capital/Pool.sol\":10761:10819  uint mcrRatio = calculateMCRRatio(totalAssetValue, mcrEth) */\n      swap1\n      pop\n        /* \"contracts/capital/Pool.sol\":10829:10851  uint precisionDecimals */\n      0x00\n        /* \"contracts/capital/Pool.sol\":259:260  4 */\n      0x04\n        /* \"contracts/capital/Pool.sol\":551:552  4 */\n      dup1\n        /* \"contracts/capital/Pool.sol\":10861:10896  TOKEN_EXPONENT * MCR_RATIO_DECIMALS */\n      tag_88\n      swap2\n      swap1\n      tag_89\n      jump\t// in\n    tag_88:\n        /* \"contracts/capital/Pool.sol\":10854:10856  10 */\n      0x0a\n        /* \"contracts/capital/Pool.sol\":10854:10897  10 ** (TOKEN_EXPONENT * MCR_RATIO_DECIMALS) */\n      tag_90\n      swap2\n      swap1\n      tag_91\n      jump\t// in\n    tag_90:\n        /* \"contracts/capital/Pool.sol\":10829:10897  uint precisionDecimals = 10 ** (TOKEN_EXPONENT * MCR_RATIO_DECIMALS) */\n      swap1\n      pop\n        /* \"contracts/capital/Pool.sol\":494:505  1028 * 1e13 */\n      0x24859b044a8000\n        /* \"contracts/capital/Pool.sol\":10968:10985  precisionDecimals */\n      dup2\n        /* \"contracts/capital/Pool.sol\":445:452  5800000 */\n      0x588040\n        /* \"contracts/capital/Pool.sol\":551:552  4 */\n      0x04\n        /* \"contracts/capital/Pool.sol\":10925:10933  mcrRatio */\n      dup6\n        /* \"contracts/capital/Pool.sol\":10925:10951  mcrRatio ** TOKEN_EXPONENT */\n      tag_92\n      swap2\n      swap1\n      tag_91\n      jump\t// in\n    tag_92:\n        /* \"contracts/capital/Pool.sol\":10915:10921  mcrEth */\n      dup8\n        /* \"contracts/capital/Pool.sol\":10915:10952  mcrEth * (mcrRatio ** TOKEN_EXPONENT) */\n      tag_93\n      swap2\n      swap1\n      tag_89\n      jump\t// in\n    tag_93:\n        /* \"contracts/capital/Pool.sol\":10915:10965  mcrEth * (mcrRatio ** TOKEN_EXPONENT) / CONSTANT_C */\n      tag_94\n      swap2\n      swap1\n      tag_95\n      jump\t// in\n    tag_94:\n        /* \"contracts/capital/Pool.sol\":10915:10985  mcrEth * (mcrRatio ** TOKEN_EXPONENT) / CONSTANT_C / precisionDecimals */\n      tag_96\n      swap2\n      swap1\n      tag_95\n      jump\t// in\n    tag_96:\n        /* \"contracts/capital/Pool.sol\":10915:10998  mcrEth * (mcrRatio ** TOKEN_EXPONENT) / CONSTANT_C / precisionDecimals + CONSTANT_A */\n      tag_97\n      swap2\n      swap1\n      tag_98\n      jump\t// in\n    tag_97:\n        /* \"contracts/capital/Pool.sol\":10908:10998  return mcrEth * (mcrRatio ** TOKEN_EXPONENT) / CONSTANT_C / precisionDecimals + CONSTANT_A */\n      swap3\n      pop\n      pop\n      pop\n        /* \"contracts/capital/Pool.sol\":10621:11005  function calculateTokenSpotPrice(... */\n      swap3\n      swap2\n      pop\n      pop\n      jump\t// out\n        /* \"contracts/capital/Pool.sol\":1905:2728  function buyHEDH(uint minTokensOut) public override payable  {... */\n    tag_32:\n        /* \"contracts/capital/Pool.sol\":1976:1986  uint ethIn */\n      0x00\n        /* \"contracts/capital/Pool.sol\":1989:1998  msg.value */\n      callvalue\n        /* \"contracts/capital/Pool.sol\":1976:1998  uint ethIn = msg.value */\n      swap1\n      pop\n        /* \"contracts/capital/Pool.sol\":2024:2025  0 */\n      0x00\n        /* \"contracts/capital/Pool.sol\":2016:2021  ethIn */\n      dup2\n        /* \"contracts/capital/Pool.sol\":2016:2025  ethIn > 0 */\n      gt\n        /* \"contracts/capital/Pool.sol\":2008:2045  require(ethIn > 0, \"Pool: ethIn > 0\") */\n      tag_100\n      jumpi\n      mload(0x40)\n      0x08c379a000000000000000000000000000000000000000000000000000000000\n      dup2\n      mstore\n      0x04\n      add\n      tag_101\n      swap1\n      tag_102\n      jump\t// in\n    tag_101:\n      mload(0x40)\n      dup1\n      swap2\n      sub\n      swap1\n      revert\n    tag_100:\n        /* \"contracts/capital/Pool.sol\":2056:2076  uint totalAssetValue */\n      0x00\n        /* \"contracts/capital/Pool.sol\":2103:2108  ethIn */\n      dup2\n        /* \"contracts/capital/Pool.sol\":2079:2100  address(this).balance */\n      selfbalance\n        /* \"contracts/capital/Pool.sol\":2079:2108  address(this).balance - ethIn */\n      tag_103\n      swap2\n      swap1\n      tag_104\n      jump\t// in\n    tag_103:\n        /* \"contracts/capital/Pool.sol\":2056:2108  uint totalAssetValue = address(this).balance - ethIn */\n      swap1\n      pop\n        /* \"contracts/capital/Pool.sol\":2118:2127  IMCR _mcr */\n      0x00\n        /* \"contracts/capital/Pool.sol\":2130:2135  mcr() */\n      tag_105\n        /* \"contracts/capital/Pool.sol\":2130:2133  mcr */\n      tag_106\n        /* \"contracts/capital/Pool.sol\":2130:2135  mcr() */\n      jump\t// in\n    tag_105:\n        /* \"contracts/capital/Pool.sol\":2118:2135  IMCR _mcr = mcr() */\n      swap1\n      pop\n        /* \"contracts/capital/Pool.sol\":2145:2156  uint mcrEth */\n      0x00\n        /* \"contracts/capital/Pool.sol\":2159:2163  _mcr */\n      dup2\n        /* \"contracts/capital/Pool.sol\":2159:2170  _mcr.getMCR */\n      0xffffffffffffffffffffffffffffffffffffffff\n      and\n      0x44936b10\n        /* \"contracts/capital/Pool.sol\":2159:2172  _mcr.getMCR() */\n      mload(0x40)\n      dup2\n      0xffffffff\n      and\n      0xe0\n      shl\n      dup2\n      mstore\n      0x04\n      add\n      0x20\n      mload(0x40)\n      dup1\n      dup4\n      sub\n      dup2\n      dup7\n      gas\n      staticcall\n      iszero\n      dup1\n      iszero\n      tag_108\n      jumpi\n      returndatasize\n      0x00\n      dup1\n      returndatacopy\n      revert(0x00, returndatasize)\n    tag_108:\n      pop\n      pop\n      pop\n      pop\n      mload(0x40)\n      returndatasize\n      not(0x1f)\n      0x1f\n      dup3\n      add\n      and\n      dup3\n      add\n      dup1\n      0x40\n      mstore\n      pop\n      dup2\n      add\n      swap1\n      tag_109\n      swap2\n      swap1\n      tag_110\n      jump\t// in\n    tag_109:\n        /* \"contracts/capital/Pool.sol\":2145:2172  uint mcrEth = _mcr.getMCR() */\n      swap1\n      pop\n        /* \"contracts/capital/Pool.sol\":2341:2355  uint tokensOut */\n      0x00\n        /* \"contracts/capital/Pool.sol\":2358:2409  calculateHEDHForEth(ethIn, totalAssetValue, mcrEth) */\n      tag_111\n        /* \"contracts/capital/Pool.sol\":2378:2383  ethIn */\n      dup6\n        /* \"contracts/capital/Pool.sol\":2385:2400  totalAssetValue */\n      dup6\n        /* \"contracts/capital/Pool.sol\":2402:2408  mcrEth */\n      dup5\n        /* \"contracts/capital/Pool.sol\":2358:2377  calculateHEDHForEth */\n      tag_50\n        /* \"contracts/capital/Pool.sol\":2358:2409  calculateHEDHForEth(ethIn, totalAssetValue, mcrEth) */\n      jump\t// in\n    tag_111:\n        /* \"contracts/capital/Pool.sol\":2341:2409  uint tokensOut = calculateHEDHForEth(ethIn, totalAssetValue, mcrEth) */\n      swap1\n      pop\n        /* \"contracts/capital/Pool.sol\":2440:2452  minTokensOut */\n      dup6\n        /* \"contracts/capital/Pool.sol\":2427:2436  tokensOut */\n      dup2\n        /* \"contracts/capital/Pool.sol\":2427:2452  tokensOut >= minTokensOut */\n      lt\n      iszero\n        /* \"contracts/capital/Pool.sol\":2419:2498  require(tokensOut >= minTokensOut, \"Pool: tokensOut is less than minTokensOut\") */\n      tag_112\n      jumpi\n      mload(0x40)\n      0x08c379a000000000000000000000000000000000000000000000000000000000\n      dup2\n      mstore\n      0x04\n      add\n      tag_113\n      swap1\n      tag_114\n      jump\t// in\n    tag_113:\n      mload(0x40)\n      dup1\n      swap2\n      sub\n      swap1\n      revert\n    tag_112:\n        /* \"contracts/capital/Pool.sol\":2509:2518  hedhToken */\n      0x01\n      0x00\n      swap1\n      sload\n      swap1\n      0x0100\n      exp\n      swap1\n      div\n      0xffffffffffffffffffffffffffffffffffffffff\n      and\n        /* \"contracts/capital/Pool.sol\":2509:2523  hedhToken.mint */\n      0xffffffffffffffffffffffffffffffffffffffff\n      and\n      0x40c10f19\n        /* \"contracts/capital/Pool.sol\":2524:2534  msg.sender */\n      caller\n        /* \"contracts/capital/Pool.sol\":2536:2545  tokensOut */\n      dup4\n        /* \"contracts/capital/Pool.sol\":2509:2546  hedhToken.mint(msg.sender, tokensOut) */\n      mload(0x40)\n      dup4\n      0xffffffff\n      and\n      0xe0\n      shl\n      dup2\n      mstore\n      0x04\n      add\n      tag_115\n      swap3\n      swap2\n      swap1\n      tag_116\n      jump\t// in\n    tag_115:\n      0x00\n      mload(0x40)\n      dup1\n      dup4\n      sub\n      dup2\n      0x00\n      dup8\n      dup1\n      extcodesize\n      iszero\n      dup1\n      iszero\n      tag_117\n      jumpi\n      0x00\n      dup1\n      revert\n    tag_117:\n      pop\n      gas\n      call\n      iszero\n      dup1\n      iszero\n      tag_119\n      jumpi\n      returndatasize\n      0x00\n      dup1\n      returndatacopy\n      revert(0x00, returndatasize)\n    tag_119:\n      pop\n      pop\n      pop\n      pop\n        /* \"contracts/capital/Pool.sol\":2642:2646  _mcr */\n      dup3\n        /* \"contracts/capital/Pool.sol\":2642:2664  _mcr.updateMCRInternal */\n      0xffffffffffffffffffffffffffffffffffffffff\n      and\n      0xaa5da046\n        /* \"contracts/capital/Pool.sol\":2642:2666  _mcr.updateMCRInternal() */\n      mload(0x40)\n      dup2\n      0xffffffff\n      and\n      0xe0\n      shl\n      dup2\n      mstore\n      0x04\n      add\n      0x00\n      mload(0x40)\n      dup1\n      dup4\n      sub\n      dup2\n      0x00\n      dup8\n      dup1\n      extcodesize\n      iszero\n      dup1\n      iszero\n      tag_120\n      jumpi\n      0x00\n      dup1\n      revert\n    tag_120:\n      pop\n      gas\n      call\n      iszero\n      dup1\n      iszero\n      tag_122\n      jumpi\n      returndatasize\n      0x00\n      dup1\n      returndatacopy\n      revert(0x00, returndatasize)\n    tag_122:\n      pop\n      pop\n      pop\n      pop\n        /* \"contracts/capital/Pool.sol\":2692:2702  msg.sender */\n      caller\n        /* \"contracts/capital/Pool.sol\":2681:2721  HEDHBought(msg.sender, ethIn, tokensOut) */\n      0xffffffffffffffffffffffffffffffffffffffff\n      and\n      0xc5fc954940739c9d45b12cd63fec8b2fb3887d642d3572cf741e45f30088ad93\n        /* \"contracts/capital/Pool.sol\":2704:2709  ethIn */\n      dup7\n        /* \"contracts/capital/Pool.sol\":2711:2720  tokensOut */\n      dup4\n        /* \"contracts/capital/Pool.sol\":2681:2721  HEDHBought(msg.sender, ethIn, tokensOut) */\n      mload(0x40)\n      tag_123\n      swap3\n      swap2\n      swap1\n      tag_124\n      jump\t// in\n    tag_123:\n      mload(0x40)\n      dup1\n      swap2\n      sub\n      swap1\n      log2\n        /* \"contracts/capital/Pool.sol\":1966:2728  {... */\n      pop\n      pop\n      pop\n      pop\n      pop\n        /* \"contracts/capital/Pool.sol\":1905:2728  function buyHEDH(uint minTokensOut) public override payable  {... */\n      pop\n      jump\t// out\n        /* \"contracts/capital/Pool.sol\":322:378  uint public constant MAX_BUY_SELL_MCR_ETH_FRACTION = 500 */\n    tag_35:\n        /* \"contracts/capital/Pool.sol\":375:378  500 */\n      0x01f4\n        /* \"contracts/capital/Pool.sol\":322:378  uint public constant MAX_BUY_SELL_MCR_ETH_FRACTION = 500 */\n      dup2\n      jump\t// out\n        /* \"contracts/capital/Pool.sol\":217:260  uint public constant MCR_RATIO_DECIMALS = 4 */\n    tag_39:\n        /* \"contracts/capital/Pool.sol\":259:260  4 */\n      0x04\n        /* \"contracts/capital/Pool.sol\":217:260  uint public constant MCR_RATIO_DECIMALS = 4 */\n      dup2\n      jump\t// out\n        /* \"contracts/capital/Pool.sol\":4150:4402  function getHEDHForEth(... */\n    tag_44:\n        /* \"contracts/capital/Pool.sol\":4225:4229  uint */\n      0x00\n        /* \"contracts/capital/Pool.sol\":4241:4261  uint totalAssetValue */\n      dup1\n        /* \"contracts/capital/Pool.sol\":4264:4285  address(this).balance */\n      selfbalance\n        /* \"contracts/capital/Pool.sol\":4241:4285  uint totalAssetValue = address(this).balance */\n      swap1\n      pop\n        /* \"contracts/capital/Pool.sol\":4295:4306  uint mcrEth */\n      0x00\n        /* \"contracts/capital/Pool.sol\":4309:4314  mcr() */\n      tag_126\n        /* \"contracts/capital/Pool.sol\":4309:4312  mcr */\n      tag_106\n        /* \"contracts/capital/Pool.sol\":4309:4314  mcr() */\n      jump\t// in\n    tag_126:\n        /* \"contracts/capital/Pool.sol\":4309:4321  mcr().getMCR */\n      0xffffffffffffffffffffffffffffffffffffffff\n      and\n      0x44936b10\n        /* \"contracts/capital/Pool.sol\":4309:4323  mcr().getMCR() */\n      mload(0x40)\n      dup2\n      0xffffffff\n      and\n      0xe0\n      shl\n      dup2\n      mstore\n      0x04\n      add\n      0x20\n      mload(0x40)\n      dup1\n      dup4\n      sub\n      dup2\n      dup7\n      gas\n      staticcall\n      iszero\n      dup1\n      iszero\n      tag_128\n      jumpi\n      returndatasize\n      0x00\n      dup1\n      returndatacopy\n      revert(0x00, returndatasize)\n    tag_128:\n      pop\n      pop\n      pop\n      pop\n      mload(0x40)\n      returndatasize\n      not(0x1f)\n      0x1f\n      dup3\n      add\n      and\n      dup3\n      add\n      dup1\n      0x40\n      mstore\n      pop\n      dup2\n      add\n      swap1\n      tag_129\n      swap2\n      swap1\n      tag_110\n      jump\t// in\n    tag_129:\n        /* \"contracts/capital/Pool.sol\":4295:4323  uint mcrEth = mcr().getMCR() */\n      swap1\n      pop\n        /* \"contracts/capital/Pool.sol\":4340:4395  calculateHEDHForEth(ethAmount, totalAssetValue, mcrEth) */\n      tag_130\n        /* \"contracts/capital/Pool.sol\":4360:4369  ethAmount */\n      dup5\n        /* \"contracts/capital/Pool.sol\":4371:4386  totalAssetValue */\n      dup4\n        /* \"contracts/capital/Pool.sol\":4388:4394  mcrEth */\n      dup4\n        /* \"contracts/capital/Pool.sol\":4340:4359  calculateHEDHForEth */\n      tag_50\n        /* \"contracts/capital/Pool.sol\":4340:4395  calculateHEDHForEth(ethAmount, totalAssetValue, mcrEth) */\n      jump\t// in\n    tag_130:\n        /* \"contracts/capital/Pool.sol\":4333:4395  return calculateHEDHForEth(ethAmount, totalAssetValue, mcrEth) */\n      swap3\n      pop\n      pop\n      pop\n        /* \"contracts/capital/Pool.sol\":4150:4402  function getHEDHForEth(... */\n      swap2\n      swap1\n      pop\n      jump\t// out\n        /* \"contracts/capital/Pool.sol\":4408:7808  function calculateHEDHForEth(... */\n    tag_50:\n        /* \"contracts/capital/Pool.sol\":4546:4550  uint */\n      0x00\n        /* \"contracts/capital/Pool.sol\":6156:6157  0 */\n      dup1\n        /* \"contracts/capital/Pool.sol\":6130:6152  currentTotalAssetValue */\n      dup4\n        /* \"contracts/capital/Pool.sol\":6130:6157  currentTotalAssetValue == 0 */\n      eq\n        /* \"contracts/capital/Pool.sol\":6130:6199  currentTotalAssetValue == 0 || mcrEth / currentTotalAssetValue > 1e12 */\n      dup1\n      tag_132\n      jumpi\n      pop\n        /* \"contracts/capital/Pool.sol\":6195:6199  1e12 */\n      0xe8d4a51000\n        /* \"contracts/capital/Pool.sol\":6170:6192  currentTotalAssetValue */\n      dup4\n        /* \"contracts/capital/Pool.sol\":6161:6167  mcrEth */\n      dup4\n        /* \"contracts/capital/Pool.sol\":6161:6192  mcrEth / currentTotalAssetValue */\n      tag_133\n      swap2\n      swap1\n      tag_95\n      jump\t// in\n    tag_133:\n        /* \"contracts/capital/Pool.sol\":6161:6199  mcrEth / currentTotalAssetValue > 1e12 */\n      gt\n        /* \"contracts/capital/Pool.sol\":6130:6199  currentTotalAssetValue == 0 || mcrEth / currentTotalAssetValue > 1e12 */\n    tag_132:\n        /* \"contracts/capital/Pool.sol\":6126:6682  if (currentTotalAssetValue == 0 || mcrEth / currentTotalAssetValue > 1e12) {... */\n      iszero\n      tag_134\n      jumpi\n        /* \"contracts/capital/Pool.sol\":494:505  1028 * 1e13 */\n      0x24859b044a8000\n        /* \"contracts/capital/Pool.sol\":6654:6658  1e18 */\n      0x0de0b6b3a7640000\n        /* \"contracts/capital/Pool.sol\":6642:6651  ethAmount */\n      dup6\n        /* \"contracts/capital/Pool.sol\":6642:6658  ethAmount * 1e18 */\n      tag_135\n      swap2\n      swap1\n      tag_89\n      jump\t// in\n    tag_135:\n        /* \"contracts/capital/Pool.sol\":6642:6671  ethAmount * 1e18 / CONSTANT_A */\n      tag_136\n      swap2\n      swap1\n      tag_95\n      jump\t// in\n    tag_136:\n        /* \"contracts/capital/Pool.sol\":6635:6671  return ethAmount * 1e18 / CONSTANT_A */\n      swap1\n      pop\n      jump(tag_131)\n        /* \"contracts/capital/Pool.sol\":6126:6682  if (currentTotalAssetValue == 0 || mcrEth / currentTotalAssetValue > 1e12) {... */\n    tag_134:\n        /* \"contracts/capital/Pool.sol\":6728:6739  uint point0 */\n      0x00\n        /* \"contracts/capital/Pool.sol\":6742:6798  calculateIntegralAtPoint(currentTotalAssetValue, mcrEth) */\n      tag_137\n        /* \"contracts/capital/Pool.sol\":6767:6789  currentTotalAssetValue */\n      dup5\n        /* \"contracts/capital/Pool.sol\":6791:6797  mcrEth */\n      dup5\n        /* \"contracts/capital/Pool.sol\":6742:6766  calculateIntegralAtPoint */\n      tag_138\n        /* \"contracts/capital/Pool.sol\":6742:6798  calculateIntegralAtPoint(currentTotalAssetValue, mcrEth) */\n      jump\t// in\n    tag_137:\n        /* \"contracts/capital/Pool.sol\":6728:6798  uint point0 = calculateIntegralAtPoint(currentTotalAssetValue, mcrEth) */\n      swap1\n      pop\n        /* \"contracts/capital/Pool.sol\":6844:6868  uint nextTotalAssetValue */\n      0x00\n        /* \"contracts/capital/Pool.sol\":6896:6905  ethAmount */\n      dup6\n        /* \"contracts/capital/Pool.sol\":6871:6893  currentTotalAssetValue */\n      dup6\n        /* \"contracts/capital/Pool.sol\":6871:6905  currentTotalAssetValue + ethAmount */\n      tag_139\n      swap2\n      swap1\n      tag_98\n      jump\t// in\n    tag_139:\n        /* \"contracts/capital/Pool.sol\":6844:6905  uint nextTotalAssetValue = currentTotalAssetValue + ethAmount */\n      swap1\n      pop\n        /* \"contracts/capital/Pool.sol\":6915:6926  uint point1 */\n      0x00\n        /* \"contracts/capital/Pool.sol\":6929:6982  calculateIntegralAtPoint(nextTotalAssetValue, mcrEth) */\n      tag_140\n        /* \"contracts/capital/Pool.sol\":6954:6973  nextTotalAssetValue */\n      dup3\n        /* \"contracts/capital/Pool.sol\":6975:6981  mcrEth */\n      dup7\n        /* \"contracts/capital/Pool.sol\":6929:6953  calculateIntegralAtPoint */\n      tag_138\n        /* \"contracts/capital/Pool.sol\":6929:6982  calculateIntegralAtPoint(nextTotalAssetValue, mcrEth) */\n      jump\t// in\n    tag_140:\n        /* \"contracts/capital/Pool.sol\":6915:6982  uint point1 = calculateIntegralAtPoint(nextTotalAssetValue, mcrEth) */\n      swap1\n      pop\n        /* \"contracts/capital/Pool.sol\":6992:7016  uint adjustedTokenAmount */\n      0x00\n        /* \"contracts/capital/Pool.sol\":7028:7034  point1 */\n      dup2\n        /* \"contracts/capital/Pool.sol\":7019:7025  point0 */\n      dup5\n        /* \"contracts/capital/Pool.sol\":7019:7034  point0 - point1 */\n      tag_141\n      swap2\n      swap1\n      tag_104\n      jump\t// in\n    tag_141:\n        /* \"contracts/capital/Pool.sol\":6992:7034  uint adjustedTokenAmount = point0 - point1 */\n      swap1\n      pop\n        /* \"contracts/capital/Pool.sol\":7631:7654  uint adjustedTokenPrice */\n      0x00\n        /* \"contracts/capital/Pool.sol\":7676:7695  adjustedTokenAmount */\n      dup2\n        /* \"contracts/capital/Pool.sol\":7669:7673  1e18 */\n      0x0de0b6b3a7640000\n        /* \"contracts/capital/Pool.sol\":7657:7666  ethAmount */\n      dup11\n        /* \"contracts/capital/Pool.sol\":7657:7673  ethAmount * 1e18 */\n      tag_142\n      swap2\n      swap1\n      tag_89\n      jump\t// in\n    tag_142:\n        /* \"contracts/capital/Pool.sol\":7657:7695  ethAmount * 1e18 / adjustedTokenAmount */\n      tag_143\n      swap2\n      swap1\n      tag_95\n      jump\t// in\n    tag_143:\n        /* \"contracts/capital/Pool.sol\":7631:7695  uint adjustedTokenPrice = ethAmount * 1e18 / adjustedTokenAmount */\n      swap1\n      pop\n        /* \"contracts/capital/Pool.sol\":7705:7720  uint tokenPrice */\n      0x00\n        /* \"contracts/capital/Pool.sol\":494:505  1028 * 1e13 */\n      0x24859b044a8000\n        /* \"contracts/capital/Pool.sol\":7723:7741  adjustedTokenPrice */\n      dup3\n        /* \"contracts/capital/Pool.sol\":7723:7754  adjustedTokenPrice + CONSTANT_A */\n      tag_144\n      swap2\n      swap1\n      tag_98\n      jump\t// in\n    tag_144:\n        /* \"contracts/capital/Pool.sol\":7705:7754  uint tokenPrice = adjustedTokenPrice + CONSTANT_A */\n      swap1\n      pop\n        /* \"contracts/capital/Pool.sol\":7791:7801  tokenPrice */\n      dup1\n        /* \"contracts/capital/Pool.sol\":7784:7788  1e18 */\n      0x0de0b6b3a7640000\n        /* \"contracts/capital/Pool.sol\":7772:7781  ethAmount */\n      dup12\n        /* \"contracts/capital/Pool.sol\":7772:7788  ethAmount * 1e18 */\n      tag_145\n      swap2\n      swap1\n      tag_89\n      jump\t// in\n    tag_145:\n        /* \"contracts/capital/Pool.sol\":7772:7801  ethAmount * 1e18 / tokenPrice */\n      tag_146\n      swap2\n      swap1\n      tag_95\n      jump\t// in\n    tag_146:\n        /* \"contracts/capital/Pool.sol\":7765:7801  return ethAmount * 1e18 / tokenPrice */\n      swap7\n      pop\n      pop\n      pop\n      pop\n      pop\n      pop\n      pop\n        /* \"contracts/capital/Pool.sol\":4408:7808  function calculateHEDHForEth(... */\n    tag_131:\n      swap4\n      swap3\n      pop\n      pop\n      pop\n      jump\t// out\n        /* \"contracts/capital/Pool.sol\":10325:10514  function calculateMCRRatio(... */\n    tag_55:\n        /* \"contracts/capital/Pool.sol\":10431:10435  uint */\n      0x00\n        /* \"contracts/capital/Pool.sol\":10501:10507  mcrEth */\n      dup2\n        /* \"contracts/capital/Pool.sol\":259:260  4 */\n      0x04\n        /* \"contracts/capital/Pool.sol\":10473:10475  10 */\n      0x0a\n        /* \"contracts/capital/Pool.sol\":10473:10497  10 ** MCR_RATIO_DECIMALS */\n      tag_148\n      swap2\n      swap1\n      tag_91\n      jump\t// in\n    tag_148:\n        /* \"contracts/capital/Pool.sol\":10454:10469  totalAssetValue */\n      dup5\n        /* \"contracts/capital/Pool.sol\":10454:10498  totalAssetValue * (10 ** MCR_RATIO_DECIMALS) */\n      tag_149\n      swap2\n      swap1\n      tag_89\n      jump\t// in\n    tag_149:\n        /* \"contracts/capital/Pool.sol\":10454:10507  totalAssetValue * (10 ** MCR_RATIO_DECIMALS) / mcrEth */\n      tag_150\n      swap2\n      swap1\n      tag_95\n      jump\t// in\n    tag_150:\n        /* \"contracts/capital/Pool.sol\":10447:10507  return totalAssetValue * (10 ** MCR_RATIO_DECIMALS) / mcrEth */\n      swap1\n      pop\n        /* \"contracts/capital/Pool.sol\":10325:10514  function calculateMCRRatio(... */\n      swap3\n      swap2\n      pop\n      pop\n      jump\t// out\n        /* \"contracts/capital/Pool.sol\":266:308  uint public constant MAX_MCR_RATIO = 40000 */\n    tag_59:\n        /* \"contracts/capital/Pool.sol\":303:308  40000 */\n      0x9c40\n        /* \"contracts/capital/Pool.sol\":266:308  uint public constant MAX_MCR_RATIO = 40000 */\n      dup2\n      jump\t// out\n        /* \"contracts/capital/Pool.sol\":2953:3875  function sellHEDH(... */\n    tag_64:\n        /* \"contracts/capital/Pool.sol\":3097:3108  tokenAmount */\n      dup2\n        /* \"contracts/capital/Pool.sol\":3062:3071  hedhToken */\n      0x01\n      0x00\n      swap1\n      sload\n      swap1\n      0x0100\n      exp\n      swap1\n      div\n      0xffffffffffffffffffffffffffffffffffffffff\n      and\n        /* \"contracts/capital/Pool.sol\":3062:3081  hedhToken.balanceOf */\n      0xffffffffffffffffffffffffffffffffffffffff\n      and\n      0x70a08231\n        /* \"contracts/capital/Pool.sol\":3082:3092  msg.sender */\n      caller\n        /* \"contracts/capital/Pool.sol\":3062:3093  hedhToken.balanceOf(msg.sender) */\n      mload(0x40)\n      dup3\n      0xffffffff\n      and\n      0xe0\n      shl\n      dup2\n      mstore\n      0x04\n      add\n      tag_152\n      swap2\n      swap1\n      tag_153\n      jump\t// in\n    tag_152:\n      0x20\n      mload(0x40)\n      dup1\n      dup4\n      sub\n      dup2\n      dup7\n      gas\n      staticcall\n      iszero\n      dup1\n      iszero\n      tag_155\n      jumpi\n      returndatasize\n      0x00\n      dup1\n      returndatacopy\n      revert(0x00, returndatasize)\n    tag_155:\n      pop\n      pop\n      pop\n      pop\n      mload(0x40)\n      returndatasize\n      not(0x1f)\n      0x1f\n      dup3\n      add\n      and\n      dup3\n      add\n      dup1\n      0x40\n      mstore\n      pop\n      dup2\n      add\n      swap1\n      tag_156\n      swap2\n      swap1\n      tag_110\n      jump\t// in\n    tag_156:\n        /* \"contracts/capital/Pool.sol\":3062:3108  hedhToken.balanceOf(msg.sender) >= tokenAmount */\n      lt\n      iszero\n        /* \"contracts/capital/Pool.sol\":3054:3137  require(hedhToken.balanceOf(msg.sender) >= tokenAmount, \"Pool: Not enough balance\") */\n      tag_157\n      jumpi\n      mload(0x40)\n      0x08c379a000000000000000000000000000000000000000000000000000000000\n      dup2\n      mstore\n      0x04\n      add\n      tag_158\n      swap1\n      tag_159\n      jump\t// in\n    tag_158:\n      mload(0x40)\n      dup1\n      swap2\n      sub\n      swap1\n      revert\n    tag_157:\n        /* \"contracts/capital/Pool.sol\":3148:3157  IMCR _mcr */\n      0x00\n        /* \"contracts/capital/Pool.sol\":3160:3165  mcr() */\n      tag_160\n        /* \"contracts/capital/Pool.sol\":3160:3163  mcr */\n      tag_106\n        /* \"contracts/capital/Pool.sol\":3160:3165  mcr() */\n      jump\t// in\n    tag_160:\n        /* \"contracts/capital/Pool.sol\":3148:3165  IMCR _mcr = mcr() */\n      swap1\n      pop\n        /* \"contracts/capital/Pool.sol\":3175:3202  uint currentTotalAssetValue */\n      0x00\n        /* \"contracts/capital/Pool.sol\":3205:3226  address(this).balance */\n      selfbalance\n        /* \"contracts/capital/Pool.sol\":3175:3226  uint currentTotalAssetValue = address(this).balance */\n      swap1\n      pop\n        /* \"contracts/capital/Pool.sol\":3237:3248  uint mcrEth */\n      0x00\n        /* \"contracts/capital/Pool.sol\":3251:3255  _mcr */\n      dup3\n        /* \"contracts/capital/Pool.sol\":3251:3262  _mcr.getMCR */\n      0xffffffffffffffffffffffffffffffffffffffff\n      and\n      0x44936b10\n        /* \"contracts/capital/Pool.sol\":3251:3264  _mcr.getMCR() */\n      mload(0x40)\n      dup2\n      0xffffffff\n      and\n      0xe0\n      shl\n      dup2\n      mstore\n      0x04\n      add\n      0x20\n      mload(0x40)\n      dup1\n      dup4\n      sub\n      dup2\n      dup7\n      gas\n      staticcall\n      iszero\n      dup1\n      iszero\n      tag_162\n      jumpi\n      returndatasize\n      0x00\n      dup1\n      returndatacopy\n      revert(0x00, returndatasize)\n    tag_162:\n      pop\n      pop\n      pop\n      pop\n      mload(0x40)\n      returndatasize\n      not(0x1f)\n      0x1f\n      dup3\n      add\n      and\n      dup3\n      add\n      dup1\n      0x40\n      mstore\n      pop\n      dup2\n      add\n      swap1\n      tag_163\n      swap2\n      swap1\n      tag_110\n      jump\t// in\n    tag_163:\n        /* \"contracts/capital/Pool.sol\":3237:3264  uint mcrEth = _mcr.getMCR() */\n      swap1\n      pop\n        /* \"contracts/capital/Pool.sol\":3274:3285  uint ethOut */\n      0x00\n        /* \"contracts/capital/Pool.sol\":3288:3352  calculateEthForHEDH(tokenAmount, currentTotalAssetValue, mcrEth) */\n      tag_164\n        /* \"contracts/capital/Pool.sol\":3308:3319  tokenAmount */\n      dup7\n        /* \"contracts/capital/Pool.sol\":3321:3343  currentTotalAssetValue */\n      dup5\n        /* \"contracts/capital/Pool.sol\":3345:3351  mcrEth */\n      dup5\n        /* \"contracts/capital/Pool.sol\":3288:3307  calculateEthForHEDH */\n      tag_84\n        /* \"contracts/capital/Pool.sol\":3288:3352  calculateEthForHEDH(tokenAmount, currentTotalAssetValue, mcrEth) */\n      jump\t// in\n    tag_164:\n        /* \"contracts/capital/Pool.sol\":3274:3352  uint ethOut = calculateEthForHEDH(tokenAmount, currentTotalAssetValue, mcrEth) */\n      swap1\n      pop\n        /* \"contracts/capital/Pool.sol\":3405:3411  mcrEth */\n      dup2\n        /* \"contracts/capital/Pool.sol\":3395:3401  ethOut */\n      dup2\n        /* \"contracts/capital/Pool.sol\":3370:3392  currentTotalAssetValue */\n      dup5\n        /* \"contracts/capital/Pool.sol\":3370:3401  currentTotalAssetValue - ethOut */\n      tag_165\n      swap2\n      swap1\n      tag_104\n      jump\t// in\n    tag_165:\n        /* \"contracts/capital/Pool.sol\":3370:3411  currentTotalAssetValue - ethOut >= mcrEth */\n      lt\n      iszero\n        /* \"contracts/capital/Pool.sol\":3362:3449  require(currentTotalAssetValue - ethOut >= mcrEth, \"Pool: MCR% cannot fall below 100%\") */\n      tag_166\n      jumpi\n      mload(0x40)\n      0x08c379a000000000000000000000000000000000000000000000000000000000\n      dup2\n      mstore\n      0x04\n      add\n      tag_167\n      swap1\n      tag_168\n      jump\t// in\n    tag_167:\n      mload(0x40)\n      dup1\n      swap2\n      sub\n      swap1\n      revert\n    tag_166:\n        /* \"contracts/capital/Pool.sol\":3477:3486  minEthOut */\n      dup5\n        /* \"contracts/capital/Pool.sol\":3467:3473  ethOut */\n      dup2\n        /* \"contracts/capital/Pool.sol\":3467:3486  ethOut >= minEthOut */\n      lt\n      iszero\n        /* \"contracts/capital/Pool.sol\":3459:3515  require(ethOut >= minEthOut, \"Pool: ethOut < minEthOut\") */\n      tag_169\n      jumpi\n      mload(0x40)\n      0x08c379a000000000000000000000000000000000000000000000000000000000\n      dup2\n      mstore\n      0x04\n      add\n      tag_170\n      swap1\n      tag_171\n      jump\t// in\n    tag_170:\n      mload(0x40)\n      dup1\n      swap2\n      sub\n      swap1\n      revert\n    tag_169:\n        /* \"contracts/capital/Pool.sol\":3526:3535  hedhToken */\n      0x01\n      0x00\n      swap1\n      sload\n      swap1\n      0x0100\n      exp\n      swap1\n      div\n      0xffffffffffffffffffffffffffffffffffffffff\n      and\n        /* \"contracts/capital/Pool.sol\":3526:3544  hedhToken.burnFrom */\n      0xffffffffffffffffffffffffffffffffffffffff\n      and\n      0x79cc6790\n        /* \"contracts/capital/Pool.sol\":3545:3555  msg.sender */\n      caller\n        /* \"contracts/capital/Pool.sol\":3557:3568  tokenAmount */\n      dup9\n        /* \"contracts/capital/Pool.sol\":3526:3569  hedhToken.burnFrom(msg.sender, tokenAmount) */\n      mload(0x40)\n      dup4\n      0xffffffff\n      and\n      0xe0\n      shl\n      dup2\n      mstore\n      0x04\n      add\n      tag_172\n      swap3\n      swap2\n      swap1\n      tag_116\n      jump\t// in\n    tag_172:\n      0x20\n      mload(0x40)\n      dup1\n      dup4\n      sub\n      dup2\n      0x00\n      dup8\n      gas\n      call\n      iszero\n      dup1\n      iszero\n      tag_174\n      jumpi\n      returndatasize\n      0x00\n      dup1\n      returndatacopy\n      revert(0x00, returndatasize)\n    tag_174:\n      pop\n      pop\n      pop\n      pop\n      mload(0x40)\n      returndatasize\n      not(0x1f)\n      0x1f\n      dup3\n      add\n      and\n      dup3\n      add\n      dup1\n      0x40\n      mstore\n      pop\n      dup2\n      add\n      swap1\n      tag_175\n      swap2\n      swap1\n      tag_176\n      jump\t// in\n    tag_175:\n      pop\n        /* \"contracts/capital/Pool.sol\":3580:3587  bool ok */\n      0x00\n        /* \"contracts/capital/Pool.sol\":3604:3614  msg.sender */\n      caller\n        /* \"contracts/capital/Pool.sol\":3603:3620  (msg.sender).call */\n      0xffffffffffffffffffffffffffffffffffffffff\n      and\n        /* \"contracts/capital/Pool.sol\":3628:3634  ethOut */\n      dup3\n        /* \"contracts/capital/Pool.sol\":3603:3639  (msg.sender).call{value: ethOut}(\"\") */\n      mload(0x40)\n      tag_177\n      swap1\n      tag_178\n      jump\t// in\n    tag_177:\n      0x00\n      mload(0x40)\n      dup1\n      dup4\n      sub\n      dup2\n      dup6\n      dup8\n      gas\n      call\n      swap3\n      pop\n      pop\n      pop\n      returndatasize\n      dup1\n      0x00\n      dup2\n      eq\n      tag_181\n      jumpi\n      mload(0x40)\n      swap2\n      pop\n      and(add(returndatasize, 0x3f), not(0x1f))\n      dup3\n      add\n      0x40\n      mstore\n      returndatasize\n      dup3\n      mstore\n      returndatasize\n      0x00\n      0x20\n      dup5\n      add\n      returndatacopy\n      jump(tag_180)\n    tag_181:\n      0x60\n      swap2\n      pop\n    tag_180:\n      pop\n        /* \"contracts/capital/Pool.sol\":3579:3639  (bool ok, /* data */) = (msg.sender).call{value: ethOut}(\"\") */\n      pop\n      swap1\n      pop\n        /* \"contracts/capital/Pool.sol\":3657:3659  ok */\n      dup1\n        /* \"contracts/capital/Pool.sol\":3649:3690  require(ok, \"Pool: Sell transfer failed\") */\n      tag_182\n      jumpi\n      mload(0x40)\n      0x08c379a000000000000000000000000000000000000000000000000000000000\n      dup2\n      mstore\n      0x04\n      add\n      tag_183\n      swap1\n      tag_184\n      jump\t// in\n    tag_183:\n      mload(0x40)\n      dup1\n      swap2\n      sub\n      swap1\n      revert\n    tag_182:\n        /* \"contracts/capital/Pool.sol\":3788:3792  _mcr */\n      dup5\n        /* \"contracts/capital/Pool.sol\":3788:3810  _mcr.updateMCRInternal */\n      0xffffffffffffffffffffffffffffffffffffffff\n      and\n      0xaa5da046\n        /* \"contracts/capital/Pool.sol\":3788:3812  _mcr.updateMCRInternal() */\n      mload(0x40)\n      dup2\n      0xffffffff\n      and\n      0xe0\n      shl\n      dup2\n      mstore\n      0x04\n      add\n      0x00\n      mload(0x40)\n      dup1\n      dup4\n      sub\n      dup2\n      0x00\n      dup8\n      dup1\n      extcodesize\n      iszero\n      dup1\n      iszero\n      tag_185\n      jumpi\n      0x00\n      dup1\n      revert\n    tag_185:\n      pop\n      gas\n      call\n      iszero\n      dup1\n      iszero\n      tag_187\n      jumpi\n      returndatasize\n      0x00\n      dup1\n      returndatacopy\n      revert(0x00, returndatasize)\n    tag_187:\n      pop\n      pop\n      pop\n      pop\n        /* \"contracts/capital/Pool.sol\":3836:3846  msg.sender */\n      caller\n        /* \"contracts/capital/Pool.sol\":3827:3868  HEDHSold(msg.sender, tokenAmount, ethOut) */\n      0xffffffffffffffffffffffffffffffffffffffff\n      and\n      0x1d1ddca8aa909e7f7fc055611b4269f6c858ad1e95735416f86f08c2d49e7473\n        /* \"contracts/capital/Pool.sol\":3848:3859  tokenAmount */\n      dup9\n        /* \"contracts/capital/Pool.sol\":3861:3867  ethOut */\n      dup5\n        /* \"contracts/capital/Pool.sol\":3827:3868  HEDHSold(msg.sender, tokenAmount, ethOut) */\n      mload(0x40)\n      tag_188\n      swap3\n      swap2\n      swap1\n      tag_124\n      jump\t// in\n    tag_188:\n      mload(0x40)\n      dup1\n      swap2\n      sub\n      swap1\n      log2\n        /* \"contracts/capital/Pool.sol\":3044:3875  {... */\n      pop\n      pop\n      pop\n      pop\n      pop\n        /* \"contracts/capital/Pool.sol\":2953:3875  function sellHEDH(... */\n      pop\n      pop\n      jump\t// out\n        /* \"contracts/capital/Pool.sol\":1093:1482  function sendPayout(... */\n    tag_69:\n        /* \"contracts/capital/Pool.sol\":1199:1221  bool transferSucceeded */\n      0x00\n        /* \"contracts/capital/Pool.sol\":1237:1250  payoutAddress */\n      dup3\n        /* \"contracts/capital/Pool.sol\":1237:1255  payoutAddress.call */\n      0xffffffffffffffffffffffffffffffffffffffff\n      and\n        /* \"contracts/capital/Pool.sol\":1264:1270  amount */\n      dup3\n        /* \"contracts/capital/Pool.sol\":1237:1275  payoutAddress.call{value : amount}(\"\") */\n      mload(0x40)\n      tag_190\n      swap1\n      tag_178\n      jump\t// in\n    tag_190:\n      0x00\n      mload(0x40)\n      dup1\n      dup4\n      sub\n      dup2\n      dup6\n      dup8\n      gas\n      call\n      swap3\n      pop\n      pop\n      pop\n      returndatasize\n      dup1\n      0x00\n      dup2\n      eq\n      tag_193\n      jumpi\n      mload(0x40)\n      swap2\n      pop\n      and(add(returndatasize, 0x3f), not(0x1f))\n      dup3\n      add\n      0x40\n      mstore\n      returndatasize\n      dup3\n      mstore\n      returndatasize\n      0x00\n      0x20\n      dup5\n      add\n      returndatacopy\n      jump(tag_192)\n    tag_193:\n      0x60\n      swap2\n      pop\n    tag_192:\n      pop\n        /* \"contracts/capital/Pool.sol\":1198:1275  (bool transferSucceeded, /* data */) = payoutAddress.call{value : amount}(\"\") */\n      pop\n      swap1\n      pop\n        /* \"contracts/capital/Pool.sol\":1293:1310  transferSucceeded */\n      dup1\n        /* \"contracts/capital/Pool.sol\":1285:1340  require(transferSucceeded, \"Pool: ETH transfer failed\") */\n      tag_194\n      jumpi\n      mload(0x40)\n      0x08c379a000000000000000000000000000000000000000000000000000000000\n      dup2\n      mstore\n      0x04\n      add\n      tag_195\n      swap1\n      tag_196\n      jump\t// in\n    tag_195:\n      mload(0x40)\n      dup1\n      swap2\n      sub\n      swap1\n      revert\n    tag_194:\n        /* \"contracts/capital/Pool.sol\":1362:1375  payoutAddress */\n      dup3\n        /* \"contracts/capital/Pool.sol\":1355:1383  Payout(payoutAddress,amount) */\n      0xffffffffffffffffffffffffffffffffffffffff\n      and\n      0x5afeca38b2064c23a692c4cf353015d80ab3ecc417b4f893f372690c11fbd9a6\n        /* \"contracts/capital/Pool.sol\":1376:1382  amount */\n      dup4\n        /* \"contracts/capital/Pool.sol\":1355:1383  Payout(payoutAddress,amount) */\n      mload(0x40)\n      tag_197\n      swap2\n      swap1\n      tag_28\n      jump\t// in\n    tag_197:\n      mload(0x40)\n      dup1\n      swap2\n      sub\n      swap1\n      log2\n        /* \"contracts/capital/Pool.sol\":1393:1413  uint totalAssetValue */\n      0x00\n        /* \"contracts/capital/Pool.sol\":1416:1437  address(this).balance */\n      selfbalance\n        /* \"contracts/capital/Pool.sol\":1393:1437  uint totalAssetValue = address(this).balance */\n      swap1\n      pop\n        /* \"contracts/capital/Pool.sol\":1449:1454  mcr() */\n      tag_198\n        /* \"contracts/capital/Pool.sol\":1449:1452  mcr */\n      tag_106\n        /* \"contracts/capital/Pool.sol\":1449:1454  mcr() */\n      jump\t// in\n    tag_198:\n        /* \"contracts/capital/Pool.sol\":1449:1472  mcr().updateMCRInternal */\n      0xffffffffffffffffffffffffffffffffffffffff\n      and\n      0xaa5da046\n        /* \"contracts/capital/Pool.sol\":1449:1474  mcr().updateMCRInternal() */\n      mload(0x40)\n      dup2\n      0xffffffff\n      and\n      0xe0\n      shl\n      dup2\n      mstore\n      0x04\n      add\n      0x00\n      mload(0x40)\n      dup1\n      dup4\n      sub\n      dup2\n      0x00\n      dup8\n      dup1\n      extcodesize\n      iszero\n      dup1\n      iszero\n      tag_199\n      jumpi\n      0x00\n      dup1\n      revert\n    tag_199:\n      pop\n      gas\n      call\n      iszero\n      dup1\n      iszero\n      tag_201\n      jumpi\n      returndatasize\n      0x00\n      dup1\n      returndatacopy\n      revert(0x00, returndatasize)\n    tag_201:\n      pop\n      pop\n      pop\n      pop\n        /* \"contracts/capital/Pool.sol\":1188:1482  {... */\n      pop\n      pop\n        /* \"contracts/capital/Pool.sol\":1093:1482  function sendPayout(... */\n      pop\n      pop\n      jump\t// out\n        /* \"contracts/capital/Pool.sol\":1586:1725  function sellHEDHTokens(... */\n    tag_73:\n        /* \"contracts/capital/Pool.sol\":1654:1666  bool success */\n      0x00\n        /* \"contracts/capital/Pool.sol\":1678:1697  sellHEDH(amount, 0) */\n      tag_203\n        /* \"contracts/capital/Pool.sol\":1687:1693  amount */\n      dup3\n        /* \"contracts/capital/Pool.sol\":1695:1696  0 */\n      0x00\n        /* \"contracts/capital/Pool.sol\":1678:1686  sellHEDH */\n      tag_64\n        /* \"contracts/capital/Pool.sol\":1678:1697  sellHEDH(amount, 0) */\n      jump\t// in\n    tag_203:\n        /* \"contracts/capital/Pool.sol\":1714:1718  true */\n      0x01\n        /* \"contracts/capital/Pool.sol\":1707:1718  return true */\n      swap1\n      pop\n        /* \"contracts/capital/Pool.sol\":1586:1725  function sellHEDHTokens(... */\n      swap2\n      swap1\n      pop\n      jump\t// out\n        /* \"contracts/capital/Pool.sol\":8466:8730  function getEthForHEDH(uint hedhAmount) public view  returns (uint ethAmount) {... */\n    tag_79:\n        /* \"contracts/capital/Pool.sol\":8528:8542  uint ethAmount */\n      0x00\n        /* \"contracts/capital/Pool.sol\":8554:8581  uint currentTotalAssetValue */\n      dup1\n        /* \"contracts/capital/Pool.sol\":8584:8605  address(this).balance */\n      selfbalance\n        /* \"contracts/capital/Pool.sol\":8554:8605  uint currentTotalAssetValue = address(this).balance */\n      swap1\n      pop\n        /* \"contracts/capital/Pool.sol\":8615:8626  uint mcrEth */\n      0x00\n        /* \"contracts/capital/Pool.sol\":8629:8634  mcr() */\n      tag_205\n        /* \"contracts/capital/Pool.sol\":8629:8632  mcr */\n      tag_106\n        /* \"contracts/capital/Pool.sol\":8629:8634  mcr() */\n      jump\t// in\n    tag_205:\n        /* \"contracts/capital/Pool.sol\":8629:8641  mcr().getMCR */\n      0xffffffffffffffffffffffffffffffffffffffff\n      and\n      0x44936b10\n        /* \"contracts/capital/Pool.sol\":8629:8643  mcr().getMCR() */\n      mload(0x40)\n      dup2\n      0xffffffff\n      and\n      0xe0\n      shl\n      dup2\n      mstore\n      0x04\n      add\n      0x20\n      mload(0x40)\n      dup1\n      dup4\n      sub\n      dup2\n      dup7\n      gas\n      staticcall\n      iszero\n      dup1\n      iszero\n      tag_207\n      jumpi\n      returndatasize\n      0x00\n      dup1\n      returndatacopy\n      revert(0x00, returndatasize)\n    tag_207:\n      pop\n      pop\n      pop\n      pop\n      mload(0x40)\n      returndatasize\n      not(0x1f)\n      0x1f\n      dup3\n      add\n      and\n      dup3\n      add\n      dup1\n      0x40\n      mstore\n      pop\n      dup2\n      add\n      swap1\n      tag_208\n      swap2\n      swap1\n      tag_110\n      jump\t// in\n    tag_208:\n        /* \"contracts/capital/Pool.sol\":8615:8643  uint mcrEth = mcr().getMCR() */\n      swap1\n      pop\n        /* \"contracts/capital/Pool.sol\":8660:8723  calculateEthForHEDH(hedhAmount, currentTotalAssetValue, mcrEth) */\n      tag_209\n        /* \"contracts/capital/Pool.sol\":8680:8690  hedhAmount */\n      dup5\n        /* \"contracts/capital/Pool.sol\":8692:8714  currentTotalAssetValue */\n      dup4\n        /* \"contracts/capital/Pool.sol\":8716:8722  mcrEth */\n      dup4\n        /* \"contracts/capital/Pool.sol\":8660:8679  calculateEthForHEDH */\n      tag_84\n        /* \"contracts/capital/Pool.sol\":8660:8723  calculateEthForHEDH(hedhAmount, currentTotalAssetValue, mcrEth) */\n      jump\t// in\n    tag_209:\n        /* \"contracts/capital/Pool.sol\":8653:8723  return calculateEthForHEDH(hedhAmount, currentTotalAssetValue, mcrEth) */\n      swap3\n      pop\n      pop\n      pop\n        /* \"contracts/capital/Pool.sol\":8466:8730  function getEthForHEDH(uint hedhAmount) public view  returns (uint ethAmount) {... */\n      swap2\n      swap1\n      pop\n      jump\t// out\n        /* \"contracts/capital/Pool.sol\":9089:10319  function calculateEthForHEDH(... */\n    tag_84:\n        /* \"contracts/capital/Pool.sol\":9228:9232  uint */\n      0x00\n        /* \"contracts/capital/Pool.sol\":9354:9369  uint spotPrice0 */\n      dup1\n        /* \"contracts/capital/Pool.sol\":9372:9427  calculateTokenSpotPrice(currentTotalAssetValue, mcrEth) */\n      tag_211\n        /* \"contracts/capital/Pool.sol\":9396:9418  currentTotalAssetValue */\n      dup5\n        /* \"contracts/capital/Pool.sol\":9420:9426  mcrEth */\n      dup5\n        /* \"contracts/capital/Pool.sol\":9372:9395  calculateTokenSpotPrice */\n      tag_26\n        /* \"contracts/capital/Pool.sol\":9372:9427  calculateTokenSpotPrice(currentTotalAssetValue, mcrEth) */\n      jump\t// in\n    tag_211:\n        /* \"contracts/capital/Pool.sol\":9354:9427  uint spotPrice0 = calculateTokenSpotPrice(currentTotalAssetValue, mcrEth) */\n      swap1\n      pop\n        /* \"contracts/capital/Pool.sol\":9437:9455  uint spotEthAmount */\n      0x00\n        /* \"contracts/capital/Pool.sol\":9483:9487  1e18 */\n      0x0de0b6b3a7640000\n        /* \"contracts/capital/Pool.sol\":9470:9480  spotPrice0 */\n      dup3\n        /* \"contracts/capital/Pool.sol\":9458:9467  nxmAmount */\n      dup8\n        /* \"contracts/capital/Pool.sol\":9458:9480  nxmAmount * spotPrice0 */\n      tag_212\n      swap2\n      swap1\n      tag_89\n      jump\t// in\n    tag_212:\n        /* \"contracts/capital/Pool.sol\":9458:9487  nxmAmount * spotPrice0 / 1e18 */\n      tag_213\n      swap2\n      swap1\n      tag_95\n      jump\t// in\n    tag_213:\n        /* \"contracts/capital/Pool.sol\":9437:9487  uint spotEthAmount = nxmAmount * spotPrice0 / 1e18 */\n      swap1\n      pop\n        /* \"contracts/capital/Pool.sol\":9600:9632  uint totalValuePostSpotPriceSell */\n      0x00\n        /* \"contracts/capital/Pool.sol\":9660:9673  spotEthAmount */\n      dup2\n        /* \"contracts/capital/Pool.sol\":9635:9657  currentTotalAssetValue */\n      dup7\n        /* \"contracts/capital/Pool.sol\":9635:9673  currentTotalAssetValue - spotEthAmount */\n      tag_214\n      swap2\n      swap1\n      tag_104\n      jump\t// in\n    tag_214:\n        /* \"contracts/capital/Pool.sol\":9600:9673  uint totalValuePostSpotPriceSell = currentTotalAssetValue - spotEthAmount */\n      swap1\n      pop\n        /* \"contracts/capital/Pool.sol\":9683:9698  uint spotPrice1 */\n      0x00\n        /* \"contracts/capital/Pool.sol\":9701:9761  calculateTokenSpotPrice(totalValuePostSpotPriceSell, mcrEth) */\n      tag_215\n        /* \"contracts/capital/Pool.sol\":9725:9752  totalValuePostSpotPriceSell */\n      dup3\n        /* \"contracts/capital/Pool.sol\":9754:9760  mcrEth */\n      dup8\n        /* \"contracts/capital/Pool.sol\":9701:9724  calculateTokenSpotPrice */\n      tag_26\n        /* \"contracts/capital/Pool.sol\":9701:9761  calculateTokenSpotPrice(totalValuePostSpotPriceSell, mcrEth) */\n      jump\t// in\n    tag_215:\n        /* \"contracts/capital/Pool.sol\":9683:9761  uint spotPrice1 = calculateTokenSpotPrice(totalValuePostSpotPriceSell, mcrEth) */\n      swap1\n      pop\n        /* \"contracts/capital/Pool.sol\":9887:9914  uint averagePriceWithSpread */\n      0x00\n        /* \"contracts/capital/Pool.sol\":9955:9959  1000 */\n      0x03e8\n        /* \"contracts/capital/Pool.sol\":9949:9952  975 */\n      0x03cf\n        /* \"contracts/capital/Pool.sol\":9945:9946  2 */\n      0x02\n        /* \"contracts/capital/Pool.sol\":9931:9941  spotPrice1 */\n      dup5\n        /* \"contracts/capital/Pool.sol\":9918:9928  spotPrice0 */\n      dup9\n        /* \"contracts/capital/Pool.sol\":9918:9941  spotPrice0 + spotPrice1 */\n      tag_216\n      swap2\n      swap1\n      tag_98\n      jump\t// in\n    tag_216:\n        /* \"contracts/capital/Pool.sol\":9917:9946  (spotPrice0 + spotPrice1) / 2 */\n      tag_217\n      swap2\n      swap1\n      tag_95\n      jump\t// in\n    tag_217:\n        /* \"contracts/capital/Pool.sol\":9917:9952  (spotPrice0 + spotPrice1) / 2 * 975 */\n      tag_218\n      swap2\n      swap1\n      tag_89\n      jump\t// in\n    tag_218:\n        /* \"contracts/capital/Pool.sol\":9917:9959  (spotPrice0 + spotPrice1) / 2 * 975 / 1000 */\n      tag_219\n      swap2\n      swap1\n      tag_95\n      jump\t// in\n    tag_219:\n        /* \"contracts/capital/Pool.sol\":9887:9959  uint averagePriceWithSpread = (spotPrice0 + spotPrice1) / 2 * 975 / 1000 */\n      swap1\n      pop\n        /* \"contracts/capital/Pool.sol\":9969:9984  uint finalPrice */\n      0x00\n        /* \"contracts/capital/Pool.sol\":9987:10031  Math.min(averagePriceWithSpread, spotPrice1) */\n      tag_220\n        /* \"contracts/capital/Pool.sol\":9996:10018  averagePriceWithSpread */\n      dup3\n        /* \"contracts/capital/Pool.sol\":10020:10030  spotPrice1 */\n      dup5\n        /* \"contracts/capital/Pool.sol\":9987:9995  Math.min */\n      tag_221\n        /* \"contracts/capital/Pool.sol\":9987:10031  Math.min(averagePriceWithSpread, spotPrice1) */\n      jump\t// in\n    tag_220:\n        /* \"contracts/capital/Pool.sol\":9969:10031  uint finalPrice = Math.min(averagePriceWithSpread, spotPrice1) */\n      swap1\n      pop\n        /* \"contracts/capital/Pool.sol\":10041:10055  uint ethAmount */\n      0x00\n        /* \"contracts/capital/Pool.sol\":10083:10087  1e18 */\n      0x0de0b6b3a7640000\n        /* \"contracts/capital/Pool.sol\":10071:10080  nxmAmount */\n      dup12\n        /* \"contracts/capital/Pool.sol\":10058:10068  finalPrice */\n      dup4\n        /* \"contracts/capital/Pool.sol\":10058:10080  finalPrice * nxmAmount */\n      tag_222\n      swap2\n      swap1\n      tag_89\n      jump\t// in\n    tag_222:\n        /* \"contracts/capital/Pool.sol\":10058:10087  finalPrice * nxmAmount / 1e18 */\n      tag_223\n      swap2\n      swap1\n      tag_95\n      jump\t// in\n    tag_223:\n        /* \"contracts/capital/Pool.sol\":10041:10087  uint ethAmount = finalPrice * nxmAmount / 1e18 */\n      swap1\n      pop\n        /* \"contracts/capital/Pool.sol\":10303:10312  ethAmount */\n      dup1\n        /* \"contracts/capital/Pool.sol\":10296:10312  return ethAmount */\n      swap8\n      pop\n      pop\n      pop\n      pop\n      pop\n      pop\n      pop\n      pop\n        /* \"contracts/capital/Pool.sol\":9089:10319  function calculateEthForHEDH(... */\n      swap4\n      swap3\n      pop\n      pop\n      pop\n      jump\t// out\n        /* \"contracts/capital/Pool.sol\":1487:1580  function mcr() internal view returns (IMCR) {... */\n    tag_106:\n        /* \"contracts/capital/Pool.sol\":1525:1529  IMCR */\n      0x00\n        /* \"contracts/capital/Pool.sol\":1553:1559  master */\n      0x02\n      0x00\n      swap1\n      sload\n      swap1\n      0x0100\n      exp\n      swap1\n      div\n      0xffffffffffffffffffffffffffffffffffffffff\n      and\n        /* \"contracts/capital/Pool.sol\":1553:1570  master.MCRAddress */\n      0xffffffffffffffffffffffffffffffffffffffff\n      and\n      0x88ea0751\n        /* \"contracts/capital/Pool.sol\":1553:1572  master.MCRAddress() */\n      mload(0x40)\n      dup2\n      0xffffffff\n      and\n      0xe0\n      shl\n      dup2\n      mstore\n      0x04\n      add\n      0x20\n      mload(0x40)\n      dup1\n      dup4\n      sub\n      dup2\n      dup7\n      gas\n      staticcall\n      iszero\n      dup1\n      iszero\n      tag_226\n      jumpi\n      returndatasize\n      0x00\n      dup1\n      returndatacopy\n      revert(0x00, returndatasize)\n    tag_226:\n      pop\n      pop\n      pop\n      pop\n      mload(0x40)\n      returndatasize\n      not(0x1f)\n      0x1f\n      dup3\n      add\n      and\n      dup3\n      add\n      dup1\n      0x40\n      mstore\n      pop\n      dup2\n      add\n      swap1\n      tag_227\n      swap2\n      swap1\n      tag_228\n      jump\t// in\n    tag_227:\n        /* \"contracts/capital/Pool.sol\":1541:1573  return IMCR(master.MCRAddress()) */\n      swap1\n      pop\n        /* \"contracts/capital/Pool.sol\":1487:1580  function mcr() internal view returns (IMCR) {... */\n      swap1\n      jump\t// out\n        /* \"contracts/capital/Pool.sol\":8234:8460  function calculateIntegralAtPoint(... */\n    tag_138:\n        /* \"contracts/capital/Pool.sol\":8343:8347  uint */\n      0x00\n        /* \"contracts/capital/Pool.sol\":8443:8453  assetValue */\n      dup3\n        /* \"contracts/capital/Pool.sol\":8434:8440  mcrEth */\n      dup3\n        /* \"contracts/capital/Pool.sol\":8421:8431  assetValue */\n      dup5\n        /* \"contracts/capital/Pool.sol\":8412:8418  mcrEth */\n      dup5\n        /* \"contracts/capital/Pool.sol\":8399:8409  assetValue */\n      dup7\n        /* \"contracts/capital/Pool.sol\":8390:8396  mcrEth */\n      dup7\n        /* \"contracts/capital/Pool.sol\":8386:8387  3 */\n      0x03\n        /* \"contracts/capital/Pool.sol\":8379:8383  1e18 */\n      0x0de0b6b3a7640000\n        /* \"contracts/capital/Pool.sol\":445:452  5800000 */\n      0x588040\n        /* \"contracts/capital/Pool.sol\":8366:8383  CONSTANT_C * 1e18 */\n      tag_230\n      swap2\n      swap1\n      tag_89\n      jump\t// in\n    tag_230:\n        /* \"contracts/capital/Pool.sol\":8366:8387  CONSTANT_C * 1e18 / 3 */\n      tag_231\n      swap2\n      swap1\n      tag_95\n      jump\t// in\n    tag_231:\n        /* \"contracts/capital/Pool.sol\":8366:8396  CONSTANT_C * 1e18 / 3 * mcrEth */\n      tag_232\n      swap2\n      swap1\n      tag_89\n      jump\t// in\n    tag_232:\n        /* \"contracts/capital/Pool.sol\":8366:8409  CONSTANT_C * 1e18 / 3 * mcrEth / assetValue */\n      tag_233\n      swap2\n      swap1\n      tag_95\n      jump\t// in\n    tag_233:\n        /* \"contracts/capital/Pool.sol\":8366:8418  CONSTANT_C * 1e18 / 3 * mcrEth / assetValue * mcrEth */\n      tag_234\n      swap2\n      swap1\n      tag_89\n      jump\t// in\n    tag_234:\n        /* \"contracts/capital/Pool.sol\":8366:8431  CONSTANT_C * 1e18 / 3 * mcrEth / assetValue * mcrEth / assetValue */\n      tag_235\n      swap2\n      swap1\n      tag_95\n      jump\t// in\n    tag_235:\n        /* \"contracts/capital/Pool.sol\":8366:8440  CONSTANT_C * 1e18 / 3 * mcrEth / assetValue * mcrEth / assetValue * mcrEth */\n      tag_236\n      swap2\n      swap1\n      tag_89\n      jump\t// in\n    tag_236:\n        /* \"contracts/capital/Pool.sol\":8366:8453  CONSTANT_C * 1e18 / 3 * mcrEth / assetValue * mcrEth / assetValue * mcrEth / assetValue */\n      tag_237\n      swap2\n      swap1\n      tag_95\n      jump\t// in\n    tag_237:\n        /* \"contracts/capital/Pool.sol\":8359:8453  return CONSTANT_C * 1e18 / 3 * mcrEth / assetValue * mcrEth / assetValue * mcrEth / assetValue */\n      swap1\n      pop\n        /* \"contracts/capital/Pool.sol\":8234:8460  function calculateIntegralAtPoint(... */\n      swap3\n      swap2\n      pop\n      pop\n      jump\t// out\n        /* \"contracts/libraries/Math.sol\":169:258  function min(uint a, uint b) internal pure returns (uint) {... */\n    tag_221:\n        /* \"contracts/libraries/Math.sol\":221:225  uint */\n      0x00\n        /* \"contracts/libraries/Math.sol\":244:245  b */\n      dup2\n        /* \"contracts/libraries/Math.sol\":240:241  a */\n      dup4\n        /* \"contracts/libraries/Math.sol\":240:245  a < b */\n      lt\n        /* \"contracts/libraries/Math.sol\":240:253  a < b ? a : b */\n      tag_239\n      jumpi\n        /* \"contracts/libraries/Math.sol\":252:253  b */\n      dup2\n        /* \"contracts/libraries/Math.sol\":240:253  a < b ? a : b */\n      jump(tag_240)\n    tag_239:\n        /* \"contracts/libraries/Math.sol\":248:249  a */\n      dup3\n        /* \"contracts/libraries/Math.sol\":240:253  a < b ? a : b */\n    tag_240:\n        /* \"contracts/libraries/Math.sol\":233:253  return a < b ? a : b */\n      swap1\n      pop\n        /* \"contracts/libraries/Math.sol\":169:258  function min(uint a, uint b) internal pure returns (uint) {... */\n      swap3\n      swap2\n      pop\n      pop\n      jump\t// out\n        /* \"#utility.yul\":88:205   */\n    tag_242:\n        /* \"#utility.yul\":197:198   */\n      0x00\n        /* \"#utility.yul\":194:195   */\n      dup1\n        /* \"#utility.yul\":187:199   */\n      revert\n        /* \"#utility.yul\":334:411   */\n    tag_244:\n        /* \"#utility.yul\":371:378   */\n      0x00\n        /* \"#utility.yul\":400:405   */\n      dup2\n        /* \"#utility.yul\":389:405   */\n      swap1\n      pop\n        /* \"#utility.yul\":334:411   */\n      swap2\n      swap1\n      pop\n      jump\t// out\n        /* \"#utility.yul\":417:539   */\n    tag_245:\n        /* \"#utility.yul\":490:514   */\n      tag_290\n        /* \"#utility.yul\":508:513   */\n      dup2\n        /* \"#utility.yul\":490:514   */\n      tag_244\n      jump\t// in\n    tag_290:\n        /* \"#utility.yul\":483:488   */\n      dup2\n        /* \"#utility.yul\":480:515   */\n      eq\n        /* \"#utility.yul\":470:533   */\n      tag_291\n      jumpi\n        /* \"#utility.yul\":529:530   */\n      0x00\n        /* \"#utility.yul\":526:527   */\n      dup1\n        /* \"#utility.yul\":519:531   */\n      revert\n        /* \"#utility.yul\":470:533   */\n    tag_291:\n        /* \"#utility.yul\":417:539   */\n      pop\n      jump\t// out\n        /* \"#utility.yul\":545:684   */\n    tag_246:\n        /* \"#utility.yul\":591:596   */\n      0x00\n        /* \"#utility.yul\":629:635   */\n      dup2\n        /* \"#utility.yul\":616:636   */\n      calldataload\n        /* \"#utility.yul\":607:636   */\n      swap1\n      pop\n        /* \"#utility.yul\":645:678   */\n      tag_293\n        /* \"#utility.yul\":672:677   */\n      dup2\n        /* \"#utility.yul\":645:678   */\n      tag_245\n      jump\t// in\n    tag_293:\n        /* \"#utility.yul\":545:684   */\n      swap3\n      swap2\n      pop\n      pop\n      jump\t// out\n        /* \"#utility.yul\":690:1164   */\n    tag_25:\n        /* \"#utility.yul\":758:764   */\n      0x00\n        /* \"#utility.yul\":766:772   */\n      dup1\n        /* \"#utility.yul\":815:817   */\n      0x40\n        /* \"#utility.yul\":803:812   */\n      dup4\n        /* \"#utility.yul\":794:801   */\n      dup6\n        /* \"#utility.yul\":790:813   */\n      sub\n        /* \"#utility.yul\":786:818   */\n      slt\n        /* \"#utility.yul\":783:902   */\n      iszero\n      tag_295\n      jumpi\n        /* \"#utility.yul\":821:900   */\n      tag_296\n      tag_242\n      jump\t// in\n    tag_296:\n        /* \"#utility.yul\":783:902   */\n    tag_295:\n        /* \"#utility.yul\":941:942   */\n      0x00\n        /* \"#utility.yul\":966:1019   */\n      tag_297\n        /* \"#utility.yul\":1011:1018   */\n      dup6\n        /* \"#utility.yul\":1002:1008   */\n      dup3\n        /* \"#utility.yul\":991:1000   */\n      dup7\n        /* \"#utility.yul\":987:1009   */\n      add\n        /* \"#utility.yul\":966:1019   */\n      tag_246\n      jump\t// in\n    tag_297:\n        /* \"#utility.yul\":956:1019   */\n      swap3\n      pop\n        /* \"#utility.yul\":912:1029   */\n      pop\n        /* \"#utility.yul\":1068:1070   */\n      0x20\n        /* \"#utility.yul\":1094:1147   */\n      tag_298\n        /* \"#utility.yul\":1139:1146   */\n      dup6\n        /* \"#utility.yul\":1130:1136   */\n      dup3\n        /* \"#utility.yul\":1119:1128   */\n      dup7\n        /* \"#utility.yul\":1115:1137   */\n      add\n        /* \"#utility.yul\":1094:1147   */\n      tag_246\n      jump\t// in\n    tag_298:\n        /* \"#utility.yul\":1084:1147   */\n      swap2\n      pop\n        /* \"#utility.yul\":1039:1157   */\n      pop\n        /* \"#utility.yul\":690:1164   */\n      swap3\n      pop\n      swap3\n      swap1\n      pop\n      jump\t// out\n        /* \"#utility.yul\":1170:1288   */\n    tag_247:\n        /* \"#utility.yul\":1257:1281   */\n      tag_300\n        /* \"#utility.yul\":1275:1280   */\n      dup2\n        /* \"#utility.yul\":1257:1281   */\n      tag_244\n      jump\t// in\n    tag_300:\n        /* \"#utility.yul\":1252:1255   */\n      dup3\n        /* \"#utility.yul\":1245:1282   */\n      mstore\n        /* \"#utility.yul\":1170:1288   */\n      pop\n      pop\n      jump\t// out\n        /* \"#utility.yul\":1294:1516   */\n    tag_28:\n        /* \"#utility.yul\":1387:1391   */\n      0x00\n        /* \"#utility.yul\":1425:1427   */\n      0x20\n        /* \"#utility.yul\":1414:1423   */\n      dup3\n        /* \"#utility.yul\":1410:1428   */\n      add\n        /* \"#utility.yul\":1402:1428   */\n      swap1\n      pop\n        /* \"#utility.yul\":1438:1509   */\n      tag_302\n        /* \"#utility.yul\":1506:1507   */\n      0x00\n        /* \"#utility.yul\":1495:1504   */\n      dup4\n        /* \"#utility.yul\":1491:1508   */\n      add\n        /* \"#utility.yul\":1482:1488   */\n      dup5\n        /* \"#utility.yul\":1438:1509   */\n      tag_247\n      jump\t// in\n    tag_302:\n        /* \"#utility.yul\":1294:1516   */\n      swap3\n      swap2\n      pop\n      pop\n      jump\t// out\n        /* \"#utility.yul\":1522:1851   */\n    tag_31:\n        /* \"#utility.yul\":1581:1587   */\n      0x00\n        /* \"#utility.yul\":1630:1632   */\n      0x20\n        /* \"#utility.yul\":1618:1627   */\n      dup3\n        /* \"#utility.yul\":1609:1616   */\n      dup5\n        /* \"#utility.yul\":1605:1628   */\n      sub\n        /* \"#utility.yul\":1601:1633   */\n      slt\n        /* \"#utility.yul\":1598:1717   */\n      iszero\n      tag_304\n      jumpi\n        /* \"#utility.yul\":1636:1715   */\n      tag_305\n      tag_242\n      jump\t// in\n    tag_305:\n        /* \"#utility.yul\":1598:1717   */\n    tag_304:\n        /* \"#utility.yul\":1756:1757   */\n      0x00\n        /* \"#utility.yul\":1781:1834   */\n      tag_306\n        /* \"#utility.yul\":1826:1833   */\n      dup5\n        /* \"#utility.yul\":1817:1823   */\n      dup3\n        /* \"#utility.yul\":1806:1815   */\n      dup6\n        /* \"#utility.yul\":1802:1824   */\n      add\n        /* \"#utility.yul\":1781:1834   */\n      tag_246\n      jump\t// in\n    tag_306:\n        /* \"#utility.yul\":1771:1834   */\n      swap2\n      pop\n        /* \"#utility.yul\":1727:1844   */\n      pop\n        /* \"#utility.yul\":1522:1851   */\n      swap3\n      swap2\n      pop\n      pop\n      jump\t// out\n        /* \"#utility.yul\":1857:2476   */\n    tag_49:\n        /* \"#utility.yul\":1934:1940   */\n      0x00\n        /* \"#utility.yul\":1942:1948   */\n      dup1\n        /* \"#utility.yul\":1950:1956   */\n      0x00\n        /* \"#utility.yul\":1999:2001   */\n      0x60\n        /* \"#utility.yul\":1987:1996   */\n      dup5\n        /* \"#utility.yul\":1978:1985   */\n      dup7\n        /* \"#utility.yul\":1974:1997   */\n      sub\n        /* \"#utility.yul\":1970:2002   */\n      slt\n        /* \"#utility.yul\":1967:2086   */\n      iszero\n      tag_308\n      jumpi\n        /* \"#utility.yul\":2005:2084   */\n      tag_309\n      tag_242\n      jump\t// in\n    tag_309:\n        /* \"#utility.yul\":1967:2086   */\n    tag_308:\n        /* \"#utility.yul\":2125:2126   */\n      0x00\n        /* \"#utility.yul\":2150:2203   */\n      tag_310\n        /* \"#utility.yul\":2195:2202   */\n      dup7\n        /* \"#utility.yul\":2186:2192   */\n      dup3\n        /* \"#utility.yul\":2175:2184   */\n      dup8\n        /* \"#utility.yul\":2171:2193   */\n      add\n        /* \"#utility.yul\":2150:2203   */\n      tag_246\n      jump\t// in\n    tag_310:\n        /* \"#utility.yul\":2140:2203   */\n      swap4\n      pop\n        /* \"#utility.yul\":2096:2213   */\n      pop\n        /* \"#utility.yul\":2252:2254   */\n      0x20\n        /* \"#utility.yul\":2278:2331   */\n      tag_311\n        /* \"#utility.yul\":2323:2330   */\n      dup7\n        /* \"#utility.yul\":2314:2320   */\n      dup3\n        /* \"#utility.yul\":2303:2312   */\n      dup8\n        /* \"#utility.yul\":2299:2321   */\n      add\n        /* \"#utility.yul\":2278:2331   */\n      tag_246\n      jump\t// in\n    tag_311:\n        /* \"#utility.yul\":2268:2331   */\n      swap3\n      pop\n        /* \"#utility.yul\":2223:2341   */\n      pop\n        /* \"#utility.yul\":2380:2382   */\n      0x40\n        /* \"#utility.yul\":2406:2459   */\n      tag_312\n        /* \"#utility.yul\":2451:2458   */\n      dup7\n        /* \"#utility.yul\":2442:2448   */\n      dup3\n        /* \"#utility.yul\":2431:2440   */\n      dup8\n        /* \"#utility.yul\":2427:2449   */\n      add\n        /* \"#utility.yul\":2406:2459   */\n      tag_246\n      jump\t// in\n    tag_312:\n        /* \"#utility.yul\":2396:2459   */\n      swap2\n      pop\n        /* \"#utility.yul\":2351:2469   */\n      pop\n        /* \"#utility.yul\":1857:2476   */\n      swap3\n      pop\n      swap3\n      pop\n      swap3\n      jump\t// out\n        /* \"#utility.yul\":2482:2608   */\n    tag_248:\n        /* \"#utility.yul\":2519:2526   */\n      0x00\n        /* \"#utility.yul\":2559:2601   */\n      0xffffffffffffffffffffffffffffffffffffffff\n        /* \"#utility.yul\":2552:2557   */\n      dup3\n        /* \"#utility.yul\":2548:2602   */\n      and\n        /* \"#utility.yul\":2537:2602   */\n      swap1\n      pop\n        /* \"#utility.yul\":2482:2608   */\n      swap2\n      swap1\n      pop\n      jump\t// out\n        /* \"#utility.yul\":2614:2718   */\n    tag_249:\n        /* \"#utility.yul\":2659:2666   */\n      0x00\n        /* \"#utility.yul\":2688:2712   */\n      tag_315\n        /* \"#utility.yul\":2706:2711   */\n      dup3\n        /* \"#utility.yul\":2688:2712   */\n      tag_248\n      jump\t// in\n    tag_315:\n        /* \"#utility.yul\":2677:2712   */\n      swap1\n      pop\n        /* \"#utility.yul\":2614:2718   */\n      swap2\n      swap1\n      pop\n      jump\t// out\n        /* \"#utility.yul\":2724:2862   */\n    tag_250:\n        /* \"#utility.yul\":2805:2837   */\n      tag_317\n        /* \"#utility.yul\":2831:2836   */\n      dup2\n        /* \"#utility.yul\":2805:2837   */\n      tag_249\n      jump\t// in\n    tag_317:\n        /* \"#utility.yul\":2798:2803   */\n      dup2\n        /* \"#utility.yul\":2795:2838   */\n      eq\n        /* \"#utility.yul\":2785:2856   */\n      tag_318\n      jumpi\n        /* \"#utility.yul\":2852:2853   */\n      0x00\n        /* \"#utility.yul\":2849:2850   */\n      dup1\n        /* \"#utility.yul\":2842:2854   */\n      revert\n        /* \"#utility.yul\":2785:2856   */\n    tag_318:\n        /* \"#utility.yul\":2724:2862   */\n      pop\n      jump\t// out\n        /* \"#utility.yul\":2868:3023   */\n    tag_251:\n        /* \"#utility.yul\":2922:2927   */\n      0x00\n        /* \"#utility.yul\":2960:2966   */\n      dup2\n        /* \"#utility.yul\":2947:2967   */\n      calldataload\n        /* \"#utility.yul\":2938:2967   */\n      swap1\n      pop\n        /* \"#utility.yul\":2976:3017   */\n      tag_320\n        /* \"#utility.yul\":3011:3016   */\n      dup2\n        /* \"#utility.yul\":2976:3017   */\n      tag_250\n      jump\t// in\n    tag_320:\n        /* \"#utility.yul\":2868:3023   */\n      swap3\n      swap2\n      pop\n      pop\n      jump\t// out\n        /* \"#utility.yul\":3029:3519   */\n    tag_68:\n        /* \"#utility.yul\":3105:3111   */\n      0x00\n        /* \"#utility.yul\":3113:3119   */\n      dup1\n        /* \"#utility.yul\":3162:3164   */\n      0x40\n        /* \"#utility.yul\":3150:3159   */\n      dup4\n        /* \"#utility.yul\":3141:3148   */\n      dup6\n        /* \"#utility.yul\":3137:3160   */\n      sub\n        /* \"#utility.yul\":3133:3165   */\n      slt\n        /* \"#utility.yul\":3130:3249   */\n      iszero\n      tag_322\n      jumpi\n        /* \"#utility.yul\":3168:3247   */\n      tag_323\n      tag_242\n      jump\t// in\n    tag_323:\n        /* \"#utility.yul\":3130:3249   */\n    tag_322:\n        /* \"#utility.yul\":3288:3289   */\n      0x00\n        /* \"#utility.yul\":3313:3374   */\n      tag_324\n        /* \"#utility.yul\":3366:3373   */\n      dup6\n        /* \"#utility.yul\":3357:3363   */\n      dup3\n        /* \"#utility.yul\":3346:3355   */\n      dup7\n        /* \"#utility.yul\":3342:3364   */\n      add\n        /* \"#utility.yul\":3313:3374   */\n      tag_251\n      jump\t// in\n    tag_324:\n        /* \"#utility.yul\":3303:3374   */\n      swap3\n      pop\n        /* \"#utility.yul\":3259:3384   */\n      pop\n        /* \"#utility.yul\":3423:3425   */\n      0x20\n        /* \"#utility.yul\":3449:3502   */\n      tag_325\n        /* \"#utility.yul\":3494:3501   */\n      dup6\n        /* \"#utility.yul\":3485:3491   */\n      dup3\n        /* \"#utility.yul\":3474:3483   */\n      dup7\n        /* \"#utility.yul\":3470:3492   */\n      add\n        /* \"#utility.yul\":3449:3502   */\n      tag_246\n      jump\t// in\n    tag_325:\n        /* \"#utility.yul\":3439:3502   */\n      swap2\n      pop\n        /* \"#utility.yul\":3394:3512   */\n      pop\n        /* \"#utility.yul\":3029:3519   */\n      swap3\n      pop\n      swap3\n      swap1\n      pop\n      jump\t// out\n        /* \"#utility.yul\":3525:3615   */\n    tag_252:\n        /* \"#utility.yul\":3559:3566   */\n      0x00\n        /* \"#utility.yul\":3602:3607   */\n      dup2\n        /* \"#utility.yul\":3595:3608   */\n      iszero\n        /* \"#utility.yul\":3588:3609   */\n      iszero\n        /* \"#utility.yul\":3577:3609   */\n      swap1\n      pop\n        /* \"#utility.yul\":3525:3615   */\n      swap2\n      swap1\n      pop\n      jump\t// out\n        /* \"#utility.yul\":3621:3730   */\n    tag_253:\n        /* \"#utility.yul\":3702:3723   */\n      tag_328\n        /* \"#utility.yul\":3717:3722   */\n      dup2\n        /* \"#utility.yul\":3702:3723   */\n      tag_252\n      jump\t// in\n    tag_328:\n        /* \"#utility.yul\":3697:3700   */\n      dup3\n        /* \"#utility.yul\":3690:3724   */\n      mstore\n        /* \"#utility.yul\":3621:3730   */\n      pop\n      pop\n      jump\t// out\n        /* \"#utility.yul\":3736:3946   */\n    tag_75:\n        /* \"#utility.yul\":3823:3827   */\n      0x00\n        /* \"#utility.yul\":3861:3863   */\n      0x20\n        /* \"#utility.yul\":3850:3859   */\n      dup3\n        /* \"#utility.yul\":3846:3864   */\n      add\n        /* \"#utility.yul\":3838:3864   */\n      swap1\n      pop\n        /* \"#utility.yul\":3874:3939   */\n      tag_330\n        /* \"#utility.yul\":3936:3937   */\n      0x00\n        /* \"#utility.yul\":3925:3934   */\n      dup4\n        /* \"#utility.yul\":3921:3938   */\n      add\n        /* \"#utility.yul\":3912:3918   */\n      dup5\n        /* \"#utility.yul\":3874:3939   */\n      tag_253\n      jump\t// in\n    tag_330:\n        /* \"#utility.yul\":3736:3946   */\n      swap3\n      swap2\n      pop\n      pop\n      jump\t// out\n        /* \"#utility.yul\":3952:4132   */\n    tag_254:\n        /* \"#utility.yul\":4000:4077   */\n      0x4e487b7100000000000000000000000000000000000000000000000000000000\n        /* \"#utility.yul\":3997:3998   */\n      0x00\n        /* \"#utility.yul\":3990:4078   */\n      mstore\n        /* \"#utility.yul\":4097:4101   */\n      0x11\n        /* \"#utility.yul\":4094:4095   */\n      0x04\n        /* \"#utility.yul\":4087:4102   */\n      mstore\n        /* \"#utility.yul\":4121:4125   */\n      0x24\n        /* \"#utility.yul\":4118:4119   */\n      0x00\n        /* \"#utility.yul\":4111:4126   */\n      revert\n        /* \"#utility.yul\":4138:4548   */\n    tag_89:\n        /* \"#utility.yul\":4178:4185   */\n      0x00\n        /* \"#utility.yul\":4201:4221   */\n      tag_333\n        /* \"#utility.yul\":4219:4220   */\n      dup3\n        /* \"#utility.yul\":4201:4221   */\n      tag_244\n      jump\t// in\n    tag_333:\n        /* \"#utility.yul\":4196:4221   */\n      swap2\n      pop\n        /* \"#utility.yul\":4235:4255   */\n      tag_334\n        /* \"#utility.yul\":4253:4254   */\n      dup4\n        /* \"#utility.yul\":4235:4255   */\n      tag_244\n      jump\t// in\n    tag_334:\n        /* \"#utility.yul\":4230:4255   */\n      swap3\n      pop\n        /* \"#utility.yul\":4290:4291   */\n      dup3\n        /* \"#utility.yul\":4287:4288   */\n      dup3\n        /* \"#utility.yul\":4283:4292   */\n      mul\n        /* \"#utility.yul\":4312:4342   */\n      tag_335\n        /* \"#utility.yul\":4330:4341   */\n      dup2\n        /* \"#utility.yul\":4312:4342   */\n      tag_244\n      jump\t// in\n    tag_335:\n        /* \"#utility.yul\":4301:4342   */\n      swap2\n      pop\n        /* \"#utility.yul\":4491:4492   */\n      dup3\n        /* \"#utility.yul\":4482:4489   */\n      dup3\n        /* \"#utility.yul\":4478:4493   */\n      div\n        /* \"#utility.yul\":4475:4476   */\n      dup5\n        /* \"#utility.yul\":4472:4494   */\n      eq\n        /* \"#utility.yul\":4452:4453   */\n      dup4\n        /* \"#utility.yul\":4445:4454   */\n      iszero\n        /* \"#utility.yul\":4425:4508   */\n      or\n        /* \"#utility.yul\":4402:4541   */\n      tag_336\n      jumpi\n        /* \"#utility.yul\":4521:4539   */\n      tag_337\n      tag_254\n      jump\t// in\n    tag_337:\n        /* \"#utility.yul\":4402:4541   */\n    tag_336:\n        /* \"#utility.yul\":4186:4548   */\n      pop\n        /* \"#utility.yul\":4138:4548   */\n      swap3\n      swap2\n      pop\n      pop\n      jump\t// out\n        /* \"#utility.yul\":4554:4656   */\n    tag_255:\n        /* \"#utility.yul\":4596:4604   */\n      0x00\n        /* \"#utility.yul\":4643:4648   */\n      dup2\n        /* \"#utility.yul\":4640:4641   */\n      0x01\n        /* \"#utility.yul\":4636:4649   */\n      shr\n        /* \"#utility.yul\":4615:4649   */\n      swap1\n      pop\n        /* \"#utility.yul\":4554:4656   */\n      swap2\n      swap1\n      pop\n      jump\t// out\n        /* \"#utility.yul\":4662:5510   */\n    tag_256:\n        /* \"#utility.yul\":4723:4728   */\n      0x00\n        /* \"#utility.yul\":4730:4734   */\n      dup1\n        /* \"#utility.yul\":4754:4760   */\n      dup3\n        /* \"#utility.yul\":4745:4760   */\n      swap2\n      pop\n        /* \"#utility.yul\":4778:4783   */\n      dup4\n        /* \"#utility.yul\":4769:4783   */\n      swap1\n      pop\n        /* \"#utility.yul\":4792:5504   */\n    tag_340:\n        /* \"#utility.yul\":4813:4814   */\n      0x01\n        /* \"#utility.yul\":4803:4811   */\n      dup6\n        /* \"#utility.yul\":4800:4815   */\n      gt\n        /* \"#utility.yul\":4792:5504   */\n      iszero\n      tag_342\n      jumpi\n        /* \"#utility.yul\":4908:4912   */\n      dup1\n        /* \"#utility.yul\":4903:4906   */\n      dup7\n        /* \"#utility.yul\":4899:4913   */\n      div\n        /* \"#utility.yul\":4893:4897   */\n      dup2\n        /* \"#utility.yul\":4890:4914   */\n      gt\n        /* \"#utility.yul\":4887:4937   */\n      iszero\n      tag_343\n      jumpi\n        /* \"#utility.yul\":4917:4935   */\n      tag_344\n      tag_254\n      jump\t// in\n    tag_344:\n        /* \"#utility.yul\":4887:4937   */\n    tag_343:\n        /* \"#utility.yul\":4967:4968   */\n      0x01\n        /* \"#utility.yul\":4957:4965   */\n      dup6\n        /* \"#utility.yul\":4953:4969   */\n      and\n        /* \"#utility.yul\":4950:5401   */\n      iszero\n      tag_345\n      jumpi\n        /* \"#utility.yul\":5382:5386   */\n      dup1\n        /* \"#utility.yul\":5375:5380   */\n      dup3\n        /* \"#utility.yul\":5371:5387   */\n      mul\n        /* \"#utility.yul\":5362:5387   */\n      swap2\n      pop\n        /* \"#utility.yul\":4950:5401   */\n    tag_345:\n        /* \"#utility.yul\":5432:5436   */\n      dup1\n        /* \"#utility.yul\":5426:5430   */\n      dup2\n        /* \"#utility.yul\":5422:5437   */\n      mul\n        /* \"#utility.yul\":5414:5437   */\n      swap1\n      pop\n        /* \"#utility.yul\":5462:5494   */\n      tag_346\n        /* \"#utility.yul\":5485:5493   */\n      dup6\n        /* \"#utility.yul\":5462:5494   */\n      tag_255\n      jump\t// in\n    tag_346:\n        /* \"#utility.yul\":5450:5494   */\n      swap5\n      pop\n        /* \"#utility.yul\":4792:5504   */\n      jump(tag_340)\n    tag_342:\n        /* \"#utility.yul\":4662:5510   */\n      swap5\n      pop\n      swap5\n      swap3\n      pop\n      pop\n      pop\n      jump\t// out\n        /* \"#utility.yul\":5516:6589   */\n    tag_257:\n        /* \"#utility.yul\":5570:5575   */\n      0x00\n        /* \"#utility.yul\":5761:5769   */\n      dup3\n        /* \"#utility.yul\":5751:5791   */\n      tag_348\n      jumpi\n        /* \"#utility.yul\":5782:5783   */\n      0x01\n        /* \"#utility.yul\":5773:5783   */\n      swap1\n      pop\n        /* \"#utility.yul\":5784:5789   */\n      jump(tag_347)\n        /* \"#utility.yul\":5751:5791   */\n    tag_348:\n        /* \"#utility.yul\":5810:5814   */\n      dup2\n        /* \"#utility.yul\":5800:5836   */\n      tag_349\n      jumpi\n        /* \"#utility.yul\":5827:5828   */\n      0x00\n        /* \"#utility.yul\":5818:5828   */\n      swap1\n      pop\n        /* \"#utility.yul\":5829:5834   */\n      jump(tag_347)\n        /* \"#utility.yul\":5800:5836   */\n    tag_349:\n        /* \"#utility.yul\":5896:5900   */\n      dup2\n        /* \"#utility.yul\":5944:5945   */\n      0x01\n        /* \"#utility.yul\":5939:5966   */\n      dup2\n      eq\n      tag_351\n      jumpi\n        /* \"#utility.yul\":5980:5981   */\n      0x02\n        /* \"#utility.yul\":5975:6166   */\n      dup2\n      eq\n      tag_352\n      jumpi\n        /* \"#utility.yul\":5889:6166   */\n      jump(tag_350)\n        /* \"#utility.yul\":5939:5966   */\n    tag_351:\n        /* \"#utility.yul\":5957:5958   */\n      0x01\n        /* \"#utility.yul\":5948:5958   */\n      swap2\n      pop\n        /* \"#utility.yul\":5959:5964   */\n      pop\n      jump(tag_347)\n        /* \"#utility.yul\":5975:6166   */\n    tag_352:\n        /* \"#utility.yul\":6020:6023   */\n      0xff\n        /* \"#utility.yul\":6010:6018   */\n      dup5\n        /* \"#utility.yul\":6007:6024   */\n      gt\n        /* \"#utility.yul\":6004:6047   */\n      iszero\n      tag_353\n      jumpi\n        /* \"#utility.yul\":6027:6045   */\n      tag_354\n      tag_254\n      jump\t// in\n    tag_354:\n        /* \"#utility.yul\":6004:6047   */\n    tag_353:\n        /* \"#utility.yul\":6076:6084   */\n      dup4\n        /* \"#utility.yul\":6073:6074   */\n      0x02\n        /* \"#utility.yul\":6069:6085   */\n      exp\n        /* \"#utility.yul\":6060:6085   */\n      swap2\n      pop\n        /* \"#utility.yul\":6111:6114   */\n      dup5\n        /* \"#utility.yul\":6104:6109   */\n      dup3\n        /* \"#utility.yul\":6101:6115   */\n      gt\n        /* \"#utility.yul\":6098:6138   */\n      iszero\n      tag_355\n      jumpi\n        /* \"#utility.yul\":6118:6136   */\n      tag_356\n      tag_254\n      jump\t// in\n    tag_356:\n        /* \"#utility.yul\":6098:6138   */\n    tag_355:\n        /* \"#utility.yul\":6151:6156   */\n      pop\n      jump(tag_347)\n        /* \"#utility.yul\":5889:6166   */\n    tag_350:\n      pop\n        /* \"#utility.yul\":6275:6277   */\n      0x20\n        /* \"#utility.yul\":6265:6273   */\n      dup4\n        /* \"#utility.yul\":6262:6278   */\n      lt\n        /* \"#utility.yul\":6256:6259   */\n      0x0133\n        /* \"#utility.yul\":6250:6254   */\n      dup4\n        /* \"#utility.yul\":6247:6260   */\n      lt\n        /* \"#utility.yul\":6243:6279   */\n      and\n        /* \"#utility.yul\":6225:6227   */\n      0x4e\n        /* \"#utility.yul\":6215:6223   */\n      dup5\n        /* \"#utility.yul\":6212:6228   */\n      lt\n        /* \"#utility.yul\":6207:6209   */\n      0x0b\n        /* \"#utility.yul\":6201:6205   */\n      dup5\n        /* \"#utility.yul\":6198:6210   */\n      lt\n        /* \"#utility.yul\":6194:6229   */\n      and\n        /* \"#utility.yul\":6178:6289   */\n      or\n        /* \"#utility.yul\":6175:6421   */\n      iszero\n      tag_357\n      jumpi\n        /* \"#utility.yul\":6331:6339   */\n      dup3\n        /* \"#utility.yul\":6325:6329   */\n      dup3\n        /* \"#utility.yul\":6321:6340   */\n      exp\n        /* \"#utility.yul\":6312:6340   */\n      swap1\n      pop\n        /* \"#utility.yul\":6366:6369   */\n      dup4\n        /* \"#utility.yul\":6359:6364   */\n      dup2\n        /* \"#utility.yul\":6356:6370   */\n      gt\n        /* \"#utility.yul\":6353:6393   */\n      iszero\n      tag_358\n      jumpi\n        /* \"#utility.yul\":6373:6391   */\n      tag_359\n      tag_254\n      jump\t// in\n    tag_359:\n        /* \"#utility.yul\":6353:6393   */\n    tag_358:\n        /* \"#utility.yul\":6406:6411   */\n      jump(tag_347)\n        /* \"#utility.yul\":6175:6421   */\n    tag_357:\n        /* \"#utility.yul\":6446:6488   */\n      tag_360\n        /* \"#utility.yul\":6484:6487   */\n      dup5\n        /* \"#utility.yul\":6474:6482   */\n      dup5\n        /* \"#utility.yul\":6468:6472   */\n      dup5\n        /* \"#utility.yul\":6465:6466   */\n      0x01\n        /* \"#utility.yul\":6446:6488   */\n      tag_256\n      jump\t// in\n    tag_360:\n        /* \"#utility.yul\":6431:6488   */\n      swap3\n      pop\n      swap1\n      pop\n        /* \"#utility.yul\":6520:6524   */\n      dup2\n        /* \"#utility.yul\":6515:6518   */\n      dup5\n        /* \"#utility.yul\":6511:6525   */\n      div\n        /* \"#utility.yul\":6504:6509   */\n      dup2\n        /* \"#utility.yul\":6501:6526   */\n      gt\n        /* \"#utility.yul\":6498:6549   */\n      iszero\n      tag_361\n      jumpi\n        /* \"#utility.yul\":6529:6547   */\n      tag_362\n      tag_254\n      jump\t// in\n    tag_362:\n        /* \"#utility.yul\":6498:6549   */\n    tag_361:\n        /* \"#utility.yul\":6578:6582   */\n      dup2\n        /* \"#utility.yul\":6571:6576   */\n      dup2\n        /* \"#utility.yul\":6567:6583   */\n      mul\n        /* \"#utility.yul\":6558:6583   */\n      swap1\n      pop\n        /* \"#utility.yul\":5516:6589   */\n    tag_347:\n      swap4\n      swap3\n      pop\n      pop\n      pop\n      jump\t// out\n        /* \"#utility.yul\":6595:6880   */\n    tag_91:\n        /* \"#utility.yul\":6655:6660   */\n      0x00\n        /* \"#utility.yul\":6679:6702   */\n      tag_364\n        /* \"#utility.yul\":6697:6701   */\n      dup3\n        /* \"#utility.yul\":6679:6702   */\n      tag_244\n      jump\t// in\n    tag_364:\n        /* \"#utility.yul\":6671:6702   */\n      swap2\n      pop\n        /* \"#utility.yul\":6723:6750   */\n      tag_365\n        /* \"#utility.yul\":6741:6749   */\n      dup4\n        /* \"#utility.yul\":6723:6750   */\n      tag_244\n      jump\t// in\n    tag_365:\n        /* \"#utility.yul\":6711:6750   */\n      swap3\n      pop\n        /* \"#utility.yul\":6769:6873   */\n      tag_366\n        /* \"#utility.yul\":6806:6872   */\n      0xffffffffffffffffffffffffffffffffffffffffffffffffffffffffffffffff\n        /* \"#utility.yul\":6796:6804   */\n      dup5\n        /* \"#utility.yul\":6790:6794   */\n      dup5\n        /* \"#utility.yul\":6769:6873   */\n      tag_257\n      jump\t// in\n    tag_366:\n        /* \"#utility.yul\":6760:6873   */\n      swap1\n      pop\n        /* \"#utility.yul\":6595:6880   */\n      swap3\n      swap2\n      pop\n      pop\n      jump\t// out\n        /* \"#utility.yul\":6886:7066   */\n    tag_258:\n        /* \"#utility.yul\":6934:7011   */\n      0x4e487b7100000000000000000000000000000000000000000000000000000000\n        /* \"#utility.yul\":6931:6932   */\n      0x00\n        /* \"#utility.yul\":6924:7012   */\n      mstore\n        /* \"#utility.yul\":7031:7035   */\n      0x12\n        /* \"#utility.yul\":7028:7029   */\n      0x04\n        /* \"#utility.yul\":7021:7036   */\n      mstore\n        /* \"#utility.yul\":7055:7059   */\n      0x24\n        /* \"#utility.yul\":7052:7053   */\n      0x00\n        /* \"#utility.yul\":7045:7060   */\n      revert\n        /* \"#utility.yul\":7072:7257   */\n    tag_95:\n        /* \"#utility.yul\":7112:7113   */\n      0x00\n        /* \"#utility.yul\":7129:7149   */\n      tag_369\n        /* \"#utility.yul\":7147:7148   */\n      dup3\n        /* \"#utility.yul\":7129:7149   */\n      tag_244\n      jump\t// in\n    tag_369:\n        /* \"#utility.yul\":7124:7149   */\n      swap2\n      pop\n        /* \"#utility.yul\":7163:7183   */\n      tag_370\n        /* \"#utility.yul\":7181:7182   */\n      dup4\n        /* \"#utility.yul\":7163:7183   */\n      tag_244\n      jump\t// in\n    tag_370:\n        /* \"#utility.yul\":7158:7183   */\n      swap3\n      pop\n        /* \"#utility.yul\":7202:7203   */\n      dup3\n        /* \"#utility.yul\":7192:7227   */\n      tag_371\n      jumpi\n        /* \"#utility.yul\":7207:7225   */\n      tag_372\n      tag_258\n      jump\t// in\n    tag_372:\n        /* \"#utility.yul\":7192:7227   */\n    tag_371:\n        /* \"#utility.yul\":7249:7250   */\n      dup3\n        /* \"#utility.yul\":7246:7247   */\n      dup3\n        /* \"#utility.yul\":7242:7251   */\n      div\n        /* \"#utility.yul\":7237:7251   */\n      swap1\n      pop\n        /* \"#utility.yul\":7072:7257   */\n      swap3\n      swap2\n      pop\n      pop\n      jump\t// out\n        /* \"#utility.yul\":7263:7454   */\n    tag_98:\n        /* \"#utility.yul\":7303:7306   */\n      0x00\n        /* \"#utility.yul\":7322:7342   */\n      tag_374\n        /* \"#utility.yul\":7340:7341   */\n      dup3\n        /* \"#utility.yul\":7322:7342   */\n      tag_244\n      jump\t// in\n    tag_374:\n        /* \"#utility.yul\":7317:7342   */\n      swap2\n      pop\n        /* \"#utility.yul\":7356:7376   */\n      tag_375\n        /* \"#utility.yul\":7374:7375   */\n      dup4\n        /* \"#utility.yul\":7356:7376   */\n      tag_244\n      jump\t// in\n    tag_375:\n        /* \"#utility.yul\":7351:7376   */\n      swap3\n      pop\n        /* \"#utility.yul\":7399:7400   */\n      dup3\n        /* \"#utility.yul\":7396:7397   */\n      dup3\n        /* \"#utility.yul\":7392:7401   */\n      add\n        /* \"#utility.yul\":7385:7401   */\n      swap1\n      pop\n        /* \"#utility.yul\":7420:7423   */\n      dup1\n        /* \"#utility.yul\":7417:7418   */\n      dup3\n        /* \"#utility.yul\":7414:7424   */\n      gt\n        /* \"#utility.yul\":7411:7447   */\n      iszero\n      tag_376\n      jumpi\n        /* \"#utility.yul\":7427:7445   */\n      tag_377\n      tag_254\n      jump\t// in\n    tag_377:\n        /* \"#utility.yul\":7411:7447   */\n    tag_376:\n        /* \"#utility.yul\":7263:7454   */\n      swap3\n      swap2\n      pop\n      pop\n      jump\t// out\n        /* \"#utility.yul\":7460:7629   */\n    tag_259:\n        /* \"#utility.yul\":7544:7555   */\n      0x00\n        /* \"#utility.yul\":7578:7584   */\n      dup3\n        /* \"#utility.yul\":7573:7576   */\n      dup3\n        /* \"#utility.yul\":7566:7585   */\n      mstore\n        /* \"#utility.yul\":7618:7622   */\n      0x20\n        /* \"#utility.yul\":7613:7616   */\n      dup3\n        /* \"#utility.yul\":7609:7623   */\n      add\n        /* \"#utility.yul\":7594:7623   */\n      swap1\n      pop\n        /* \"#utility.yul\":7460:7629   */\n      swap3\n      swap2\n      pop\n      pop\n      jump\t// out\n        /* \"#utility.yul\":7635:7800   */\n    tag_260:\n        /* \"#utility.yul\":7775:7792   */\n      0x506f6f6c3a20657468496e203e20300000000000000000000000000000000000\n        /* \"#utility.yul\":7771:7772   */\n      0x00\n        /* \"#utility.yul\":7763:7769   */\n      dup3\n        /* \"#utility.yul\":7759:7773   */\n      add\n        /* \"#utility.yul\":7752:7793   */\n      mstore\n        /* \"#utility.yul\":7635:7800   */\n      pop\n      jump\t// out\n        /* \"#utility.yul\":7806:8172   */\n    tag_261:\n        /* \"#utility.yul\":7948:7951   */\n      0x00\n        /* \"#utility.yul\":7969:8036   */\n      tag_381\n        /* \"#utility.yul\":8033:8035   */\n      0x0f\n        /* \"#utility.yul\":8028:8031   */\n      dup4\n        /* \"#utility.yul\":7969:8036   */\n      tag_259\n      jump\t// in\n    tag_381:\n        /* \"#utility.yul\":7962:8036   */\n      swap2\n      pop\n        /* \"#utility.yul\":8045:8138   */\n      tag_382\n        /* \"#utility.yul\":8134:8137   */\n      dup3\n        /* \"#utility.yul\":8045:8138   */\n      tag_260\n      jump\t// in\n    tag_382:\n        /* \"#utility.yul\":8163:8165   */\n      0x20\n        /* \"#utility.yul\":8158:8161   */\n      dup3\n        /* \"#utility.yul\":8154:8166   */\n      add\n        /* \"#utility.yul\":8147:8166   */\n      swap1\n      pop\n        /* \"#utility.yul\":7806:8172   */\n      swap2\n      swap1\n      pop\n      jump\t// out\n        /* \"#utility.yul\":8178:8597   */\n    tag_102:\n        /* \"#utility.yul\":8344:8348   */\n      0x00\n        /* \"#utility.yul\":8382:8384   */\n      0x20\n        /* \"#utility.yul\":8371:8380   */\n      dup3\n        /* \"#utility.yul\":8367:8385   */\n      add\n        /* \"#utility.yul\":8359:8385   */\n      swap1\n      pop\n        /* \"#utility.yul\":8431:8440   */\n      dup2\n        /* \"#utility.yul\":8425:8429   */\n      dup2\n        /* \"#utility.yul\":8421:8441   */\n      sub\n        /* \"#utility.yul\":8417:8418   */\n      0x00\n        /* \"#utility.yul\":8406:8415   */\n      dup4\n        /* \"#utility.yul\":8402:8419   */\n      add\n        /* \"#utility.yul\":8395:8442   */\n      mstore\n        /* \"#utility.yul\":8459:8590   */\n      tag_384\n        /* \"#utility.yul\":8585:8589   */\n      dup2\n        /* \"#utility.yul\":8459:8590   */\n      tag_261\n      jump\t// in\n    tag_384:\n        /* \"#utility.yul\":8451:8590   */\n      swap1\n      pop\n        /* \"#utility.yul\":8178:8597   */\n      swap2\n      swap1\n      pop\n      jump\t// out\n        /* \"#utility.yul\":8603:8797   */\n    tag_104:\n        /* \"#utility.yul\":8643:8647   */\n      0x00\n        /* \"#utility.yul\":8663:8683   */\n      tag_386\n        /* \"#utility.yul\":8681:8682   */\n      dup3\n        /* \"#utility.yul\":8663:8683   */\n      tag_244\n      jump\t// in\n    tag_386:\n        /* \"#utility.yul\":8658:8683   */\n      swap2\n      pop\n        /* \"#utility.yul\":8697:8717   */\n      tag_387\n        /* \"#utility.yul\":8715:8716   */\n      dup4\n        /* \"#utility.yul\":8697:8717   */\n      tag_244\n      jump\t// in\n    tag_387:\n        /* \"#utility.yul\":8692:8717   */\n      swap3\n      pop\n        /* \"#utility.yul\":8741:8742   */\n      dup3\n        /* \"#utility.yul\":8738:8739   */\n      dup3\n        /* \"#utility.yul\":8734:8743   */\n      sub\n        /* \"#utility.yul\":8726:8743   */\n      swap1\n      pop\n        /* \"#utility.yul\":8765:8766   */\n      dup2\n        /* \"#utility.yul\":8759:8763   */\n      dup2\n        /* \"#utility.yul\":8756:8767   */\n      gt\n        /* \"#utility.yul\":8753:8790   */\n      iszero\n      tag_388\n      jumpi\n        /* \"#utility.yul\":8770:8788   */\n      tag_389\n      tag_254\n      jump\t// in\n    tag_389:\n        /* \"#utility.yul\":8753:8790   */\n    tag_388:\n        /* \"#utility.yul\":8603:8797   */\n      swap3\n      swap2\n      pop\n      pop\n      jump\t// out\n        /* \"#utility.yul\":8803:8946   */\n    tag_262:\n        /* \"#utility.yul\":8860:8865   */\n      0x00\n        /* \"#utility.yul\":8891:8897   */\n      dup2\n        /* \"#utility.yul\":8885:8898   */\n      mload\n        /* \"#utility.yul\":8876:8898   */\n      swap1\n      pop\n        /* \"#utility.yul\":8907:8940   */\n      tag_391\n        /* \"#utility.yul\":8934:8939   */\n      dup2\n        /* \"#utility.yul\":8907:8940   */\n      tag_245\n      jump\t// in\n    tag_391:\n        /* \"#utility.yul\":8803:8946   */\n      swap3\n      swap2\n      pop\n      pop\n      jump\t// out\n        /* \"#utility.yul\":8952:9303   */\n    tag_110:\n        /* \"#utility.yul\":9022:9028   */\n      0x00\n        /* \"#utility.yul\":9071:9073   */\n      0x20\n        /* \"#utility.yul\":9059:9068   */\n      dup3\n        /* \"#utility.yul\":9050:9057   */\n      dup5\n        /* \"#utility.yul\":9046:9069   */\n      sub\n        /* \"#utility.yul\":9042:9074   */\n      slt\n        /* \"#utility.yul\":9039:9158   */\n      iszero\n      tag_393\n      jumpi\n        /* \"#utility.yul\":9077:9156   */\n      tag_394\n      tag_242\n      jump\t// in\n    tag_394:\n        /* \"#utility.yul\":9039:9158   */\n    tag_393:\n        /* \"#utility.yul\":9197:9198   */\n      0x00\n        /* \"#utility.yul\":9222:9286   */\n      tag_395\n        /* \"#utility.yul\":9278:9285   */\n      dup5\n        /* \"#utility.yul\":9269:9275   */\n      dup3\n        /* \"#utility.yul\":9258:9267   */\n      dup6\n        /* \"#utility.yul\":9254:9276   */\n      add\n        /* \"#utility.yul\":9222:9286   */\n      tag_262\n      jump\t// in\n    tag_395:\n        /* \"#utility.yul\":9212:9286   */\n      swap2\n      pop\n        /* \"#utility.yul\":9168:9296   */\n      pop\n        /* \"#utility.yul\":8952:9303   */\n      swap3\n      swap2\n      pop\n      pop\n      jump\t// out\n        /* \"#utility.yul\":9309:9537   */\n    tag_263:\n        /* \"#utility.yul\":9449:9483   */\n      0x506f6f6c3a20746f6b656e734f7574206973206c657373207468616e206d696e\n        /* \"#utility.yul\":9445:9446   */\n      0x00\n        /* \"#utility.yul\":9437:9443   */\n      dup3\n        /* \"#utility.yul\":9433:9447   */\n      add\n        /* \"#utility.yul\":9426:9484   */\n      mstore\n        /* \"#utility.yul\":9518:9529   */\n      0x546f6b656e734f75740000000000000000000000000000000000000000000000\n        /* \"#utility.yul\":9513:9515   */\n      0x20\n        /* \"#utility.yul\":9505:9511   */\n      dup3\n        /* \"#utility.yul\":9501:9516   */\n      add\n        /* \"#utility.yul\":9494:9530   */\n      mstore\n        /* \"#utility.yul\":9309:9537   */\n      pop\n      jump\t// out\n        /* \"#utility.yul\":9543:9909   */\n    tag_264:\n        /* \"#utility.yul\":9685:9688   */\n      0x00\n        /* \"#utility.yul\":9706:9773   */\n      tag_398\n        /* \"#utility.yul\":9770:9772   */\n      0x29\n        /* \"#utility.yul\":9765:9768   */\n      dup4\n        /* \"#utility.yul\":9706:9773   */\n      tag_259\n      jump\t// in\n    tag_398:\n        /* \"#utility.yul\":9699:9773   */\n      swap2\n      pop\n        /* \"#utility.yul\":9782:9875   */\n      tag_399\n        /* \"#utility.yul\":9871:9874   */\n      dup3\n        /* \"#utility.yul\":9782:9875   */\n      tag_263\n      jump\t// in\n    tag_399:\n        /* \"#utility.yul\":9900:9902   */\n      0x40\n        /* \"#utility.yul\":9895:9898   */\n      dup3\n        /* \"#utility.yul\":9891:9903   */\n      add\n        /* \"#utility.yul\":9884:9903   */\n      swap1\n      pop\n        /* \"#utility.yul\":9543:9909   */\n      swap2\n      swap1\n      pop\n      jump\t// out\n        /* \"#utility.yul\":9915:10334   */\n    tag_114:\n        /* \"#utility.yul\":10081:10085   */\n      0x00\n        /* \"#utility.yul\":10119:10121   */\n      0x20\n        /* \"#utility.yul\":10108:10117   */\n      dup3\n        /* \"#utility.yul\":10104:10122   */\n      add\n        /* \"#utility.yul\":10096:10122   */\n      swap1\n      pop\n        /* \"#utility.yul\":10168:10177   */\n      dup2\n        /* \"#utility.yul\":10162:10166   */\n      dup2\n        /* \"#utility.yul\":10158:10178   */\n      sub\n        /* \"#utility.yul\":10154:10155   */\n      0x00\n        /* \"#utility.yul\":10143:10152   */\n      dup4\n        /* \"#utility.yul\":10139:10156   */\n      add\n        /* \"#utility.yul\":10132:10179   */\n      mstore\n        /* \"#utility.yul\":10196:10327   */\n      tag_401\n        /* \"#utility.yul\":10322:10326   */\n      dup2\n        /* \"#utility.yul\":10196:10327   */\n      tag_264\n      jump\t// in\n    tag_401:\n        /* \"#utility.yul\":10188:10327   */\n      swap1\n      pop\n        /* \"#utility.yul\":9915:10334   */\n      swap2\n      swap1\n      pop\n      jump\t// out\n        /* \"#utility.yul\":10340:10436   */\n    tag_265:\n        /* \"#utility.yul\":10377:10384   */\n      0x00\n        /* \"#utility.yul\":10406:10430   */\n      tag_403\n        /* \"#utility.yul\":10424:10429   */\n      dup3\n        /* \"#utility.yul\":10406:10430   */\n      tag_248\n      jump\t// in\n    tag_403:\n        /* \"#utility.yul\":10395:10430   */\n      swap1\n      pop\n        /* \"#utility.yul\":10340:10436   */\n      swap2\n      swap1\n      pop\n      jump\t// out\n        /* \"#utility.yul\":10442:10560   */\n    tag_266:\n        /* \"#utility.yul\":10529:10553   */\n      tag_405\n        /* \"#utility.yul\":10547:10552   */\n      dup2\n        /* \"#utility.yul\":10529:10553   */\n      tag_265\n      jump\t// in\n    tag_405:\n        /* \"#utility.yul\":10524:10527   */\n      dup3\n        /* \"#utility.yul\":10517:10554   */\n      mstore\n        /* \"#utility.yul\":10442:10560   */\n      pop\n      pop\n      jump\t// out\n        /* \"#utility.yul\":10566:10898   */\n    tag_116:\n        /* \"#utility.yul\":10687:10691   */\n      0x00\n        /* \"#utility.yul\":10725:10727   */\n      0x40\n        /* \"#utility.yul\":10714:10723   */\n      dup3\n        /* \"#utility.yul\":10710:10728   */\n      add\n        /* \"#utility.yul\":10702:10728   */\n      swap1\n      pop\n        /* \"#utility.yul\":10738:10809   */\n      tag_407\n        /* \"#utility.yul\":10806:10807   */\n      0x00\n        /* \"#utility.yul\":10795:10804   */\n      dup4\n        /* \"#utility.yul\":10791:10808   */\n      add\n        /* \"#utility.yul\":10782:10788   */\n      dup6\n        /* \"#utility.yul\":10738:10809   */\n      tag_266\n      jump\t// in\n    tag_407:\n        /* \"#utility.yul\":10819:10891   */\n      tag_408\n        /* \"#utility.yul\":10887:10889   */\n      0x20\n        /* \"#utility.yul\":10876:10885   */\n      dup4\n        /* \"#utility.yul\":10872:10890   */\n      add\n        /* \"#utility.yul\":10863:10869   */\n      dup5\n        /* \"#utility.yul\":10819:10891   */\n      tag_247\n      jump\t// in\n    tag_408:\n        /* \"#utility.yul\":10566:10898   */\n      swap4\n      swap3\n      pop\n      pop\n      pop\n      jump\t// out\n        /* \"#utility.yul\":10904:11236   */\n    tag_124:\n        /* \"#utility.yul\":11025:11029   */\n      0x00\n        /* \"#utility.yul\":11063:11065   */\n      0x40\n        /* \"#utility.yul\":11052:11061   */\n      dup3\n        /* \"#utility.yul\":11048:11066   */\n      add\n        /* \"#utility.yul\":11040:11066   */\n      swap1\n      pop\n        /* \"#utility.yul\":11076:11147   */\n      tag_410\n        /* \"#utility.yul\":11144:11145   */\n      0x00\n        /* \"#utility.yul\":11133:11142   */\n      dup4\n        /* \"#utility.yul\":11129:11146   */\n      add\n        /* \"#utility.yul\":11120:11126   */\n      dup6\n        /* \"#utility.yul\":11076:11147   */\n      tag_247\n      jump\t// in\n    tag_410:\n        /* \"#utility.yul\":11157:11229   */\n      tag_411\n        /* \"#utility.yul\":11225:11227   */\n      0x20\n        /* \"#utility.yul\":11214:11223   */\n      dup4\n        /* \"#utility.yul\":11210:11228   */\n      add\n        /* \"#utility.yul\":11201:11207   */\n      dup5\n        /* \"#utility.yul\":11157:11229   */\n      tag_247\n      jump\t// in\n    tag_411:\n        /* \"#utility.yul\":10904:11236   */\n      swap4\n      swap3\n      pop\n      pop\n      pop\n      jump\t// out\n        /* \"#utility.yul\":11242:11464   */\n    tag_153:\n        /* \"#utility.yul\":11335:11339   */\n      0x00\n        /* \"#utility.yul\":11373:11375   */\n      0x20\n        /* \"#utility.yul\":11362:11371   */\n      dup3\n        /* \"#utility.yul\":11358:11376   */\n      add\n        /* \"#utility.yul\":11350:11376   */\n      swap1\n      pop\n        /* \"#utility.yul\":11386:11457   */\n      tag_413\n        /* \"#utility.yul\":11454:11455   */\n      0x00\n        /* \"#utility.yul\":11443:11452   */\n      dup4\n        /* \"#utility.yul\":11439:11456   */\n      add\n        /* \"#utility.yul\":11430:11436   */\n      dup5\n        /* \"#utility.yul\":11386:11457   */\n      tag_266\n      jump\t// in\n    tag_413:\n        /* \"#utility.yul\":11242:11464   */\n      swap3\n      swap2\n      pop\n      pop\n      jump\t// out\n        /* \"#utility.yul\":11470:11644   */\n    tag_267:\n        /* \"#utility.yul\":11610:11636   */\n      0x506f6f6c3a204e6f7420656e6f7567682062616c616e63650000000000000000\n        /* \"#utility.yul\":11606:11607   */\n      0x00\n        /* \"#utility.yul\":11598:11604   */\n      dup3\n        /* \"#utility.yul\":11594:11608   */\n      add\n        /* \"#utility.yul\":11587:11637   */\n      mstore\n        /* \"#utility.yul\":11470:11644   */\n      pop\n      jump\t// out\n        /* \"#utility.yul\":11650:12016   */\n    tag_268:\n        /* \"#utility.yul\":11792:11795   */\n      0x00\n        /* \"#utility.yul\":11813:11880   */\n      tag_416\n        /* \"#utility.yul\":11877:11879   */\n      0x18\n        /* \"#utility.yul\":11872:11875   */\n      dup4\n        /* \"#utility.yul\":11813:11880   */\n      tag_259\n      jump\t// in\n    tag_416:\n        /* \"#utility.yul\":11806:11880   */\n      swap2\n      pop\n        /* \"#utility.yul\":11889:11982   */\n      tag_417\n        /* \"#utility.yul\":11978:11981   */\n      dup3\n        /* \"#utility.yul\":11889:11982   */\n      tag_267\n      jump\t// in\n    tag_417:\n        /* \"#utility.yul\":12007:12009   */\n      0x20\n        /* \"#utility.yul\":12002:12005   */\n      dup3\n        /* \"#utility.yul\":11998:12010   */\n      add\n        /* \"#utility.yul\":11991:12010   */\n      swap1\n      pop\n        /* \"#utility.yul\":11650:12016   */\n      swap2\n      swap1\n      pop\n      jump\t// out\n        /* \"#utility.yul\":12022:12441   */\n    tag_159:\n        /* \"#utility.yul\":12188:12192   */\n      0x00\n        /* \"#utility.yul\":12226:12228   */\n      0x20\n        /* \"#utility.yul\":12215:12224   */\n      dup3\n        /* \"#utility.yul\":12211:12229   */\n      add\n        /* \"#utility.yul\":12203:12229   */\n      swap1\n      pop\n        /* \"#utility.yul\":12275:12284   */\n      dup2\n        /* \"#utility.yul\":12269:12273   */\n      dup2\n        /* \"#utility.yul\":12265:12285   */\n      sub\n        /* \"#utility.yul\":12261:12262   */\n      0x00\n        /* \"#utility.yul\":12250:12259   */\n      dup4\n        /* \"#utility.yul\":12246:12263   */\n      add\n        /* \"#utility.yul\":12239:12286   */\n      mstore\n        /* \"#utility.yul\":12303:12434   */\n      tag_419\n        /* \"#utility.yul\":12429:12433   */\n      dup2\n        /* \"#utility.yul\":12303:12434   */\n      tag_268\n      jump\t// in\n    tag_419:\n        /* \"#utility.yul\":12295:12434   */\n      swap1\n      pop\n        /* \"#utility.yul\":12022:12441   */\n      swap2\n      swap1\n      pop\n      jump\t// out\n        /* \"#utility.yul\":12447:12667   */\n    tag_269:\n        /* \"#utility.yul\":12587:12621   */\n      0x506f6f6c3a204d4352252063616e6e6f742066616c6c2062656c6f7720313030\n        /* \"#utility.yul\":12583:12584   */\n      0x00\n        /* \"#utility.yul\":12575:12581   */\n      dup3\n        /* \"#utility.yul\":12571:12585   */\n      add\n        /* \"#utility.yul\":12564:12622   */\n      mstore\n        /* \"#utility.yul\":12656:12659   */\n      0x2500000000000000000000000000000000000000000000000000000000000000\n        /* \"#utility.yul\":12651:12653   */\n      0x20\n        /* \"#utility.yul\":12643:12649   */\n      dup3\n        /* \"#utility.yul\":12639:12654   */\n      add\n        /* \"#utility.yul\":12632:12660   */\n      mstore\n        /* \"#utility.yul\":12447:12667   */\n      pop\n      jump\t// out\n        /* \"#utility.yul\":12673:13039   */\n    tag_270:\n        /* \"#utility.yul\":12815:12818   */\n      0x00\n        /* \"#utility.yul\":12836:12903   */\n      tag_422\n        /* \"#utility.yul\":12900:12902   */\n      0x21\n        /* \"#utility.yul\":12895:12898   */\n      dup4\n        /* \"#utility.yul\":12836:12903   */\n      tag_259\n      jump\t// in\n    tag_422:\n        /* \"#utility.yul\":12829:12903   */\n      swap2\n      pop\n        /* \"#utility.yul\":12912:13005   */\n      tag_423\n        /* \"#utility.yul\":13001:13004   */\n      dup3\n        /* \"#utility.yul\":12912:13005   */\n      tag_269\n      jump\t// in\n    tag_423:\n        /* \"#utility.yul\":13030:13032   */\n      0x40\n        /* \"#utility.yul\":13025:13028   */\n      dup3\n        /* \"#utility.yul\":13021:13033   */\n      add\n        /* \"#utility.yul\":13014:13033   */\n      swap1\n      pop\n        /* \"#utility.yul\":12673:13039   */\n      swap2\n      swap1\n      pop\n      jump\t// out\n        /* \"#utility.yul\":13045:13464   */\n    tag_168:\n        /* \"#utility.yul\":13211:13215   */\n      0x00\n        /* \"#utility.yul\":13249:13251   */\n      0x20\n        /* \"#utility.yul\":13238:13247   */\n      dup3\n        /* \"#utility.yul\":13234:13252   */\n      add\n        /* \"#utility.yul\":13226:13252   */\n      swap1\n      pop\n        /* \"#utility.yul\":13298:13307   */\n      dup2\n        /* \"#utility.yul\":13292:13296   */\n      dup2\n        /* \"#utility.yul\":13288:13308   */\n      sub\n        /* \"#utility.yul\":13284:13285   */\n      0x00\n        /* \"#utility.yul\":13273:13282   */\n      dup4\n        /* \"#utility.yul\":13269:13286   */\n      add\n        /* \"#utility.yul\":13262:13309   */\n      mstore\n        /* \"#utility.yul\":13326:13457   */\n      tag_425\n        /* \"#utility.yul\":13452:13456   */\n      dup2\n        /* \"#utility.yul\":13326:13457   */\n      tag_270\n      jump\t// in\n    tag_425:\n        /* \"#utility.yul\":13318:13457   */\n      swap1\n      pop\n        /* \"#utility.yul\":13045:13464   */\n      swap2\n      swap1\n      pop\n      jump\t// out\n        /* \"#utility.yul\":13470:13644   */\n    tag_271:\n        /* \"#utility.yul\":13610:13636   */\n      0x506f6f6c3a206574684f7574203c206d696e4574684f75740000000000000000\n        /* \"#utility.yul\":13606:13607   */\n      0x00\n        /* \"#utility.yul\":13598:13604   */\n      dup3\n        /* \"#utility.yul\":13594:13608   */\n      add\n        /* \"#utility.yul\":13587:13637   */\n      mstore\n        /* \"#utility.yul\":13470:13644   */\n      pop\n      jump\t// out\n        /* \"#utility.yul\":13650:14016   */\n    tag_272:\n        /* \"#utility.yul\":13792:13795   */\n      0x00\n        /* \"#utility.yul\":13813:13880   */\n      tag_428\n        /* \"#utility.yul\":13877:13879   */\n      0x18\n        /* \"#utility.yul\":13872:13875   */\n      dup4\n        /* \"#utility.yul\":13813:13880   */\n      tag_259\n      jump\t// in\n    tag_428:\n        /* \"#utility.yul\":13806:13880   */\n      swap2\n      pop\n        /* \"#utility.yul\":13889:13982   */\n      tag_429\n        /* \"#utility.yul\":13978:13981   */\n      dup3\n        /* \"#utility.yul\":13889:13982   */\n      tag_271\n      jump\t// in\n    tag_429:\n        /* \"#utility.yul\":14007:14009   */\n      0x20\n        /* \"#utility.yul\":14002:14005   */\n      dup3\n        /* \"#utility.yul\":13998:14010   */\n      add\n        /* \"#utility.yul\":13991:14010   */\n      swap1\n      pop\n        /* \"#utility.yul\":13650:14016   */\n      swap2\n      swap1\n      pop\n      jump\t// out\n        /* \"#utility.yul\":14022:14441   */\n    tag_171:\n        /* \"#utility.yul\":14188:14192   */\n      0x00\n        /* \"#utility.yul\":14226:14228   */\n      0x20\n        /* \"#utility.yul\":14215:14224   */\n      dup3\n        /* \"#utility.yul\":14211:14229   */\n      add\n        /* \"#utility.yul\":14203:14229   */\n      swap1\n      pop\n        /* \"#utility.yul\":14275:14284   */\n      dup2\n        /* \"#utility.yul\":14269:14273   */\n      dup2\n        /* \"#utility.yul\":14265:14285   */\n      sub\n        /* \"#utility.yul\":14261:14262   */\n      0x00\n        /* \"#utility.yul\":14250:14259   */\n      dup4\n        /* \"#utility.yul\":14246:14263   */\n      add\n        /* \"#utility.yul\":14239:14286   */\n      mstore\n        /* \"#utility.yul\":14303:14434   */\n      tag_431\n        /* \"#utility.yul\":14429:14433   */\n      dup2\n        /* \"#utility.yul\":14303:14434   */\n      tag_272\n      jump\t// in\n    tag_431:\n        /* \"#utility.yul\":14295:14434   */\n      swap1\n      pop\n        /* \"#utility.yul\":14022:14441   */\n      swap2\n      swap1\n      pop\n      jump\t// out\n        /* \"#utility.yul\":14447:14563   */\n    tag_273:\n        /* \"#utility.yul\":14517:14538   */\n      tag_433\n        /* \"#utility.yul\":14532:14537   */\n      dup2\n        /* \"#utility.yul\":14517:14538   */\n      tag_252\n      jump\t// in\n    tag_433:\n        /* \"#utility.yul\":14510:14515   */\n      dup2\n        /* \"#utility.yul\":14507:14539   */\n      eq\n        /* \"#utility.yul\":14497:14557   */\n      tag_434\n      jumpi\n        /* \"#utility.yul\":14553:14554   */\n      0x00\n        /* \"#utility.yul\":14550:14551   */\n      dup1\n        /* \"#utility.yul\":14543:14555   */\n      revert\n        /* \"#utility.yul\":14497:14557   */\n    tag_434:\n        /* \"#utility.yul\":14447:14563   */\n      pop\n      jump\t// out\n        /* \"#utility.yul\":14569:14706   */\n    tag_274:\n        /* \"#utility.yul\":14623:14628   */\n      0x00\n        /* \"#utility.yul\":14654:14660   */\n      dup2\n        /* \"#utility.yul\":14648:14661   */\n      mload\n        /* \"#utility.yul\":14639:14661   */\n      swap1\n      pop\n        /* \"#utility.yul\":14670:14700   */\n      tag_436\n        /* \"#utility.yul\":14694:14699   */\n      dup2\n        /* \"#utility.yul\":14670:14700   */\n      tag_273\n      jump\t// in\n    tag_436:\n        /* \"#utility.yul\":14569:14706   */\n      swap3\n      swap2\n      pop\n      pop\n      jump\t// out\n        /* \"#utility.yul\":14712:15057   */\n    tag_176:\n        /* \"#utility.yul\":14779:14785   */\n      0x00\n        /* \"#utility.yul\":14828:14830   */\n      0x20\n        /* \"#utility.yul\":14816:14825   */\n      dup3\n        /* \"#utility.yul\":14807:14814   */\n      dup5\n        /* \"#utility.yul\":14803:14826   */\n      sub\n        /* \"#utility.yul\":14799:14831   */\n      slt\n        /* \"#utility.yul\":14796:14915   */\n      iszero\n      tag_438\n      jumpi\n        /* \"#utility.yul\":14834:14913   */\n      tag_439\n      tag_242\n      jump\t// in\n    tag_439:\n        /* \"#utility.yul\":14796:14915   */\n    tag_438:\n        /* \"#utility.yul\":14954:14955   */\n      0x00\n        /* \"#utility.yul\":14979:15040   */\n      tag_440\n        /* \"#utility.yul\":15032:15039   */\n      dup5\n        /* \"#utility.yul\":15023:15029   */\n      dup3\n        /* \"#utility.yul\":15012:15021   */\n      dup6\n        /* \"#utility.yul\":15008:15030   */\n      add\n        /* \"#utility.yul\":14979:15040   */\n      tag_274\n      jump\t// in\n    tag_440:\n        /* \"#utility.yul\":14969:15040   */\n      swap2\n      pop\n        /* \"#utility.yul\":14925:15050   */\n      pop\n        /* \"#utility.yul\":14712:15057   */\n      swap3\n      swap2\n      pop\n      pop\n      jump\t// out\n        /* \"#utility.yul\":15063:15210   */\n    tag_275:\n        /* \"#utility.yul\":15164:15175   */\n      0x00\n        /* \"#utility.yul\":15201:15204   */\n      dup2\n        /* \"#utility.yul\":15186:15204   */\n      swap1\n      pop\n        /* \"#utility.yul\":15063:15210   */\n      swap3\n      swap2\n      pop\n      pop\n      jump\t// out\n        /* \"#utility.yul\":15216:15330   */\n    tag_276:\n      pop\n      jump\t// out\n        /* \"#utility.yul\":15336:15734   */\n    tag_277:\n        /* \"#utility.yul\":15495:15498   */\n      0x00\n        /* \"#utility.yul\":15516:15599   */\n      tag_444\n        /* \"#utility.yul\":15597:15598   */\n      0x00\n        /* \"#utility.yul\":15592:15595   */\n      dup4\n        /* \"#utility.yul\":15516:15599   */\n      tag_275\n      jump\t// in\n    tag_444:\n        /* \"#utility.yul\":15509:15599   */\n      swap2\n      pop\n        /* \"#utility.yul\":15608:15701   */\n      tag_445\n        /* \"#utility.yul\":15697:15700   */\n      dup3\n        /* \"#utility.yul\":15608:15701   */\n      tag_276\n      jump\t// in\n    tag_445:\n        /* \"#utility.yul\":15726:15727   */\n      0x00\n        /* \"#utility.yul\":15721:15724   */\n      dup3\n        /* \"#utility.yul\":15717:15728   */\n      add\n        /* \"#utility.yul\":15710:15728   */\n      swap1\n      pop\n        /* \"#utility.yul\":15336:15734   */\n      swap2\n      swap1\n      pop\n      jump\t// out\n        /* \"#utility.yul\":15740:16119   */\n    tag_178:\n        /* \"#utility.yul\":15924:15927   */\n      0x00\n        /* \"#utility.yul\":15946:16093   */\n      tag_447\n        /* \"#utility.yul\":16089:16092   */\n      dup3\n        /* \"#utility.yul\":15946:16093   */\n      tag_277\n      jump\t// in\n    tag_447:\n        /* \"#utility.yul\":15939:16093   */\n      swap2\n      pop\n        /* \"#utility.yul\":16110:16113   */\n      dup2\n        /* \"#utility.yul\":16103:16113   */\n      swap1\n      pop\n        /* \"#utility.yul\":15740:16119   */\n      swap2\n      swap1\n      pop\n      jump\t// out\n        /* \"#utility.yul\":16125:16301   */\n    tag_278:\n        /* \"#utility.yul\":16265:16293   */\n      0x506f6f6c3a2053656c6c207472616e73666572206661696c6564000000000000\n        /* \"#utility.yul\":16261:16262   */\n      0x00\n        /* \"#utility.yul\":16253:16259   */\n      dup3\n        /* \"#utility.yul\":16249:16263   */\n      add\n        /* \"#utility.yul\":16242:16294   */\n      mstore\n        /* \"#utility.yul\":16125:16301   */\n      pop\n      jump\t// out\n        /* \"#utility.yul\":16307:16673   */\n    tag_279:\n        /* \"#utility.yul\":16449:16452   */\n      0x00\n        /* \"#utility.yul\":16470:16537   */\n      tag_450\n        /* \"#utility.yul\":16534:16536   */\n      0x1a\n        /* \"#utility.yul\":16529:16532   */\n      dup4\n        /* \"#utility.yul\":16470:16537   */\n      tag_259\n      jump\t// in\n    tag_450:\n        /* \"#utility.yul\":16463:16537   */\n      swap2\n      pop\n        /* \"#utility.yul\":16546:16639   */\n      tag_451\n        /* \"#utility.yul\":16635:16638   */\n      dup3\n        /* \"#utility.yul\":16546:16639   */\n      tag_278\n      jump\t// in\n    tag_451:\n        /* \"#utility.yul\":16664:16666   */\n      0x20\n        /* \"#utility.yul\":16659:16662   */\n      dup3\n        /* \"#utility.yul\":16655:16667   */\n      add\n        /* \"#utility.yul\":16648:16667   */\n      swap1\n      pop\n        /* \"#utility.yul\":16307:16673   */\n      swap2\n      swap1\n      pop\n      jump\t// out\n        /* \"#utility.yul\":16679:17098   */\n    tag_184:\n        /* \"#utility.yul\":16845:16849   */\n      0x00\n        /* \"#utility.yul\":16883:16885   */\n      0x20\n        /* \"#utility.yul\":16872:16881   */\n      dup3\n        /* \"#utility.yul\":16868:16886   */\n      add\n        /* \"#utility.yul\":16860:16886   */\n      swap1\n      pop\n        /* \"#utility.yul\":16932:16941   */\n      dup2\n        /* \"#utility.yul\":16926:16930   */\n      dup2\n        /* \"#utility.yul\":16922:16942   */\n      sub\n        /* \"#utility.yul\":16918:16919   */\n      0x00\n        /* \"#utility.yul\":16907:16916   */\n      dup4\n        /* \"#utility.yul\":16903:16920   */\n      add\n        /* \"#utility.yul\":16896:16943   */\n      mstore\n        /* \"#utility.yul\":16960:17091   */\n      tag_453\n        /* \"#utility.yul\":17086:17090   */\n      dup2\n        /* \"#utility.yul\":16960:17091   */\n      tag_279\n      jump\t// in\n    tag_453:\n        /* \"#utility.yul\":16952:17091   */\n      swap1\n      pop\n        /* \"#utility.yul\":16679:17098   */\n      swap2\n      swap1\n      pop\n      jump\t// out\n        /* \"#utility.yul\":17104:17279   */\n    tag_280:\n        /* \"#utility.yul\":17244:17271   */\n      0x506f6f6c3a20455448207472616e73666572206661696c656400000000000000\n        /* \"#utility.yul\":17240:17241   */\n      0x00\n        /* \"#utility.yul\":17232:17238   */\n      dup3\n        /* \"#utility.yul\":17228:17242   */\n      add\n        /* \"#utility.yul\":17221:17272   */\n      mstore\n        /* \"#utility.yul\":17104:17279   */\n      pop\n      jump\t// out\n        /* \"#utility.yul\":17285:17651   */\n    tag_281:\n        /* \"#utility.yul\":17427:17430   */\n      0x00\n        /* \"#utility.yul\":17448:17515   */\n      tag_456\n        /* \"#utility.yul\":17512:17514   */\n      0x19\n        /* \"#utility.yul\":17507:17510   */\n      dup4\n        /* \"#utility.yul\":17448:17515   */\n      tag_259\n      jump\t// in\n    tag_456:\n        /* \"#utility.yul\":17441:17515   */\n      swap2\n      pop\n        /* \"#utility.yul\":17524:17617   */\n      tag_457\n        /* \"#utility.yul\":17613:17616   */\n      dup3\n        /* \"#utility.yul\":17524:17617   */\n      tag_280\n      jump\t// in\n    tag_457:\n        /* \"#utility.yul\":17642:17644   */\n      0x20\n        /* \"#utility.yul\":17637:17640   */\n      dup3\n        /* \"#utility.yul\":17633:17645   */\n      add\n        /* \"#utility.yul\":17626:17645   */\n      swap1\n      pop\n        /* \"#utility.yul\":17285:17651   */\n      swap2\n      swap1\n      pop\n      jump\t// out\n        /* \"#utility.yul\":17657:18076   */\n    tag_196:\n        /* \"#utility.yul\":17823:17827   */\n      0x00\n        /* \"#utility.yul\":17861:17863   */\n      0x20\n        /* \"#utility.yul\":17850:17859   */\n      dup3\n        /* \"#utility.yul\":17846:17864   */\n      add\n        /* \"#utility.yul\":17838:17864   */\n      swap1\n      pop\n        /* \"#utility.yul\":17910:17919   */\n      dup2\n        /* \"#utility.yul\":17904:17908   */\n      dup2\n        /* \"#utility.yul\":17900:17920   */\n      sub\n        /* \"#utility.yul\":17896:17897   */\n      0x00\n        /* \"#utility.yul\":17885:17894   */\n      dup4\n        /* \"#utility.yul\":17881:17898   */\n      add\n        /* \"#utility.yul\":17874:17921   */\n      mstore\n        /* \"#utility.yul\":17938:18069   */\n      tag_459\n        /* \"#utility.yul\":18064:18068   */\n      dup2\n        /* \"#utility.yul\":17938:18069   */\n      tag_281\n      jump\t// in\n    tag_459:\n        /* \"#utility.yul\":17930:18069   */\n      swap1\n      pop\n        /* \"#utility.yul\":17657:18076   */\n      swap2\n      swap1\n      pop\n      jump\t// out\n        /* \"#utility.yul\":18082:18204   */\n    tag_282:\n        /* \"#utility.yul\":18155:18179   */\n      tag_461\n        /* \"#utility.yul\":18173:18178   */\n      dup2\n        /* \"#utility.yul\":18155:18179   */\n      tag_265\n      jump\t// in\n    tag_461:\n        /* \"#utility.yul\":18148:18153   */\n      dup2\n        /* \"#utility.yul\":18145:18180   */\n      eq\n        /* \"#utility.yul\":18135:18198   */\n      tag_462\n      jumpi\n        /* \"#utility.yul\":18194:18195   */\n      0x00\n        /* \"#utility.yul\":18191:18192   */\n      dup1\n        /* \"#utility.yul\":18184:18196   */\n      revert\n        /* \"#utility.yul\":18135:18198   */\n    tag_462:\n        /* \"#utility.yul\":18082:18204   */\n      pop\n      jump\t// out\n        /* \"#utility.yul\":18210:18353   */\n    tag_283:\n        /* \"#utility.yul\":18267:18272   */\n      0x00\n        /* \"#utility.yul\":18298:18304   */\n      dup2\n        /* \"#utility.yul\":18292:18305   */\n      mload\n        /* \"#utility.yul\":18283:18305   */\n      swap1\n      pop\n        /* \"#utility.yul\":18314:18347   */\n      tag_464\n        /* \"#utility.yul\":18341:18346   */\n      dup2\n        /* \"#utility.yul\":18314:18347   */\n      tag_282\n      jump\t// in\n    tag_464:\n        /* \"#utility.yul\":18210:18353   */\n      swap3\n      swap2\n      pop\n      pop\n      jump\t// out\n        /* \"#utility.yul\":18359:18710   */\n    tag_228:\n        /* \"#utility.yul\":18429:18435   */\n      0x00\n        /* \"#utility.yul\":18478:18480   */\n      0x20\n        /* \"#utility.yul\":18466:18475   */\n      dup3\n        /* \"#utility.yul\":18457:18464   */\n      dup5\n        /* \"#utility.yul\":18453:18476   */\n      sub\n        /* \"#utility.yul\":18449:18481   */\n      slt\n        /* \"#utility.yul\":18446:18565   */\n      iszero\n      tag_466\n      jumpi\n        /* \"#utility.yul\":18484:18563   */\n      tag_467\n      tag_242\n      jump\t// in\n    tag_467:\n        /* \"#utility.yul\":18446:18565   */\n    tag_466:\n        /* \"#utility.yul\":18604:18605   */\n      0x00\n        /* \"#utility.yul\":18629:18693   */\n      tag_468\n        /* \"#utility.yul\":18685:18692   */\n      dup5\n        /* \"#utility.yul\":18676:18682   */\n      dup3\n        /* \"#utility.yul\":18665:18674   */\n      dup6\n        /* \"#utility.yul\":18661:18683   */\n      add\n        /* \"#utility.yul\":18629:18693   */\n      tag_283\n      jump\t// in\n    tag_468:\n        /* \"#utility.yul\":18619:18693   */\n      swap2\n      pop\n        /* \"#utility.yul\":18575:18703   */\n      pop\n        /* \"#utility.yul\":18359:18710   */\n      swap3\n      swap2\n      pop\n      pop\n      jump\t// out\n\n    auxdata: 0xa26469706673582212208ac094fe9b764207a0d565b3e7fef110c034d7cab73e21e2760b895e7eab6d1f64736f6c63430008130033\n}\n",
				"bytecode": {
					"linkReferences": {},
					"object": "608060405260016000553480156200001657600080fd5b5060405162001ba738038062001ba783398181016040528101906200003c919062000130565b81600160006101000a81548173ffffffffffffffffffffffffffffffffffffffff021916908373ffffffffffffffffffffffffffffffffffffffff16021790555080600260006101000a81548173ffffffffffffffffffffffffffffffffffffffff021916908373ffffffffffffffffffffffffffffffffffffffff160217905550505062000177565b600080fd5b600073ffffffffffffffffffffffffffffffffffffffff82169050919050565b6000620000f882620000cb565b9050919050565b6200010a81620000eb565b81146200011657600080fd5b50565b6000815190506200012a81620000ff565b92915050565b600080604083850312156200014a5762000149620000c6565b5b60006200015a8582860162000119565b92505060206200016d8582860162000119565b9150509250929050565b611a2080620001876000396000f3fe6080604052600436106100c65760003560e01c806370310cb71161007f578063cf8d133f11610059578063cf8d133f14610289578063e57a8fef146102b2578063eabf3407146102ef578063ebb8433f1461032c576100cd565b806370310cb7146101f8578063b222a4d314610235578063bdf4872b14610260576100cd565b806304e8266f146100cf57806306833ffd1461010c5780631f50c989146101285780634779be0814610153578063483b6f1d1461017e578063657e0542146101bb576100cd565b366100cd57005b005b3480156100db57600080fd5b506100f660048036038101906100f1919061105c565b610369565b60405161010391906110ab565b60405180910390f35b610126600480360381019061012191906110c6565b6103e2565b005b34801561013457600080fd5b5061013d610652565b60405161014a91906110ab565b60405180910390f35b34801561015f57600080fd5b50610168610658565b60405161017591906110ab565b60405180910390f35b34801561018a57600080fd5b506101a560048036038101906101a091906110c6565b61065d565b6040516101b291906110ab565b60405180910390f35b3480156101c757600080fd5b506101e260048036038101906101dd91906110f3565b6106f1565b6040516101ef91906110ab565b60405180910390f35b34801561020457600080fd5b5061021f600480360381019061021a919061105c565b6107e7565b60405161022c91906110ab565b60405180910390f35b34801561024157600080fd5b5061024a610815565b60405161025791906110ab565b60405180910390f35b34801561026c57600080fd5b506102876004803603810190610282919061105c565b61081b565b005b34801561029557600080fd5b506102b060048036038101906102ab91906111a4565b610c23565b005b3480156102be57600080fd5b506102d960048036038101906102d491906110c6565b610d8f565b6040516102e691906111ff565b60405180910390f35b3480156102fb57600080fd5b50610316600480360381019061031191906110c6565b610da5565b60405161032391906110ab565b60405180910390f35b34801561033857600080fd5b50610353600480360381019061034e91906110f3565b610e39565b60405161036091906110ab565b60405180910390f35b60008061037684846107e7565b905060006004806103879190611249565b600a61039391906113be565b90506624859b044a800081625880406004856103af91906113be565b876103ba9190611249565b6103c49190611438565b6103ce9190611438565b6103d89190611469565b9250505092915050565b60003490506000811161042a576040517f08c379a0000000000000000000000000000000000000000000000000000000008152600401610421906114fa565b60405180910390fd5b60008147610438919061151a565b90506000610444610f01565b905060008173ffffffffffffffffffffffffffffffffffffffff166344936b106040518163ffffffff1660e01b8152600401602060405180830381865afa158015610493573d6000803e3d6000fd5b505050506040513d601f19601f820116820180604052508101906104b79190611563565b905060006104c68585846106f1565b90508581101561050b576040517f08c379a000000000000000000000000000000000000000000000000000000000815260040161050290611602565b60405180910390fd5b600160009054906101000a900473ffffffffffffffffffffffffffffffffffffffff1673ffffffffffffffffffffffffffffffffffffffff166340c10f1933836040518363ffffffff1660e01b8152600401610568929190611643565b600060405180830381600087803b15801561058257600080fd5b505af1158015610596573d6000803e3d6000fd5b505050508273ffffffffffffffffffffffffffffffffffffffff1663aa5da0466040518163ffffffff1660e01b8152600401600060405180830381600087803b1580156105e257600080fd5b505af11580156105f6573d6000803e3d6000fd5b505050503373ffffffffffffffffffffffffffffffffffffffff167fc5fc954940739c9d45b12cd63fec8b2fb3887d642d3572cf741e45f30088ad93868360405161064292919061166c565b60405180910390a2505050505050565b6101f481565b600481565b600080479050600061066d610f01565b73ffffffffffffffffffffffffffffffffffffffff166344936b106040518163ffffffff1660e01b8152600401602060405180830381865afa1580156106b7573d6000803e3d6000fd5b505050506040513d601f19601f820116820180604052508101906106db9190611563565b90506106e88483836106f1565b92505050919050565b600080831480610710575064e8d4a51000838361070e9190611438565b115b15610742576624859b044a8000670de0b6b3a7640000856107319190611249565b61073b9190611438565b90506107e0565b600061074e8484610f99565b90506000858561075e9190611469565b9050600061076c8286610f99565b90506000818461077c919061151a565b9050600081670de0b6b3a76400008a6107959190611249565b61079f9190611438565b905060006624859b044a8000826107b69190611469565b905080670de0b6b3a76400008b6107cd9190611249565b6107d79190611438565b96505050505050505b9392505050565b6000816004600a6107f891906113be565b846108039190611249565b61080d9190611438565b905092915050565b619c4081565b81600160009054906101000a900473ffffffffffffffffffffffffffffffffffffffff1673ffffffffffffffffffffffffffffffffffffffff166370a08231336040518263ffffffff1660e01b81526004016108779190611695565b602060405180830381865afa158015610894573d6000803e3d6000fd5b505050506040513d601f19601f820116820180604052508101906108b89190611563565b10156108f9576040517f08c379a00000000000000000000000000000000000000000000000000000000081526004016108f0906116fc565b60405180910390fd5b6000610903610f01565b9050600047905060008273ffffffffffffffffffffffffffffffffffffffff166344936b106040518163ffffffff1660e01b8152600401602060405180830381865afa158015610957573d6000803e3d6000fd5b505050506040513d601f19601f8201168201806040525081019061097b9190611563565b9050600061098a868484610e39565b9050818184610999919061151a565b10156109da576040517f08c379a00000000000000000000000000000000000000000000000000000000081526004016109d19061178e565b60405180910390fd5b84811015610a1d576040517f08c379a0000000000000000000000000000000000000000000000000000000008152600401610a14906117fa565b60405180910390fd5b600160009054906101000a900473ffffffffffffffffffffffffffffffffffffffff1673ffffffffffffffffffffffffffffffffffffffff166379cc679033886040518363ffffffff1660e01b8152600401610a7a929190611643565b6020604051808303816000875af1158015610a99573d6000803e3d6000fd5b505050506040513d601f19601f82011682018060405250810190610abd9190611846565b5060003373ffffffffffffffffffffffffffffffffffffffff1682604051610ae4906118a4565b60006040518083038185875af1925050503d8060008114610b21576040519150601f19603f3d011682016040523d82523d6000602084013e610b26565b606091505b5050905080610b6a576040517f08c379a0000000000000000000000000000000000000000000000000000000008152600401610b6190611905565b60405180910390fd5b8473ffffffffffffffffffffffffffffffffffffffff1663aa5da0466040518163ffffffff1660e01b8152600401600060405180830381600087803b158015610bb257600080fd5b505af1158015610bc6573d6000803e3d6000fd5b505050503373ffffffffffffffffffffffffffffffffffffffff167f1d1ddca8aa909e7f7fc055611b4269f6c858ad1e95735416f86f08c2d49e74738884604051610c1292919061166c565b60405180910390a250505050505050565b60008273ffffffffffffffffffffffffffffffffffffffff1682604051610c49906118a4565b60006040518083038185875af1925050503d8060008114610c86576040519150601f19603f3d011682016040523d82523d6000602084013e610c8b565b606091505b5050905080610ccf576040517f08c379a0000000000000000000000000000000000000000000000000000000008152600401610cc690611971565b60405180910390fd5b8273ffffffffffffffffffffffffffffffffffffffff167f5afeca38b2064c23a692c4cf353015d80ab3ecc417b4f893f372690c11fbd9a683604051610d1591906110ab565b60405180910390a26000479050610d2a610f01565b73ffffffffffffffffffffffffffffffffffffffff1663aa5da0466040518163ffffffff1660e01b8152600401600060405180830381600087803b158015610d7157600080fd5b505af1158015610d85573d6000803e3d6000fd5b5050505050505050565b6000610d9c82600061081b565b60019050919050565b6000804790506000610db5610f01565b73ffffffffffffffffffffffffffffffffffffffff166344936b106040518163ffffffff1660e01b8152600401602060405180830381865afa158015610dff573d6000803e3d6000fd5b505050506040513d601f19601f82011682018060405250810190610e239190611563565b9050610e30848383610e39565b92505050919050565b600080610e468484610369565b90506000670de0b6b3a76400008287610e5f9190611249565b610e699190611438565b905060008186610e79919061151a565b90506000610e878287610369565b905060006103e86103cf60028488610e9f9190611469565b610ea99190611438565b610eb39190611249565b610ebd9190611438565b90506000610ecb8284611008565b90506000670de0b6b3a76400008b83610ee49190611249565b610eee9190611438565b9050809750505050505050509392505050565b6000600260009054906101000a900473ffffffffffffffffffffffffffffffffffffffff1673ffffffffffffffffffffffffffffffffffffffff166388ea07516040518163ffffffff1660e01b8152600401602060405180830381865afa158015610f70573d6000803e3d6000fd5b505050506040513d601f19601f82011682018060405250810190610f9491906119bd565b905090565b60008282848486866003670de0b6b3a764000062588040610fba9190611249565b610fc49190611438565b610fce9190611249565b610fd89190611438565b610fe29190611249565b610fec9190611438565b610ff69190611249565b6110009190611438565b905092915050565b60008183106110175781611019565b825b905092915050565b600080fd5b6000819050919050565b61103981611026565b811461104457600080fd5b50565b60008135905061105681611030565b92915050565b6000806040838503121561107357611072611021565b5b600061108185828601611047565b925050602061109285828601611047565b9150509250929050565b6110a581611026565b82525050565b60006020820190506110c0600083018461109c565b92915050565b6000602082840312156110dc576110db611021565b5b60006110ea84828501611047565b91505092915050565b60008060006060848603121561110c5761110b611021565b5b600061111a86828701611047565b935050602061112b86828701611047565b925050604061113c86828701611047565b9150509250925092565b600073ffffffffffffffffffffffffffffffffffffffff82169050919050565b600061117182611146565b9050919050565b61118181611166565b811461118c57600080fd5b50565b60008135905061119e81611178565b92915050565b600080604083850312156111bb576111ba611021565b5b60006111c98582860161118f565b92505060206111da85828601611047565b9150509250929050565b60008115159050919050565b6111f9816111e4565b82525050565b600060208201905061121460008301846111f0565b92915050565b7f4e487b7100000000000000000000000000000000000000000000000000000000600052601160045260246000fd5b600061125482611026565b915061125f83611026565b925082820261126d81611026565b915082820484148315176112845761128361121a565b5b5092915050565b60008160011c9050919050565b6000808291508390505b60018511156112e2578086048111156112be576112bd61121a565b5b60018516156112cd5780820291505b80810290506112db8561128b565b94506112a2565b94509492505050565b6000826112fb57600190506113b7565b8161130957600090506113b7565b816001811461131f576002811461132957611358565b60019150506113b7565b60ff84111561133b5761133a61121a565b5b8360020a9150848211156113525761135161121a565b5b506113b7565b5060208310610133831016604e8410600b841016171561138d5782820a9050838111156113885761138761121a565b5b6113b7565b61139a8484846001611298565b925090508184048111156113b1576113b061121a565b5b81810290505b9392505050565b60006113c982611026565b91506113d483611026565b92506114017fffffffffffffffffffffffffffffffffffffffffffffffffffffffffffffffff84846112eb565b905092915050565b7f4e487b7100000000000000000000000000000000000000000000000000000000600052601260045260246000fd5b600061144382611026565b915061144e83611026565b92508261145e5761145d611409565b5b828204905092915050565b600061147482611026565b915061147f83611026565b92508282019050808211156114975761149661121a565b5b92915050565b600082825260208201905092915050565b7f506f6f6c3a20657468496e203e20300000000000000000000000000000000000600082015250565b60006114e4600f8361149d565b91506114ef826114ae565b602082019050919050565b60006020820190508181036000830152611513816114d7565b9050919050565b600061152582611026565b915061153083611026565b92508282039050818111156115485761154761121a565b5b92915050565b60008151905061155d81611030565b92915050565b60006020828403121561157957611578611021565b5b60006115878482850161154e565b91505092915050565b7f506f6f6c3a20746f6b656e734f7574206973206c657373207468616e206d696e60008201527f546f6b656e734f75740000000000000000000000000000000000000000000000602082015250565b60006115ec60298361149d565b91506115f782611590565b604082019050919050565b6000602082019050818103600083015261161b816115df565b9050919050565b600061162d82611146565b9050919050565b61163d81611622565b82525050565b60006040820190506116586000830185611634565b611665602083018461109c565b9392505050565b6000604082019050611681600083018561109c565b61168e602083018461109c565b9392505050565b60006020820190506116aa6000830184611634565b92915050565b7f506f6f6c3a204e6f7420656e6f7567682062616c616e63650000000000000000600082015250565b60006116e660188361149d565b91506116f1826116b0565b602082019050919050565b60006020820190508181036000830152611715816116d9565b9050919050565b7f506f6f6c3a204d4352252063616e6e6f742066616c6c2062656c6f772031303060008201527f2500000000000000000000000000000000000000000000000000000000000000602082015250565b600061177860218361149d565b91506117838261171c565b604082019050919050565b600060208201905081810360008301526117a78161176b565b9050919050565b7f506f6f6c3a206574684f7574203c206d696e4574684f75740000000000000000600082015250565b60006117e460188361149d565b91506117ef826117ae565b602082019050919050565b60006020820190508181036000830152611813816117d7565b9050919050565b611823816111e4565b811461182e57600080fd5b50565b6000815190506118408161181a565b92915050565b60006020828403121561185c5761185b611021565b5b600061186a84828501611831565b91505092915050565b600081905092915050565b50565b600061188e600083611873565b91506118998261187e565b600082019050919050565b60006118af82611881565b9150819050919050565b7f506f6f6c3a2053656c6c207472616e73666572206661696c6564000000000000600082015250565b60006118ef601a8361149d565b91506118fa826118b9565b602082019050919050565b6000602082019050818103600083015261191e816118e2565b9050919050565b7f506f6f6c3a20455448207472616e73666572206661696c656400000000000000600082015250565b600061195b60198361149d565b915061196682611925565b602082019050919050565b6000602082019050818103600083015261198a8161194e565b9050919050565b61199a81611622565b81146119a557600080fd5b50565b6000815190506119b781611991565b92915050565b6000602082840312156119d3576119d2611021565b5b60006119e1848285016119a8565b9150509291505056fea26469706673582212208ac094fe9b764207a0d565b3e7fef110c034d7cab73e21e2760b895e7eab6d1f64736f6c63430008130033",
					"opcodes": "PUSH1 0x80 PUSH1 0x40 MSTORE PUSH1 0x1 PUSH1 0x0 SSTORE CALLVALUE DUP1 ISZERO PUSH3 0x16 JUMPI PUSH1 0x0 DUP1 REVERT JUMPDEST POP PUSH1 0x40 MLOAD PUSH3 0x1BA7 CODESIZE SUB DUP1 PUSH3 0x1BA7 DUP4 CODECOPY DUP2 DUP2 ADD PUSH1 0x40 MSTORE DUP2 ADD SWAP1 PUSH3 0x3C SWAP2 SWAP1 PUSH3 0x130 JUMP JUMPDEST DUP2 PUSH1 0x1 PUSH1 0x0 PUSH2 0x100 EXP DUP2 SLOAD DUP2 PUSH20 0xFFFFFFFFFFFFFFFFFFFFFFFFFFFFFFFFFFFFFFFF MUL NOT AND SWAP1 DUP4 PUSH20 0xFFFFFFFFFFFFFFFFFFFFFFFFFFFFFFFFFFFFFFFF AND MUL OR SWAP1 SSTORE POP DUP1 PUSH1 0x2 PUSH1 0x0 PUSH2 0x100 EXP DUP2 SLOAD DUP2 PUSH20 0xFFFFFFFFFFFFFFFFFFFFFFFFFFFFFFFFFFFFFFFF MUL NOT AND SWAP1 DUP4 PUSH20 0xFFFFFFFFFFFFFFFFFFFFFFFFFFFFFFFFFFFFFFFF AND MUL OR SWAP1 SSTORE POP POP POP PUSH3 0x177 JUMP JUMPDEST PUSH1 0x0 DUP1 REVERT JUMPDEST PUSH1 0x0 PUSH20 0xFFFFFFFFFFFFFFFFFFFFFFFFFFFFFFFFFFFFFFFF DUP3 AND SWAP1 POP SWAP2 SWAP1 POP JUMP JUMPDEST PUSH1 0x0 PUSH3 0xF8 DUP3 PUSH3 0xCB JUMP JUMPDEST SWAP1 POP SWAP2 SWAP1 POP JUMP JUMPDEST PUSH3 0x10A DUP2 PUSH3 0xEB JUMP JUMPDEST DUP2 EQ PUSH3 0x116 JUMPI PUSH1 0x0 DUP1 REVERT JUMPDEST POP JUMP JUMPDEST PUSH1 0x0 DUP2 MLOAD SWAP1 POP PUSH3 0x12A DUP2 PUSH3 0xFF JUMP JUMPDEST SWAP3 SWAP2 POP POP JUMP JUMPDEST PUSH1 0x0 DUP1 PUSH1 0x40 DUP4 DUP6 SUB SLT ISZERO PUSH3 0x14A JUMPI PUSH3 0x149 PUSH3 0xC6 JUMP JUMPDEST JUMPDEST PUSH1 0x0 PUSH3 0x15A DUP6 DUP3 DUP7 ADD PUSH3 0x119 JUMP JUMPDEST SWAP3 POP POP PUSH1 0x20 PUSH3 0x16D DUP6 DUP3 DUP7 ADD PUSH3 0x119 JUMP JUMPDEST SWAP2 POP POP SWAP3 POP SWAP3 SWAP1 POP JUMP JUMPDEST PUSH2 0x1A20 DUP1 PUSH3 0x187 PUSH1 0x0 CODECOPY PUSH1 0x0 RETURN INVALID PUSH1 0x80 PUSH1 0x40 MSTORE PUSH1 0x4 CALLDATASIZE LT PUSH2 0xC6 JUMPI PUSH1 0x0 CALLDATALOAD PUSH1 0xE0 SHR DUP1 PUSH4 0x70310CB7 GT PUSH2 0x7F JUMPI DUP1 PUSH4 0xCF8D133F GT PUSH2 0x59 JUMPI DUP1 PUSH4 0xCF8D133F EQ PUSH2 0x289 JUMPI DUP1 PUSH4 0xE57A8FEF EQ PUSH2 0x2B2 JUMPI DUP1 PUSH4 0xEABF3407 EQ PUSH2 0x2EF JUMPI DUP1 PUSH4 0xEBB8433F EQ PUSH2 0x32C JUMPI PUSH2 0xCD JUMP JUMPDEST DUP1 PUSH4 0x70310CB7 EQ PUSH2 0x1F8 JUMPI DUP1 PUSH4 0xB222A4D3 EQ PUSH2 0x235 JUMPI DUP1 PUSH4 0xBDF4872B EQ PUSH2 0x260 JUMPI PUSH2 0xCD JUMP JUMPDEST DUP1 PUSH4 0x4E8266F EQ PUSH2 0xCF JUMPI DUP1 PUSH4 0x6833FFD EQ PUSH2 0x10C JUMPI DUP1 PUSH4 0x1F50C989 EQ PUSH2 0x128 JUMPI DUP1 PUSH4 0x4779BE08 EQ PUSH2 0x153 JUMPI DUP1 PUSH4 0x483B6F1D EQ PUSH2 0x17E JUMPI DUP1 PUSH4 0x657E0542 EQ PUSH2 0x1BB JUMPI PUSH2 0xCD JUMP JUMPDEST CALLDATASIZE PUSH2 0xCD JUMPI STOP JUMPDEST STOP JUMPDEST CALLVALUE DUP1 ISZERO PUSH2 0xDB JUMPI PUSH1 0x0 DUP1 REVERT JUMPDEST POP PUSH2 0xF6 PUSH1 0x4 DUP1 CALLDATASIZE SUB DUP2 ADD SWAP1 PUSH2 0xF1 SWAP2 SWAP1 PUSH2 0x105C JUMP JUMPDEST PUSH2 0x369 JUMP JUMPDEST PUSH1 0x40 MLOAD PUSH2 0x103 SWAP2 SWAP1 PUSH2 0x10AB JUMP JUMPDEST PUSH1 0x40 MLOAD DUP1 SWAP2 SUB SWAP1 RETURN JUMPDEST PUSH2 0x126 PUSH1 0x4 DUP1 CALLDATASIZE SUB DUP2 ADD SWAP1 PUSH2 0x121 SWAP2 SWAP1 PUSH2 0x10C6 JUMP JUMPDEST PUSH2 0x3E2 JUMP JUMPDEST STOP JUMPDEST CALLVALUE DUP1 ISZERO PUSH2 0x134 JUMPI PUSH1 0x0 DUP1 REVERT JUMPDEST POP PUSH2 0x13D PUSH2 0x652 JUMP JUMPDEST PUSH1 0x40 MLOAD PUSH2 0x14A SWAP2 SWAP1 PUSH2 0x10AB JUMP JUMPDEST PUSH1 0x40 MLOAD DUP1 SWAP2 SUB SWAP1 RETURN JUMPDEST CALLVALUE DUP1 ISZERO PUSH2 0x15F JUMPI PUSH1 0x0 DUP1 REVERT JUMPDEST POP PUSH2 0x168 PUSH2 0x658 JUMP JUMPDEST PUSH1 0x40 MLOAD PUSH2 0x175 SWAP2 SWAP1 PUSH2 0x10AB JUMP JUMPDEST PUSH1 0x40 MLOAD DUP1 SWAP2 SUB SWAP1 RETURN JUMPDEST CALLVALUE DUP1 ISZERO PUSH2 0x18A JUMPI PUSH1 0x0 DUP1 REVERT JUMPDEST POP PUSH2 0x1A5 PUSH1 0x4 DUP1 CALLDATASIZE SUB DUP2 ADD SWAP1 PUSH2 0x1A0 SWAP2 SWAP1 PUSH2 0x10C6 JUMP JUMPDEST PUSH2 0x65D JUMP JUMPDEST PUSH1 0x40 MLOAD PUSH2 0x1B2 SWAP2 SWAP1 PUSH2 0x10AB JUMP JUMPDEST PUSH1 0x40 MLOAD DUP1 SWAP2 SUB SWAP1 RETURN JUMPDEST CALLVALUE DUP1 ISZERO PUSH2 0x1C7 JUMPI PUSH1 0x0 DUP1 REVERT JUMPDEST POP PUSH2 0x1E2 PUSH1 0x4 DUP1 CALLDATASIZE SUB DUP2 ADD SWAP1 PUSH2 0x1DD SWAP2 SWAP1 PUSH2 0x10F3 JUMP JUMPDEST PUSH2 0x6F1 JUMP JUMPDEST PUSH1 0x40 MLOAD PUSH2 0x1EF SWAP2 SWAP1 PUSH2 0x10AB JUMP JUMPDEST PUSH1 0x40 MLOAD DUP1 SWAP2 SUB SWAP1 RETURN JUMPDEST CALLVALUE DUP1 ISZERO PUSH2 0x204 JUMPI PUSH1 0x0 DUP1 REVERT JUMPDEST POP PUSH2 0x21F PUSH1 0x4 DUP1 CALLDATASIZE SUB DUP2 ADD SWAP1 PUSH2 0x21A SWAP2 SWAP1 PUSH2 0x105C JUMP JUMPDEST PUSH2 0x7E7 JUMP JUMPDEST PUSH1 0x40 MLOAD PUSH2 0x22C SWAP2 SWAP1 PUSH2 0x10AB JUMP JUMPDEST PUSH1 0x40 MLOAD DUP1 SWAP2 SUB SWAP1 RETURN JUMPDEST CALLVALUE DUP1 ISZERO PUSH2 0x241 JUMPI PUSH1 0x0 DUP1 REVERT JUMPDEST POP PUSH2 0x24A PUSH2 0x815 JUMP JUMPDEST PUSH1 0x40 MLOAD PUSH2 0x257 SWAP2 SWAP1 PUSH2 0x10AB JUMP JUMPDEST PUSH1 0x40 MLOAD DUP1 SWAP2 SUB SWAP1 RETURN JUMPDEST CALLVALUE DUP1 ISZERO PUSH2 0x26C JUMPI PUSH1 0x0 DUP1 REVERT JUMPDEST POP PUSH2 0x287 PUSH1 0x4 DUP1 CALLDATASIZE SUB DUP2 ADD SWAP1 PUSH2 0x282 SWAP2 SWAP1 PUSH2 0x105C JUMP JUMPDEST PUSH2 0x81B JUMP JUMPDEST STOP JUMPDEST CALLVALUE DUP1 ISZERO PUSH2 0x295 JUMPI PUSH1 0x0 DUP1 REVERT JUMPDEST POP PUSH2 0x2B0 PUSH1 0x4 DUP1 CALLDATASIZE SUB DUP2 ADD SWAP1 PUSH2 0x2AB SWAP2 SWAP1 PUSH2 0x11A4 JUMP JUMPDEST PUSH2 0xC23 JUMP JUMPDEST STOP JUMPDEST CALLVALUE DUP1 ISZERO PUSH2 0x2BE JUMPI PUSH1 0x0 DUP1 REVERT JUMPDEST POP PUSH2 0x2D9 PUSH1 0x4 DUP1 CALLDATASIZE SUB DUP2 ADD SWAP1 PUSH2 0x2D4 SWAP2 SWAP1 PUSH2 0x10C6 JUMP JUMPDEST PUSH2 0xD8F JUMP JUMPDEST PUSH1 0x40 MLOAD PUSH2 0x2E6 SWAP2 SWAP1 PUSH2 0x11FF JUMP JUMPDEST PUSH1 0x40 MLOAD DUP1 SWAP2 SUB SWAP1 RETURN JUMPDEST CALLVALUE DUP1 ISZERO PUSH2 0x2FB JUMPI PUSH1 0x0 DUP1 REVERT JUMPDEST POP PUSH2 0x316 PUSH1 0x4 DUP1 CALLDATASIZE SUB DUP2 ADD SWAP1 PUSH2 0x311 SWAP2 SWAP1 PUSH2 0x10C6 JUMP JUMPDEST PUSH2 0xDA5 JUMP JUMPDEST PUSH1 0x40 MLOAD PUSH2 0x323 SWAP2 SWAP1 PUSH2 0x10AB JUMP JUMPDEST PUSH1 0x40 MLOAD DUP1 SWAP2 SUB SWAP1 RETURN JUMPDEST CALLVALUE DUP1 ISZERO PUSH2 0x338 JUMPI PUSH1 0x0 DUP1 REVERT JUMPDEST POP PUSH2 0x353 PUSH1 0x4 DUP1 CALLDATASIZE SUB DUP2 ADD SWAP1 PUSH2 0x34E SWAP2 SWAP1 PUSH2 0x10F3 JUMP JUMPDEST PUSH2 0xE39 JUMP JUMPDEST PUSH1 0x40 MLOAD PUSH2 0x360 SWAP2 SWAP1 PUSH2 0x10AB JUMP JUMPDEST PUSH1 0x40 MLOAD DUP1 SWAP2 SUB SWAP1 RETURN JUMPDEST PUSH1 0x0 DUP1 PUSH2 0x376 DUP5 DUP5 PUSH2 0x7E7 JUMP JUMPDEST SWAP1 POP PUSH1 0x0 PUSH1 0x4 DUP1 PUSH2 0x387 SWAP2 SWAP1 PUSH2 0x1249 JUMP JUMPDEST PUSH1 0xA PUSH2 0x393 SWAP2 SWAP1 PUSH2 0x13BE JUMP JUMPDEST SWAP1 POP PUSH7 0x24859B044A8000 DUP2 PUSH3 0x588040 PUSH1 0x4 DUP6 PUSH2 0x3AF SWAP2 SWAP1 PUSH2 0x13BE JUMP JUMPDEST DUP8 PUSH2 0x3BA SWAP2 SWAP1 PUSH2 0x1249 JUMP JUMPDEST PUSH2 0x3C4 SWAP2 SWAP1 PUSH2 0x1438 JUMP JUMPDEST PUSH2 0x3CE SWAP2 SWAP1 PUSH2 0x1438 JUMP JUMPDEST PUSH2 0x3D8 SWAP2 SWAP1 PUSH2 0x1469 JUMP JUMPDEST SWAP3 POP POP POP SWAP3 SWAP2 POP POP JUMP JUMPDEST PUSH1 0x0 CALLVALUE SWAP1 POP PUSH1 0x0 DUP2 GT PUSH2 0x42A JUMPI PUSH1 0x40 MLOAD PUSH32 0x8C379A000000000000000000000000000000000000000000000000000000000 DUP2 MSTORE PUSH1 0x4 ADD PUSH2 0x421 SWAP1 PUSH2 0x14FA JUMP JUMPDEST PUSH1 0x40 MLOAD DUP1 SWAP2 SUB SWAP1 REVERT JUMPDEST PUSH1 0x0 DUP2 SELFBALANCE PUSH2 0x438 SWAP2 SWAP1 PUSH2 0x151A JUMP JUMPDEST SWAP1 POP PUSH1 0x0 PUSH2 0x444 PUSH2 0xF01 JUMP JUMPDEST SWAP1 POP PUSH1 0x0 DUP2 PUSH20 0xFFFFFFFFFFFFFFFFFFFFFFFFFFFFFFFFFFFFFFFF AND PUSH4 0x44936B10 PUSH1 0x40 MLOAD DUP2 PUSH4 0xFFFFFFFF AND PUSH1 0xE0 SHL DUP2 MSTORE PUSH1 0x4 ADD PUSH1 0x20 PUSH1 0x40 MLOAD DUP1 DUP4 SUB DUP2 DUP7 GAS STATICCALL ISZERO DUP1 ISZERO PUSH2 0x493 JUMPI RETURNDATASIZE PUSH1 0x0 DUP1 RETURNDATACOPY RETURNDATASIZE PUSH1 0x0 REVERT JUMPDEST POP POP POP POP PUSH1 0x40 MLOAD RETURNDATASIZE PUSH1 0x1F NOT PUSH1 0x1F DUP3 ADD AND DUP3 ADD DUP1 PUSH1 0x40 MSTORE POP DUP2 ADD SWAP1 PUSH2 0x4B7 SWAP2 SWAP1 PUSH2 0x1563 JUMP JUMPDEST SWAP1 POP PUSH1 0x0 PUSH2 0x4C6 DUP6 DUP6 DUP5 PUSH2 0x6F1 JUMP JUMPDEST SWAP1 POP DUP6 DUP2 LT ISZERO PUSH2 0x50B JUMPI PUSH1 0x40 MLOAD PUSH32 0x8C379A000000000000000000000000000000000000000000000000000000000 DUP2 MSTORE PUSH1 0x4 ADD PUSH2 0x502 SWAP1 PUSH2 0x1602 JUMP JUMPDEST PUSH1 0x40 MLOAD DUP1 SWAP2 SUB SWAP1 REVERT JUMPDEST PUSH1 0x1 PUSH1 0x0 SWAP1 SLOAD SWAP1 PUSH2 0x100 EXP SWAP1 DIV PUSH20 0xFFFFFFFFFFFFFFFFFFFFFFFFFFFFFFFFFFFFFFFF AND PUSH20 0xFFFFFFFFFFFFFFFFFFFFFFFFFFFFFFFFFFFFFFFF AND PUSH4 0x40C10F19 CALLER DUP4 PUSH1 0x40 MLOAD DUP4 PUSH4 0xFFFFFFFF AND PUSH1 0xE0 SHL DUP2 MSTORE PUSH1 0x4 ADD PUSH2 0x568 SWAP3 SWAP2 SWAP1 PUSH2 0x1643 JUMP JUMPDEST PUSH1 0x0 PUSH1 0x40 MLOAD DUP1 DUP4 SUB DUP2 PUSH1 0x0 DUP8 DUP1 EXTCODESIZE ISZERO DUP1 ISZERO PUSH2 0x582 JUMPI PUSH1 0x0 DUP1 REVERT JUMPDEST POP GAS CALL ISZERO DUP1 ISZERO PUSH2 0x596 JUMPI RETURNDATASIZE PUSH1 0x0 DUP1 RETURNDATACOPY RETURNDATASIZE PUSH1 0x0 REVERT JUMPDEST POP POP POP POP DUP3 PUSH20 0xFFFFFFFFFFFFFFFFFFFFFFFFFFFFFFFFFFFFFFFF AND PUSH4 0xAA5DA046 PUSH1 0x40 MLOAD DUP2 PUSH4 0xFFFFFFFF AND PUSH1 0xE0 SHL DUP2 MSTORE PUSH1 0x4 ADD PUSH1 0x0 PUSH1 0x40 MLOAD DUP1 DUP4 SUB DUP2 PUSH1 0x0 DUP8 DUP1 EXTCODESIZE ISZERO DUP1 ISZERO PUSH2 0x5E2 JUMPI PUSH1 0x0 DUP1 REVERT JUMPDEST POP GAS CALL ISZERO DUP1 ISZERO PUSH2 0x5F6 JUMPI RETURNDATASIZE PUSH1 0x0 DUP1 RETURNDATACOPY RETURNDATASIZE PUSH1 0x0 REVERT JUMPDEST POP POP POP POP CALLER PUSH20 0xFFFFFFFFFFFFFFFFFFFFFFFFFFFFFFFFFFFFFFFF AND PUSH32 0xC5FC954940739C9D45B12CD63FEC8B2FB3887D642D3572CF741E45F30088AD93 DUP7 DUP4 PUSH1 0x40 MLOAD PUSH2 0x642 SWAP3 SWAP2 SWAP1 PUSH2 0x166C JUMP JUMPDEST PUSH1 0x40 MLOAD DUP1 SWAP2 SUB SWAP1 LOG2 POP POP POP POP POP POP JUMP JUMPDEST PUSH2 0x1F4 DUP2 JUMP JUMPDEST PUSH1 0x4 DUP2 JUMP JUMPDEST PUSH1 0x0 DUP1 SELFBALANCE SWAP1 POP PUSH1 0x0 PUSH2 0x66D PUSH2 0xF01 JUMP JUMPDEST PUSH20 0xFFFFFFFFFFFFFFFFFFFFFFFFFFFFFFFFFFFFFFFF AND PUSH4 0x44936B10 PUSH1 0x40 MLOAD DUP2 PUSH4 0xFFFFFFFF AND PUSH1 0xE0 SHL DUP2 MSTORE PUSH1 0x4 ADD PUSH1 0x20 PUSH1 0x40 MLOAD DUP1 DUP4 SUB DUP2 DUP7 GAS STATICCALL ISZERO DUP1 ISZERO PUSH2 0x6B7 JUMPI RETURNDATASIZE PUSH1 0x0 DUP1 RETURNDATACOPY RETURNDATASIZE PUSH1 0x0 REVERT JUMPDEST POP POP POP POP PUSH1 0x40 MLOAD RETURNDATASIZE PUSH1 0x1F NOT PUSH1 0x1F DUP3 ADD AND DUP3 ADD DUP1 PUSH1 0x40 MSTORE POP DUP2 ADD SWAP1 PUSH2 0x6DB SWAP2 SWAP1 PUSH2 0x1563 JUMP JUMPDEST SWAP1 POP PUSH2 0x6E8 DUP5 DUP4 DUP4 PUSH2 0x6F1 JUMP JUMPDEST SWAP3 POP POP POP SWAP2 SWAP1 POP JUMP JUMPDEST PUSH1 0x0 DUP1 DUP4 EQ DUP1 PUSH2 0x710 JUMPI POP PUSH5 0xE8D4A51000 DUP4 DUP4 PUSH2 0x70E SWAP2 SWAP1 PUSH2 0x1438 JUMP JUMPDEST GT JUMPDEST ISZERO PUSH2 0x742 JUMPI PUSH7 0x24859B044A8000 PUSH8 0xDE0B6B3A7640000 DUP6 PUSH2 0x731 SWAP2 SWAP1 PUSH2 0x1249 JUMP JUMPDEST PUSH2 0x73B SWAP2 SWAP1 PUSH2 0x1438 JUMP JUMPDEST SWAP1 POP PUSH2 0x7E0 JUMP JUMPDEST PUSH1 0x0 PUSH2 0x74E DUP5 DUP5 PUSH2 0xF99 JUMP JUMPDEST SWAP1 POP PUSH1 0x0 DUP6 DUP6 PUSH2 0x75E SWAP2 SWAP1 PUSH2 0x1469 JUMP JUMPDEST SWAP1 POP PUSH1 0x0 PUSH2 0x76C DUP3 DUP7 PUSH2 0xF99 JUMP JUMPDEST SWAP1 POP PUSH1 0x0 DUP2 DUP5 PUSH2 0x77C SWAP2 SWAP1 PUSH2 0x151A JUMP JUMPDEST SWAP1 POP PUSH1 0x0 DUP2 PUSH8 0xDE0B6B3A7640000 DUP11 PUSH2 0x795 SWAP2 SWAP1 PUSH2 0x1249 JUMP JUMPDEST PUSH2 0x79F SWAP2 SWAP1 PUSH2 0x1438 JUMP JUMPDEST SWAP1 POP PUSH1 0x0 PUSH7 0x24859B044A8000 DUP3 PUSH2 0x7B6 SWAP2 SWAP1 PUSH2 0x1469 JUMP JUMPDEST SWAP1 POP DUP1 PUSH8 0xDE0B6B3A7640000 DUP12 PUSH2 0x7CD SWAP2 SWAP1 PUSH2 0x1249 JUMP JUMPDEST PUSH2 0x7D7 SWAP2 SWAP1 PUSH2 0x1438 JUMP JUMPDEST SWAP7 POP POP POP POP POP POP POP JUMPDEST SWAP4 SWAP3 POP POP POP JUMP JUMPDEST PUSH1 0x0 DUP2 PUSH1 0x4 PUSH1 0xA PUSH2 0x7F8 SWAP2 SWAP1 PUSH2 0x13BE JUMP JUMPDEST DUP5 PUSH2 0x803 SWAP2 SWAP1 PUSH2 0x1249 JUMP JUMPDEST PUSH2 0x80D SWAP2 SWAP1 PUSH2 0x1438 JUMP JUMPDEST SWAP1 POP SWAP3 SWAP2 POP POP JUMP JUMPDEST PUSH2 0x9C40 DUP2 JUMP JUMPDEST DUP2 PUSH1 0x1 PUSH1 0x0 SWAP1 SLOAD SWAP1 PUSH2 0x100 EXP SWAP1 DIV PUSH20 0xFFFFFFFFFFFFFFFFFFFFFFFFFFFFFFFFFFFFFFFF AND PUSH20 0xFFFFFFFFFFFFFFFFFFFFFFFFFFFFFFFFFFFFFFFF AND PUSH4 0x70A08231 CALLER PUSH1 0x40 MLOAD DUP3 PUSH4 0xFFFFFFFF AND PUSH1 0xE0 SHL DUP2 MSTORE PUSH1 0x4 ADD PUSH2 0x877 SWAP2 SWAP1 PUSH2 0x1695 JUMP JUMPDEST PUSH1 0x20 PUSH1 0x40 MLOAD DUP1 DUP4 SUB DUP2 DUP7 GAS STATICCALL ISZERO DUP1 ISZERO PUSH2 0x894 JUMPI RETURNDATASIZE PUSH1 0x0 DUP1 RETURNDATACOPY RETURNDATASIZE PUSH1 0x0 REVERT JUMPDEST POP POP POP POP PUSH1 0x40 MLOAD RETURNDATASIZE PUSH1 0x1F NOT PUSH1 0x1F DUP3 ADD AND DUP3 ADD DUP1 PUSH1 0x40 MSTORE POP DUP2 ADD SWAP1 PUSH2 0x8B8 SWAP2 SWAP1 PUSH2 0x1563 JUMP JUMPDEST LT ISZERO PUSH2 0x8F9 JUMPI PUSH1 0x40 MLOAD PUSH32 0x8C379A000000000000000000000000000000000000000000000000000000000 DUP2 MSTORE PUSH1 0x4 ADD PUSH2 0x8F0 SWAP1 PUSH2 0x16FC JUMP JUMPDEST PUSH1 0x40 MLOAD DUP1 SWAP2 SUB SWAP1 REVERT JUMPDEST PUSH1 0x0 PUSH2 0x903 PUSH2 0xF01 JUMP JUMPDEST SWAP1 POP PUSH1 0x0 SELFBALANCE SWAP1 POP PUSH1 0x0 DUP3 PUSH20 0xFFFFFFFFFFFFFFFFFFFFFFFFFFFFFFFFFFFFFFFF AND PUSH4 0x44936B10 PUSH1 0x40 MLOAD DUP2 PUSH4 0xFFFFFFFF AND PUSH1 0xE0 SHL DUP2 MSTORE PUSH1 0x4 ADD PUSH1 0x20 PUSH1 0x40 MLOAD DUP1 DUP4 SUB DUP2 DUP7 GAS STATICCALL ISZERO DUP1 ISZERO PUSH2 0x957 JUMPI RETURNDATASIZE PUSH1 0x0 DUP1 RETURNDATACOPY RETURNDATASIZE PUSH1 0x0 REVERT JUMPDEST POP POP POP POP PUSH1 0x40 MLOAD RETURNDATASIZE PUSH1 0x1F NOT PUSH1 0x1F DUP3 ADD AND DUP3 ADD DUP1 PUSH1 0x40 MSTORE POP DUP2 ADD SWAP1 PUSH2 0x97B SWAP2 SWAP1 PUSH2 0x1563 JUMP JUMPDEST SWAP1 POP PUSH1 0x0 PUSH2 0x98A DUP7 DUP5 DUP5 PUSH2 0xE39 JUMP JUMPDEST SWAP1 POP DUP2 DUP2 DUP5 PUSH2 0x999 SWAP2 SWAP1 PUSH2 0x151A JUMP JUMPDEST LT ISZERO PUSH2 0x9DA JUMPI PUSH1 0x40 MLOAD PUSH32 0x8C379A000000000000000000000000000000000000000000000000000000000 DUP2 MSTORE PUSH1 0x4 ADD PUSH2 0x9D1 SWAP1 PUSH2 0x178E JUMP JUMPDEST PUSH1 0x40 MLOAD DUP1 SWAP2 SUB SWAP1 REVERT JUMPDEST DUP5 DUP2 LT ISZERO PUSH2 0xA1D JUMPI PUSH1 0x40 MLOAD PUSH32 0x8C379A000000000000000000000000000000000000000000000000000000000 DUP2 MSTORE PUSH1 0x4 ADD PUSH2 0xA14 SWAP1 PUSH2 0x17FA JUMP JUMPDEST PUSH1 0x40 MLOAD DUP1 SWAP2 SUB SWAP1 REVERT JUMPDEST PUSH1 0x1 PUSH1 0x0 SWAP1 SLOAD SWAP1 PUSH2 0x100 EXP SWAP1 DIV PUSH20 0xFFFFFFFFFFFFFFFFFFFFFFFFFFFFFFFFFFFFFFFF AND PUSH20 0xFFFFFFFFFFFFFFFFFFFFFFFFFFFFFFFFFFFFFFFF AND PUSH4 0x79CC6790 CALLER DUP9 PUSH1 0x40 MLOAD DUP4 PUSH4 0xFFFFFFFF AND PUSH1 0xE0 SHL DUP2 MSTORE PUSH1 0x4 ADD PUSH2 0xA7A SWAP3 SWAP2 SWAP1 PUSH2 0x1643 JUMP JUMPDEST PUSH1 0x20 PUSH1 0x40 MLOAD DUP1 DUP4 SUB DUP2 PUSH1 0x0 DUP8 GAS CALL ISZERO DUP1 ISZERO PUSH2 0xA99 JUMPI RETURNDATASIZE PUSH1 0x0 DUP1 RETURNDATACOPY RETURNDATASIZE PUSH1 0x0 REVERT JUMPDEST POP POP POP POP PUSH1 0x40 MLOAD RETURNDATASIZE PUSH1 0x1F NOT PUSH1 0x1F DUP3 ADD AND DUP3 ADD DUP1 PUSH1 0x40 MSTORE POP DUP2 ADD SWAP1 PUSH2 0xABD SWAP2 SWAP1 PUSH2 0x1846 JUMP JUMPDEST POP PUSH1 0x0 CALLER PUSH20 0xFFFFFFFFFFFFFFFFFFFFFFFFFFFFFFFFFFFFFFFF AND DUP3 PUSH1 0x40 MLOAD PUSH2 0xAE4 SWAP1 PUSH2 0x18A4 JUMP JUMPDEST PUSH1 0x0 PUSH1 0x40 MLOAD DUP1 DUP4 SUB DUP2 DUP6 DUP8 GAS CALL SWAP3 POP POP POP RETURNDATASIZE DUP1 PUSH1 0x0 DUP2 EQ PUSH2 0xB21 JUMPI PUSH1 0x40 MLOAD SWAP2 POP PUSH1 0x1F NOT PUSH1 0x3F RETURNDATASIZE ADD AND DUP3 ADD PUSH1 0x40 MSTORE RETURNDATASIZE DUP3 MSTORE RETURNDATASIZE PUSH1 0x0 PUSH1 0x20 DUP5 ADD RETURNDATACOPY PUSH2 0xB26 JUMP JUMPDEST PUSH1 0x60 SWAP2 POP JUMPDEST POP POP SWAP1 POP DUP1 PUSH2 0xB6A JUMPI PUSH1 0x40 MLOAD PUSH32 0x8C379A000000000000000000000000000000000000000000000000000000000 DUP2 MSTORE PUSH1 0x4 ADD PUSH2 0xB61 SWAP1 PUSH2 0x1905 JUMP JUMPDEST PUSH1 0x40 MLOAD DUP1 SWAP2 SUB SWAP1 REVERT JUMPDEST DUP5 PUSH20 0xFFFFFFFFFFFFFFFFFFFFFFFFFFFFFFFFFFFFFFFF AND PUSH4 0xAA5DA046 PUSH1 0x40 MLOAD DUP2 PUSH4 0xFFFFFFFF AND PUSH1 0xE0 SHL DUP2 MSTORE PUSH1 0x4 ADD PUSH1 0x0 PUSH1 0x40 MLOAD DUP1 DUP4 SUB DUP2 PUSH1 0x0 DUP8 DUP1 EXTCODESIZE ISZERO DUP1 ISZERO PUSH2 0xBB2 JUMPI PUSH1 0x0 DUP1 REVERT JUMPDEST POP GAS CALL ISZERO DUP1 ISZERO PUSH2 0xBC6 JUMPI RETURNDATASIZE PUSH1 0x0 DUP1 RETURNDATACOPY RETURNDATASIZE PUSH1 0x0 REVERT JUMPDEST POP POP POP POP CALLER PUSH20 0xFFFFFFFFFFFFFFFFFFFFFFFFFFFFFFFFFFFFFFFF AND PUSH32 0x1D1DDCA8AA909E7F7FC055611B4269F6C858AD1E95735416F86F08C2D49E7473 DUP9 DUP5 PUSH1 0x40 MLOAD PUSH2 0xC12 SWAP3 SWAP2 SWAP1 PUSH2 0x166C JUMP JUMPDEST PUSH1 0x40 MLOAD DUP1 SWAP2 SUB SWAP1 LOG2 POP POP POP POP POP POP POP JUMP JUMPDEST PUSH1 0x0 DUP3 PUSH20 0xFFFFFFFFFFFFFFFFFFFFFFFFFFFFFFFFFFFFFFFF AND DUP3 PUSH1 0x40 MLOAD PUSH2 0xC49 SWAP1 PUSH2 0x18A4 JUMP JUMPDEST PUSH1 0x0 PUSH1 0x40 MLOAD DUP1 DUP4 SUB DUP2 DUP6 DUP8 GAS CALL SWAP3 POP POP POP RETURNDATASIZE DUP1 PUSH1 0x0 DUP2 EQ PUSH2 0xC86 JUMPI PUSH1 0x40 MLOAD SWAP2 POP PUSH1 0x1F NOT PUSH1 0x3F RETURNDATASIZE ADD AND DUP3 ADD PUSH1 0x40 MSTORE RETURNDATASIZE DUP3 MSTORE RETURNDATASIZE PUSH1 0x0 PUSH1 0x20 DUP5 ADD RETURNDATACOPY PUSH2 0xC8B JUMP JUMPDEST PUSH1 0x60 SWAP2 POP JUMPDEST POP POP SWAP1 POP DUP1 PUSH2 0xCCF JUMPI PUSH1 0x40 MLOAD PUSH32 0x8C379A000000000000000000000000000000000000000000000000000000000 DUP2 MSTORE PUSH1 0x4 ADD PUSH2 0xCC6 SWAP1 PUSH2 0x1971 JUMP JUMPDEST PUSH1 0x40 MLOAD DUP1 SWAP2 SUB SWAP1 REVERT JUMPDEST DUP3 PUSH20 0xFFFFFFFFFFFFFFFFFFFFFFFFFFFFFFFFFFFFFFFF AND PUSH32 0x5AFECA38B2064C23A692C4CF353015D80AB3ECC417B4F893F372690C11FBD9A6 DUP4 PUSH1 0x40 MLOAD PUSH2 0xD15 SWAP2 SWAP1 PUSH2 0x10AB JUMP JUMPDEST PUSH1 0x40 MLOAD DUP1 SWAP2 SUB SWAP1 LOG2 PUSH1 0x0 SELFBALANCE SWAP1 POP PUSH2 0xD2A PUSH2 0xF01 JUMP JUMPDEST PUSH20 0xFFFFFFFFFFFFFFFFFFFFFFFFFFFFFFFFFFFFFFFF AND PUSH4 0xAA5DA046 PUSH1 0x40 MLOAD DUP2 PUSH4 0xFFFFFFFF AND PUSH1 0xE0 SHL DUP2 MSTORE PUSH1 0x4 ADD PUSH1 0x0 PUSH1 0x40 MLOAD DUP1 DUP4 SUB DUP2 PUSH1 0x0 DUP8 DUP1 EXTCODESIZE ISZERO DUP1 ISZERO PUSH2 0xD71 JUMPI PUSH1 0x0 DUP1 REVERT JUMPDEST POP GAS CALL ISZERO DUP1 ISZERO PUSH2 0xD85 JUMPI RETURNDATASIZE PUSH1 0x0 DUP1 RETURNDATACOPY RETURNDATASIZE PUSH1 0x0 REVERT JUMPDEST POP POP POP POP POP POP POP POP JUMP JUMPDEST PUSH1 0x0 PUSH2 0xD9C DUP3 PUSH1 0x0 PUSH2 0x81B JUMP JUMPDEST PUSH1 0x1 SWAP1 POP SWAP2 SWAP1 POP JUMP JUMPDEST PUSH1 0x0 DUP1 SELFBALANCE SWAP1 POP PUSH1 0x0 PUSH2 0xDB5 PUSH2 0xF01 JUMP JUMPDEST PUSH20 0xFFFFFFFFFFFFFFFFFFFFFFFFFFFFFFFFFFFFFFFF AND PUSH4 0x44936B10 PUSH1 0x40 MLOAD DUP2 PUSH4 0xFFFFFFFF AND PUSH1 0xE0 SHL DUP2 MSTORE PUSH1 0x4 ADD PUSH1 0x20 PUSH1 0x40 MLOAD DUP1 DUP4 SUB DUP2 DUP7 GAS STATICCALL ISZERO DUP1 ISZERO PUSH2 0xDFF JUMPI RETURNDATASIZE PUSH1 0x0 DUP1 RETURNDATACOPY RETURNDATASIZE PUSH1 0x0 REVERT JUMPDEST POP POP POP POP PUSH1 0x40 MLOAD RETURNDATASIZE PUSH1 0x1F NOT PUSH1 0x1F DUP3 ADD AND DUP3 ADD DUP1 PUSH1 0x40 MSTORE POP DUP2 ADD SWAP1 PUSH2 0xE23 SWAP2 SWAP1 PUSH2 0x1563 JUMP JUMPDEST SWAP1 POP PUSH2 0xE30 DUP5 DUP4 DUP4 PUSH2 0xE39 JUMP JUMPDEST SWAP3 POP POP POP SWAP2 SWAP1 POP JUMP JUMPDEST PUSH1 0x0 DUP1 PUSH2 0xE46 DUP5 DUP5 PUSH2 0x369 JUMP JUMPDEST SWAP1 POP PUSH1 0x0 PUSH8 0xDE0B6B3A7640000 DUP3 DUP8 PUSH2 0xE5F SWAP2 SWAP1 PUSH2 0x1249 JUMP JUMPDEST PUSH2 0xE69 SWAP2 SWAP1 PUSH2 0x1438 JUMP JUMPDEST SWAP1 POP PUSH1 0x0 DUP2 DUP7 PUSH2 0xE79 SWAP2 SWAP1 PUSH2 0x151A JUMP JUMPDEST SWAP1 POP PUSH1 0x0 PUSH2 0xE87 DUP3 DUP8 PUSH2 0x369 JUMP JUMPDEST SWAP1 POP PUSH1 0x0 PUSH2 0x3E8 PUSH2 0x3CF PUSH1 0x2 DUP5 DUP9 PUSH2 0xE9F SWAP2 SWAP1 PUSH2 0x1469 JUMP JUMPDEST PUSH2 0xEA9 SWAP2 SWAP1 PUSH2 0x1438 JUMP JUMPDEST PUSH2 0xEB3 SWAP2 SWAP1 PUSH2 0x1249 JUMP JUMPDEST PUSH2 0xEBD SWAP2 SWAP1 PUSH2 0x1438 JUMP JUMPDEST SWAP1 POP PUSH1 0x0 PUSH2 0xECB DUP3 DUP5 PUSH2 0x1008 JUMP JUMPDEST SWAP1 POP PUSH1 0x0 PUSH8 0xDE0B6B3A7640000 DUP12 DUP4 PUSH2 0xEE4 SWAP2 SWAP1 PUSH2 0x1249 JUMP JUMPDEST PUSH2 0xEEE SWAP2 SWAP1 PUSH2 0x1438 JUMP JUMPDEST SWAP1 POP DUP1 SWAP8 POP POP POP POP POP POP POP POP SWAP4 SWAP3 POP POP POP JUMP JUMPDEST PUSH1 0x0 PUSH1 0x2 PUSH1 0x0 SWAP1 SLOAD SWAP1 PUSH2 0x100 EXP SWAP1 DIV PUSH20 0xFFFFFFFFFFFFFFFFFFFFFFFFFFFFFFFFFFFFFFFF AND PUSH20 0xFFFFFFFFFFFFFFFFFFFFFFFFFFFFFFFFFFFFFFFF AND PUSH4 0x88EA0751 PUSH1 0x40 MLOAD DUP2 PUSH4 0xFFFFFFFF AND PUSH1 0xE0 SHL DUP2 MSTORE PUSH1 0x4 ADD PUSH1 0x20 PUSH1 0x40 MLOAD DUP1 DUP4 SUB DUP2 DUP7 GAS STATICCALL ISZERO DUP1 ISZERO PUSH2 0xF70 JUMPI RETURNDATASIZE PUSH1 0x0 DUP1 RETURNDATACOPY RETURNDATASIZE PUSH1 0x0 REVERT JUMPDEST POP POP POP POP PUSH1 0x40 MLOAD RETURNDATASIZE PUSH1 0x1F NOT PUSH1 0x1F DUP3 ADD AND DUP3 ADD DUP1 PUSH1 0x40 MSTORE POP DUP2 ADD SWAP1 PUSH2 0xF94 SWAP2 SWAP1 PUSH2 0x19BD JUMP JUMPDEST SWAP1 POP SWAP1 JUMP JUMPDEST PUSH1 0x0 DUP3 DUP3 DUP5 DUP5 DUP7 DUP7 PUSH1 0x3 PUSH8 0xDE0B6B3A7640000 PUSH3 0x588040 PUSH2 0xFBA SWAP2 SWAP1 PUSH2 0x1249 JUMP JUMPDEST PUSH2 0xFC4 SWAP2 SWAP1 PUSH2 0x1438 JUMP JUMPDEST PUSH2 0xFCE SWAP2 SWAP1 PUSH2 0x1249 JUMP JUMPDEST PUSH2 0xFD8 SWAP2 SWAP1 PUSH2 0x1438 JUMP JUMPDEST PUSH2 0xFE2 SWAP2 SWAP1 PUSH2 0x1249 JUMP JUMPDEST PUSH2 0xFEC SWAP2 SWAP1 PUSH2 0x1438 JUMP JUMPDEST PUSH2 0xFF6 SWAP2 SWAP1 PUSH2 0x1249 JUMP JUMPDEST PUSH2 0x1000 SWAP2 SWAP1 PUSH2 0x1438 JUMP JUMPDEST SWAP1 POP SWAP3 SWAP2 POP POP JUMP JUMPDEST PUSH1 0x0 DUP2 DUP4 LT PUSH2 0x1017 JUMPI DUP2 PUSH2 0x1019 JUMP JUMPDEST DUP3 JUMPDEST SWAP1 POP SWAP3 SWAP2 POP POP JUMP JUMPDEST PUSH1 0x0 DUP1 REVERT JUMPDEST PUSH1 0x0 DUP2 SWAP1 POP SWAP2 SWAP1 POP JUMP JUMPDEST PUSH2 0x1039 DUP2 PUSH2 0x1026 JUMP JUMPDEST DUP2 EQ PUSH2 0x1044 JUMPI PUSH1 0x0 DUP1 REVERT JUMPDEST POP JUMP JUMPDEST PUSH1 0x0 DUP2 CALLDATALOAD SWAP1 POP PUSH2 0x1056 DUP2 PUSH2 0x1030 JUMP JUMPDEST SWAP3 SWAP2 POP POP JUMP JUMPDEST PUSH1 0x0 DUP1 PUSH1 0x40 DUP4 DUP6 SUB SLT ISZERO PUSH2 0x1073 JUMPI PUSH2 0x1072 PUSH2 0x1021 JUMP JUMPDEST JUMPDEST PUSH1 0x0 PUSH2 0x1081 DUP6 DUP3 DUP7 ADD PUSH2 0x1047 JUMP JUMPDEST SWAP3 POP POP PUSH1 0x20 PUSH2 0x1092 DUP6 DUP3 DUP7 ADD PUSH2 0x1047 JUMP JUMPDEST SWAP2 POP POP SWAP3 POP SWAP3 SWAP1 POP JUMP JUMPDEST PUSH2 0x10A5 DUP2 PUSH2 0x1026 JUMP JUMPDEST DUP3 MSTORE POP POP JUMP JUMPDEST PUSH1 0x0 PUSH1 0x20 DUP3 ADD SWAP1 POP PUSH2 0x10C0 PUSH1 0x0 DUP4 ADD DUP5 PUSH2 0x109C JUMP JUMPDEST SWAP3 SWAP2 POP POP JUMP JUMPDEST PUSH1 0x0 PUSH1 0x20 DUP3 DUP5 SUB SLT ISZERO PUSH2 0x10DC JUMPI PUSH2 0x10DB PUSH2 0x1021 JUMP JUMPDEST JUMPDEST PUSH1 0x0 PUSH2 0x10EA DUP5 DUP3 DUP6 ADD PUSH2 0x1047 JUMP JUMPDEST SWAP2 POP POP SWAP3 SWAP2 POP POP JUMP JUMPDEST PUSH1 0x0 DUP1 PUSH1 0x0 PUSH1 0x60 DUP5 DUP7 SUB SLT ISZERO PUSH2 0x110C JUMPI PUSH2 0x110B PUSH2 0x1021 JUMP JUMPDEST JUMPDEST PUSH1 0x0 PUSH2 0x111A DUP7 DUP3 DUP8 ADD PUSH2 0x1047 JUMP JUMPDEST SWAP4 POP POP PUSH1 0x20 PUSH2 0x112B DUP7 DUP3 DUP8 ADD PUSH2 0x1047 JUMP JUMPDEST SWAP3 POP POP PUSH1 0x40 PUSH2 0x113C DUP7 DUP3 DUP8 ADD PUSH2 0x1047 JUMP JUMPDEST SWAP2 POP POP SWAP3 POP SWAP3 POP SWAP3 JUMP JUMPDEST PUSH1 0x0 PUSH20 0xFFFFFFFFFFFFFFFFFFFFFFFFFFFFFFFFFFFFFFFF DUP3 AND SWAP1 POP SWAP2 SWAP1 POP JUMP JUMPDEST PUSH1 0x0 PUSH2 0x1171 DUP3 PUSH2 0x1146 JUMP JUMPDEST SWAP1 POP SWAP2 SWAP1 POP JUMP JUMPDEST PUSH2 0x1181 DUP2 PUSH2 0x1166 JUMP JUMPDEST DUP2 EQ PUSH2 0x118C JUMPI PUSH1 0x0 DUP1 REVERT JUMPDEST POP JUMP JUMPDEST PUSH1 0x0 DUP2 CALLDATALOAD SWAP1 POP PUSH2 0x119E DUP2 PUSH2 0x1178 JUMP JUMPDEST SWAP3 SWAP2 POP POP JUMP JUMPDEST PUSH1 0x0 DUP1 PUSH1 0x40 DUP4 DUP6 SUB SLT ISZERO PUSH2 0x11BB JUMPI PUSH2 0x11BA PUSH2 0x1021 JUMP JUMPDEST JUMPDEST PUSH1 0x0 PUSH2 0x11C9 DUP6 DUP3 DUP7 ADD PUSH2 0x118F JUMP JUMPDEST SWAP3 POP POP PUSH1 0x20 PUSH2 0x11DA DUP6 DUP3 DUP7 ADD PUSH2 0x1047 JUMP JUMPDEST SWAP2 POP POP SWAP3 POP SWAP3 SWAP1 POP JUMP JUMPDEST PUSH1 0x0 DUP2 ISZERO ISZERO SWAP1 POP SWAP2 SWAP1 POP JUMP JUMPDEST PUSH2 0x11F9 DUP2 PUSH2 0x11E4 JUMP JUMPDEST DUP3 MSTORE POP POP JUMP JUMPDEST PUSH1 0x0 PUSH1 0x20 DUP3 ADD SWAP1 POP PUSH2 0x1214 PUSH1 0x0 DUP4 ADD DUP5 PUSH2 0x11F0 JUMP JUMPDEST SWAP3 SWAP2 POP POP JUMP JUMPDEST PUSH32 0x4E487B7100000000000000000000000000000000000000000000000000000000 PUSH1 0x0 MSTORE PUSH1 0x11 PUSH1 0x4 MSTORE PUSH1 0x24 PUSH1 0x0 REVERT JUMPDEST PUSH1 0x0 PUSH2 0x1254 DUP3 PUSH2 0x1026 JUMP JUMPDEST SWAP2 POP PUSH2 0x125F DUP4 PUSH2 0x1026 JUMP JUMPDEST SWAP3 POP DUP3 DUP3 MUL PUSH2 0x126D DUP2 PUSH2 0x1026 JUMP JUMPDEST SWAP2 POP DUP3 DUP3 DIV DUP5 EQ DUP4 ISZERO OR PUSH2 0x1284 JUMPI PUSH2 0x1283 PUSH2 0x121A JUMP JUMPDEST JUMPDEST POP SWAP3 SWAP2 POP POP JUMP JUMPDEST PUSH1 0x0 DUP2 PUSH1 0x1 SHR SWAP1 POP SWAP2 SWAP1 POP JUMP JUMPDEST PUSH1 0x0 DUP1 DUP3 SWAP2 POP DUP4 SWAP1 POP JUMPDEST PUSH1 0x1 DUP6 GT ISZERO PUSH2 0x12E2 JUMPI DUP1 DUP7 DIV DUP2 GT ISZERO PUSH2 0x12BE JUMPI PUSH2 0x12BD PUSH2 0x121A JUMP JUMPDEST JUMPDEST PUSH1 0x1 DUP6 AND ISZERO PUSH2 0x12CD JUMPI DUP1 DUP3 MUL SWAP2 POP JUMPDEST DUP1 DUP2 MUL SWAP1 POP PUSH2 0x12DB DUP6 PUSH2 0x128B JUMP JUMPDEST SWAP5 POP PUSH2 0x12A2 JUMP JUMPDEST SWAP5 POP SWAP5 SWAP3 POP POP POP JUMP JUMPDEST PUSH1 0x0 DUP3 PUSH2 0x12FB JUMPI PUSH1 0x1 SWAP1 POP PUSH2 0x13B7 JUMP JUMPDEST DUP2 PUSH2 0x1309 JUMPI PUSH1 0x0 SWAP1 POP PUSH2 0x13B7 JUMP JUMPDEST DUP2 PUSH1 0x1 DUP2 EQ PUSH2 0x131F JUMPI PUSH1 0x2 DUP2 EQ PUSH2 0x1329 JUMPI PUSH2 0x1358 JUMP JUMPDEST PUSH1 0x1 SWAP2 POP POP PUSH2 0x13B7 JUMP JUMPDEST PUSH1 0xFF DUP5 GT ISZERO PUSH2 0x133B JUMPI PUSH2 0x133A PUSH2 0x121A JUMP JUMPDEST JUMPDEST DUP4 PUSH1 0x2 EXP SWAP2 POP DUP5 DUP3 GT ISZERO PUSH2 0x1352 JUMPI PUSH2 0x1351 PUSH2 0x121A JUMP JUMPDEST JUMPDEST POP PUSH2 0x13B7 JUMP JUMPDEST POP PUSH1 0x20 DUP4 LT PUSH2 0x133 DUP4 LT AND PUSH1 0x4E DUP5 LT PUSH1 0xB DUP5 LT AND OR ISZERO PUSH2 0x138D JUMPI DUP3 DUP3 EXP SWAP1 POP DUP4 DUP2 GT ISZERO PUSH2 0x1388 JUMPI PUSH2 0x1387 PUSH2 0x121A JUMP JUMPDEST JUMPDEST PUSH2 0x13B7 JUMP JUMPDEST PUSH2 0x139A DUP5 DUP5 DUP5 PUSH1 0x1 PUSH2 0x1298 JUMP JUMPDEST SWAP3 POP SWAP1 POP DUP2 DUP5 DIV DUP2 GT ISZERO PUSH2 0x13B1 JUMPI PUSH2 0x13B0 PUSH2 0x121A JUMP JUMPDEST JUMPDEST DUP2 DUP2 MUL SWAP1 POP JUMPDEST SWAP4 SWAP3 POP POP POP JUMP JUMPDEST PUSH1 0x0 PUSH2 0x13C9 DUP3 PUSH2 0x1026 JUMP JUMPDEST SWAP2 POP PUSH2 0x13D4 DUP4 PUSH2 0x1026 JUMP JUMPDEST SWAP3 POP PUSH2 0x1401 PUSH32 0xFFFFFFFFFFFFFFFFFFFFFFFFFFFFFFFFFFFFFFFFFFFFFFFFFFFFFFFFFFFFFFFF DUP5 DUP5 PUSH2 0x12EB JUMP JUMPDEST SWAP1 POP SWAP3 SWAP2 POP POP JUMP JUMPDEST PUSH32 0x4E487B7100000000000000000000000000000000000000000000000000000000 PUSH1 0x0 MSTORE PUSH1 0x12 PUSH1 0x4 MSTORE PUSH1 0x24 PUSH1 0x0 REVERT JUMPDEST PUSH1 0x0 PUSH2 0x1443 DUP3 PUSH2 0x1026 JUMP JUMPDEST SWAP2 POP PUSH2 0x144E DUP4 PUSH2 0x1026 JUMP JUMPDEST SWAP3 POP DUP3 PUSH2 0x145E JUMPI PUSH2 0x145D PUSH2 0x1409 JUMP JUMPDEST JUMPDEST DUP3 DUP3 DIV SWAP1 POP SWAP3 SWAP2 POP POP JUMP JUMPDEST PUSH1 0x0 PUSH2 0x1474 DUP3 PUSH2 0x1026 JUMP JUMPDEST SWAP2 POP PUSH2 0x147F DUP4 PUSH2 0x1026 JUMP JUMPDEST SWAP3 POP DUP3 DUP3 ADD SWAP1 POP DUP1 DUP3 GT ISZERO PUSH2 0x1497 JUMPI PUSH2 0x1496 PUSH2 0x121A JUMP JUMPDEST JUMPDEST SWAP3 SWAP2 POP POP JUMP JUMPDEST PUSH1 0x0 DUP3 DUP3 MSTORE PUSH1 0x20 DUP3 ADD SWAP1 POP SWAP3 SWAP2 POP POP JUMP JUMPDEST PUSH32 0x506F6F6C3A20657468496E203E20300000000000000000000000000000000000 PUSH1 0x0 DUP3 ADD MSTORE POP JUMP JUMPDEST PUSH1 0x0 PUSH2 0x14E4 PUSH1 0xF DUP4 PUSH2 0x149D JUMP JUMPDEST SWAP2 POP PUSH2 0x14EF DUP3 PUSH2 0x14AE JUMP JUMPDEST PUSH1 0x20 DUP3 ADD SWAP1 POP SWAP2 SWAP1 POP JUMP JUMPDEST PUSH1 0x0 PUSH1 0x20 DUP3 ADD SWAP1 POP DUP2 DUP2 SUB PUSH1 0x0 DUP4 ADD MSTORE PUSH2 0x1513 DUP2 PUSH2 0x14D7 JUMP JUMPDEST SWAP1 POP SWAP2 SWAP1 POP JUMP JUMPDEST PUSH1 0x0 PUSH2 0x1525 DUP3 PUSH2 0x1026 JUMP JUMPDEST SWAP2 POP PUSH2 0x1530 DUP4 PUSH2 0x1026 JUMP JUMPDEST SWAP3 POP DUP3 DUP3 SUB SWAP1 POP DUP2 DUP2 GT ISZERO PUSH2 0x1548 JUMPI PUSH2 0x1547 PUSH2 0x121A JUMP JUMPDEST JUMPDEST SWAP3 SWAP2 POP POP JUMP JUMPDEST PUSH1 0x0 DUP2 MLOAD SWAP1 POP PUSH2 0x155D DUP2 PUSH2 0x1030 JUMP JUMPDEST SWAP3 SWAP2 POP POP JUMP JUMPDEST PUSH1 0x0 PUSH1 0x20 DUP3 DUP5 SUB SLT ISZERO PUSH2 0x1579 JUMPI PUSH2 0x1578 PUSH2 0x1021 JUMP JUMPDEST JUMPDEST PUSH1 0x0 PUSH2 0x1587 DUP5 DUP3 DUP6 ADD PUSH2 0x154E JUMP JUMPDEST SWAP2 POP POP SWAP3 SWAP2 POP POP JUMP JUMPDEST PUSH32 0x506F6F6C3A20746F6B656E734F7574206973206C657373207468616E206D696E PUSH1 0x0 DUP3 ADD MSTORE PUSH32 0x546F6B656E734F75740000000000000000000000000000000000000000000000 PUSH1 0x20 DUP3 ADD MSTORE POP JUMP JUMPDEST PUSH1 0x0 PUSH2 0x15EC PUSH1 0x29 DUP4 PUSH2 0x149D JUMP JUMPDEST SWAP2 POP PUSH2 0x15F7 DUP3 PUSH2 0x1590 JUMP JUMPDEST PUSH1 0x40 DUP3 ADD SWAP1 POP SWAP2 SWAP1 POP JUMP JUMPDEST PUSH1 0x0 PUSH1 0x20 DUP3 ADD SWAP1 POP DUP2 DUP2 SUB PUSH1 0x0 DUP4 ADD MSTORE PUSH2 0x161B DUP2 PUSH2 0x15DF JUMP JUMPDEST SWAP1 POP SWAP2 SWAP1 POP JUMP JUMPDEST PUSH1 0x0 PUSH2 0x162D DUP3 PUSH2 0x1146 JUMP JUMPDEST SWAP1 POP SWAP2 SWAP1 POP JUMP JUMPDEST PUSH2 0x163D DUP2 PUSH2 0x1622 JUMP JUMPDEST DUP3 MSTORE POP POP JUMP JUMPDEST PUSH1 0x0 PUSH1 0x40 DUP3 ADD SWAP1 POP PUSH2 0x1658 PUSH1 0x0 DUP4 ADD DUP6 PUSH2 0x1634 JUMP JUMPDEST PUSH2 0x1665 PUSH1 0x20 DUP4 ADD DUP5 PUSH2 0x109C JUMP JUMPDEST SWAP4 SWAP3 POP POP POP JUMP JUMPDEST PUSH1 0x0 PUSH1 0x40 DUP3 ADD SWAP1 POP PUSH2 0x1681 PUSH1 0x0 DUP4 ADD DUP6 PUSH2 0x109C JUMP JUMPDEST PUSH2 0x168E PUSH1 0x20 DUP4 ADD DUP5 PUSH2 0x109C JUMP JUMPDEST SWAP4 SWAP3 POP POP POP JUMP JUMPDEST PUSH1 0x0 PUSH1 0x20 DUP3 ADD SWAP1 POP PUSH2 0x16AA PUSH1 0x0 DUP4 ADD DUP5 PUSH2 0x1634 JUMP JUMPDEST SWAP3 SWAP2 POP POP JUMP JUMPDEST PUSH32 0x506F6F6C3A204E6F7420656E6F7567682062616C616E63650000000000000000 PUSH1 0x0 DUP3 ADD MSTORE POP JUMP JUMPDEST PUSH1 0x0 PUSH2 0x16E6 PUSH1 0x18 DUP4 PUSH2 0x149D JUMP JUMPDEST SWAP2 POP PUSH2 0x16F1 DUP3 PUSH2 0x16B0 JUMP JUMPDEST PUSH1 0x20 DUP3 ADD SWAP1 POP SWAP2 SWAP1 POP JUMP JUMPDEST PUSH1 0x0 PUSH1 0x20 DUP3 ADD SWAP1 POP DUP2 DUP2 SUB PUSH1 0x0 DUP4 ADD MSTORE PUSH2 0x1715 DUP2 PUSH2 0x16D9 JUMP JUMPDEST SWAP1 POP SWAP2 SWAP1 POP JUMP JUMPDEST PUSH32 0x506F6F6C3A204D4352252063616E6E6F742066616C6C2062656C6F7720313030 PUSH1 0x0 DUP3 ADD MSTORE PUSH32 0x2500000000000000000000000000000000000000000000000000000000000000 PUSH1 0x20 DUP3 ADD MSTORE POP JUMP JUMPDEST PUSH1 0x0 PUSH2 0x1778 PUSH1 0x21 DUP4 PUSH2 0x149D JUMP JUMPDEST SWAP2 POP PUSH2 0x1783 DUP3 PUSH2 0x171C JUMP JUMPDEST PUSH1 0x40 DUP3 ADD SWAP1 POP SWAP2 SWAP1 POP JUMP JUMPDEST PUSH1 0x0 PUSH1 0x20 DUP3 ADD SWAP1 POP DUP2 DUP2 SUB PUSH1 0x0 DUP4 ADD MSTORE PUSH2 0x17A7 DUP2 PUSH2 0x176B JUMP JUMPDEST SWAP1 POP SWAP2 SWAP1 POP JUMP JUMPDEST PUSH32 0x506F6F6C3A206574684F7574203C206D696E4574684F75740000000000000000 PUSH1 0x0 DUP3 ADD MSTORE POP JUMP JUMPDEST PUSH1 0x0 PUSH2 0x17E4 PUSH1 0x18 DUP4 PUSH2 0x149D JUMP JUMPDEST SWAP2 POP PUSH2 0x17EF DUP3 PUSH2 0x17AE JUMP JUMPDEST PUSH1 0x20 DUP3 ADD SWAP1 POP SWAP2 SWAP1 POP JUMP JUMPDEST PUSH1 0x0 PUSH1 0x20 DUP3 ADD SWAP1 POP DUP2 DUP2 SUB PUSH1 0x0 DUP4 ADD MSTORE PUSH2 0x1813 DUP2 PUSH2 0x17D7 JUMP JUMPDEST SWAP1 POP SWAP2 SWAP1 POP JUMP JUMPDEST PUSH2 0x1823 DUP2 PUSH2 0x11E4 JUMP JUMPDEST DUP2 EQ PUSH2 0x182E JUMPI PUSH1 0x0 DUP1 REVERT JUMPDEST POP JUMP JUMPDEST PUSH1 0x0 DUP2 MLOAD SWAP1 POP PUSH2 0x1840 DUP2 PUSH2 0x181A JUMP JUMPDEST SWAP3 SWAP2 POP POP JUMP JUMPDEST PUSH1 0x0 PUSH1 0x20 DUP3 DUP5 SUB SLT ISZERO PUSH2 0x185C JUMPI PUSH2 0x185B PUSH2 0x1021 JUMP JUMPDEST JUMPDEST PUSH1 0x0 PUSH2 0x186A DUP5 DUP3 DUP6 ADD PUSH2 0x1831 JUMP JUMPDEST SWAP2 POP POP SWAP3 SWAP2 POP POP JUMP JUMPDEST PUSH1 0x0 DUP2 SWAP1 POP SWAP3 SWAP2 POP POP JUMP JUMPDEST POP JUMP JUMPDEST PUSH1 0x0 PUSH2 0x188E PUSH1 0x0 DUP4 PUSH2 0x1873 JUMP JUMPDEST SWAP2 POP PUSH2 0x1899 DUP3 PUSH2 0x187E JUMP JUMPDEST PUSH1 0x0 DUP3 ADD SWAP1 POP SWAP2 SWAP1 POP JUMP JUMPDEST PUSH1 0x0 PUSH2 0x18AF DUP3 PUSH2 0x1881 JUMP JUMPDEST SWAP2 POP DUP2 SWAP1 POP SWAP2 SWAP1 POP JUMP JUMPDEST PUSH32 0x506F6F6C3A2053656C6C207472616E73666572206661696C6564000000000000 PUSH1 0x0 DUP3 ADD MSTORE POP JUMP JUMPDEST PUSH1 0x0 PUSH2 0x18EF PUSH1 0x1A DUP4 PUSH2 0x149D JUMP JUMPDEST SWAP2 POP PUSH2 0x18FA DUP3 PUSH2 0x18B9 JUMP JUMPDEST PUSH1 0x20 DUP3 ADD SWAP1 POP SWAP2 SWAP1 POP JUMP JUMPDEST PUSH1 0x0 PUSH1 0x20 DUP3 ADD SWAP1 POP DUP2 DUP2 SUB PUSH1 0x0 DUP4 ADD MSTORE PUSH2 0x191E DUP2 PUSH2 0x18E2 JUMP JUMPDEST SWAP1 POP SWAP2 SWAP1 POP JUMP JUMPDEST PUSH32 0x506F6F6C3A20455448207472616E73666572206661696C656400000000000000 PUSH1 0x0 DUP3 ADD MSTORE POP JUMP JUMPDEST PUSH1 0x0 PUSH2 0x195B PUSH1 0x19 DUP4 PUSH2 0x149D JUMP JUMPDEST SWAP2 POP PUSH2 0x1966 DUP3 PUSH2 0x1925 JUMP JUMPDEST PUSH1 0x20 DUP3 ADD SWAP1 POP SWAP2 SWAP1 POP JUMP JUMPDEST PUSH1 0x0 PUSH1 0x20 DUP3 ADD SWAP1 POP DUP2 DUP2 SUB PUSH1 0x0 DUP4 ADD MSTORE PUSH2 0x198A DUP2 PUSH2 0x194E JUMP JUMPDEST SWAP1 POP SWAP2 SWAP1 POP JUMP JUMPDEST PUSH2 0x199A DUP2 PUSH2 0x1622 JUMP JUMPDEST DUP2 EQ PUSH2 0x19A5 JUMPI PUSH1 0x0 DUP1 REVERT JUMPDEST POP JUMP JUMPDEST PUSH1 0x0 DUP2 MLOAD SWAP1 POP PUSH2 0x19B7 DUP2 PUSH2 0x1991 JUMP JUMPDEST SWAP3 SWAP2 POP POP JUMP JUMPDEST PUSH1 0x0 PUSH1 0x20 DUP3 DUP5 SUB SLT ISZERO PUSH2 0x19D3 JUMPI PUSH2 0x19D2 PUSH2 0x1021 JUMP JUMPDEST JUMPDEST PUSH1 0x0 PUSH2 0x19E1 DUP5 DUP3 DUP6 ADD PUSH2 0x19A8 JUMP JUMPDEST SWAP2 POP POP SWAP3 SWAP2 POP POP JUMP INVALID LOG2 PUSH5 0x6970667358 0x22 SLT KECCAK256 DUP11 0xC0 SWAP5 INVALID SWAP12 PUSH23 0x4207A0D565B3E7FEF110C034D7CAB73E21E2760B895E7E 0xAB PUSH14 0x1F64736F6C634300081300330000 "
				},
				"gasEstimates": {
					"creation": {
						"codeDepositCost": "1337600",
						"executionCost": "infinite",
						"totalCost": "infinite"
					},
					"external": {
						"": "218",
						"MAX_BUY_SELL_MCR_ETH_FRACTION()": "374",
						"MAX_MCR_RATIO()": "374",
						"MCR_RATIO_DECIMALS()": "396",
						"buyHEDH(uint256)": "infinite",
						"calculateEthForHEDH(uint256,uint256,uint256)": "infinite",
						"calculateHEDHForEth(uint256,uint256,uint256)": "infinite",
						"calculateMCRRatio(uint256,uint256)": "infinite",
						"calculateTokenSpotPrice(uint256,uint256)": "infinite",
						"getEthForHEDH(uint256)": "infinite",
						"getHEDHForEth(uint256)": "infinite",
						"sellHEDH(uint256,uint256)": "infinite",
						"sellHEDHTokens(uint256)": "infinite",
						"sendPayout(address,uint256)": "infinite"
					},
					"internal": {
						"calculateIntegralAtPoint(uint256,uint256)": "infinite",
						"mcr()": "infinite"
					}
				},
				"methodIdentifiers": {
					"MAX_BUY_SELL_MCR_ETH_FRACTION()": "1f50c989",
					"MAX_MCR_RATIO()": "b222a4d3",
					"MCR_RATIO_DECIMALS()": "4779be08",
					"buyHEDH(uint256)": "06833ffd",
					"calculateEthForHEDH(uint256,uint256,uint256)": "ebb8433f",
					"calculateHEDHForEth(uint256,uint256,uint256)": "657e0542",
					"calculateMCRRatio(uint256,uint256)": "70310cb7",
					"calculateTokenSpotPrice(uint256,uint256)": "04e8266f",
					"getEthForHEDH(uint256)": "eabf3407",
					"getHEDHForEth(uint256)": "483b6f1d",
					"sellHEDH(uint256,uint256)": "bdf4872b",
					"sellHEDHTokens(uint256)": "e57a8fef",
					"sendPayout(address,uint256)": "cf8d133f"
				}
			},
			"storageLayout": {
				"storage": [
					{
						"astId": 117,
						"contract": "contracts/capital/Pool.sol:Pool",
						"label": "minTokensOut",
						"offset": 0,
						"slot": "0",
						"type": "t_uint256"
					},
					{
						"astId": 142,
						"contract": "contracts/capital/Pool.sol:Pool",
						"label": "hedhToken",
						"offset": 0,
						"slot": "1",
						"type": "t_contract(HEDHToken)1653"
					},
					{
						"astId": 145,
						"contract": "contracts/capital/Pool.sol:Pool",
						"label": "master",
						"offset": 0,
						"slot": "2",
						"type": "t_contract(Master)82"
					}
				],
				"types": {
					"t_contract(HEDHToken)1653": {
						"encoding": "inplace",
						"label": "contract HEDHToken",
						"numberOfBytes": "20"
					},
					"t_contract(Master)82": {
						"encoding": "inplace",
						"label": "contract Master",
						"numberOfBytes": "20"
					},
					"t_uint256": {
						"encoding": "inplace",
						"label": "uint256",
						"numberOfBytes": "32"
					}
				}
			},
			"userdoc": {
				"kind": "user",
				"methods": {
					"buyHEDH(uint256)": {
						"notice": "Buys NXM tokens with ETH."
					},
					"calculateTokenSpotPrice(uint256,uint256)": {
						"notice": "Calculates token price in ETH of 1 NXM token. TokenPrice = A + (MCReth / C) * MCR%^4"
					},
					"getHEDHForEth(uint256)": {
						"notice": "Get value in tokens for an ethAmount purchase."
					},
					"sellHEDH(uint256,uint256)": {
						"notice": "Sell NXM tokens and receive ETH."
					}
				},
				"version": 1
			}
		}
	}
}