{
	"contracts/capital/Pool.sol": {
		"Pool": {
			"abi": [
				{
					"inputs": [
						{
							"internalType": "address",
							"name": "_HEDHTokenAddress",
							"type": "address"
						},
						{
							"internalType": "address",
							"name": "_master",
							"type": "address"
						}
					],
					"stateMutability": "nonpayable",
					"type": "constructor"
				},
				{
					"anonymous": false,
					"inputs": [
						{
							"indexed": true,
							"internalType": "address",
							"name": "member",
							"type": "address"
						},
						{
							"indexed": false,
							"internalType": "uint256",
							"name": "ethIn",
							"type": "uint256"
						},
						{
							"indexed": false,
							"internalType": "uint256",
							"name": "nxmOut",
							"type": "uint256"
						}
					],
					"name": "HEDHBought",
					"type": "event"
				},
				{
					"anonymous": false,
					"inputs": [
						{
							"indexed": true,
							"internalType": "address",
							"name": "member",
							"type": "address"
						},
						{
							"indexed": false,
							"internalType": "uint256",
							"name": "nxmIn",
							"type": "uint256"
						},
						{
							"indexed": false,
							"internalType": "uint256",
							"name": "ethOut",
							"type": "uint256"
						}
					],
					"name": "HEDHSold",
					"type": "event"
				},
				{
					"anonymous": false,
					"inputs": [
						{
							"indexed": true,
							"internalType": "address",
							"name": "to",
							"type": "address"
						},
						{
							"indexed": false,
							"internalType": "uint256",
							"name": "amount",
							"type": "uint256"
						}
					],
					"name": "Payout",
					"type": "event"
				},
				{
					"stateMutability": "payable",
					"type": "fallback"
				},
				{
					"inputs": [],
					"name": "MAX_BUY_SELL_MCR_ETH_FRACTION",
					"outputs": [
						{
							"internalType": "uint256",
							"name": "",
							"type": "uint256"
						}
					],
					"stateMutability": "view",
					"type": "function"
				},
				{
					"inputs": [],
					"name": "MAX_MCR_RATIO",
					"outputs": [
						{
							"internalType": "uint256",
							"name": "",
							"type": "uint256"
						}
					],
					"stateMutability": "view",
					"type": "function"
				},
				{
					"inputs": [],
					"name": "MCR_RATIO_DECIMALS",
					"outputs": [
						{
							"internalType": "uint256",
							"name": "",
							"type": "uint256"
						}
					],
					"stateMutability": "view",
					"type": "function"
				},
				{
					"inputs": [
						{
							"internalType": "uint256",
							"name": "minTokensOut",
							"type": "uint256"
						}
					],
					"name": "buyHEDH",
					"outputs": [],
					"stateMutability": "payable",
					"type": "function"
				},
				{
					"inputs": [
						{
							"internalType": "uint256",
							"name": "nxmAmount",
							"type": "uint256"
						},
						{
							"internalType": "uint256",
							"name": "currentTotalAssetValue",
							"type": "uint256"
						},
						{
							"internalType": "uint256",
							"name": "mcrEth",
							"type": "uint256"
						}
					],
					"name": "calculateEthForHEDH",
					"outputs": [
						{
							"internalType": "uint256",
							"name": "",
							"type": "uint256"
						}
					],
					"stateMutability": "pure",
					"type": "function"
				},
				{
					"inputs": [
						{
							"internalType": "uint256",
							"name": "ethAmount",
							"type": "uint256"
						},
						{
							"internalType": "uint256",
							"name": "currentTotalAssetValue",
							"type": "uint256"
						},
						{
							"internalType": "uint256",
							"name": "mcrEth",
							"type": "uint256"
						}
					],
					"name": "calculateHEDHForEth",
					"outputs": [
						{
							"internalType": "uint256",
							"name": "",
							"type": "uint256"
						}
					],
					"stateMutability": "pure",
					"type": "function"
				},
				{
					"inputs": [
						{
							"internalType": "uint256",
							"name": "totalAssetValue",
							"type": "uint256"
						},
						{
							"internalType": "uint256",
							"name": "mcrEth",
							"type": "uint256"
						}
					],
					"name": "calculateMCRRatio",
					"outputs": [
						{
							"internalType": "uint256",
							"name": "",
							"type": "uint256"
						}
					],
					"stateMutability": "pure",
					"type": "function"
				},
				{
					"inputs": [
						{
							"internalType": "uint256",
							"name": "totalAssetValue",
							"type": "uint256"
						},
						{
							"internalType": "uint256",
							"name": "mcrEth",
							"type": "uint256"
						}
					],
					"name": "calculateTokenSpotPrice",
					"outputs": [
						{
							"internalType": "uint256",
							"name": "tokenPrice",
							"type": "uint256"
						}
					],
					"stateMutability": "pure",
					"type": "function"
				},
				{
					"inputs": [
						{
							"internalType": "uint256",
							"name": "hedhAmount",
							"type": "uint256"
						}
					],
					"name": "getEthForHEDH",
					"outputs": [
						{
							"internalType": "uint256",
							"name": "ethAmount",
							"type": "uint256"
						}
					],
					"stateMutability": "nonpayable",
					"type": "function"
				},
				{
					"inputs": [
						{
							"internalType": "uint256",
							"name": "ethAmount",
							"type": "uint256"
						}
					],
					"name": "getHEDHForEth",
					"outputs": [
						{
							"internalType": "uint256",
							"name": "",
							"type": "uint256"
						}
					],
					"stateMutability": "nonpayable",
					"type": "function"
				},
				{
					"inputs": [
						{
							"internalType": "uint256",
							"name": "tokenAmount",
							"type": "uint256"
						},
						{
							"internalType": "uint256",
							"name": "minEthOut",
							"type": "uint256"
						}
					],
					"name": "sellHEDH",
					"outputs": [],
					"stateMutability": "nonpayable",
					"type": "function"
				},
				{
					"inputs": [
						{
							"internalType": "uint256",
							"name": "amount",
							"type": "uint256"
						}
					],
					"name": "sellHEDHTokens",
					"outputs": [
						{
							"internalType": "bool",
							"name": "success",
							"type": "bool"
						}
					],
					"stateMutability": "nonpayable",
					"type": "function"
				},
				{
					"inputs": [
						{
							"internalType": "address payable",
							"name": "payoutAddress",
							"type": "address"
						},
						{
							"internalType": "uint256",
							"name": "amount",
							"type": "uint256"
						}
					],
					"name": "sendPayout",
					"outputs": [],
					"stateMutability": "nonpayable",
					"type": "function"
				},
				{
					"stateMutability": "payable",
					"type": "receive"
				}
			],
			"devdoc": {
				"kind": "dev",
				"methods": {
					"buyHEDH(uint256)": {
						"params": {
							"minTokensOut": "Minimum amount of tokens to be bought. Revert if boughtTokens falls below this number."
						}
					},
					"calculateEthForHEDH(uint256,uint256,uint256)": {
						"details": "Computes token sell value for a tokenAmount in ETH with a sell spread of 2.5%. for values in ETH of the sale <= 1% * MCReth the sell spread is very close to the exact value of 2.5%. for values higher than that sell spread may exceed 2.5% (The higher amount being sold at any given time the higher the spread)"
					},
					"getHEDHForEth(uint256)": {
						"params": {
							"ethAmount": "Amount of ETH used for buying."
						},
						"returns": {
							"_0": "tokenValue  Tokens obtained by buying worth of ethAmount"
						}
					},
					"sellHEDH(uint256,uint256)": {
						"params": {
							"minEthOut": "Minimum amount of ETH to be received. Revert if ethOut falls below this number.",
							"tokenAmount": "Amount of tokens to sell."
						}
					}
				},
				"version": 1
			},
			"evm": {
				"assembly": "    /* \"contracts/capital/Pool.sol\":186:11064  contract Pool is IPool {... */\n  mstore(0x40, 0x80)\n    /* \"contracts/capital/Pool.sol\":634:635  1 */\n  0x01\n    /* \"contracts/capital/Pool.sol\":614:635  uint minTokensOut = 1 */\n  0x00\n  sstore\n    /* \"contracts/capital/Pool.sol\":905:1054  constructor ( address _HEDHTokenAddress, address _master) {... */\n  callvalue\n  dup1\n  iszero\n  tag_1\n  jumpi\n  0x00\n  dup1\n  revert\ntag_1:\n  pop\n  mload(0x40)\n  sub(codesize, bytecodeSize)\n  dup1\n  bytecodeSize\n  dup4\n  codecopy\n  dup2\n  dup2\n  add\n  0x40\n  mstore\n  dup2\n  add\n  swap1\n  tag_2\n  swap2\n  swap1\n  tag_3\n  jump\t// in\ntag_2:\n    /* \"contracts/capital/Pool.sol\":995:1012  _HEDHTokenAddress */\n  dup2\n    /* \"contracts/capital/Pool.sol\":973:982  hedhToken */\n  0x01\n  0x00\n    /* \"contracts/capital/Pool.sol\":973:1013  hedhToken = HEDHToken(_HEDHTokenAddress) */\n  0x0100\n  exp\n  dup2\n  sload\n  dup2\n  0xffffffffffffffffffffffffffffffffffffffff\n  mul\n  not\n  and\n  swap1\n  dup4\n  0xffffffffffffffffffffffffffffffffffffffff\n  and\n  mul\n  or\n  swap1\n  sstore\n  pop\n    /* \"contracts/capital/Pool.sol\":1039:1046  _master */\n  dup1\n    /* \"contracts/capital/Pool.sol\":1023:1029  master */\n  0x02\n  0x00\n    /* \"contracts/capital/Pool.sol\":1023:1047  master = Master(_master) */\n  0x0100\n  exp\n  dup2\n  sload\n  dup2\n  0xffffffffffffffffffffffffffffffffffffffff\n  mul\n  not\n  and\n  swap1\n  dup4\n  0xffffffffffffffffffffffffffffffffffffffff\n  and\n  mul\n  or\n  swap1\n  sstore\n  pop\n    /* \"contracts/capital/Pool.sol\":905:1054  constructor ( address _HEDHTokenAddress, address _master) {... */\n  pop\n  pop\n    /* \"contracts/capital/Pool.sol\":186:11064  contract Pool is IPool {... */\n  jump(tag_6)\n    /* \"#utility.yul\":88:205   */\ntag_8:\n    /* \"#utility.yul\":197:198   */\n  0x00\n    /* \"#utility.yul\":194:195   */\n  dup1\n    /* \"#utility.yul\":187:199   */\n  revert\n    /* \"#utility.yul\":334:460   */\ntag_10:\n    /* \"#utility.yul\":371:378   */\n  0x00\n    /* \"#utility.yul\":411:453   */\n  0xffffffffffffffffffffffffffffffffffffffff\n    /* \"#utility.yul\":404:409   */\n  dup3\n    /* \"#utility.yul\":400:454   */\n  and\n    /* \"#utility.yul\":389:454   */\n  swap1\n  pop\n    /* \"#utility.yul\":334:460   */\n  swap2\n  swap1\n  pop\n  jump\t// out\n    /* \"#utility.yul\":466:562   */\ntag_11:\n    /* \"#utility.yul\":503:510   */\n  0x00\n    /* \"#utility.yul\":532:556   */\n  tag_20\n    /* \"#utility.yul\":550:555   */\n  dup3\n    /* \"#utility.yul\":532:556   */\n  tag_10\n  jump\t// in\ntag_20:\n    /* \"#utility.yul\":521:556   */\n  swap1\n  pop\n    /* \"#utility.yul\":466:562   */\n  swap2\n  swap1\n  pop\n  jump\t// out\n    /* \"#utility.yul\":568:690   */\ntag_12:\n    /* \"#utility.yul\":641:665   */\n  tag_22\n    /* \"#utility.yul\":659:664   */\n  dup2\n    /* \"#utility.yul\":641:665   */\n  tag_11\n  jump\t// in\ntag_22:\n    /* \"#utility.yul\":634:639   */\n  dup2\n    /* \"#utility.yul\":631:666   */\n  eq\n    /* \"#utility.yul\":621:684   */\n  tag_23\n  jumpi\n    /* \"#utility.yul\":680:681   */\n  0x00\n    /* \"#utility.yul\":677:678   */\n  dup1\n    /* \"#utility.yul\":670:682   */\n  revert\n    /* \"#utility.yul\":621:684   */\ntag_23:\n    /* \"#utility.yul\":568:690   */\n  pop\n  jump\t// out\n    /* \"#utility.yul\":696:839   */\ntag_13:\n    /* \"#utility.yul\":753:758   */\n  0x00\n    /* \"#utility.yul\":784:790   */\n  dup2\n    /* \"#utility.yul\":778:791   */\n  mload\n    /* \"#utility.yul\":769:791   */\n  swap1\n  pop\n    /* \"#utility.yul\":800:833   */\n  tag_25\n    /* \"#utility.yul\":827:832   */\n  dup2\n    /* \"#utility.yul\":800:833   */\n  tag_12\n  jump\t// in\ntag_25:\n    /* \"#utility.yul\":696:839   */\n  swap3\n  swap2\n  pop\n  pop\n  jump\t// out\n    /* \"#utility.yul\":845:1352   */\ntag_3:\n    /* \"#utility.yul\":924:930   */\n  0x00\n    /* \"#utility.yul\":932:938   */\n  dup1\n    /* \"#utility.yul\":981:983   */\n  0x40\n    /* \"#utility.yul\":969:978   */\n  dup4\n    /* \"#utility.yul\":960:967   */\n  dup6\n    /* \"#utility.yul\":956:979   */\n  sub\n    /* \"#utility.yul\":952:984   */\n  slt\n    /* \"#utility.yul\":949:1068   */\n  iszero\n  tag_27\n  jumpi\n    /* \"#utility.yul\":987:1066   */\n  tag_28\n  tag_8\n  jump\t// in\ntag_28:\n    /* \"#utility.yul\":949:1068   */\ntag_27:\n    /* \"#utility.yul\":1107:1108   */\n  0x00\n    /* \"#utility.yul\":1132:1196   */\n  tag_29\n    /* \"#utility.yul\":1188:1195   */\n  dup6\n    /* \"#utility.yul\":1179:1185   */\n  dup3\n    /* \"#utility.yul\":1168:1177   */\n  dup7\n    /* \"#utility.yul\":1164:1186   */\n  add\n    /* \"#utility.yul\":1132:1196   */\n  tag_13\n  jump\t// in\ntag_29:\n    /* \"#utility.yul\":1122:1196   */\n  swap3\n  pop\n    /* \"#utility.yul\":1078:1206   */\n  pop\n    /* \"#utility.yul\":1245:1247   */\n  0x20\n    /* \"#utility.yul\":1271:1335   */\n  tag_30\n    /* \"#utility.yul\":1327:1334   */\n  dup6\n    /* \"#utility.yul\":1318:1324   */\n  dup3\n    /* \"#utility.yul\":1307:1316   */\n  dup7\n    /* \"#utility.yul\":1303:1325   */\n  add\n    /* \"#utility.yul\":1271:1335   */\n  tag_13\n  jump\t// in\ntag_30:\n    /* \"#utility.yul\":1261:1335   */\n  swap2\n  pop\n    /* \"#utility.yul\":1216:1345   */\n  pop\n    /* \"#utility.yul\":845:1352   */\n  swap3\n  pop\n  swap3\n  swap1\n  pop\n  jump\t// out\n    /* \"contracts/capital/Pool.sol\":186:11064  contract Pool is IPool {... */\ntag_6:\n  dataSize(sub_0)\n  dup1\n  dataOffset(sub_0)\n  0x00\n  codecopy\n  0x00\n  return\nstop\n\nsub_0: assembly {\n        /* \"contracts/capital/Pool.sol\":186:11064  contract Pool is IPool {... */\n      mstore(0x40, 0x80)\n      jumpi(tag_1, lt(calldatasize, 0x04))\n      shr(0xe0, calldataload(0x00))\n      dup1\n      0x70310cb7\n      gt\n      tag_16\n      jumpi\n      dup1\n      0xcf8d133f\n      gt\n      tag_17\n      jumpi\n      dup1\n      0xcf8d133f\n      eq\n      tag_12\n      jumpi\n      dup1\n      0xe57a8fef\n      eq\n      tag_13\n      jumpi\n      dup1\n      0xeabf3407\n      eq\n      tag_14\n      jumpi\n      dup1\n      0xebb8433f\n      eq\n      tag_15\n      jumpi\n      jump(tag_2)\n    tag_17:\n      dup1\n      0x70310cb7\n      eq\n      tag_9\n      jumpi\n      dup1\n      0xb222a4d3\n      eq\n      tag_10\n      jumpi\n      dup1\n      0xbdf4872b\n      eq\n      tag_11\n      jumpi\n      jump(tag_2)\n    tag_16:\n      dup1\n      0x04e8266f\n      eq\n      tag_3\n      jumpi\n      dup1\n      0x06833ffd\n      eq\n      tag_4\n      jumpi\n      dup1\n      0x1f50c989\n      eq\n      tag_5\n      jumpi\n      dup1\n      0x4779be08\n      eq\n      tag_6\n      jumpi\n      dup1\n      0x483b6f1d\n      eq\n      tag_7\n      jumpi\n      dup1\n      0x657e0542\n      eq\n      tag_8\n      jumpi\n      jump(tag_2)\n    tag_1:\n      jumpi(tag_2, calldatasize)\n      stop\n    tag_2:\n      stop\n        /* \"contracts/capital/Pool.sol\":10605:10989  function calculateTokenSpotPrice(... */\n    tag_3:\n      callvalue\n      dup1\n      iszero\n      tag_22\n      jumpi\n      0x00\n      dup1\n      revert\n    tag_22:\n      pop\n      tag_23\n      0x04\n      dup1\n      calldatasize\n      sub\n      dup2\n      add\n      swap1\n      tag_24\n      swap2\n      swap1\n      tag_25\n      jump\t// in\n    tag_24:\n      tag_26\n      jump\t// in\n    tag_23:\n      mload(0x40)\n      tag_27\n      swap2\n      swap1\n      tag_28\n      jump\t// in\n    tag_27:\n      mload(0x40)\n      dup1\n      swap2\n      sub\n      swap1\n      return\n        /* \"contracts/capital/Pool.sol\":1905:2725  function buyHEDH(uint minTokensOut) public override payable  {... */\n    tag_4:\n      tag_29\n      0x04\n      dup1\n      calldatasize\n      sub\n      dup2\n      add\n      swap1\n      tag_30\n      swap2\n      swap1\n      tag_31\n      jump\t// in\n    tag_30:\n      tag_32\n      jump\t// in\n    tag_29:\n      stop\n        /* \"contracts/capital/Pool.sol\":322:378  uint public constant MAX_BUY_SELL_MCR_ETH_FRACTION = 500 */\n    tag_5:\n      callvalue\n      dup1\n      iszero\n      tag_33\n      jumpi\n      0x00\n      dup1\n      revert\n    tag_33:\n      pop\n      tag_34\n      tag_35\n      jump\t// in\n    tag_34:\n      mload(0x40)\n      tag_36\n      swap2\n      swap1\n      tag_28\n      jump\t// in\n    tag_36:\n      mload(0x40)\n      dup1\n      swap2\n      sub\n      swap1\n      return\n        /* \"contracts/capital/Pool.sol\":217:260  uint public constant MCR_RATIO_DECIMALS = 4 */\n    tag_6:\n      callvalue\n      dup1\n      iszero\n      tag_37\n      jumpi\n      0x00\n      dup1\n      revert\n    tag_37:\n      pop\n      tag_38\n      tag_39\n      jump\t// in\n    tag_38:\n      mload(0x40)\n      tag_40\n      swap2\n      swap1\n      tag_28\n      jump\t// in\n    tag_40:\n      mload(0x40)\n      dup1\n      swap2\n      sub\n      swap1\n      return\n        /* \"contracts/capital/Pool.sol\":4143:4391  function getHEDHForEth(... */\n    tag_7:\n      callvalue\n      dup1\n      iszero\n      tag_41\n      jumpi\n      0x00\n      dup1\n      revert\n    tag_41:\n      pop\n      tag_42\n      0x04\n      dup1\n      calldatasize\n      sub\n      dup2\n      add\n      swap1\n      tag_43\n      swap2\n      swap1\n      tag_31\n      jump\t// in\n    tag_43:\n      tag_44\n      jump\t// in\n    tag_42:\n      mload(0x40)\n      tag_45\n      swap2\n      swap1\n      tag_28\n      jump\t// in\n    tag_45:\n      mload(0x40)\n      dup1\n      swap2\n      sub\n      swap1\n      return\n        /* \"contracts/capital/Pool.sol\":4397:7797  function calculateHEDHForEth(... */\n    tag_8:\n      callvalue\n      dup1\n      iszero\n      tag_46\n      jumpi\n      0x00\n      dup1\n      revert\n    tag_46:\n      pop\n      tag_47\n      0x04\n      dup1\n      calldatasize\n      sub\n      dup2\n      add\n      swap1\n      tag_48\n      swap2\n      swap1\n      tag_49\n      jump\t// in\n    tag_48:\n      tag_50\n      jump\t// in\n    tag_47:\n      mload(0x40)\n      tag_51\n      swap2\n      swap1\n      tag_28\n      jump\t// in\n    tag_51:\n      mload(0x40)\n      dup1\n      swap2\n      sub\n      swap1\n      return\n        /* \"contracts/capital/Pool.sol\":10309:10498  function calculateMCRRatio(... */\n    tag_9:\n      callvalue\n      dup1\n      iszero\n      tag_52\n      jumpi\n      0x00\n      dup1\n      revert\n    tag_52:\n      pop\n      tag_53\n      0x04\n      dup1\n      calldatasize\n      sub\n      dup2\n      add\n      swap1\n      tag_54\n      swap2\n      swap1\n      tag_25\n      jump\t// in\n    tag_54:\n      tag_55\n      jump\t// in\n    tag_53:\n      mload(0x40)\n      tag_56\n      swap2\n      swap1\n      tag_28\n      jump\t// in\n    tag_56:\n      mload(0x40)\n      dup1\n      swap2\n      sub\n      swap1\n      return\n        /* \"contracts/capital/Pool.sol\":266:308  uint public constant MAX_MCR_RATIO = 40000 */\n    tag_10:\n      callvalue\n      dup1\n      iszero\n      tag_57\n      jumpi\n      0x00\n      dup1\n      revert\n    tag_57:\n      pop\n      tag_58\n      tag_59\n      jump\t// in\n    tag_58:\n      mload(0x40)\n      tag_60\n      swap2\n      swap1\n      tag_28\n      jump\t// in\n    tag_60:\n      mload(0x40)\n      dup1\n      swap2\n      sub\n      swap1\n      return\n        /* \"contracts/capital/Pool.sol\":2950:3872  function sellHEDH(... */\n    tag_11:\n      callvalue\n      dup1\n      iszero\n      tag_61\n      jumpi\n      0x00\n      dup1\n      revert\n    tag_61:\n      pop\n      tag_62\n      0x04\n      dup1\n      calldatasize\n      sub\n      dup2\n      add\n      swap1\n      tag_63\n      swap2\n      swap1\n      tag_25\n      jump\t// in\n    tag_63:\n      tag_64\n      jump\t// in\n    tag_62:\n      stop\n        /* \"contracts/capital/Pool.sol\":1093:1482  function sendPayout(... */\n    tag_12:\n      callvalue\n      dup1\n      iszero\n      tag_65\n      jumpi\n      0x00\n      dup1\n      revert\n    tag_65:\n      pop\n      tag_66\n      0x04\n      dup1\n      calldatasize\n      sub\n      dup2\n      add\n      swap1\n      tag_67\n      swap2\n      swap1\n      tag_68\n      jump\t// in\n    tag_67:\n      tag_69\n      jump\t// in\n    tag_66:\n      stop\n        /* \"contracts/capital/Pool.sol\":1586:1725  function sellHEDHTokens(... */\n    tag_13:\n      callvalue\n      dup1\n      iszero\n      tag_70\n      jumpi\n      0x00\n      dup1\n      revert\n    tag_70:\n      pop\n      tag_71\n      0x04\n      dup1\n      calldatasize\n      sub\n      dup2\n      add\n      swap1\n      tag_72\n      swap2\n      swap1\n      tag_31\n      jump\t// in\n    tag_72:\n      tag_73\n      jump\t// in\n    tag_71:\n      mload(0x40)\n      tag_74\n      swap2\n      swap1\n      tag_75\n      jump\t// in\n    tag_74:\n      mload(0x40)\n      dup1\n      swap2\n      sub\n      swap1\n      return\n        /* \"contracts/capital/Pool.sol\":8455:8714  function getEthForHEDH(uint hedhAmount) public  returns (uint ethAmount) {... */\n    tag_14:\n      callvalue\n      dup1\n      iszero\n      tag_76\n      jumpi\n      0x00\n      dup1\n      revert\n    tag_76:\n      pop\n      tag_77\n      0x04\n      dup1\n      calldatasize\n      sub\n      dup2\n      add\n      swap1\n      tag_78\n      swap2\n      swap1\n      tag_31\n      jump\t// in\n    tag_78:\n      tag_79\n      jump\t// in\n    tag_77:\n      mload(0x40)\n      tag_80\n      swap2\n      swap1\n      tag_28\n      jump\t// in\n    tag_80:\n      mload(0x40)\n      dup1\n      swap2\n      sub\n      swap1\n      return\n        /* \"contracts/capital/Pool.sol\":9073:10303  function calculateEthForHEDH(... */\n    tag_15:\n      callvalue\n      dup1\n      iszero\n      tag_81\n      jumpi\n      0x00\n      dup1\n      revert\n    tag_81:\n      pop\n      tag_82\n      0x04\n      dup1\n      calldatasize\n      sub\n      dup2\n      add\n      swap1\n      tag_83\n      swap2\n      swap1\n      tag_49\n      jump\t// in\n    tag_83:\n      tag_84\n      jump\t// in\n    tag_82:\n      mload(0x40)\n      tag_85\n      swap2\n      swap1\n      tag_28\n      jump\t// in\n    tag_85:\n      mload(0x40)\n      dup1\n      swap2\n      sub\n      swap1\n      return\n        /* \"contracts/capital/Pool.sol\":10605:10989  function calculateTokenSpotPrice(... */\n    tag_26:\n        /* \"contracts/capital/Pool.sol\":10717:10732  uint tokenPrice */\n      0x00\n        /* \"contracts/capital/Pool.sol\":10745:10758  uint mcrRatio */\n      dup1\n        /* \"contracts/capital/Pool.sol\":10761:10803  calculateMCRRatio(totalAssetValue, mcrEth) */\n      tag_87\n        /* \"contracts/capital/Pool.sol\":10779:10794  totalAssetValue */\n      dup5\n        /* \"contracts/capital/Pool.sol\":10796:10802  mcrEth */\n      dup5\n        /* \"contracts/capital/Pool.sol\":10761:10778  calculateMCRRatio */\n      tag_55\n        /* \"contracts/capital/Pool.sol\":10761:10803  calculateMCRRatio(totalAssetValue, mcrEth) */\n      jump\t// in\n    tag_87:\n        /* \"contracts/capital/Pool.sol\":10745:10803  uint mcrRatio = calculateMCRRatio(totalAssetValue, mcrEth) */\n      swap1\n      pop\n        /* \"contracts/capital/Pool.sol\":10813:10835  uint precisionDecimals */\n      0x00\n        /* \"contracts/capital/Pool.sol\":259:260  4 */\n      0x04\n        /* \"contracts/capital/Pool.sol\":551:552  4 */\n      dup1\n        /* \"contracts/capital/Pool.sol\":10845:10880  TOKEN_EXPONENT * MCR_RATIO_DECIMALS */\n      tag_88\n      swap2\n      swap1\n      tag_89\n      jump\t// in\n    tag_88:\n        /* \"contracts/capital/Pool.sol\":10838:10840  10 */\n      0x0a\n        /* \"contracts/capital/Pool.sol\":10838:10881  10 ** (TOKEN_EXPONENT * MCR_RATIO_DECIMALS) */\n      tag_90\n      swap2\n      swap1\n      tag_91\n      jump\t// in\n    tag_90:\n        /* \"contracts/capital/Pool.sol\":10813:10881  uint precisionDecimals = 10 ** (TOKEN_EXPONENT * MCR_RATIO_DECIMALS) */\n      swap1\n      pop\n        /* \"contracts/capital/Pool.sol\":494:505  1028 * 1e13 */\n      0x24859b044a8000\n        /* \"contracts/capital/Pool.sol\":10952:10969  precisionDecimals */\n      dup2\n        /* \"contracts/capital/Pool.sol\":445:452  5800000 */\n      0x588040\n        /* \"contracts/capital/Pool.sol\":551:552  4 */\n      0x04\n        /* \"contracts/capital/Pool.sol\":10909:10917  mcrRatio */\n      dup6\n        /* \"contracts/capital/Pool.sol\":10909:10935  mcrRatio ** TOKEN_EXPONENT */\n      tag_92\n      swap2\n      swap1\n      tag_91\n      jump\t// in\n    tag_92:\n        /* \"contracts/capital/Pool.sol\":10899:10905  mcrEth */\n      dup8\n        /* \"contracts/capital/Pool.sol\":10899:10936  mcrEth * (mcrRatio ** TOKEN_EXPONENT) */\n      tag_93\n      swap2\n      swap1\n      tag_89\n      jump\t// in\n    tag_93:\n        /* \"contracts/capital/Pool.sol\":10899:10949  mcrEth * (mcrRatio ** TOKEN_EXPONENT) / CONSTANT_C */\n      tag_94\n      swap2\n      swap1\n      tag_95\n      jump\t// in\n    tag_94:\n        /* \"contracts/capital/Pool.sol\":10899:10969  mcrEth * (mcrRatio ** TOKEN_EXPONENT) / CONSTANT_C / precisionDecimals */\n      tag_96\n      swap2\n      swap1\n      tag_95\n      jump\t// in\n    tag_96:\n        /* \"contracts/capital/Pool.sol\":10899:10982  mcrEth * (mcrRatio ** TOKEN_EXPONENT) / CONSTANT_C / precisionDecimals + CONSTANT_A */\n      tag_97\n      swap2\n      swap1\n      tag_98\n      jump\t// in\n    tag_97:\n        /* \"contracts/capital/Pool.sol\":10892:10982  return mcrEth * (mcrRatio ** TOKEN_EXPONENT) / CONSTANT_C / precisionDecimals + CONSTANT_A */\n      swap3\n      pop\n      pop\n      pop\n        /* \"contracts/capital/Pool.sol\":10605:10989  function calculateTokenSpotPrice(... */\n      swap3\n      swap2\n      pop\n      pop\n      jump\t// out\n        /* \"contracts/capital/Pool.sol\":1905:2725  function buyHEDH(uint minTokensOut) public override payable  {... */\n    tag_32:\n        /* \"contracts/capital/Pool.sol\":1976:1986  uint ethIn */\n      0x00\n        /* \"contracts/capital/Pool.sol\":1989:1998  msg.value */\n      callvalue\n        /* \"contracts/capital/Pool.sol\":1976:1998  uint ethIn = msg.value */\n      swap1\n      pop\n        /* \"contracts/capital/Pool.sol\":2024:2025  0 */\n      0x00\n        /* \"contracts/capital/Pool.sol\":2016:2021  ethIn */\n      dup2\n        /* \"contracts/capital/Pool.sol\":2016:2025  ethIn > 0 */\n      gt\n        /* \"contracts/capital/Pool.sol\":2008:2045  require(ethIn > 0, \"Pool: ethIn > 0\") */\n      tag_100\n      jumpi\n      mload(0x40)\n      0x08c379a000000000000000000000000000000000000000000000000000000000\n      dup2\n      mstore\n      0x04\n      add\n      tag_101\n      swap1\n      tag_102\n      jump\t// in\n    tag_101:\n      mload(0x40)\n      dup1\n      swap2\n      sub\n      swap1\n      revert\n    tag_100:\n        /* \"contracts/capital/Pool.sol\":2056:2076  uint totalAssetValue */\n      0x00\n        /* \"contracts/capital/Pool.sol\":2103:2108  ethIn */\n      dup2\n        /* \"contracts/capital/Pool.sol\":2079:2100  address(this).balance */\n      selfbalance\n        /* \"contracts/capital/Pool.sol\":2079:2108  address(this).balance - ethIn */\n      tag_103\n      swap2\n      swap1\n      tag_104\n      jump\t// in\n    tag_103:\n        /* \"contracts/capital/Pool.sol\":2056:2108  uint totalAssetValue = address(this).balance - ethIn */\n      swap1\n      pop\n        /* \"contracts/capital/Pool.sol\":2118:2127  IMCR _mcr */\n      0x00\n        /* \"contracts/capital/Pool.sol\":2130:2135  mcr() */\n      tag_105\n        /* \"contracts/capital/Pool.sol\":2130:2133  mcr */\n      tag_106\n        /* \"contracts/capital/Pool.sol\":2130:2135  mcr() */\n      jump\t// in\n    tag_105:\n        /* \"contracts/capital/Pool.sol\":2118:2135  IMCR _mcr = mcr() */\n      swap1\n      pop\n        /* \"contracts/capital/Pool.sol\":2145:2156  uint mcrEth */\n      0x00\n        /* \"contracts/capital/Pool.sol\":2159:2163  _mcr */\n      dup2\n        /* \"contracts/capital/Pool.sol\":2159:2170  _mcr.getMCR */\n      0xffffffffffffffffffffffffffffffffffffffff\n      and\n      0x44936b10\n        /* \"contracts/capital/Pool.sol\":2159:2172  _mcr.getMCR() */\n      mload(0x40)\n      dup2\n      0xffffffff\n      and\n      0xe0\n      shl\n      dup2\n      mstore\n      0x04\n      add\n      0x20\n      mload(0x40)\n      dup1\n      dup4\n      sub\n      dup2\n      0x00\n      dup8\n      gas\n      call\n      iszero\n      dup1\n      iszero\n      tag_108\n      jumpi\n      returndatasize\n      0x00\n      dup1\n      returndatacopy\n      revert(0x00, returndatasize)\n    tag_108:\n      pop\n      pop\n      pop\n      pop\n      mload(0x40)\n      returndatasize\n      not(0x1f)\n      0x1f\n      dup3\n      add\n      and\n      dup3\n      add\n      dup1\n      0x40\n      mstore\n      pop\n      dup2\n      add\n      swap1\n      tag_109\n      swap2\n      swap1\n      tag_110\n      jump\t// in\n    tag_109:\n        /* \"contracts/capital/Pool.sol\":2145:2172  uint mcrEth = _mcr.getMCR() */\n      swap1\n      pop\n        /* \"contracts/capital/Pool.sol\":2182:2195  uint mcrRatio */\n      0x00\n        /* \"contracts/capital/Pool.sol\":2198:2240  calculateMCRRatio(totalAssetValue, mcrEth) */\n      tag_111\n        /* \"contracts/capital/Pool.sol\":2216:2231  totalAssetValue */\n      dup5\n        /* \"contracts/capital/Pool.sol\":2233:2239  mcrEth */\n      dup4\n        /* \"contracts/capital/Pool.sol\":2198:2215  calculateMCRRatio */\n      tag_55\n        /* \"contracts/capital/Pool.sol\":2198:2240  calculateMCRRatio(totalAssetValue, mcrEth) */\n      jump\t// in\n    tag_111:\n        /* \"contracts/capital/Pool.sol\":2182:2240  uint mcrRatio = calculateMCRRatio(totalAssetValue, mcrEth) */\n      swap1\n      pop\n        /* \"contracts/capital/Pool.sol\":2338:2352  uint tokensOut */\n      0x00\n        /* \"contracts/capital/Pool.sol\":2355:2406  calculateHEDHForEth(ethIn, totalAssetValue, mcrEth) */\n      tag_112\n        /* \"contracts/capital/Pool.sol\":2375:2380  ethIn */\n      dup7\n        /* \"contracts/capital/Pool.sol\":2382:2397  totalAssetValue */\n      dup7\n        /* \"contracts/capital/Pool.sol\":2399:2405  mcrEth */\n      dup6\n        /* \"contracts/capital/Pool.sol\":2355:2374  calculateHEDHForEth */\n      tag_50\n        /* \"contracts/capital/Pool.sol\":2355:2406  calculateHEDHForEth(ethIn, totalAssetValue, mcrEth) */\n      jump\t// in\n    tag_112:\n        /* \"contracts/capital/Pool.sol\":2338:2406  uint tokensOut = calculateHEDHForEth(ethIn, totalAssetValue, mcrEth) */\n      swap1\n      pop\n        /* \"contracts/capital/Pool.sol\":2437:2449  minTokensOut */\n      dup7\n        /* \"contracts/capital/Pool.sol\":2424:2433  tokensOut */\n      dup2\n        /* \"contracts/capital/Pool.sol\":2424:2449  tokensOut >= minTokensOut */\n      lt\n      iszero\n        /* \"contracts/capital/Pool.sol\":2416:2495  require(tokensOut >= minTokensOut, \"Pool: tokensOut is less than minTokensOut\") */\n      tag_113\n      jumpi\n      mload(0x40)\n      0x08c379a000000000000000000000000000000000000000000000000000000000\n      dup2\n      mstore\n      0x04\n      add\n      tag_114\n      swap1\n      tag_115\n      jump\t// in\n    tag_114:\n      mload(0x40)\n      dup1\n      swap2\n      sub\n      swap1\n      revert\n    tag_113:\n        /* \"contracts/capital/Pool.sol\":2506:2515  hedhToken */\n      0x01\n      0x00\n      swap1\n      sload\n      swap1\n      0x0100\n      exp\n      swap1\n      div\n      0xffffffffffffffffffffffffffffffffffffffff\n      and\n        /* \"contracts/capital/Pool.sol\":2506:2520  hedhToken.mint */\n      0xffffffffffffffffffffffffffffffffffffffff\n      and\n      0x40c10f19\n        /* \"contracts/capital/Pool.sol\":2521:2531  msg.sender */\n      caller\n        /* \"contracts/capital/Pool.sol\":2533:2542  tokensOut */\n      dup4\n        /* \"contracts/capital/Pool.sol\":2506:2543  hedhToken.mint(msg.sender, tokensOut) */\n      mload(0x40)\n      dup4\n      0xffffffff\n      and\n      0xe0\n      shl\n      dup2\n      mstore\n      0x04\n      add\n      tag_116\n      swap3\n      swap2\n      swap1\n      tag_117\n      jump\t// in\n    tag_116:\n      0x00\n      mload(0x40)\n      dup1\n      dup4\n      sub\n      dup2\n      0x00\n      dup8\n      dup1\n      extcodesize\n      iszero\n      dup1\n      iszero\n      tag_118\n      jumpi\n      0x00\n      dup1\n      revert\n    tag_118:\n      pop\n      gas\n      call\n      iszero\n      dup1\n      iszero\n      tag_120\n      jumpi\n      returndatasize\n      0x00\n      dup1\n      returndatacopy\n      revert(0x00, returndatasize)\n    tag_120:\n      pop\n      pop\n      pop\n      pop\n        /* \"contracts/capital/Pool.sol\":2639:2643  _mcr */\n      dup4\n        /* \"contracts/capital/Pool.sol\":2639:2661  _mcr.updateMCRInternal */\n      0xffffffffffffffffffffffffffffffffffffffff\n      and\n      0xaa5da046\n        /* \"contracts/capital/Pool.sol\":2639:2663  _mcr.updateMCRInternal() */\n      mload(0x40)\n      dup2\n      0xffffffff\n      and\n      0xe0\n      shl\n      dup2\n      mstore\n      0x04\n      add\n      0x00\n      mload(0x40)\n      dup1\n      dup4\n      sub\n      dup2\n      0x00\n      dup8\n      dup1\n      extcodesize\n      iszero\n      dup1\n      iszero\n      tag_121\n      jumpi\n      0x00\n      dup1\n      revert\n    tag_121:\n      pop\n      gas\n      call\n      iszero\n      dup1\n      iszero\n      tag_123\n      jumpi\n      returndatasize\n      0x00\n      dup1\n      returndatacopy\n      revert(0x00, returndatasize)\n    tag_123:\n      pop\n      pop\n      pop\n      pop\n        /* \"contracts/capital/Pool.sol\":2689:2699  msg.sender */\n      caller\n        /* \"contracts/capital/Pool.sol\":2678:2718  HEDHBought(msg.sender, ethIn, tokensOut) */\n      0xffffffffffffffffffffffffffffffffffffffff\n      and\n      0xc5fc954940739c9d45b12cd63fec8b2fb3887d642d3572cf741e45f30088ad93\n        /* \"contracts/capital/Pool.sol\":2701:2706  ethIn */\n      dup8\n        /* \"contracts/capital/Pool.sol\":2708:2717  tokensOut */\n      dup4\n        /* \"contracts/capital/Pool.sol\":2678:2718  HEDHBought(msg.sender, ethIn, tokensOut) */\n      mload(0x40)\n      tag_124\n      swap3\n      swap2\n      swap1\n      tag_125\n      jump\t// in\n    tag_124:\n      mload(0x40)\n      dup1\n      swap2\n      sub\n      swap1\n      log2\n        /* \"contracts/capital/Pool.sol\":1966:2725  {... */\n      pop\n      pop\n      pop\n      pop\n      pop\n      pop\n        /* \"contracts/capital/Pool.sol\":1905:2725  function buyHEDH(uint minTokensOut) public override payable  {... */\n      pop\n      jump\t// out\n        /* \"contracts/capital/Pool.sol\":322:378  uint public constant MAX_BUY_SELL_MCR_ETH_FRACTION = 500 */\n    tag_35:\n        /* \"contracts/capital/Pool.sol\":375:378  500 */\n      0x01f4\n        /* \"contracts/capital/Pool.sol\":322:378  uint public constant MAX_BUY_SELL_MCR_ETH_FRACTION = 500 */\n      dup2\n      jump\t// out\n        /* \"contracts/capital/Pool.sol\":217:260  uint public constant MCR_RATIO_DECIMALS = 4 */\n    tag_39:\n        /* \"contracts/capital/Pool.sol\":259:260  4 */\n      0x04\n        /* \"contracts/capital/Pool.sol\":217:260  uint public constant MCR_RATIO_DECIMALS = 4 */\n      dup2\n      jump\t// out\n        /* \"contracts/capital/Pool.sol\":4143:4391  function getHEDHForEth(... */\n    tag_44:\n        /* \"contracts/capital/Pool.sol\":4214:4218  uint */\n      0x00\n        /* \"contracts/capital/Pool.sol\":4230:4250  uint totalAssetValue */\n      dup1\n        /* \"contracts/capital/Pool.sol\":4253:4274  address(this).balance */\n      selfbalance\n        /* \"contracts/capital/Pool.sol\":4230:4274  uint totalAssetValue = address(this).balance */\n      swap1\n      pop\n        /* \"contracts/capital/Pool.sol\":4284:4295  uint mcrEth */\n      0x00\n        /* \"contracts/capital/Pool.sol\":4298:4303  mcr() */\n      tag_127\n        /* \"contracts/capital/Pool.sol\":4298:4301  mcr */\n      tag_106\n        /* \"contracts/capital/Pool.sol\":4298:4303  mcr() */\n      jump\t// in\n    tag_127:\n        /* \"contracts/capital/Pool.sol\":4298:4310  mcr().getMCR */\n      0xffffffffffffffffffffffffffffffffffffffff\n      and\n      0x44936b10\n        /* \"contracts/capital/Pool.sol\":4298:4312  mcr().getMCR() */\n      mload(0x40)\n      dup2\n      0xffffffff\n      and\n      0xe0\n      shl\n      dup2\n      mstore\n      0x04\n      add\n      0x20\n      mload(0x40)\n      dup1\n      dup4\n      sub\n      dup2\n      0x00\n      dup8\n      gas\n      call\n      iszero\n      dup1\n      iszero\n      tag_129\n      jumpi\n      returndatasize\n      0x00\n      dup1\n      returndatacopy\n      revert(0x00, returndatasize)\n    tag_129:\n      pop\n      pop\n      pop\n      pop\n      mload(0x40)\n      returndatasize\n      not(0x1f)\n      0x1f\n      dup3\n      add\n      and\n      dup3\n      add\n      dup1\n      0x40\n      mstore\n      pop\n      dup2\n      add\n      swap1\n      tag_130\n      swap2\n      swap1\n      tag_110\n      jump\t// in\n    tag_130:\n        /* \"contracts/capital/Pool.sol\":4284:4312  uint mcrEth = mcr().getMCR() */\n      swap1\n      pop\n        /* \"contracts/capital/Pool.sol\":4329:4384  calculateHEDHForEth(ethAmount, totalAssetValue, mcrEth) */\n      tag_131\n        /* \"contracts/capital/Pool.sol\":4349:4358  ethAmount */\n      dup5\n        /* \"contracts/capital/Pool.sol\":4360:4375  totalAssetValue */\n      dup4\n        /* \"contracts/capital/Pool.sol\":4377:4383  mcrEth */\n      dup4\n        /* \"contracts/capital/Pool.sol\":4329:4348  calculateHEDHForEth */\n      tag_50\n        /* \"contracts/capital/Pool.sol\":4329:4384  calculateHEDHForEth(ethAmount, totalAssetValue, mcrEth) */\n      jump\t// in\n    tag_131:\n        /* \"contracts/capital/Pool.sol\":4322:4384  return calculateHEDHForEth(ethAmount, totalAssetValue, mcrEth) */\n      swap3\n      pop\n      pop\n      pop\n        /* \"contracts/capital/Pool.sol\":4143:4391  function getHEDHForEth(... */\n      swap2\n      swap1\n      pop\n      jump\t// out\n        /* \"contracts/capital/Pool.sol\":4397:7797  function calculateHEDHForEth(... */\n    tag_50:\n        /* \"contracts/capital/Pool.sol\":4535:4539  uint */\n      0x00\n        /* \"contracts/capital/Pool.sol\":6145:6146  0 */\n      dup1\n        /* \"contracts/capital/Pool.sol\":6119:6141  currentTotalAssetValue */\n      dup4\n        /* \"contracts/capital/Pool.sol\":6119:6146  currentTotalAssetValue == 0 */\n      eq\n        /* \"contracts/capital/Pool.sol\":6119:6188  currentTotalAssetValue == 0 || mcrEth / currentTotalAssetValue > 1e12 */\n      dup1\n      tag_133\n      jumpi\n      pop\n        /* \"contracts/capital/Pool.sol\":6184:6188  1e12 */\n      0xe8d4a51000\n        /* \"contracts/capital/Pool.sol\":6159:6181  currentTotalAssetValue */\n      dup4\n        /* \"contracts/capital/Pool.sol\":6150:6156  mcrEth */\n      dup4\n        /* \"contracts/capital/Pool.sol\":6150:6181  mcrEth / currentTotalAssetValue */\n      tag_134\n      swap2\n      swap1\n      tag_95\n      jump\t// in\n    tag_134:\n        /* \"contracts/capital/Pool.sol\":6150:6188  mcrEth / currentTotalAssetValue > 1e12 */\n      gt\n        /* \"contracts/capital/Pool.sol\":6119:6188  currentTotalAssetValue == 0 || mcrEth / currentTotalAssetValue > 1e12 */\n    tag_133:\n        /* \"contracts/capital/Pool.sol\":6115:6671  if (currentTotalAssetValue == 0 || mcrEth / currentTotalAssetValue > 1e12) {... */\n      iszero\n      tag_135\n      jumpi\n        /* \"contracts/capital/Pool.sol\":494:505  1028 * 1e13 */\n      0x24859b044a8000\n        /* \"contracts/capital/Pool.sol\":6643:6647  1e18 */\n      0x0de0b6b3a7640000\n        /* \"contracts/capital/Pool.sol\":6631:6640  ethAmount */\n      dup6\n        /* \"contracts/capital/Pool.sol\":6631:6647  ethAmount * 1e18 */\n      tag_136\n      swap2\n      swap1\n      tag_89\n      jump\t// in\n    tag_136:\n        /* \"contracts/capital/Pool.sol\":6631:6660  ethAmount * 1e18 / CONSTANT_A */\n      tag_137\n      swap2\n      swap1\n      tag_95\n      jump\t// in\n    tag_137:\n        /* \"contracts/capital/Pool.sol\":6624:6660  return ethAmount * 1e18 / CONSTANT_A */\n      swap1\n      pop\n      jump(tag_132)\n        /* \"contracts/capital/Pool.sol\":6115:6671  if (currentTotalAssetValue == 0 || mcrEth / currentTotalAssetValue > 1e12) {... */\n    tag_135:\n        /* \"contracts/capital/Pool.sol\":6717:6728  uint point0 */\n      0x00\n        /* \"contracts/capital/Pool.sol\":6731:6787  calculateIntegralAtPoint(currentTotalAssetValue, mcrEth) */\n      tag_138\n        /* \"contracts/capital/Pool.sol\":6756:6778  currentTotalAssetValue */\n      dup5\n        /* \"contracts/capital/Pool.sol\":6780:6786  mcrEth */\n      dup5\n        /* \"contracts/capital/Pool.sol\":6731:6755  calculateIntegralAtPoint */\n      tag_139\n        /* \"contracts/capital/Pool.sol\":6731:6787  calculateIntegralAtPoint(currentTotalAssetValue, mcrEth) */\n      jump\t// in\n    tag_138:\n        /* \"contracts/capital/Pool.sol\":6717:6787  uint point0 = calculateIntegralAtPoint(currentTotalAssetValue, mcrEth) */\n      swap1\n      pop\n        /* \"contracts/capital/Pool.sol\":6833:6857  uint nextTotalAssetValue */\n      0x00\n        /* \"contracts/capital/Pool.sol\":6885:6894  ethAmount */\n      dup6\n        /* \"contracts/capital/Pool.sol\":6860:6882  currentTotalAssetValue */\n      dup6\n        /* \"contracts/capital/Pool.sol\":6860:6894  currentTotalAssetValue + ethAmount */\n      tag_140\n      swap2\n      swap1\n      tag_98\n      jump\t// in\n    tag_140:\n        /* \"contracts/capital/Pool.sol\":6833:6894  uint nextTotalAssetValue = currentTotalAssetValue + ethAmount */\n      swap1\n      pop\n        /* \"contracts/capital/Pool.sol\":6904:6915  uint point1 */\n      0x00\n        /* \"contracts/capital/Pool.sol\":6918:6971  calculateIntegralAtPoint(nextTotalAssetValue, mcrEth) */\n      tag_141\n        /* \"contracts/capital/Pool.sol\":6943:6962  nextTotalAssetValue */\n      dup3\n        /* \"contracts/capital/Pool.sol\":6964:6970  mcrEth */\n      dup7\n        /* \"contracts/capital/Pool.sol\":6918:6942  calculateIntegralAtPoint */\n      tag_139\n        /* \"contracts/capital/Pool.sol\":6918:6971  calculateIntegralAtPoint(nextTotalAssetValue, mcrEth) */\n      jump\t// in\n    tag_141:\n        /* \"contracts/capital/Pool.sol\":6904:6971  uint point1 = calculateIntegralAtPoint(nextTotalAssetValue, mcrEth) */\n      swap1\n      pop\n        /* \"contracts/capital/Pool.sol\":6981:7005  uint adjustedTokenAmount */\n      0x00\n        /* \"contracts/capital/Pool.sol\":7017:7023  point1 */\n      dup2\n        /* \"contracts/capital/Pool.sol\":7008:7014  point0 */\n      dup5\n        /* \"contracts/capital/Pool.sol\":7008:7023  point0 - point1 */\n      tag_142\n      swap2\n      swap1\n      tag_104\n      jump\t// in\n    tag_142:\n        /* \"contracts/capital/Pool.sol\":6981:7023  uint adjustedTokenAmount = point0 - point1 */\n      swap1\n      pop\n        /* \"contracts/capital/Pool.sol\":7620:7643  uint adjustedTokenPrice */\n      0x00\n        /* \"contracts/capital/Pool.sol\":7665:7684  adjustedTokenAmount */\n      dup2\n        /* \"contracts/capital/Pool.sol\":7658:7662  1e18 */\n      0x0de0b6b3a7640000\n        /* \"contracts/capital/Pool.sol\":7646:7655  ethAmount */\n      dup11\n        /* \"contracts/capital/Pool.sol\":7646:7662  ethAmount * 1e18 */\n      tag_143\n      swap2\n      swap1\n      tag_89\n      jump\t// in\n    tag_143:\n        /* \"contracts/capital/Pool.sol\":7646:7684  ethAmount * 1e18 / adjustedTokenAmount */\n      tag_144\n      swap2\n      swap1\n      tag_95\n      jump\t// in\n    tag_144:\n        /* \"contracts/capital/Pool.sol\":7620:7684  uint adjustedTokenPrice = ethAmount * 1e18 / adjustedTokenAmount */\n      swap1\n      pop\n        /* \"contracts/capital/Pool.sol\":7694:7709  uint tokenPrice */\n      0x00\n        /* \"contracts/capital/Pool.sol\":494:505  1028 * 1e13 */\n      0x24859b044a8000\n        /* \"contracts/capital/Pool.sol\":7712:7730  adjustedTokenPrice */\n      dup3\n        /* \"contracts/capital/Pool.sol\":7712:7743  adjustedTokenPrice + CONSTANT_A */\n      tag_145\n      swap2\n      swap1\n      tag_98\n      jump\t// in\n    tag_145:\n        /* \"contracts/capital/Pool.sol\":7694:7743  uint tokenPrice = adjustedTokenPrice + CONSTANT_A */\n      swap1\n      pop\n        /* \"contracts/capital/Pool.sol\":7780:7790  tokenPrice */\n      dup1\n        /* \"contracts/capital/Pool.sol\":7773:7777  1e18 */\n      0x0de0b6b3a7640000\n        /* \"contracts/capital/Pool.sol\":7761:7770  ethAmount */\n      dup12\n        /* \"contracts/capital/Pool.sol\":7761:7777  ethAmount * 1e18 */\n      tag_146\n      swap2\n      swap1\n      tag_89\n      jump\t// in\n    tag_146:\n        /* \"contracts/capital/Pool.sol\":7761:7790  ethAmount * 1e18 / tokenPrice */\n      tag_147\n      swap2\n      swap1\n      tag_95\n      jump\t// in\n    tag_147:\n        /* \"contracts/capital/Pool.sol\":7754:7790  return ethAmount * 1e18 / tokenPrice */\n      swap7\n      pop\n      pop\n      pop\n      pop\n      pop\n      pop\n      pop\n        /* \"contracts/capital/Pool.sol\":4397:7797  function calculateHEDHForEth(... */\n    tag_132:\n      swap4\n      swap3\n      pop\n      pop\n      pop\n      jump\t// out\n        /* \"contracts/capital/Pool.sol\":10309:10498  function calculateMCRRatio(... */\n    tag_55:\n        /* \"contracts/capital/Pool.sol\":10415:10419  uint */\n      0x00\n        /* \"contracts/capital/Pool.sol\":10485:10491  mcrEth */\n      dup2\n        /* \"contracts/capital/Pool.sol\":259:260  4 */\n      0x04\n        /* \"contracts/capital/Pool.sol\":10457:10459  10 */\n      0x0a\n        /* \"contracts/capital/Pool.sol\":10457:10481  10 ** MCR_RATIO_DECIMALS */\n      tag_149\n      swap2\n      swap1\n      tag_91\n      jump\t// in\n    tag_149:\n        /* \"contracts/capital/Pool.sol\":10438:10453  totalAssetValue */\n      dup5\n        /* \"contracts/capital/Pool.sol\":10438:10482  totalAssetValue * (10 ** MCR_RATIO_DECIMALS) */\n      tag_150\n      swap2\n      swap1\n      tag_89\n      jump\t// in\n    tag_150:\n        /* \"contracts/capital/Pool.sol\":10438:10491  totalAssetValue * (10 ** MCR_RATIO_DECIMALS) / mcrEth */\n      tag_151\n      swap2\n      swap1\n      tag_95\n      jump\t// in\n    tag_151:\n        /* \"contracts/capital/Pool.sol\":10431:10491  return totalAssetValue * (10 ** MCR_RATIO_DECIMALS) / mcrEth */\n      swap1\n      pop\n        /* \"contracts/capital/Pool.sol\":10309:10498  function calculateMCRRatio(... */\n      swap3\n      swap2\n      pop\n      pop\n      jump\t// out\n        /* \"contracts/capital/Pool.sol\":266:308  uint public constant MAX_MCR_RATIO = 40000 */\n    tag_59:\n        /* \"contracts/capital/Pool.sol\":303:308  40000 */\n      0x9c40\n        /* \"contracts/capital/Pool.sol\":266:308  uint public constant MAX_MCR_RATIO = 40000 */\n      dup2\n      jump\t// out\n        /* \"contracts/capital/Pool.sol\":2950:3872  function sellHEDH(... */\n    tag_64:\n        /* \"contracts/capital/Pool.sol\":3094:3105  tokenAmount */\n      dup2\n        /* \"contracts/capital/Pool.sol\":3059:3068  hedhToken */\n      0x01\n      0x00\n      swap1\n      sload\n      swap1\n      0x0100\n      exp\n      swap1\n      div\n      0xffffffffffffffffffffffffffffffffffffffff\n      and\n        /* \"contracts/capital/Pool.sol\":3059:3078  hedhToken.balanceOf */\n      0xffffffffffffffffffffffffffffffffffffffff\n      and\n      0x70a08231\n        /* \"contracts/capital/Pool.sol\":3079:3089  msg.sender */\n      caller\n        /* \"contracts/capital/Pool.sol\":3059:3090  hedhToken.balanceOf(msg.sender) */\n      mload(0x40)\n      dup3\n      0xffffffff\n      and\n      0xe0\n      shl\n      dup2\n      mstore\n      0x04\n      add\n      tag_153\n      swap2\n      swap1\n      tag_154\n      jump\t// in\n    tag_153:\n      0x20\n      mload(0x40)\n      dup1\n      dup4\n      sub\n      dup2\n      dup7\n      gas\n      staticcall\n      iszero\n      dup1\n      iszero\n      tag_156\n      jumpi\n      returndatasize\n      0x00\n      dup1\n      returndatacopy\n      revert(0x00, returndatasize)\n    tag_156:\n      pop\n      pop\n      pop\n      pop\n      mload(0x40)\n      returndatasize\n      not(0x1f)\n      0x1f\n      dup3\n      add\n      and\n      dup3\n      add\n      dup1\n      0x40\n      mstore\n      pop\n      dup2\n      add\n      swap1\n      tag_157\n      swap2\n      swap1\n      tag_110\n      jump\t// in\n    tag_157:\n        /* \"contracts/capital/Pool.sol\":3059:3105  hedhToken.balanceOf(msg.sender) >= tokenAmount */\n      lt\n      iszero\n        /* \"contracts/capital/Pool.sol\":3051:3134  require(hedhToken.balanceOf(msg.sender) >= tokenAmount, \"Pool: Not enough balance\") */\n      tag_158\n      jumpi\n      mload(0x40)\n      0x08c379a000000000000000000000000000000000000000000000000000000000\n      dup2\n      mstore\n      0x04\n      add\n      tag_159\n      swap1\n      tag_160\n      jump\t// in\n    tag_159:\n      mload(0x40)\n      dup1\n      swap2\n      sub\n      swap1\n      revert\n    tag_158:\n        /* \"contracts/capital/Pool.sol\":3145:3154  IMCR _mcr */\n      0x00\n        /* \"contracts/capital/Pool.sol\":3157:3162  mcr() */\n      tag_161\n        /* \"contracts/capital/Pool.sol\":3157:3160  mcr */\n      tag_106\n        /* \"contracts/capital/Pool.sol\":3157:3162  mcr() */\n      jump\t// in\n    tag_161:\n        /* \"contracts/capital/Pool.sol\":3145:3162  IMCR _mcr = mcr() */\n      swap1\n      pop\n        /* \"contracts/capital/Pool.sol\":3172:3199  uint currentTotalAssetValue */\n      0x00\n        /* \"contracts/capital/Pool.sol\":3202:3223  address(this).balance */\n      selfbalance\n        /* \"contracts/capital/Pool.sol\":3172:3223  uint currentTotalAssetValue = address(this).balance */\n      swap1\n      pop\n        /* \"contracts/capital/Pool.sol\":3234:3245  uint mcrEth */\n      0x00\n        /* \"contracts/capital/Pool.sol\":3248:3252  _mcr */\n      dup3\n        /* \"contracts/capital/Pool.sol\":3248:3259  _mcr.getMCR */\n      0xffffffffffffffffffffffffffffffffffffffff\n      and\n      0x44936b10\n        /* \"contracts/capital/Pool.sol\":3248:3261  _mcr.getMCR() */\n      mload(0x40)\n      dup2\n      0xffffffff\n      and\n      0xe0\n      shl\n      dup2\n      mstore\n      0x04\n      add\n      0x20\n      mload(0x40)\n      dup1\n      dup4\n      sub\n      dup2\n      0x00\n      dup8\n      gas\n      call\n      iszero\n      dup1\n      iszero\n      tag_163\n      jumpi\n      returndatasize\n      0x00\n      dup1\n      returndatacopy\n      revert(0x00, returndatasize)\n    tag_163:\n      pop\n      pop\n      pop\n      pop\n      mload(0x40)\n      returndatasize\n      not(0x1f)\n      0x1f\n      dup3\n      add\n      and\n      dup3\n      add\n      dup1\n      0x40\n      mstore\n      pop\n      dup2\n      add\n      swap1\n      tag_164\n      swap2\n      swap1\n      tag_110\n      jump\t// in\n    tag_164:\n        /* \"contracts/capital/Pool.sol\":3234:3261  uint mcrEth = _mcr.getMCR() */\n      swap1\n      pop\n        /* \"contracts/capital/Pool.sol\":3271:3282  uint ethOut */\n      0x00\n        /* \"contracts/capital/Pool.sol\":3285:3349  calculateEthForHEDH(tokenAmount, currentTotalAssetValue, mcrEth) */\n      tag_165\n        /* \"contracts/capital/Pool.sol\":3305:3316  tokenAmount */\n      dup7\n        /* \"contracts/capital/Pool.sol\":3318:3340  currentTotalAssetValue */\n      dup5\n        /* \"contracts/capital/Pool.sol\":3342:3348  mcrEth */\n      dup5\n        /* \"contracts/capital/Pool.sol\":3285:3304  calculateEthForHEDH */\n      tag_84\n        /* \"contracts/capital/Pool.sol\":3285:3349  calculateEthForHEDH(tokenAmount, currentTotalAssetValue, mcrEth) */\n      jump\t// in\n    tag_165:\n        /* \"contracts/capital/Pool.sol\":3271:3349  uint ethOut = calculateEthForHEDH(tokenAmount, currentTotalAssetValue, mcrEth) */\n      swap1\n      pop\n        /* \"contracts/capital/Pool.sol\":3402:3408  mcrEth */\n      dup2\n        /* \"contracts/capital/Pool.sol\":3392:3398  ethOut */\n      dup2\n        /* \"contracts/capital/Pool.sol\":3367:3389  currentTotalAssetValue */\n      dup5\n        /* \"contracts/capital/Pool.sol\":3367:3398  currentTotalAssetValue - ethOut */\n      tag_166\n      swap2\n      swap1\n      tag_104\n      jump\t// in\n    tag_166:\n        /* \"contracts/capital/Pool.sol\":3367:3408  currentTotalAssetValue - ethOut >= mcrEth */\n      lt\n      iszero\n        /* \"contracts/capital/Pool.sol\":3359:3446  require(currentTotalAssetValue - ethOut >= mcrEth, \"Pool: MCR% cannot fall below 100%\") */\n      tag_167\n      jumpi\n      mload(0x40)\n      0x08c379a000000000000000000000000000000000000000000000000000000000\n      dup2\n      mstore\n      0x04\n      add\n      tag_168\n      swap1\n      tag_169\n      jump\t// in\n    tag_168:\n      mload(0x40)\n      dup1\n      swap2\n      sub\n      swap1\n      revert\n    tag_167:\n        /* \"contracts/capital/Pool.sol\":3474:3483  minEthOut */\n      dup5\n        /* \"contracts/capital/Pool.sol\":3464:3470  ethOut */\n      dup2\n        /* \"contracts/capital/Pool.sol\":3464:3483  ethOut >= minEthOut */\n      lt\n      iszero\n        /* \"contracts/capital/Pool.sol\":3456:3512  require(ethOut >= minEthOut, \"Pool: ethOut < minEthOut\") */\n      tag_170\n      jumpi\n      mload(0x40)\n      0x08c379a000000000000000000000000000000000000000000000000000000000\n      dup2\n      mstore\n      0x04\n      add\n      tag_171\n      swap1\n      tag_172\n      jump\t// in\n    tag_171:\n      mload(0x40)\n      dup1\n      swap2\n      sub\n      swap1\n      revert\n    tag_170:\n        /* \"contracts/capital/Pool.sol\":3523:3532  hedhToken */\n      0x01\n      0x00\n      swap1\n      sload\n      swap1\n      0x0100\n      exp\n      swap1\n      div\n      0xffffffffffffffffffffffffffffffffffffffff\n      and\n        /* \"contracts/capital/Pool.sol\":3523:3541  hedhToken.burnFrom */\n      0xffffffffffffffffffffffffffffffffffffffff\n      and\n      0x79cc6790\n        /* \"contracts/capital/Pool.sol\":3542:3552  msg.sender */\n      caller\n        /* \"contracts/capital/Pool.sol\":3554:3565  tokenAmount */\n      dup9\n        /* \"contracts/capital/Pool.sol\":3523:3566  hedhToken.burnFrom(msg.sender, tokenAmount) */\n      mload(0x40)\n      dup4\n      0xffffffff\n      and\n      0xe0\n      shl\n      dup2\n      mstore\n      0x04\n      add\n      tag_173\n      swap3\n      swap2\n      swap1\n      tag_117\n      jump\t// in\n    tag_173:\n      0x20\n      mload(0x40)\n      dup1\n      dup4\n      sub\n      dup2\n      0x00\n      dup8\n      gas\n      call\n      iszero\n      dup1\n      iszero\n      tag_175\n      jumpi\n      returndatasize\n      0x00\n      dup1\n      returndatacopy\n      revert(0x00, returndatasize)\n    tag_175:\n      pop\n      pop\n      pop\n      pop\n      mload(0x40)\n      returndatasize\n      not(0x1f)\n      0x1f\n      dup3\n      add\n      and\n      dup3\n      add\n      dup1\n      0x40\n      mstore\n      pop\n      dup2\n      add\n      swap1\n      tag_176\n      swap2\n      swap1\n      tag_177\n      jump\t// in\n    tag_176:\n      pop\n        /* \"contracts/capital/Pool.sol\":3577:3584  bool ok */\n      0x00\n        /* \"contracts/capital/Pool.sol\":3601:3611  msg.sender */\n      caller\n        /* \"contracts/capital/Pool.sol\":3600:3617  (msg.sender).call */\n      0xffffffffffffffffffffffffffffffffffffffff\n      and\n        /* \"contracts/capital/Pool.sol\":3625:3631  ethOut */\n      dup3\n        /* \"contracts/capital/Pool.sol\":3600:3636  (msg.sender).call{value: ethOut}(\"\") */\n      mload(0x40)\n      tag_178\n      swap1\n      tag_179\n      jump\t// in\n    tag_178:\n      0x00\n      mload(0x40)\n      dup1\n      dup4\n      sub\n      dup2\n      dup6\n      dup8\n      gas\n      call\n      swap3\n      pop\n      pop\n      pop\n      returndatasize\n      dup1\n      0x00\n      dup2\n      eq\n      tag_182\n      jumpi\n      mload(0x40)\n      swap2\n      pop\n      and(add(returndatasize, 0x3f), not(0x1f))\n      dup3\n      add\n      0x40\n      mstore\n      returndatasize\n      dup3\n      mstore\n      returndatasize\n      0x00\n      0x20\n      dup5\n      add\n      returndatacopy\n      jump(tag_181)\n    tag_182:\n      0x60\n      swap2\n      pop\n    tag_181:\n      pop\n        /* \"contracts/capital/Pool.sol\":3576:3636  (bool ok, /* data */) = (msg.sender).call{value: ethOut}(\"\") */\n      pop\n      swap1\n      pop\n        /* \"contracts/capital/Pool.sol\":3654:3656  ok */\n      dup1\n        /* \"contracts/capital/Pool.sol\":3646:3687  require(ok, \"Pool: Sell transfer failed\") */\n      tag_183\n      jumpi\n      mload(0x40)\n      0x08c379a000000000000000000000000000000000000000000000000000000000\n      dup2\n      mstore\n      0x04\n      add\n      tag_184\n      swap1\n      tag_185\n      jump\t// in\n    tag_184:\n      mload(0x40)\n      dup1\n      swap2\n      sub\n      swap1\n      revert\n    tag_183:\n        /* \"contracts/capital/Pool.sol\":3785:3789  _mcr */\n      dup5\n        /* \"contracts/capital/Pool.sol\":3785:3807  _mcr.updateMCRInternal */\n      0xffffffffffffffffffffffffffffffffffffffff\n      and\n      0xaa5da046\n        /* \"contracts/capital/Pool.sol\":3785:3809  _mcr.updateMCRInternal() */\n      mload(0x40)\n      dup2\n      0xffffffff\n      and\n      0xe0\n      shl\n      dup2\n      mstore\n      0x04\n      add\n      0x00\n      mload(0x40)\n      dup1\n      dup4\n      sub\n      dup2\n      0x00\n      dup8\n      dup1\n      extcodesize\n      iszero\n      dup1\n      iszero\n      tag_186\n      jumpi\n      0x00\n      dup1\n      revert\n    tag_186:\n      pop\n      gas\n      call\n      iszero\n      dup1\n      iszero\n      tag_188\n      jumpi\n      returndatasize\n      0x00\n      dup1\n      returndatacopy\n      revert(0x00, returndatasize)\n    tag_188:\n      pop\n      pop\n      pop\n      pop\n        /* \"contracts/capital/Pool.sol\":3833:3843  msg.sender */\n      caller\n        /* \"contracts/capital/Pool.sol\":3824:3865  HEDHSold(msg.sender, tokenAmount, ethOut) */\n      0xffffffffffffffffffffffffffffffffffffffff\n      and\n      0x1d1ddca8aa909e7f7fc055611b4269f6c858ad1e95735416f86f08c2d49e7473\n        /* \"contracts/capital/Pool.sol\":3845:3856  tokenAmount */\n      dup9\n        /* \"contracts/capital/Pool.sol\":3858:3864  ethOut */\n      dup5\n        /* \"contracts/capital/Pool.sol\":3824:3865  HEDHSold(msg.sender, tokenAmount, ethOut) */\n      mload(0x40)\n      tag_189\n      swap3\n      swap2\n      swap1\n      tag_125\n      jump\t// in\n    tag_189:\n      mload(0x40)\n      dup1\n      swap2\n      sub\n      swap1\n      log2\n        /* \"contracts/capital/Pool.sol\":3041:3872  {... */\n      pop\n      pop\n      pop\n      pop\n      pop\n        /* \"contracts/capital/Pool.sol\":2950:3872  function sellHEDH(... */\n      pop\n      pop\n      jump\t// out\n        /* \"contracts/capital/Pool.sol\":1093:1482  function sendPayout(... */\n    tag_69:\n        /* \"contracts/capital/Pool.sol\":1199:1221  bool transferSucceeded */\n      0x00\n        /* \"contracts/capital/Pool.sol\":1237:1250  payoutAddress */\n      dup3\n        /* \"contracts/capital/Pool.sol\":1237:1255  payoutAddress.call */\n      0xffffffffffffffffffffffffffffffffffffffff\n      and\n        /* \"contracts/capital/Pool.sol\":1264:1270  amount */\n      dup3\n        /* \"contracts/capital/Pool.sol\":1237:1275  payoutAddress.call{value : amount}(\"\") */\n      mload(0x40)\n      tag_191\n      swap1\n      tag_179\n      jump\t// in\n    tag_191:\n      0x00\n      mload(0x40)\n      dup1\n      dup4\n      sub\n      dup2\n      dup6\n      dup8\n      gas\n      call\n      swap3\n      pop\n      pop\n      pop\n      returndatasize\n      dup1\n      0x00\n      dup2\n      eq\n      tag_194\n      jumpi\n      mload(0x40)\n      swap2\n      pop\n      and(add(returndatasize, 0x3f), not(0x1f))\n      dup3\n      add\n      0x40\n      mstore\n      returndatasize\n      dup3\n      mstore\n      returndatasize\n      0x00\n      0x20\n      dup5\n      add\n      returndatacopy\n      jump(tag_193)\n    tag_194:\n      0x60\n      swap2\n      pop\n    tag_193:\n      pop\n        /* \"contracts/capital/Pool.sol\":1198:1275  (bool transferSucceeded, /* data */) = payoutAddress.call{value : amount}(\"\") */\n      pop\n      swap1\n      pop\n        /* \"contracts/capital/Pool.sol\":1293:1310  transferSucceeded */\n      dup1\n        /* \"contracts/capital/Pool.sol\":1285:1340  require(transferSucceeded, \"Pool: ETH transfer failed\") */\n      tag_195\n      jumpi\n      mload(0x40)\n      0x08c379a000000000000000000000000000000000000000000000000000000000\n      dup2\n      mstore\n      0x04\n      add\n      tag_196\n      swap1\n      tag_197\n      jump\t// in\n    tag_196:\n      mload(0x40)\n      dup1\n      swap2\n      sub\n      swap1\n      revert\n    tag_195:\n        /* \"contracts/capital/Pool.sol\":1362:1375  payoutAddress */\n      dup3\n        /* \"contracts/capital/Pool.sol\":1355:1383  Payout(payoutAddress,amount) */\n      0xffffffffffffffffffffffffffffffffffffffff\n      and\n      0x5afeca38b2064c23a692c4cf353015d80ab3ecc417b4f893f372690c11fbd9a6\n        /* \"contracts/capital/Pool.sol\":1376:1382  amount */\n      dup4\n        /* \"contracts/capital/Pool.sol\":1355:1383  Payout(payoutAddress,amount) */\n      mload(0x40)\n      tag_198\n      swap2\n      swap1\n      tag_28\n      jump\t// in\n    tag_198:\n      mload(0x40)\n      dup1\n      swap2\n      sub\n      swap1\n      log2\n        /* \"contracts/capital/Pool.sol\":1393:1413  uint totalAssetValue */\n      0x00\n        /* \"contracts/capital/Pool.sol\":1416:1437  address(this).balance */\n      selfbalance\n        /* \"contracts/capital/Pool.sol\":1393:1437  uint totalAssetValue = address(this).balance */\n      swap1\n      pop\n        /* \"contracts/capital/Pool.sol\":1449:1454  mcr() */\n      tag_199\n        /* \"contracts/capital/Pool.sol\":1449:1452  mcr */\n      tag_106\n        /* \"contracts/capital/Pool.sol\":1449:1454  mcr() */\n      jump\t// in\n    tag_199:\n        /* \"contracts/capital/Pool.sol\":1449:1472  mcr().updateMCRInternal */\n      0xffffffffffffffffffffffffffffffffffffffff\n      and\n      0xaa5da046\n        /* \"contracts/capital/Pool.sol\":1449:1474  mcr().updateMCRInternal() */\n      mload(0x40)\n      dup2\n      0xffffffff\n      and\n      0xe0\n      shl\n      dup2\n      mstore\n      0x04\n      add\n      0x00\n      mload(0x40)\n      dup1\n      dup4\n      sub\n      dup2\n      0x00\n      dup8\n      dup1\n      extcodesize\n      iszero\n      dup1\n      iszero\n      tag_200\n      jumpi\n      0x00\n      dup1\n      revert\n    tag_200:\n      pop\n      gas\n      call\n      iszero\n      dup1\n      iszero\n      tag_202\n      jumpi\n      returndatasize\n      0x00\n      dup1\n      returndatacopy\n      revert(0x00, returndatasize)\n    tag_202:\n      pop\n      pop\n      pop\n      pop\n        /* \"contracts/capital/Pool.sol\":1188:1482  {... */\n      pop\n      pop\n        /* \"contracts/capital/Pool.sol\":1093:1482  function sendPayout(... */\n      pop\n      pop\n      jump\t// out\n        /* \"contracts/capital/Pool.sol\":1586:1725  function sellHEDHTokens(... */\n    tag_73:\n        /* \"contracts/capital/Pool.sol\":1654:1666  bool success */\n      0x00\n        /* \"contracts/capital/Pool.sol\":1678:1697  sellHEDH(amount, 0) */\n      tag_204\n        /* \"contracts/capital/Pool.sol\":1687:1693  amount */\n      dup3\n        /* \"contracts/capital/Pool.sol\":1695:1696  0 */\n      0x00\n        /* \"contracts/capital/Pool.sol\":1678:1686  sellHEDH */\n      tag_64\n        /* \"contracts/capital/Pool.sol\":1678:1697  sellHEDH(amount, 0) */\n      jump\t// in\n    tag_204:\n        /* \"contracts/capital/Pool.sol\":1714:1718  true */\n      0x01\n        /* \"contracts/capital/Pool.sol\":1707:1718  return true */\n      swap1\n      pop\n        /* \"contracts/capital/Pool.sol\":1586:1725  function sellHEDHTokens(... */\n      swap2\n      swap1\n      pop\n      jump\t// out\n        /* \"contracts/capital/Pool.sol\":8455:8714  function getEthForHEDH(uint hedhAmount) public  returns (uint ethAmount) {... */\n    tag_79:\n        /* \"contracts/capital/Pool.sol\":8512:8526  uint ethAmount */\n      0x00\n        /* \"contracts/capital/Pool.sol\":8538:8565  uint currentTotalAssetValue */\n      dup1\n        /* \"contracts/capital/Pool.sol\":8568:8589  address(this).balance */\n      selfbalance\n        /* \"contracts/capital/Pool.sol\":8538:8589  uint currentTotalAssetValue = address(this).balance */\n      swap1\n      pop\n        /* \"contracts/capital/Pool.sol\":8599:8610  uint mcrEth */\n      0x00\n        /* \"contracts/capital/Pool.sol\":8613:8618  mcr() */\n      tag_206\n        /* \"contracts/capital/Pool.sol\":8613:8616  mcr */\n      tag_106\n        /* \"contracts/capital/Pool.sol\":8613:8618  mcr() */\n      jump\t// in\n    tag_206:\n        /* \"contracts/capital/Pool.sol\":8613:8625  mcr().getMCR */\n      0xffffffffffffffffffffffffffffffffffffffff\n      and\n      0x44936b10\n        /* \"contracts/capital/Pool.sol\":8613:8627  mcr().getMCR() */\n      mload(0x40)\n      dup2\n      0xffffffff\n      and\n      0xe0\n      shl\n      dup2\n      mstore\n      0x04\n      add\n      0x20\n      mload(0x40)\n      dup1\n      dup4\n      sub\n      dup2\n      0x00\n      dup8\n      gas\n      call\n      iszero\n      dup1\n      iszero\n      tag_208\n      jumpi\n      returndatasize\n      0x00\n      dup1\n      returndatacopy\n      revert(0x00, returndatasize)\n    tag_208:\n      pop\n      pop\n      pop\n      pop\n      mload(0x40)\n      returndatasize\n      not(0x1f)\n      0x1f\n      dup3\n      add\n      and\n      dup3\n      add\n      dup1\n      0x40\n      mstore\n      pop\n      dup2\n      add\n      swap1\n      tag_209\n      swap2\n      swap1\n      tag_110\n      jump\t// in\n    tag_209:\n        /* \"contracts/capital/Pool.sol\":8599:8627  uint mcrEth = mcr().getMCR() */\n      swap1\n      pop\n        /* \"contracts/capital/Pool.sol\":8644:8707  calculateEthForHEDH(hedhAmount, currentTotalAssetValue, mcrEth) */\n      tag_210\n        /* \"contracts/capital/Pool.sol\":8664:8674  hedhAmount */\n      dup5\n        /* \"contracts/capital/Pool.sol\":8676:8698  currentTotalAssetValue */\n      dup4\n        /* \"contracts/capital/Pool.sol\":8700:8706  mcrEth */\n      dup4\n        /* \"contracts/capital/Pool.sol\":8644:8663  calculateEthForHEDH */\n      tag_84\n        /* \"contracts/capital/Pool.sol\":8644:8707  calculateEthForHEDH(hedhAmount, currentTotalAssetValue, mcrEth) */\n      jump\t// in\n    tag_210:\n        /* \"contracts/capital/Pool.sol\":8637:8707  return calculateEthForHEDH(hedhAmount, currentTotalAssetValue, mcrEth) */\n      swap3\n      pop\n      pop\n      pop\n        /* \"contracts/capital/Pool.sol\":8455:8714  function getEthForHEDH(uint hedhAmount) public  returns (uint ethAmount) {... */\n      swap2\n      swap1\n      pop\n      jump\t// out\n        /* \"contracts/capital/Pool.sol\":9073:10303  function calculateEthForHEDH(... */\n    tag_84:\n        /* \"contracts/capital/Pool.sol\":9212:9216  uint */\n      0x00\n        /* \"contracts/capital/Pool.sol\":9338:9353  uint spotPrice0 */\n      dup1\n        /* \"contracts/capital/Pool.sol\":9356:9411  calculateTokenSpotPrice(currentTotalAssetValue, mcrEth) */\n      tag_212\n        /* \"contracts/capital/Pool.sol\":9380:9402  currentTotalAssetValue */\n      dup5\n        /* \"contracts/capital/Pool.sol\":9404:9410  mcrEth */\n      dup5\n        /* \"contracts/capital/Pool.sol\":9356:9379  calculateTokenSpotPrice */\n      tag_26\n        /* \"contracts/capital/Pool.sol\":9356:9411  calculateTokenSpotPrice(currentTotalAssetValue, mcrEth) */\n      jump\t// in\n    tag_212:\n        /* \"contracts/capital/Pool.sol\":9338:9411  uint spotPrice0 = calculateTokenSpotPrice(currentTotalAssetValue, mcrEth) */\n      swap1\n      pop\n        /* \"contracts/capital/Pool.sol\":9421:9439  uint spotEthAmount */\n      0x00\n        /* \"contracts/capital/Pool.sol\":9467:9471  1e18 */\n      0x0de0b6b3a7640000\n        /* \"contracts/capital/Pool.sol\":9454:9464  spotPrice0 */\n      dup3\n        /* \"contracts/capital/Pool.sol\":9442:9451  nxmAmount */\n      dup8\n        /* \"contracts/capital/Pool.sol\":9442:9464  nxmAmount * spotPrice0 */\n      tag_213\n      swap2\n      swap1\n      tag_89\n      jump\t// in\n    tag_213:\n        /* \"contracts/capital/Pool.sol\":9442:9471  nxmAmount * spotPrice0 / 1e18 */\n      tag_214\n      swap2\n      swap1\n      tag_95\n      jump\t// in\n    tag_214:\n        /* \"contracts/capital/Pool.sol\":9421:9471  uint spotEthAmount = nxmAmount * spotPrice0 / 1e18 */\n      swap1\n      pop\n        /* \"contracts/capital/Pool.sol\":9584:9616  uint totalValuePostSpotPriceSell */\n      0x00\n        /* \"contracts/capital/Pool.sol\":9644:9657  spotEthAmount */\n      dup2\n        /* \"contracts/capital/Pool.sol\":9619:9641  currentTotalAssetValue */\n      dup7\n        /* \"contracts/capital/Pool.sol\":9619:9657  currentTotalAssetValue - spotEthAmount */\n      tag_215\n      swap2\n      swap1\n      tag_104\n      jump\t// in\n    tag_215:\n        /* \"contracts/capital/Pool.sol\":9584:9657  uint totalValuePostSpotPriceSell = currentTotalAssetValue - spotEthAmount */\n      swap1\n      pop\n        /* \"contracts/capital/Pool.sol\":9667:9682  uint spotPrice1 */\n      0x00\n        /* \"contracts/capital/Pool.sol\":9685:9745  calculateTokenSpotPrice(totalValuePostSpotPriceSell, mcrEth) */\n      tag_216\n        /* \"contracts/capital/Pool.sol\":9709:9736  totalValuePostSpotPriceSell */\n      dup3\n        /* \"contracts/capital/Pool.sol\":9738:9744  mcrEth */\n      dup8\n        /* \"contracts/capital/Pool.sol\":9685:9708  calculateTokenSpotPrice */\n      tag_26\n        /* \"contracts/capital/Pool.sol\":9685:9745  calculateTokenSpotPrice(totalValuePostSpotPriceSell, mcrEth) */\n      jump\t// in\n    tag_216:\n        /* \"contracts/capital/Pool.sol\":9667:9745  uint spotPrice1 = calculateTokenSpotPrice(totalValuePostSpotPriceSell, mcrEth) */\n      swap1\n      pop\n        /* \"contracts/capital/Pool.sol\":9871:9898  uint averagePriceWithSpread */\n      0x00\n        /* \"contracts/capital/Pool.sol\":9939:9943  1000 */\n      0x03e8\n        /* \"contracts/capital/Pool.sol\":9933:9936  975 */\n      0x03cf\n        /* \"contracts/capital/Pool.sol\":9929:9930  2 */\n      0x02\n        /* \"contracts/capital/Pool.sol\":9915:9925  spotPrice1 */\n      dup5\n        /* \"contracts/capital/Pool.sol\":9902:9912  spotPrice0 */\n      dup9\n        /* \"contracts/capital/Pool.sol\":9902:9925  spotPrice0 + spotPrice1 */\n      tag_217\n      swap2\n      swap1\n      tag_98\n      jump\t// in\n    tag_217:\n        /* \"contracts/capital/Pool.sol\":9901:9930  (spotPrice0 + spotPrice1) / 2 */\n      tag_218\n      swap2\n      swap1\n      tag_95\n      jump\t// in\n    tag_218:\n        /* \"contracts/capital/Pool.sol\":9901:9936  (spotPrice0 + spotPrice1) / 2 * 975 */\n      tag_219\n      swap2\n      swap1\n      tag_89\n      jump\t// in\n    tag_219:\n        /* \"contracts/capital/Pool.sol\":9901:9943  (spotPrice0 + spotPrice1) / 2 * 975 / 1000 */\n      tag_220\n      swap2\n      swap1\n      tag_95\n      jump\t// in\n    tag_220:\n        /* \"contracts/capital/Pool.sol\":9871:9943  uint averagePriceWithSpread = (spotPrice0 + spotPrice1) / 2 * 975 / 1000 */\n      swap1\n      pop\n        /* \"contracts/capital/Pool.sol\":9953:9968  uint finalPrice */\n      0x00\n        /* \"contracts/capital/Pool.sol\":9971:10015  Math.min(averagePriceWithSpread, spotPrice1) */\n      tag_221\n        /* \"contracts/capital/Pool.sol\":9980:10002  averagePriceWithSpread */\n      dup3\n        /* \"contracts/capital/Pool.sol\":10004:10014  spotPrice1 */\n      dup5\n        /* \"contracts/capital/Pool.sol\":9971:9979  Math.min */\n      tag_222\n        /* \"contracts/capital/Pool.sol\":9971:10015  Math.min(averagePriceWithSpread, spotPrice1) */\n      jump\t// in\n    tag_221:\n        /* \"contracts/capital/Pool.sol\":9953:10015  uint finalPrice = Math.min(averagePriceWithSpread, spotPrice1) */\n      swap1\n      pop\n        /* \"contracts/capital/Pool.sol\":10025:10039  uint ethAmount */\n      0x00\n        /* \"contracts/capital/Pool.sol\":10067:10071  1e18 */\n      0x0de0b6b3a7640000\n        /* \"contracts/capital/Pool.sol\":10055:10064  nxmAmount */\n      dup12\n        /* \"contracts/capital/Pool.sol\":10042:10052  finalPrice */\n      dup4\n        /* \"contracts/capital/Pool.sol\":10042:10064  finalPrice * nxmAmount */\n      tag_223\n      swap2\n      swap1\n      tag_89\n      jump\t// in\n    tag_223:\n        /* \"contracts/capital/Pool.sol\":10042:10071  finalPrice * nxmAmount / 1e18 */\n      tag_224\n      swap2\n      swap1\n      tag_95\n      jump\t// in\n    tag_224:\n        /* \"contracts/capital/Pool.sol\":10025:10071  uint ethAmount = finalPrice * nxmAmount / 1e18 */\n      swap1\n      pop\n        /* \"contracts/capital/Pool.sol\":10287:10296  ethAmount */\n      dup1\n        /* \"contracts/capital/Pool.sol\":10280:10296  return ethAmount */\n      swap8\n      pop\n      pop\n      pop\n      pop\n      pop\n      pop\n      pop\n      pop\n        /* \"contracts/capital/Pool.sol\":9073:10303  function calculateEthForHEDH(... */\n      swap4\n      swap3\n      pop\n      pop\n      pop\n      jump\t// out\n        /* \"contracts/capital/Pool.sol\":1487:1580  function mcr() internal view returns (IMCR) {... */\n    tag_106:\n        /* \"contracts/capital/Pool.sol\":1525:1529  IMCR */\n      0x00\n        /* \"contracts/capital/Pool.sol\":1553:1559  master */\n      0x02\n      0x00\n      swap1\n      sload\n      swap1\n      0x0100\n      exp\n      swap1\n      div\n      0xffffffffffffffffffffffffffffffffffffffff\n      and\n        /* \"contracts/capital/Pool.sol\":1553:1570  master.MCRAddress */\n      0xffffffffffffffffffffffffffffffffffffffff\n      and\n      0x88ea0751\n        /* \"contracts/capital/Pool.sol\":1553:1572  master.MCRAddress() */\n      mload(0x40)\n      dup2\n      0xffffffff\n      and\n      0xe0\n      shl\n      dup2\n      mstore\n      0x04\n      add\n      0x20\n      mload(0x40)\n      dup1\n      dup4\n      sub\n      dup2\n      dup7\n      gas\n      staticcall\n      iszero\n      dup1\n      iszero\n      tag_227\n      jumpi\n      returndatasize\n      0x00\n      dup1\n      returndatacopy\n      revert(0x00, returndatasize)\n    tag_227:\n      pop\n      pop\n      pop\n      pop\n      mload(0x40)\n      returndatasize\n      not(0x1f)\n      0x1f\n      dup3\n      add\n      and\n      dup3\n      add\n      dup1\n      0x40\n      mstore\n      pop\n      dup2\n      add\n      swap1\n      tag_228\n      swap2\n      swap1\n      tag_229\n      jump\t// in\n    tag_228:\n        /* \"contracts/capital/Pool.sol\":1541:1573  return IMCR(master.MCRAddress()) */\n      swap1\n      pop\n        /* \"contracts/capital/Pool.sol\":1487:1580  function mcr() internal view returns (IMCR) {... */\n      swap1\n      jump\t// out\n        /* \"contracts/capital/Pool.sol\":8223:8449  function calculateIntegralAtPoint(... */\n    tag_139:\n        /* \"contracts/capital/Pool.sol\":8332:8336  uint */\n      0x00\n        /* \"contracts/capital/Pool.sol\":8432:8442  assetValue */\n      dup3\n        /* \"contracts/capital/Pool.sol\":8423:8429  mcrEth */\n      dup3\n        /* \"contracts/capital/Pool.sol\":8410:8420  assetValue */\n      dup5\n        /* \"contracts/capital/Pool.sol\":8401:8407  mcrEth */\n      dup5\n        /* \"contracts/capital/Pool.sol\":8388:8398  assetValue */\n      dup7\n        /* \"contracts/capital/Pool.sol\":8379:8385  mcrEth */\n      dup7\n        /* \"contracts/capital/Pool.sol\":8375:8376  3 */\n      0x03\n        /* \"contracts/capital/Pool.sol\":8368:8372  1e18 */\n      0x0de0b6b3a7640000\n        /* \"contracts/capital/Pool.sol\":445:452  5800000 */\n      0x588040\n        /* \"contracts/capital/Pool.sol\":8355:8372  CONSTANT_C * 1e18 */\n      tag_231\n      swap2\n      swap1\n      tag_89\n      jump\t// in\n    tag_231:\n        /* \"contracts/capital/Pool.sol\":8355:8376  CONSTANT_C * 1e18 / 3 */\n      tag_232\n      swap2\n      swap1\n      tag_95\n      jump\t// in\n    tag_232:\n        /* \"contracts/capital/Pool.sol\":8355:8385  CONSTANT_C * 1e18 / 3 * mcrEth */\n      tag_233\n      swap2\n      swap1\n      tag_89\n      jump\t// in\n    tag_233:\n        /* \"contracts/capital/Pool.sol\":8355:8398  CONSTANT_C * 1e18 / 3 * mcrEth / assetValue */\n      tag_234\n      swap2\n      swap1\n      tag_95\n      jump\t// in\n    tag_234:\n        /* \"contracts/capital/Pool.sol\":8355:8407  CONSTANT_C * 1e18 / 3 * mcrEth / assetValue * mcrEth */\n      tag_235\n      swap2\n      swap1\n      tag_89\n      jump\t// in\n    tag_235:\n        /* \"contracts/capital/Pool.sol\":8355:8420  CONSTANT_C * 1e18 / 3 * mcrEth / assetValue * mcrEth / assetValue */\n      tag_236\n      swap2\n      swap1\n      tag_95\n      jump\t// in\n    tag_236:\n        /* \"contracts/capital/Pool.sol\":8355:8429  CONSTANT_C * 1e18 / 3 * mcrEth / assetValue * mcrEth / assetValue * mcrEth */\n      tag_237\n      swap2\n      swap1\n      tag_89\n      jump\t// in\n    tag_237:\n        /* \"contracts/capital/Pool.sol\":8355:8442  CONSTANT_C * 1e18 / 3 * mcrEth / assetValue * mcrEth / assetValue * mcrEth / assetValue */\n      tag_238\n      swap2\n      swap1\n      tag_95\n      jump\t// in\n    tag_238:\n        /* \"contracts/capital/Pool.sol\":8348:8442  return CONSTANT_C * 1e18 / 3 * mcrEth / assetValue * mcrEth / assetValue * mcrEth / assetValue */\n      swap1\n      pop\n        /* \"contracts/capital/Pool.sol\":8223:8449  function calculateIntegralAtPoint(... */\n      swap3\n      swap2\n      pop\n      pop\n      jump\t// out\n        /* \"contracts/libraries/Math.sol\":169:258  function min(uint a, uint b) internal pure returns (uint) {... */\n    tag_222:\n        /* \"contracts/libraries/Math.sol\":221:225  uint */\n      0x00\n        /* \"contracts/libraries/Math.sol\":244:245  b */\n      dup2\n        /* \"contracts/libraries/Math.sol\":240:241  a */\n      dup4\n        /* \"contracts/libraries/Math.sol\":240:245  a < b */\n      lt\n        /* \"contracts/libraries/Math.sol\":240:253  a < b ? a : b */\n      tag_240\n      jumpi\n        /* \"contracts/libraries/Math.sol\":252:253  b */\n      dup2\n        /* \"contracts/libraries/Math.sol\":240:253  a < b ? a : b */\n      jump(tag_241)\n    tag_240:\n        /* \"contracts/libraries/Math.sol\":248:249  a */\n      dup3\n        /* \"contracts/libraries/Math.sol\":240:253  a < b ? a : b */\n    tag_241:\n        /* \"contracts/libraries/Math.sol\":233:253  return a < b ? a : b */\n      swap1\n      pop\n        /* \"contracts/libraries/Math.sol\":169:258  function min(uint a, uint b) internal pure returns (uint) {... */\n      swap3\n      swap2\n      pop\n      pop\n      jump\t// out\n        /* \"#utility.yul\":88:205   */\n    tag_243:\n        /* \"#utility.yul\":197:198   */\n      0x00\n        /* \"#utility.yul\":194:195   */\n      dup1\n        /* \"#utility.yul\":187:199   */\n      revert\n        /* \"#utility.yul\":334:411   */\n    tag_245:\n        /* \"#utility.yul\":371:378   */\n      0x00\n        /* \"#utility.yul\":400:405   */\n      dup2\n        /* \"#utility.yul\":389:405   */\n      swap1\n      pop\n        /* \"#utility.yul\":334:411   */\n      swap2\n      swap1\n      pop\n      jump\t// out\n        /* \"#utility.yul\":417:539   */\n    tag_246:\n        /* \"#utility.yul\":490:514   */\n      tag_291\n        /* \"#utility.yul\":508:513   */\n      dup2\n        /* \"#utility.yul\":490:514   */\n      tag_245\n      jump\t// in\n    tag_291:\n        /* \"#utility.yul\":483:488   */\n      dup2\n        /* \"#utility.yul\":480:515   */\n      eq\n        /* \"#utility.yul\":470:533   */\n      tag_292\n      jumpi\n        /* \"#utility.yul\":529:530   */\n      0x00\n        /* \"#utility.yul\":526:527   */\n      dup1\n        /* \"#utility.yul\":519:531   */\n      revert\n        /* \"#utility.yul\":470:533   */\n    tag_292:\n        /* \"#utility.yul\":417:539   */\n      pop\n      jump\t// out\n        /* \"#utility.yul\":545:684   */\n    tag_247:\n        /* \"#utility.yul\":591:596   */\n      0x00\n        /* \"#utility.yul\":629:635   */\n      dup2\n        /* \"#utility.yul\":616:636   */\n      calldataload\n        /* \"#utility.yul\":607:636   */\n      swap1\n      pop\n        /* \"#utility.yul\":645:678   */\n      tag_294\n        /* \"#utility.yul\":672:677   */\n      dup2\n        /* \"#utility.yul\":645:678   */\n      tag_246\n      jump\t// in\n    tag_294:\n        /* \"#utility.yul\":545:684   */\n      swap3\n      swap2\n      pop\n      pop\n      jump\t// out\n        /* \"#utility.yul\":690:1164   */\n    tag_25:\n        /* \"#utility.yul\":758:764   */\n      0x00\n        /* \"#utility.yul\":766:772   */\n      dup1\n        /* \"#utility.yul\":815:817   */\n      0x40\n        /* \"#utility.yul\":803:812   */\n      dup4\n        /* \"#utility.yul\":794:801   */\n      dup6\n        /* \"#utility.yul\":790:813   */\n      sub\n        /* \"#utility.yul\":786:818   */\n      slt\n        /* \"#utility.yul\":783:902   */\n      iszero\n      tag_296\n      jumpi\n        /* \"#utility.yul\":821:900   */\n      tag_297\n      tag_243\n      jump\t// in\n    tag_297:\n        /* \"#utility.yul\":783:902   */\n    tag_296:\n        /* \"#utility.yul\":941:942   */\n      0x00\n        /* \"#utility.yul\":966:1019   */\n      tag_298\n        /* \"#utility.yul\":1011:1018   */\n      dup6\n        /* \"#utility.yul\":1002:1008   */\n      dup3\n        /* \"#utility.yul\":991:1000   */\n      dup7\n        /* \"#utility.yul\":987:1009   */\n      add\n        /* \"#utility.yul\":966:1019   */\n      tag_247\n      jump\t// in\n    tag_298:\n        /* \"#utility.yul\":956:1019   */\n      swap3\n      pop\n        /* \"#utility.yul\":912:1029   */\n      pop\n        /* \"#utility.yul\":1068:1070   */\n      0x20\n        /* \"#utility.yul\":1094:1147   */\n      tag_299\n        /* \"#utility.yul\":1139:1146   */\n      dup6\n        /* \"#utility.yul\":1130:1136   */\n      dup3\n        /* \"#utility.yul\":1119:1128   */\n      dup7\n        /* \"#utility.yul\":1115:1137   */\n      add\n        /* \"#utility.yul\":1094:1147   */\n      tag_247\n      jump\t// in\n    tag_299:\n        /* \"#utility.yul\":1084:1147   */\n      swap2\n      pop\n        /* \"#utility.yul\":1039:1157   */\n      pop\n        /* \"#utility.yul\":690:1164   */\n      swap3\n      pop\n      swap3\n      swap1\n      pop\n      jump\t// out\n        /* \"#utility.yul\":1170:1288   */\n    tag_248:\n        /* \"#utility.yul\":1257:1281   */\n      tag_301\n        /* \"#utility.yul\":1275:1280   */\n      dup2\n        /* \"#utility.yul\":1257:1281   */\n      tag_245\n      jump\t// in\n    tag_301:\n        /* \"#utility.yul\":1252:1255   */\n      dup3\n        /* \"#utility.yul\":1245:1282   */\n      mstore\n        /* \"#utility.yul\":1170:1288   */\n      pop\n      pop\n      jump\t// out\n        /* \"#utility.yul\":1294:1516   */\n    tag_28:\n        /* \"#utility.yul\":1387:1391   */\n      0x00\n        /* \"#utility.yul\":1425:1427   */\n      0x20\n        /* \"#utility.yul\":1414:1423   */\n      dup3\n        /* \"#utility.yul\":1410:1428   */\n      add\n        /* \"#utility.yul\":1402:1428   */\n      swap1\n      pop\n        /* \"#utility.yul\":1438:1509   */\n      tag_303\n        /* \"#utility.yul\":1506:1507   */\n      0x00\n        /* \"#utility.yul\":1495:1504   */\n      dup4\n        /* \"#utility.yul\":1491:1508   */\n      add\n        /* \"#utility.yul\":1482:1488   */\n      dup5\n        /* \"#utility.yul\":1438:1509   */\n      tag_248\n      jump\t// in\n    tag_303:\n        /* \"#utility.yul\":1294:1516   */\n      swap3\n      swap2\n      pop\n      pop\n      jump\t// out\n        /* \"#utility.yul\":1522:1851   */\n    tag_31:\n        /* \"#utility.yul\":1581:1587   */\n      0x00\n        /* \"#utility.yul\":1630:1632   */\n      0x20\n        /* \"#utility.yul\":1618:1627   */\n      dup3\n        /* \"#utility.yul\":1609:1616   */\n      dup5\n        /* \"#utility.yul\":1605:1628   */\n      sub\n        /* \"#utility.yul\":1601:1633   */\n      slt\n        /* \"#utility.yul\":1598:1717   */\n      iszero\n      tag_305\n      jumpi\n        /* \"#utility.yul\":1636:1715   */\n      tag_306\n      tag_243\n      jump\t// in\n    tag_306:\n        /* \"#utility.yul\":1598:1717   */\n    tag_305:\n        /* \"#utility.yul\":1756:1757   */\n      0x00\n        /* \"#utility.yul\":1781:1834   */\n      tag_307\n        /* \"#utility.yul\":1826:1833   */\n      dup5\n        /* \"#utility.yul\":1817:1823   */\n      dup3\n        /* \"#utility.yul\":1806:1815   */\n      dup6\n        /* \"#utility.yul\":1802:1824   */\n      add\n        /* \"#utility.yul\":1781:1834   */\n      tag_247\n      jump\t// in\n    tag_307:\n        /* \"#utility.yul\":1771:1834   */\n      swap2\n      pop\n        /* \"#utility.yul\":1727:1844   */\n      pop\n        /* \"#utility.yul\":1522:1851   */\n      swap3\n      swap2\n      pop\n      pop\n      jump\t// out\n        /* \"#utility.yul\":1857:2476   */\n    tag_49:\n        /* \"#utility.yul\":1934:1940   */\n      0x00\n        /* \"#utility.yul\":1942:1948   */\n      dup1\n        /* \"#utility.yul\":1950:1956   */\n      0x00\n        /* \"#utility.yul\":1999:2001   */\n      0x60\n        /* \"#utility.yul\":1987:1996   */\n      dup5\n        /* \"#utility.yul\":1978:1985   */\n      dup7\n        /* \"#utility.yul\":1974:1997   */\n      sub\n        /* \"#utility.yul\":1970:2002   */\n      slt\n        /* \"#utility.yul\":1967:2086   */\n      iszero\n      tag_309\n      jumpi\n        /* \"#utility.yul\":2005:2084   */\n      tag_310\n      tag_243\n      jump\t// in\n    tag_310:\n        /* \"#utility.yul\":1967:2086   */\n    tag_309:\n        /* \"#utility.yul\":2125:2126   */\n      0x00\n        /* \"#utility.yul\":2150:2203   */\n      tag_311\n        /* \"#utility.yul\":2195:2202   */\n      dup7\n        /* \"#utility.yul\":2186:2192   */\n      dup3\n        /* \"#utility.yul\":2175:2184   */\n      dup8\n        /* \"#utility.yul\":2171:2193   */\n      add\n        /* \"#utility.yul\":2150:2203   */\n      tag_247\n      jump\t// in\n    tag_311:\n        /* \"#utility.yul\":2140:2203   */\n      swap4\n      pop\n        /* \"#utility.yul\":2096:2213   */\n      pop\n        /* \"#utility.yul\":2252:2254   */\n      0x20\n        /* \"#utility.yul\":2278:2331   */\n      tag_312\n        /* \"#utility.yul\":2323:2330   */\n      dup7\n        /* \"#utility.yul\":2314:2320   */\n      dup3\n        /* \"#utility.yul\":2303:2312   */\n      dup8\n        /* \"#utility.yul\":2299:2321   */\n      add\n        /* \"#utility.yul\":2278:2331   */\n      tag_247\n      jump\t// in\n    tag_312:\n        /* \"#utility.yul\":2268:2331   */\n      swap3\n      pop\n        /* \"#utility.yul\":2223:2341   */\n      pop\n        /* \"#utility.yul\":2380:2382   */\n      0x40\n        /* \"#utility.yul\":2406:2459   */\n      tag_313\n        /* \"#utility.yul\":2451:2458   */\n      dup7\n        /* \"#utility.yul\":2442:2448   */\n      dup3\n        /* \"#utility.yul\":2431:2440   */\n      dup8\n        /* \"#utility.yul\":2427:2449   */\n      add\n        /* \"#utility.yul\":2406:2459   */\n      tag_247\n      jump\t// in\n    tag_313:\n        /* \"#utility.yul\":2396:2459   */\n      swap2\n      pop\n        /* \"#utility.yul\":2351:2469   */\n      pop\n        /* \"#utility.yul\":1857:2476   */\n      swap3\n      pop\n      swap3\n      pop\n      swap3\n      jump\t// out\n        /* \"#utility.yul\":2482:2608   */\n    tag_249:\n        /* \"#utility.yul\":2519:2526   */\n      0x00\n        /* \"#utility.yul\":2559:2601   */\n      0xffffffffffffffffffffffffffffffffffffffff\n        /* \"#utility.yul\":2552:2557   */\n      dup3\n        /* \"#utility.yul\":2548:2602   */\n      and\n        /* \"#utility.yul\":2537:2602   */\n      swap1\n      pop\n        /* \"#utility.yul\":2482:2608   */\n      swap2\n      swap1\n      pop\n      jump\t// out\n        /* \"#utility.yul\":2614:2718   */\n    tag_250:\n        /* \"#utility.yul\":2659:2666   */\n      0x00\n        /* \"#utility.yul\":2688:2712   */\n      tag_316\n        /* \"#utility.yul\":2706:2711   */\n      dup3\n        /* \"#utility.yul\":2688:2712   */\n      tag_249\n      jump\t// in\n    tag_316:\n        /* \"#utility.yul\":2677:2712   */\n      swap1\n      pop\n        /* \"#utility.yul\":2614:2718   */\n      swap2\n      swap1\n      pop\n      jump\t// out\n        /* \"#utility.yul\":2724:2862   */\n    tag_251:\n        /* \"#utility.yul\":2805:2837   */\n      tag_318\n        /* \"#utility.yul\":2831:2836   */\n      dup2\n        /* \"#utility.yul\":2805:2837   */\n      tag_250\n      jump\t// in\n    tag_318:\n        /* \"#utility.yul\":2798:2803   */\n      dup2\n        /* \"#utility.yul\":2795:2838   */\n      eq\n        /* \"#utility.yul\":2785:2856   */\n      tag_319\n      jumpi\n        /* \"#utility.yul\":2852:2853   */\n      0x00\n        /* \"#utility.yul\":2849:2850   */\n      dup1\n        /* \"#utility.yul\":2842:2854   */\n      revert\n        /* \"#utility.yul\":2785:2856   */\n    tag_319:\n        /* \"#utility.yul\":2724:2862   */\n      pop\n      jump\t// out\n        /* \"#utility.yul\":2868:3023   */\n    tag_252:\n        /* \"#utility.yul\":2922:2927   */\n      0x00\n        /* \"#utility.yul\":2960:2966   */\n      dup2\n        /* \"#utility.yul\":2947:2967   */\n      calldataload\n        /* \"#utility.yul\":2938:2967   */\n      swap1\n      pop\n        /* \"#utility.yul\":2976:3017   */\n      tag_321\n        /* \"#utility.yul\":3011:3016   */\n      dup2\n        /* \"#utility.yul\":2976:3017   */\n      tag_251\n      jump\t// in\n    tag_321:\n        /* \"#utility.yul\":2868:3023   */\n      swap3\n      swap2\n      pop\n      pop\n      jump\t// out\n        /* \"#utility.yul\":3029:3519   */\n    tag_68:\n        /* \"#utility.yul\":3105:3111   */\n      0x00\n        /* \"#utility.yul\":3113:3119   */\n      dup1\n        /* \"#utility.yul\":3162:3164   */\n      0x40\n        /* \"#utility.yul\":3150:3159   */\n      dup4\n        /* \"#utility.yul\":3141:3148   */\n      dup6\n        /* \"#utility.yul\":3137:3160   */\n      sub\n        /* \"#utility.yul\":3133:3165   */\n      slt\n        /* \"#utility.yul\":3130:3249   */\n      iszero\n      tag_323\n      jumpi\n        /* \"#utility.yul\":3168:3247   */\n      tag_324\n      tag_243\n      jump\t// in\n    tag_324:\n        /* \"#utility.yul\":3130:3249   */\n    tag_323:\n        /* \"#utility.yul\":3288:3289   */\n      0x00\n        /* \"#utility.yul\":3313:3374   */\n      tag_325\n        /* \"#utility.yul\":3366:3373   */\n      dup6\n        /* \"#utility.yul\":3357:3363   */\n      dup3\n        /* \"#utility.yul\":3346:3355   */\n      dup7\n        /* \"#utility.yul\":3342:3364   */\n      add\n        /* \"#utility.yul\":3313:3374   */\n      tag_252\n      jump\t// in\n    tag_325:\n        /* \"#utility.yul\":3303:3374   */\n      swap3\n      pop\n        /* \"#utility.yul\":3259:3384   */\n      pop\n        /* \"#utility.yul\":3423:3425   */\n      0x20\n        /* \"#utility.yul\":3449:3502   */\n      tag_326\n        /* \"#utility.yul\":3494:3501   */\n      dup6\n        /* \"#utility.yul\":3485:3491   */\n      dup3\n        /* \"#utility.yul\":3474:3483   */\n      dup7\n        /* \"#utility.yul\":3470:3492   */\n      add\n        /* \"#utility.yul\":3449:3502   */\n      tag_247\n      jump\t// in\n    tag_326:\n        /* \"#utility.yul\":3439:3502   */\n      swap2\n      pop\n        /* \"#utility.yul\":3394:3512   */\n      pop\n        /* \"#utility.yul\":3029:3519   */\n      swap3\n      pop\n      swap3\n      swap1\n      pop\n      jump\t// out\n        /* \"#utility.yul\":3525:3615   */\n    tag_253:\n        /* \"#utility.yul\":3559:3566   */\n      0x00\n        /* \"#utility.yul\":3602:3607   */\n      dup2\n        /* \"#utility.yul\":3595:3608   */\n      iszero\n        /* \"#utility.yul\":3588:3609   */\n      iszero\n        /* \"#utility.yul\":3577:3609   */\n      swap1\n      pop\n        /* \"#utility.yul\":3525:3615   */\n      swap2\n      swap1\n      pop\n      jump\t// out\n        /* \"#utility.yul\":3621:3730   */\n    tag_254:\n        /* \"#utility.yul\":3702:3723   */\n      tag_329\n        /* \"#utility.yul\":3717:3722   */\n      dup2\n        /* \"#utility.yul\":3702:3723   */\n      tag_253\n      jump\t// in\n    tag_329:\n        /* \"#utility.yul\":3697:3700   */\n      dup3\n        /* \"#utility.yul\":3690:3724   */\n      mstore\n        /* \"#utility.yul\":3621:3730   */\n      pop\n      pop\n      jump\t// out\n        /* \"#utility.yul\":3736:3946   */\n    tag_75:\n        /* \"#utility.yul\":3823:3827   */\n      0x00\n        /* \"#utility.yul\":3861:3863   */\n      0x20\n        /* \"#utility.yul\":3850:3859   */\n      dup3\n        /* \"#utility.yul\":3846:3864   */\n      add\n        /* \"#utility.yul\":3838:3864   */\n      swap1\n      pop\n        /* \"#utility.yul\":3874:3939   */\n      tag_331\n        /* \"#utility.yul\":3936:3937   */\n      0x00\n        /* \"#utility.yul\":3925:3934   */\n      dup4\n        /* \"#utility.yul\":3921:3938   */\n      add\n        /* \"#utility.yul\":3912:3918   */\n      dup5\n        /* \"#utility.yul\":3874:3939   */\n      tag_254\n      jump\t// in\n    tag_331:\n        /* \"#utility.yul\":3736:3946   */\n      swap3\n      swap2\n      pop\n      pop\n      jump\t// out\n        /* \"#utility.yul\":3952:4132   */\n    tag_255:\n        /* \"#utility.yul\":4000:4077   */\n      0x4e487b7100000000000000000000000000000000000000000000000000000000\n        /* \"#utility.yul\":3997:3998   */\n      0x00\n        /* \"#utility.yul\":3990:4078   */\n      mstore\n        /* \"#utility.yul\":4097:4101   */\n      0x11\n        /* \"#utility.yul\":4094:4095   */\n      0x04\n        /* \"#utility.yul\":4087:4102   */\n      mstore\n        /* \"#utility.yul\":4121:4125   */\n      0x24\n        /* \"#utility.yul\":4118:4119   */\n      0x00\n        /* \"#utility.yul\":4111:4126   */\n      revert\n        /* \"#utility.yul\":4138:4548   */\n    tag_89:\n        /* \"#utility.yul\":4178:4185   */\n      0x00\n        /* \"#utility.yul\":4201:4221   */\n      tag_334\n        /* \"#utility.yul\":4219:4220   */\n      dup3\n        /* \"#utility.yul\":4201:4221   */\n      tag_245\n      jump\t// in\n    tag_334:\n        /* \"#utility.yul\":4196:4221   */\n      swap2\n      pop\n        /* \"#utility.yul\":4235:4255   */\n      tag_335\n        /* \"#utility.yul\":4253:4254   */\n      dup4\n        /* \"#utility.yul\":4235:4255   */\n      tag_245\n      jump\t// in\n    tag_335:\n        /* \"#utility.yul\":4230:4255   */\n      swap3\n      pop\n        /* \"#utility.yul\":4290:4291   */\n      dup3\n        /* \"#utility.yul\":4287:4288   */\n      dup3\n        /* \"#utility.yul\":4283:4292   */\n      mul\n        /* \"#utility.yul\":4312:4342   */\n      tag_336\n        /* \"#utility.yul\":4330:4341   */\n      dup2\n        /* \"#utility.yul\":4312:4342   */\n      tag_245\n      jump\t// in\n    tag_336:\n        /* \"#utility.yul\":4301:4342   */\n      swap2\n      pop\n        /* \"#utility.yul\":4491:4492   */\n      dup3\n        /* \"#utility.yul\":4482:4489   */\n      dup3\n        /* \"#utility.yul\":4478:4493   */\n      div\n        /* \"#utility.yul\":4475:4476   */\n      dup5\n        /* \"#utility.yul\":4472:4494   */\n      eq\n        /* \"#utility.yul\":4452:4453   */\n      dup4\n        /* \"#utility.yul\":4445:4454   */\n      iszero\n        /* \"#utility.yul\":4425:4508   */\n      or\n        /* \"#utility.yul\":4402:4541   */\n      tag_337\n      jumpi\n        /* \"#utility.yul\":4521:4539   */\n      tag_338\n      tag_255\n      jump\t// in\n    tag_338:\n        /* \"#utility.yul\":4402:4541   */\n    tag_337:\n        /* \"#utility.yul\":4186:4548   */\n      pop\n        /* \"#utility.yul\":4138:4548   */\n      swap3\n      swap2\n      pop\n      pop\n      jump\t// out\n        /* \"#utility.yul\":4554:4656   */\n    tag_256:\n        /* \"#utility.yul\":4596:4604   */\n      0x00\n        /* \"#utility.yul\":4643:4648   */\n      dup2\n        /* \"#utility.yul\":4640:4641   */\n      0x01\n        /* \"#utility.yul\":4636:4649   */\n      shr\n        /* \"#utility.yul\":4615:4649   */\n      swap1\n      pop\n        /* \"#utility.yul\":4554:4656   */\n      swap2\n      swap1\n      pop\n      jump\t// out\n        /* \"#utility.yul\":4662:5510   */\n    tag_257:\n        /* \"#utility.yul\":4723:4728   */\n      0x00\n        /* \"#utility.yul\":4730:4734   */\n      dup1\n        /* \"#utility.yul\":4754:4760   */\n      dup3\n        /* \"#utility.yul\":4745:4760   */\n      swap2\n      pop\n        /* \"#utility.yul\":4778:4783   */\n      dup4\n        /* \"#utility.yul\":4769:4783   */\n      swap1\n      pop\n        /* \"#utility.yul\":4792:5504   */\n    tag_341:\n        /* \"#utility.yul\":4813:4814   */\n      0x01\n        /* \"#utility.yul\":4803:4811   */\n      dup6\n        /* \"#utility.yul\":4800:4815   */\n      gt\n        /* \"#utility.yul\":4792:5504   */\n      iszero\n      tag_343\n      jumpi\n        /* \"#utility.yul\":4908:4912   */\n      dup1\n        /* \"#utility.yul\":4903:4906   */\n      dup7\n        /* \"#utility.yul\":4899:4913   */\n      div\n        /* \"#utility.yul\":4893:4897   */\n      dup2\n        /* \"#utility.yul\":4890:4914   */\n      gt\n        /* \"#utility.yul\":4887:4937   */\n      iszero\n      tag_344\n      jumpi\n        /* \"#utility.yul\":4917:4935   */\n      tag_345\n      tag_255\n      jump\t// in\n    tag_345:\n        /* \"#utility.yul\":4887:4937   */\n    tag_344:\n        /* \"#utility.yul\":4967:4968   */\n      0x01\n        /* \"#utility.yul\":4957:4965   */\n      dup6\n        /* \"#utility.yul\":4953:4969   */\n      and\n        /* \"#utility.yul\":4950:5401   */\n      iszero\n      tag_346\n      jumpi\n        /* \"#utility.yul\":5382:5386   */\n      dup1\n        /* \"#utility.yul\":5375:5380   */\n      dup3\n        /* \"#utility.yul\":5371:5387   */\n      mul\n        /* \"#utility.yul\":5362:5387   */\n      swap2\n      pop\n        /* \"#utility.yul\":4950:5401   */\n    tag_346:\n        /* \"#utility.yul\":5432:5436   */\n      dup1\n        /* \"#utility.yul\":5426:5430   */\n      dup2\n        /* \"#utility.yul\":5422:5437   */\n      mul\n        /* \"#utility.yul\":5414:5437   */\n      swap1\n      pop\n        /* \"#utility.yul\":5462:5494   */\n      tag_347\n        /* \"#utility.yul\":5485:5493   */\n      dup6\n        /* \"#utility.yul\":5462:5494   */\n      tag_256\n      jump\t// in\n    tag_347:\n        /* \"#utility.yul\":5450:5494   */\n      swap5\n      pop\n        /* \"#utility.yul\":4792:5504   */\n      jump(tag_341)\n    tag_343:\n        /* \"#utility.yul\":4662:5510   */\n      swap5\n      pop\n      swap5\n      swap3\n      pop\n      pop\n      pop\n      jump\t// out\n        /* \"#utility.yul\":5516:6589   */\n    tag_258:\n        /* \"#utility.yul\":5570:5575   */\n      0x00\n        /* \"#utility.yul\":5761:5769   */\n      dup3\n        /* \"#utility.yul\":5751:5791   */\n      tag_349\n      jumpi\n        /* \"#utility.yul\":5782:5783   */\n      0x01\n        /* \"#utility.yul\":5773:5783   */\n      swap1\n      pop\n        /* \"#utility.yul\":5784:5789   */\n      jump(tag_348)\n        /* \"#utility.yul\":5751:5791   */\n    tag_349:\n        /* \"#utility.yul\":5810:5814   */\n      dup2\n        /* \"#utility.yul\":5800:5836   */\n      tag_350\n      jumpi\n        /* \"#utility.yul\":5827:5828   */\n      0x00\n        /* \"#utility.yul\":5818:5828   */\n      swap1\n      pop\n        /* \"#utility.yul\":5829:5834   */\n      jump(tag_348)\n        /* \"#utility.yul\":5800:5836   */\n    tag_350:\n        /* \"#utility.yul\":5896:5900   */\n      dup2\n        /* \"#utility.yul\":5944:5945   */\n      0x01\n        /* \"#utility.yul\":5939:5966   */\n      dup2\n      eq\n      tag_352\n      jumpi\n        /* \"#utility.yul\":5980:5981   */\n      0x02\n        /* \"#utility.yul\":5975:6166   */\n      dup2\n      eq\n      tag_353\n      jumpi\n        /* \"#utility.yul\":5889:6166   */\n      jump(tag_351)\n        /* \"#utility.yul\":5939:5966   */\n    tag_352:\n        /* \"#utility.yul\":5957:5958   */\n      0x01\n        /* \"#utility.yul\":5948:5958   */\n      swap2\n      pop\n        /* \"#utility.yul\":5959:5964   */\n      pop\n      jump(tag_348)\n        /* \"#utility.yul\":5975:6166   */\n    tag_353:\n        /* \"#utility.yul\":6020:6023   */\n      0xff\n        /* \"#utility.yul\":6010:6018   */\n      dup5\n        /* \"#utility.yul\":6007:6024   */\n      gt\n        /* \"#utility.yul\":6004:6047   */\n      iszero\n      tag_354\n      jumpi\n        /* \"#utility.yul\":6027:6045   */\n      tag_355\n      tag_255\n      jump\t// in\n    tag_355:\n        /* \"#utility.yul\":6004:6047   */\n    tag_354:\n        /* \"#utility.yul\":6076:6084   */\n      dup4\n        /* \"#utility.yul\":6073:6074   */\n      0x02\n        /* \"#utility.yul\":6069:6085   */\n      exp\n        /* \"#utility.yul\":6060:6085   */\n      swap2\n      pop\n        /* \"#utility.yul\":6111:6114   */\n      dup5\n        /* \"#utility.yul\":6104:6109   */\n      dup3\n        /* \"#utility.yul\":6101:6115   */\n      gt\n        /* \"#utility.yul\":6098:6138   */\n      iszero\n      tag_356\n      jumpi\n        /* \"#utility.yul\":6118:6136   */\n      tag_357\n      tag_255\n      jump\t// in\n    tag_357:\n        /* \"#utility.yul\":6098:6138   */\n    tag_356:\n        /* \"#utility.yul\":6151:6156   */\n      pop\n      jump(tag_348)\n        /* \"#utility.yul\":5889:6166   */\n    tag_351:\n      pop\n        /* \"#utility.yul\":6275:6277   */\n      0x20\n        /* \"#utility.yul\":6265:6273   */\n      dup4\n        /* \"#utility.yul\":6262:6278   */\n      lt\n        /* \"#utility.yul\":6256:6259   */\n      0x0133\n        /* \"#utility.yul\":6250:6254   */\n      dup4\n        /* \"#utility.yul\":6247:6260   */\n      lt\n        /* \"#utility.yul\":6243:6279   */\n      and\n        /* \"#utility.yul\":6225:6227   */\n      0x4e\n        /* \"#utility.yul\":6215:6223   */\n      dup5\n        /* \"#utility.yul\":6212:6228   */\n      lt\n        /* \"#utility.yul\":6207:6209   */\n      0x0b\n        /* \"#utility.yul\":6201:6205   */\n      dup5\n        /* \"#utility.yul\":6198:6210   */\n      lt\n        /* \"#utility.yul\":6194:6229   */\n      and\n        /* \"#utility.yul\":6178:6289   */\n      or\n        /* \"#utility.yul\":6175:6421   */\n      iszero\n      tag_358\n      jumpi\n        /* \"#utility.yul\":6331:6339   */\n      dup3\n        /* \"#utility.yul\":6325:6329   */\n      dup3\n        /* \"#utility.yul\":6321:6340   */\n      exp\n        /* \"#utility.yul\":6312:6340   */\n      swap1\n      pop\n        /* \"#utility.yul\":6366:6369   */\n      dup4\n        /* \"#utility.yul\":6359:6364   */\n      dup2\n        /* \"#utility.yul\":6356:6370   */\n      gt\n        /* \"#utility.yul\":6353:6393   */\n      iszero\n      tag_359\n      jumpi\n        /* \"#utility.yul\":6373:6391   */\n      tag_360\n      tag_255\n      jump\t// in\n    tag_360:\n        /* \"#utility.yul\":6353:6393   */\n    tag_359:\n        /* \"#utility.yul\":6406:6411   */\n      jump(tag_348)\n        /* \"#utility.yul\":6175:6421   */\n    tag_358:\n        /* \"#utility.yul\":6446:6488   */\n      tag_361\n        /* \"#utility.yul\":6484:6487   */\n      dup5\n        /* \"#utility.yul\":6474:6482   */\n      dup5\n        /* \"#utility.yul\":6468:6472   */\n      dup5\n        /* \"#utility.yul\":6465:6466   */\n      0x01\n        /* \"#utility.yul\":6446:6488   */\n      tag_257\n      jump\t// in\n    tag_361:\n        /* \"#utility.yul\":6431:6488   */\n      swap3\n      pop\n      swap1\n      pop\n        /* \"#utility.yul\":6520:6524   */\n      dup2\n        /* \"#utility.yul\":6515:6518   */\n      dup5\n        /* \"#utility.yul\":6511:6525   */\n      div\n        /* \"#utility.yul\":6504:6509   */\n      dup2\n        /* \"#utility.yul\":6501:6526   */\n      gt\n        /* \"#utility.yul\":6498:6549   */\n      iszero\n      tag_362\n      jumpi\n        /* \"#utility.yul\":6529:6547   */\n      tag_363\n      tag_255\n      jump\t// in\n    tag_363:\n        /* \"#utility.yul\":6498:6549   */\n    tag_362:\n        /* \"#utility.yul\":6578:6582   */\n      dup2\n        /* \"#utility.yul\":6571:6576   */\n      dup2\n        /* \"#utility.yul\":6567:6583   */\n      mul\n        /* \"#utility.yul\":6558:6583   */\n      swap1\n      pop\n        /* \"#utility.yul\":5516:6589   */\n    tag_348:\n      swap4\n      swap3\n      pop\n      pop\n      pop\n      jump\t// out\n        /* \"#utility.yul\":6595:6880   */\n    tag_91:\n        /* \"#utility.yul\":6655:6660   */\n      0x00\n        /* \"#utility.yul\":6679:6702   */\n      tag_365\n        /* \"#utility.yul\":6697:6701   */\n      dup3\n        /* \"#utility.yul\":6679:6702   */\n      tag_245\n      jump\t// in\n    tag_365:\n        /* \"#utility.yul\":6671:6702   */\n      swap2\n      pop\n        /* \"#utility.yul\":6723:6750   */\n      tag_366\n        /* \"#utility.yul\":6741:6749   */\n      dup4\n        /* \"#utility.yul\":6723:6750   */\n      tag_245\n      jump\t// in\n    tag_366:\n        /* \"#utility.yul\":6711:6750   */\n      swap3\n      pop\n        /* \"#utility.yul\":6769:6873   */\n      tag_367\n        /* \"#utility.yul\":6806:6872   */\n      0xffffffffffffffffffffffffffffffffffffffffffffffffffffffffffffffff\n        /* \"#utility.yul\":6796:6804   */\n      dup5\n        /* \"#utility.yul\":6790:6794   */\n      dup5\n        /* \"#utility.yul\":6769:6873   */\n      tag_258\n      jump\t// in\n    tag_367:\n        /* \"#utility.yul\":6760:6873   */\n      swap1\n      pop\n        /* \"#utility.yul\":6595:6880   */\n      swap3\n      swap2\n      pop\n      pop\n      jump\t// out\n        /* \"#utility.yul\":6886:7066   */\n    tag_259:\n        /* \"#utility.yul\":6934:7011   */\n      0x4e487b7100000000000000000000000000000000000000000000000000000000\n        /* \"#utility.yul\":6931:6932   */\n      0x00\n        /* \"#utility.yul\":6924:7012   */\n      mstore\n        /* \"#utility.yul\":7031:7035   */\n      0x12\n        /* \"#utility.yul\":7028:7029   */\n      0x04\n        /* \"#utility.yul\":7021:7036   */\n      mstore\n        /* \"#utility.yul\":7055:7059   */\n      0x24\n        /* \"#utility.yul\":7052:7053   */\n      0x00\n        /* \"#utility.yul\":7045:7060   */\n      revert\n        /* \"#utility.yul\":7072:7257   */\n    tag_95:\n        /* \"#utility.yul\":7112:7113   */\n      0x00\n        /* \"#utility.yul\":7129:7149   */\n      tag_370\n        /* \"#utility.yul\":7147:7148   */\n      dup3\n        /* \"#utility.yul\":7129:7149   */\n      tag_245\n      jump\t// in\n    tag_370:\n        /* \"#utility.yul\":7124:7149   */\n      swap2\n      pop\n        /* \"#utility.yul\":7163:7183   */\n      tag_371\n        /* \"#utility.yul\":7181:7182   */\n      dup4\n        /* \"#utility.yul\":7163:7183   */\n      tag_245\n      jump\t// in\n    tag_371:\n        /* \"#utility.yul\":7158:7183   */\n      swap3\n      pop\n        /* \"#utility.yul\":7202:7203   */\n      dup3\n        /* \"#utility.yul\":7192:7227   */\n      tag_372\n      jumpi\n        /* \"#utility.yul\":7207:7225   */\n      tag_373\n      tag_259\n      jump\t// in\n    tag_373:\n        /* \"#utility.yul\":7192:7227   */\n    tag_372:\n        /* \"#utility.yul\":7249:7250   */\n      dup3\n        /* \"#utility.yul\":7246:7247   */\n      dup3\n        /* \"#utility.yul\":7242:7251   */\n      div\n        /* \"#utility.yul\":7237:7251   */\n      swap1\n      pop\n        /* \"#utility.yul\":7072:7257   */\n      swap3\n      swap2\n      pop\n      pop\n      jump\t// out\n        /* \"#utility.yul\":7263:7454   */\n    tag_98:\n        /* \"#utility.yul\":7303:7306   */\n      0x00\n        /* \"#utility.yul\":7322:7342   */\n      tag_375\n        /* \"#utility.yul\":7340:7341   */\n      dup3\n        /* \"#utility.yul\":7322:7342   */\n      tag_245\n      jump\t// in\n    tag_375:\n        /* \"#utility.yul\":7317:7342   */\n      swap2\n      pop\n        /* \"#utility.yul\":7356:7376   */\n      tag_376\n        /* \"#utility.yul\":7374:7375   */\n      dup4\n        /* \"#utility.yul\":7356:7376   */\n      tag_245\n      jump\t// in\n    tag_376:\n        /* \"#utility.yul\":7351:7376   */\n      swap3\n      pop\n        /* \"#utility.yul\":7399:7400   */\n      dup3\n        /* \"#utility.yul\":7396:7397   */\n      dup3\n        /* \"#utility.yul\":7392:7401   */\n      add\n        /* \"#utility.yul\":7385:7401   */\n      swap1\n      pop\n        /* \"#utility.yul\":7420:7423   */\n      dup1\n        /* \"#utility.yul\":7417:7418   */\n      dup3\n        /* \"#utility.yul\":7414:7424   */\n      gt\n        /* \"#utility.yul\":7411:7447   */\n      iszero\n      tag_377\n      jumpi\n        /* \"#utility.yul\":7427:7445   */\n      tag_378\n      tag_255\n      jump\t// in\n    tag_378:\n        /* \"#utility.yul\":7411:7447   */\n    tag_377:\n        /* \"#utility.yul\":7263:7454   */\n      swap3\n      swap2\n      pop\n      pop\n      jump\t// out\n        /* \"#utility.yul\":7460:7629   */\n    tag_260:\n        /* \"#utility.yul\":7544:7555   */\n      0x00\n        /* \"#utility.yul\":7578:7584   */\n      dup3\n        /* \"#utility.yul\":7573:7576   */\n      dup3\n        /* \"#utility.yul\":7566:7585   */\n      mstore\n        /* \"#utility.yul\":7618:7622   */\n      0x20\n        /* \"#utility.yul\":7613:7616   */\n      dup3\n        /* \"#utility.yul\":7609:7623   */\n      add\n        /* \"#utility.yul\":7594:7623   */\n      swap1\n      pop\n        /* \"#utility.yul\":7460:7629   */\n      swap3\n      swap2\n      pop\n      pop\n      jump\t// out\n        /* \"#utility.yul\":7635:7800   */\n    tag_261:\n        /* \"#utility.yul\":7775:7792   */\n      0x506f6f6c3a20657468496e203e20300000000000000000000000000000000000\n        /* \"#utility.yul\":7771:7772   */\n      0x00\n        /* \"#utility.yul\":7763:7769   */\n      dup3\n        /* \"#utility.yul\":7759:7773   */\n      add\n        /* \"#utility.yul\":7752:7793   */\n      mstore\n        /* \"#utility.yul\":7635:7800   */\n      pop\n      jump\t// out\n        /* \"#utility.yul\":7806:8172   */\n    tag_262:\n        /* \"#utility.yul\":7948:7951   */\n      0x00\n        /* \"#utility.yul\":7969:8036   */\n      tag_382\n        /* \"#utility.yul\":8033:8035   */\n      0x0f\n        /* \"#utility.yul\":8028:8031   */\n      dup4\n        /* \"#utility.yul\":7969:8036   */\n      tag_260\n      jump\t// in\n    tag_382:\n        /* \"#utility.yul\":7962:8036   */\n      swap2\n      pop\n        /* \"#utility.yul\":8045:8138   */\n      tag_383\n        /* \"#utility.yul\":8134:8137   */\n      dup3\n        /* \"#utility.yul\":8045:8138   */\n      tag_261\n      jump\t// in\n    tag_383:\n        /* \"#utility.yul\":8163:8165   */\n      0x20\n        /* \"#utility.yul\":8158:8161   */\n      dup3\n        /* \"#utility.yul\":8154:8166   */\n      add\n        /* \"#utility.yul\":8147:8166   */\n      swap1\n      pop\n        /* \"#utility.yul\":7806:8172   */\n      swap2\n      swap1\n      pop\n      jump\t// out\n        /* \"#utility.yul\":8178:8597   */\n    tag_102:\n        /* \"#utility.yul\":8344:8348   */\n      0x00\n        /* \"#utility.yul\":8382:8384   */\n      0x20\n        /* \"#utility.yul\":8371:8380   */\n      dup3\n        /* \"#utility.yul\":8367:8385   */\n      add\n        /* \"#utility.yul\":8359:8385   */\n      swap1\n      pop\n        /* \"#utility.yul\":8431:8440   */\n      dup2\n        /* \"#utility.yul\":8425:8429   */\n      dup2\n        /* \"#utility.yul\":8421:8441   */\n      sub\n        /* \"#utility.yul\":8417:8418   */\n      0x00\n        /* \"#utility.yul\":8406:8415   */\n      dup4\n        /* \"#utility.yul\":8402:8419   */\n      add\n        /* \"#utility.yul\":8395:8442   */\n      mstore\n        /* \"#utility.yul\":8459:8590   */\n      tag_385\n        /* \"#utility.yul\":8585:8589   */\n      dup2\n        /* \"#utility.yul\":8459:8590   */\n      tag_262\n      jump\t// in\n    tag_385:\n        /* \"#utility.yul\":8451:8590   */\n      swap1\n      pop\n        /* \"#utility.yul\":8178:8597   */\n      swap2\n      swap1\n      pop\n      jump\t// out\n        /* \"#utility.yul\":8603:8797   */\n    tag_104:\n        /* \"#utility.yul\":8643:8647   */\n      0x00\n        /* \"#utility.yul\":8663:8683   */\n      tag_387\n        /* \"#utility.yul\":8681:8682   */\n      dup3\n        /* \"#utility.yul\":8663:8683   */\n      tag_245\n      jump\t// in\n    tag_387:\n        /* \"#utility.yul\":8658:8683   */\n      swap2\n      pop\n        /* \"#utility.yul\":8697:8717   */\n      tag_388\n        /* \"#utility.yul\":8715:8716   */\n      dup4\n        /* \"#utility.yul\":8697:8717   */\n      tag_245\n      jump\t// in\n    tag_388:\n        /* \"#utility.yul\":8692:8717   */\n      swap3\n      pop\n        /* \"#utility.yul\":8741:8742   */\n      dup3\n        /* \"#utility.yul\":8738:8739   */\n      dup3\n        /* \"#utility.yul\":8734:8743   */\n      sub\n        /* \"#utility.yul\":8726:8743   */\n      swap1\n      pop\n        /* \"#utility.yul\":8765:8766   */\n      dup2\n        /* \"#utility.yul\":8759:8763   */\n      dup2\n        /* \"#utility.yul\":8756:8767   */\n      gt\n        /* \"#utility.yul\":8753:8790   */\n      iszero\n      tag_389\n      jumpi\n        /* \"#utility.yul\":8770:8788   */\n      tag_390\n      tag_255\n      jump\t// in\n    tag_390:\n        /* \"#utility.yul\":8753:8790   */\n    tag_389:\n        /* \"#utility.yul\":8603:8797   */\n      swap3\n      swap2\n      pop\n      pop\n      jump\t// out\n        /* \"#utility.yul\":8803:8946   */\n    tag_263:\n        /* \"#utility.yul\":8860:8865   */\n      0x00\n        /* \"#utility.yul\":8891:8897   */\n      dup2\n        /* \"#utility.yul\":8885:8898   */\n      mload\n        /* \"#utility.yul\":8876:8898   */\n      swap1\n      pop\n        /* \"#utility.yul\":8907:8940   */\n      tag_392\n        /* \"#utility.yul\":8934:8939   */\n      dup2\n        /* \"#utility.yul\":8907:8940   */\n      tag_246\n      jump\t// in\n    tag_392:\n        /* \"#utility.yul\":8803:8946   */\n      swap3\n      swap2\n      pop\n      pop\n      jump\t// out\n        /* \"#utility.yul\":8952:9303   */\n    tag_110:\n        /* \"#utility.yul\":9022:9028   */\n      0x00\n        /* \"#utility.yul\":9071:9073   */\n      0x20\n        /* \"#utility.yul\":9059:9068   */\n      dup3\n        /* \"#utility.yul\":9050:9057   */\n      dup5\n        /* \"#utility.yul\":9046:9069   */\n      sub\n        /* \"#utility.yul\":9042:9074   */\n      slt\n        /* \"#utility.yul\":9039:9158   */\n      iszero\n      tag_394\n      jumpi\n        /* \"#utility.yul\":9077:9156   */\n      tag_395\n      tag_243\n      jump\t// in\n    tag_395:\n        /* \"#utility.yul\":9039:9158   */\n    tag_394:\n        /* \"#utility.yul\":9197:9198   */\n      0x00\n        /* \"#utility.yul\":9222:9286   */\n      tag_396\n        /* \"#utility.yul\":9278:9285   */\n      dup5\n        /* \"#utility.yul\":9269:9275   */\n      dup3\n        /* \"#utility.yul\":9258:9267   */\n      dup6\n        /* \"#utility.yul\":9254:9276   */\n      add\n        /* \"#utility.yul\":9222:9286   */\n      tag_263\n      jump\t// in\n    tag_396:\n        /* \"#utility.yul\":9212:9286   */\n      swap2\n      pop\n        /* \"#utility.yul\":9168:9296   */\n      pop\n        /* \"#utility.yul\":8952:9303   */\n      swap3\n      swap2\n      pop\n      pop\n      jump\t// out\n        /* \"#utility.yul\":9309:9537   */\n    tag_264:\n        /* \"#utility.yul\":9449:9483   */\n      0x506f6f6c3a20746f6b656e734f7574206973206c657373207468616e206d696e\n        /* \"#utility.yul\":9445:9446   */\n      0x00\n        /* \"#utility.yul\":9437:9443   */\n      dup3\n        /* \"#utility.yul\":9433:9447   */\n      add\n        /* \"#utility.yul\":9426:9484   */\n      mstore\n        /* \"#utility.yul\":9518:9529   */\n      0x546f6b656e734f75740000000000000000000000000000000000000000000000\n        /* \"#utility.yul\":9513:9515   */\n      0x20\n        /* \"#utility.yul\":9505:9511   */\n      dup3\n        /* \"#utility.yul\":9501:9516   */\n      add\n        /* \"#utility.yul\":9494:9530   */\n      mstore\n        /* \"#utility.yul\":9309:9537   */\n      pop\n      jump\t// out\n        /* \"#utility.yul\":9543:9909   */\n    tag_265:\n        /* \"#utility.yul\":9685:9688   */\n      0x00\n        /* \"#utility.yul\":9706:9773   */\n      tag_399\n        /* \"#utility.yul\":9770:9772   */\n      0x29\n        /* \"#utility.yul\":9765:9768   */\n      dup4\n        /* \"#utility.yul\":9706:9773   */\n      tag_260\n      jump\t// in\n    tag_399:\n        /* \"#utility.yul\":9699:9773   */\n      swap2\n      pop\n        /* \"#utility.yul\":9782:9875   */\n      tag_400\n        /* \"#utility.yul\":9871:9874   */\n      dup3\n        /* \"#utility.yul\":9782:9875   */\n      tag_264\n      jump\t// in\n    tag_400:\n        /* \"#utility.yul\":9900:9902   */\n      0x40\n        /* \"#utility.yul\":9895:9898   */\n      dup3\n        /* \"#utility.yul\":9891:9903   */\n      add\n        /* \"#utility.yul\":9884:9903   */\n      swap1\n      pop\n        /* \"#utility.yul\":9543:9909   */\n      swap2\n      swap1\n      pop\n      jump\t// out\n        /* \"#utility.yul\":9915:10334   */\n    tag_115:\n        /* \"#utility.yul\":10081:10085   */\n      0x00\n        /* \"#utility.yul\":10119:10121   */\n      0x20\n        /* \"#utility.yul\":10108:10117   */\n      dup3\n        /* \"#utility.yul\":10104:10122   */\n      add\n        /* \"#utility.yul\":10096:10122   */\n      swap1\n      pop\n        /* \"#utility.yul\":10168:10177   */\n      dup2\n        /* \"#utility.yul\":10162:10166   */\n      dup2\n        /* \"#utility.yul\":10158:10178   */\n      sub\n        /* \"#utility.yul\":10154:10155   */\n      0x00\n        /* \"#utility.yul\":10143:10152   */\n      dup4\n        /* \"#utility.yul\":10139:10156   */\n      add\n        /* \"#utility.yul\":10132:10179   */\n      mstore\n        /* \"#utility.yul\":10196:10327   */\n      tag_402\n        /* \"#utility.yul\":10322:10326   */\n      dup2\n        /* \"#utility.yul\":10196:10327   */\n      tag_265\n      jump\t// in\n    tag_402:\n        /* \"#utility.yul\":10188:10327   */\n      swap1\n      pop\n        /* \"#utility.yul\":9915:10334   */\n      swap2\n      swap1\n      pop\n      jump\t// out\n        /* \"#utility.yul\":10340:10436   */\n    tag_266:\n        /* \"#utility.yul\":10377:10384   */\n      0x00\n        /* \"#utility.yul\":10406:10430   */\n      tag_404\n        /* \"#utility.yul\":10424:10429   */\n      dup3\n        /* \"#utility.yul\":10406:10430   */\n      tag_249\n      jump\t// in\n    tag_404:\n        /* \"#utility.yul\":10395:10430   */\n      swap1\n      pop\n        /* \"#utility.yul\":10340:10436   */\n      swap2\n      swap1\n      pop\n      jump\t// out\n        /* \"#utility.yul\":10442:10560   */\n    tag_267:\n        /* \"#utility.yul\":10529:10553   */\n      tag_406\n        /* \"#utility.yul\":10547:10552   */\n      dup2\n        /* \"#utility.yul\":10529:10553   */\n      tag_266\n      jump\t// in\n    tag_406:\n        /* \"#utility.yul\":10524:10527   */\n      dup3\n        /* \"#utility.yul\":10517:10554   */\n      mstore\n        /* \"#utility.yul\":10442:10560   */\n      pop\n      pop\n      jump\t// out\n        /* \"#utility.yul\":10566:10898   */\n    tag_117:\n        /* \"#utility.yul\":10687:10691   */\n      0x00\n        /* \"#utility.yul\":10725:10727   */\n      0x40\n        /* \"#utility.yul\":10714:10723   */\n      dup3\n        /* \"#utility.yul\":10710:10728   */\n      add\n        /* \"#utility.yul\":10702:10728   */\n      swap1\n      pop\n        /* \"#utility.yul\":10738:10809   */\n      tag_408\n        /* \"#utility.yul\":10806:10807   */\n      0x00\n        /* \"#utility.yul\":10795:10804   */\n      dup4\n        /* \"#utility.yul\":10791:10808   */\n      add\n        /* \"#utility.yul\":10782:10788   */\n      dup6\n        /* \"#utility.yul\":10738:10809   */\n      tag_267\n      jump\t// in\n    tag_408:\n        /* \"#utility.yul\":10819:10891   */\n      tag_409\n        /* \"#utility.yul\":10887:10889   */\n      0x20\n        /* \"#utility.yul\":10876:10885   */\n      dup4\n        /* \"#utility.yul\":10872:10890   */\n      add\n        /* \"#utility.yul\":10863:10869   */\n      dup5\n        /* \"#utility.yul\":10819:10891   */\n      tag_248\n      jump\t// in\n    tag_409:\n        /* \"#utility.yul\":10566:10898   */\n      swap4\n      swap3\n      pop\n      pop\n      pop\n      jump\t// out\n        /* \"#utility.yul\":10904:11236   */\n    tag_125:\n        /* \"#utility.yul\":11025:11029   */\n      0x00\n        /* \"#utility.yul\":11063:11065   */\n      0x40\n        /* \"#utility.yul\":11052:11061   */\n      dup3\n        /* \"#utility.yul\":11048:11066   */\n      add\n        /* \"#utility.yul\":11040:11066   */\n      swap1\n      pop\n        /* \"#utility.yul\":11076:11147   */\n      tag_411\n        /* \"#utility.yul\":11144:11145   */\n      0x00\n        /* \"#utility.yul\":11133:11142   */\n      dup4\n        /* \"#utility.yul\":11129:11146   */\n      add\n        /* \"#utility.yul\":11120:11126   */\n      dup6\n        /* \"#utility.yul\":11076:11147   */\n      tag_248\n      jump\t// in\n    tag_411:\n        /* \"#utility.yul\":11157:11229   */\n      tag_412\n        /* \"#utility.yul\":11225:11227   */\n      0x20\n        /* \"#utility.yul\":11214:11223   */\n      dup4\n        /* \"#utility.yul\":11210:11228   */\n      add\n        /* \"#utility.yul\":11201:11207   */\n      dup5\n        /* \"#utility.yul\":11157:11229   */\n      tag_248\n      jump\t// in\n    tag_412:\n        /* \"#utility.yul\":10904:11236   */\n      swap4\n      swap3\n      pop\n      pop\n      pop\n      jump\t// out\n        /* \"#utility.yul\":11242:11464   */\n    tag_154:\n        /* \"#utility.yul\":11335:11339   */\n      0x00\n        /* \"#utility.yul\":11373:11375   */\n      0x20\n        /* \"#utility.yul\":11362:11371   */\n      dup3\n        /* \"#utility.yul\":11358:11376   */\n      add\n        /* \"#utility.yul\":11350:11376   */\n      swap1\n      pop\n        /* \"#utility.yul\":11386:11457   */\n      tag_414\n        /* \"#utility.yul\":11454:11455   */\n      0x00\n        /* \"#utility.yul\":11443:11452   */\n      dup4\n        /* \"#utility.yul\":11439:11456   */\n      add\n        /* \"#utility.yul\":11430:11436   */\n      dup5\n        /* \"#utility.yul\":11386:11457   */\n      tag_267\n      jump\t// in\n    tag_414:\n        /* \"#utility.yul\":11242:11464   */\n      swap3\n      swap2\n      pop\n      pop\n      jump\t// out\n        /* \"#utility.yul\":11470:11644   */\n    tag_268:\n        /* \"#utility.yul\":11610:11636   */\n      0x506f6f6c3a204e6f7420656e6f7567682062616c616e63650000000000000000\n        /* \"#utility.yul\":11606:11607   */\n      0x00\n        /* \"#utility.yul\":11598:11604   */\n      dup3\n        /* \"#utility.yul\":11594:11608   */\n      add\n        /* \"#utility.yul\":11587:11637   */\n      mstore\n        /* \"#utility.yul\":11470:11644   */\n      pop\n      jump\t// out\n        /* \"#utility.yul\":11650:12016   */\n    tag_269:\n        /* \"#utility.yul\":11792:11795   */\n      0x00\n        /* \"#utility.yul\":11813:11880   */\n      tag_417\n        /* \"#utility.yul\":11877:11879   */\n      0x18\n        /* \"#utility.yul\":11872:11875   */\n      dup4\n        /* \"#utility.yul\":11813:11880   */\n      tag_260\n      jump\t// in\n    tag_417:\n        /* \"#utility.yul\":11806:11880   */\n      swap2\n      pop\n        /* \"#utility.yul\":11889:11982   */\n      tag_418\n        /* \"#utility.yul\":11978:11981   */\n      dup3\n        /* \"#utility.yul\":11889:11982   */\n      tag_268\n      jump\t// in\n    tag_418:\n        /* \"#utility.yul\":12007:12009   */\n      0x20\n        /* \"#utility.yul\":12002:12005   */\n      dup3\n        /* \"#utility.yul\":11998:12010   */\n      add\n        /* \"#utility.yul\":11991:12010   */\n      swap1\n      pop\n        /* \"#utility.yul\":11650:12016   */\n      swap2\n      swap1\n      pop\n      jump\t// out\n        /* \"#utility.yul\":12022:12441   */\n    tag_160:\n        /* \"#utility.yul\":12188:12192   */\n      0x00\n        /* \"#utility.yul\":12226:12228   */\n      0x20\n        /* \"#utility.yul\":12215:12224   */\n      dup3\n        /* \"#utility.yul\":12211:12229   */\n      add\n        /* \"#utility.yul\":12203:12229   */\n      swap1\n      pop\n        /* \"#utility.yul\":12275:12284   */\n      dup2\n        /* \"#utility.yul\":12269:12273   */\n      dup2\n        /* \"#utility.yul\":12265:12285   */\n      sub\n        /* \"#utility.yul\":12261:12262   */\n      0x00\n        /* \"#utility.yul\":12250:12259   */\n      dup4\n        /* \"#utility.yul\":12246:12263   */\n      add\n        /* \"#utility.yul\":12239:12286   */\n      mstore\n        /* \"#utility.yul\":12303:12434   */\n      tag_420\n        /* \"#utility.yul\":12429:12433   */\n      dup2\n        /* \"#utility.yul\":12303:12434   */\n      tag_269\n      jump\t// in\n    tag_420:\n        /* \"#utility.yul\":12295:12434   */\n      swap1\n      pop\n        /* \"#utility.yul\":12022:12441   */\n      swap2\n      swap1\n      pop\n      jump\t// out\n        /* \"#utility.yul\":12447:12667   */\n    tag_270:\n        /* \"#utility.yul\":12587:12621   */\n      0x506f6f6c3a204d4352252063616e6e6f742066616c6c2062656c6f7720313030\n        /* \"#utility.yul\":12583:12584   */\n      0x00\n        /* \"#utility.yul\":12575:12581   */\n      dup3\n        /* \"#utility.yul\":12571:12585   */\n      add\n        /* \"#utility.yul\":12564:12622   */\n      mstore\n        /* \"#utility.yul\":12656:12659   */\n      0x2500000000000000000000000000000000000000000000000000000000000000\n        /* \"#utility.yul\":12651:12653   */\n      0x20\n        /* \"#utility.yul\":12643:12649   */\n      dup3\n        /* \"#utility.yul\":12639:12654   */\n      add\n        /* \"#utility.yul\":12632:12660   */\n      mstore\n        /* \"#utility.yul\":12447:12667   */\n      pop\n      jump\t// out\n        /* \"#utility.yul\":12673:13039   */\n    tag_271:\n        /* \"#utility.yul\":12815:12818   */\n      0x00\n        /* \"#utility.yul\":12836:12903   */\n      tag_423\n        /* \"#utility.yul\":12900:12902   */\n      0x21\n        /* \"#utility.yul\":12895:12898   */\n      dup4\n        /* \"#utility.yul\":12836:12903   */\n      tag_260\n      jump\t// in\n    tag_423:\n        /* \"#utility.yul\":12829:12903   */\n      swap2\n      pop\n        /* \"#utility.yul\":12912:13005   */\n      tag_424\n        /* \"#utility.yul\":13001:13004   */\n      dup3\n        /* \"#utility.yul\":12912:13005   */\n      tag_270\n      jump\t// in\n    tag_424:\n        /* \"#utility.yul\":13030:13032   */\n      0x40\n        /* \"#utility.yul\":13025:13028   */\n      dup3\n        /* \"#utility.yul\":13021:13033   */\n      add\n        /* \"#utility.yul\":13014:13033   */\n      swap1\n      pop\n        /* \"#utility.yul\":12673:13039   */\n      swap2\n      swap1\n      pop\n      jump\t// out\n        /* \"#utility.yul\":13045:13464   */\n    tag_169:\n        /* \"#utility.yul\":13211:13215   */\n      0x00\n        /* \"#utility.yul\":13249:13251   */\n      0x20\n        /* \"#utility.yul\":13238:13247   */\n      dup3\n        /* \"#utility.yul\":13234:13252   */\n      add\n        /* \"#utility.yul\":13226:13252   */\n      swap1\n      pop\n        /* \"#utility.yul\":13298:13307   */\n      dup2\n        /* \"#utility.yul\":13292:13296   */\n      dup2\n        /* \"#utility.yul\":13288:13308   */\n      sub\n        /* \"#utility.yul\":13284:13285   */\n      0x00\n        /* \"#utility.yul\":13273:13282   */\n      dup4\n        /* \"#utility.yul\":13269:13286   */\n      add\n        /* \"#utility.yul\":13262:13309   */\n      mstore\n        /* \"#utility.yul\":13326:13457   */\n      tag_426\n        /* \"#utility.yul\":13452:13456   */\n      dup2\n        /* \"#utility.yul\":13326:13457   */\n      tag_271\n      jump\t// in\n    tag_426:\n        /* \"#utility.yul\":13318:13457   */\n      swap1\n      pop\n        /* \"#utility.yul\":13045:13464   */\n      swap2\n      swap1\n      pop\n      jump\t// out\n        /* \"#utility.yul\":13470:13644   */\n    tag_272:\n        /* \"#utility.yul\":13610:13636   */\n      0x506f6f6c3a206574684f7574203c206d696e4574684f75740000000000000000\n        /* \"#utility.yul\":13606:13607   */\n      0x00\n        /* \"#utility.yul\":13598:13604   */\n      dup3\n        /* \"#utility.yul\":13594:13608   */\n      add\n        /* \"#utility.yul\":13587:13637   */\n      mstore\n        /* \"#utility.yul\":13470:13644   */\n      pop\n      jump\t// out\n        /* \"#utility.yul\":13650:14016   */\n    tag_273:\n        /* \"#utility.yul\":13792:13795   */\n      0x00\n        /* \"#utility.yul\":13813:13880   */\n      tag_429\n        /* \"#utility.yul\":13877:13879   */\n      0x18\n        /* \"#utility.yul\":13872:13875   */\n      dup4\n        /* \"#utility.yul\":13813:13880   */\n      tag_260\n      jump\t// in\n    tag_429:\n        /* \"#utility.yul\":13806:13880   */\n      swap2\n      pop\n        /* \"#utility.yul\":13889:13982   */\n      tag_430\n        /* \"#utility.yul\":13978:13981   */\n      dup3\n        /* \"#utility.yul\":13889:13982   */\n      tag_272\n      jump\t// in\n    tag_430:\n        /* \"#utility.yul\":14007:14009   */\n      0x20\n        /* \"#utility.yul\":14002:14005   */\n      dup3\n        /* \"#utility.yul\":13998:14010   */\n      add\n        /* \"#utility.yul\":13991:14010   */\n      swap1\n      pop\n        /* \"#utility.yul\":13650:14016   */\n      swap2\n      swap1\n      pop\n      jump\t// out\n        /* \"#utility.yul\":14022:14441   */\n    tag_172:\n        /* \"#utility.yul\":14188:14192   */\n      0x00\n        /* \"#utility.yul\":14226:14228   */\n      0x20\n        /* \"#utility.yul\":14215:14224   */\n      dup3\n        /* \"#utility.yul\":14211:14229   */\n      add\n        /* \"#utility.yul\":14203:14229   */\n      swap1\n      pop\n        /* \"#utility.yul\":14275:14284   */\n      dup2\n        /* \"#utility.yul\":14269:14273   */\n      dup2\n        /* \"#utility.yul\":14265:14285   */\n      sub\n        /* \"#utility.yul\":14261:14262   */\n      0x00\n        /* \"#utility.yul\":14250:14259   */\n      dup4\n        /* \"#utility.yul\":14246:14263   */\n      add\n        /* \"#utility.yul\":14239:14286   */\n      mstore\n        /* \"#utility.yul\":14303:14434   */\n      tag_432\n        /* \"#utility.yul\":14429:14433   */\n      dup2\n        /* \"#utility.yul\":14303:14434   */\n      tag_273\n      jump\t// in\n    tag_432:\n        /* \"#utility.yul\":14295:14434   */\n      swap1\n      pop\n        /* \"#utility.yul\":14022:14441   */\n      swap2\n      swap1\n      pop\n      jump\t// out\n        /* \"#utility.yul\":14447:14563   */\n    tag_274:\n        /* \"#utility.yul\":14517:14538   */\n      tag_434\n        /* \"#utility.yul\":14532:14537   */\n      dup2\n        /* \"#utility.yul\":14517:14538   */\n      tag_253\n      jump\t// in\n    tag_434:\n        /* \"#utility.yul\":14510:14515   */\n      dup2\n        /* \"#utility.yul\":14507:14539   */\n      eq\n        /* \"#utility.yul\":14497:14557   */\n      tag_435\n      jumpi\n        /* \"#utility.yul\":14553:14554   */\n      0x00\n        /* \"#utility.yul\":14550:14551   */\n      dup1\n        /* \"#utility.yul\":14543:14555   */\n      revert\n        /* \"#utility.yul\":14497:14557   */\n    tag_435:\n        /* \"#utility.yul\":14447:14563   */\n      pop\n      jump\t// out\n        /* \"#utility.yul\":14569:14706   */\n    tag_275:\n        /* \"#utility.yul\":14623:14628   */\n      0x00\n        /* \"#utility.yul\":14654:14660   */\n      dup2\n        /* \"#utility.yul\":14648:14661   */\n      mload\n        /* \"#utility.yul\":14639:14661   */\n      swap1\n      pop\n        /* \"#utility.yul\":14670:14700   */\n      tag_437\n        /* \"#utility.yul\":14694:14699   */\n      dup2\n        /* \"#utility.yul\":14670:14700   */\n      tag_274\n      jump\t// in\n    tag_437:\n        /* \"#utility.yul\":14569:14706   */\n      swap3\n      swap2\n      pop\n      pop\n      jump\t// out\n        /* \"#utility.yul\":14712:15057   */\n    tag_177:\n        /* \"#utility.yul\":14779:14785   */\n      0x00\n        /* \"#utility.yul\":14828:14830   */\n      0x20\n        /* \"#utility.yul\":14816:14825   */\n      dup3\n        /* \"#utility.yul\":14807:14814   */\n      dup5\n        /* \"#utility.yul\":14803:14826   */\n      sub\n        /* \"#utility.yul\":14799:14831   */\n      slt\n        /* \"#utility.yul\":14796:14915   */\n      iszero\n      tag_439\n      jumpi\n        /* \"#utility.yul\":14834:14913   */\n      tag_440\n      tag_243\n      jump\t// in\n    tag_440:\n        /* \"#utility.yul\":14796:14915   */\n    tag_439:\n        /* \"#utility.yul\":14954:14955   */\n      0x00\n        /* \"#utility.yul\":14979:15040   */\n      tag_441\n        /* \"#utility.yul\":15032:15039   */\n      dup5\n        /* \"#utility.yul\":15023:15029   */\n      dup3\n        /* \"#utility.yul\":15012:15021   */\n      dup6\n        /* \"#utility.yul\":15008:15030   */\n      add\n        /* \"#utility.yul\":14979:15040   */\n      tag_275\n      jump\t// in\n    tag_441:\n        /* \"#utility.yul\":14969:15040   */\n      swap2\n      pop\n        /* \"#utility.yul\":14925:15050   */\n      pop\n        /* \"#utility.yul\":14712:15057   */\n      swap3\n      swap2\n      pop\n      pop\n      jump\t// out\n        /* \"#utility.yul\":15063:15210   */\n    tag_276:\n        /* \"#utility.yul\":15164:15175   */\n      0x00\n        /* \"#utility.yul\":15201:15204   */\n      dup2\n        /* \"#utility.yul\":15186:15204   */\n      swap1\n      pop\n        /* \"#utility.yul\":15063:15210   */\n      swap3\n      swap2\n      pop\n      pop\n      jump\t// out\n        /* \"#utility.yul\":15216:15330   */\n    tag_277:\n      pop\n      jump\t// out\n        /* \"#utility.yul\":15336:15734   */\n    tag_278:\n        /* \"#utility.yul\":15495:15498   */\n      0x00\n        /* \"#utility.yul\":15516:15599   */\n      tag_445\n        /* \"#utility.yul\":15597:15598   */\n      0x00\n        /* \"#utility.yul\":15592:15595   */\n      dup4\n        /* \"#utility.yul\":15516:15599   */\n      tag_276\n      jump\t// in\n    tag_445:\n        /* \"#utility.yul\":15509:15599   */\n      swap2\n      pop\n        /* \"#utility.yul\":15608:15701   */\n      tag_446\n        /* \"#utility.yul\":15697:15700   */\n      dup3\n        /* \"#utility.yul\":15608:15701   */\n      tag_277\n      jump\t// in\n    tag_446:\n        /* \"#utility.yul\":15726:15727   */\n      0x00\n        /* \"#utility.yul\":15721:15724   */\n      dup3\n        /* \"#utility.yul\":15717:15728   */\n      add\n        /* \"#utility.yul\":15710:15728   */\n      swap1\n      pop\n        /* \"#utility.yul\":15336:15734   */\n      swap2\n      swap1\n      pop\n      jump\t// out\n        /* \"#utility.yul\":15740:16119   */\n    tag_179:\n        /* \"#utility.yul\":15924:15927   */\n      0x00\n        /* \"#utility.yul\":15946:16093   */\n      tag_448\n        /* \"#utility.yul\":16089:16092   */\n      dup3\n        /* \"#utility.yul\":15946:16093   */\n      tag_278\n      jump\t// in\n    tag_448:\n        /* \"#utility.yul\":15939:16093   */\n      swap2\n      pop\n        /* \"#utility.yul\":16110:16113   */\n      dup2\n        /* \"#utility.yul\":16103:16113   */\n      swap1\n      pop\n        /* \"#utility.yul\":15740:16119   */\n      swap2\n      swap1\n      pop\n      jump\t// out\n        /* \"#utility.yul\":16125:16301   */\n    tag_279:\n        /* \"#utility.yul\":16265:16293   */\n      0x506f6f6c3a2053656c6c207472616e73666572206661696c6564000000000000\n        /* \"#utility.yul\":16261:16262   */\n      0x00\n        /* \"#utility.yul\":16253:16259   */\n      dup3\n        /* \"#utility.yul\":16249:16263   */\n      add\n        /* \"#utility.yul\":16242:16294   */\n      mstore\n        /* \"#utility.yul\":16125:16301   */\n      pop\n      jump\t// out\n        /* \"#utility.yul\":16307:16673   */\n    tag_280:\n        /* \"#utility.yul\":16449:16452   */\n      0x00\n        /* \"#utility.yul\":16470:16537   */\n      tag_451\n        /* \"#utility.yul\":16534:16536   */\n      0x1a\n        /* \"#utility.yul\":16529:16532   */\n      dup4\n        /* \"#utility.yul\":16470:16537   */\n      tag_260\n      jump\t// in\n    tag_451:\n        /* \"#utility.yul\":16463:16537   */\n      swap2\n      pop\n        /* \"#utility.yul\":16546:16639   */\n      tag_452\n        /* \"#utility.yul\":16635:16638   */\n      dup3\n        /* \"#utility.yul\":16546:16639   */\n      tag_279\n      jump\t// in\n    tag_452:\n        /* \"#utility.yul\":16664:16666   */\n      0x20\n        /* \"#utility.yul\":16659:16662   */\n      dup3\n        /* \"#utility.yul\":16655:16667   */\n      add\n        /* \"#utility.yul\":16648:16667   */\n      swap1\n      pop\n        /* \"#utility.yul\":16307:16673   */\n      swap2\n      swap1\n      pop\n      jump\t// out\n        /* \"#utility.yul\":16679:17098   */\n    tag_185:\n        /* \"#utility.yul\":16845:16849   */\n      0x00\n        /* \"#utility.yul\":16883:16885   */\n      0x20\n        /* \"#utility.yul\":16872:16881   */\n      dup3\n        /* \"#utility.yul\":16868:16886   */\n      add\n        /* \"#utility.yul\":16860:16886   */\n      swap1\n      pop\n        /* \"#utility.yul\":16932:16941   */\n      dup2\n        /* \"#utility.yul\":16926:16930   */\n      dup2\n        /* \"#utility.yul\":16922:16942   */\n      sub\n        /* \"#utility.yul\":16918:16919   */\n      0x00\n        /* \"#utility.yul\":16907:16916   */\n      dup4\n        /* \"#utility.yul\":16903:16920   */\n      add\n        /* \"#utility.yul\":16896:16943   */\n      mstore\n        /* \"#utility.yul\":16960:17091   */\n      tag_454\n        /* \"#utility.yul\":17086:17090   */\n      dup2\n        /* \"#utility.yul\":16960:17091   */\n      tag_280\n      jump\t// in\n    tag_454:\n        /* \"#utility.yul\":16952:17091   */\n      swap1\n      pop\n        /* \"#utility.yul\":16679:17098   */\n      swap2\n      swap1\n      pop\n      jump\t// out\n        /* \"#utility.yul\":17104:17279   */\n    tag_281:\n        /* \"#utility.yul\":17244:17271   */\n      0x506f6f6c3a20455448207472616e73666572206661696c656400000000000000\n        /* \"#utility.yul\":17240:17241   */\n      0x00\n        /* \"#utility.yul\":17232:17238   */\n      dup3\n        /* \"#utility.yul\":17228:17242   */\n      add\n        /* \"#utility.yul\":17221:17272   */\n      mstore\n        /* \"#utility.yul\":17104:17279   */\n      pop\n      jump\t// out\n        /* \"#utility.yul\":17285:17651   */\n    tag_282:\n        /* \"#utility.yul\":17427:17430   */\n      0x00\n        /* \"#utility.yul\":17448:17515   */\n      tag_457\n        /* \"#utility.yul\":17512:17514   */\n      0x19\n        /* \"#utility.yul\":17507:17510   */\n      dup4\n        /* \"#utility.yul\":17448:17515   */\n      tag_260\n      jump\t// in\n    tag_457:\n        /* \"#utility.yul\":17441:17515   */\n      swap2\n      pop\n        /* \"#utility.yul\":17524:17617   */\n      tag_458\n        /* \"#utility.yul\":17613:17616   */\n      dup3\n        /* \"#utility.yul\":17524:17617   */\n      tag_281\n      jump\t// in\n    tag_458:\n        /* \"#utility.yul\":17642:17644   */\n      0x20\n        /* \"#utility.yul\":17637:17640   */\n      dup3\n        /* \"#utility.yul\":17633:17645   */\n      add\n        /* \"#utility.yul\":17626:17645   */\n      swap1\n      pop\n        /* \"#utility.yul\":17285:17651   */\n      swap2\n      swap1\n      pop\n      jump\t// out\n        /* \"#utility.yul\":17657:18076   */\n    tag_197:\n        /* \"#utility.yul\":17823:17827   */\n      0x00\n        /* \"#utility.yul\":17861:17863   */\n      0x20\n        /* \"#utility.yul\":17850:17859   */\n      dup3\n        /* \"#utility.yul\":17846:17864   */\n      add\n        /* \"#utility.yul\":17838:17864   */\n      swap1\n      pop\n        /* \"#utility.yul\":17910:17919   */\n      dup2\n        /* \"#utility.yul\":17904:17908   */\n      dup2\n        /* \"#utility.yul\":17900:17920   */\n      sub\n        /* \"#utility.yul\":17896:17897   */\n      0x00\n        /* \"#utility.yul\":17885:17894   */\n      dup4\n        /* \"#utility.yul\":17881:17898   */\n      add\n        /* \"#utility.yul\":17874:17921   */\n      mstore\n        /* \"#utility.yul\":17938:18069   */\n      tag_460\n        /* \"#utility.yul\":18064:18068   */\n      dup2\n        /* \"#utility.yul\":17938:18069   */\n      tag_282\n      jump\t// in\n    tag_460:\n        /* \"#utility.yul\":17930:18069   */\n      swap1\n      pop\n        /* \"#utility.yul\":17657:18076   */\n      swap2\n      swap1\n      pop\n      jump\t// out\n        /* \"#utility.yul\":18082:18204   */\n    tag_283:\n        /* \"#utility.yul\":18155:18179   */\n      tag_462\n        /* \"#utility.yul\":18173:18178   */\n      dup2\n        /* \"#utility.yul\":18155:18179   */\n      tag_266\n      jump\t// in\n    tag_462:\n        /* \"#utility.yul\":18148:18153   */\n      dup2\n        /* \"#utility.yul\":18145:18180   */\n      eq\n        /* \"#utility.yul\":18135:18198   */\n      tag_463\n      jumpi\n        /* \"#utility.yul\":18194:18195   */\n      0x00\n        /* \"#utility.yul\":18191:18192   */\n      dup1\n        /* \"#utility.yul\":18184:18196   */\n      revert\n        /* \"#utility.yul\":18135:18198   */\n    tag_463:\n        /* \"#utility.yul\":18082:18204   */\n      pop\n      jump\t// out\n        /* \"#utility.yul\":18210:18353   */\n    tag_284:\n        /* \"#utility.yul\":18267:18272   */\n      0x00\n        /* \"#utility.yul\":18298:18304   */\n      dup2\n        /* \"#utility.yul\":18292:18305   */\n      mload\n        /* \"#utility.yul\":18283:18305   */\n      swap1\n      pop\n        /* \"#utility.yul\":18314:18347   */\n      tag_465\n        /* \"#utility.yul\":18341:18346   */\n      dup2\n        /* \"#utility.yul\":18314:18347   */\n      tag_283\n      jump\t// in\n    tag_465:\n        /* \"#utility.yul\":18210:18353   */\n      swap3\n      swap2\n      pop\n      pop\n      jump\t// out\n        /* \"#utility.yul\":18359:18710   */\n    tag_229:\n        /* \"#utility.yul\":18429:18435   */\n      0x00\n        /* \"#utility.yul\":18478:18480   */\n      0x20\n        /* \"#utility.yul\":18466:18475   */\n      dup3\n        /* \"#utility.yul\":18457:18464   */\n      dup5\n        /* \"#utility.yul\":18453:18476   */\n      sub\n        /* \"#utility.yul\":18449:18481   */\n      slt\n        /* \"#utility.yul\":18446:18565   */\n      iszero\n      tag_467\n      jumpi\n        /* \"#utility.yul\":18484:18563   */\n      tag_468\n      tag_243\n      jump\t// in\n    tag_468:\n        /* \"#utility.yul\":18446:18565   */\n    tag_467:\n        /* \"#utility.yul\":18604:18605   */\n      0x00\n        /* \"#utility.yul\":18629:18693   */\n      tag_469\n        /* \"#utility.yul\":18685:18692   */\n      dup5\n        /* \"#utility.yul\":18676:18682   */\n      dup3\n        /* \"#utility.yul\":18665:18674   */\n      dup6\n        /* \"#utility.yul\":18661:18683   */\n      add\n        /* \"#utility.yul\":18629:18693   */\n      tag_284\n      jump\t// in\n    tag_469:\n        /* \"#utility.yul\":18619:18693   */\n      swap2\n      pop\n        /* \"#utility.yul\":18575:18703   */\n      pop\n        /* \"#utility.yul\":18359:18710   */\n      swap3\n      swap2\n      pop\n      pop\n      jump\t// out\n\n    auxdata: 0xa264697066735822122027e9fe04dc444f125e1df40f6989454e0667e6167593c68e483cea957776c04864736f6c63430008150033\n}\n",
				"bytecode": {
					"linkReferences": {},
					"object": "608060405260015f5534801562000014575f80fd5b5060405162001af438038062001af483398181016040528101906200003a919062000127565b8160015f6101000a81548173ffffffffffffffffffffffffffffffffffffffff021916908373ffffffffffffffffffffffffffffffffffffffff1602179055508060025f6101000a81548173ffffffffffffffffffffffffffffffffffffffff021916908373ffffffffffffffffffffffffffffffffffffffff16021790555050506200016c565b5f80fd5b5f73ffffffffffffffffffffffffffffffffffffffff82169050919050565b5f620000f182620000c6565b9050919050565b6200010381620000e5565b81146200010e575f80fd5b50565b5f815190506200012181620000f8565b92915050565b5f806040838503121562000140576200013f620000c2565b5b5f6200014f8582860162000111565b9250506020620001628582860162000111565b9150509250929050565b61197a806200017a5f395ff3fe6080604052600436106100c5575f3560e01c806370310cb71161007e578063cf8d133f11610058578063cf8d133f14610280578063e57a8fef146102a8578063eabf3407146102e4578063ebb8433f14610320576100cc565b806370310cb7146101f2578063b222a4d31461022e578063bdf4872b14610258576100cc565b806304e8266f146100ce57806306833ffd1461010a5780631f50c989146101265780634779be0814610150578063483b6f1d1461017a578063657e0542146101b6576100cc565b366100cc57005b005b3480156100d9575f80fd5b506100f460048036038101906100ef9190611009565b61035c565b6040516101019190611056565b60405180910390f35b610124600480360381019061011f919061106f565b6103d3565b005b348015610131575f80fd5b5061013a61063f565b6040516101479190611056565b60405180910390f35b34801561015b575f80fd5b50610164610645565b6040516101719190611056565b60405180910390f35b348015610185575f80fd5b506101a0600480360381019061019b919061106f565b61064a565b6040516101ad9190611056565b60405180910390f35b3480156101c1575f80fd5b506101dc60048036038101906101d7919061109a565b6106db565b6040516101e99190611056565b60405180910390f35b3480156101fd575f80fd5b5061021860048036038101906102139190611009565b6107ca565b6040516102259190611056565b60405180910390f35b348015610239575f80fd5b506102426107f7565b60405161024f9190611056565b60405180910390f35b348015610263575f80fd5b5061027e60048036038101906102799190611009565b6107fd565b005b34801561028b575f80fd5b506102a660048036038101906102a19190611144565b610bf0565b005b3480156102b3575f80fd5b506102ce60048036038101906102c9919061106f565b610d52565b6040516102db919061119c565b60405180910390f35b3480156102ef575f80fd5b5061030a6004803603810190610305919061106f565b610d66565b6040516103179190611056565b60405180910390f35b34801561032b575f80fd5b506103466004803603810190610341919061109a565b610df7565b6040516103539190611056565b60405180910390f35b5f8061036884846107ca565b90505f60048061037891906111e2565b600a6103849190611352565b90506624859b044a800081625880406004856103a09190611352565b876103ab91906111e2565b6103b591906113c9565b6103bf91906113c9565b6103c991906113f9565b9250505092915050565b5f3490505f8111610419576040517f08c379a000000000000000000000000000000000000000000000000000000000815260040161041090611486565b60405180910390fd5b5f814761042691906114a4565b90505f610431610eb8565b90505f8173ffffffffffffffffffffffffffffffffffffffff166344936b106040518163ffffffff1660e01b81526004016020604051808303815f875af115801561047e573d5f803e3d5ffd5b505050506040513d601f19601f820116820180604052508101906104a291906114eb565b90505f6104af84836107ca565b90505f6104bd8686856106db565b905086811015610502576040517f08c379a00000000000000000000000000000000000000000000000000000000081526004016104f990611586565b60405180910390fd5b60015f9054906101000a900473ffffffffffffffffffffffffffffffffffffffff1673ffffffffffffffffffffffffffffffffffffffff166340c10f1933836040518363ffffffff1660e01b815260040161055e9291906115c4565b5f604051808303815f87803b158015610575575f80fd5b505af1158015610587573d5f803e3d5ffd5b505050508373ffffffffffffffffffffffffffffffffffffffff1663aa5da0466040518163ffffffff1660e01b81526004015f604051808303815f87803b1580156105d0575f80fd5b505af11580156105e2573d5f803e3d5ffd5b505050503373ffffffffffffffffffffffffffffffffffffffff167fc5fc954940739c9d45b12cd63fec8b2fb3887d642d3572cf741e45f30088ad93878360405161062e9291906115eb565b60405180910390a250505050505050565b6101f481565b600481565b5f804790505f610658610eb8565b73ffffffffffffffffffffffffffffffffffffffff166344936b106040518163ffffffff1660e01b81526004016020604051808303815f875af11580156106a1573d5f803e3d5ffd5b505050506040513d601f19601f820116820180604052508101906106c591906114eb565b90506106d28483836106db565b92505050919050565b5f808314806106f9575064e8d4a5100083836106f791906113c9565b115b1561072b576624859b044a8000670de0b6b3a76400008561071a91906111e2565b61072491906113c9565b90506107c3565b5f6107368484610f4c565b90505f858561074591906113f9565b90505f6107528286610f4c565b90505f818461076191906114a4565b90505f81670de0b6b3a76400008a61077991906111e2565b61078391906113c9565b90505f6624859b044a80008261079991906113f9565b905080670de0b6b3a76400008b6107b091906111e2565b6107ba91906113c9565b96505050505050505b9392505050565b5f816004600a6107da9190611352565b846107e591906111e2565b6107ef91906113c9565b905092915050565b619c4081565b8160015f9054906101000a900473ffffffffffffffffffffffffffffffffffffffff1673ffffffffffffffffffffffffffffffffffffffff166370a08231336040518263ffffffff1660e01b81526004016108589190611612565b602060405180830381865afa158015610873573d5f803e3d5ffd5b505050506040513d601f19601f8201168201806040525081019061089791906114eb565b10156108d8576040517f08c379a00000000000000000000000000000000000000000000000000000000081526004016108cf90611675565b60405180910390fd5b5f6108e1610eb8565b90505f4790505f8273ffffffffffffffffffffffffffffffffffffffff166344936b106040518163ffffffff1660e01b81526004016020604051808303815f875af1158015610932573d5f803e3d5ffd5b505050506040513d601f19601f8201168201806040525081019061095691906114eb565b90505f610964868484610df7565b905081818461097391906114a4565b10156109b4576040517f08c379a00000000000000000000000000000000000000000000000000000000081526004016109ab90611703565b60405180910390fd5b848110156109f7576040517f08c379a00000000000000000000000000000000000000000000000000000000081526004016109ee9061176b565b60405180910390fd5b60015f9054906101000a900473ffffffffffffffffffffffffffffffffffffffff1673ffffffffffffffffffffffffffffffffffffffff166379cc679033886040518363ffffffff1660e01b8152600401610a539291906115c4565b6020604051808303815f875af1158015610a6f573d5f803e3d5ffd5b505050506040513d601f19601f82011682018060405250810190610a9391906117b3565b505f3373ffffffffffffffffffffffffffffffffffffffff1682604051610ab99061180b565b5f6040518083038185875af1925050503d805f8114610af3576040519150601f19603f3d011682016040523d82523d5f602084013e610af8565b606091505b5050905080610b3c576040517f08c379a0000000000000000000000000000000000000000000000000000000008152600401610b3390611869565b60405180910390fd5b8473ffffffffffffffffffffffffffffffffffffffff1663aa5da0466040518163ffffffff1660e01b81526004015f604051808303815f87803b158015610b81575f80fd5b505af1158015610b93573d5f803e3d5ffd5b505050503373ffffffffffffffffffffffffffffffffffffffff167f1d1ddca8aa909e7f7fc055611b4269f6c858ad1e95735416f86f08c2d49e74738884604051610bdf9291906115eb565b60405180910390a250505050505050565b5f8273ffffffffffffffffffffffffffffffffffffffff1682604051610c159061180b565b5f6040518083038185875af1925050503d805f8114610c4f576040519150601f19603f3d011682016040523d82523d5f602084013e610c54565b606091505b5050905080610c98576040517f08c379a0000000000000000000000000000000000000000000000000000000008152600401610c8f906118d1565b60405180910390fd5b8273ffffffffffffffffffffffffffffffffffffffff167f5afeca38b2064c23a692c4cf353015d80ab3ecc417b4f893f372690c11fbd9a683604051610cde9190611056565b60405180910390a25f479050610cf2610eb8565b73ffffffffffffffffffffffffffffffffffffffff1663aa5da0466040518163ffffffff1660e01b81526004015f604051808303815f87803b158015610d36575f80fd5b505af1158015610d48573d5f803e3d5ffd5b5050505050505050565b5f610d5d825f6107fd565b60019050919050565b5f804790505f610d74610eb8565b73ffffffffffffffffffffffffffffffffffffffff166344936b106040518163ffffffff1660e01b81526004016020604051808303815f875af1158015610dbd573d5f803e3d5ffd5b505050506040513d601f19601f82011682018060405250810190610de191906114eb565b9050610dee848383610df7565b92505050919050565b5f80610e03848461035c565b90505f670de0b6b3a76400008287610e1b91906111e2565b610e2591906113c9565b90505f8186610e3491906114a4565b90505f610e41828761035c565b90505f6103e86103cf60028488610e5891906113f9565b610e6291906113c9565b610e6c91906111e2565b610e7691906113c9565b90505f610e838284610fba565b90505f670de0b6b3a76400008b83610e9b91906111e2565b610ea591906113c9565b9050809750505050505050509392505050565b5f60025f9054906101000a900473ffffffffffffffffffffffffffffffffffffffff1673ffffffffffffffffffffffffffffffffffffffff166388ea07516040518163ffffffff1660e01b8152600401602060405180830381865afa158015610f23573d5f803e3d5ffd5b505050506040513d601f19601f82011682018060405250810190610f479190611919565b905090565b5f8282848486866003670de0b6b3a764000062588040610f6c91906111e2565b610f7691906113c9565b610f8091906111e2565b610f8a91906113c9565b610f9491906111e2565b610f9e91906113c9565b610fa891906111e2565b610fb291906113c9565b905092915050565b5f818310610fc85781610fca565b825b905092915050565b5f80fd5b5f819050919050565b610fe881610fd6565b8114610ff2575f80fd5b50565b5f8135905061100381610fdf565b92915050565b5f806040838503121561101f5761101e610fd2565b5b5f61102c85828601610ff5565b925050602061103d85828601610ff5565b9150509250929050565b61105081610fd6565b82525050565b5f6020820190506110695f830184611047565b92915050565b5f6020828403121561108457611083610fd2565b5b5f61109184828501610ff5565b91505092915050565b5f805f606084860312156110b1576110b0610fd2565b5b5f6110be86828701610ff5565b93505060206110cf86828701610ff5565b92505060406110e086828701610ff5565b9150509250925092565b5f73ffffffffffffffffffffffffffffffffffffffff82169050919050565b5f611113826110ea565b9050919050565b61112381611109565b811461112d575f80fd5b50565b5f8135905061113e8161111a565b92915050565b5f806040838503121561115a57611159610fd2565b5b5f61116785828601611130565b925050602061117885828601610ff5565b9150509250929050565b5f8115159050919050565b61119681611182565b82525050565b5f6020820190506111af5f83018461118d565b92915050565b7f4e487b71000000000000000000000000000000000000000000000000000000005f52601160045260245ffd5b5f6111ec82610fd6565b91506111f783610fd6565b925082820261120581610fd6565b9150828204841483151761121c5761121b6111b5565b5b5092915050565b5f8160011c9050919050565b5f808291508390505b600185111561127857808604811115611254576112536111b5565b5b60018516156112635780820291505b808102905061127185611223565b9450611238565b94509492505050565b5f82611290576001905061134b565b8161129d575f905061134b565b81600181146112b357600281146112bd576112ec565b600191505061134b565b60ff8411156112cf576112ce6111b5565b5b8360020a9150848211156112e6576112e56111b5565b5b5061134b565b5060208310610133831016604e8410600b84101617156113215782820a90508381111561131c5761131b6111b5565b5b61134b565b61132e848484600161122f565b92509050818404811115611345576113446111b5565b5b81810290505b9392505050565b5f61135c82610fd6565b915061136783610fd6565b92506113947fffffffffffffffffffffffffffffffffffffffffffffffffffffffffffffffff8484611281565b905092915050565b7f4e487b71000000000000000000000000000000000000000000000000000000005f52601260045260245ffd5b5f6113d382610fd6565b91506113de83610fd6565b9250826113ee576113ed61139c565b5b828204905092915050565b5f61140382610fd6565b915061140e83610fd6565b9250828201905080821115611426576114256111b5565b5b92915050565b5f82825260208201905092915050565b7f506f6f6c3a20657468496e203e203000000000000000000000000000000000005f82015250565b5f611470600f8361142c565b915061147b8261143c565b602082019050919050565b5f6020820190508181035f83015261149d81611464565b9050919050565b5f6114ae82610fd6565b91506114b983610fd6565b92508282039050818111156114d1576114d06111b5565b5b92915050565b5f815190506114e581610fdf565b92915050565b5f60208284031215611500576114ff610fd2565b5b5f61150d848285016114d7565b91505092915050565b7f506f6f6c3a20746f6b656e734f7574206973206c657373207468616e206d696e5f8201527f546f6b656e734f75740000000000000000000000000000000000000000000000602082015250565b5f61157060298361142c565b915061157b82611516565b604082019050919050565b5f6020820190508181035f83015261159d81611564565b9050919050565b5f6115ae826110ea565b9050919050565b6115be816115a4565b82525050565b5f6040820190506115d75f8301856115b5565b6115e46020830184611047565b9392505050565b5f6040820190506115fe5f830185611047565b61160b6020830184611047565b9392505050565b5f6020820190506116255f8301846115b5565b92915050565b7f506f6f6c3a204e6f7420656e6f7567682062616c616e636500000000000000005f82015250565b5f61165f60188361142c565b915061166a8261162b565b602082019050919050565b5f6020820190508181035f83015261168c81611653565b9050919050565b7f506f6f6c3a204d4352252063616e6e6f742066616c6c2062656c6f77203130305f8201527f2500000000000000000000000000000000000000000000000000000000000000602082015250565b5f6116ed60218361142c565b91506116f882611693565b604082019050919050565b5f6020820190508181035f83015261171a816116e1565b9050919050565b7f506f6f6c3a206574684f7574203c206d696e4574684f757400000000000000005f82015250565b5f61175560188361142c565b915061176082611721565b602082019050919050565b5f6020820190508181035f83015261178281611749565b9050919050565b61179281611182565b811461179c575f80fd5b50565b5f815190506117ad81611789565b92915050565b5f602082840312156117c8576117c7610fd2565b5b5f6117d58482850161179f565b91505092915050565b5f81905092915050565b50565b5f6117f65f836117de565b9150611801826117e8565b5f82019050919050565b5f611815826117eb565b9150819050919050565b7f506f6f6c3a2053656c6c207472616e73666572206661696c65640000000000005f82015250565b5f611853601a8361142c565b915061185e8261181f565b602082019050919050565b5f6020820190508181035f83015261188081611847565b9050919050565b7f506f6f6c3a20455448207472616e73666572206661696c6564000000000000005f82015250565b5f6118bb60198361142c565b91506118c682611887565b602082019050919050565b5f6020820190508181035f8301526118e8816118af565b9050919050565b6118f8816115a4565b8114611902575f80fd5b50565b5f81519050611913816118ef565b92915050565b5f6020828403121561192e5761192d610fd2565b5b5f61193b84828501611905565b9150509291505056fea264697066735822122027e9fe04dc444f125e1df40f6989454e0667e6167593c68e483cea957776c04864736f6c63430008150033",
					"opcodes": "PUSH1 0x80 PUSH1 0x40 MSTORE PUSH1 0x1 PUSH0 SSTORE CALLVALUE DUP1 ISZERO PUSH3 0x14 JUMPI PUSH0 DUP1 REVERT JUMPDEST POP PUSH1 0x40 MLOAD PUSH3 0x1AF4 CODESIZE SUB DUP1 PUSH3 0x1AF4 DUP4 CODECOPY DUP2 DUP2 ADD PUSH1 0x40 MSTORE DUP2 ADD SWAP1 PUSH3 0x3A SWAP2 SWAP1 PUSH3 0x127 JUMP JUMPDEST DUP2 PUSH1 0x1 PUSH0 PUSH2 0x100 EXP DUP2 SLOAD DUP2 PUSH20 0xFFFFFFFFFFFFFFFFFFFFFFFFFFFFFFFFFFFFFFFF MUL NOT AND SWAP1 DUP4 PUSH20 0xFFFFFFFFFFFFFFFFFFFFFFFFFFFFFFFFFFFFFFFF AND MUL OR SWAP1 SSTORE POP DUP1 PUSH1 0x2 PUSH0 PUSH2 0x100 EXP DUP2 SLOAD DUP2 PUSH20 0xFFFFFFFFFFFFFFFFFFFFFFFFFFFFFFFFFFFFFFFF MUL NOT AND SWAP1 DUP4 PUSH20 0xFFFFFFFFFFFFFFFFFFFFFFFFFFFFFFFFFFFFFFFF AND MUL OR SWAP1 SSTORE POP POP POP PUSH3 0x16C JUMP JUMPDEST PUSH0 DUP1 REVERT JUMPDEST PUSH0 PUSH20 0xFFFFFFFFFFFFFFFFFFFFFFFFFFFFFFFFFFFFFFFF DUP3 AND SWAP1 POP SWAP2 SWAP1 POP JUMP JUMPDEST PUSH0 PUSH3 0xF1 DUP3 PUSH3 0xC6 JUMP JUMPDEST SWAP1 POP SWAP2 SWAP1 POP JUMP JUMPDEST PUSH3 0x103 DUP2 PUSH3 0xE5 JUMP JUMPDEST DUP2 EQ PUSH3 0x10E JUMPI PUSH0 DUP1 REVERT JUMPDEST POP JUMP JUMPDEST PUSH0 DUP2 MLOAD SWAP1 POP PUSH3 0x121 DUP2 PUSH3 0xF8 JUMP JUMPDEST SWAP3 SWAP2 POP POP JUMP JUMPDEST PUSH0 DUP1 PUSH1 0x40 DUP4 DUP6 SUB SLT ISZERO PUSH3 0x140 JUMPI PUSH3 0x13F PUSH3 0xC2 JUMP JUMPDEST JUMPDEST PUSH0 PUSH3 0x14F DUP6 DUP3 DUP7 ADD PUSH3 0x111 JUMP JUMPDEST SWAP3 POP POP PUSH1 0x20 PUSH3 0x162 DUP6 DUP3 DUP7 ADD PUSH3 0x111 JUMP JUMPDEST SWAP2 POP POP SWAP3 POP SWAP3 SWAP1 POP JUMP JUMPDEST PUSH2 0x197A DUP1 PUSH3 0x17A PUSH0 CODECOPY PUSH0 RETURN INVALID PUSH1 0x80 PUSH1 0x40 MSTORE PUSH1 0x4 CALLDATASIZE LT PUSH2 0xC5 JUMPI PUSH0 CALLDATALOAD PUSH1 0xE0 SHR DUP1 PUSH4 0x70310CB7 GT PUSH2 0x7E JUMPI DUP1 PUSH4 0xCF8D133F GT PUSH2 0x58 JUMPI DUP1 PUSH4 0xCF8D133F EQ PUSH2 0x280 JUMPI DUP1 PUSH4 0xE57A8FEF EQ PUSH2 0x2A8 JUMPI DUP1 PUSH4 0xEABF3407 EQ PUSH2 0x2E4 JUMPI DUP1 PUSH4 0xEBB8433F EQ PUSH2 0x320 JUMPI PUSH2 0xCC JUMP JUMPDEST DUP1 PUSH4 0x70310CB7 EQ PUSH2 0x1F2 JUMPI DUP1 PUSH4 0xB222A4D3 EQ PUSH2 0x22E JUMPI DUP1 PUSH4 0xBDF4872B EQ PUSH2 0x258 JUMPI PUSH2 0xCC JUMP JUMPDEST DUP1 PUSH4 0x4E8266F EQ PUSH2 0xCE JUMPI DUP1 PUSH4 0x6833FFD EQ PUSH2 0x10A JUMPI DUP1 PUSH4 0x1F50C989 EQ PUSH2 0x126 JUMPI DUP1 PUSH4 0x4779BE08 EQ PUSH2 0x150 JUMPI DUP1 PUSH4 0x483B6F1D EQ PUSH2 0x17A JUMPI DUP1 PUSH4 0x657E0542 EQ PUSH2 0x1B6 JUMPI PUSH2 0xCC JUMP JUMPDEST CALLDATASIZE PUSH2 0xCC JUMPI STOP JUMPDEST STOP JUMPDEST CALLVALUE DUP1 ISZERO PUSH2 0xD9 JUMPI PUSH0 DUP1 REVERT JUMPDEST POP PUSH2 0xF4 PUSH1 0x4 DUP1 CALLDATASIZE SUB DUP2 ADD SWAP1 PUSH2 0xEF SWAP2 SWAP1 PUSH2 0x1009 JUMP JUMPDEST PUSH2 0x35C JUMP JUMPDEST PUSH1 0x40 MLOAD PUSH2 0x101 SWAP2 SWAP1 PUSH2 0x1056 JUMP JUMPDEST PUSH1 0x40 MLOAD DUP1 SWAP2 SUB SWAP1 RETURN JUMPDEST PUSH2 0x124 PUSH1 0x4 DUP1 CALLDATASIZE SUB DUP2 ADD SWAP1 PUSH2 0x11F SWAP2 SWAP1 PUSH2 0x106F JUMP JUMPDEST PUSH2 0x3D3 JUMP JUMPDEST STOP JUMPDEST CALLVALUE DUP1 ISZERO PUSH2 0x131 JUMPI PUSH0 DUP1 REVERT JUMPDEST POP PUSH2 0x13A PUSH2 0x63F JUMP JUMPDEST PUSH1 0x40 MLOAD PUSH2 0x147 SWAP2 SWAP1 PUSH2 0x1056 JUMP JUMPDEST PUSH1 0x40 MLOAD DUP1 SWAP2 SUB SWAP1 RETURN JUMPDEST CALLVALUE DUP1 ISZERO PUSH2 0x15B JUMPI PUSH0 DUP1 REVERT JUMPDEST POP PUSH2 0x164 PUSH2 0x645 JUMP JUMPDEST PUSH1 0x40 MLOAD PUSH2 0x171 SWAP2 SWAP1 PUSH2 0x1056 JUMP JUMPDEST PUSH1 0x40 MLOAD DUP1 SWAP2 SUB SWAP1 RETURN JUMPDEST CALLVALUE DUP1 ISZERO PUSH2 0x185 JUMPI PUSH0 DUP1 REVERT JUMPDEST POP PUSH2 0x1A0 PUSH1 0x4 DUP1 CALLDATASIZE SUB DUP2 ADD SWAP1 PUSH2 0x19B SWAP2 SWAP1 PUSH2 0x106F JUMP JUMPDEST PUSH2 0x64A JUMP JUMPDEST PUSH1 0x40 MLOAD PUSH2 0x1AD SWAP2 SWAP1 PUSH2 0x1056 JUMP JUMPDEST PUSH1 0x40 MLOAD DUP1 SWAP2 SUB SWAP1 RETURN JUMPDEST CALLVALUE DUP1 ISZERO PUSH2 0x1C1 JUMPI PUSH0 DUP1 REVERT JUMPDEST POP PUSH2 0x1DC PUSH1 0x4 DUP1 CALLDATASIZE SUB DUP2 ADD SWAP1 PUSH2 0x1D7 SWAP2 SWAP1 PUSH2 0x109A JUMP JUMPDEST PUSH2 0x6DB JUMP JUMPDEST PUSH1 0x40 MLOAD PUSH2 0x1E9 SWAP2 SWAP1 PUSH2 0x1056 JUMP JUMPDEST PUSH1 0x40 MLOAD DUP1 SWAP2 SUB SWAP1 RETURN JUMPDEST CALLVALUE DUP1 ISZERO PUSH2 0x1FD JUMPI PUSH0 DUP1 REVERT JUMPDEST POP PUSH2 0x218 PUSH1 0x4 DUP1 CALLDATASIZE SUB DUP2 ADD SWAP1 PUSH2 0x213 SWAP2 SWAP1 PUSH2 0x1009 JUMP JUMPDEST PUSH2 0x7CA JUMP JUMPDEST PUSH1 0x40 MLOAD PUSH2 0x225 SWAP2 SWAP1 PUSH2 0x1056 JUMP JUMPDEST PUSH1 0x40 MLOAD DUP1 SWAP2 SUB SWAP1 RETURN JUMPDEST CALLVALUE DUP1 ISZERO PUSH2 0x239 JUMPI PUSH0 DUP1 REVERT JUMPDEST POP PUSH2 0x242 PUSH2 0x7F7 JUMP JUMPDEST PUSH1 0x40 MLOAD PUSH2 0x24F SWAP2 SWAP1 PUSH2 0x1056 JUMP JUMPDEST PUSH1 0x40 MLOAD DUP1 SWAP2 SUB SWAP1 RETURN JUMPDEST CALLVALUE DUP1 ISZERO PUSH2 0x263 JUMPI PUSH0 DUP1 REVERT JUMPDEST POP PUSH2 0x27E PUSH1 0x4 DUP1 CALLDATASIZE SUB DUP2 ADD SWAP1 PUSH2 0x279 SWAP2 SWAP1 PUSH2 0x1009 JUMP JUMPDEST PUSH2 0x7FD JUMP JUMPDEST STOP JUMPDEST CALLVALUE DUP1 ISZERO PUSH2 0x28B JUMPI PUSH0 DUP1 REVERT JUMPDEST POP PUSH2 0x2A6 PUSH1 0x4 DUP1 CALLDATASIZE SUB DUP2 ADD SWAP1 PUSH2 0x2A1 SWAP2 SWAP1 PUSH2 0x1144 JUMP JUMPDEST PUSH2 0xBF0 JUMP JUMPDEST STOP JUMPDEST CALLVALUE DUP1 ISZERO PUSH2 0x2B3 JUMPI PUSH0 DUP1 REVERT JUMPDEST POP PUSH2 0x2CE PUSH1 0x4 DUP1 CALLDATASIZE SUB DUP2 ADD SWAP1 PUSH2 0x2C9 SWAP2 SWAP1 PUSH2 0x106F JUMP JUMPDEST PUSH2 0xD52 JUMP JUMPDEST PUSH1 0x40 MLOAD PUSH2 0x2DB SWAP2 SWAP1 PUSH2 0x119C JUMP JUMPDEST PUSH1 0x40 MLOAD DUP1 SWAP2 SUB SWAP1 RETURN JUMPDEST CALLVALUE DUP1 ISZERO PUSH2 0x2EF JUMPI PUSH0 DUP1 REVERT JUMPDEST POP PUSH2 0x30A PUSH1 0x4 DUP1 CALLDATASIZE SUB DUP2 ADD SWAP1 PUSH2 0x305 SWAP2 SWAP1 PUSH2 0x106F JUMP JUMPDEST PUSH2 0xD66 JUMP JUMPDEST PUSH1 0x40 MLOAD PUSH2 0x317 SWAP2 SWAP1 PUSH2 0x1056 JUMP JUMPDEST PUSH1 0x40 MLOAD DUP1 SWAP2 SUB SWAP1 RETURN JUMPDEST CALLVALUE DUP1 ISZERO PUSH2 0x32B JUMPI PUSH0 DUP1 REVERT JUMPDEST POP PUSH2 0x346 PUSH1 0x4 DUP1 CALLDATASIZE SUB DUP2 ADD SWAP1 PUSH2 0x341 SWAP2 SWAP1 PUSH2 0x109A JUMP JUMPDEST PUSH2 0xDF7 JUMP JUMPDEST PUSH1 0x40 MLOAD PUSH2 0x353 SWAP2 SWAP1 PUSH2 0x1056 JUMP JUMPDEST PUSH1 0x40 MLOAD DUP1 SWAP2 SUB SWAP1 RETURN JUMPDEST PUSH0 DUP1 PUSH2 0x368 DUP5 DUP5 PUSH2 0x7CA JUMP JUMPDEST SWAP1 POP PUSH0 PUSH1 0x4 DUP1 PUSH2 0x378 SWAP2 SWAP1 PUSH2 0x11E2 JUMP JUMPDEST PUSH1 0xA PUSH2 0x384 SWAP2 SWAP1 PUSH2 0x1352 JUMP JUMPDEST SWAP1 POP PUSH7 0x24859B044A8000 DUP2 PUSH3 0x588040 PUSH1 0x4 DUP6 PUSH2 0x3A0 SWAP2 SWAP1 PUSH2 0x1352 JUMP JUMPDEST DUP8 PUSH2 0x3AB SWAP2 SWAP1 PUSH2 0x11E2 JUMP JUMPDEST PUSH2 0x3B5 SWAP2 SWAP1 PUSH2 0x13C9 JUMP JUMPDEST PUSH2 0x3BF SWAP2 SWAP1 PUSH2 0x13C9 JUMP JUMPDEST PUSH2 0x3C9 SWAP2 SWAP1 PUSH2 0x13F9 JUMP JUMPDEST SWAP3 POP POP POP SWAP3 SWAP2 POP POP JUMP JUMPDEST PUSH0 CALLVALUE SWAP1 POP PUSH0 DUP2 GT PUSH2 0x419 JUMPI PUSH1 0x40 MLOAD PUSH32 0x8C379A000000000000000000000000000000000000000000000000000000000 DUP2 MSTORE PUSH1 0x4 ADD PUSH2 0x410 SWAP1 PUSH2 0x1486 JUMP JUMPDEST PUSH1 0x40 MLOAD DUP1 SWAP2 SUB SWAP1 REVERT JUMPDEST PUSH0 DUP2 SELFBALANCE PUSH2 0x426 SWAP2 SWAP1 PUSH2 0x14A4 JUMP JUMPDEST SWAP1 POP PUSH0 PUSH2 0x431 PUSH2 0xEB8 JUMP JUMPDEST SWAP1 POP PUSH0 DUP2 PUSH20 0xFFFFFFFFFFFFFFFFFFFFFFFFFFFFFFFFFFFFFFFF AND PUSH4 0x44936B10 PUSH1 0x40 MLOAD DUP2 PUSH4 0xFFFFFFFF AND PUSH1 0xE0 SHL DUP2 MSTORE PUSH1 0x4 ADD PUSH1 0x20 PUSH1 0x40 MLOAD DUP1 DUP4 SUB DUP2 PUSH0 DUP8 GAS CALL ISZERO DUP1 ISZERO PUSH2 0x47E JUMPI RETURNDATASIZE PUSH0 DUP1 RETURNDATACOPY RETURNDATASIZE PUSH0 REVERT JUMPDEST POP POP POP POP PUSH1 0x40 MLOAD RETURNDATASIZE PUSH1 0x1F NOT PUSH1 0x1F DUP3 ADD AND DUP3 ADD DUP1 PUSH1 0x40 MSTORE POP DUP2 ADD SWAP1 PUSH2 0x4A2 SWAP2 SWAP1 PUSH2 0x14EB JUMP JUMPDEST SWAP1 POP PUSH0 PUSH2 0x4AF DUP5 DUP4 PUSH2 0x7CA JUMP JUMPDEST SWAP1 POP PUSH0 PUSH2 0x4BD DUP7 DUP7 DUP6 PUSH2 0x6DB JUMP JUMPDEST SWAP1 POP DUP7 DUP2 LT ISZERO PUSH2 0x502 JUMPI PUSH1 0x40 MLOAD PUSH32 0x8C379A000000000000000000000000000000000000000000000000000000000 DUP2 MSTORE PUSH1 0x4 ADD PUSH2 0x4F9 SWAP1 PUSH2 0x1586 JUMP JUMPDEST PUSH1 0x40 MLOAD DUP1 SWAP2 SUB SWAP1 REVERT JUMPDEST PUSH1 0x1 PUSH0 SWAP1 SLOAD SWAP1 PUSH2 0x100 EXP SWAP1 DIV PUSH20 0xFFFFFFFFFFFFFFFFFFFFFFFFFFFFFFFFFFFFFFFF AND PUSH20 0xFFFFFFFFFFFFFFFFFFFFFFFFFFFFFFFFFFFFFFFF AND PUSH4 0x40C10F19 CALLER DUP4 PUSH1 0x40 MLOAD DUP4 PUSH4 0xFFFFFFFF AND PUSH1 0xE0 SHL DUP2 MSTORE PUSH1 0x4 ADD PUSH2 0x55E SWAP3 SWAP2 SWAP1 PUSH2 0x15C4 JUMP JUMPDEST PUSH0 PUSH1 0x40 MLOAD DUP1 DUP4 SUB DUP2 PUSH0 DUP8 DUP1 EXTCODESIZE ISZERO DUP1 ISZERO PUSH2 0x575 JUMPI PUSH0 DUP1 REVERT JUMPDEST POP GAS CALL ISZERO DUP1 ISZERO PUSH2 0x587 JUMPI RETURNDATASIZE PUSH0 DUP1 RETURNDATACOPY RETURNDATASIZE PUSH0 REVERT JUMPDEST POP POP POP POP DUP4 PUSH20 0xFFFFFFFFFFFFFFFFFFFFFFFFFFFFFFFFFFFFFFFF AND PUSH4 0xAA5DA046 PUSH1 0x40 MLOAD DUP2 PUSH4 0xFFFFFFFF AND PUSH1 0xE0 SHL DUP2 MSTORE PUSH1 0x4 ADD PUSH0 PUSH1 0x40 MLOAD DUP1 DUP4 SUB DUP2 PUSH0 DUP8 DUP1 EXTCODESIZE ISZERO DUP1 ISZERO PUSH2 0x5D0 JUMPI PUSH0 DUP1 REVERT JUMPDEST POP GAS CALL ISZERO DUP1 ISZERO PUSH2 0x5E2 JUMPI RETURNDATASIZE PUSH0 DUP1 RETURNDATACOPY RETURNDATASIZE PUSH0 REVERT JUMPDEST POP POP POP POP CALLER PUSH20 0xFFFFFFFFFFFFFFFFFFFFFFFFFFFFFFFFFFFFFFFF AND PUSH32 0xC5FC954940739C9D45B12CD63FEC8B2FB3887D642D3572CF741E45F30088AD93 DUP8 DUP4 PUSH1 0x40 MLOAD PUSH2 0x62E SWAP3 SWAP2 SWAP1 PUSH2 0x15EB JUMP JUMPDEST PUSH1 0x40 MLOAD DUP1 SWAP2 SUB SWAP1 LOG2 POP POP POP POP POP POP POP JUMP JUMPDEST PUSH2 0x1F4 DUP2 JUMP JUMPDEST PUSH1 0x4 DUP2 JUMP JUMPDEST PUSH0 DUP1 SELFBALANCE SWAP1 POP PUSH0 PUSH2 0x658 PUSH2 0xEB8 JUMP JUMPDEST PUSH20 0xFFFFFFFFFFFFFFFFFFFFFFFFFFFFFFFFFFFFFFFF AND PUSH4 0x44936B10 PUSH1 0x40 MLOAD DUP2 PUSH4 0xFFFFFFFF AND PUSH1 0xE0 SHL DUP2 MSTORE PUSH1 0x4 ADD PUSH1 0x20 PUSH1 0x40 MLOAD DUP1 DUP4 SUB DUP2 PUSH0 DUP8 GAS CALL ISZERO DUP1 ISZERO PUSH2 0x6A1 JUMPI RETURNDATASIZE PUSH0 DUP1 RETURNDATACOPY RETURNDATASIZE PUSH0 REVERT JUMPDEST POP POP POP POP PUSH1 0x40 MLOAD RETURNDATASIZE PUSH1 0x1F NOT PUSH1 0x1F DUP3 ADD AND DUP3 ADD DUP1 PUSH1 0x40 MSTORE POP DUP2 ADD SWAP1 PUSH2 0x6C5 SWAP2 SWAP1 PUSH2 0x14EB JUMP JUMPDEST SWAP1 POP PUSH2 0x6D2 DUP5 DUP4 DUP4 PUSH2 0x6DB JUMP JUMPDEST SWAP3 POP POP POP SWAP2 SWAP1 POP JUMP JUMPDEST PUSH0 DUP1 DUP4 EQ DUP1 PUSH2 0x6F9 JUMPI POP PUSH5 0xE8D4A51000 DUP4 DUP4 PUSH2 0x6F7 SWAP2 SWAP1 PUSH2 0x13C9 JUMP JUMPDEST GT JUMPDEST ISZERO PUSH2 0x72B JUMPI PUSH7 0x24859B044A8000 PUSH8 0xDE0B6B3A7640000 DUP6 PUSH2 0x71A SWAP2 SWAP1 PUSH2 0x11E2 JUMP JUMPDEST PUSH2 0x724 SWAP2 SWAP1 PUSH2 0x13C9 JUMP JUMPDEST SWAP1 POP PUSH2 0x7C3 JUMP JUMPDEST PUSH0 PUSH2 0x736 DUP5 DUP5 PUSH2 0xF4C JUMP JUMPDEST SWAP1 POP PUSH0 DUP6 DUP6 PUSH2 0x745 SWAP2 SWAP1 PUSH2 0x13F9 JUMP JUMPDEST SWAP1 POP PUSH0 PUSH2 0x752 DUP3 DUP7 PUSH2 0xF4C JUMP JUMPDEST SWAP1 POP PUSH0 DUP2 DUP5 PUSH2 0x761 SWAP2 SWAP1 PUSH2 0x14A4 JUMP JUMPDEST SWAP1 POP PUSH0 DUP2 PUSH8 0xDE0B6B3A7640000 DUP11 PUSH2 0x779 SWAP2 SWAP1 PUSH2 0x11E2 JUMP JUMPDEST PUSH2 0x783 SWAP2 SWAP1 PUSH2 0x13C9 JUMP JUMPDEST SWAP1 POP PUSH0 PUSH7 0x24859B044A8000 DUP3 PUSH2 0x799 SWAP2 SWAP1 PUSH2 0x13F9 JUMP JUMPDEST SWAP1 POP DUP1 PUSH8 0xDE0B6B3A7640000 DUP12 PUSH2 0x7B0 SWAP2 SWAP1 PUSH2 0x11E2 JUMP JUMPDEST PUSH2 0x7BA SWAP2 SWAP1 PUSH2 0x13C9 JUMP JUMPDEST SWAP7 POP POP POP POP POP POP POP JUMPDEST SWAP4 SWAP3 POP POP POP JUMP JUMPDEST PUSH0 DUP2 PUSH1 0x4 PUSH1 0xA PUSH2 0x7DA SWAP2 SWAP1 PUSH2 0x1352 JUMP JUMPDEST DUP5 PUSH2 0x7E5 SWAP2 SWAP1 PUSH2 0x11E2 JUMP JUMPDEST PUSH2 0x7EF SWAP2 SWAP1 PUSH2 0x13C9 JUMP JUMPDEST SWAP1 POP SWAP3 SWAP2 POP POP JUMP JUMPDEST PUSH2 0x9C40 DUP2 JUMP JUMPDEST DUP2 PUSH1 0x1 PUSH0 SWAP1 SLOAD SWAP1 PUSH2 0x100 EXP SWAP1 DIV PUSH20 0xFFFFFFFFFFFFFFFFFFFFFFFFFFFFFFFFFFFFFFFF AND PUSH20 0xFFFFFFFFFFFFFFFFFFFFFFFFFFFFFFFFFFFFFFFF AND PUSH4 0x70A08231 CALLER PUSH1 0x40 MLOAD DUP3 PUSH4 0xFFFFFFFF AND PUSH1 0xE0 SHL DUP2 MSTORE PUSH1 0x4 ADD PUSH2 0x858 SWAP2 SWAP1 PUSH2 0x1612 JUMP JUMPDEST PUSH1 0x20 PUSH1 0x40 MLOAD DUP1 DUP4 SUB DUP2 DUP7 GAS STATICCALL ISZERO DUP1 ISZERO PUSH2 0x873 JUMPI RETURNDATASIZE PUSH0 DUP1 RETURNDATACOPY RETURNDATASIZE PUSH0 REVERT JUMPDEST POP POP POP POP PUSH1 0x40 MLOAD RETURNDATASIZE PUSH1 0x1F NOT PUSH1 0x1F DUP3 ADD AND DUP3 ADD DUP1 PUSH1 0x40 MSTORE POP DUP2 ADD SWAP1 PUSH2 0x897 SWAP2 SWAP1 PUSH2 0x14EB JUMP JUMPDEST LT ISZERO PUSH2 0x8D8 JUMPI PUSH1 0x40 MLOAD PUSH32 0x8C379A000000000000000000000000000000000000000000000000000000000 DUP2 MSTORE PUSH1 0x4 ADD PUSH2 0x8CF SWAP1 PUSH2 0x1675 JUMP JUMPDEST PUSH1 0x40 MLOAD DUP1 SWAP2 SUB SWAP1 REVERT JUMPDEST PUSH0 PUSH2 0x8E1 PUSH2 0xEB8 JUMP JUMPDEST SWAP1 POP PUSH0 SELFBALANCE SWAP1 POP PUSH0 DUP3 PUSH20 0xFFFFFFFFFFFFFFFFFFFFFFFFFFFFFFFFFFFFFFFF AND PUSH4 0x44936B10 PUSH1 0x40 MLOAD DUP2 PUSH4 0xFFFFFFFF AND PUSH1 0xE0 SHL DUP2 MSTORE PUSH1 0x4 ADD PUSH1 0x20 PUSH1 0x40 MLOAD DUP1 DUP4 SUB DUP2 PUSH0 DUP8 GAS CALL ISZERO DUP1 ISZERO PUSH2 0x932 JUMPI RETURNDATASIZE PUSH0 DUP1 RETURNDATACOPY RETURNDATASIZE PUSH0 REVERT JUMPDEST POP POP POP POP PUSH1 0x40 MLOAD RETURNDATASIZE PUSH1 0x1F NOT PUSH1 0x1F DUP3 ADD AND DUP3 ADD DUP1 PUSH1 0x40 MSTORE POP DUP2 ADD SWAP1 PUSH2 0x956 SWAP2 SWAP1 PUSH2 0x14EB JUMP JUMPDEST SWAP1 POP PUSH0 PUSH2 0x964 DUP7 DUP5 DUP5 PUSH2 0xDF7 JUMP JUMPDEST SWAP1 POP DUP2 DUP2 DUP5 PUSH2 0x973 SWAP2 SWAP1 PUSH2 0x14A4 JUMP JUMPDEST LT ISZERO PUSH2 0x9B4 JUMPI PUSH1 0x40 MLOAD PUSH32 0x8C379A000000000000000000000000000000000000000000000000000000000 DUP2 MSTORE PUSH1 0x4 ADD PUSH2 0x9AB SWAP1 PUSH2 0x1703 JUMP JUMPDEST PUSH1 0x40 MLOAD DUP1 SWAP2 SUB SWAP1 REVERT JUMPDEST DUP5 DUP2 LT ISZERO PUSH2 0x9F7 JUMPI PUSH1 0x40 MLOAD PUSH32 0x8C379A000000000000000000000000000000000000000000000000000000000 DUP2 MSTORE PUSH1 0x4 ADD PUSH2 0x9EE SWAP1 PUSH2 0x176B JUMP JUMPDEST PUSH1 0x40 MLOAD DUP1 SWAP2 SUB SWAP1 REVERT JUMPDEST PUSH1 0x1 PUSH0 SWAP1 SLOAD SWAP1 PUSH2 0x100 EXP SWAP1 DIV PUSH20 0xFFFFFFFFFFFFFFFFFFFFFFFFFFFFFFFFFFFFFFFF AND PUSH20 0xFFFFFFFFFFFFFFFFFFFFFFFFFFFFFFFFFFFFFFFF AND PUSH4 0x79CC6790 CALLER DUP9 PUSH1 0x40 MLOAD DUP4 PUSH4 0xFFFFFFFF AND PUSH1 0xE0 SHL DUP2 MSTORE PUSH1 0x4 ADD PUSH2 0xA53 SWAP3 SWAP2 SWAP1 PUSH2 0x15C4 JUMP JUMPDEST PUSH1 0x20 PUSH1 0x40 MLOAD DUP1 DUP4 SUB DUP2 PUSH0 DUP8 GAS CALL ISZERO DUP1 ISZERO PUSH2 0xA6F JUMPI RETURNDATASIZE PUSH0 DUP1 RETURNDATACOPY RETURNDATASIZE PUSH0 REVERT JUMPDEST POP POP POP POP PUSH1 0x40 MLOAD RETURNDATASIZE PUSH1 0x1F NOT PUSH1 0x1F DUP3 ADD AND DUP3 ADD DUP1 PUSH1 0x40 MSTORE POP DUP2 ADD SWAP1 PUSH2 0xA93 SWAP2 SWAP1 PUSH2 0x17B3 JUMP JUMPDEST POP PUSH0 CALLER PUSH20 0xFFFFFFFFFFFFFFFFFFFFFFFFFFFFFFFFFFFFFFFF AND DUP3 PUSH1 0x40 MLOAD PUSH2 0xAB9 SWAP1 PUSH2 0x180B JUMP JUMPDEST PUSH0 PUSH1 0x40 MLOAD DUP1 DUP4 SUB DUP2 DUP6 DUP8 GAS CALL SWAP3 POP POP POP RETURNDATASIZE DUP1 PUSH0 DUP2 EQ PUSH2 0xAF3 JUMPI PUSH1 0x40 MLOAD SWAP2 POP PUSH1 0x1F NOT PUSH1 0x3F RETURNDATASIZE ADD AND DUP3 ADD PUSH1 0x40 MSTORE RETURNDATASIZE DUP3 MSTORE RETURNDATASIZE PUSH0 PUSH1 0x20 DUP5 ADD RETURNDATACOPY PUSH2 0xAF8 JUMP JUMPDEST PUSH1 0x60 SWAP2 POP JUMPDEST POP POP SWAP1 POP DUP1 PUSH2 0xB3C JUMPI PUSH1 0x40 MLOAD PUSH32 0x8C379A000000000000000000000000000000000000000000000000000000000 DUP2 MSTORE PUSH1 0x4 ADD PUSH2 0xB33 SWAP1 PUSH2 0x1869 JUMP JUMPDEST PUSH1 0x40 MLOAD DUP1 SWAP2 SUB SWAP1 REVERT JUMPDEST DUP5 PUSH20 0xFFFFFFFFFFFFFFFFFFFFFFFFFFFFFFFFFFFFFFFF AND PUSH4 0xAA5DA046 PUSH1 0x40 MLOAD DUP2 PUSH4 0xFFFFFFFF AND PUSH1 0xE0 SHL DUP2 MSTORE PUSH1 0x4 ADD PUSH0 PUSH1 0x40 MLOAD DUP1 DUP4 SUB DUP2 PUSH0 DUP8 DUP1 EXTCODESIZE ISZERO DUP1 ISZERO PUSH2 0xB81 JUMPI PUSH0 DUP1 REVERT JUMPDEST POP GAS CALL ISZERO DUP1 ISZERO PUSH2 0xB93 JUMPI RETURNDATASIZE PUSH0 DUP1 RETURNDATACOPY RETURNDATASIZE PUSH0 REVERT JUMPDEST POP POP POP POP CALLER PUSH20 0xFFFFFFFFFFFFFFFFFFFFFFFFFFFFFFFFFFFFFFFF AND PUSH32 0x1D1DDCA8AA909E7F7FC055611B4269F6C858AD1E95735416F86F08C2D49E7473 DUP9 DUP5 PUSH1 0x40 MLOAD PUSH2 0xBDF SWAP3 SWAP2 SWAP1 PUSH2 0x15EB JUMP JUMPDEST PUSH1 0x40 MLOAD DUP1 SWAP2 SUB SWAP1 LOG2 POP POP POP POP POP POP POP JUMP JUMPDEST PUSH0 DUP3 PUSH20 0xFFFFFFFFFFFFFFFFFFFFFFFFFFFFFFFFFFFFFFFF AND DUP3 PUSH1 0x40 MLOAD PUSH2 0xC15 SWAP1 PUSH2 0x180B JUMP JUMPDEST PUSH0 PUSH1 0x40 MLOAD DUP1 DUP4 SUB DUP2 DUP6 DUP8 GAS CALL SWAP3 POP POP POP RETURNDATASIZE DUP1 PUSH0 DUP2 EQ PUSH2 0xC4F JUMPI PUSH1 0x40 MLOAD SWAP2 POP PUSH1 0x1F NOT PUSH1 0x3F RETURNDATASIZE ADD AND DUP3 ADD PUSH1 0x40 MSTORE RETURNDATASIZE DUP3 MSTORE RETURNDATASIZE PUSH0 PUSH1 0x20 DUP5 ADD RETURNDATACOPY PUSH2 0xC54 JUMP JUMPDEST PUSH1 0x60 SWAP2 POP JUMPDEST POP POP SWAP1 POP DUP1 PUSH2 0xC98 JUMPI PUSH1 0x40 MLOAD PUSH32 0x8C379A000000000000000000000000000000000000000000000000000000000 DUP2 MSTORE PUSH1 0x4 ADD PUSH2 0xC8F SWAP1 PUSH2 0x18D1 JUMP JUMPDEST PUSH1 0x40 MLOAD DUP1 SWAP2 SUB SWAP1 REVERT JUMPDEST DUP3 PUSH20 0xFFFFFFFFFFFFFFFFFFFFFFFFFFFFFFFFFFFFFFFF AND PUSH32 0x5AFECA38B2064C23A692C4CF353015D80AB3ECC417B4F893F372690C11FBD9A6 DUP4 PUSH1 0x40 MLOAD PUSH2 0xCDE SWAP2 SWAP1 PUSH2 0x1056 JUMP JUMPDEST PUSH1 0x40 MLOAD DUP1 SWAP2 SUB SWAP1 LOG2 PUSH0 SELFBALANCE SWAP1 POP PUSH2 0xCF2 PUSH2 0xEB8 JUMP JUMPDEST PUSH20 0xFFFFFFFFFFFFFFFFFFFFFFFFFFFFFFFFFFFFFFFF AND PUSH4 0xAA5DA046 PUSH1 0x40 MLOAD DUP2 PUSH4 0xFFFFFFFF AND PUSH1 0xE0 SHL DUP2 MSTORE PUSH1 0x4 ADD PUSH0 PUSH1 0x40 MLOAD DUP1 DUP4 SUB DUP2 PUSH0 DUP8 DUP1 EXTCODESIZE ISZERO DUP1 ISZERO PUSH2 0xD36 JUMPI PUSH0 DUP1 REVERT JUMPDEST POP GAS CALL ISZERO DUP1 ISZERO PUSH2 0xD48 JUMPI RETURNDATASIZE PUSH0 DUP1 RETURNDATACOPY RETURNDATASIZE PUSH0 REVERT JUMPDEST POP POP POP POP POP POP POP POP JUMP JUMPDEST PUSH0 PUSH2 0xD5D DUP3 PUSH0 PUSH2 0x7FD JUMP JUMPDEST PUSH1 0x1 SWAP1 POP SWAP2 SWAP1 POP JUMP JUMPDEST PUSH0 DUP1 SELFBALANCE SWAP1 POP PUSH0 PUSH2 0xD74 PUSH2 0xEB8 JUMP JUMPDEST PUSH20 0xFFFFFFFFFFFFFFFFFFFFFFFFFFFFFFFFFFFFFFFF AND PUSH4 0x44936B10 PUSH1 0x40 MLOAD DUP2 PUSH4 0xFFFFFFFF AND PUSH1 0xE0 SHL DUP2 MSTORE PUSH1 0x4 ADD PUSH1 0x20 PUSH1 0x40 MLOAD DUP1 DUP4 SUB DUP2 PUSH0 DUP8 GAS CALL ISZERO DUP1 ISZERO PUSH2 0xDBD JUMPI RETURNDATASIZE PUSH0 DUP1 RETURNDATACOPY RETURNDATASIZE PUSH0 REVERT JUMPDEST POP POP POP POP PUSH1 0x40 MLOAD RETURNDATASIZE PUSH1 0x1F NOT PUSH1 0x1F DUP3 ADD AND DUP3 ADD DUP1 PUSH1 0x40 MSTORE POP DUP2 ADD SWAP1 PUSH2 0xDE1 SWAP2 SWAP1 PUSH2 0x14EB JUMP JUMPDEST SWAP1 POP PUSH2 0xDEE DUP5 DUP4 DUP4 PUSH2 0xDF7 JUMP JUMPDEST SWAP3 POP POP POP SWAP2 SWAP1 POP JUMP JUMPDEST PUSH0 DUP1 PUSH2 0xE03 DUP5 DUP5 PUSH2 0x35C JUMP JUMPDEST SWAP1 POP PUSH0 PUSH8 0xDE0B6B3A7640000 DUP3 DUP8 PUSH2 0xE1B SWAP2 SWAP1 PUSH2 0x11E2 JUMP JUMPDEST PUSH2 0xE25 SWAP2 SWAP1 PUSH2 0x13C9 JUMP JUMPDEST SWAP1 POP PUSH0 DUP2 DUP7 PUSH2 0xE34 SWAP2 SWAP1 PUSH2 0x14A4 JUMP JUMPDEST SWAP1 POP PUSH0 PUSH2 0xE41 DUP3 DUP8 PUSH2 0x35C JUMP JUMPDEST SWAP1 POP PUSH0 PUSH2 0x3E8 PUSH2 0x3CF PUSH1 0x2 DUP5 DUP9 PUSH2 0xE58 SWAP2 SWAP1 PUSH2 0x13F9 JUMP JUMPDEST PUSH2 0xE62 SWAP2 SWAP1 PUSH2 0x13C9 JUMP JUMPDEST PUSH2 0xE6C SWAP2 SWAP1 PUSH2 0x11E2 JUMP JUMPDEST PUSH2 0xE76 SWAP2 SWAP1 PUSH2 0x13C9 JUMP JUMPDEST SWAP1 POP PUSH0 PUSH2 0xE83 DUP3 DUP5 PUSH2 0xFBA JUMP JUMPDEST SWAP1 POP PUSH0 PUSH8 0xDE0B6B3A7640000 DUP12 DUP4 PUSH2 0xE9B SWAP2 SWAP1 PUSH2 0x11E2 JUMP JUMPDEST PUSH2 0xEA5 SWAP2 SWAP1 PUSH2 0x13C9 JUMP JUMPDEST SWAP1 POP DUP1 SWAP8 POP POP POP POP POP POP POP POP SWAP4 SWAP3 POP POP POP JUMP JUMPDEST PUSH0 PUSH1 0x2 PUSH0 SWAP1 SLOAD SWAP1 PUSH2 0x100 EXP SWAP1 DIV PUSH20 0xFFFFFFFFFFFFFFFFFFFFFFFFFFFFFFFFFFFFFFFF AND PUSH20 0xFFFFFFFFFFFFFFFFFFFFFFFFFFFFFFFFFFFFFFFF AND PUSH4 0x88EA0751 PUSH1 0x40 MLOAD DUP2 PUSH4 0xFFFFFFFF AND PUSH1 0xE0 SHL DUP2 MSTORE PUSH1 0x4 ADD PUSH1 0x20 PUSH1 0x40 MLOAD DUP1 DUP4 SUB DUP2 DUP7 GAS STATICCALL ISZERO DUP1 ISZERO PUSH2 0xF23 JUMPI RETURNDATASIZE PUSH0 DUP1 RETURNDATACOPY RETURNDATASIZE PUSH0 REVERT JUMPDEST POP POP POP POP PUSH1 0x40 MLOAD RETURNDATASIZE PUSH1 0x1F NOT PUSH1 0x1F DUP3 ADD AND DUP3 ADD DUP1 PUSH1 0x40 MSTORE POP DUP2 ADD SWAP1 PUSH2 0xF47 SWAP2 SWAP1 PUSH2 0x1919 JUMP JUMPDEST SWAP1 POP SWAP1 JUMP JUMPDEST PUSH0 DUP3 DUP3 DUP5 DUP5 DUP7 DUP7 PUSH1 0x3 PUSH8 0xDE0B6B3A7640000 PUSH3 0x588040 PUSH2 0xF6C SWAP2 SWAP1 PUSH2 0x11E2 JUMP JUMPDEST PUSH2 0xF76 SWAP2 SWAP1 PUSH2 0x13C9 JUMP JUMPDEST PUSH2 0xF80 SWAP2 SWAP1 PUSH2 0x11E2 JUMP JUMPDEST PUSH2 0xF8A SWAP2 SWAP1 PUSH2 0x13C9 JUMP JUMPDEST PUSH2 0xF94 SWAP2 SWAP1 PUSH2 0x11E2 JUMP JUMPDEST PUSH2 0xF9E SWAP2 SWAP1 PUSH2 0x13C9 JUMP JUMPDEST PUSH2 0xFA8 SWAP2 SWAP1 PUSH2 0x11E2 JUMP JUMPDEST PUSH2 0xFB2 SWAP2 SWAP1 PUSH2 0x13C9 JUMP JUMPDEST SWAP1 POP SWAP3 SWAP2 POP POP JUMP JUMPDEST PUSH0 DUP2 DUP4 LT PUSH2 0xFC8 JUMPI DUP2 PUSH2 0xFCA JUMP JUMPDEST DUP3 JUMPDEST SWAP1 POP SWAP3 SWAP2 POP POP JUMP JUMPDEST PUSH0 DUP1 REVERT JUMPDEST PUSH0 DUP2 SWAP1 POP SWAP2 SWAP1 POP JUMP JUMPDEST PUSH2 0xFE8 DUP2 PUSH2 0xFD6 JUMP JUMPDEST DUP2 EQ PUSH2 0xFF2 JUMPI PUSH0 DUP1 REVERT JUMPDEST POP JUMP JUMPDEST PUSH0 DUP2 CALLDATALOAD SWAP1 POP PUSH2 0x1003 DUP2 PUSH2 0xFDF JUMP JUMPDEST SWAP3 SWAP2 POP POP JUMP JUMPDEST PUSH0 DUP1 PUSH1 0x40 DUP4 DUP6 SUB SLT ISZERO PUSH2 0x101F JUMPI PUSH2 0x101E PUSH2 0xFD2 JUMP JUMPDEST JUMPDEST PUSH0 PUSH2 0x102C DUP6 DUP3 DUP7 ADD PUSH2 0xFF5 JUMP JUMPDEST SWAP3 POP POP PUSH1 0x20 PUSH2 0x103D DUP6 DUP3 DUP7 ADD PUSH2 0xFF5 JUMP JUMPDEST SWAP2 POP POP SWAP3 POP SWAP3 SWAP1 POP JUMP JUMPDEST PUSH2 0x1050 DUP2 PUSH2 0xFD6 JUMP JUMPDEST DUP3 MSTORE POP POP JUMP JUMPDEST PUSH0 PUSH1 0x20 DUP3 ADD SWAP1 POP PUSH2 0x1069 PUSH0 DUP4 ADD DUP5 PUSH2 0x1047 JUMP JUMPDEST SWAP3 SWAP2 POP POP JUMP JUMPDEST PUSH0 PUSH1 0x20 DUP3 DUP5 SUB SLT ISZERO PUSH2 0x1084 JUMPI PUSH2 0x1083 PUSH2 0xFD2 JUMP JUMPDEST JUMPDEST PUSH0 PUSH2 0x1091 DUP5 DUP3 DUP6 ADD PUSH2 0xFF5 JUMP JUMPDEST SWAP2 POP POP SWAP3 SWAP2 POP POP JUMP JUMPDEST PUSH0 DUP1 PUSH0 PUSH1 0x60 DUP5 DUP7 SUB SLT ISZERO PUSH2 0x10B1 JUMPI PUSH2 0x10B0 PUSH2 0xFD2 JUMP JUMPDEST JUMPDEST PUSH0 PUSH2 0x10BE DUP7 DUP3 DUP8 ADD PUSH2 0xFF5 JUMP JUMPDEST SWAP4 POP POP PUSH1 0x20 PUSH2 0x10CF DUP7 DUP3 DUP8 ADD PUSH2 0xFF5 JUMP JUMPDEST SWAP3 POP POP PUSH1 0x40 PUSH2 0x10E0 DUP7 DUP3 DUP8 ADD PUSH2 0xFF5 JUMP JUMPDEST SWAP2 POP POP SWAP3 POP SWAP3 POP SWAP3 JUMP JUMPDEST PUSH0 PUSH20 0xFFFFFFFFFFFFFFFFFFFFFFFFFFFFFFFFFFFFFFFF DUP3 AND SWAP1 POP SWAP2 SWAP1 POP JUMP JUMPDEST PUSH0 PUSH2 0x1113 DUP3 PUSH2 0x10EA JUMP JUMPDEST SWAP1 POP SWAP2 SWAP1 POP JUMP JUMPDEST PUSH2 0x1123 DUP2 PUSH2 0x1109 JUMP JUMPDEST DUP2 EQ PUSH2 0x112D JUMPI PUSH0 DUP1 REVERT JUMPDEST POP JUMP JUMPDEST PUSH0 DUP2 CALLDATALOAD SWAP1 POP PUSH2 0x113E DUP2 PUSH2 0x111A JUMP JUMPDEST SWAP3 SWAP2 POP POP JUMP JUMPDEST PUSH0 DUP1 PUSH1 0x40 DUP4 DUP6 SUB SLT ISZERO PUSH2 0x115A JUMPI PUSH2 0x1159 PUSH2 0xFD2 JUMP JUMPDEST JUMPDEST PUSH0 PUSH2 0x1167 DUP6 DUP3 DUP7 ADD PUSH2 0x1130 JUMP JUMPDEST SWAP3 POP POP PUSH1 0x20 PUSH2 0x1178 DUP6 DUP3 DUP7 ADD PUSH2 0xFF5 JUMP JUMPDEST SWAP2 POP POP SWAP3 POP SWAP3 SWAP1 POP JUMP JUMPDEST PUSH0 DUP2 ISZERO ISZERO SWAP1 POP SWAP2 SWAP1 POP JUMP JUMPDEST PUSH2 0x1196 DUP2 PUSH2 0x1182 JUMP JUMPDEST DUP3 MSTORE POP POP JUMP JUMPDEST PUSH0 PUSH1 0x20 DUP3 ADD SWAP1 POP PUSH2 0x11AF PUSH0 DUP4 ADD DUP5 PUSH2 0x118D JUMP JUMPDEST SWAP3 SWAP2 POP POP JUMP JUMPDEST PUSH32 0x4E487B7100000000000000000000000000000000000000000000000000000000 PUSH0 MSTORE PUSH1 0x11 PUSH1 0x4 MSTORE PUSH1 0x24 PUSH0 REVERT JUMPDEST PUSH0 PUSH2 0x11EC DUP3 PUSH2 0xFD6 JUMP JUMPDEST SWAP2 POP PUSH2 0x11F7 DUP4 PUSH2 0xFD6 JUMP JUMPDEST SWAP3 POP DUP3 DUP3 MUL PUSH2 0x1205 DUP2 PUSH2 0xFD6 JUMP JUMPDEST SWAP2 POP DUP3 DUP3 DIV DUP5 EQ DUP4 ISZERO OR PUSH2 0x121C JUMPI PUSH2 0x121B PUSH2 0x11B5 JUMP JUMPDEST JUMPDEST POP SWAP3 SWAP2 POP POP JUMP JUMPDEST PUSH0 DUP2 PUSH1 0x1 SHR SWAP1 POP SWAP2 SWAP1 POP JUMP JUMPDEST PUSH0 DUP1 DUP3 SWAP2 POP DUP4 SWAP1 POP JUMPDEST PUSH1 0x1 DUP6 GT ISZERO PUSH2 0x1278 JUMPI DUP1 DUP7 DIV DUP2 GT ISZERO PUSH2 0x1254 JUMPI PUSH2 0x1253 PUSH2 0x11B5 JUMP JUMPDEST JUMPDEST PUSH1 0x1 DUP6 AND ISZERO PUSH2 0x1263 JUMPI DUP1 DUP3 MUL SWAP2 POP JUMPDEST DUP1 DUP2 MUL SWAP1 POP PUSH2 0x1271 DUP6 PUSH2 0x1223 JUMP JUMPDEST SWAP5 POP PUSH2 0x1238 JUMP JUMPDEST SWAP5 POP SWAP5 SWAP3 POP POP POP JUMP JUMPDEST PUSH0 DUP3 PUSH2 0x1290 JUMPI PUSH1 0x1 SWAP1 POP PUSH2 0x134B JUMP JUMPDEST DUP2 PUSH2 0x129D JUMPI PUSH0 SWAP1 POP PUSH2 0x134B JUMP JUMPDEST DUP2 PUSH1 0x1 DUP2 EQ PUSH2 0x12B3 JUMPI PUSH1 0x2 DUP2 EQ PUSH2 0x12BD JUMPI PUSH2 0x12EC JUMP JUMPDEST PUSH1 0x1 SWAP2 POP POP PUSH2 0x134B JUMP JUMPDEST PUSH1 0xFF DUP5 GT ISZERO PUSH2 0x12CF JUMPI PUSH2 0x12CE PUSH2 0x11B5 JUMP JUMPDEST JUMPDEST DUP4 PUSH1 0x2 EXP SWAP2 POP DUP5 DUP3 GT ISZERO PUSH2 0x12E6 JUMPI PUSH2 0x12E5 PUSH2 0x11B5 JUMP JUMPDEST JUMPDEST POP PUSH2 0x134B JUMP JUMPDEST POP PUSH1 0x20 DUP4 LT PUSH2 0x133 DUP4 LT AND PUSH1 0x4E DUP5 LT PUSH1 0xB DUP5 LT AND OR ISZERO PUSH2 0x1321 JUMPI DUP3 DUP3 EXP SWAP1 POP DUP4 DUP2 GT ISZERO PUSH2 0x131C JUMPI PUSH2 0x131B PUSH2 0x11B5 JUMP JUMPDEST JUMPDEST PUSH2 0x134B JUMP JUMPDEST PUSH2 0x132E DUP5 DUP5 DUP5 PUSH1 0x1 PUSH2 0x122F JUMP JUMPDEST SWAP3 POP SWAP1 POP DUP2 DUP5 DIV DUP2 GT ISZERO PUSH2 0x1345 JUMPI PUSH2 0x1344 PUSH2 0x11B5 JUMP JUMPDEST JUMPDEST DUP2 DUP2 MUL SWAP1 POP JUMPDEST SWAP4 SWAP3 POP POP POP JUMP JUMPDEST PUSH0 PUSH2 0x135C DUP3 PUSH2 0xFD6 JUMP JUMPDEST SWAP2 POP PUSH2 0x1367 DUP4 PUSH2 0xFD6 JUMP JUMPDEST SWAP3 POP PUSH2 0x1394 PUSH32 0xFFFFFFFFFFFFFFFFFFFFFFFFFFFFFFFFFFFFFFFFFFFFFFFFFFFFFFFFFFFFFFFF DUP5 DUP5 PUSH2 0x1281 JUMP JUMPDEST SWAP1 POP SWAP3 SWAP2 POP POP JUMP JUMPDEST PUSH32 0x4E487B7100000000000000000000000000000000000000000000000000000000 PUSH0 MSTORE PUSH1 0x12 PUSH1 0x4 MSTORE PUSH1 0x24 PUSH0 REVERT JUMPDEST PUSH0 PUSH2 0x13D3 DUP3 PUSH2 0xFD6 JUMP JUMPDEST SWAP2 POP PUSH2 0x13DE DUP4 PUSH2 0xFD6 JUMP JUMPDEST SWAP3 POP DUP3 PUSH2 0x13EE JUMPI PUSH2 0x13ED PUSH2 0x139C JUMP JUMPDEST JUMPDEST DUP3 DUP3 DIV SWAP1 POP SWAP3 SWAP2 POP POP JUMP JUMPDEST PUSH0 PUSH2 0x1403 DUP3 PUSH2 0xFD6 JUMP JUMPDEST SWAP2 POP PUSH2 0x140E DUP4 PUSH2 0xFD6 JUMP JUMPDEST SWAP3 POP DUP3 DUP3 ADD SWAP1 POP DUP1 DUP3 GT ISZERO PUSH2 0x1426 JUMPI PUSH2 0x1425 PUSH2 0x11B5 JUMP JUMPDEST JUMPDEST SWAP3 SWAP2 POP POP JUMP JUMPDEST PUSH0 DUP3 DUP3 MSTORE PUSH1 0x20 DUP3 ADD SWAP1 POP SWAP3 SWAP2 POP POP JUMP JUMPDEST PUSH32 0x506F6F6C3A20657468496E203E20300000000000000000000000000000000000 PUSH0 DUP3 ADD MSTORE POP JUMP JUMPDEST PUSH0 PUSH2 0x1470 PUSH1 0xF DUP4 PUSH2 0x142C JUMP JUMPDEST SWAP2 POP PUSH2 0x147B DUP3 PUSH2 0x143C JUMP JUMPDEST PUSH1 0x20 DUP3 ADD SWAP1 POP SWAP2 SWAP1 POP JUMP JUMPDEST PUSH0 PUSH1 0x20 DUP3 ADD SWAP1 POP DUP2 DUP2 SUB PUSH0 DUP4 ADD MSTORE PUSH2 0x149D DUP2 PUSH2 0x1464 JUMP JUMPDEST SWAP1 POP SWAP2 SWAP1 POP JUMP JUMPDEST PUSH0 PUSH2 0x14AE DUP3 PUSH2 0xFD6 JUMP JUMPDEST SWAP2 POP PUSH2 0x14B9 DUP4 PUSH2 0xFD6 JUMP JUMPDEST SWAP3 POP DUP3 DUP3 SUB SWAP1 POP DUP2 DUP2 GT ISZERO PUSH2 0x14D1 JUMPI PUSH2 0x14D0 PUSH2 0x11B5 JUMP JUMPDEST JUMPDEST SWAP3 SWAP2 POP POP JUMP JUMPDEST PUSH0 DUP2 MLOAD SWAP1 POP PUSH2 0x14E5 DUP2 PUSH2 0xFDF JUMP JUMPDEST SWAP3 SWAP2 POP POP JUMP JUMPDEST PUSH0 PUSH1 0x20 DUP3 DUP5 SUB SLT ISZERO PUSH2 0x1500 JUMPI PUSH2 0x14FF PUSH2 0xFD2 JUMP JUMPDEST JUMPDEST PUSH0 PUSH2 0x150D DUP5 DUP3 DUP6 ADD PUSH2 0x14D7 JUMP JUMPDEST SWAP2 POP POP SWAP3 SWAP2 POP POP JUMP JUMPDEST PUSH32 0x506F6F6C3A20746F6B656E734F7574206973206C657373207468616E206D696E PUSH0 DUP3 ADD MSTORE PUSH32 0x546F6B656E734F75740000000000000000000000000000000000000000000000 PUSH1 0x20 DUP3 ADD MSTORE POP JUMP JUMPDEST PUSH0 PUSH2 0x1570 PUSH1 0x29 DUP4 PUSH2 0x142C JUMP JUMPDEST SWAP2 POP PUSH2 0x157B DUP3 PUSH2 0x1516 JUMP JUMPDEST PUSH1 0x40 DUP3 ADD SWAP1 POP SWAP2 SWAP1 POP JUMP JUMPDEST PUSH0 PUSH1 0x20 DUP3 ADD SWAP1 POP DUP2 DUP2 SUB PUSH0 DUP4 ADD MSTORE PUSH2 0x159D DUP2 PUSH2 0x1564 JUMP JUMPDEST SWAP1 POP SWAP2 SWAP1 POP JUMP JUMPDEST PUSH0 PUSH2 0x15AE DUP3 PUSH2 0x10EA JUMP JUMPDEST SWAP1 POP SWAP2 SWAP1 POP JUMP JUMPDEST PUSH2 0x15BE DUP2 PUSH2 0x15A4 JUMP JUMPDEST DUP3 MSTORE POP POP JUMP JUMPDEST PUSH0 PUSH1 0x40 DUP3 ADD SWAP1 POP PUSH2 0x15D7 PUSH0 DUP4 ADD DUP6 PUSH2 0x15B5 JUMP JUMPDEST PUSH2 0x15E4 PUSH1 0x20 DUP4 ADD DUP5 PUSH2 0x1047 JUMP JUMPDEST SWAP4 SWAP3 POP POP POP JUMP JUMPDEST PUSH0 PUSH1 0x40 DUP3 ADD SWAP1 POP PUSH2 0x15FE PUSH0 DUP4 ADD DUP6 PUSH2 0x1047 JUMP JUMPDEST PUSH2 0x160B PUSH1 0x20 DUP4 ADD DUP5 PUSH2 0x1047 JUMP JUMPDEST SWAP4 SWAP3 POP POP POP JUMP JUMPDEST PUSH0 PUSH1 0x20 DUP3 ADD SWAP1 POP PUSH2 0x1625 PUSH0 DUP4 ADD DUP5 PUSH2 0x15B5 JUMP JUMPDEST SWAP3 SWAP2 POP POP JUMP JUMPDEST PUSH32 0x506F6F6C3A204E6F7420656E6F7567682062616C616E63650000000000000000 PUSH0 DUP3 ADD MSTORE POP JUMP JUMPDEST PUSH0 PUSH2 0x165F PUSH1 0x18 DUP4 PUSH2 0x142C JUMP JUMPDEST SWAP2 POP PUSH2 0x166A DUP3 PUSH2 0x162B JUMP JUMPDEST PUSH1 0x20 DUP3 ADD SWAP1 POP SWAP2 SWAP1 POP JUMP JUMPDEST PUSH0 PUSH1 0x20 DUP3 ADD SWAP1 POP DUP2 DUP2 SUB PUSH0 DUP4 ADD MSTORE PUSH2 0x168C DUP2 PUSH2 0x1653 JUMP JUMPDEST SWAP1 POP SWAP2 SWAP1 POP JUMP JUMPDEST PUSH32 0x506F6F6C3A204D4352252063616E6E6F742066616C6C2062656C6F7720313030 PUSH0 DUP3 ADD MSTORE PUSH32 0x2500000000000000000000000000000000000000000000000000000000000000 PUSH1 0x20 DUP3 ADD MSTORE POP JUMP JUMPDEST PUSH0 PUSH2 0x16ED PUSH1 0x21 DUP4 PUSH2 0x142C JUMP JUMPDEST SWAP2 POP PUSH2 0x16F8 DUP3 PUSH2 0x1693 JUMP JUMPDEST PUSH1 0x40 DUP3 ADD SWAP1 POP SWAP2 SWAP1 POP JUMP JUMPDEST PUSH0 PUSH1 0x20 DUP3 ADD SWAP1 POP DUP2 DUP2 SUB PUSH0 DUP4 ADD MSTORE PUSH2 0x171A DUP2 PUSH2 0x16E1 JUMP JUMPDEST SWAP1 POP SWAP2 SWAP1 POP JUMP JUMPDEST PUSH32 0x506F6F6C3A206574684F7574203C206D696E4574684F75740000000000000000 PUSH0 DUP3 ADD MSTORE POP JUMP JUMPDEST PUSH0 PUSH2 0x1755 PUSH1 0x18 DUP4 PUSH2 0x142C JUMP JUMPDEST SWAP2 POP PUSH2 0x1760 DUP3 PUSH2 0x1721 JUMP JUMPDEST PUSH1 0x20 DUP3 ADD SWAP1 POP SWAP2 SWAP1 POP JUMP JUMPDEST PUSH0 PUSH1 0x20 DUP3 ADD SWAP1 POP DUP2 DUP2 SUB PUSH0 DUP4 ADD MSTORE PUSH2 0x1782 DUP2 PUSH2 0x1749 JUMP JUMPDEST SWAP1 POP SWAP2 SWAP1 POP JUMP JUMPDEST PUSH2 0x1792 DUP2 PUSH2 0x1182 JUMP JUMPDEST DUP2 EQ PUSH2 0x179C JUMPI PUSH0 DUP1 REVERT JUMPDEST POP JUMP JUMPDEST PUSH0 DUP2 MLOAD SWAP1 POP PUSH2 0x17AD DUP2 PUSH2 0x1789 JUMP JUMPDEST SWAP3 SWAP2 POP POP JUMP JUMPDEST PUSH0 PUSH1 0x20 DUP3 DUP5 SUB SLT ISZERO PUSH2 0x17C8 JUMPI PUSH2 0x17C7 PUSH2 0xFD2 JUMP JUMPDEST JUMPDEST PUSH0 PUSH2 0x17D5 DUP5 DUP3 DUP6 ADD PUSH2 0x179F JUMP JUMPDEST SWAP2 POP POP SWAP3 SWAP2 POP POP JUMP JUMPDEST PUSH0 DUP2 SWAP1 POP SWAP3 SWAP2 POP POP JUMP JUMPDEST POP JUMP JUMPDEST PUSH0 PUSH2 0x17F6 PUSH0 DUP4 PUSH2 0x17DE JUMP JUMPDEST SWAP2 POP PUSH2 0x1801 DUP3 PUSH2 0x17E8 JUMP JUMPDEST PUSH0 DUP3 ADD SWAP1 POP SWAP2 SWAP1 POP JUMP JUMPDEST PUSH0 PUSH2 0x1815 DUP3 PUSH2 0x17EB JUMP JUMPDEST SWAP2 POP DUP2 SWAP1 POP SWAP2 SWAP1 POP JUMP JUMPDEST PUSH32 0x506F6F6C3A2053656C6C207472616E73666572206661696C6564000000000000 PUSH0 DUP3 ADD MSTORE POP JUMP JUMPDEST PUSH0 PUSH2 0x1853 PUSH1 0x1A DUP4 PUSH2 0x142C JUMP JUMPDEST SWAP2 POP PUSH2 0x185E DUP3 PUSH2 0x181F JUMP JUMPDEST PUSH1 0x20 DUP3 ADD SWAP1 POP SWAP2 SWAP1 POP JUMP JUMPDEST PUSH0 PUSH1 0x20 DUP3 ADD SWAP1 POP DUP2 DUP2 SUB PUSH0 DUP4 ADD MSTORE PUSH2 0x1880 DUP2 PUSH2 0x1847 JUMP JUMPDEST SWAP1 POP SWAP2 SWAP1 POP JUMP JUMPDEST PUSH32 0x506F6F6C3A20455448207472616E73666572206661696C656400000000000000 PUSH0 DUP3 ADD MSTORE POP JUMP JUMPDEST PUSH0 PUSH2 0x18BB PUSH1 0x19 DUP4 PUSH2 0x142C JUMP JUMPDEST SWAP2 POP PUSH2 0x18C6 DUP3 PUSH2 0x1887 JUMP JUMPDEST PUSH1 0x20 DUP3 ADD SWAP1 POP SWAP2 SWAP1 POP JUMP JUMPDEST PUSH0 PUSH1 0x20 DUP3 ADD SWAP1 POP DUP2 DUP2 SUB PUSH0 DUP4 ADD MSTORE PUSH2 0x18E8 DUP2 PUSH2 0x18AF JUMP JUMPDEST SWAP1 POP SWAP2 SWAP1 POP JUMP JUMPDEST PUSH2 0x18F8 DUP2 PUSH2 0x15A4 JUMP JUMPDEST DUP2 EQ PUSH2 0x1902 JUMPI PUSH0 DUP1 REVERT JUMPDEST POP JUMP JUMPDEST PUSH0 DUP2 MLOAD SWAP1 POP PUSH2 0x1913 DUP2 PUSH2 0x18EF JUMP JUMPDEST SWAP3 SWAP2 POP POP JUMP JUMPDEST PUSH0 PUSH1 0x20 DUP3 DUP5 SUB SLT ISZERO PUSH2 0x192E JUMPI PUSH2 0x192D PUSH2 0xFD2 JUMP JUMPDEST JUMPDEST PUSH0 PUSH2 0x193B DUP5 DUP3 DUP6 ADD PUSH2 0x1905 JUMP JUMPDEST SWAP2 POP POP SWAP3 SWAP2 POP POP JUMP INVALID LOG2 PUSH5 0x6970667358 0x22 SLT KECCAK256 0x27 0xE9 INVALID DIV 0xDC PREVRANDAO 0x4F SLT 0x5E SAR DELEGATECALL 0xF PUSH10 0x89454E0667E6167593C6 DUP15 BASEFEE EXTCODECOPY 0xEA SWAP6 PUSH24 0x76C04864736F6C6343000815003300000000000000000000 "
				},
				"gasEstimates": {
					"creation": {
						"codeDepositCost": "1304400",
						"executionCost": "infinite",
						"totalCost": "infinite"
					},
					"external": {
						"": "217",
						"MAX_BUY_SELL_MCR_ETH_FRACTION()": "370",
						"MAX_MCR_RATIO()": "370",
						"MCR_RATIO_DECIMALS()": "392",
						"buyHEDH(uint256)": "infinite",
						"calculateEthForHEDH(uint256,uint256,uint256)": "infinite",
						"calculateHEDHForEth(uint256,uint256,uint256)": "infinite",
						"calculateMCRRatio(uint256,uint256)": "infinite",
						"calculateTokenSpotPrice(uint256,uint256)": "infinite",
						"getEthForHEDH(uint256)": "infinite",
						"getHEDHForEth(uint256)": "infinite",
						"sellHEDH(uint256,uint256)": "infinite",
						"sellHEDHTokens(uint256)": "infinite",
						"sendPayout(address,uint256)": "infinite"
					},
					"internal": {
						"calculateIntegralAtPoint(uint256,uint256)": "infinite",
						"mcr()": "infinite"
					}
				},
				"methodIdentifiers": {
					"MAX_BUY_SELL_MCR_ETH_FRACTION()": "1f50c989",
					"MAX_MCR_RATIO()": "b222a4d3",
					"MCR_RATIO_DECIMALS()": "4779be08",
					"buyHEDH(uint256)": "06833ffd",
					"calculateEthForHEDH(uint256,uint256,uint256)": "ebb8433f",
					"calculateHEDHForEth(uint256,uint256,uint256)": "657e0542",
					"calculateMCRRatio(uint256,uint256)": "70310cb7",
					"calculateTokenSpotPrice(uint256,uint256)": "04e8266f",
					"getEthForHEDH(uint256)": "eabf3407",
					"getHEDHForEth(uint256)": "483b6f1d",
					"sellHEDH(uint256,uint256)": "bdf4872b",
					"sellHEDHTokens(uint256)": "e57a8fef",
					"sendPayout(address,uint256)": "cf8d133f"
				}
			},
			"storageLayout": {
				"storage": [
					{
						"astId": 117,
						"contract": "contracts/capital/Pool.sol:Pool",
						"label": "minTokensOut",
						"offset": 0,
						"slot": "0",
						"type": "t_uint256"
					},
					{
						"astId": 142,
						"contract": "contracts/capital/Pool.sol:Pool",
						"label": "hedhToken",
						"offset": 0,
						"slot": "1",
						"type": "t_contract(HEDHToken)1641"
					},
					{
						"astId": 145,
						"contract": "contracts/capital/Pool.sol:Pool",
						"label": "master",
						"offset": 0,
						"slot": "2",
						"type": "t_contract(Master)82"
					}
				],
				"types": {
					"t_contract(HEDHToken)1641": {
						"encoding": "inplace",
						"label": "contract HEDHToken",
						"numberOfBytes": "20"
					},
					"t_contract(Master)82": {
						"encoding": "inplace",
						"label": "contract Master",
						"numberOfBytes": "20"
					},
					"t_uint256": {
						"encoding": "inplace",
						"label": "uint256",
						"numberOfBytes": "32"
					}
				}
			},
			"userdoc": {
				"kind": "user",
				"methods": {
					"buyHEDH(uint256)": {
						"notice": "Buys NXM tokens with ETH."
					},
					"calculateTokenSpotPrice(uint256,uint256)": {
						"notice": "Calculates token price in ETH of 1 NXM token. TokenPrice = A + (MCReth / C) * MCR%^4"
					},
					"getHEDHForEth(uint256)": {
						"notice": "Get value in tokens for an ethAmount purchase."
					},
					"sellHEDH(uint256,uint256)": {
						"notice": "Sell NXM tokens and receive ETH."
					}
				},
				"version": 1
			}
		}
	}
}