{
	"data": {
		"bytecode": {
			"linkReferences": {},
			"object": "608060405234801561000f575f80fd5b506101428061001d5f395ff3fe608060405234801561000f575f80fd5b5060043610610029575f3560e01c8063bc12dfc41461002d575b5f80fd5b61004760048036038101906100429190610094565b61005d565b60405161005491906100f3565b60405180910390f35b5f629896809050919050565b5f80fd5b5f80fd5b5f80fd5b5f610160828403121561008b5761008a610071565b5b81905092915050565b5f602082840312156100a9576100a8610069565b5b5f82013567ffffffffffffffff8111156100c6576100c561006d565b5b6100d284828501610075565b91505092915050565b5f819050919050565b6100ed816100db565b82525050565b5f6020820190506101065f8301846100e4565b9291505056fea2646970667358221220dc92d0867e0261b139b880abba9dfff55f1feee743c11c8953e53ec84899fd8d64736f6c63430008150033",
			"opcodes": "PUSH1 0x80 PUSH1 0x40 MSTORE CALLVALUE DUP1 ISZERO PUSH2 0xF JUMPI PUSH0 DUP1 REVERT JUMPDEST POP PUSH2 0x142 DUP1 PUSH2 0x1D PUSH0 CODECOPY PUSH0 RETURN INVALID PUSH1 0x80 PUSH1 0x40 MSTORE CALLVALUE DUP1 ISZERO PUSH2 0xF JUMPI PUSH0 DUP1 REVERT JUMPDEST POP PUSH1 0x4 CALLDATASIZE LT PUSH2 0x29 JUMPI PUSH0 CALLDATALOAD PUSH1 0xE0 SHR DUP1 PUSH4 0xBC12DFC4 EQ PUSH2 0x2D JUMPI JUMPDEST PUSH0 DUP1 REVERT JUMPDEST PUSH2 0x47 PUSH1 0x4 DUP1 CALLDATASIZE SUB DUP2 ADD SWAP1 PUSH2 0x42 SWAP2 SWAP1 PUSH2 0x94 JUMP JUMPDEST PUSH2 0x5D JUMP JUMPDEST PUSH1 0x40 MLOAD PUSH2 0x54 SWAP2 SWAP1 PUSH2 0xF3 JUMP JUMPDEST PUSH1 0x40 MLOAD DUP1 SWAP2 SUB SWAP1 RETURN JUMPDEST PUSH0 PUSH3 0x989680 SWAP1 POP SWAP2 SWAP1 POP JUMP JUMPDEST PUSH0 DUP1 REVERT JUMPDEST PUSH0 DUP1 REVERT JUMPDEST PUSH0 DUP1 REVERT JUMPDEST PUSH0 PUSH2 0x160 DUP3 DUP5 SUB SLT ISZERO PUSH2 0x8B JUMPI PUSH2 0x8A PUSH2 0x71 JUMP JUMPDEST JUMPDEST DUP2 SWAP1 POP SWAP3 SWAP2 POP POP JUMP JUMPDEST PUSH0 PUSH1 0x20 DUP3 DUP5 SUB SLT ISZERO PUSH2 0xA9 JUMPI PUSH2 0xA8 PUSH2 0x69 JUMP JUMPDEST JUMPDEST PUSH0 DUP3 ADD CALLDATALOAD PUSH8 0xFFFFFFFFFFFFFFFF DUP2 GT ISZERO PUSH2 0xC6 JUMPI PUSH2 0xC5 PUSH2 0x6D JUMP JUMPDEST JUMPDEST PUSH2 0xD2 DUP5 DUP3 DUP6 ADD PUSH2 0x75 JUMP JUMPDEST SWAP2 POP POP SWAP3 SWAP2 POP POP JUMP JUMPDEST PUSH0 DUP2 SWAP1 POP SWAP2 SWAP1 POP JUMP JUMPDEST PUSH2 0xED DUP2 PUSH2 0xDB JUMP JUMPDEST DUP3 MSTORE POP POP JUMP JUMPDEST PUSH0 PUSH1 0x20 DUP3 ADD SWAP1 POP PUSH2 0x106 PUSH0 DUP4 ADD DUP5 PUSH2 0xE4 JUMP JUMPDEST SWAP3 SWAP2 POP POP JUMP INVALID LOG2 PUSH5 0x6970667358 0x22 SLT KECCAK256 0xDC SWAP3 0xD0 DUP7 PUSH31 0x261B139B880ABBA9DFFF55F1FEEE743C11C8953E53EC84899FD8D64736F6C PUSH4 0x43000815 STOP CALLER "
		},
		"gasEstimates": {
			"creation": {
				"codeDepositCost": "64400",
				"executionCost": "115",
				"totalCost": "64515"
			},
			"external": {
				"calculateCover((uint256,uint256,uint256,uint256,address,address,uint256,uint256,uint256,uint256,string))": "541"
			}
		},
		"methodIdentifiers": {
			"calculateCover((uint256,uint256,uint256,uint256,address,address,uint256,uint256,uint256,uint256,string))": "bc12dfc4"
		}
	},
	"abi": [
		{
			"inputs": [
				{
					"components": [
						{
							"internalType": "uint256",
							"name": "amountPaidOut",
							"type": "uint256"
						},
						{
							"internalType": "uint256",
							"name": "totalClaimAmount",
							"type": "uint256"
						},
						{
							"internalType": "uint256",
							"name": "start",
							"type": "uint256"
						},
						{
							"internalType": "uint256",
							"name": "period",
							"type": "uint256"
						},
						{
							"internalType": "address",
							"name": "token0",
							"type": "address"
						},
						{
							"internalType": "address",
							"name": "token1",
							"type": "address"
						},
						{
							"internalType": "uint256",
							"name": "token0Qty",
							"type": "uint256"
						},
						{
							"internalType": "uint256",
							"name": "token1Qty",
							"type": "uint256"
						},
						{
							"internalType": "uint256",
							"name": "lowerBoundRatio",
							"type": "uint256"
						},
						{
							"internalType": "uint256",
							"name": "upperBoundRatio",
							"type": "uint256"
						},
						{
							"internalType": "string",
							"name": "pairStr",
							"type": "string"
						}
					],
					"internalType": "struct CoverData",
					"name": "cd",
					"type": "tuple"
				}
			],
			"name": "calculateCover",
			"outputs": [
				{
					"internalType": "uint256",
					"name": "claimValue",
					"type": "uint256"
				}
			],
			"stateMutability": "nonpayable",
			"type": "function"
		}
	]
}