{
	"data": {
		"bytecode": {
			"linkReferences": {},
			"object": "608060405234801561001057600080fd5b5061014f806100206000396000f3fe608060405234801561001057600080fd5b506004361061002b5760003560e01c8063bc12dfc414610030575b600080fd5b61004a6004803603810190610045919061009c565b610060565b60405161005791906100fe565b60405180910390f35b6000629896809050919050565b600080fd5b600080fd5b600080fd5b6000610160828403121561009357610092610077565b5b81905092915050565b6000602082840312156100b2576100b161006d565b5b600082013567ffffffffffffffff8111156100d0576100cf610072565b5b6100dc8482850161007c565b91505092915050565b6000819050919050565b6100f8816100e5565b82525050565b600060208201905061011360008301846100ef565b9291505056fea2646970667358221220fe7446ae4d70b923167bb70cb160e4300906e568f21d35afe912b89b84994b2b64736f6c63430008130033",
			"opcodes": "PUSH1 0x80 PUSH1 0x40 MSTORE CALLVALUE DUP1 ISZERO PUSH2 0x10 JUMPI PUSH1 0x0 DUP1 REVERT JUMPDEST POP PUSH2 0x14F DUP1 PUSH2 0x20 PUSH1 0x0 CODECOPY PUSH1 0x0 RETURN INVALID PUSH1 0x80 PUSH1 0x40 MSTORE CALLVALUE DUP1 ISZERO PUSH2 0x10 JUMPI PUSH1 0x0 DUP1 REVERT JUMPDEST POP PUSH1 0x4 CALLDATASIZE LT PUSH2 0x2B JUMPI PUSH1 0x0 CALLDATALOAD PUSH1 0xE0 SHR DUP1 PUSH4 0xBC12DFC4 EQ PUSH2 0x30 JUMPI JUMPDEST PUSH1 0x0 DUP1 REVERT JUMPDEST PUSH2 0x4A PUSH1 0x4 DUP1 CALLDATASIZE SUB DUP2 ADD SWAP1 PUSH2 0x45 SWAP2 SWAP1 PUSH2 0x9C JUMP JUMPDEST PUSH2 0x60 JUMP JUMPDEST PUSH1 0x40 MLOAD PUSH2 0x57 SWAP2 SWAP1 PUSH2 0xFE JUMP JUMPDEST PUSH1 0x40 MLOAD DUP1 SWAP2 SUB SWAP1 RETURN JUMPDEST PUSH1 0x0 PUSH3 0x989680 SWAP1 POP SWAP2 SWAP1 POP JUMP JUMPDEST PUSH1 0x0 DUP1 REVERT JUMPDEST PUSH1 0x0 DUP1 REVERT JUMPDEST PUSH1 0x0 DUP1 REVERT JUMPDEST PUSH1 0x0 PUSH2 0x160 DUP3 DUP5 SUB SLT ISZERO PUSH2 0x93 JUMPI PUSH2 0x92 PUSH2 0x77 JUMP JUMPDEST JUMPDEST DUP2 SWAP1 POP SWAP3 SWAP2 POP POP JUMP JUMPDEST PUSH1 0x0 PUSH1 0x20 DUP3 DUP5 SUB SLT ISZERO PUSH2 0xB2 JUMPI PUSH2 0xB1 PUSH2 0x6D JUMP JUMPDEST JUMPDEST PUSH1 0x0 DUP3 ADD CALLDATALOAD PUSH8 0xFFFFFFFFFFFFFFFF DUP2 GT ISZERO PUSH2 0xD0 JUMPI PUSH2 0xCF PUSH2 0x72 JUMP JUMPDEST JUMPDEST PUSH2 0xDC DUP5 DUP3 DUP6 ADD PUSH2 0x7C JUMP JUMPDEST SWAP2 POP POP SWAP3 SWAP2 POP POP JUMP JUMPDEST PUSH1 0x0 DUP2 SWAP1 POP SWAP2 SWAP1 POP JUMP JUMPDEST PUSH2 0xF8 DUP2 PUSH2 0xE5 JUMP JUMPDEST DUP3 MSTORE POP POP JUMP JUMPDEST PUSH1 0x0 PUSH1 0x20 DUP3 ADD SWAP1 POP PUSH2 0x113 PUSH1 0x0 DUP4 ADD DUP5 PUSH2 0xEF JUMP JUMPDEST SWAP3 SWAP2 POP POP JUMP INVALID LOG2 PUSH5 0x6970667358 0x22 SLT KECCAK256 INVALID PUSH21 0x46AE4D70B923167BB70CB160E4300906E568F21D35 0xAF 0xE9 SLT 0xB8 SWAP12 DUP5 SWAP10 0x4B 0x2B PUSH5 0x736F6C6343 STOP ADDMOD SGT STOP CALLER "
		},
		"gasEstimates": {
			"creation": {
				"codeDepositCost": "67000",
				"executionCost": "117",
				"totalCost": "67117"
			},
			"external": {
				"calculateCover((uint256,uint256,uint256,uint256,address,address,uint256,uint256,uint256,uint256,string))": "549"
			}
		},
		"methodIdentifiers": {
			"calculateCover((uint256,uint256,uint256,uint256,address,address,uint256,uint256,uint256,uint256,string))": "bc12dfc4"
		}
	},
	"abi": [
		{
			"inputs": [
				{
					"components": [
						{
							"internalType": "uint256",
							"name": "amountPaidOut",
							"type": "uint256"
						},
						{
							"internalType": "uint256",
							"name": "totalClaimAmount",
							"type": "uint256"
						},
						{
							"internalType": "uint256",
							"name": "start",
							"type": "uint256"
						},
						{
							"internalType": "uint256",
							"name": "period",
							"type": "uint256"
						},
						{
							"internalType": "address",
							"name": "token0",
							"type": "address"
						},
						{
							"internalType": "address",
							"name": "token1",
							"type": "address"
						},
						{
							"internalType": "uint256",
							"name": "token0Qty",
							"type": "uint256"
						},
						{
							"internalType": "uint256",
							"name": "token1Qty",
							"type": "uint256"
						},
						{
							"internalType": "uint256",
							"name": "lowerBoundRatio",
							"type": "uint256"
						},
						{
							"internalType": "uint256",
							"name": "upperBoundRatio",
							"type": "uint256"
						},
						{
							"internalType": "string",
							"name": "pairStr",
							"type": "string"
						}
					],
					"internalType": "struct CoverData",
					"name": "cd",
					"type": "tuple"
				}
			],
			"name": "calculateCover",
			"outputs": [
				{
					"internalType": "uint256",
					"name": "claimValue",
					"type": "uint256"
				}
			],
			"stateMutability": "nonpayable",
			"type": "function"
		}
	]
}