{
	"data": {
		"bytecode": {
			"linkReferences": {},
			"object": "608060405260016000553480156200001657600080fd5b5060405162001ba738038062001ba783398181016040528101906200003c919062000130565b81600160006101000a81548173ffffffffffffffffffffffffffffffffffffffff021916908373ffffffffffffffffffffffffffffffffffffffff16021790555080600260006101000a81548173ffffffffffffffffffffffffffffffffffffffff021916908373ffffffffffffffffffffffffffffffffffffffff160217905550505062000177565b600080fd5b600073ffffffffffffffffffffffffffffffffffffffff82169050919050565b6000620000f882620000cb565b9050919050565b6200010a81620000eb565b81146200011657600080fd5b50565b6000815190506200012a81620000ff565b92915050565b600080604083850312156200014a5762000149620000c6565b5b60006200015a8582860162000119565b92505060206200016d8582860162000119565b9150509250929050565b611a2080620001876000396000f3fe6080604052600436106100c65760003560e01c806370310cb71161007f578063cf8d133f11610059578063cf8d133f14610289578063e57a8fef146102b2578063eabf3407146102ef578063ebb8433f1461032c576100cd565b806370310cb7146101f8578063b222a4d314610235578063bdf4872b14610260576100cd565b806304e8266f146100cf57806306833ffd1461010c5780631f50c989146101285780634779be0814610153578063483b6f1d1461017e578063657e0542146101bb576100cd565b366100cd57005b005b3480156100db57600080fd5b506100f660048036038101906100f1919061105c565b610369565b60405161010391906110ab565b60405180910390f35b610126600480360381019061012191906110c6565b6103e2565b005b34801561013457600080fd5b5061013d610652565b60405161014a91906110ab565b60405180910390f35b34801561015f57600080fd5b50610168610658565b60405161017591906110ab565b60405180910390f35b34801561018a57600080fd5b506101a560048036038101906101a091906110c6565b61065d565b6040516101b291906110ab565b60405180910390f35b3480156101c757600080fd5b506101e260048036038101906101dd91906110f3565b6106f1565b6040516101ef91906110ab565b60405180910390f35b34801561020457600080fd5b5061021f600480360381019061021a919061105c565b6107e7565b60405161022c91906110ab565b60405180910390f35b34801561024157600080fd5b5061024a610815565b60405161025791906110ab565b60405180910390f35b34801561026c57600080fd5b506102876004803603810190610282919061105c565b61081b565b005b34801561029557600080fd5b506102b060048036038101906102ab91906111a4565b610c23565b005b3480156102be57600080fd5b506102d960048036038101906102d491906110c6565b610d8f565b6040516102e691906111ff565b60405180910390f35b3480156102fb57600080fd5b50610316600480360381019061031191906110c6565b610da5565b60405161032391906110ab565b60405180910390f35b34801561033857600080fd5b50610353600480360381019061034e91906110f3565b610e39565b60405161036091906110ab565b60405180910390f35b60008061037684846107e7565b905060006004806103879190611249565b600a61039391906113be565b90506624859b044a800081625880406004856103af91906113be565b876103ba9190611249565b6103c49190611438565b6103ce9190611438565b6103d89190611469565b9250505092915050565b60003490506000811161042a576040517f08c379a0000000000000000000000000000000000000000000000000000000008152600401610421906114fa565b60405180910390fd5b60008147610438919061151a565b90506000610444610f01565b905060008173ffffffffffffffffffffffffffffffffffffffff166344936b106040518163ffffffff1660e01b8152600401602060405180830381865afa158015610493573d6000803e3d6000fd5b505050506040513d601f19601f820116820180604052508101906104b79190611563565b905060006104c68585846106f1565b90508581101561050b576040517f08c379a000000000000000000000000000000000000000000000000000000000815260040161050290611602565b60405180910390fd5b600160009054906101000a900473ffffffffffffffffffffffffffffffffffffffff1673ffffffffffffffffffffffffffffffffffffffff166340c10f1933836040518363ffffffff1660e01b8152600401610568929190611643565b600060405180830381600087803b15801561058257600080fd5b505af1158015610596573d6000803e3d6000fd5b505050508273ffffffffffffffffffffffffffffffffffffffff1663aa5da0466040518163ffffffff1660e01b8152600401600060405180830381600087803b1580156105e257600080fd5b505af11580156105f6573d6000803e3d6000fd5b505050503373ffffffffffffffffffffffffffffffffffffffff167fc5fc954940739c9d45b12cd63fec8b2fb3887d642d3572cf741e45f30088ad93868360405161064292919061166c565b60405180910390a2505050505050565b6101f481565b600481565b600080479050600061066d610f01565b73ffffffffffffffffffffffffffffffffffffffff166344936b106040518163ffffffff1660e01b8152600401602060405180830381865afa1580156106b7573d6000803e3d6000fd5b505050506040513d601f19601f820116820180604052508101906106db9190611563565b90506106e88483836106f1565b92505050919050565b600080831480610710575064e8d4a51000838361070e9190611438565b115b15610742576624859b044a8000670de0b6b3a7640000856107319190611249565b61073b9190611438565b90506107e0565b600061074e8484610f99565b90506000858561075e9190611469565b9050600061076c8286610f99565b90506000818461077c919061151a565b9050600081670de0b6b3a76400008a6107959190611249565b61079f9190611438565b905060006624859b044a8000826107b69190611469565b905080670de0b6b3a76400008b6107cd9190611249565b6107d79190611438565b96505050505050505b9392505050565b6000816004600a6107f891906113be565b846108039190611249565b61080d9190611438565b905092915050565b619c4081565b81600160009054906101000a900473ffffffffffffffffffffffffffffffffffffffff1673ffffffffffffffffffffffffffffffffffffffff166370a08231336040518263ffffffff1660e01b81526004016108779190611695565b602060405180830381865afa158015610894573d6000803e3d6000fd5b505050506040513d601f19601f820116820180604052508101906108b89190611563565b10156108f9576040517f08c379a00000000000000000000000000000000000000000000000000000000081526004016108f0906116fc565b60405180910390fd5b6000610903610f01565b9050600047905060008273ffffffffffffffffffffffffffffffffffffffff166344936b106040518163ffffffff1660e01b8152600401602060405180830381865afa158015610957573d6000803e3d6000fd5b505050506040513d601f19601f8201168201806040525081019061097b9190611563565b9050600061098a868484610e39565b9050818184610999919061151a565b10156109da576040517f08c379a00000000000000000000000000000000000000000000000000000000081526004016109d19061178e565b60405180910390fd5b84811015610a1d576040517f08c379a0000000000000000000000000000000000000000000000000000000008152600401610a14906117fa565b60405180910390fd5b600160009054906101000a900473ffffffffffffffffffffffffffffffffffffffff1673ffffffffffffffffffffffffffffffffffffffff166379cc679033886040518363ffffffff1660e01b8152600401610a7a929190611643565b6020604051808303816000875af1158015610a99573d6000803e3d6000fd5b505050506040513d601f19601f82011682018060405250810190610abd9190611846565b5060003373ffffffffffffffffffffffffffffffffffffffff1682604051610ae4906118a4565b60006040518083038185875af1925050503d8060008114610b21576040519150601f19603f3d011682016040523d82523d6000602084013e610b26565b606091505b5050905080610b6a576040517f08c379a0000000000000000000000000000000000000000000000000000000008152600401610b6190611905565b60405180910390fd5b8473ffffffffffffffffffffffffffffffffffffffff1663aa5da0466040518163ffffffff1660e01b8152600401600060405180830381600087803b158015610bb257600080fd5b505af1158015610bc6573d6000803e3d6000fd5b505050503373ffffffffffffffffffffffffffffffffffffffff167f1d1ddca8aa909e7f7fc055611b4269f6c858ad1e95735416f86f08c2d49e74738884604051610c1292919061166c565b60405180910390a250505050505050565b60008273ffffffffffffffffffffffffffffffffffffffff1682604051610c49906118a4565b60006040518083038185875af1925050503d8060008114610c86576040519150601f19603f3d011682016040523d82523d6000602084013e610c8b565b606091505b5050905080610ccf576040517f08c379a0000000000000000000000000000000000000000000000000000000008152600401610cc690611971565b60405180910390fd5b8273ffffffffffffffffffffffffffffffffffffffff167f5afeca38b2064c23a692c4cf353015d80ab3ecc417b4f893f372690c11fbd9a683604051610d1591906110ab565b60405180910390a26000479050610d2a610f01565b73ffffffffffffffffffffffffffffffffffffffff1663aa5da0466040518163ffffffff1660e01b8152600401600060405180830381600087803b158015610d7157600080fd5b505af1158015610d85573d6000803e3d6000fd5b5050505050505050565b6000610d9c82600061081b565b60019050919050565b6000804790506000610db5610f01565b73ffffffffffffffffffffffffffffffffffffffff166344936b106040518163ffffffff1660e01b8152600401602060405180830381865afa158015610dff573d6000803e3d6000fd5b505050506040513d601f19601f82011682018060405250810190610e239190611563565b9050610e30848383610e39565b92505050919050565b600080610e468484610369565b90506000670de0b6b3a76400008287610e5f9190611249565b610e699190611438565b905060008186610e79919061151a565b90506000610e878287610369565b905060006103e86103cf60028488610e9f9190611469565b610ea99190611438565b610eb39190611249565b610ebd9190611438565b90506000610ecb8284611008565b90506000670de0b6b3a76400008b83610ee49190611249565b610eee9190611438565b9050809750505050505050509392505050565b6000600260009054906101000a900473ffffffffffffffffffffffffffffffffffffffff1673ffffffffffffffffffffffffffffffffffffffff166388ea07516040518163ffffffff1660e01b8152600401602060405180830381865afa158015610f70573d6000803e3d6000fd5b505050506040513d601f19601f82011682018060405250810190610f9491906119bd565b905090565b60008282848486866003670de0b6b3a764000062588040610fba9190611249565b610fc49190611438565b610fce9190611249565b610fd89190611438565b610fe29190611249565b610fec9190611438565b610ff69190611249565b6110009190611438565b905092915050565b60008183106110175781611019565b825b905092915050565b600080fd5b6000819050919050565b61103981611026565b811461104457600080fd5b50565b60008135905061105681611030565b92915050565b6000806040838503121561107357611072611021565b5b600061108185828601611047565b925050602061109285828601611047565b9150509250929050565b6110a581611026565b82525050565b60006020820190506110c0600083018461109c565b92915050565b6000602082840312156110dc576110db611021565b5b60006110ea84828501611047565b91505092915050565b60008060006060848603121561110c5761110b611021565b5b600061111a86828701611047565b935050602061112b86828701611047565b925050604061113c86828701611047565b9150509250925092565b600073ffffffffffffffffffffffffffffffffffffffff82169050919050565b600061117182611146565b9050919050565b61118181611166565b811461118c57600080fd5b50565b60008135905061119e81611178565b92915050565b600080604083850312156111bb576111ba611021565b5b60006111c98582860161118f565b92505060206111da85828601611047565b9150509250929050565b60008115159050919050565b6111f9816111e4565b82525050565b600060208201905061121460008301846111f0565b92915050565b7f4e487b7100000000000000000000000000000000000000000000000000000000600052601160045260246000fd5b600061125482611026565b915061125f83611026565b925082820261126d81611026565b915082820484148315176112845761128361121a565b5b5092915050565b60008160011c9050919050565b6000808291508390505b60018511156112e2578086048111156112be576112bd61121a565b5b60018516156112cd5780820291505b80810290506112db8561128b565b94506112a2565b94509492505050565b6000826112fb57600190506113b7565b8161130957600090506113b7565b816001811461131f576002811461132957611358565b60019150506113b7565b60ff84111561133b5761133a61121a565b5b8360020a9150848211156113525761135161121a565b5b506113b7565b5060208310610133831016604e8410600b841016171561138d5782820a9050838111156113885761138761121a565b5b6113b7565b61139a8484846001611298565b925090508184048111156113b1576113b061121a565b5b81810290505b9392505050565b60006113c982611026565b91506113d483611026565b92506114017fffffffffffffffffffffffffffffffffffffffffffffffffffffffffffffffff84846112eb565b905092915050565b7f4e487b7100000000000000000000000000000000000000000000000000000000600052601260045260246000fd5b600061144382611026565b915061144e83611026565b92508261145e5761145d611409565b5b828204905092915050565b600061147482611026565b915061147f83611026565b92508282019050808211156114975761149661121a565b5b92915050565b600082825260208201905092915050565b7f506f6f6c3a20657468496e203e20300000000000000000000000000000000000600082015250565b60006114e4600f8361149d565b91506114ef826114ae565b602082019050919050565b60006020820190508181036000830152611513816114d7565b9050919050565b600061152582611026565b915061153083611026565b92508282039050818111156115485761154761121a565b5b92915050565b60008151905061155d81611030565b92915050565b60006020828403121561157957611578611021565b5b60006115878482850161154e565b91505092915050565b7f506f6f6c3a20746f6b656e734f7574206973206c657373207468616e206d696e60008201527f546f6b656e734f75740000000000000000000000000000000000000000000000602082015250565b60006115ec60298361149d565b91506115f782611590565b604082019050919050565b6000602082019050818103600083015261161b816115df565b9050919050565b600061162d82611146565b9050919050565b61163d81611622565b82525050565b60006040820190506116586000830185611634565b611665602083018461109c565b9392505050565b6000604082019050611681600083018561109c565b61168e602083018461109c565b9392505050565b60006020820190506116aa6000830184611634565b92915050565b7f506f6f6c3a204e6f7420656e6f7567682062616c616e63650000000000000000600082015250565b60006116e660188361149d565b91506116f1826116b0565b602082019050919050565b60006020820190508181036000830152611715816116d9565b9050919050565b7f506f6f6c3a204d4352252063616e6e6f742066616c6c2062656c6f772031303060008201527f2500000000000000000000000000000000000000000000000000000000000000602082015250565b600061177860218361149d565b91506117838261171c565b604082019050919050565b600060208201905081810360008301526117a78161176b565b9050919050565b7f506f6f6c3a206574684f7574203c206d696e4574684f75740000000000000000600082015250565b60006117e460188361149d565b91506117ef826117ae565b602082019050919050565b60006020820190508181036000830152611813816117d7565b9050919050565b611823816111e4565b811461182e57600080fd5b50565b6000815190506118408161181a565b92915050565b60006020828403121561185c5761185b611021565b5b600061186a84828501611831565b91505092915050565b600081905092915050565b50565b600061188e600083611873565b91506118998261187e565b600082019050919050565b60006118af82611881565b9150819050919050565b7f506f6f6c3a2053656c6c207472616e73666572206661696c6564000000000000600082015250565b60006118ef601a8361149d565b91506118fa826118b9565b602082019050919050565b6000602082019050818103600083015261191e816118e2565b9050919050565b7f506f6f6c3a20455448207472616e73666572206661696c656400000000000000600082015250565b600061195b60198361149d565b915061196682611925565b602082019050919050565b6000602082019050818103600083015261198a8161194e565b9050919050565b61199a81611622565b81146119a557600080fd5b50565b6000815190506119b781611991565b92915050565b6000602082840312156119d3576119d2611021565b5b60006119e1848285016119a8565b9150509291505056fea26469706673582212208ac094fe9b764207a0d565b3e7fef110c034d7cab73e21e2760b895e7eab6d1f64736f6c63430008130033",
			"opcodes": "PUSH1 0x80 PUSH1 0x40 MSTORE PUSH1 0x1 PUSH1 0x0 SSTORE CALLVALUE DUP1 ISZERO PUSH3 0x16 JUMPI PUSH1 0x0 DUP1 REVERT JUMPDEST POP PUSH1 0x40 MLOAD PUSH3 0x1BA7 CODESIZE SUB DUP1 PUSH3 0x1BA7 DUP4 CODECOPY DUP2 DUP2 ADD PUSH1 0x40 MSTORE DUP2 ADD SWAP1 PUSH3 0x3C SWAP2 SWAP1 PUSH3 0x130 JUMP JUMPDEST DUP2 PUSH1 0x1 PUSH1 0x0 PUSH2 0x100 EXP DUP2 SLOAD DUP2 PUSH20 0xFFFFFFFFFFFFFFFFFFFFFFFFFFFFFFFFFFFFFFFF MUL NOT AND SWAP1 DUP4 PUSH20 0xFFFFFFFFFFFFFFFFFFFFFFFFFFFFFFFFFFFFFFFF AND MUL OR SWAP1 SSTORE POP DUP1 PUSH1 0x2 PUSH1 0x0 PUSH2 0x100 EXP DUP2 SLOAD DUP2 PUSH20 0xFFFFFFFFFFFFFFFFFFFFFFFFFFFFFFFFFFFFFFFF MUL NOT AND SWAP1 DUP4 PUSH20 0xFFFFFFFFFFFFFFFFFFFFFFFFFFFFFFFFFFFFFFFF AND MUL OR SWAP1 SSTORE POP POP POP PUSH3 0x177 JUMP JUMPDEST PUSH1 0x0 DUP1 REVERT JUMPDEST PUSH1 0x0 PUSH20 0xFFFFFFFFFFFFFFFFFFFFFFFFFFFFFFFFFFFFFFFF DUP3 AND SWAP1 POP SWAP2 SWAP1 POP JUMP JUMPDEST PUSH1 0x0 PUSH3 0xF8 DUP3 PUSH3 0xCB JUMP JUMPDEST SWAP1 POP SWAP2 SWAP1 POP JUMP JUMPDEST PUSH3 0x10A DUP2 PUSH3 0xEB JUMP JUMPDEST DUP2 EQ PUSH3 0x116 JUMPI PUSH1 0x0 DUP1 REVERT JUMPDEST POP JUMP JUMPDEST PUSH1 0x0 DUP2 MLOAD SWAP1 POP PUSH3 0x12A DUP2 PUSH3 0xFF JUMP JUMPDEST SWAP3 SWAP2 POP POP JUMP JUMPDEST PUSH1 0x0 DUP1 PUSH1 0x40 DUP4 DUP6 SUB SLT ISZERO PUSH3 0x14A JUMPI PUSH3 0x149 PUSH3 0xC6 JUMP JUMPDEST JUMPDEST PUSH1 0x0 PUSH3 0x15A DUP6 DUP3 DUP7 ADD PUSH3 0x119 JUMP JUMPDEST SWAP3 POP POP PUSH1 0x20 PUSH3 0x16D DUP6 DUP3 DUP7 ADD PUSH3 0x119 JUMP JUMPDEST SWAP2 POP POP SWAP3 POP SWAP3 SWAP1 POP JUMP JUMPDEST PUSH2 0x1A20 DUP1 PUSH3 0x187 PUSH1 0x0 CODECOPY PUSH1 0x0 RETURN INVALID PUSH1 0x80 PUSH1 0x40 MSTORE PUSH1 0x4 CALLDATASIZE LT PUSH2 0xC6 JUMPI PUSH1 0x0 CALLDATALOAD PUSH1 0xE0 SHR DUP1 PUSH4 0x70310CB7 GT PUSH2 0x7F JUMPI DUP1 PUSH4 0xCF8D133F GT PUSH2 0x59 JUMPI DUP1 PUSH4 0xCF8D133F EQ PUSH2 0x289 JUMPI DUP1 PUSH4 0xE57A8FEF EQ PUSH2 0x2B2 JUMPI DUP1 PUSH4 0xEABF3407 EQ PUSH2 0x2EF JUMPI DUP1 PUSH4 0xEBB8433F EQ PUSH2 0x32C JUMPI PUSH2 0xCD JUMP JUMPDEST DUP1 PUSH4 0x70310CB7 EQ PUSH2 0x1F8 JUMPI DUP1 PUSH4 0xB222A4D3 EQ PUSH2 0x235 JUMPI DUP1 PUSH4 0xBDF4872B EQ PUSH2 0x260 JUMPI PUSH2 0xCD JUMP JUMPDEST DUP1 PUSH4 0x4E8266F EQ PUSH2 0xCF JUMPI DUP1 PUSH4 0x6833FFD EQ PUSH2 0x10C JUMPI DUP1 PUSH4 0x1F50C989 EQ PUSH2 0x128 JUMPI DUP1 PUSH4 0x4779BE08 EQ PUSH2 0x153 JUMPI DUP1 PUSH4 0x483B6F1D EQ PUSH2 0x17E JUMPI DUP1 PUSH4 0x657E0542 EQ PUSH2 0x1BB JUMPI PUSH2 0xCD JUMP JUMPDEST CALLDATASIZE PUSH2 0xCD JUMPI STOP JUMPDEST STOP JUMPDEST CALLVALUE DUP1 ISZERO PUSH2 0xDB JUMPI PUSH1 0x0 DUP1 REVERT JUMPDEST POP PUSH2 0xF6 PUSH1 0x4 DUP1 CALLDATASIZE SUB DUP2 ADD SWAP1 PUSH2 0xF1 SWAP2 SWAP1 PUSH2 0x105C JUMP JUMPDEST PUSH2 0x369 JUMP JUMPDEST PUSH1 0x40 MLOAD PUSH2 0x103 SWAP2 SWAP1 PUSH2 0x10AB JUMP JUMPDEST PUSH1 0x40 MLOAD DUP1 SWAP2 SUB SWAP1 RETURN JUMPDEST PUSH2 0x126 PUSH1 0x4 DUP1 CALLDATASIZE SUB DUP2 ADD SWAP1 PUSH2 0x121 SWAP2 SWAP1 PUSH2 0x10C6 JUMP JUMPDEST PUSH2 0x3E2 JUMP JUMPDEST STOP JUMPDEST CALLVALUE DUP1 ISZERO PUSH2 0x134 JUMPI PUSH1 0x0 DUP1 REVERT JUMPDEST POP PUSH2 0x13D PUSH2 0x652 JUMP JUMPDEST PUSH1 0x40 MLOAD PUSH2 0x14A SWAP2 SWAP1 PUSH2 0x10AB JUMP JUMPDEST PUSH1 0x40 MLOAD DUP1 SWAP2 SUB SWAP1 RETURN JUMPDEST CALLVALUE DUP1 ISZERO PUSH2 0x15F JUMPI PUSH1 0x0 DUP1 REVERT JUMPDEST POP PUSH2 0x168 PUSH2 0x658 JUMP JUMPDEST PUSH1 0x40 MLOAD PUSH2 0x175 SWAP2 SWAP1 PUSH2 0x10AB JUMP JUMPDEST PUSH1 0x40 MLOAD DUP1 SWAP2 SUB SWAP1 RETURN JUMPDEST CALLVALUE DUP1 ISZERO PUSH2 0x18A JUMPI PUSH1 0x0 DUP1 REVERT JUMPDEST POP PUSH2 0x1A5 PUSH1 0x4 DUP1 CALLDATASIZE SUB DUP2 ADD SWAP1 PUSH2 0x1A0 SWAP2 SWAP1 PUSH2 0x10C6 JUMP JUMPDEST PUSH2 0x65D JUMP JUMPDEST PUSH1 0x40 MLOAD PUSH2 0x1B2 SWAP2 SWAP1 PUSH2 0x10AB JUMP JUMPDEST PUSH1 0x40 MLOAD DUP1 SWAP2 SUB SWAP1 RETURN JUMPDEST CALLVALUE DUP1 ISZERO PUSH2 0x1C7 JUMPI PUSH1 0x0 DUP1 REVERT JUMPDEST POP PUSH2 0x1E2 PUSH1 0x4 DUP1 CALLDATASIZE SUB DUP2 ADD SWAP1 PUSH2 0x1DD SWAP2 SWAP1 PUSH2 0x10F3 JUMP JUMPDEST PUSH2 0x6F1 JUMP JUMPDEST PUSH1 0x40 MLOAD PUSH2 0x1EF SWAP2 SWAP1 PUSH2 0x10AB JUMP JUMPDEST PUSH1 0x40 MLOAD DUP1 SWAP2 SUB SWAP1 RETURN JUMPDEST CALLVALUE DUP1 ISZERO PUSH2 0x204 JUMPI PUSH1 0x0 DUP1 REVERT JUMPDEST POP PUSH2 0x21F PUSH1 0x4 DUP1 CALLDATASIZE SUB DUP2 ADD SWAP1 PUSH2 0x21A SWAP2 SWAP1 PUSH2 0x105C JUMP JUMPDEST PUSH2 0x7E7 JUMP JUMPDEST PUSH1 0x40 MLOAD PUSH2 0x22C SWAP2 SWAP1 PUSH2 0x10AB JUMP JUMPDEST PUSH1 0x40 MLOAD DUP1 SWAP2 SUB SWAP1 RETURN JUMPDEST CALLVALUE DUP1 ISZERO PUSH2 0x241 JUMPI PUSH1 0x0 DUP1 REVERT JUMPDEST POP PUSH2 0x24A PUSH2 0x815 JUMP JUMPDEST PUSH1 0x40 MLOAD PUSH2 0x257 SWAP2 SWAP1 PUSH2 0x10AB JUMP JUMPDEST PUSH1 0x40 MLOAD DUP1 SWAP2 SUB SWAP1 RETURN JUMPDEST CALLVALUE DUP1 ISZERO PUSH2 0x26C JUMPI PUSH1 0x0 DUP1 REVERT JUMPDEST POP PUSH2 0x287 PUSH1 0x4 DUP1 CALLDATASIZE SUB DUP2 ADD SWAP1 PUSH2 0x282 SWAP2 SWAP1 PUSH2 0x105C JUMP JUMPDEST PUSH2 0x81B JUMP JUMPDEST STOP JUMPDEST CALLVALUE DUP1 ISZERO PUSH2 0x295 JUMPI PUSH1 0x0 DUP1 REVERT JUMPDEST POP PUSH2 0x2B0 PUSH1 0x4 DUP1 CALLDATASIZE SUB DUP2 ADD SWAP1 PUSH2 0x2AB SWAP2 SWAP1 PUSH2 0x11A4 JUMP JUMPDEST PUSH2 0xC23 JUMP JUMPDEST STOP JUMPDEST CALLVALUE DUP1 ISZERO PUSH2 0x2BE JUMPI PUSH1 0x0 DUP1 REVERT JUMPDEST POP PUSH2 0x2D9 PUSH1 0x4 DUP1 CALLDATASIZE SUB DUP2 ADD SWAP1 PUSH2 0x2D4 SWAP2 SWAP1 PUSH2 0x10C6 JUMP JUMPDEST PUSH2 0xD8F JUMP JUMPDEST PUSH1 0x40 MLOAD PUSH2 0x2E6 SWAP2 SWAP1 PUSH2 0x11FF JUMP JUMPDEST PUSH1 0x40 MLOAD DUP1 SWAP2 SUB SWAP1 RETURN JUMPDEST CALLVALUE DUP1 ISZERO PUSH2 0x2FB JUMPI PUSH1 0x0 DUP1 REVERT JUMPDEST POP PUSH2 0x316 PUSH1 0x4 DUP1 CALLDATASIZE SUB DUP2 ADD SWAP1 PUSH2 0x311 SWAP2 SWAP1 PUSH2 0x10C6 JUMP JUMPDEST PUSH2 0xDA5 JUMP JUMPDEST PUSH1 0x40 MLOAD PUSH2 0x323 SWAP2 SWAP1 PUSH2 0x10AB JUMP JUMPDEST PUSH1 0x40 MLOAD DUP1 SWAP2 SUB SWAP1 RETURN JUMPDEST CALLVALUE DUP1 ISZERO PUSH2 0x338 JUMPI PUSH1 0x0 DUP1 REVERT JUMPDEST POP PUSH2 0x353 PUSH1 0x4 DUP1 CALLDATASIZE SUB DUP2 ADD SWAP1 PUSH2 0x34E SWAP2 SWAP1 PUSH2 0x10F3 JUMP JUMPDEST PUSH2 0xE39 JUMP JUMPDEST PUSH1 0x40 MLOAD PUSH2 0x360 SWAP2 SWAP1 PUSH2 0x10AB JUMP JUMPDEST PUSH1 0x40 MLOAD DUP1 SWAP2 SUB SWAP1 RETURN JUMPDEST PUSH1 0x0 DUP1 PUSH2 0x376 DUP5 DUP5 PUSH2 0x7E7 JUMP JUMPDEST SWAP1 POP PUSH1 0x0 PUSH1 0x4 DUP1 PUSH2 0x387 SWAP2 SWAP1 PUSH2 0x1249 JUMP JUMPDEST PUSH1 0xA PUSH2 0x393 SWAP2 SWAP1 PUSH2 0x13BE JUMP JUMPDEST SWAP1 POP PUSH7 0x24859B044A8000 DUP2 PUSH3 0x588040 PUSH1 0x4 DUP6 PUSH2 0x3AF SWAP2 SWAP1 PUSH2 0x13BE JUMP JUMPDEST DUP8 PUSH2 0x3BA SWAP2 SWAP1 PUSH2 0x1249 JUMP JUMPDEST PUSH2 0x3C4 SWAP2 SWAP1 PUSH2 0x1438 JUMP JUMPDEST PUSH2 0x3CE SWAP2 SWAP1 PUSH2 0x1438 JUMP JUMPDEST PUSH2 0x3D8 SWAP2 SWAP1 PUSH2 0x1469 JUMP JUMPDEST SWAP3 POP POP POP SWAP3 SWAP2 POP POP JUMP JUMPDEST PUSH1 0x0 CALLVALUE SWAP1 POP PUSH1 0x0 DUP2 GT PUSH2 0x42A JUMPI PUSH1 0x40 MLOAD PUSH32 0x8C379A000000000000000000000000000000000000000000000000000000000 DUP2 MSTORE PUSH1 0x4 ADD PUSH2 0x421 SWAP1 PUSH2 0x14FA JUMP JUMPDEST PUSH1 0x40 MLOAD DUP1 SWAP2 SUB SWAP1 REVERT JUMPDEST PUSH1 0x0 DUP2 SELFBALANCE PUSH2 0x438 SWAP2 SWAP1 PUSH2 0x151A JUMP JUMPDEST SWAP1 POP PUSH1 0x0 PUSH2 0x444 PUSH2 0xF01 JUMP JUMPDEST SWAP1 POP PUSH1 0x0 DUP2 PUSH20 0xFFFFFFFFFFFFFFFFFFFFFFFFFFFFFFFFFFFFFFFF AND PUSH4 0x44936B10 PUSH1 0x40 MLOAD DUP2 PUSH4 0xFFFFFFFF AND PUSH1 0xE0 SHL DUP2 MSTORE PUSH1 0x4 ADD PUSH1 0x20 PUSH1 0x40 MLOAD DUP1 DUP4 SUB DUP2 DUP7 GAS STATICCALL ISZERO DUP1 ISZERO PUSH2 0x493 JUMPI RETURNDATASIZE PUSH1 0x0 DUP1 RETURNDATACOPY RETURNDATASIZE PUSH1 0x0 REVERT JUMPDEST POP POP POP POP PUSH1 0x40 MLOAD RETURNDATASIZE PUSH1 0x1F NOT PUSH1 0x1F DUP3 ADD AND DUP3 ADD DUP1 PUSH1 0x40 MSTORE POP DUP2 ADD SWAP1 PUSH2 0x4B7 SWAP2 SWAP1 PUSH2 0x1563 JUMP JUMPDEST SWAP1 POP PUSH1 0x0 PUSH2 0x4C6 DUP6 DUP6 DUP5 PUSH2 0x6F1 JUMP JUMPDEST SWAP1 POP DUP6 DUP2 LT ISZERO PUSH2 0x50B JUMPI PUSH1 0x40 MLOAD PUSH32 0x8C379A000000000000000000000000000000000000000000000000000000000 DUP2 MSTORE PUSH1 0x4 ADD PUSH2 0x502 SWAP1 PUSH2 0x1602 JUMP JUMPDEST PUSH1 0x40 MLOAD DUP1 SWAP2 SUB SWAP1 REVERT JUMPDEST PUSH1 0x1 PUSH1 0x0 SWAP1 SLOAD SWAP1 PUSH2 0x100 EXP SWAP1 DIV PUSH20 0xFFFFFFFFFFFFFFFFFFFFFFFFFFFFFFFFFFFFFFFF AND PUSH20 0xFFFFFFFFFFFFFFFFFFFFFFFFFFFFFFFFFFFFFFFF AND PUSH4 0x40C10F19 CALLER DUP4 PUSH1 0x40 MLOAD DUP4 PUSH4 0xFFFFFFFF AND PUSH1 0xE0 SHL DUP2 MSTORE PUSH1 0x4 ADD PUSH2 0x568 SWAP3 SWAP2 SWAP1 PUSH2 0x1643 JUMP JUMPDEST PUSH1 0x0 PUSH1 0x40 MLOAD DUP1 DUP4 SUB DUP2 PUSH1 0x0 DUP8 DUP1 EXTCODESIZE ISZERO DUP1 ISZERO PUSH2 0x582 JUMPI PUSH1 0x0 DUP1 REVERT JUMPDEST POP GAS CALL ISZERO DUP1 ISZERO PUSH2 0x596 JUMPI RETURNDATASIZE PUSH1 0x0 DUP1 RETURNDATACOPY RETURNDATASIZE PUSH1 0x0 REVERT JUMPDEST POP POP POP POP DUP3 PUSH20 0xFFFFFFFFFFFFFFFFFFFFFFFFFFFFFFFFFFFFFFFF AND PUSH4 0xAA5DA046 PUSH1 0x40 MLOAD DUP2 PUSH4 0xFFFFFFFF AND PUSH1 0xE0 SHL DUP2 MSTORE PUSH1 0x4 ADD PUSH1 0x0 PUSH1 0x40 MLOAD DUP1 DUP4 SUB DUP2 PUSH1 0x0 DUP8 DUP1 EXTCODESIZE ISZERO DUP1 ISZERO PUSH2 0x5E2 JUMPI PUSH1 0x0 DUP1 REVERT JUMPDEST POP GAS CALL ISZERO DUP1 ISZERO PUSH2 0x5F6 JUMPI RETURNDATASIZE PUSH1 0x0 DUP1 RETURNDATACOPY RETURNDATASIZE PUSH1 0x0 REVERT JUMPDEST POP POP POP POP CALLER PUSH20 0xFFFFFFFFFFFFFFFFFFFFFFFFFFFFFFFFFFFFFFFF AND PUSH32 0xC5FC954940739C9D45B12CD63FEC8B2FB3887D642D3572CF741E45F30088AD93 DUP7 DUP4 PUSH1 0x40 MLOAD PUSH2 0x642 SWAP3 SWAP2 SWAP1 PUSH2 0x166C JUMP JUMPDEST PUSH1 0x40 MLOAD DUP1 SWAP2 SUB SWAP1 LOG2 POP POP POP POP POP POP JUMP JUMPDEST PUSH2 0x1F4 DUP2 JUMP JUMPDEST PUSH1 0x4 DUP2 JUMP JUMPDEST PUSH1 0x0 DUP1 SELFBALANCE SWAP1 POP PUSH1 0x0 PUSH2 0x66D PUSH2 0xF01 JUMP JUMPDEST PUSH20 0xFFFFFFFFFFFFFFFFFFFFFFFFFFFFFFFFFFFFFFFF AND PUSH4 0x44936B10 PUSH1 0x40 MLOAD DUP2 PUSH4 0xFFFFFFFF AND PUSH1 0xE0 SHL DUP2 MSTORE PUSH1 0x4 ADD PUSH1 0x20 PUSH1 0x40 MLOAD DUP1 DUP4 SUB DUP2 DUP7 GAS STATICCALL ISZERO DUP1 ISZERO PUSH2 0x6B7 JUMPI RETURNDATASIZE PUSH1 0x0 DUP1 RETURNDATACOPY RETURNDATASIZE PUSH1 0x0 REVERT JUMPDEST POP POP POP POP PUSH1 0x40 MLOAD RETURNDATASIZE PUSH1 0x1F NOT PUSH1 0x1F DUP3 ADD AND DUP3 ADD DUP1 PUSH1 0x40 MSTORE POP DUP2 ADD SWAP1 PUSH2 0x6DB SWAP2 SWAP1 PUSH2 0x1563 JUMP JUMPDEST SWAP1 POP PUSH2 0x6E8 DUP5 DUP4 DUP4 PUSH2 0x6F1 JUMP JUMPDEST SWAP3 POP POP POP SWAP2 SWAP1 POP JUMP JUMPDEST PUSH1 0x0 DUP1 DUP4 EQ DUP1 PUSH2 0x710 JUMPI POP PUSH5 0xE8D4A51000 DUP4 DUP4 PUSH2 0x70E SWAP2 SWAP1 PUSH2 0x1438 JUMP JUMPDEST GT JUMPDEST ISZERO PUSH2 0x742 JUMPI PUSH7 0x24859B044A8000 PUSH8 0xDE0B6B3A7640000 DUP6 PUSH2 0x731 SWAP2 SWAP1 PUSH2 0x1249 JUMP JUMPDEST PUSH2 0x73B SWAP2 SWAP1 PUSH2 0x1438 JUMP JUMPDEST SWAP1 POP PUSH2 0x7E0 JUMP JUMPDEST PUSH1 0x0 PUSH2 0x74E DUP5 DUP5 PUSH2 0xF99 JUMP JUMPDEST SWAP1 POP PUSH1 0x0 DUP6 DUP6 PUSH2 0x75E SWAP2 SWAP1 PUSH2 0x1469 JUMP JUMPDEST SWAP1 POP PUSH1 0x0 PUSH2 0x76C DUP3 DUP7 PUSH2 0xF99 JUMP JUMPDEST SWAP1 POP PUSH1 0x0 DUP2 DUP5 PUSH2 0x77C SWAP2 SWAP1 PUSH2 0x151A JUMP JUMPDEST SWAP1 POP PUSH1 0x0 DUP2 PUSH8 0xDE0B6B3A7640000 DUP11 PUSH2 0x795 SWAP2 SWAP1 PUSH2 0x1249 JUMP JUMPDEST PUSH2 0x79F SWAP2 SWAP1 PUSH2 0x1438 JUMP JUMPDEST SWAP1 POP PUSH1 0x0 PUSH7 0x24859B044A8000 DUP3 PUSH2 0x7B6 SWAP2 SWAP1 PUSH2 0x1469 JUMP JUMPDEST SWAP1 POP DUP1 PUSH8 0xDE0B6B3A7640000 DUP12 PUSH2 0x7CD SWAP2 SWAP1 PUSH2 0x1249 JUMP JUMPDEST PUSH2 0x7D7 SWAP2 SWAP1 PUSH2 0x1438 JUMP JUMPDEST SWAP7 POP POP POP POP POP POP POP JUMPDEST SWAP4 SWAP3 POP POP POP JUMP JUMPDEST PUSH1 0x0 DUP2 PUSH1 0x4 PUSH1 0xA PUSH2 0x7F8 SWAP2 SWAP1 PUSH2 0x13BE JUMP JUMPDEST DUP5 PUSH2 0x803 SWAP2 SWAP1 PUSH2 0x1249 JUMP JUMPDEST PUSH2 0x80D SWAP2 SWAP1 PUSH2 0x1438 JUMP JUMPDEST SWAP1 POP SWAP3 SWAP2 POP POP JUMP JUMPDEST PUSH2 0x9C40 DUP2 JUMP JUMPDEST DUP2 PUSH1 0x1 PUSH1 0x0 SWAP1 SLOAD SWAP1 PUSH2 0x100 EXP SWAP1 DIV PUSH20 0xFFFFFFFFFFFFFFFFFFFFFFFFFFFFFFFFFFFFFFFF AND PUSH20 0xFFFFFFFFFFFFFFFFFFFFFFFFFFFFFFFFFFFFFFFF AND PUSH4 0x70A08231 CALLER PUSH1 0x40 MLOAD DUP3 PUSH4 0xFFFFFFFF AND PUSH1 0xE0 SHL DUP2 MSTORE PUSH1 0x4 ADD PUSH2 0x877 SWAP2 SWAP1 PUSH2 0x1695 JUMP JUMPDEST PUSH1 0x20 PUSH1 0x40 MLOAD DUP1 DUP4 SUB DUP2 DUP7 GAS STATICCALL ISZERO DUP1 ISZERO PUSH2 0x894 JUMPI RETURNDATASIZE PUSH1 0x0 DUP1 RETURNDATACOPY RETURNDATASIZE PUSH1 0x0 REVERT JUMPDEST POP POP POP POP PUSH1 0x40 MLOAD RETURNDATASIZE PUSH1 0x1F NOT PUSH1 0x1F DUP3 ADD AND DUP3 ADD DUP1 PUSH1 0x40 MSTORE POP DUP2 ADD SWAP1 PUSH2 0x8B8 SWAP2 SWAP1 PUSH2 0x1563 JUMP JUMPDEST LT ISZERO PUSH2 0x8F9 JUMPI PUSH1 0x40 MLOAD PUSH32 0x8C379A000000000000000000000000000000000000000000000000000000000 DUP2 MSTORE PUSH1 0x4 ADD PUSH2 0x8F0 SWAP1 PUSH2 0x16FC JUMP JUMPDEST PUSH1 0x40 MLOAD DUP1 SWAP2 SUB SWAP1 REVERT JUMPDEST PUSH1 0x0 PUSH2 0x903 PUSH2 0xF01 JUMP JUMPDEST SWAP1 POP PUSH1 0x0 SELFBALANCE SWAP1 POP PUSH1 0x0 DUP3 PUSH20 0xFFFFFFFFFFFFFFFFFFFFFFFFFFFFFFFFFFFFFFFF AND PUSH4 0x44936B10 PUSH1 0x40 MLOAD DUP2 PUSH4 0xFFFFFFFF AND PUSH1 0xE0 SHL DUP2 MSTORE PUSH1 0x4 ADD PUSH1 0x20 PUSH1 0x40 MLOAD DUP1 DUP4 SUB DUP2 DUP7 GAS STATICCALL ISZERO DUP1 ISZERO PUSH2 0x957 JUMPI RETURNDATASIZE PUSH1 0x0 DUP1 RETURNDATACOPY RETURNDATASIZE PUSH1 0x0 REVERT JUMPDEST POP POP POP POP PUSH1 0x40 MLOAD RETURNDATASIZE PUSH1 0x1F NOT PUSH1 0x1F DUP3 ADD AND DUP3 ADD DUP1 PUSH1 0x40 MSTORE POP DUP2 ADD SWAP1 PUSH2 0x97B SWAP2 SWAP1 PUSH2 0x1563 JUMP JUMPDEST SWAP1 POP PUSH1 0x0 PUSH2 0x98A DUP7 DUP5 DUP5 PUSH2 0xE39 JUMP JUMPDEST SWAP1 POP DUP2 DUP2 DUP5 PUSH2 0x999 SWAP2 SWAP1 PUSH2 0x151A JUMP JUMPDEST LT ISZERO PUSH2 0x9DA JUMPI PUSH1 0x40 MLOAD PUSH32 0x8C379A000000000000000000000000000000000000000000000000000000000 DUP2 MSTORE PUSH1 0x4 ADD PUSH2 0x9D1 SWAP1 PUSH2 0x178E JUMP JUMPDEST PUSH1 0x40 MLOAD DUP1 SWAP2 SUB SWAP1 REVERT JUMPDEST DUP5 DUP2 LT ISZERO PUSH2 0xA1D JUMPI PUSH1 0x40 MLOAD PUSH32 0x8C379A000000000000000000000000000000000000000000000000000000000 DUP2 MSTORE PUSH1 0x4 ADD PUSH2 0xA14 SWAP1 PUSH2 0x17FA JUMP JUMPDEST PUSH1 0x40 MLOAD DUP1 SWAP2 SUB SWAP1 REVERT JUMPDEST PUSH1 0x1 PUSH1 0x0 SWAP1 SLOAD SWAP1 PUSH2 0x100 EXP SWAP1 DIV PUSH20 0xFFFFFFFFFFFFFFFFFFFFFFFFFFFFFFFFFFFFFFFF AND PUSH20 0xFFFFFFFFFFFFFFFFFFFFFFFFFFFFFFFFFFFFFFFF AND PUSH4 0x79CC6790 CALLER DUP9 PUSH1 0x40 MLOAD DUP4 PUSH4 0xFFFFFFFF AND PUSH1 0xE0 SHL DUP2 MSTORE PUSH1 0x4 ADD PUSH2 0xA7A SWAP3 SWAP2 SWAP1 PUSH2 0x1643 JUMP JUMPDEST PUSH1 0x20 PUSH1 0x40 MLOAD DUP1 DUP4 SUB DUP2 PUSH1 0x0 DUP8 GAS CALL ISZERO DUP1 ISZERO PUSH2 0xA99 JUMPI RETURNDATASIZE PUSH1 0x0 DUP1 RETURNDATACOPY RETURNDATASIZE PUSH1 0x0 REVERT JUMPDEST POP POP POP POP PUSH1 0x40 MLOAD RETURNDATASIZE PUSH1 0x1F NOT PUSH1 0x1F DUP3 ADD AND DUP3 ADD DUP1 PUSH1 0x40 MSTORE POP DUP2 ADD SWAP1 PUSH2 0xABD SWAP2 SWAP1 PUSH2 0x1846 JUMP JUMPDEST POP PUSH1 0x0 CALLER PUSH20 0xFFFFFFFFFFFFFFFFFFFFFFFFFFFFFFFFFFFFFFFF AND DUP3 PUSH1 0x40 MLOAD PUSH2 0xAE4 SWAP1 PUSH2 0x18A4 JUMP JUMPDEST PUSH1 0x0 PUSH1 0x40 MLOAD DUP1 DUP4 SUB DUP2 DUP6 DUP8 GAS CALL SWAP3 POP POP POP RETURNDATASIZE DUP1 PUSH1 0x0 DUP2 EQ PUSH2 0xB21 JUMPI PUSH1 0x40 MLOAD SWAP2 POP PUSH1 0x1F NOT PUSH1 0x3F RETURNDATASIZE ADD AND DUP3 ADD PUSH1 0x40 MSTORE RETURNDATASIZE DUP3 MSTORE RETURNDATASIZE PUSH1 0x0 PUSH1 0x20 DUP5 ADD RETURNDATACOPY PUSH2 0xB26 JUMP JUMPDEST PUSH1 0x60 SWAP2 POP JUMPDEST POP POP SWAP1 POP DUP1 PUSH2 0xB6A JUMPI PUSH1 0x40 MLOAD PUSH32 0x8C379A000000000000000000000000000000000000000000000000000000000 DUP2 MSTORE PUSH1 0x4 ADD PUSH2 0xB61 SWAP1 PUSH2 0x1905 JUMP JUMPDEST PUSH1 0x40 MLOAD DUP1 SWAP2 SUB SWAP1 REVERT JUMPDEST DUP5 PUSH20 0xFFFFFFFFFFFFFFFFFFFFFFFFFFFFFFFFFFFFFFFF AND PUSH4 0xAA5DA046 PUSH1 0x40 MLOAD DUP2 PUSH4 0xFFFFFFFF AND PUSH1 0xE0 SHL DUP2 MSTORE PUSH1 0x4 ADD PUSH1 0x0 PUSH1 0x40 MLOAD DUP1 DUP4 SUB DUP2 PUSH1 0x0 DUP8 DUP1 EXTCODESIZE ISZERO DUP1 ISZERO PUSH2 0xBB2 JUMPI PUSH1 0x0 DUP1 REVERT JUMPDEST POP GAS CALL ISZERO DUP1 ISZERO PUSH2 0xBC6 JUMPI RETURNDATASIZE PUSH1 0x0 DUP1 RETURNDATACOPY RETURNDATASIZE PUSH1 0x0 REVERT JUMPDEST POP POP POP POP CALLER PUSH20 0xFFFFFFFFFFFFFFFFFFFFFFFFFFFFFFFFFFFFFFFF AND PUSH32 0x1D1DDCA8AA909E7F7FC055611B4269F6C858AD1E95735416F86F08C2D49E7473 DUP9 DUP5 PUSH1 0x40 MLOAD PUSH2 0xC12 SWAP3 SWAP2 SWAP1 PUSH2 0x166C JUMP JUMPDEST PUSH1 0x40 MLOAD DUP1 SWAP2 SUB SWAP1 LOG2 POP POP POP POP POP POP POP JUMP JUMPDEST PUSH1 0x0 DUP3 PUSH20 0xFFFFFFFFFFFFFFFFFFFFFFFFFFFFFFFFFFFFFFFF AND DUP3 PUSH1 0x40 MLOAD PUSH2 0xC49 SWAP1 PUSH2 0x18A4 JUMP JUMPDEST PUSH1 0x0 PUSH1 0x40 MLOAD DUP1 DUP4 SUB DUP2 DUP6 DUP8 GAS CALL SWAP3 POP POP POP RETURNDATASIZE DUP1 PUSH1 0x0 DUP2 EQ PUSH2 0xC86 JUMPI PUSH1 0x40 MLOAD SWAP2 POP PUSH1 0x1F NOT PUSH1 0x3F RETURNDATASIZE ADD AND DUP3 ADD PUSH1 0x40 MSTORE RETURNDATASIZE DUP3 MSTORE RETURNDATASIZE PUSH1 0x0 PUSH1 0x20 DUP5 ADD RETURNDATACOPY PUSH2 0xC8B JUMP JUMPDEST PUSH1 0x60 SWAP2 POP JUMPDEST POP POP SWAP1 POP DUP1 PUSH2 0xCCF JUMPI PUSH1 0x40 MLOAD PUSH32 0x8C379A000000000000000000000000000000000000000000000000000000000 DUP2 MSTORE PUSH1 0x4 ADD PUSH2 0xCC6 SWAP1 PUSH2 0x1971 JUMP JUMPDEST PUSH1 0x40 MLOAD DUP1 SWAP2 SUB SWAP1 REVERT JUMPDEST DUP3 PUSH20 0xFFFFFFFFFFFFFFFFFFFFFFFFFFFFFFFFFFFFFFFF AND PUSH32 0x5AFECA38B2064C23A692C4CF353015D80AB3ECC417B4F893F372690C11FBD9A6 DUP4 PUSH1 0x40 MLOAD PUSH2 0xD15 SWAP2 SWAP1 PUSH2 0x10AB JUMP JUMPDEST PUSH1 0x40 MLOAD DUP1 SWAP2 SUB SWAP1 LOG2 PUSH1 0x0 SELFBALANCE SWAP1 POP PUSH2 0xD2A PUSH2 0xF01 JUMP JUMPDEST PUSH20 0xFFFFFFFFFFFFFFFFFFFFFFFFFFFFFFFFFFFFFFFF AND PUSH4 0xAA5DA046 PUSH1 0x40 MLOAD DUP2 PUSH4 0xFFFFFFFF AND PUSH1 0xE0 SHL DUP2 MSTORE PUSH1 0x4 ADD PUSH1 0x0 PUSH1 0x40 MLOAD DUP1 DUP4 SUB DUP2 PUSH1 0x0 DUP8 DUP1 EXTCODESIZE ISZERO DUP1 ISZERO PUSH2 0xD71 JUMPI PUSH1 0x0 DUP1 REVERT JUMPDEST POP GAS CALL ISZERO DUP1 ISZERO PUSH2 0xD85 JUMPI RETURNDATASIZE PUSH1 0x0 DUP1 RETURNDATACOPY RETURNDATASIZE PUSH1 0x0 REVERT JUMPDEST POP POP POP POP POP POP POP POP JUMP JUMPDEST PUSH1 0x0 PUSH2 0xD9C DUP3 PUSH1 0x0 PUSH2 0x81B JUMP JUMPDEST PUSH1 0x1 SWAP1 POP SWAP2 SWAP1 POP JUMP JUMPDEST PUSH1 0x0 DUP1 SELFBALANCE SWAP1 POP PUSH1 0x0 PUSH2 0xDB5 PUSH2 0xF01 JUMP JUMPDEST PUSH20 0xFFFFFFFFFFFFFFFFFFFFFFFFFFFFFFFFFFFFFFFF AND PUSH4 0x44936B10 PUSH1 0x40 MLOAD DUP2 PUSH4 0xFFFFFFFF AND PUSH1 0xE0 SHL DUP2 MSTORE PUSH1 0x4 ADD PUSH1 0x20 PUSH1 0x40 MLOAD DUP1 DUP4 SUB DUP2 DUP7 GAS STATICCALL ISZERO DUP1 ISZERO PUSH2 0xDFF JUMPI RETURNDATASIZE PUSH1 0x0 DUP1 RETURNDATACOPY RETURNDATASIZE PUSH1 0x0 REVERT JUMPDEST POP POP POP POP PUSH1 0x40 MLOAD RETURNDATASIZE PUSH1 0x1F NOT PUSH1 0x1F DUP3 ADD AND DUP3 ADD DUP1 PUSH1 0x40 MSTORE POP DUP2 ADD SWAP1 PUSH2 0xE23 SWAP2 SWAP1 PUSH2 0x1563 JUMP JUMPDEST SWAP1 POP PUSH2 0xE30 DUP5 DUP4 DUP4 PUSH2 0xE39 JUMP JUMPDEST SWAP3 POP POP POP SWAP2 SWAP1 POP JUMP JUMPDEST PUSH1 0x0 DUP1 PUSH2 0xE46 DUP5 DUP5 PUSH2 0x369 JUMP JUMPDEST SWAP1 POP PUSH1 0x0 PUSH8 0xDE0B6B3A7640000 DUP3 DUP8 PUSH2 0xE5F SWAP2 SWAP1 PUSH2 0x1249 JUMP JUMPDEST PUSH2 0xE69 SWAP2 SWAP1 PUSH2 0x1438 JUMP JUMPDEST SWAP1 POP PUSH1 0x0 DUP2 DUP7 PUSH2 0xE79 SWAP2 SWAP1 PUSH2 0x151A JUMP JUMPDEST SWAP1 POP PUSH1 0x0 PUSH2 0xE87 DUP3 DUP8 PUSH2 0x369 JUMP JUMPDEST SWAP1 POP PUSH1 0x0 PUSH2 0x3E8 PUSH2 0x3CF PUSH1 0x2 DUP5 DUP9 PUSH2 0xE9F SWAP2 SWAP1 PUSH2 0x1469 JUMP JUMPDEST PUSH2 0xEA9 SWAP2 SWAP1 PUSH2 0x1438 JUMP JUMPDEST PUSH2 0xEB3 SWAP2 SWAP1 PUSH2 0x1249 JUMP JUMPDEST PUSH2 0xEBD SWAP2 SWAP1 PUSH2 0x1438 JUMP JUMPDEST SWAP1 POP PUSH1 0x0 PUSH2 0xECB DUP3 DUP5 PUSH2 0x1008 JUMP JUMPDEST SWAP1 POP PUSH1 0x0 PUSH8 0xDE0B6B3A7640000 DUP12 DUP4 PUSH2 0xEE4 SWAP2 SWAP1 PUSH2 0x1249 JUMP JUMPDEST PUSH2 0xEEE SWAP2 SWAP1 PUSH2 0x1438 JUMP JUMPDEST SWAP1 POP DUP1 SWAP8 POP POP POP POP POP POP POP POP SWAP4 SWAP3 POP POP POP JUMP JUMPDEST PUSH1 0x0 PUSH1 0x2 PUSH1 0x0 SWAP1 SLOAD SWAP1 PUSH2 0x100 EXP SWAP1 DIV PUSH20 0xFFFFFFFFFFFFFFFFFFFFFFFFFFFFFFFFFFFFFFFF AND PUSH20 0xFFFFFFFFFFFFFFFFFFFFFFFFFFFFFFFFFFFFFFFF AND PUSH4 0x88EA0751 PUSH1 0x40 MLOAD DUP2 PUSH4 0xFFFFFFFF AND PUSH1 0xE0 SHL DUP2 MSTORE PUSH1 0x4 ADD PUSH1 0x20 PUSH1 0x40 MLOAD DUP1 DUP4 SUB DUP2 DUP7 GAS STATICCALL ISZERO DUP1 ISZERO PUSH2 0xF70 JUMPI RETURNDATASIZE PUSH1 0x0 DUP1 RETURNDATACOPY RETURNDATASIZE PUSH1 0x0 REVERT JUMPDEST POP POP POP POP PUSH1 0x40 MLOAD RETURNDATASIZE PUSH1 0x1F NOT PUSH1 0x1F DUP3 ADD AND DUP3 ADD DUP1 PUSH1 0x40 MSTORE POP DUP2 ADD SWAP1 PUSH2 0xF94 SWAP2 SWAP1 PUSH2 0x19BD JUMP JUMPDEST SWAP1 POP SWAP1 JUMP JUMPDEST PUSH1 0x0 DUP3 DUP3 DUP5 DUP5 DUP7 DUP7 PUSH1 0x3 PUSH8 0xDE0B6B3A7640000 PUSH3 0x588040 PUSH2 0xFBA SWAP2 SWAP1 PUSH2 0x1249 JUMP JUMPDEST PUSH2 0xFC4 SWAP2 SWAP1 PUSH2 0x1438 JUMP JUMPDEST PUSH2 0xFCE SWAP2 SWAP1 PUSH2 0x1249 JUMP JUMPDEST PUSH2 0xFD8 SWAP2 SWAP1 PUSH2 0x1438 JUMP JUMPDEST PUSH2 0xFE2 SWAP2 SWAP1 PUSH2 0x1249 JUMP JUMPDEST PUSH2 0xFEC SWAP2 SWAP1 PUSH2 0x1438 JUMP JUMPDEST PUSH2 0xFF6 SWAP2 SWAP1 PUSH2 0x1249 JUMP JUMPDEST PUSH2 0x1000 SWAP2 SWAP1 PUSH2 0x1438 JUMP JUMPDEST SWAP1 POP SWAP3 SWAP2 POP POP JUMP JUMPDEST PUSH1 0x0 DUP2 DUP4 LT PUSH2 0x1017 JUMPI DUP2 PUSH2 0x1019 JUMP JUMPDEST DUP3 JUMPDEST SWAP1 POP SWAP3 SWAP2 POP POP JUMP JUMPDEST PUSH1 0x0 DUP1 REVERT JUMPDEST PUSH1 0x0 DUP2 SWAP1 POP SWAP2 SWAP1 POP JUMP JUMPDEST PUSH2 0x1039 DUP2 PUSH2 0x1026 JUMP JUMPDEST DUP2 EQ PUSH2 0x1044 JUMPI PUSH1 0x0 DUP1 REVERT JUMPDEST POP JUMP JUMPDEST PUSH1 0x0 DUP2 CALLDATALOAD SWAP1 POP PUSH2 0x1056 DUP2 PUSH2 0x1030 JUMP JUMPDEST SWAP3 SWAP2 POP POP JUMP JUMPDEST PUSH1 0x0 DUP1 PUSH1 0x40 DUP4 DUP6 SUB SLT ISZERO PUSH2 0x1073 JUMPI PUSH2 0x1072 PUSH2 0x1021 JUMP JUMPDEST JUMPDEST PUSH1 0x0 PUSH2 0x1081 DUP6 DUP3 DUP7 ADD PUSH2 0x1047 JUMP JUMPDEST SWAP3 POP POP PUSH1 0x20 PUSH2 0x1092 DUP6 DUP3 DUP7 ADD PUSH2 0x1047 JUMP JUMPDEST SWAP2 POP POP SWAP3 POP SWAP3 SWAP1 POP JUMP JUMPDEST PUSH2 0x10A5 DUP2 PUSH2 0x1026 JUMP JUMPDEST DUP3 MSTORE POP POP JUMP JUMPDEST PUSH1 0x0 PUSH1 0x20 DUP3 ADD SWAP1 POP PUSH2 0x10C0 PUSH1 0x0 DUP4 ADD DUP5 PUSH2 0x109C JUMP JUMPDEST SWAP3 SWAP2 POP POP JUMP JUMPDEST PUSH1 0x0 PUSH1 0x20 DUP3 DUP5 SUB SLT ISZERO PUSH2 0x10DC JUMPI PUSH2 0x10DB PUSH2 0x1021 JUMP JUMPDEST JUMPDEST PUSH1 0x0 PUSH2 0x10EA DUP5 DUP3 DUP6 ADD PUSH2 0x1047 JUMP JUMPDEST SWAP2 POP POP SWAP3 SWAP2 POP POP JUMP JUMPDEST PUSH1 0x0 DUP1 PUSH1 0x0 PUSH1 0x60 DUP5 DUP7 SUB SLT ISZERO PUSH2 0x110C JUMPI PUSH2 0x110B PUSH2 0x1021 JUMP JUMPDEST JUMPDEST PUSH1 0x0 PUSH2 0x111A DUP7 DUP3 DUP8 ADD PUSH2 0x1047 JUMP JUMPDEST SWAP4 POP POP PUSH1 0x20 PUSH2 0x112B DUP7 DUP3 DUP8 ADD PUSH2 0x1047 JUMP JUMPDEST SWAP3 POP POP PUSH1 0x40 PUSH2 0x113C DUP7 DUP3 DUP8 ADD PUSH2 0x1047 JUMP JUMPDEST SWAP2 POP POP SWAP3 POP SWAP3 POP SWAP3 JUMP JUMPDEST PUSH1 0x0 PUSH20 0xFFFFFFFFFFFFFFFFFFFFFFFFFFFFFFFFFFFFFFFF DUP3 AND SWAP1 POP SWAP2 SWAP1 POP JUMP JUMPDEST PUSH1 0x0 PUSH2 0x1171 DUP3 PUSH2 0x1146 JUMP JUMPDEST SWAP1 POP SWAP2 SWAP1 POP JUMP JUMPDEST PUSH2 0x1181 DUP2 PUSH2 0x1166 JUMP JUMPDEST DUP2 EQ PUSH2 0x118C JUMPI PUSH1 0x0 DUP1 REVERT JUMPDEST POP JUMP JUMPDEST PUSH1 0x0 DUP2 CALLDATALOAD SWAP1 POP PUSH2 0x119E DUP2 PUSH2 0x1178 JUMP JUMPDEST SWAP3 SWAP2 POP POP JUMP JUMPDEST PUSH1 0x0 DUP1 PUSH1 0x40 DUP4 DUP6 SUB SLT ISZERO PUSH2 0x11BB JUMPI PUSH2 0x11BA PUSH2 0x1021 JUMP JUMPDEST JUMPDEST PUSH1 0x0 PUSH2 0x11C9 DUP6 DUP3 DUP7 ADD PUSH2 0x118F JUMP JUMPDEST SWAP3 POP POP PUSH1 0x20 PUSH2 0x11DA DUP6 DUP3 DUP7 ADD PUSH2 0x1047 JUMP JUMPDEST SWAP2 POP POP SWAP3 POP SWAP3 SWAP1 POP JUMP JUMPDEST PUSH1 0x0 DUP2 ISZERO ISZERO SWAP1 POP SWAP2 SWAP1 POP JUMP JUMPDEST PUSH2 0x11F9 DUP2 PUSH2 0x11E4 JUMP JUMPDEST DUP3 MSTORE POP POP JUMP JUMPDEST PUSH1 0x0 PUSH1 0x20 DUP3 ADD SWAP1 POP PUSH2 0x1214 PUSH1 0x0 DUP4 ADD DUP5 PUSH2 0x11F0 JUMP JUMPDEST SWAP3 SWAP2 POP POP JUMP JUMPDEST PUSH32 0x4E487B7100000000000000000000000000000000000000000000000000000000 PUSH1 0x0 MSTORE PUSH1 0x11 PUSH1 0x4 MSTORE PUSH1 0x24 PUSH1 0x0 REVERT JUMPDEST PUSH1 0x0 PUSH2 0x1254 DUP3 PUSH2 0x1026 JUMP JUMPDEST SWAP2 POP PUSH2 0x125F DUP4 PUSH2 0x1026 JUMP JUMPDEST SWAP3 POP DUP3 DUP3 MUL PUSH2 0x126D DUP2 PUSH2 0x1026 JUMP JUMPDEST SWAP2 POP DUP3 DUP3 DIV DUP5 EQ DUP4 ISZERO OR PUSH2 0x1284 JUMPI PUSH2 0x1283 PUSH2 0x121A JUMP JUMPDEST JUMPDEST POP SWAP3 SWAP2 POP POP JUMP JUMPDEST PUSH1 0x0 DUP2 PUSH1 0x1 SHR SWAP1 POP SWAP2 SWAP1 POP JUMP JUMPDEST PUSH1 0x0 DUP1 DUP3 SWAP2 POP DUP4 SWAP1 POP JUMPDEST PUSH1 0x1 DUP6 GT ISZERO PUSH2 0x12E2 JUMPI DUP1 DUP7 DIV DUP2 GT ISZERO PUSH2 0x12BE JUMPI PUSH2 0x12BD PUSH2 0x121A JUMP JUMPDEST JUMPDEST PUSH1 0x1 DUP6 AND ISZERO PUSH2 0x12CD JUMPI DUP1 DUP3 MUL SWAP2 POP JUMPDEST DUP1 DUP2 MUL SWAP1 POP PUSH2 0x12DB DUP6 PUSH2 0x128B JUMP JUMPDEST SWAP5 POP PUSH2 0x12A2 JUMP JUMPDEST SWAP5 POP SWAP5 SWAP3 POP POP POP JUMP JUMPDEST PUSH1 0x0 DUP3 PUSH2 0x12FB JUMPI PUSH1 0x1 SWAP1 POP PUSH2 0x13B7 JUMP JUMPDEST DUP2 PUSH2 0x1309 JUMPI PUSH1 0x0 SWAP1 POP PUSH2 0x13B7 JUMP JUMPDEST DUP2 PUSH1 0x1 DUP2 EQ PUSH2 0x131F JUMPI PUSH1 0x2 DUP2 EQ PUSH2 0x1329 JUMPI PUSH2 0x1358 JUMP JUMPDEST PUSH1 0x1 SWAP2 POP POP PUSH2 0x13B7 JUMP JUMPDEST PUSH1 0xFF DUP5 GT ISZERO PUSH2 0x133B JUMPI PUSH2 0x133A PUSH2 0x121A JUMP JUMPDEST JUMPDEST DUP4 PUSH1 0x2 EXP SWAP2 POP DUP5 DUP3 GT ISZERO PUSH2 0x1352 JUMPI PUSH2 0x1351 PUSH2 0x121A JUMP JUMPDEST JUMPDEST POP PUSH2 0x13B7 JUMP JUMPDEST POP PUSH1 0x20 DUP4 LT PUSH2 0x133 DUP4 LT AND PUSH1 0x4E DUP5 LT PUSH1 0xB DUP5 LT AND OR ISZERO PUSH2 0x138D JUMPI DUP3 DUP3 EXP SWAP1 POP DUP4 DUP2 GT ISZERO PUSH2 0x1388 JUMPI PUSH2 0x1387 PUSH2 0x121A JUMP JUMPDEST JUMPDEST PUSH2 0x13B7 JUMP JUMPDEST PUSH2 0x139A DUP5 DUP5 DUP5 PUSH1 0x1 PUSH2 0x1298 JUMP JUMPDEST SWAP3 POP SWAP1 POP DUP2 DUP5 DIV DUP2 GT ISZERO PUSH2 0x13B1 JUMPI PUSH2 0x13B0 PUSH2 0x121A JUMP JUMPDEST JUMPDEST DUP2 DUP2 MUL SWAP1 POP JUMPDEST SWAP4 SWAP3 POP POP POP JUMP JUMPDEST PUSH1 0x0 PUSH2 0x13C9 DUP3 PUSH2 0x1026 JUMP JUMPDEST SWAP2 POP PUSH2 0x13D4 DUP4 PUSH2 0x1026 JUMP JUMPDEST SWAP3 POP PUSH2 0x1401 PUSH32 0xFFFFFFFFFFFFFFFFFFFFFFFFFFFFFFFFFFFFFFFFFFFFFFFFFFFFFFFFFFFFFFFF DUP5 DUP5 PUSH2 0x12EB JUMP JUMPDEST SWAP1 POP SWAP3 SWAP2 POP POP JUMP JUMPDEST PUSH32 0x4E487B7100000000000000000000000000000000000000000000000000000000 PUSH1 0x0 MSTORE PUSH1 0x12 PUSH1 0x4 MSTORE PUSH1 0x24 PUSH1 0x0 REVERT JUMPDEST PUSH1 0x0 PUSH2 0x1443 DUP3 PUSH2 0x1026 JUMP JUMPDEST SWAP2 POP PUSH2 0x144E DUP4 PUSH2 0x1026 JUMP JUMPDEST SWAP3 POP DUP3 PUSH2 0x145E JUMPI PUSH2 0x145D PUSH2 0x1409 JUMP JUMPDEST JUMPDEST DUP3 DUP3 DIV SWAP1 POP SWAP3 SWAP2 POP POP JUMP JUMPDEST PUSH1 0x0 PUSH2 0x1474 DUP3 PUSH2 0x1026 JUMP JUMPDEST SWAP2 POP PUSH2 0x147F DUP4 PUSH2 0x1026 JUMP JUMPDEST SWAP3 POP DUP3 DUP3 ADD SWAP1 POP DUP1 DUP3 GT ISZERO PUSH2 0x1497 JUMPI PUSH2 0x1496 PUSH2 0x121A JUMP JUMPDEST JUMPDEST SWAP3 SWAP2 POP POP JUMP JUMPDEST PUSH1 0x0 DUP3 DUP3 MSTORE PUSH1 0x20 DUP3 ADD SWAP1 POP SWAP3 SWAP2 POP POP JUMP JUMPDEST PUSH32 0x506F6F6C3A20657468496E203E20300000000000000000000000000000000000 PUSH1 0x0 DUP3 ADD MSTORE POP JUMP JUMPDEST PUSH1 0x0 PUSH2 0x14E4 PUSH1 0xF DUP4 PUSH2 0x149D JUMP JUMPDEST SWAP2 POP PUSH2 0x14EF DUP3 PUSH2 0x14AE JUMP JUMPDEST PUSH1 0x20 DUP3 ADD SWAP1 POP SWAP2 SWAP1 POP JUMP JUMPDEST PUSH1 0x0 PUSH1 0x20 DUP3 ADD SWAP1 POP DUP2 DUP2 SUB PUSH1 0x0 DUP4 ADD MSTORE PUSH2 0x1513 DUP2 PUSH2 0x14D7 JUMP JUMPDEST SWAP1 POP SWAP2 SWAP1 POP JUMP JUMPDEST PUSH1 0x0 PUSH2 0x1525 DUP3 PUSH2 0x1026 JUMP JUMPDEST SWAP2 POP PUSH2 0x1530 DUP4 PUSH2 0x1026 JUMP JUMPDEST SWAP3 POP DUP3 DUP3 SUB SWAP1 POP DUP2 DUP2 GT ISZERO PUSH2 0x1548 JUMPI PUSH2 0x1547 PUSH2 0x121A JUMP JUMPDEST JUMPDEST SWAP3 SWAP2 POP POP JUMP JUMPDEST PUSH1 0x0 DUP2 MLOAD SWAP1 POP PUSH2 0x155D DUP2 PUSH2 0x1030 JUMP JUMPDEST SWAP3 SWAP2 POP POP JUMP JUMPDEST PUSH1 0x0 PUSH1 0x20 DUP3 DUP5 SUB SLT ISZERO PUSH2 0x1579 JUMPI PUSH2 0x1578 PUSH2 0x1021 JUMP JUMPDEST JUMPDEST PUSH1 0x0 PUSH2 0x1587 DUP5 DUP3 DUP6 ADD PUSH2 0x154E JUMP JUMPDEST SWAP2 POP POP SWAP3 SWAP2 POP POP JUMP JUMPDEST PUSH32 0x506F6F6C3A20746F6B656E734F7574206973206C657373207468616E206D696E PUSH1 0x0 DUP3 ADD MSTORE PUSH32 0x546F6B656E734F75740000000000000000000000000000000000000000000000 PUSH1 0x20 DUP3 ADD MSTORE POP JUMP JUMPDEST PUSH1 0x0 PUSH2 0x15EC PUSH1 0x29 DUP4 PUSH2 0x149D JUMP JUMPDEST SWAP2 POP PUSH2 0x15F7 DUP3 PUSH2 0x1590 JUMP JUMPDEST PUSH1 0x40 DUP3 ADD SWAP1 POP SWAP2 SWAP1 POP JUMP JUMPDEST PUSH1 0x0 PUSH1 0x20 DUP3 ADD SWAP1 POP DUP2 DUP2 SUB PUSH1 0x0 DUP4 ADD MSTORE PUSH2 0x161B DUP2 PUSH2 0x15DF JUMP JUMPDEST SWAP1 POP SWAP2 SWAP1 POP JUMP JUMPDEST PUSH1 0x0 PUSH2 0x162D DUP3 PUSH2 0x1146 JUMP JUMPDEST SWAP1 POP SWAP2 SWAP1 POP JUMP JUMPDEST PUSH2 0x163D DUP2 PUSH2 0x1622 JUMP JUMPDEST DUP3 MSTORE POP POP JUMP JUMPDEST PUSH1 0x0 PUSH1 0x40 DUP3 ADD SWAP1 POP PUSH2 0x1658 PUSH1 0x0 DUP4 ADD DUP6 PUSH2 0x1634 JUMP JUMPDEST PUSH2 0x1665 PUSH1 0x20 DUP4 ADD DUP5 PUSH2 0x109C JUMP JUMPDEST SWAP4 SWAP3 POP POP POP JUMP JUMPDEST PUSH1 0x0 PUSH1 0x40 DUP3 ADD SWAP1 POP PUSH2 0x1681 PUSH1 0x0 DUP4 ADD DUP6 PUSH2 0x109C JUMP JUMPDEST PUSH2 0x168E PUSH1 0x20 DUP4 ADD DUP5 PUSH2 0x109C JUMP JUMPDEST SWAP4 SWAP3 POP POP POP JUMP JUMPDEST PUSH1 0x0 PUSH1 0x20 DUP3 ADD SWAP1 POP PUSH2 0x16AA PUSH1 0x0 DUP4 ADD DUP5 PUSH2 0x1634 JUMP JUMPDEST SWAP3 SWAP2 POP POP JUMP JUMPDEST PUSH32 0x506F6F6C3A204E6F7420656E6F7567682062616C616E63650000000000000000 PUSH1 0x0 DUP3 ADD MSTORE POP JUMP JUMPDEST PUSH1 0x0 PUSH2 0x16E6 PUSH1 0x18 DUP4 PUSH2 0x149D JUMP JUMPDEST SWAP2 POP PUSH2 0x16F1 DUP3 PUSH2 0x16B0 JUMP JUMPDEST PUSH1 0x20 DUP3 ADD SWAP1 POP SWAP2 SWAP1 POP JUMP JUMPDEST PUSH1 0x0 PUSH1 0x20 DUP3 ADD SWAP1 POP DUP2 DUP2 SUB PUSH1 0x0 DUP4 ADD MSTORE PUSH2 0x1715 DUP2 PUSH2 0x16D9 JUMP JUMPDEST SWAP1 POP SWAP2 SWAP1 POP JUMP JUMPDEST PUSH32 0x506F6F6C3A204D4352252063616E6E6F742066616C6C2062656C6F7720313030 PUSH1 0x0 DUP3 ADD MSTORE PUSH32 0x2500000000000000000000000000000000000000000000000000000000000000 PUSH1 0x20 DUP3 ADD MSTORE POP JUMP JUMPDEST PUSH1 0x0 PUSH2 0x1778 PUSH1 0x21 DUP4 PUSH2 0x149D JUMP JUMPDEST SWAP2 POP PUSH2 0x1783 DUP3 PUSH2 0x171C JUMP JUMPDEST PUSH1 0x40 DUP3 ADD SWAP1 POP SWAP2 SWAP1 POP JUMP JUMPDEST PUSH1 0x0 PUSH1 0x20 DUP3 ADD SWAP1 POP DUP2 DUP2 SUB PUSH1 0x0 DUP4 ADD MSTORE PUSH2 0x17A7 DUP2 PUSH2 0x176B JUMP JUMPDEST SWAP1 POP SWAP2 SWAP1 POP JUMP JUMPDEST PUSH32 0x506F6F6C3A206574684F7574203C206D696E4574684F75740000000000000000 PUSH1 0x0 DUP3 ADD MSTORE POP JUMP JUMPDEST PUSH1 0x0 PUSH2 0x17E4 PUSH1 0x18 DUP4 PUSH2 0x149D JUMP JUMPDEST SWAP2 POP PUSH2 0x17EF DUP3 PUSH2 0x17AE JUMP JUMPDEST PUSH1 0x20 DUP3 ADD SWAP1 POP SWAP2 SWAP1 POP JUMP JUMPDEST PUSH1 0x0 PUSH1 0x20 DUP3 ADD SWAP1 POP DUP2 DUP2 SUB PUSH1 0x0 DUP4 ADD MSTORE PUSH2 0x1813 DUP2 PUSH2 0x17D7 JUMP JUMPDEST SWAP1 POP SWAP2 SWAP1 POP JUMP JUMPDEST PUSH2 0x1823 DUP2 PUSH2 0x11E4 JUMP JUMPDEST DUP2 EQ PUSH2 0x182E JUMPI PUSH1 0x0 DUP1 REVERT JUMPDEST POP JUMP JUMPDEST PUSH1 0x0 DUP2 MLOAD SWAP1 POP PUSH2 0x1840 DUP2 PUSH2 0x181A JUMP JUMPDEST SWAP3 SWAP2 POP POP JUMP JUMPDEST PUSH1 0x0 PUSH1 0x20 DUP3 DUP5 SUB SLT ISZERO PUSH2 0x185C JUMPI PUSH2 0x185B PUSH2 0x1021 JUMP JUMPDEST JUMPDEST PUSH1 0x0 PUSH2 0x186A DUP5 DUP3 DUP6 ADD PUSH2 0x1831 JUMP JUMPDEST SWAP2 POP POP SWAP3 SWAP2 POP POP JUMP JUMPDEST PUSH1 0x0 DUP2 SWAP1 POP SWAP3 SWAP2 POP POP JUMP JUMPDEST POP JUMP JUMPDEST PUSH1 0x0 PUSH2 0x188E PUSH1 0x0 DUP4 PUSH2 0x1873 JUMP JUMPDEST SWAP2 POP PUSH2 0x1899 DUP3 PUSH2 0x187E JUMP JUMPDEST PUSH1 0x0 DUP3 ADD SWAP1 POP SWAP2 SWAP1 POP JUMP JUMPDEST PUSH1 0x0 PUSH2 0x18AF DUP3 PUSH2 0x1881 JUMP JUMPDEST SWAP2 POP DUP2 SWAP1 POP SWAP2 SWAP1 POP JUMP JUMPDEST PUSH32 0x506F6F6C3A2053656C6C207472616E73666572206661696C6564000000000000 PUSH1 0x0 DUP3 ADD MSTORE POP JUMP JUMPDEST PUSH1 0x0 PUSH2 0x18EF PUSH1 0x1A DUP4 PUSH2 0x149D JUMP JUMPDEST SWAP2 POP PUSH2 0x18FA DUP3 PUSH2 0x18B9 JUMP JUMPDEST PUSH1 0x20 DUP3 ADD SWAP1 POP SWAP2 SWAP1 POP JUMP JUMPDEST PUSH1 0x0 PUSH1 0x20 DUP3 ADD SWAP1 POP DUP2 DUP2 SUB PUSH1 0x0 DUP4 ADD MSTORE PUSH2 0x191E DUP2 PUSH2 0x18E2 JUMP JUMPDEST SWAP1 POP SWAP2 SWAP1 POP JUMP JUMPDEST PUSH32 0x506F6F6C3A20455448207472616E73666572206661696C656400000000000000 PUSH1 0x0 DUP3 ADD MSTORE POP JUMP JUMPDEST PUSH1 0x0 PUSH2 0x195B PUSH1 0x19 DUP4 PUSH2 0x149D JUMP JUMPDEST SWAP2 POP PUSH2 0x1966 DUP3 PUSH2 0x1925 JUMP JUMPDEST PUSH1 0x20 DUP3 ADD SWAP1 POP SWAP2 SWAP1 POP JUMP JUMPDEST PUSH1 0x0 PUSH1 0x20 DUP3 ADD SWAP1 POP DUP2 DUP2 SUB PUSH1 0x0 DUP4 ADD MSTORE PUSH2 0x198A DUP2 PUSH2 0x194E JUMP JUMPDEST SWAP1 POP SWAP2 SWAP1 POP JUMP JUMPDEST PUSH2 0x199A DUP2 PUSH2 0x1622 JUMP JUMPDEST DUP2 EQ PUSH2 0x19A5 JUMPI PUSH1 0x0 DUP1 REVERT JUMPDEST POP JUMP JUMPDEST PUSH1 0x0 DUP2 MLOAD SWAP1 POP PUSH2 0x19B7 DUP2 PUSH2 0x1991 JUMP JUMPDEST SWAP3 SWAP2 POP POP JUMP JUMPDEST PUSH1 0x0 PUSH1 0x20 DUP3 DUP5 SUB SLT ISZERO PUSH2 0x19D3 JUMPI PUSH2 0x19D2 PUSH2 0x1021 JUMP JUMPDEST JUMPDEST PUSH1 0x0 PUSH2 0x19E1 DUP5 DUP3 DUP6 ADD PUSH2 0x19A8 JUMP JUMPDEST SWAP2 POP POP SWAP3 SWAP2 POP POP JUMP INVALID LOG2 PUSH5 0x6970667358 0x22 SLT KECCAK256 DUP11 0xC0 SWAP5 INVALID SWAP12 PUSH23 0x4207A0D565B3E7FEF110C034D7CAB73E21E2760B895E7E 0xAB PUSH14 0x1F64736F6C634300081300330000 "
		},
		"gasEstimates": {
			"creation": {
				"codeDepositCost": "1337600",
				"executionCost": "infinite",
				"totalCost": "infinite"
			},
			"external": {
				"": "218",
				"MAX_BUY_SELL_MCR_ETH_FRACTION()": "374",
				"MAX_MCR_RATIO()": "374",
				"MCR_RATIO_DECIMALS()": "396",
				"buyHEDH(uint256)": "infinite",
				"calculateEthForHEDH(uint256,uint256,uint256)": "infinite",
				"calculateHEDHForEth(uint256,uint256,uint256)": "infinite",
				"calculateMCRRatio(uint256,uint256)": "infinite",
				"calculateTokenSpotPrice(uint256,uint256)": "infinite",
				"getEthForHEDH(uint256)": "infinite",
				"getHEDHForEth(uint256)": "infinite",
				"sellHEDH(uint256,uint256)": "infinite",
				"sellHEDHTokens(uint256)": "infinite",
				"sendPayout(address,uint256)": "infinite"
			},
			"internal": {
				"calculateIntegralAtPoint(uint256,uint256)": "infinite",
				"mcr()": "infinite"
			}
		},
		"methodIdentifiers": {
			"MAX_BUY_SELL_MCR_ETH_FRACTION()": "1f50c989",
			"MAX_MCR_RATIO()": "b222a4d3",
			"MCR_RATIO_DECIMALS()": "4779be08",
			"buyHEDH(uint256)": "06833ffd",
			"calculateEthForHEDH(uint256,uint256,uint256)": "ebb8433f",
			"calculateHEDHForEth(uint256,uint256,uint256)": "657e0542",
			"calculateMCRRatio(uint256,uint256)": "70310cb7",
			"calculateTokenSpotPrice(uint256,uint256)": "04e8266f",
			"getEthForHEDH(uint256)": "eabf3407",
			"getHEDHForEth(uint256)": "483b6f1d",
			"sellHEDH(uint256,uint256)": "bdf4872b",
			"sellHEDHTokens(uint256)": "e57a8fef",
			"sendPayout(address,uint256)": "cf8d133f"
		}
	},
	"abi": [
		{
			"inputs": [
				{
					"internalType": "address",
					"name": "_HEDHTokenAddress",
					"type": "address"
				},
				{
					"internalType": "address",
					"name": "_master",
					"type": "address"
				}
			],
			"stateMutability": "nonpayable",
			"type": "constructor"
		},
		{
			"anonymous": false,
			"inputs": [
				{
					"indexed": true,
					"internalType": "address",
					"name": "member",
					"type": "address"
				},
				{
					"indexed": false,
					"internalType": "uint256",
					"name": "ethIn",
					"type": "uint256"
				},
				{
					"indexed": false,
					"internalType": "uint256",
					"name": "nxmOut",
					"type": "uint256"
				}
			],
			"name": "HEDHBought",
			"type": "event"
		},
		{
			"anonymous": false,
			"inputs": [
				{
					"indexed": true,
					"internalType": "address",
					"name": "member",
					"type": "address"
				},
				{
					"indexed": false,
					"internalType": "uint256",
					"name": "nxmIn",
					"type": "uint256"
				},
				{
					"indexed": false,
					"internalType": "uint256",
					"name": "ethOut",
					"type": "uint256"
				}
			],
			"name": "HEDHSold",
			"type": "event"
		},
		{
			"anonymous": false,
			"inputs": [
				{
					"indexed": true,
					"internalType": "address",
					"name": "to",
					"type": "address"
				},
				{
					"indexed": false,
					"internalType": "uint256",
					"name": "amount",
					"type": "uint256"
				}
			],
			"name": "Payout",
			"type": "event"
		},
		{
			"stateMutability": "payable",
			"type": "fallback"
		},
		{
			"inputs": [],
			"name": "MAX_BUY_SELL_MCR_ETH_FRACTION",
			"outputs": [
				{
					"internalType": "uint256",
					"name": "",
					"type": "uint256"
				}
			],
			"stateMutability": "view",
			"type": "function"
		},
		{
			"inputs": [],
			"name": "MAX_MCR_RATIO",
			"outputs": [
				{
					"internalType": "uint256",
					"name": "",
					"type": "uint256"
				}
			],
			"stateMutability": "view",
			"type": "function"
		},
		{
			"inputs": [],
			"name": "MCR_RATIO_DECIMALS",
			"outputs": [
				{
					"internalType": "uint256",
					"name": "",
					"type": "uint256"
				}
			],
			"stateMutability": "view",
			"type": "function"
		},
		{
			"inputs": [
				{
					"internalType": "uint256",
					"name": "minTokensOut",
					"type": "uint256"
				}
			],
			"name": "buyHEDH",
			"outputs": [],
			"stateMutability": "payable",
			"type": "function"
		},
		{
			"inputs": [
				{
					"internalType": "uint256",
					"name": "nxmAmount",
					"type": "uint256"
				},
				{
					"internalType": "uint256",
					"name": "currentTotalAssetValue",
					"type": "uint256"
				},
				{
					"internalType": "uint256",
					"name": "mcrEth",
					"type": "uint256"
				}
			],
			"name": "calculateEthForHEDH",
			"outputs": [
				{
					"internalType": "uint256",
					"name": "",
					"type": "uint256"
				}
			],
			"stateMutability": "pure",
			"type": "function"
		},
		{
			"inputs": [
				{
					"internalType": "uint256",
					"name": "ethAmount",
					"type": "uint256"
				},
				{
					"internalType": "uint256",
					"name": "currentTotalAssetValue",
					"type": "uint256"
				},
				{
					"internalType": "uint256",
					"name": "mcrEth",
					"type": "uint256"
				}
			],
			"name": "calculateHEDHForEth",
			"outputs": [
				{
					"internalType": "uint256",
					"name": "",
					"type": "uint256"
				}
			],
			"stateMutability": "pure",
			"type": "function"
		},
		{
			"inputs": [
				{
					"internalType": "uint256",
					"name": "totalAssetValue",
					"type": "uint256"
				},
				{
					"internalType": "uint256",
					"name": "mcrEth",
					"type": "uint256"
				}
			],
			"name": "calculateMCRRatio",
			"outputs": [
				{
					"internalType": "uint256",
					"name": "",
					"type": "uint256"
				}
			],
			"stateMutability": "pure",
			"type": "function"
		},
		{
			"inputs": [
				{
					"internalType": "uint256",
					"name": "totalAssetValue",
					"type": "uint256"
				},
				{
					"internalType": "uint256",
					"name": "mcrEth",
					"type": "uint256"
				}
			],
			"name": "calculateTokenSpotPrice",
			"outputs": [
				{
					"internalType": "uint256",
					"name": "tokenPrice",
					"type": "uint256"
				}
			],
			"stateMutability": "pure",
			"type": "function"
		},
		{
			"inputs": [
				{
					"internalType": "uint256",
					"name": "hedhAmount",
					"type": "uint256"
				}
			],
			"name": "getEthForHEDH",
			"outputs": [
				{
					"internalType": "uint256",
					"name": "ethAmount",
					"type": "uint256"
				}
			],
			"stateMutability": "view",
			"type": "function"
		},
		{
			"inputs": [
				{
					"internalType": "uint256",
					"name": "ethAmount",
					"type": "uint256"
				}
			],
			"name": "getHEDHForEth",
			"outputs": [
				{
					"internalType": "uint256",
					"name": "",
					"type": "uint256"
				}
			],
			"stateMutability": "view",
			"type": "function"
		},
		{
			"inputs": [
				{
					"internalType": "uint256",
					"name": "tokenAmount",
					"type": "uint256"
				},
				{
					"internalType": "uint256",
					"name": "minEthOut",
					"type": "uint256"
				}
			],
			"name": "sellHEDH",
			"outputs": [],
			"stateMutability": "nonpayable",
			"type": "function"
		},
		{
			"inputs": [
				{
					"internalType": "uint256",
					"name": "amount",
					"type": "uint256"
				}
			],
			"name": "sellHEDHTokens",
			"outputs": [
				{
					"internalType": "bool",
					"name": "success",
					"type": "bool"
				}
			],
			"stateMutability": "nonpayable",
			"type": "function"
		},
		{
			"inputs": [
				{
					"internalType": "address payable",
					"name": "payoutAddress",
					"type": "address"
				},
				{
					"internalType": "uint256",
					"name": "amount",
					"type": "uint256"
				}
			],
			"name": "sendPayout",
			"outputs": [],
			"stateMutability": "nonpayable",
			"type": "function"
		},
		{
			"stateMutability": "payable",
			"type": "receive"
		}
	]
}