{
	"data": {
		"bytecode": {
			"linkReferences": {},
			"object": "608060405260015f5534801562000014575f80fd5b5060405162001af438038062001af483398181016040528101906200003a919062000127565b8160015f6101000a81548173ffffffffffffffffffffffffffffffffffffffff021916908373ffffffffffffffffffffffffffffffffffffffff1602179055508060025f6101000a81548173ffffffffffffffffffffffffffffffffffffffff021916908373ffffffffffffffffffffffffffffffffffffffff16021790555050506200016c565b5f80fd5b5f73ffffffffffffffffffffffffffffffffffffffff82169050919050565b5f620000f182620000c6565b9050919050565b6200010381620000e5565b81146200010e575f80fd5b50565b5f815190506200012181620000f8565b92915050565b5f806040838503121562000140576200013f620000c2565b5b5f6200014f8582860162000111565b9250506020620001628582860162000111565b9150509250929050565b61197a806200017a5f395ff3fe6080604052600436106100c5575f3560e01c806370310cb71161007e578063cf8d133f11610058578063cf8d133f14610280578063e57a8fef146102a8578063eabf3407146102e4578063ebb8433f14610320576100cc565b806370310cb7146101f2578063b222a4d31461022e578063bdf4872b14610258576100cc565b806304e8266f146100ce57806306833ffd1461010a5780631f50c989146101265780634779be0814610150578063483b6f1d1461017a578063657e0542146101b6576100cc565b366100cc57005b005b3480156100d9575f80fd5b506100f460048036038101906100ef9190611009565b61035c565b6040516101019190611056565b60405180910390f35b610124600480360381019061011f919061106f565b6103d3565b005b348015610131575f80fd5b5061013a61063f565b6040516101479190611056565b60405180910390f35b34801561015b575f80fd5b50610164610645565b6040516101719190611056565b60405180910390f35b348015610185575f80fd5b506101a0600480360381019061019b919061106f565b61064a565b6040516101ad9190611056565b60405180910390f35b3480156101c1575f80fd5b506101dc60048036038101906101d7919061109a565b6106db565b6040516101e99190611056565b60405180910390f35b3480156101fd575f80fd5b5061021860048036038101906102139190611009565b6107ca565b6040516102259190611056565b60405180910390f35b348015610239575f80fd5b506102426107f7565b60405161024f9190611056565b60405180910390f35b348015610263575f80fd5b5061027e60048036038101906102799190611009565b6107fd565b005b34801561028b575f80fd5b506102a660048036038101906102a19190611144565b610bf0565b005b3480156102b3575f80fd5b506102ce60048036038101906102c9919061106f565b610d52565b6040516102db919061119c565b60405180910390f35b3480156102ef575f80fd5b5061030a6004803603810190610305919061106f565b610d66565b6040516103179190611056565b60405180910390f35b34801561032b575f80fd5b506103466004803603810190610341919061109a565b610df7565b6040516103539190611056565b60405180910390f35b5f8061036884846107ca565b90505f60048061037891906111e2565b600a6103849190611352565b90506624859b044a800081625880406004856103a09190611352565b876103ab91906111e2565b6103b591906113c9565b6103bf91906113c9565b6103c991906113f9565b9250505092915050565b5f3490505f8111610419576040517f08c379a000000000000000000000000000000000000000000000000000000000815260040161041090611486565b60405180910390fd5b5f814761042691906114a4565b90505f610431610eb8565b90505f8173ffffffffffffffffffffffffffffffffffffffff166344936b106040518163ffffffff1660e01b81526004016020604051808303815f875af115801561047e573d5f803e3d5ffd5b505050506040513d601f19601f820116820180604052508101906104a291906114eb565b90505f6104af84836107ca565b90505f6104bd8686856106db565b905086811015610502576040517f08c379a00000000000000000000000000000000000000000000000000000000081526004016104f990611586565b60405180910390fd5b60015f9054906101000a900473ffffffffffffffffffffffffffffffffffffffff1673ffffffffffffffffffffffffffffffffffffffff166340c10f1933836040518363ffffffff1660e01b815260040161055e9291906115c4565b5f604051808303815f87803b158015610575575f80fd5b505af1158015610587573d5f803e3d5ffd5b505050508373ffffffffffffffffffffffffffffffffffffffff1663aa5da0466040518163ffffffff1660e01b81526004015f604051808303815f87803b1580156105d0575f80fd5b505af11580156105e2573d5f803e3d5ffd5b505050503373ffffffffffffffffffffffffffffffffffffffff167fc5fc954940739c9d45b12cd63fec8b2fb3887d642d3572cf741e45f30088ad93878360405161062e9291906115eb565b60405180910390a250505050505050565b6101f481565b600481565b5f804790505f610658610eb8565b73ffffffffffffffffffffffffffffffffffffffff166344936b106040518163ffffffff1660e01b81526004016020604051808303815f875af11580156106a1573d5f803e3d5ffd5b505050506040513d601f19601f820116820180604052508101906106c591906114eb565b90506106d28483836106db565b92505050919050565b5f808314806106f9575064e8d4a5100083836106f791906113c9565b115b1561072b576624859b044a8000670de0b6b3a76400008561071a91906111e2565b61072491906113c9565b90506107c3565b5f6107368484610f4c565b90505f858561074591906113f9565b90505f6107528286610f4c565b90505f818461076191906114a4565b90505f81670de0b6b3a76400008a61077991906111e2565b61078391906113c9565b90505f6624859b044a80008261079991906113f9565b905080670de0b6b3a76400008b6107b091906111e2565b6107ba91906113c9565b96505050505050505b9392505050565b5f816004600a6107da9190611352565b846107e591906111e2565b6107ef91906113c9565b905092915050565b619c4081565b8160015f9054906101000a900473ffffffffffffffffffffffffffffffffffffffff1673ffffffffffffffffffffffffffffffffffffffff166370a08231336040518263ffffffff1660e01b81526004016108589190611612565b602060405180830381865afa158015610873573d5f803e3d5ffd5b505050506040513d601f19601f8201168201806040525081019061089791906114eb565b10156108d8576040517f08c379a00000000000000000000000000000000000000000000000000000000081526004016108cf90611675565b60405180910390fd5b5f6108e1610eb8565b90505f4790505f8273ffffffffffffffffffffffffffffffffffffffff166344936b106040518163ffffffff1660e01b81526004016020604051808303815f875af1158015610932573d5f803e3d5ffd5b505050506040513d601f19601f8201168201806040525081019061095691906114eb565b90505f610964868484610df7565b905081818461097391906114a4565b10156109b4576040517f08c379a00000000000000000000000000000000000000000000000000000000081526004016109ab90611703565b60405180910390fd5b848110156109f7576040517f08c379a00000000000000000000000000000000000000000000000000000000081526004016109ee9061176b565b60405180910390fd5b60015f9054906101000a900473ffffffffffffffffffffffffffffffffffffffff1673ffffffffffffffffffffffffffffffffffffffff166379cc679033886040518363ffffffff1660e01b8152600401610a539291906115c4565b6020604051808303815f875af1158015610a6f573d5f803e3d5ffd5b505050506040513d601f19601f82011682018060405250810190610a9391906117b3565b505f3373ffffffffffffffffffffffffffffffffffffffff1682604051610ab99061180b565b5f6040518083038185875af1925050503d805f8114610af3576040519150601f19603f3d011682016040523d82523d5f602084013e610af8565b606091505b5050905080610b3c576040517f08c379a0000000000000000000000000000000000000000000000000000000008152600401610b3390611869565b60405180910390fd5b8473ffffffffffffffffffffffffffffffffffffffff1663aa5da0466040518163ffffffff1660e01b81526004015f604051808303815f87803b158015610b81575f80fd5b505af1158015610b93573d5f803e3d5ffd5b505050503373ffffffffffffffffffffffffffffffffffffffff167f1d1ddca8aa909e7f7fc055611b4269f6c858ad1e95735416f86f08c2d49e74738884604051610bdf9291906115eb565b60405180910390a250505050505050565b5f8273ffffffffffffffffffffffffffffffffffffffff1682604051610c159061180b565b5f6040518083038185875af1925050503d805f8114610c4f576040519150601f19603f3d011682016040523d82523d5f602084013e610c54565b606091505b5050905080610c98576040517f08c379a0000000000000000000000000000000000000000000000000000000008152600401610c8f906118d1565b60405180910390fd5b8273ffffffffffffffffffffffffffffffffffffffff167f5afeca38b2064c23a692c4cf353015d80ab3ecc417b4f893f372690c11fbd9a683604051610cde9190611056565b60405180910390a25f479050610cf2610eb8565b73ffffffffffffffffffffffffffffffffffffffff1663aa5da0466040518163ffffffff1660e01b81526004015f604051808303815f87803b158015610d36575f80fd5b505af1158015610d48573d5f803e3d5ffd5b5050505050505050565b5f610d5d825f6107fd565b60019050919050565b5f804790505f610d74610eb8565b73ffffffffffffffffffffffffffffffffffffffff166344936b106040518163ffffffff1660e01b81526004016020604051808303815f875af1158015610dbd573d5f803e3d5ffd5b505050506040513d601f19601f82011682018060405250810190610de191906114eb565b9050610dee848383610df7565b92505050919050565b5f80610e03848461035c565b90505f670de0b6b3a76400008287610e1b91906111e2565b610e2591906113c9565b90505f8186610e3491906114a4565b90505f610e41828761035c565b90505f6103e86103cf60028488610e5891906113f9565b610e6291906113c9565b610e6c91906111e2565b610e7691906113c9565b90505f610e838284610fba565b90505f670de0b6b3a76400008b83610e9b91906111e2565b610ea591906113c9565b9050809750505050505050509392505050565b5f60025f9054906101000a900473ffffffffffffffffffffffffffffffffffffffff1673ffffffffffffffffffffffffffffffffffffffff166388ea07516040518163ffffffff1660e01b8152600401602060405180830381865afa158015610f23573d5f803e3d5ffd5b505050506040513d601f19601f82011682018060405250810190610f479190611919565b905090565b5f8282848486866003670de0b6b3a764000062588040610f6c91906111e2565b610f7691906113c9565b610f8091906111e2565b610f8a91906113c9565b610f9491906111e2565b610f9e91906113c9565b610fa891906111e2565b610fb291906113c9565b905092915050565b5f818310610fc85781610fca565b825b905092915050565b5f80fd5b5f819050919050565b610fe881610fd6565b8114610ff2575f80fd5b50565b5f8135905061100381610fdf565b92915050565b5f806040838503121561101f5761101e610fd2565b5b5f61102c85828601610ff5565b925050602061103d85828601610ff5565b9150509250929050565b61105081610fd6565b82525050565b5f6020820190506110695f830184611047565b92915050565b5f6020828403121561108457611083610fd2565b5b5f61109184828501610ff5565b91505092915050565b5f805f606084860312156110b1576110b0610fd2565b5b5f6110be86828701610ff5565b93505060206110cf86828701610ff5565b92505060406110e086828701610ff5565b9150509250925092565b5f73ffffffffffffffffffffffffffffffffffffffff82169050919050565b5f611113826110ea565b9050919050565b61112381611109565b811461112d575f80fd5b50565b5f8135905061113e8161111a565b92915050565b5f806040838503121561115a57611159610fd2565b5b5f61116785828601611130565b925050602061117885828601610ff5565b9150509250929050565b5f8115159050919050565b61119681611182565b82525050565b5f6020820190506111af5f83018461118d565b92915050565b7f4e487b71000000000000000000000000000000000000000000000000000000005f52601160045260245ffd5b5f6111ec82610fd6565b91506111f783610fd6565b925082820261120581610fd6565b9150828204841483151761121c5761121b6111b5565b5b5092915050565b5f8160011c9050919050565b5f808291508390505b600185111561127857808604811115611254576112536111b5565b5b60018516156112635780820291505b808102905061127185611223565b9450611238565b94509492505050565b5f82611290576001905061134b565b8161129d575f905061134b565b81600181146112b357600281146112bd576112ec565b600191505061134b565b60ff8411156112cf576112ce6111b5565b5b8360020a9150848211156112e6576112e56111b5565b5b5061134b565b5060208310610133831016604e8410600b84101617156113215782820a90508381111561131c5761131b6111b5565b5b61134b565b61132e848484600161122f565b92509050818404811115611345576113446111b5565b5b81810290505b9392505050565b5f61135c82610fd6565b915061136783610fd6565b92506113947fffffffffffffffffffffffffffffffffffffffffffffffffffffffffffffffff8484611281565b905092915050565b7f4e487b71000000000000000000000000000000000000000000000000000000005f52601260045260245ffd5b5f6113d382610fd6565b91506113de83610fd6565b9250826113ee576113ed61139c565b5b828204905092915050565b5f61140382610fd6565b915061140e83610fd6565b9250828201905080821115611426576114256111b5565b5b92915050565b5f82825260208201905092915050565b7f506f6f6c3a20657468496e203e203000000000000000000000000000000000005f82015250565b5f611470600f8361142c565b915061147b8261143c565b602082019050919050565b5f6020820190508181035f83015261149d81611464565b9050919050565b5f6114ae82610fd6565b91506114b983610fd6565b92508282039050818111156114d1576114d06111b5565b5b92915050565b5f815190506114e581610fdf565b92915050565b5f60208284031215611500576114ff610fd2565b5b5f61150d848285016114d7565b91505092915050565b7f506f6f6c3a20746f6b656e734f7574206973206c657373207468616e206d696e5f8201527f546f6b656e734f75740000000000000000000000000000000000000000000000602082015250565b5f61157060298361142c565b915061157b82611516565b604082019050919050565b5f6020820190508181035f83015261159d81611564565b9050919050565b5f6115ae826110ea565b9050919050565b6115be816115a4565b82525050565b5f6040820190506115d75f8301856115b5565b6115e46020830184611047565b9392505050565b5f6040820190506115fe5f830185611047565b61160b6020830184611047565b9392505050565b5f6020820190506116255f8301846115b5565b92915050565b7f506f6f6c3a204e6f7420656e6f7567682062616c616e636500000000000000005f82015250565b5f61165f60188361142c565b915061166a8261162b565b602082019050919050565b5f6020820190508181035f83015261168c81611653565b9050919050565b7f506f6f6c3a204d4352252063616e6e6f742066616c6c2062656c6f77203130305f8201527f2500000000000000000000000000000000000000000000000000000000000000602082015250565b5f6116ed60218361142c565b91506116f882611693565b604082019050919050565b5f6020820190508181035f83015261171a816116e1565b9050919050565b7f506f6f6c3a206574684f7574203c206d696e4574684f757400000000000000005f82015250565b5f61175560188361142c565b915061176082611721565b602082019050919050565b5f6020820190508181035f83015261178281611749565b9050919050565b61179281611182565b811461179c575f80fd5b50565b5f815190506117ad81611789565b92915050565b5f602082840312156117c8576117c7610fd2565b5b5f6117d58482850161179f565b91505092915050565b5f81905092915050565b50565b5f6117f65f836117de565b9150611801826117e8565b5f82019050919050565b5f611815826117eb565b9150819050919050565b7f506f6f6c3a2053656c6c207472616e73666572206661696c65640000000000005f82015250565b5f611853601a8361142c565b915061185e8261181f565b602082019050919050565b5f6020820190508181035f83015261188081611847565b9050919050565b7f506f6f6c3a20455448207472616e73666572206661696c6564000000000000005f82015250565b5f6118bb60198361142c565b91506118c682611887565b602082019050919050565b5f6020820190508181035f8301526118e8816118af565b9050919050565b6118f8816115a4565b8114611902575f80fd5b50565b5f81519050611913816118ef565b92915050565b5f6020828403121561192e5761192d610fd2565b5b5f61193b84828501611905565b9150509291505056fea264697066735822122027e9fe04dc444f125e1df40f6989454e0667e6167593c68e483cea957776c04864736f6c63430008150033",
			"opcodes": "PUSH1 0x80 PUSH1 0x40 MSTORE PUSH1 0x1 PUSH0 SSTORE CALLVALUE DUP1 ISZERO PUSH3 0x14 JUMPI PUSH0 DUP1 REVERT JUMPDEST POP PUSH1 0x40 MLOAD PUSH3 0x1AF4 CODESIZE SUB DUP1 PUSH3 0x1AF4 DUP4 CODECOPY DUP2 DUP2 ADD PUSH1 0x40 MSTORE DUP2 ADD SWAP1 PUSH3 0x3A SWAP2 SWAP1 PUSH3 0x127 JUMP JUMPDEST DUP2 PUSH1 0x1 PUSH0 PUSH2 0x100 EXP DUP2 SLOAD DUP2 PUSH20 0xFFFFFFFFFFFFFFFFFFFFFFFFFFFFFFFFFFFFFFFF MUL NOT AND SWAP1 DUP4 PUSH20 0xFFFFFFFFFFFFFFFFFFFFFFFFFFFFFFFFFFFFFFFF AND MUL OR SWAP1 SSTORE POP DUP1 PUSH1 0x2 PUSH0 PUSH2 0x100 EXP DUP2 SLOAD DUP2 PUSH20 0xFFFFFFFFFFFFFFFFFFFFFFFFFFFFFFFFFFFFFFFF MUL NOT AND SWAP1 DUP4 PUSH20 0xFFFFFFFFFFFFFFFFFFFFFFFFFFFFFFFFFFFFFFFF AND MUL OR SWAP1 SSTORE POP POP POP PUSH3 0x16C JUMP JUMPDEST PUSH0 DUP1 REVERT JUMPDEST PUSH0 PUSH20 0xFFFFFFFFFFFFFFFFFFFFFFFFFFFFFFFFFFFFFFFF DUP3 AND SWAP1 POP SWAP2 SWAP1 POP JUMP JUMPDEST PUSH0 PUSH3 0xF1 DUP3 PUSH3 0xC6 JUMP JUMPDEST SWAP1 POP SWAP2 SWAP1 POP JUMP JUMPDEST PUSH3 0x103 DUP2 PUSH3 0xE5 JUMP JUMPDEST DUP2 EQ PUSH3 0x10E JUMPI PUSH0 DUP1 REVERT JUMPDEST POP JUMP JUMPDEST PUSH0 DUP2 MLOAD SWAP1 POP PUSH3 0x121 DUP2 PUSH3 0xF8 JUMP JUMPDEST SWAP3 SWAP2 POP POP JUMP JUMPDEST PUSH0 DUP1 PUSH1 0x40 DUP4 DUP6 SUB SLT ISZERO PUSH3 0x140 JUMPI PUSH3 0x13F PUSH3 0xC2 JUMP JUMPDEST JUMPDEST PUSH0 PUSH3 0x14F DUP6 DUP3 DUP7 ADD PUSH3 0x111 JUMP JUMPDEST SWAP3 POP POP PUSH1 0x20 PUSH3 0x162 DUP6 DUP3 DUP7 ADD PUSH3 0x111 JUMP JUMPDEST SWAP2 POP POP SWAP3 POP SWAP3 SWAP1 POP JUMP JUMPDEST PUSH2 0x197A DUP1 PUSH3 0x17A PUSH0 CODECOPY PUSH0 RETURN INVALID PUSH1 0x80 PUSH1 0x40 MSTORE PUSH1 0x4 CALLDATASIZE LT PUSH2 0xC5 JUMPI PUSH0 CALLDATALOAD PUSH1 0xE0 SHR DUP1 PUSH4 0x70310CB7 GT PUSH2 0x7E JUMPI DUP1 PUSH4 0xCF8D133F GT PUSH2 0x58 JUMPI DUP1 PUSH4 0xCF8D133F EQ PUSH2 0x280 JUMPI DUP1 PUSH4 0xE57A8FEF EQ PUSH2 0x2A8 JUMPI DUP1 PUSH4 0xEABF3407 EQ PUSH2 0x2E4 JUMPI DUP1 PUSH4 0xEBB8433F EQ PUSH2 0x320 JUMPI PUSH2 0xCC JUMP JUMPDEST DUP1 PUSH4 0x70310CB7 EQ PUSH2 0x1F2 JUMPI DUP1 PUSH4 0xB222A4D3 EQ PUSH2 0x22E JUMPI DUP1 PUSH4 0xBDF4872B EQ PUSH2 0x258 JUMPI PUSH2 0xCC JUMP JUMPDEST DUP1 PUSH4 0x4E8266F EQ PUSH2 0xCE JUMPI DUP1 PUSH4 0x6833FFD EQ PUSH2 0x10A JUMPI DUP1 PUSH4 0x1F50C989 EQ PUSH2 0x126 JUMPI DUP1 PUSH4 0x4779BE08 EQ PUSH2 0x150 JUMPI DUP1 PUSH4 0x483B6F1D EQ PUSH2 0x17A JUMPI DUP1 PUSH4 0x657E0542 EQ PUSH2 0x1B6 JUMPI PUSH2 0xCC JUMP JUMPDEST CALLDATASIZE PUSH2 0xCC JUMPI STOP JUMPDEST STOP JUMPDEST CALLVALUE DUP1 ISZERO PUSH2 0xD9 JUMPI PUSH0 DUP1 REVERT JUMPDEST POP PUSH2 0xF4 PUSH1 0x4 DUP1 CALLDATASIZE SUB DUP2 ADD SWAP1 PUSH2 0xEF SWAP2 SWAP1 PUSH2 0x1009 JUMP JUMPDEST PUSH2 0x35C JUMP JUMPDEST PUSH1 0x40 MLOAD PUSH2 0x101 SWAP2 SWAP1 PUSH2 0x1056 JUMP JUMPDEST PUSH1 0x40 MLOAD DUP1 SWAP2 SUB SWAP1 RETURN JUMPDEST PUSH2 0x124 PUSH1 0x4 DUP1 CALLDATASIZE SUB DUP2 ADD SWAP1 PUSH2 0x11F SWAP2 SWAP1 PUSH2 0x106F JUMP JUMPDEST PUSH2 0x3D3 JUMP JUMPDEST STOP JUMPDEST CALLVALUE DUP1 ISZERO PUSH2 0x131 JUMPI PUSH0 DUP1 REVERT JUMPDEST POP PUSH2 0x13A PUSH2 0x63F JUMP JUMPDEST PUSH1 0x40 MLOAD PUSH2 0x147 SWAP2 SWAP1 PUSH2 0x1056 JUMP JUMPDEST PUSH1 0x40 MLOAD DUP1 SWAP2 SUB SWAP1 RETURN JUMPDEST CALLVALUE DUP1 ISZERO PUSH2 0x15B JUMPI PUSH0 DUP1 REVERT JUMPDEST POP PUSH2 0x164 PUSH2 0x645 JUMP JUMPDEST PUSH1 0x40 MLOAD PUSH2 0x171 SWAP2 SWAP1 PUSH2 0x1056 JUMP JUMPDEST PUSH1 0x40 MLOAD DUP1 SWAP2 SUB SWAP1 RETURN JUMPDEST CALLVALUE DUP1 ISZERO PUSH2 0x185 JUMPI PUSH0 DUP1 REVERT JUMPDEST POP PUSH2 0x1A0 PUSH1 0x4 DUP1 CALLDATASIZE SUB DUP2 ADD SWAP1 PUSH2 0x19B SWAP2 SWAP1 PUSH2 0x106F JUMP JUMPDEST PUSH2 0x64A JUMP JUMPDEST PUSH1 0x40 MLOAD PUSH2 0x1AD SWAP2 SWAP1 PUSH2 0x1056 JUMP JUMPDEST PUSH1 0x40 MLOAD DUP1 SWAP2 SUB SWAP1 RETURN JUMPDEST CALLVALUE DUP1 ISZERO PUSH2 0x1C1 JUMPI PUSH0 DUP1 REVERT JUMPDEST POP PUSH2 0x1DC PUSH1 0x4 DUP1 CALLDATASIZE SUB DUP2 ADD SWAP1 PUSH2 0x1D7 SWAP2 SWAP1 PUSH2 0x109A JUMP JUMPDEST PUSH2 0x6DB JUMP JUMPDEST PUSH1 0x40 MLOAD PUSH2 0x1E9 SWAP2 SWAP1 PUSH2 0x1056 JUMP JUMPDEST PUSH1 0x40 MLOAD DUP1 SWAP2 SUB SWAP1 RETURN JUMPDEST CALLVALUE DUP1 ISZERO PUSH2 0x1FD JUMPI PUSH0 DUP1 REVERT JUMPDEST POP PUSH2 0x218 PUSH1 0x4 DUP1 CALLDATASIZE SUB DUP2 ADD SWAP1 PUSH2 0x213 SWAP2 SWAP1 PUSH2 0x1009 JUMP JUMPDEST PUSH2 0x7CA JUMP JUMPDEST PUSH1 0x40 MLOAD PUSH2 0x225 SWAP2 SWAP1 PUSH2 0x1056 JUMP JUMPDEST PUSH1 0x40 MLOAD DUP1 SWAP2 SUB SWAP1 RETURN JUMPDEST CALLVALUE DUP1 ISZERO PUSH2 0x239 JUMPI PUSH0 DUP1 REVERT JUMPDEST POP PUSH2 0x242 PUSH2 0x7F7 JUMP JUMPDEST PUSH1 0x40 MLOAD PUSH2 0x24F SWAP2 SWAP1 PUSH2 0x1056 JUMP JUMPDEST PUSH1 0x40 MLOAD DUP1 SWAP2 SUB SWAP1 RETURN JUMPDEST CALLVALUE DUP1 ISZERO PUSH2 0x263 JUMPI PUSH0 DUP1 REVERT JUMPDEST POP PUSH2 0x27E PUSH1 0x4 DUP1 CALLDATASIZE SUB DUP2 ADD SWAP1 PUSH2 0x279 SWAP2 SWAP1 PUSH2 0x1009 JUMP JUMPDEST PUSH2 0x7FD JUMP JUMPDEST STOP JUMPDEST CALLVALUE DUP1 ISZERO PUSH2 0x28B JUMPI PUSH0 DUP1 REVERT JUMPDEST POP PUSH2 0x2A6 PUSH1 0x4 DUP1 CALLDATASIZE SUB DUP2 ADD SWAP1 PUSH2 0x2A1 SWAP2 SWAP1 PUSH2 0x1144 JUMP JUMPDEST PUSH2 0xBF0 JUMP JUMPDEST STOP JUMPDEST CALLVALUE DUP1 ISZERO PUSH2 0x2B3 JUMPI PUSH0 DUP1 REVERT JUMPDEST POP PUSH2 0x2CE PUSH1 0x4 DUP1 CALLDATASIZE SUB DUP2 ADD SWAP1 PUSH2 0x2C9 SWAP2 SWAP1 PUSH2 0x106F JUMP JUMPDEST PUSH2 0xD52 JUMP JUMPDEST PUSH1 0x40 MLOAD PUSH2 0x2DB SWAP2 SWAP1 PUSH2 0x119C JUMP JUMPDEST PUSH1 0x40 MLOAD DUP1 SWAP2 SUB SWAP1 RETURN JUMPDEST CALLVALUE DUP1 ISZERO PUSH2 0x2EF JUMPI PUSH0 DUP1 REVERT JUMPDEST POP PUSH2 0x30A PUSH1 0x4 DUP1 CALLDATASIZE SUB DUP2 ADD SWAP1 PUSH2 0x305 SWAP2 SWAP1 PUSH2 0x106F JUMP JUMPDEST PUSH2 0xD66 JUMP JUMPDEST PUSH1 0x40 MLOAD PUSH2 0x317 SWAP2 SWAP1 PUSH2 0x1056 JUMP JUMPDEST PUSH1 0x40 MLOAD DUP1 SWAP2 SUB SWAP1 RETURN JUMPDEST CALLVALUE DUP1 ISZERO PUSH2 0x32B JUMPI PUSH0 DUP1 REVERT JUMPDEST POP PUSH2 0x346 PUSH1 0x4 DUP1 CALLDATASIZE SUB DUP2 ADD SWAP1 PUSH2 0x341 SWAP2 SWAP1 PUSH2 0x109A JUMP JUMPDEST PUSH2 0xDF7 JUMP JUMPDEST PUSH1 0x40 MLOAD PUSH2 0x353 SWAP2 SWAP1 PUSH2 0x1056 JUMP JUMPDEST PUSH1 0x40 MLOAD DUP1 SWAP2 SUB SWAP1 RETURN JUMPDEST PUSH0 DUP1 PUSH2 0x368 DUP5 DUP5 PUSH2 0x7CA JUMP JUMPDEST SWAP1 POP PUSH0 PUSH1 0x4 DUP1 PUSH2 0x378 SWAP2 SWAP1 PUSH2 0x11E2 JUMP JUMPDEST PUSH1 0xA PUSH2 0x384 SWAP2 SWAP1 PUSH2 0x1352 JUMP JUMPDEST SWAP1 POP PUSH7 0x24859B044A8000 DUP2 PUSH3 0x588040 PUSH1 0x4 DUP6 PUSH2 0x3A0 SWAP2 SWAP1 PUSH2 0x1352 JUMP JUMPDEST DUP8 PUSH2 0x3AB SWAP2 SWAP1 PUSH2 0x11E2 JUMP JUMPDEST PUSH2 0x3B5 SWAP2 SWAP1 PUSH2 0x13C9 JUMP JUMPDEST PUSH2 0x3BF SWAP2 SWAP1 PUSH2 0x13C9 JUMP JUMPDEST PUSH2 0x3C9 SWAP2 SWAP1 PUSH2 0x13F9 JUMP JUMPDEST SWAP3 POP POP POP SWAP3 SWAP2 POP POP JUMP JUMPDEST PUSH0 CALLVALUE SWAP1 POP PUSH0 DUP2 GT PUSH2 0x419 JUMPI PUSH1 0x40 MLOAD PUSH32 0x8C379A000000000000000000000000000000000000000000000000000000000 DUP2 MSTORE PUSH1 0x4 ADD PUSH2 0x410 SWAP1 PUSH2 0x1486 JUMP JUMPDEST PUSH1 0x40 MLOAD DUP1 SWAP2 SUB SWAP1 REVERT JUMPDEST PUSH0 DUP2 SELFBALANCE PUSH2 0x426 SWAP2 SWAP1 PUSH2 0x14A4 JUMP JUMPDEST SWAP1 POP PUSH0 PUSH2 0x431 PUSH2 0xEB8 JUMP JUMPDEST SWAP1 POP PUSH0 DUP2 PUSH20 0xFFFFFFFFFFFFFFFFFFFFFFFFFFFFFFFFFFFFFFFF AND PUSH4 0x44936B10 PUSH1 0x40 MLOAD DUP2 PUSH4 0xFFFFFFFF AND PUSH1 0xE0 SHL DUP2 MSTORE PUSH1 0x4 ADD PUSH1 0x20 PUSH1 0x40 MLOAD DUP1 DUP4 SUB DUP2 PUSH0 DUP8 GAS CALL ISZERO DUP1 ISZERO PUSH2 0x47E JUMPI RETURNDATASIZE PUSH0 DUP1 RETURNDATACOPY RETURNDATASIZE PUSH0 REVERT JUMPDEST POP POP POP POP PUSH1 0x40 MLOAD RETURNDATASIZE PUSH1 0x1F NOT PUSH1 0x1F DUP3 ADD AND DUP3 ADD DUP1 PUSH1 0x40 MSTORE POP DUP2 ADD SWAP1 PUSH2 0x4A2 SWAP2 SWAP1 PUSH2 0x14EB JUMP JUMPDEST SWAP1 POP PUSH0 PUSH2 0x4AF DUP5 DUP4 PUSH2 0x7CA JUMP JUMPDEST SWAP1 POP PUSH0 PUSH2 0x4BD DUP7 DUP7 DUP6 PUSH2 0x6DB JUMP JUMPDEST SWAP1 POP DUP7 DUP2 LT ISZERO PUSH2 0x502 JUMPI PUSH1 0x40 MLOAD PUSH32 0x8C379A000000000000000000000000000000000000000000000000000000000 DUP2 MSTORE PUSH1 0x4 ADD PUSH2 0x4F9 SWAP1 PUSH2 0x1586 JUMP JUMPDEST PUSH1 0x40 MLOAD DUP1 SWAP2 SUB SWAP1 REVERT JUMPDEST PUSH1 0x1 PUSH0 SWAP1 SLOAD SWAP1 PUSH2 0x100 EXP SWAP1 DIV PUSH20 0xFFFFFFFFFFFFFFFFFFFFFFFFFFFFFFFFFFFFFFFF AND PUSH20 0xFFFFFFFFFFFFFFFFFFFFFFFFFFFFFFFFFFFFFFFF AND PUSH4 0x40C10F19 CALLER DUP4 PUSH1 0x40 MLOAD DUP4 PUSH4 0xFFFFFFFF AND PUSH1 0xE0 SHL DUP2 MSTORE PUSH1 0x4 ADD PUSH2 0x55E SWAP3 SWAP2 SWAP1 PUSH2 0x15C4 JUMP JUMPDEST PUSH0 PUSH1 0x40 MLOAD DUP1 DUP4 SUB DUP2 PUSH0 DUP8 DUP1 EXTCODESIZE ISZERO DUP1 ISZERO PUSH2 0x575 JUMPI PUSH0 DUP1 REVERT JUMPDEST POP GAS CALL ISZERO DUP1 ISZERO PUSH2 0x587 JUMPI RETURNDATASIZE PUSH0 DUP1 RETURNDATACOPY RETURNDATASIZE PUSH0 REVERT JUMPDEST POP POP POP POP DUP4 PUSH20 0xFFFFFFFFFFFFFFFFFFFFFFFFFFFFFFFFFFFFFFFF AND PUSH4 0xAA5DA046 PUSH1 0x40 MLOAD DUP2 PUSH4 0xFFFFFFFF AND PUSH1 0xE0 SHL DUP2 MSTORE PUSH1 0x4 ADD PUSH0 PUSH1 0x40 MLOAD DUP1 DUP4 SUB DUP2 PUSH0 DUP8 DUP1 EXTCODESIZE ISZERO DUP1 ISZERO PUSH2 0x5D0 JUMPI PUSH0 DUP1 REVERT JUMPDEST POP GAS CALL ISZERO DUP1 ISZERO PUSH2 0x5E2 JUMPI RETURNDATASIZE PUSH0 DUP1 RETURNDATACOPY RETURNDATASIZE PUSH0 REVERT JUMPDEST POP POP POP POP CALLER PUSH20 0xFFFFFFFFFFFFFFFFFFFFFFFFFFFFFFFFFFFFFFFF AND PUSH32 0xC5FC954940739C9D45B12CD63FEC8B2FB3887D642D3572CF741E45F30088AD93 DUP8 DUP4 PUSH1 0x40 MLOAD PUSH2 0x62E SWAP3 SWAP2 SWAP1 PUSH2 0x15EB JUMP JUMPDEST PUSH1 0x40 MLOAD DUP1 SWAP2 SUB SWAP1 LOG2 POP POP POP POP POP POP POP JUMP JUMPDEST PUSH2 0x1F4 DUP2 JUMP JUMPDEST PUSH1 0x4 DUP2 JUMP JUMPDEST PUSH0 DUP1 SELFBALANCE SWAP1 POP PUSH0 PUSH2 0x658 PUSH2 0xEB8 JUMP JUMPDEST PUSH20 0xFFFFFFFFFFFFFFFFFFFFFFFFFFFFFFFFFFFFFFFF AND PUSH4 0x44936B10 PUSH1 0x40 MLOAD DUP2 PUSH4 0xFFFFFFFF AND PUSH1 0xE0 SHL DUP2 MSTORE PUSH1 0x4 ADD PUSH1 0x20 PUSH1 0x40 MLOAD DUP1 DUP4 SUB DUP2 PUSH0 DUP8 GAS CALL ISZERO DUP1 ISZERO PUSH2 0x6A1 JUMPI RETURNDATASIZE PUSH0 DUP1 RETURNDATACOPY RETURNDATASIZE PUSH0 REVERT JUMPDEST POP POP POP POP PUSH1 0x40 MLOAD RETURNDATASIZE PUSH1 0x1F NOT PUSH1 0x1F DUP3 ADD AND DUP3 ADD DUP1 PUSH1 0x40 MSTORE POP DUP2 ADD SWAP1 PUSH2 0x6C5 SWAP2 SWAP1 PUSH2 0x14EB JUMP JUMPDEST SWAP1 POP PUSH2 0x6D2 DUP5 DUP4 DUP4 PUSH2 0x6DB JUMP JUMPDEST SWAP3 POP POP POP SWAP2 SWAP1 POP JUMP JUMPDEST PUSH0 DUP1 DUP4 EQ DUP1 PUSH2 0x6F9 JUMPI POP PUSH5 0xE8D4A51000 DUP4 DUP4 PUSH2 0x6F7 SWAP2 SWAP1 PUSH2 0x13C9 JUMP JUMPDEST GT JUMPDEST ISZERO PUSH2 0x72B JUMPI PUSH7 0x24859B044A8000 PUSH8 0xDE0B6B3A7640000 DUP6 PUSH2 0x71A SWAP2 SWAP1 PUSH2 0x11E2 JUMP JUMPDEST PUSH2 0x724 SWAP2 SWAP1 PUSH2 0x13C9 JUMP JUMPDEST SWAP1 POP PUSH2 0x7C3 JUMP JUMPDEST PUSH0 PUSH2 0x736 DUP5 DUP5 PUSH2 0xF4C JUMP JUMPDEST SWAP1 POP PUSH0 DUP6 DUP6 PUSH2 0x745 SWAP2 SWAP1 PUSH2 0x13F9 JUMP JUMPDEST SWAP1 POP PUSH0 PUSH2 0x752 DUP3 DUP7 PUSH2 0xF4C JUMP JUMPDEST SWAP1 POP PUSH0 DUP2 DUP5 PUSH2 0x761 SWAP2 SWAP1 PUSH2 0x14A4 JUMP JUMPDEST SWAP1 POP PUSH0 DUP2 PUSH8 0xDE0B6B3A7640000 DUP11 PUSH2 0x779 SWAP2 SWAP1 PUSH2 0x11E2 JUMP JUMPDEST PUSH2 0x783 SWAP2 SWAP1 PUSH2 0x13C9 JUMP JUMPDEST SWAP1 POP PUSH0 PUSH7 0x24859B044A8000 DUP3 PUSH2 0x799 SWAP2 SWAP1 PUSH2 0x13F9 JUMP JUMPDEST SWAP1 POP DUP1 PUSH8 0xDE0B6B3A7640000 DUP12 PUSH2 0x7B0 SWAP2 SWAP1 PUSH2 0x11E2 JUMP JUMPDEST PUSH2 0x7BA SWAP2 SWAP1 PUSH2 0x13C9 JUMP JUMPDEST SWAP7 POP POP POP POP POP POP POP JUMPDEST SWAP4 SWAP3 POP POP POP JUMP JUMPDEST PUSH0 DUP2 PUSH1 0x4 PUSH1 0xA PUSH2 0x7DA SWAP2 SWAP1 PUSH2 0x1352 JUMP JUMPDEST DUP5 PUSH2 0x7E5 SWAP2 SWAP1 PUSH2 0x11E2 JUMP JUMPDEST PUSH2 0x7EF SWAP2 SWAP1 PUSH2 0x13C9 JUMP JUMPDEST SWAP1 POP SWAP3 SWAP2 POP POP JUMP JUMPDEST PUSH2 0x9C40 DUP2 JUMP JUMPDEST DUP2 PUSH1 0x1 PUSH0 SWAP1 SLOAD SWAP1 PUSH2 0x100 EXP SWAP1 DIV PUSH20 0xFFFFFFFFFFFFFFFFFFFFFFFFFFFFFFFFFFFFFFFF AND PUSH20 0xFFFFFFFFFFFFFFFFFFFFFFFFFFFFFFFFFFFFFFFF AND PUSH4 0x70A08231 CALLER PUSH1 0x40 MLOAD DUP3 PUSH4 0xFFFFFFFF AND PUSH1 0xE0 SHL DUP2 MSTORE PUSH1 0x4 ADD PUSH2 0x858 SWAP2 SWAP1 PUSH2 0x1612 JUMP JUMPDEST PUSH1 0x20 PUSH1 0x40 MLOAD DUP1 DUP4 SUB DUP2 DUP7 GAS STATICCALL ISZERO DUP1 ISZERO PUSH2 0x873 JUMPI RETURNDATASIZE PUSH0 DUP1 RETURNDATACOPY RETURNDATASIZE PUSH0 REVERT JUMPDEST POP POP POP POP PUSH1 0x40 MLOAD RETURNDATASIZE PUSH1 0x1F NOT PUSH1 0x1F DUP3 ADD AND DUP3 ADD DUP1 PUSH1 0x40 MSTORE POP DUP2 ADD SWAP1 PUSH2 0x897 SWAP2 SWAP1 PUSH2 0x14EB JUMP JUMPDEST LT ISZERO PUSH2 0x8D8 JUMPI PUSH1 0x40 MLOAD PUSH32 0x8C379A000000000000000000000000000000000000000000000000000000000 DUP2 MSTORE PUSH1 0x4 ADD PUSH2 0x8CF SWAP1 PUSH2 0x1675 JUMP JUMPDEST PUSH1 0x40 MLOAD DUP1 SWAP2 SUB SWAP1 REVERT JUMPDEST PUSH0 PUSH2 0x8E1 PUSH2 0xEB8 JUMP JUMPDEST SWAP1 POP PUSH0 SELFBALANCE SWAP1 POP PUSH0 DUP3 PUSH20 0xFFFFFFFFFFFFFFFFFFFFFFFFFFFFFFFFFFFFFFFF AND PUSH4 0x44936B10 PUSH1 0x40 MLOAD DUP2 PUSH4 0xFFFFFFFF AND PUSH1 0xE0 SHL DUP2 MSTORE PUSH1 0x4 ADD PUSH1 0x20 PUSH1 0x40 MLOAD DUP1 DUP4 SUB DUP2 PUSH0 DUP8 GAS CALL ISZERO DUP1 ISZERO PUSH2 0x932 JUMPI RETURNDATASIZE PUSH0 DUP1 RETURNDATACOPY RETURNDATASIZE PUSH0 REVERT JUMPDEST POP POP POP POP PUSH1 0x40 MLOAD RETURNDATASIZE PUSH1 0x1F NOT PUSH1 0x1F DUP3 ADD AND DUP3 ADD DUP1 PUSH1 0x40 MSTORE POP DUP2 ADD SWAP1 PUSH2 0x956 SWAP2 SWAP1 PUSH2 0x14EB JUMP JUMPDEST SWAP1 POP PUSH0 PUSH2 0x964 DUP7 DUP5 DUP5 PUSH2 0xDF7 JUMP JUMPDEST SWAP1 POP DUP2 DUP2 DUP5 PUSH2 0x973 SWAP2 SWAP1 PUSH2 0x14A4 JUMP JUMPDEST LT ISZERO PUSH2 0x9B4 JUMPI PUSH1 0x40 MLOAD PUSH32 0x8C379A000000000000000000000000000000000000000000000000000000000 DUP2 MSTORE PUSH1 0x4 ADD PUSH2 0x9AB SWAP1 PUSH2 0x1703 JUMP JUMPDEST PUSH1 0x40 MLOAD DUP1 SWAP2 SUB SWAP1 REVERT JUMPDEST DUP5 DUP2 LT ISZERO PUSH2 0x9F7 JUMPI PUSH1 0x40 MLOAD PUSH32 0x8C379A000000000000000000000000000000000000000000000000000000000 DUP2 MSTORE PUSH1 0x4 ADD PUSH2 0x9EE SWAP1 PUSH2 0x176B JUMP JUMPDEST PUSH1 0x40 MLOAD DUP1 SWAP2 SUB SWAP1 REVERT JUMPDEST PUSH1 0x1 PUSH0 SWAP1 SLOAD SWAP1 PUSH2 0x100 EXP SWAP1 DIV PUSH20 0xFFFFFFFFFFFFFFFFFFFFFFFFFFFFFFFFFFFFFFFF AND PUSH20 0xFFFFFFFFFFFFFFFFFFFFFFFFFFFFFFFFFFFFFFFF AND PUSH4 0x79CC6790 CALLER DUP9 PUSH1 0x40 MLOAD DUP4 PUSH4 0xFFFFFFFF AND PUSH1 0xE0 SHL DUP2 MSTORE PUSH1 0x4 ADD PUSH2 0xA53 SWAP3 SWAP2 SWAP1 PUSH2 0x15C4 JUMP JUMPDEST PUSH1 0x20 PUSH1 0x40 MLOAD DUP1 DUP4 SUB DUP2 PUSH0 DUP8 GAS CALL ISZERO DUP1 ISZERO PUSH2 0xA6F JUMPI RETURNDATASIZE PUSH0 DUP1 RETURNDATACOPY RETURNDATASIZE PUSH0 REVERT JUMPDEST POP POP POP POP PUSH1 0x40 MLOAD RETURNDATASIZE PUSH1 0x1F NOT PUSH1 0x1F DUP3 ADD AND DUP3 ADD DUP1 PUSH1 0x40 MSTORE POP DUP2 ADD SWAP1 PUSH2 0xA93 SWAP2 SWAP1 PUSH2 0x17B3 JUMP JUMPDEST POP PUSH0 CALLER PUSH20 0xFFFFFFFFFFFFFFFFFFFFFFFFFFFFFFFFFFFFFFFF AND DUP3 PUSH1 0x40 MLOAD PUSH2 0xAB9 SWAP1 PUSH2 0x180B JUMP JUMPDEST PUSH0 PUSH1 0x40 MLOAD DUP1 DUP4 SUB DUP2 DUP6 DUP8 GAS CALL SWAP3 POP POP POP RETURNDATASIZE DUP1 PUSH0 DUP2 EQ PUSH2 0xAF3 JUMPI PUSH1 0x40 MLOAD SWAP2 POP PUSH1 0x1F NOT PUSH1 0x3F RETURNDATASIZE ADD AND DUP3 ADD PUSH1 0x40 MSTORE RETURNDATASIZE DUP3 MSTORE RETURNDATASIZE PUSH0 PUSH1 0x20 DUP5 ADD RETURNDATACOPY PUSH2 0xAF8 JUMP JUMPDEST PUSH1 0x60 SWAP2 POP JUMPDEST POP POP SWAP1 POP DUP1 PUSH2 0xB3C JUMPI PUSH1 0x40 MLOAD PUSH32 0x8C379A000000000000000000000000000000000000000000000000000000000 DUP2 MSTORE PUSH1 0x4 ADD PUSH2 0xB33 SWAP1 PUSH2 0x1869 JUMP JUMPDEST PUSH1 0x40 MLOAD DUP1 SWAP2 SUB SWAP1 REVERT JUMPDEST DUP5 PUSH20 0xFFFFFFFFFFFFFFFFFFFFFFFFFFFFFFFFFFFFFFFF AND PUSH4 0xAA5DA046 PUSH1 0x40 MLOAD DUP2 PUSH4 0xFFFFFFFF AND PUSH1 0xE0 SHL DUP2 MSTORE PUSH1 0x4 ADD PUSH0 PUSH1 0x40 MLOAD DUP1 DUP4 SUB DUP2 PUSH0 DUP8 DUP1 EXTCODESIZE ISZERO DUP1 ISZERO PUSH2 0xB81 JUMPI PUSH0 DUP1 REVERT JUMPDEST POP GAS CALL ISZERO DUP1 ISZERO PUSH2 0xB93 JUMPI RETURNDATASIZE PUSH0 DUP1 RETURNDATACOPY RETURNDATASIZE PUSH0 REVERT JUMPDEST POP POP POP POP CALLER PUSH20 0xFFFFFFFFFFFFFFFFFFFFFFFFFFFFFFFFFFFFFFFF AND PUSH32 0x1D1DDCA8AA909E7F7FC055611B4269F6C858AD1E95735416F86F08C2D49E7473 DUP9 DUP5 PUSH1 0x40 MLOAD PUSH2 0xBDF SWAP3 SWAP2 SWAP1 PUSH2 0x15EB JUMP JUMPDEST PUSH1 0x40 MLOAD DUP1 SWAP2 SUB SWAP1 LOG2 POP POP POP POP POP POP POP JUMP JUMPDEST PUSH0 DUP3 PUSH20 0xFFFFFFFFFFFFFFFFFFFFFFFFFFFFFFFFFFFFFFFF AND DUP3 PUSH1 0x40 MLOAD PUSH2 0xC15 SWAP1 PUSH2 0x180B JUMP JUMPDEST PUSH0 PUSH1 0x40 MLOAD DUP1 DUP4 SUB DUP2 DUP6 DUP8 GAS CALL SWAP3 POP POP POP RETURNDATASIZE DUP1 PUSH0 DUP2 EQ PUSH2 0xC4F JUMPI PUSH1 0x40 MLOAD SWAP2 POP PUSH1 0x1F NOT PUSH1 0x3F RETURNDATASIZE ADD AND DUP3 ADD PUSH1 0x40 MSTORE RETURNDATASIZE DUP3 MSTORE RETURNDATASIZE PUSH0 PUSH1 0x20 DUP5 ADD RETURNDATACOPY PUSH2 0xC54 JUMP JUMPDEST PUSH1 0x60 SWAP2 POP JUMPDEST POP POP SWAP1 POP DUP1 PUSH2 0xC98 JUMPI PUSH1 0x40 MLOAD PUSH32 0x8C379A000000000000000000000000000000000000000000000000000000000 DUP2 MSTORE PUSH1 0x4 ADD PUSH2 0xC8F SWAP1 PUSH2 0x18D1 JUMP JUMPDEST PUSH1 0x40 MLOAD DUP1 SWAP2 SUB SWAP1 REVERT JUMPDEST DUP3 PUSH20 0xFFFFFFFFFFFFFFFFFFFFFFFFFFFFFFFFFFFFFFFF AND PUSH32 0x5AFECA38B2064C23A692C4CF353015D80AB3ECC417B4F893F372690C11FBD9A6 DUP4 PUSH1 0x40 MLOAD PUSH2 0xCDE SWAP2 SWAP1 PUSH2 0x1056 JUMP JUMPDEST PUSH1 0x40 MLOAD DUP1 SWAP2 SUB SWAP1 LOG2 PUSH0 SELFBALANCE SWAP1 POP PUSH2 0xCF2 PUSH2 0xEB8 JUMP JUMPDEST PUSH20 0xFFFFFFFFFFFFFFFFFFFFFFFFFFFFFFFFFFFFFFFF AND PUSH4 0xAA5DA046 PUSH1 0x40 MLOAD DUP2 PUSH4 0xFFFFFFFF AND PUSH1 0xE0 SHL DUP2 MSTORE PUSH1 0x4 ADD PUSH0 PUSH1 0x40 MLOAD DUP1 DUP4 SUB DUP2 PUSH0 DUP8 DUP1 EXTCODESIZE ISZERO DUP1 ISZERO PUSH2 0xD36 JUMPI PUSH0 DUP1 REVERT JUMPDEST POP GAS CALL ISZERO DUP1 ISZERO PUSH2 0xD48 JUMPI RETURNDATASIZE PUSH0 DUP1 RETURNDATACOPY RETURNDATASIZE PUSH0 REVERT JUMPDEST POP POP POP POP POP POP POP POP JUMP JUMPDEST PUSH0 PUSH2 0xD5D DUP3 PUSH0 PUSH2 0x7FD JUMP JUMPDEST PUSH1 0x1 SWAP1 POP SWAP2 SWAP1 POP JUMP JUMPDEST PUSH0 DUP1 SELFBALANCE SWAP1 POP PUSH0 PUSH2 0xD74 PUSH2 0xEB8 JUMP JUMPDEST PUSH20 0xFFFFFFFFFFFFFFFFFFFFFFFFFFFFFFFFFFFFFFFF AND PUSH4 0x44936B10 PUSH1 0x40 MLOAD DUP2 PUSH4 0xFFFFFFFF AND PUSH1 0xE0 SHL DUP2 MSTORE PUSH1 0x4 ADD PUSH1 0x20 PUSH1 0x40 MLOAD DUP1 DUP4 SUB DUP2 PUSH0 DUP8 GAS CALL ISZERO DUP1 ISZERO PUSH2 0xDBD JUMPI RETURNDATASIZE PUSH0 DUP1 RETURNDATACOPY RETURNDATASIZE PUSH0 REVERT JUMPDEST POP POP POP POP PUSH1 0x40 MLOAD RETURNDATASIZE PUSH1 0x1F NOT PUSH1 0x1F DUP3 ADD AND DUP3 ADD DUP1 PUSH1 0x40 MSTORE POP DUP2 ADD SWAP1 PUSH2 0xDE1 SWAP2 SWAP1 PUSH2 0x14EB JUMP JUMPDEST SWAP1 POP PUSH2 0xDEE DUP5 DUP4 DUP4 PUSH2 0xDF7 JUMP JUMPDEST SWAP3 POP POP POP SWAP2 SWAP1 POP JUMP JUMPDEST PUSH0 DUP1 PUSH2 0xE03 DUP5 DUP5 PUSH2 0x35C JUMP JUMPDEST SWAP1 POP PUSH0 PUSH8 0xDE0B6B3A7640000 DUP3 DUP8 PUSH2 0xE1B SWAP2 SWAP1 PUSH2 0x11E2 JUMP JUMPDEST PUSH2 0xE25 SWAP2 SWAP1 PUSH2 0x13C9 JUMP JUMPDEST SWAP1 POP PUSH0 DUP2 DUP7 PUSH2 0xE34 SWAP2 SWAP1 PUSH2 0x14A4 JUMP JUMPDEST SWAP1 POP PUSH0 PUSH2 0xE41 DUP3 DUP8 PUSH2 0x35C JUMP JUMPDEST SWAP1 POP PUSH0 PUSH2 0x3E8 PUSH2 0x3CF PUSH1 0x2 DUP5 DUP9 PUSH2 0xE58 SWAP2 SWAP1 PUSH2 0x13F9 JUMP JUMPDEST PUSH2 0xE62 SWAP2 SWAP1 PUSH2 0x13C9 JUMP JUMPDEST PUSH2 0xE6C SWAP2 SWAP1 PUSH2 0x11E2 JUMP JUMPDEST PUSH2 0xE76 SWAP2 SWAP1 PUSH2 0x13C9 JUMP JUMPDEST SWAP1 POP PUSH0 PUSH2 0xE83 DUP3 DUP5 PUSH2 0xFBA JUMP JUMPDEST SWAP1 POP PUSH0 PUSH8 0xDE0B6B3A7640000 DUP12 DUP4 PUSH2 0xE9B SWAP2 SWAP1 PUSH2 0x11E2 JUMP JUMPDEST PUSH2 0xEA5 SWAP2 SWAP1 PUSH2 0x13C9 JUMP JUMPDEST SWAP1 POP DUP1 SWAP8 POP POP POP POP POP POP POP POP SWAP4 SWAP3 POP POP POP JUMP JUMPDEST PUSH0 PUSH1 0x2 PUSH0 SWAP1 SLOAD SWAP1 PUSH2 0x100 EXP SWAP1 DIV PUSH20 0xFFFFFFFFFFFFFFFFFFFFFFFFFFFFFFFFFFFFFFFF AND PUSH20 0xFFFFFFFFFFFFFFFFFFFFFFFFFFFFFFFFFFFFFFFF AND PUSH4 0x88EA0751 PUSH1 0x40 MLOAD DUP2 PUSH4 0xFFFFFFFF AND PUSH1 0xE0 SHL DUP2 MSTORE PUSH1 0x4 ADD PUSH1 0x20 PUSH1 0x40 MLOAD DUP1 DUP4 SUB DUP2 DUP7 GAS STATICCALL ISZERO DUP1 ISZERO PUSH2 0xF23 JUMPI RETURNDATASIZE PUSH0 DUP1 RETURNDATACOPY RETURNDATASIZE PUSH0 REVERT JUMPDEST POP POP POP POP PUSH1 0x40 MLOAD RETURNDATASIZE PUSH1 0x1F NOT PUSH1 0x1F DUP3 ADD AND DUP3 ADD DUP1 PUSH1 0x40 MSTORE POP DUP2 ADD SWAP1 PUSH2 0xF47 SWAP2 SWAP1 PUSH2 0x1919 JUMP JUMPDEST SWAP1 POP SWAP1 JUMP JUMPDEST PUSH0 DUP3 DUP3 DUP5 DUP5 DUP7 DUP7 PUSH1 0x3 PUSH8 0xDE0B6B3A7640000 PUSH3 0x588040 PUSH2 0xF6C SWAP2 SWAP1 PUSH2 0x11E2 JUMP JUMPDEST PUSH2 0xF76 SWAP2 SWAP1 PUSH2 0x13C9 JUMP JUMPDEST PUSH2 0xF80 SWAP2 SWAP1 PUSH2 0x11E2 JUMP JUMPDEST PUSH2 0xF8A SWAP2 SWAP1 PUSH2 0x13C9 JUMP JUMPDEST PUSH2 0xF94 SWAP2 SWAP1 PUSH2 0x11E2 JUMP JUMPDEST PUSH2 0xF9E SWAP2 SWAP1 PUSH2 0x13C9 JUMP JUMPDEST PUSH2 0xFA8 SWAP2 SWAP1 PUSH2 0x11E2 JUMP JUMPDEST PUSH2 0xFB2 SWAP2 SWAP1 PUSH2 0x13C9 JUMP JUMPDEST SWAP1 POP SWAP3 SWAP2 POP POP JUMP JUMPDEST PUSH0 DUP2 DUP4 LT PUSH2 0xFC8 JUMPI DUP2 PUSH2 0xFCA JUMP JUMPDEST DUP3 JUMPDEST SWAP1 POP SWAP3 SWAP2 POP POP JUMP JUMPDEST PUSH0 DUP1 REVERT JUMPDEST PUSH0 DUP2 SWAP1 POP SWAP2 SWAP1 POP JUMP JUMPDEST PUSH2 0xFE8 DUP2 PUSH2 0xFD6 JUMP JUMPDEST DUP2 EQ PUSH2 0xFF2 JUMPI PUSH0 DUP1 REVERT JUMPDEST POP JUMP JUMPDEST PUSH0 DUP2 CALLDATALOAD SWAP1 POP PUSH2 0x1003 DUP2 PUSH2 0xFDF JUMP JUMPDEST SWAP3 SWAP2 POP POP JUMP JUMPDEST PUSH0 DUP1 PUSH1 0x40 DUP4 DUP6 SUB SLT ISZERO PUSH2 0x101F JUMPI PUSH2 0x101E PUSH2 0xFD2 JUMP JUMPDEST JUMPDEST PUSH0 PUSH2 0x102C DUP6 DUP3 DUP7 ADD PUSH2 0xFF5 JUMP JUMPDEST SWAP3 POP POP PUSH1 0x20 PUSH2 0x103D DUP6 DUP3 DUP7 ADD PUSH2 0xFF5 JUMP JUMPDEST SWAP2 POP POP SWAP3 POP SWAP3 SWAP1 POP JUMP JUMPDEST PUSH2 0x1050 DUP2 PUSH2 0xFD6 JUMP JUMPDEST DUP3 MSTORE POP POP JUMP JUMPDEST PUSH0 PUSH1 0x20 DUP3 ADD SWAP1 POP PUSH2 0x1069 PUSH0 DUP4 ADD DUP5 PUSH2 0x1047 JUMP JUMPDEST SWAP3 SWAP2 POP POP JUMP JUMPDEST PUSH0 PUSH1 0x20 DUP3 DUP5 SUB SLT ISZERO PUSH2 0x1084 JUMPI PUSH2 0x1083 PUSH2 0xFD2 JUMP JUMPDEST JUMPDEST PUSH0 PUSH2 0x1091 DUP5 DUP3 DUP6 ADD PUSH2 0xFF5 JUMP JUMPDEST SWAP2 POP POP SWAP3 SWAP2 POP POP JUMP JUMPDEST PUSH0 DUP1 PUSH0 PUSH1 0x60 DUP5 DUP7 SUB SLT ISZERO PUSH2 0x10B1 JUMPI PUSH2 0x10B0 PUSH2 0xFD2 JUMP JUMPDEST JUMPDEST PUSH0 PUSH2 0x10BE DUP7 DUP3 DUP8 ADD PUSH2 0xFF5 JUMP JUMPDEST SWAP4 POP POP PUSH1 0x20 PUSH2 0x10CF DUP7 DUP3 DUP8 ADD PUSH2 0xFF5 JUMP JUMPDEST SWAP3 POP POP PUSH1 0x40 PUSH2 0x10E0 DUP7 DUP3 DUP8 ADD PUSH2 0xFF5 JUMP JUMPDEST SWAP2 POP POP SWAP3 POP SWAP3 POP SWAP3 JUMP JUMPDEST PUSH0 PUSH20 0xFFFFFFFFFFFFFFFFFFFFFFFFFFFFFFFFFFFFFFFF DUP3 AND SWAP1 POP SWAP2 SWAP1 POP JUMP JUMPDEST PUSH0 PUSH2 0x1113 DUP3 PUSH2 0x10EA JUMP JUMPDEST SWAP1 POP SWAP2 SWAP1 POP JUMP JUMPDEST PUSH2 0x1123 DUP2 PUSH2 0x1109 JUMP JUMPDEST DUP2 EQ PUSH2 0x112D JUMPI PUSH0 DUP1 REVERT JUMPDEST POP JUMP JUMPDEST PUSH0 DUP2 CALLDATALOAD SWAP1 POP PUSH2 0x113E DUP2 PUSH2 0x111A JUMP JUMPDEST SWAP3 SWAP2 POP POP JUMP JUMPDEST PUSH0 DUP1 PUSH1 0x40 DUP4 DUP6 SUB SLT ISZERO PUSH2 0x115A JUMPI PUSH2 0x1159 PUSH2 0xFD2 JUMP JUMPDEST JUMPDEST PUSH0 PUSH2 0x1167 DUP6 DUP3 DUP7 ADD PUSH2 0x1130 JUMP JUMPDEST SWAP3 POP POP PUSH1 0x20 PUSH2 0x1178 DUP6 DUP3 DUP7 ADD PUSH2 0xFF5 JUMP JUMPDEST SWAP2 POP POP SWAP3 POP SWAP3 SWAP1 POP JUMP JUMPDEST PUSH0 DUP2 ISZERO ISZERO SWAP1 POP SWAP2 SWAP1 POP JUMP JUMPDEST PUSH2 0x1196 DUP2 PUSH2 0x1182 JUMP JUMPDEST DUP3 MSTORE POP POP JUMP JUMPDEST PUSH0 PUSH1 0x20 DUP3 ADD SWAP1 POP PUSH2 0x11AF PUSH0 DUP4 ADD DUP5 PUSH2 0x118D JUMP JUMPDEST SWAP3 SWAP2 POP POP JUMP JUMPDEST PUSH32 0x4E487B7100000000000000000000000000000000000000000000000000000000 PUSH0 MSTORE PUSH1 0x11 PUSH1 0x4 MSTORE PUSH1 0x24 PUSH0 REVERT JUMPDEST PUSH0 PUSH2 0x11EC DUP3 PUSH2 0xFD6 JUMP JUMPDEST SWAP2 POP PUSH2 0x11F7 DUP4 PUSH2 0xFD6 JUMP JUMPDEST SWAP3 POP DUP3 DUP3 MUL PUSH2 0x1205 DUP2 PUSH2 0xFD6 JUMP JUMPDEST SWAP2 POP DUP3 DUP3 DIV DUP5 EQ DUP4 ISZERO OR PUSH2 0x121C JUMPI PUSH2 0x121B PUSH2 0x11B5 JUMP JUMPDEST JUMPDEST POP SWAP3 SWAP2 POP POP JUMP JUMPDEST PUSH0 DUP2 PUSH1 0x1 SHR SWAP1 POP SWAP2 SWAP1 POP JUMP JUMPDEST PUSH0 DUP1 DUP3 SWAP2 POP DUP4 SWAP1 POP JUMPDEST PUSH1 0x1 DUP6 GT ISZERO PUSH2 0x1278 JUMPI DUP1 DUP7 DIV DUP2 GT ISZERO PUSH2 0x1254 JUMPI PUSH2 0x1253 PUSH2 0x11B5 JUMP JUMPDEST JUMPDEST PUSH1 0x1 DUP6 AND ISZERO PUSH2 0x1263 JUMPI DUP1 DUP3 MUL SWAP2 POP JUMPDEST DUP1 DUP2 MUL SWAP1 POP PUSH2 0x1271 DUP6 PUSH2 0x1223 JUMP JUMPDEST SWAP5 POP PUSH2 0x1238 JUMP JUMPDEST SWAP5 POP SWAP5 SWAP3 POP POP POP JUMP JUMPDEST PUSH0 DUP3 PUSH2 0x1290 JUMPI PUSH1 0x1 SWAP1 POP PUSH2 0x134B JUMP JUMPDEST DUP2 PUSH2 0x129D JUMPI PUSH0 SWAP1 POP PUSH2 0x134B JUMP JUMPDEST DUP2 PUSH1 0x1 DUP2 EQ PUSH2 0x12B3 JUMPI PUSH1 0x2 DUP2 EQ PUSH2 0x12BD JUMPI PUSH2 0x12EC JUMP JUMPDEST PUSH1 0x1 SWAP2 POP POP PUSH2 0x134B JUMP JUMPDEST PUSH1 0xFF DUP5 GT ISZERO PUSH2 0x12CF JUMPI PUSH2 0x12CE PUSH2 0x11B5 JUMP JUMPDEST JUMPDEST DUP4 PUSH1 0x2 EXP SWAP2 POP DUP5 DUP3 GT ISZERO PUSH2 0x12E6 JUMPI PUSH2 0x12E5 PUSH2 0x11B5 JUMP JUMPDEST JUMPDEST POP PUSH2 0x134B JUMP JUMPDEST POP PUSH1 0x20 DUP4 LT PUSH2 0x133 DUP4 LT AND PUSH1 0x4E DUP5 LT PUSH1 0xB DUP5 LT AND OR ISZERO PUSH2 0x1321 JUMPI DUP3 DUP3 EXP SWAP1 POP DUP4 DUP2 GT ISZERO PUSH2 0x131C JUMPI PUSH2 0x131B PUSH2 0x11B5 JUMP JUMPDEST JUMPDEST PUSH2 0x134B JUMP JUMPDEST PUSH2 0x132E DUP5 DUP5 DUP5 PUSH1 0x1 PUSH2 0x122F JUMP JUMPDEST SWAP3 POP SWAP1 POP DUP2 DUP5 DIV DUP2 GT ISZERO PUSH2 0x1345 JUMPI PUSH2 0x1344 PUSH2 0x11B5 JUMP JUMPDEST JUMPDEST DUP2 DUP2 MUL SWAP1 POP JUMPDEST SWAP4 SWAP3 POP POP POP JUMP JUMPDEST PUSH0 PUSH2 0x135C DUP3 PUSH2 0xFD6 JUMP JUMPDEST SWAP2 POP PUSH2 0x1367 DUP4 PUSH2 0xFD6 JUMP JUMPDEST SWAP3 POP PUSH2 0x1394 PUSH32 0xFFFFFFFFFFFFFFFFFFFFFFFFFFFFFFFFFFFFFFFFFFFFFFFFFFFFFFFFFFFFFFFF DUP5 DUP5 PUSH2 0x1281 JUMP JUMPDEST SWAP1 POP SWAP3 SWAP2 POP POP JUMP JUMPDEST PUSH32 0x4E487B7100000000000000000000000000000000000000000000000000000000 PUSH0 MSTORE PUSH1 0x12 PUSH1 0x4 MSTORE PUSH1 0x24 PUSH0 REVERT JUMPDEST PUSH0 PUSH2 0x13D3 DUP3 PUSH2 0xFD6 JUMP JUMPDEST SWAP2 POP PUSH2 0x13DE DUP4 PUSH2 0xFD6 JUMP JUMPDEST SWAP3 POP DUP3 PUSH2 0x13EE JUMPI PUSH2 0x13ED PUSH2 0x139C JUMP JUMPDEST JUMPDEST DUP3 DUP3 DIV SWAP1 POP SWAP3 SWAP2 POP POP JUMP JUMPDEST PUSH0 PUSH2 0x1403 DUP3 PUSH2 0xFD6 JUMP JUMPDEST SWAP2 POP PUSH2 0x140E DUP4 PUSH2 0xFD6 JUMP JUMPDEST SWAP3 POP DUP3 DUP3 ADD SWAP1 POP DUP1 DUP3 GT ISZERO PUSH2 0x1426 JUMPI PUSH2 0x1425 PUSH2 0x11B5 JUMP JUMPDEST JUMPDEST SWAP3 SWAP2 POP POP JUMP JUMPDEST PUSH0 DUP3 DUP3 MSTORE PUSH1 0x20 DUP3 ADD SWAP1 POP SWAP3 SWAP2 POP POP JUMP JUMPDEST PUSH32 0x506F6F6C3A20657468496E203E20300000000000000000000000000000000000 PUSH0 DUP3 ADD MSTORE POP JUMP JUMPDEST PUSH0 PUSH2 0x1470 PUSH1 0xF DUP4 PUSH2 0x142C JUMP JUMPDEST SWAP2 POP PUSH2 0x147B DUP3 PUSH2 0x143C JUMP JUMPDEST PUSH1 0x20 DUP3 ADD SWAP1 POP SWAP2 SWAP1 POP JUMP JUMPDEST PUSH0 PUSH1 0x20 DUP3 ADD SWAP1 POP DUP2 DUP2 SUB PUSH0 DUP4 ADD MSTORE PUSH2 0x149D DUP2 PUSH2 0x1464 JUMP JUMPDEST SWAP1 POP SWAP2 SWAP1 POP JUMP JUMPDEST PUSH0 PUSH2 0x14AE DUP3 PUSH2 0xFD6 JUMP JUMPDEST SWAP2 POP PUSH2 0x14B9 DUP4 PUSH2 0xFD6 JUMP JUMPDEST SWAP3 POP DUP3 DUP3 SUB SWAP1 POP DUP2 DUP2 GT ISZERO PUSH2 0x14D1 JUMPI PUSH2 0x14D0 PUSH2 0x11B5 JUMP JUMPDEST JUMPDEST SWAP3 SWAP2 POP POP JUMP JUMPDEST PUSH0 DUP2 MLOAD SWAP1 POP PUSH2 0x14E5 DUP2 PUSH2 0xFDF JUMP JUMPDEST SWAP3 SWAP2 POP POP JUMP JUMPDEST PUSH0 PUSH1 0x20 DUP3 DUP5 SUB SLT ISZERO PUSH2 0x1500 JUMPI PUSH2 0x14FF PUSH2 0xFD2 JUMP JUMPDEST JUMPDEST PUSH0 PUSH2 0x150D DUP5 DUP3 DUP6 ADD PUSH2 0x14D7 JUMP JUMPDEST SWAP2 POP POP SWAP3 SWAP2 POP POP JUMP JUMPDEST PUSH32 0x506F6F6C3A20746F6B656E734F7574206973206C657373207468616E206D696E PUSH0 DUP3 ADD MSTORE PUSH32 0x546F6B656E734F75740000000000000000000000000000000000000000000000 PUSH1 0x20 DUP3 ADD MSTORE POP JUMP JUMPDEST PUSH0 PUSH2 0x1570 PUSH1 0x29 DUP4 PUSH2 0x142C JUMP JUMPDEST SWAP2 POP PUSH2 0x157B DUP3 PUSH2 0x1516 JUMP JUMPDEST PUSH1 0x40 DUP3 ADD SWAP1 POP SWAP2 SWAP1 POP JUMP JUMPDEST PUSH0 PUSH1 0x20 DUP3 ADD SWAP1 POP DUP2 DUP2 SUB PUSH0 DUP4 ADD MSTORE PUSH2 0x159D DUP2 PUSH2 0x1564 JUMP JUMPDEST SWAP1 POP SWAP2 SWAP1 POP JUMP JUMPDEST PUSH0 PUSH2 0x15AE DUP3 PUSH2 0x10EA JUMP JUMPDEST SWAP1 POP SWAP2 SWAP1 POP JUMP JUMPDEST PUSH2 0x15BE DUP2 PUSH2 0x15A4 JUMP JUMPDEST DUP3 MSTORE POP POP JUMP JUMPDEST PUSH0 PUSH1 0x40 DUP3 ADD SWAP1 POP PUSH2 0x15D7 PUSH0 DUP4 ADD DUP6 PUSH2 0x15B5 JUMP JUMPDEST PUSH2 0x15E4 PUSH1 0x20 DUP4 ADD DUP5 PUSH2 0x1047 JUMP JUMPDEST SWAP4 SWAP3 POP POP POP JUMP JUMPDEST PUSH0 PUSH1 0x40 DUP3 ADD SWAP1 POP PUSH2 0x15FE PUSH0 DUP4 ADD DUP6 PUSH2 0x1047 JUMP JUMPDEST PUSH2 0x160B PUSH1 0x20 DUP4 ADD DUP5 PUSH2 0x1047 JUMP JUMPDEST SWAP4 SWAP3 POP POP POP JUMP JUMPDEST PUSH0 PUSH1 0x20 DUP3 ADD SWAP1 POP PUSH2 0x1625 PUSH0 DUP4 ADD DUP5 PUSH2 0x15B5 JUMP JUMPDEST SWAP3 SWAP2 POP POP JUMP JUMPDEST PUSH32 0x506F6F6C3A204E6F7420656E6F7567682062616C616E63650000000000000000 PUSH0 DUP3 ADD MSTORE POP JUMP JUMPDEST PUSH0 PUSH2 0x165F PUSH1 0x18 DUP4 PUSH2 0x142C JUMP JUMPDEST SWAP2 POP PUSH2 0x166A DUP3 PUSH2 0x162B JUMP JUMPDEST PUSH1 0x20 DUP3 ADD SWAP1 POP SWAP2 SWAP1 POP JUMP JUMPDEST PUSH0 PUSH1 0x20 DUP3 ADD SWAP1 POP DUP2 DUP2 SUB PUSH0 DUP4 ADD MSTORE PUSH2 0x168C DUP2 PUSH2 0x1653 JUMP JUMPDEST SWAP1 POP SWAP2 SWAP1 POP JUMP JUMPDEST PUSH32 0x506F6F6C3A204D4352252063616E6E6F742066616C6C2062656C6F7720313030 PUSH0 DUP3 ADD MSTORE PUSH32 0x2500000000000000000000000000000000000000000000000000000000000000 PUSH1 0x20 DUP3 ADD MSTORE POP JUMP JUMPDEST PUSH0 PUSH2 0x16ED PUSH1 0x21 DUP4 PUSH2 0x142C JUMP JUMPDEST SWAP2 POP PUSH2 0x16F8 DUP3 PUSH2 0x1693 JUMP JUMPDEST PUSH1 0x40 DUP3 ADD SWAP1 POP SWAP2 SWAP1 POP JUMP JUMPDEST PUSH0 PUSH1 0x20 DUP3 ADD SWAP1 POP DUP2 DUP2 SUB PUSH0 DUP4 ADD MSTORE PUSH2 0x171A DUP2 PUSH2 0x16E1 JUMP JUMPDEST SWAP1 POP SWAP2 SWAP1 POP JUMP JUMPDEST PUSH32 0x506F6F6C3A206574684F7574203C206D696E4574684F75740000000000000000 PUSH0 DUP3 ADD MSTORE POP JUMP JUMPDEST PUSH0 PUSH2 0x1755 PUSH1 0x18 DUP4 PUSH2 0x142C JUMP JUMPDEST SWAP2 POP PUSH2 0x1760 DUP3 PUSH2 0x1721 JUMP JUMPDEST PUSH1 0x20 DUP3 ADD SWAP1 POP SWAP2 SWAP1 POP JUMP JUMPDEST PUSH0 PUSH1 0x20 DUP3 ADD SWAP1 POP DUP2 DUP2 SUB PUSH0 DUP4 ADD MSTORE PUSH2 0x1782 DUP2 PUSH2 0x1749 JUMP JUMPDEST SWAP1 POP SWAP2 SWAP1 POP JUMP JUMPDEST PUSH2 0x1792 DUP2 PUSH2 0x1182 JUMP JUMPDEST DUP2 EQ PUSH2 0x179C JUMPI PUSH0 DUP1 REVERT JUMPDEST POP JUMP JUMPDEST PUSH0 DUP2 MLOAD SWAP1 POP PUSH2 0x17AD DUP2 PUSH2 0x1789 JUMP JUMPDEST SWAP3 SWAP2 POP POP JUMP JUMPDEST PUSH0 PUSH1 0x20 DUP3 DUP5 SUB SLT ISZERO PUSH2 0x17C8 JUMPI PUSH2 0x17C7 PUSH2 0xFD2 JUMP JUMPDEST JUMPDEST PUSH0 PUSH2 0x17D5 DUP5 DUP3 DUP6 ADD PUSH2 0x179F JUMP JUMPDEST SWAP2 POP POP SWAP3 SWAP2 POP POP JUMP JUMPDEST PUSH0 DUP2 SWAP1 POP SWAP3 SWAP2 POP POP JUMP JUMPDEST POP JUMP JUMPDEST PUSH0 PUSH2 0x17F6 PUSH0 DUP4 PUSH2 0x17DE JUMP JUMPDEST SWAP2 POP PUSH2 0x1801 DUP3 PUSH2 0x17E8 JUMP JUMPDEST PUSH0 DUP3 ADD SWAP1 POP SWAP2 SWAP1 POP JUMP JUMPDEST PUSH0 PUSH2 0x1815 DUP3 PUSH2 0x17EB JUMP JUMPDEST SWAP2 POP DUP2 SWAP1 POP SWAP2 SWAP1 POP JUMP JUMPDEST PUSH32 0x506F6F6C3A2053656C6C207472616E73666572206661696C6564000000000000 PUSH0 DUP3 ADD MSTORE POP JUMP JUMPDEST PUSH0 PUSH2 0x1853 PUSH1 0x1A DUP4 PUSH2 0x142C JUMP JUMPDEST SWAP2 POP PUSH2 0x185E DUP3 PUSH2 0x181F JUMP JUMPDEST PUSH1 0x20 DUP3 ADD SWAP1 POP SWAP2 SWAP1 POP JUMP JUMPDEST PUSH0 PUSH1 0x20 DUP3 ADD SWAP1 POP DUP2 DUP2 SUB PUSH0 DUP4 ADD MSTORE PUSH2 0x1880 DUP2 PUSH2 0x1847 JUMP JUMPDEST SWAP1 POP SWAP2 SWAP1 POP JUMP JUMPDEST PUSH32 0x506F6F6C3A20455448207472616E73666572206661696C656400000000000000 PUSH0 DUP3 ADD MSTORE POP JUMP JUMPDEST PUSH0 PUSH2 0x18BB PUSH1 0x19 DUP4 PUSH2 0x142C JUMP JUMPDEST SWAP2 POP PUSH2 0x18C6 DUP3 PUSH2 0x1887 JUMP JUMPDEST PUSH1 0x20 DUP3 ADD SWAP1 POP SWAP2 SWAP1 POP JUMP JUMPDEST PUSH0 PUSH1 0x20 DUP3 ADD SWAP1 POP DUP2 DUP2 SUB PUSH0 DUP4 ADD MSTORE PUSH2 0x18E8 DUP2 PUSH2 0x18AF JUMP JUMPDEST SWAP1 POP SWAP2 SWAP1 POP JUMP JUMPDEST PUSH2 0x18F8 DUP2 PUSH2 0x15A4 JUMP JUMPDEST DUP2 EQ PUSH2 0x1902 JUMPI PUSH0 DUP1 REVERT JUMPDEST POP JUMP JUMPDEST PUSH0 DUP2 MLOAD SWAP1 POP PUSH2 0x1913 DUP2 PUSH2 0x18EF JUMP JUMPDEST SWAP3 SWAP2 POP POP JUMP JUMPDEST PUSH0 PUSH1 0x20 DUP3 DUP5 SUB SLT ISZERO PUSH2 0x192E JUMPI PUSH2 0x192D PUSH2 0xFD2 JUMP JUMPDEST JUMPDEST PUSH0 PUSH2 0x193B DUP5 DUP3 DUP6 ADD PUSH2 0x1905 JUMP JUMPDEST SWAP2 POP POP SWAP3 SWAP2 POP POP JUMP INVALID LOG2 PUSH5 0x6970667358 0x22 SLT KECCAK256 0x27 0xE9 INVALID DIV 0xDC PREVRANDAO 0x4F SLT 0x5E SAR DELEGATECALL 0xF PUSH10 0x89454E0667E6167593C6 DUP15 BASEFEE EXTCODECOPY 0xEA SWAP6 PUSH24 0x76C04864736F6C6343000815003300000000000000000000 "
		},
		"gasEstimates": {
			"creation": {
				"codeDepositCost": "1304400",
				"executionCost": "infinite",
				"totalCost": "infinite"
			},
			"external": {
				"": "217",
				"MAX_BUY_SELL_MCR_ETH_FRACTION()": "370",
				"MAX_MCR_RATIO()": "370",
				"MCR_RATIO_DECIMALS()": "392",
				"buyHEDH(uint256)": "infinite",
				"calculateEthForHEDH(uint256,uint256,uint256)": "infinite",
				"calculateHEDHForEth(uint256,uint256,uint256)": "infinite",
				"calculateMCRRatio(uint256,uint256)": "infinite",
				"calculateTokenSpotPrice(uint256,uint256)": "infinite",
				"getEthForHEDH(uint256)": "infinite",
				"getHEDHForEth(uint256)": "infinite",
				"sellHEDH(uint256,uint256)": "infinite",
				"sellHEDHTokens(uint256)": "infinite",
				"sendPayout(address,uint256)": "infinite"
			},
			"internal": {
				"calculateIntegralAtPoint(uint256,uint256)": "infinite",
				"mcr()": "infinite"
			}
		},
		"methodIdentifiers": {
			"MAX_BUY_SELL_MCR_ETH_FRACTION()": "1f50c989",
			"MAX_MCR_RATIO()": "b222a4d3",
			"MCR_RATIO_DECIMALS()": "4779be08",
			"buyHEDH(uint256)": "06833ffd",
			"calculateEthForHEDH(uint256,uint256,uint256)": "ebb8433f",
			"calculateHEDHForEth(uint256,uint256,uint256)": "657e0542",
			"calculateMCRRatio(uint256,uint256)": "70310cb7",
			"calculateTokenSpotPrice(uint256,uint256)": "04e8266f",
			"getEthForHEDH(uint256)": "eabf3407",
			"getHEDHForEth(uint256)": "483b6f1d",
			"sellHEDH(uint256,uint256)": "bdf4872b",
			"sellHEDHTokens(uint256)": "e57a8fef",
			"sendPayout(address,uint256)": "cf8d133f"
		}
	},
	"abi": [
		{
			"inputs": [
				{
					"internalType": "address",
					"name": "_HEDHTokenAddress",
					"type": "address"
				},
				{
					"internalType": "address",
					"name": "_master",
					"type": "address"
				}
			],
			"stateMutability": "nonpayable",
			"type": "constructor"
		},
		{
			"anonymous": false,
			"inputs": [
				{
					"indexed": true,
					"internalType": "address",
					"name": "member",
					"type": "address"
				},
				{
					"indexed": false,
					"internalType": "uint256",
					"name": "ethIn",
					"type": "uint256"
				},
				{
					"indexed": false,
					"internalType": "uint256",
					"name": "nxmOut",
					"type": "uint256"
				}
			],
			"name": "HEDHBought",
			"type": "event"
		},
		{
			"anonymous": false,
			"inputs": [
				{
					"indexed": true,
					"internalType": "address",
					"name": "member",
					"type": "address"
				},
				{
					"indexed": false,
					"internalType": "uint256",
					"name": "nxmIn",
					"type": "uint256"
				},
				{
					"indexed": false,
					"internalType": "uint256",
					"name": "ethOut",
					"type": "uint256"
				}
			],
			"name": "HEDHSold",
			"type": "event"
		},
		{
			"anonymous": false,
			"inputs": [
				{
					"indexed": true,
					"internalType": "address",
					"name": "to",
					"type": "address"
				},
				{
					"indexed": false,
					"internalType": "uint256",
					"name": "amount",
					"type": "uint256"
				}
			],
			"name": "Payout",
			"type": "event"
		},
		{
			"stateMutability": "payable",
			"type": "fallback"
		},
		{
			"inputs": [],
			"name": "MAX_BUY_SELL_MCR_ETH_FRACTION",
			"outputs": [
				{
					"internalType": "uint256",
					"name": "",
					"type": "uint256"
				}
			],
			"stateMutability": "view",
			"type": "function"
		},
		{
			"inputs": [],
			"name": "MAX_MCR_RATIO",
			"outputs": [
				{
					"internalType": "uint256",
					"name": "",
					"type": "uint256"
				}
			],
			"stateMutability": "view",
			"type": "function"
		},
		{
			"inputs": [],
			"name": "MCR_RATIO_DECIMALS",
			"outputs": [
				{
					"internalType": "uint256",
					"name": "",
					"type": "uint256"
				}
			],
			"stateMutability": "view",
			"type": "function"
		},
		{
			"inputs": [
				{
					"internalType": "uint256",
					"name": "minTokensOut",
					"type": "uint256"
				}
			],
			"name": "buyHEDH",
			"outputs": [],
			"stateMutability": "payable",
			"type": "function"
		},
		{
			"inputs": [
				{
					"internalType": "uint256",
					"name": "nxmAmount",
					"type": "uint256"
				},
				{
					"internalType": "uint256",
					"name": "currentTotalAssetValue",
					"type": "uint256"
				},
				{
					"internalType": "uint256",
					"name": "mcrEth",
					"type": "uint256"
				}
			],
			"name": "calculateEthForHEDH",
			"outputs": [
				{
					"internalType": "uint256",
					"name": "",
					"type": "uint256"
				}
			],
			"stateMutability": "pure",
			"type": "function"
		},
		{
			"inputs": [
				{
					"internalType": "uint256",
					"name": "ethAmount",
					"type": "uint256"
				},
				{
					"internalType": "uint256",
					"name": "currentTotalAssetValue",
					"type": "uint256"
				},
				{
					"internalType": "uint256",
					"name": "mcrEth",
					"type": "uint256"
				}
			],
			"name": "calculateHEDHForEth",
			"outputs": [
				{
					"internalType": "uint256",
					"name": "",
					"type": "uint256"
				}
			],
			"stateMutability": "pure",
			"type": "function"
		},
		{
			"inputs": [
				{
					"internalType": "uint256",
					"name": "totalAssetValue",
					"type": "uint256"
				},
				{
					"internalType": "uint256",
					"name": "mcrEth",
					"type": "uint256"
				}
			],
			"name": "calculateMCRRatio",
			"outputs": [
				{
					"internalType": "uint256",
					"name": "",
					"type": "uint256"
				}
			],
			"stateMutability": "pure",
			"type": "function"
		},
		{
			"inputs": [
				{
					"internalType": "uint256",
					"name": "totalAssetValue",
					"type": "uint256"
				},
				{
					"internalType": "uint256",
					"name": "mcrEth",
					"type": "uint256"
				}
			],
			"name": "calculateTokenSpotPrice",
			"outputs": [
				{
					"internalType": "uint256",
					"name": "tokenPrice",
					"type": "uint256"
				}
			],
			"stateMutability": "pure",
			"type": "function"
		},
		{
			"inputs": [
				{
					"internalType": "uint256",
					"name": "hedhAmount",
					"type": "uint256"
				}
			],
			"name": "getEthForHEDH",
			"outputs": [
				{
					"internalType": "uint256",
					"name": "ethAmount",
					"type": "uint256"
				}
			],
			"stateMutability": "nonpayable",
			"type": "function"
		},
		{
			"inputs": [
				{
					"internalType": "uint256",
					"name": "ethAmount",
					"type": "uint256"
				}
			],
			"name": "getHEDHForEth",
			"outputs": [
				{
					"internalType": "uint256",
					"name": "",
					"type": "uint256"
				}
			],
			"stateMutability": "nonpayable",
			"type": "function"
		},
		{
			"inputs": [
				{
					"internalType": "uint256",
					"name": "tokenAmount",
					"type": "uint256"
				},
				{
					"internalType": "uint256",
					"name": "minEthOut",
					"type": "uint256"
				}
			],
			"name": "sellHEDH",
			"outputs": [],
			"stateMutability": "nonpayable",
			"type": "function"
		},
		{
			"inputs": [
				{
					"internalType": "uint256",
					"name": "amount",
					"type": "uint256"
				}
			],
			"name": "sellHEDHTokens",
			"outputs": [
				{
					"internalType": "bool",
					"name": "success",
					"type": "bool"
				}
			],
			"stateMutability": "nonpayable",
			"type": "function"
		},
		{
			"inputs": [
				{
					"internalType": "address payable",
					"name": "payoutAddress",
					"type": "address"
				},
				{
					"internalType": "uint256",
					"name": "amount",
					"type": "uint256"
				}
			],
			"name": "sendPayout",
			"outputs": [],
			"stateMutability": "nonpayable",
			"type": "function"
		},
		{
			"stateMutability": "payable",
			"type": "receive"
		}
	]
}